{"abi":[{"type":"constructor","inputs":[{"name":"initialAdmin","type":"address","internalType":"address"}],"stateMutability":"nonpayable"},{"type":"function","name":"ADMIN_ROLE","inputs":[],"outputs":[{"name":"","type":"uint64","internalType":"uint64"}],"stateMutability":"view"},{"type":"function","name":"PUBLIC_ROLE","inputs":[],"outputs":[{"name":"","type":"uint64","internalType":"uint64"}],"stateMutability":"view"},{"type":"function","name":"canCall","inputs":[{"name":"caller","type":"address","internalType":"address"},{"name":"target","type":"address","internalType":"address"},{"name":"selector","type":"bytes4","internalType":"bytes4"}],"outputs":[{"name":"immediate","type":"bool","internalType":"bool"},{"name":"delay","type":"uint32","internalType":"uint32"}],"stateMutability":"view"},{"type":"function","name":"cancel","inputs":[{"name":"caller","type":"address","internalType":"address"},{"name":"target","type":"address","internalType":"address"},{"name":"data","type":"bytes","internalType":"bytes"}],"outputs":[{"name":"","type":"uint32","internalType":"uint32"}],"stateMutability":"nonpayable"},{"type":"function","name":"consumeScheduledOp","inputs":[{"name":"caller","type":"address","internalType":"address"},{"name":"data","type":"bytes","internalType":"bytes"}],"outputs":[],"stateMutability":"nonpayable"},{"type":"function","name":"execute","inputs":[{"name":"target","type":"address","internalType":"address"},{"name":"data","type":"bytes","internalType":"bytes"}],"outputs":[{"name":"","type":"uint32","internalType":"uint32"}],"stateMutability":"payable"},{"type":"function","name":"expiration","inputs":[],"outputs":[{"name":"","type":"uint32","internalType":"uint32"}],"stateMutability":"view"},{"type":"function","name":"getAccess","inputs":[{"name":"roleId","type":"uint64","internalType":"uint64"},{"name":"account","type":"address","internalType":"address"}],"outputs":[{"name":"since","type":"uint48","internalType":"uint48"},{"name":"currentDelay","type":"uint32","internalType":"uint32"},{"name":"pendingDelay","type":"uint32","internalType":"uint32"},{"name":"effect","type":"uint48","internalType":"uint48"}],"stateMutability":"view"},{"type":"function","name":"getNonce","inputs":[{"name":"id","type":"bytes32","internalType":"bytes32"}],"outputs":[{"name":"","type":"uint32","internalType":"uint32"}],"stateMutability":"view"},{"type":"function","name":"getRoleAdmin","inputs":[{"name":"roleId","type":"uint64","internalType":"uint64"}],"outputs":[{"name":"","type":"uint64","internalType":"uint64"}],"stateMutability":"view"},{"type":"function","name":"getRoleGrantDelay","inputs":[{"name":"roleId","type":"uint64","internalType":"uint64"}],"outputs":[{"name":"","type":"uint32","internalType":"uint32"}],"stateMutability":"view"},{"type":"function","name":"getRoleGuardian","inputs":[{"name":"roleId","type":"uint64","internalType":"uint64"}],"outputs":[{"name":"","type":"uint64","internalType":"uint64"}],"stateMutability":"view"},{"type":"function","name":"getSchedule","inputs":[{"name":"id","type":"bytes32","internalType":"bytes32"}],"outputs":[{"name":"","type":"uint48","internalType":"uint48"}],"stateMutability":"view"},{"type":"function","name":"getTargetAdminDelay","inputs":[{"name":"target","type":"address","internalType":"address"}],"outputs":[{"name":"","type":"uint32","internalType":"uint32"}],"stateMutability":"view"},{"type":"function","name":"getTargetFunctionRole","inputs":[{"name":"target","type":"address","internalType":"address"},{"name":"selector","type":"bytes4","internalType":"bytes4"}],"outputs":[{"name":"","type":"uint64","internalType":"uint64"}],"stateMutability":"view"},{"type":"function","name":"grantRole","inputs":[{"name":"roleId","type":"uint64","internalType":"uint64"},{"name":"account","type":"address","internalType":"address"},{"name":"executionDelay","type":"uint32","internalType":"uint32"}],"outputs":[],"stateMutability":"nonpayable"},{"type":"function","name":"hasRole","inputs":[{"name":"roleId","type":"uint64","internalType":"uint64"},{"name":"account","type":"address","internalType":"address"}],"outputs":[{"name":"isMember","type":"bool","internalType":"bool"},{"name":"executionDelay","type":"uint32","internalType":"uint32"}],"stateMutability":"view"},{"type":"function","name":"hashOperation","inputs":[{"name":"caller","type":"address","internalType":"address"},{"name":"target","type":"address","internalType":"address"},{"name":"data","type":"bytes","internalType":"bytes"}],"outputs":[{"name":"","type":"bytes32","internalType":"bytes32"}],"stateMutability":"view"},{"type":"function","name":"isTargetClosed","inputs":[{"name":"target","type":"address","internalType":"address"}],"outputs":[{"name":"","type":"bool","internalType":"bool"}],"stateMutability":"view"},{"type":"function","name":"labelRole","inputs":[{"name":"roleId","type":"uint64","internalType":"uint64"},{"name":"label","type":"string","internalType":"string"}],"outputs":[],"stateMutability":"nonpayable"},{"type":"function","name":"minSetback","inputs":[],"outputs":[{"name":"","type":"uint32","internalType":"uint32"}],"stateMutability":"view"},{"type":"function","name":"multicall","inputs":[{"name":"data","type":"bytes[]","internalType":"bytes[]"}],"outputs":[{"name":"results","type":"bytes[]","internalType":"bytes[]"}],"stateMutability":"nonpayable"},{"type":"function","name":"renounceRole","inputs":[{"name":"roleId","type":"uint64","internalType":"uint64"},{"name":"callerConfirmation","type":"address","internalType":"address"}],"outputs":[],"stateMutability":"nonpayable"},{"type":"function","name":"revokeRole","inputs":[{"name":"roleId","type":"uint64","internalType":"uint64"},{"name":"account","type":"address","internalType":"address"}],"outputs":[],"stateMutability":"nonpayable"},{"type":"function","name":"schedule","inputs":[{"name":"target","type":"address","internalType":"address"},{"name":"data","type":"bytes","internalType":"bytes"},{"name":"when","type":"uint48","internalType":"uint48"}],"outputs":[{"name":"operationId","type":"bytes32","internalType":"bytes32"},{"name":"nonce","type":"uint32","internalType":"uint32"}],"stateMutability":"nonpayable"},{"type":"function","name":"setGrantDelay","inputs":[{"name":"roleId","type":"uint64","internalType":"uint64"},{"name":"newDelay","type":"uint32","internalType":"uint32"}],"outputs":[],"stateMutability":"nonpayable"},{"type":"function","name":"setRoleAdmin","inputs":[{"name":"roleId","type":"uint64","internalType":"uint64"},{"name":"admin","type":"uint64","internalType":"uint64"}],"outputs":[],"stateMutability":"nonpayable"},{"type":"function","name":"setRoleGuardian","inputs":[{"name":"roleId","type":"uint64","internalType":"uint64"},{"name":"guardian","type":"uint64","internalType":"uint64"}],"outputs":[],"stateMutability":"nonpayable"},{"type":"function","name":"setTargetAdminDelay","inputs":[{"name":"target","type":"address","internalType":"address"},{"name":"newDelay","type":"uint32","internalType":"uint32"}],"outputs":[],"stateMutability":"nonpayable"},{"type":"function","name":"setTargetClosed","inputs":[{"name":"target","type":"address","internalType":"address"},{"name":"closed","type":"bool","internalType":"bool"}],"outputs":[],"stateMutability":"nonpayable"},{"type":"function","name":"setTargetFunctionRole","inputs":[{"name":"target","type":"address","internalType":"address"},{"name":"selectors","type":"bytes4[]","internalType":"bytes4[]"},{"name":"roleId","type":"uint64","internalType":"uint64"}],"outputs":[],"stateMutability":"nonpayable"},{"type":"function","name":"updateAuthority","inputs":[{"name":"target","type":"address","internalType":"address"},{"name":"newAuthority","type":"address","internalType":"address"}],"outputs":[],"stateMutability":"nonpayable"},{"type":"event","name":"OperationCanceled","inputs":[{"name":"operationId","type":"bytes32","indexed":true,"internalType":"bytes32"},{"name":"nonce","type":"uint32","indexed":true,"internalType":"uint32"}],"anonymous":false},{"type":"event","name":"OperationExecuted","inputs":[{"name":"operationId","type":"bytes32","indexed":true,"internalType":"bytes32"},{"name":"nonce","type":"uint32","indexed":true,"internalType":"uint32"}],"anonymous":false},{"type":"event","name":"OperationScheduled","inputs":[{"name":"operationId","type":"bytes32","indexed":true,"internalType":"bytes32"},{"name":"nonce","type":"uint32","indexed":true,"internalType":"uint32"},{"name":"schedule","type":"uint48","indexed":false,"internalType":"uint48"},{"name":"caller","type":"address","indexed":false,"internalType":"address"},{"name":"target","type":"address","indexed":false,"internalType":"address"},{"name":"data","type":"bytes","indexed":false,"internalType":"bytes"}],"anonymous":false},{"type":"event","name":"RoleAdminChanged","inputs":[{"name":"roleId","type":"uint64","indexed":true,"internalType":"uint64"},{"name":"admin","type":"uint64","indexed":true,"internalType":"uint64"}],"anonymous":false},{"type":"event","name":"RoleGrantDelayChanged","inputs":[{"name":"roleId","type":"uint64","indexed":true,"internalType":"uint64"},{"name":"delay","type":"uint32","indexed":false,"internalType":"uint32"},{"name":"since","type":"uint48","indexed":false,"internalType":"uint48"}],"anonymous":false},{"type":"event","name":"RoleGranted","inputs":[{"name":"roleId","type":"uint64","indexed":true,"internalType":"uint64"},{"name":"account","type":"address","indexed":true,"internalType":"address"},{"name":"delay","type":"uint32","indexed":false,"internalType":"uint32"},{"name":"since","type":"uint48","indexed":false,"internalType":"uint48"},{"name":"newMember","type":"bool","indexed":false,"internalType":"bool"}],"anonymous":false},{"type":"event","name":"RoleGuardianChanged","inputs":[{"name":"roleId","type":"uint64","indexed":true,"internalType":"uint64"},{"name":"guardian","type":"uint64","indexed":true,"internalType":"uint64"}],"anonymous":false},{"type":"event","name":"RoleLabel","inputs":[{"name":"roleId","type":"uint64","indexed":true,"internalType":"uint64"},{"name":"label","type":"string","indexed":false,"internalType":"string"}],"anonymous":false},{"type":"event","name":"RoleRevoked","inputs":[{"name":"roleId","type":"uint64","indexed":true,"internalType":"uint64"},{"name":"account","type":"address","indexed":true,"internalType":"address"}],"anonymous":false},{"type":"event","name":"TargetAdminDelayUpdated","inputs":[{"name":"target","type":"address","indexed":true,"internalType":"address"},{"name":"delay","type":"uint32","indexed":false,"internalType":"uint32"},{"name":"since","type":"uint48","indexed":false,"internalType":"uint48"}],"anonymous":false},{"type":"event","name":"TargetClosed","inputs":[{"name":"target","type":"address","indexed":true,"internalType":"address"},{"name":"closed","type":"bool","indexed":false,"internalType":"bool"}],"anonymous":false},{"type":"event","name":"TargetFunctionRoleUpdated","inputs":[{"name":"target","type":"address","indexed":true,"internalType":"address"},{"name":"selector","type":"bytes4","indexed":false,"internalType":"bytes4"},{"name":"roleId","type":"uint64","indexed":true,"internalType":"uint64"}],"anonymous":false},{"type":"error","name":"AccessManagerAlreadyScheduled","inputs":[{"name":"operationId","type":"bytes32","internalType":"bytes32"}]},{"type":"error","name":"AccessManagerBadConfirmation","inputs":[]},{"type":"error","name":"AccessManagerExpired","inputs":[{"name":"operationId","type":"bytes32","internalType":"bytes32"}]},{"type":"error","name":"AccessManagerInvalidInitialAdmin","inputs":[{"name":"initialAdmin","type":"address","internalType":"address"}]},{"type":"error","name":"AccessManagerLockedRole","inputs":[{"name":"roleId","type":"uint64","internalType":"uint64"}]},{"type":"error","name":"AccessManagerNotReady","inputs":[{"name":"operationId","type":"bytes32","internalType":"bytes32"}]},{"type":"error","name":"AccessManagerNotScheduled","inputs":[{"name":"operationId","type":"bytes32","internalType":"bytes32"}]},{"type":"error","name":"AccessManagerUnauthorizedAccount","inputs":[{"name":"msgsender","type":"address","internalType":"address"},{"name":"roleId","type":"uint64","internalType":"uint64"}]},{"type":"error","name":"AccessManagerUnauthorizedCall","inputs":[{"name":"caller","type":"address","internalType":"address"},{"name":"target","type":"address","internalType":"address"},{"name":"selector","type":"bytes4","internalType":"bytes4"}]},{"type":"error","name":"AccessManagerUnauthorizedCancel","inputs":[{"name":"msgsender","type":"address","internalType":"address"},{"name":"caller","type":"address","internalType":"address"},{"name":"target","type":"address","internalType":"address"},{"name":"selector","type":"bytes4","internalType":"bytes4"}]},{"type":"error","name":"AccessManagerUnauthorizedConsume","inputs":[{"name":"target","type":"address","internalType":"address"}]},{"type":"error","name":"AddressEmptyCode","inputs":[{"name":"target","type":"address","internalType":"address"}]},{"type":"error","name":"FailedCall","inputs":[]},{"type":"error","name":"InsufficientBalance","inputs":[{"name":"balance","type":"uint256","internalType":"uint256"},{"name":"needed","type":"uint256","internalType":"uint256"}]},{"type":"error","name":"SafeCastOverflowedUintDowncast","inputs":[{"name":"bits","type":"uint8","internalType":"uint8"},{"name":"value","type":"uint256","internalType":"uint256"}]}],"bytecode":{"object":"0x6080346200027b57601f620027a538819003918201601f1916830192916001600160401b039190828511848610176200014657808492604096875283396020938491810103126200027b57516001600160a01b03811692908390036200027b57821562000264575f805260018152835f20835f52815265ffffffffffff9081855f2054161590815f146200016e578262000099426200027f565b16918383116200015a578291875194888601968688109088111762000146579588529284525f848401818152818052600185528882208883528552888220955186549151600160301b600160a01b0360309190911b166001600160a01b0319909216908816600160301b600160a01b031916171790945592935f80516020620027858339815191529360609390915b885193878552169083015286820152a3516124d29081620002b38239f35b634e487b7160e01b5f52604160045260245ffd5b634e487b7160e01b5f52601160045260245ffd5b92505f805260018352845f20845f52835281855f20546200018f426200027f565b63ffffffff9283929116607082901c861611620002595760301c16905b818116801562000251578181116200015a575b1683620001cc426200027f565b1601918383116200015a575f8080526001865287812087825286528781208054600160301b600160a01b031916858a1b6dffffffffffff00000000000000001694881b67ffffffff00000000169490941760301b600160301b600160a01b03169390931790925590935f80516020620027858339815191529360609392919062000128565b505f620001bf565b60501c1690620001ac565b8351630409d6d160e11b81525f6004820152602490fd5b5f80fd5b65ffffffffffff9081811162000293571690565b604490604051906306dfcc6560e41b8252603060048301526024820152fdfe60406080815260049081361015610014575f80fd5b5f905f3560e01c806308d6122d1461161a5780630b0a93ba146115cf57806312be872714611571578063167bd395146114d357806318ff183c1461142f5780631cff79cd1461131157806325c471a0146110205780633078f11414610fc757806330cae18714610f1b5780633adc277a14610ef45780633ca7c02a14610ed25780634136a33c14610ea15780634665096d14610e845780634c1da1e214610e5a5780635296295214610d7f578063530dd45614610d2f5780636d5115bd14610cd157806375b238fc14610cb7578063853551b814610c0457806394c7d7ee14610b05578063a166aa8914610ac5578063a64d95ce1461099e578063abd9bd2a14610979578063ac9650d8146107b5578063b70096131461076a578063b7d2b16214610739578063cc1b6c811461071c578063d1f856ee146106cc578063d22b5989146105f9578063d6bb62c614610413578063f801a698146101ea5763fe0776f51461017e575f80fd5b346101e657806003193601126101e657610196611753565b61019e61170c565b91336001600160a01b038416036101be5750906101ba91611ee3565b5080f35b8490517f5f159e63000000000000000000000000000000000000000000000000000000008152fd5b5080fd5b5091346101e65760603660031901126101e6576102056116f6565b60243567ffffffffffffffff811161040f576102249036908401611781565b92906044359365ffffffffffff9586861680960361040c5761024882848733611c07565b96905061025442612451565b61026663ffffffff8099168092611b18565b901580156103f7575b61038f579088809216908180821191180218169361028f83858833611983565b9788835260026020528983205416801515908161037e575b5061034f5750926103407f82a2da5dee54ea8021c6545b4444620291e07ee83be6dd57edb175062715f3b49369ffffffff0000000000009796938a878b80995260026020522080548560018b8360301c16019a8b169b8c9b60301b169169ffffffffffffffffffff1916171790556001600160a01b038b519586958652336020870152168b850152608060608501526080840191611963565b0390a382519182526020820152f35b602490888a51917f813e9459000000000000000000000000000000000000000000000000000000008352820152fd5b6103889150611e98565b155f6102a7565b5050506103a087916103f393611c4e565b90517f81c6f24b000000000000000000000000000000000000000000000000000000008152339381019384526001600160a01b0390941660208401526001600160e01b0319166040830152829160600190565b0390fd5b50811515801561026f5750888116821061026f565b80fd5b8380fd5b508290346105f55761043f9061042836611806565b61043781839499959793611c4e565b928887611983565b938483526020966002885265ffffffffffff91828686205416155f14610475576024888888519163060a299b60e41b8352820152fd5b6001600160a01b03979497969596809116913383036104e5575b505050505050907fbd9ac67a6e2f6463b80927326310338bcbb4bdb7936ce1365ea3e01067e7b9f7918084526002855263ffffffff82852080549065ffffffffffff198216905560301c16928392519480a38152f35b5f805260018a52875f20335f528a52875f20546105176dffffffffffffffffffffffffffff8683169260301c16611e5e565b50505080151594856105dd575b505016918288528789526001600160e01b0319878920941693848952895261057e3361057967ffffffffffffffff8a8c20541667ffffffffffffffff8091165f526001602052600160405f20015460401c1690565b611ac0565b50901590816105d4575b5061059457808061048f565b608494508551937f3fe2751c0000000000000000000000000000000000000000000000000000000085523390850152602484015260448301526064820152fd5b90501589610588565b909194506105ea42612451565b161015928a80610524565b8280fd5b50346101e657806003193601126101e6577fa56b76017453f399ec2327ba00375dbfb1fd070ff854341ad6191e6a2e2de19c6106336116f6565b916001600160a01b036106446117f3565b9361064d611b46565b1692838552846020526106c66dffffffffffffffffffffffffffff9261067b83856001848b200154166123c8565b94878952886020526001838a200191166dffffffffffffffffffffffffffff19825416179055519283928390929165ffffffffffff60209163ffffffff604085019616845216910152565b0390a280f35b50346101e657806003193601126101e657610718906106fa6106ec611753565b6106f461170c565b90611ac0565b9151901515815263ffffffff90911660208201529081906040820190565b0390f35b50346101e657816003193601126101e65760209051620697808152f35b50346101e65736600319011261040c576101ba610754611753565b61075c61170c565b90610765611b46565b611ee3565b50903461040c57606036600319011261040c57506107866116f6565b9061078f61170c565b916044356001600160e01b0319811681036107b157610718936106fa92611a0e565b5f80fd5b5091346101e6576020806003193601126105f55767ffffffffffffffff908235828111610975576107e99036908501611722565b909286518381019581871083881117610962575085889497959852848152610810836119ce565b9561081d85519788611875565b838752610829846119ce565b601f1999908a01875b818110610953575050865b8581106108ba5750505050505080519380850191818652845180935281818701918460051b880101950193965b8388106108775786860387f35b9091929394838080600193603f198b820301875285601f8b516108a581518092818752878088019101611854565b0116010197019301970196909392919361086a565b8060059b989a979b1b820135601e198336030181121561094f57820180359086821161094b578801813603811361094b57816109248a8f938f6001979661092a96519586938585013782018381019182526109188c5180938d611854565b01038084520182611875565b30611ec1565b610934828c6119e6565b5261093f818b6119e6565b5001999598969961083d565b8b80fd5b8a80fd5b60608a82018c01528a01610832565b604190634e487b7160e01b5f525260245ffd5b8480fd5b50346101e65760209061099761098e36611806565b92919091611983565b9051908152f35b50346101e657806003193601126101e6576109b7611753565b906109c06117f3565b936109c9611b46565b67ffffffffffffffff809316928314610ab057507ffeb69018ee8b8fd50ea86348f1267d07673379f72cffdeccec63853ee8ce8b48908483855260016020526106c6610a2e826dffffffffffffffffffffffffffff6001868a20015460801c166123c8565b93908688526001602052600182892001907fffff0000000000000000000000000000ffffffffffffffffffffffffffffffff7dffffffffffffffffffffffffffff0000000000000000000000000000000083549260801b169116179055519283928390929165ffffffffffff60209163ffffffff604085019616845216910152565b82602492519163061c6a4360e21b8352820152fd5b50346101e65760203660031901126101e65760ff6001826020946001600160a01b03610aef6116f6565b16815280865220015460701c1690519015158152f35b508290346105f557610b16366117af565b93909280517f8fb3603700000000000000000000000000000000000000000000000000000000908181526020818581335afa8015610bfa578890610bab575b6001600160e01b031991501603610b7b57856101ba610b7687873388611983565b611c64565b6024925051907f320ff7480000000000000000000000000000000000000000000000000000000082523390820152fd5b506020813d602011610bf2575b81610bc560209383611875565b81010312610bee57516001600160e01b031981168103610bee576001600160e01b031990610b55565b8780fd5b3d9150610bb8565b83513d8a823e3d90fd5b5091346101e657826003193601126101e657610c1e611753565b67ffffffffffffffff916024358381116109755790610c41849236908301611781565b929093610c4c611b46565b16938415908115610cad575b50610c9757506106c67f1256f5b5ecb89caec12db449738f2fbcd1ba5806cf38f35413f4e5c15bf6a45093949551928392602084526020840191611963565b6024908487519163061c6a4360e21b8352820152fd5b905084145f610c58565b50346101e657816003193601126101e65751908152602090f35b50346101e657806003193601126101e657610cea6116f6565b602435906001600160e01b031982168092036107b15760209367ffffffffffffffff926001600160a01b03859316825281865282822090825285522054169051908152f35b50346101e65760203660031901126101e65760209067ffffffffffffffff610d77610d58611753565b67ffffffffffffffff8091165f526001602052600160405f2001541690565b915191168152f35b508290346105f557806003193601126105f557610d9a611753565b90610da361176a565b90610dac611b46565b67ffffffffffffffff8093169384158015610e51575b610e3c57508385526001602052600181862001907fffffffffffffffffffffffffffffffff0000000000000000ffffffffffffffff6fffffffffffffffff0000000000000000848454931b16911617905516907f7a8059630b897b5de4c08ade69f8b90c3ead1f8596d62d10b6c4d14a0afb4ae28380a380f35b84602492519163061c6a4360e21b8352820152fd5b50838514610dc2565b50346101e65760203660031901126101e65760209063ffffffff610d77610e7f6116f6565b61192f565b50346101e657816003193601126101e6576020905162093a808152f35b5082346105f55760203660031901126105f5578160209363ffffffff9235815260028552205460301c169051908152f35b50346101e657816003193601126101e6576020905167ffffffffffffffff8152f35b50903461040c57602036600319011261040c575065ffffffffffff610d7760209335611905565b5082346105f557816003193601126105f557610f35611753565b610f3d61176a565b92610f46611b46565b67ffffffffffffffff8092169283158015610fbe575b610fa95750600190838652816020528520019216918267ffffffffffffffff198254161790557f1fd6dd7631312dfac2205b52913f99de03b4d7e381d5d27d3dbfe0713e6e63408380a380f35b83602492519163061c6a4360e21b8352820152fd5b50828414610f5c565b50346101e657806003193601126101e657608090610ff4610fe6611753565b610fee61170c565b906118ab565b91849194519465ffffffffffff809516865263ffffffff80921660208701521690840152166060820152f35b508290346105f55760603660031901126105f55761103c611753565b9061104561170c565b926044359163ffffffff918284168094036107b157611062611b46565b67ffffffffffffffff809516948588526001906020928284528461109f8b856dffffffffffffffffffffffffffff93849220015460801c16611e5e565b505093838a146112fb57898c528086526001600160a01b03878d209b169a8b5f52865265ffffffffffff9485885f2054161598895f146111b257906110ef916110e742612451565b911690611b18565b9387519388850191858310908311176109625750926060989694928a8d8f9a7ff98448b987f1428e0e230e1f3c6e2ce15b5693eaf31827fbd0b1ec4b424ae7cf9d9b8f966111a197839c9a84528a8a1688528b880195865282528a5220905f52875285885f2093511665ffffffffffff19845416178355511673ffffffffffffffffffffffffffff0000000000001973ffffffffffffffffffffffffffff00000000000083549260301b169116179055565b83519586521690840152820152a380f35b9290506111d7919394508a8d52838752878d208c5f528752875f205460301c16611e5e565b5050928184168c8b8b83115f146112bf575050899003908282116112ac57508b7ff98448b987f1428e0e230e1f3c6e2ce15b5693eaf31827fbd0b1ec4b424ae7cf999795938b61123a60609b9997956112a7955b1661123542612451565b611b18565b92528552858d208c5f528552855f20906dffffffffffff000000000000000067ffffffff000000008295881b1691881b1617881773ffffffffffffffffffffffffffff0000000000001973ffffffffffffffffffffffffffff00000000000083549260301b169116179055565b6111a1565b601190634e487b7160e01b5f525260245ffd5b6112a793507ff98448b987f1428e0e230e1f3c6e2ce15b5693eaf31827fbd0b1ec4b424ae7cf9b99979591925061123a60609b9997955f61122b565b6024838b89519163061c6a4360e21b8352820152fd5b509161131c366117af565b9491929061132c86828633611c07565b94901580611421575b6114135761134587838333611983565b63ffffffff809616158015906113fa575b6113e8575b506003549261138f61136d8985611c4e565b83906001600160a01b036001600160e01b031992165f521660205260405f2090565b60035567ffffffffffffffff8811610962575083516113b8601f8901601f191660200182611875565b87815236888401116107b1575f602089819a6113dd9683860137830101523491611d6c565b506003555191168152f35b6113f3919650611c64565b945f61135b565b5065ffffffffffff61140b82611905565b161515611356565b926103a0876103f393611c4e565b5063ffffffff851615611335565b508290346107b157806003193601126107b15761144a6116f6565b9161145361170c565b61145b611b46565b6001600160a01b0380941693843b156107b15760245f9283865197889485937f7a9e5e4b00000000000000000000000000000000000000000000000000000000855216878401525af180156114c9576114b2578380f35b9091925067ffffffffffffffff8311610962575052005b82513d5f823e3d90fd5b50346107b157806003193601126107b1576114ec6116f6565b602435908115158092036107b1577f90d4e7bb7e5d933792b3562e1741306f8be94837e1348dacef9b6f1df56eb138916001600160a01b0360209261152f611b46565b1693845f525f83526001815f200180546eff00000000000000000000000000008460701b16906eff0000000000000000000000000000191617905551908152a2005b50346107b15760203660031901126107b15760209067ffffffffffffffff611597611753565b165f526001825263ffffffff6115c56dffffffffffffffffffffffffffff6001845f20015460801c16611e5e565b5050915191168152f35b50346107b15760203660031901126107b15760209067ffffffffffffffff610d776115f8611753565b67ffffffffffffffff8091165f526001602052600160405f20015460401c1690565b5082346107b15760603660031901126107b1576116356116f6565b9060243567ffffffffffffffff918282116107b15761165691369101611722565b906044359283168093036107b15761166f939193611b46565b6001600160a01b035f9216915b84811061168557005b8060051b820135906001600160e01b031982168092036107b15784847f9ea6790c7dadfd01c9f8b9762b3682607af2c7e79e05a9f9fdf5580dde949151600194825f526020905f82528b5f20815f5282528b5f208567ffffffffffffffff198254161790558b51908152a30161167c565b600435906001600160a01b03821682036107b157565b602435906001600160a01b03821682036107b157565b9181601f840112156107b15782359167ffffffffffffffff83116107b1576020808501948460051b0101116107b157565b6004359067ffffffffffffffff821682036107b157565b6024359067ffffffffffffffff821682036107b157565b9181601f840112156107b15782359167ffffffffffffffff83116107b157602083818601950101116107b157565b9060406003198301126107b1576004356001600160a01b03811681036107b157916024359067ffffffffffffffff82116107b1576117ef91600401611781565b9091565b6024359063ffffffff821682036107b157565b60606003198201126107b1576001600160a01b039160043583811681036107b1579260243590811681036107b157916044359067ffffffffffffffff82116107b1576117ef91600401611781565b5f5b8381106118655750505f910152565b8181015183820152602001611856565b90601f8019910116810190811067ffffffffffffffff82111761189757604052565b634e487b7160e01b5f52604160045260245ffd5b9067ffffffffffffffff65ffffffffffff9392165f5260016020526001600160a01b0360405f2091165f5260205260405f2054906118fb6dffffffffffffffffffffffffffff8360301c16611e5e565b9490931693909291565b5f52600260205265ffffffffffff60405f20541661192281611e98565b1561192c57505f90565b90565b6001600160a01b03165f525f60205261195e6dffffffffffffffffffffffffffff600160405f20015416611e5e565b505090565b908060209392818452848401375f828201840152601f01601f1916010190565b6119ba6119c892949360405194859360208501976001600160a01b0380921689521660408501526060808501526080840191611963565b03601f198101835282611875565b51902090565b67ffffffffffffffff81116118975760051b60200190565b80518210156119fa5760209160051b010190565b634e487b7160e01b5f52603260045260245ffd5b9190916001600160a01b038084165f525f60205260405f209060ff600183015460701c165f14611a435750505050505f905f90565b82163003611a7c575050611a769060035492906001600160a01b036001600160e01b031992165f521660205260405f2090565b14905f90565b9091611aa693506001600160e01b0319165f5260205267ffffffffffffffff60405f205416611ac0565b919015611ab95763ffffffff8216159190565b5f91508190565b9067ffffffffffffffff80831603611adb5750506001905f90565b611ae4916118ab565b5050919065ffffffffffff8091168015159182611b02575b50509190565b909150611b0e42612451565b1610155f80611afc565b91909165ffffffffffff80809416911601918211611b3257565b634e487b7160e01b5f52601160045260245ffd5b611b503633611f84565b9015611b595750565b63ffffffff16611baf576044611b6e36612083565b50905067ffffffffffffffff604051917ff07e038f000000000000000000000000000000000000000000000000000000008352336004840152166024820152fd5b611c046040516020810190338252306040820152606080820152366080820152365f60a08301375f60a03683010152611bfc60a082601f19601f3601168101036080810184520182611875565b519020611c64565b50565b909291906001600160a01b0384163003611c25576117ef9350612034565b9192906004841015611c3b57505050505f905f90565b6117ef93611c4891611c4e565b91611a0e565b906004116107b157356001600160e01b03191690565b805f52600260205260405f205465ffffffffffff9063ffffffff8282169160301c169181155f14611ca7576024846040519063060a299b60e41b82526004820152fd5b611cb042612451565b16811115611ce957602483604051907f18cb6b7a0000000000000000000000000000000000000000000000000000000082526004820152fd5b611cf590929192611e98565b611d3b578190805f52600260205260405f2065ffffffffffff1981541690557f76a2a46953689d4861a5d3f6ed883ad7e6af674a21f8e162707159fc9dde614d5f80a390565b602490604051907f78a5d6e40000000000000000000000000000000000000000000000000000000082526004820152fd5b91804710611e2657815f92916020849351920190855af18080611e13575b15611d9957505061192c6123af565b15611dd8576024906001600160a01b03604051917f9996b315000000000000000000000000000000000000000000000000000000008352166004820152fd5b3d15611de9576040513d5f823e3d90fd5b60046040517fd6bda275000000000000000000000000000000000000000000000000000000008152fd5b503d151580611d8a5750813b1515611d8a565b6044904790604051917fcf47918100000000000000000000000000000000000000000000000000000000835260048301526024820152fd5b611e6742612451565b63ffffffff8281169265ffffffffffff604082901c811693168311611e91575091925f9250829150565b60201c1692565b62093a8065ffffffffffff8092160190808211611b325780611eb942612451565b169116111590565b905f8091602081519101845af48080611e135715611d9957505061192c6123af565b67ffffffffffffffff809116908114611f6c57805f5260016020526001600160a01b0360405f20921691825f5260205265ffffffffffff60405f20541615611f6657805f52600160205260405f20825f526020525f60408120557ff229baa593af28c41b1d16b748cd7688f0c83aaf92d4be41c44005defe84c1665f80a3600190565b50505f90565b6024906040519063061c6a4360e21b82526004820152fd5b9060048110611fdf57306001600160a01b0383161461200b57611fa690612083565b9290911580611ff0575b611fe757611fbd91611ac0565b9015611fdf5763ffffffff808093169116908180821191180218169081159190565b50505f905f90565b5050505f905f90565b50305f525f60205260ff600160405f20015460701c16611fb0565b90506004116107b157600354305f90815280356001600160e01b03191660205260409020611a76565b919060048210611fe757306001600160a01b038416146120585790611fa69161221d565b6120629250611c4e565b600354305f9081526001600160e01b03199092166020526040909120611a76565b6004811061221457806004116107b1576001600160e01b03195f3516906310a6aa3760e31b82148015612204575b80156121f4575b80156121e4575b80156121d4575b6121c95763063fc60f60e21b821480156121b9575b80156121a9575b61217b5763012e238d60e51b8214801561216b575b6121245750305f525f60205260405f20905f5260205267ffffffffffffffff60405f205416905f91905f90565b90506024116107b15760043567ffffffffffffffff811681036107b1576121649067ffffffffffffffff8091165f526001602052600160405f2001541690565b6001915f90565b50635be958b160e11b82146120f7565b90506024116107b1576004356001600160a01b0381168091036107b1576121a19061192f565b6001915f9190565b506308d6122d60e01b82146120e2565b5063167bd39560e01b82146120db565b50506001905f905f90565b5063d22b598960e01b82146120c6565b50635326cae760e11b82146120bf565b5063294b14a960e11b82146120b8565b506330cae18760e01b82146120b1565b505f905f905f90565b600482106123a5576001600160e01b03196122388383611c4e565b16916310a6aa3760e31b83148015612395575b8015612385575b8015612375575b8015612365575b6123595763063fc60f60e21b83148015612349575b8015612339575b6123115763012e238d60e51b83148015612301575b6122bf575050305f525f60205260405f20905f5260205267ffffffffffffffff60405f205416905f91905f90565b9091506024116107b1576004013567ffffffffffffffff811681036107b1576121649067ffffffffffffffff8091165f526001602052600160405f2001541690565b50635be958b160e11b8314612291565b9091506024116107b157600401356001600160a01b0381168091036107b1576121a19061192f565b506308d6122d60e01b831461227c565b5063167bd39560e01b8314612275565b5050506001905f905f90565b5063d22b598960e01b8314612260565b50635326cae760e11b8314612259565b5063294b14a960e11b8314612252565b506330cae18760e01b831461224b565b50505f905f905f90565b604051903d82523d5f602084013e60203d830101604052565b6123d490929192611e5e565b50509163ffffffff80911690818185168181115f1461243b5703818111611b32578167ffffffff000000009261241c925b166206978081808211911802181661123542612451565b9360201b166dffffffffffff00000000000000008460401b1617179190565b505061241c8167ffffffff00000000925f612405565b65ffffffffffff90818111612464571690565b604490604051907f6dfcc650000000000000000000000000000000000000000000000000000000008252603060048301526024820152fdfea264697066735822122039dbd913cbf8f6effdeb8cf5d4883d2cd8148ae90b8afafc7d2378961b3e68c364736f6c63430008180033f98448b987f1428e0e230e1f3c6e2ce15b5693eaf31827fbd0b1ec4b424ae7cf","linkReferences":{}},"methodIdentifiers":{"ADMIN_ROLE()":"75b238fc","PUBLIC_ROLE()":"3ca7c02a","canCall(address,address,bytes4)":"b7009613","cancel(address,address,bytes)":"d6bb62c6","consumeScheduledOp(address,bytes)":"94c7d7ee","execute(address,bytes)":"1cff79cd","expiration()":"4665096d","getAccess(uint64,address)":"3078f114","getNonce(bytes32)":"4136a33c","getRoleAdmin(uint64)":"530dd456","getRoleGrantDelay(uint64)":"12be8727","getRoleGuardian(uint64)":"0b0a93ba","getSchedule(bytes32)":"3adc277a","getTargetAdminDelay(address)":"4c1da1e2","getTargetFunctionRole(address,bytes4)":"6d5115bd","grantRole(uint64,address,uint32)":"25c471a0","hasRole(uint64,address)":"d1f856ee","hashOperation(address,address,bytes)":"abd9bd2a","isTargetClosed(address)":"a166aa89","labelRole(uint64,string)":"853551b8","minSetback()":"cc1b6c81","multicall(bytes[])":"ac9650d8","renounceRole(uint64,address)":"fe0776f5","revokeRole(uint64,address)":"b7d2b162","schedule(address,bytes,uint48)":"f801a698","setGrantDelay(uint64,uint32)":"a64d95ce","setRoleAdmin(uint64,uint64)":"30cae187","setRoleGuardian(uint64,uint64)":"52962952","setTargetAdminDelay(address,uint32)":"d22b5989","setTargetClosed(address,bool)":"167bd395","setTargetFunctionRole(address,bytes4[],uint64)":"08d6122d","updateAuthority(address,address)":"18ff183c"},"id":67}