{"abi":[{"type":"function","name":"configureAccessManager","inputs":[{"name":"accessManager","type":"address","internalType":"address"},{"name":"selectorConfigs","type":"tuple[]","internalType":"struct BootstrapCoordinator.TargetRoleConfig[]","components":[{"name":"target","type":"address","internalType":"address"},{"name":"selectors","type":"bytes4[]","internalType":"bytes4[]"},{"name":"role","type":"uint64","internalType":"uint64"}]},{"name":"roleGrants","type":"tuple[]","internalType":"struct BootstrapCoordinator.RoleGrant[]","components":[{"name":"role","type":"uint64","internalType":"uint64"},{"name":"account","type":"address","internalType":"address"},{"name":"executionDelay","type":"uint32","internalType":"uint32"}]}],"outputs":[],"stateMutability":"nonpayable"},{"type":"event","name":"AccessManagerBootstrapped","inputs":[{"name":"accessManager","type":"address","indexed":true,"internalType":"address"},{"name":"operator","type":"address","indexed":true,"internalType":"address"},{"name":"selectorConfigCount","type":"uint256","indexed":false,"internalType":"uint256"},{"name":"roleGrantCount","type":"uint256","indexed":false,"internalType":"uint256"}],"anonymous":false},{"type":"error","name":"InvalidInput","inputs":[{"name":"reason","type":"string","internalType":"string"}]},{"type":"error","name":"NotAuthorized","inputs":[{"name":"caller","type":"address","internalType":"address"}]},{"type":"error","name":"ZeroAddress","inputs":[]}],"bytecode":{"object":"0x60808060405234610016576107cb908161001b8239f35b5f80fdfe6080806040526004361015610012575f80fd5b5f3560e01c6335aa15ed14610025575f80fd5b346103be5760603660031901126103be57600435906001600160a01b03821682036103be5767ffffffffffffffff602435116103be573660236024350112156103be5767ffffffffffffffff60243560040135116103be5736602480356004013560051b81350101116103be5767ffffffffffffffff604435116103be573660236044350112156103be5767ffffffffffffffff60443560040135116103be57366024606060443560040135026044350101116103be576001600160a01b0382161561069757506040517f75b238fc0000000000000000000000000000000000000000000000000000000081526020816004816001600160a01b0386165afa9081156103b3575f91610654575b50604080516368fc2b7760e11b815267ffffffffffffffff8316600482015233602482015290816044816001600160a01b0387165afa9081156103b3575f91610634575b501561061d57604080516368fc2b7760e11b815267ffffffffffffffff929092166004830152306024830152816044816001600160a01b0386165afa9081156103b3575f916105fd575b50156105e6575f5b60243560040135811061040357505f5b60443560040135811061023057506040516024356004013581526044356004013560208201527f9ef3b5ca03c1e48d8c2f3cb3a0feeb10f66a0c76d4c67ad98036598e989a187d60406001600160a01b0333941692a3005b6001600160a01b0361024a60446060840281350101610736565b16156103f2576102b160406102686024606085026044350101610780565b61027a60446060860281350101610736565b82516368fc2b7760e11b815267ffffffffffffffff90921660048301526001600160a01b0316602482015291829081906044820190565b03816001600160a01b0387165afa9081156103b3575f916103c2575b50156102dc575b6001016101d8565b6102ef6024606083026044350101610780565b9061030260446060830281350101610736565b60646060830260443501013563ffffffff811681036103be576001600160a01b0385163b156103be576001600160a01b0363ffffffff9267ffffffffffffffff604051967f25c471a00000000000000000000000000000000000000000000000000000000088521660048701521660248501521660448301525f82606481836001600160a01b0388165af19182156103b3576001926103a4575b5090506102d4565b6103ad906106a6565b5f61039c565b6040513d5f823e3d90fd5b5f80fd5b6103e4915060403d6040116103eb575b6103dc81836106e7565b810190610709565b505f6102cd565b503d6103d2565b600460405163d92e233d60e01b8152fd5b60248160051b8135010135906082196024353603018212156103be576001600160a01b0361043660248481350101610736565b16156103f25761045060248035840160448101910161074a565b9050156105885761046660248381350101610736565b91606461048d61048060248035850160448101910161074a565b9290936024350101610780565b906001600160a01b0386163b156103be5780604051957f08d6122d0000000000000000000000000000000000000000000000000000000087526001600160a01b03606488019116600488015260606024880152526084850192905f905b80821061053c57505050835f9267ffffffffffffffff82931660448301520381836001600160a01b0388165af19182156103b35760019261052d575b50016101c8565b610536906106a6565b5f610526565b909193849795969735907fffffffff0000000000000000000000000000000000000000000000000000000082168092036103be57602081600193829352019501920190969594966104ea565b60646040517fd647364f00000000000000000000000000000000000000000000000000000000815260206004820152601560248201527f456d7074792073656c6563746f7220636f6e66696700000000000000000000006044820152fd5b6024604051634a0bfec160e01b8152306004820152fd5b610616915060403d6040116103eb576103dc81836106e7565b505f6101c0565b6024604051634a0bfec160e01b8152336004820152fd5b61064d915060403d6040116103eb576103dc81836106e7565b505f610176565b90506020813d60201161068f575b8161066f602093836106e7565b810103126103be575167ffffffffffffffff811681036103be575f610132565b3d9150610662565b8063d92e233d60e01b60049252fd5b67ffffffffffffffff81116106ba57604052565b7f4e487b71000000000000000000000000000000000000000000000000000000005f52604160045260245ffd5b90601f8019910116810190811067ffffffffffffffff8211176106ba57604052565b91908260409103126103be57815180151581036103be5760209092015163ffffffff811681036103be5790565b356001600160a01b03811681036103be5790565b903590601e19813603018212156103be570180359067ffffffffffffffff82116103be57602001918160051b360383136103be57565b3567ffffffffffffffff811681036103be579056fea26469706673582212200458aa08ac29bdf506769abdfc83a42ad90dea94c41a4109a6491a53eac2337164736f6c63430008180033","linkReferences":{}},"methodIdentifiers":{"configureAccessManager(address,(address,bytes4[],uint64)[],(uint64,address,uint32)[])":"35aa15ed"},"id":0}