{"abi":[{"type":"constructor","inputs":[{"name":"manager","type":"address","internalType":"address"},{"name":"_paramController","type":"address","internalType":"address"}],"stateMutability":"nonpayable"},{"type":"function","name":"CURATOR_ROLE","inputs":[],"outputs":[{"name":"","type":"bytes32","internalType":"bytes32"}],"stateMutability":"view"},{"type":"function","name":"GOVERNANCE_ROLE","inputs":[],"outputs":[{"name":"","type":"bytes32","internalType":"bytes32"}],"stateMutability":"view"},{"type":"function","name":"MODERATOR_ROLE","inputs":[],"outputs":[{"name":"","type":"bytes32","internalType":"bytes32"}],"stateMutability":"view"},{"type":"function","name":"activeCommunityCount","inputs":[],"outputs":[{"name":"","type":"uint256","internalType":"uint256"}],"stateMutability":"view"},{"type":"function","name":"authority","inputs":[],"outputs":[{"name":"","type":"address","internalType":"address"}],"stateMutability":"view"},{"type":"function","name":"communities","inputs":[{"name":"","type":"uint256","internalType":"uint256"}],"outputs":[{"name":"name","type":"string","internalType":"string"},{"name":"description","type":"string","internalType":"string"},{"name":"metadataURI","type":"string","internalType":"string"},{"name":"active","type":"bool","internalType":"bool"},{"name":"createdAt","type":"uint256","internalType":"uint256"},{"name":"governor","type":"address","internalType":"address"},{"name":"timelock","type":"address","internalType":"address"},{"name":"requestHub","type":"address","internalType":"address"},{"name":"draftsManager","type":"address","internalType":"address"},{"name":"engagementsManager","type":"address","internalType":"address"},{"name":"valuableActionRegistry","type":"address","internalType":"address"},{"name":"verifierPowerToken","type":"address","internalType":"address"},{"name":"verifierElection","type":"address","internalType":"address"},{"name":"verifierManager","type":"address","internalType":"address"},{"name":"valuableActionSBT","type":"address","internalType":"address"},{"name":"treasuryVault","type":"address","internalType":"address"},{"name":"treasuryAdapter","type":"address","internalType":"address"},{"name":"communityToken","type":"address","internalType":"address"},{"name":"paramController","type":"address","internalType":"address"},{"name":"parentCommunityId","type":"uint256","internalType":"uint256"}],"stateMutability":"view"},{"type":"function","name":"communityAdmins","inputs":[{"name":"","type":"uint256","internalType":"uint256"},{"name":"","type":"address","internalType":"address"}],"outputs":[{"name":"","type":"bool","internalType":"bool"}],"stateMutability":"view"},{"type":"function","name":"communityRoles","inputs":[{"name":"","type":"uint256","internalType":"uint256"},{"name":"","type":"address","internalType":"address"},{"name":"","type":"bytes32","internalType":"bytes32"}],"outputs":[{"name":"","type":"bool","internalType":"bool"}],"stateMutability":"view"},{"type":"function","name":"curators","inputs":[{"name":"","type":"uint256","internalType":"uint256"},{"name":"","type":"address","internalType":"address"}],"outputs":[{"name":"","type":"bool","internalType":"bool"}],"stateMutability":"view"},{"type":"function","name":"formAlliance","inputs":[{"name":"communityId1","type":"uint256","internalType":"uint256"},{"name":"communityId2","type":"uint256","internalType":"uint256"}],"outputs":[],"stateMutability":"nonpayable"},{"type":"function","name":"getActiveCommunities","inputs":[],"outputs":[{"name":"","type":"uint256[]","internalType":"uint256[]"}],"stateMutability":"view"},{"type":"function","name":"getCommunity","inputs":[{"name":"communityId","type":"uint256","internalType":"uint256"}],"outputs":[{"name":"","type":"tuple","internalType":"struct CommunityRegistry.Community","components":[{"name":"name","type":"string","internalType":"string"},{"name":"description","type":"string","internalType":"string"},{"name":"metadataURI","type":"string","internalType":"string"},{"name":"active","type":"bool","internalType":"bool"},{"name":"createdAt","type":"uint256","internalType":"uint256"},{"name":"governor","type":"address","internalType":"address"},{"name":"timelock","type":"address","internalType":"address"},{"name":"requestHub","type":"address","internalType":"address"},{"name":"draftsManager","type":"address","internalType":"address"},{"name":"engagementsManager","type":"address","internalType":"address"},{"name":"valuableActionRegistry","type":"address","internalType":"address"},{"name":"verifierPowerToken","type":"address","internalType":"address"},{"name":"verifierElection","type":"address","internalType":"address"},{"name":"verifierManager","type":"address","internalType":"address"},{"name":"valuableActionSBT","type":"address","internalType":"address"},{"name":"treasuryVault","type":"address","internalType":"address"},{"name":"treasuryAdapter","type":"address","internalType":"address"},{"name":"communityToken","type":"address","internalType":"address"},{"name":"paramController","type":"address","internalType":"address"},{"name":"parentCommunityId","type":"uint256","internalType":"uint256"},{"name":"allyCommunityIds","type":"uint256[]","internalType":"uint256[]"}]}],"stateMutability":"view"},{"type":"function","name":"getCommunityModules","inputs":[{"name":"communityId","type":"uint256","internalType":"uint256"}],"outputs":[{"name":"","type":"tuple","internalType":"struct CommunityRegistry.ModuleAddresses","components":[{"name":"governor","type":"address","internalType":"address"},{"name":"timelock","type":"address","internalType":"address"},{"name":"requestHub","type":"address","internalType":"address"},{"name":"draftsManager","type":"address","internalType":"address"},{"name":"engagementsManager","type":"address","internalType":"address"},{"name":"valuableActionRegistry","type":"address","internalType":"address"},{"name":"verifierPowerToken","type":"address","internalType":"address"},{"name":"verifierElection","type":"address","internalType":"address"},{"name":"verifierManager","type":"address","internalType":"address"},{"name":"valuableActionSBT","type":"address","internalType":"address"},{"name":"treasuryVault","type":"address","internalType":"address"},{"name":"treasuryAdapter","type":"address","internalType":"address"},{"name":"communityToken","type":"address","internalType":"address"},{"name":"paramController","type":"address","internalType":"address"}]}],"stateMutability":"view"},{"type":"function","name":"getCommunityRelationships","inputs":[{"name":"communityId","type":"uint256","internalType":"uint256"}],"outputs":[{"name":"parentCommunityId","type":"uint256","internalType":"uint256"},{"name":"allyCommunityIds","type":"uint256[]","internalType":"uint256[]"}],"stateMutability":"view"},{"type":"function","name":"getEconomicParameters","inputs":[{"name":"communityId","type":"uint256","internalType":"uint256"}],"outputs":[{"name":"minTreasuryBps","type":"uint256","internalType":"uint256"},{"name":"minPositionsBps","type":"uint256","internalType":"uint256"},{"name":"spilloverTarget","type":"uint8","internalType":"uint8"},{"name":"spilloverSplitBpsToTreasury","type":"uint256","internalType":"uint256"},{"name":"feeOnWithdraw","type":"uint256","internalType":"uint256"},{"name":"backingAssets","type":"address[]","internalType":"address[]"}],"stateMutability":"view"},{"type":"function","name":"getEligibilityRules","inputs":[{"name":"communityId","type":"uint256","internalType":"uint256"}],"outputs":[{"name":"minSeniority","type":"uint256","internalType":"uint256"},{"name":"minSBTs","type":"uint256","internalType":"uint256"},{"name":"proposalThreshold","type":"uint256","internalType":"uint256"}],"stateMutability":"view"},{"type":"function","name":"getGovernanceParameters","inputs":[{"name":"communityId","type":"uint256","internalType":"uint256"}],"outputs":[{"name":"debateWindow","type":"uint256","internalType":"uint256"},{"name":"voteWindow","type":"uint256","internalType":"uint256"},{"name":"executionDelay","type":"uint256","internalType":"uint256"}],"stateMutability":"view"},{"type":"function","name":"getTimelock","inputs":[{"name":"communityId","type":"uint256","internalType":"uint256"}],"outputs":[{"name":"","type":"address","internalType":"address"}],"stateMutability":"view"},{"type":"function","name":"grantCommunityRole","inputs":[{"name":"communityId","type":"uint256","internalType":"uint256"},{"name":"user","type":"address","internalType":"address"},{"name":"role","type":"bytes32","internalType":"bytes32"}],"outputs":[],"stateMutability":"nonpayable"},{"type":"function","name":"hasRole","inputs":[{"name":"communityId","type":"uint256","internalType":"uint256"},{"name":"user","type":"address","internalType":"address"},{"name":"role","type":"bytes32","internalType":"bytes32"}],"outputs":[{"name":"","type":"bool","internalType":"bool"}],"stateMutability":"view"},{"type":"function","name":"initializeDefaultParameters","inputs":[{"name":"communityId","type":"uint256","internalType":"uint256"}],"outputs":[],"stateMutability":"nonpayable"},{"type":"function","name":"isConsumingScheduledOp","inputs":[],"outputs":[{"name":"","type":"bytes4","internalType":"bytes4"}],"stateMutability":"view"},{"type":"function","name":"moderators","inputs":[{"name":"","type":"uint256","internalType":"uint256"},{"name":"","type":"address","internalType":"address"}],"outputs":[{"name":"","type":"bool","internalType":"bool"}],"stateMutability":"view"},{"type":"function","name":"nextCommunityId","inputs":[],"outputs":[{"name":"","type":"uint256","internalType":"uint256"}],"stateMutability":"view"},{"type":"function","name":"paramController","inputs":[],"outputs":[{"name":"","type":"address","internalType":"contract ParamController"}],"stateMutability":"view"},{"type":"function","name":"registerCommunity","inputs":[{"name":"name","type":"string","internalType":"string"},{"name":"description","type":"string","internalType":"string"},{"name":"metadataURI","type":"string","internalType":"string"},{"name":"parentCommunityId","type":"uint256","internalType":"uint256"}],"outputs":[{"name":"communityId","type":"uint256","internalType":"uint256"}],"stateMutability":"nonpayable"},{"type":"function","name":"revokeCommunityRole","inputs":[{"name":"communityId","type":"uint256","internalType":"uint256"},{"name":"user","type":"address","internalType":"address"},{"name":"role","type":"bytes32","internalType":"bytes32"}],"outputs":[],"stateMutability":"nonpayable"},{"type":"function","name":"setAuthority","inputs":[{"name":"newAuthority","type":"address","internalType":"address"}],"outputs":[],"stateMutability":"nonpayable"},{"type":"function","name":"setCommunityStatus","inputs":[{"name":"communityId","type":"uint256","internalType":"uint256"},{"name":"active","type":"bool","internalType":"bool"}],"outputs":[],"stateMutability":"nonpayable"},{"type":"function","name":"setModuleAddress","inputs":[{"name":"communityId","type":"uint256","internalType":"uint256"},{"name":"moduleKey","type":"bytes32","internalType":"bytes32"},{"name":"moduleAddress","type":"address","internalType":"address"}],"outputs":[],"stateMutability":"nonpayable"},{"type":"function","name":"setModuleAddresses","inputs":[{"name":"communityId","type":"uint256","internalType":"uint256"},{"name":"modules","type":"tuple","internalType":"struct CommunityRegistry.ModuleAddresses","components":[{"name":"governor","type":"address","internalType":"address"},{"name":"timelock","type":"address","internalType":"address"},{"name":"requestHub","type":"address","internalType":"address"},{"name":"draftsManager","type":"address","internalType":"address"},{"name":"engagementsManager","type":"address","internalType":"address"},{"name":"valuableActionRegistry","type":"address","internalType":"address"},{"name":"verifierPowerToken","type":"address","internalType":"address"},{"name":"verifierElection","type":"address","internalType":"address"},{"name":"verifierManager","type":"address","internalType":"address"},{"name":"valuableActionSBT","type":"address","internalType":"address"},{"name":"treasuryVault","type":"address","internalType":"address"},{"name":"treasuryAdapter","type":"address","internalType":"address"},{"name":"communityToken","type":"address","internalType":"address"},{"name":"paramController","type":"address","internalType":"address"}]}],"outputs":[],"stateMutability":"nonpayable"},{"type":"event","name":"AuthorityUpdated","inputs":[{"name":"authority","type":"address","indexed":false,"internalType":"address"}],"anonymous":false},{"type":"event","name":"CommunityAllianceFormed","inputs":[{"name":"communityId1","type":"uint256","indexed":true,"internalType":"uint256"},{"name":"communityId2","type":"uint256","indexed":true,"internalType":"uint256"}],"anonymous":false},{"type":"event","name":"CommunityRegistered","inputs":[{"name":"communityId","type":"uint256","indexed":true,"internalType":"uint256"},{"name":"name","type":"string","indexed":false,"internalType":"string"},{"name":"creator","type":"address","indexed":true,"internalType":"address"},{"name":"parentCommunityId","type":"uint256","indexed":false,"internalType":"uint256"}],"anonymous":false},{"type":"event","name":"CommunityRoleGranted","inputs":[{"name":"communityId","type":"uint256","indexed":true,"internalType":"uint256"},{"name":"user","type":"address","indexed":true,"internalType":"address"},{"name":"role","type":"bytes32","indexed":true,"internalType":"bytes32"}],"anonymous":false},{"type":"event","name":"CommunityRoleRevoked","inputs":[{"name":"communityId","type":"uint256","indexed":true,"internalType":"uint256"},{"name":"user","type":"address","indexed":true,"internalType":"address"},{"name":"role","type":"bytes32","indexed":true,"internalType":"bytes32"}],"anonymous":false},{"type":"event","name":"CommunityStatusChanged","inputs":[{"name":"communityId","type":"uint256","indexed":true,"internalType":"uint256"},{"name":"active","type":"bool","indexed":false,"internalType":"bool"}],"anonymous":false},{"type":"event","name":"ModuleAddressUpdated","inputs":[{"name":"communityId","type":"uint256","indexed":true,"internalType":"uint256"},{"name":"moduleKey","type":"bytes32","indexed":true,"internalType":"bytes32"},{"name":"oldAddress","type":"address","indexed":false,"internalType":"address"},{"name":"newAddress","type":"address","indexed":false,"internalType":"address"}],"anonymous":false},{"type":"error","name":"AccessManagedInvalidAuthority","inputs":[{"name":"authority","type":"address","internalType":"address"}]},{"type":"error","name":"AccessManagedRequiredDelay","inputs":[{"name":"caller","type":"address","internalType":"address"},{"name":"delay","type":"uint32","internalType":"uint32"}]},{"type":"error","name":"AccessManagedUnauthorized","inputs":[{"name":"caller","type":"address","internalType":"address"}]},{"type":"error","name":"InvalidInput","inputs":[{"name":"reason","type":"string","internalType":"string"}]},{"type":"error","name":"NotAuthorized","inputs":[{"name":"caller","type":"address","internalType":"address"}]},{"type":"error","name":"ZeroAddress","inputs":[]}],"bytecode":{"object":"0x60a0346200011157620032b590601f38839003908101601f19168201906001600160401b0382118383101762000115578083916040958694855283398101031262000111576200005d6020620000558362000129565b920162000129565b5f80546001600160a01b0319166001600160a01b0393841690811790915583518181527f2f658b440c35314f52658ea8a740e05b284cdc84dc9ae01e891f21b8933e7cad90602090a16001600655156200010057168015620000ef576080525161317690816200013f8239608051818181610c210152818161141f015281816117d4015281816118950152612a1a0152f35b815163d92e233d60e01b8152600490fd5b825163d92e233d60e01b8152600490fd5b5f80fd5b634e487b7160e01b5f52604160045260245ffd5b51906001600160a01b0382168203620001115756fe610160806040526004361015610013575f80fd5b5f905f3560e01c90816306055b8414612b525750806310b1843814612b135780631ca5b57114612ac357806321be27b8146129e95780632530ebb3146124c057806333624966146123505780633688da7914612305578063370603f814611f155780633b47246014611eca57806345dc230814611df457806349dc706b14611d305780634a2cfb5414611cf55780634d609b0114611caa5780634fbcf13114611c5357806350c76b4614611869578063555973c414611826578063560d40151461177a578063628005b5146115ec578063797669c9146115b15780637a9e5e4b146114d6578063826410c4146114b85780638594e56c146113c55780638fb3603714611350578063968fdaf014610c985780639f9e887114610c6b578063bf7e214f14610c45578063d0d1854d14610c01578063e590b56a146109e1578063f1b150bd14610470578063f36c8f5c146104355763f830e34814610174575f80fd5b34610432576020366003190112610432578060405161019281612c72565b8181528160208201528160408201528160608201528160808201528160a08201528160c08201528160e082015281610100820152816101208201528161014082015281610160820152816101808201526101a001526004356101f390613070565b600435815260016020526040902060058101546001600160a01b0316816006829301546001600160a01b03169060078101546001600160a01b031660088201546001600160a01b031660098301546001600160a01b0316600a8401546001600160a01b0316600b8501546001600160a01b0316600c8601546001600160a01b031690600d8701546001600160a01b031692600e8801546001600160a01b031694600f8901546001600160a01b03169660108a01546001600160a01b03169860118b01546001600160a01b03169a601201546001600160a01b03169b604051809e6102dc82612c72565b81526020015260408d015260608c015260808b015260a08a015260c089015260e08801526101008701526101208601526101408501526101608401526101808301526101a082015260405191825260208101516001600160a01b0316602083015260408101516001600160a01b0316604083015260608101516001600160a01b0316606083015260808101516001600160a01b0316608083015260a08101516001600160a01b031660a083015260c08101516001600160a01b031660c083015260e08101516001600160a01b031660e08301526101008101516001600160a01b03166101008301526101208101516001600160a01b03166101208301526101408101516001600160a01b03166101408301526101608101516001600160a01b03166101608301526101808101516001600160a01b03166101808301526101a001516001600160a01b03166101a08201526101c090f35b80fd5b503461043257806003193601126104325760206040517f71840dc4906352362b0cdaf79870196c8e42acafade72d5d5a6d59291253ceb18152f35b50346104325760803660031901126104325760043567ffffffffffffffff81116109d9576104a2903690600401612d53565b60249291923567ffffffffffffffff81116109dd576104c5903690600401612d53565b9260443567ffffffffffffffff81116109d9576104e6903690600401612d53565b849391931561099457606435610936575b6006549561050487612e27565b6006558684526001602052604084209267ffffffffffffffff87116108715761052d8454612c1d565b601f81116108f5575b508685601f8211600114610890578691610885575b508760011b905f198960031b1c19161784555b67ffffffffffffffff821161087157819061057c6001860154612c1d565b601f8111610821575b508590601f83116001146107b65786926107ab575b50508160011b915f199060031b1c19161760018301555b67ffffffffffffffff8111610797576105cd6002830154612c1d565b601f811161074f575b509160209691869382601f82116001146106bf5781907f4efcb338ffccf7b085281c4db55554049eb8f23f9d2b09327c3756f0cf2a213f969785926106b4575b50508160011b915f199060031b1c19161760028201555b600381019060ff199160018382541617905542600482015560136064359101558482526005885260408220335f528852600160405f2091825416179055610675600754612e27565b600755846040519260408452816040850152606084013760608583010152606435868201526060813395601f80199101168101030190a3604051908152f35b013590505f80610616565b9560028301845289842096845b601f198416811061073557509682917f4efcb338ffccf7b085281c4db55554049eb8f23f9d2b09327c3756f0cf2a213f9798600194601f1981161061071c575b505050811b01600282015561062d565b01355f19600384901b60f8161c191690555f808061070c565b8183013589556001909801978a9750908b01908b016106cc565b60028301845260208420601f830160051c8101916020841061078d575b601f0160051c01905b81811061078257506105d6565b5f8155600101610775565b909150819061076c565b602483634e487b7160e01b81526041600452fd5b013590505f8061059a565b60018601875260208720879450915b601f1984168510610809576001945083601f198116106107f0575b505050811b0160018301556105b1565b01355f19600384901b60f8161c191690555f80806107e0565b818101358355602094850194600190930192016107c5565b90915060018501865260208620601f840160051c81016020851061086a575b90849392915b601f830160051c8201811061085c575050610585565b5f8155859450600101610846565b5080610840565b602485634e487b7160e01b81526041600452fd5b90508901355f61054b565b858752602087209150865b8b601f198b1682106108dd57505088601f198116106108c4575b5050600187811b01845561055e565b8a01355f1960038a901b60f8161c191690555f806108b5565b6001839460209394849301358155019301910161089b565b84865260208620601f890160051c810160208a1061092f575b601f830160051c82018110610924575050610536565b5f815560010161090e565b508061090e565b6064358352600160205260ff6003604085200154166104f757606460405163d647364f60e01b815260206004820152601b60248201527f506172656e7420636f6d6d756e697479206e6f742061637469766500000000006044820152fd5b606460405163d647364f60e01b815260206004820152601e60248201527f436f6d6d756e697479206e616d652063616e6e6f7420626520656d70747900006044820152fd5b5080fd5b8280fd5b5034610432576020366003190112610432576004358152600160205260409020610a0a81612cb1565b90610a1760018201612cb1565b61012052610a2760028201612cb1565b61014052600381015460ff166101005260048101549160058201546001600160a01b031660068301546001600160a01b031660078401546001600160a01b031660088501546001600160a01b031660098601546001600160a01b0316600a8701546001600160a01b031690600b8801546001600160a01b031692600c8901546001600160a01b031694600d8a01546001600160a01b031696600e8b01546001600160a01b031698600f8c01546001600160a01b03169a60108d01546001600160a01b03169c60118101546001600160a01b031660805260128101546001600160a01b031660a0526013015460e05260405160c0526102808060c0515260c05101610b3091612bac565b60c051810360c051602001526101205190610b4a91612bac565b60c051810360c051604001526101405190610b6491612bac565b9c61010051151560c0516060015260c0516080015260c05160a0015260c05160c0015260c05160e0015260c051610100015260c051610120015260c051610140015260c051610160015260c051610180015260c0516101a0015260c0516101c0015260c0516101e0015260c051610200015260805160c051610220015260a05160c051610240015260e05160c051610260015260c051900360c051f35b503461043257806003193601126104325760206040516001600160a01b037f0000000000000000000000000000000000000000000000000000000000000000168152f35b50346104325780600319360112610432576001600160a01b036020915416604051908152f35b50346104325760403660031901126104325760243580151581036109d957610c9590600435612fae565b80f35b5034610432576101e0366003190112610432576004356101c03660231901126109d957610cc481613070565b610ccd816130d3565b808252600160205260408220906001600160a01b039182610cec612e73565b166112ef575b82610cfb612e89565b1661128e575b82610d0a612e9f565b1661122d575b82610d19612eb5565b166111cc575b82610d28612ecb565b1661116b575b82610d37612ee1565b1661110a575b82610d46612ef7565b166110a9575b82610d55612f0d565b16611048575b82610d64612f24565b16610fe7575b82610d73612f3b565b16610f86575b82610d82612f52565b16610f25575b82610d91612f69565b16610ec4575b82610da0612f80565b16610e3f575b82610daf612f97565b16610db8578380f35b60126001600160a01b03199101927f8261c36d170ec64b60c2f015482418cba997cb5d3787c13f43e3e29e3713a3aa8454935f80516020613121833981519152610e27610e03612f97565b604080516001600160a01b038a891681168252909216602083015290918291820190565b0390a3610e32612f97565b1691161790555f80808380f35b6011810180547f98e8485c9f8d32054528913734a0b61a027120b5b579681fd3be4ad009f54d88845f80516020613121833981519152610ea4610e80612f80565b604080516001600160a01b03888d1681168252909216602083015290918291820190565b0390a36001600160a01b031985610eb9612f80565b169116179055610da6565b6010810180547f5a200776fcd7bd781b66706fec6e1b18f0621e153b73c7363545fca20f04a1d2845f80516020613121833981519152610f05610e80612f69565b0390a36001600160a01b031985610f1a612f69565b169116179055610d97565b600f810180547fe43d20cf7f6a2ff14d5f0335d5c7789349ccc63ae1114e12b0bd87c3f1e951a1845f80516020613121833981519152610f66610e80612f52565b0390a36001600160a01b031985610f7b612f52565b169116179055610d88565b600e810180547f32afddabd709addf4415072b8d91182991dca79db32c8f955b2de08fde6a6f5b845f80516020613121833981519152610fc7610e80612f3b565b0390a36001600160a01b031985610fdc612f3b565b169116179055610d79565b600d810180547f7b5100c5075e8b464921c50f00e473a3bc0c31203deea60edb85769b757f8bf3845f80516020613121833981519152611028610e80612f24565b0390a36001600160a01b03198561103d612f24565b169116179055610d6a565b600c810180547f462e21731791a88fbc3d6e262bf146c4157be7e45705bcc62f1a363fee3c4826845f80516020613121833981519152611089610e80612f0d565b0390a36001600160a01b03198561109e612f0d565b169116179055610d5b565b600b810180547fb8cb7564b4fae24959e5c4110e8d9cf91dec7f90b166d06cf5ec514d3c9572bb845f805160206131218339815191526110ea610e80612ef7565b0390a36001600160a01b0319856110ff612ef7565b169116179055610d4c565b600a810180547f666ae48d5d989da88ad33b18d9ad1eb36fb06da47a87e3848edc838a0c833b66845f8051602061312183398151915261114b610e80612ee1565b0390a36001600160a01b031985611160612ee1565b169116179055610d3d565b6009810180547fbff2e278cc551512f9de0667dc3c1f1adc56d0fa1cc74c9c4bc2fdb3bf19b4eb845f805160206131218339815191526111ac610e80612ecb565b0390a36001600160a01b0319856111c1612ecb565b169116179055610d2e565b6008810180547f4347b7879af66b5dbc633ac7823917506d8e6f9413913e212b835d7d207618e6845f8051602061312183398151915261120d610e80612eb5565b0390a36001600160a01b031985611222612eb5565b169116179055610d1f565b6007810180547f53f851c2f0120d87a66d7c53ece15902d923fb3a96f123db6800bb40afe22dd9845f8051602061312183398151915261126e610e80612e9f565b0390a36001600160a01b031985611283612e9f565b169116179055610d10565b6006810180547f268198d81cd5de2a4c427017a36e6262825f97fa3f1ca0d7bccee07cfae2ad58845f805160206131218339815191526112cf610e80612e89565b0390a36001600160a01b0319856112e4612e89565b169116179055610d01565b6005810180547f1e46cebd6689d8c64011118478db0c61a89aa2646c860df401de476fbf378983845f80516020613121833981519152611330610e80612e73565b0390a36001600160a01b031985611345612e73565b169116179055610cf2565b5034610432578060031936011261043257805460a01c60ff16156113bd575060207f8fb36037000000000000000000000000000000000000000000000000000000005b7fffffffff0000000000000000000000000000000000000000000000000000000060405191168152f35b602090611393565b5034610432576020366003190112610432576004356113e381613070565b604051907fa1debd1300000000000000000000000000000000000000000000000000000000825260048201526060816024816001600160a01b037f0000000000000000000000000000000000000000000000000000000000000000165afa80156114ad5782918391611476575b5061147290604051938493846040919493926060820195825260208201520152565b0390f35b9050611472925061149f915060603d6060116114a6575b6114978183612c8f565b810190612e58565b9092611450565b503d61148d565b6040513d84823e3d90fd5b50346104325780600319360112610432576020600754604051908152f35b5034610432576020366003190112610432576004356001600160a01b03808216918281036115ad578354918216330361157d573b1561154c57817f2f658b440c35314f52658ea8a740e05b284cdc84dc9ae01e891f21b8933e7cad926001600160a01b031960209316178455604051908152a180f35b602482604051907fc2f31e5e0000000000000000000000000000000000000000000000000000000082526004820152fd5b60246040517f068ca9d8000000000000000000000000000000000000000000000000000000008152336004820152fd5b5f80fd5b503461043257806003193601126104325760206040517f71f3d55856e4058ed06ee057d79ada615f65cdf5f9ee88181b914225088f834f8152f35b5034610432576115fb36612b82565b919061160682613070565b61160f826130d3565b7f71f3d55856e4058ed06ee057d79ada615f65cdf5f9ee88181b914225088f834f83036116b4576001600160a01b039082855260026020526040852082821690815f5260205260405f209060ff1991828154169055848752600460205260408720905f5260205260405f20858752602052604086209081541690555b16907f5d889adddd84715508093563ae8da798a941b4accfcda9c79f2bba3a2602dd718480a480f35b7f850d585eb7f024ccee5e68e55f2c26cc72e1e6ee456acf62135757a5eb9d4a108303611734576001600160a01b039082855260036020526040852082821690815f5260205260405f209060ff1991828154169055848752600460205260408720905f5260205260405f208587526020526040862090815416905561168b565b60405163d647364f60e01b815260206004820152600c60248201527f496e76616c696420726f6c6500000000000000000000000000000000000000006044820152606490fd5b50346104325760203660031901126104325760043561179881613070565b604051907fa3a2479200000000000000000000000000000000000000000000000000000000825260048201526060816024816001600160a01b037f0000000000000000000000000000000000000000000000000000000000000000165afa80156114ad5782918391611476575061147290604051938493846040919493926060820195825260208201520152565b50346104325760ff604060209261183c36612b82565b918352600486526001600160a01b0384842091165f528552825f2090825284522054166040519015158152f35b5034610432576020806003193601126109d9576004359061188982613070565b6001600160a01b0392837f00000000000000000000000000000000000000000000000000000000000000001691604051917fd32d0ade000000000000000000000000000000000000000000000000000000008352846004840152608083602481875afa948515611c46578193829683918491611bd7575b5061ffff91604051937fa93ed1ba00000000000000000000000000000000000000000000000000000000855286856004818c5afa948515611b9d578695611ba8575b50604051947f6a062954000000000000000000000000000000000000000000000000000000008652816004870152602486015286856044818c5afa948515611b9d578695611b6e575b50604051907fa5afc4c600000000000000000000000000000000000000000000000000000000825287826004818d5afa918215611b6357908792918392611b30575b506044906040519b8c9384927f0bcb2f93000000000000000000000000000000000000000000000000000000008452600484015260248301525afa978815611b25578598611a7a575b5060ff9083604098979698519a8160c08d0199168c5216868b0152166040890152166060870152608086015260c060a086015283518092528060e086019401925b828110611a645785850386f35b8351871685529381019392810192600101611a57565b9097503d8086833e611a8c8183612c8f565b8101908681830312611b1d5780519067ffffffffffffffff8211611b2157019080601f83011215611b1d578151611ac281612e0f565b92611ad06040519485612c8f565b818452888085019260051b820101928311611b19578801905b828210611afd5750505060ff909790611a16565b81518d81168103611b15578152908801908801611ae9565b8880fd5b8780fd5b8580fd5b8680fd5b6040513d87823e3d90fd5b925090508782813d8111611b5c575b611b498183612c8f565b810103126115ad579051869160446119cd565b503d611b3f565b6040513d89823e3d90fd5b9094508681813d8311611b96575b611b868183612c8f565b81010312611b1d5751935f61198b565b503d611b7c565b6040513d88823e3d90fd5b9094508681813d8311611bd0575b611bc08183612c8f565b810103126115ad5751935f611942565b503d611bb6565b9750505092506080853d608011611c3e575b81611bf660809383612c8f565b8101031261043257611c0785612e49565b92611c13838701612e49565b9360408701519660ff88168803611c3a576060611c309101612e49565b909496905f611900565b8380fd5b3d9150611be9565b50604051903d90823e3d90fd5b503461043257602036600319011261043257604090600435611c7481613070565b8152600160205220611c8d601460138301549201612d81565b906114726040519283928352604060208401526040830190612bea565b5034610432576040366003190112610432576001600160a01b036040611cce612b6c565b92600435815260026020522091165f52602052602060ff60405f2054166040519015158152f35b503461043257806003193601126104325760206040517f850d585eb7f024ccee5e68e55f2c26cc72e1e6ee456acf62135757a5eb9d4a108152f35b5034610432578060031936011261043257600754611d66611d5082612e0f565b91611d5e6040519384612c8f565b808352612e0f565b60209290601f1901368385013780600193600192600654935b848110611d9c576040516020808252819061147290820189612bea565b808791835281845260ff600360408520015416611dba575b01611d7f565b9390508551811015611de057611dda8185858a9460051b8a010152612e27565b93611db4565b602482634e487b7160e01b81526032600452fd5b503461043257604036600319011261043257602435600435611e1581613070565b611e1e82613070565b611e27816130d3565b818114611e85578083526001602052611e468260146040862001612dcf565b8183526001602052611e5e8160146040862001612dcf565b7fe4efcf2d01d38d3de90c4288e3533ee47fe8f6dd7ea0253636790b242dc705108380a380f35b606460405163d647364f60e01b815260206004820152601560248201527f43616e6e6f7420616c6c7920776974682073656c6600000000000000000000006044820152fd5b5034610432576040366003190112610432576001600160a01b036040611eee612b6c565b92600435815260036020522091165f52602052602060ff60405f2054166040519015158152f35b50346104325760203660031901126104325760406114729160606102808351611f3d81612c55565b828152826020820152828582015283838201528360808201528360a08201528360c08201528360e08201528361010082015283610120820152836101408201528361016082015283610180820152836101a0820152836101c0820152836101e0820152836102008201528361022082015283610240820152836102608201520152611fc9600435613070565b6004358152600160205220612152601460405192611fe684612c55565b611fef81612cb1565b8452611ffd60018201612cb1565b602085015261200e60028201612cb1565b604085015260ff60038201541615156060850152600481015460808501526001600160a01b0360058201541660a08501526001600160a01b0360068201541660c08501526001600160a01b0360078201541660e08501526001600160a01b036008820154166101008501526001600160a01b036009820154166101208501526001600160a01b03600a820154166101408501526001600160a01b03600b820154166101608501526001600160a01b03600c820154166101808501526001600160a01b03600d820154166101a08501526001600160a01b03600e820154166101c08501526001600160a01b03600f820154166101e08501526001600160a01b036010820154166102008501526001600160a01b036011820154166102208501526001600160a01b03601282015416610240850152601381015461026085015201612d81565b610280820152604051918291602083526102806121af61219961218384516102a060208901526102c0880190612bac565b6020850151878203601f19016040890152612bac565b6040840151868203601f19016060880152612bac565b91606081015115156080860152608081015160a08601526001600160a01b0360a08201511660c08601526001600160a01b0360c08201511660e08601526001600160a01b0360e0820151166101008601526001600160a01b03610100820151166101208601526001600160a01b03610120820151166101408601526001600160a01b03610140820151166101608601526001600160a01b03610160820151166101808601526001600160a01b03610180820151166101a08601526001600160a01b036101a0820151166101c08601526001600160a01b036101c0820151166101e08601526001600160a01b036101e0820151166102008601526001600160a01b03610200820151166102208601526001600160a01b03610220820151166102408601526001600160a01b0361024082015116610260860152610260810151828601520151601f19848303016102a0850152612bea565b5034610432576040366003190112610432576001600160a01b036040612329612b6c565b92600435815260056020522091165f52602052602060ff60405f2054166040519015158152f35b5034610432576001600160a01b0361236736612b82565b929061237283613070565b61237b836130d3565b16908115612496577f71f3d55856e4058ed06ee057d79ada615f65cdf5f9ee88181b914225088f834f830361241e57808452600260205260408420825f5260205260405f2060ff1990600182825416179055818552600460205260408520835f5260205260405f20848652602052600160408620918254161790555b7f94765e3c1e0f3b4ba19015a25eec7ec04cb5c6acc83a4ac9cac5cf4412abf8488480a480f35b7f850d585eb7f024ccee5e68e55f2c26cc72e1e6ee456acf62135757a5eb9d4a10830361173457808452600360205260408420825f5260205260405f2060ff1990600182825416179055818552600460205260408520835f5260205260405f20848652602052600160408620918254161790556123f7565b60046040517fd92e233d000000000000000000000000000000000000000000000000000000008152fd5b5034610432576060366003190112610432576024356004356001600160a01b03604435818116918282036115ad576124f784613070565b612500846130d3565b838652600160205260408620927f1e46cebd6689d8c64011118478db0c61a89aa2646c860df401de476fbf378983860361257a5760055f805160206131218339815191529401906001600160a01b0319825493841693161790555b604080516001600160a01b03928316815292909116602083015290a380f35b7f268198d81cd5de2a4c427017a36e6262825f97fa3f1ca0d7bccee07cfae2ad5886036125cc5760065f805160206131218339815191529401906001600160a01b03198254938416931617905561255b565b7f53f851c2f0120d87a66d7c53ece15902d923fb3a96f123db6800bb40afe22dd9860361261e5760075f805160206131218339815191529401906001600160a01b03198254938416931617905561255b565b7f4347b7879af66b5dbc633ac7823917506d8e6f9413913e212b835d7d207618e686036126705760085f805160206131218339815191529401906001600160a01b03198254938416931617905561255b565b7fbff2e278cc551512f9de0667dc3c1f1adc56d0fa1cc74c9c4bc2fdb3bf19b4eb86036126c25760095f805160206131218339815191529401906001600160a01b03198254938416931617905561255b565b7f666ae48d5d989da88ad33b18d9ad1eb36fb06da47a87e3848edc838a0c833b66860361271457600a5f805160206131218339815191529401906001600160a01b03198254938416931617905561255b565b7fb8cb7564b4fae24959e5c4110e8d9cf91dec7f90b166d06cf5ec514d3c9572bb860361276657600b5f805160206131218339815191529401906001600160a01b03198254938416931617905561255b565b7f462e21731791a88fbc3d6e262bf146c4157be7e45705bcc62f1a363fee3c482686036127b857600c5f805160206131218339815191529401906001600160a01b03198254938416931617905561255b565b7f7b5100c5075e8b464921c50f00e473a3bc0c31203deea60edb85769b757f8bf3860361280a57600d5f805160206131218339815191529401906001600160a01b03198254938416931617905561255b565b7f32afddabd709addf4415072b8d91182991dca79db32c8f955b2de08fde6a6f5b860361285c57600e5f805160206131218339815191529401906001600160a01b03198254938416931617905561255b565b7fe43d20cf7f6a2ff14d5f0335d5c7789349ccc63ae1114e12b0bd87c3f1e951a186036128ae57600f5f805160206131218339815191529401906001600160a01b03198254938416931617905561255b565b7f5a200776fcd7bd781b66706fec6e1b18f0621e153b73c7363545fca20f04a1d286036129005760105f805160206131218339815191529401906001600160a01b03198254938416931617905561255b565b7f98e8485c9f8d32054528913734a0b61a027120b5b579681fd3be4ad009f54d8886036129525760115f805160206131218339815191529401906001600160a01b03198254938416931617905561255b565b7f8261c36d170ec64b60c2f015482418cba997cb5d3787c13f43e3e29e3713a3aa86036129a45760125f805160206131218339815191529401906001600160a01b03198254938416931617905561255b565b606460405163d647364f60e01b815260206004820152601260248201527f556e6b6e6f776e206d6f64756c65206b657900000000000000000000000000006044820152fd5b50346115ad5760203660031901126115ad57600435612a0781613070565b612a10816130d3565b6001600160a01b037f00000000000000000000000000000000000000000000000000000000000000001690813b156115ad575f916044839260405194859384927f612dca9800000000000000000000000000000000000000000000000000000000845260048401523360248401525af18015612ab857612a8e575080f35b905067ffffffffffffffff8111612aa457604052005b634e487b7160e01b5f52604160045260245ffd5b6040513d5f823e3d90fd5b346115ad57612ad136612b82565b91612adb81613070565b5f5260046020526001600160a01b0360405f2091165f5260205260405f20905f52602052602060ff60405f2054166040519015158152f35b346115ad5760203660031901126115ad57600435612b3081613070565b5f52600160205260206001600160a01b03600660405f20015416604051908152f35b346115ad575f3660031901126115ad576020906006548152f35b602435906001600160a01b03821682036115ad57565b60609060031901126115ad57600435906024356001600160a01b03811681036115ad579060443590565b91908251928382525f5b848110612bd6575050825f602080949584010152601f8019910116010190565b602081830181015184830182015201612bb6565b9081518082526020808093019301915f5b828110612c09575050505090565b835185529381019392810192600101612bfb565b90600182811c92168015612c4b575b6020831014612c3757565b634e487b7160e01b5f52602260045260245ffd5b91607f1691612c2c565b6102a0810190811067ffffffffffffffff821117612aa457604052565b6101c0810190811067ffffffffffffffff821117612aa457604052565b90601f8019910116810190811067ffffffffffffffff821117612aa457604052565b9060405191825f8254612cc381612c1d565b908184526020946001916001811690815f14612d315750600114612cf3575b505050612cf192500383612c8f565b565b5f90815285812095935091905b818310612d19575050612cf193508201015f8080612ce2565b85548884018501529485019487945091830191612d00565b92505050612cf194925060ff191682840152151560051b8201015f8080612ce2565b9181601f840112156115ad5782359167ffffffffffffffff83116115ad57602083818601950101116115ad57565b90604051918281549182825260209260208301915f5260205f20935f905b828210612db557505050612cf192500383612c8f565b855484526001958601958895509381019390910190612d9f565b80549068010000000000000000821015612aa45760018201808255821015612dfb575f5260205f200155565b634e487b7160e01b5f52603260045260245ffd5b67ffffffffffffffff8111612aa45760051b60200190565b5f198114612e355760010190565b634e487b7160e01b5f52601160045260245ffd5b519061ffff821682036115ad57565b908160609103126115ad578051916040602083015192015190565b6024356001600160a01b03811681036115ad5790565b6044356001600160a01b03811681036115ad5790565b6064356001600160a01b03811681036115ad5790565b6084356001600160a01b03811681036115ad5790565b60a4356001600160a01b03811681036115ad5790565b60c4356001600160a01b03811681036115ad5790565b60e4356001600160a01b03811681036115ad5790565b610104356001600160a01b03811681036115ad5790565b610124356001600160a01b03811681036115ad5790565b610144356001600160a01b03811681036115ad5790565b610164356001600160a01b03811681036115ad5790565b610184356001600160a01b03811681036115ad5790565b6101a4356001600160a01b03811681036115ad5790565b6101c4356001600160a01b03811681036115ad5790565b90612fb882613070565b612fc1826130d3565b815f526001602052600360405f200190815491811515928360ff82161515146130695760ff191660ff8416179055156130305760207f1b33bf721278476ef24ca6ec530cfd3532aa6a88fe28b73f6bdf0f74e3ee52cc91613023600754612e27565b6007555b604051908152a2565b6007548015612e35575f19016007557f1b33bf721278476ef24ca6ec530cfd3532aa6a88fe28b73f6bdf0f74e3ee52cc90602090613027565b5050505050565b80159081156130c6575b5061308157565b606460405163d647364f60e01b815260206004820152601860248201527f436f6d6d756e69747920646f6573206e6f7420657869737400000000000000006044820152fd5b905060065411155f61307a565b5f52600560205260405f20335f5260205260ff60405f205416612cf15760246040517f4a0bfec1000000000000000000000000000000000000000000000000000000008152336004820152fdfe2f3bea06c6e9b63d5e7c84a6bc5a08817c09192cdc87f2ec5a5fecc2a7dd503ba2646970667358221220c9d188bed39a023f6a90ef7b60ea36d997354d0d1e266cc86f0a1e79f32151e564736f6c63430008180033","linkReferences":{}},"methodIdentifiers":{"CURATOR_ROLE()":"4a2cfb54","GOVERNANCE_ROLE()":"f36c8f5c","MODERATOR_ROLE()":"797669c9","activeCommunityCount()":"826410c4","authority()":"bf7e214f","communities(uint256)":"e590b56a","communityAdmins(uint256,address)":"3688da79","communityRoles(uint256,address,bytes32)":"555973c4","curators(uint256,address)":"3b472460","formAlliance(uint256,uint256)":"45dc2308","getActiveCommunities()":"49dc706b","getCommunity(uint256)":"370603f8","getCommunityModules(uint256)":"f830e348","getCommunityRelationships(uint256)":"4fbcf131","getEconomicParameters(uint256)":"50c76b46","getEligibilityRules(uint256)":"560d4015","getGovernanceParameters(uint256)":"8594e56c","getTimelock(uint256)":"10b18438","grantCommunityRole(uint256,address,bytes32)":"33624966","hasRole(uint256,address,bytes32)":"1ca5b571","initializeDefaultParameters(uint256)":"21be27b8","isConsumingScheduledOp()":"8fb36037","moderators(uint256,address)":"4d609b01","nextCommunityId()":"06055b84","paramController()":"d0d1854d","registerCommunity(string,string,string,uint256)":"f1b150bd","revokeCommunityRole(uint256,address,bytes32)":"628005b5","setAuthority(address)":"7a9e5e4b","setCommunityStatus(uint256,bool)":"9f9e8871","setModuleAddress(uint256,bytes32,address)":"2530ebb3","setModuleAddresses(uint256,(address,address,address,address,address,address,address,address,address,address,address,address,address,address))":"968fdaf0"},"id":7}