{"abi":[{"type":"constructor","inputs":[{"name":"initialAdmin","type":"address","internalType":"address"},{"name":"_paramController","type":"address","internalType":"address"}],"stateMutability":"nonpayable"},{"type":"function","name":"CURATOR_ROLE","inputs":[],"outputs":[{"name":"","type":"bytes32","internalType":"bytes32"}],"stateMutability":"view"},{"type":"function","name":"DEFAULT_ADMIN_ROLE","inputs":[],"outputs":[{"name":"","type":"bytes32","internalType":"bytes32"}],"stateMutability":"view"},{"type":"function","name":"GOVERNANCE_ROLE","inputs":[],"outputs":[{"name":"","type":"bytes32","internalType":"bytes32"}],"stateMutability":"view"},{"type":"function","name":"MODERATOR_ROLE","inputs":[],"outputs":[{"name":"","type":"bytes32","internalType":"bytes32"}],"stateMutability":"view"},{"type":"function","name":"activeCommunityCount","inputs":[],"outputs":[{"name":"","type":"uint256","internalType":"uint256"}],"stateMutability":"view"},{"type":"function","name":"communities","inputs":[{"name":"","type":"uint256","internalType":"uint256"}],"outputs":[{"name":"name","type":"string","internalType":"string"},{"name":"description","type":"string","internalType":"string"},{"name":"metadataURI","type":"string","internalType":"string"},{"name":"active","type":"bool","internalType":"bool"},{"name":"createdAt","type":"uint256","internalType":"uint256"},{"name":"governor","type":"address","internalType":"address"},{"name":"timelock","type":"address","internalType":"address"},{"name":"requestHub","type":"address","internalType":"address"},{"name":"draftsManager","type":"address","internalType":"address"},{"name":"engagementsManager","type":"address","internalType":"address"},{"name":"valuableActionRegistry","type":"address","internalType":"address"},{"name":"verifierPowerToken","type":"address","internalType":"address"},{"name":"verifierElection","type":"address","internalType":"address"},{"name":"verifierManager","type":"address","internalType":"address"},{"name":"valuableActionSBT","type":"address","internalType":"address"},{"name":"treasuryVault","type":"address","internalType":"address"},{"name":"treasuryAdapter","type":"address","internalType":"address"},{"name":"communityToken","type":"address","internalType":"address"},{"name":"paramController","type":"address","internalType":"address"},{"name":"parentCommunityId","type":"uint256","internalType":"uint256"}],"stateMutability":"view"},{"type":"function","name":"communityAdmins","inputs":[{"name":"","type":"uint256","internalType":"uint256"},{"name":"","type":"address","internalType":"address"}],"outputs":[{"name":"","type":"bool","internalType":"bool"}],"stateMutability":"view"},{"type":"function","name":"communityRoles","inputs":[{"name":"","type":"uint256","internalType":"uint256"},{"name":"","type":"address","internalType":"address"},{"name":"","type":"bytes32","internalType":"bytes32"}],"outputs":[{"name":"","type":"bool","internalType":"bool"}],"stateMutability":"view"},{"type":"function","name":"curators","inputs":[{"name":"","type":"uint256","internalType":"uint256"},{"name":"","type":"address","internalType":"address"}],"outputs":[{"name":"","type":"bool","internalType":"bool"}],"stateMutability":"view"},{"type":"function","name":"formAlliance","inputs":[{"name":"communityId1","type":"uint256","internalType":"uint256"},{"name":"communityId2","type":"uint256","internalType":"uint256"}],"outputs":[],"stateMutability":"nonpayable"},{"type":"function","name":"getActiveCommunities","inputs":[],"outputs":[{"name":"","type":"uint256[]","internalType":"uint256[]"}],"stateMutability":"view"},{"type":"function","name":"getCommunity","inputs":[{"name":"communityId","type":"uint256","internalType":"uint256"}],"outputs":[{"name":"","type":"tuple","internalType":"struct CommunityRegistry.Community","components":[{"name":"name","type":"string","internalType":"string"},{"name":"description","type":"string","internalType":"string"},{"name":"metadataURI","type":"string","internalType":"string"},{"name":"active","type":"bool","internalType":"bool"},{"name":"createdAt","type":"uint256","internalType":"uint256"},{"name":"governor","type":"address","internalType":"address"},{"name":"timelock","type":"address","internalType":"address"},{"name":"requestHub","type":"address","internalType":"address"},{"name":"draftsManager","type":"address","internalType":"address"},{"name":"engagementsManager","type":"address","internalType":"address"},{"name":"valuableActionRegistry","type":"address","internalType":"address"},{"name":"verifierPowerToken","type":"address","internalType":"address"},{"name":"verifierElection","type":"address","internalType":"address"},{"name":"verifierManager","type":"address","internalType":"address"},{"name":"valuableActionSBT","type":"address","internalType":"address"},{"name":"treasuryVault","type":"address","internalType":"address"},{"name":"treasuryAdapter","type":"address","internalType":"address"},{"name":"communityToken","type":"address","internalType":"address"},{"name":"paramController","type":"address","internalType":"address"},{"name":"parentCommunityId","type":"uint256","internalType":"uint256"},{"name":"allyCommunityIds","type":"uint256[]","internalType":"uint256[]"}]}],"stateMutability":"view"},{"type":"function","name":"getCommunityModules","inputs":[{"name":"communityId","type":"uint256","internalType":"uint256"}],"outputs":[{"name":"","type":"tuple","internalType":"struct CommunityRegistry.ModuleAddresses","components":[{"name":"governor","type":"address","internalType":"address"},{"name":"timelock","type":"address","internalType":"address"},{"name":"requestHub","type":"address","internalType":"address"},{"name":"draftsManager","type":"address","internalType":"address"},{"name":"engagementsManager","type":"address","internalType":"address"},{"name":"valuableActionRegistry","type":"address","internalType":"address"},{"name":"verifierPowerToken","type":"address","internalType":"address"},{"name":"verifierElection","type":"address","internalType":"address"},{"name":"verifierManager","type":"address","internalType":"address"},{"name":"valuableActionSBT","type":"address","internalType":"address"},{"name":"treasuryVault","type":"address","internalType":"address"},{"name":"treasuryAdapter","type":"address","internalType":"address"},{"name":"communityToken","type":"address","internalType":"address"},{"name":"paramController","type":"address","internalType":"address"}]}],"stateMutability":"view"},{"type":"function","name":"getCommunityRelationships","inputs":[{"name":"communityId","type":"uint256","internalType":"uint256"}],"outputs":[{"name":"parentCommunityId","type":"uint256","internalType":"uint256"},{"name":"allyCommunityIds","type":"uint256[]","internalType":"uint256[]"}],"stateMutability":"view"},{"type":"function","name":"getEconomicParameters","inputs":[{"name":"communityId","type":"uint256","internalType":"uint256"}],"outputs":[{"name":"minTreasuryBps","type":"uint256","internalType":"uint256"},{"name":"minPositionsBps","type":"uint256","internalType":"uint256"},{"name":"spilloverTarget","type":"uint8","internalType":"uint8"},{"name":"spilloverSplitBpsToTreasury","type":"uint256","internalType":"uint256"},{"name":"feeOnWithdraw","type":"uint256","internalType":"uint256"},{"name":"backingAssets","type":"address[]","internalType":"address[]"}],"stateMutability":"view"},{"type":"function","name":"getEligibilityRules","inputs":[{"name":"communityId","type":"uint256","internalType":"uint256"}],"outputs":[{"name":"minSeniority","type":"uint256","internalType":"uint256"},{"name":"minSBTs","type":"uint256","internalType":"uint256"},{"name":"proposalThreshold","type":"uint256","internalType":"uint256"}],"stateMutability":"view"},{"type":"function","name":"getGovernanceParameters","inputs":[{"name":"communityId","type":"uint256","internalType":"uint256"}],"outputs":[{"name":"debateWindow","type":"uint256","internalType":"uint256"},{"name":"voteWindow","type":"uint256","internalType":"uint256"},{"name":"executionDelay","type":"uint256","internalType":"uint256"}],"stateMutability":"view"},{"type":"function","name":"getModuleAddresses","inputs":[{"name":"communityId","type":"uint256","internalType":"uint256"}],"outputs":[{"name":"governor","type":"address","internalType":"address"},{"name":"timelock","type":"address","internalType":"address"},{"name":"requestHub","type":"address","internalType":"address"},{"name":"draftsManager","type":"address","internalType":"address"},{"name":"engagementsManager","type":"address","internalType":"address"},{"name":"valuableActionRegistry","type":"address","internalType":"address"},{"name":"valuableActionSBT","type":"address","internalType":"address"},{"name":"treasuryVault","type":"address","internalType":"address"},{"name":"treasuryAdapter","type":"address","internalType":"address"},{"name":"communityToken","type":"address","internalType":"address"}],"stateMutability":"view"},{"type":"function","name":"getRoleAdmin","inputs":[{"name":"role","type":"bytes32","internalType":"bytes32"}],"outputs":[{"name":"","type":"bytes32","internalType":"bytes32"}],"stateMutability":"view"},{"type":"function","name":"grantCommunityRole","inputs":[{"name":"communityId","type":"uint256","internalType":"uint256"},{"name":"user","type":"address","internalType":"address"},{"name":"role","type":"bytes32","internalType":"bytes32"}],"outputs":[],"stateMutability":"nonpayable"},{"type":"function","name":"grantRole","inputs":[{"name":"role","type":"bytes32","internalType":"bytes32"},{"name":"account","type":"address","internalType":"address"}],"outputs":[],"stateMutability":"nonpayable"},{"type":"function","name":"hasRole","inputs":[{"name":"communityId","type":"uint256","internalType":"uint256"},{"name":"user","type":"address","internalType":"address"},{"name":"role","type":"bytes32","internalType":"bytes32"}],"outputs":[{"name":"","type":"bool","internalType":"bool"}],"stateMutability":"view"},{"type":"function","name":"hasRole","inputs":[{"name":"role","type":"bytes32","internalType":"bytes32"},{"name":"account","type":"address","internalType":"address"}],"outputs":[{"name":"","type":"bool","internalType":"bool"}],"stateMutability":"view"},{"type":"function","name":"initializeDefaultParameters","inputs":[{"name":"communityId","type":"uint256","internalType":"uint256"}],"outputs":[],"stateMutability":"nonpayable"},{"type":"function","name":"moderators","inputs":[{"name":"","type":"uint256","internalType":"uint256"},{"name":"","type":"address","internalType":"address"}],"outputs":[{"name":"","type":"bool","internalType":"bool"}],"stateMutability":"view"},{"type":"function","name":"nextCommunityId","inputs":[],"outputs":[{"name":"","type":"uint256","internalType":"uint256"}],"stateMutability":"view"},{"type":"function","name":"paramController","inputs":[],"outputs":[{"name":"","type":"address","internalType":"contract ParamController"}],"stateMutability":"view"},{"type":"function","name":"registerCommunity","inputs":[{"name":"name","type":"string","internalType":"string"},{"name":"description","type":"string","internalType":"string"},{"name":"metadataURI","type":"string","internalType":"string"},{"name":"parentCommunityId","type":"uint256","internalType":"uint256"}],"outputs":[{"name":"communityId","type":"uint256","internalType":"uint256"}],"stateMutability":"nonpayable"},{"type":"function","name":"renounceRole","inputs":[{"name":"role","type":"bytes32","internalType":"bytes32"},{"name":"callerConfirmation","type":"address","internalType":"address"}],"outputs":[],"stateMutability":"nonpayable"},{"type":"function","name":"revokeCommunityRole","inputs":[{"name":"communityId","type":"uint256","internalType":"uint256"},{"name":"user","type":"address","internalType":"address"},{"name":"role","type":"bytes32","internalType":"bytes32"}],"outputs":[],"stateMutability":"nonpayable"},{"type":"function","name":"revokeRole","inputs":[{"name":"role","type":"bytes32","internalType":"bytes32"},{"name":"account","type":"address","internalType":"address"}],"outputs":[],"stateMutability":"nonpayable"},{"type":"function","name":"setCommunityStatus","inputs":[{"name":"communityId","type":"uint256","internalType":"uint256"},{"name":"active","type":"bool","internalType":"bool"}],"outputs":[],"stateMutability":"nonpayable"},{"type":"function","name":"setModuleAddress","inputs":[{"name":"communityId","type":"uint256","internalType":"uint256"},{"name":"moduleKey","type":"bytes32","internalType":"bytes32"},{"name":"moduleAddress","type":"address","internalType":"address"}],"outputs":[],"stateMutability":"nonpayable"},{"type":"function","name":"setModuleAddresses","inputs":[{"name":"communityId","type":"uint256","internalType":"uint256"},{"name":"modules","type":"tuple","internalType":"struct CommunityRegistry.ModuleAddresses","components":[{"name":"governor","type":"address","internalType":"address"},{"name":"timelock","type":"address","internalType":"address"},{"name":"requestHub","type":"address","internalType":"address"},{"name":"draftsManager","type":"address","internalType":"address"},{"name":"engagementsManager","type":"address","internalType":"address"},{"name":"valuableActionRegistry","type":"address","internalType":"address"},{"name":"verifierPowerToken","type":"address","internalType":"address"},{"name":"verifierElection","type":"address","internalType":"address"},{"name":"verifierManager","type":"address","internalType":"address"},{"name":"valuableActionSBT","type":"address","internalType":"address"},{"name":"treasuryVault","type":"address","internalType":"address"},{"name":"treasuryAdapter","type":"address","internalType":"address"},{"name":"communityToken","type":"address","internalType":"address"},{"name":"paramController","type":"address","internalType":"address"}]}],"outputs":[],"stateMutability":"nonpayable"},{"type":"function","name":"supportsInterface","inputs":[{"name":"interfaceId","type":"bytes4","internalType":"bytes4"}],"outputs":[{"name":"","type":"bool","internalType":"bool"}],"stateMutability":"view"},{"type":"event","name":"CommunityAllianceFormed","inputs":[{"name":"communityId1","type":"uint256","indexed":true,"internalType":"uint256"},{"name":"communityId2","type":"uint256","indexed":true,"internalType":"uint256"}],"anonymous":false},{"type":"event","name":"CommunityRegistered","inputs":[{"name":"communityId","type":"uint256","indexed":true,"internalType":"uint256"},{"name":"name","type":"string","indexed":false,"internalType":"string"},{"name":"creator","type":"address","indexed":true,"internalType":"address"},{"name":"parentCommunityId","type":"uint256","indexed":false,"internalType":"uint256"}],"anonymous":false},{"type":"event","name":"CommunityRoleGranted","inputs":[{"name":"communityId","type":"uint256","indexed":true,"internalType":"uint256"},{"name":"user","type":"address","indexed":true,"internalType":"address"},{"name":"role","type":"bytes32","indexed":true,"internalType":"bytes32"}],"anonymous":false},{"type":"event","name":"CommunityRoleRevoked","inputs":[{"name":"communityId","type":"uint256","indexed":true,"internalType":"uint256"},{"name":"user","type":"address","indexed":true,"internalType":"address"},{"name":"role","type":"bytes32","indexed":true,"internalType":"bytes32"}],"anonymous":false},{"type":"event","name":"CommunityStatusChanged","inputs":[{"name":"communityId","type":"uint256","indexed":true,"internalType":"uint256"},{"name":"active","type":"bool","indexed":false,"internalType":"bool"}],"anonymous":false},{"type":"event","name":"ModuleAddressUpdated","inputs":[{"name":"communityId","type":"uint256","indexed":true,"internalType":"uint256"},{"name":"moduleKey","type":"bytes32","indexed":true,"internalType":"bytes32"},{"name":"oldAddress","type":"address","indexed":false,"internalType":"address"},{"name":"newAddress","type":"address","indexed":false,"internalType":"address"}],"anonymous":false},{"type":"event","name":"RoleAdminChanged","inputs":[{"name":"role","type":"bytes32","indexed":true,"internalType":"bytes32"},{"name":"previousAdminRole","type":"bytes32","indexed":true,"internalType":"bytes32"},{"name":"newAdminRole","type":"bytes32","indexed":true,"internalType":"bytes32"}],"anonymous":false},{"type":"event","name":"RoleGranted","inputs":[{"name":"role","type":"bytes32","indexed":true,"internalType":"bytes32"},{"name":"account","type":"address","indexed":true,"internalType":"address"},{"name":"sender","type":"address","indexed":true,"internalType":"address"}],"anonymous":false},{"type":"event","name":"RoleRevoked","inputs":[{"name":"role","type":"bytes32","indexed":true,"internalType":"bytes32"},{"name":"account","type":"address","indexed":true,"internalType":"address"},{"name":"sender","type":"address","indexed":true,"internalType":"address"}],"anonymous":false},{"type":"error","name":"AccessControlBadConfirmation","inputs":[]},{"type":"error","name":"AccessControlUnauthorizedAccount","inputs":[{"name":"account","type":"address","internalType":"address"},{"name":"neededRole","type":"bytes32","internalType":"bytes32"}]},{"type":"error","name":"InvalidInput","inputs":[{"name":"reason","type":"string","internalType":"string"}]},{"type":"error","name":"NotAuthorized","inputs":[{"name":"caller","type":"address","internalType":"address"}]},{"type":"error","name":"ZeroAddress","inputs":[]}],"bytecode":{"object":"0x60a034620000d057601f6200383f38819003918201601f19168301916001600160401b03831184841017620000d4578084926040948552833981010312620000d0576200005a60206200005283620000e8565b9201620000e8565b60016006556001600160a01b039082821615620000be5716908115620000be576200008590620000fd565b5060805260405161369f9081620001808239608051818181610cb4015281816115330152818161180d015281816118ce0152612b120152f35b60405163d92e233d60e01b8152600490fd5b5f80fd5b634e487b7160e01b5f52604160045260245ffd5b51906001600160a01b0382168203620000d057565b6001600160a01b03165f8181525f805160206200381f833981519152602052604090205460ff166200017a575f8181525f805160206200381f83398151915260205260408120805460ff191660011790553391907f2f8788117e7eff1d82e926ec794901d17c78024a50270940304540a733656f0d8180a4600190565b505f9056fe610160806040526004361015610013575f80fd5b5f905f3560e01c90816301ffc9a714612e2a5750806306055b8414612e0d5780631ca5b57114612dbd57806321be27b814612adf578063248a9ca314612ab35780632530ebb31461258a5780632f2ff15d1461254d57806333624966146123dd57806336568abe1461237d5780633688da7914612332578063370603f814611f425780633b47246014611ef757806345dc230814611e2157806349dc706b14611d5d5780634a2cfb5414611d225780634d609b0114611cd75780634fbcf13114611c8057806350c76b46146118a2578063555973c41461185f578063560d4015146117b3578063628005b514611625578063797669c9146115ea578063826410c4146115cc5780638594e56c146114d957806391d148541461148f578063968fdaf014610dd75780639f9e887114610daa578063a217fddf14610d8e578063b4fbd28614610cd8578063d0d1854d14610c94578063d547741f14610c53578063e590b56a14610a33578063f1b150bd1461049c578063f36c8f5c146104615763f830e348146101a0575f80fd5b3461045e57602036600319011261045e57806040516101be8161301e565b8181528160208201528160408201528160608201528160808201528160a08201528160c08201528160e082015281610100820152816101208201528161014082015281610160820152816101808201526101a0015260043561021f9061341c565b600435815260016020526040902060058101546001600160a01b0316816006829301546001600160a01b03169060078101546001600160a01b031660088201546001600160a01b031660098301546001600160a01b0316600a8401546001600160a01b0316600b8501546001600160a01b0316600c8601546001600160a01b031690600d8701546001600160a01b031692600e8801546001600160a01b031694600f8901546001600160a01b03169660108a01546001600160a01b03169860118b01546001600160a01b03169a601201546001600160a01b03169b604051809e6103088261301e565b81526020015260408d015260608c015260808b015260a08a015260c089015260e08801526101008701526101208601526101408501526101608401526101808301526101a082015260405191825260208101516001600160a01b0316602083015260408101516001600160a01b0316604083015260608101516001600160a01b0316606083015260808101516001600160a01b0316608083015260a08101516001600160a01b031660a083015260c08101516001600160a01b031660c083015260e08101516001600160a01b031660e08301526101008101516001600160a01b03166101008301526101208101516001600160a01b03166101208301526101408101516001600160a01b03166101408301526101608101516001600160a01b03166101608301526101808101516001600160a01b03166101808301526101a001516001600160a01b03166101a08201526101c090f35b80fd5b503461045e578060031936011261045e5760206040517f71840dc4906352362b0cdaf79870196c8e42acafade72d5d5a6d59291253ceb18152f35b503461045e57608036600319011261045e5760043567ffffffffffffffff8111610a2b576104ce9036906004016130ff565b60249291923567ffffffffffffffff8111610a2f576104f19036906004016130ff565b9260443567ffffffffffffffff8111610a2b576105129036906004016130ff565b84939193156109e657606435610988575b60065495610530876131d3565b6006558684526001602052604084209267ffffffffffffffff87116108c3576105598454612fb5565b601f8111610947575b508685601f82116001146108e25786916108d7575b508760011b905f198960031b1c19161784555b67ffffffffffffffff82116108c35781906105a86001860154612fb5565b601f8111610873575b508590601f83116001146108085786926107fd575b50508160011b915f199060031b1c19161760018301555b67ffffffffffffffff81116107e9576105f96002830154612fb5565b601f81116107a1575b509160209691869382601f82116001146107115781907f4efcb338ffccf7b085281c4db55554049eb8f23f9d2b09327c3756f0cf2a213f96978592610706575b50508160011b915f199060031b1c19161760028201555b600381019060ff199160018382541617905542600482015560136064359101558482526004885260408220335f52885260405f208280528852604082206001828254161790558482526005885260408220335f528852600160405f20918254161790556106c76007546131d3565b600755846040519260408452816040850152606084013760608583010152606435868201526060813395601f80199101168101030190a3604051908152f35b013590505f80610642565b9560028301845289842096845b601f198416811061078757509682917f4efcb338ffccf7b085281c4db55554049eb8f23f9d2b09327c3756f0cf2a213f9798600194601f1981161061076e575b505050811b016002820155610659565b01355f19600384901b60f8161c191690555f808061075e565b8183013589556001909801978a9750908b01908b0161071e565b60028301845260208420601f830160051c810191602084106107df575b601f0160051c01905b8181106107d45750610602565b5f81556001016107c7565b90915081906107be565b602483634e487b7160e01b81526041600452fd5b013590505f806105c6565b60018601875260208720879450915b601f198416851061085b576001945083601f19811610610842575b505050811b0160018301556105dd565b01355f19600384901b60f8161c191690555f8080610832565b81810135835560209485019460019093019201610817565b90915060018501865260208620601f840160051c8101602085106108bc575b90849392915b601f830160051c820181106108ae5750506105b1565b5f8155859450600101610898565b5080610892565b602485634e487b7160e01b81526041600452fd5b90508901355f610577565b858752602087209150865b8b601f198b16821061092f57505088601f19811610610916575b5050600187811b01845561058a565b8a01355f1960038a901b60f8161c191690555f80610907565b600183946020939484930135815501930191016108ed565b84865260208620601f890160051c810160208a10610981575b601f830160051c82018110610976575050610562565b5f8155600101610960565b5080610960565b6064358352600160205260ff60036040852001541661052357606460405163d647364f60e01b815260206004820152601b60248201527f506172656e7420636f6d6d756e697479206e6f742061637469766500000000006044820152fd5b606460405163d647364f60e01b815260206004820152601e60248201527f436f6d6d756e697479206e616d652063616e6e6f7420626520656d70747900006044820152fd5b5080fd5b8280fd5b503461045e57602036600319011261045e576004358152600160205260409020610a5c8161305d565b90610a696001820161305d565b61012052610a796002820161305d565b61014052600381015460ff166101005260048101549160058201546001600160a01b031660068301546001600160a01b031660078401546001600160a01b031660088501546001600160a01b031660098601546001600160a01b0316600a8701546001600160a01b031690600b8801546001600160a01b031692600c8901546001600160a01b031694600d8a01546001600160a01b031696600e8b01546001600160a01b031698600f8c01546001600160a01b03169a60108d01546001600160a01b03169c60118101546001600160a01b031660805260128101546001600160a01b031660a0526013015460e05260405160c0526102808060c0515260c05101610b8291612f08565b60c051810360c051602001526101205190610b9c91612f08565b60c051810360c051604001526101405190610bb691612f08565b9c61010051151560c0516060015260c0516080015260c05160a0015260c05160c0015260c05160e0015260c051610100015260c051610120015260c051610140015260c051610160015260c051610180015260c0516101a0015260c0516101c0015260c0516101e0015260c051610200015260805160c051610220015260a05160c051610240015260e05160c051610260015260c051900360c051f35b503461045e57604036600319011261045e57610c90600435610c73612ec8565b9080845283602052610c8b6001604086200154613501565b6135d6565b5080f35b503461045e578060031936011261045e5760206040516001600160a01b037f0000000000000000000000000000000000000000000000000000000000000000168152f35b503461045e57602036600319011261045e57604061014091600435610cfc8161341c565b81526001602052206001600160a01b038060058301541691816006820154169180600783015416816008840154168260098501541683600a860154169184600e870154169385600f880154169560118160108a0154169801541697604051998a5260208a015260408901526060880152608087015260a086015260c085015260e0840152610100830152610120820152f35b503461045e578060031936011261045e57602090604051908152f35b503461045e57604036600319011261045e576024358015158103610a2b57610dd49060043561335a565b80f35b503461045e576101e036600319011261045e576004356101c0366023190112610a2b57610e038161341c565b610e0c8161347f565b808252600160205260408220906001600160a01b039182610e2b61321f565b1661142e575b82610e3a613235565b166113cd575b82610e4961324b565b1661136c575b82610e58613261565b1661130b575b82610e67613277565b166112aa575b82610e7661328d565b16611249575b82610e856132a3565b166111e8575b82610e946132b9565b16611187575b82610ea36132d0565b16611126575b82610eb26132e7565b166110c5575b82610ec16132fe565b16611064575b82610ed0613315565b16611003575b82610edf61332c565b16610f7e575b82610eee613343565b16610ef7578380f35b60126001600160a01b03199101927f8261c36d170ec64b60c2f015482418cba997cb5d3787c13f43e3e29e3713a3aa8454935f8051602061364a833981519152610f66610f42613343565b604080516001600160a01b038a891681168252909216602083015290918291820190565b0390a3610f71613343565b1691161790555f80808380f35b6011810180547f98e8485c9f8d32054528913734a0b61a027120b5b579681fd3be4ad009f54d88845f8051602061364a833981519152610fe3610fbf61332c565b604080516001600160a01b03888d1681168252909216602083015290918291820190565b0390a36001600160a01b031985610ff861332c565b169116179055610ee5565b6010810180547f5a200776fcd7bd781b66706fec6e1b18f0621e153b73c7363545fca20f04a1d2845f8051602061364a833981519152611044610fbf613315565b0390a36001600160a01b031985611059613315565b169116179055610ed6565b600f810180547fe43d20cf7f6a2ff14d5f0335d5c7789349ccc63ae1114e12b0bd87c3f1e951a1845f8051602061364a8339815191526110a5610fbf6132fe565b0390a36001600160a01b0319856110ba6132fe565b169116179055610ec7565b600e810180547f32afddabd709addf4415072b8d91182991dca79db32c8f955b2de08fde6a6f5b845f8051602061364a833981519152611106610fbf6132e7565b0390a36001600160a01b03198561111b6132e7565b169116179055610eb8565b600d810180547f7b5100c5075e8b464921c50f00e473a3bc0c31203deea60edb85769b757f8bf3845f8051602061364a833981519152611167610fbf6132d0565b0390a36001600160a01b03198561117c6132d0565b169116179055610ea9565b600c810180547f462e21731791a88fbc3d6e262bf146c4157be7e45705bcc62f1a363fee3c4826845f8051602061364a8339815191526111c8610fbf6132b9565b0390a36001600160a01b0319856111dd6132b9565b169116179055610e9a565b600b810180547fb8cb7564b4fae24959e5c4110e8d9cf91dec7f90b166d06cf5ec514d3c9572bb845f8051602061364a833981519152611229610fbf6132a3565b0390a36001600160a01b03198561123e6132a3565b169116179055610e8b565b600a810180547f666ae48d5d989da88ad33b18d9ad1eb36fb06da47a87e3848edc838a0c833b66845f8051602061364a83398151915261128a610fbf61328d565b0390a36001600160a01b03198561129f61328d565b169116179055610e7c565b6009810180547fbff2e278cc551512f9de0667dc3c1f1adc56d0fa1cc74c9c4bc2fdb3bf19b4eb845f8051602061364a8339815191526112eb610fbf613277565b0390a36001600160a01b031985611300613277565b169116179055610e6d565b6008810180547f4347b7879af66b5dbc633ac7823917506d8e6f9413913e212b835d7d207618e6845f8051602061364a83398151915261134c610fbf613261565b0390a36001600160a01b031985611361613261565b169116179055610e5e565b6007810180547f53f851c2f0120d87a66d7c53ece15902d923fb3a96f123db6800bb40afe22dd9845f8051602061364a8339815191526113ad610fbf61324b565b0390a36001600160a01b0319856113c261324b565b169116179055610e4f565b6006810180547f268198d81cd5de2a4c427017a36e6262825f97fa3f1ca0d7bccee07cfae2ad58845f8051602061364a83398151915261140e610fbf613235565b0390a36001600160a01b031985611423613235565b169116179055610e40565b6005810180547f1e46cebd6689d8c64011118478db0c61a89aa2646c860df401de476fbf378983845f8051602061364a83398151915261146f610fbf61321f565b0390a36001600160a01b03198561148461321f565b169116179055610e31565b503461045e57604036600319011261045e576001600160a01b0360406114b3612ec8565b926004358152806020522091165f52602052602060ff60405f2054166040519015158152f35b503461045e57602036600319011261045e576004356114f78161341c565b604051907fa1debd1300000000000000000000000000000000000000000000000000000000825260048201526060816024816001600160a01b037f0000000000000000000000000000000000000000000000000000000000000000165afa80156115c1578291839161158a575b5061158690604051938493846040919493926060820195825260208201520152565b0390f35b905061158692506115b3915060603d6060116115ba575b6115ab818361303b565b810190613204565b9092611564565b503d6115a1565b6040513d84823e3d90fd5b503461045e578060031936011261045e576020600754604051908152f35b503461045e578060031936011261045e5760206040517f71f3d55856e4058ed06ee057d79ada615f65cdf5f9ee88181b914225088f834f8152f35b503461045e5761163436612ede565b919061163f8261341c565b6116488261347f565b7f71f3d55856e4058ed06ee057d79ada615f65cdf5f9ee88181b914225088f834f83036116ed576001600160a01b039082855260026020526040852082821690815f5260205260405f209060ff1991828154169055848752600460205260408720905f5260205260405f20858752602052604086209081541690555b16907f5d889adddd84715508093563ae8da798a941b4accfcda9c79f2bba3a2602dd718480a480f35b7f850d585eb7f024ccee5e68e55f2c26cc72e1e6ee456acf62135757a5eb9d4a10830361176d576001600160a01b039082855260036020526040852082821690815f5260205260405f209060ff1991828154169055848752600460205260408720905f5260205260405f20858752602052604086209081541690556116c4565b60405163d647364f60e01b815260206004820152600c60248201527f496e76616c696420726f6c6500000000000000000000000000000000000000006044820152606490fd5b503461045e57602036600319011261045e576004356117d18161341c565b604051907fa3a2479200000000000000000000000000000000000000000000000000000000825260048201526060816024816001600160a01b037f0000000000000000000000000000000000000000000000000000000000000000165afa80156115c1578291839161158a575061158690604051938493846040919493926060820195825260208201520152565b503461045e5760ff604060209261187536612ede565b918352600486526001600160a01b0384842091165f528552825f2090825284522054166040519015158152f35b503461045e57602080600319360112610a2b57600435916118c28361341c565b6001600160a01b0390817f000000000000000000000000000000000000000000000000000000000000000016936040517fd32d0ade000000000000000000000000000000000000000000000000000000008152816004820152608081602481895afa908115611c75578395849585928694611c05575b5061ffff98604051957fa93ed1ba0000000000000000000000000000000000000000000000000000000087528387600481855afa968715611bcb578897611bd6575b50604051967f6a06295400000000000000000000000000000000000000000000000000000000885281600489015260248801528387604481855afa968715611bcb578897611b98575b50604051906352d7e26360e11b82528482600481865afa918215611b8d57908992918392611b56575b5060449060405194859384927f0bcb2f93000000000000000000000000000000000000000000000000000000008452600484015260248301525afa968715611b4a5790818b969594939298611a78575b5050509060ff9184611586986040519b8c9b168b521690890152166040870152166060850152608084015260c060a084015260c0830190612f79565b9193955091939596503d8082843e611a90818461303b565b8201918481840312610a2b5780519067ffffffffffffffff8211610a2f57019282601f85011215610a2b57835191611ac78361312d565b94611ad5604051968761303b565b838652868087019460051b820101948511610a2b5790868d989b9a9997969594939201925b848410611b1a5750505050509560ff918461158698979882939450611a3c565b9091928094959697999a9b9850518381168103610a2f578152969998978c97909695949386019291908601611afa565b604051903d90823e3d90fd5b925090508482813d8111611b86575b611b6f818361303b565b81010312611b82579051889160446119ec565b5f80fd5b503d611b65565b6040513d8b823e3d90fd5b9096508381813d8311611bc4575b611bb0818361303b565b81010312611bc05751955f6119c3565b8780fd5b503d611ba6565b6040513d8a823e3d90fd5b9096508381813d8311611bfe575b611bee818361303b565b81010312611b825751955f61197a565b503d611be4565b965092509550506080843d608011611c6d575b81611c256080938361303b565b81010312610a2f57611c36846131f5565b611c418686016131f5565b9560408601519560ff87168703611c69576060611c5e91016131f5565b91969591925f611938565b8580fd5b3d9150611c18565b6040513d85823e3d90fd5b503461045e57602036600319011261045e57604090600435611ca18161341c565b8152600160205220611cba601460138301549201613145565b906115866040519283928352604060208401526040830190612f46565b503461045e57604036600319011261045e576001600160a01b036040611cfb612ec8565b92600435815260026020522091165f52602052602060ff60405f2054166040519015158152f35b503461045e578060031936011261045e5760206040517f850d585eb7f024ccee5e68e55f2c26cc72e1e6ee456acf62135757a5eb9d4a108152f35b503461045e578060031936011261045e57600754611d93611d7d8261312d565b91611d8b604051938461303b565b80835261312d565b60209290601f1901368385013780600193600192600654935b848110611dc9576040516020808252819061158690820189612f46565b808791835281845260ff600360408520015416611de7575b01611dac565b9390508551811015611e0d57611e078185858a9460051b8a0101526131d3565b93611de1565b602482634e487b7160e01b81526032600452fd5b503461045e57604036600319011261045e57602435600435611e428161341c565b611e4b8261341c565b611e548161347f565b818114611eb2578083526001602052611e738260146040862001613193565b8183526001602052611e8b8160146040862001613193565b7fe4efcf2d01d38d3de90c4288e3533ee47fe8f6dd7ea0253636790b242dc705108380a380f35b606460405163d647364f60e01b815260206004820152601560248201527f43616e6e6f7420616c6c7920776974682073656c6600000000000000000000006044820152fd5b503461045e57604036600319011261045e576001600160a01b036040611f1b612ec8565b92600435815260036020522091165f52602052602060ff60405f2054166040519015158152f35b503461045e57602036600319011261045e5760406115869160606102808351611f6a81613001565b828152826020820152828582015283838201528360808201528360a08201528360c08201528360e08201528361010082015283610120820152836101408201528361016082015283610180820152836101a0820152836101c0820152836101e0820152836102008201528361022082015283610240820152836102608201520152611ff660043561341c565b600435815260016020522061217f60146040519261201384613001565b61201c8161305d565b845261202a6001820161305d565b602085015261203b6002820161305d565b604085015260ff60038201541615156060850152600481015460808501526001600160a01b0360058201541660a08501526001600160a01b0360068201541660c08501526001600160a01b0360078201541660e08501526001600160a01b036008820154166101008501526001600160a01b036009820154166101208501526001600160a01b03600a820154166101408501526001600160a01b03600b820154166101608501526001600160a01b03600c820154166101808501526001600160a01b03600d820154166101a08501526001600160a01b03600e820154166101c08501526001600160a01b03600f820154166101e08501526001600160a01b036010820154166102008501526001600160a01b036011820154166102208501526001600160a01b03601282015416610240850152601381015461026085015201613145565b610280820152604051918291602083526102806121dc6121c66121b084516102a060208901526102c0880190612f08565b6020850151878203601f19016040890152612f08565b6040840151868203601f19016060880152612f08565b91606081015115156080860152608081015160a08601526001600160a01b0360a08201511660c08601526001600160a01b0360c08201511660e08601526001600160a01b0360e0820151166101008601526001600160a01b03610100820151166101208601526001600160a01b03610120820151166101408601526001600160a01b03610140820151166101608601526001600160a01b03610160820151166101808601526001600160a01b03610180820151166101a08601526001600160a01b036101a0820151166101c08601526001600160a01b036101c0820151166101e08601526001600160a01b036101e0820151166102008601526001600160a01b03610200820151166102208601526001600160a01b03610220820151166102408601526001600160a01b0361024082015116610260860152610260810151828601520151601f19848303016102a0850152612f46565b503461045e57604036600319011261045e576001600160a01b036040612356612ec8565b92600435815260056020522091165f52602052602060ff60405f2054166040519015158152f35b503461045e57604036600319011261045e57612397612ec8565b336001600160a01b038216036123b357610c90906004356135d6565b60046040517f6697b232000000000000000000000000000000000000000000000000000000008152fd5b503461045e576001600160a01b036123f436612ede565b92906123ff8361341c565b6124088361347f565b16908115612523577f71f3d55856e4058ed06ee057d79ada615f65cdf5f9ee88181b914225088f834f83036124ab57808452600260205260408420825f5260205260405f2060ff1990600182825416179055818552600460205260408520835f5260205260405f20848652602052600160408620918254161790555b7f94765e3c1e0f3b4ba19015a25eec7ec04cb5c6acc83a4ac9cac5cf4412abf8488480a480f35b7f850d585eb7f024ccee5e68e55f2c26cc72e1e6ee456acf62135757a5eb9d4a10830361176d57808452600360205260408420825f5260205260405f2060ff1990600182825416179055818552600460205260408520835f5260205260405f2084865260205260016040862091825416179055612484565b60046040517fd92e233d000000000000000000000000000000000000000000000000000000008152fd5b503461045e57604036600319011261045e57610c9060043561256d612ec8565b90808452836020526125856001604086200154613501565b613559565b503461045e57606036600319011261045e576024356004356001600160a01b0360443581811691828203611b82576125c18461341c565b6125ca8461347f565b838652600160205260408620927f1e46cebd6689d8c64011118478db0c61a89aa2646c860df401de476fbf37898386036126445760055f8051602061364a8339815191529401906001600160a01b0319825493841693161790555b604080516001600160a01b03928316815292909116602083015290a380f35b7f268198d81cd5de2a4c427017a36e6262825f97fa3f1ca0d7bccee07cfae2ad5886036126965760065f8051602061364a8339815191529401906001600160a01b031982549384169316179055612625565b7f53f851c2f0120d87a66d7c53ece15902d923fb3a96f123db6800bb40afe22dd986036126e85760075f8051602061364a8339815191529401906001600160a01b031982549384169316179055612625565b7f4347b7879af66b5dbc633ac7823917506d8e6f9413913e212b835d7d207618e6860361273a5760085f8051602061364a8339815191529401906001600160a01b031982549384169316179055612625565b7fbff2e278cc551512f9de0667dc3c1f1adc56d0fa1cc74c9c4bc2fdb3bf19b4eb860361278c5760095f8051602061364a8339815191529401906001600160a01b031982549384169316179055612625565b7f666ae48d5d989da88ad33b18d9ad1eb36fb06da47a87e3848edc838a0c833b6686036127de57600a5f8051602061364a8339815191529401906001600160a01b031982549384169316179055612625565b7fb8cb7564b4fae24959e5c4110e8d9cf91dec7f90b166d06cf5ec514d3c9572bb860361283057600b5f8051602061364a8339815191529401906001600160a01b031982549384169316179055612625565b7f462e21731791a88fbc3d6e262bf146c4157be7e45705bcc62f1a363fee3c4826860361288257600c5f8051602061364a8339815191529401906001600160a01b031982549384169316179055612625565b7f7b5100c5075e8b464921c50f00e473a3bc0c31203deea60edb85769b757f8bf386036128d457600d5f8051602061364a8339815191529401906001600160a01b031982549384169316179055612625565b7f32afddabd709addf4415072b8d91182991dca79db32c8f955b2de08fde6a6f5b860361292657600e5f8051602061364a8339815191529401906001600160a01b031982549384169316179055612625565b7fe43d20cf7f6a2ff14d5f0335d5c7789349ccc63ae1114e12b0bd87c3f1e951a1860361297857600f5f8051602061364a8339815191529401906001600160a01b031982549384169316179055612625565b7f5a200776fcd7bd781b66706fec6e1b18f0621e153b73c7363545fca20f04a1d286036129ca5760105f8051602061364a8339815191529401906001600160a01b031982549384169316179055612625565b7f98e8485c9f8d32054528913734a0b61a027120b5b579681fd3be4ad009f54d888603612a1c5760115f8051602061364a8339815191529401906001600160a01b031982549384169316179055612625565b7f8261c36d170ec64b60c2f015482418cba997cb5d3787c13f43e3e29e3713a3aa8603612a6e5760125f8051602061364a8339815191529401906001600160a01b031982549384169316179055612625565b606460405163d647364f60e01b815260206004820152601260248201527f556e6b6e6f776e206d6f64756c65206b657900000000000000000000000000006044820152fd5b503461045e57602036600319011261045e57600160406020926004358152808452200154604051908152f35b5034611b8257602080600319360112611b825760043590612aff8261341c565b612b088261347f565b6001600160a01b037f00000000000000000000000000000000000000000000000000000000000000001691823b15611b82576040517f5da23e7f00000000000000000000000000000000000000000000000000000000815281600482015262093a8060248201526203f48060448201526202a30060648201525f8160848183885af18015612db257612d9f575b50823b15612d8757836040517f1baffc85000000000000000000000000000000000000000000000000000000008152826004820152816024820152816044820152670de0b6b3a76400006064820152818160848183895af180156115c157612d8b575b5050823b15612d8757836040517fa5d3e8120000000000000000000000000000000000000000000000000000000081528260048201526109c4806024830152604482015260016064820152816084820152818160a48183895af180156115c157612d73575b50506040518281019381851067ffffffffffffffff861117612d5f5785946040528482526040516352d7e26360e11b81528481600481855afa948515612d54578695612d21575b5050803b15612d1d57612cfc93858094604051968795869485937fd785648900000000000000000000000000000000000000000000000000000000855260048501526024840152606060448401526064830190612f79565b03925af180156115c157612d0d5750f35b612d1690612fed565b61045e5780f35b8480fd5b819650809295503d8311612d4d575b612d3a818361303b565b81010312611b8257849351925f80612ca4565b503d612d30565b6040513d88823e3d90fd5b634e487b7160e01b5f52604160045260245ffd5b612d7c90612fed565b612d8757835f612c5d565b8380fd5b612d9490612fed565b612d8757835f612bf8565b612daa919450612fed565b5f925f612b95565b6040513d5f823e3d90fd5b34611b8257612dcb36612ede565b91612dd58161341c565b5f5260046020526001600160a01b0360405f2091165f5260205260405f20905f52602052602060ff60405f2054166040519015158152f35b34611b82575f366003190112611b82576020600654604051908152f35b34611b82576020366003190112611b8257600435907fffffffff000000000000000000000000000000000000000000000000000000008216809203611b8257817f7965db0b0000000000000000000000000000000000000000000000000000000060209314908115612e9e575b5015158152f35b7f01ffc9a70000000000000000000000000000000000000000000000000000000091501483612e97565b602435906001600160a01b0382168203611b8257565b6060906003190112611b8257600435906024356001600160a01b0381168103611b82579060443590565b91908251928382525f5b848110612f32575050825f602080949584010152601f8019910116010190565b602081830181015184830182015201612f12565b9081518082526020808093019301915f5b828110612f65575050505090565b835185529381019392810192600101612f57565b9081518082526020808093019301915f5b828110612f98575050505090565b83516001600160a01b031685529381019392810192600101612f8a565b90600182811c92168015612fe3575b6020831014612fcf57565b634e487b7160e01b5f52602260045260245ffd5b91607f1691612fc4565b67ffffffffffffffff8111612d5f57604052565b6102a0810190811067ffffffffffffffff821117612d5f57604052565b6101c0810190811067ffffffffffffffff821117612d5f57604052565b90601f8019910116810190811067ffffffffffffffff821117612d5f57604052565b9060405191825f825461306f81612fb5565b908184526020946001916001811690815f146130dd575060011461309f575b50505061309d9250038361303b565b565b5f90815285812095935091905b8183106130c557505061309d93508201015f808061308e565b855488840185015294850194879450918301916130ac565b9250505061309d94925060ff191682840152151560051b8201015f808061308e565b9181601f84011215611b825782359167ffffffffffffffff8311611b825760208381860195010111611b8257565b67ffffffffffffffff8111612d5f5760051b60200190565b90604051918281549182825260209260208301915f5260205f20935f905b8282106131795750505061309d9250038361303b565b855484526001958601958895509381019390910190613163565b80549068010000000000000000821015612d5f57600182018082558210156131bf575f5260205f200155565b634e487b7160e01b5f52603260045260245ffd5b5f1981146131e15760010190565b634e487b7160e01b5f52601160045260245ffd5b519061ffff82168203611b8257565b90816060910312611b82578051916040602083015192015190565b6024356001600160a01b0381168103611b825790565b6044356001600160a01b0381168103611b825790565b6064356001600160a01b0381168103611b825790565b6084356001600160a01b0381168103611b825790565b60a4356001600160a01b0381168103611b825790565b60c4356001600160a01b0381168103611b825790565b60e4356001600160a01b0381168103611b825790565b610104356001600160a01b0381168103611b825790565b610124356001600160a01b0381168103611b825790565b610144356001600160a01b0381168103611b825790565b610164356001600160a01b0381168103611b825790565b610184356001600160a01b0381168103611b825790565b6101a4356001600160a01b0381168103611b825790565b6101c4356001600160a01b0381168103611b825790565b906133648261341c565b61336d8261347f565b815f526001602052600360405f200190815491811515928360ff82161515146134155760ff191660ff8416179055156133dc5760207f1b33bf721278476ef24ca6ec530cfd3532aa6a88fe28b73f6bdf0f74e3ee52cc916133cf6007546131d3565b6007555b604051908152a2565b60075480156131e1575f19016007557f1b33bf721278476ef24ca6ec530cfd3532aa6a88fe28b73f6bdf0f74e3ee52cc906020906133d3565b5050505050565b8015908115613472575b5061342d57565b606460405163d647364f60e01b815260206004820152601860248201527f436f6d6d756e69747920646f6573206e6f7420657869737400000000000000006044820152fd5b905060065411155f613426565b5f52600560205260405f20335f5260205260ff60405f20541661309d57335f9081527fad3228b676f7d3cd4284a5443f17f1962b36e491b30a40b2405849e597ba5fb5602052604090205460ff1661309d5760246040517f4a0bfec1000000000000000000000000000000000000000000000000000000008152336004820152fd5b805f525f60205260405f20335f5260205260ff60405f205416156135225750565b604490604051907fe2517d3f0000000000000000000000000000000000000000000000000000000082523360048301526024820152fd5b90815f525f6020526001600160a01b0360405f20911690815f5260205260ff60405f205416155f146135d057815f525f60205260405f20815f5260205260405f20600160ff1982541617905533917f2f8788117e7eff1d82e926ec794901d17c78024a50270940304540a733656f0d5f80a4600190565b50505f90565b90815f525f6020526001600160a01b0360405f20911690815f5260205260ff60405f2054165f146135d057815f525f60205260405f20815f5260205260405f2060ff19815416905533917ff6391f5c32d9c69d2a47ea670b442974b53935d1edc7fd64eb21e047a839171b5f80a460019056fe2f3bea06c6e9b63d5e7c84a6bc5a08817c09192cdc87f2ec5a5fecc2a7dd503ba26469706673582212204f8e98a588ee05bb98971df502b747beb6a8023e1199883df6810f6b3a9a1dff64736f6c63430008180033ad3228b676f7d3cd4284a5443f17f1962b36e491b30a40b2405849e597ba5fb5","linkReferences":{}},"methodIdentifiers":{"CURATOR_ROLE()":"4a2cfb54","DEFAULT_ADMIN_ROLE()":"a217fddf","GOVERNANCE_ROLE()":"f36c8f5c","MODERATOR_ROLE()":"797669c9","activeCommunityCount()":"826410c4","communities(uint256)":"e590b56a","communityAdmins(uint256,address)":"3688da79","communityRoles(uint256,address,bytes32)":"555973c4","curators(uint256,address)":"3b472460","formAlliance(uint256,uint256)":"45dc2308","getActiveCommunities()":"49dc706b","getCommunity(uint256)":"370603f8","getCommunityModules(uint256)":"f830e348","getCommunityRelationships(uint256)":"4fbcf131","getEconomicParameters(uint256)":"50c76b46","getEligibilityRules(uint256)":"560d4015","getGovernanceParameters(uint256)":"8594e56c","getModuleAddresses(uint256)":"b4fbd286","getRoleAdmin(bytes32)":"248a9ca3","grantCommunityRole(uint256,address,bytes32)":"33624966","grantRole(bytes32,address)":"2f2ff15d","hasRole(bytes32,address)":"91d14854","hasRole(uint256,address,bytes32)":"1ca5b571","initializeDefaultParameters(uint256)":"21be27b8","moderators(uint256,address)":"4d609b01","nextCommunityId()":"06055b84","paramController()":"d0d1854d","registerCommunity(string,string,string,uint256)":"f1b150bd","renounceRole(bytes32,address)":"36568abe","revokeCommunityRole(uint256,address,bytes32)":"628005b5","revokeRole(bytes32,address)":"d547741f","setCommunityStatus(uint256,bool)":"9f9e8871","setModuleAddress(uint256,bytes32,address)":"2530ebb3","setModuleAddresses(uint256,(address,address,address,address,address,address,address,address,address,address,address,address,address,address))":"968fdaf0","supportsInterface(bytes4)":"01ffc9a7"},"id":5}