{"abi":[{"type":"constructor","inputs":[{"name":"_paramController","type":"address","internalType":"address"}],"stateMutability":"nonpayable"},{"type":"function","name":"CURATOR_ROLE","inputs":[],"outputs":[{"name":"","type":"bytes32","internalType":"bytes32"}],"stateMutability":"view"},{"type":"function","name":"GOVERNANCE_ROLE","inputs":[],"outputs":[{"name":"","type":"bytes32","internalType":"bytes32"}],"stateMutability":"view"},{"type":"function","name":"MODERATOR_ROLE","inputs":[],"outputs":[{"name":"","type":"bytes32","internalType":"bytes32"}],"stateMutability":"view"},{"type":"function","name":"activeCommunityCount","inputs":[],"outputs":[{"name":"","type":"uint256","internalType":"uint256"}],"stateMutability":"view"},{"type":"function","name":"communities","inputs":[{"name":"","type":"uint256","internalType":"uint256"}],"outputs":[{"name":"name","type":"string","internalType":"string"},{"name":"description","type":"string","internalType":"string"},{"name":"metadataURI","type":"string","internalType":"string"},{"name":"active","type":"bool","internalType":"bool"},{"name":"createdAt","type":"uint256","internalType":"uint256"},{"name":"governor","type":"address","internalType":"address"},{"name":"timelock","type":"address","internalType":"address"},{"name":"requestHub","type":"address","internalType":"address"},{"name":"draftsManager","type":"address","internalType":"address"},{"name":"engagementsManager","type":"address","internalType":"address"},{"name":"valuableActionRegistry","type":"address","internalType":"address"},{"name":"verifierPowerToken","type":"address","internalType":"address"},{"name":"verifierElection","type":"address","internalType":"address"},{"name":"verifierManager","type":"address","internalType":"address"},{"name":"valuableActionSBT","type":"address","internalType":"address"},{"name":"treasuryVault","type":"address","internalType":"address"},{"name":"treasuryAdapter","type":"address","internalType":"address"},{"name":"communityToken","type":"address","internalType":"address"},{"name":"paramController","type":"address","internalType":"address"},{"name":"parentCommunityId","type":"uint256","internalType":"uint256"}],"stateMutability":"view"},{"type":"function","name":"communityAdmins","inputs":[{"name":"","type":"uint256","internalType":"uint256"},{"name":"","type":"address","internalType":"address"}],"outputs":[{"name":"","type":"bool","internalType":"bool"}],"stateMutability":"view"},{"type":"function","name":"communityRoles","inputs":[{"name":"","type":"uint256","internalType":"uint256"},{"name":"","type":"address","internalType":"address"},{"name":"","type":"bytes32","internalType":"bytes32"}],"outputs":[{"name":"","type":"bool","internalType":"bool"}],"stateMutability":"view"},{"type":"function","name":"curators","inputs":[{"name":"","type":"uint256","internalType":"uint256"},{"name":"","type":"address","internalType":"address"}],"outputs":[{"name":"","type":"bool","internalType":"bool"}],"stateMutability":"view"},{"type":"function","name":"formAlliance","inputs":[{"name":"communityId1","type":"uint256","internalType":"uint256"},{"name":"communityId2","type":"uint256","internalType":"uint256"}],"outputs":[],"stateMutability":"nonpayable"},{"type":"function","name":"getActiveCommunities","inputs":[],"outputs":[{"name":"","type":"uint256[]","internalType":"uint256[]"}],"stateMutability":"view"},{"type":"function","name":"getCommunity","inputs":[{"name":"communityId","type":"uint256","internalType":"uint256"}],"outputs":[{"name":"","type":"tuple","internalType":"struct CommunityRegistry.Community","components":[{"name":"name","type":"string","internalType":"string"},{"name":"description","type":"string","internalType":"string"},{"name":"metadataURI","type":"string","internalType":"string"},{"name":"active","type":"bool","internalType":"bool"},{"name":"createdAt","type":"uint256","internalType":"uint256"},{"name":"governor","type":"address","internalType":"address"},{"name":"timelock","type":"address","internalType":"address"},{"name":"requestHub","type":"address","internalType":"address"},{"name":"draftsManager","type":"address","internalType":"address"},{"name":"engagementsManager","type":"address","internalType":"address"},{"name":"valuableActionRegistry","type":"address","internalType":"address"},{"name":"verifierPowerToken","type":"address","internalType":"address"},{"name":"verifierElection","type":"address","internalType":"address"},{"name":"verifierManager","type":"address","internalType":"address"},{"name":"valuableActionSBT","type":"address","internalType":"address"},{"name":"treasuryVault","type":"address","internalType":"address"},{"name":"treasuryAdapter","type":"address","internalType":"address"},{"name":"communityToken","type":"address","internalType":"address"},{"name":"paramController","type":"address","internalType":"address"},{"name":"parentCommunityId","type":"uint256","internalType":"uint256"},{"name":"allyCommunityIds","type":"uint256[]","internalType":"uint256[]"}]}],"stateMutability":"view"},{"type":"function","name":"getCommunityModules","inputs":[{"name":"communityId","type":"uint256","internalType":"uint256"}],"outputs":[{"name":"","type":"tuple","internalType":"struct CommunityRegistry.ModuleAddresses","components":[{"name":"governor","type":"address","internalType":"address"},{"name":"timelock","type":"address","internalType":"address"},{"name":"requestHub","type":"address","internalType":"address"},{"name":"draftsManager","type":"address","internalType":"address"},{"name":"engagementsManager","type":"address","internalType":"address"},{"name":"valuableActionRegistry","type":"address","internalType":"address"},{"name":"verifierPowerToken","type":"address","internalType":"address"},{"name":"verifierElection","type":"address","internalType":"address"},{"name":"verifierManager","type":"address","internalType":"address"},{"name":"valuableActionSBT","type":"address","internalType":"address"},{"name":"treasuryVault","type":"address","internalType":"address"},{"name":"treasuryAdapter","type":"address","internalType":"address"},{"name":"communityToken","type":"address","internalType":"address"},{"name":"paramController","type":"address","internalType":"address"}]}],"stateMutability":"view"},{"type":"function","name":"getCommunityRelationships","inputs":[{"name":"communityId","type":"uint256","internalType":"uint256"}],"outputs":[{"name":"parentCommunityId","type":"uint256","internalType":"uint256"},{"name":"allyCommunityIds","type":"uint256[]","internalType":"uint256[]"}],"stateMutability":"view"},{"type":"function","name":"getEconomicParameters","inputs":[{"name":"communityId","type":"uint256","internalType":"uint256"}],"outputs":[{"name":"minTreasuryBps","type":"uint256","internalType":"uint256"},{"name":"minPositionsBps","type":"uint256","internalType":"uint256"},{"name":"spilloverTarget","type":"uint8","internalType":"uint8"},{"name":"spilloverSplitBpsToTreasury","type":"uint256","internalType":"uint256"},{"name":"feeOnWithdraw","type":"uint256","internalType":"uint256"},{"name":"backingAssets","type":"address[]","internalType":"address[]"}],"stateMutability":"view"},{"type":"function","name":"getEligibilityRules","inputs":[{"name":"communityId","type":"uint256","internalType":"uint256"}],"outputs":[{"name":"minSeniority","type":"uint256","internalType":"uint256"},{"name":"minSBTs","type":"uint256","internalType":"uint256"},{"name":"proposalThreshold","type":"uint256","internalType":"uint256"}],"stateMutability":"view"},{"type":"function","name":"getGovernanceParameters","inputs":[{"name":"communityId","type":"uint256","internalType":"uint256"}],"outputs":[{"name":"debateWindow","type":"uint256","internalType":"uint256"},{"name":"voteWindow","type":"uint256","internalType":"uint256"},{"name":"executionDelay","type":"uint256","internalType":"uint256"}],"stateMutability":"view"},{"type":"function","name":"getTimelock","inputs":[{"name":"communityId","type":"uint256","internalType":"uint256"}],"outputs":[{"name":"","type":"address","internalType":"address"}],"stateMutability":"view"},{"type":"function","name":"grantCommunityRole","inputs":[{"name":"communityId","type":"uint256","internalType":"uint256"},{"name":"user","type":"address","internalType":"address"},{"name":"role","type":"bytes32","internalType":"bytes32"}],"outputs":[],"stateMutability":"nonpayable"},{"type":"function","name":"hasRole","inputs":[{"name":"communityId","type":"uint256","internalType":"uint256"},{"name":"user","type":"address","internalType":"address"},{"name":"role","type":"bytes32","internalType":"bytes32"}],"outputs":[{"name":"","type":"bool","internalType":"bool"}],"stateMutability":"view"},{"type":"function","name":"initializeDefaultParameters","inputs":[{"name":"communityId","type":"uint256","internalType":"uint256"}],"outputs":[],"stateMutability":"nonpayable"},{"type":"function","name":"moderators","inputs":[{"name":"","type":"uint256","internalType":"uint256"},{"name":"","type":"address","internalType":"address"}],"outputs":[{"name":"","type":"bool","internalType":"bool"}],"stateMutability":"view"},{"type":"function","name":"nextCommunityId","inputs":[],"outputs":[{"name":"","type":"uint256","internalType":"uint256"}],"stateMutability":"view"},{"type":"function","name":"paramController","inputs":[],"outputs":[{"name":"","type":"address","internalType":"contract ParamController"}],"stateMutability":"view"},{"type":"function","name":"registerCommunity","inputs":[{"name":"name","type":"string","internalType":"string"},{"name":"description","type":"string","internalType":"string"},{"name":"metadataURI","type":"string","internalType":"string"},{"name":"parentCommunityId","type":"uint256","internalType":"uint256"}],"outputs":[{"name":"communityId","type":"uint256","internalType":"uint256"}],"stateMutability":"nonpayable"},{"type":"function","name":"revokeCommunityRole","inputs":[{"name":"communityId","type":"uint256","internalType":"uint256"},{"name":"user","type":"address","internalType":"address"},{"name":"role","type":"bytes32","internalType":"bytes32"}],"outputs":[],"stateMutability":"nonpayable"},{"type":"function","name":"setCommunityStatus","inputs":[{"name":"communityId","type":"uint256","internalType":"uint256"},{"name":"active","type":"bool","internalType":"bool"}],"outputs":[],"stateMutability":"nonpayable"},{"type":"function","name":"setModuleAddress","inputs":[{"name":"communityId","type":"uint256","internalType":"uint256"},{"name":"moduleKey","type":"bytes32","internalType":"bytes32"},{"name":"moduleAddress","type":"address","internalType":"address"}],"outputs":[],"stateMutability":"nonpayable"},{"type":"function","name":"setModuleAddresses","inputs":[{"name":"communityId","type":"uint256","internalType":"uint256"},{"name":"modules","type":"tuple","internalType":"struct CommunityRegistry.ModuleAddresses","components":[{"name":"governor","type":"address","internalType":"address"},{"name":"timelock","type":"address","internalType":"address"},{"name":"requestHub","type":"address","internalType":"address"},{"name":"draftsManager","type":"address","internalType":"address"},{"name":"engagementsManager","type":"address","internalType":"address"},{"name":"valuableActionRegistry","type":"address","internalType":"address"},{"name":"verifierPowerToken","type":"address","internalType":"address"},{"name":"verifierElection","type":"address","internalType":"address"},{"name":"verifierManager","type":"address","internalType":"address"},{"name":"valuableActionSBT","type":"address","internalType":"address"},{"name":"treasuryVault","type":"address","internalType":"address"},{"name":"treasuryAdapter","type":"address","internalType":"address"},{"name":"communityToken","type":"address","internalType":"address"},{"name":"paramController","type":"address","internalType":"address"}]}],"outputs":[],"stateMutability":"nonpayable"},{"type":"event","name":"CommunityAllianceFormed","inputs":[{"name":"communityId1","type":"uint256","indexed":true,"internalType":"uint256"},{"name":"communityId2","type":"uint256","indexed":true,"internalType":"uint256"}],"anonymous":false},{"type":"event","name":"CommunityRegistered","inputs":[{"name":"communityId","type":"uint256","indexed":true,"internalType":"uint256"},{"name":"name","type":"string","indexed":false,"internalType":"string"},{"name":"creator","type":"address","indexed":true,"internalType":"address"},{"name":"parentCommunityId","type":"uint256","indexed":false,"internalType":"uint256"}],"anonymous":false},{"type":"event","name":"CommunityRoleGranted","inputs":[{"name":"communityId","type":"uint256","indexed":true,"internalType":"uint256"},{"name":"user","type":"address","indexed":true,"internalType":"address"},{"name":"role","type":"bytes32","indexed":true,"internalType":"bytes32"}],"anonymous":false},{"type":"event","name":"CommunityRoleRevoked","inputs":[{"name":"communityId","type":"uint256","indexed":true,"internalType":"uint256"},{"name":"user","type":"address","indexed":true,"internalType":"address"},{"name":"role","type":"bytes32","indexed":true,"internalType":"bytes32"}],"anonymous":false},{"type":"event","name":"CommunityStatusChanged","inputs":[{"name":"communityId","type":"uint256","indexed":true,"internalType":"uint256"},{"name":"active","type":"bool","indexed":false,"internalType":"bool"}],"anonymous":false},{"type":"event","name":"ModuleAddressUpdated","inputs":[{"name":"communityId","type":"uint256","indexed":true,"internalType":"uint256"},{"name":"moduleKey","type":"bytes32","indexed":true,"internalType":"bytes32"},{"name":"oldAddress","type":"address","indexed":false,"internalType":"address"},{"name":"newAddress","type":"address","indexed":false,"internalType":"address"}],"anonymous":false},{"type":"error","name":"InvalidInput","inputs":[{"name":"reason","type":"string","internalType":"string"}]},{"type":"error","name":"NotAuthorized","inputs":[{"name":"caller","type":"address","internalType":"address"}]},{"type":"error","name":"ZeroAddress","inputs":[]}],"bytecode":{"object":"0x60a034620000ac57601f620030a038819003918201601f19168301916001600160401b03831184841017620000b057808492602094604052833981010312620000ac57516001600160a01b03811690819003620000ac57600160055580156200009a57608052604051612fdb9081620000c58239608051818181610bfc0152818161135e01528181611638015281816116f901526128810152f35b60405163d92e233d60e01b8152600490fd5b5f80fd5b634e487b7160e01b5f52604160045260245ffdfe610160806040526004361015610013575f80fd5b5f905f3560e01c90816306055b84146129b85750806310b184381461297a5780631ca5b5711461292a57806321be27b8146128505780632530ebb31461232657806333624966146121b65780633688da791461216b578063370603f814611d7c5780633b47246014611d3157806345dc230814611c5d57806349dc706b14611b975780634a2cfb5414611b5c5780634d609b0114611b115780634fbcf13114611abb57806350c76b46146116cd578063555973c41461168a578063560d4015146115de578063628005b514611450578063797669c914611415578063826410c4146113f75780638594e56c14611304578063968fdaf014610c4d5780639f9e887114610c20578063d0d1854d14610bdc578063e590b56a146109bd578063f1b150bd1461044e578063f36c8f5c146104135763f830e34814610153575f80fd5b34610410576020366003190112610410578060405161017181612ad8565b8181528160208201528160408201528160608201528160808201528160a08201528160c08201528160e082015281610100820152816101208201528161014082015281610160820152816101808201526101a001526004356101d290612ed5565b6004358152806020526040902060058101546001600160a01b0316816006829301546001600160a01b03169060078101546001600160a01b031660088201546001600160a01b031660098301546001600160a01b0316600a8401546001600160a01b0316600b8501546001600160a01b0316600c8601546001600160a01b031690600d8701546001600160a01b031692600e8801546001600160a01b031694600f8901546001600160a01b03169660108a01546001600160a01b03169860118b01546001600160a01b03169a601201546001600160a01b03169b604051809e6102ba82612ad8565b81526020015260408d015260608c015260808b015260a08a015260c089015260e08801526101008701526101208601526101408501526101608401526101808301526101a082015260405191825260208101516001600160a01b0316602083015260408101516001600160a01b0316604083015260608101516001600160a01b0316606083015260808101516001600160a01b0316608083015260a08101516001600160a01b031660a083015260c08101516001600160a01b031660c083015260e08101516001600160a01b031660e08301526101008101516001600160a01b03166101008301526101208101516001600160a01b03166101208301526101408101516001600160a01b03166101408301526101608101516001600160a01b03166101608301526101808101516001600160a01b03166101808301526101a001516001600160a01b03166101a08201526101c090f35b80fd5b503461041057806003193601126104105760206040517f71840dc4906352362b0cdaf79870196c8e42acafade72d5d5a6d59291253ceb18152f35b50346104105760803660031901126104105760043567ffffffffffffffff81116109b557610480903690600401612bb9565b60249291923567ffffffffffffffff81116109b9576104a3903690600401612bb9565b9260443567ffffffffffffffff81116109b5576104c4903690600401612bb9565b849391931561097057606435610913575b600554956104e287612c8d565b60055586845283602052604084209267ffffffffffffffff871161084e5761050a8454612a83565b601f81116108d2575b508685601f821160011461086d578691610862575b508760011b905f198960031b1c19161784555b67ffffffffffffffff821161084e5781906105596001860154612a83565b601f81116107fe575b508590601f8311600114610793578692610788575b50508160011b915f199060031b1c19161760018301555b67ffffffffffffffff8111610774576105aa6002830154612a83565b601f811161072c575b509160209691869382601f821160011461069c5781907f4efcb338ffccf7b085281c4db55554049eb8f23f9d2b09327c3756f0cf2a213f96978592610691575b50508160011b915f199060031b1c19161760028201555b600381019060ff199160018382541617905542600482015560136064359101558482526004885260408220335f528852600160405f2091825416179055610652600654612c8d565b600655846040519260408452816040850152606084013760608583010152606435868201526060813395601f80199101168101030190a3604051908152f35b013590505f806105f3565b9560028301845289842096845b601f198416811061071257509682917f4efcb338ffccf7b085281c4db55554049eb8f23f9d2b09327c3756f0cf2a213f9798600194601f198116106106f9575b505050811b01600282015561060a565b01355f19600384901b60f8161c191690555f80806106e9565b8183013589556001909801978a9750908b01908b016106a9565b60028301845260208420601f830160051c8101916020841061076a575b601f0160051c01905b81811061075f57506105b3565b5f8155600101610752565b9091508190610749565b602483634e487b7160e01b81526041600452fd5b013590505f80610577565b60018601875260208720879450915b601f19841685106107e6576001945083601f198116106107cd575b505050811b01600183015561058e565b01355f19600384901b60f8161c191690555f80806107bd565b818101358355602094850194600190930192016107a2565b90915060018501865260208620601f840160051c810160208510610847575b90849392915b601f830160051c82018110610839575050610562565b5f8155859450600101610823565b508061081d565b602485634e487b7160e01b81526041600452fd5b90508901355f610528565b858752602087209150865b8b601f198b1682106108ba57505088601f198116106108a1575b5050600187811b01845561053b565b8a01355f1960038a901b60f8161c191690555f80610892565b60018394602093948493013581550193019101610878565b84865260208620601f890160051c810160208a1061090c575b601f830160051c82018110610901575050610513565b5f81556001016108eb565b50806108eb565b60643583528260205260ff6003604085200154166104d557606460405163d647364f60e01b815260206004820152601b60248201527f506172656e7420636f6d6d756e697479206e6f742061637469766500000000006044820152fd5b606460405163d647364f60e01b815260206004820152601e60248201527f436f6d6d756e697479206e616d652063616e6e6f7420626520656d70747900006044820152fd5b5080fd5b8280fd5b503461041057602036600319011261041057600435815280602052604090206109e581612b17565b906109f260018201612b17565b61012052610a0260028201612b17565b61014052600381015460ff166101005260048101549160058201546001600160a01b031660068301546001600160a01b031660078401546001600160a01b031660088501546001600160a01b031660098601546001600160a01b0316600a8701546001600160a01b031690600b8801546001600160a01b031692600c8901546001600160a01b031694600d8a01546001600160a01b031696600e8b01546001600160a01b031698600f8c01546001600160a01b03169a60108d01546001600160a01b03169c60118101546001600160a01b031660805260128101546001600160a01b031660a0526013015460e05260405160c0526102808060c0515260c05101610b0b91612a12565b60c051810360c051602001526101205190610b2591612a12565b60c051810360c051604001526101405190610b3f91612a12565b9c61010051151560c0516060015260c0516080015260c05160a0015260c05160c0015260c05160e0015260c051610100015260c051610120015260c051610140015260c051610160015260c051610180015260c0516101a0015260c0516101c0015260c0516101e0015260c051610200015260805160c051610220015260a05160c051610240015260e05160c051610260015260c051900360c051f35b503461041057806003193601126104105760206040516001600160a01b037f0000000000000000000000000000000000000000000000000000000000000000168152f35b50346104105760403660031901126104105760243580151581036109b557610c4a90600435612e14565b80f35b5034610410576101e0366003190112610410576004356101c03660231901126109b557610c7981612ed5565b610c8281612f38565b8082528160205260408220906001600160a01b039182610ca0612cd9565b166112a3575b82610caf612cef565b16611242575b82610cbe612d05565b166111e1575b82610ccd612d1b565b16611180575b82610cdc612d31565b1661111f575b82610ceb612d47565b166110be575b82610cfa612d5d565b1661105d575b82610d09612d73565b16610ffc575b82610d18612d8a565b16610f9b575b82610d27612da1565b16610f3a575b82610d36612db8565b16610ed9575b82610d45612dcf565b16610e78575b82610d54612de6565b16610df3575b82610d63612dfd565b16610d6c578380f35b60126001600160a01b03199101927f8261c36d170ec64b60c2f015482418cba997cb5d3787c13f43e3e29e3713a3aa8454935f80516020612f86833981519152610ddb610db7612dfd565b604080516001600160a01b038a891681168252909216602083015290918291820190565b0390a3610de6612dfd565b1691161790555f80808380f35b6011810180547f98e8485c9f8d32054528913734a0b61a027120b5b579681fd3be4ad009f54d88845f80516020612f86833981519152610e58610e34612de6565b604080516001600160a01b03888d1681168252909216602083015290918291820190565b0390a36001600160a01b031985610e6d612de6565b169116179055610d5a565b6010810180547f5a200776fcd7bd781b66706fec6e1b18f0621e153b73c7363545fca20f04a1d2845f80516020612f86833981519152610eb9610e34612dcf565b0390a36001600160a01b031985610ece612dcf565b169116179055610d4b565b600f810180547fe43d20cf7f6a2ff14d5f0335d5c7789349ccc63ae1114e12b0bd87c3f1e951a1845f80516020612f86833981519152610f1a610e34612db8565b0390a36001600160a01b031985610f2f612db8565b169116179055610d3c565b600e810180547f32afddabd709addf4415072b8d91182991dca79db32c8f955b2de08fde6a6f5b845f80516020612f86833981519152610f7b610e34612da1565b0390a36001600160a01b031985610f90612da1565b169116179055610d2d565b600d810180547f7b5100c5075e8b464921c50f00e473a3bc0c31203deea60edb85769b757f8bf3845f80516020612f86833981519152610fdc610e34612d8a565b0390a36001600160a01b031985610ff1612d8a565b169116179055610d1e565b600c810180547f462e21731791a88fbc3d6e262bf146c4157be7e45705bcc62f1a363fee3c4826845f80516020612f8683398151915261103d610e34612d73565b0390a36001600160a01b031985611052612d73565b169116179055610d0f565b600b810180547fb8cb7564b4fae24959e5c4110e8d9cf91dec7f90b166d06cf5ec514d3c9572bb845f80516020612f8683398151915261109e610e34612d5d565b0390a36001600160a01b0319856110b3612d5d565b169116179055610d00565b600a810180547f666ae48d5d989da88ad33b18d9ad1eb36fb06da47a87e3848edc838a0c833b66845f80516020612f868339815191526110ff610e34612d47565b0390a36001600160a01b031985611114612d47565b169116179055610cf1565b6009810180547fbff2e278cc551512f9de0667dc3c1f1adc56d0fa1cc74c9c4bc2fdb3bf19b4eb845f80516020612f86833981519152611160610e34612d31565b0390a36001600160a01b031985611175612d31565b169116179055610ce2565b6008810180547f4347b7879af66b5dbc633ac7823917506d8e6f9413913e212b835d7d207618e6845f80516020612f868339815191526111c1610e34612d1b565b0390a36001600160a01b0319856111d6612d1b565b169116179055610cd3565b6007810180547f53f851c2f0120d87a66d7c53ece15902d923fb3a96f123db6800bb40afe22dd9845f80516020612f86833981519152611222610e34612d05565b0390a36001600160a01b031985611237612d05565b169116179055610cc4565b6006810180547f268198d81cd5de2a4c427017a36e6262825f97fa3f1ca0d7bccee07cfae2ad58845f80516020612f86833981519152611283610e34612cef565b0390a36001600160a01b031985611298612cef565b169116179055610cb5565b6005810180547f1e46cebd6689d8c64011118478db0c61a89aa2646c860df401de476fbf378983845f80516020612f868339815191526112e4610e34612cd9565b0390a36001600160a01b0319856112f9612cd9565b169116179055610ca6565b50346104105760203660031901126104105760043561132281612ed5565b604051907fa1debd1300000000000000000000000000000000000000000000000000000000825260048201526060816024816001600160a01b037f0000000000000000000000000000000000000000000000000000000000000000165afa80156113ec57829183916113b5575b506113b190604051938493846040919493926060820195825260208201520152565b0390f35b90506113b192506113de915060603d6060116113e5575b6113d68183612af5565b810190612cbe565b909261138f565b503d6113cc565b6040513d84823e3d90fd5b50346104105780600319360112610410576020600654604051908152f35b503461041057806003193601126104105760206040517f71f3d55856e4058ed06ee057d79ada615f65cdf5f9ee88181b914225088f834f8152f35b50346104105761145f366129e8565b919061146a82612ed5565b61147382612f38565b7f71f3d55856e4058ed06ee057d79ada615f65cdf5f9ee88181b914225088f834f8303611518576001600160a01b039082855260016020526040852082821690815f5260205260405f209060ff1991828154169055848752600360205260408720905f5260205260405f20858752602052604086209081541690555b16907f5d889adddd84715508093563ae8da798a941b4accfcda9c79f2bba3a2602dd718480a480f35b7f850d585eb7f024ccee5e68e55f2c26cc72e1e6ee456acf62135757a5eb9d4a108303611598576001600160a01b039082855260026020526040852082821690815f5260205260405f209060ff1991828154169055848752600360205260408720905f5260205260405f20858752602052604086209081541690556114ef565b60405163d647364f60e01b815260206004820152600c60248201527f496e76616c696420726f6c6500000000000000000000000000000000000000006044820152606490fd5b5034610410576020366003190112610410576004356115fc81612ed5565b604051907fa3a2479200000000000000000000000000000000000000000000000000000000825260048201526060816024816001600160a01b037f0000000000000000000000000000000000000000000000000000000000000000165afa80156113ec57829183916113b557506113b190604051938493846040919493926060820195825260208201520152565b50346104105760ff60406020926116a0366129e8565b918352600386526001600160a01b0384842091165f528552825f2090825284522054166040519015158152f35b5034610410576020806003193601126109b557600435906116ed82612ed5565b6001600160a01b0392837f00000000000000000000000000000000000000000000000000000000000000001691604051917fd32d0ade000000000000000000000000000000000000000000000000000000008352846004840152608083602481875afa948515611aae578193829683918491611a3f575b5061ffff91604051937fa93ed1ba00000000000000000000000000000000000000000000000000000000855286856004818c5afa948515611a05578695611a10575b50604051947f6a062954000000000000000000000000000000000000000000000000000000008652816004870152602486015286856044818c5afa948515611a055786956119d6575b50604051907fa5afc4c600000000000000000000000000000000000000000000000000000000825287826004818d5afa9182156119cb57908792918392611994575b506044906040519b8c9384927f0bcb2f93000000000000000000000000000000000000000000000000000000008452600484015260248301525afa9788156119895785986118de575b5060ff9083604098979698519a8160c08d0199168c5216868b0152166040890152166060870152608086015260c060a086015283518092528060e086019401925b8281106118c85785850386f35b83518716855293810193928101926001016118bb565b9097503d8086833e6118f08183612af5565b81019086818303126119815780519067ffffffffffffffff821161198557019080601f8301121561198157815161192681612c75565b926119346040519485612af5565b818452888085019260051b82010192831161197d578801905b8282106119615750505060ff90979061187a565b81518d8116810361197957815290880190880161194d565b8880fd5b8780fd5b8580fd5b8680fd5b6040513d87823e3d90fd5b925090508782813d81116119c4575b6119ad8183612af5565b810103126119c057905186916044611831565b5f80fd5b503d6119a3565b6040513d89823e3d90fd5b9094508681813d83116119fe575b6119ee8183612af5565b810103126119815751935f6117ef565b503d6119e4565b6040513d88823e3d90fd5b9094508681813d8311611a38575b611a288183612af5565b810103126119c05751935f6117a6565b503d611a1e565b9750505092506080853d608011611aa6575b81611a5e60809383612af5565b8101031261041057611a6f85612caf565b92611a7b838701612caf565b9360408701519660ff88168803611aa2576060611a989101612caf565b909496905f611764565b8380fd5b3d9150611a51565b50604051903d90823e3d90fd5b503461041057602036600319011261041057604090600435611adc81612ed5565b81528060205220611af4601460138301549201612be7565b906113b16040519283928352604060208401526040830190612a50565b5034610410576040366003190112610410576001600160a01b036040611b356129d2565b92600435815260016020522091165f52602052602060ff60405f2054166040519015158152f35b503461041057806003193601126104105760206040517f850d585eb7f024ccee5e68e55f2c26cc72e1e6ee456acf62135757a5eb9d4a108152f35b5034610410578060031936011261041057600654611bcd611bb782612c75565b91611bc56040519384612af5565b808352612c75565b60209290601f1901368385013780600193600192600590600554945b858110611c0657604051602080825281906113b19082018a612a50565b808891835282855260ff600360408520015416611c24575b01611be9565b9490508651811015611c4957611c438186868b94871b8b010152612c8d565b94611c1e565b602482634e487b7160e01b81526032600452fd5b503461041057604036600319011261041057602435600435611c7e81612ed5565b611c8782612ed5565b611c9081612f38565b818114611cec5780835282602052611cae8260146040862001612c35565b81835282602052611cc58160146040862001612c35565b7fe4efcf2d01d38d3de90c4288e3533ee47fe8f6dd7ea0253636790b242dc705108380a380f35b606460405163d647364f60e01b815260206004820152601560248201527f43616e6e6f7420616c6c7920776974682073656c6600000000000000000000006044820152fd5b5034610410576040366003190112610410576001600160a01b036040611d556129d2565b92600435815260026020522091165f52602052602060ff60405f2054166040519015158152f35b50346104105760203660031901126104105760406113b19160606102808351611da481612abb565b828152826020820152828582015283838201528360808201528360a08201528360c08201528360e08201528361010082015283610120820152836101408201528361016082015283610180820152836101a0820152836101c0820152836101e0820152836102008201528361022082015283610240820152836102608201520152611e30600435612ed5565b60043581528060205220611fb8601460405192611e4c84612abb565b611e5581612b17565b8452611e6360018201612b17565b6020850152611e7460028201612b17565b604085015260ff60038201541615156060850152600481015460808501526001600160a01b0360058201541660a08501526001600160a01b0360068201541660c08501526001600160a01b0360078201541660e08501526001600160a01b036008820154166101008501526001600160a01b036009820154166101208501526001600160a01b03600a820154166101408501526001600160a01b03600b820154166101608501526001600160a01b03600c820154166101808501526001600160a01b03600d820154166101a08501526001600160a01b03600e820154166101c08501526001600160a01b03600f820154166101e08501526001600160a01b036010820154166102008501526001600160a01b036011820154166102208501526001600160a01b03601282015416610240850152601381015461026085015201612be7565b61028082015260405191829160208352610280612015611fff611fe984516102a060208901526102c0880190612a12565b6020850151878203601f19016040890152612a12565b6040840151868203601f19016060880152612a12565b91606081015115156080860152608081015160a08601526001600160a01b0360a08201511660c08601526001600160a01b0360c08201511660e08601526001600160a01b0360e0820151166101008601526001600160a01b03610100820151166101208601526001600160a01b03610120820151166101408601526001600160a01b03610140820151166101608601526001600160a01b03610160820151166101808601526001600160a01b03610180820151166101a08601526001600160a01b036101a0820151166101c08601526001600160a01b036101c0820151166101e08601526001600160a01b036101e0820151166102008601526001600160a01b03610200820151166102208601526001600160a01b03610220820151166102408601526001600160a01b0361024082015116610260860152610260810151828601520151601f19848303016102a0850152612a50565b5034610410576040366003190112610410576001600160a01b03604061218f6129d2565b92600435815260046020522091165f52602052602060ff60405f2054166040519015158152f35b5034610410576001600160a01b036121cd366129e8565b92906121d883612ed5565b6121e183612f38565b169081156122fc577f71f3d55856e4058ed06ee057d79ada615f65cdf5f9ee88181b914225088f834f830361228457808452600160205260408420825f5260205260405f2060ff1990600182825416179055818552600360205260408520835f5260205260405f20848652602052600160408620918254161790555b7f94765e3c1e0f3b4ba19015a25eec7ec04cb5c6acc83a4ac9cac5cf4412abf8488480a480f35b7f850d585eb7f024ccee5e68e55f2c26cc72e1e6ee456acf62135757a5eb9d4a10830361159857808452600260205260408420825f5260205260405f2060ff1990600182825416179055818552600360205260408520835f5260205260405f208486526020526001604086209182541617905561225d565b60046040517fd92e233d000000000000000000000000000000000000000000000000000000008152fd5b5034610410576060366003190112610410576024356004356001600160a01b03604435818116918282036119c05761235d84612ed5565b61236684612f38565b8386528560205260408620927f1e46cebd6689d8c64011118478db0c61a89aa2646c860df401de476fbf37898386145f146123e15760055f80516020612f868339815191529401906001600160a01b0319825493841693161790555b604080516001600160a01b03928316815292909116602083015290a380f35b7f268198d81cd5de2a4c427017a36e6262825f97fa3f1ca0d7bccee07cfae2ad5886036124335760065f80516020612f868339815191529401906001600160a01b0319825493841693161790556123c2565b7f53f851c2f0120d87a66d7c53ece15902d923fb3a96f123db6800bb40afe22dd986036124855760075f80516020612f868339815191529401906001600160a01b0319825493841693161790556123c2565b7f4347b7879af66b5dbc633ac7823917506d8e6f9413913e212b835d7d207618e686036124d75760085f80516020612f868339815191529401906001600160a01b0319825493841693161790556123c2565b7fbff2e278cc551512f9de0667dc3c1f1adc56d0fa1cc74c9c4bc2fdb3bf19b4eb86036125295760095f80516020612f868339815191529401906001600160a01b0319825493841693161790556123c2565b7f666ae48d5d989da88ad33b18d9ad1eb36fb06da47a87e3848edc838a0c833b66860361257b57600a5f80516020612f868339815191529401906001600160a01b0319825493841693161790556123c2565b7fb8cb7564b4fae24959e5c4110e8d9cf91dec7f90b166d06cf5ec514d3c9572bb86036125cd57600b5f80516020612f868339815191529401906001600160a01b0319825493841693161790556123c2565b7f462e21731791a88fbc3d6e262bf146c4157be7e45705bcc62f1a363fee3c4826860361261f57600c5f80516020612f868339815191529401906001600160a01b0319825493841693161790556123c2565b7f7b5100c5075e8b464921c50f00e473a3bc0c31203deea60edb85769b757f8bf3860361267157600d5f80516020612f868339815191529401906001600160a01b0319825493841693161790556123c2565b7f32afddabd709addf4415072b8d91182991dca79db32c8f955b2de08fde6a6f5b86036126c357600e5f80516020612f868339815191529401906001600160a01b0319825493841693161790556123c2565b7fe43d20cf7f6a2ff14d5f0335d5c7789349ccc63ae1114e12b0bd87c3f1e951a1860361271557600f5f80516020612f868339815191529401906001600160a01b0319825493841693161790556123c2565b7f5a200776fcd7bd781b66706fec6e1b18f0621e153b73c7363545fca20f04a1d286036127675760105f80516020612f868339815191529401906001600160a01b0319825493841693161790556123c2565b7f98e8485c9f8d32054528913734a0b61a027120b5b579681fd3be4ad009f54d8886036127b95760115f80516020612f868339815191529401906001600160a01b0319825493841693161790556123c2565b7f8261c36d170ec64b60c2f015482418cba997cb5d3787c13f43e3e29e3713a3aa860361280b5760125f80516020612f868339815191529401906001600160a01b0319825493841693161790556123c2565b606460405163d647364f60e01b815260206004820152601260248201527f556e6b6e6f776e206d6f64756c65206b657900000000000000000000000000006044820152fd5b50346119c05760203660031901126119c05760043561286e81612ed5565b61287781612f38565b6001600160a01b037f00000000000000000000000000000000000000000000000000000000000000001690813b156119c0575f916044839260405194859384927f612dca9800000000000000000000000000000000000000000000000000000000845260048401523360248401525af1801561291f576128f5575080f35b905067ffffffffffffffff811161290b57604052005b634e487b7160e01b5f52604160045260245ffd5b6040513d5f823e3d90fd5b346119c057612938366129e8565b9161294281612ed5565b5f5260036020526001600160a01b0360405f2091165f5260205260405f20905f52602052602060ff60405f2054166040519015158152f35b346119c05760203660031901126119c05760043561299781612ed5565b5f525f60205260206001600160a01b03600660405f20015416604051908152f35b346119c0575f3660031901126119c0576020906005548152f35b602435906001600160a01b03821682036119c057565b60609060031901126119c057600435906024356001600160a01b03811681036119c0579060443590565b91908251928382525f5b848110612a3c575050825f602080949584010152601f8019910116010190565b602081830181015184830182015201612a1c565b9081518082526020808093019301915f5b828110612a6f575050505090565b835185529381019392810192600101612a61565b90600182811c92168015612ab1575b6020831014612a9d57565b634e487b7160e01b5f52602260045260245ffd5b91607f1691612a92565b6102a0810190811067ffffffffffffffff82111761290b57604052565b6101c0810190811067ffffffffffffffff82111761290b57604052565b90601f8019910116810190811067ffffffffffffffff82111761290b57604052565b9060405191825f8254612b2981612a83565b908184526020946001916001811690815f14612b975750600114612b59575b505050612b5792500383612af5565b565b5f90815285812095935091905b818310612b7f575050612b5793508201015f8080612b48565b85548884018501529485019487945091830191612b66565b92505050612b5794925060ff191682840152151560051b8201015f8080612b48565b9181601f840112156119c05782359167ffffffffffffffff83116119c057602083818601950101116119c057565b90604051918281549182825260209260208301915f5260205f20935f905b828210612c1b57505050612b5792500383612af5565b855484526001958601958895509381019390910190612c05565b8054906801000000000000000082101561290b5760018201808255821015612c61575f5260205f200155565b634e487b7160e01b5f52603260045260245ffd5b67ffffffffffffffff811161290b5760051b60200190565b5f198114612c9b5760010190565b634e487b7160e01b5f52601160045260245ffd5b519061ffff821682036119c057565b908160609103126119c0578051916040602083015192015190565b6024356001600160a01b03811681036119c05790565b6044356001600160a01b03811681036119c05790565b6064356001600160a01b03811681036119c05790565b6084356001600160a01b03811681036119c05790565b60a4356001600160a01b03811681036119c05790565b60c4356001600160a01b03811681036119c05790565b60e4356001600160a01b03811681036119c05790565b610104356001600160a01b03811681036119c05790565b610124356001600160a01b03811681036119c05790565b610144356001600160a01b03811681036119c05790565b610164356001600160a01b03811681036119c05790565b610184356001600160a01b03811681036119c05790565b6101a4356001600160a01b03811681036119c05790565b6101c4356001600160a01b03811681036119c05790565b90612e1e82612ed5565b612e2782612f38565b815f525f602052600360405f200190815491811515928360ff8216151514612ece5760ff191660ff841617905515612e955760207f1b33bf721278476ef24ca6ec530cfd3532aa6a88fe28b73f6bdf0f74e3ee52cc91612e88600654612c8d565b6006555b604051908152a2565b6006548015612c9b575f19016006557f1b33bf721278476ef24ca6ec530cfd3532aa6a88fe28b73f6bdf0f74e3ee52cc90602090612e8c565b5050505050565b8015908115612f2b575b50612ee657565b606460405163d647364f60e01b815260206004820152601860248201527f436f6d6d756e69747920646f6573206e6f7420657869737400000000000000006044820152fd5b905060055411155f612edf565b5f52600460205260405f20335f5260205260ff60405f205416612b575760246040517f4a0bfec1000000000000000000000000000000000000000000000000000000008152336004820152fdfe2f3bea06c6e9b63d5e7c84a6bc5a08817c09192cdc87f2ec5a5fecc2a7dd503ba2646970667358221220a886fac5506ecd0beb0692bede0254b346081e846c40df1cf2f4bfa9c9d1ff5e64736f6c63430008180033","linkReferences":{}},"methodIdentifiers":{"CURATOR_ROLE()":"4a2cfb54","GOVERNANCE_ROLE()":"f36c8f5c","MODERATOR_ROLE()":"797669c9","activeCommunityCount()":"826410c4","communities(uint256)":"e590b56a","communityAdmins(uint256,address)":"3688da79","communityRoles(uint256,address,bytes32)":"555973c4","curators(uint256,address)":"3b472460","formAlliance(uint256,uint256)":"45dc2308","getActiveCommunities()":"49dc706b","getCommunity(uint256)":"370603f8","getCommunityModules(uint256)":"f830e348","getCommunityRelationships(uint256)":"4fbcf131","getEconomicParameters(uint256)":"50c76b46","getEligibilityRules(uint256)":"560d4015","getGovernanceParameters(uint256)":"8594e56c","getTimelock(uint256)":"10b18438","grantCommunityRole(uint256,address,bytes32)":"33624966","hasRole(uint256,address,bytes32)":"1ca5b571","initializeDefaultParameters(uint256)":"21be27b8","moderators(uint256,address)":"4d609b01","nextCommunityId()":"06055b84","paramController()":"d0d1854d","registerCommunity(string,string,string,uint256)":"f1b150bd","revokeCommunityRole(uint256,address,bytes32)":"628005b5","setCommunityStatus(uint256,bool)":"9f9e8871","setModuleAddress(uint256,bytes32,address)":"2530ebb3","setModuleAddresses(uint256,(address,address,address,address,address,address,address,address,address,address,address,address,address,address))":"968fdaf0"},"id":13}