{"abi":[{"type":"function","name":"deployLayer","inputs":[{"name":"communityId","type":"uint256","internalType":"uint256"},{"name":"accessManager","type":"address","internalType":"address"},{"name":"stablecoin","type":"address","internalType":"address"},{"name":"revenueRouter","type":"address","internalType":"address"},{"name":"commerceDisputesCreationCode","type":"bytes","internalType":"bytes"},{"name":"marketplaceCreationCode","type":"bytes","internalType":"bytes"},{"name":"housingManagerCreationCode","type":"bytes","internalType":"bytes"},{"name":"projectFactoryCreationCode","type":"bytes","internalType":"bytes"}],"outputs":[{"name":"deployment","type":"tuple","internalType":"struct CommerceLayerFactory.Deployment","components":[{"name":"commerceDisputes","type":"address","internalType":"address"},{"name":"marketplace","type":"address","internalType":"address"},{"name":"housingManager","type":"address","internalType":"address"},{"name":"projectFactory","type":"address","internalType":"address"}]}],"stateMutability":"nonpayable"},{"type":"function","name":"lastDeploymentByCaller","inputs":[{"name":"","type":"address","internalType":"address"}],"outputs":[{"name":"commerceDisputes","type":"address","internalType":"address"},{"name":"marketplace","type":"address","internalType":"address"},{"name":"housingManager","type":"address","internalType":"address"},{"name":"projectFactory","type":"address","internalType":"address"}],"stateMutability":"view"},{"type":"event","name":"CommerceLayerDeployed","inputs":[{"name":"caller","type":"address","indexed":true,"internalType":"address"},{"name":"communityId","type":"uint256","indexed":true,"internalType":"uint256"},{"name":"commerceDisputes","type":"address","indexed":false,"internalType":"address"},{"name":"marketplace","type":"address","indexed":false,"internalType":"address"},{"name":"housingManager","type":"address","indexed":false,"internalType":"address"},{"name":"projectFactory","type":"address","indexed":false,"internalType":"address"}],"anonymous":false},{"type":"error","name":"InvalidInput","inputs":[{"name":"reason","type":"string","internalType":"string"}]},{"type":"error","name":"ZeroAddress","inputs":[]}],"bytecode":{"object":"0x60808060405234610016576106c3908161001b8239f35b5f80fdfe60808060405260049081361015610014575f80fd5b5f3560e01c90816364996a77146104b6575063b79a9d5614610034575f80fd5b346104b2576101003660031901126104b2576024356001600160a01b03811681036104b2576044356001600160a01b03811681036104b257606435906001600160a01b03821682036104b25760843567ffffffffffffffff81116104b25761009f903690860161053a565b93909260a43567ffffffffffffffff81116104b2576100c1903690880161053a565b909360c43567ffffffffffffffff81116104b2576100e29036908a0161053a565b93909260e43567ffffffffffffffff81116104b2576101049036908c0161053a565b9790986040519a8b67ffffffffffffffff608082818101109201111761049f5760808c016040525f8c525f60208d01525f60408d01525f60608d01528c351561045a576001600160a01b03891615610431576001600160a01b03861615610431576001600160a01b0385161561043157604051916001600160a01b038a1660208401528d3560408401526040835282606081011067ffffffffffffffff60608501111761041e57606083016040526001600160a01b039283926101c692610568565b1693848c5260405194828a16602087015260408601521660608401528a356080840152608083528260a081011067ffffffffffffffff60a08501111761040b5760a083016040526001600160a01b039392849261022292610568565b166020890152816040519516602086015216604084015286356060840152606083526080830183811067ffffffffffffffff8211176103f857916001600160a01b03939161027293604052610568565b1660408401526040519184356020840152602083526040830183811067ffffffffffffffff8211176103e557604052608094926001600160a01b03926102b792610568565b166060830152335f525f60205260405f207f437b1483e128e187a629d3dbb88199195b8bc480bc8618e9a564ca768326f24b6001600160a01b03845116917fffffffffffffffffffffffff00000000000000000000000000000000000000009383858354161782556103ac60018301956001600160a01b03602089015116968782825416179055600360028501946001600160a01b0360408b015116958684825416179055016001600160a01b0360608a015116809282541617905560405193849335973397859294936060929160808501966001600160a01b03809481809416885216602087015216604085015216910152565b0390a36001600160a01b036060604051928281511684528260208201511660208501528260408201511660408501520151166060820152f35b604186634e487b7160e01b5f525260245ffd5b604188634e487b7160e01b5f525260245ffd5b60418b634e487b7160e01b5f525260245ffd5b60418e634e487b7160e01b5f525260245ffd5b8c6040517fd92e233d000000000000000000000000000000000000000000000000000000008152fd5b60648d60206040519163d647364f60e01b8352820152601460248201527f636f6d6d756e69747949642072657175697265640000000000000000000000006044820152fd5b60418d634e487b7160e01b5f525260245ffd5b5f80fd5b82346104b25760203660031901126104b257356001600160a01b03908181168091036104b2578291610536915f525f60205260405f20818154169180600183015416906003816002850154169301541692859294936060929160808501966001600160a01b03809481809416885216602087015216604085015216910152565b0390f35b9181601f840112156104b25782359167ffffffffffffffff83116104b257602083818601950101116104b257565b909160405180916020948086840195863782015f86820152815191865f5b84811061067657505050015f8582015203808252603f601f19910116810181811067ffffffffffffffff8211176106625780604052815115610620575051905ff0906001600160a01b038216156105db575090565b6064906040519063d647364f60e01b82526004820152600d60248201527f637265617465206661696c6564000000000000000000000000000000000000006044820152fd5b808463d647364f60e01b606493526004820152600f60248201527f656d70747920696e697420636f646500000000000000000000000000000000006044820152fd5b634e487b7160e01b5f52604160045260245ffd5b82810182015184820183015286955088910161058656fea264697066735822122066ced11c769b158b98bbfea8166d17ecdf7959b8b8765ac7f68050bc054c544a64736f6c63430008180033","linkReferences":{}},"methodIdentifiers":{"deployLayer(uint256,address,address,address,bytes,bytes,bytes,bytes)":"b79a9d56","lastDeploymentByCaller(address)":"64996a77"},"id":30}