{"abi":[{"type":"constructor","inputs":[{"name":"_governor","type":"address","internalType":"address"}],"stateMutability":"nonpayable"},{"type":"function","name":"cancelProposal","inputs":[{"name":"proposalId","type":"uint256","internalType":"uint256"}],"outputs":[],"stateMutability":"nonpayable"},{"type":"function","name":"castVoteMulti","inputs":[{"name":"proposalId","type":"uint256","internalType":"uint256"},{"name":"voter","type":"address","internalType":"address"},{"name":"weight","type":"uint256","internalType":"uint256"},{"name":"weights","type":"uint256[]","internalType":"uint256[]"},{"name":"reason","type":"string","internalType":"string"}],"outputs":[{"name":"","type":"uint256","internalType":"uint256"}],"stateMutability":"nonpayable"},{"type":"function","name":"enableMulti","inputs":[{"name":"proposalId","type":"uint256","internalType":"uint256"},{"name":"options","type":"uint8","internalType":"uint8"}],"outputs":[],"stateMutability":"nonpayable"},{"type":"function","name":"getAllOptionVotes","inputs":[{"name":"proposalId","type":"uint256","internalType":"uint256"}],"outputs":[{"name":"votes","type":"uint256[]","internalType":"uint256[]"}],"stateMutability":"view"},{"type":"function","name":"getOptionVotes","inputs":[{"name":"proposalId","type":"uint256","internalType":"uint256"},{"name":"optionIndex","type":"uint256","internalType":"uint256"}],"outputs":[{"name":"","type":"uint256","internalType":"uint256"}],"stateMutability":"view"},{"type":"function","name":"getVoterWeights","inputs":[{"name":"proposalId","type":"uint256","internalType":"uint256"},{"name":"voter","type":"address","internalType":"address"}],"outputs":[{"name":"","type":"uint256[]","internalType":"uint256[]"}],"stateMutability":"view"},{"type":"function","name":"getWinningOption","inputs":[{"name":"proposalId","type":"uint256","internalType":"uint256"}],"outputs":[{"name":"winningOption","type":"uint256","internalType":"uint256"},{"name":"winningVotes","type":"uint256","internalType":"uint256"}],"stateMutability":"view"},{"type":"function","name":"governor","inputs":[],"outputs":[{"name":"","type":"address","internalType":"address"}],"stateMutability":"view"},{"type":"function","name":"isMultiEnabled","inputs":[{"name":"proposalId","type":"uint256","internalType":"uint256"}],"outputs":[{"name":"","type":"bool","internalType":"bool"}],"stateMutability":"view"},{"type":"function","name":"numOptionsOf","inputs":[{"name":"proposalId","type":"uint256","internalType":"uint256"}],"outputs":[{"name":"","type":"uint8","internalType":"uint8"}],"stateMutability":"view"},{"type":"function","name":"optionTotals","inputs":[{"name":"proposalId","type":"uint256","internalType":"uint256"}],"outputs":[{"name":"","type":"uint256[]","internalType":"uint256[]"}],"stateMutability":"view"},{"type":"function","name":"previewVoteDistribution","inputs":[{"name":"voterWeight","type":"uint256","internalType":"uint256"},{"name":"weights","type":"uint256[]","internalType":"uint256[]"}],"outputs":[{"name":"actualWeights","type":"uint256[]","internalType":"uint256[]"}],"stateMutability":"pure"},{"type":"function","name":"proposalVotes","inputs":[{"name":"proposalId","type":"uint256","internalType":"uint256"}],"outputs":[{"name":"againstVotes","type":"uint256","internalType":"uint256"},{"name":"forVotes","type":"uint256","internalType":"uint256"},{"name":"abstainVotes","type":"uint256","internalType":"uint256"}],"stateMutability":"view"},{"type":"function","name":"validateVoteDistribution","inputs":[{"name":"weights","type":"uint256[]","internalType":"uint256[]"}],"outputs":[{"name":"valid","type":"bool","internalType":"bool"},{"name":"reason","type":"string","internalType":"string"}],"stateMutability":"pure"},{"type":"event","name":"MultiChoiceEnabled","inputs":[{"name":"proposalId","type":"uint256","indexed":true,"internalType":"uint256"},{"name":"options","type":"uint8","indexed":false,"internalType":"uint8"}],"anonymous":false},{"type":"event","name":"ProposalCanceled","inputs":[{"name":"proposalId","type":"uint256","indexed":true,"internalType":"uint256"}],"anonymous":false},{"type":"event","name":"VoteCastMulti","inputs":[{"name":"proposalId","type":"uint256","indexed":true,"internalType":"uint256"},{"name":"voter","type":"address","indexed":true,"internalType":"address"},{"name":"weights","type":"uint256[]","indexed":false,"internalType":"uint256[]"},{"name":"totalWeight","type":"uint256","indexed":false,"internalType":"uint256"},{"name":"reason","type":"string","indexed":false,"internalType":"string"}],"anonymous":false}],"bytecode":{"object":"0x6080346100cc57601f61115c38819003918201601f19168301916001600160401b038311848410176100d0578084926020946040528339810103126100cc57516001600160a01b038116908190036100cc578015610079575f80546001600160a01b03191691909117905560405161107790816100e58239f35b60405162461bcd60e51b815260206004820152602560248201527f436f756e74696e674d756c746943686f6963653a20696e76616c696420676f7660448201526432b93737b960d91b6064820152608490fd5b5f80fd5b634e487b7160e01b5f52604160045260245ffdfe6080806040526004361015610012575f80fd5b5f3560e01c9081630c340a2414610cff5750806316c500cd14610c945780632091150d146107f25780632c2e8c92146107c3578063544ffc9c1461078257806354710b0f14610752578063732958fa146106c957806378bbd8fa14610635578063a6286870146105b9578063a6d62c3514610525578063d004cb7f146104ab578063e0a8f6f514610417578063e7ea088f146103585763f009f709146100b6575f80fd5b3461035457604036600319011261035457600435602490813560ff8116809103610354576100ef6001600160a01b035f54163314610f99565b600281106102ea57600a811161028057815f526020906002825260ff60405f2054166102185761011e81610e82565b6040519467ffffffffffffffff919060808701838111888210176102055760405260026001976001815286810186815260408201905f825260608301958652895f5283895260405f20925115159060ff61ff008554925160081b1692169061ffff1916171782555160018201550191519081519384116101f3575084906101a58484610e08565b01905f52835f205f5b8381106101e257867fe74ada30335f0c11679040e95ddf795a4ffe5b451d389854523b1cb5adb03a6b8787604051908152a2005b8251828201559185019187016101ae565b634e487b7160e01b5f5260416004525ffd5b50634e487b7160e01b5f5260416004525ffd5b608482856040519162461bcd60e51b83526004830152808201527f436f756e74696e674d756c746943686f6963653a20616c726561647920656e6160448201527f626c6564000000000000000000000000000000000000000000000000000000006064820152fd5b60848360256040519162461bcd60e51b8352602060048401528201527f436f756e74696e674d756c746943686f6963653a20746f6f206d616e79206f7060448201527f74696f6e730000000000000000000000000000000000000000000000000000006064820152fd5b608483602c6040519162461bcd60e51b8352602060048401528201527f436f756e74696e674d756c746943686f6963653a206e656564206174206c656160448201527f73742032206f7074696f6e7300000000000000000000000000000000000000006064820152fd5b5f80fd5b346103545760403660031901126103545760043560243590805f52600260205260ff60405f205460081c168210156103ad575f526001602052600360405f2001905f52602052602060405f2054604051908152f35b608460405162461bcd60e51b815260206004820152602360248201527f436f756e74696e674d756c746943686f6963653a20696e76616c6964206f707460448201527f696f6e00000000000000000000000000000000000000000000000000000000006064820152fd5b34610354576020366003190112610354576004356104406001600160a01b035f54163314610f99565b805f52600260205260405f205f815560026001915f6001820155018054905f81558161048e575b837f789cf55be980739dad1d0699b93b58e806b51c9d96619bfa8fe0a28abaa7b30c5f80a2005b5f5260205f20908101905b81811015610467575f81558201610499565b34610354576020806003193601126103545760043590815f52600260205260ff60405f205460081c16906104de82610e82565b925f5b8381106104fa57604051806104f68782610d21565b0390f35b600190825f52818452600360405f2001815f52845260405f205461051e8288610eb4565b52016104e1565b34610354576020806003193601126103545760043567ffffffffffffffff81116103545761055a610560913690600401610d72565b90610ec8565b9060405192839115158252604060208301528251908160408401525f935b8285106105a0575050606092505f838284010152601f80199101168101030190f35b848101820151868601606001529381019385935061057e565b346103545760208060031936011261035457600435805f52600260205260ff60405f205460081c16915f905f925f5b8581106105ff576040858582519182526020820152f35b815f5260018352600360405f2001815f52835260405f2054848111610628575b506001016105e8565b909450925083600161061f565b346103545760403660031901126103545761064e610d5c565b6004355f52600160209160016020526001600160a01b03600560405f200191165f5260205260405f20916040519182602085549182815201945f5260205f20925f905b8282106106b4576104f6866106a8818a0382610dbf565b60405191829182610d21565b84548752958601959383019390830190610691565b346103545760403660031901126103545760043560243567ffffffffffffffff8111610354576106fd903690600401610d72565b9161070783610e82565b925f5b81811061071f57604051806104f68782610d21565b80670de0b6b3a76400006107406107396001948689610e4d565b3586610de1565b0461074b8288610eb4565b520161070a565b34610354576020366003190112610354576004355f526002602052602060ff60405f205460081c16604051908152f35b34610354576020366003190112610354576004355f526001602052606060405f20805490600260018201549101549060405192835260208301526040820152f35b34610354576020366003190112610354576004355f526002602052602060ff60405f2054166040519015158152f35b346103545760a03660031901126103545761080b610d5c565b60643567ffffffffffffffff81116103545761082b903690600401610d72565b919067ffffffffffffffff60843511610354573660236084350112156103545767ffffffffffffffff60843560040135116103545736602460843560040135608435010111610354576004355f52600260205260405f2091825460ff811615610c2a5760081c60ff168403610bc0576004355f52600160205260405f20926001600160a01b0382165f526004840160205260ff60405f205416610b56576108d2858461100a565b93670de0b6b3a76400008511610aec576001600160a01b0383165f526004810160205260405f20600160ff198254161790556005810160205260405f2067ffffffffffffffff8711610ad8576109288782610e08565b84905f5260205f20905f5b888110610ac4575050505f5b868110610a2b5750506001016109586044358254610e5d565b905560405191606083528460608401527f07ffffffffffffffffffffffffffffffffffffffffffffffffffffffffffffff8511610354576001600160a01b037f748baf300519ad5a9bf95a5fa2ac86104d261425d507ff9a26f610311980c99f9160209660051b809160808701378401926044358786015260808585030160408601526084356004013560808501526084356004013560246084350160a08601375f60a06084356004013586010152169260a08160043594601f19601f60843560040135011601030190a3604051908152f35b610a36818887610e4d565b35610a44575b60010161093f565b670de0b6b3a7640000610a64610a5b838a89610e4d565b35604435610de1565b0490805f526003830160205260405f20610a7f838254610e5d565b90556002840154811015610ab057600191600285015f52610aa78260205f2001918254610e5d565b90559050610a3c565b634e487b7160e01b5f52603260045260245ffd5b600190602083359301928185015501610933565b634e487b7160e01b5f52604160045260245ffd5b608460405162461bcd60e51b815260206004820152602e60248201527f436f756e74696e674d756c746943686f6963653a20746f74616c20776569676860448201527f74732065786365656420313030250000000000000000000000000000000000006064820152fd5b608460405162461bcd60e51b815260206004820152602260248201527f436f756e74696e674d756c746943686f6963653a20616c726561647920766f7460448201527f65640000000000000000000000000000000000000000000000000000000000006064820152fd5b608460405162461bcd60e51b815260206004820152602b60248201527f436f756e74696e674d756c746943686f6963653a20696e76616c69642077656960448201527f67687473206c656e6774680000000000000000000000000000000000000000006064820152fd5b608460405162461bcd60e51b815260206004820152602d60248201527f436f756e74696e674d756c746943686f6963653a206d756c74692d63686f696360448201527f65206e6f7420656e61626c6564000000000000000000000000000000000000006064820152fd5b3461035457602080600319360112610354576004355f526002602052600260405f2001906040519081602084549182815201935f5260205f20915f905b828210610ce8576104f6856106a881890382610dbf565b835486529485019460019384019390910190610cd1565b34610354575f366003190112610354576020906001600160a01b035f54168152f35b60209060206040818301928281528551809452019301915f5b828110610d48575050505090565b835185529381019392810192600101610d3a565b602435906001600160a01b038216820361035457565b9181601f840112156103545782359167ffffffffffffffff8311610354576020808501948460051b01011161035457565b6040810190811067ffffffffffffffff821117610ad857604052565b90601f8019910116810190811067ffffffffffffffff821117610ad857604052565b81810292918115918404141715610df457565b634e487b7160e01b5f52601160045260245ffd5b90680100000000000000008111610ad857815491818155828210610e2b57505050565b5f5260205f2091820191015b818110610e42575050565b5f8155600101610e37565b9190811015610ab05760051b0190565b91908201809211610df457565b67ffffffffffffffff8111610ad85760051b60200190565b90610e8c82610e6a565b610e996040519182610dbf565b8281528092610eaa601f1991610e6a565b0190602036910137565b8051821015610ab05760209160051b010190565b90610ed29161100a565b670de0b6b3a76400008111610f5d5715610f2257600190604051610ef581610da3565b601281527f56616c696420646973747269627574696f6e0000000000000000000000000000602082015290565b5f90604051610f3081610da3565b601981527f4d75737420616c6c6f6361746520736f6d652077656967687400000000000000602082015290565b505f90604051610f6c81610da3565b601281527f546f74616c206578636565647320313030250000000000000000000000000000602082015290565b15610fa057565b608460405162461bcd60e51b815260206004820152602260248201527f436f756e74696e674d756c746943686f6963653a206f6e6c7920676f7665726e60448201527f6f720000000000000000000000000000000000000000000000000000000000006064820152fd5b91905f925f915b80831061101d57505050565b909193611038600191611031878587610e4d565b3590610e5d565b9401919061101156fea2646970667358221220c88c732719272c00dea6af80f05825d7cdbf39d29c2a10934b92848e5ab2f87b64736f6c63430008180033","linkReferences":{}},"methodIdentifiers":{"cancelProposal(uint256)":"e0a8f6f5","castVoteMulti(uint256,address,uint256,uint256[],string)":"2091150d","enableMulti(uint256,uint8)":"f009f709","getAllOptionVotes(uint256)":"d004cb7f","getOptionVotes(uint256,uint256)":"e7ea088f","getVoterWeights(uint256,address)":"78bbd8fa","getWinningOption(uint256)":"a6286870","governor()":"0c340a24","isMultiEnabled(uint256)":"2c2e8c92","numOptionsOf(uint256)":"54710b0f","optionTotals(uint256)":"16c500cd","previewVoteDistribution(uint256,uint256[])":"732958fa","proposalVotes(uint256)":"544ffc9c","validateVoteDistribution(uint256[])":"a6d62c35"},"id":0}