{"abi":[{"type":"constructor","inputs":[{"name":"_communityRegistry","type":"address","internalType":"address"},{"name":"_governor","type":"address","internalType":"address"}],"stateMutability":"nonpayable"},{"type":"function","name":"addContributor","inputs":[{"name":"draftId","type":"uint256","internalType":"uint256"},{"name":"contributor","type":"address","internalType":"address"}],"outputs":[],"stateMutability":"nonpayable"},{"type":"function","name":"authorDrafts","inputs":[{"name":"","type":"address","internalType":"address"},{"name":"","type":"uint256","internalType":"uint256"}],"outputs":[{"name":"","type":"uint256","internalType":"uint256"}],"stateMutability":"view"},{"type":"function","name":"communityDrafts","inputs":[{"name":"","type":"uint256","internalType":"uint256"},{"name":"","type":"uint256","internalType":"uint256"}],"outputs":[{"name":"","type":"uint256","internalType":"uint256"}],"stateMutability":"view"},{"type":"function","name":"communityRegistry","inputs":[],"outputs":[{"name":"","type":"address","internalType":"address"}],"stateMutability":"view"},{"type":"function","name":"contributorDrafts","inputs":[{"name":"","type":"address","internalType":"address"},{"name":"","type":"uint256","internalType":"uint256"}],"outputs":[{"name":"","type":"uint256","internalType":"uint256"}],"stateMutability":"view"},{"type":"function","name":"createDraft","inputs":[{"name":"communityId","type":"uint256","internalType":"uint256"},{"name":"requestId","type":"uint256","internalType":"uint256"},{"name":"actions","type":"tuple","internalType":"struct DraftsManager.ActionBundle","components":[{"name":"targets","type":"address[]","internalType":"address[]"},{"name":"values","type":"uint256[]","internalType":"uint256[]"},{"name":"calldatas","type":"bytes[]","internalType":"bytes[]"},{"name":"actionsHash","type":"bytes32","internalType":"bytes32"}]},{"name":"versionCID","type":"string","internalType":"string"}],"outputs":[{"name":"draftId","type":"uint256","internalType":"uint256"}],"stateMutability":"nonpayable"},{"type":"function","name":"escalateToProposal","inputs":[{"name":"draftId","type":"uint256","internalType":"uint256"},{"name":"multiChoice","type":"bool","internalType":"bool"},{"name":"numOptions","type":"uint8","internalType":"uint8"},{"name":"description","type":"string","internalType":"string"}],"outputs":[{"name":"proposalId","type":"uint256","internalType":"uint256"}],"stateMutability":"nonpayable"},{"type":"function","name":"finalizeForProposal","inputs":[{"name":"draftId","type":"uint256","internalType":"uint256"}],"outputs":[],"stateMutability":"nonpayable"},{"type":"function","name":"getDraft","inputs":[{"name":"draftId","type":"uint256","internalType":"uint256"}],"outputs":[{"name":"communityId","type":"uint256","internalType":"uint256"},{"name":"requestId","type":"uint256","internalType":"uint256"},{"name":"author","type":"address","internalType":"address"},{"name":"contributors","type":"address[]","internalType":"address[]"},{"name":"actions","type":"tuple","internalType":"struct DraftsManager.ActionBundle","components":[{"name":"targets","type":"address[]","internalType":"address[]"},{"name":"values","type":"uint256[]","internalType":"uint256[]"},{"name":"calldatas","type":"bytes[]","internalType":"bytes[]"},{"name":"actionsHash","type":"bytes32","internalType":"bytes32"}]},{"name":"versionCIDs","type":"string[]","internalType":"string[]"},{"name":"status","type":"uint8","internalType":"enum DraftsManager.DraftStatus"},{"name":"createdAt","type":"uint64","internalType":"uint64"},{"name":"reviewStartedAt","type":"uint64","internalType":"uint64"},{"name":"finalizedAt","type":"uint64","internalType":"uint64"},{"name":"proposalId","type":"uint256","internalType":"uint256"}],"stateMutability":"view"},{"type":"function","name":"getDraftsByAuthor","inputs":[{"name":"author","type":"address","internalType":"address"}],"outputs":[{"name":"","type":"uint256[]","internalType":"uint256[]"}],"stateMutability":"view"},{"type":"function","name":"getDraftsByCommunity","inputs":[{"name":"communityId","type":"uint256","internalType":"uint256"}],"outputs":[{"name":"","type":"uint256[]","internalType":"uint256[]"}],"stateMutability":"view"},{"type":"function","name":"getDraftsByContributor","inputs":[{"name":"contributor","type":"address","internalType":"address"}],"outputs":[{"name":"","type":"uint256[]","internalType":"uint256[]"}],"stateMutability":"view"},{"type":"function","name":"getDraftsByRequest","inputs":[{"name":"requestId","type":"uint256","internalType":"uint256"}],"outputs":[{"name":"","type":"uint256[]","internalType":"uint256[]"}],"stateMutability":"view"},{"type":"function","name":"getDraftsCount","inputs":[],"outputs":[{"name":"","type":"uint256","internalType":"uint256"}],"stateMutability":"view"},{"type":"function","name":"getReview","inputs":[{"name":"draftId","type":"uint256","internalType":"uint256"},{"name":"reviewer","type":"address","internalType":"address"}],"outputs":[{"name":"reviewType","type":"uint8","internalType":"enum DraftsManager.ReviewType"},{"name":"reasonCID","type":"string","internalType":"string"},{"name":"timestamp","type":"uint64","internalType":"uint64"},{"name":"isActive","type":"bool","internalType":"bool"}],"stateMutability":"view"},{"type":"function","name":"getReviewSummary","inputs":[{"name":"draftId","type":"uint256","internalType":"uint256"}],"outputs":[{"name":"supportCount","type":"uint256","internalType":"uint256"},{"name":"opposeCount","type":"uint256","internalType":"uint256"},{"name":"neutralCount","type":"uint256","internalType":"uint256"},{"name":"requestChangesCount","type":"uint256","internalType":"uint256"},{"name":"totalReviews","type":"uint256","internalType":"uint256"}],"stateMutability":"view"},{"type":"function","name":"governor","inputs":[],"outputs":[{"name":"","type":"address","internalType":"address"}],"stateMutability":"view"},{"type":"function","name":"isContributor","inputs":[{"name":"draftId","type":"uint256","internalType":"uint256"},{"name":"contributor","type":"address","internalType":"address"}],"outputs":[{"name":"","type":"bool","internalType":"bool"}],"stateMutability":"view"},{"type":"function","name":"minReviewsForEscalation","inputs":[],"outputs":[{"name":"","type":"uint256","internalType":"uint256"}],"stateMutability":"view"},{"type":"function","name":"removeContributor","inputs":[{"name":"draftId","type":"uint256","internalType":"uint256"},{"name":"contributor","type":"address","internalType":"address"}],"outputs":[],"stateMutability":"nonpayable"},{"type":"function","name":"requestDrafts","inputs":[{"name":"","type":"uint256","internalType":"uint256"},{"name":"","type":"uint256","internalType":"uint256"}],"outputs":[{"name":"","type":"uint256","internalType":"uint256"}],"stateMutability":"view"},{"type":"function","name":"retractReview","inputs":[{"name":"draftId","type":"uint256","internalType":"uint256"}],"outputs":[],"stateMutability":"nonpayable"},{"type":"function","name":"reviewPeriod","inputs":[],"outputs":[{"name":"","type":"uint256","internalType":"uint256"}],"stateMutability":"view"},{"type":"function","name":"snapshotVersion","inputs":[{"name":"draftId","type":"uint256","internalType":"uint256"},{"name":"newVersionCID","type":"string","internalType":"string"}],"outputs":[],"stateMutability":"nonpayable"},{"type":"function","name":"submitForReview","inputs":[{"name":"draftId","type":"uint256","internalType":"uint256"}],"outputs":[],"stateMutability":"nonpayable"},{"type":"function","name":"submitReview","inputs":[{"name":"draftId","type":"uint256","internalType":"uint256"},{"name":"reviewType","type":"uint8","internalType":"enum DraftsManager.ReviewType"},{"name":"reasonCID","type":"string","internalType":"string"}],"outputs":[],"stateMutability":"nonpayable"},{"type":"function","name":"supportThresholdBps","inputs":[],"outputs":[{"name":"","type":"uint256","internalType":"uint256"}],"stateMutability":"view"},{"type":"function","name":"updateConfiguration","inputs":[{"name":"newReviewPeriod","type":"uint256","internalType":"uint256"},{"name":"newMinReviews","type":"uint256","internalType":"uint256"},{"name":"newSupportThreshold","type":"uint256","internalType":"uint256"}],"outputs":[],"stateMutability":"nonpayable"},{"type":"function","name":"updateGovernor","inputs":[{"name":"newGovernor","type":"address","internalType":"address"}],"outputs":[],"stateMutability":"nonpayable"},{"type":"function","name":"updateProposalOutcome","inputs":[{"name":"draftId","type":"uint256","internalType":"uint256"},{"name":"outcome","type":"uint8","internalType":"enum DraftsManager.DraftStatus"}],"outputs":[],"stateMutability":"nonpayable"},{"type":"event","name":"ContributorAdded","inputs":[{"name":"draftId","type":"uint256","indexed":true,"internalType":"uint256"},{"name":"contributor","type":"address","indexed":true,"internalType":"address"},{"name":"addedBy","type":"address","indexed":true,"internalType":"address"}],"anonymous":false},{"type":"event","name":"ContributorRemoved","inputs":[{"name":"draftId","type":"uint256","indexed":true,"internalType":"uint256"},{"name":"contributor","type":"address","indexed":true,"internalType":"address"},{"name":"removedBy","type":"address","indexed":true,"internalType":"address"}],"anonymous":false},{"type":"event","name":"DraftCreated","inputs":[{"name":"draftId","type":"uint256","indexed":true,"internalType":"uint256"},{"name":"communityId","type":"uint256","indexed":true,"internalType":"uint256"},{"name":"requestId","type":"uint256","indexed":true,"internalType":"uint256"},{"name":"author","type":"address","indexed":false,"internalType":"address"},{"name":"actionsHash","type":"bytes32","indexed":false,"internalType":"bytes32"},{"name":"versionCID","type":"string","indexed":false,"internalType":"string"}],"anonymous":false},{"type":"event","name":"DraftStatusChanged","inputs":[{"name":"draftId","type":"uint256","indexed":true,"internalType":"uint256"},{"name":"oldStatus","type":"uint8","indexed":false,"internalType":"enum DraftsManager.DraftStatus"},{"name":"newStatus","type":"uint8","indexed":false,"internalType":"enum DraftsManager.DraftStatus"},{"name":"changedBy","type":"address","indexed":true,"internalType":"address"}],"anonymous":false},{"type":"event","name":"ProposalEscalated","inputs":[{"name":"draftId","type":"uint256","indexed":true,"internalType":"uint256"},{"name":"proposalId","type":"uint256","indexed":true,"internalType":"uint256"},{"name":"isMultiChoice","type":"bool","indexed":false,"internalType":"bool"},{"name":"numOptions","type":"uint8","indexed":false,"internalType":"uint8"}],"anonymous":false},{"type":"event","name":"ProposalOutcomeUpdated","inputs":[{"name":"draftId","type":"uint256","indexed":true,"internalType":"uint256"},{"name":"proposalId","type":"uint256","indexed":true,"internalType":"uint256"},{"name":"outcome","type":"uint8","indexed":false,"internalType":"enum DraftsManager.DraftStatus"}],"anonymous":false},{"type":"event","name":"ReviewRetracted","inputs":[{"name":"draftId","type":"uint256","indexed":true,"internalType":"uint256"},{"name":"reviewer","type":"address","indexed":true,"internalType":"address"}],"anonymous":false},{"type":"event","name":"ReviewSubmitted","inputs":[{"name":"draftId","type":"uint256","indexed":true,"internalType":"uint256"},{"name":"reviewer","type":"address","indexed":true,"internalType":"address"},{"name":"reviewType","type":"uint8","indexed":false,"internalType":"enum DraftsManager.ReviewType"},{"name":"reasonCID","type":"string","indexed":false,"internalType":"string"}],"anonymous":false},{"type":"event","name":"VersionSnapshot","inputs":[{"name":"draftId","type":"uint256","indexed":true,"internalType":"uint256"},{"name":"versionNumber","type":"uint256","indexed":false,"internalType":"uint256"},{"name":"versionCID","type":"string","indexed":false,"internalType":"string"},{"name":"contributor","type":"address","indexed":true,"internalType":"address"}],"anonymous":false},{"type":"error","name":"AlreadyReviewed","inputs":[{"name":"reviewer","type":"address","internalType":"address"}]},{"type":"error","name":"ContributorAlreadyExists","inputs":[{"name":"contributor","type":"address","internalType":"address"}]},{"type":"error","name":"ContributorNotFound","inputs":[{"name":"contributor","type":"address","internalType":"address"}]},{"type":"error","name":"DraftNotFound","inputs":[{"name":"draftId","type":"uint256","internalType":"uint256"}]},{"type":"error","name":"InsufficientReviews","inputs":[{"name":"current","type":"uint256","internalType":"uint256"},{"name":"required","type":"uint256","internalType":"uint256"}]},{"type":"error","name":"InsufficientSupport","inputs":[{"name":"supportBps","type":"uint256","internalType":"uint256"},{"name":"requiredBps","type":"uint256","internalType":"uint256"}]},{"type":"error","name":"InvalidInput","inputs":[{"name":"reason","type":"string","internalType":"string"}]},{"type":"error","name":"InvalidStatus","inputs":[{"name":"current","type":"uint8","internalType":"enum DraftsManager.DraftStatus"},{"name":"required","type":"uint8","internalType":"enum DraftsManager.DraftStatus"}]},{"type":"error","name":"NotAuthorized","inputs":[{"name":"user","type":"address","internalType":"address"}]},{"type":"error","name":"ReviewPeriodNotMet","inputs":[{"name":"timeRemaining","type":"uint256","internalType":"uint256"}]},{"type":"error","name":"ZeroAddress","inputs":[]}],"bytecode":{"object":"0x60a034620000cd57601f62002c4238819003918201601f19168301916001600160401b03831184841017620000d1578084926040948552833981010312620000cd576200005a60206200005283620000e5565b9201620000e5565b6203f480600255600380556117706004556001600160a01b0391808316158015620000c2575b620000b0576080521660018060a01b03195f5416175f55604051612b479081620000fb82396080518161118a0152f35b60405163d92e233d60e01b8152600490fd5b508282161562000080565b5f80fd5b634e487b7160e01b5f52604160045260245ffd5b51906001600160a01b0382168203620000cd5756fe6080806040526004361015610012575f80fd5b5f3560e01c9081630c340a24146124d0575080631306454a1461249c5780631854f67a1461245657806318efb58a146123f45780632101ff6514612345578063261f635f14611f715780632ae7773b14611f2b578063305a967814611d275780633b24981014611d0a5780633f3da2c714611cdb57806362f384ad14611c9357806366a5e1ad14611b11578063673ad03f14611af457806371f7fecc14611ad75780637281f82b1461189457806374a5b6931461143757806379d60fee146113fa5780637ccea359146113dd5780638a3b37e2146112655780639d04097a146112235780639eda7d23146111ae578063a200ac861461116b578063a2f79f8e14610e6a578063ad2df7d814610d44578063af3595ba14610b32578063c501651a14610a9b578063c55354f1146108bf578063d9c48e3a1461087d578063da968fc6146108325763f5fc985514610166575f80fd5b3461062557600319608036820112610625576044359067ffffffffffffffff82116106255760809082360301126106255760643567ffffffffffffffff8111610625576101b79036906004016125cd565b919082156107ec576101cc6004830180612aba565b90506101de6024840184600401612aba565b919050148015906107c2575b61077d576101fb6004830180612aba565b9061020c6024850185600401612aba565b61021c6044870187600401612aba565b91604051958060808801606060208a01525260a0870195905f905b80821061075257505050858503601f190160408701528085527f07ffffffffffffffffffffffffffffffffffffffffffffffffffffffffffffff811161062557918593919260051b809260208701378482018481036060860152602081018290529294600582901b840160409081019401925f9187915b8484106106eb575050505050506102ce925003601f1981018352826126b1565b602081519101209260015492600160401b84101561069e57600184016001556102f6846126d3565b509060043582556024356001830155600282013373ffffffffffffffffffffffffffffffffffffffff198254161790556103368160040182600401612aba565b9067ffffffffffffffff821161069e57600160401b821161069e5760048401805483825561036691849190612af0565b90600484015f5260205f20915f905b8282106106c657505050506103906024820182600401612aba565b9067ffffffffffffffff821161069e57600160401b821161069e576005840180548382556103c091849190612af0565b600584015f5260205f205f5b8381106106b257505050508060446103e8920190600401612aba565b600160401b811161069e576006830154816006850155808210610629575b5081600684015f5260205f205f915b8383106104fe5750505050507f8790ca50c31e8b011ca44d51858f6930ec87a1cb1712aa45474b5cf66d0a2a4d8561047e848660088660209b60078c99015560098101805468ffffffffffffffff0042851b169068ffffffffffffffffff191617905501612900565b6004355f52600587526104948360405f20612a7a565b6024356104e3575b335f52600787526104b08360405f20612a7a565b604051903382528782015260606040820152806104d860243596600435966060840191612878565b0390a4604051908152f35b6024355f52600687526104f98360405f20612a7a565b61049c565b8035601e19863603018112156106255767ffffffffffffffff818701351161062557808601353603602082880101136106255761054881870135610542855461270c565b856128bb565b5f90601f81880135116001146105a35760019261058584936020935f91818c0135610594575b508a0135908160011b915f199060031b1c19161790565b85555b01920192019190610415565b8b82010185013591505f61056e565b9086601f19838201351691855f5260205f20925f5b81811061060757509360209383600197949388978489960135116105e6575b5090500135811b018555610588565b8690845f1960f88286013560031b161c1993010101351690555f8a816105d7565b6020938601830184013585556001909401938a9392830192016105b8565b5f80fd5b600684015f5260205f20908282015b8183018110610648575050610406565b806106556001925461270c565b80610662575b5001610638565b601f90818111841461067a5750505f81555b5f61065b565b6106955f9284845260208420920160051c82018583016128a5565b81835555610674565b634e487b7160e01b5f52604160045260245ffd5b6001906020843594019381840155016103cc565b8035916001600160a01b03831683036106255760206001920192818601550190610375565b9193959092949650603f1982840182030187528735601e1985360301811215610625578401906020823592019167ffffffffffffffff8111610625578036038313610625576107406020928392600195612878565b990197019401918896979593916102ae565b9091968735906001600160a01b03821680920361062557602081600193829352019801920190610237565b606460405163d647364f60e01b815260206004820152601760248201527f416374696f6e73206c656e677468206d69736d617463680000000000000000006044820152fd5b506107d06004830180612aba565b90506107e26044840184600401612aba565b91905014156101ea565b60405163d647364f60e01b815260206004820152601b60248201527f56657273696f6e204349442063616e6e6f7420626520656d70747900000000006044820152606490fd5b34610625576020366003190112610625576004355f52600660205261087961086661086d60405f206040519283809261265a565b03826126b1565b604051918291826124f2565b0390f35b34610625576020366003190112610625576001600160a01b0361089e61252d565b165f52600860205261087961086661086d60405f206040519283809261265a565b3461062557602036600319011261062557600435600154811015610a835760ff60096108ea836126d3565b5001541660068110156109f15760018103610a5c5750610909816126d3565b50600b810190335f526010810160205260405f209081546001600160a01b038116158015610a4a575b610a055760a01c60ff169060048210156109f157600293600f92806109a5575061095c8154612aae565b90555b0161096a8154612aae565b905501805468ff00000000000000001916905533907f12e54cb43c69e66621df1300fe1eb277b76f51a76d8fcfe36419d944e22fc1a75f80a3005b9050600181036109c65750600c81016109be8154612aae565b90555b61095f565b8085036109dc5750600d81016109be8154612aae565b6003036109c157600e81016109be8154612aae565b634e487b7160e01b5f52602160045260245ffd5b606460405163d647364f60e01b815260206004820152601b60248201527f4e6f206163746976652072657669657720746f207265747261637400000000006044820152fd5b5060ff600284015460401c1615610932565b604490610a7a6040519163f924664d60e01b8352600483019061264d565b60016024820152fd5b6024906040519063c41d418b60e01b82526004820152fd5b34610625576060366003190112610625576044356127108111610ac8576004803560025560243560035555005b608460405163d647364f60e01b8152602060048201526024808201527f537570706f7274207468726573686f6c642063616e6e6f74206578636565642060448201527f31303025000000000000000000000000000000000000000000000000000000006064820152fd5b3461062557604036600319011261062557600435610b4e612543565b600154821015610d2c57610b61826126d3565b50906001600160a01b0391826002820154163314159081610d12575b50610cfb5760ff6009610b8f856126d3565b5001541660068110156109f15780610cd55750818116918215610cab57610bb5846126d3565b509060028201541683148015610c93575b610c62576003810191825490600160401b82101561069e57610bf3826011956001610c1295018155612559565b9091906001600160a01b038084549260031b9316831b921b1916179055565b825f520160205260405f20600160ff198254161790556008602052610c3a8260405f20612a7a565b33917f1edd8eba933bb6abe13c18ee5bd22bf6d3886540e4a22b288af4c11dbda8196b5f80a4005b602483604051907fc0db7ecd0000000000000000000000000000000000000000000000000000000082526004820152fd5b50825f526011810160205260ff60405f205416610bc6565b60046040517fd92e233d000000000000000000000000000000000000000000000000000000008152fd5b604490610cf36040519163f924664d60e01b8352600483019061264d565b5f6024820152fd5b6024604051634a0bfec160e01b8152336004820152fd5b60119150335f520160205260ff60405f2054161584610b7d565b6024826040519063c41d418b60e01b82526004820152fd5b3461062557604036600319011261062557602435600435600682101561062557600154811015610a835760ff6009610d7b836126d3565b5001541660068110156109f15760038103610e435750600482141580610e38575b610df3577ff8565e1fcefe8730946b9a0b3b21656f89a6775423cd6b879c1b5ab9871bcace6020600a610dce846126d3565b506009810160ff1981541660ff8816179055015493610df0604051809261264d565ba3005b606460405163d647364f60e01b815260206004820152601b60248201527f4f7574636f6d65206d75737420626520574f4e206f72204c4f535400000000006044820152fd5b506005821415610d9c565b604490610e616040519163f924664d60e01b8352600483019061264d565b60036024820152fd5b34610625576020366003190112610625576004355f6060604051610e8d81612695565b8181528160208201528160408201520152600154811015610a8357610eb1906126d3565b508054906001810154906001600160a01b03600282015416600982015493600a83015491610ee160038501612a0b565b60405192610eee84612695565b610efa60048701612a0b565b8452604051610f10816108668160058b0161265a565b6020850152600686018054610f2481612a62565b91610f3260405193846126b1565b81835260208301905f5260205f205f915b8383106111465750505050604085015260078601546060850152600886015492610f6c84612a62565b93610f7a60405195866126b1565b8085526020850160088199015f5260205f205f915b838310611121575050505090610fc2929160405198610160928a5260208a01526040890152806060890152870190612611565b8581036080870152610fdd8351608083526080830190612611565b926020810151938281036020840152602080865192838152019501905f5b81811061110b575050506040810151938281036040840152845180825260208201916020808360051b8301019701925f915b8383106110de57505050505060608091015191015284820360a086015251808252602082019160208260051b82010194925f915b8383106110b1578780888867ffffffffffffffff8d61108660c0860160ff831661264d565b818160081c1660e0860152818160481c1661010086015260881c166101208401526101408301520390f35b90919293956020806110cf600193601f198682030187528a5161258f565b98019301930191939290611061565b90919293976020806110fc600193601f198682030187528c5161258f565b9a01930193019193929061102d565b8251875260209687019690920191600101610ffb565b600160208192604051611138816108668189612744565b815201920192019190610f8f565b60016020819260405161115d816108668189612744565b815201920192019190610f43565b34610625575f3660031901126106255760206040516001600160a01b037f0000000000000000000000000000000000000000000000000000000000000000168152f35b34610625576040366003190112610625576004356111ca612543565b90600154811015610a83576111de906126d3565b506001600160a01b03806002830154169216809214918215611208575b6020836040519015158152f35b601192505f5201602052602060ff60405f20541690826111fb565b34610625576020366003190112610625576001600160a01b0361124461252d565b165f52600760205261087961086661086d60405f206040519283809261265a565b3461062557602036600319011261062557600435600154811015610a835761128c816126d3565b506001600160a01b0360028201541633141590816113c3575b50610cfb5760ff60096112b7836126d3565b5001541660068110156109f15780610cd557506112d3816126d3565b5060088101541561135957600901600181547fffffffffffffffffffffffffffffff0000000000000000ffffffffffffffff0070ffffffffffffffff0000000000000000004260481b16911617179055604051905f8252600160208301527ff7fa3caad94fe12c60166546c7c4bda02955b0fbba7ac35eeb843d49d885e2a360403393a3005b608460405163d647364f60e01b8152602060048201526024808201527f4472616674206d7573742068617665206174206c65617374206f6e652076657260448201527f73696f6e000000000000000000000000000000000000000000000000000000006064820152fd5b60119150335f520160205260ff60405f20541615826112a5565b34610625575f366003190112610625576020600154604051908152f35b3461062557611408366125fb565b905f52600560205260405f2080548210156106255760209161142991612559565b90546040519160031b1c8152f35b3461062557606036600319011261062557600460243510156106255760443567ffffffffffffffff8111610625576114739036906004016125cd565b90600154600435101561187b5760ff600961148f6004356126d3565b5001541660068110156109f15760018103610a5c57506114b06004356126d3565b50916001600160a01b0360028401541633148015611863575b6117f857335f52601083016020526001600160a01b0360405f2054166117c8576040519260a0840184811067ffffffffffffffff82111761069e57604052338452602435602085015267ffffffffffffffff821161069e5760405193611539601f8401601f1916602001866126b1565b828552368385011161062557828460208701375f602084870101526040810194855267ffffffffffffffff4216606082015260016080820152335f526010820160205260405f20946001600160a01b03825116865490602084015160048110156109f15774ff00000000000000000000000000000000000000007fffffffffffffffffffffff0000000000000000000000000000000000000000009160a01b169216171786555194855167ffffffffffffffff811161069e5761160c81611603600185015461270c565b600185016128bb565b6020601f821160011461175657816002939261164292600f98999a5f9261174b575b50508160011b915f199060031b1c19161790565b60018201555b019067ffffffffffffffff60608201511668ff000000000000000060808454930151151560401b169168ffffffffffffffffff191617179055602435155f146116fb57611698600b8201546129fd565b600b8201555b016116a981546129fd565b90557f1d4e9183da763b1e285cbd17de8d69818200b71822bc1d67e368eaadde895f1c6040516116db81602435612582565b60406020820152806116f63395600435956040840191612878565b0390a3005b60243560010361171b57600c810161171381546129fd565b90555b61169e565b60243560020361173357600d810161171381546129fd565b60036024350361171657600e810161171381546129fd565b015190508a8061162e565b600183015f5260205f20975f5b601f19841681106117b0575091600f9697986001926002959483601f19811610611798575b505050811b016001820155611648565b01515f1960f88460031b161c19169055898080611788565b828201518a5560019099019860209283019201611763565b60246040517fcfa761e4000000000000000000000000000000000000000000000000000000008152336004820152fd5b608460405163d647364f60e01b815260206004820152602a60248201527f436f6e7472696275746f72732063616e6e6f742072657669657720746865697260448201527f206f776e206472616674000000000000000000000000000000000000000000006064820152fd5b50335f526011830160205260ff60405f2054166114c9565b602460405163c41d418b60e01b81526004356004820152fd5b3461062557602036600319011261062557600435600154811015610a83576118bb816126d3565b506001600160a01b036002820154163314159081611abd575b50610cfb5760ff60096118e6836126d3565b5001541660068110156109f15760018103610a5c5750611905816126d3565b50600981019081549061192567ffffffffffffffff8360481c1642612898565b600254808210611a83575050600f81015490600354808310611a4c5750600b015461271090818102918183041490151715611a38578115611a2457046004548082106119ed5750506002907fffffffffffffff0000000000000000ffffffffffffffffffffffffffffffff0078ffffffffffffffff00000000000000000000000000000000004260881b169116171790556040519060018252600260208301527ff7fa3caad94fe12c60166546c7c4bda02955b0fbba7ac35eeb843d49d885e2a360403393a3005b60449250604051917fc7effce900000000000000000000000000000000000000000000000000000000835260048301526024820152fd5b634e487b7160e01b5f52601260045260245ffd5b634e487b7160e01b5f52601160045260245ffd5b82604491604051917febd82d0200000000000000000000000000000000000000000000000000000000835260048301526024820152fd5b602491611a8f91612898565b604051907f60b2716e0000000000000000000000000000000000000000000000000000000082526004820152fd5b60119150335f520160205260ff60405f20541615826118d4565b34610625575f366003190112610625576020600354604051908152f35b34610625575f366003190112610625576020600454604051908152f35b34610625576040366003190112610625576024600435813567ffffffffffffffff811161062557611b469036906004016125cd565b92600154831015611c7d57611b5a836126d3565b506001600160a01b036002820154163314159081611c63575b50611c4e5760ff6009611b85856126d3565b500154166006811015611c3b5780611c17575083156107ec576008611ba9846126d3565b5001611bb6858483612900565b545f19810191908211611c055750907f515e8cd3bc65e597ecd44560be0bdf9a836cc9218e3ca0b1d6cfbb2baa0f8fce916116f660405192839283526040602084015233966040840191612878565b634e487b7160e01b5f5260116004525ffd5b5f604492611c366040519363f924664d60e01b8552600485019061264d565b820152fd5b50634e487b7160e01b5f5260216004525ffd5b604051634a0bfec160e01b8152336004820152fd5b60119150335f520160205260ff60405f2054161585611b73565b826040519063c41d418b60e01b82526004820152fd5b34610625576020366003190112610625576001600160a01b03611cb461252d565b168015610cab5773ffffffffffffffffffffffffffffffffffffffff195f5416175f555f80f35b3461062557611ce9366125fb565b905f52600660205260405f2080548210156106255760209161142991612559565b34610625575f366003190112610625576020600254604051908152f35b3461062557604036600319011261062557600435611d43612543565b600190600154831015611f1357611d59836126d3565b50916001600160a01b0392836002820154163314159081611ef9575b50610cfb5760ff6009611d87866126d3565b5001541660068110156109f15780610cd55750611da3846126d3565b5060118460118301941694855f528460205260ff60405f20541615611ec857909291600391908201905f845b611e11575b888888815f5260205260405f2060ff19815416905533917f9faf0bd600a8424364aa473fce68c7a603750bcd52a4dc12dd7a69cc7b160b015f80a4005b825480821015611ec2578883611e278487612559565b905490881b1c1614611e3c5750840184611dcf565b939592945090925f1992838201918211611eb0575090610bf384611e63611e719488612559565b905490891b1c169186612559565b82548015611e9c570192611e858484612559565b81939154921b1b1916905555838080808080611dd4565b634e487b7160e01b5f52603160045260245ffd5b634e487b7160e01b5f5260045260245ffd5b50611dd4565b602486604051907fd3cedf290000000000000000000000000000000000000000000000000000000082526004820152fd5b60119150335f520160205260ff60405f2054161585611d75565b6024836040519063c41d418b60e01b82526004820152fd5b3461062557604036600319011261062557611f4461252d565b6001600160a01b0360243591165f52600760205260405f2080548210156106255760209161142991612559565b34610625576003196080368201126106255760043560249182359283151591828503610625576044359160ff83168093036106255760643567ffffffffffffffff811161062557611fc69036906004016125cd565b60019391935487101561232e57611fdc876126d3565b506001600160a01b0390816002820154163314159081612314575b506122fe5760ff60096120098a6126d3565b5001541660068110156122eb57600281036122ca5750612028886126d3565b5080995f146121e957506002861061217e575f6020946120c96006958c98956120a995855416966120ba6040519b8c9a8b998a987fe947708a000000000000000000000000000000000000000000000000000000008a5260a060048b015261209660a48b01600486016127d5565b90888b830301908b01526005840161265a565b91868984030160448a015201612819565b92858403016064860152612878565b88608483015203925af1908115612173575f91612136575b50604060209593600a95937ff5f3c022abf1448d67e8a9325eb16a6c9274e802b0d204940a1ac39f7f5d15e293809781975b60098101805460ff191660031790550155825191825287820152a3604051908152f35b9492939190506020853d60201161216b575b81612155602093836126b1565b81010312610625579351919390929160406120e1565b3d9150612148565b6040513d5f823e3d90fd5b60848460286040519163d647364f60e01b8352602060048401528201527f4d756c74692d63686f696365207265717569726573206174206c65617374203260448201527f206f7074696f6e730000000000000000000000000000000000000000000000006064820152fd5b94916020946122456006955f936120a995855416966120ba6040519b8c9a8b998a987f7d5e81e2000000000000000000000000000000000000000000000000000000008a52608060048b015261209660848b01600486016127d5565b03925af1908115612173575f9161228d575b50604060209593600a95937ff5f3c022abf1448d67e8a9325eb16a6c9274e802b0d204940a1ac39f7f5d15e29380978197612113565b9492939190506020853d6020116122c2575b816122ac602093836126b1565b8101031261062557935191939092916040612257565b3d915061229f565b604490600286611c366040519363f924664d60e01b8552600485019061264d565b84634e487b7160e01b5f5260216004525ffd5b83604051634a0bfec160e01b8152336004820152fd5b60119150335f520160205260ff60405f205416158a611ff7565b82876040519063c41d418b60e01b82526004820152fd5b3461062557604036600319011261062557600435612361612543565b600154821015610d2c576001600160a01b0361237e6010936126d3565b5091165f52016020526123c360405f2060ff815460a01c169060ff6123d460016123b76002850154946108666040518094819301612744565b60405195868096612582565b60806020860152608085019061258f565b9167ffffffffffffffff8116604085015260401c16151560608301520390f35b3461062557602036600319011261062557600435600154811015610a835761241d60a0916126d3565b50600b81015490600c81015490600d810154600f600e830154920154926040519485526020850152604084015260608301526080820152f35b346106255760403660031901126106255761246f61252d565b6001600160a01b0360243591165f52600860205260405f2080548210156106255760209161142991612559565b34610625576020366003190112610625576004355f52600560205261087961086661086d60405f206040519283809261265a565b34610625575f366003190112610625576020906001600160a01b035f54168152f35b60209060206040818301928281528551809452019301915f5b828110612519575050505090565b83518552938101939281019260010161250b565b600435906001600160a01b038216820361062557565b602435906001600160a01b038216820361062557565b805482101561256e575f5260205f2001905f90565b634e487b7160e01b5f52603260045260245ffd5b9060048210156109f15752565b91908251928382525f5b8481106125b9575050825f602080949584010152601f8019910116010190565b602081830181015184830182015201612599565b9181601f840112156106255782359167ffffffffffffffff8311610625576020838186019501011161062557565b6040906003190112610625576004359060243590565b9081518082526020808093019301915f5b828110612630575050505090565b83516001600160a01b031685529381019392810192600101612622565b9060068210156109f15752565b9081548082526020809201925f5260205f20915f905b82821061267e575050505090565b835485529384019360019384019390910190612670565b6080810190811067ffffffffffffffff82111761069e57604052565b90601f8019910116810190811067ffffffffffffffff82111761069e57604052565b60015481101561256e5760129060015f52027fb10e2d527612073b26eecdfd717e6a320cf44b4afac2b0732d9fcbe2b7fa0cf601905f90565b90600182811c9216801561273a575b602083101461272657565b634e487b7160e01b5f52602260045260245ffd5b91607f169161271b565b80545f93926127528261270c565b918282526020936001916001811690815f146127b65750600114612778575b5050505050565b90939495505f92919252835f2092845f945b8386106127a257505050500101905f80808080612771565b80548587018301529401938590820161278a565b60ff19168685015250505090151560051b010191505f80808080612771565b9081548082526020809201925f5260205f20915f905b8282106127f9575050505090565b83546001600160a01b0316855293840193600193840193909101906127eb565b908082549081815260208091019260208360051b820101945f5260205f20935f915b84831061284b5750505050505090565b9091929394958460016128688193601f198682030187528a612744565b980193019301919493929061283b565b908060209392818452848401375f828201840152601f01601f1916010190565b91908203918211611a3857565b8181106128b0575050565b5f81556001016128a5565b9190601f81116128ca57505050565b6128f4925f5260205f20906020601f840160051c830193106128f6575b601f0160051c01906128a5565b565b90915081906128e7565b92918354600160401b81101561069e5761292290600195600182018155612559565b9290926129ea5767ffffffffffffffff821161069e5761294682610542855461270c565b5f94601f8311600114612985575061297692939482915f9261297a5750508160011b915f199060031b1c19161790565b9055565b013590505f8061162e565b90601f19831695845f5260209260205f20935f915b8983106129d357505050836001959697106129ba575b505050811b019055565b01355f19600384901b60f8161c191690555f80806129b0565b84840135865594850194928101929181019161299a565b634e487b7160e01b5f525f60045260245ffd5b5f198114611a385760010190565b90604051918281549182825260209260208301915f5260205f20935f905b828210612a3f575050506128f4925003836126b1565b85546001600160a01b031684526001958601958895509381019390910190612a29565b67ffffffffffffffff811161069e5760051b60200190565b8054600160401b81101561069e57612a9791600182018155612559565b819291549060031b91821b915f19901b1916179055565b8015611a38575f190190565b903590601e1981360301821215610625570180359067ffffffffffffffff821161062557602001918160051b3603831361062557565b91818110612afd57505050565b6128f4925f5260205f2091820191016128a556fea2646970667358221220f1b03927fac4bcb555a150fb6f79ebee5c09b8740bc2ff5e58755927e915002964736f6c63430008180033","linkReferences":{}},"methodIdentifiers":{"addContributor(uint256,address)":"af3595ba","authorDrafts(address,uint256)":"2ae7773b","communityDrafts(uint256,uint256)":"79d60fee","communityRegistry()":"a200ac86","contributorDrafts(address,uint256)":"1854f67a","createDraft(uint256,uint256,(address[],uint256[],bytes[],bytes32),string)":"f5fc9855","escalateToProposal(uint256,bool,uint8,string)":"261f635f","finalizeForProposal(uint256)":"7281f82b","getDraft(uint256)":"a2f79f8e","getDraftsByAuthor(address)":"9d04097a","getDraftsByCommunity(uint256)":"1306454a","getDraftsByContributor(address)":"d9c48e3a","getDraftsByRequest(uint256)":"da968fc6","getDraftsCount()":"7ccea359","getReview(uint256,address)":"2101ff65","getReviewSummary(uint256)":"18efb58a","governor()":"0c340a24","isContributor(uint256,address)":"9eda7d23","minReviewsForEscalation()":"71f7fecc","removeContributor(uint256,address)":"305a9678","requestDrafts(uint256,uint256)":"3f3da2c7","retractReview(uint256)":"c55354f1","reviewPeriod()":"3b249810","snapshotVersion(uint256,string)":"66a5e1ad","submitForReview(uint256)":"8a3b37e2","submitReview(uint256,uint8,string)":"74a5b693","supportThresholdBps()":"673ad03f","updateConfiguration(uint256,uint256,uint256)":"c501651a","updateGovernor(address)":"62f384ad","updateProposalOutcome(uint256,uint8)":"ad2df7d8"},"id":11}