{"abi":[{"type":"constructor","inputs":[{"name":"_communityRegistry","type":"address","internalType":"address"},{"name":"_governor","type":"address","internalType":"address"},{"name":"manager","type":"address","internalType":"address"},{"name":"_communityId","type":"uint256","internalType":"uint256"}],"stateMutability":"nonpayable"},{"type":"function","name":"addContributor","inputs":[{"name":"draftId","type":"uint256","internalType":"uint256"},{"name":"contributor","type":"address","internalType":"address"}],"outputs":[],"stateMutability":"nonpayable"},{"type":"function","name":"authorDrafts","inputs":[{"name":"","type":"address","internalType":"address"},{"name":"","type":"uint256","internalType":"uint256"}],"outputs":[{"name":"","type":"uint256","internalType":"uint256"}],"stateMutability":"view"},{"type":"function","name":"authority","inputs":[],"outputs":[{"name":"","type":"address","internalType":"address"}],"stateMutability":"view"},{"type":"function","name":"communityId","inputs":[],"outputs":[{"name":"","type":"uint256","internalType":"uint256"}],"stateMutability":"view"},{"type":"function","name":"communityRegistry","inputs":[],"outputs":[{"name":"","type":"address","internalType":"address"}],"stateMutability":"view"},{"type":"function","name":"contributorDrafts","inputs":[{"name":"","type":"address","internalType":"address"},{"name":"","type":"uint256","internalType":"uint256"}],"outputs":[{"name":"","type":"uint256","internalType":"uint256"}],"stateMutability":"view"},{"type":"function","name":"createDraft","inputs":[{"name":"requestId","type":"uint256","internalType":"uint256"},{"name":"actions","type":"tuple","internalType":"struct DraftsManager.ActionBundle","components":[{"name":"targets","type":"address[]","internalType":"address[]"},{"name":"values","type":"uint256[]","internalType":"uint256[]"},{"name":"calldatas","type":"bytes[]","internalType":"bytes[]"},{"name":"actionsHash","type":"bytes32","internalType":"bytes32"}]},{"name":"versionCID","type":"string","internalType":"string"}],"outputs":[{"name":"draftId","type":"uint256","internalType":"uint256"}],"stateMutability":"nonpayable"},{"type":"function","name":"escalateToProposal","inputs":[{"name":"draftId","type":"uint256","internalType":"uint256"},{"name":"multiChoice","type":"bool","internalType":"bool"},{"name":"numOptions","type":"uint8","internalType":"uint8"},{"name":"description","type":"string","internalType":"string"}],"outputs":[{"name":"proposalId","type":"uint256","internalType":"uint256"}],"stateMutability":"nonpayable"},{"type":"function","name":"finalizeForProposal","inputs":[{"name":"draftId","type":"uint256","internalType":"uint256"}],"outputs":[],"stateMutability":"nonpayable"},{"type":"function","name":"getDraft","inputs":[{"name":"draftId","type":"uint256","internalType":"uint256"}],"outputs":[{"name":"draftCommunityId","type":"uint256","internalType":"uint256"},{"name":"requestId","type":"uint256","internalType":"uint256"},{"name":"author","type":"address","internalType":"address"},{"name":"contributors","type":"address[]","internalType":"address[]"},{"name":"actions","type":"tuple","internalType":"struct DraftsManager.ActionBundle","components":[{"name":"targets","type":"address[]","internalType":"address[]"},{"name":"values","type":"uint256[]","internalType":"uint256[]"},{"name":"calldatas","type":"bytes[]","internalType":"bytes[]"},{"name":"actionsHash","type":"bytes32","internalType":"bytes32"}]},{"name":"versionCIDs","type":"string[]","internalType":"string[]"},{"name":"status","type":"uint8","internalType":"enum DraftsManager.DraftStatus"},{"name":"createdAt","type":"uint64","internalType":"uint64"},{"name":"reviewStartedAt","type":"uint64","internalType":"uint64"},{"name":"finalizedAt","type":"uint64","internalType":"uint64"},{"name":"proposalId","type":"uint256","internalType":"uint256"}],"stateMutability":"view"},{"type":"function","name":"getDraftsByAuthor","inputs":[{"name":"author","type":"address","internalType":"address"}],"outputs":[{"name":"","type":"uint256[]","internalType":"uint256[]"}],"stateMutability":"view"},{"type":"function","name":"getDraftsByCommunity","inputs":[{"name":"communityId_","type":"uint256","internalType":"uint256"}],"outputs":[{"name":"","type":"uint256[]","internalType":"uint256[]"}],"stateMutability":"view"},{"type":"function","name":"getDraftsByContributor","inputs":[{"name":"contributor","type":"address","internalType":"address"}],"outputs":[{"name":"","type":"uint256[]","internalType":"uint256[]"}],"stateMutability":"view"},{"type":"function","name":"getDraftsByRequest","inputs":[{"name":"requestId","type":"uint256","internalType":"uint256"}],"outputs":[{"name":"","type":"uint256[]","internalType":"uint256[]"}],"stateMutability":"view"},{"type":"function","name":"getDraftsCount","inputs":[],"outputs":[{"name":"","type":"uint256","internalType":"uint256"}],"stateMutability":"view"},{"type":"function","name":"getReview","inputs":[{"name":"draftId","type":"uint256","internalType":"uint256"},{"name":"reviewer","type":"address","internalType":"address"}],"outputs":[{"name":"reviewType","type":"uint8","internalType":"enum DraftsManager.ReviewType"},{"name":"reasonCID","type":"string","internalType":"string"},{"name":"timestamp","type":"uint64","internalType":"uint64"},{"name":"isActive","type":"bool","internalType":"bool"}],"stateMutability":"view"},{"type":"function","name":"getReviewSummary","inputs":[{"name":"draftId","type":"uint256","internalType":"uint256"}],"outputs":[{"name":"supportCount","type":"uint256","internalType":"uint256"},{"name":"opposeCount","type":"uint256","internalType":"uint256"},{"name":"neutralCount","type":"uint256","internalType":"uint256"},{"name":"requestChangesCount","type":"uint256","internalType":"uint256"},{"name":"totalReviews","type":"uint256","internalType":"uint256"}],"stateMutability":"view"},{"type":"function","name":"governor","inputs":[],"outputs":[{"name":"","type":"address","internalType":"address"}],"stateMutability":"view"},{"type":"function","name":"isConsumingScheduledOp","inputs":[],"outputs":[{"name":"","type":"bytes4","internalType":"bytes4"}],"stateMutability":"view"},{"type":"function","name":"isContributor","inputs":[{"name":"draftId","type":"uint256","internalType":"uint256"},{"name":"contributor","type":"address","internalType":"address"}],"outputs":[{"name":"","type":"bool","internalType":"bool"}],"stateMutability":"view"},{"type":"function","name":"minReviewsForEscalation","inputs":[],"outputs":[{"name":"","type":"uint256","internalType":"uint256"}],"stateMutability":"view"},{"type":"function","name":"removeContributor","inputs":[{"name":"draftId","type":"uint256","internalType":"uint256"},{"name":"contributor","type":"address","internalType":"address"}],"outputs":[],"stateMutability":"nonpayable"},{"type":"function","name":"requestDrafts","inputs":[{"name":"","type":"uint256","internalType":"uint256"},{"name":"","type":"uint256","internalType":"uint256"}],"outputs":[{"name":"","type":"uint256","internalType":"uint256"}],"stateMutability":"view"},{"type":"function","name":"retractReview","inputs":[{"name":"draftId","type":"uint256","internalType":"uint256"}],"outputs":[],"stateMutability":"nonpayable"},{"type":"function","name":"reviewPeriod","inputs":[],"outputs":[{"name":"","type":"uint256","internalType":"uint256"}],"stateMutability":"view"},{"type":"function","name":"setAuthority","inputs":[{"name":"newAuthority","type":"address","internalType":"address"}],"outputs":[],"stateMutability":"nonpayable"},{"type":"function","name":"snapshotVersion","inputs":[{"name":"draftId","type":"uint256","internalType":"uint256"},{"name":"newVersionCID","type":"string","internalType":"string"}],"outputs":[],"stateMutability":"nonpayable"},{"type":"function","name":"submitForReview","inputs":[{"name":"draftId","type":"uint256","internalType":"uint256"}],"outputs":[],"stateMutability":"nonpayable"},{"type":"function","name":"submitReview","inputs":[{"name":"draftId","type":"uint256","internalType":"uint256"},{"name":"reviewType","type":"uint8","internalType":"enum DraftsManager.ReviewType"},{"name":"reasonCID","type":"string","internalType":"string"}],"outputs":[],"stateMutability":"nonpayable"},{"type":"function","name":"supportThresholdBps","inputs":[],"outputs":[{"name":"","type":"uint256","internalType":"uint256"}],"stateMutability":"view"},{"type":"function","name":"updateConfiguration","inputs":[{"name":"newReviewPeriod","type":"uint256","internalType":"uint256"},{"name":"newMinReviews","type":"uint256","internalType":"uint256"},{"name":"newSupportThreshold","type":"uint256","internalType":"uint256"}],"outputs":[],"stateMutability":"nonpayable"},{"type":"function","name":"updateGovernor","inputs":[{"name":"newGovernor","type":"address","internalType":"address"}],"outputs":[],"stateMutability":"nonpayable"},{"type":"function","name":"updateProposalOutcome","inputs":[{"name":"draftId","type":"uint256","internalType":"uint256"},{"name":"outcome","type":"uint8","internalType":"enum DraftsManager.DraftStatus"}],"outputs":[],"stateMutability":"nonpayable"},{"type":"event","name":"AuthorityUpdated","inputs":[{"name":"authority","type":"address","indexed":false,"internalType":"address"}],"anonymous":false},{"type":"event","name":"ConfigurationUpdated","inputs":[{"name":"reviewPeriod","type":"uint256","indexed":false,"internalType":"uint256"},{"name":"minReviewsForEscalation","type":"uint256","indexed":false,"internalType":"uint256"},{"name":"supportThresholdBps","type":"uint256","indexed":false,"internalType":"uint256"}],"anonymous":false},{"type":"event","name":"ContributorAdded","inputs":[{"name":"draftId","type":"uint256","indexed":true,"internalType":"uint256"},{"name":"contributor","type":"address","indexed":true,"internalType":"address"},{"name":"addedBy","type":"address","indexed":true,"internalType":"address"}],"anonymous":false},{"type":"event","name":"ContributorRemoved","inputs":[{"name":"draftId","type":"uint256","indexed":true,"internalType":"uint256"},{"name":"contributor","type":"address","indexed":true,"internalType":"address"},{"name":"removedBy","type":"address","indexed":true,"internalType":"address"}],"anonymous":false},{"type":"event","name":"DraftCreated","inputs":[{"name":"draftId","type":"uint256","indexed":true,"internalType":"uint256"},{"name":"communityId","type":"uint256","indexed":true,"internalType":"uint256"},{"name":"requestId","type":"uint256","indexed":true,"internalType":"uint256"},{"name":"author","type":"address","indexed":false,"internalType":"address"},{"name":"actionsHash","type":"bytes32","indexed":false,"internalType":"bytes32"},{"name":"versionCID","type":"string","indexed":false,"internalType":"string"}],"anonymous":false},{"type":"event","name":"DraftStatusChanged","inputs":[{"name":"draftId","type":"uint256","indexed":true,"internalType":"uint256"},{"name":"oldStatus","type":"uint8","indexed":false,"internalType":"enum DraftsManager.DraftStatus"},{"name":"newStatus","type":"uint8","indexed":false,"internalType":"enum DraftsManager.DraftStatus"},{"name":"changedBy","type":"address","indexed":true,"internalType":"address"}],"anonymous":false},{"type":"event","name":"GovernorUpdated","inputs":[{"name":"oldGovernor","type":"address","indexed":true,"internalType":"address"},{"name":"newGovernor","type":"address","indexed":true,"internalType":"address"}],"anonymous":false},{"type":"event","name":"ProposalEscalated","inputs":[{"name":"draftId","type":"uint256","indexed":true,"internalType":"uint256"},{"name":"proposalId","type":"uint256","indexed":true,"internalType":"uint256"},{"name":"isMultiChoice","type":"bool","indexed":false,"internalType":"bool"},{"name":"numOptions","type":"uint8","indexed":false,"internalType":"uint8"}],"anonymous":false},{"type":"event","name":"ProposalOutcomeUpdated","inputs":[{"name":"draftId","type":"uint256","indexed":true,"internalType":"uint256"},{"name":"proposalId","type":"uint256","indexed":true,"internalType":"uint256"},{"name":"outcome","type":"uint8","indexed":false,"internalType":"enum DraftsManager.DraftStatus"}],"anonymous":false},{"type":"event","name":"ReviewRetracted","inputs":[{"name":"draftId","type":"uint256","indexed":true,"internalType":"uint256"},{"name":"reviewer","type":"address","indexed":true,"internalType":"address"}],"anonymous":false},{"type":"event","name":"ReviewSubmitted","inputs":[{"name":"draftId","type":"uint256","indexed":true,"internalType":"uint256"},{"name":"reviewer","type":"address","indexed":true,"internalType":"address"},{"name":"reviewType","type":"uint8","indexed":false,"internalType":"enum DraftsManager.ReviewType"},{"name":"reasonCID","type":"string","indexed":false,"internalType":"string"}],"anonymous":false},{"type":"event","name":"VersionSnapshot","inputs":[{"name":"draftId","type":"uint256","indexed":true,"internalType":"uint256"},{"name":"versionNumber","type":"uint256","indexed":false,"internalType":"uint256"},{"name":"versionCID","type":"string","indexed":false,"internalType":"string"},{"name":"contributor","type":"address","indexed":true,"internalType":"address"}],"anonymous":false},{"type":"error","name":"AccessManagedInvalidAuthority","inputs":[{"name":"authority","type":"address","internalType":"address"}]},{"type":"error","name":"AccessManagedRequiredDelay","inputs":[{"name":"caller","type":"address","internalType":"address"},{"name":"delay","type":"uint32","internalType":"uint32"}]},{"type":"error","name":"AccessManagedUnauthorized","inputs":[{"name":"caller","type":"address","internalType":"address"}]},{"type":"error","name":"AlreadyReviewed","inputs":[{"name":"reviewer","type":"address","internalType":"address"}]},{"type":"error","name":"ContributorAlreadyExists","inputs":[{"name":"contributor","type":"address","internalType":"address"}]},{"type":"error","name":"ContributorNotFound","inputs":[{"name":"contributor","type":"address","internalType":"address"}]},{"type":"error","name":"DraftNotFound","inputs":[{"name":"draftId","type":"uint256","internalType":"uint256"}]},{"type":"error","name":"InsufficientReviews","inputs":[{"name":"current","type":"uint256","internalType":"uint256"},{"name":"required","type":"uint256","internalType":"uint256"}]},{"type":"error","name":"InsufficientSupport","inputs":[{"name":"supportBps","type":"uint256","internalType":"uint256"},{"name":"requiredBps","type":"uint256","internalType":"uint256"}]},{"type":"error","name":"InvalidInput","inputs":[{"name":"reason","type":"string","internalType":"string"}]},{"type":"error","name":"InvalidStatus","inputs":[{"name":"current","type":"uint8","internalType":"enum DraftsManager.DraftStatus"},{"name":"required","type":"uint8","internalType":"enum DraftsManager.DraftStatus"}]},{"type":"error","name":"NotAuthorized","inputs":[{"name":"user","type":"address","internalType":"address"}]},{"type":"error","name":"ReviewPeriodNotMet","inputs":[{"name":"timeRemaining","type":"uint256","internalType":"uint256"}]},{"type":"error","name":"ZeroAddress","inputs":[]}],"bytecode":{"object":"0x60c034620001b957601f6200384c38819003918201601f191683019291906001600160401b03841183851017620001bd578160809284926040968752833981010312620001b9576200005181620001d1565b6200005f60208301620001d1565b9160606200006f858301620001d1565b9101519260018060a01b038092169260018060a01b03199380855f5416175f557f2f658b440c35314f52658ea8a740e05b284cdc84dc9ae01e891f21b8933e7cad60208851838152a16203f480600355600360045561177060055583821615908115620001ad575b8115620001a3575b50620001925784156200014d576080521690600154161760015560a052516136659081620001e782396080518181816105930152818161159601526131d7015260a05181818161055c0152818161071e0152818161093d01528181610cdf015281816118730152612c0e0152f35b855163d647364f60e01b815260206004820152601360248201527f496e76616c696420636f6d6d756e6974794964000000000000000000000000006044820152606490fd5b855163d92e233d60e01b8152600490fd5b9050155f620000df565b838516159150620000d7565b5f80fd5b634e487b7160e01b5f52604160045260245ffd5b51906001600160a01b0382168203620001b95756fe6080806040526004361015610012575f80fd5b5f3560e01c9081630c340a24146129f5575080631306454a146129d65780631854f67a1461299057806318efb58a1461292e5780632101ff651461287f578063261f635f146124b45780632ae7773b1461246e578063305a9678146122945780633b249810146122775780633f3da2c71461223257806362f384ad146121b657806366a5e1ad14612034578063673ad03f1461201757806371f7fecc14611ffa5780637281f82b14611db757806374a5b6931461197d5780637a9e5e4b146118b35780637ccea359146118965780637f50861a1461185c5780638a3b37e2146116e45780638fb36037146116715780639d04097a1461162f5780639eda7d23146115ba578063a200ac8614611577578063a2f79f8e14611276578063ad2df7d8146111f7578063af3595ba14610fe5578063af61f45b146104f4578063bf7e214f146104cf578063c501651a146103f4578063c55354f114610218578063d9c48e3a146101d65763da968fc614610187575f80fd5b346101d25760203660031901126101d2576004355f5260076020526101ce6101bb6101c260405f2060405192838092612bd1565b0382612b97565b60405191829182612a18565b0390f35b5f80fd5b346101d25760203660031901126101d2576001600160a01b036101f7612a53565b165f5260096020526101ce6101bb6101c260405f2060405192838092612bd1565b346101d25760203660031901126101d2576004356002548110156103dc5760ff600961024383612cc6565b50015416600681101561034a57600181036103b5575061026281612cc6565b50600b810190335f526010810160205260405f209081546001600160a01b0381161580156103a3575b61035e5760a01c60ff1690600482101561034a57600293600f92806102fe57506102b58154613446565b90555b016102c38154613446565b905501805468ff00000000000000001916905533907f12e54cb43c69e66621df1300fe1eb277b76f51a76d8fcfe36419d944e22fc1a75f80a3005b90506001810361031f5750600c81016103178154613446565b90555b6102b8565b8085036103355750600d81016103178154613446565b60030361031a57600e81016103178154613446565b634e487b7160e01b5f52602160045260245ffd5b606460405163d647364f60e01b815260206004820152601b60248201527f4e6f206163746976652072657669657720746f207265747261637400000000006044820152fd5b5060ff600284015460401c161561028b565b6044906103d36040519163f924664d60e01b83526004830190612b51565b60016024820152fd5b6024906040519063c41d418b60e01b82526004820152fd5b346101d25760603660031901126101d2576044356024356004356104183633613452565b6127108311610465577fd1df9ea585fa96cacfd37b45876312d2c04c0f6bf740539becffbec7e81822be9260609282600355806004558160055560405192835260208301526040820152a1005b608460405163d647364f60e01b8152602060048201526024808201527f537570706f7274207468726573686f6c642063616e6e6f74206578636565642060448201527f31303025000000000000000000000000000000000000000000000000000000006064820152fd5b346101d2575f3660031901126101d25760206001600160a01b035f5416604051908152f35b346101d2576003196060368201126101d2576024359067ffffffffffffffff82116101d25760809082360301126101d257604490813567ffffffffffffffff81116101d257610547903690600401612ae7565b8015610f9f57604051631f061c6960e31b81527f000000000000000000000000000000000000000000000000000000000000000060048201526101c09081816024816001600160a01b037f0000000000000000000000000000000000000000000000000000000000000000165afa908115610f22576001600160a01b03916040915f91610f72575b500151168015610f2d57600435610c95575b506105f1905060048401806133ef565b905061060360248501856004016133ef565b91905014801590610c6c575b610c275761062060048401806133ef565b9061063160248601866004016133ef565b610640888801886004016133ef565b91604051958060808801606060208a01525260a0870195905f905b808210610bfc57505050858503601f190160408701528085527f07ffffffffffffffffffffffffffffffffffffffffffffffffffffffffffffff81116101d257918593919260051b809260208701378482018481036060860152602081018290529294600582901b840160409081019401925f9187915b848410610b95575050505050506106f2925003601f198101835282612b97565b602081519101209360025493600160401b8510156109a1576001850160025561071a85612cc6565b50917f000000000000000000000000000000000000000000000000000000000000000083556004356001840155600283013373ffffffffffffffffffffffffffffffffffffffff1982541617905561077882600401836004016133ef565b9067ffffffffffffffff82116109a157600160401b82116109a1576004850180548382556107a891849190613425565b90600485015f5260205f20915f905b828210610b7057505050506107d260248301836004016133ef565b9067ffffffffffffffff82116109a157600160401b82116109a15760058501805483825561080291849190613425565b600585015f5260205f205f5b838110610b5c575050505090610829918101906004016133ef565b600160401b81116109a1576006830154816006850155808210610ae7575b508185918593600686015f5260205f205f915b8383106109b557505050505060088388600761089c96015560098101805468ffffffffffffffff0042851b169068ffffffffffffffffff191617905501612ef3565b60065493600160401b8510156109a157600185018060065585101561098d577f8790ca50c31e8b011ca44d51858f6930ec87a1cb1712aa45474b5cf66d0a2a4d8491826020977ff652222313e28459528d920b65115c16c04f3efc82aaedc97be59f3f377c0d3f0155600435610972575b335f52600887526109218360405f20613364565b60405190338252878201526060604082015280610967600435967f0000000000000000000000000000000000000000000000000000000000000000966060840191612e6b565b0390a4604051908152f35b6004355f52600787526109888360405f20613364565b61090d565b634e487b7160e01b5f52603260045260245ffd5b634e487b7160e01b5f52604160045260245ffd5b919395509193508035601e19863603018112156101d25767ffffffffffffffff81870135116101d257808601353603602082880101136101d257610a0681870135610a008554612cff565b85612eae565b5f90601f8188013511600114610a6557600192610a4384936020935f91818c0135610a56575b508a0135908160011b915f199060031b1c19161790565b85555b019201920186949288949261085a565b8b82010185013591505f610a2c565b9086601f19838201351691855f5260205f20925f5b818110610ac95750936020938360019794938897848996013511610aa8575b5090500135811b018555610a46565b8690845f1960f88286013560031b161c1993010101351690558f8a81610a99565b6020938601830184013585556001909401938a939283019201610a7a565b600684015f5260205f20908282015b8183018110610b06575050610847565b80610b1360019254612cff565b80610b20575b5001610af6565b601f908181118414610b385750505f81555b8b610b19565b610b535f9284845260208420920160051c8201858301612e98565b81835555610b32565b60019060208435940193818401550161080e565b8035916001600160a01b03831683036101d257602060019201928186015501906107b7565b9193959092949650603f1982840182030187528735601e19853603018112156101d2578401906020823592019167ffffffffffffffff81116101d25780360383136101d257610bea6020928392600195612e6b565b990197019401918896979593916106d2565b9091968735906001600160a01b0382168092036101d25760208160019382935201980192019061065b565b6064847f416374696f6e73206c656e677468206d69736d617463680000000000000000006040519163d647364f60e01b83526020600484015260176024840152820152fd5b50610c7a60048401806133ef565b9050610c8b858501856004016133ef565b919050141561060f565b5f602491604051928380927fc58343ef00000000000000000000000000000000000000000000000000000000825260043560048301525afa918215610f22575f92610d51575b50507f0000000000000000000000000000000000000000000000000000000000000000905103610d0c5784806105e1565b6064847f436f6d6d756e697479206d69736d6174636800000000000000000000000000006040519163d647364f60e01b83526020600484015260126024840152820152fd5b9091503d805f843e610d638184612b97565b820160209283818303126101d25780519067ffffffffffffffff82116101d2570191828203126101d25760405192610d9a84612b7a565b82518452610da9818401613071565b81850152604083015167ffffffffffffffff81116101d25782610dcd918501613398565b6040850152606083015167ffffffffffffffff81116101d25782610df2918501613398565b6060850152608083015160038110156101d2576080850152610e1660a084016133da565b60a0850152610e2760c084016133da565b60c085015260e083015167ffffffffffffffff81116101d25783019180601f840112156101d257825192610e5a84612bb9565b93610e686040519586612b97565b808552838086019160051b830101928084116101d257848301915b848310610ef55750505050505060e08301526101008082015190830152610120610eae818301613071565b9083015261014080820151908301526101608082015190830152610180808201519081151582036101d257830152610eea6101a0809201613071565b908201528580610cdb565b825167ffffffffffffffff81116101d2578691610f1784848094890101613398565b815201920191610e83565b6040513d5f823e3d90fd5b6064867f52657175657374487562206e6f742073657400000000000000000000000000006040519163d647364f60e01b83526020600484015260126024840152820152fd5b610f929150843d8611610f98575b610f8a8183612b97565b810190613085565b886105cf565b503d610f80565b60405163d647364f60e01b815260206004820152601b60248201527f56657273696f6e204349442063616e6e6f7420626520656d70747900000000006044820152606490fd5b346101d25760403660031901126101d257600435611001612a69565b6002548210156111df5761101482612cc6565b50906001600160a01b03918260028201541633141590816111c5575b506111ae5760ff600961104285612cc6565b50015416600681101561034a5780611188575081811691821561115e5761106884612cc6565b509060028201541683148015611146575b611115576003810191825490600160401b8210156109a1576110a68260119560016110c595018155612a7f565b9091906001600160a01b038084549260031b9316831b921b1916179055565b825f520160205260405f20600160ff1982541617905560096020526110ed8260405f20613364565b33917f1edd8eba933bb6abe13c18ee5bd22bf6d3886540e4a22b288af4c11dbda8196b5f80a4005b602483604051907fc0db7ecd0000000000000000000000000000000000000000000000000000000082526004820152fd5b50825f526011810160205260ff60405f205416611079565b60046040517fd92e233d000000000000000000000000000000000000000000000000000000008152fd5b6044906111a66040519163f924664d60e01b83526004830190612b51565b5f6024820152fd5b6024604051634a0bfec160e01b8152336004820152fd5b60119150335f520160205260ff60405f2054161584611030565b6024826040519063c41d418b60e01b82526004820152fd5b346101d25760403660031901126101d25760043560243560068110156101d2576002548210156111df5760ff600961122e84612cc6565b5001541691600683101561034a57600383036112505761124e925061318f565b005b60405163f924664d60e01b815260449061126d6004820186612b51565b60036024820152fd5b346101d25760203660031901126101d2576004355f606060405161129981612b5e565b81815281602082015281604082015201526002548110156103dc576112bd90612cc6565b508054906001810154906001600160a01b03600282015416600982015493600a830154916112ed6003850161301a565b604051926112fa84612b5e565b6113066004870161301a565b845260405161131c816101bb8160058b01612bd1565b602085015260068601805461133081612bb9565b9161133e6040519384612b97565b81835260208301905f5260205f205f915b838310611552575050505060408501526007860154606085015260088601549261137884612bb9565b936113866040519586612b97565b8085526020850160088199015f5260205f205f915b83831061152d5750505050906113ce929160405198610160928a5260208a01526040890152806060890152870190612b15565b85810360808701526113e98351608083526080830190612b15565b926020810151938281036020840152602080865192838152019501905f5b818110611517575050506040810151938281036040840152845180825260208201916020808360051b8301019701925f915b8383106114ea57505050505060608091015191015284820360a086015251808252602082019160208260051b82010194925f915b8383106114bd578780888867ffffffffffffffff8d61149260c0860160ff8316612b51565b818160081c1660e0860152818160481c1661010086015260881c166101208401526101408301520390f35b90919293956020806114db600193601f198682030187528a51612ac2565b9801930193019193929061146d565b9091929397602080611508600193601f198682030187528c51612ac2565b9a019301930191939290611439565b8251875260209687019690920191600101611407565b600160208192604051611544816101bb8189612d37565b81520192019201919061139b565b600160208192604051611569816101bb8189612d37565b81520192019201919061134f565b346101d2575f3660031901126101d25760206040516001600160a01b037f0000000000000000000000000000000000000000000000000000000000000000168152f35b346101d25760403660031901126101d2576004356115d6612a69565b906002548110156103dc576115ea90612cc6565b506001600160a01b03806002830154169216809214918215611614575b6020836040519015158152f35b601192505f5201602052602060ff60405f2054169082611607565b346101d25760203660031901126101d2576001600160a01b03611650612a53565b165f5260086020526101ce6101bb6101c260405f2060405192838092612bd1565b346101d2575f3660031901126101d2575f5460a01c60ff16156116dc5760207f8fb36037000000000000000000000000000000000000000000000000000000005b7fffffffff0000000000000000000000000000000000000000000000000000000060405191168152f35b60205f6116b2565b346101d25760203660031901126101d2576004356002548110156103dc5761170b81612cc6565b506001600160a01b036002820154163314159081611842575b506111ae5760ff600961173683612cc6565b50015416600681101561034a5780611188575061175281612cc6565b506008810154156117d857600901600181547fffffffffffffffffffffffffffffff0000000000000000ffffffffffffffff0070ffffffffffffffff0000000000000000004260481b16911617179055604051905f8252600160208301527ff7fa3caad94fe12c60166546c7c4bda02955b0fbba7ac35eeb843d49d885e2a360403393a3005b608460405163d647364f60e01b8152602060048201526024808201527f4472616674206d7573742068617665206174206c65617374206f6e652076657260448201527f73696f6e000000000000000000000000000000000000000000000000000000006064820152fd5b60119150335f520160205260ff60405f2054161582611724565b346101d2575f3660031901126101d25760206040517f00000000000000000000000000000000000000000000000000000000000000008152f35b346101d2575f3660031901126101d2576020600254604051908152f35b346101d25760203660031901126101d2576118cc612a53565b5f54906001600160a01b0390818316330361196757803b15611935577f2f658b440c35314f52658ea8a740e05b284cdc84dc9ae01e891f21b8933e7cad9260209273ffffffffffffffffffffffffffffffffffffffff19921691829116175f55604051908152a1005b602491604051917fc2f31e5e000000000000000000000000000000000000000000000000000000008352166004820152fd5b602460405162d1953b60e31b8152336004820152fd5b346101d25760603660031901126101d257600460243510156101d25760443567ffffffffffffffff81116101d2576119b9903690600401612ae7565b906002546004351015611d9e5760ff60096119d5600435612cc6565b50015416600681101561034a57600181036103b557506119f6600435612cc6565b50916001600160a01b03928360028201541633148015611d86575b611d1b5760108101335f52806020528460405f205416611ceb576040519060a0820182811067ffffffffffffffff8211176109a157604052338252602082016024358152611a5e85612ff0565b91611a6c6040519384612b97565b85835236868801116101d257858760208501375f602087850101526040840192835267ffffffffffffffff4216606085015260016080850152335f5260205260405f209683511687549151600481101561034a5774ff00000000000000000000000000000000000000007fffffffffffffffffffffff0000000000000000000000000000000000000000009160a01b169216171786555194855167ffffffffffffffff81116109a157611b2f81611b266001850154612cff565b60018501612eae565b6020601f8211600114611c79578160029392611b6592600f98999a5f92611c6e575b50508160011b915f199060031b1c19161790565b60018201555b019067ffffffffffffffff60608201511668ff000000000000000060808454930151151560401b169168ffffffffffffffffff191617179055602435155f14611c1e57611bbb600b82015461300c565b600b8201555b01611bcc815461300c565b90557f1d4e9183da763b1e285cbd17de8d69818200b71822bc1d67e368eaadde895f1c604051611bfe81602435612a94565b6040602082015280611c193395600435956040840191612e6b565b0390a3005b602435600103611c3e57600c8101611c36815461300c565b90555b611bc1565b602435600203611c5657600d8101611c36815461300c565b600360243503611c3957600e8101611c36815461300c565b015190508a80611b51565b600183015f5260205f20975f5b601f1984168110611cd3575091600f9697986001926002959483601f19811610611cbb575b505050811b016001820155611b6b565b01515f1960f88460031b161c19169055898080611cab565b828201518a5560019099019860209283019201611c86565b60246040517fcfa761e4000000000000000000000000000000000000000000000000000000008152336004820152fd5b608460405163d647364f60e01b815260206004820152602a60248201527f436f6e7472696275746f72732063616e6e6f742072657669657720746865697260448201527f206f776e206472616674000000000000000000000000000000000000000000006064820152fd5b50335f526011810160205260ff60405f205416611a11565b602460405163c41d418b60e01b81526004356004820152fd5b346101d25760203660031901126101d2576004356002548110156103dc57611dde81612cc6565b506001600160a01b036002820154163314159081611fe0575b506111ae5760ff6009611e0983612cc6565b50015416600681101561034a57600181036103b55750611e2881612cc6565b506009810190815490611e4867ffffffffffffffff8360481c1642612e8b565b600354808210611fa6575050600f81015490600454808310611f6f5750600b015461271090818102918183041490151715611f5b578115611f475704600554808210611f105750506002907fffffffffffffff0000000000000000ffffffffffffffffffffffffffffffff0078ffffffffffffffff00000000000000000000000000000000004260881b169116171790556040519060018252600260208301527ff7fa3caad94fe12c60166546c7c4bda02955b0fbba7ac35eeb843d49d885e2a360403393a3005b60449250604051917fc7effce900000000000000000000000000000000000000000000000000000000835260048301526024820152fd5b634e487b7160e01b5f52601260045260245ffd5b634e487b7160e01b5f52601160045260245ffd5b82604491604051917febd82d0200000000000000000000000000000000000000000000000000000000835260048301526024820152fd5b602491611fb291612e8b565b604051907f60b2716e0000000000000000000000000000000000000000000000000000000082526004820152fd5b60119150335f520160205260ff60405f2054161582611df7565b346101d2575f3660031901126101d2576020600454604051908152f35b346101d2575f3660031901126101d2576020600554604051908152f35b346101d25760403660031901126101d2576024600435813567ffffffffffffffff81116101d257612069903690600401612ae7565b926002548310156121a05761207d83612cc6565b506001600160a01b036002820154163314159081612186575b506121715760ff60096120a885612cc6565b50015416600681101561215e578061213a57508315610f9f5760086120cc84612cc6565b50016120d9858483612ef3565b545f198101919082116121285750907f515e8cd3bc65e597ecd44560be0bdf9a836cc9218e3ca0b1d6cfbb2baa0f8fce91611c1960405192839283526040602084015233966040840191612e6b565b634e487b7160e01b5f5260116004525ffd5b5f6044926121596040519363f924664d60e01b85526004850190612b51565b820152fd5b50634e487b7160e01b5f5260216004525ffd5b604051634a0bfec160e01b8152336004820152fd5b60119150335f520160205260ff60405f2054161585612096565b826040519063c41d418b60e01b82526004820152fd5b346101d25760203660031901126101d2576121cf612a53565b6121d93633613452565b6001600160a01b0380911690811561115e576001548273ffffffffffffffffffffffffffffffffffffffff19821617600155167f5af6a85e864342d4f108c43dd574d98480c91f1de0ac2a9f66d826dee49bd9bb5f80a3005b346101d25760403660031901126101d2576024356004355f52600760205260405f2080548210156101d25760209161226991612a7f565b90546040519160031b1c8152f35b346101d2575f3660031901126101d2576020600354604051908152f35b346101d25760403660031901126101d2576004356122b0612a69565b6002548210156111df576122c382612cc6565b506001600160a01b0390816002820154163314159081612454575b506111ae5760ff60096122f085612cc6565b50015416600681101561034a5780611188575061230c83612cc6565b50916011928260118201921692835f528260205260ff60405f20541615612423576003809201905f5b82548082101561241657868361234b8487612a7f565b905490881b1c16146123605750600101612335565b5f9792939495969719928382019182116124045750906110a6846123876123959488612a7f565b905490891b1c169186612a7f565b825480156123f05701926123a98484612a7f565b81939154921b1b19169055555b815f5260205260405f2060ff19815416905533917f9faf0bd600a8424364aa473fce68c7a603750bcd52a4dc12dd7a69cc7b160b015f80a4005b634e487b7160e01b5f52603160045260245ffd5b634e487b7160e01b5f5260045260245ffd5b50505050509091506123b6565b602484604051907fd3cedf290000000000000000000000000000000000000000000000000000000082526004820152fd5b60119150335f520160205260ff60405f20541615846122de565b346101d25760403660031901126101d257612487612a53565b6001600160a01b0360243591165f52600860205260405f2080548210156101d25760209161226991612a7f565b346101d2576003196080368201126101d257600435602491823592831515918285036101d2576044359160ff83168093036101d25760643567ffffffffffffffff81116101d257612509903690600401612ae7565b6002939193548710156128685761251f87612cc6565b506001600160a01b039081600282015416331415908161284e575b506128385760ff600961254c8a612cc6565b5001541660068110156128255760028103612804575061256b88612cc6565b5080995f146127225750600286106126b7575f60209461260d6006958c98956125ed9560015416966125fe6040519b8c9a8b998a987fe947708a000000000000000000000000000000000000000000000000000000008a5260a060048b01526125da60a48b0160048601612dc8565b90888b830301908b015260058401612bd1565b91868984030160448a015201612e0c565b92858403016064860152612e6b565b88608483015203925af1908115610f22575f9161267a575b50604060209593600a95937ff5f3c022abf1448d67e8a9325eb16a6c9274e802b0d204940a1ac39f7f5d15e293809781975b60098101805460ff191660031790550155825191825287820152a3604051908152f35b9492939190506020853d6020116126af575b8161269960209383612b97565b810103126101d257935191939092916040612625565b3d915061268c565b60848460286040519163d647364f60e01b8352602060048401528201527f4d756c74692d63686f696365207265717569726573206174206c65617374203260448201527f206f7074696f6e730000000000000000000000000000000000000000000000006064820152fd5b949160209461277f6006955f936125ed9560015416966125fe6040519b8c9a8b998a987f7d5e81e2000000000000000000000000000000000000000000000000000000008a52608060048b01526125da60848b0160048601612dc8565b03925af1908115610f22575f916127c7575b50604060209593600a95937ff5f3c022abf1448d67e8a9325eb16a6c9274e802b0d204940a1ac39f7f5d15e29380978197612657565b9492939190506020853d6020116127fc575b816127e660209383612b97565b810103126101d257935191939092916040612791565b3d91506127d9565b6044906002866121596040519363f924664d60e01b85526004850190612b51565b84634e487b7160e01b5f5260216004525ffd5b83604051634a0bfec160e01b8152336004820152fd5b60119150335f520160205260ff60405f205416158a61253a565b82876040519063c41d418b60e01b82526004820152fd5b346101d25760403660031901126101d25760043561289b612a69565b6002548210156111df576001600160a01b036128b8601093612cc6565b5091165f52016020526128fd60405f2060ff815460a01c169060ff61290e60016128f16002850154946101bb6040518094819301612d37565b60405195868096612a94565b608060208601526080850190612ac2565b9167ffffffffffffffff8116604085015260401c16151560608301520390f35b346101d25760203660031901126101d2576004356002548110156103dc5761295760a091612cc6565b50600b81015490600c81015490600d810154600f600e830154920154926040519485526020850152604084015260608301526080820152f35b346101d25760403660031901126101d2576129a9612a53565b6001600160a01b0360243591165f52600960205260405f2080548210156101d25760209161226991612a7f565b346101d25760203660031901126101d2576101ce6101c2600435612c0c565b346101d2575f3660031901126101d2576020906001600160a01b03600154168152f35b60209060206040818301928281528551809452019301915f5b828110612a3f575050505090565b835185529381019392810192600101612a31565b600435906001600160a01b03821682036101d257565b602435906001600160a01b03821682036101d257565b805482101561098d575f5260205f2001905f90565b90600482101561034a5752565b5f5b838110612ab25750505f910152565b8181015183820152602001612aa3565b90602091612adb81518092818552858086019101612aa1565b601f01601f1916010190565b9181601f840112156101d25782359167ffffffffffffffff83116101d257602083818601950101116101d257565b9081518082526020808093019301915f5b828110612b34575050505090565b83516001600160a01b031685529381019392810192600101612b26565b90600682101561034a5752565b6080810190811067ffffffffffffffff8211176109a157604052565b6101c0810190811067ffffffffffffffff8211176109a157604052565b90601f8019910116810190811067ffffffffffffffff8211176109a157604052565b67ffffffffffffffff81116109a15760051b60200190565b9081548082526020809201925f5260205f20915f905b828210612bf5575050505090565b835485529384019360019384019390910190612be7565b7f000000000000000000000000000000000000000000000000000000000000000003612c9f57604051808160065480835260208093019060065f527ff652222313e28459528d920b65115c16c04f3efc82aaedc97be59f3f377c0d3f935f905b828210612c8557505050612c8292500382612b97565b90565b855484526001958601958795509381019390910190612c6c565b6040516020810181811067ffffffffffffffff8211176109a1576040525f81525f36813790565b60025481101561098d5760129060025f52027f405787fa12a823e0f2b7631cc41b3ba8828b3321ca811111fa75cd3aa3bb5ace01905f90565b90600182811c92168015612d2d575b6020831014612d1957565b634e487b7160e01b5f52602260045260245ffd5b91607f1691612d0e565b80545f9392612d4582612cff565b918282526020936001916001811690815f14612da95750600114612d6b575b5050505050565b90939495505f92919252835f2092845f945b838610612d9557505050500101905f80808080612d64565b805485870183015294019385908201612d7d565b60ff19168685015250505090151560051b010191505f80808080612d64565b9081548082526020809201925f5260205f20915f905b828210612dec575050505090565b83546001600160a01b031685529384019360019384019390910190612dde565b908082549081815260208091019260208360051b820101945f5260205f20935f915b848310612e3e5750505050505090565b909192939495846001612e5b8193601f198682030187528a612d37565b9801930193019194939290612e2e565b908060209392818452848401375f828201840152601f01601f1916010190565b91908203918211611f5b57565b818110612ea3575050565b5f8155600101612e98565b9190601f8111612ebd57505050565b612ee7925f5260205f20906020601f840160051c83019310612ee9575b601f0160051c0190612e98565b565b9091508190612eda565b92918354600160401b8110156109a157612f1590600195600182018155612a7f565b929092612fdd5767ffffffffffffffff82116109a157612f3982610a008554612cff565b5f94601f8311600114612f785750612f6992939482915f92612f6d5750508160011b915f199060031b1c19161790565b9055565b013590505f80611b51565b90601f19831695845f5260209260205f20935f915b898310612fc65750505083600195969710612fad575b505050811b019055565b01355f19600384901b60f8161c191690555f8080612fa3565b848401358655948501949281019291810191612f8d565b634e487b7160e01b5f525f60045260245ffd5b67ffffffffffffffff81116109a157601f01601f191660200190565b5f198114611f5b5760010190565b90604051918281549182825260209260208301915f5260205f20935f905b82821061304e57505050612ee792500383612b97565b85546001600160a01b031684526001958601958895509381019390910190613038565b51906001600160a01b03821682036101d257565b90816101c09103126101d2576040519061309e82612b7a565b6130a781613071565b82526130b560208201613071565b60208301526130c660408201613071565b60408301526130d760608201613071565b60608301526130e860808201613071565b60808301526130f960a08201613071565b60a083015261310a60c08201613071565b60c083015261311b60e08201613071565b60e083015261010061312e818301613071565b90830152610120613140818301613071565b90830152610140613152818301613071565b90830152610160613164818301613071565b90830152610180613176818301613071565b908301526131886101a0809201613071565b9082015290565b9061319982612cc6565b506001600160a01b03908160028201541633148015613291575b613286575460405190631f061c6960e31b825260048201526101c0908181602481867f0000000000000000000000000000000000000000000000000000000000000000165afa908115610f22576020925f92613269575b505001511680156132245733036111ae57612ee7916132a9565b606460405163d647364f60e01b815260206004820152601060248201527f54696d656c6f636b206e6f7420736574000000000000000000000000000000006044820152fd5b61327f9250803d10610f9857610f8a8183612b97565b5f8061320a565b5050612ee7916132a9565b50335f526011810160205260ff60405f2054166131b3565b600682101561034a57600482141580613359575b613314577ff8565e1fcefe8730946b9a0b3b21656f89a6775423cd6b879c1b5ab9871bcace6020600a6132ef84612cc6565b506009810160ff1981541660ff88161790550154936133116040518092612b51565ba3565b606460405163d647364f60e01b815260206004820152601b60248201527f4f7574636f6d65206d75737420626520574f4e206f72204c4f535400000000006044820152fd5b5060058214156132bd565b8054600160401b8110156109a15761338191600182018155612a7f565b819291549060031b91821b915f19901b1916179055565b81601f820112156101d25780516133ae81612ff0565b926133bc6040519485612b97565b818452602082840101116101d257612c829160208085019101612aa1565b519067ffffffffffffffff821682036101d257565b903590601e19813603018212156101d2570180359067ffffffffffffffff82116101d257602001918160051b360383136101d257565b9181811061343257505050565b612ee7925f5260205f209182019101612e98565b8015611f5b575f190190565b905f915f54916001600160a01b039182841692826004116101d2575f925f60409485519360208501957fb700961300000000000000000000000000000000000000000000000000000000875216938460248201523060448201527fffffffff000000000000000000000000000000000000000000000000000000005f351660648201526064815260a0810167ffffffffffffffff96828210888311176109a15788925f9284528280528260205251908a5afa61361c575b15613519575b5050505050505050565b63ffffffff161561360657740100000000000000000000000000000000000000007fffffffffffffffffffffff00ffffffffffffffffffffffffffffffffffffffff809716175f55843b156101d2576064945f928386519788809581947f94c7d7ee00000000000000000000000000000000000000000000000000000000835260048301528960248301528060448301528084848401378181018301849052601f01601f191681010301925af180156135fc576135e6575b50505081541690555f8080808080808061350f565b909180939450116109a157525f905f80806135d1565b82513d5f823e3d90fd5b60248285519062d1953b60e31b82526004820152fd5b50505f516020518060201c15029061350956fea2646970667358221220ef03a3fabe46e4714d594c10e56ce4b67bf7af427149743dcafd05d8baf6254f64736f6c63430008180033","linkReferences":{}},"methodIdentifiers":{"addContributor(uint256,address)":"af3595ba","authorDrafts(address,uint256)":"2ae7773b","authority()":"bf7e214f","communityId()":"7f50861a","communityRegistry()":"a200ac86","contributorDrafts(address,uint256)":"1854f67a","createDraft(uint256,(address[],uint256[],bytes[],bytes32),string)":"af61f45b","escalateToProposal(uint256,bool,uint8,string)":"261f635f","finalizeForProposal(uint256)":"7281f82b","getDraft(uint256)":"a2f79f8e","getDraftsByAuthor(address)":"9d04097a","getDraftsByCommunity(uint256)":"1306454a","getDraftsByContributor(address)":"d9c48e3a","getDraftsByRequest(uint256)":"da968fc6","getDraftsCount()":"7ccea359","getReview(uint256,address)":"2101ff65","getReviewSummary(uint256)":"18efb58a","governor()":"0c340a24","isConsumingScheduledOp()":"8fb36037","isContributor(uint256,address)":"9eda7d23","minReviewsForEscalation()":"71f7fecc","removeContributor(uint256,address)":"305a9678","requestDrafts(uint256,uint256)":"3f3da2c7","retractReview(uint256)":"c55354f1","reviewPeriod()":"3b249810","setAuthority(address)":"7a9e5e4b","snapshotVersion(uint256,string)":"66a5e1ad","submitForReview(uint256)":"8a3b37e2","submitReview(uint256,uint8,string)":"74a5b693","supportThresholdBps()":"673ad03f","updateConfiguration(uint256,uint256,uint256)":"c501651a","updateGovernor(address)":"62f384ad","updateProposalOutcome(uint256,uint8)":"ad2df7d8"},"id":15}