{"abi":[{"type":"constructor","inputs":[{"name":"_governance","type":"address","internalType":"address"},{"name":"_actionRegistry","type":"address","internalType":"address"},{"name":"_verifierManager","type":"address","internalType":"address"},{"name":"_valuableActionSBT","type":"address","internalType":"address"},{"name":"_membershipToken","type":"address","internalType":"address"},{"name":"_communityId","type":"uint256","internalType":"uint256"}],"stateMutability":"nonpayable"},{"type":"function","name":"actionRegistry","inputs":[],"outputs":[{"name":"","type":"address","internalType":"contract ValuableActionRegistry"}],"stateMutability":"view"},{"type":"function","name":"appeals","inputs":[{"name":"","type":"uint256","internalType":"uint256"}],"outputs":[{"name":"engagementId","type":"uint256","internalType":"uint256"},{"name":"appellant","type":"address","internalType":"address"},{"name":"appealReason","type":"string","internalType":"string"},{"name":"createdAt","type":"uint64","internalType":"uint64"},{"name":"status","type":"uint8","internalType":"enum Types.EngagementStatus"},{"name":"approvalsCount","type":"uint32","internalType":"uint32"},{"name":"rejectionsCount","type":"uint32","internalType":"uint32"},{"name":"resolved","type":"bool","internalType":"bool"}],"stateMutability":"view"},{"type":"function","name":"assignJurors","inputs":[{"name":"engagementId","type":"uint256","internalType":"uint256"},{"name":"jurors","type":"address[]","internalType":"address[]"}],"outputs":[],"stateMutability":"nonpayable"},{"type":"function","name":"communityId","inputs":[],"outputs":[{"name":"","type":"uint256","internalType":"uint256"}],"stateMutability":"view"},{"type":"function","name":"engagements","inputs":[{"name":"","type":"uint256","internalType":"uint256"}],"outputs":[{"name":"typeId","type":"uint256","internalType":"uint256"},{"name":"participant","type":"address","internalType":"address"},{"name":"evidenceCID","type":"string","internalType":"string"},{"name":"status","type":"uint8","internalType":"enum Types.EngagementStatus"},{"name":"createdAt","type":"uint64","internalType":"uint64"},{"name":"verifyDeadline","type":"uint64","internalType":"uint64"},{"name":"approvalsCount","type":"uint32","internalType":"uint32"},{"name":"rejectionsCount","type":"uint32","internalType":"uint32"},{"name":"resolved","type":"bool","internalType":"bool"}],"stateMutability":"view"},{"type":"function","name":"engagementsByParticipant","inputs":[{"name":"","type":"uint256","internalType":"uint256"},{"name":"","type":"uint256","internalType":"uint256"}],"outputs":[{"name":"","type":"uint256","internalType":"uint256"}],"stateMutability":"view"},{"type":"function","name":"getCommunityId","inputs":[],"outputs":[{"name":"","type":"uint256","internalType":"uint256"}],"stateMutability":"view"},{"type":"function","name":"getEngagement","inputs":[{"name":"engagementId","type":"uint256","internalType":"uint256"}],"outputs":[{"name":"typeId","type":"uint256","internalType":"uint256"},{"name":"participant","type":"address","internalType":"address"},{"name":"evidenceCID","type":"string","internalType":"string"},{"name":"status","type":"uint8","internalType":"enum Types.EngagementStatus"},{"name":"createdAt","type":"uint64","internalType":"uint64"},{"name":"verifyDeadline","type":"uint64","internalType":"uint64"},{"name":"jurors","type":"address[]","internalType":"address[]"},{"name":"approvalsCount","type":"uint32","internalType":"uint32"},{"name":"rejectionsCount","type":"uint32","internalType":"uint32"},{"name":"resolved","type":"bool","internalType":"bool"}],"stateMutability":"view"},{"type":"function","name":"getEngagementInfo","inputs":[{"name":"engagementId","type":"uint256","internalType":"uint256"}],"outputs":[{"name":"typeId","type":"uint256","internalType":"uint256"},{"name":"participant","type":"address","internalType":"address"},{"name":"evidenceCID","type":"string","internalType":"string"},{"name":"status","type":"uint8","internalType":"enum Types.EngagementStatus"},{"name":"createdAt","type":"uint64","internalType":"uint64"},{"name":"verifyDeadline","type":"uint64","internalType":"uint64"},{"name":"approvalsCount","type":"uint32","internalType":"uint32"},{"name":"rejectionsCount","type":"uint32","internalType":"uint32"}],"stateMutability":"view"},{"type":"function","name":"getEngagementJurors","inputs":[{"name":"engagementId","type":"uint256","internalType":"uint256"}],"outputs":[{"name":"jurors","type":"address[]","internalType":"address[]"}],"stateMutability":"view"},{"type":"function","name":"getEngagementsByParticipant","inputs":[{"name":"participant","type":"address","internalType":"address"}],"outputs":[{"name":"","type":"uint256[]","internalType":"uint256[]"}],"stateMutability":"view"},{"type":"function","name":"getParticipantCooldown","inputs":[{"name":"participant","type":"address","internalType":"address"},{"name":"typeId","type":"uint256","internalType":"uint256"}],"outputs":[{"name":"nextAllowed","type":"uint64","internalType":"uint64"}],"stateMutability":"view"},{"type":"function","name":"getPendingEngagements","inputs":[{"name":"typeId","type":"uint256","internalType":"uint256"}],"outputs":[{"name":"","type":"uint256[]","internalType":"uint256[]"}],"stateMutability":"view"},{"type":"function","name":"governance","inputs":[],"outputs":[{"name":"","type":"address","internalType":"address"}],"stateMutability":"view"},{"type":"function","name":"hasJurorVoted","inputs":[{"name":"engagementId","type":"uint256","internalType":"uint256"},{"name":"juror","type":"address","internalType":"address"}],"outputs":[{"name":"","type":"bool","internalType":"bool"}],"stateMutability":"view"},{"type":"function","name":"lastAppealId","inputs":[],"outputs":[{"name":"","type":"uint256","internalType":"uint256"}],"stateMutability":"view"},{"type":"function","name":"lastEngagementId","inputs":[],"outputs":[{"name":"","type":"uint256","internalType":"uint256"}],"stateMutability":"view"},{"type":"function","name":"membershipToken","inputs":[],"outputs":[{"name":"","type":"address","internalType":"address"}],"stateMutability":"view"},{"type":"function","name":"participantCooldowns","inputs":[{"name":"","type":"address","internalType":"address"},{"name":"","type":"uint256","internalType":"uint256"}],"outputs":[{"name":"","type":"uint64","internalType":"uint64"}],"stateMutability":"view"},{"type":"function","name":"pendingEngagements","inputs":[{"name":"","type":"uint256","internalType":"uint256"},{"name":"","type":"uint256","internalType":"uint256"}],"outputs":[{"name":"","type":"uint256","internalType":"uint256"}],"stateMutability":"view"},{"type":"function","name":"revoke","inputs":[{"name":"engagementId","type":"uint256","internalType":"uint256"}],"outputs":[],"stateMutability":"nonpayable"},{"type":"function","name":"submit","inputs":[{"name":"typeId","type":"uint256","internalType":"uint256"},{"name":"evidenceCID","type":"string","internalType":"string"}],"outputs":[{"name":"engagementId","type":"uint256","internalType":"uint256"}],"stateMutability":"nonpayable"},{"type":"function","name":"submitAppeal","inputs":[{"name":"engagementId","type":"uint256","internalType":"uint256"},{"name":"reason","type":"string","internalType":"string"}],"outputs":[{"name":"appealId","type":"uint256","internalType":"uint256"}],"stateMutability":"nonpayable"},{"type":"function","name":"updateContracts","inputs":[{"name":"_verifierManager","type":"address","internalType":"address"},{"name":"_valuableActionSBT","type":"address","internalType":"address"}],"outputs":[],"stateMutability":"nonpayable"},{"type":"function","name":"updateGovernance","inputs":[{"name":"_governance","type":"address","internalType":"address"}],"outputs":[],"stateMutability":"nonpayable"},{"type":"function","name":"valuableActionSBT","inputs":[],"outputs":[{"name":"","type":"address","internalType":"address"}],"stateMutability":"view"},{"type":"function","name":"verifierManager","inputs":[],"outputs":[{"name":"","type":"address","internalType":"address"}],"stateMutability":"view"},{"type":"function","name":"verify","inputs":[{"name":"engagementId","type":"uint256","internalType":"uint256"},{"name":"approve","type":"bool","internalType":"bool"}],"outputs":[],"stateMutability":"nonpayable"},{"type":"event","name":"AppealResolved","inputs":[{"name":"appealId","type":"uint256","indexed":true,"internalType":"uint256"},{"name":"status","type":"uint8","indexed":false,"internalType":"enum Types.EngagementStatus"}],"anonymous":false},{"type":"event","name":"AppealSubmitted","inputs":[{"name":"appealId","type":"uint256","indexed":true,"internalType":"uint256"},{"name":"engagementId","type":"uint256","indexed":true,"internalType":"uint256"},{"name":"appellant","type":"address","indexed":true,"internalType":"address"},{"name":"reason","type":"string","indexed":false,"internalType":"string"}],"anonymous":false},{"type":"event","name":"CooldownUpdated","inputs":[{"name":"participant","type":"address","indexed":true,"internalType":"address"},{"name":"typeId","type":"uint256","indexed":true,"internalType":"uint256"},{"name":"nextAllowed","type":"uint64","indexed":false,"internalType":"uint64"}],"anonymous":false},{"type":"event","name":"EngagementResolved","inputs":[{"name":"engagementId","type":"uint256","indexed":true,"internalType":"uint256"},{"name":"status","type":"uint8","indexed":false,"internalType":"enum Types.EngagementStatus"},{"name":"finalApprovals","type":"uint32","indexed":false,"internalType":"uint32"},{"name":"finalRejections","type":"uint32","indexed":false,"internalType":"uint32"}],"anonymous":false},{"type":"event","name":"EngagementRevoked","inputs":[{"name":"engagementId","type":"uint256","indexed":true,"internalType":"uint256"},{"name":"revoker","type":"address","indexed":true,"internalType":"address"}],"anonymous":false},{"type":"event","name":"EngagementSubmitted","inputs":[{"name":"engagementId","type":"uint256","indexed":true,"internalType":"uint256"},{"name":"typeId","type":"uint256","indexed":true,"internalType":"uint256"},{"name":"participant","type":"address","indexed":true,"internalType":"address"},{"name":"evidenceCID","type":"string","indexed":false,"internalType":"string"}],"anonymous":false},{"type":"event","name":"EngagementVerified","inputs":[{"name":"engagementId","type":"uint256","indexed":true,"internalType":"uint256"},{"name":"verifier","type":"address","indexed":true,"internalType":"address"},{"name":"approve","type":"bool","indexed":false,"internalType":"bool"}],"anonymous":false},{"type":"event","name":"FraudReportOutcome","inputs":[{"name":"engagementId","type":"uint256","indexed":true,"internalType":"uint256"},{"name":"communityId","type":"uint256","indexed":true,"internalType":"uint256"},{"name":"offenders","type":"address[]","indexed":false,"internalType":"address[]"},{"name":"success","type":"bool","indexed":false,"internalType":"bool"},{"name":"evidenceCID","type":"string","indexed":false,"internalType":"string"}],"anonymous":false},{"type":"event","name":"JurorsAssigned","inputs":[{"name":"engagementId","type":"uint256","indexed":true,"internalType":"uint256"},{"name":"jurors","type":"address[]","indexed":false,"internalType":"address[]"}],"anonymous":false},{"type":"error","name":"InvalidInput","inputs":[{"name":"reason","type":"string","internalType":"string"}]},{"type":"error","name":"NotAuthorized","inputs":[{"name":"caller","type":"address","internalType":"address"}]},{"type":"error","name":"ZeroAddress","inputs":[]}],"bytecode":{"object":"0x60c0346200015f57601f6200312c38819003918201601f191683019291906001600160401b0384118385101762000163578160c092849260409687528339810103126200015f57620000518162000177565b90620000606020820162000177565b6200006d84830162000177565b916200007c6060820162000177565b60a06200008c6080840162000177565b920151946001600160a01b039081169384156200014e5781169485156200014e5781169182156200014e5781169283156200014e57169384156200013d5760018060a01b031993846002541617600255608052825f5416175f55816001541617600155600354161760035560a05251612f9f90816200018d82396080518181816102a60152818161089a015261157d015260a051818181610b7701528181611947015281816123f10152612afe0152f35b865163d92e233d60e01b8152600490fd5b875163d92e233d60e01b8152600490fd5b5f80fd5b634e487b7160e01b5f52604160045260245ffd5b51906001600160a01b03821682036200015f5756fe6080806040526004361015610012575f80fd5b5f3560e01c908163090563f41461215c575080630cbd99a6146121375780630f2516f41461207257806320c5429b14611fc15780632e94dfda14611ec5578063327dac78146103075780633e7cb0d3146113965780633f6e3ca9146110eb5780635352d75e146110835780635aa6e6751461105d5780635d63f6c61461087b57806362ad351b14610855578063649d3d29146108385780636c8dc288146107eb57806375b0e1f1146105aa5780637935b495146104f45780637e0766d4146104ef5780637f50861a146104ef57806394efe610146104c0578063acff868714610407578063b256126314610396578063b3afac9d14610355578063b3d557e314610307578063d6aa9b6e146102ca578063e4e3967814610287578063e692c49f14610200578063e8901184146101da5763fa810fb214610150575f80fd5b346101d6576020806003193601126101d6576001600160a01b03610172612326565b165f52600960205260405f20906040519081602084549182815201935f5260205f20915f905b8282106101bf576101bb856101af818903826121c2565b6040519182918261239f565b0390f35b835486529485019460019384019390910190610198565b5f80fd5b346101d6575f3660031901126101d65760206001600160a01b0360015416604051908152f35b346101d65760403660031901126101d657610219612326565b61022161233c565b6001600160a01b0391826002541633036102705782168061025b575b50168061024657005b6001600160a01b031960015416176001555f80f35b6001600160a01b03195f5416175f558261023d565b6024604051634a0bfec160e01b8152336004820152fd5b346101d6575f3660031901126101d65760206040516001600160a01b037f0000000000000000000000000000000000000000000000000000000000000000168152f35b346101d6576102d836612414565b905f52600a60205260405f2080548210156101d6576020916102f99161242a565b90546040519160031b1c8152f35b346101d65760403660031901126101d6576001600160a01b03610328612326565b165f52600860205260405f206024355f52602052602067ffffffffffffffff60405f205416604051908152f35b346101d65760203660031901126101d6576004355f5260066020526101bb610382600460405f2001612453565b6040519182916020835260208301906122ea565b346101d65760203660031901126101d6576103af612326565b600254906001600160a01b0390818316330361027057169081156103dd576001600160a01b03191617600255005b60046040517fd92e233d000000000000000000000000000000000000000000000000000000008152fd5b346101d65760203660031901126101d6576004355f52600760205260405f208054906001600160a01b036001820154169060ff610446600283016121e4565b916003810154926006838560401c169201549167ffffffffffffffff61048a63ffffffff93604051998a99610100918b5260208b01528060408b01528901906122a7565b9516606087015261049a816122cc565b608086015280821660a08601528160201c1660c085015260401c16151560e08301520390f35b346101d6576104ce36612414565b905f52600960205260405f2080548210156101d6576020916102f99161242a565b6123da565b346101d65760203660031901126101d6576004355f52600660205260405f208054906001600160a01b036001820154169060038101549060ff82169167ffffffffffffffff600783015491610572610553600263ffffffff96016121e4565b604051988998610100918a5260208a01528060408a01528801906122a7565b9461057c816122cc565b6060870152818160081c16608087015260481c1660a085015281811660c085015260201c1660e08301520390f35b346101d65760403660031901126101d65760043560249081359167ffffffffffffffff8084116101d657366023850112156101d65783600401359081116101d657818401938236918360051b0101116101d6576001600160a01b0391825f541633036107d657831580156107cb575b61078557835f526020906006825260405f209060ff60038301541661063d816122cc565b6107415783156106fd5750909291906004016106598282612831565b5f90815283812090865b8382106106d8575050506040519281818501828652526040840195925f905b8382106106b257867ff083f0aa71f20298d1c44ffb7a3ecf49b9dcdaa51dcf4a0b519a39167bcb1c8a878a0388a2005b90919293968735908282168092036101d657908152830196830193929160010190610682565b8095939495359186831683036101d65784600192019281850155019094939294610663565b8260126064926040519263d647364f60e01b845260048401528201527f4e6f206a75726f72732070726f766964656400000000000000000000000000006044820152fd5b8260166064926040519263d647364f60e01b845260048401528201527f456e676167656d656e74206e6f742070656e64696e67000000000000000000006044820152fd5b60405163d647364f60e01b815260206004820152601560248201527f496e76616c696420656e676167656d656e7420494400000000000000000000006044820152606490fd5b506004548411610619565b604051634a0bfec160e01b8152336004820152fd5b346101d65760403660031901126101d65761080461233c565b6004355f5260066020526001600160a01b03600660405f200191165f52602052602060ff60405f2054166040519015158152f35b346101d6575f3660031901126101d6576020600454604051908152f35b346101d6575f3660031901126101d65760206001600160a01b0360035416604051908152f35b346101d65761088936612352565b908115611018576001600160a01b037f0000000000000000000000000000000000000000000000000000000000000000169260405193632e7edc3160e11b85528160048601525f85602481845afa948515610fe3575f95610fee575b506020602491604051928380927fe9ea801c0000000000000000000000000000000000000000000000000000000082528660048301525afa908115610fe3575f91610fa9575b5015610f6457335f52600860205260405f20815f5260205267ffffffffffffffff60405f2054164210610ef9575f335f52600960205260405f205f908054915b828110610e955750505063ffffffff6101c0860151161115610e2a576109926004546124e0565b9283600455835f52600660205260405f2082815560018101336001600160a01b031982541617905567ffffffffffffffff8211610c90576109d66002820154612176565b601f8111610dec575b50815f601f8211600114610d82575f91610d77575b508260011b905f198460031b1c19161760028201555b60038101805470ffffffffffffffff000000000000000000610a3763ffffffff6101408b015116426124d3565b60481b16907fffffffffffffffffffffffffffffff000000000000000000000000000000000068ffffffffffffffff004260081b169116171790556001600160a01b035f54169586151580610d6d575b610af9575b5050602094507fa7d3ae224c6019488e1452211c528a36b619bfcb8881b5c85248ee05d320b9fc610aee8592845f52600a8852610acc8460405f20612868565b335f5260098852610ae08460405f20612868565b604051918291339783612504565b0390a4604051908152f35b61012063ffffffff91015116604051964260208901524460408901528660608901526060885287608081011067ffffffffffffffff60808a011117610c90575f9160808901604052885160208a0120907f705ac2f00000000000000000000000000000000000000000000000000000000060808b01528860848b01527f000000000000000000000000000000000000000000000000000000000000000060a48b015260c48a015260e48901528161010489015260a460808901918360808b01915af15f9681610ca4575b50610bcf575b80610a8c565b60040194805167ffffffffffffffff8111610c9057610bee8188612831565b60208201965f5260205f20965f5b828110610c735750505060209550610aee8592837ff083f0aa71f20298d1c44ffb7a3ecf49b9dcdaa51dcf4a0b519a39167bcb1c8a610c687fa7d3ae224c6019488e1452211c528a36b619bfcb8881b5c85248ee05d320b9fc956040519182918d83528d8301906122ea565b0390a2925050610bc9565b60019060206001600160a01b03845116930192818b015501610bfc565b634e487b7160e01b5f52604160045260245ffd5b9096503d805f608084013e610cbc81608084016121c2565b60208282810103126101d65760808201519067ffffffffffffffff82116101d657608081840101609f8385010112156101d6576080828401015191610d00836125be565b93610d0e60405195866121c2565b8385526080602086019382010160a08560051b8484010101116101d65780820160a00192915b60a08560051b82840101018410610d515750505050509587610bc3565b60208060a094610d6087612549565b8152019401939250610d34565b50863b1515610a87565b9050840135876109f4565b9050600282015f5260205f20905f5b601f1985168110610dd4575083601f19811610610dbb575b5050600182811b016002820155610a0a565b8501355f19600385901b60f8161c191690558680610da9565b9091602060018192858a013581550193019101610d91565b610e1a90600283015f5260205f20601f850160051c81019160208610610e20575b601f0160051c01906124ee565b866109df565b9091508190610e0d565b608460405163d647364f60e01b815260206004820152603460248201527f546f6f206d616e7920636f6e63757272656e7420656e676167656d656e74732060448201527f666f72207468697320616374696f6e20747970650000000000000000000000006064820152fd5b610e9f818361242a565b9054600391821b1c5f52600660205260405f2090868254149182610ee1575b5050610ecd575b60010161096b565b92610ed96001916124e0565b939050610ec5565b60ff9250015416610ef1816122cc565b158980610ebe565b608460405163d647364f60e01b815260206004820152602160248201527f5061727469636970616e7420697320696e20636f6f6c646f776e20706572696f60448201527f64000000000000000000000000000000000000000000000000000000000000006064820152fd5b606460405163d647364f60e01b815260206004820152601960248201527f416374696f6e2074797065206973206e6f7420616374697665000000000000006044820152fd5b90506020813d602011610fdb575b81610fc4602093836121c2565b810103126101d657610fd59061253c565b8561092b565b3d9150610fb7565b6040513d5f823e3d90fd5b60249195506110106020913d805f833e61100881836121c2565b8101906125eb565b9591506108e5565b606460405163d647364f60e01b815260206004820152601c60248201527f45766964656e6365204349442063616e6e6f7420626520656d707479000000006044820152fd5b346101d6575f3660031901126101d65760206001600160a01b0360025416604051908152f35b346101d6576020806003193601126101d6576004355f52600a60205260405f20906040519081602084549182815201935f5260205f20915f905b8282106110d4576101bb856101af818903826121c2565b8354865294850194600193840193909101906110bd565b346101d6576110f936612352565b908215801561138b575b61078557825f526020926006845260405f206001906001600160a01b03828201541633036102705760ff600360029201541661113e816122cc565b036113215783156112dc576111546005546124e0565b9384600555845f526007865260405f20838155828101336001600160a01b0319825416179055600281019067ffffffffffffffff91828411610c9057879461119c8254612176565b601f81116112ae575b505f601f86116001146112245792610aee949286806003947f8b854ce0da61627b71db5b08aa8add12d290d4986ff2a3fa0a8a4bbec82adf4099975f93611219575b501b905f1987861b1c19161790555b0190421668ffffffffffffffffff19825416179055604051918291339783612504565b8d013592508f6111e7565b601f19861690835f528b5f20915f5b8d8c8383106112985750505092879592610aee9795927f8b854ce0da61627b71db5b08aa8add12d290d4986ff2a3fa0a8a4bbec82adf409960039610611281575b505085811b0190556111f6565b8c01355f1988871b60f8161c191690558d80611274565b84013585558d9a50938501939283019201611233565b6112d690835f528b5f20601f880160051c8101918d8910610e2057601f0160051c01906124ee565b8a6111a5565b6064856040519063d647364f60e01b82526004820152601d60248201527f41707065616c20726561736f6e2063616e6e6f7420626520656d7074790000006044820152fd5b6084856040519063d647364f60e01b825260048201526024808201527f43616e206f6e6c792061707065616c2072656a656374656420656e676167656d60448201527f656e7473000000000000000000000000000000000000000000000000000000006064820152fd5b506004548311611103565b346101d65760403660031901126101d6576004356024803591821515928381036101d6575f925f5b835f526006602052600460405f20018054821015611ebb576113e8826001600160a01b039261242a565b919054339260031b1c16146113ff576001016113be565b509091925060015b156107d657825f5260206006815260405f2094600786019260ff845460401c16611e775767ffffffffffffffff96600390888282015460481c164211611e335760058101335f5280865260ff60405f205416611def5790600491335f52865260405f209460019860ff19968a8882541617905560068301885260405f208781541660ff84161790555f14611dbc57875463ffffffff6114a78183166124aa565b169063ffffffff19161788555b604051908152897f42617fa09c8caa7d4f81a73197c4ba0e471fece9de0cea84deadf0f77a840296883393a30154861c94868601809611611da9575463ffffffff958616908087168211611be55750505f875f526006855260405f2093878386019182541617905560078401986801000000000000000068ff0000000000000000198b5416178a556001600160a01b0390815f54168015159081611bda575b5080611bcd575b611bbf575b85549560405192632e7edc3160e11b84528760048501525f848881847f0000000000000000000000000000000000000000000000000000000000000000165afa8015610fe3578b988a955f92611ba3575b50848c6101a08401511680611b65575b505050818754168d81151580611b59575b611a24575b5050818954168d8c8261178e575b50505050819293949596977fd8eb0cefdb0127a28f46f819c890dd12498a91c4e8651ad37cdb4c198f57827392015416915493849383875260088252604087208588528252604087205416604051908152a38152600a8452604081209281875b61168f575b505050505090606092917f63a2ece265013dc14ef474ec9db320c23a7f7138ecebbd5e709273474233004094955490604051938452828216818501521c166040820152a2005b84548082101561178857896116a4838861242a565b905490871b1c146116b85750870187611644565b935f9a969798999a19948581019081116117755761170292916116de6116ea928961242a565b9054911b1c918761242a565b90919082549060031b91821b915f19901b1916179055565b83549182156117645750509160609593917f63a2ece265013dc14ef474ec9db320c23a7f7138ecebbd5e70927347423300409795930190611756611746838361242a565b8154905f199060031b1b19169055565b559594819293948880611649565b634e487b7160e01b81526031600452fd5b8385634e487b7160e01b81526011600452fd5b50611649565b9193959798999a86606091611904606489889a9c8f89611919999b511690508015155f14611a15576117c36117d6919b612e25565b9254996117cf8b612e25565b9b16612e25565b906118cf6117e342612e25565b926040519c8d957f7b2274797065223a22656e676167656d656e74222c226964223a000000000000858801526118228151809287603a8b019101612286565b86017f2c2276616c7561626c65416374696f6e223a0000000000000000000000000000603a82015261185d8251809387604c85019101612286565b017f2c22706f696e7473223a00000000000000000000000000000000000000000000604c8201526118978251809386605685019101612286565b01917f2c2274696d657374616d70223a0000000000000000000000000000000000000060568401528351938491606385019101612286565b017f7d0000000000000000000000000000000000000000000000000000000000000060638201520360448101895201876121c2565b89015416950151611914816122cc565b612f4f565b604051947f5788879a00000000000000000000000000000000000000000000000000000000865260048601527f00000000000000000000000000000000000000000000000000000000000000008b86015289811015611a0257888561199981958f979583956044850152606484015260a0608484015260a48301906122a7565b03925af180156119f757918893918b98979695936119ba575b808d8c6115e4565b909294959697508391933d83116119f0575b6119d681836121c2565b810103126119ec5791869189969594938d6119b2565b8380fd5b503d6119cc565b6040513d87823e3d90fd5b8a89634e487b7160e01b81526021600452fd5b506117d66117c3600a9b612e25565b611abd9a50611acc91929650604a90611a46611a408754612e25565b91612e25565b8d6040519d8e937f56616c7561626c65416374696f6e20230000000000000000000000000000000083860152611a858151809285603089019101612286565b8401917f20636f6d706c6574696f6e202d20456e676167656d656e742023000000000000603084015283519384918785019101612286565b0103602a81018c52018a6121c2565b818c84015416908b86511690803b156101d657895f8094611b2c6040519e8f96879586947fd3fc986400000000000000000000000000000000000000000000000000000000865260048601528401526060604484015260648301906122a7565b03925af1938415610fe3578b988a95611b46575b8d6115d6565b611b519196506121ae565b5f948e611b40565b508c83511615156115d1565b611b6f90426124d3565b1690838b860154165f526008875260405f20905f52865260405f209067ffffffffffffffff198254161790558e84816115c0565b611bb89192503d805f833e61100881836121c2565b908f6115b0565b611bc88a612cdb565b61155f565b506004860154151561155a565b90503b15158c611553565b85879896999a5096919294961c161015611bfb57005b8291875f526006875260405f209460028287019182541617905560078501946801000000000000000068ff0000000000000000198754161786556001600160a01b035f54168015159081611d9e575b5080611d91575b611d83575b545f52600a875260405f20915f945b611caf575b5050505050916060917f63a2ece265013dc14ef474ec9db320c23a7f7138ecebbd5e709273474233004093546040519260028452828216818501521c166040820152a2005b825480861015611d7d5789611cc4878661242a565b905490851b1c14611cda57508380950194611c65565b93509193905f1993848101908111611d6a57611d0a9291611cfe6116ea928861242a565b9054911b1c918661242a565b8254908115611d585750917f63a2ece265013dc14ef474ec9db320c23a7f7138ecebbd5e7092734742330040959391606095930190611d4c611746838361242a565b55919381938780611c6a565b634e487b7160e01b5f5260316004525ffd5b83634e487b7160e01b5f5260116004525ffd5b50611c6a565b611d8c896128d6565b611c56565b5060048101541515611c51565b90503b15158a611c4a565b82634e487b7160e01b5f5260116004525ffd5b875467ffffffff00000000611dd863ffffffff838b1c166124aa565b891b169067ffffffff0000000019161788556114b4565b6064866013866040519263d647364f60e01b845260048401528201527f4a75726f7220616c726561647920766f746564000000000000000000000000006044820152fd5b606485601c856040519263d647364f60e01b845260048401528201527f566572696669636174696f6e20646561646c696e6520706173736564000000006044820152fd5b82601b6064926040519263d647364f60e01b845260048401528201527f456e676167656d656e7420616c7265616479207265736f6c76656400000000006044820152fd5b5050909192611407565b346101d65760203660031901126101d65760043580158015611fb6575b610785575f52600660205260405f208054906001600160a01b036001820154169060ff600382015491611f9282841667ffffffffffffffff9260078101549363ffffffff96611f62611f426004611f3b600287016121e4565b9501612453565b936040519b8c9b610140918d5260208d01528060408d01528b01906122a7565b93611f6c816122cc565b60608a0152818160081c1660808a015260481c1660a088015286820360c08801526122ea565b9280821660e08601528160201c1661010085015260401c1615156101208301520390f35b506004548111611ee2565b346101d65760203660031901126101d6576004356001600160a01b036002541633036102705780158015612067575b61078557805f52600660205260405f2060ff600782015460401c168061204d575b61201757005b600301600360ff1982541617905533907fbbced4f2f4eedf16b14afceeba0a9fcf96fc3475c059f0dbc23057708ae47aa65f80a3005b50600160ff600383015416612061816122cc565b14612011565b506004548111611ff0565b346101d65760203660031901126101d6576004355f52600660205260405f208054906001600160a01b036001820154169060ff6120b1600283016121e4565b60038301549082821693600767ffffffffffffffff910154926120f263ffffffff93604051998a99610120918b5260208b01528060408b01528901906122a7565b956120fc816122cc565b6060880152818160081c16608088015260481c1660a086015280821660c08601528160201c1660e085015260401c1615156101008301520390f35b346101d6575f3660031901126101d65760206001600160a01b035f5416604051908152f35b346101d6575f3660031901126101d6576020906005548152f35b90600182811c921680156121a4575b602083101461219057565b634e487b7160e01b5f52602260045260245ffd5b91607f1691612185565b67ffffffffffffffff8111610c9057604052565b90601f8019910116810190811067ffffffffffffffff821117610c9057604052565b9060405191825f82546121f681612176565b908184526020946001916001811690815f146122645750600114612226575b505050612224925003836121c2565b565b5f90815285812095935091905b81831061224c57505061222493508201015f8080612215565b85548884018501529485019487945091830191612233565b9250505061222494925060ff191682840152151560051b8201015f8080612215565b5f5b8381106122975750505f910152565b8181015183820152602001612288565b906020916122c081518092818552858086019101612286565b601f01601f1916010190565b600411156122d657565b634e487b7160e01b5f52602160045260245ffd5b9081518082526020808093019301915f5b828110612309575050505090565b83516001600160a01b0316855293810193928101926001016122fb565b600435906001600160a01b03821682036101d657565b602435906001600160a01b03821682036101d657565b60406003198201126101d6576004359160243567ffffffffffffffff928382116101d657806023830112156101d65781600401359384116101d657602484830101116101d6576024019190565b60209060206040818301928281528551809452019301915f5b8281106123c6575050505090565b8351855293810193928101926001016123b8565b346101d6575f3660031901126101d65760206040517f00000000000000000000000000000000000000000000000000000000000000008152f35b60409060031901126101d6576004359060243590565b805482101561243f575f5260205f2001905f90565b634e487b7160e01b5f52603260045260245ffd5b90604051918281549182825260209260208301915f5260205f20935f905b82821061248757505050612224925003836121c2565b85546001600160a01b031684526001958601958895509381019390910190612471565b63ffffffff8091169081146124bf5760010190565b634e487b7160e01b5f52601160045260245ffd5b919082018092116124bf57565b5f1981146124bf5760010190565b8181106124f9575050565b5f81556001016124ee565b90918060409360208452816020850152848401375f828201840152601f01601f1916010190565b519063ffffffff821682036101d657565b519081151582036101d657565b51906001600160a01b03821682036101d657565b67ffffffffffffffff8111610c9057601f01601f191660200190565b81601f820112156101d657805161258f8161255d565b9261259d60405194856121c2565b818452602082840101116101d6576125bb9160208085019101612286565b90565b67ffffffffffffffff8111610c905760051b60200190565b519067ffffffffffffffff821682036101d657565b60209182828203126101d657815167ffffffffffffffff928382116101d65701916103009384848403126101d65760405194850185811083821117610c90576040526126368461252b565b855261264381850161252b565b818601526126536040850161252b565b6040860152606084015160048110156101d65760608601526080840151608086015261268160a0850161252b565b60a086015260c084015160058110156101d65760c086015260e084015160e08601526101006126b181860161252b565b908601526101206126c381860161252b565b908601526101406126d581860161252b565b908601526101606126e781860161252b565b908601526101806126f981860161252b565b908601526101a061270b81860161252b565b908601526101c061271d81860161252b565b908601526101e061272f81860161253c565b9086015261020061274181860161252b565b90860152610220808501519086015261024061275e818601612549565b90860152610260808501518381116101d6578461277c918701612579565b90860152610280808501518381116101d6578461279a918701612579565b908601526102a091828501519081116101d65784019280601f850112156101d65783516127c6816125be565b946127d460405196876121c2565b818652838087019260051b8201019283116101d6578301905b82821061282257505050508301526102c06128098183016125d6565b9083015261281b6102e08092016125d6565b9082015290565b815181529083019083016127ed565b90680100000000000000008111610c905781549080835581811061285457505050565b612224925f5260205f2091820191016124ee565b9081549168010000000000000000831015610c9057826116ea9160016122249501815561242a565b9061289a826125be565b6128a760405191826121c2565b82815280926128b8601f19916125be565b0190602036910137565b805182101561243f5760209160051b010190565b5f815f5260209060068252604090815f20916004908184018054908115612cd1579061290181612890565b955f92600582019160060190845b848110612c5c5750505050508061292a575b50505050505050565b61293b819893949897959697612890565b955f5b828110612c2e5750505061295184612e25565b936002978896875f985b612c1457506129698861255d565b9861297685519a8b6121c2565b888a526129828961255d565b8a82019990601f1901368b375b808c15612a5a575f198201918211612a4757819c600a9283820493808502908582041485151715612a34578203918211612a215760ff809216603001918211612a21578d511115612a0e5760f81b7fff00000000000000000000000000000000000000000000000000000000000000165f1a908c01601f01539a61298f565b60328a634e487b7160e01b5f525260245ffd5b60118b634e487b7160e01b5f525260245ffd5b60118c634e487b7160e01b5f525260245ffd5b601189634e487b7160e01b5f525260245ffd5b50509297603c91959a5096612af09297612ae1959a8b519687937f656e676167656d656e742d00000000000000000000000000000000000000000088860152612aac815180928a602b89019101612286565b8401917f2d696e636f72726563742d766f7465732d000000000000000000000000000000602b84015251809386840190612286565b0103601c8101855201836121c2565b6001600160a01b035f5416917f000000000000000000000000000000000000000000000000000000000000000097833b156101d6577f3ccd14503f46adfbc41657ef19497340b23f3b699a4f070e86d385da7aa2f49c96855f8b612be9978c83612bd69c612bb1612b9f8a51988997889687957f9f0e661a00000000000000000000000000000000000000000000000000000000875286015260248501526080604485015260848401906122ea565b8281036003190160648401528b6122a7565b03925af19081612c01575b50612bf857925b81519687966060885260608801906122ea565b93151590860152848303908501526122a7565b0390a35f808080808080612921565b50600192612bc3565b612c0c9192506121ae565b5f905f612bbc565b97612c23600a919b989b6124e0565b9804809a979a61295b565b806001600160a01b03612c46600193859d9a9d6128c2565b5116612c52828b6128c2565b520198959861293e565b6001600160a01b03612c6e828461242a565b90549060031b1c16805f52848c528a8c8560ff91828c5f20541615612cc45752895f205416612ca4575b50506001905b0161290f565b96612cbc91612cb6826001959a6128c2565b526124e0565b95908a612c98565b5050505050600190612c9e565b5050505050505050565b5f815f5260209060068252604090815f20916004908184018054908115612cd15790612d0681612890565b955f92600582019160060190845b848110612db557505050505080612d2e5750505050505050565b612d3f819893949897959697612890565b955f5b828110612d8757505050612d5584612e25565b936001978896875f985b612d6d57506129698861255d565b97612d7c600a919b989b6124e0565b9804809a979a612d5f565b806001600160a01b03612d9f600193859d9a9d6128c2565b5116612dab828b6128c2565b5201989598612d42565b6001600160a01b03612dc7828461242a565b90549060031b1c16805f52848c528a8c8560ff91828c5f20541615612e185752895f20541615612dfe575b50506001905b01612d14565b96612e1091612cb6826001959a6128c2565b95908a612df2565b5050505050600190612df8565b8015612f0457905f9082805b612eea5750612e3f8261255d565b91612e4d60405193846121c2565b808352601f19612e5c8261255d565b013660208501375b808415612ee3575f1982019182116124bf578194600a92838204938085029085820414851517156124bf5782039182116124bf5760ff8092166030019182116124bf578551111561243f5760f81b7fff00000000000000000000000000000000000000000000000000000000000000165f1a908401601f015392612e64565b5050915090565b91612ef9600a919492946124e0565b920480939193612e31565b506040516040810181811067ffffffffffffffff821117610c9057604052600181527f3000000000000000000000000000000000000000000000000000000000000000602082015290565b600390612f5b816122cc565b14612f64575f90565b60029056fea2646970667358221220e48897d0848944e87db2bf28ddb4a845e748c38ad3b55b51c81950404c89cd5564736f6c63430008180033","linkReferences":{}},"methodIdentifiers":{"actionRegistry()":"e4e39678","appeals(uint256)":"acff8687","assignJurors(uint256,address[])":"75b0e1f1","communityId()":"7f50861a","engagements(uint256)":"0f2516f4","engagementsByParticipant(uint256,uint256)":"94efe610","getCommunityId()":"7e0766d4","getEngagement(uint256)":"2e94dfda","getEngagementInfo(uint256)":"7935b495","getEngagementJurors(uint256)":"b3afac9d","getEngagementsByParticipant(address)":"fa810fb2","getParticipantCooldown(address,uint256)":"327dac78","getPendingEngagements(uint256)":"5352d75e","governance()":"5aa6e675","hasJurorVoted(uint256,address)":"6c8dc288","lastAppealId()":"090563f4","lastEngagementId()":"649d3d29","membershipToken()":"62ad351b","participantCooldowns(address,uint256)":"b3d557e3","pendingEngagements(uint256,uint256)":"d6aa9b6e","revoke(uint256)":"20c5429b","submit(uint256,string)":"5d63f6c6","submitAppeal(uint256,string)":"3f6e3ca9","updateContracts(address,address)":"e692c49f","updateGovernance(address)":"b2561263","valuableActionSBT()":"e8901184","verifierManager()":"0cbd99a6","verify(uint256,bool)":"3e7cb0d3"},"id":9}