{"abi":[{"type":"constructor","inputs":[{"name":"manager","type":"address","internalType":"address"},{"name":"_actionRegistry","type":"address","internalType":"address"},{"name":"_verifierManager","type":"address","internalType":"address"},{"name":"_valuableActionSBT","type":"address","internalType":"address"},{"name":"_membershipToken","type":"address","internalType":"address"},{"name":"_communityId","type":"uint256","internalType":"uint256"}],"stateMutability":"nonpayable"},{"type":"function","name":"actionRegistry","inputs":[],"outputs":[{"name":"","type":"address","internalType":"contract ValuableActionRegistry"}],"stateMutability":"view"},{"type":"function","name":"activeEngagementCounts","inputs":[{"name":"","type":"address","internalType":"address"},{"name":"","type":"uint256","internalType":"uint256"}],"outputs":[{"name":"","type":"uint256","internalType":"uint256"}],"stateMutability":"view"},{"type":"function","name":"appeals","inputs":[{"name":"","type":"uint256","internalType":"uint256"}],"outputs":[{"name":"engagementId","type":"uint256","internalType":"uint256"},{"name":"appellant","type":"address","internalType":"address"},{"name":"appealReason","type":"string","internalType":"string"},{"name":"createdAt","type":"uint64","internalType":"uint64"},{"name":"status","type":"uint8","internalType":"enum Types.EngagementStatus"},{"name":"approvalsCount","type":"uint32","internalType":"uint32"},{"name":"rejectionsCount","type":"uint32","internalType":"uint32"},{"name":"resolved","type":"bool","internalType":"bool"}],"stateMutability":"view"},{"type":"function","name":"assignJurors","inputs":[{"name":"engagementId","type":"uint256","internalType":"uint256"},{"name":"jurors","type":"address[]","internalType":"address[]"}],"outputs":[],"stateMutability":"nonpayable"},{"type":"function","name":"authority","inputs":[],"outputs":[{"name":"","type":"address","internalType":"address"}],"stateMutability":"view"},{"type":"function","name":"communityId","inputs":[],"outputs":[{"name":"","type":"uint256","internalType":"uint256"}],"stateMutability":"view"},{"type":"function","name":"engagements","inputs":[{"name":"","type":"uint256","internalType":"uint256"}],"outputs":[{"name":"typeId","type":"uint256","internalType":"uint256"},{"name":"participant","type":"address","internalType":"address"},{"name":"evidenceCID","type":"string","internalType":"string"},{"name":"status","type":"uint8","internalType":"enum Types.EngagementStatus"},{"name":"createdAt","type":"uint64","internalType":"uint64"},{"name":"verifyDeadline","type":"uint64","internalType":"uint64"},{"name":"approvalsCount","type":"uint32","internalType":"uint32"},{"name":"rejectionsCount","type":"uint32","internalType":"uint32"},{"name":"resolved","type":"bool","internalType":"bool"}],"stateMutability":"view"},{"type":"function","name":"engagementsByParticipant","inputs":[{"name":"","type":"uint256","internalType":"uint256"},{"name":"","type":"uint256","internalType":"uint256"}],"outputs":[{"name":"","type":"uint256","internalType":"uint256"}],"stateMutability":"view"},{"type":"function","name":"getCommunityId","inputs":[],"outputs":[{"name":"","type":"uint256","internalType":"uint256"}],"stateMutability":"view"},{"type":"function","name":"getEngagement","inputs":[{"name":"engagementId","type":"uint256","internalType":"uint256"}],"outputs":[{"name":"typeId","type":"uint256","internalType":"uint256"},{"name":"participant","type":"address","internalType":"address"},{"name":"evidenceCID","type":"string","internalType":"string"},{"name":"status","type":"uint8","internalType":"enum Types.EngagementStatus"},{"name":"createdAt","type":"uint64","internalType":"uint64"},{"name":"verifyDeadline","type":"uint64","internalType":"uint64"},{"name":"jurors","type":"address[]","internalType":"address[]"},{"name":"approvalsCount","type":"uint32","internalType":"uint32"},{"name":"rejectionsCount","type":"uint32","internalType":"uint32"},{"name":"resolved","type":"bool","internalType":"bool"}],"stateMutability":"view"},{"type":"function","name":"getEngagementInfo","inputs":[{"name":"engagementId","type":"uint256","internalType":"uint256"}],"outputs":[{"name":"typeId","type":"uint256","internalType":"uint256"},{"name":"participant","type":"address","internalType":"address"},{"name":"evidenceCID","type":"string","internalType":"string"},{"name":"status","type":"uint8","internalType":"enum Types.EngagementStatus"},{"name":"createdAt","type":"uint64","internalType":"uint64"},{"name":"verifyDeadline","type":"uint64","internalType":"uint64"},{"name":"approvalsCount","type":"uint32","internalType":"uint32"},{"name":"rejectionsCount","type":"uint32","internalType":"uint32"}],"stateMutability":"view"},{"type":"function","name":"getEngagementJurors","inputs":[{"name":"engagementId","type":"uint256","internalType":"uint256"}],"outputs":[{"name":"jurors","type":"address[]","internalType":"address[]"}],"stateMutability":"view"},{"type":"function","name":"getEngagementsByParticipant","inputs":[{"name":"participant","type":"address","internalType":"address"}],"outputs":[{"name":"","type":"uint256[]","internalType":"uint256[]"}],"stateMutability":"view"},{"type":"function","name":"getParticipantCooldown","inputs":[{"name":"participant","type":"address","internalType":"address"},{"name":"typeId","type":"uint256","internalType":"uint256"}],"outputs":[{"name":"nextAllowed","type":"uint64","internalType":"uint64"}],"stateMutability":"view"},{"type":"function","name":"getPendingEngagements","inputs":[{"name":"typeId","type":"uint256","internalType":"uint256"}],"outputs":[{"name":"","type":"uint256[]","internalType":"uint256[]"}],"stateMutability":"view"},{"type":"function","name":"hasJurorVoted","inputs":[{"name":"engagementId","type":"uint256","internalType":"uint256"},{"name":"juror","type":"address","internalType":"address"}],"outputs":[{"name":"","type":"bool","internalType":"bool"}],"stateMutability":"view"},{"type":"function","name":"isConsumingScheduledOp","inputs":[],"outputs":[{"name":"","type":"bytes4","internalType":"bytes4"}],"stateMutability":"view"},{"type":"function","name":"lastAppealId","inputs":[],"outputs":[{"name":"","type":"uint256","internalType":"uint256"}],"stateMutability":"view"},{"type":"function","name":"lastEngagementId","inputs":[],"outputs":[{"name":"","type":"uint256","internalType":"uint256"}],"stateMutability":"view"},{"type":"function","name":"membershipToken","inputs":[],"outputs":[{"name":"","type":"address","internalType":"address"}],"stateMutability":"view"},{"type":"function","name":"participantCooldowns","inputs":[{"name":"","type":"address","internalType":"address"},{"name":"","type":"uint256","internalType":"uint256"}],"outputs":[{"name":"","type":"uint64","internalType":"uint64"}],"stateMutability":"view"},{"type":"function","name":"pendingEngagements","inputs":[{"name":"","type":"uint256","internalType":"uint256"},{"name":"","type":"uint256","internalType":"uint256"}],"outputs":[{"name":"","type":"uint256","internalType":"uint256"}],"stateMutability":"view"},{"type":"function","name":"resolveExpired","inputs":[{"name":"engagementId","type":"uint256","internalType":"uint256"}],"outputs":[],"stateMutability":"nonpayable"},{"type":"function","name":"revoke","inputs":[{"name":"engagementId","type":"uint256","internalType":"uint256"}],"outputs":[],"stateMutability":"nonpayable"},{"type":"function","name":"setAuthority","inputs":[{"name":"newAuthority","type":"address","internalType":"address"}],"outputs":[],"stateMutability":"nonpayable"},{"type":"function","name":"submit","inputs":[{"name":"typeId","type":"uint256","internalType":"uint256"},{"name":"evidenceCID","type":"string","internalType":"string"}],"outputs":[{"name":"engagementId","type":"uint256","internalType":"uint256"}],"stateMutability":"nonpayable"},{"type":"function","name":"submitAppeal","inputs":[{"name":"engagementId","type":"uint256","internalType":"uint256"},{"name":"reason","type":"string","internalType":"string"}],"outputs":[{"name":"appealId","type":"uint256","internalType":"uint256"}],"stateMutability":"nonpayable"},{"type":"function","name":"updateContracts","inputs":[{"name":"_verifierManager","type":"address","internalType":"address"},{"name":"_valuableActionSBT","type":"address","internalType":"address"}],"outputs":[],"stateMutability":"nonpayable"},{"type":"function","name":"valuableActionSBT","inputs":[],"outputs":[{"name":"","type":"address","internalType":"address"}],"stateMutability":"view"},{"type":"function","name":"verifierManager","inputs":[],"outputs":[{"name":"","type":"address","internalType":"address"}],"stateMutability":"view"},{"type":"function","name":"verify","inputs":[{"name":"engagementId","type":"uint256","internalType":"uint256"},{"name":"approve","type":"bool","internalType":"bool"}],"outputs":[],"stateMutability":"nonpayable"},{"type":"event","name":"AppealResolved","inputs":[{"name":"appealId","type":"uint256","indexed":true,"internalType":"uint256"},{"name":"status","type":"uint8","indexed":false,"internalType":"enum Types.EngagementStatus"}],"anonymous":false},{"type":"event","name":"AppealSubmitted","inputs":[{"name":"appealId","type":"uint256","indexed":true,"internalType":"uint256"},{"name":"engagementId","type":"uint256","indexed":true,"internalType":"uint256"},{"name":"appellant","type":"address","indexed":true,"internalType":"address"},{"name":"reason","type":"string","indexed":false,"internalType":"string"}],"anonymous":false},{"type":"event","name":"AuthorityUpdated","inputs":[{"name":"authority","type":"address","indexed":false,"internalType":"address"}],"anonymous":false},{"type":"event","name":"CooldownUpdated","inputs":[{"name":"participant","type":"address","indexed":true,"internalType":"address"},{"name":"typeId","type":"uint256","indexed":true,"internalType":"uint256"},{"name":"nextAllowed","type":"uint64","indexed":false,"internalType":"uint64"}],"anonymous":false},{"type":"event","name":"EngagementResolved","inputs":[{"name":"engagementId","type":"uint256","indexed":true,"internalType":"uint256"},{"name":"status","type":"uint8","indexed":false,"internalType":"enum Types.EngagementStatus"},{"name":"finalApprovals","type":"uint32","indexed":false,"internalType":"uint32"},{"name":"finalRejections","type":"uint32","indexed":false,"internalType":"uint32"}],"anonymous":false},{"type":"event","name":"EngagementRevoked","inputs":[{"name":"engagementId","type":"uint256","indexed":true,"internalType":"uint256"},{"name":"revoker","type":"address","indexed":true,"internalType":"address"}],"anonymous":false},{"type":"event","name":"EngagementSubmitted","inputs":[{"name":"engagementId","type":"uint256","indexed":true,"internalType":"uint256"},{"name":"typeId","type":"uint256","indexed":true,"internalType":"uint256"},{"name":"participant","type":"address","indexed":true,"internalType":"address"},{"name":"evidenceCID","type":"string","indexed":false,"internalType":"string"}],"anonymous":false},{"type":"event","name":"EngagementVerified","inputs":[{"name":"engagementId","type":"uint256","indexed":true,"internalType":"uint256"},{"name":"verifier","type":"address","indexed":true,"internalType":"address"},{"name":"approve","type":"bool","indexed":false,"internalType":"bool"}],"anonymous":false},{"type":"event","name":"FraudReportOutcome","inputs":[{"name":"engagementId","type":"uint256","indexed":true,"internalType":"uint256"},{"name":"communityId","type":"uint256","indexed":true,"internalType":"uint256"},{"name":"offenders","type":"address[]","indexed":false,"internalType":"address[]"},{"name":"success","type":"bool","indexed":false,"internalType":"bool"},{"name":"evidenceCID","type":"string","indexed":false,"internalType":"string"}],"anonymous":false},{"type":"event","name":"JurorsAssigned","inputs":[{"name":"engagementId","type":"uint256","indexed":true,"internalType":"uint256"},{"name":"jurors","type":"address[]","indexed":false,"internalType":"address[]"}],"anonymous":false},{"type":"error","name":"AccessManagedInvalidAuthority","inputs":[{"name":"authority","type":"address","internalType":"address"}]},{"type":"error","name":"AccessManagedRequiredDelay","inputs":[{"name":"caller","type":"address","internalType":"address"},{"name":"delay","type":"uint32","internalType":"uint32"}]},{"type":"error","name":"AccessManagedUnauthorized","inputs":[{"name":"caller","type":"address","internalType":"address"}]},{"type":"error","name":"InvalidInput","inputs":[{"name":"reason","type":"string","internalType":"string"}]},{"type":"error","name":"NotAuthorized","inputs":[{"name":"caller","type":"address","internalType":"address"}]},{"type":"error","name":"ZeroAddress","inputs":[]}],"bytecode":{"object":"0x60c034620001cc57601f6200367f38819003918201601f191683019291906001600160401b03841183851017620001d0578160c09284926040968752833981010312620001cc576200005181620001e4565b906200006060208201620001e4565b6200006d848301620001e4565b916200007c60608201620001e4565b60a06200008c60808401620001e4565b9201519460018060a01b038091169360018060a01b03199480865f5416175f557f2f658b440c35314f52658ea8a740e05b284cdc84dc9ae01e891f21b8933e7cad60208a51838152a115620001bb578116948515620001bb578116918215620001bb578116928315620001bb5716938415620001aa5785156200016557608052826001541617600155816002541617600255600354161760035560a052516134859081620001fa82396080518181816102b101528181610ae701526117d8015260a051818181610bc40152818161253e01526130b70152f35b865163d647364f60e01b815260206004820152601360248201527f496e76616c696420636f6d6d756e6974794964000000000000000000000000006044820152606490fd5b865163d92e233d60e01b8152600490fd5b875163d92e233d60e01b8152600490fd5b5f80fd5b634e487b7160e01b5f52604160045260245ffd5b51906001600160a01b0382168203620001cc5756fe6080806040526004361015610012575f80fd5b5f3560e01c908163090563f4146122a9575080630cbd99a6146122835780630f2516f4146121be57806320c5429b146121155780632e94dfda14612019578063327dac78146103375780633e7cb0d31461168c5780633f6e3ca9146113d15780635352d75e146113695780635d63f6c614610ac657806362ad351b14610aa05780636339372d14610990578063649d3d29146109735780636c8dc2881461092657806375b0e1f1146106dd5780637935b495146106275780637a9e5e4b1461056a5780637e0766d4146105655780637f50861a146105655780638fb36037146104f257806394efe610146104c35780639baa92411461047f578063acff8687146103c6578063b3afac9d14610385578063b3d557e314610337578063bf7e214f14610312578063d6aa9b6e146102d5578063e4e3967814610292578063e692c49f14610221578063e8901184146101fb5763fa810fb214610171575f80fd5b346101f7576020806003193601126101f7576001600160a01b03610193612473565b165f52600a60205260405f20906040519081602084549182815201935f5260205f20915f905b8282106101e0576101dc856101d08189038261230f565b604051918291826124ec565b0390f35b8354865294850194600193840193909101906101b9565b5f80fd5b346101f7575f3660031901126101f75760206001600160a01b0360025416604051908152f35b346101f75760403660031901126101f75761023a612473565b610242612489565b61024c36336129c2565b6001600160a01b038092168061027b575b50168061026657005b6001600160a01b031960025416176002555f80f35b6001600160a01b031960015416176001558261025d565b346101f7575f3660031901126101f75760206040516001600160a01b037f0000000000000000000000000000000000000000000000000000000000000000168152f35b346101f7576102e336612561565b905f52600b60205260405f2080548210156101f75760209161030491612577565b90546040519160031b1c8152f35b346101f7575f3660031901126101f75760206001600160a01b035f5416604051908152f35b346101f75760403660031901126101f7576001600160a01b03610358612473565b165f52600860205260405f206024355f52602052602067ffffffffffffffff60405f205416604051908152f35b346101f75760203660031901126101f7576004355f5260066020526101dc6103b2600460405f20016125a0565b604051918291602083526020830190612437565b346101f75760203660031901126101f7576004355f52600760205260405f208054906001600160a01b036001820154169060ff61040560028301612331565b916003810154926006838560401c169201549167ffffffffffffffff61044963ffffffff93604051998a99610100918b5260208b01528060408b01528901906123f4565b9516606087015261045981612419565b608086015280821660a08601528160201c1660c085015260401c16151560e08301520390f35b346101f75760403660031901126101f7576001600160a01b036104a0612473565b165f52600960205260405f206024355f52602052602060405f2054604051908152f35b346101f7576104d136612561565b905f52600a60205260405f2080548210156101f75760209161030491612577565b346101f7575f3660031901126101f7575f5460a01c60ff161561055d5760207f8fb36037000000000000000000000000000000000000000000000000000000005b7fffffffff0000000000000000000000000000000000000000000000000000000060405191168152f35b60205f610533565b612527565b346101f75760203660031901126101f757610583612473565b5f54906001600160a01b0390818316330361061157803b156105df577f2f658b440c35314f52658ea8a740e05b284cdc84dc9ae01e891f21b8933e7cad926020926001600160a01b0319921691829116175f55604051908152a1005b602491604051917fc2f31e5e000000000000000000000000000000000000000000000000000000008352166004820152fd5b602460405162d1953b60e31b8152336004820152fd5b346101f75760203660031901126101f7576004355f52600660205260405f208054906001600160a01b036001820154169060038101549060ff82169167ffffffffffffffff6007830154916106a5610686600263ffffffff9601612331565b604051988998610100918a5260208a01528060408a01528801906123f4565b946106af81612419565b6060870152818160081c16608087015260481c1660a085015281811660c085015260201c1660e08301520390f35b346101f75760403660031901126101f75760043567ffffffffffffffff6024358181116101f757366023820112156101f75780600401359182116101f7576024810190602436918460051b0101116101f7576001600160a01b03916001908360015416330361090f5784158015610904575b6108be57845f5260206006815260405f2060ff60038201541661077181612419565b61087857821561083357909492919060040161078d8282612963565b5f90815285812090855b83821061080d575050506040519481818701828852526040860194935f905b8382106107e657887ff083f0aa71f20298d1c44ffb7a3ecf49b9dcdaa51dcf4a0b519a39167bcb1c8a8989038aa2005b9091929394958635908282168092036101f7579081528301958301949392918401906107b6565b809793949597359188831683036101f75784879201928185015501909694939296610797565b6064826040519063d647364f60e01b82526004820152601260248201527f4e6f206a75726f72732070726f766964656400000000000000000000000000006044820152fd5b60405163d647364f60e01b815260206004820152601660248201527f456e676167656d656e74206e6f742070656e64696e67000000000000000000006044820152606490fd5b60405163d647364f60e01b815260206004820152601560248201527f496e76616c696420656e676167656d656e7420494400000000000000000000006044820152606490fd5b50600454851161074f565b6024604051634a0bfec160e01b8152336004820152fd5b346101f75760403660031901126101f75761093f612489565b6004355f5260066020526001600160a01b03600660405f200191165f52602052602060ff60405f2054166040519015158152f35b346101f7575f3660031901126101f7576020600454604051908152f35b346101f75760203660031901126101f75760043580158015610a95575b6108be57805f52600660205260405f2060ff600782015460401c16610a4f576003015460ff81166109dd81612419565b6108785760481c67ffffffffffffffff16421115610a00576109fe90612b96565b005b608460405163d647364f60e01b815260206004820152602160248201527f566572696669636174696f6e20646561646c696e65206e6f74207265616368656044820152601960fa1b6064820152fd5b60405163d647364f60e01b815260206004820152601b60248201527f456e676167656d656e7420616c7265616479207265736f6c76656400000000006044820152606490fd5b5060045481116109ad565b346101f7575f3660031901126101f75760206001600160a01b0360035416604051908152f35b346101f757610ad43661249f565b8092919215611324576001600160a01b037f0000000000000000000000000000000000000000000000000000000000000000169160405192632e7edc3160e11b84528160048501525f84602481845afa938415611044575f94611300575b506040517fe9ea801c000000000000000000000000000000000000000000000000000000008152826004820152602081602481855afa908115611044575f916112c6575b5015611281576020602491604051928380927fa2e7b04c0000000000000000000000000000000000000000000000000000000082528660048301525afa908115611044575f9161124f575b507f00000000000000000000000000000000000000000000000000000000000000000361120a57335f52600860205260405f20815f5260205267ffffffffffffffff60405f20541642106111bb57335f52600960205260405f20815f5260205260405f205463ffffffff6101c08501511681101561115057610c44600454612912565b9384600455845f52600660205260405f2083815560018101336001600160a01b031982541617905567ffffffffffffffff8511610f3857610c8860028201546122c3565b601f8111611112575b50845f601f82116001146110a8575f9161109d575b508560011b905f198760031b1c19161760028201555b60038101805470ffffffffffffffff000000000000000000610ce963ffffffff6101408701511642612956565b60481b16907fffffffffffffffffffffffffffffff000000000000000000000000000000000068ffffffffffffffff004260081b169116171790556001600160a01b03600154169182158015611094575b61104f5763ffffffff61012082015116604051934260208601524460408601528860608601526060855284608081011067ffffffffffffffff608087011117610f38575f916080860160405285516020870120907f1814a3f20000000000000000000000000000000000000000000000000000000060808801528a608488015260a487015260c48601528160e4860152608460808601918360808801915af1928315611044575f93610f91575b5063ffffffff61010084519201511611610f4c5760040181519067ffffffffffffffff8211610f38579081610e1e82899594612963565b60208301905f5260205f205f5b838110610f185750505050610e6f7ff083f0aa71f20298d1c44ffb7a3ecf49b9dcdaa51dcf4a0b519a39167bcb1c8a91604051918291602083526020830190612437565b0390a2815f52600b602052610e878460405f2061299a565b335f52600a602052610e9c8460405f2061299a565b60018101809111610f04577fa7d3ae224c6019488e1452211c528a36b619bfcb8881b5c85248ee05d320b9fc610ef96020968693335f526009895260405f20865f52895260405f205560405191829189835233978a840191612936565b0390a4604051908152f35b634e487b7160e01b5f52601160045260245ffd5b82516001600160a01b031681830155899550602090920191600101610e2b565b634e487b7160e01b5f52604160045260245ffd5b606460405163d647364f60e01b815260206004820152601c60248201527f496e73756666696369656e74206a75726f72732073656c6563746564000000006044820152fd5b9092503d805f608084013e610fa9816080840161230f565b81016020828203126101f75760808201519167ffffffffffffffff83116101f75760808201609f8483010112156101f7576080838201015190610feb8261269f565b93610ff9604051958661230f565b828552608060a0602087019460051b8385010101940184116101f7570160a001905b82821061102c575050509188610de7565b602080916110398461262a565b81520191019061101b565b6040513d5f823e3d90fd5b606460405163d647364f60e01b815260206004820152601b60248201527f56657269666965724d616e6167657220756e617661696c61626c6500000000006044820152fd5b50823b15610d3a565b905087013588610ca6565b9050600282015f5260205f20905f5b601f19881681106110fa575086601f198116106110e1575b5050600185811b016002820155610cbc565b8801355f19600388901b60f8161c1916905587806110cf565b9091602060018192858d0135815501930191016110b7565b61114090600283015f5260205f20601f880160051c81019160208910611146575b601f0160051c0190612920565b87610c91565b9091508190611133565b608460405163d647364f60e01b815260206004820152603460248201527f546f6f206d616e7920636f6e63757272656e7420656e676167656d656e74732060448201527f666f72207468697320616374696f6e20747970650000000000000000000000006064820152fd5b608460405163d647364f60e01b815260206004820152602160248201527f5061727469636970616e7420697320696e20636f6f6c646f776e20706572696f6044820152601960fa1b6064820152fd5b606460405163d647364f60e01b815260206004820152601e60248201527f416374696f6e207479706520636f6d6d756e697479206d69736d6174636800006044820152fd5b90506020813d602011611279575b8161126a6020938361230f565b810103126101f7575185610bc1565b3d915061125d565b606460405163d647364f60e01b815260206004820152601960248201527f416374696f6e2074797065206973206e6f7420616374697665000000000000006044820152fd5b90506020813d6020116112f8575b816112e16020938361230f565b810103126101f7576112f29061261d565b86610b76565b3d91506112d4565b61131d9194503d805f833e611315818361230f565b8101906126cc565b9285610b32565b606460405163d647364f60e01b815260206004820152601c60248201527f45766964656e6365204349442063616e6e6f7420626520656d707479000000006044820152fd5b346101f7576020806003193601126101f7576004355f52600b60205260405f20906040519081602084549182815201935f5260205f20915f905b8282106113ba576101dc856101d08189038261230f565b8354865294850194600193840193909101906113a3565b346101f7576113df3661249f565b82158015611681575b6108be57825f526020926006845260405f206001906001600160a01b038282015416330361090f5760ff600360029201541661142381612419565b036116175782156115d257611439600554612912565b9384600555845f526007865260405f20838155828101336001600160a01b0319825416179055600281019067ffffffffffffffff91828711610f385786889561148283546122c3565b8b601f82116115a3575b50505f601f83116001146115125792826003937f8b854ce0da61627b71db5b08aa8add12d290d4986ff2a3fa0a8a4bbec82adf40989693610ef998965f93611507575b501b905f198c861b1c19161790555b0190421668ffffffffffffffffff1982541617905560405191829189835233978a840191612936565b88013592508f6114cf565b5f8481528c81209293508a90601f198216908e5b82821061158857505092610ef9979592600395927f8b854ce0da61627b71db5b08aa8add12d290d4986ff2a3fa0a8a4bbec82adf409a989510611571575b50508a811b0190556114de565b8701355f198d871b60f8161c191690558d80611564565b848b013586558e9b5094860194938401938d9350018e611526565b6115cb91855f52815f2090601f860160051c820192861061114657601f0160051c0190612920565b8b8b61148c565b6064856040519063d647364f60e01b82526004820152601d60248201527f41707065616c20726561736f6e2063616e6e6f7420626520656d7074790000006044820152fd5b6084856040519063d647364f60e01b825260048201526024808201527f43616e206f6e6c792061707065616c2072656a656374656420656e676167656d60448201527f656e7473000000000000000000000000000000000000000000000000000000006064820152fd5b5060045483116113e8565b346101f75760403660031901126101f75760043560248035801515908181036101f7575f925f5b855f526006602052600460405f2001805482101561200f576116dd826001600160a01b0392612577565b919054339260031b1c16146116f4576001016116b3565b509091925060015b15611ffa57835f526020916006835260405f20916007830160ff815460401c16610a4f5767ffffffffffffffff9586600386015460481c164211611fb65760058501335f5280875260ff60405f205416611f7257335f52865260405f209360ff199460018682541617905560068601875260405f208581541660ff84161790555f14611f3f57815463ffffffff6117948183166125f7565b169063ffffffff19161782555b604051908152877f42617fa09c8caa7d4f81a73197c4ba0e471fece9de0cea84deadf0f77a840296873393a36001600160a01b03807f00000000000000000000000000000000000000000000000000000000000000001685549260405190632e7edc3160e11b9485835260048301525f828781865afa97881561104457610100986004935f91611f25575b5063ffffffff809a819201511693849201541603888111611f1257881660010190888211611f1257549188831610611ef15750505f92895f526006885260405f2095600160038801918254161790556801000000000000000068ff00000000000000001960078801541617600787015582600154168015159081611ee6575b5080611ed9575b611ecb575b5f865491866040518095819382528560048301525afa918215611044575f92611eaf575b5088876101a08401511680611e70575b505050816003541680151580611e64575b611d3e575b50816002541680611b07575b5050856001850197828954167fd8eb0cefdb0127a28f46f819c890dd12498a91c4e8651ad37cdb4c198f578273875493849383885260088252604088208589528252604088205416604051908152a38252600b86526040822096825b885480821015611af8578a61197e838c612577565b90549060031b1c146119935750600101611969565b905f9992939495969798991991828101908111611ae557906119c96119bb6119e19386612577565b90549060031b1c9185612577565b90919082549060031b91821b915f19901b1916179055565b81548015611ad2570190611a086119f88383612577565b8154905f199060031b1b19169055565b555b5416808252600986526040822090845491828452875260408320549384611a74575b50505050509160609160077f63a2ece265013dc14ef474ec9db320c23a7f7138ecebbd5e70927347423300409401546040519260018452828216818501521c166040820152a2005b5f198501948511611ac0575082526009865260408083209183529086529020558160077f63a2ece265013dc14ef474ec9db320c23a7f7138ecebbd5e7092734742330040606088611a2c565b83634e487b7160e01b81526011600452fd5b8686634e487b7160e01b81526031600452fd5b8787634e487b7160e01b81526011600452fd5b50509091929394959650611a0a565b815187168015611d36575b611b1b8b61330b565b611c656064895492611b378c611b308661330b565b961661330b565b8d611c30611b444261330b565b926040519889957f7b2274797065223a22656e676167656d656e74222c226964223a00000000000085880152611b838151809287603a8b0191016123d3565b86017f2c2276616c7561626c65416374696f6e223a0000000000000000000000000000603a820152611bbe8251809387604c850191016123d3565b017f2c22706f696e7473223a00000000000000000000000000000000000000000000604c820152611bf882518093866056850191016123d3565b01917f2c2274696d657374616d70223a00000000000000000000000000000000000000605684015283519384916063850191016123d3565b017f7d00000000000000000000000000000000000000000000000000000000000000606382015203604481018552018361230f565b611c8260608660018b015416950151611c7d81612419565b613435565b604051947f56ea547f00000000000000000000000000000000000000000000000000000000865260048601526003811015611d23578685611cdd81958e979583958d85015260448401526080606484015260848301906123f4565b03925af18015611d18579087911561190d57813d8311611d11575b611d02818361230f565b810103126101f757858961190d565b503d611cf8565b6040513d85823e3d90fd5b8787634e487b7160e01b81526021600452fd5b50600a611b12565b611dd1611de0604a8c611d5a611d548b5461330b565b9161330b565b8c6040519586937f56616c7561626c65416374696f6e20230000000000000000000000000000000083860152611d9981518092856030890191016123d3565b8401917f20636f6d706c6574696f6e202d20456e676167656d656e7420230000000000006030840152835193849187850191016123d3565b0103602a81018452018261230f565b83600188015416908884511692803b156101f757611e42935f8094604051968795869485937fd3fc986400000000000000000000000000000000000000000000000000000000855260048501528d8401526060604484015260648301906123f4565b03925af18015611044571561190157611e5c9193506122fb565b5f9189611901565b508682511615156118fc565b611e7a9042612956565b1690836001880154165f526008895260405f20905f52885260405f209067ffffffffffffffff198254161790558988816118eb565b611ec49192503d805f833e611315818361230f565b908a6118db565b611ed48a612dcd565b6118b7565b50600486015415156118b2565b90503b15158b6118ab565b94509596975050505083915016921c161015611f0957005b6109fe90612b96565b86634e487b7160e01b5f5260116004525ffd5b611f3991503d805f833e611315818361230f565b8d61182c565b815467ffffffff00000000611f5b63ffffffff838a1c166125f7565b881b169067ffffffff0000000019161782556117a1565b6064876013866040519263d647364f60e01b845260048401528201527f4a75726f7220616c726561647920766f746564000000000000000000000000006044820152fd5b606486601c856040519263d647364f60e01b845260048401528201527f566572696669636174696f6e20646561646c696e6520706173736564000000006044820152fd5b604051634a0bfec160e01b8152336004820152fd5b50509091926116fc565b346101f75760203660031901126101f7576004358015801561210a575b6108be575f52600660205260405f208054906001600160a01b036001820154169060ff6003820154916120e682841667ffffffffffffffff9260078101549363ffffffff966120b6612096600461208f60028701612331565b95016125a0565b936040519b8c9b610140918d5260208d01528060408d01528b01906123f4565b936120c081612419565b60608a0152818160081c1660808a015260481c1660a088015286820360c0880152612437565b9280821660e08601528160201c1661010085015260401c1615156101208301520390f35b506004548111612036565b346101f75760203660031901126101f75760043561213336336129c2565b801580156121b3575b6108be57805f52600660205260405f2060ff600782015460401c1680612199575b61216357005b600301600360ff1982541617905533907fbbced4f2f4eedf16b14afceeba0a9fcf96fc3475c059f0dbc23057708ae47aa65f80a3005b50600160ff6003830154166121ad81612419565b1461215d565b50600454811161213c565b346101f75760203660031901126101f7576004355f52600660205260405f208054906001600160a01b036001820154169060ff6121fd60028301612331565b60038301549082821693600767ffffffffffffffff9101549261223e63ffffffff93604051998a99610120918b5260208b01528060408b01528901906123f4565b9561224881612419565b6060880152818160081c16608088015260481c1660a086015280821660c08601528160201c1660e085015260401c1615156101008301520390f35b346101f7575f3660031901126101f75760206001600160a01b0360015416604051908152f35b346101f7575f3660031901126101f7576020906005548152f35b90600182811c921680156122f1575b60208310146122dd57565b634e487b7160e01b5f52602260045260245ffd5b91607f16916122d2565b67ffffffffffffffff8111610f3857604052565b90601f8019910116810190811067ffffffffffffffff821117610f3857604052565b9060405191825f8254612343816122c3565b908184526020946001916001811690815f146123b15750600114612373575b5050506123719250038361230f565b565b5f90815285812095935091905b81831061239957505061237193508201015f8080612362565b85548884018501529485019487945091830191612380565b9250505061237194925060ff191682840152151560051b8201015f8080612362565b5f5b8381106123e45750505f910152565b81810151838201526020016123d5565b9060209161240d815180928185528580860191016123d3565b601f01601f1916010190565b6004111561242357565b634e487b7160e01b5f52602160045260245ffd5b9081518082526020808093019301915f5b828110612456575050505090565b83516001600160a01b031685529381019392810192600101612448565b600435906001600160a01b03821682036101f757565b602435906001600160a01b03821682036101f757565b60406003198201126101f7576004359160243567ffffffffffffffff928382116101f757806023830112156101f75781600401359384116101f757602484830101116101f7576024019190565b60209060206040818301928281528551809452019301915f5b828110612513575050505090565b835185529381019392810192600101612505565b346101f7575f3660031901126101f75760206040517f00000000000000000000000000000000000000000000000000000000000000008152f35b60409060031901126101f7576004359060243590565b805482101561258c575f5260205f2001905f90565b634e487b7160e01b5f52603260045260245ffd5b90604051918281549182825260209260208301915f5260205f20935f905b8282106125d4575050506123719250038361230f565b85546001600160a01b0316845260019586019588955093810193909101906125be565b63ffffffff809116908114610f045760010190565b519063ffffffff821682036101f757565b519081151582036101f757565b51906001600160a01b03821682036101f757565b67ffffffffffffffff8111610f3857601f01601f191660200190565b81601f820112156101f75780516126708161263e565b9261267e604051948561230f565b818452602082840101116101f75761269c91602080850191016123d3565b90565b67ffffffffffffffff8111610f385760051b60200190565b519067ffffffffffffffff821682036101f757565b60209182828203126101f757815167ffffffffffffffff928382116101f75701916103009384848403126101f75760405194850185811083821117610f38576040526127178461260c565b855261272481850161260c565b818601526127346040850161260c565b6040860152606084015160048110156101f75760608601526080840151608086015261276260a0850161260c565b60a086015260c084015160058110156101f75760c086015260e084015160e086015261010061279281860161260c565b908601526101206127a481860161260c565b908601526101406127b681860161260c565b908601526101606127c881860161260c565b908601526101806127da81860161260c565b908601526101a06127ec81860161260c565b908601526101c06127fe81860161260c565b908601526101e061281081860161261d565b9086015261020061282281860161260c565b90860152610220808501519086015261024061283f81860161262a565b90860152610260808501518381116101f7578461285d91870161265a565b90860152610280808501518381116101f7578461287b91870161265a565b908601526102a091828501519081116101f75784019280601f850112156101f75783516128a78161269f565b946128b5604051968761230f565b818652838087019260051b8201019283116101f7578301905b82821061290357505050508301526102c06128ea8183016126b7565b908301526128fc6102e08092016126b7565b9082015290565b815181529083019083016128ce565b5f198114610f045760010190565b81811061292b575050565b5f8155600101612920565b908060209392818452848401375f828201840152601f01601f1916010190565b91908201809211610f0457565b90680100000000000000008111610f385781549080835581811061298657505050565b612371925f5260205f209182019101612920565b9081549168010000000000000000831015610f3857826119c991600161237195018155612577565b5f915f54916001600160a01b039081841692806004116101f7575f8060409485519060208201957fb700961300000000000000000000000000000000000000000000000000000000875216948560248301523060448301527fffffffff000000000000000000000000000000000000000000000000000000005f351660648301526064825260a082019082821067ffffffffffffffff831117610f385787925f928452828052826020525190895afa612b83575b15612a85575b50505050505050565b63ffffffff1615612b6d57740100000000000000000000000000000000000000007fffffffffffffffffffffff00ffffffffffffffffffffffffffffffffffffffff809616175f55833b156101f7576064935f928385519687809581947f94c7d7ee00000000000000000000000000000000000000000000000000000000835260048301528860248301528060448301528084848401378181018301849052601f01601f191681010301925af1908115612b645750612b51575b5081541690555f808080808080612a7c565b612b5c9192506122fb565b5f905f612b3f565b513d5f823e3d90fd5b50602491519062d1953b60e31b82526004820152fd5b50505f516020518060201c150290612a76565b805f526020600681526040805f2060039060038101600260ff1982541617905560078101916801000000000000000068ff0000000000000000198454161783556001600160a01b03906001809183600154168015159081612d7c575b5080612d6f575b612d61575b84545f908152600b89528781209350825b612cd2575b50505050600182015416805f5260098552835f20915491825f528552835f205480612c81575b505050916060917f63a2ece265013dc14ef474ec9db320c23a7f7138ecebbd5e7092734742330040935463ffffffff9082519360028552828216818601521c1690820152a2565b5f959391949295198101908111610f04577f63a2ece265013dc14ef474ec9db320c23a7f7138ecebbd5e7092734742330040956060955f5260098552835f20905f528452825f205591938193612c3a565b835480821015612d5b578a612ce78387612577565b905490851b1c14612cfb5750820182612c0f565b5f199350838101908111610f0457612d2692612d1a6119c99287612577565b9054911b1c9185612577565b81548015612d47570190612d3d6119f88383612577565b555f808080612c14565b634e487b7160e01b5f52603160045260245ffd5b50612c14565b612d6a896131c8565b612bfe565b5060048501541515612bf9565b90503b15155f612bf2565b90612d918261269f565b612d9e604051918261230f565b8281528092612daf601f199161269f565b0190602036910137565b805182101561258c5760209160051b010190565b5f90805f5260209060068252604090815f209060049081830180549081156131be5790612df981612d87565b945f92600582019160060190845b84811061314f57505050505080612e215750505050505050565b612e32819893949897959697612d87565b975f5b82811061312157505050612e488161330b565b936001978896875f985b6131075750612e608861263e565b98612e6d82519a8b61230f565b888a52612e798961263e565b8a82019990601f1901368b375b808c15612f51575f198201918211612f3e57819c600a9283820493808502908582041485151715612f2b578203918211612f185760ff809216603001918211612f18578d511115612f055760f81b7fff00000000000000000000000000000000000000000000000000000000000000165f1a908c01601f01539a612e86565b60328a634e487b7160e01b5f525260245ffd5b60118b634e487b7160e01b5f525260245ffd5b60118c634e487b7160e01b5f525260245ffd5b601189634e487b7160e01b5f525260245ffd5b50509296612fe692959a50603c919498612fd79a86519b8c937f656e676167656d656e742d00000000000000000000000000000000000000000088860152612fa2815180928a602b890191016123d3565b8401917f2d696e636f72726563742d766f7465732d000000000000000000000000000000602b840152518093868401906123d3565b0103601c81018a52018861230f565b6001600160a01b036001541691823b156101f7577f3ccd14503f46adfbc41657ef19497340b23f3b699a4f070e86d385da7aa2f49c956130705f866130dc968b836130a79b8f613082908a51988997889687957fe512c8cd000000000000000000000000000000000000000000000000000000008752860152606060248601526064850190612437565b838103600319016044850152906123f4565b03925af190816130f4575b506130eb57915b8151958695606087526060870190612437565b92151590850152838203908401527f0000000000000000000000000000000000000000000000000000000000000000966123f4565b0390a35f808080808080612a7c565b50600191613094565b6130ff9192506122fb565b5f905f61308d565b97613116600a919b989b612912565b9804809a979a612e52565b806001600160a01b03613139600193859d9a9d612db9565b5116613145828a612db9565b5201989598612e35565b6001600160a01b036131618284612577565b90549060031b1c16805f52848c5260ff808c5f205416156131b457848d528b5f20541615613195575b506001905b01612e07565b866131ad916131a7600194998d612db9565b52612912565b959061318a565b505060019061318f565b5050505050505050565b5f90805f5260209060068252604090815f209060049081830180549081156131be57906131f481612d87565b945f92600582019160060190845b8481106132a35750505050508061321c5750505050505050565b61322d819893949897959697612d87565b975f5b828110613275575050506132438161330b565b936002978896875f985b61325b5750612e608861263e565b9761326a600a919b989b612912565b9804809a979a61324d565b806001600160a01b0361328d600193859d9a9d612db9565b5116613299828a612db9565b5201989598613230565b6001600160a01b036132b58284612577565b90549060031b1c16805f52848c5260ff808c5f2054161561330157848d528b5f2054166132e8575b506001905b01613202565b866132fa916131a7600194998d612db9565b95906132dd565b50506001906132e2565b80156133ea57905f9082805b6133d057506133258261263e565b91613333604051938461230f565b808352601f196133428261263e565b013660208501375b8084156133c9575f198201918211610f04578194600a9283820493808502908582041485151715610f04578203918211610f045760ff809216603001918211610f04578551111561258c5760f81b7fff00000000000000000000000000000000000000000000000000000000000000165f1a908401601f01539261334a565b5050915090565b916133df600a91949294612912565b920480939193613317565b506040516040810181811067ffffffffffffffff821117610f3857604052600181527f3000000000000000000000000000000000000000000000000000000000000000602082015290565b60039061344181612419565b1461344a575f90565b60029056fea26469706673582212207ffdc9f02ede6bdceb46d9f5e1692fac5a842cd55e88f31138178247a01165ca64736f6c63430008180033","linkReferences":{}},"methodIdentifiers":{"actionRegistry()":"e4e39678","activeEngagementCounts(address,uint256)":"9baa9241","appeals(uint256)":"acff8687","assignJurors(uint256,address[])":"75b0e1f1","authority()":"bf7e214f","communityId()":"7f50861a","engagements(uint256)":"0f2516f4","engagementsByParticipant(uint256,uint256)":"94efe610","getCommunityId()":"7e0766d4","getEngagement(uint256)":"2e94dfda","getEngagementInfo(uint256)":"7935b495","getEngagementJurors(uint256)":"b3afac9d","getEngagementsByParticipant(address)":"fa810fb2","getParticipantCooldown(address,uint256)":"327dac78","getPendingEngagements(uint256)":"5352d75e","hasJurorVoted(uint256,address)":"6c8dc288","isConsumingScheduledOp()":"8fb36037","lastAppealId()":"090563f4","lastEngagementId()":"649d3d29","membershipToken()":"62ad351b","participantCooldowns(address,uint256)":"b3d557e3","pendingEngagements(uint256,uint256)":"d6aa9b6e","resolveExpired(uint256)":"6339372d","revoke(uint256)":"20c5429b","setAuthority(address)":"7a9e5e4b","submit(uint256,string)":"5d63f6c6","submitAppeal(uint256,string)":"3f6e3ca9","updateContracts(address,address)":"e692c49f","valuableActionSBT()":"e8901184","verifierManager()":"0cbd99a6","verify(uint256,bool)":"3e7cb0d3"},"id":17}