{"abi":[{"type":"constructor","inputs":[{"name":"manager","type":"address","internalType":"address"},{"name":"_actionRegistry","type":"address","internalType":"address"},{"name":"_verifierManager","type":"address","internalType":"address"},{"name":"_valuableActionSBT","type":"address","internalType":"address"},{"name":"_membershipToken","type":"address","internalType":"address"},{"name":"_communityId","type":"uint256","internalType":"uint256"}],"stateMutability":"nonpayable"},{"type":"function","name":"actionRegistry","inputs":[],"outputs":[{"name":"","type":"address","internalType":"contract ValuableActionRegistry"}],"stateMutability":"view"},{"type":"function","name":"activeEngagementCounts","inputs":[{"name":"","type":"address","internalType":"address"},{"name":"","type":"uint256","internalType":"uint256"}],"outputs":[{"name":"","type":"uint256","internalType":"uint256"}],"stateMutability":"view"},{"type":"function","name":"appeals","inputs":[{"name":"","type":"uint256","internalType":"uint256"}],"outputs":[{"name":"engagementId","type":"uint256","internalType":"uint256"},{"name":"appellant","type":"address","internalType":"address"},{"name":"appealReason","type":"string","internalType":"string"},{"name":"createdAt","type":"uint64","internalType":"uint64"},{"name":"status","type":"uint8","internalType":"enum Types.EngagementStatus"},{"name":"approvalsCount","type":"uint32","internalType":"uint32"},{"name":"rejectionsCount","type":"uint32","internalType":"uint32"},{"name":"resolved","type":"bool","internalType":"bool"}],"stateMutability":"view"},{"type":"function","name":"assignJurors","inputs":[{"name":"engagementId","type":"uint256","internalType":"uint256"},{"name":"jurors","type":"address[]","internalType":"address[]"}],"outputs":[],"stateMutability":"nonpayable"},{"type":"function","name":"authority","inputs":[],"outputs":[{"name":"","type":"address","internalType":"address"}],"stateMutability":"view"},{"type":"function","name":"communityId","inputs":[],"outputs":[{"name":"","type":"uint256","internalType":"uint256"}],"stateMutability":"view"},{"type":"function","name":"engagements","inputs":[{"name":"","type":"uint256","internalType":"uint256"}],"outputs":[{"name":"typeId","type":"uint256","internalType":"uint256"},{"name":"participant","type":"address","internalType":"address"},{"name":"evidenceCID","type":"string","internalType":"string"},{"name":"status","type":"uint8","internalType":"enum Types.EngagementStatus"},{"name":"createdAt","type":"uint64","internalType":"uint64"},{"name":"verifyDeadline","type":"uint64","internalType":"uint64"},{"name":"approvalsCount","type":"uint32","internalType":"uint32"},{"name":"rejectionsCount","type":"uint32","internalType":"uint32"},{"name":"resolved","type":"bool","internalType":"bool"}],"stateMutability":"view"},{"type":"function","name":"engagementsByParticipant","inputs":[{"name":"","type":"uint256","internalType":"uint256"},{"name":"","type":"uint256","internalType":"uint256"}],"outputs":[{"name":"","type":"uint256","internalType":"uint256"}],"stateMutability":"view"},{"type":"function","name":"getCommunityId","inputs":[],"outputs":[{"name":"","type":"uint256","internalType":"uint256"}],"stateMutability":"view"},{"type":"function","name":"getEngagement","inputs":[{"name":"engagementId","type":"uint256","internalType":"uint256"}],"outputs":[{"name":"typeId","type":"uint256","internalType":"uint256"},{"name":"participant","type":"address","internalType":"address"},{"name":"evidenceCID","type":"string","internalType":"string"},{"name":"status","type":"uint8","internalType":"enum Types.EngagementStatus"},{"name":"createdAt","type":"uint64","internalType":"uint64"},{"name":"verifyDeadline","type":"uint64","internalType":"uint64"},{"name":"jurors","type":"address[]","internalType":"address[]"},{"name":"approvalsCount","type":"uint32","internalType":"uint32"},{"name":"rejectionsCount","type":"uint32","internalType":"uint32"},{"name":"resolved","type":"bool","internalType":"bool"}],"stateMutability":"view"},{"type":"function","name":"getEngagementInfo","inputs":[{"name":"engagementId","type":"uint256","internalType":"uint256"}],"outputs":[{"name":"typeId","type":"uint256","internalType":"uint256"},{"name":"participant","type":"address","internalType":"address"},{"name":"evidenceCID","type":"string","internalType":"string"},{"name":"status","type":"uint8","internalType":"enum Types.EngagementStatus"},{"name":"createdAt","type":"uint64","internalType":"uint64"},{"name":"verifyDeadline","type":"uint64","internalType":"uint64"},{"name":"approvalsCount","type":"uint32","internalType":"uint32"},{"name":"rejectionsCount","type":"uint32","internalType":"uint32"}],"stateMutability":"view"},{"type":"function","name":"getEngagementJurors","inputs":[{"name":"engagementId","type":"uint256","internalType":"uint256"}],"outputs":[{"name":"jurors","type":"address[]","internalType":"address[]"}],"stateMutability":"view"},{"type":"function","name":"getEngagementsByParticipant","inputs":[{"name":"participant","type":"address","internalType":"address"}],"outputs":[{"name":"","type":"uint256[]","internalType":"uint256[]"}],"stateMutability":"view"},{"type":"function","name":"getParticipantCooldown","inputs":[{"name":"participant","type":"address","internalType":"address"},{"name":"typeId","type":"uint256","internalType":"uint256"}],"outputs":[{"name":"nextAllowed","type":"uint64","internalType":"uint64"}],"stateMutability":"view"},{"type":"function","name":"getPendingEngagements","inputs":[{"name":"typeId","type":"uint256","internalType":"uint256"}],"outputs":[{"name":"","type":"uint256[]","internalType":"uint256[]"}],"stateMutability":"view"},{"type":"function","name":"hasJurorVoted","inputs":[{"name":"engagementId","type":"uint256","internalType":"uint256"},{"name":"juror","type":"address","internalType":"address"}],"outputs":[{"name":"","type":"bool","internalType":"bool"}],"stateMutability":"view"},{"type":"function","name":"isConsumingScheduledOp","inputs":[],"outputs":[{"name":"","type":"bytes4","internalType":"bytes4"}],"stateMutability":"view"},{"type":"function","name":"lastAppealId","inputs":[],"outputs":[{"name":"","type":"uint256","internalType":"uint256"}],"stateMutability":"view"},{"type":"function","name":"lastEngagementId","inputs":[],"outputs":[{"name":"","type":"uint256","internalType":"uint256"}],"stateMutability":"view"},{"type":"function","name":"membershipToken","inputs":[],"outputs":[{"name":"","type":"address","internalType":"address"}],"stateMutability":"view"},{"type":"function","name":"participantCooldowns","inputs":[{"name":"","type":"address","internalType":"address"},{"name":"","type":"uint256","internalType":"uint256"}],"outputs":[{"name":"","type":"uint64","internalType":"uint64"}],"stateMutability":"view"},{"type":"function","name":"pendingEngagements","inputs":[{"name":"","type":"uint256","internalType":"uint256"},{"name":"","type":"uint256","internalType":"uint256"}],"outputs":[{"name":"","type":"uint256","internalType":"uint256"}],"stateMutability":"view"},{"type":"function","name":"resolveExpired","inputs":[{"name":"engagementId","type":"uint256","internalType":"uint256"}],"outputs":[],"stateMutability":"nonpayable"},{"type":"function","name":"revoke","inputs":[{"name":"engagementId","type":"uint256","internalType":"uint256"}],"outputs":[],"stateMutability":"nonpayable"},{"type":"function","name":"setAuthority","inputs":[{"name":"newAuthority","type":"address","internalType":"address"}],"outputs":[],"stateMutability":"nonpayable"},{"type":"function","name":"submit","inputs":[{"name":"typeId","type":"uint256","internalType":"uint256"},{"name":"evidenceCID","type":"string","internalType":"string"}],"outputs":[{"name":"engagementId","type":"uint256","internalType":"uint256"}],"stateMutability":"nonpayable"},{"type":"function","name":"submitAppeal","inputs":[{"name":"engagementId","type":"uint256","internalType":"uint256"},{"name":"reason","type":"string","internalType":"string"}],"outputs":[{"name":"appealId","type":"uint256","internalType":"uint256"}],"stateMutability":"nonpayable"},{"type":"function","name":"updateContracts","inputs":[{"name":"_verifierManager","type":"address","internalType":"address"},{"name":"_valuableActionSBT","type":"address","internalType":"address"}],"outputs":[],"stateMutability":"nonpayable"},{"type":"function","name":"valuableActionSBT","inputs":[],"outputs":[{"name":"","type":"address","internalType":"address"}],"stateMutability":"view"},{"type":"function","name":"verifierManager","inputs":[],"outputs":[{"name":"","type":"address","internalType":"address"}],"stateMutability":"view"},{"type":"function","name":"verify","inputs":[{"name":"engagementId","type":"uint256","internalType":"uint256"},{"name":"approve","type":"bool","internalType":"bool"}],"outputs":[],"stateMutability":"nonpayable"},{"type":"event","name":"AppealResolved","inputs":[{"name":"appealId","type":"uint256","indexed":true,"internalType":"uint256"},{"name":"status","type":"uint8","indexed":false,"internalType":"enum Types.EngagementStatus"}],"anonymous":false},{"type":"event","name":"AppealSubmitted","inputs":[{"name":"appealId","type":"uint256","indexed":true,"internalType":"uint256"},{"name":"engagementId","type":"uint256","indexed":true,"internalType":"uint256"},{"name":"appellant","type":"address","indexed":true,"internalType":"address"},{"name":"reason","type":"string","indexed":false,"internalType":"string"}],"anonymous":false},{"type":"event","name":"AuthorityUpdated","inputs":[{"name":"authority","type":"address","indexed":false,"internalType":"address"}],"anonymous":false},{"type":"event","name":"CooldownUpdated","inputs":[{"name":"participant","type":"address","indexed":true,"internalType":"address"},{"name":"typeId","type":"uint256","indexed":true,"internalType":"uint256"},{"name":"nextAllowed","type":"uint64","indexed":false,"internalType":"uint64"}],"anonymous":false},{"type":"event","name":"EngagementResolved","inputs":[{"name":"engagementId","type":"uint256","indexed":true,"internalType":"uint256"},{"name":"status","type":"uint8","indexed":false,"internalType":"enum Types.EngagementStatus"},{"name":"finalApprovals","type":"uint32","indexed":false,"internalType":"uint32"},{"name":"finalRejections","type":"uint32","indexed":false,"internalType":"uint32"}],"anonymous":false},{"type":"event","name":"EngagementRevoked","inputs":[{"name":"engagementId","type":"uint256","indexed":true,"internalType":"uint256"},{"name":"revoker","type":"address","indexed":true,"internalType":"address"}],"anonymous":false},{"type":"event","name":"EngagementSubmitted","inputs":[{"name":"engagementId","type":"uint256","indexed":true,"internalType":"uint256"},{"name":"typeId","type":"uint256","indexed":true,"internalType":"uint256"},{"name":"participant","type":"address","indexed":true,"internalType":"address"},{"name":"evidenceCID","type":"string","indexed":false,"internalType":"string"}],"anonymous":false},{"type":"event","name":"EngagementVerified","inputs":[{"name":"engagementId","type":"uint256","indexed":true,"internalType":"uint256"},{"name":"verifier","type":"address","indexed":true,"internalType":"address"},{"name":"approve","type":"bool","indexed":false,"internalType":"bool"}],"anonymous":false},{"type":"event","name":"FraudReportOutcome","inputs":[{"name":"engagementId","type":"uint256","indexed":true,"internalType":"uint256"},{"name":"communityId","type":"uint256","indexed":true,"internalType":"uint256"},{"name":"offenders","type":"address[]","indexed":false,"internalType":"address[]"},{"name":"success","type":"bool","indexed":false,"internalType":"bool"},{"name":"evidenceCID","type":"string","indexed":false,"internalType":"string"}],"anonymous":false},{"type":"event","name":"JurorsAssigned","inputs":[{"name":"engagementId","type":"uint256","indexed":true,"internalType":"uint256"},{"name":"jurors","type":"address[]","indexed":false,"internalType":"address[]"}],"anonymous":false},{"type":"error","name":"AccessManagedInvalidAuthority","inputs":[{"name":"authority","type":"address","internalType":"address"}]},{"type":"error","name":"AccessManagedRequiredDelay","inputs":[{"name":"caller","type":"address","internalType":"address"},{"name":"delay","type":"uint32","internalType":"uint32"}]},{"type":"error","name":"AccessManagedUnauthorized","inputs":[{"name":"caller","type":"address","internalType":"address"}]},{"type":"error","name":"InvalidInput","inputs":[{"name":"reason","type":"string","internalType":"string"}]},{"type":"error","name":"NotAuthorized","inputs":[{"name":"caller","type":"address","internalType":"address"}]},{"type":"error","name":"ZeroAddress","inputs":[]}],"bytecode":{"object":"0x60c0346200018757601f6200360238819003918201601f191683019291906001600160401b038411838510176200018b578160c09284926040968752833981010312620001875762000051816200019f565b9062000060602082016200019f565b6200006d8483016200019f565b916200007c606082016200019f565b60a06200008c608084016200019f565b9201519460018060a01b038091169360018060a01b03199480865f5416175f557f2f658b440c35314f52658ea8a740e05b284cdc84dc9ae01e891f21b8933e7cad60208a51838152a1156200017657811694851562000176578116918215620001765781169283156200017657169384156200016557608052826001541617600155816002541617600255600354161760035560a0525161344d9081620001b582396080518181816102b101528181610ae70152611727015260a051818181610d5201528181611c07015281816124f50152612fac0152f35b865163d92e233d60e01b8152600490fd5b875163d92e233d60e01b8152600490fd5b5f80fd5b634e487b7160e01b5f52604160045260245ffd5b51906001600160a01b0382168203620001875756fe6080806040526004361015610012575f80fd5b5f3560e01c908163090563f414612260575080630cbd99a61461223a5780630f2516f41461217557806320c5429b146120cc5780632e94dfda14611fd0578063327dac78146103375780633e7cb0d3146115d85780633f6e3ca91461131d5780635352d75e146112b55780635d63f6c614610ac657806362ad351b14610aa05780636339372d14610990578063649d3d29146109735780636c8dc2881461092657806375b0e1f1146106dd5780637935b495146106275780637a9e5e4b1461056a5780637e0766d4146105655780637f50861a146105655780638fb36037146104f257806394efe610146104c35780639baa92411461047f578063acff8687146103c6578063b3afac9d14610385578063b3d557e314610337578063bf7e214f14610312578063d6aa9b6e146102d5578063e4e3967814610292578063e692c49f14610221578063e8901184146101fb5763fa810fb214610171575f80fd5b346101f7576020806003193601126101f7576001600160a01b0361019361242a565b165f52600a60205260405f20906040519081602084549182815201935f5260205f20915f905b8282106101e0576101dc856101d0818903826122c6565b604051918291826124a3565b0390f35b8354865294850194600193840193909101906101b9565b5f80fd5b346101f7575f3660031901126101f75760206001600160a01b0360025416604051908152f35b346101f75760403660031901126101f75761023a61242a565b610242612440565b61024c3633612979565b6001600160a01b038092168061027b575b50168061026657005b6001600160a01b031960025416176002555f80f35b6001600160a01b031960015416176001558261025d565b346101f7575f3660031901126101f75760206040516001600160a01b037f0000000000000000000000000000000000000000000000000000000000000000168152f35b346101f7576102e336612518565b905f52600b60205260405f2080548210156101f7576020916103049161252e565b90546040519160031b1c8152f35b346101f7575f3660031901126101f75760206001600160a01b035f5416604051908152f35b346101f75760403660031901126101f7576001600160a01b0361035861242a565b165f52600860205260405f206024355f52602052602067ffffffffffffffff60405f205416604051908152f35b346101f75760203660031901126101f7576004355f5260066020526101dc6103b2600460405f2001612557565b6040519182916020835260208301906123ee565b346101f75760203660031901126101f7576004355f52600760205260405f208054906001600160a01b036001820154169060ff610405600283016122e8565b916003810154926006838560401c169201549167ffffffffffffffff61044963ffffffff93604051998a99610100918b5260208b01528060408b01528901906123ab565b95166060870152610459816123d0565b608086015280821660a08601528160201c1660c085015260401c16151560e08301520390f35b346101f75760403660031901126101f7576001600160a01b036104a061242a565b165f52600960205260405f206024355f52602052602060405f2054604051908152f35b346101f7576104d136612518565b905f52600a60205260405f2080548210156101f7576020916103049161252e565b346101f7575f3660031901126101f7575f5460a01c60ff161561055d5760207f8fb36037000000000000000000000000000000000000000000000000000000005b7fffffffff0000000000000000000000000000000000000000000000000000000060405191168152f35b60205f610533565b6124de565b346101f75760203660031901126101f75761058361242a565b5f54906001600160a01b0390818316330361061157803b156105df577f2f658b440c35314f52658ea8a740e05b284cdc84dc9ae01e891f21b8933e7cad926020926001600160a01b0319921691829116175f55604051908152a1005b602491604051917fc2f31e5e000000000000000000000000000000000000000000000000000000008352166004820152fd5b602460405162d1953b60e31b8152336004820152fd5b346101f75760203660031901126101f7576004355f52600660205260405f208054906001600160a01b036001820154169060038101549060ff82169167ffffffffffffffff6007830154916106a5610686600263ffffffff96016122e8565b604051988998610100918a5260208a01528060408a01528801906123ab565b946106af816123d0565b6060870152818160081c16608087015260481c1660a085015281811660c085015260201c1660e08301520390f35b346101f75760403660031901126101f75760043567ffffffffffffffff6024358181116101f757366023820112156101f75780600401359182116101f7576024810190602436918460051b0101116101f7576001600160a01b03916001908360015416330361090f5784158015610904575b6108be57845f5260206006815260405f2060ff600382015416610771816123d0565b61087857821561083357909492919060040161078d828261291a565b5f90815285812090855b83821061080d575050506040519481818701828852526040860194935f905b8382106107e657887ff083f0aa71f20298d1c44ffb7a3ecf49b9dcdaa51dcf4a0b519a39167bcb1c8a8989038aa2005b9091929394958635908282168092036101f7579081528301958301949392918401906107b6565b809793949597359188831683036101f75784879201928185015501909694939296610797565b6064826040519063d647364f60e01b82526004820152601260248201527f4e6f206a75726f72732070726f766964656400000000000000000000000000006044820152fd5b60405163d647364f60e01b815260206004820152601660248201527f456e676167656d656e74206e6f742070656e64696e67000000000000000000006044820152606490fd5b60405163d647364f60e01b815260206004820152601560248201527f496e76616c696420656e676167656d656e7420494400000000000000000000006044820152606490fd5b50600454851161074f565b6024604051634a0bfec160e01b8152336004820152fd5b346101f75760403660031901126101f75761093f612440565b6004355f5260066020526001600160a01b03600660405f200191165f52602052602060ff60405f2054166040519015158152f35b346101f7575f3660031901126101f7576020600454604051908152f35b346101f75760203660031901126101f75760043580158015610a95575b6108be57805f52600660205260405f2060ff600782015460401c16610a4f576003015460ff81166109dd816123d0565b6108785760481c67ffffffffffffffff16421115610a00576109fe90612b4d565b005b608460405163d647364f60e01b815260206004820152602160248201527f566572696669636174696f6e20646561646c696e65206e6f74207265616368656044820152601960fa1b6064820152fd5b60405163d647364f60e01b815260206004820152601b60248201527f456e676167656d656e7420616c7265616479207265736f6c76656400000000006044820152606490fd5b5060045481116109ad565b346101f7575f3660031901126101f75760206001600160a01b0360035416604051908152f35b346101f757610ad436612456565b8092919215611270576001600160a01b037f0000000000000000000000000000000000000000000000000000000000000000169160405192632e7edc3160e11b84528160048501525f84602481845afa938415611001575f94611246575b506020602491604051928380927fe9ea801c0000000000000000000000000000000000000000000000000000000082528660048301525afa908115611001575f9161120c575b50156111c757335f52600860205260405f20815f5260205267ffffffffffffffff60405f205416421061117857335f52600960205260405f20815f5260205260405f205463ffffffff6101c08501511681101561110d57610bda6004546128c9565b9384600455845f52600660205260405f2083815560018101336001600160a01b031982541617905567ffffffffffffffff8511610ef557610c1e600282015461227a565b601f81116110cf575b50845f601f8211600114611065575f9161105a575b508560011b905f198760031b1c19161760028201555b60038101805470ffffffffffffffff000000000000000000610c7f63ffffffff610140870151164261290d565b60481b16907fffffffffffffffffffffffffffffff000000000000000000000000000000000068ffffffffffffffff004260081b169116171790556001600160a01b03600154169182158015611051575b61100c5763ffffffff61012082015116604051934260208601524460408601528860608601526060855284608081011067ffffffffffffffff608087011117610ef5575f916080860160405285516020870120907f705ac2f00000000000000000000000000000000000000000000000000000000060808801528a60848801527f000000000000000000000000000000000000000000000000000000000000000060a488015260c487015260e48601528161010486015260a460808601918360808801915af1928315611001575f93610f4e575b5063ffffffff61010084519201511611610f095760040181519067ffffffffffffffff8211610ef5579081610ddb8289959461291a565b60208301905f5260205f205f5b838110610ed55750505050610e2c7ff083f0aa71f20298d1c44ffb7a3ecf49b9dcdaa51dcf4a0b519a39167bcb1c8a916040519182916020835260208301906123ee565b0390a2815f52600b602052610e448460405f20612951565b335f52600a602052610e598460405f20612951565b60018101809111610ec1577fa7d3ae224c6019488e1452211c528a36b619bfcb8881b5c85248ee05d320b9fc610eb66020968693335f526009895260405f20865f52895260405f205560405191829189835233978a8401916128ed565b0390a4604051908152f35b634e487b7160e01b5f52601160045260245ffd5b82516001600160a01b031681830155899550602090920191600101610de8565b634e487b7160e01b5f52604160045260245ffd5b606460405163d647364f60e01b815260206004820152601c60248201527f496e73756666696369656e74206a75726f72732073656c6563746564000000006044820152fd5b9092503d805f608084013e610f6681608084016122c6565b81016020828203126101f75760808201519167ffffffffffffffff83116101f75760808201609f8483010112156101f7576080838201015190610fa882612656565b93610fb660405195866122c6565b828552608060a0602087019460051b8385010101940184116101f7570160a001905b828210610fe9575050509188610da4565b60208091610ff6846125e1565b815201910190610fd8565b6040513d5f823e3d90fd5b606460405163d647364f60e01b815260206004820152601b60248201527f56657269666965724d616e6167657220756e617661696c61626c6500000000006044820152fd5b50823b15610cd0565b905087013588610c3c565b9050600282015f5260205f20905f5b601f19881681106110b7575086601f1981161061109e575b5050600185811b016002820155610c52565b8801355f19600388901b60f8161c19169055878061108c565b9091602060018192858d013581550193019101611074565b6110fd90600283015f5260205f20601f880160051c81019160208910611103575b601f0160051c01906128d7565b87610c27565b90915081906110f0565b608460405163d647364f60e01b815260206004820152603460248201527f546f6f206d616e7920636f6e63757272656e7420656e676167656d656e74732060448201527f666f72207468697320616374696f6e20747970650000000000000000000000006064820152fd5b608460405163d647364f60e01b815260206004820152602160248201527f5061727469636970616e7420697320696e20636f6f6c646f776e20706572696f6044820152601960fa1b6064820152fd5b606460405163d647364f60e01b815260206004820152601960248201527f416374696f6e2074797065206973206e6f7420616374697665000000000000006044820152fd5b90506020813d60201161123e575b81611227602093836122c6565b810103126101f757611238906125d4565b85610b78565b3d915061121a565b60249194506112686020913d805f833e61126081836122c6565b810190612683565b949150610b32565b606460405163d647364f60e01b815260206004820152601c60248201527f45766964656e6365204349442063616e6e6f7420626520656d707479000000006044820152fd5b346101f7576020806003193601126101f7576004355f52600b60205260405f20906040519081602084549182815201935f5260205f20915f905b828210611306576101dc856101d0818903826122c6565b8354865294850194600193840193909101906112ef565b346101f75761132b36612456565b821580156115cd575b6108be57825f526020926006845260405f206001906001600160a01b038282015416330361090f5760ff600360029201541661136f816123d0565b0361156357821561151e576113856005546128c9565b9384600555845f526007865260405f20838155828101336001600160a01b0319825416179055600281019067ffffffffffffffff91828711610ef5578688956113ce835461227a565b8b601f82116114ef575b50505f601f831160011461145e5792826003937f8b854ce0da61627b71db5b08aa8add12d290d4986ff2a3fa0a8a4bbec82adf40989693610eb698965f93611453575b501b905f198c861b1c19161790555b0190421668ffffffffffffffffff1982541617905560405191829189835233978a8401916128ed565b88013592508f61141b565b5f8481528c81209293508a90601f198216908e5b8282106114d457505092610eb6979592600395927f8b854ce0da61627b71db5b08aa8add12d290d4986ff2a3fa0a8a4bbec82adf409a9895106114bd575b50508a811b01905561142a565b8701355f198d871b60f8161c191690558d806114b0565b848b013586558e9b5094860194938401938d9350018e611472565b61151791855f52815f2090601f860160051c820192861061110357601f0160051c01906128d7565b8b8b6113d8565b6064856040519063d647364f60e01b82526004820152601d60248201527f41707065616c20726561736f6e2063616e6e6f7420626520656d7074790000006044820152fd5b6084856040519063d647364f60e01b825260048201526024808201527f43616e206f6e6c792061707065616c2072656a656374656420656e676167656d60448201527f656e7473000000000000000000000000000000000000000000000000000000006064820152fd5b506004548311611334565b346101f75760403660031901126101f75760043560248035801515918282036101f7575f925f5b855f526006602052600460405f20018054821015611fc657611629826001600160a01b039261252e565b919054339260031b1c1614611640576001016115ff565b509091925060015b15611fb057835f526020906006825260405f2092600784019160ff835460401c16610a4f5767ffffffffffffffff9081600387015460481c164211611f6c5760058601335f5280865260ff60405f205416611f2857335f52855260405f209060019760ff1992898482541617905560068801875260405f208381541660ff84161790555f14611ef557845463ffffffff6116e38183166125ae565b169063ffffffff19161785555b604051908152887f42617fa09c8caa7d4f81a73197c4ba0e471fece9de0cea84deadf0f77a840296873393a36001600160a01b03807f0000000000000000000000000000000000000000000000000000000000000000169287549560405190632e7edc3160e11b9788835260048301525f828881895afa998a15611001576101009a6004935f91611edb575b5063ffffffff809c8192015116938492015416038a8111611ec8578a168b01908a8211611ec85754918a831610611ea75750505f938a5f526006885260405f20938a600386019182541617905560078401966801000000000000000068ff000000000000000019895416178855838b54168015159081611e9c575b5080611e8f575b611e81575b5f855491886040518095819382528560048301525afa918215611001578a87878f938f8e968a925f99611e65575b5089866101a08b01511680611e27575b505050816003541680151580611e1b575b611cd2575b5081600254169687611a5d575b9750955050925050500191838354167fd8eb0cefdb0127a28f46f819c890dd12498a91c4e8651ad37cdb4c198f5782738654938493838a526008825260408a20858b52825260408a205416604051908152a38452600b875288604085208186905b611990575b50505054168083526009865260408320915491828452865260408320549384611933575b5050505050917f63a2ece265013dc14ef474ec9db320c23a7f7138ecebbd5e709273474233004093916060935490604051938452828216818501521c166040820152a2005b5f19850194851161197e575082526009855260408083209183529085529020558160607f63a2ece265013dc14ef474ec9db320c23a7f7138ecebbd5e709273474233004088806118ee565b83634e487b7160e01b81526011600452fd5b815480821015611a57578d6119a5838561252e565b90549060031b1c146119ba57508201826118c5565b9192505f1991828101908111611a4457906119e96119db611a01938661252e565b90549060031b1c918561252e565b90919082549060031b91821b915f19901b1916179055565b81548015611a31570190611a28611a18838361252e565b8154905f199060031b1b19169055565b55888b806118ca565b8787634e487b7160e01b81526031600452fd5b8888634e487b7160e01b81526011600452fd5b506118ca565b8851611bd99550606094611bc49260649289168015611cc357611a83611a96919b6132d3565b925499611a8f8b6132d3565b9b166132d3565b90611b8f611aa3426132d3565b926040519c8d957f7b2274797065223a22656e676167656d656e74222c226964223a00000000000085880152611ae28151809287603a8b01910161238a565b86017f2c2276616c7561626c65416374696f6e223a0000000000000000000000000000603a820152611b1d8251809387604c8501910161238a565b017f2c22706f696e7473223a00000000000000000000000000000000000000000000604c820152611b57825180938660568501910161238a565b01917f2c2274696d657374616d70223a000000000000000000000000000000000000006056840152835193849160638501910161238a565b017f7d0000000000000000000000000000000000000000000000000000000000000060638201520360448101895201876122c6565b8a015416950151611bd4816123d0565b6133fd565b604051947f5788879a00000000000000000000000000000000000000000000000000000000865260048601527f00000000000000000000000000000000000000000000000000000000000000008a8601526003811015611cb0578885611c5a81958f979583956044850152606484015260a0608484015260a48301906123ab565b03925af18015611ca557908891611c78575b8b8a8787878f87611864565b813d8311611c9e575b611c8b81836122c6565b81010312611c9a57868b611c6c565b8380fd5b503d611c81565b6040513d87823e3d90fd5b8989634e487b7160e01b81526021600452fd5b50611a96611a83600a9b6132d3565b9592611d6f9750611d7e9550604a9450611cf89250611cf29150546132d3565b916132d3565b8d6040519687937f56616c7561626c65416374696f6e20230000000000000000000000000000000083860152611d37815180928560308901910161238a565b8401917f20636f6d706c6574696f6e202d20456e676167656d656e74202300000000000060308401528351938491878501910161238a565b0103602a8101855201836122c6565b848c87015416908b84511690803b156101f757895f8094611dde604051978896879586947fd3fc986400000000000000000000000000000000000000000000000000000000865260048601528401526060604484015260648301906123ab565b03925af18015611001578a8c8b938f93611dfd575b878a928a92611857565b92505050849650611e0e91506122b2565b878b8a8c875f9950611df3565b50858951161515611852565b611e31904261290d565b16908383860154165f526008895260405f20905f52885260405f209067ffffffffffffffff198254161790555f8981611841565b611e7a9199503d805f833e61126081836122c6565b975f611831565b611e8a8c612d84565b611803565b50600485015415156117fe565b90503b15158d6117f7565b95509698505050505083915016921c161015611ebf57005b6109fe90612b4d565b87634e487b7160e01b5f5260116004525ffd5b611eef91503d805f833e61126081836122c6565b8e61177c565b845467ffffffff00000000611f1163ffffffff838a1c166125ae565b881b169067ffffffff0000000019161785556116f0565b6064866013866040519263d647364f60e01b845260048401528201527f4a75726f7220616c726561647920766f746564000000000000000000000000006044820152fd5b606485601c856040519263d647364f60e01b845260048401528201527f566572696669636174696f6e20646561646c696e6520706173736564000000006044820152fd5b50604051634a0bfec160e01b8152336004820152fd5b5050909192611648565b346101f75760203660031901126101f757600435801580156120c1575b6108be575f52600660205260405f208054906001600160a01b036001820154169060ff60038201549161209d82841667ffffffffffffffff9260078101549363ffffffff9661206d61204d6004612046600287016122e8565b9501612557565b936040519b8c9b610140918d5260208d01528060408d01528b01906123ab565b93612077816123d0565b60608a0152818160081c1660808a015260481c1660a088015286820360c08801526123ee565b9280821660e08601528160201c1661010085015260401c1615156101208301520390f35b506004548111611fed565b346101f75760203660031901126101f7576004356120ea3633612979565b8015801561216a575b6108be57805f52600660205260405f2060ff600782015460401c1680612150575b61211a57005b600301600360ff1982541617905533907fbbced4f2f4eedf16b14afceeba0a9fcf96fc3475c059f0dbc23057708ae47aa65f80a3005b50600160ff600383015416612164816123d0565b14612114565b5060045481116120f3565b346101f75760203660031901126101f7576004355f52600660205260405f208054906001600160a01b036001820154169060ff6121b4600283016122e8565b60038301549082821693600767ffffffffffffffff910154926121f563ffffffff93604051998a99610120918b5260208b01528060408b01528901906123ab565b956121ff816123d0565b6060880152818160081c16608088015260481c1660a086015280821660c08601528160201c1660e085015260401c1615156101008301520390f35b346101f7575f3660031901126101f75760206001600160a01b0360015416604051908152f35b346101f7575f3660031901126101f7576020906005548152f35b90600182811c921680156122a8575b602083101461229457565b634e487b7160e01b5f52602260045260245ffd5b91607f1691612289565b67ffffffffffffffff8111610ef557604052565b90601f8019910116810190811067ffffffffffffffff821117610ef557604052565b9060405191825f82546122fa8161227a565b908184526020946001916001811690815f14612368575060011461232a575b505050612328925003836122c6565b565b5f90815285812095935091905b81831061235057505061232893508201015f8080612319565b85548884018501529485019487945091830191612337565b9250505061232894925060ff191682840152151560051b8201015f8080612319565b5f5b83811061239b5750505f910152565b818101518382015260200161238c565b906020916123c48151809281855285808601910161238a565b601f01601f1916010190565b600411156123da57565b634e487b7160e01b5f52602160045260245ffd5b9081518082526020808093019301915f5b82811061240d575050505090565b83516001600160a01b0316855293810193928101926001016123ff565b600435906001600160a01b03821682036101f757565b602435906001600160a01b03821682036101f757565b60406003198201126101f7576004359160243567ffffffffffffffff928382116101f757806023830112156101f75781600401359384116101f757602484830101116101f7576024019190565b60209060206040818301928281528551809452019301915f5b8281106124ca575050505090565b8351855293810193928101926001016124bc565b346101f7575f3660031901126101f75760206040517f00000000000000000000000000000000000000000000000000000000000000008152f35b60409060031901126101f7576004359060243590565b8054821015612543575f5260205f2001905f90565b634e487b7160e01b5f52603260045260245ffd5b90604051918281549182825260209260208301915f5260205f20935f905b82821061258b57505050612328925003836122c6565b85546001600160a01b031684526001958601958895509381019390910190612575565b63ffffffff809116908114610ec15760010190565b519063ffffffff821682036101f757565b519081151582036101f757565b51906001600160a01b03821682036101f757565b67ffffffffffffffff8111610ef557601f01601f191660200190565b81601f820112156101f7578051612627816125f5565b9261263560405194856122c6565b818452602082840101116101f757612653916020808501910161238a565b90565b67ffffffffffffffff8111610ef55760051b60200190565b519067ffffffffffffffff821682036101f757565b60209182828203126101f757815167ffffffffffffffff928382116101f75701916103009384848403126101f75760405194850185811083821117610ef5576040526126ce846125c3565b85526126db8185016125c3565b818601526126eb604085016125c3565b6040860152606084015160048110156101f75760608601526080840151608086015261271960a085016125c3565b60a086015260c084015160058110156101f75760c086015260e084015160e08601526101006127498186016125c3565b9086015261012061275b8186016125c3565b9086015261014061276d8186016125c3565b9086015261016061277f8186016125c3565b908601526101806127918186016125c3565b908601526101a06127a38186016125c3565b908601526101c06127b58186016125c3565b908601526101e06127c78186016125d4565b908601526102006127d98186016125c3565b9086015261022080850151908601526102406127f68186016125e1565b90860152610260808501518381116101f75784612814918701612611565b90860152610280808501518381116101f75784612832918701612611565b908601526102a091828501519081116101f75784019280601f850112156101f757835161285e81612656565b9461286c60405196876122c6565b818652838087019260051b8201019283116101f7578301905b8282106128ba57505050508301526102c06128a181830161266e565b908301526128b36102e080920161266e565b9082015290565b81518152908301908301612885565b5f198114610ec15760010190565b8181106128e2575050565b5f81556001016128d7565b908060209392818452848401375f828201840152601f01601f1916010190565b91908201809211610ec157565b90680100000000000000008111610ef55781549080835581811061293d57505050565b612328925f5260205f2091820191016128d7565b9081549168010000000000000000831015610ef557826119e99160016123289501815561252e565b5f915f54916001600160a01b039081841692806004116101f7575f8060409485519060208201957fb700961300000000000000000000000000000000000000000000000000000000875216948560248301523060448301527fffffffff000000000000000000000000000000000000000000000000000000005f351660648301526064825260a082019082821067ffffffffffffffff831117610ef55787925f928452828052826020525190895afa612b3a575b15612a3c575b50505050505050565b63ffffffff1615612b2457740100000000000000000000000000000000000000007fffffffffffffffffffffff00ffffffffffffffffffffffffffffffffffffffff809616175f55833b156101f7576064935f928385519687809581947f94c7d7ee00000000000000000000000000000000000000000000000000000000835260048301528860248301528060448301528084848401378181018301849052601f01601f191681010301925af1908115612b1b5750612b08575b5081541690555f808080808080612a33565b612b139192506122b2565b5f905f612af6565b513d5f823e3d90fd5b50602491519062d1953b60e31b82526004820152fd5b50505f516020518060201c150290612a2d565b805f526020600681526040805f2060039060038101600260ff1982541617905560078101916801000000000000000068ff0000000000000000198454161783556001600160a01b03906001809183600154168015159081612d33575b5080612d26575b612d18575b84545f908152600b89528781209350825b612c89575b50505050600182015416805f5260098552835f20915491825f528552835f205480612c38575b505050916060917f63a2ece265013dc14ef474ec9db320c23a7f7138ecebbd5e7092734742330040935463ffffffff9082519360028552828216818601521c1690820152a2565b5f959391949295198101908111610ec1577f63a2ece265013dc14ef474ec9db320c23a7f7138ecebbd5e7092734742330040956060955f5260098552835f20905f528452825f205591938193612bf1565b835480821015612d12578a612c9e838761252e565b905490851b1c14612cb25750820182612bc6565b5f199350838101908111610ec157612cdd92612cd16119e9928761252e565b9054911b1c918561252e565b81548015612cfe570190612cf4611a18838361252e565b555f808080612bcb565b634e487b7160e01b5f52603160045260245ffd5b50612bcb565b612d218961318a565b612bb5565b5060048501541515612bb0565b90503b15155f612ba9565b90612d4882612656565b612d5560405191826122c6565b8281528092612d66601f1991612656565b0190602036910137565b80518210156125435760209160051b010190565b5f815f5260209060068252604090815f209160049081840180549081156131805790612daf81612d3e565b955f92600582019160060190845b84811061310a57505050505080612dd75750505050505050565b612de8819893949897959697612d3e565b955f5b8281106130dc57505050612dfe846132d3565b936001978896875f985b6130c25750612e16886125f5565b98612e2385519a8b6122c6565b888a52612e2f896125f5565b8a82019990601f1901368b375b808c15612f07575f198201918211612ef457819c600a9283820493808502908582041485151715612ee1578203918211612ece5760ff809216603001918211612ece578d511115612ebb5760f81b7fff00000000000000000000000000000000000000000000000000000000000000165f1a908c01601f01539a612e3c565b60328a634e487b7160e01b5f525260245ffd5b60118b634e487b7160e01b5f525260245ffd5b60118c634e487b7160e01b5f525260245ffd5b601189634e487b7160e01b5f525260245ffd5b50509297603c91959a5096612f9d9297612f8e959a8b519687937f656e676167656d656e742d00000000000000000000000000000000000000000088860152612f59815180928a602b8901910161238a565b8401917f2d696e636f72726563742d766f7465732d000000000000000000000000000000602b8401525180938684019061238a565b0103601c8101855201836122c6565b6001600160a01b0360015416917f000000000000000000000000000000000000000000000000000000000000000097833b156101f7577f3ccd14503f46adfbc41657ef19497340b23f3b699a4f070e86d385da7aa2f49c96855f8b613097978c836130849c61305f61304d8a51988997889687957f9f0e661a00000000000000000000000000000000000000000000000000000000875286015260248501526080604485015260848401906123ee565b8281036003190160648401528b6123ab565b03925af190816130af575b506130a657925b81519687966060885260608801906123ee565b93151590860152848303908501526123ab565b0390a35f808080808080612a33565b50600192613071565b6130ba9192506122b2565b5f905f61306a565b976130d1600a919b989b6128c9565b9804809a979a612e08565b806001600160a01b036130f4600193859d9a9d612d70565b5116613100828b612d70565b5201989598612deb565b6001600160a01b0361311c828461252e565b90549060031b1c16805f52848c528a8c8560ff91828c5f205416156131735752895f20541615613153575b50506001905b01612dbd565b9661316b91613165826001959a612d70565b526128c9565b95908a613147565b505050505060019061314d565b5050505050505050565b5f815f5260209060068252604090815f2091600490818401805490811561318057906131b581612d3e565b955f92600582019160060190845b848110613264575050505050806131dd5750505050505050565b6131ee819893949897959697612d3e565b955f5b82811061323657505050613204846132d3565b936002978896875f985b61321c5750612e16886125f5565b9761322b600a919b989b6128c9565b9804809a979a61320e565b806001600160a01b0361324e600193859d9a9d612d70565b511661325a828b612d70565b52019895986131f1565b6001600160a01b03613276828461252e565b90549060031b1c16805f52848c528a8c8560ff91828c5f205416156132c65752895f2054166132ac575b50506001905b016131c3565b966132be91613165826001959a612d70565b95908a6132a0565b50505050506001906132a6565b80156133b257905f9082805b61339857506132ed826125f5565b916132fb60405193846122c6565b808352601f1961330a826125f5565b013660208501375b808415613391575f198201918211610ec1578194600a9283820493808502908582041485151715610ec1578203918211610ec15760ff809216603001918211610ec157855111156125435760f81b7fff00000000000000000000000000000000000000000000000000000000000000165f1a908401601f015392613312565b5050915090565b916133a7600a919492946128c9565b9204809391936132df565b506040516040810181811067ffffffffffffffff821117610ef557604052600181527f3000000000000000000000000000000000000000000000000000000000000000602082015290565b600390613409816123d0565b14613412575f90565b60029056fea264697066735822122065e7f1643b0a6f3a0aa15910203ad662bb64e462fe86e2966cadde2aaae0e7dc64736f6c63430008180033","linkReferences":{}},"methodIdentifiers":{"actionRegistry()":"e4e39678","activeEngagementCounts(address,uint256)":"9baa9241","appeals(uint256)":"acff8687","assignJurors(uint256,address[])":"75b0e1f1","authority()":"bf7e214f","communityId()":"7f50861a","engagements(uint256)":"0f2516f4","engagementsByParticipant(uint256,uint256)":"94efe610","getCommunityId()":"7e0766d4","getEngagement(uint256)":"2e94dfda","getEngagementInfo(uint256)":"7935b495","getEngagementJurors(uint256)":"b3afac9d","getEngagementsByParticipant(address)":"fa810fb2","getParticipantCooldown(address,uint256)":"327dac78","getPendingEngagements(uint256)":"5352d75e","hasJurorVoted(uint256,address)":"6c8dc288","isConsumingScheduledOp()":"8fb36037","lastAppealId()":"090563f4","lastEngagementId()":"649d3d29","membershipToken()":"62ad351b","participantCooldowns(address,uint256)":"b3d557e3","pendingEngagements(uint256,uint256)":"d6aa9b6e","resolveExpired(uint256)":"6339372d","revoke(uint256)":"20c5429b","setAuthority(address)":"7a9e5e4b","submit(uint256,string)":"5d63f6c6","submitAppeal(uint256,string)":"3f6e3ca9","updateContracts(address,address)":"e692c49f","valuableActionSBT()":"e8901184","verifierManager()":"0cbd99a6","verify(uint256,bool)":"3e7cb0d3"},"id":6}