{"abi":[{"type":"constructor","inputs":[{"name":"manager","type":"address","internalType":"address"},{"name":"_actionRegistry","type":"address","internalType":"address"},{"name":"_verifierManager","type":"address","internalType":"address"},{"name":"_valuableActionSBT","type":"address","internalType":"address"},{"name":"_membershipToken","type":"address","internalType":"address"},{"name":"_communityId","type":"uint256","internalType":"uint256"}],"stateMutability":"nonpayable"},{"type":"function","name":"actionRegistry","inputs":[],"outputs":[{"name":"","type":"address","internalType":"contract ValuableActionRegistry"}],"stateMutability":"view"},{"type":"function","name":"appeals","inputs":[{"name":"","type":"uint256","internalType":"uint256"}],"outputs":[{"name":"engagementId","type":"uint256","internalType":"uint256"},{"name":"appellant","type":"address","internalType":"address"},{"name":"appealReason","type":"string","internalType":"string"},{"name":"createdAt","type":"uint64","internalType":"uint64"},{"name":"status","type":"uint8","internalType":"enum Types.EngagementStatus"},{"name":"approvalsCount","type":"uint32","internalType":"uint32"},{"name":"rejectionsCount","type":"uint32","internalType":"uint32"},{"name":"resolved","type":"bool","internalType":"bool"}],"stateMutability":"view"},{"type":"function","name":"assignJurors","inputs":[{"name":"engagementId","type":"uint256","internalType":"uint256"},{"name":"jurors","type":"address[]","internalType":"address[]"}],"outputs":[],"stateMutability":"nonpayable"},{"type":"function","name":"authority","inputs":[],"outputs":[{"name":"","type":"address","internalType":"address"}],"stateMutability":"view"},{"type":"function","name":"communityId","inputs":[],"outputs":[{"name":"","type":"uint256","internalType":"uint256"}],"stateMutability":"view"},{"type":"function","name":"engagements","inputs":[{"name":"","type":"uint256","internalType":"uint256"}],"outputs":[{"name":"typeId","type":"uint256","internalType":"uint256"},{"name":"participant","type":"address","internalType":"address"},{"name":"evidenceCID","type":"string","internalType":"string"},{"name":"status","type":"uint8","internalType":"enum Types.EngagementStatus"},{"name":"createdAt","type":"uint64","internalType":"uint64"},{"name":"verifyDeadline","type":"uint64","internalType":"uint64"},{"name":"approvalsCount","type":"uint32","internalType":"uint32"},{"name":"rejectionsCount","type":"uint32","internalType":"uint32"},{"name":"resolved","type":"bool","internalType":"bool"}],"stateMutability":"view"},{"type":"function","name":"engagementsByParticipant","inputs":[{"name":"","type":"uint256","internalType":"uint256"},{"name":"","type":"uint256","internalType":"uint256"}],"outputs":[{"name":"","type":"uint256","internalType":"uint256"}],"stateMutability":"view"},{"type":"function","name":"getCommunityId","inputs":[],"outputs":[{"name":"","type":"uint256","internalType":"uint256"}],"stateMutability":"view"},{"type":"function","name":"getEngagement","inputs":[{"name":"engagementId","type":"uint256","internalType":"uint256"}],"outputs":[{"name":"typeId","type":"uint256","internalType":"uint256"},{"name":"participant","type":"address","internalType":"address"},{"name":"evidenceCID","type":"string","internalType":"string"},{"name":"status","type":"uint8","internalType":"enum Types.EngagementStatus"},{"name":"createdAt","type":"uint64","internalType":"uint64"},{"name":"verifyDeadline","type":"uint64","internalType":"uint64"},{"name":"jurors","type":"address[]","internalType":"address[]"},{"name":"approvalsCount","type":"uint32","internalType":"uint32"},{"name":"rejectionsCount","type":"uint32","internalType":"uint32"},{"name":"resolved","type":"bool","internalType":"bool"}],"stateMutability":"view"},{"type":"function","name":"getEngagementInfo","inputs":[{"name":"engagementId","type":"uint256","internalType":"uint256"}],"outputs":[{"name":"typeId","type":"uint256","internalType":"uint256"},{"name":"participant","type":"address","internalType":"address"},{"name":"evidenceCID","type":"string","internalType":"string"},{"name":"status","type":"uint8","internalType":"enum Types.EngagementStatus"},{"name":"createdAt","type":"uint64","internalType":"uint64"},{"name":"verifyDeadline","type":"uint64","internalType":"uint64"},{"name":"approvalsCount","type":"uint32","internalType":"uint32"},{"name":"rejectionsCount","type":"uint32","internalType":"uint32"}],"stateMutability":"view"},{"type":"function","name":"getEngagementJurors","inputs":[{"name":"engagementId","type":"uint256","internalType":"uint256"}],"outputs":[{"name":"jurors","type":"address[]","internalType":"address[]"}],"stateMutability":"view"},{"type":"function","name":"getEngagementsByParticipant","inputs":[{"name":"participant","type":"address","internalType":"address"}],"outputs":[{"name":"","type":"uint256[]","internalType":"uint256[]"}],"stateMutability":"view"},{"type":"function","name":"getParticipantCooldown","inputs":[{"name":"participant","type":"address","internalType":"address"},{"name":"typeId","type":"uint256","internalType":"uint256"}],"outputs":[{"name":"nextAllowed","type":"uint64","internalType":"uint64"}],"stateMutability":"view"},{"type":"function","name":"getPendingEngagements","inputs":[{"name":"typeId","type":"uint256","internalType":"uint256"}],"outputs":[{"name":"","type":"uint256[]","internalType":"uint256[]"}],"stateMutability":"view"},{"type":"function","name":"hasJurorVoted","inputs":[{"name":"engagementId","type":"uint256","internalType":"uint256"},{"name":"juror","type":"address","internalType":"address"}],"outputs":[{"name":"","type":"bool","internalType":"bool"}],"stateMutability":"view"},{"type":"function","name":"isConsumingScheduledOp","inputs":[],"outputs":[{"name":"","type":"bytes4","internalType":"bytes4"}],"stateMutability":"view"},{"type":"function","name":"lastAppealId","inputs":[],"outputs":[{"name":"","type":"uint256","internalType":"uint256"}],"stateMutability":"view"},{"type":"function","name":"lastEngagementId","inputs":[],"outputs":[{"name":"","type":"uint256","internalType":"uint256"}],"stateMutability":"view"},{"type":"function","name":"membershipToken","inputs":[],"outputs":[{"name":"","type":"address","internalType":"address"}],"stateMutability":"view"},{"type":"function","name":"participantCooldowns","inputs":[{"name":"","type":"address","internalType":"address"},{"name":"","type":"uint256","internalType":"uint256"}],"outputs":[{"name":"","type":"uint64","internalType":"uint64"}],"stateMutability":"view"},{"type":"function","name":"pendingEngagements","inputs":[{"name":"","type":"uint256","internalType":"uint256"},{"name":"","type":"uint256","internalType":"uint256"}],"outputs":[{"name":"","type":"uint256","internalType":"uint256"}],"stateMutability":"view"},{"type":"function","name":"revoke","inputs":[{"name":"engagementId","type":"uint256","internalType":"uint256"}],"outputs":[],"stateMutability":"nonpayable"},{"type":"function","name":"setAuthority","inputs":[{"name":"newAuthority","type":"address","internalType":"address"}],"outputs":[],"stateMutability":"nonpayable"},{"type":"function","name":"submit","inputs":[{"name":"typeId","type":"uint256","internalType":"uint256"},{"name":"evidenceCID","type":"string","internalType":"string"}],"outputs":[{"name":"engagementId","type":"uint256","internalType":"uint256"}],"stateMutability":"nonpayable"},{"type":"function","name":"submitAppeal","inputs":[{"name":"engagementId","type":"uint256","internalType":"uint256"},{"name":"reason","type":"string","internalType":"string"}],"outputs":[{"name":"appealId","type":"uint256","internalType":"uint256"}],"stateMutability":"nonpayable"},{"type":"function","name":"updateContracts","inputs":[{"name":"_verifierManager","type":"address","internalType":"address"},{"name":"_valuableActionSBT","type":"address","internalType":"address"}],"outputs":[],"stateMutability":"nonpayable"},{"type":"function","name":"valuableActionSBT","inputs":[],"outputs":[{"name":"","type":"address","internalType":"address"}],"stateMutability":"view"},{"type":"function","name":"verifierManager","inputs":[],"outputs":[{"name":"","type":"address","internalType":"address"}],"stateMutability":"view"},{"type":"function","name":"verify","inputs":[{"name":"engagementId","type":"uint256","internalType":"uint256"},{"name":"approve","type":"bool","internalType":"bool"}],"outputs":[],"stateMutability":"nonpayable"},{"type":"event","name":"AppealResolved","inputs":[{"name":"appealId","type":"uint256","indexed":true,"internalType":"uint256"},{"name":"status","type":"uint8","indexed":false,"internalType":"enum Types.EngagementStatus"}],"anonymous":false},{"type":"event","name":"AppealSubmitted","inputs":[{"name":"appealId","type":"uint256","indexed":true,"internalType":"uint256"},{"name":"engagementId","type":"uint256","indexed":true,"internalType":"uint256"},{"name":"appellant","type":"address","indexed":true,"internalType":"address"},{"name":"reason","type":"string","indexed":false,"internalType":"string"}],"anonymous":false},{"type":"event","name":"AuthorityUpdated","inputs":[{"name":"authority","type":"address","indexed":false,"internalType":"address"}],"anonymous":false},{"type":"event","name":"CooldownUpdated","inputs":[{"name":"participant","type":"address","indexed":true,"internalType":"address"},{"name":"typeId","type":"uint256","indexed":true,"internalType":"uint256"},{"name":"nextAllowed","type":"uint64","indexed":false,"internalType":"uint64"}],"anonymous":false},{"type":"event","name":"EngagementResolved","inputs":[{"name":"engagementId","type":"uint256","indexed":true,"internalType":"uint256"},{"name":"status","type":"uint8","indexed":false,"internalType":"enum Types.EngagementStatus"},{"name":"finalApprovals","type":"uint32","indexed":false,"internalType":"uint32"},{"name":"finalRejections","type":"uint32","indexed":false,"internalType":"uint32"}],"anonymous":false},{"type":"event","name":"EngagementRevoked","inputs":[{"name":"engagementId","type":"uint256","indexed":true,"internalType":"uint256"},{"name":"revoker","type":"address","indexed":true,"internalType":"address"}],"anonymous":false},{"type":"event","name":"EngagementSubmitted","inputs":[{"name":"engagementId","type":"uint256","indexed":true,"internalType":"uint256"},{"name":"typeId","type":"uint256","indexed":true,"internalType":"uint256"},{"name":"participant","type":"address","indexed":true,"internalType":"address"},{"name":"evidenceCID","type":"string","indexed":false,"internalType":"string"}],"anonymous":false},{"type":"event","name":"EngagementVerified","inputs":[{"name":"engagementId","type":"uint256","indexed":true,"internalType":"uint256"},{"name":"verifier","type":"address","indexed":true,"internalType":"address"},{"name":"approve","type":"bool","indexed":false,"internalType":"bool"}],"anonymous":false},{"type":"event","name":"FraudReportOutcome","inputs":[{"name":"engagementId","type":"uint256","indexed":true,"internalType":"uint256"},{"name":"communityId","type":"uint256","indexed":true,"internalType":"uint256"},{"name":"offenders","type":"address[]","indexed":false,"internalType":"address[]"},{"name":"success","type":"bool","indexed":false,"internalType":"bool"},{"name":"evidenceCID","type":"string","indexed":false,"internalType":"string"}],"anonymous":false},{"type":"event","name":"JurorsAssigned","inputs":[{"name":"engagementId","type":"uint256","indexed":true,"internalType":"uint256"},{"name":"jurors","type":"address[]","indexed":false,"internalType":"address[]"}],"anonymous":false},{"type":"error","name":"AccessManagedInvalidAuthority","inputs":[{"name":"authority","type":"address","internalType":"address"}]},{"type":"error","name":"AccessManagedRequiredDelay","inputs":[{"name":"caller","type":"address","internalType":"address"},{"name":"delay","type":"uint32","internalType":"uint32"}]},{"type":"error","name":"AccessManagedUnauthorized","inputs":[{"name":"caller","type":"address","internalType":"address"}]},{"type":"error","name":"InvalidInput","inputs":[{"name":"reason","type":"string","internalType":"string"}]},{"type":"error","name":"NotAuthorized","inputs":[{"name":"caller","type":"address","internalType":"address"}]},{"type":"error","name":"ZeroAddress","inputs":[]}],"bytecode":{"object":"0x60c0346200018757601f620034b538819003918201601f191683019291906001600160401b038411838510176200018b578160c09284926040968752833981010312620001875762000051816200019f565b9062000060602082016200019f565b6200006d8483016200019f565b916200007c606082016200019f565b60a06200008c608084016200019f565b9201519460018060a01b038091169360018060a01b03199480865f5416175f557f2f658b440c35314f52658ea8a740e05b284cdc84dc9ae01e891f21b8933e7cad60208a51838152a1156200017657811694851562000176578116918215620001765781169283156200017657169384156200016557608052826001541617600155816002541617600255600354161760035560a052516133009081620001b5823960805181818161040401528181610acb01526117ab015260a051818181610daf01528181611b76015281816127580152612e5f0152f35b865163d92e233d60e01b8152600490fd5b875163d92e233d60e01b8152600490fd5b5f80fd5b634e487b7160e01b5f52604160045260245ffd5b51906001600160a01b0382168203620001875756fe6080806040526004361015610012575f80fd5b5f358060e01c918263090563f4146124a7575081630cbd99a6146124815781630f2516f4146123bc57816320c5429b146121f05781632e94dfda146120f4578163327dac781461048a5781633e7cb0d3146115c45781633f6e3ca9146112f25781635352d75e1461128a5781635d63f6c614610aad57816362ad351b14610a87578163649d3d2914610a6a5781636c8dc28814610a1d57816375b0e1f1146107d65781637935b495146107205781637a9e5e4b146106795781637e0766d4146106745781637f50861a146106745781638fb360371461060157816394efe610146105d2578163acff868714610519578163b3afac9d146104d8578163b3d557e31461048a578163bf7e214f14610465578163d6aa9b6e14610428578163e4e39678146103e5578163e692c49f1461020d57508063e8901184146101e75763fa810fb21461015d575f80fd5b346101e3576020806003193601126101e3576001600160a01b0361017f61268d565b165f52600960205260405f20906040519081602084549182815201935f5260205f20915f905b8282106101cc576101c8856101bc81890382612529565b60405191829182612706565b0390f35b8354865294850194600193840193909101906101a5565b5f80fd5b346101e3575f3660031901126101e35760206001600160a01b0360025416604051908152f35b346101e35760403660031901126101e35761022661268d565b9061022f6126a3565b905f925f546001600160a01b039485821691366004116101e35786945f60405f809382517fffffffff00000000000000000000000000000000000000000000000000000000602082019263b700961360e01b8452336024840152306044840152166064820152606481526102a28161250d565b828052826020525190885afa6103d2575b156102f9575b5050505016806102e2575b5016806102cd57005b6001600160a01b031960025416176002555f80f35b6001600160a01b03196001541617600155826102c4565b929450909163ffffffff16156103a257600160a01b60ff60a01b19809216175f55833b156101e3575f6040518095634a63ebf760e11b8252336004830152604060248301523660448301523683606484013782606436840101528183606482601f19601f36011681010301925af1938415610397578694610384575b508154169055848080806102b9565b61038f9192506124f9565b5f9086610375565b6040513d5f823e3d90fd5b60246040517f068ca9d8000000000000000000000000000000000000000000000000000000008152336004820152fd5b50505f516020518060201c1502906102b3565b346101e3575f3660031901126101e35760206040516001600160a01b037f0000000000000000000000000000000000000000000000000000000000000000168152f35b346101e3576104363661277b565b905f52600a60205260405f2080548210156101e35760209161045791612791565b90546040519160031b1c8152f35b346101e3575f3660031901126101e35760206001600160a01b035f5416604051908152f35b346101e35760403660031901126101e3576001600160a01b036104ab61268d565b165f52600860205260405f206024355f52602052602067ffffffffffffffff60405f205416604051908152f35b346101e35760203660031901126101e3576004355f5260066020526101c8610505600460405f20016127ba565b604051918291602083526020830190612651565b346101e35760203660031901126101e3576004355f52600760205260405f208054906001600160a01b036001820154169060ff6105586002830161254b565b916003810154926006838560401c169201549167ffffffffffffffff61059c63ffffffff93604051998a99610100918b5260208b01528060408b015289019061260e565b951660608701526105ac81612633565b608086015280821660a08601528160201c1660c085015260401c16151560e08301520390f35b346101e3576105e03661277b565b905f52600960205260405f2080548210156101e35760209161045791612791565b346101e3575f3660031901126101e3575f5460a01c60ff161561066c5760207f8fb36037000000000000000000000000000000000000000000000000000000005b7fffffffff0000000000000000000000000000000000000000000000000000000060405191168152f35b60205f610642565b612741565b346101e35760203660031901126101e35761069261268d565b5f54906001600160a01b039081831633036103a257803b156106ee577f2f658b440c35314f52658ea8a740e05b284cdc84dc9ae01e891f21b8933e7cad926020926001600160a01b0319921691829116175f55604051908152a1005b602491604051917fc2f31e5e000000000000000000000000000000000000000000000000000000008352166004820152fd5b346101e35760203660031901126101e3576004355f52600660205260405f208054906001600160a01b036001820154169060038101549060ff82169167ffffffffffffffff60078301549161079e61077f600263ffffffff960161254b565b604051988998610100918a5260208a01528060408a015288019061260e565b946107a881612633565b6060870152818160081c16608087015260481c1660a085015281811660c085015260201c1660e08301520390f35b346101e35760403660031901126101e3576004356024803567ffffffffffffffff918282116101e357366023830112156101e35781600401359283116101e357808201918136918560051b0101116101e3576001600160a01b039260019184600154163303610a0857851580156109fd575b6109b757855f526020906006825260405f209060ff60038301541661086c81612633565b61097357831561092f575090949291906004016108898282612b91565b5f90815285812090855b838210610909575050506040519481818701828852526040860194935f905b8382106108e257887ff083f0aa71f20298d1c44ffb7a3ecf49b9dcdaa51dcf4a0b519a39167bcb1c8a8989038aa2005b9091929394958635908282168092036101e3579081528301958301949392918401906108b2565b809793949597359188831683036101e35784879201928185015501909694939296610893565b8260126064926040519263d647364f60e01b845260048401528201527f4e6f206a75726f72732070726f766964656400000000000000000000000000006044820152fd5b8260166064926040519263d647364f60e01b845260048401528201527f456e676167656d656e74206e6f742070656e64696e67000000000000000000006044820152fd5b60405163d647364f60e01b815260206004820152601560248201527f496e76616c696420656e676167656d656e7420494400000000000000000000006044820152606490fd5b506004548611610848565b604051634a0bfec160e01b8152336004820152fd5b346101e35760403660031901126101e357610a366126a3565b6004355f5260066020526001600160a01b03600660405f200191165f52602052602060ff60405f2054166040519015158152f35b346101e3575f3660031901126101e3576020600454604051908152f35b346101e3575f3660031901126101e35760206001600160a01b0360035416604051908152f35b346101e357610abb366126b9565b8015611245576001600160a01b037f0000000000000000000000000000000000000000000000000000000000000000169260405193632e7edc3160e11b85528160048601525f85602481845afa948515610397575f9561121b575b506020602491604051928380927fe9ea801c0000000000000000000000000000000000000000000000000000000082528660048301525afa908115610397575f916111e1575b501561119c57335f52600860205260405f20815f5260205267ffffffffffffffff60405f2054164210611131575f335f52600960205260405f205f908054915b8281106110cd5750505063ffffffff6101c086015116111561106257610bc3600454612847565b9283600455835f52600660205260405f2082815560018101336001600160a01b031982541617905567ffffffffffffffff8411610ec857610c0760028201546124c1565b601f8111611024575b50835f601f8211600114610fba575f91610faf575b508460011b905f198660031b1c19161760028201555b60038101805470ffffffffffffffff000000000000000000610c6863ffffffff6101408b0151164261283a565b60481b16907fffffffffffffffffffffffffffffff000000000000000000000000000000000068ffffffffffffffff004260081b169116171790556001600160a01b03600154169586151580610fa5575b610d31575b5050602094507fa7d3ae224c6019488e1452211c528a36b619bfcb8881b5c85248ee05d320b9fc610d268592845f52600a8852610cfe8460405f20612bc8565b335f5260098852610d128460405f20612bc8565b60405191829189835233978a84019161286b565b0390a4604051908152f35b61012063ffffffff91015116604051964260208901524460408901528660608901526060885287608081011067ffffffffffffffff60808a011117610ec8575f9160808901604052885160208a0120907f705ac2f00000000000000000000000000000000000000000000000000000000060808b01528860848b01527f000000000000000000000000000000000000000000000000000000000000000060a48b015260c48a015260e48901528161010489015260a460808901918360808b01915af15f9681610edc575b50610e07575b80610cbe565b60040194805167ffffffffffffffff8111610ec857610e268188612b91565b60208201965f5260205f20965f5b828110610eab5750505060209550610d268592837ff083f0aa71f20298d1c44ffb7a3ecf49b9dcdaa51dcf4a0b519a39167bcb1c8a610ea07fa7d3ae224c6019488e1452211c528a36b619bfcb8881b5c85248ee05d320b9fc956040519182918d83528d830190612651565b0390a2925050610e01565b60019060206001600160a01b03845116930192818b015501610e34565b634e487b7160e01b5f52604160045260245ffd5b9096503d805f608084013e610ef48160808401612529565b60208282810103126101e35760808201519067ffffffffffffffff82116101e357608081840101609f8385010112156101e3576080828401015191610f388361291e565b93610f466040519586612529565b8385526080602086019382010160a08560051b8484010101116101e35780820160a00192915b60a08560051b82840101018410610f895750505050509587610dfb565b60208060a094610f98876128a9565b8152019401939250610f6c565b50863b1515610cb9565b905082013587610c25565b9050600282015f5260205f20905f5b601f198716811061100c575085601f19811610610ff3575b5050600184811b016002820155610c3b565b8301355f19600387901b60f8161c191690558680610fe1565b90916020600181928588013581550193019101610fc9565b61105290600283015f5260205f20601f870160051c81019160208810611058575b601f0160051c0190612855565b86610c10565b9091508190611045565b608460405163d647364f60e01b815260206004820152603460248201527f546f6f206d616e7920636f6e63757272656e7420656e676167656d656e74732060448201527f666f72207468697320616374696f6e20747970650000000000000000000000006064820152fd5b6110d78183612791565b9054600391821b1c5f52600660205260405f2090868254149182611119575b5050611105575b600101610b9c565b92611111600191612847565b9390506110fd565b60ff925001541661112981612633565b1589806110f6565b608460405163d647364f60e01b815260206004820152602160248201527f5061727469636970616e7420697320696e20636f6f6c646f776e20706572696f60448201527f64000000000000000000000000000000000000000000000000000000000000006064820152fd5b606460405163d647364f60e01b815260206004820152601960248201527f416374696f6e2074797065206973206e6f7420616374697665000000000000006044820152fd5b90506020813d602011611213575b816111fc60209383612529565b810103126101e35761120d9061289c565b85610b5c565b3d91506111ef565b602491955061123d6020913d805f833e6112358183612529565b81019061294b565b959150610b16565b606460405163d647364f60e01b815260206004820152601c60248201527f45766964656e6365204349442063616e6e6f7420626520656d707479000000006044820152fd5b346101e3576020806003193601126101e3576004355f52600a60205260405f20906040519081602084549182815201935f5260205f20915f905b8282106112db576101c8856101bc81890382612529565b8354865294850194600193840193909101906112c4565b346101e357611300366126b9565b821580156115b9575b6109b757825f526020926006845260405f206001906001600160a01b03828201541633036115a25760ff600360029201541661134481612633565b036115385782156114f35761135a600554612847565b9384600555845f526007865260405f20838155828101336001600160a01b0319825416179055600281019067ffffffffffffffff91828711610ec8578688956113a383546124c1565b8b601f82116114c4575b50505f601f83116001146114335792826003937f8b854ce0da61627b71db5b08aa8add12d290d4986ff2a3fa0a8a4bbec82adf40989693610d2698965f93611428575b501b905f198c861b1c19161790555b0190421668ffffffffffffffffff1982541617905560405191829189835233978a84019161286b565b88013592508f6113f0565b5f8481528c81209293508a90601f198216908e5b8282106114a957505092610d26979592600395927f8b854ce0da61627b71db5b08aa8add12d290d4986ff2a3fa0a8a4bbec82adf409a989510611492575b50508a811b0190556113ff565b8701355f198d871b60f8161c191690558d80611485565b848b013586558e9b5094860194938401938d9350018e611447565b6114ec91855f52815f2090601f860160051c820192861061105857601f0160051c0190612855565b8b8b6113ad565b6064856040519063d647364f60e01b82526004820152601d60248201527f41707065616c20726561736f6e2063616e6e6f7420626520656d7074790000006044820152fd5b6084856040519063d647364f60e01b825260048201526024808201527f43616e206f6e6c792061707065616c2072656a656374656420656e676167656d60448201527f656e7473000000000000000000000000000000000000000000000000000000006064820152fd5b6024604051634a0bfec160e01b8152336004820152fd5b506004548311611309565b346101e35760403660031901126101e3576004356024803591821515928381036101e3575f925f5b835f526006602052600460405f200180548210156120ea57611616826001600160a01b0392612791565b919054339260031b1c161461162d576001016115ec565b509091925060015b15610a0857825f5260206006815260405f2094600786019260ff845460401c166120a65767ffffffffffffffff96600390888282015460481c1642116120625760058101335f5280865260ff60405f20541661201e5790600491335f52865260405f209460019860ff19968a8882541617905560068301885260405f208781541660ff84161790555f14611feb57875463ffffffff6116d5818316612811565b169063ffffffff19161788555b604051908152897f42617fa09c8caa7d4f81a73197c4ba0e471fece9de0cea84deadf0f77a840296883393a30154861c94868601809611611fd8575463ffffffff958616908087168211611e145750505f875f526006855260405f2093878386019182541617905560078401986801000000000000000068ff0000000000000000198b5416178a556001600160a01b0390818954168015159081611e09575b5080611dfc575b611dee575b85549560405192632e7edc3160e11b84528760048501525f848881847f0000000000000000000000000000000000000000000000000000000000000000165afa8015610397578b988a955f92611dd2575b50848c6101a08401511680611d94575b505050818754168d81151580611d88575b611c53575b505081600254168d8c826119bd575b50505050819293949596977fd8eb0cefdb0127a28f46f819c890dd12498a91c4e8651ad37cdb4c198f57827392015416915493849383875260088252604087208588528252604087205416604051908152a38152600a8452604081209281875b6118be575b505050505090606092917f63a2ece265013dc14ef474ec9db320c23a7f7138ecebbd5e709273474233004094955490604051938452828216818501521c166040820152a2005b8454808210156119b757896118d38388612791565b905490871b1c146118e75750870187611873565b935f9a969798999a19948581019081116119a457611931929161190d6119199289612791565b9054911b1c9187612791565b90919082549060031b91821b915f19901b1916179055565b83549182156119935750509160609593917f63a2ece265013dc14ef474ec9db320c23a7f7138ecebbd5e709273474233004097959301906119856119758383612791565b8154905f199060031b1b19169055565b559594819293948880611878565b634e487b7160e01b81526031600452fd5b8385634e487b7160e01b81526011600452fd5b50611878565b9193959798999a86606091611b33606489889a9c8f89611b48999b511690508015155f14611c44576119f2611a05919b613186565b9254996119fe8b613186565b9b16613186565b90611afe611a1242613186565b926040519c8d957f7b2274797065223a22656e676167656d656e74222c226964223a00000000000085880152611a518151809287603a8b0191016125ed565b86017f2c2276616c7561626c65416374696f6e223a0000000000000000000000000000603a820152611a8c8251809387604c850191016125ed565b017f2c22706f696e7473223a00000000000000000000000000000000000000000000604c820152611ac682518093866056850191016125ed565b01917f2c2274696d657374616d70223a00000000000000000000000000000000000000605684015283519384916063850191016125ed565b017f7d000000000000000000000000000000000000000000000000000000000000006063820152036044810189520187612529565b89015416950151611b4381612633565b6132b0565b604051947f5788879a00000000000000000000000000000000000000000000000000000000865260048601527f00000000000000000000000000000000000000000000000000000000000000008b86015289811015611c31578885611bc881958f979583956044850152606484015260a0608484015260a483019061260e565b03925af18015611c2657918893918b9897969593611be9575b808d8c611813565b909294959697508391933d8311611c1f575b611c058183612529565b81010312611c1b5791869189969594938d611be1565b8380fd5b503d611bfb565b6040513d87823e3d90fd5b8a89634e487b7160e01b81526021600452fd5b50611a056119f2600a9b613186565b611cec9a50611cfb91929650604a90611c75611c6f8754613186565b91613186565b8d6040519d8e937f56616c7561626c65416374696f6e20230000000000000000000000000000000083860152611cb481518092856030890191016125ed565b8401917f20636f6d706c6574696f6e202d20456e676167656d656e7420230000000000006030840152835193849187850191016125ed565b0103602a81018c52018a612529565b818c84015416908b86511690803b156101e357895f8094611d5b6040519e8f96879586947fd3fc9864000000000000000000000000000000000000000000000000000000008652600486015284015260606044840152606483019061260e565b03925af1938415610397578b988a95611d75575b8d611804565b611d809196506124f9565b5f948e611d6f565b508c83511615156117ff565b611d9e904261283a565b1690838b860154165f526008875260405f20905f52865260405f209067ffffffffffffffff198254161790558e84816117ee565b611de79192503d805f833e6112358183612529565b908f6117de565b611df78a61303c565b61178d565b5060048601541515611788565b90503b15158c611781565b85879896999a5096919294961c161015611e2a57005b8291875f526006875260405f209460028287019182541617905560078501946801000000000000000068ff0000000000000000198754161786556001600160a01b038454168015159081611fcd575b5080611fc0575b611fb2575b545f52600a875260405f20915f945b611ede575b5050505050916060917f63a2ece265013dc14ef474ec9db320c23a7f7138ecebbd5e709273474233004093546040519260028452828216818501521c166040820152a2005b825480861015611fac5789611ef38786612791565b905490851b1c14611f0957508380950194611e94565b93509193905f1993848101908111611f9957611f399291611f2d6119199288612791565b9054911b1c9186612791565b8254908115611f875750917f63a2ece265013dc14ef474ec9db320c23a7f7138ecebbd5e7092734742330040959391606095930190611f7b6119758383612791565b55919381938780611e99565b634e487b7160e01b5f5260316004525ffd5b83634e487b7160e01b5f5260116004525ffd5b50611e99565b611fbb89612c36565b611e85565b5060048101541515611e80565b90503b15158a611e79565b82634e487b7160e01b5f5260116004525ffd5b875467ffffffff0000000061200763ffffffff838b1c16612811565b891b169067ffffffff0000000019161788556116e2565b6064866013866040519263d647364f60e01b845260048401528201527f4a75726f7220616c726561647920766f746564000000000000000000000000006044820152fd5b606485601c856040519263d647364f60e01b845260048401528201527f566572696669636174696f6e20646561646c696e6520706173736564000000006044820152fd5b82601b6064926040519263d647364f60e01b845260048401528201527f456e676167656d656e7420616c7265616479207265736f6c76656400000000006044820152fd5b5050909192611635565b346101e35760203660031901126101e357600435801580156121e5575b6109b7575f52600660205260405f208054906001600160a01b036001820154169060ff6003820154916121c182841667ffffffffffffffff9260078101549363ffffffff96612191612171600461216a6002870161254b565b95016127ba565b936040519b8c9b610140918d5260208d01528060408d01528b019061260e565b9361219b81612633565b60608a0152818160081c1660808a015260481c1660a088015286820360c0880152612651565b9280821660e08601528160201c1661010085015260401c1615156101208301520390f35b506004548111612111565b346101e3576020806003193601126101e3575f805460048035946001600160a01b0383169136106101e3575f60405f809382517fffffffff000000000000000000000000000000000000000000000000000000008a82019263b700961360e01b8452336024840152306044840152166064820152606481526122718161250d565b828052828a525190865afa6123ab575b15612315575b505050508115801561230a575b6109b757600690825f525260405f2060ff600782015460401c16806122f0575b6122ba57005b600301600360ff1982541617905533907fbbced4f2f4eedf16b14afceeba0a9fcf96fc3475c059f0dbc23057708ae47aa65f80a3005b50600160ff60038301541661230481612633565b146122b4565b506004548211612294565b63ffffffff16156103a257600160a01b60ff60a01b19809316175f55803b156101e3575f6040518092634a63ebf760e11b8252336004830152604060248301523660448301523683606484013782606436840101528183606482601f19601f36011681010301925af1801561039757612398575b50815416905582808080612287565b6123a39192506124f9565b5f9084612389565b50505f51845180861c150290612281565b346101e35760203660031901126101e3576004355f52600660205260405f208054906001600160a01b036001820154169060ff6123fb6002830161254b565b60038301549082821693600767ffffffffffffffff9101549261243c63ffffffff93604051998a99610120918b5260208b01528060408b015289019061260e565b9561244681612633565b6060880152818160081c16608088015260481c1660a086015280821660c08601528160201c1660e085015260401c1615156101008301520390f35b346101e3575f3660031901126101e35760206001600160a01b0360015416604051908152f35b346101e3575f3660031901126101e3576020906005548152f35b90600182811c921680156124ef575b60208310146124db57565b634e487b7160e01b5f52602260045260245ffd5b91607f16916124d0565b67ffffffffffffffff8111610ec857604052565b60a0810190811067ffffffffffffffff821117610ec857604052565b90601f8019910116810190811067ffffffffffffffff821117610ec857604052565b9060405191825f825461255d816124c1565b908184526020946001916001811690815f146125cb575060011461258d575b50505061258b92500383612529565b565b5f90815285812095935091905b8183106125b357505061258b93508201015f808061257c565b8554888401850152948501948794509183019161259a565b9250505061258b94925060ff191682840152151560051b8201015f808061257c565b5f5b8381106125fe5750505f910152565b81810151838201526020016125ef565b90602091612627815180928185528580860191016125ed565b601f01601f1916010190565b6004111561263d57565b634e487b7160e01b5f52602160045260245ffd5b9081518082526020808093019301915f5b828110612670575050505090565b83516001600160a01b031685529381019392810192600101612662565b600435906001600160a01b03821682036101e357565b602435906001600160a01b03821682036101e357565b60406003198201126101e3576004359160243567ffffffffffffffff928382116101e357806023830112156101e35781600401359384116101e357602484830101116101e3576024019190565b60209060206040818301928281528551809452019301915f5b82811061272d575050505090565b83518552938101939281019260010161271f565b346101e3575f3660031901126101e35760206040517f00000000000000000000000000000000000000000000000000000000000000008152f35b60409060031901126101e3576004359060243590565b80548210156127a6575f5260205f2001905f90565b634e487b7160e01b5f52603260045260245ffd5b90604051918281549182825260209260208301915f5260205f20935f905b8282106127ee5750505061258b92500383612529565b85546001600160a01b0316845260019586019588955093810193909101906127d8565b63ffffffff8091169081146128265760010190565b634e487b7160e01b5f52601160045260245ffd5b9190820180921161282657565b5f1981146128265760010190565b818110612860575050565b5f8155600101612855565b908060209392818452848401375f828201840152601f01601f1916010190565b519063ffffffff821682036101e357565b519081151582036101e357565b51906001600160a01b03821682036101e357565b67ffffffffffffffff8111610ec857601f01601f191660200190565b81601f820112156101e35780516128ef816128bd565b926128fd6040519485612529565b818452602082840101116101e35761291b91602080850191016125ed565b90565b67ffffffffffffffff8111610ec85760051b60200190565b519067ffffffffffffffff821682036101e357565b60209182828203126101e357815167ffffffffffffffff928382116101e35701916103009384848403126101e35760405194850185811083821117610ec8576040526129968461288b565b85526129a381850161288b565b818601526129b36040850161288b565b6040860152606084015160048110156101e3576060860152608084015160808601526129e160a0850161288b565b60a086015260c084015160058110156101e35760c086015260e084015160e0860152610100612a1181860161288b565b90860152610120612a2381860161288b565b90860152610140612a3581860161288b565b90860152610160612a4781860161288b565b90860152610180612a5981860161288b565b908601526101a0612a6b81860161288b565b908601526101c0612a7d81860161288b565b908601526101e0612a8f81860161289c565b90860152610200612aa181860161288b565b908601526102208085015190860152610240612abe8186016128a9565b90860152610260808501518381116101e35784612adc9187016128d9565b90860152610280808501518381116101e35784612afa9187016128d9565b908601526102a091828501519081116101e35784019280601f850112156101e3578351612b268161291e565b94612b346040519687612529565b818652838087019260051b8201019283116101e3578301905b828210612b8257505050508301526102c0612b69818301612936565b90830152612b7b6102e0809201612936565b9082015290565b81518152908301908301612b4d565b90680100000000000000008111610ec857815490808355818110612bb457505050565b61258b925f5260205f209182019101612855565b9081549168010000000000000000831015610ec8578261191991600161258b95018155612791565b90612bfa8261291e565b612c076040519182612529565b8281528092612c18601f199161291e565b0190602036910137565b80518210156127a65760209160051b010190565b5f815f5260209060068252604090815f209160049081840180549081156130325790612c6181612bf0565b955f92600582019160060190845b848110612fbd57505050505080612c8a575b50505050505050565b612c9b819893949897959697612bf0565b955f5b828110612f8f57505050612cb184613186565b936002978896875f985b612f755750612cc9886128bd565b98612cd685519a8b612529565b888a52612ce2896128bd565b8a82019990601f1901368b375b808c15612dba575f198201918211612da757819c600a9283820493808502908582041485151715612d94578203918211612d815760ff809216603001918211612d81578d511115612d6e5760f81b7fff00000000000000000000000000000000000000000000000000000000000000165f1a908c01601f01539a612cef565b60328a634e487b7160e01b5f525260245ffd5b60118b634e487b7160e01b5f525260245ffd5b60118c634e487b7160e01b5f525260245ffd5b601189634e487b7160e01b5f525260245ffd5b50509297603c91959a5096612e509297612e41959a8b519687937f656e676167656d656e742d00000000000000000000000000000000000000000088860152612e0c815180928a602b890191016125ed565b8401917f2d696e636f72726563742d766f7465732d000000000000000000000000000000602b840152518093868401906125ed565b0103601c810185520183612529565b6001600160a01b0360015416917f000000000000000000000000000000000000000000000000000000000000000097833b156101e3577f3ccd14503f46adfbc41657ef19497340b23f3b699a4f070e86d385da7aa2f49c96855f8b612f4a978c83612f379c612f12612f008a51988997889687957f9f0e661a0000000000000000000000000000000000000000000000000000000087528601526024850152608060448501526084840190612651565b8281036003190160648401528b61260e565b03925af19081612f62575b50612f5957925b8151968796606088526060880190612651565b931515908601528483039085015261260e565b0390a35f808080808080612c81565b50600192612f24565b612f6d9192506124f9565b5f905f612f1d565b97612f84600a919b989b612847565b9804809a979a612cbb565b806001600160a01b03612fa7600193859d9a9d612c22565b5116612fb3828b612c22565b5201989598612c9e565b6001600160a01b03612fcf8284612791565b90549060031b1c16805f52848c528a8c8560ff91828c5f205416156130255752895f205416613005575b50506001905b01612c6f565b9661301d91613017826001959a612c22565b52612847565b95908a612ff9565b5050505050600190612fff565b5050505050505050565b5f815f5260209060068252604090815f20916004908184018054908115613032579061306781612bf0565b955f92600582019160060190845b8481106131165750505050508061308f5750505050505050565b6130a0819893949897959697612bf0565b955f5b8281106130e8575050506130b684613186565b936001978896875f985b6130ce5750612cc9886128bd565b976130dd600a919b989b612847565b9804809a979a6130c0565b806001600160a01b03613100600193859d9a9d612c22565b511661310c828b612c22565b52019895986130a3565b6001600160a01b036131288284612791565b90549060031b1c16805f52848c528a8c8560ff91828c5f205416156131795752895f2054161561315f575b50506001905b01613075565b9661317191613017826001959a612c22565b95908a613153565b5050505050600190613159565b801561326557905f9082805b61324b57506131a0826128bd565b916131ae6040519384612529565b808352601f196131bd826128bd565b013660208501375b808415613244575f198201918211612826578194600a92838204938085029085820414851517156128265782039182116128265760ff80921660300191821161282657855111156127a65760f81b7fff00000000000000000000000000000000000000000000000000000000000000165f1a908401601f0153926131c5565b5050915090565b9161325a600a91949294612847565b920480939193613192565b506040516040810181811067ffffffffffffffff821117610ec857604052600181527f3000000000000000000000000000000000000000000000000000000000000000602082015290565b6003906132bc81612633565b146132c5575f90565b60029056fea26469706673582212201222a8f9475c619f86d3ea715146536a9a9510742901bceb0dfbbbe468379c1964736f6c63430008180033","linkReferences":{}},"methodIdentifiers":{"actionRegistry()":"e4e39678","appeals(uint256)":"acff8687","assignJurors(uint256,address[])":"75b0e1f1","authority()":"bf7e214f","communityId()":"7f50861a","engagements(uint256)":"0f2516f4","engagementsByParticipant(uint256,uint256)":"94efe610","getCommunityId()":"7e0766d4","getEngagement(uint256)":"2e94dfda","getEngagementInfo(uint256)":"7935b495","getEngagementJurors(uint256)":"b3afac9d","getEngagementsByParticipant(address)":"fa810fb2","getParticipantCooldown(address,uint256)":"327dac78","getPendingEngagements(uint256)":"5352d75e","hasJurorVoted(uint256,address)":"6c8dc288","isConsumingScheduledOp()":"8fb36037","lastAppealId()":"090563f4","lastEngagementId()":"649d3d29","membershipToken()":"62ad351b","participantCooldowns(address,uint256)":"b3d557e3","pendingEngagements(uint256,uint256)":"d6aa9b6e","revoke(uint256)":"20c5429b","setAuthority(address)":"7a9e5e4b","submit(uint256,string)":"5d63f6c6","submitAppeal(uint256,string)":"3f6e3ca9","updateContracts(address,address)":"e692c49f","valuableActionSBT()":"e8901184","verifierManager()":"0cbd99a6","verify(uint256,bool)":"3e7cb0d3"},"id":6}