{"abi":[{"type":"constructor","inputs":[{"name":"manager","type":"address","internalType":"address"},{"name":"_commerceDisputes","type":"address","internalType":"address"},{"name":"_revenueRouter","type":"address","internalType":"address"},{"name":"_communityId","type":"uint256","internalType":"uint256"}],"stateMutability":"nonpayable"},{"type":"function","name":"BPS_DENOMINATOR","inputs":[],"outputs":[{"name":"","type":"uint256","internalType":"uint256"}],"stateMutability":"view"},{"type":"function","name":"DISPUTE_WINDOW","inputs":[],"outputs":[{"name":"","type":"uint256","internalType":"uint256"}],"stateMutability":"view"},{"type":"function","name":"OUTCOME_PAID","inputs":[],"outputs":[{"name":"","type":"uint8","internalType":"uint8"}],"stateMutability":"view"},{"type":"function","name":"OUTCOME_REFUNDED","inputs":[],"outputs":[{"name":"","type":"uint8","internalType":"uint8"}],"stateMutability":"view"},{"type":"function","name":"authority","inputs":[],"outputs":[{"name":"","type":"address","internalType":"address"}],"stateMutability":"view"},{"type":"function","name":"canOpenDispute","inputs":[{"name":"orderId","type":"uint256","internalType":"uint256"}],"outputs":[{"name":"","type":"bool","internalType":"bool"}],"stateMutability":"view"},{"type":"function","name":"canSettle","inputs":[{"name":"orderId","type":"uint256","internalType":"uint256"}],"outputs":[{"name":"","type":"bool","internalType":"bool"}],"stateMutability":"view"},{"type":"function","name":"commerceDisputes","inputs":[],"outputs":[{"name":"","type":"address","internalType":"contract CommerceDisputes"}],"stateMutability":"view"},{"type":"function","name":"communityActive","inputs":[{"name":"communityId_","type":"uint256","internalType":"uint256"}],"outputs":[{"name":"","type":"bool","internalType":"bool"}],"stateMutability":"view"},{"type":"function","name":"communityId","inputs":[],"outputs":[{"name":"","type":"uint256","internalType":"uint256"}],"stateMutability":"view"},{"type":"function","name":"communityTokens","inputs":[{"name":"communityId_","type":"uint256","internalType":"uint256"}],"outputs":[{"name":"","type":"address","internalType":"address"}],"stateMutability":"view"},{"type":"function","name":"createOffer","inputs":[{"name":"communityId_","type":"uint256","internalType":"uint256"},{"name":"kind","type":"uint8","internalType":"enum Marketplace.OfferKind"},{"name":"productContract","type":"address","internalType":"address"},{"name":"productId","type":"uint256","internalType":"uint256"},{"name":"basePrice","type":"uint256","internalType":"uint256"},{"name":"pricingCurrency","type":"address","internalType":"address"},{"name":"acceptCommunityToken","type":"bool","internalType":"bool"},{"name":"acceptStablecoin","type":"bool","internalType":"bool"},{"name":"communityTokenDiscountBps","type":"uint256","internalType":"uint256"},{"name":"stablecoin","type":"address","internalType":"address"},{"name":"cohortTag","type":"uint256","internalType":"uint256"},{"name":"metadataURI","type":"string","internalType":"string"}],"outputs":[{"name":"offerId","type":"uint256","internalType":"uint256"}],"stateMutability":"nonpayable"},{"type":"function","name":"disputeToOrder","inputs":[{"name":"","type":"uint256","internalType":"uint256"}],"outputs":[{"name":"","type":"uint256","internalType":"uint256"}],"stateMutability":"view"},{"type":"function","name":"getOffer","inputs":[{"name":"offerId","type":"uint256","internalType":"uint256"}],"outputs":[{"name":"","type":"tuple","internalType":"struct Marketplace.Offer","components":[{"name":"offerId","type":"uint256","internalType":"uint256"},{"name":"communityId","type":"uint256","internalType":"uint256"},{"name":"seller","type":"address","internalType":"address"},{"name":"kind","type":"uint8","internalType":"enum Marketplace.OfferKind"},{"name":"productContract","type":"address","internalType":"address"},{"name":"productId","type":"uint256","internalType":"uint256"},{"name":"basePrice","type":"uint256","internalType":"uint256"},{"name":"pricingCurrency","type":"address","internalType":"address"},{"name":"acceptCommunityToken","type":"bool","internalType":"bool"},{"name":"acceptStablecoin","type":"bool","internalType":"bool"},{"name":"communityTokenDiscountBps","type":"uint256","internalType":"uint256"},{"name":"stablecoin","type":"address","internalType":"address"},{"name":"active","type":"bool","internalType":"bool"},{"name":"cohortTag","type":"uint256","internalType":"uint256"},{"name":"metadataURI","type":"string","internalType":"string"}]}],"stateMutability":"view"},{"type":"function","name":"getOrder","inputs":[{"name":"orderId","type":"uint256","internalType":"uint256"}],"outputs":[{"name":"","type":"tuple","internalType":"struct Marketplace.Order","components":[{"name":"orderId","type":"uint256","internalType":"uint256"},{"name":"offerId","type":"uint256","internalType":"uint256"},{"name":"buyer","type":"address","internalType":"address"},{"name":"paymentToken","type":"address","internalType":"address"},{"name":"amount","type":"uint256","internalType":"uint256"},{"name":"status","type":"uint8","internalType":"enum Marketplace.OrderStatus"},{"name":"createdAt","type":"uint64","internalType":"uint64"},{"name":"fulfilledAt","type":"uint64","internalType":"uint64"},{"name":"resourceId","type":"uint256","internalType":"uint256"},{"name":"disputeId","type":"uint256","internalType":"uint256"}]}],"stateMutability":"view"},{"type":"function","name":"isConsumingScheduledOp","inputs":[],"outputs":[{"name":"","type":"bytes4","internalType":"bytes4"}],"stateMutability":"view"},{"type":"function","name":"markOrderFulfilled","inputs":[{"name":"orderId","type":"uint256","internalType":"uint256"}],"outputs":[],"stateMutability":"nonpayable"},{"type":"function","name":"nextOfferId","inputs":[],"outputs":[{"name":"","type":"uint256","internalType":"uint256"}],"stateMutability":"view"},{"type":"function","name":"nextOrderId","inputs":[],"outputs":[{"name":"","type":"uint256","internalType":"uint256"}],"stateMutability":"view"},{"type":"function","name":"offers","inputs":[{"name":"","type":"uint256","internalType":"uint256"}],"outputs":[{"name":"offerId","type":"uint256","internalType":"uint256"},{"name":"communityId","type":"uint256","internalType":"uint256"},{"name":"seller","type":"address","internalType":"address"},{"name":"kind","type":"uint8","internalType":"enum Marketplace.OfferKind"},{"name":"productContract","type":"address","internalType":"address"},{"name":"productId","type":"uint256","internalType":"uint256"},{"name":"basePrice","type":"uint256","internalType":"uint256"},{"name":"pricingCurrency","type":"address","internalType":"address"},{"name":"acceptCommunityToken","type":"bool","internalType":"bool"},{"name":"acceptStablecoin","type":"bool","internalType":"bool"},{"name":"communityTokenDiscountBps","type":"uint256","internalType":"uint256"},{"name":"stablecoin","type":"address","internalType":"address"},{"name":"active","type":"bool","internalType":"bool"},{"name":"cohortTag","type":"uint256","internalType":"uint256"},{"name":"metadataURI","type":"string","internalType":"string"}],"stateMutability":"view"},{"type":"function","name":"onDisputeResolved","inputs":[{"name":"disputeId","type":"uint256","internalType":"uint256"},{"name":"outcomeValue","type":"uint8","internalType":"uint8"}],"outputs":[],"stateMutability":"nonpayable"},{"type":"function","name":"openOrderDispute","inputs":[{"name":"orderId","type":"uint256","internalType":"uint256"},{"name":"evidenceURI","type":"string","internalType":"string"}],"outputs":[],"stateMutability":"nonpayable"},{"type":"function","name":"orders","inputs":[{"name":"","type":"uint256","internalType":"uint256"}],"outputs":[{"name":"orderId","type":"uint256","internalType":"uint256"},{"name":"offerId","type":"uint256","internalType":"uint256"},{"name":"buyer","type":"address","internalType":"address"},{"name":"paymentToken","type":"address","internalType":"address"},{"name":"amount","type":"uint256","internalType":"uint256"},{"name":"status","type":"uint8","internalType":"enum Marketplace.OrderStatus"},{"name":"createdAt","type":"uint64","internalType":"uint64"},{"name":"fulfilledAt","type":"uint64","internalType":"uint64"},{"name":"resourceId","type":"uint256","internalType":"uint256"},{"name":"disputeId","type":"uint256","internalType":"uint256"}],"stateMutability":"view"},{"type":"function","name":"purchase","inputs":[{"name":"offerId","type":"uint256","internalType":"uint256"},{"name":"paymentToken","type":"address","internalType":"address"},{"name":"params","type":"bytes","internalType":"bytes"}],"outputs":[{"name":"orderId","type":"uint256","internalType":"uint256"}],"stateMutability":"nonpayable"},{"type":"function","name":"revenueRouter","inputs":[],"outputs":[{"name":"","type":"address","internalType":"contract RevenueRouter"}],"stateMutability":"view"},{"type":"function","name":"setAuthority","inputs":[{"name":"newAuthority","type":"address","internalType":"address"}],"outputs":[],"stateMutability":"nonpayable"},{"type":"function","name":"setCommerceDisputes","inputs":[{"name":"_commerceDisputes","type":"address","internalType":"address"}],"outputs":[],"stateMutability":"nonpayable"},{"type":"function","name":"setCommunityActive","inputs":[{"name":"communityId_","type":"uint256","internalType":"uint256"},{"name":"active","type":"bool","internalType":"bool"}],"outputs":[],"stateMutability":"nonpayable"},{"type":"function","name":"setCommunityToken","inputs":[{"name":"communityId_","type":"uint256","internalType":"uint256"},{"name":"token","type":"address","internalType":"address"}],"outputs":[],"stateMutability":"nonpayable"},{"type":"function","name":"setRevenueRouter","inputs":[{"name":"_revenueRouter","type":"address","internalType":"address"}],"outputs":[],"stateMutability":"nonpayable"},{"type":"function","name":"settleOrder","inputs":[{"name":"orderId","type":"uint256","internalType":"uint256"}],"outputs":[],"stateMutability":"nonpayable"},{"type":"function","name":"updateOffer","inputs":[{"name":"offerId","type":"uint256","internalType":"uint256"},{"name":"active","type":"bool","internalType":"bool"},{"name":"basePrice","type":"uint256","internalType":"uint256"}],"outputs":[],"stateMutability":"nonpayable"},{"type":"event","name":"AuthorityUpdated","inputs":[{"name":"authority","type":"address","indexed":false,"internalType":"address"}],"anonymous":false},{"type":"event","name":"OfferCreated","inputs":[{"name":"offerId","type":"uint256","indexed":true,"internalType":"uint256"},{"name":"communityId","type":"uint256","indexed":true,"internalType":"uint256"},{"name":"seller","type":"address","indexed":true,"internalType":"address"},{"name":"kind","type":"uint8","indexed":false,"internalType":"enum Marketplace.OfferKind"},{"name":"productContract","type":"address","indexed":false,"internalType":"address"},{"name":"productId","type":"uint256","indexed":false,"internalType":"uint256"}],"anonymous":false},{"type":"event","name":"OfferUpdated","inputs":[{"name":"offerId","type":"uint256","indexed":true,"internalType":"uint256"},{"name":"active","type":"bool","indexed":false,"internalType":"bool"},{"name":"basePrice","type":"uint256","indexed":false,"internalType":"uint256"}],"anonymous":false},{"type":"event","name":"OrderCreated","inputs":[{"name":"orderId","type":"uint256","indexed":true,"internalType":"uint256"},{"name":"offerId","type":"uint256","indexed":true,"internalType":"uint256"},{"name":"buyer","type":"address","indexed":true,"internalType":"address"},{"name":"paymentToken","type":"address","indexed":false,"internalType":"address"},{"name":"amount","type":"uint256","indexed":false,"internalType":"uint256"}],"anonymous":false},{"type":"event","name":"OrderDisputeOpened","inputs":[{"name":"orderId","type":"uint256","indexed":true,"internalType":"uint256"},{"name":"disputeId","type":"uint256","indexed":true,"internalType":"uint256"}],"anonymous":false},{"type":"event","name":"OrderDisputeResolved","inputs":[{"name":"orderId","type":"uint256","indexed":true,"internalType":"uint256"},{"name":"disputeId","type":"uint256","indexed":true,"internalType":"uint256"},{"name":"outcome","type":"uint8","indexed":false,"internalType":"uint8"},{"name":"seller","type":"address","indexed":false,"internalType":"address"},{"name":"buyer","type":"address","indexed":false,"internalType":"address"},{"name":"communityId","type":"uint256","indexed":false,"internalType":"uint256"}],"anonymous":false},{"type":"event","name":"OrderFulfilled","inputs":[{"name":"orderId","type":"uint256","indexed":true,"internalType":"uint256"},{"name":"fulfilledAt","type":"uint64","indexed":false,"internalType":"uint64"}],"anonymous":false},{"type":"event","name":"OrderRefunded","inputs":[{"name":"orderId","type":"uint256","indexed":true,"internalType":"uint256"},{"name":"amount","type":"uint256","indexed":false,"internalType":"uint256"},{"name":"paymentToken","type":"address","indexed":false,"internalType":"address"}],"anonymous":false},{"type":"event","name":"OrderSettled","inputs":[{"name":"orderId","type":"uint256","indexed":true,"internalType":"uint256"},{"name":"amount","type":"uint256","indexed":false,"internalType":"uint256"},{"name":"paymentToken","type":"address","indexed":false,"internalType":"address"}],"anonymous":false},{"type":"error","name":"AccessManagedInvalidAuthority","inputs":[{"name":"authority","type":"address","internalType":"address"}]},{"type":"error","name":"AccessManagedRequiredDelay","inputs":[{"name":"caller","type":"address","internalType":"address"},{"name":"delay","type":"uint32","internalType":"uint32"}]},{"type":"error","name":"AccessManagedUnauthorized","inputs":[{"name":"caller","type":"address","internalType":"address"}]},{"type":"error","name":"CommunityNotActive","inputs":[{"name":"communityId","type":"uint256","internalType":"uint256"}]},{"type":"error","name":"DisputeWindowActive","inputs":[]},{"type":"error","name":"DisputeWindowClosed","inputs":[]},{"type":"error","name":"InvalidDiscount","inputs":[]},{"type":"error","name":"InvalidInput","inputs":[{"name":"reason","type":"string","internalType":"string"}]},{"type":"error","name":"InvalidStatus","inputs":[{"name":"current","type":"uint8","internalType":"enum Marketplace.OrderStatus"},{"name":"required","type":"uint8","internalType":"enum Marketplace.OrderStatus"}]},{"type":"error","name":"OfferNotActive","inputs":[{"name":"offerId","type":"uint256","internalType":"uint256"}]},{"type":"error","name":"OfferNotFound","inputs":[{"name":"offerId","type":"uint256","internalType":"uint256"}]},{"type":"error","name":"OnlyBuyer","inputs":[]},{"type":"error","name":"OnlySeller","inputs":[]},{"type":"error","name":"OrderNotFound","inputs":[{"name":"orderId","type":"uint256","internalType":"uint256"}]},{"type":"error","name":"PaymentTokenNotAccepted","inputs":[{"name":"token","type":"address","internalType":"address"}]},{"type":"error","name":"ReentrancyGuardReentrantCall","inputs":[]},{"type":"error","name":"SafeERC20FailedOperation","inputs":[{"name":"token","type":"address","internalType":"address"}]},{"type":"error","name":"UnauthorizedCaller","inputs":[{"name":"caller","type":"address","internalType":"address"}]}],"bytecode":{"object":"0x60a0346200019c57601f62002d1f38819003918201601f19168301916001600160401b03831184841017620001a0578084926080946040528339810103126200019c576200004d81620001b4565b6200005b60208301620001b4565b9060606200006c60408501620001b4565b93015160017f9b779b17422d0df92223018b32b4d1fa46e071723d6817e2486d003becc55f00555f80546001600160a01b039384166001600160a01b0319918216811790925560405191825291949193907f2f658b440c35314f52658ea8a740e05b284cdc84dc9ae01e891f21b8933e7cad90602090a16001600255600160045584156200015657821683600654161760065516906007541617600755608052604051612b559081620001ca8239608051818181610e4001528181611153015281816113d501528181612458015281816124910152818161267c0152818161281401526129f70152f35b60405163d647364f60e01b815260206004820152601b60248201527f436f6d6d756e6974792049442063616e6e6f74206265207a65726f00000000006044820152606490fd5b5f80fd5b634e487b7160e01b5f52604160045260245ffd5b51906001600160a01b03821682036200019c5756fe60806040526004361015610011575f80fd5b5f803560e01c80630562d1cd146121df5780632967ea43146121925780632a58b330146121755780632b78aa4d1461215a5780633493197b14611b6e5780634222845714611b445780634579268a146118ef578063503ece4e146118c95780635f5d0655146118ac57806363b8ba0e146117dc578063708a974b146115015780637a9e5e4b146114445780637e840d2e146113f85780637f50861a146113be5780638a72ea6a1461129d5780638af1971614610d565780638fb3603714610ce35780639d083cb414610bd0578063a01371f514610845578063a85c38ef14610797578063b3b917d914610756578063b50e801d1461056b578063bf7e214f14610545578063c02d087214610492578063d09ef241146102ec578063d3e4047a146102bc578063df69433b14610223578063e1a4521814610206578063e744b66b146101ea578063e8855812146101c3578063f11b2bc81461019a5763f585dc571461017a575f80fd5b3461019757806003193601126101975760206040516203f4808152f35b80fd5b50346101975760203660031901126101975760206101b960043561248f565b6040519015158152f35b503461019757806003193601126101975760206001600160a01b0360075416604051908152f35b5034610197578060031936011261019757602060405160018152f35b503461019757806003193601126101975760206040516127108152f35b50346101975760203660031901126101975760043581526003602052600560408220015460ff811660078110156102a857600214908161026b575b6020826040519015158152f35b67ffffffffffffffff915060481c16906203f4808201809211610294575060209042115f61025e565b80634e487b7160e01b602492526011600452fd5b602483634e487b7160e01b81526021600452fd5b50346101975760203660031901126101975760206102db600435612456565b6001600160a01b0360405191168152f35b50346101975760203660031901126101975780604091610120835161031081612309565b82815282602082015282858201528260608201528260808201528260a08201528260c08201528260e0820152826101008201520152600435815260036020522060405161035c81612309565b81548152600182015460208201526001600160a01b0360028301541660408201526001600160a01b03600383015416606082015260048201546080820152600582015460ff811692600784101561047e5767ffffffffffffffff6007926101409560a0860152818160081c1660c086015260481c1660e0840152600681015461010084015201546101208201526101206040519180518352602081015160208401526001600160a01b0360408201511660408401526001600160a01b0360608201511660608401526080810151608084015261044060a082015160a085019061241b565b67ffffffffffffffff60c08201511660c084015267ffffffffffffffff60e08201511660e08401526101008101516101008401520151610120820152f35b634e487b7160e01b5f52602160045260245ffd5b503461019757602036600319011261019757600435815260036020526040812060058101549060ff821660078110156105315760021491826104f2575b5060209250816104e5575b506040519015158152f35b600791500154155f6104da565b67ffffffffffffffff91925060481c166203f480810180911161051d5760209250421115905f6104cf565b602483634e487b7160e01b81526011600452fd5b602484634e487b7160e01b81526021600452fd5b50346101975780600319360112610197576001600160a01b036020915416604051908152f35b5034610197576020366003190112610197576004356105886126e7565b808252600360205260408220541561073e5780825260036020526040822060018101548352600160205260408320906001600160a01b0380600284015416330361071457600582019283549060ff8216600781101561070057600281036106d9575067ffffffffffffffff8260481c166203f48081018091116106c557421061069b577f0438ae4aeacbb97ded863730513043b050da81d6dbbd2de13aae486da885f0f09460046106409360ff191617905583612741565b600360048301549201541690610671604051928392839092916001600160a01b036020916040840195845216910152565b0390a260017f9b779b17422d0df92223018b32b4d1fa46e071723d6817e2486d003becc55f005580f35b60046040517fe52e798f000000000000000000000000000000000000000000000000000000008152fd5b602488634e487b7160e01b81526011600452fd5b6044906106f76040519163f924664d60e01b8352600483019061241b565b60026024820152fd5b602488634e487b7160e01b81526021600452fd5b60046040517f85d1f726000000000000000000000000000000000000000000000000000000008152fd5b602490604051906313a42eb760e21b82526004820152fd5b5034610197576020366003190112610197576001600160a01b03610778612220565b61078236336124c1565b166001600160a01b0319600754161760075580f35b50346101975760203660031901126101975760406101409160043581526003602052208054906001810154906001600160a01b038060028301541690600383015416600483015460058401549167ffffffffffffffff936007600687015496015496604051988952602089015260408801526060870152608086015261082360a0860160ff831661241b565b818160081c1660c086015260481c1660e0840152610100830152610120820152f35b5034610aaf576040366003190112610aaf576004356024803560ff8116809103610aaf576108716126e7565b6001600160a01b039182600654163303610ba257835f52600560205260405f2054928315610b8b57835f526003908160205260405f209260018401545f52600160205260405f209260058501805460ff81166007811015610b7857838103610b535750889392919060018903610ab35750600560ff198254161790558086019184808454169261090f8260028b0154169460048b0195865491612a8d565b8701541690816109e4575b5050927ee3b833dfa15fc2ef46b0bc1a8adc8f87485648b140e6d391a61f73eb3109b19694927f62d8641ff5d28239342755632dd9b154e685e2939d082a23d6af44f52cd90a9c60019383608099975491541690610993604051928392839092916001600160a01b036020916040840195845216910152565b0390a25b60028181850154169401541691015491604051938452602084015260408301526060820152a360017f9b779b17422d0df92223018b32b4d1fa46e071723d6817e2486d003becc55f005580f35b9091929350600486015490600688015492803b15610aaf575f928360649260405196879586946360e2b09d60e11b86526004860152840152600260448401525af18015610aa457610a3a575b908188939261091a565b600191995092877f62d8641ff5d28239342755632dd9b154e685e2939d082a23d6af44f52cd90a9c7ee3b833dfa15fc2ef46b0bc1a8adc8f87485648b140e6d391a61f73eb3109b1989694610a9160809997612343565b835f9d9550969850949698505050610a30565b6040513d5f823e3d90fd5b5f80fd5b6001935060809795928997959260027ee3b833dfa15fc2ef46b0bc1a8adc8f87485648b140e6d391a61f73eb3109b19b14610af2575b50505050610997565b60047f0438ae4aeacbb97ded863730513043b050da81d6dbbd2de13aae486da885f0f09360ff1916179055610b278688612741565b600487015490870154604080519283529085166001600160a01b0316602083015290a2875f8080610ae9565b6044908486610b736040519363f924664d60e01b8552600485019061241b565b820152fd5b84634e487b7160e01b5f5260216004525ffd5b5082604051906313a42eb760e21b82526004820152fd5b6040517fd86ad9cf000000000000000000000000000000000000000000000000000000008152336004820152fd5b34610aaf576020366003190112610aaf57600435805f52600360205260405f20541561073e57805f52600360205260405f2060018101545f5260016020526001600160a01b03600260405f20015416330361071457600501805460ff8116600781101561047e5760018103610cbc57507fffffffffffffffffffffffffffffff0000000000000000ffffffffffffffff00164260481b70ffffffffffffffff000000000000000000161760021781557f8b02a6bd2a882848d63ad9fe5722de87bacc09c84011817b7c5b5fcd8b2e76ba9060209067ffffffffffffffff905460481c16604051908152a2005b604490610cda6040519163f924664d60e01b8352600483019061241b565b60016024820152fd5b34610aaf575f366003190112610aaf575f5460a01c60ff1615610d4e5760207f8fb36037000000000000000000000000000000000000000000000000000000005b7fffffffff0000000000000000000000000000000000000000000000000000000060405191168152f35b60205f610d24565b34610aaf57610180366003190112610aaf5760043560026024351015610aaf57604435906001600160a01b0382168203610aaf5760a435916001600160a01b0383168303610aaf5760c435918215158303610aaf5760e4358015158103610aaf5761012435906001600160a01b0382168203610aaf576101643567ffffffffffffffff8111610aaf57610ded90369060040161225b565b929093610df98161267a565b60ff60085460a01c161561126c57506127106101043511611242576001600160a01b039160025496610e2a88612448565b6002558360405199610e3b8b612326565b898b527f000000000000000000000000000000000000000000000000000000000000000060208c01523360408c0152610e75602435612289565b60243560608c015281891660808c015260643560a08c015260843560c08c01521660e08a01521515610100890152151561012088015261010435610140880152166101608601526001610180860152610144356101a086015267ffffffffffffffff811161122e5760405191610ef5601f8301601f191660200184612357565b8183523682820111610aaf57815f9260209283860137830101526101c0840152815f5260016020526101c0600a60405f208551815560208601516001820155600281016001600160a01b036040880151168154907fffffffffffffffffffffff00000000000000000000000000000000000000000060ff60a01b60608b0151610f7d81612289565b610f8681612289565b60a01b169216171790556110a1600382016001600160a01b03608089015116906001600160a01b0319918282541617905560a0880151600484015560c08801516005840155600683016001600160a01b0360e08a0151168282541617815561100c6101008a01511515829060ff60a01b1960ff60a01b835492151560a01b169116179055565b61012089015115157fffffffffffffffffffff00ffffffffffffffffffffffffffffffffffffffffff75ff00000000000000000000000000000000000000000083549260a81b169116179055610140880151600784015560088301906001600160a01b036101608a01511690825416178155610180880151151560ff60a01b1960ff60a01b835492151560a01b169116179055565b6101a086015160098201550193015192835167ffffffffffffffff811161122e576110cc82546122d1565b601f81116111e9575b50806020958690601f8311600114611187575f9261117c575b50508160011b915f199060031b1c19161790555b6001600160a01b0360405191611119602435612289565b6024358352168382015260643560408201523390827f2e4e071828d4444515fa26c9c8d05a23cd7c2fe4d89865797b13fe2e4322506660607f000000000000000000000000000000000000000000000000000000000000000093a4604051908152f35b0151905086806110ee565b5f8581528881209350601f198516905b8181106111d257509084600195949392106111ba575b505050811b019055611102565b01515f1960f88460031b161c191690558680806111ad565b929389600181928786015181550195019301611197565b825f5260205f20601f830160051c81019160208410611224575b601f0160051c01905b81811061121957506110d5565b5f815560010161120c565b9091508190611203565b634e487b7160e01b5f52604160045260245ffd5b60046040517f997ea360000000000000000000000000000000000000000000000000000000008152fd5b602490604051907f8947da350000000000000000000000000000000000000000000000000000000082526004820152fd5b34610aaf576020366003190112610aaf576004355f52600160205260405f2080549060018101549060028101549260038201546001600160a01b031691600481015460058201546006830154600784015491600885015493600986015495600a0161130790612379565b976040519a8b9a6101e0998c5260208c01526001600160a01b03811660408c01528060a01c60ff1661133890612289565b60a01c60ff1660608b015260808a015260a089015260c08801526001600160a01b03811660e08801528060a01c60ff16151561010088015260a81c60ff1615156101208701526101408601526001600160a01b03811661016086015260a01c60ff1615156101808501526101a0840152806101c084015282016113ba91612293565b0390f35b34610aaf575f366003190112610aaf5760206040517f00000000000000000000000000000000000000000000000000000000000000008152f35b34610aaf576040366003190112610aaf576001600160a01b03611419612236565b61142336336124c1565b61142e60043561267a565b166001600160a01b031960085416176008555f80f35b34610aaf576020366003190112610aaf5761145d612220565b5f54906001600160a01b039081831633036114eb57803b156114b9577f2f658b440c35314f52658ea8a740e05b284cdc84dc9ae01e891f21b8933e7cad926020926001600160a01b0319921691829116175f55604051908152a1005b602491604051917fc2f31e5e000000000000000000000000000000000000000000000000000000008352166004820152fd5b602460405162d1953b60e31b8152336004820152fd5b34610aaf576040366003190112610aaf57602460043567ffffffffffffffff8235818111610aaf5761153790369060040161225b565b916115406126e7565b835f526020926003845260405f2054156117c557845f526003845260405f209560018701545f526001855260405f20906001600160a01b03948560028a0154169384330361179b5760058a0195865460ff811660078110156117885760028103611767575060481c166203f480810180911161175457421161172a5760078a019687546116e657926116398a935f9360048760028e9b9a9960065416990154169e01546040519e8f998a9889977fbe11f1ac0000000000000000000000000000000000000000000000000000000089528960048a015288015260448701526064860152608485015260c060a485015260c4840191612428565b03925af1948515610aa4575f956116b2575b50600592918591600360ff1982541617905555835f52528060405f20557feaaac4730c027d75122b2fed3aaeccdd96ae7c1d515e12392379bf648c88bceb5f80a360017f9b779b17422d0df92223018b32b4d1fa46e071723d6817e2486d003becc55f0055005b928092955083813d83116116df575b6116cb8183612357565b81010312610aaf576005925194919261164b565b503d6116c1565b6064896016866040519263d647364f60e01b845260048401528201527f4469737075746520616c726561647920657869737473000000000000000000006044820152fd5b60046040517f435a3cfe000000000000000000000000000000000000000000000000000000008152fd5b83634e487b7160e01b5f5260116004525ffd5b604490600287610b736040519363f924664d60e01b8552600485019061241b565b85634e487b7160e01b5f5260216004525ffd5b60046040517f86efbb55000000000000000000000000000000000000000000000000000000008152fd5b8585604051906313a42eb760e21b82526004820152fd5b34610aaf576060366003190112610aaf576004356117f861224c565b60443590825f52600160205260405f20541561189457825f52600160205260405f20906001600160a01b0360028301541633036107145760088201805460ff60a01b191682151560a01b60ff60a01b161790557fe39eaecce2d1ddf3a18cc260e6c343b85cb5319d7a62273263c4ec5759192bca92604092819081611889575b5050825191151582526020820152a2005b600501558086611878565b602483604051906307cddb9360e21b82526004820152fd5b34610aaf575f366003190112610aaf576020600254604051908152f35b34610aaf575f366003190112610aaf5760206001600160a01b0360065416604051908152f35b34610aaf576020366003190112610aaf5760606101c060405161191181612326565b5f81525f60208201525f60408201525f838201525f60808201525f60a08201525f60c08201525f60e08201525f6101008201525f6101208201525f6101408201525f6101608201525f6101808201525f6101a082015201526004355f5260016020526101c060405f20611a58600a6040519261198c84612326565b805484526001810154602085015260ff60028201546001600160a01b038116604087015260a01c166119bd81612289565b60608501526001600160a01b036003820154166080850152600481015460a0850152600581015460c085015260ff60068201546001600160a01b03811660e0870152818160a01c16151561010087015260a81c161515610120850152600781015461014085015260ff60088201546001600160a01b03811661016087015260a01c16151561018085015260098101546101a085015201612379565b828201526113ba6040519283926020845280516020850152602081015160408501526001600160a01b0360408201511660608501526060810151611a9b81612289565b60808501526001600160a01b0360808201511660a085015260a081015160c085015260c081015160e08501526001600160a01b0360e082015116610100850152610100810151151561012085015261012081015115156101408501526101408101516101608501526001600160a01b036101608201511661018085015261018081015115156101a08501526101a08101518285015201516101e080840152610200830190612293565b34610aaf576020366003190112610aaf576004355f526005602052602060405f2054604051908152f35b34610aaf576060366003190112610aaf57611b87612236565b60443567ffffffffffffffff8111610aaf57611ba790369060040161225b565b9091611bb16126e7565b6004355f52600160205260405f205415612141576004355f52600160205260405f209260088401549360ff8560a01c161561210f576008546001600160a01b03848116918116821496161485806120fd575b6120ca5780806120eb575b6120ca57851590816120c1575b506120a05760058101549460038201956001600160a01b0387541680612001575b509080611ff4575b15611fee5760078201549061271091820390828211611fda57818102918183041490151715611fda5704935b6040517f23b872dd000000000000000000000000000000000000000000000000000000005f5233600452306024528560445260205f606481806001600160a01b038a165af160015f5114811615611fb2575b816040525f60605215611f9457505f9560ff600284015460a01c16611ce681612289565b151580611f81575b611ec7575b5050505060045491611d0483612448565b600455604051611d1381612309565b838152602081016004358152604082019033825260608301966001600160a01b03861688526080840185815260a08501906001825260c086019967ffffffffffffffff42168b5260e08701955f875261010088019485526101208801955f87528b5f52600360205260405f20985189555160018901556001600160a01b0360028901915116906001600160a01b031991828254161790556001600160a01b03600389019251169082541617905551600486015560058501905190600782101561047e5767ffffffffffffffff600795611e539360209c60ff68ffffffffffffffff008654925160081b1692169068ffffffffffffffffff19161717835551167fffffffffffffffffffffffffffffff0000000000000000ffffffffffffffffff70ffffffffffffffff00000000000000000083549260481b169116179055565b516006840155519101556001600160a01b0360405192168252838201523390827f49e931e521b3ceb66193af0aefdeddff97d898c2d6b6ba416482c630bcc2f578604060043593a460017f9b779b17422d0df92223018b32b4d1fa46e071723d6817e2486d003becc55f0055604051908152f35b611f2c949650905f60046001600160a01b0360209695945416930154604051968795869485937f24f0e4690000000000000000000000000000000000000000000000000000000085526004850152336024850152608060448501526084840191612428565b88606483015203925af1908115610aa4575f91611f4f575b509183808080611cf3565b90506020813d602011611f79575b81611f6a60209383612357565b81010312610aaf575183611f44565b3d9150611f5d565b506001600160a01b038154161515611cee565b806001600160a01b0386635274afe760e01b60249452166004820152fd5b6001811516611fd1576001600160a01b0386163b15153d151616611cc2565b503d5f823e3d90fd5b634e487b7160e01b5f52601160045260245ffd5b93611c70565b5060078201541515611c44565b60209060048501549060405180809581947fd9f50a6900000000000000000000000000000000000000000000000000000000835260048301526060602483015261204f606483018d8c612428565b90604483015203915afa908115610aa4575f9161206e575b5087611c3c565b90506020813d602011612098575b8161208960209383612357565b81010312610aaf575187612067565b3d915061207c565b6024836001600160a01b0360405191638762da1760e01b8352166004820152fd5b90501586611c1b565b6024846001600160a01b0360405191638762da1760e01b8352166004820152fd5b5060ff600683015460a81c1615611c0e565b5060ff600683015460a01c1615611c03565b60246040517f1c7bbc360000000000000000000000000000000000000000000000000000000081526004356004820152fd5b60246040516307cddb9360e21b81526004356004820152fd5b34610aaf575f366003190112610aaf57602060405160028152f35b34610aaf575f366003190112610aaf576020600454604051908152f35b34610aaf576040366003190112610aaf576121ab61224c565b6121b536336124c1565b6121c060043561267a565b60ff60a01b1960ff60a01b60085492151560a01b169116176008555f80f35b34610aaf576020366003190112610aaf576001600160a01b03612200612220565b61220a36336124c1565b166001600160a01b031960065416176006555f80f35b600435906001600160a01b0382168203610aaf57565b602435906001600160a01b0382168203610aaf57565b602435908115158203610aaf57565b9181601f84011215610aaf5782359167ffffffffffffffff8311610aaf5760208381860195010111610aaf57565b6002111561047e57565b91908251928382525f5b8481106122bd575050825f602080949584010152601f8019910116010190565b60208183018101518483018201520161229d565b90600182811c921680156122ff575b60208310146122eb57565b634e487b7160e01b5f52602260045260245ffd5b91607f16916122e0565b610140810190811067ffffffffffffffff82111761122e57604052565b6101e0810190811067ffffffffffffffff82111761122e57604052565b67ffffffffffffffff811161122e57604052565b90601f8019910116810190811067ffffffffffffffff82111761122e57604052565b9060405191825f825461238b816122d1565b908184526020946001916001811690815f146123f957506001146123bb575b5050506123b992500383612357565b565b5f90815285812095935091905b8183106123e15750506123b993508201015f80806123aa565b855488840185015294850194879450918301916123c8565b925050506123b994925060ff191682840152151560051b8201015f80806123aa565b90600782101561047e5752565b908060209392818452848401375f828201840152601f01601f1916010190565b5f198114611fda5760010190565b7f00000000000000000000000000000000000000000000000000000000000000000361248b576001600160a01b036008541690565b5f90565b7f00000000000000000000000000000000000000000000000000000000000000000361248b5760ff60085460a01c1690565b5f915f54916001600160a01b03908184169280600411610aaf575f8060409485519060208201957fb700961300000000000000000000000000000000000000000000000000000000875216948560248301523060448301527fffffffff000000000000000000000000000000000000000000000000000000005f351660648301526064825260a082019082821067ffffffffffffffff83111761122e5787925f928452828052826020525190895afa612667575b15612584575b50505050505050565b63ffffffff1615612651577401000000000000000000000000000000000000000060ff60a01b19809616175f55833b15610aaf576064935f928385519687809581947f94c7d7ee00000000000000000000000000000000000000000000000000000000835260048301528860248301528060448301528084848401378181018301849052601f01601f191681010301925af19081156126485750612635575b5081541690555f80808080808061257b565b612640919250612343565b5f905f612623565b513d5f823e3d90fd5b50602491519062d1953b60e31b82526004820152fd5b50505f516020518060201c150290612575565b7f0000000000000000000000000000000000000000000000000000000000000000036126a257565b606460405163d647364f60e01b815260206004820152601260248201527f436f6d6d756e697479206d69736d6174636800000000000000000000000000006044820152fd5b7f9b779b17422d0df92223018b32b4d1fa46e071723d6817e2486d003becc55f0060028154146127175760029055565b60046040517f3ee5aeb5000000000000000000000000000000000000000000000000000000008152fd5b905f915f6001600160a01b03908160075416806129ca575b50156129a95760038201818154168260075416600490818601938454916040948551937f095ea7b30000000000000000000000000000000000000000000000000000000092835f5280875260249582875260205f60448180885af160015f511481161561299c575b818a52156128e8575b5050505050858060075416915416945492813b15610aaf575f6064928195875198899687957f8d72d0570000000000000000000000000000000000000000000000000000000087527f00000000000000000000000000000000000000000000000000000000000000009087015285015260448401525af190811561264857506128d5575b505b6003830154169182612863575b50505050565b6004600691015491015490823b156128d15790606484928360405195869485936360e2b09d60e11b855260048501526024840152600160448401525af180156128c6576128b2575b808061285d565b6128bc8291612343565b61019757806128ab565b6040513d84823e3d90fd5b8380fd5b6128e0919450612343565b5f925f61284e565b845f528188525f875260205f60448180885af160015f5114811615612986575b818a521561297357508751935f528652845260205f60448180855af160015f5114811615612954575b82875215612941578080806127ca565b91509192635274afe760e01b8352820152fd5b600181151661296a57813b15153d151616612931565b823d5f823e3d90fd5b808489635274afe760e01b8a9452820152fd5b6001811516611fd157843b15153d151616612908565b843b15153d1516166127c1565b6129c58160038401541682600286015416600485015491612a8d565b612850565b60038401546040517f15431c480000000000000000000000000000000000000000000000000000000081527f000000000000000000000000000000000000000000000000000000000000000060048201529084166001600160a01b031660248201529150602090829081806044810103915afa908115610aa4575f91612a52575b505f612759565b90506020813d602011612a85575b81612a6d60209383612357565b81010312610aaf57518015158103610aaf575f612a4b565b3d9150612a60565b604051927fa9059cbb000000000000000000000000000000000000000000000000000000005f526001600160a01b0380931660045260245260205f60448180855af160015f5114811615612b00575b8360405215612aea57505050565b60249350635274afe760e01b8352166004820152fd5b6001811516612b1657813b15153d151616612adc565b833d5f823e3d90fdfea2646970667358221220259b1586a075164a6a46b69a106099f7e51dd12b8862be56af292d65e3909f8364736f6c63430008180033","linkReferences":{}},"methodIdentifiers":{"BPS_DENOMINATOR()":"e1a45218","DISPUTE_WINDOW()":"f585dc57","OUTCOME_PAID()":"e744b66b","OUTCOME_REFUNDED()":"2b78aa4d","authority()":"bf7e214f","canOpenDispute(uint256)":"c02d0872","canSettle(uint256)":"df69433b","commerceDisputes()":"503ece4e","communityActive(uint256)":"f11b2bc8","communityId()":"7f50861a","communityTokens(uint256)":"d3e4047a","createOffer(uint256,uint8,address,uint256,uint256,address,bool,bool,uint256,address,uint256,string)":"8af19716","disputeToOrder(uint256)":"42228457","getOffer(uint256)":"4579268a","getOrder(uint256)":"d09ef241","isConsumingScheduledOp()":"8fb36037","markOrderFulfilled(uint256)":"9d083cb4","nextOfferId()":"5f5d0655","nextOrderId()":"2a58b330","offers(uint256)":"8a72ea6a","onDisputeResolved(uint256,uint8)":"a01371f5","openOrderDispute(uint256,string)":"708a974b","orders(uint256)":"a85c38ef","purchase(uint256,address,bytes)":"3493197b","revenueRouter()":"e8855812","setAuthority(address)":"7a9e5e4b","setCommerceDisputes(address)":"0562d1cd","setCommunityActive(uint256,bool)":"2967ea43","setCommunityToken(uint256,address)":"7e840d2e","setRevenueRouter(address)":"b3b917d9","settleOrder(uint256)":"b50e801d","updateOffer(uint256,bool,uint256)":"63b8ba0e"},"id":19}