{"abi":[{"type":"constructor","inputs":[{"name":"manager","type":"address","internalType":"address"},{"name":"_commerceDisputes","type":"address","internalType":"address"},{"name":"_revenueRouter","type":"address","internalType":"address"},{"name":"_communityId","type":"uint256","internalType":"uint256"}],"stateMutability":"nonpayable"},{"type":"function","name":"BPS_DENOMINATOR","inputs":[],"outputs":[{"name":"","type":"uint256","internalType":"uint256"}],"stateMutability":"view"},{"type":"function","name":"DISPUTE_WINDOW","inputs":[],"outputs":[{"name":"","type":"uint256","internalType":"uint256"}],"stateMutability":"view"},{"type":"function","name":"OUTCOME_PAID","inputs":[],"outputs":[{"name":"","type":"uint8","internalType":"uint8"}],"stateMutability":"view"},{"type":"function","name":"OUTCOME_REFUNDED","inputs":[],"outputs":[{"name":"","type":"uint8","internalType":"uint8"}],"stateMutability":"view"},{"type":"function","name":"authority","inputs":[],"outputs":[{"name":"","type":"address","internalType":"address"}],"stateMutability":"view"},{"type":"function","name":"canOpenDispute","inputs":[{"name":"orderId","type":"uint256","internalType":"uint256"}],"outputs":[{"name":"","type":"bool","internalType":"bool"}],"stateMutability":"view"},{"type":"function","name":"canSettle","inputs":[{"name":"orderId","type":"uint256","internalType":"uint256"}],"outputs":[{"name":"","type":"bool","internalType":"bool"}],"stateMutability":"view"},{"type":"function","name":"commerceDisputes","inputs":[],"outputs":[{"name":"","type":"address","internalType":"contract CommerceDisputes"}],"stateMutability":"view"},{"type":"function","name":"communityActive","inputs":[],"outputs":[{"name":"","type":"bool","internalType":"bool"}],"stateMutability":"view"},{"type":"function","name":"communityId","inputs":[],"outputs":[{"name":"","type":"uint256","internalType":"uint256"}],"stateMutability":"view"},{"type":"function","name":"communityTokens","inputs":[],"outputs":[{"name":"","type":"address","internalType":"address"}],"stateMutability":"view"},{"type":"function","name":"createOffer","inputs":[{"name":"kind","type":"uint8","internalType":"enum Marketplace.OfferKind"},{"name":"productContract","type":"address","internalType":"address"},{"name":"productId","type":"uint256","internalType":"uint256"},{"name":"basePrice","type":"uint256","internalType":"uint256"},{"name":"pricingCurrency","type":"address","internalType":"address"},{"name":"acceptCommunityToken","type":"bool","internalType":"bool"},{"name":"acceptStablecoin","type":"bool","internalType":"bool"},{"name":"communityTokenDiscountBps","type":"uint256","internalType":"uint256"},{"name":"stablecoin","type":"address","internalType":"address"},{"name":"cohortTag","type":"uint256","internalType":"uint256"},{"name":"metadataURI","type":"string","internalType":"string"}],"outputs":[{"name":"offerId","type":"uint256","internalType":"uint256"}],"stateMutability":"nonpayable"},{"type":"function","name":"disputeToOrder","inputs":[{"name":"","type":"uint256","internalType":"uint256"}],"outputs":[{"name":"","type":"uint256","internalType":"uint256"}],"stateMutability":"view"},{"type":"function","name":"getOffer","inputs":[{"name":"offerId","type":"uint256","internalType":"uint256"}],"outputs":[{"name":"","type":"tuple","internalType":"struct Marketplace.Offer","components":[{"name":"offerId","type":"uint256","internalType":"uint256"},{"name":"communityId","type":"uint256","internalType":"uint256"},{"name":"seller","type":"address","internalType":"address"},{"name":"kind","type":"uint8","internalType":"enum Marketplace.OfferKind"},{"name":"productContract","type":"address","internalType":"address"},{"name":"productId","type":"uint256","internalType":"uint256"},{"name":"basePrice","type":"uint256","internalType":"uint256"},{"name":"pricingCurrency","type":"address","internalType":"address"},{"name":"acceptCommunityToken","type":"bool","internalType":"bool"},{"name":"acceptStablecoin","type":"bool","internalType":"bool"},{"name":"communityTokenDiscountBps","type":"uint256","internalType":"uint256"},{"name":"stablecoin","type":"address","internalType":"address"},{"name":"active","type":"bool","internalType":"bool"},{"name":"cohortTag","type":"uint256","internalType":"uint256"},{"name":"metadataURI","type":"string","internalType":"string"}]}],"stateMutability":"view"},{"type":"function","name":"getOrder","inputs":[{"name":"orderId","type":"uint256","internalType":"uint256"}],"outputs":[{"name":"","type":"tuple","internalType":"struct Marketplace.Order","components":[{"name":"orderId","type":"uint256","internalType":"uint256"},{"name":"offerId","type":"uint256","internalType":"uint256"},{"name":"buyer","type":"address","internalType":"address"},{"name":"paymentToken","type":"address","internalType":"address"},{"name":"amount","type":"uint256","internalType":"uint256"},{"name":"status","type":"uint8","internalType":"enum Marketplace.OrderStatus"},{"name":"createdAt","type":"uint64","internalType":"uint64"},{"name":"fulfilledAt","type":"uint64","internalType":"uint64"},{"name":"resourceId","type":"uint256","internalType":"uint256"},{"name":"disputeId","type":"uint256","internalType":"uint256"}]}],"stateMutability":"view"},{"type":"function","name":"isConsumingScheduledOp","inputs":[],"outputs":[{"name":"","type":"bytes4","internalType":"bytes4"}],"stateMutability":"view"},{"type":"function","name":"markOrderFulfilled","inputs":[{"name":"orderId","type":"uint256","internalType":"uint256"}],"outputs":[],"stateMutability":"nonpayable"},{"type":"function","name":"nextOfferId","inputs":[],"outputs":[{"name":"","type":"uint256","internalType":"uint256"}],"stateMutability":"view"},{"type":"function","name":"nextOrderId","inputs":[],"outputs":[{"name":"","type":"uint256","internalType":"uint256"}],"stateMutability":"view"},{"type":"function","name":"offers","inputs":[{"name":"","type":"uint256","internalType":"uint256"}],"outputs":[{"name":"offerId","type":"uint256","internalType":"uint256"},{"name":"communityId","type":"uint256","internalType":"uint256"},{"name":"seller","type":"address","internalType":"address"},{"name":"kind","type":"uint8","internalType":"enum Marketplace.OfferKind"},{"name":"productContract","type":"address","internalType":"address"},{"name":"productId","type":"uint256","internalType":"uint256"},{"name":"basePrice","type":"uint256","internalType":"uint256"},{"name":"pricingCurrency","type":"address","internalType":"address"},{"name":"acceptCommunityToken","type":"bool","internalType":"bool"},{"name":"acceptStablecoin","type":"bool","internalType":"bool"},{"name":"communityTokenDiscountBps","type":"uint256","internalType":"uint256"},{"name":"stablecoin","type":"address","internalType":"address"},{"name":"active","type":"bool","internalType":"bool"},{"name":"cohortTag","type":"uint256","internalType":"uint256"},{"name":"metadataURI","type":"string","internalType":"string"}],"stateMutability":"view"},{"type":"function","name":"onDisputeResolved","inputs":[{"name":"disputeId","type":"uint256","internalType":"uint256"},{"name":"outcomeValue","type":"uint8","internalType":"uint8"}],"outputs":[],"stateMutability":"nonpayable"},{"type":"function","name":"openOrderDispute","inputs":[{"name":"orderId","type":"uint256","internalType":"uint256"},{"name":"evidenceURI","type":"string","internalType":"string"}],"outputs":[],"stateMutability":"nonpayable"},{"type":"function","name":"orders","inputs":[{"name":"","type":"uint256","internalType":"uint256"}],"outputs":[{"name":"orderId","type":"uint256","internalType":"uint256"},{"name":"offerId","type":"uint256","internalType":"uint256"},{"name":"buyer","type":"address","internalType":"address"},{"name":"paymentToken","type":"address","internalType":"address"},{"name":"amount","type":"uint256","internalType":"uint256"},{"name":"status","type":"uint8","internalType":"enum Marketplace.OrderStatus"},{"name":"createdAt","type":"uint64","internalType":"uint64"},{"name":"fulfilledAt","type":"uint64","internalType":"uint64"},{"name":"resourceId","type":"uint256","internalType":"uint256"},{"name":"disputeId","type":"uint256","internalType":"uint256"}],"stateMutability":"view"},{"type":"function","name":"purchase","inputs":[{"name":"offerId","type":"uint256","internalType":"uint256"},{"name":"paymentToken","type":"address","internalType":"address"},{"name":"params","type":"bytes","internalType":"bytes"}],"outputs":[{"name":"orderId","type":"uint256","internalType":"uint256"}],"stateMutability":"nonpayable"},{"type":"function","name":"revenueRouter","inputs":[],"outputs":[{"name":"","type":"address","internalType":"contract RevenueRouter"}],"stateMutability":"view"},{"type":"function","name":"setAuthority","inputs":[{"name":"newAuthority","type":"address","internalType":"address"}],"outputs":[],"stateMutability":"nonpayable"},{"type":"function","name":"setCommerceDisputes","inputs":[{"name":"_commerceDisputes","type":"address","internalType":"address"}],"outputs":[],"stateMutability":"nonpayable"},{"type":"function","name":"setCommunityActive","inputs":[{"name":"active","type":"bool","internalType":"bool"}],"outputs":[],"stateMutability":"nonpayable"},{"type":"function","name":"setCommunityToken","inputs":[{"name":"token","type":"address","internalType":"address"}],"outputs":[],"stateMutability":"nonpayable"},{"type":"function","name":"setRevenueRouter","inputs":[{"name":"_revenueRouter","type":"address","internalType":"address"}],"outputs":[],"stateMutability":"nonpayable"},{"type":"function","name":"settleOrder","inputs":[{"name":"orderId","type":"uint256","internalType":"uint256"}],"outputs":[],"stateMutability":"nonpayable"},{"type":"function","name":"updateOffer","inputs":[{"name":"offerId","type":"uint256","internalType":"uint256"},{"name":"active","type":"bool","internalType":"bool"},{"name":"basePrice","type":"uint256","internalType":"uint256"}],"outputs":[],"stateMutability":"nonpayable"},{"type":"event","name":"AuthorityUpdated","inputs":[{"name":"authority","type":"address","indexed":false,"internalType":"address"}],"anonymous":false},{"type":"event","name":"OfferCreated","inputs":[{"name":"offerId","type":"uint256","indexed":true,"internalType":"uint256"},{"name":"communityId","type":"uint256","indexed":true,"internalType":"uint256"},{"name":"seller","type":"address","indexed":true,"internalType":"address"},{"name":"kind","type":"uint8","indexed":false,"internalType":"enum Marketplace.OfferKind"},{"name":"productContract","type":"address","indexed":false,"internalType":"address"},{"name":"productId","type":"uint256","indexed":false,"internalType":"uint256"}],"anonymous":false},{"type":"event","name":"OfferUpdated","inputs":[{"name":"offerId","type":"uint256","indexed":true,"internalType":"uint256"},{"name":"active","type":"bool","indexed":false,"internalType":"bool"},{"name":"basePrice","type":"uint256","indexed":false,"internalType":"uint256"}],"anonymous":false},{"type":"event","name":"OrderCreated","inputs":[{"name":"orderId","type":"uint256","indexed":true,"internalType":"uint256"},{"name":"offerId","type":"uint256","indexed":true,"internalType":"uint256"},{"name":"buyer","type":"address","indexed":true,"internalType":"address"},{"name":"paymentToken","type":"address","indexed":false,"internalType":"address"},{"name":"amount","type":"uint256","indexed":false,"internalType":"uint256"}],"anonymous":false},{"type":"event","name":"OrderDisputeOpened","inputs":[{"name":"orderId","type":"uint256","indexed":true,"internalType":"uint256"},{"name":"disputeId","type":"uint256","indexed":true,"internalType":"uint256"}],"anonymous":false},{"type":"event","name":"OrderDisputeResolved","inputs":[{"name":"orderId","type":"uint256","indexed":true,"internalType":"uint256"},{"name":"disputeId","type":"uint256","indexed":true,"internalType":"uint256"},{"name":"outcome","type":"uint8","indexed":false,"internalType":"uint8"},{"name":"seller","type":"address","indexed":false,"internalType":"address"},{"name":"buyer","type":"address","indexed":false,"internalType":"address"},{"name":"communityId","type":"uint256","indexed":false,"internalType":"uint256"}],"anonymous":false},{"type":"event","name":"OrderFulfilled","inputs":[{"name":"orderId","type":"uint256","indexed":true,"internalType":"uint256"},{"name":"fulfilledAt","type":"uint64","indexed":false,"internalType":"uint64"}],"anonymous":false},{"type":"event","name":"OrderRefunded","inputs":[{"name":"orderId","type":"uint256","indexed":true,"internalType":"uint256"},{"name":"amount","type":"uint256","indexed":false,"internalType":"uint256"},{"name":"paymentToken","type":"address","indexed":false,"internalType":"address"}],"anonymous":false},{"type":"event","name":"OrderSettled","inputs":[{"name":"orderId","type":"uint256","indexed":true,"internalType":"uint256"},{"name":"amount","type":"uint256","indexed":false,"internalType":"uint256"},{"name":"paymentToken","type":"address","indexed":false,"internalType":"address"}],"anonymous":false},{"type":"error","name":"AccessManagedInvalidAuthority","inputs":[{"name":"authority","type":"address","internalType":"address"}]},{"type":"error","name":"AccessManagedRequiredDelay","inputs":[{"name":"caller","type":"address","internalType":"address"},{"name":"delay","type":"uint32","internalType":"uint32"}]},{"type":"error","name":"AccessManagedUnauthorized","inputs":[{"name":"caller","type":"address","internalType":"address"}]},{"type":"error","name":"CommunityNotActive","inputs":[{"name":"communityId","type":"uint256","internalType":"uint256"}]},{"type":"error","name":"DisputeWindowActive","inputs":[]},{"type":"error","name":"DisputeWindowClosed","inputs":[]},{"type":"error","name":"InvalidDiscount","inputs":[]},{"type":"error","name":"InvalidInput","inputs":[{"name":"reason","type":"string","internalType":"string"}]},{"type":"error","name":"InvalidStatus","inputs":[{"name":"current","type":"uint8","internalType":"enum Marketplace.OrderStatus"},{"name":"required","type":"uint8","internalType":"enum Marketplace.OrderStatus"}]},{"type":"error","name":"OfferNotActive","inputs":[{"name":"offerId","type":"uint256","internalType":"uint256"}]},{"type":"error","name":"OfferNotFound","inputs":[{"name":"offerId","type":"uint256","internalType":"uint256"}]},{"type":"error","name":"OnlyBuyer","inputs":[]},{"type":"error","name":"OnlySeller","inputs":[]},{"type":"error","name":"OrderNotFound","inputs":[{"name":"orderId","type":"uint256","internalType":"uint256"}]},{"type":"error","name":"PaymentTokenNotAccepted","inputs":[{"name":"token","type":"address","internalType":"address"}]},{"type":"error","name":"ReentrancyGuardReentrantCall","inputs":[]},{"type":"error","name":"SafeERC20FailedOperation","inputs":[{"name":"token","type":"address","internalType":"address"}]},{"type":"error","name":"UnauthorizedCaller","inputs":[{"name":"caller","type":"address","internalType":"address"}]}],"bytecode":{"object":"0x60a0346200018057601f62002c1a38819003918201601f19168301916001600160401b03831184841017620001845780849260809460405283398101031262000180576200004d8162000198565b6200005b6020830162000198565b9060606200006c6040850162000198565b93015160017f9b779b17422d0df92223018b32b4d1fa46e071723d6817e2486d003becc55f00555f80546001600160a01b039384166001600160a01b0319918216811790925560405191825291949193907f2f658b440c35314f52658ea8a740e05b284cdc84dc9ae01e891f21b8933e7cad90602090a16001600255600160045584156200013a57821683600654161760065516906007541617600755608052604051612a6c9081620001ae82396080518181816102b3015281816105c50152818161070b015261140d0152f35b60405163d647364f60e01b815260206004820152601b60248201527f436f6d6d756e6974792049442063616e6e6f74206265207a65726f00000000006044820152606490fd5b5f80fd5b634e487b7160e01b5f52604160045260245ffd5b51906001600160a01b0382168203620001805756fe60806040526004361015610011575f80fd5b5f803560e01c80630562d1cd146122065780632a58b330146121e95780632b78aa4d146121ce5780632e5fe746146121a85780633493197b14611ba15780633b5040ae14611b7c5780634222845714611b525780634579268a146118fd578063503ece4e146118d75780635f5d0655146118ba57806363b8ba0e146117e1578063708a974b146114ed5780637a9e5e4b146114305780637f50861a146113f65780638a72ea6a146112d55780638c15e6a4146112945780638fb36037146112215780639d083cb41461110e578063a01371f514610d87578063a85c38ef14610cd9578063b3b917d914610c98578063b50e801d14610aad578063bf7e214f14610a87578063c02d0872146109d4578063d09ef2411461082e578063df69433b14610795578063e1a4521814610778578063e744b66b1461075c578063e885581214610735578063e8cc49b3146101e3578063edcbb1aa1461019a5763f585dc571461017a575f80fd5b3461019757806003193601126101975760206040516203f4808152f35b80fd5b5034610197576020366003190112610197576004358015158091036101df576101c33633612482565b60ff60a01b1960ff60a01b6008549260a01b1691161760085580f35b5f80fd5b50346101975761016036600319011261019757600260043510156101975761020961225d565b608435906001600160a01b03821682036101df5760a4359182151583036101df5760c43580151581036101df57610104356001600160a01b03811681036101df576101443567ffffffffffffffff81116107315761026b903690600401612273565b92909160ff60085460a01c16156106e15761271060e435116106b7576001600160a01b03916002549761029d89612474565b60025583604051976102ae89612352565b8a89527f000000000000000000000000000000000000000000000000000000000000000060208a01523360408a01526102e86004356122a1565b60043560608a0152818a1660808a015260443560a08a015260643560c08a01521660e08801521515610100870152151561012086015260e435610140860152166101608401526001610180840152610124356101a084015267ffffffffffffffff821161069f578590604051926103696020601f19601f8401160185612383565b80845236818301116106b3578060209283860137830101526101c082015282845260016020526101c0600a604086208351815560208401516001820155600281016001600160a01b036040860151168154907fffffffffffffffffffffff00000000000000000000000000000000000000000060ff60a01b60608901516103ef816122a1565b6103f8816122a1565b60a01b16921617179055610513600382016001600160a01b03608087015116906001600160a01b0319918282541617905560a0860151600484015560c08601516005840155600683016001600160a01b0360e0880151168282541617815561047e6101008801511515829060ff60a01b1960ff60a01b835492151560a01b169116179055565b61012087015115157fffffffffffffffffffff00ffffffffffffffffffffffffffffffffffffffffff75ff00000000000000000000000000000000000000000083549260a81b169116179055610140860151600784015560088301906001600160a01b036101608801511690825416178155610180860151151560ff60a01b1960ff60a01b835492151560a01b169116179055565b6101a084015160098201550191015180519067ffffffffffffffff821161069f5761053e83546122e9565b601f811161065a575b50602095829187916001601f8511146105f957926105ee575b50508160011b915f199060031b1c19161790555b6001600160a01b036040519161058b6004356122a1565b6004358352168382015260443560408201523390827f2e4e071828d4444515fa26c9c8d05a23cd7c2fe4d89865797b13fe2e4322506660607f000000000000000000000000000000000000000000000000000000000000000093a4604051908152f35b015190505f80610560565b8581528881209350601f198516905b818110610643575090846001959493921061062b575b505050811b019055610574565b01515f1960f88460031b161c191690555f808061061e565b929389600181928786015181550195019301610608565b83875260208720601f840160051c81019160208510610695575b601f0160051c01905b81811061068a5750610547565b87815560010161067d565b9091508190610674565b602486634e487b7160e01b81526041600452fd5b8280fd5b60046040517f997ea360000000000000000000000000000000000000000000000000000000008152fd5b60246040517f8947da350000000000000000000000000000000000000000000000000000000081527f00000000000000000000000000000000000000000000000000000000000000006004820152fd5b8680fd5b503461019757806003193601126101975760206001600160a01b0360075416604051908152f35b5034610197578060031936011261019757602060405160018152f35b503461019757806003193601126101975760206040516127108152f35b50346101975760203660031901126101975760043581526003602052600560408220015460ff8116600781101561081a5760021490816107dd575b6020826040519015158152f35b67ffffffffffffffff915060481c16906203f4808201809211610806575060209042115f6107d0565b80634e487b7160e01b602492526011600452fd5b602483634e487b7160e01b81526021600452fd5b50346101975760203660031901126101975780604091610120835161085281612321565b82815282602082015282858201528260608201528260808201528260a08201528260c08201528260e0820152826101008201520152600435815260036020522060405161089e81612321565b81548152600182015460208201526001600160a01b0360028301541660408201526001600160a01b03600383015416606082015260048201546080820152600582015460ff81169260078410156109c05767ffffffffffffffff6007926101409560a0860152818160081c1660c086015260481c1660e0840152600681015461010084015201546101208201526101206040519180518352602081015160208401526001600160a01b0360408201511660408401526001600160a01b0360608201511660608401526080810151608084015261098260a082015160a0850190612447565b67ffffffffffffffff60c08201511660c084015267ffffffffffffffff60e08201511660e08401526101008101516101008401520151610120820152f35b634e487b7160e01b5f52602160045260245ffd5b503461019757602036600319011261019757600435815260036020526040812060058101549060ff82166007811015610a73576002149182610a34575b506020925081610a27575b506040519015158152f35b600791500154155f610a1c565b67ffffffffffffffff91925060481c166203f4808101809111610a5f5760209250421115905f610a11565b602483634e487b7160e01b81526011600452fd5b602484634e487b7160e01b81526021600452fd5b50346101975780600319360112610197576001600160a01b036020915416604051908152f35b503461019757602036600319011261019757600435610aca61263b565b8082526003602052604082205415610c805780825260036020526040822060018101548352600160205260408320906001600160a01b03806002840154163303610c5657600582019283549060ff82166007811015610c425760028103610c1b575067ffffffffffffffff8260481c166203f4808101809111610c07574210610bdd577f0438ae4aeacbb97ded863730513043b050da81d6dbbd2de13aae486da885f0f0946004610b829360ff191617905583612695565b600360048301549201541690610bb3604051928392839092916001600160a01b036020916040840195845216910152565b0390a260017f9b779b17422d0df92223018b32b4d1fa46e071723d6817e2486d003becc55f005580f35b60046040517fe52e798f000000000000000000000000000000000000000000000000000000008152fd5b602488634e487b7160e01b81526011600452fd5b604490610c396040519163f924664d60e01b83526004830190612447565b60026024820152fd5b602488634e487b7160e01b81526021600452fd5b60046040517f85d1f726000000000000000000000000000000000000000000000000000000008152fd5b602490604051906313a42eb760e21b82526004820152fd5b5034610197576020366003190112610197576001600160a01b03610cba612247565b610cc43633612482565b166001600160a01b0319600754161760075580f35b50346101975760203660031901126101975760406101409160043581526003602052208054906001810154906001600160a01b038060028301541690600383015416600483015460058401549167ffffffffffffffff9360076006870154960154966040519889526020890152604088015260608701526080860152610d6560a0860160ff8316612447565b818160081c1660c086015260481c1660e0840152610100830152610120820152f35b50346101df5760403660031901126101df576004356024803560ff81168091036101df57610db361263b565b6001600160a01b0391826006541633036110e057835f52600560205260405f20549283156110c957835f526003908160205260405f209260018401545f52600160205260405f209260058501805460ff811660078110156110b6578381036110915750889392919060018903610ff15750600560ff1982541617905580860191848084541692610e518260028b0154169460048b01958654916129a4565b870154169081610f26575b5050927ee3b833dfa15fc2ef46b0bc1a8adc8f87485648b140e6d391a61f73eb3109b19694927f62d8641ff5d28239342755632dd9b154e685e2939d082a23d6af44f52cd90a9c60019383608099975491541690610ed5604051928392839092916001600160a01b036020916040840195845216910152565b0390a25b60028181850154169401541691015491604051938452602084015260408301526060820152a360017f9b779b17422d0df92223018b32b4d1fa46e071723d6817e2486d003becc55f005580f35b9091929350600486015490600688015492803b156101df575f928360649260405196879586946360e2b09d60e11b86526004860152840152600260448401525af18015610fe657610f7c575b9081889392610e5c565b600191995092877f62d8641ff5d28239342755632dd9b154e685e2939d082a23d6af44f52cd90a9c7ee3b833dfa15fc2ef46b0bc1a8adc8f87485648b140e6d391a61f73eb3109b1989694610fd36080999761236f565b835f9d9550969850949698505050610f72565b6040513d5f823e3d90fd5b6001935060809795928997959260027ee3b833dfa15fc2ef46b0bc1a8adc8f87485648b140e6d391a61f73eb3109b19b14611030575b50505050610ed9565b60047f0438ae4aeacbb97ded863730513043b050da81d6dbbd2de13aae486da885f0f09360ff19161790556110658688612695565b600487015490870154604080519283529085166001600160a01b0316602083015290a2875f8080611027565b60449084866110b16040519363f924664d60e01b85526004850190612447565b820152fd5b84634e487b7160e01b5f5260216004525ffd5b5082604051906313a42eb760e21b82526004820152fd5b6040517fd86ad9cf000000000000000000000000000000000000000000000000000000008152336004820152fd5b346101df5760203660031901126101df57600435805f52600360205260405f205415610c8057805f52600360205260405f2060018101545f5260016020526001600160a01b03600260405f200154163303610c5657600501805460ff811660078110156109c057600181036111fa57507fffffffffffffffffffffffffffffff0000000000000000ffffffffffffffff00164260481b70ffffffffffffffff000000000000000000161760021781557f8b02a6bd2a882848d63ad9fe5722de87bacc09c84011817b7c5b5fcd8b2e76ba9060209067ffffffffffffffff905460481c16604051908152a2005b6044906112186040519163f924664d60e01b83526004830190612447565b60016024820152fd5b346101df575f3660031901126101df575f5460a01c60ff161561128c5760207f8fb36037000000000000000000000000000000000000000000000000000000005b7fffffffff0000000000000000000000000000000000000000000000000000000060405191168152f35b60205f611262565b346101df5760203660031901126101df576001600160a01b036112b5612247565b6112bf3633612482565b166001600160a01b031960085416176008555f80f35b346101df5760203660031901126101df576004355f52600160205260405f2080549060018101549060028101549260038201546001600160a01b031691600481015460058201546006830154600784015491600885015493600986015495600a0161133f906123a5565b976040519a8b9a6101e0998c5260208c01526001600160a01b03811660408c01528060a01c60ff16611370906122a1565b60a01c60ff1660608b015260808a015260a089015260c08801526001600160a01b03811660e08801528060a01c60ff16151561010088015260a81c60ff1615156101208701526101408601526001600160a01b03811661016086015260a01c60ff1615156101808501526101a0840152806101c084015282016113f2916122ab565b0390f35b346101df575f3660031901126101df5760206040517f00000000000000000000000000000000000000000000000000000000000000008152f35b346101df5760203660031901126101df57611449612247565b5f54906001600160a01b039081831633036114d757803b156114a5577f2f658b440c35314f52658ea8a740e05b284cdc84dc9ae01e891f21b8933e7cad926020926001600160a01b0319921691829116175f55604051908152a1005b602491604051917fc2f31e5e000000000000000000000000000000000000000000000000000000008352166004820152fd5b602460405162d1953b60e31b8152336004820152fd5b346101df5760403660031901126101df57602460043567ffffffffffffffff82358181116101df57611523903690600401612273565b9161152c61263b565b835f526020926003845260405f2054156117ca57845f526003845260405f209560018701545f526001855260405f20906001600160a01b03948560028a015416938433036117a05760058a0195865460ff8116600781101561178d576002810361176c575060481c166203f480810180911161175957421161172f5760078a019687546116d257926116258a935f9360048760028e9b9a9960065416990154169e01546040519e8f998a9889977fbe11f1ac0000000000000000000000000000000000000000000000000000000089528960048a015288015260448701526064860152608485015260c060a485015260c4840191612454565b03925af1948515610fe6575f9561169e575b50600592918591600360ff1982541617905555835f52528060405f20557feaaac4730c027d75122b2fed3aaeccdd96ae7c1d515e12392379bf648c88bceb5f80a360017f9b779b17422d0df92223018b32b4d1fa46e071723d6817e2486d003becc55f0055005b928092955083813d83116116cb575b6116b78183612383565b810103126101df5760059251949192611637565b503d6116ad565b606489601686604051927fd647364f00000000000000000000000000000000000000000000000000000000845260048401528201527f4469737075746520616c726561647920657869737473000000000000000000006044820152fd5b60046040517f435a3cfe000000000000000000000000000000000000000000000000000000008152fd5b83634e487b7160e01b5f5260116004525ffd5b6044906002876110b16040519363f924664d60e01b85526004850190612447565b85634e487b7160e01b5f5260216004525ffd5b60046040517f86efbb55000000000000000000000000000000000000000000000000000000008152fd5b8585604051906313a42eb760e21b82526004820152fd5b346101df5760603660031901126101df576004356024358015158082036101df5760443590835f52600160205260405f2054156118a257835f52600160205260405f20916001600160a01b036002840154163303610c565780836118827fe39eaecce2d1ddf3a18cc260e6c343b85cb5319d7a62273263c4ec5759192bca966008604097019060ff60a01b1960ff60a01b835492151560a01b169116179055565b81611897575b505082519182526020820152a2005b600501558086611888565b602484604051906307cddb9360e21b82526004820152fd5b346101df575f3660031901126101df576020600254604051908152f35b346101df575f3660031901126101df5760206001600160a01b0360065416604051908152f35b346101df5760203660031901126101df5760606101c060405161191f81612352565b5f81525f60208201525f60408201525f838201525f60808201525f60a08201525f60c08201525f60e08201525f6101008201525f6101208201525f6101408201525f6101608201525f6101808201525f6101a082015201526004355f5260016020526101c060405f20611a66600a6040519261199a84612352565b805484526001810154602085015260ff60028201546001600160a01b038116604087015260a01c166119cb816122a1565b60608501526001600160a01b036003820154166080850152600481015460a0850152600581015460c085015260ff60068201546001600160a01b03811660e0870152818160a01c16151561010087015260a81c161515610120850152600781015461014085015260ff60088201546001600160a01b03811661016087015260a01c16151561018085015260098101546101a0850152016123a5565b828201526113f26040519283926020845280516020850152602081015160408501526001600160a01b0360408201511660608501526060810151611aa9816122a1565b60808501526001600160a01b0360808201511660a085015260a081015160c085015260c081015160e08501526001600160a01b0360e082015116610100850152610100810151151561012085015261012081015115156101408501526101408101516101608501526001600160a01b036101608201511661018085015261018081015115156101a08501526101a08101518285015201516101e0808401526102008301906122ab565b346101df5760203660031901126101df576004355f526005602052602060405f2054604051908152f35b346101df575f3660031901126101df57602060ff60085460a01c166040519015158152f35b346101df5760603660031901126101df57611bba61225d565b60443567ffffffffffffffff81116101df57611bda903690600401612273565b9190611be461263b565b6004355f52600160205260405f20541561218f576004355f52600160205260405f2090600882015460ff8160a01c161561215d576008546001600160a01b038581169181168214921614818061214b575b612118578080612139575b612118578115908161210f575b506120ee5760058301546001600160a01b036003850154168061204f575b509080612042575b1561203c57600783015490612710828103116120285780826127100381020482612710031481151715612028576127109182030204915b6040517f23b872dd000000000000000000000000000000000000000000000000000000005f5233600452306024528360445260205f606481806001600160a01b038a165af160015f5114811615612000575b816040525f60605215611fe257505f9460ff600283015460a01c16611d20816122a1565b151580611fcc575b611f10575b50505060045491611d3d83612474565b600455604051611d4c81612321565b838152602081016004358152604082019033825260608301966001600160a01b03851688526080840186815260a08501906001825260c086019967ffffffffffffffff42168b5260e08701955f875261010088019485526101208801955f87528b5f52600360205260405f20985189555160018901556001600160a01b0360028901915116906001600160a01b031991828254161790556001600160a01b0360038901925116908254161790555160048601556005850190519060078210156109c05767ffffffffffffffff600795611e8c9360209c60ff68ffffffffffffffff008654925160081b1692169068ffffffffffffffffff19161717835551167fffffffffffffffffffffffffffffff0000000000000000ffffffffffffffffff70ffffffffffffffff00000000000000000083549260481b169116179055565b51600684015551910155827f49e931e521b3ceb66193af0aefdeddff97d898c2d6b6ba416482c630bcc2f57860405180611ee133966004359683602090939291936001600160a01b0360408201951681520152565b0390a460017f9b779b17422d0df92223018b32b4d1fa46e071723d6817e2486d003becc55f0055604051908152f35b611f7893955090602092915f60046001600160a01b03600385015416930154604051968795869485937f24f0e4690000000000000000000000000000000000000000000000000000000085526004850152336024850152608060448501526084840191612454565b89606483015203925af1908115610fe6575f91611f9a575b5091838080611d2d565b90506020813d602011611fc4575b81611fb560209383612383565b810103126101df575183611f90565b3d9150611fa8565b506001600160a01b036003830154161515611d28565b806001600160a01b0386635274afe760e01b60249452166004820152fd5b600181151661201f576001600160a01b0386163b15153d151616611cfc565b503d5f823e3d90fd5b634e487b7160e01b5f52601160045260245ffd5b91611caa565b5060078301541515611c73565b60209060048601549060405180809581947fd9f50a6900000000000000000000000000000000000000000000000000000000835260048301526060602483015261209d606483018d8b612454565b90604483015203915afa908115610fe6575f916120bc575b5086611c6b565b90506020813d6020116120e6575b816120d760209383612383565b810103126101df5751866120b5565b3d91506120ca565b6024846001600160a01b0360405191638762da1760e01b8352166004820152fd5b90501586611c4d565b6024856001600160a01b0360405191638762da1760e01b8352166004820152fd5b5060ff600685015460a81c1615611c40565b5060ff600685015460a01c1615611c35565b60246040517f1c7bbc360000000000000000000000000000000000000000000000000000000081526004356004820152fd5b60246040516307cddb9360e21b81526004356004820152fd5b346101df575f3660031901126101df5760206001600160a01b0360085416604051908152f35b346101df575f3660031901126101df57602060405160028152f35b346101df575f3660031901126101df576020600454604051908152f35b346101df5760203660031901126101df576001600160a01b03612227612247565b6122313633612482565b166001600160a01b031960065416176006555f80f35b600435906001600160a01b03821682036101df57565b602435906001600160a01b03821682036101df57565b9181601f840112156101df5782359167ffffffffffffffff83116101df57602083818601950101116101df57565b600211156109c057565b91908251928382525f5b8481106122d5575050825f602080949584010152601f8019910116010190565b6020818301810151848301820152016122b5565b90600182811c92168015612317575b602083101461230357565b634e487b7160e01b5f52602260045260245ffd5b91607f16916122f8565b610140810190811067ffffffffffffffff82111761233e57604052565b634e487b7160e01b5f52604160045260245ffd5b6101e0810190811067ffffffffffffffff82111761233e57604052565b67ffffffffffffffff811161233e57604052565b90601f8019910116810190811067ffffffffffffffff82111761233e57604052565b9060405191825f82546123b7816122e9565b908184526020946001916001811690815f1461242557506001146123e7575b5050506123e592500383612383565b565b5f90815285812095935091905b81831061240d5750506123e593508201015f80806123d6565b855488840185015294850194879450918301916123f4565b925050506123e594925060ff191682840152151560051b8201015f80806123d6565b9060078210156109c05752565b908060209392818452848401375f828201840152601f01601f1916010190565b5f1981146120285760010190565b5f915f54916001600160a01b039081841692806004116101df575f8060409485519060208201957fb700961300000000000000000000000000000000000000000000000000000000875216948560248301523060448301527fffffffff000000000000000000000000000000000000000000000000000000005f351660648301526064825260a082019082821067ffffffffffffffff83111761233e5787925f928452828052826020525190895afa612628575b15612545575b50505050505050565b63ffffffff1615612612577401000000000000000000000000000000000000000060ff60a01b19809616175f55833b156101df576064935f928385519687809581947f94c7d7ee00000000000000000000000000000000000000000000000000000000835260048301528860248301528060448301528084848401378181018301849052601f01601f191681010301925af190811561260957506125f6575b5081541690555f80808080808061253c565b61260191925061236f565b5f905f6125e4565b513d5f823e3d90fd5b50602491519062d1953b60e31b82526004820152fd5b50505f516020518060201c150290612536565b7f9b779b17422d0df92223018b32b4d1fa46e071723d6817e2486d003becc55f00600281541461266b5760029055565b60046040517f3ee5aeb5000000000000000000000000000000000000000000000000000000008152fd5b905f915f6001600160a01b0390816007541680612916575b50156128f5576003820181815416826007541691600490818601938454936040948551927f095ea7b30000000000000000000000000000000000000000000000000000000093845f528187528260245260205f60448180885af160015f51148116156128e8575b81895215612830575b5050505050848060075416915416935490803b156101df57612785945f80948651978895869485937f232f69a10000000000000000000000000000000000000000000000000000000085528401602090939291936001600160a01b0360408201951681520152565b03925af1908115612609575061281d575b505b60038301541691826127ab575b50505050565b6004600691015491015490823b156128195790606484928360405195869485936360e2b09d60e11b855260048501526024840152600160448401525af1801561280e576127fa575b80806127a5565b612804829161236f565b61019757806127f3565b6040513d84823e3d90fd5b8380fd5b61282891945061236f565b5f925f612796565b845f528187525f60245260205f60448180885af160015f51148116156128d2575b818952156128be57508651935f52855260245260205f60448180855af160015f511481161561289f575b8286521561288b5780808061271d565b6024925083635274afe760e01b8352820152fd5b60018115166128b557813b15153d15161661287b565b823d5f823e3d90fd5b808488635274afe760e01b60249452820152fd5b600181151661201f57843b15153d151616612851565b843b15153d151616612714565b61291181600384015416826002860154166004850154916129a4565b612798565b90506020826003850154166024604051809481937f68c4ac2600000000000000000000000000000000000000000000000000000000835260048301525afa908115610fe6575f91612969575b505f6126ad565b90506020813d60201161299c575b8161298460209383612383565b810103126101df575180151581036101df575f612962565b3d9150612977565b604051927fa9059cbb000000000000000000000000000000000000000000000000000000005f526001600160a01b0380931660045260245260205f60448180855af160015f5114811615612a17575b8360405215612a0157505050565b60249350635274afe760e01b8352166004820152fd5b6001811516612a2d57813b15153d1516166129f3565b833d5f823e3d90fdfea264697066735822122018e1836822a58c752fdf2144361a5af64880c33ec3060e4c297934086fe64db164736f6c63430008180033","linkReferences":{}},"methodIdentifiers":{"BPS_DENOMINATOR()":"e1a45218","DISPUTE_WINDOW()":"f585dc57","OUTCOME_PAID()":"e744b66b","OUTCOME_REFUNDED()":"2b78aa4d","authority()":"bf7e214f","canOpenDispute(uint256)":"c02d0872","canSettle(uint256)":"df69433b","commerceDisputes()":"503ece4e","communityActive()":"3b5040ae","communityId()":"7f50861a","communityTokens()":"2e5fe746","createOffer(uint8,address,uint256,uint256,address,bool,bool,uint256,address,uint256,string)":"e8cc49b3","disputeToOrder(uint256)":"42228457","getOffer(uint256)":"4579268a","getOrder(uint256)":"d09ef241","isConsumingScheduledOp()":"8fb36037","markOrderFulfilled(uint256)":"9d083cb4","nextOfferId()":"5f5d0655","nextOrderId()":"2a58b330","offers(uint256)":"8a72ea6a","onDisputeResolved(uint256,uint8)":"a01371f5","openOrderDispute(uint256,string)":"708a974b","orders(uint256)":"a85c38ef","purchase(uint256,address,bytes)":"3493197b","revenueRouter()":"e8855812","setAuthority(address)":"7a9e5e4b","setCommerceDisputes(address)":"0562d1cd","setCommunityActive(bool)":"edcbb1aa","setCommunityToken(address)":"8c15e6a4","setRevenueRouter(address)":"b3b917d9","settleOrder(uint256)":"b50e801d","updateOffer(uint256,bool,uint256)":"63b8ba0e"},"id":20}