{"abi":[{"type":"constructor","inputs":[{"name":"name","type":"string","internalType":"string"},{"name":"symbol","type":"string","internalType":"string"},{"name":"_communityId","type":"uint256","internalType":"uint256"},{"name":"manager","type":"address","internalType":"address"}],"stateMutability":"nonpayable"},{"type":"function","name":"CLOCK_MODE","inputs":[],"outputs":[{"name":"","type":"string","internalType":"string"}],"stateMutability":"view"},{"type":"function","name":"DOMAIN_SEPARATOR","inputs":[],"outputs":[{"name":"","type":"bytes32","internalType":"bytes32"}],"stateMutability":"view"},{"type":"function","name":"GOVERNANCE_ROLE","inputs":[],"outputs":[{"name":"","type":"uint64","internalType":"uint64"}],"stateMutability":"view"},{"type":"function","name":"MAX_SUPPLY","inputs":[],"outputs":[{"name":"","type":"uint256","internalType":"uint256"}],"stateMutability":"view"},{"type":"function","name":"MINTER_ROLE","inputs":[],"outputs":[{"name":"","type":"uint64","internalType":"uint64"}],"stateMutability":"view"},{"type":"function","name":"allowance","inputs":[{"name":"owner","type":"address","internalType":"address"},{"name":"spender","type":"address","internalType":"address"}],"outputs":[{"name":"","type":"uint256","internalType":"uint256"}],"stateMutability":"view"},{"type":"function","name":"approve","inputs":[{"name":"spender","type":"address","internalType":"address"},{"name":"value","type":"uint256","internalType":"uint256"}],"outputs":[{"name":"","type":"bool","internalType":"bool"}],"stateMutability":"nonpayable"},{"type":"function","name":"authority","inputs":[],"outputs":[{"name":"","type":"address","internalType":"address"}],"stateMutability":"view"},{"type":"function","name":"balanceOf","inputs":[{"name":"account","type":"address","internalType":"address"}],"outputs":[{"name":"","type":"uint256","internalType":"uint256"}],"stateMutability":"view"},{"type":"function","name":"batchMint","inputs":[{"name":"recipients","type":"address[]","internalType":"address[]"},{"name":"amounts","type":"uint256[]","internalType":"uint256[]"},{"name":"reason","type":"string","internalType":"string"}],"outputs":[],"stateMutability":"nonpayable"},{"type":"function","name":"checkpoints","inputs":[{"name":"account","type":"address","internalType":"address"},{"name":"pos","type":"uint32","internalType":"uint32"}],"outputs":[{"name":"","type":"tuple","internalType":"struct Checkpoints.Checkpoint208","components":[{"name":"_key","type":"uint48","internalType":"uint48"},{"name":"_value","type":"uint208","internalType":"uint208"}]}],"stateMutability":"view"},{"type":"function","name":"clock","inputs":[],"outputs":[{"name":"","type":"uint48","internalType":"uint48"}],"stateMutability":"view"},{"type":"function","name":"communityId","inputs":[],"outputs":[{"name":"","type":"uint256","internalType":"uint256"}],"stateMutability":"view"},{"type":"function","name":"decimals","inputs":[],"outputs":[{"name":"","type":"uint8","internalType":"uint8"}],"stateMutability":"view"},{"type":"function","name":"delegate","inputs":[{"name":"delegatee","type":"address","internalType":"address"}],"outputs":[],"stateMutability":"nonpayable"},{"type":"function","name":"delegateBySig","inputs":[{"name":"delegatee","type":"address","internalType":"address"},{"name":"nonce","type":"uint256","internalType":"uint256"},{"name":"expiry","type":"uint256","internalType":"uint256"},{"name":"v","type":"uint8","internalType":"uint8"},{"name":"r","type":"bytes32","internalType":"bytes32"},{"name":"s","type":"bytes32","internalType":"bytes32"}],"outputs":[],"stateMutability":"nonpayable"},{"type":"function","name":"delegates","inputs":[{"name":"account","type":"address","internalType":"address"}],"outputs":[{"name":"","type":"address","internalType":"address"}],"stateMutability":"view"},{"type":"function","name":"eip712Domain","inputs":[],"outputs":[{"name":"fields","type":"bytes1","internalType":"bytes1"},{"name":"name","type":"string","internalType":"string"},{"name":"version","type":"string","internalType":"string"},{"name":"chainId","type":"uint256","internalType":"uint256"},{"name":"verifyingContract","type":"address","internalType":"address"},{"name":"salt","type":"bytes32","internalType":"bytes32"},{"name":"extensions","type":"uint256[]","internalType":"uint256[]"}],"stateMutability":"view"},{"type":"function","name":"emergencyBurn","inputs":[{"name":"from","type":"address","internalType":"address"},{"name":"amount","type":"uint256","internalType":"uint256"}],"outputs":[],"stateMutability":"nonpayable"},{"type":"function","name":"getMinters","inputs":[],"outputs":[{"name":"minters","type":"address[]","internalType":"address[]"}],"stateMutability":"pure"},{"type":"function","name":"getPastTotalSupply","inputs":[{"name":"timepoint","type":"uint256","internalType":"uint256"}],"outputs":[{"name":"","type":"uint256","internalType":"uint256"}],"stateMutability":"view"},{"type":"function","name":"getPastVotes","inputs":[{"name":"account","type":"address","internalType":"address"},{"name":"timepoint","type":"uint256","internalType":"uint256"}],"outputs":[{"name":"","type":"uint256","internalType":"uint256"}],"stateMutability":"view"},{"type":"function","name":"getVotes","inputs":[{"name":"account","type":"address","internalType":"address"}],"outputs":[{"name":"","type":"uint256","internalType":"uint256"}],"stateMutability":"view"},{"type":"function","name":"isConsumingScheduledOp","inputs":[],"outputs":[{"name":"","type":"bytes4","internalType":"bytes4"}],"stateMutability":"view"},{"type":"function","name":"mint","inputs":[{"name":"to","type":"address","internalType":"address"},{"name":"amount","type":"uint256","internalType":"uint256"},{"name":"reason","type":"string","internalType":"string"}],"outputs":[],"stateMutability":"nonpayable"},{"type":"function","name":"name","inputs":[],"outputs":[{"name":"","type":"string","internalType":"string"}],"stateMutability":"view"},{"type":"function","name":"nonces","inputs":[{"name":"owner","type":"address","internalType":"address"}],"outputs":[{"name":"","type":"uint256","internalType":"uint256"}],"stateMutability":"view"},{"type":"function","name":"numCheckpoints","inputs":[{"name":"account","type":"address","internalType":"address"}],"outputs":[{"name":"","type":"uint32","internalType":"uint32"}],"stateMutability":"view"},{"type":"function","name":"permit","inputs":[{"name":"owner","type":"address","internalType":"address"},{"name":"spender","type":"address","internalType":"address"},{"name":"value","type":"uint256","internalType":"uint256"},{"name":"deadline","type":"uint256","internalType":"uint256"},{"name":"v","type":"uint8","internalType":"uint8"},{"name":"r","type":"bytes32","internalType":"bytes32"},{"name":"s","type":"bytes32","internalType":"bytes32"}],"outputs":[],"stateMutability":"nonpayable"},{"type":"function","name":"remainingSupply","inputs":[],"outputs":[{"name":"remaining","type":"uint256","internalType":"uint256"}],"stateMutability":"view"},{"type":"function","name":"setAuthority","inputs":[{"name":"newAuthority","type":"address","internalType":"address"}],"outputs":[],"stateMutability":"nonpayable"},{"type":"function","name":"symbol","inputs":[],"outputs":[{"name":"","type":"string","internalType":"string"}],"stateMutability":"view"},{"type":"function","name":"totalSupply","inputs":[],"outputs":[{"name":"","type":"uint256","internalType":"uint256"}],"stateMutability":"view"},{"type":"function","name":"transfer","inputs":[{"name":"to","type":"address","internalType":"address"},{"name":"value","type":"uint256","internalType":"uint256"}],"outputs":[{"name":"","type":"bool","internalType":"bool"}],"stateMutability":"nonpayable"},{"type":"function","name":"transferFrom","inputs":[{"name":"from","type":"address","internalType":"address"},{"name":"to","type":"address","internalType":"address"},{"name":"value","type":"uint256","internalType":"uint256"}],"outputs":[{"name":"","type":"bool","internalType":"bool"}],"stateMutability":"nonpayable"},{"type":"event","name":"Approval","inputs":[{"name":"owner","type":"address","indexed":true,"internalType":"address"},{"name":"spender","type":"address","indexed":true,"internalType":"address"},{"name":"value","type":"uint256","indexed":false,"internalType":"uint256"}],"anonymous":false},{"type":"event","name":"AuthorityUpdated","inputs":[{"name":"authority","type":"address","indexed":false,"internalType":"address"}],"anonymous":false},{"type":"event","name":"DelegateChanged","inputs":[{"name":"delegator","type":"address","indexed":true,"internalType":"address"},{"name":"fromDelegate","type":"address","indexed":true,"internalType":"address"},{"name":"toDelegate","type":"address","indexed":true,"internalType":"address"}],"anonymous":false},{"type":"event","name":"DelegateVotesChanged","inputs":[{"name":"delegate","type":"address","indexed":true,"internalType":"address"},{"name":"previousVotes","type":"uint256","indexed":false,"internalType":"uint256"},{"name":"newVotes","type":"uint256","indexed":false,"internalType":"uint256"}],"anonymous":false},{"type":"event","name":"EIP712DomainChanged","inputs":[],"anonymous":false},{"type":"event","name":"MembershipTokenMinted","inputs":[{"name":"recipient","type":"address","indexed":true,"internalType":"address"},{"name":"amount","type":"uint256","indexed":false,"internalType":"uint256"},{"name":"minter","type":"address","indexed":true,"internalType":"address"},{"name":"reason","type":"string","indexed":false,"internalType":"string"}],"anonymous":false},{"type":"event","name":"Transfer","inputs":[{"name":"from","type":"address","indexed":true,"internalType":"address"},{"name":"to","type":"address","indexed":true,"internalType":"address"},{"name":"value","type":"uint256","indexed":false,"internalType":"uint256"}],"anonymous":false},{"type":"error","name":"AccessManagedInvalidAuthority","inputs":[{"name":"authority","type":"address","internalType":"address"}]},{"type":"error","name":"AccessManagedRequiredDelay","inputs":[{"name":"caller","type":"address","internalType":"address"},{"name":"delay","type":"uint32","internalType":"uint32"}]},{"type":"error","name":"AccessManagedUnauthorized","inputs":[{"name":"caller","type":"address","internalType":"address"}]},{"type":"error","name":"CheckpointUnorderedInsertion","inputs":[]},{"type":"error","name":"ECDSAInvalidSignature","inputs":[]},{"type":"error","name":"ECDSAInvalidSignatureLength","inputs":[{"name":"length","type":"uint256","internalType":"uint256"}]},{"type":"error","name":"ECDSAInvalidSignatureS","inputs":[{"name":"s","type":"bytes32","internalType":"bytes32"}]},{"type":"error","name":"ERC20ExceededSafeSupply","inputs":[{"name":"increasedSupply","type":"uint256","internalType":"uint256"},{"name":"cap","type":"uint256","internalType":"uint256"}]},{"type":"error","name":"ERC20InsufficientAllowance","inputs":[{"name":"spender","type":"address","internalType":"address"},{"name":"allowance","type":"uint256","internalType":"uint256"},{"name":"needed","type":"uint256","internalType":"uint256"}]},{"type":"error","name":"ERC20InsufficientBalance","inputs":[{"name":"sender","type":"address","internalType":"address"},{"name":"balance","type":"uint256","internalType":"uint256"},{"name":"needed","type":"uint256","internalType":"uint256"}]},{"type":"error","name":"ERC20InvalidApprover","inputs":[{"name":"approver","type":"address","internalType":"address"}]},{"type":"error","name":"ERC20InvalidReceiver","inputs":[{"name":"receiver","type":"address","internalType":"address"}]},{"type":"error","name":"ERC20InvalidSender","inputs":[{"name":"sender","type":"address","internalType":"address"}]},{"type":"error","name":"ERC20InvalidSpender","inputs":[{"name":"spender","type":"address","internalType":"address"}]},{"type":"error","name":"ERC2612ExpiredSignature","inputs":[{"name":"deadline","type":"uint256","internalType":"uint256"}]},{"type":"error","name":"ERC2612InvalidSigner","inputs":[{"name":"signer","type":"address","internalType":"address"},{"name":"owner","type":"address","internalType":"address"}]},{"type":"error","name":"ERC5805FutureLookup","inputs":[{"name":"timepoint","type":"uint256","internalType":"uint256"},{"name":"clock","type":"uint48","internalType":"uint48"}]},{"type":"error","name":"ERC6372InconsistentClock","inputs":[]},{"type":"error","name":"InvalidAccountNonce","inputs":[{"name":"account","type":"address","internalType":"address"},{"name":"currentNonce","type":"uint256","internalType":"uint256"}]},{"type":"error","name":"InvalidInput","inputs":[{"name":"reason","type":"string","internalType":"string"}]},{"type":"error","name":"InvalidShortString","inputs":[]},{"type":"error","name":"SafeCastOverflowedUintDowncast","inputs":[{"name":"bits","type":"uint8","internalType":"uint8"},{"name":"value","type":"uint256","internalType":"uint256"}]},{"type":"error","name":"StringTooLong","inputs":[{"name":"str","type":"string","internalType":"string"}]},{"type":"error","name":"VotesExpiredSignature","inputs":[{"name":"expiry","type":"uint256","internalType":"uint256"}]},{"type":"error","name":"ZeroAddress","inputs":[]}],"bytecode":{"object":"0x610180604081815234620004cc57620036238038038091620000228286620004d0565b8439820191608081840312620004cc5780516001600160401b039290838111620004cc57846200005491840162000517565b906020948584015190858211620004cc576200007291850162000517565b818401516060909401516001600160a01b03811690819003620004cc5782519683880188811088821117620003e057845260019687895281890197603160f81b89528651828111620003e05760038054918383811c93168015620004c1575b86841014620004ad57601f9283811162000465575b50808684821160011462000400575f91620003f4575b505f1982841b1c191690841b1781555b865191848311620003e05760049788548581811c91168015620003d5575b88821014620003c2578281116200037a575b508691841160011462000313579383949184925f9562000307575b50501b925f19911b1c19161784555b620001718662000572565b97610120988952620001838a6200070d565b96610140978852838151910120998a60e0525190209861010099808b524660a052865190848201927f8b73c3c69bb8fe3d512ecc4cf759cc79239f7b179b0ffacaa9a75d522b39400f84528883015260608201524660808201523060a082015260a0815260c081019281841090841117620002f4578287525190206080523060c052600b80546001600160a01b031916841790558281527f2f658b440c35314f52658ea8a740e05b284cdc84dc9ae01e891f21b8933e7cad908290a18515620002b1575015620002a357506101609283525192612dc794856200085c863960805185611987015260a05185611a42015260c05185611958015260e051856119d6015251846119fc01525183610c7901525182610ca201525181610c3e0152f35b905163d92e233d60e01b8152fd5b9050606492519163d647364f60e01b8352820152601b60248201527f436f6d6d756e6974792049442063616e6e6f74206265207a65726f00000000006044820152fd5b604186634e487b7160e01b5f525260245ffd5b015193505f8062000157565b9190601f19841692895f5284885f20945f5b8a8983831062000362575050501062000348575b50505050811b01845562000166565b01519060f8845f19921b161c191690555f80808062000339565b86860151895590970196948501948893500162000325565b895f52875f208380870160051c8201928a8810620003b8575b0160051c019086905b828110620003ac5750506200013c565b5f81550186906200039c565b9250819262000393565b60228a634e487b7160e01b5f525260245ffd5b90607f16906200012a565b634e487b7160e01b5f52604160045260245ffd5b90508a01515f620000fc565b5f8481528881208794509190601f198416908a8f5b8383106200044d57505050831162000435575b5050811b0181556200010c565b8c01515f1983861b60f8161c191690555f8062000428565b840151855589969094019392830192018a8f62000415565b825f52865f208480840160051c820192898510620004a3575b0160051c019085905b82811062000497575050620000e6565b5f815501859062000487565b925081926200047e565b634e487b7160e01b5f52602260045260245ffd5b92607f1692620000d1565b5f80fd5b601f909101601f19168101906001600160401b03821190821017620003e057604052565b5f5b838110620005065750505f910152565b8181015183820152602001620004f6565b81601f82011215620004cc5780516001600160401b038111620003e057604051926200054e601f8301601f191660200185620004d0565b81845260208284010111620004cc576200056f9160208085019101620004f4565b90565b80516020919082811015620005f1575090601f825111620005af5780825192015190808310620005a157501790565b825f19910360031b1b161790565b604490620005e39260405193849263305a27a960e01b845280600485015282519283918260248701528686019101620004f4565b601f01601f19168101030190fd5b6001600160401b038111620003e0576005928354926001938481811c9116801562000702575b83821014620004ad57601f8111620006ce575b5081601f84116001146200066857509282939183925f946200065c575b50501b915f199060031b1c191617905560ff90565b015192505f8062000647565b919083601f198116875f52845f20945f905b88838310620006b357505050106200069a575b505050811b01905560ff90565b01515f1960f88460031b161c191690555f80806200068d565b8587015188559096019594850194879350908101906200067a565b855f5284601f845f209201871c820191601f8601881c015b828110620006f65750506200062a565b5f8155018590620006e6565b90607f169062000617565b8051602090818110156200073a5750601f825111620005af5780825192015190808310620005a157501790565b906001600160401b038211620003e057600654926001938481811c9116801562000850575b83821014620004ad57601f811162000819575b5081601f8411600114620007b157509282939183925f94620007a5575b50501b915f199060031b1c19161760065560ff90565b015192505f806200078f565b919083601f19811660065f52845f20945f905b88838310620007fe5750505010620007e5575b505050811b0160065560ff90565b01515f1960f88460031b161c191690555f8080620007d7565b858701518855909601959485019487935090810190620007c4565b60065f5284601f845f20920160051c820191601f860160051c015b8281106200084457505062000772565b5f815501859062000834565b90607f16906200075f56fe60806040526004361015610011575f80fd5b5f3560e01c806306fdde0314610244578063095ea7b31461023f57806318160ddd1461023a57806323b872dd14610235578063313ce5671461023057806332cb6b0c1461022b5780633644e5151461022657806337f9fbdd146102215780633a46b1a81461021c5780634bf5d7e914610217578063587cde1e146102125780635c19a95c1461020d5780636b32810b146102085780636fcfff451461020357806370a08231146101fe5780637a9e5e4b146101f95780637ecebe00146101f45780637f50861a146101ef57806384b0196e146101ea5780638e539e8c146101e55780638fb36037146101e057806391ddadf4146101db57806395d89b41146101d65780639ab24eb0146101d1578063a9059cbb146101cc578063bf7e214f146101c7578063c151f0f1146101c2578063c3cda520146101bd578063d3fc9864146101b8578063d505accf146101b3578063d5391393146101ae578063da0239a6146101a9578063dd62ed3e146101a4578063f1127ed81461019f5763f36c8f5c1461019a575f80fd5b611635565b61157b565b61151a565b6114e6565b6114cb565b611346565b61123d565b611157565b611040565b61101a565b610ff0565b610fa4565b610eff565b610ed4565b610e60565b610d73565b610c61565b610c27565b610beb565b610b62565b610b29565b610abf565b610a51565b610a29565b6109eb565b610942565b610861565b610589565b610508565b6104e3565b6104c8565b6103ec565b6103cf565b61039a565b6102a9565b5f91031261025357565b5f80fd5b91908251928382525f5b848110610281575050825f602080949584010152601f8019910116010190565b602081830181015184830182015201610261565b9060206102a6928181520190610257565b90565b34610253575f366003190112610253576040515f6003546102c981611650565b8084529060209060019081811690811561035f5750600114610306575b610302856102f681870382611725565b60405191829182610295565b0390f35b60035f90815293507fc2575a0e9e593c00f959f8c92f12db2869c3395a3b0502d05e2516446f71f85b5b83851061034c575050505081016020016102f6826103026102e6565b8054868601840152938201938101610330565b869550610302969350602092506102f694915060ff191682840152151560051b82010192936102e6565b6001600160a01b0381160361025357565b34610253576040366003190112610253576103c46004356103ba81610389565b602435903361206e565b602060405160018152f35b34610253575f366003190112610253576020600254604051908152f35b346102535760603660031901126102535760043561040981610389565b60243561041581610389565b604435906001600160a01b0383165f5260016020526104483360405f20906001600160a01b03165f5260205260405f2090565b54925f198410610469575b61045d935061180b565b60405160018152602090f35b828410610485576104808361045d9503338361214e565b610453565b6040517ffb8f41b20000000000000000000000000000000000000000000000000000000081523360048201526024810185905260448101849052606490fd5b0390fd5b34610253575f36600319011261025357602060405160128152f35b34610253575f3660031901126102535760206040516a52b7d2dcc80cd2e40000008152f35b34610253575f36600319011261025357602061052261194e565b604051908152f35b9181601f840112156102535782359167ffffffffffffffff8311610253576020808501948460051b01011161025357565b9181601f840112156102535782359167ffffffffffffffff8311610253576020838186019501011161025357565b346102535760603660031901126102535767ffffffffffffffff60048035828111610253576105bb903690830161052a565b9290602435828111610253576105d4903690850161052a565b9092604435908111610253576105ed903690860161055b565b9590926105fa3633611afb565b8282036108135781156107c5575f805b8481106107a5575061062a6a52b7d2dcc80cd2e400000091600254611792565b11610757575f5b82811061063a57005b61065c61065061064b83868661175b565b61179f565b6001600160a01b031690565b156107475761066c81858861175b565b35156106f9578061069861068661064b600194878761175b565b61069183888b61175b565b3590611c28565b6106a661064b82868661175b565b6106b182878a61175b565b357f0d9ce43a2a798faafa63b937cd98cb878dfcaf44898644e820a5dc8633d3c8716106f08c6040519182918c6001600160a01b0333981696846117a9565b0390a301610631565b6104c48760405191829163d647364f60e01b8352820160609060208152601560208201527f416d6f756e742063616e6e6f74206265207a65726f000000000000000000000060408201520190565b8660405163d92e233d60e01b8152fd5b6104c48660405191829163d647364f60e01b8352820160609060208152601d60208201527f426174636820776f756c6420657863656564206d617820737570706c7900000060408201520190565b906107be6001916107b784888b61175b565b3590611792565b910161060a565b6104c48660405191829163d647364f60e01b8352820160609060208152600c60208201527f456d70747920617272617973000000000000000000000000000000000000000060408201520190565b6104c48660405191829163d647364f60e01b8352820160609060208152601560208201527f4172726179206c656e677468206d69736d61746368000000000000000000000060408201520190565b34610253576040366003190112610253576001600160a01b0360043561088681610389565b165f52600960205260405f2061089d602435611cf4565b8154905f8291600584116108ef575b6108b7935084612435565b90816108d457505060205f5b6001600160d01b0360405191168152f35b6108df6020926117e5565b905f52815f20015460301c6108c3565b91926108fa8161227a565b810390811161093d576108b793855f5265ffffffffffff808360205f20015416908516105f1461092b5750916108ac565b92915061093790611784565b906108ac565b611770565b34610253575f3660031901126102535761095b4361222a565b65ffffffffffff8061096c4361222a565b169116036109c1576103026040516109838161169c565b601d81527f6d6f64653d626c6f636b6e756d6265722666726f6d3d64656661756c740000006020820152604051918291602083526020830190610257565b60046040517f6ff07140000000000000000000000000000000000000000000000000000000008152fd5b34610253576020366003190112610253576020600435610a0a81610389565b6001600160a01b038091165f526008825260405f205416604051908152f35b3461025357602036600319011261025357610a4f600435610a4981610389565b33611d4e565b005b34610253575f36600319011261025357604051610a6d816116d1565b5f81526020604051918291602083016020845282518091526020604085019301915f5b828110610a9f57505050500390f35b83516001600160a01b031685528695509381019392810192600101610a90565b34610253576020366003190112610253576001600160a01b03600435610ae481610389565b165f52600960205260405f205463ffffffff90818111610b0a5760209160405191168152f35b604490604051906306dfcc6560e41b8252602060048301526024820152fd5b34610253576020366003190112610253576020610522600435610b4b81610389565b6001600160a01b03165f525f60205260405f205490565b3461025357602036600319011261025357600435610b7f81610389565b6001600160a01b039081600b54163303610bd557803b15610ba357610a4f90611dd8565b602491604051917fc2f31e5e000000000000000000000000000000000000000000000000000000008352166004820152fd5b602460405162d1953b60e31b8152336004820152fd5b34610253576020366003190112610253576001600160a01b03600435610c1081610389565b165f526007602052602060405f2054604051908152f35b34610253575f3660031901126102535760206040517f00000000000000000000000000000000000000000000000000000000000000008152f35b34610253575f36600319011261025357610d16610c9d7f00000000000000000000000000000000000000000000000000000000000000006125ec565b610cc67f0000000000000000000000000000000000000000000000000000000000000000612702565b60405190610cd3826116d1565b5f8252610d246020916040519586957f0f00000000000000000000000000000000000000000000000000000000000000875260e0602088015260e0870190610257565b908582036040870152610257565b4660608501523060808501525f60a085015283810360c0850152602080845192838152019301915f5b828110610d5c57505050500390f35b835185528695509381019392810192600101610d4d565b3461025357602036600319011261025357610d8f600435611cf4565b600a54905f829160058411610df4575b610da993506123bc565b80610dba57506040515f8152602090f35b610dc56020916117e5565b600a5f527fc65a7bb8d6351c1cf70c95a316cc6a92839c986682d98bc35f958f4883f9d2a8015460301c6108c3565b9192610dff8161227a565b810390811161093d57610da993600a5f5265ffffffffffff80837fc65a7bb8d6351c1cf70c95a316cc6a92839c986682d98bc35f958f4883f9d2a8015416908516105f14610e4e575091610d9f565b929150610e5a90611784565b90610d9f565b34610253575f36600319011261025357600b5460a01c60ff1615610ecc5760207f8fb36037000000000000000000000000000000000000000000000000000000005b7fffffffff0000000000000000000000000000000000000000000000000000000060405191168152f35b60205f610ea2565b34610253575f366003190112610253576020610eef4361222a565b65ffffffffffff60405191168152f35b34610253575f366003190112610253576040515f600454610f1f81611650565b8084529060209060019081811690811561035f5750600114610f4b57610302856102f681870382611725565b60045f90815293507f8a35acfbc15ff81a39ae7d344fd709f28e8600b4aa8c65c6b64bfe7fe36bd19b5b838510610f91575050505081016020016102f6826103026102e6565b8054868601840152938201938101610f75565b34610253576020366003190112610253576001600160a01b03600435610fc981610389565b165f52600960205260206001600160d01b03610fe760405f20611e71565b16604051908152f35b34610253576040366003190112610253576103c460043561101081610389565b602435903361180b565b34610253575f3660031901126102535760206001600160a01b03600b5416604051908152f35b346102535760403660031901126102535760043561105d81610389565b60243561106a3633611afb565b6001600160a01b03821680156111265781156110e0575f525f6020528060405f20541061109a57610a4f91611e99565b60405163d647364f60e01b815260206004820152601460248201527f496e73756666696369656e742062616c616e63650000000000000000000000006044820152606490fd5b60405163d647364f60e01b815260206004820152601560248201527f416d6f756e742063616e6e6f74206265207a65726f00000000000000000000006044820152606490fd5b600460405163d92e233d60e01b8152fd5b6064359060ff8216820361025357565b6084359060ff8216820361025357565b346102535760c03660031901126102535760043561117481610389565b60443590602435611183611137565b83421161120c57611200610a4f94611207926040519060208201927fe48329057bfd03d55e49b547132e39cffd9c1820ad7b9d4c5307691425d15adf84526001600160a01b03881660408401528660608401526080830152608082526111e8826116ed565b6111fb60a4359360843593519020611fa5565b611fe6565b9182611ffe565b611d4e565b602484604051907f4683af0e0000000000000000000000000000000000000000000000000000000082526004820152fd5b346102535760603660031901126102535760043561125a81610389565b6024359060443567ffffffffffffffff81116102535761127e90369060040161055b565b61128b9291923633611afb565b6001600160a01b0382169283156111265784156110e0576a52b7d2dcc80cd2e40000006112ba86600254611792565b11611300576112ea857f0d9ce43a2a798faafa63b937cd98cb878dfcaf44898644e820a5dc8633d3c87194611c28565b6112fb6040519283923397846117a9565b0390a3005b60405163d647364f60e01b815260206004820152601760248201527f576f756c6420657863656564206d617820737570706c790000000000000000006044820152606490fd5b346102535760e03660031901126102535760043561136381610389565b60243561136f81610389565b6044359060643561137e611147565b81421161149a579061141961143a926114276113b4886001600160a01b03165f52600760205260405f2080549060018201905590565b9360405193849160208301968a8a8d8a91959493909260a09360c08401977f6e71edae12b1b97f4d1f60370fef10105fa2faae0126114a169c64845d6126c985526001600160a01b038092166020860152166040840152606083015260808201520152565b03601f198101845283611725565b6111fb60c4359360a43593519020611fa5565b6001600160a01b03808516908216036114575750610a4f9261206e565b6040517f4b800e460000000000000000000000000000000000000000000000000000000081526001600160a01b0391821660048201529084166024820152604490fd5b602482604051907f627913020000000000000000000000000000000000000000000000000000000082526004820152fd5b34610253575f366003190112610253576020604051600b8152f35b34610253575f366003190112610253576002546a52b7d2dcc80cd2e400000090810390811161093d57602090604051908152f35b3461025357604036600319011261025357602061157260043561153c81610389565b6001600160a01b036024359161155183610389565b165f526001835260405f20906001600160a01b03165f5260205260405f2090565b54604051908152f35b346102535760403660031901126102535760043561159881610389565b6024359063ffffffff8216820361025357610302916001600160a01b036115e5926115c16117f3565b506115ca6117f3565b50165f52600960205260405f206115df6117f3565b50612936565b50604051906115f38261169c565b5465ffffffffffff8116825260301c60208201526040519182918291909160206001600160d01b0381604084019565ffffffffffff8151168552015116910152565b34610253575f366003190112610253576020604051600c8152f35b90600182811c9216801561167e575b602083101461166a57565b634e487b7160e01b5f52602260045260245ffd5b91607f169161165f565b634e487b7160e01b5f52604160045260245ffd5b6040810190811067ffffffffffffffff8211176116b857604052565b611688565b67ffffffffffffffff81116116b857604052565b6020810190811067ffffffffffffffff8211176116b857604052565b60a0810190811067ffffffffffffffff8211176116b857604052565b60c0810190811067ffffffffffffffff8211176116b857604052565b90601f8019910116810190811067ffffffffffffffff8211176116b857604052565b634e487b7160e01b5f52603260045260245ffd5b919081101561176b5760051b0190565b611747565b634e487b7160e01b5f52601160045260245ffd5b906001820180921161093d57565b9190820180921161093d57565b356102a681610389565b91926060938192845260406020850152816040850152848401375f828201840152601f01601f1916010190565b604051906117e38261169c565b565b5f1981019190821161093d57565b604051906118008261169c565b5f6020838281520152565b9291906001600160a01b039384811694851561191e57821680156118ee57611843826001600160a01b03165f525f60205260405f2090565b54958487106118bf57846117e396970361186d846001600160a01b03165f525f60205260405f2090565b55611888846001600160a01b03165f525f60205260405f2090565b8054860190556040518581527fddf252ad1be2c89b69c2b068fc378daa952ba7f163c4a11628f55a4df523b3ef90602090a3612a8f565b60405163391434e360e21b81526001600160a01b03841660048201526024810188905260448101869052606490fd5b60246040517fec442f050000000000000000000000000000000000000000000000000000000081525f6004820152fd5b60246040517f96c6fd1e0000000000000000000000000000000000000000000000000000000081525f6004820152fd5b6001600160a01b037f000000000000000000000000000000000000000000000000000000000000000016301480611a3f575b156119a9577f000000000000000000000000000000000000000000000000000000000000000090565b60405160208101907f8b73c3c69bb8fe3d512ecc4cf759cc79239f7b179b0ffacaa9a75d522b39400f82527f000000000000000000000000000000000000000000000000000000000000000060408201527f000000000000000000000000000000000000000000000000000000000000000060608201524660808201523060a082015260a08152611a3981611709565b51902090565b507f00000000000000000000000000000000000000000000000000000000000000004614611980565b600411610253575f90600490565b7fffffffff000000000000000000000000000000000000000000000000000000009035818116939260048110611aab57505050565b60040360031b82901b16169150565b90916001600160a01b0360609316825260406020830152806040830152805f848401375f828201840152601f01601f1916010190565b6040513d5f823e3d90fd5b611b2b611b10600b546001600160a01b031690565b611b22611b1c85611a68565b90611a76565b90833091612187565b9015611b3657505050565b63ffffffff1615611c0657611b6a7401000000000000000000000000000000000000000060ff60a01b19600b541617600b55565b611b82610650610650600b546001600160a01b031690565b91823b1561025357611bc6925f92836040518096819582947f94c7d7ee00000000000000000000000000000000000000000000000000000000845260048401611aba565b03925af18015611c0157611be8575b506117e360ff60a01b19600b5416600b55565b80611bf5611bfb926116bd565b80610249565b5f611bd5565b611af0565b60405162d1953b60e31b81526001600160a01b03919091166004820152602490fd5b91906001600160a01b03831680156118ee5760025482810180911161093d57600255611c64846001600160a01b03165f525f60205260405f2090565b8054830190556040518281525f907fddf252ad1be2c89b69c2b068fc378daa952ba7f163c4a11628f55a4df523b3ef90602090a3600254926001600160d01b038411611cb5576117e3929350612a17565b6040517f1cb15d26000000000000000000000000000000000000000000000000000000008152600481018590526001600160d01b036024820152604490fd5b65ffffffffffff611d044361222a565b1680821015611d1757506102a69061222a565b60449250604051917fecd3f81e00000000000000000000000000000000000000000000000000000000835260048301526024820152fd5b6117e391611dd26001600160a01b039273ffffffffffffffffffffffffffffffffffffffff1984821694855f52600860205260405f20958654968288169788938816948591161790557f3134e8a2e6d97e929a7e54011ea5485d7d196dd5f0ba4d4ef95803e8e3fc257f5f80a46001600160a01b03165f525f60205260405f205490565b91612494565b60206001600160a01b037f2f658b440c35314f52658ea8a740e05b284cdc84dc9ae01e891f21b8933e7cad92168073ffffffffffffffffffffffffffffffffffffffff19600b541617600b55604051908152a1565b600a5480611e3a57505f90565b805f1981011161093d57600a5f527fc65a7bb8d6351c1cf70c95a316cc6a92839c986682d98bc35f958f4883f9d2a7015460301c90565b805480611e7e5750505f90565b5f1991818381011161093d575f5260205f2001015460301c90565b91906001600160a01b03808416801561191e57611ec6856001600160a01b03165f525f60205260405f2090565b5494838610611f7457611ef0846117e3969703916001600160a01b03165f525f60205260405f2090565b5582600254036002555f817fddf252ad1be2c89b69c2b068fc378daa952ba7f163c4a11628f55a4df523b3ef6020604051878152a3611f36611f318461294b565b6129e5565b50505f908152600860205260408120549080527f5eff886ea0ce6ca488a3d6e336d6c0f75f46d19b42c06ce5ee98e42c96d256c75482169116612494565b60405163391434e360e21b81526001600160a01b039190911660048201526024810186905260448101849052606490fd5b604290611fb061194e565b90604051917f19010000000000000000000000000000000000000000000000000000000000008352600283015260228201522090565b916102a69391611ff5936127bf565b9092919261285f565b90612023826001600160a01b03165f52600760205260405f2080549060018201905590565b80910361202e575050565b604492506001600160a01b03604051927f752d88c00000000000000000000000000000000000000000000000000000000084521660048301526024820152fd5b906001600160a01b039182811692831561211e5782169384156120ee57806120e47f8c5be1e5ebec7d5bd14f71427d1e84f3dd0314c0f7b2291e5b200ac8c7c3b925946120ce6020956001600160a01b03165f52600160205260405f2090565b906001600160a01b03165f5260205260405f2090565b55604051908152a3565b60246040517f94280d620000000000000000000000000000000000000000000000000000000081525f6004820152fd5b60246040517fe602df050000000000000000000000000000000000000000000000000000000081525f6004820152fd5b906001600160a01b038083161561211e578116156120ee576120ce612184926001600160a01b03165f52600160205260405f2090565b55565b5f90604092959382967fffffffff00000000000000000000000000000000000000000000000000000000849786519260208401947fb70096130000000000000000000000000000000000000000000000000000000086526001600160a01b03809216602486015216604484015216606482015260648152612207816116ed565b8380528360205251915afa61221857565b9150505f51906020518060201c150290565b65ffffffffffff9081811161223d571690565b604490604051906306dfcc6560e41b8252603060048301526024820152fd5b8115612266570490565b634e487b7160e01b5f52601260045260245ffd5b60018111156102a6576001817001000000000000000000000000000000008110156123a5575b61234d61234361233961232f61232561231b61235997600488680100000000000000006123549a1015612398575b64010000000081101561238b575b6201000081101561237e575b610100811015612372575b6010811015612366575b101561235e575b60030260011c612314818b61225c565b0160011c90565b612314818a61225c565b612314818961225c565b612314818861225c565b612314818761225c565b612314818661225c565b809361225c565b821190565b900390565b60011b612304565b811c9160021b916122fd565b60081c91811b916122f3565b60101c9160081b916122e8565b60201c9160101b916122dc565b60401c9160201b916122ce565b50680100000000000000009050608082901c6122a0565b905b8281106123ca57505090565b90918082169080831860011c820180921161093d57600a5f5265ffffffffffff80837fc65a7bb8d6351c1cf70c95a316cc6a92839c986682d98bc35f958f4883f9d2a8015416908516105f146124235750915b906123be565b92915061242f90611784565b9061241d565b91905b8382106124455750505090565b9091928083169080841860011c820180921161093d57845f5265ffffffffffff808360205f20015416908416105f146124825750925b9190612438565b93925061248e90611784565b9161247b565b91906001600160a01b03928382169381169084821415806125e3575b6124bc575b5050505050565b81612543575b5050826124d1575b80806124b5565b7fdec2bacdd2f05b59de34da9b523dff8be42e5e38e818c82fdb0bae774387a7249161251a612514612520936001600160a01b03165f52600960205260405f2090565b9161294b565b9061297e565b604080516001600160d01b039384168152919092166020820152a25f80806124ca565b61255e906001600160a01b03165f52600960205260405f2090565b6125678461294b565b6125704361222a565b6001600160d01b0391828061258486611e71565b16911690039282841161093d577fdec2bacdd2f05b59de34da9b523dff8be42e5e38e818c82fdb0bae774387a724936125d9926125c092612cd7565b6040805192851683529316602082015291829190820190565b0390a25f806124c2565b508315156124b0565b60ff81146126425760ff811690601f8211612618576040519161260e8361169c565b8252602082015290565b60046040517fb3512b0c000000000000000000000000000000000000000000000000000000008152fd5b50604051600554815f61265483611650565b808352926020906001908181169081156126de575060011461267f575b50506102a692500382611725565b91509260055f527f036b6384b5eca791c62761152d0c79bb0604c104a5fb6f4eb0703f3154bb3db0935f925b8284106126c657506102a69450505081016020015f80612671565b855487850183015294850194869450928101926126ab565b915050602092506102a694915060ff191682840152151560051b8201015f80612671565b60ff81146127245760ff811690601f8211612618576040519161260e8361169c565b50604051600654815f61273683611650565b808352926020906001908181169081156126de57506001146127605750506102a692500382611725565b91509260065f527ff652222313e28459528d920b65115c16c04f3efc82aaedc97be59f3f377c0d3f935f925b8284106127a757506102a69450505081016020015f80612671565b8554878501830152948501948694509281019261278c565b91907f7fffffffffffffffffffffffffffffff5d576e7357a4501ddfe92f46681b20a08411612836579160209360809260ff5f9560405194855216868401526040830152606082015282805260015afa15611c01575f516001600160a01b0381161561282c57905f905f90565b505f906001905f90565b5050505f9160039190565b6004111561284b57565b634e487b7160e01b5f52602160045260245ffd5b61286881612841565b80612871575050565b61287a81612841565b600181036128ac5760046040517ff645eedf000000000000000000000000000000000000000000000000000000008152fd5b6128b581612841565b600281036128ef576040517ffce698f700000000000000000000000000000000000000000000000000000000815260048101839052602490fd5b806128fb600392612841565b146129035750565b6040517fd78bce0c0000000000000000000000000000000000000000000000000000000081526004810191909152602490fd5b805482101561176b575f5260205f2001905f90565b6001600160d01b039081811161295f571690565b604490604051906306dfcc6560e41b825260d060048301526024820152fd5b906129884361222a565b6001600160d01b0391828061299c86611e71565b1691160191821161093d576129b092612cd7565b9091565b6129bd4361222a565b906001600160d01b039081806129d1611e2d565b1691160190811161093d576129b091612bc6565b6129ee4361222a565b906001600160d01b03908180612a02611e2d565b169116900390811161093d576129b091612bc6565b906117e391612a2d612a288361294b565b6129b4565b50506001600160a01b03809116908115612a7c575b60086020527f5eff886ea0ce6ca488a3d6e336d6c0f75f46d19b42c06ce5ee98e42c96d256c7545f92835260409092205481169116612494565b612a88611f318461294b565b5050612a42565b906117e392916001600160a01b0380809216928315612ae2575b16918215612acf575b5f5260086020528060405f205416915f5260405f20541690612494565b612adb611f318561294b565b5050612ab2565b612aee612a288661294b565b5050612aa9565b600a5490680100000000000000008210156116b8576001820180600a5582101561176b57600a5f5280516020919091015160301b65ffffffffffff191665ffffffffffff91909116177fc65a7bb8d6351c1cf70c95a316cc6a92839c986682d98bc35f958f4883f9d2a890910155565b8054680100000000000000008110156116b857612b8791600182018155612936565b612bb35781516020929092015160301b65ffffffffffff191665ffffffffffff92909216919091179055565b634e487b7160e01b5f525f60045260245ffd5b600a549192918015612cae57612bde612c07916117e5565b600a5f527fc65a7bb8d6351c1cf70c95a316cc6a92839c986682d98bc35f958f4883f9d2a80190565b9081549165ffffffffffff90818416918316808311612c8457869203612c4c57612c4592509065ffffffffffff82549181199060301b169116179055565b60301c9190565b5050612c7f90612c6b612c5d6117d6565b65ffffffffffff9092168252565b6001600160d01b0385166020820152612af5565b612c45565b60046040517f2520601d000000000000000000000000000000000000000000000000000000008152fd5b50612cd290612cbe612c5d6117d6565b6001600160d01b0384166020820152612af5565b5f9190565b80549293928015612d6c57612cee612cf9916117e5565b825f5260205f200190565b9182549265ffffffffffff91828516928116808411612c8457879303612d385750612c4592509065ffffffffffff82549181199060301b169116179055565b915050612c7f91612d58612d4a6117d6565b65ffffffffffff9093168352565b6001600160d01b0386166020830152612b65565b5090612cd291612d7d612d4a6117d6565b6001600160d01b0385166020830152612b6556fea2646970667358221220c610a7790fe857709f872951a2c76e82c078b5225411f90f83c08ea06d450bc064736f6c63430008180033","linkReferences":{}},"methodIdentifiers":{"CLOCK_MODE()":"4bf5d7e9","DOMAIN_SEPARATOR()":"3644e515","GOVERNANCE_ROLE()":"f36c8f5c","MAX_SUPPLY()":"32cb6b0c","MINTER_ROLE()":"d5391393","allowance(address,address)":"dd62ed3e","approve(address,uint256)":"095ea7b3","authority()":"bf7e214f","balanceOf(address)":"70a08231","batchMint(address[],uint256[],string)":"37f9fbdd","checkpoints(address,uint32)":"f1127ed8","clock()":"91ddadf4","communityId()":"7f50861a","decimals()":"313ce567","delegate(address)":"5c19a95c","delegateBySig(address,uint256,uint256,uint8,bytes32,bytes32)":"c3cda520","delegates(address)":"587cde1e","eip712Domain()":"84b0196e","emergencyBurn(address,uint256)":"c151f0f1","getMinters()":"6b32810b","getPastTotalSupply(uint256)":"8e539e8c","getPastVotes(address,uint256)":"3a46b1a8","getVotes(address)":"9ab24eb0","isConsumingScheduledOp()":"8fb36037","mint(address,uint256,string)":"d3fc9864","name()":"06fdde03","nonces(address)":"7ecebe00","numCheckpoints(address)":"6fcfff45","permit(address,address,uint256,uint256,uint8,bytes32,bytes32)":"d505accf","remainingSupply()":"da0239a6","setAuthority(address)":"7a9e5e4b","symbol()":"95d89b41","totalSupply()":"18160ddd","transfer(address,uint256)":"a9059cbb","transferFrom(address,address,uint256)":"23b872dd"},"id":44}