{"abi":[{"type":"constructor","inputs":[{"name":"manager","type":"address","internalType":"address"},{"name":"_valuableActionRegistry","type":"address","internalType":"address"},{"name":"_valuableActionSBT","type":"address","internalType":"address"},{"name":"_communityId","type":"uint256","internalType":"uint256"}],"stateMutability":"nonpayable"},{"type":"function","name":"applications","inputs":[{"name":"","type":"uint256","internalType":"uint256"}],"outputs":[{"name":"applicant","type":"address","internalType":"address"},{"name":"roleTypeId","type":"bytes32","internalType":"bytes32"},{"name":"evidence","type":"bytes","internalType":"bytes"},{"name":"status","type":"uint8","internalType":"uint8"},{"name":"positionTokenId","type":"uint256","internalType":"uint256"}],"stateMutability":"view"},{"type":"function","name":"applyForPosition","inputs":[{"name":"roleTypeId","type":"bytes32","internalType":"bytes32"},{"name":"evidence","type":"bytes","internalType":"bytes"}],"outputs":[{"name":"appId","type":"uint256","internalType":"uint256"}],"stateMutability":"nonpayable"},{"type":"function","name":"approveApplication","inputs":[{"name":"appId","type":"uint256","internalType":"uint256"},{"name":"metadata","type":"bytes","internalType":"bytes"}],"outputs":[{"name":"positionTokenId","type":"uint256","internalType":"uint256"}],"stateMutability":"nonpayable"},{"type":"function","name":"authority","inputs":[],"outputs":[{"name":"","type":"address","internalType":"address"}],"stateMutability":"view"},{"type":"function","name":"closePosition","inputs":[{"name":"positionTokenId","type":"uint256","internalType":"uint256"},{"name":"outcome","type":"uint8","internalType":"enum PositionManager.CloseOutcome"},{"name":"evidenceOrMetadata","type":"bytes","internalType":"bytes"}],"outputs":[{"name":"roleTokenId","type":"uint256","internalType":"uint256"}],"stateMutability":"nonpayable"},{"type":"function","name":"communityId","inputs":[],"outputs":[{"name":"","type":"uint256","internalType":"uint256"}],"stateMutability":"view"},{"type":"function","name":"definePositionType","inputs":[{"name":"roleTypeId","type":"bytes32","internalType":"bytes32"},{"name":"points","type":"uint32","internalType":"uint32"},{"name":"active","type":"bool","internalType":"bool"}],"outputs":[],"stateMutability":"nonpayable"},{"type":"function","name":"isConsumingScheduledOp","inputs":[],"outputs":[{"name":"","type":"bytes4","internalType":"bytes4"}],"stateMutability":"view"},{"type":"function","name":"nextAppId","inputs":[],"outputs":[{"name":"","type":"uint256","internalType":"uint256"}],"stateMutability":"view"},{"type":"function","name":"positionTypes","inputs":[{"name":"","type":"bytes32","internalType":"bytes32"}],"outputs":[{"name":"roleTypeId","type":"bytes32","internalType":"bytes32"},{"name":"points","type":"uint32","internalType":"uint32"},{"name":"active","type":"bool","internalType":"bool"}],"stateMutability":"view"},{"type":"function","name":"revenueRouter","inputs":[],"outputs":[{"name":"","type":"address","internalType":"contract IRevenueRouter"}],"stateMutability":"view"},{"type":"function","name":"setAuthority","inputs":[{"name":"newAuthority","type":"address","internalType":"address"}],"outputs":[],"stateMutability":"nonpayable"},{"type":"function","name":"setRevenueRouter","inputs":[{"name":"router","type":"address","internalType":"address"}],"outputs":[],"stateMutability":"nonpayable"},{"type":"function","name":"valuableActionRegistry","inputs":[],"outputs":[{"name":"","type":"address","internalType":"contract ValuableActionRegistry"}],"stateMutability":"view"},{"type":"function","name":"valuableActionSBT","inputs":[],"outputs":[{"name":"","type":"address","internalType":"contract IValuableActionSBT"}],"stateMutability":"view"},{"type":"event","name":"AuthorityUpdated","inputs":[{"name":"authority","type":"address","indexed":false,"internalType":"address"}],"anonymous":false},{"type":"event","name":"PositionApplied","inputs":[{"name":"appId","type":"uint256","indexed":true,"internalType":"uint256"},{"name":"applicant","type":"address","indexed":true,"internalType":"address"},{"name":"roleTypeId","type":"bytes32","indexed":true,"internalType":"bytes32"},{"name":"communityId","type":"uint256","indexed":false,"internalType":"uint256"}],"anonymous":false},{"type":"event","name":"PositionAssigned","inputs":[{"name":"appId","type":"uint256","indexed":true,"internalType":"uint256"},{"name":"applicant","type":"address","indexed":true,"internalType":"address"},{"name":"positionTokenId","type":"uint256","indexed":true,"internalType":"uint256"}],"anonymous":false},{"type":"event","name":"PositionClosed","inputs":[{"name":"positionTokenId","type":"uint256","indexed":true,"internalType":"uint256"},{"name":"holder","type":"address","indexed":true,"internalType":"address"},{"name":"outcome","type":"uint8","indexed":false,"internalType":"enum PositionManager.CloseOutcome"},{"name":"endedAt","type":"uint64","indexed":false,"internalType":"uint64"},{"name":"roleTokenId","type":"uint256","indexed":false,"internalType":"uint256"}],"anonymous":false},{"type":"event","name":"PositionTypeDefined","inputs":[{"name":"roleTypeId","type":"bytes32","indexed":true,"internalType":"bytes32"},{"name":"communityId","type":"uint256","indexed":true,"internalType":"uint256"},{"name":"points","type":"uint32","indexed":false,"internalType":"uint32"},{"name":"active","type":"bool","indexed":false,"internalType":"bool"}],"anonymous":false},{"type":"event","name":"RevenueRouterUpdated","inputs":[{"name":"router","type":"address","indexed":true,"internalType":"address"}],"anonymous":false},{"type":"error","name":"AccessManagedInvalidAuthority","inputs":[{"name":"authority","type":"address","internalType":"address"}]},{"type":"error","name":"AccessManagedRequiredDelay","inputs":[{"name":"caller","type":"address","internalType":"address"},{"name":"delay","type":"uint32","internalType":"uint32"}]},{"type":"error","name":"AccessManagedUnauthorized","inputs":[{"name":"caller","type":"address","internalType":"address"}]},{"type":"error","name":"InvalidInput","inputs":[{"name":"reason","type":"string","internalType":"string"}]},{"type":"error","name":"ZeroAddress","inputs":[]}],"bytecode":{"object":"0x60e034620001b457601f6200189d38819003918201601f191683019291906001600160401b03841183851017620001b8578160809284926040968752833981010312620001b4576200005181620001cc565b906200006060208201620001cc565b91606062000070858401620001cc565b9201515f80546001600160a01b0319166001600160a01b0393841690811790915585518181529194917f2f658b440c35314f52658ea8a740e05b284cdc84dc9ae01e891f21b8933e7cad90602090a1600160045515620001a3578116918215620001a35716908115620001925782156200014d5760805260a05260c052516116bb9081620001e2823960805181818161024c015281816108c70152818161093601528181610af80152611201015260a05181818160de015281816107f5015261088c015260c051818181610db4015281816110b801526112f20152f35b835163d647364f60e01b815260206004820152601360248201527f496e76616c696420636f6d6d756e6974794964000000000000000000000000006044820152606490fd5b835163d92e233d60e01b8152600490fd5b845163d92e233d60e01b8152600490fd5b5f80fd5b634e487b7160e01b5f52604160045260245ffd5b51906001600160a01b0382168203620001b45756fe60806040526004361015610011575f80fd5b5f803560e01c806306711c771461122557806310127811146111e2578063220183c414610f0557806338226c2a14610ee857806361bd183714610e9f5780637a9e5e4b14610dd75780637f50861a14610d9d5780638e9c9bd6146107685780638fb36037146106f3578063b3b917d914610649578063bf7e214f14610623578063dfefadff146104da578063e7ad0d2b1461012c578063e8855812146101055763e8901184146100bf575f80fd5b3461010257806003193601126101025760206040516001600160a01b037f0000000000000000000000000000000000000000000000000000000000000000168152f35b80fd5b503461010257806003193601126101025760206001600160a01b0360015416604051908152f35b50346101025760403660031901126101025760043560243567ffffffffffffffff81116104d65761016190369060040161139f565b61016e93919336336114b1565b8282526020926003845260408320946003860195600160ff88541603610491576001600160a01b039182825416801561044c57600183015490818852600289526040882092604051906101c082611405565b8a600186549687855201549560ff63ffffffff976040848701968a8316885201931c1615158252156104065751156103c0578a9461024692511698604051998a9586957f041848f9000000000000000000000000000000000000000000000000000000008752600487015260248601526044850152608060648501526084840191611491565b038188867f0000000000000000000000000000000000000000000000000000000000000000165af19384156103b5578594610382575b508160015416801561033c57803b15610338578580916024604051809481937f9aaf5cfc0000000000000000000000000000000000000000000000000000000083528a60048401525af1801561032d57610315575b5083949596600260ff198254161790558360048201555416907ffc79da6c5316f4c3a2841a4a8ee84045b0cda7f9c0b91deec048b7f26d4293cf6040519580a48152f35b61031f8691611421565b610329575f6102d1565b8480fd5b6040513d88823e3d90fd5b8580fd5b60405163d647364f60e01b815260206004820152601560248201527f526576656e7565526f75746572206e6f742073657400000000000000000000006044820152606490fd5b9093508581813d83116103ae575b61039a8183611435565b810103126103aa5751925f61027c565b5f80fd5b503d610390565b6040513d87823e3d90fd5b60405163d647364f60e01b815260206004820152601660248201527f506f736974696f6e207479706520696e616374697665000000000000000000006044820152606490fd5b60405163d647364f60e01b815260206004820152601260248201527f556e6b6e6f776e20726f6c6554797065496400000000000000000000000000006044820152606490fd5b6064886040519063d647364f60e01b82526004820152601560248201527f4170706c69636174696f6e206e6f7420666f756e6400000000000000000000006044820152fd5b6064866040519063d647364f60e01b82526004820152601760248201527f4170706c69636174696f6e206e6f742070656e64696e670000000000000000006044820152fd5b8280fd5b503461010257602090816003193601126101025760043581526003825260408120916001600160a01b03835416926001926001820154926002830160405180968490835493610528856113cd565b94858552866001821691825f146106015750506001146105c5575b505061055792509795979492940386611435565b600460ff6003830154169101549160405196879586528486015260a060408601528551938460a0870152815b8581106105ae57505060c0809650848601015260608401526080830152601f80199101168101030190f35b80880182015189820160c001528896508101610583565b85925086528186209086915b8583106105e957505061055793508201015f80610543565b8054838c018501528a945086939092019181016105d1565b925093505061055794915060ff191682840152151560051b8201015f80610543565b50346101025780600319360112610102576001600160a01b036020915416604051908152f35b5034610102576020366003190112610102576004356001600160a01b0381168091036106ef5761067936336114b1565b80156106c5578073ffffffffffffffffffffffffffffffffffffffff1960015416176001557f8b9386266f5c4341f0b77323f7a0d45dbb0c47f507400a667b3bc70d5b404f2d8280a280f35b60046040517fd92e233d000000000000000000000000000000000000000000000000000000008152fd5b5080fd5b5034610102578060031936011261010257805460a01c60ff1615610760575060207f8fb36037000000000000000000000000000000000000000000000000000000005b7fffffffff0000000000000000000000000000000000000000000000000000000060405191168152f35b602090610736565b50346103aa5760603660031901126103aa57600360243510156103aa5760443567ffffffffffffffff81116103aa576107a590369060040161139f565b6107b292919236336114b1565b5f91604051917fb09afec1000000000000000000000000000000000000000000000000000000008352600435600484015261018080846024816001600160a01b037f0000000000000000000000000000000000000000000000000000000000000000165afa938415610ba5575f94610c8a575b505082516005811015610c7657600303610c315767ffffffffffffffff61010084015116610bec57604051947f6352211e00000000000000000000000000000000000000000000000000000000865260043560048701526020866024816001600160a01b037f0000000000000000000000000000000000000000000000000000000000000000165afa958615610ba5575f96610bb0575b506001600160a01b037f0000000000000000000000000000000000000000000000000000000000000000163b156103aa576040517f8045303d000000000000000000000000000000000000000000000000000000008152600435600482015260ff6024351660248201525f81604481836001600160a01b037f0000000000000000000000000000000000000000000000000000000000000000165af18015610ba557610b92575b506001600160a01b0360015416801561033c57803b15610b8e578380916024604051809481937f6b3be69600000000000000000000000000000000000000000000000000000000835260043560048401525af18015610b8357908491610b6f575b50505f9360243515610a48575b50505060405191610a3457506001600160a01b03602093602435835267ffffffffffffffff42168584015283604084015216907f57e8af24ea049e59bf81880335bac75ff31076cca72279241b5fec169c75db27606060043592a3604051908152f35b80634e487b7160e01b602492526021600452fd5b9092945060209193506060810151610aeb67ffffffffffffffff60e063ffffffff60a08601511694015116945f9660405196879586957f2f1ec91c0000000000000000000000000000000000000000000000000000000087526001600160a01b038d16600488015260248701526044860152606485015267ffffffffffffffff4216608485015260ff6024351660a485015260e060c485015260e4840191611491565b0381866001600160a01b037f0000000000000000000000000000000000000000000000000000000000000000165af1908115610b64578391610b32575b50915f80806109d1565b90506020813d602011610b5c575b81610b4d60209383611435565b810103126103aa57515f610b28565b3d9150610b40565b6040513d85823e3d90fd5b610b7890611421565b6104d657825f6109c4565b6040513d86823e3d90fd5b8380fd5b610b9d919350611421565b5f915f610963565b6040513d5f823e3d90fd5b9095506020813d602011610be4575b81610bcc60209383611435565b810103126103aa57610bdd9061147d565b945f6108bc565b3d9150610bbf565b606460405163d647364f60e01b815260206004820152601760248201527f506f736974696f6e20616c726561647920636c6f7365640000000000000000006044820152fd5b606460405163d647364f60e01b815260206004820152601460248201527f4e6f74206120706f736974696f6e20746f6b656e0000000000000000000000006044820152fd5b634e487b7160e01b5f52602160045260245ffd5b908092945081813d8311610d96575b610ca38183611435565b810103126103aa5760405191820182811067ffffffffffffffff821117610d8257604052805160058110156103aa57825260208101516020830152604081015160408301526060810151606083015260808101516080830152610d0860a08201611457565b60a0830152610d1960c08201611457565b60c0830152610d2a60e08201611468565b60e0830152610100610d3d818301611468565b90830152610120610d4f818301611468565b90830152610140808201519060ff821682036103aa57830152610d7661016080920161147d565b90820152915f80610825565b634e487b7160e01b5f52604160045260245ffd5b503d610c99565b346103aa575f3660031901126103aa5760206040517f00000000000000000000000000000000000000000000000000000000000000008152f35b346103aa5760203660031901126103aa576004356001600160a01b03808216918281036103aa575f549182163303610e89573b15610e5857817f2f658b440c35314f52658ea8a740e05b284cdc84dc9ae01e891f21b8933e7cad9273ffffffffffffffffffffffffffffffffffffffff1960209316175f55604051908152a1005b602482604051907fc2f31e5e0000000000000000000000000000000000000000000000000000000082526004820152fd5b602460405162d1953b60e31b8152336004820152fd5b346103aa5760203660031901126103aa576004355f526002602052606060405f2060ff6001825492015460405192835263ffffffff8116602084015260201c1615156040820152f35b346103aa575f3660031901126103aa576020600454604051908152f35b346103aa5760403660031901126103aa5767ffffffffffffffff6024358181116103aa57610f3790369060040161139f565b6004355f52600260205260405f2060405190610f5282611405565b60ff6040600183549384865201549363ffffffff85166020820152019260201c1615158252156104065751156103c057600454915f19938484146111ce57600184016004556040519160a0830183811083821117610d825760405233835260208301936004358552828111610d825760405191610fd9601f8301601f191660200184611435565b81835236828201116103aa57815f92602092838601378301015260408301908152600160608401525f6080840152845f52600360205260405f20936001600160a01b0384511673ffffffffffffffffffffffffffffffffffffffff1986541617855551600185015551948551918211610d825761105960028501546113cd565b95601f8711611186575b602096508690601f841160011461111657926004949281926080955f9361110b575b50508260011b9260031b1c19161760028501555b6003840160ff60608301511660ff1982541617905501519101556040517f0000000000000000000000000000000000000000000000000000000000000000815260043590827f560b49847a5e25da1625ab6b291ee6880786bbd1d6ac0225449ffdd8c056e476853393a4604051908152f35b015191508980611085565b9190601f19841692600287015f52885f20935f5b81811061116f5750928592600497959260809760019610611157575b50505050811b016002850155611099565b01519060f88460031b161c1916905588808080611146565b92948a60018192888601518155019601930161112a565b600285015f5260205f20601f840160051c810197602085106111c4575b601f0160051c01965b8781106111b95750611063565b5f81556001016111ac565b90975087906111a3565b634e487b7160e01b5f52601160045260245ffd5b346103aa575f3660031901126103aa5760206040516001600160a01b037f0000000000000000000000000000000000000000000000000000000000000000168152f35b346103aa5760603660031901126103aa576004356024359063ffffffff8083168093036103aa57604435908115158092036103aa5761126436336114b1565b821561135a5783156113155760405161127c81611405565b838152602081019185835260016040830192858452865f52600260205260405f20905181550192511664ff0000000083549251151560201b169164ffffffffff19161717905560405192835260208301527f0205e7c9870a431e33251bbd6e0c2b7e939bb024031805d715a52da6047e2f0d60407f000000000000000000000000000000000000000000000000000000000000000093a3005b606460405163d647364f60e01b815260206004820152601560248201527f506f696e74732063616e6e6f74206265207a65726f00000000000000000000006044820152fd5b606460405163d647364f60e01b815260206004820152601260248201527f4d697373696e6720726f6c6554797065496400000000000000000000000000006044820152fd5b9181601f840112156103aa5782359167ffffffffffffffff83116103aa57602083818601950101116103aa57565b90600182811c921680156113fb575b60208310146113e757565b634e487b7160e01b5f52602260045260245ffd5b91607f16916113dc565b6060810190811067ffffffffffffffff821117610d8257604052565b67ffffffffffffffff8111610d8257604052565b90601f8019910116810190811067ffffffffffffffff821117610d8257604052565b519063ffffffff821682036103aa57565b519067ffffffffffffffff821682036103aa57565b51906001600160a01b03821682036103aa57565b908060209392818452848401375f828201840152601f01601f1916010190565b5f915f54916001600160a01b039081841692806004116103aa575f8060409485519060208201957fb700961300000000000000000000000000000000000000000000000000000000875216948560248301523060448301527fffffffff000000000000000000000000000000000000000000000000000000005f351660648301526064825260a082019082821067ffffffffffffffff831117610d825787925f928452828052826020525190895afa611672575b15611574575b50505050505050565b63ffffffff161561165c57740100000000000000000000000000000000000000007fffffffffffffffffffffff00ffffffffffffffffffffffffffffffffffffffff809616175f55833b156103aa576064935f928385519687809581947f94c7d7ee00000000000000000000000000000000000000000000000000000000835260048301528860248301528060448301528084848401378181018301849052601f01601f191681010301925af19081156116535750611640575b5081541690555f80808080808061156b565b61164b919250611421565b5f905f61162e565b513d5f823e3d90fd5b50602491519062d1953b60e31b82526004820152fd5b50505f516020518060201c15029061156556fea26469706673582212201f5a0ca79c0a0e0fc6854543ffec08e48eea33a47389cdac4ac21b955ba22fca64736f6c63430008180033","linkReferences":{}},"methodIdentifiers":{"applications(uint256)":"dfefadff","applyForPosition(bytes32,bytes)":"220183c4","approveApplication(uint256,bytes)":"e7ad0d2b","authority()":"bf7e214f","closePosition(uint256,uint8,bytes)":"8e9c9bd6","communityId()":"7f50861a","definePositionType(bytes32,uint32,bool)":"06711c77","isConsumingScheduledOp()":"8fb36037","nextAppId()":"38226c2a","positionTypes(bytes32)":"61bd1837","revenueRouter()":"e8855812","setAuthority(address)":"7a9e5e4b","setRevenueRouter(address)":"b3b917d9","valuableActionRegistry()":"10127811","valuableActionSBT()":"e8901184"},"id":21}