{"abi":[{"type":"constructor","inputs":[{"name":"_communityId","type":"uint256","internalType":"uint256"}],"stateMutability":"nonpayable"},{"type":"function","name":"communityId","inputs":[],"outputs":[{"name":"","type":"uint256","internalType":"uint256"}],"stateMutability":"view"},{"type":"function","name":"create","inputs":[{"name":"cid","type":"string","internalType":"string"},{"name":"token1155","type":"address","internalType":"address"}],"outputs":[{"name":"id","type":"uint256","internalType":"uint256"}],"stateMutability":"nonpayable"},{"type":"function","name":"lastId","inputs":[],"outputs":[{"name":"","type":"uint256","internalType":"uint256"}],"stateMutability":"view"},{"type":"function","name":"projects","inputs":[{"name":"","type":"uint256","internalType":"uint256"}],"outputs":[{"name":"creator","type":"address","internalType":"address"},{"name":"cid","type":"string","internalType":"string"},{"name":"token1155","type":"address","internalType":"address"},{"name":"active","type":"bool","internalType":"bool"},{"name":"communityId","type":"uint256","internalType":"uint256"}],"stateMutability":"view"},{"type":"event","name":"ProjectCreated","inputs":[{"name":"id","type":"uint256","indexed":true,"internalType":"uint256"},{"name":"creator","type":"address","indexed":true,"internalType":"address"},{"name":"cid","type":"string","indexed":false,"internalType":"string"},{"name":"token1155","type":"address","indexed":false,"internalType":"address"},{"name":"communityId","type":"uint256","indexed":false,"internalType":"uint256"}],"anonymous":false}],"bytecode":{"object":"0x60a0346100a757601f6106db38819003918201601f19168301916001600160401b038311848410176100ab578084926020946040528339810103126100a75751801561006e5760805260405161061b90816100c08239608051818181610153015281816102b901526104200152f35b60405162461bcd60e51b8152602060048201526011602482015270696e76616c696420636f6d6d756e69747960781b6044820152606490fd5b5f80fd5b634e487b7160e01b5f52604160045260245ffdfe6080806040526004361015610012575f80fd5b5f3560e01c908163107046bd14610443575080637f50861a1461040957806384b47b0f146100685763c1292cc314610048575f80fd5b34610064575f3660031901126100645760205f54604051908152f35b5f80fd5b346100645760403660031901126100645760043567ffffffffffffffff811161006457366023820112156100645767ffffffffffffffff81600401351161006457366024826004013583010111610064576024356001600160a01b0381168103610064575f54905f1982146103f557600182015f556040519260a0840184811067ffffffffffffffff8211176103e1576040523384526040516101196020601f19601f8560040135011601826105c3565b60048201358082526024830160208301375f602083600401358301015260208501526001600160a01b0382166040850152600160608501527f00000000000000000000000000000000000000000000000000000000000000006080850152600183015f52600160205260405f206001600160a01b038551167fffffffffffffffffffffffff0000000000000000000000000000000000000000825416178155602085015194855167ffffffffffffffff81116103e1576101dc600184015461058b565b96601f881161039d575b602097508790601f831160011461032f579180600394926080945f92610324575b50505f1982861b1c1916600191821b17908501555b600284016001600160a01b036040830151168154907fffffffffffffffffffffff00000000000000000000000000000000000000000074ff00000000000000000000000000000000000000006060860151151560a01b1692161717905501519101556001600160a01b0360405192606084528260040135606085015282600401356024840160808601375f608084600401358601015216848301527f000000000000000000000000000000000000000000000000000000000000000060408301527ff23dc1a893fba10fe2e2ec006f6b9698dcf2af2b8cacf8a5f626c254a17b3e9c33926080816001870194601f8019916004013501168101030190a3600160405191018152f35b015190508a80610207565b90600185015f52885f20915f5b601f19851681106103865750926003949260019260809583601f1981161061036f575b505050811b01600185015561021c565b01515f1983881b60f8161c191690558a808061035f565b91928a60018192868501518155019401920161033c565b600184015f5260205f20601f830160051c8101602084106103da575b601f8a0160051c820181106103cf5750506101e6565b5f81556001016103b9565b50806103b9565b634e487b7160e01b5f52604160045260245ffd5b634e487b7160e01b5f52601160045260245ffd5b34610064575f3660031901126100645760206040517f00000000000000000000000000000000000000000000000000000000000000008152f35b346100645760209081600319360112610064576004355f526001916001815260405f206001600160a01b0380825416948460018401915f908354936104878561058b565b94858552886001821691825f1461056957505060011461052d575b50506104b59250969493929603856105c3565b6003600282015491015490604051958694855260a0848601528551938460a08701525f5b85811061051657505060c095509060ff915f8786880101528116604086015260a01c16151560608401526080830152601f80199101168101030190f35b80880182015189820160c0015288965081016104d9565b8792505f52815f20905f915b8583106105515750506104b5935082010188806104a2565b8054838b018501528994508893909201918101610539565b92509350506104b594915060ff191682840152151560051b82010188806104a2565b90600182811c921680156105b9575b60208310146105a557565b634e487b7160e01b5f52602260045260245ffd5b91607f169161059a565b90601f8019910116810190811067ffffffffffffffff8211176103e15760405256fea264697066735822122028d73e56e6d32a80bc4c147dc305b745d94ff2a439322d3e21feeed54532c19b64736f6c63430008180033","linkReferences":{}},"methodIdentifiers":{"communityId()":"7f50861a","create(string,address)":"84b47b0f","lastId()":"c1292cc3","projects(uint256)":"107046bd"},"id":23}