{"abi":[{"type":"constructor","inputs":[{"name":"_communityRegistry","type":"address","internalType":"address"},{"name":"_valuableActionRegistry","type":"address","internalType":"address"}],"stateMutability":"nonpayable"},{"type":"function","name":"addBounty","inputs":[{"name":"requestId","type":"uint256","internalType":"uint256"},{"name":"token","type":"address","internalType":"address"},{"name":"amount","type":"uint256","internalType":"uint256"}],"outputs":[],"stateMutability":"nonpayable"},{"type":"function","name":"approvedWinner","inputs":[{"name":"","type":"uint256","internalType":"uint256"}],"outputs":[{"name":"","type":"address","internalType":"address"}],"stateMutability":"view"},{"type":"function","name":"comments","inputs":[{"name":"","type":"uint256","internalType":"uint256"}],"outputs":[{"name":"requestId","type":"uint256","internalType":"uint256"},{"name":"author","type":"address","internalType":"address"},{"name":"cid","type":"string","internalType":"string"},{"name":"parentCommentId","type":"uint256","internalType":"uint256"},{"name":"createdAt","type":"uint64","internalType":"uint64"},{"name":"isModerated","type":"bool","internalType":"bool"}],"stateMutability":"view"},{"type":"function","name":"communityRegistry","inputs":[],"outputs":[{"name":"","type":"address","internalType":"contract CommunityRegistry"}],"stateMutability":"view"},{"type":"function","name":"communityRequests","inputs":[{"name":"","type":"uint256","internalType":"uint256"},{"name":"","type":"uint256","internalType":"uint256"}],"outputs":[{"name":"","type":"uint256","internalType":"uint256"}],"stateMutability":"view"},{"type":"function","name":"completeEngagement","inputs":[{"name":"requestId","type":"uint256","internalType":"uint256"},{"name":"metadata","type":"bytes","internalType":"bytes"}],"outputs":[{"name":"engagementTokenId","type":"uint256","internalType":"uint256"}],"stateMutability":"nonpayable"},{"type":"function","name":"createRequest","inputs":[{"name":"communityId","type":"uint256","internalType":"uint256"},{"name":"title","type":"string","internalType":"string"},{"name":"cid","type":"string","internalType":"string"},{"name":"tags","type":"string[]","internalType":"string[]"}],"outputs":[{"name":"requestId","type":"uint256","internalType":"uint256"}],"stateMutability":"nonpayable"},{"type":"function","name":"getComment","inputs":[{"name":"commentId","type":"uint256","internalType":"uint256"}],"outputs":[{"name":"comment","type":"tuple","internalType":"struct RequestHub.Comment","components":[{"name":"requestId","type":"uint256","internalType":"uint256"},{"name":"author","type":"address","internalType":"address"},{"name":"cid","type":"string","internalType":"string"},{"name":"parentCommentId","type":"uint256","internalType":"uint256"},{"name":"createdAt","type":"uint64","internalType":"uint64"},{"name":"isModerated","type":"bool","internalType":"bool"}]}],"stateMutability":"view"},{"type":"function","name":"getCommunityRequests","inputs":[{"name":"communityId","type":"uint256","internalType":"uint256"}],"outputs":[{"name":"","type":"uint256[]","internalType":"uint256[]"}],"stateMutability":"view"},{"type":"function","name":"getRequest","inputs":[{"name":"requestId","type":"uint256","internalType":"uint256"}],"outputs":[{"name":"request","type":"tuple","internalType":"struct RequestHub.Request","components":[{"name":"communityId","type":"uint256","internalType":"uint256"},{"name":"author","type":"address","internalType":"address"},{"name":"title","type":"string","internalType":"string"},{"name":"cid","type":"string","internalType":"string"},{"name":"status","type":"uint8","internalType":"enum RequestHub.Status"},{"name":"createdAt","type":"uint64","internalType":"uint64"},{"name":"lastActivity","type":"uint64","internalType":"uint64"},{"name":"tags","type":"string[]","internalType":"string[]"},{"name":"commentCount","type":"uint256","internalType":"uint256"},{"name":"bountyToken","type":"address","internalType":"address"},{"name":"bountyAmount","type":"uint256","internalType":"uint256"},{"name":"linkedValuableAction","type":"uint256","internalType":"uint256"},{"name":"consumed","type":"bool","internalType":"bool"},{"name":"winner","type":"address","internalType":"address"}]}],"stateMutability":"view"},{"type":"function","name":"getRequestComments","inputs":[{"name":"requestId","type":"uint256","internalType":"uint256"}],"outputs":[{"name":"","type":"uint256[]","internalType":"uint256[]"}],"stateMutability":"view"},{"type":"function","name":"getRequestsByTag","inputs":[{"name":"communityId","type":"uint256","internalType":"uint256"},{"name":"tag","type":"string","internalType":"string"}],"outputs":[{"name":"requestIds","type":"uint256[]","internalType":"uint256[]"}],"stateMutability":"view"},{"type":"function","name":"linkValuableAction","inputs":[{"name":"requestId","type":"uint256","internalType":"uint256"},{"name":"valuableActionId","type":"uint256","internalType":"uint256"}],"outputs":[],"stateMutability":"nonpayable"},{"type":"function","name":"moderateComment","inputs":[{"name":"commentId","type":"uint256","internalType":"uint256"},{"name":"hide","type":"bool","internalType":"bool"}],"outputs":[],"stateMutability":"nonpayable"},{"type":"function","name":"nextCommentId","inputs":[],"outputs":[{"name":"","type":"uint256","internalType":"uint256"}],"stateMutability":"view"},{"type":"function","name":"nextRequestId","inputs":[],"outputs":[{"name":"","type":"uint256","internalType":"uint256"}],"stateMutability":"view"},{"type":"function","name":"postComment","inputs":[{"name":"requestId","type":"uint256","internalType":"uint256"},{"name":"parentCommentId","type":"uint256","internalType":"uint256"},{"name":"cid","type":"string","internalType":"string"}],"outputs":[{"name":"commentId","type":"uint256","internalType":"uint256"}],"stateMutability":"nonpayable"},{"type":"function","name":"requestComments","inputs":[{"name":"","type":"uint256","internalType":"uint256"},{"name":"","type":"uint256","internalType":"uint256"}],"outputs":[{"name":"","type":"uint256","internalType":"uint256"}],"stateMutability":"view"},{"type":"function","name":"requests","inputs":[{"name":"","type":"uint256","internalType":"uint256"}],"outputs":[{"name":"communityId","type":"uint256","internalType":"uint256"},{"name":"author","type":"address","internalType":"address"},{"name":"title","type":"string","internalType":"string"},{"name":"cid","type":"string","internalType":"string"},{"name":"status","type":"uint8","internalType":"enum RequestHub.Status"},{"name":"createdAt","type":"uint64","internalType":"uint64"},{"name":"lastActivity","type":"uint64","internalType":"uint64"},{"name":"commentCount","type":"uint256","internalType":"uint256"},{"name":"bountyToken","type":"address","internalType":"address"},{"name":"bountyAmount","type":"uint256","internalType":"uint256"},{"name":"linkedValuableAction","type":"uint256","internalType":"uint256"},{"name":"consumed","type":"bool","internalType":"bool"},{"name":"winner","type":"address","internalType":"address"}],"stateMutability":"view"},{"type":"function","name":"setApprovedWinner","inputs":[{"name":"requestId","type":"uint256","internalType":"uint256"},{"name":"winner","type":"address","internalType":"address"}],"outputs":[],"stateMutability":"nonpayable"},{"type":"function","name":"setRequestStatus","inputs":[{"name":"requestId","type":"uint256","internalType":"uint256"},{"name":"newStatus","type":"uint8","internalType":"enum RequestHub.Status"}],"outputs":[],"stateMutability":"nonpayable"},{"type":"function","name":"userLastPostTime","inputs":[{"name":"","type":"uint256","internalType":"uint256"},{"name":"","type":"address","internalType":"address"}],"outputs":[{"name":"","type":"uint256","internalType":"uint256"}],"stateMutability":"view"},{"type":"function","name":"userRequestCount","inputs":[{"name":"","type":"uint256","internalType":"uint256"},{"name":"","type":"address","internalType":"address"}],"outputs":[{"name":"","type":"uint256","internalType":"uint256"}],"stateMutability":"view"},{"type":"function","name":"valuableActionRegistry","inputs":[],"outputs":[{"name":"","type":"address","internalType":"contract IValuableActionRegistry"}],"stateMutability":"view"},{"type":"event","name":"ApprovedWinnerSet","inputs":[{"name":"requestId","type":"uint256","indexed":true,"internalType":"uint256"},{"name":"winner","type":"address","indexed":true,"internalType":"address"},{"name":"setter","type":"address","indexed":true,"internalType":"address"}],"anonymous":false},{"type":"event","name":"BountyAdded","inputs":[{"name":"requestId","type":"uint256","indexed":true,"internalType":"uint256"},{"name":"communityId","type":"uint256","indexed":true,"internalType":"uint256"},{"name":"token","type":"address","indexed":true,"internalType":"address"},{"name":"amount","type":"uint256","indexed":false,"internalType":"uint256"},{"name":"funder","type":"address","indexed":false,"internalType":"address"}],"anonymous":false},{"type":"event","name":"BountyReady","inputs":[{"name":"requestId","type":"uint256","indexed":true,"internalType":"uint256"},{"name":"communityId","type":"uint256","indexed":true,"internalType":"uint256"},{"name":"winner","type":"address","indexed":true,"internalType":"address"},{"name":"token","type":"address","indexed":false,"internalType":"address"},{"name":"amount","type":"uint256","indexed":false,"internalType":"uint256"}],"anonymous":false},{"type":"event","name":"CommentModerated","inputs":[{"name":"requestId","type":"uint256","indexed":true,"internalType":"uint256"},{"name":"commentId","type":"uint256","indexed":true,"internalType":"uint256"},{"name":"moderator","type":"address","indexed":true,"internalType":"address"},{"name":"hidden","type":"bool","indexed":false,"internalType":"bool"}],"anonymous":false},{"type":"event","name":"CommentPosted","inputs":[{"name":"requestId","type":"uint256","indexed":true,"internalType":"uint256"},{"name":"commentId","type":"uint256","indexed":true,"internalType":"uint256"},{"name":"author","type":"address","indexed":true,"internalType":"address"},{"name":"cid","type":"string","indexed":false,"internalType":"string"},{"name":"parentCommentId","type":"uint256","indexed":false,"internalType":"uint256"}],"anonymous":false},{"type":"event","name":"OneShotEngagementCompleted","inputs":[{"name":"requestId","type":"uint256","indexed":true,"internalType":"uint256"},{"name":"winner","type":"address","indexed":true,"internalType":"address"},{"name":"bountyToken","type":"address","indexed":false,"internalType":"address"},{"name":"bountyAmount","type":"uint256","indexed":false,"internalType":"uint256"},{"name":"engagementTokenId","type":"uint256","indexed":false,"internalType":"uint256"}],"anonymous":false},{"type":"event","name":"RequestCreated","inputs":[{"name":"requestId","type":"uint256","indexed":true,"internalType":"uint256"},{"name":"communityId","type":"uint256","indexed":true,"internalType":"uint256"},{"name":"author","type":"address","indexed":true,"internalType":"address"},{"name":"title","type":"string","indexed":false,"internalType":"string"},{"name":"cid","type":"string","indexed":false,"internalType":"string"},{"name":"tags","type":"string[]","indexed":false,"internalType":"string[]"}],"anonymous":false},{"type":"event","name":"RequestStatusChanged","inputs":[{"name":"requestId","type":"uint256","indexed":true,"internalType":"uint256"},{"name":"newStatus","type":"uint8","indexed":true,"internalType":"enum RequestHub.Status"},{"name":"moderator","type":"address","indexed":true,"internalType":"address"}],"anonymous":false},{"type":"event","name":"ValuableActionLinking","inputs":[{"name":"requestId","type":"uint256","indexed":true,"internalType":"uint256"},{"name":"valuableActionId","type":"uint256","indexed":true,"internalType":"uint256"},{"name":"linker","type":"address","indexed":true,"internalType":"address"}],"anonymous":false},{"type":"error","name":"InvalidInput","inputs":[{"name":"reason","type":"string","internalType":"string"}]},{"type":"error","name":"InvalidValuableAction","inputs":[{"name":"valuableActionId","type":"uint256","internalType":"uint256"}]},{"type":"error","name":"NotAuthorized","inputs":[{"name":"caller","type":"address","internalType":"address"}]},{"type":"error","name":"ReentrancyGuardReentrantCall","inputs":[]},{"type":"error","name":"SafeERC20FailedOperation","inputs":[{"name":"token","type":"address","internalType":"address"}]},{"type":"error","name":"ZeroAddress","inputs":[]}],"bytecode":{"object":"0x60c0346200010e57601f620033f538819003918201601f19168301916001600160401b03831184841017620001125780849260409485528339810103126200010e576200005a6020620000528362000126565b920162000126565b60017f9b779b17422d0df92223018b32b4d1fa46e071723d6817e2486d003becc55f008190555f81905580556001600160a01b0391821691908215620000fc5716908115620000fc5760805260a0526040516132b990816200013c82396080518181816109bf0152818161165c0152818161260f01528181612ddd01526130c3015260a051818181611bb301528181611c2401528181611d1e01526123530152f35b60405163d92e233d60e01b8152600490fd5b5f80fd5b634e487b7160e01b5f52604160045260245ffd5b51906001600160a01b03821682036200010e5756fe6080806040526004361015610012575f80fd5b5f3560e01c9081626ee86f14612582575080630473de27146124d55780630800e300146123775780631012781114612334578063113a80d3146122ef57806317392d17146122bc5780631aaafcec14611ab35780633c77e8bf1461192a5780634dc71cde146115c95780636a84a985146115ad5780636c3f69e01461154557806377d4b800146115005780637d583055146114d157806381d12c58146113b35780638ebb4c151461131c578063956b2a22146111a55780639876e5f414610a5b5780639aa75dd5146109e3578063a200ac86146109a0578063c58343ef1461067c578063ca83a826146105e6578063d0bdacbe146105c9578063ec83b4ac1461058c5763ed0c9c9214610123575f80fd5b346105885760603660031901126105885760443567ffffffffffffffff81116105885761015490369060040161281b565b6004355f52600260205260405f20906001600160a01b03600183015416156105425760ff60048301541661018781612a05565b6001811490811561052e575b506104e9576101a482543390613152565b80156104a357602435610420575b600154916101bf83612b35565b600155825f52600360205260405f206004358155600181013373ffffffffffffffffffffffffffffffffffffffff1982541617905567ffffffffffffffff831161040c576020948392826102176002889501546128e1565b601f81116103d0575b505f601f861160011461035c57906102558661031796976102df945f91610351575b508160011b915f199060031b1c19161790565b60028201555b6024356003820155600467ffffffffffffffff421691018167ffffffffffffffff198254161790556004355f52600589526102998660405f20612d98565b60048301907fffffffffffffffffffffffffffffff0000000000000000ffffffffffffffffff70ffffffffffffffff00000000000000000083549260481b169116179055565b600681016102ed8154612b35565b9055545f526007865260405f20335f5286524260405f205560405193604085526040850191612acf565b602435858401527f28511bc6c6cfc5218ae0e05cbff64ff36914a1092f843abd6a0e81e110ff6aac339380600435930390a4604051908152f35b90508601355f610242565b9450600281015f52875f205f5b601f19881681106103b65750906102df91610317959688601f1981161061039d575b5050600187811b01600282015561025b565b8501355f1960038a901b60f8161c191690555f8061038b565b848701358255958901958895506001909101908901610369565b6103fc90600283015f52895f20601f880160051c8101918b8910610402575b601f0160051c0190612d82565b5f610220565b90915081906103ef565b634e487b7160e01b5f52604160045260245ffd5b6024355f52600360205260043560405f205403156101b257608460405163d647364f60e01b815260206004820152602260248201527f506172656e7420636f6d6d656e74206e6f7420696e207468697320726571756560448201527f73740000000000000000000000000000000000000000000000000000000000006064820152fd5b60405163d647364f60e01b815260206004820152601b60248201527f436f6e74656e74204349442063616e6e6f7420626520656d70747900000000006044820152606490fd5b606460405163d647364f60e01b815260206004820152602060248201527f52657175657374206973206e6f74206f70656e20666f7220636f6d6d656e74736044820152fd5b6002915061053b81612a05565b145f610193565b60405163d647364f60e01b815260206004820152601660248201527f5265717565737420646f6573206e6f74206578697374000000000000000000006044820152606490fd5b5f80fd5b346105885761059a366127a9565b905f52600460205260405f208054821015610588576020916105bb916128b8565b90546040519160031b1c8152f35b34610588575f366003190112610588576020600154604051908152f35b3461058857604036600319011261058857600435602435600381101561058857815f52600260205260405f206001600160a01b03600182015416156105425780610634600492543390612dd1565b0161063e82612a05565b60ff1981541660ff831617905561065481612a05565b33917fed84828474f78e11e93760516d539ef1d87fe86a008202248ecff70fbb87fd205f80a4005b34610588576020366003190112610588575f6101a060405161069d816129c6565b828152826020820152606060408201526060808201528260808201528260a08201528260c0820152606060e0820152826101008201528261012082015282610140820152826101608201528261018082015201526004355f52600260205260405f206040519061070c826129c6565b805482526001600160a01b03600182015416602083015260405161073e816107378160028601612919565b03826129e3565b6040830152604051610757816107378160038601612919565b606083015267ffffffffffffffff600482015460ff811661077781612a05565b6080850152818160081c1660a085015260481c1660c083015260058101805461079f81612aa2565b916107ad60405193846129e3565b81835260208301905f5260205f205f915b83831061097b57866001600160a01b03600a888860e085015260068101546101008501528260078201541661012085015260088101546101408501526009810154610160850152015460ff8116151561018084015260081c166101a08201526001600160a01b03602082015116156105425760405160208152815160208201526001600160a01b03602083015116604082015261088561086f60408401516101c060608501526101e08401906127e0565b6060840151838203601f190160808501526127e0565b608083015161089381612a05565b60a083015267ffffffffffffffff60a08401511660c083015267ffffffffffffffff60c08401511660e083015260e083015190601f1983820301610100840152815180825260208201916020808360051b8301019401925f915b83831061094e578680876001600160a01b036101a08c61010081015161012086015282610120820151166101408601526101408101516101608601526101608101516101808601526101808101511515828601520151166101c08301520390f35b909192939460208061096c600193601f1986820301875289516127e0565b970193019301919392906108ed565b600160208192604051610992816107378189612919565b8152019201920191906107be565b34610588575f3660031901126105885760206040516001600160a01b037f0000000000000000000000000000000000000000000000000000000000000000168152f35b3461058857602080600319360112610588576004355f52600460205260405f20906040519081602084549182815201935f5260205f20915f905b828210610a4457610a4085610a34818903826129e3565b6040519182918261287d565b0390f35b835486529485019460019384019390910190610a1d565b346105885760803660031901126105885760243567ffffffffffffffff811161058857610a8c90369060040161281b565b9060443567ffffffffffffffff811161058857610aad90369060040161281b565b67ffffffffffffffff60643511610588573660236064350112156105885767ffffffffffffffff6064356004013511610588573660246064356004013560051b60643501011161058857610b026004356130a1565b610b0e33600435613152565b83156111605780156104a3575f5492610b2684612b35565b5f55835f52600260205260405f206004358155600181013373ffffffffffffffffffffffffffffffffffffffff1982541617905567ffffffffffffffff861161040c57610b7660028201546128e1565b601f811161112d575b505f86601f81116001146110c45780610bab925f916110b957508160011b915f199060031b1c19161790565b60028201555b67ffffffffffffffff831161040c57610bcd60038201546128e1565b601f8111611086575b505f83601f811160011461101d5780610c02925f9161101257508160011b915f199060031b1c19161790565b60038201555b6004810180547fffffffffffffffffffffffffffffff00000000000000000000000000000000001642600881901b68ffffffffffffffff00169190911760489190911b70ffffffffffffffff0000000000000000001617905568010000000000000000606435600401351161040c576005810180546004606435013591829055908111610f98575b506005015f90815260208120906064356024015b606435600401358210610e035750505090610d24610d3293926004355f526004602052610cd48660405f20612d98565b6004355f52600660205260405f20335f5260205260405f20610cf68154612b35565b90556004355f52600760205260405f20335f526020524260405f205560405196606088526060880191612acf565b918583036020870152612acf565b828103604084015260643560048101358083526020808401959360059290921b82010191602401905f5b606435600401358110610d9f5760208633600435827f8640514b9ed59fbcf0717a5d5e67138789295ba04a59f1005628b7f3c28e3d9f8a8a038ba4604051908152f35b909192601f1983820301875283356042196064353603018112156105885760643501906044602483013592019167ffffffffffffffff811161058857803603831361058857610df46020928392600195612acf565b95019701910195919095610d5c565b80356064353603604219018112156105885767ffffffffffffffff602482606435010135116105885760643581016024810135360360449091011361058857610e4c84546128e1565b601f8111610f5f575b505f90601f60248260643501013511600114610ec557600192610ea384936020935f91602482606435010135610eb2575b50602490606435010135908160011b915f199060031b1c19161790565b86555b01930191019091610ca4565b6064358201016044013591506024610e86565b90845f5260205f20905f5b606435840160240135601f19168110610f405750600193849360209391928592602492916064358301840135601f19811610610f19575b5050606435010135811b018655610ea6565b60445f1960f8868660643501013560031b161c199184606435010101351690558e80610f07565b9091602060018192604486886064350101013581550193019101610ed0565b5f858152602090819020610f9292606435850160240135601f810160051c8301931161040257601f0160051c0190612d82565b89610e55565b600582015f5260205f20906064356004013582015b8183018110610fbd575050610c90565b80610fca600192546128e1565b80610fd7575b5001610fad565b601f81118314610fec57505f81555b8a610fd0565b5f90828252611009601f60208420920160051c8201858301612d82565b81835555610fe6565b905086013589610242565b50600382015f5260205f20905f5b601f198616811061106e575084601f19811610611055575b5050600183811b016003820155610c08565b8501355f19600386901b60f8161c191690558680611043565b9091602060018192858a01358155019301910161102b565b6110b390600383015f5260205f20601f860160051c8101916020871061040257601f0160051c0190612d82565b86610bd6565b905084013589610242565b50600282015f5260205f20905f5b601f1989168110611115575087601f198116106110fc575b5050600186811b016002820155610bb1565b8301355f19600389901b60f8161c1916905586806110ea565b909160206001819285880135815501930191016110d2565b61115a90600283015f5260205f20601f890160051c81019160208a1061040257601f0160051c0190612d82565b86610b7f565b606460405163d647364f60e01b815260206004820152601560248201527f5469746c652063616e6e6f7420626520656d70747900000000000000000000006044820152fd5b34610588576040366003190112610588576004356111c1612805565b815f52600260205260405f206001600160a01b039182600183015416156105425782906111f083543390612dd1565b169182156112f257835f52600860205260405f2054166112ac57600a015460ff1661126657815f52600860205260405f208173ffffffffffffffffffffffffffffffffffffffff1982541617905533917fe616175a572fb3c2bb47e9f230963adba80c8b254b1f70eaf8197ca103ea588f5f80a4005b60405163d647364f60e01b815260206004820152601860248201527f5265717565737420616c726561647920636f6e73756d656400000000000000006044820152606490fd5b60405163d647364f60e01b815260206004820152601760248201527f57696e6e657220616c726561647920617070726f7665640000000000000000006044820152606490fd5b60046040517fd92e233d000000000000000000000000000000000000000000000000000000008152fd5b34610588576020366003190112610588576004355f52600360205260405f2080546001600160a01b036001830154169160ff604051611362816107378160028701612919565b61138e60046003850154940154916040519687968752602087015260c0604087015260c08601906127e0565b92606085015267ffffffffffffffff8116608085015260401c16151560a08301520390f35b34610588576020366003190112610588576004355f52600260205260405f208054906001600160a01b039081600182015416916040516113fa816107378160028701612919565b604051926114168461140f8160038501612919565b03856129e3565b60048101549360ff85169467ffffffffffffffff600684015490866007860154169261147d60088701549561146f600a60098a0154990154996040519e8f9e8f906101a0928252602082015281604082015201906127e0565b8c810360608e0152906127e0565b9861148781612a05565b60808b0152818160081c1660a08b015260481c1660c089015260e088015261010087015261012086015261014085015260ff8116151561016085015260081c166101808301520390f35b34610588576114df366127a9565b905f52600560205260405f208054821015610588576020916105bb916128b8565b3461058857604036600319011261058857611519612805565b6004355f5260066020526001600160a01b0360405f2091165f52602052602060405f2054604051908152f35b3461058857602080600319360112610588576004355f52600560205260405f20906040519081602084549182815201935f5260205f20915f905b82821061159657610a4085610a34818903826129e3565b83548652948501946001938401939091019061157f565b34610588575f3660031901126105885760205f54604051908152f35b34610588576060366003190112610588576004356115e5612805565b90604490813590805f526020926002845260405f20906001600160a01b039586600184015416156105425786169485156112f25784156118e757835f52600881528660405f2054166112ac5760ff600a84015416611266578254604051906306e0c07f60e31b825260048201526024905f8183818c7f0000000000000000000000000000000000000000000000000000000000000000165afa80156118dc576101e0915f916118ba575b50019288845116156118775760078501928984541689811515918261186c575b505061182a57600886019485549a8b8a106117e7576116d38a9b9c8b999a9b612d75565b9182611734575b865473ffffffffffffffffffffffffffffffffffffffff19168d1787558888558954604080518b81523360208201528f92918e917f02dd80c249c8802f84c8f278c122fc7ba506ae258312f2199ef8058c13c1ecec9190a4005b909192939495969750511692604051937f23b872dd000000000000000000000000000000000000000000000000000000005f52336004528552525f606481808c5af160015f51148116156117c8575b816040525f6060521561179d57808080808a9796956116da565b877f5274afe70000000000000000000000000000000000000000000000000000000082526004820152fd5b60018115166117de57883b15153d151616611783565b503d5f823e3d90fd5b6064837f426f756e74792063616e6e6f7420646563726561736500000000000000000000866016896040519463d647364f60e01b86526004860152840152820152fd5b7f426f756e747920746f6b656e206d69736d6174636800000000000000000000006064926015856040519463d647364f60e01b86526004860152840152820152fd5b14159050898c6116af565b6064935060167f5472656173757279207661756c74206e6f742073657400000000000000000000926040519463d647364f60e01b86526004860152840152820152fd5b6118d691503d805f833e6118ce81836129e3565b810190612b57565b8a61168f565b6040513d5f823e3d90fd5b7f426f756e747920616d6f756e74206d75737420626520706f73697469766500006064926040519263d647364f60e01b84526004840152601e6024840152820152fd5b346105885761193836612849565b915f5260206004815260405f206040518082848294549384815201905f52845f20925f5b86828210611a9d57505050611973925003826129e3565b61197d8151612aef565b905f905f5b8151811015611a5b576119958183612b21565b515f526002855260405f2060055f91018054915b8281106119bc575b505050600101611982565b6107376119df6119d283859c979c9b969b6128b8565b5060405192838092612919565b8381519101206119ee8b612a41565b6119fb60405191826129e3565b8b815284810190368d880111610588575f868e808a86378301015251902014611a2c576001019792979691966119a9565b505094509480611a3e60019284612b21565b51611a52611a4b86612b35565b9587612b21565b529088806119b1565b5050611a6681612aef565b915f5b828110611a7e5760405180610a40868261287d565b80611a8b60019284612b21565b51611a968287612b21565b5201611a69565b855484526001958601958795509301920161195c565b3461058857611ac136612849565b909160027f9b779b17422d0df92223018b32b4d1fa46e071723d6817e2486d003becc55f0054146122925760027f9b779b17422d0df92223018b32b4d1fa46e071723d6817e2486d003becc55f0055805f52600260205260405f20906001600160a01b036001830154161561054257600982015493841561224d57815f52600860205260405f2054946001600160a01b0386161561220857600a8401549160ff8316611266576001600160a01b03871633036121f1576040517fe9ea801c0000000000000000000000000000000000000000000000000000000081528260048201526020816024816001600160a01b037f0000000000000000000000000000000000000000000000000000000000000000165afa9081156118dc575f916121b7575b5015612186576040517f5cfdb8620000000000000000000000000000000000000000000000000000000081528260048201525f816024816001600160a01b037f0000000000000000000000000000000000000000000000000000000000000000165afa80156118dc575f90611ec0575b6060915001516004811015611eac57611e675760016020937fffffffffffffffffffffff00000000000000000000000000000000000000000074ffffffffffffffffffffffffffffffffffffffff008a60081b1691161717600a860155611d1185549160405197889485947fc254337100000000000000000000000000000000000000000000000000000000865260048601526001600160a01b038b1660248601525f6044860152606485015260a0608485015260a4840191612acf565b03815f6001600160a01b037f0000000000000000000000000000000000000000000000000000000000000000165af19283156118dc575f93611e11575b507f5484933aef1963ce01e45b11157d880787d4e0778c011ef0457b59591a8b605f60606001600160a01b0360209681600760088801549788611dcf575b01541695604051968752888701528660408701521693a360017f9b779b17422d0df92223018b32b4d1fa46e071723d6817e2486d003becc55f0055604051908152f35b8054838383015416906040519182528a8d830152897f931b9b36fdb92aa1c02e7f03b93e86db7244021807d9f0f75813f7f4a9e76ca7604087891694a4611d8c565b9392506020843d602011611e5f575b81611e2d602093836129e3565b8101031261058857925191927f5484933aef1963ce01e45b11157d880787d4e0778c011ef0457b59591a8b605f611d4e565b3d9150611e20565b606460405163d647364f60e01b815260206004820152601560248201527f4e6f742061206f6e652d73686f7420616374696f6e00000000000000000000006044820152fd5b634e487b7160e01b5f52602160045260245ffd5b503d90815f823e611ed182826129e3565b60208183810103126105885780519067ffffffffffffffff821161058857610300928383830182840103126105885760405193848181011067ffffffffffffffff828701111761040c578401604052611f2b838301612a1c565b8452611f3b602084840101612a1c565b6020850152611f4e604084840101612a1c565b6040850152606083830101516004811015610588576060850152608083830101516080850152611f8260a084840101612a1c565b60a085015260c0838301015160058110156105885760c085015260e0838301015160e0850152610100611fb88185850101612a1c565b90850152610120611fcc8185850101612a1c565b90850152610140611fe08185850101612a1c565b90850152610160611ff48185850101612a1c565b908501526101806120088185850101612a1c565b908501526101a061201c8185850101612a1c565b908501526101c06120308185850101612a1c565b908501526101e06120448185850101612a0f565b908501526102006120588185850101612a1c565b90850152610220808484010151908501526102406120798185850101612a2d565b9085015261026080848401015167ffffffffffffffff8111610588576120a6908385019086860101612a5d565b9085015261028080848401015167ffffffffffffffff8111610588576120d3908385019086860101612a5d565b908501526102a080848401015167ffffffffffffffff8111610588578484010191808401601f8401121561058857825161210c81612aa2565b9361211a60405195866129e3565b81855260208086019260051b820101928601831161058857602001905b82821061217657505050840152606092919061216d906102c061215d8483018201612aba565b908501526102e092018201612aba565b90820152611c53565b8151815260209182019101612137565b602482604051907ffa2879040000000000000000000000000000000000000000000000000000000082526004820152fd5b90506020813d6020116121e9575b816121d2602093836129e3565b81010312610588576121e390612a0f565b88611be3565b3d91506121c5565b6024604051634a0bfec160e01b8152336004820152fd5b606460405163d647364f60e01b815260206004820152601360248201527f57696e6e6572206e6f7420617070726f766564000000000000000000000000006044820152fd5b606460405163d647364f60e01b815260206004820152601960248201527f4e6f2076616c7561626c6520616374696f6e206c696e6b6564000000000000006044820152fd5b60046040517f3ee5aeb5000000000000000000000000000000000000000000000000000000008152fd5b34610588576020366003190112610588576004355f52600860205260206001600160a01b0360405f205416604051908152f35b3461058857604036600319011261058857612308612805565b6004355f5260076020526001600160a01b0360405f2091165f52602052602060405f2054604051908152f35b34610588575f3660031901126105885760206040516001600160a01b037f0000000000000000000000000000000000000000000000000000000000000000168152f35b3461058857602080600319360112610588575f60a0604051612398816129aa565b82815282848201526060604082015282606082015282608082015201526004355f526003815260405f20604051906123cf826129aa565b805482526001600160a01b03806001830154169084840191825260405190612405826123fe8160028801612919565b03836129e3565b6040850191825260046003850154946060870195865201549267ffffffffffffffff926080870192848616845260ff60a089019660401c1615158652808351161561248f5761247592604051998a99818b5251908a0152511660408801525160c0606088015260e08701906127e0565b93516080860152511660a084015251151560c08301520390f35b60405163d647364f60e01b815260206004820152601660248201527f436f6d6d656e7420646f6573206e6f74206578697374000000000000000000006044820152606490fd5b34610588576040366003190112610588576004356024359081151580920361058857805f52600360205260405f206001600160a01b036001820154161561248f576004815491825f52600260205261253260405f20543390612dd1565b01805468ff00000000000000008560401b169068ff000000000000000019161790556040519283527f7610748fb4b32b3bf67e03a1270ea7ba36cff542a153f919a77377dcf6fa1b3a60203394a4005b3461058857612590366127a9565b815f5260206002815260405f20906001600160a01b0390816001840154168015612766578495965033036125ed575b50506009015533917f8d5fc0ed86ffd70cb0ea9e86297a06bb7bf437980295fa82a47e1cf7debfc0ab5f80a4005b8254604051633688da7960e01b815260048101919091523360248201529293507f000000000000000000000000000000000000000000000000000000000000000091909116918181604481865afa9081156118dc575f91612731575b50159182612661575b50506121f157819084806125bf565b90915060405163a217fddf60e01b81528281600481855afa80156118dc5783915f91612700575b50604051632474521560e21b815260048101919091523360248201529182908180604481015b03915afa9182156118dc575f926126ca575b5050158480612652565b90809250813d83116126f9575b6126e181836129e3565b81010312610588576126f290612a0f565b84806126c0565b503d6126d7565b82819392503d831161272a575b61271781836129e3565b81010312610588575182906126ae612688565b503d61270d565b90508181813d831161275f575b61274881836129e3565b810103126105885761275990612a0f565b86612649565b503d61273e565b63d647364f60e01b875260206004880152601660248801527f5265717565737420646f6573206e6f74206578697374000000000000000000006044880152606487fd5b6040906003190112610588576004359060243590565b5f5b8381106127d05750505f910152565b81810151838201526020016127c1565b906020916127f9815180928185528580860191016127bf565b601f01601f1916010190565b602435906001600160a01b038216820361058857565b9181601f840112156105885782359167ffffffffffffffff8311610588576020838186019501011161058857565b90604060031983011261058857600435916024359067ffffffffffffffff8211610588576128799160040161281b565b9091565b60209060206040818301928281528551809452019301915f5b8281106128a4575050505090565b835185529381019392810192600101612896565b80548210156128cd575f5260205f2001905f90565b634e487b7160e01b5f52603260045260245ffd5b90600182811c9216801561290f575b60208310146128fb57565b634e487b7160e01b5f52602260045260245ffd5b91607f16916128f0565b80545f9392612927826128e1565b918282526020936001916001811690815f1461298b575060011461294d575b5050505050565b90939495505f92919252835f2092845f945b83861061297757505050500101905f80808080612946565b80548587018301529401938590820161295f565b60ff19168685015250505090151560051b010191505f80808080612946565b60c0810190811067ffffffffffffffff82111761040c57604052565b6101c0810190811067ffffffffffffffff82111761040c57604052565b90601f8019910116810190811067ffffffffffffffff82111761040c57604052565b60031115611eac57565b5190811515820361058857565b519063ffffffff8216820361058857565b51906001600160a01b038216820361058857565b67ffffffffffffffff811161040c57601f01601f191660200190565b81601f82011215610588578051612a7381612a41565b92612a8160405194856129e3565b8184526020828401011161058857612a9f91602080850191016127bf565b90565b67ffffffffffffffff811161040c5760051b60200190565b519067ffffffffffffffff8216820361058857565b908060209392818452848401375f828201840152601f01601f1916010190565b90612af982612aa2565b612b0660405191826129e3565b8281528092612b17601f1991612aa2565b0190602036910137565b80518210156128cd5760209160051b010190565b5f198114612b435760010190565b634e487b7160e01b5f52601160045260245ffd5b906020808383031261058857825167ffffffffffffffff938482116105885701906102a0938483850312610588576040519485018581108282111761040c5760405282518181116105885784612bae918501612a5d565b8552818301518181116105885784612bc7918501612a5d565b8286015260408301518181116105885784612be3918501612a5d565b6040860152612bf460608401612a0f565b606086015260808301516080860152612c0f60a08401612a2d565b60a0860152612c2060c08401612a2d565b60c0860152612c3160e08401612a2d565b60e0860152610100612c44818501612a2d565b90860152610120612c56818501612a2d565b90860152610140612c68818501612a2d565b90860152610160612c7a818501612a2d565b90860152610180612c8c818501612a2d565b908601526101a0612c9e818501612a2d565b908601526101c0612cb0818501612a2d565b908601526101e0612cc2818501612a2d565b90860152610200612cd4818501612a2d565b90860152610220612ce6818501612a2d565b90860152610240612cf8818501612a2d565b908601526102608084015190860152610280928381015191821161058857019280601f85011215610588578351612d2e81612aa2565b94612d3c60405196876129e3565b818652838087019260051b820101928311610588578301905b828210612d66575050505082015290565b81518152908301908301612d55565b91908203918211612b4357565b818110612d8d575050565b5f8155600101612d82565b80546801000000000000000081101561040c57612dba916001820181556128b8565b819291549060031b91821b915f19901b1916179055565b6001600160a01b0391827f000000000000000000000000000000000000000000000000000000000000000016916040918251937f797669c900000000000000000000000000000000000000000000000000000000855260209160049683878981865afa968715613068575f97613072575b508551907f1ca5b571000000000000000000000000000000000000000000000000000000008252858983015282169687602483015260448201528381606481865afa908115613068575f91613033575b50159384612fb5575b5083612ec3575b505050612eae57505050565b602493505191634a0bfec160e01b8352820152fd5b90919250835163a217fddf60e01b815283818881865afa908115612fab57908492915f91612f78575b508551632474521560e21b81528881019182526001600160a01b03909216602082015290928391829081906040015b03915afa918215612f6e575f92612f38575b5050155f8080612ea2565b90809250813d8311612f67575b612f4f81836129e3565b8101031261058857612f6090612a0f565b5f80612f2d565b503d612f45565b83513d5f823e3d90fd5b83819492503d8311612fa4575b612f8f81836129e3565b81010312610588579051839190612f1b612eec565b503d612f85565b85513d5f823e3d90fd5b8551633688da7960e01b81528881019182526001600160a01b03831660208301529194508390829081906040010381855afa908115612fab575f91612ffe575b5015925f612e9b565b90508281813d831161302c575b61301581836129e3565b810103126105885761302690612a0f565b5f612ff5565b503d61300b565b90508381813d8311613061575b61304a81836129e3565b810103126105885761305b90612a0f565b5f612e92565b503d613040565b86513d5f823e3d90fd5b9096508381813d831161309a575b61308a81836129e3565b810103126105885751955f612e42565b503d613080565b604051906306e0c07f60e31b825260048201525f816024816001600160a01b037f0000000000000000000000000000000000000000000000000000000000000000165afa9081613138575b5061313657606460405163d647364f60e01b815260206004820152601860248201527f436f6d6d756e69747920646f6573206e6f7420657869737400000000000000006044820152fd5b565b61314b903d805f833e6118ce81836129e3565b505f6130ec565b90815f52602091600783526040916001600160a01b03835f20911690815f528452825f20549182156129465762015180804204818102918183041490151715612b435783101561321e575b50506131ab603c9142612d75565b106131b4575050565b60849250519063d647364f60e01b82526004820152602160248201527f506f737420746f6f20736f6f6e2061667465722070726576696f757320706f7360448201527f74000000000000000000000000000000000000000000000000000000000000006064820152fd5b5f5260068452825f20905f528352600a825f2054101561323f575f8061319d565b60648383519063d647364f60e01b82526004820152601360248201527f52617465206c696d6974206578636565646564000000000000000000000000006044820152fdfea2646970667358221220e8e6d5c02aa91fe865e3dabfcd628dac3bb9e7a8f74767348bddc7bdc9533b4564736f6c63430008180033","linkReferences":{}},"methodIdentifiers":{"addBounty(uint256,address,uint256)":"4dc71cde","approvedWinner(uint256)":"17392d17","comments(uint256)":"8ebb4c15","communityRegistry()":"a200ac86","communityRequests(uint256,uint256)":"ec83b4ac","completeEngagement(uint256,bytes)":"1aaafcec","createRequest(uint256,string,string,string[])":"9876e5f4","getComment(uint256)":"0800e300","getCommunityRequests(uint256)":"9aa75dd5","getRequest(uint256)":"c58343ef","getRequestComments(uint256)":"6c3f69e0","getRequestsByTag(uint256,string)":"3c77e8bf","linkValuableAction(uint256,uint256)":"006ee86f","moderateComment(uint256,bool)":"0473de27","nextCommentId()":"d0bdacbe","nextRequestId()":"6a84a985","postComment(uint256,uint256,string)":"ed0c9c92","requestComments(uint256,uint256)":"7d583055","requests(uint256)":"81d12c58","setApprovedWinner(uint256,address)":"956b2a22","setRequestStatus(uint256,uint8)":"ca83a826","userLastPostTime(uint256,address)":"113a80d3","userRequestCount(uint256,address)":"77d4b800","valuableActionRegistry()":"10127811"},"id":11}