{"abi":[{"type":"constructor","inputs":[{"name":"manager","type":"address","internalType":"address"},{"name":"_paramController","type":"address","internalType":"address"},{"name":"_cohortRegistry","type":"address","internalType":"address"},{"name":"_sbt","type":"address","internalType":"address"},{"name":"_communityId","type":"uint256","internalType":"uint256"}],"stateMutability":"nonpayable"},{"type":"function","name":"MAX_BPS","inputs":[],"outputs":[{"name":"","type":"uint256","internalType":"uint256"}],"stateMutability":"view"},{"type":"function","name":"activePositionPoints","inputs":[{"name":"communityId_","type":"uint256","internalType":"uint256"}],"outputs":[{"name":"","type":"uint256","internalType":"uint256"}],"stateMutability":"view"},{"type":"function","name":"authority","inputs":[],"outputs":[{"name":"","type":"address","internalType":"address"}],"stateMutability":"view"},{"type":"function","name":"claimInvestment","inputs":[{"name":"tokenId","type":"uint256","internalType":"uint256"},{"name":"token","type":"address","internalType":"address"},{"name":"to","type":"address","internalType":"address"}],"outputs":[],"stateMutability":"nonpayable"},{"type":"function","name":"claimPosition","inputs":[{"name":"tokenId","type":"uint256","internalType":"uint256"},{"name":"token","type":"address","internalType":"address"},{"name":"to","type":"address","internalType":"address"}],"outputs":[],"stateMutability":"nonpayable"},{"type":"function","name":"cohortIndex","inputs":[{"name":"","type":"uint256","internalType":"uint256"},{"name":"","type":"address","internalType":"address"}],"outputs":[{"name":"","type":"uint256","internalType":"uint256"}],"stateMutability":"view"},{"type":"function","name":"cohortIndexPaid","inputs":[{"name":"","type":"uint256","internalType":"uint256"},{"name":"","type":"address","internalType":"address"}],"outputs":[{"name":"","type":"uint256","internalType":"uint256"}],"stateMutability":"view"},{"type":"function","name":"cohortRegistry","inputs":[],"outputs":[{"name":"","type":"address","internalType":"contract ICohortRegistry"}],"stateMutability":"view"},{"type":"function","name":"communityId","inputs":[],"outputs":[{"name":"","type":"uint256","internalType":"uint256"}],"stateMutability":"view"},{"type":"function","name":"communityTreasuries","inputs":[{"name":"communityId_","type":"uint256","internalType":"uint256"}],"outputs":[{"name":"","type":"address","internalType":"address"}],"stateMutability":"view"},{"type":"function","name":"getClaimableInvestment","inputs":[{"name":"tokenId","type":"uint256","internalType":"uint256"},{"name":"token","type":"address","internalType":"address"}],"outputs":[{"name":"","type":"uint256","internalType":"uint256"}],"stateMutability":"view"},{"type":"function","name":"getClaimablePosition","inputs":[{"name":"tokenId","type":"uint256","internalType":"uint256"},{"name":"token","type":"address","internalType":"address"}],"outputs":[{"name":"","type":"uint256","internalType":"uint256"}],"stateMutability":"view"},{"type":"function","name":"isConsumingScheduledOp","inputs":[],"outputs":[{"name":"","type":"bytes4","internalType":"bytes4"}],"stateMutability":"view"},{"type":"function","name":"paramController","inputs":[],"outputs":[{"name":"","type":"address","internalType":"contract IParamController"}],"stateMutability":"view"},{"type":"function","name":"positionCommunity","inputs":[{"name":"","type":"uint256","internalType":"uint256"}],"outputs":[{"name":"","type":"uint256","internalType":"uint256"}],"stateMutability":"view"},{"type":"function","name":"positionIndexPaid","inputs":[{"name":"","type":"uint256","internalType":"uint256"},{"name":"","type":"address","internalType":"address"}],"outputs":[{"name":"","type":"uint256","internalType":"uint256"}],"stateMutability":"view"},{"type":"function","name":"positionPoints","inputs":[{"name":"","type":"uint256","internalType":"uint256"}],"outputs":[{"name":"","type":"uint32","internalType":"uint32"}],"stateMutability":"view"},{"type":"function","name":"positionRegistered","inputs":[{"name":"","type":"uint256","internalType":"uint256"}],"outputs":[{"name":"","type":"bool","internalType":"bool"}],"stateMutability":"view"},{"type":"function","name":"positionsIndex","inputs":[{"name":"communityId_","type":"uint256","internalType":"uint256"},{"name":"token","type":"address","internalType":"address"}],"outputs":[{"name":"","type":"uint256","internalType":"uint256"}],"stateMutability":"view"},{"type":"function","name":"registerPosition","inputs":[{"name":"tokenId","type":"uint256","internalType":"uint256"}],"outputs":[],"stateMutability":"nonpayable"},{"type":"function","name":"routeRevenue","inputs":[{"name":"communityId_","type":"uint256","internalType":"uint256"},{"name":"token","type":"address","internalType":"address"},{"name":"amount","type":"uint256","internalType":"uint256"}],"outputs":[],"stateMutability":"nonpayable"},{"type":"function","name":"setAuthority","inputs":[{"name":"newAuthority","type":"address","internalType":"address"}],"outputs":[],"stateMutability":"nonpayable"},{"type":"function","name":"setCohortRegistry","inputs":[{"name":"newRegistry","type":"address","internalType":"address"}],"outputs":[],"stateMutability":"nonpayable"},{"type":"function","name":"setCommunityTreasury","inputs":[{"name":"communityId_","type":"uint256","internalType":"uint256"},{"name":"treasury","type":"address","internalType":"address"}],"outputs":[],"stateMutability":"nonpayable"},{"type":"function","name":"setParamController","inputs":[{"name":"newController","type":"address","internalType":"address"}],"outputs":[],"stateMutability":"nonpayable"},{"type":"function","name":"setSupportedToken","inputs":[{"name":"communityId_","type":"uint256","internalType":"uint256"},{"name":"token","type":"address","internalType":"address"},{"name":"supported","type":"bool","internalType":"bool"}],"outputs":[],"stateMutability":"nonpayable"},{"type":"function","name":"supportedTokens","inputs":[{"name":"communityId_","type":"uint256","internalType":"uint256"},{"name":"token","type":"address","internalType":"address"}],"outputs":[{"name":"","type":"bool","internalType":"bool"}],"stateMutability":"view"},{"type":"function","name":"treasuryAccrual","inputs":[{"name":"communityId_","type":"uint256","internalType":"uint256"},{"name":"token","type":"address","internalType":"address"}],"outputs":[{"name":"","type":"uint256","internalType":"uint256"}],"stateMutability":"view"},{"type":"function","name":"unregisterPosition","inputs":[{"name":"tokenId","type":"uint256","internalType":"uint256"}],"outputs":[],"stateMutability":"nonpayable"},{"type":"function","name":"valuableActionSBT","inputs":[],"outputs":[{"name":"","type":"address","internalType":"contract IValuableActionSBT"}],"stateMutability":"view"},{"type":"function","name":"withdrawTreasury","inputs":[{"name":"communityId_","type":"uint256","internalType":"uint256"},{"name":"token","type":"address","internalType":"address"},{"name":"amount","type":"uint256","internalType":"uint256"},{"name":"to","type":"address","internalType":"address"}],"outputs":[],"stateMutability":"nonpayable"},{"type":"event","name":"AuthorityUpdated","inputs":[{"name":"authority","type":"address","indexed":false,"internalType":"address"}],"anonymous":false},{"type":"event","name":"CohortRegistryUpdated","inputs":[{"name":"oldRegistry","type":"address","indexed":false,"internalType":"address"},{"name":"newRegistry","type":"address","indexed":false,"internalType":"address"}],"anonymous":false},{"type":"event","name":"CohortsAllocated","inputs":[{"name":"communityId","type":"uint256","indexed":true,"internalType":"uint256"},{"name":"token","type":"address","indexed":true,"internalType":"address"},{"name":"amount","type":"uint256","indexed":false,"internalType":"uint256"}],"anonymous":false},{"type":"event","name":"CommunityTreasuryUpdated","inputs":[{"name":"communityId","type":"uint256","indexed":true,"internalType":"uint256"},{"name":"oldTreasury","type":"address","indexed":false,"internalType":"address"},{"name":"newTreasury","type":"address","indexed":false,"internalType":"address"}],"anonymous":false},{"type":"event","name":"ParamControllerUpdated","inputs":[{"name":"oldController","type":"address","indexed":false,"internalType":"address"},{"name":"newController","type":"address","indexed":false,"internalType":"address"}],"anonymous":false},{"type":"event","name":"PositionRegistered","inputs":[{"name":"tokenId","type":"uint256","indexed":true,"internalType":"uint256"},{"name":"communityId","type":"uint256","indexed":true,"internalType":"uint256"},{"name":"points","type":"uint32","indexed":false,"internalType":"uint32"}],"anonymous":false},{"type":"event","name":"PositionUnregistered","inputs":[{"name":"tokenId","type":"uint256","indexed":true,"internalType":"uint256"},{"name":"communityId","type":"uint256","indexed":true,"internalType":"uint256"},{"name":"points","type":"uint32","indexed":false,"internalType":"uint32"}],"anonymous":false},{"type":"event","name":"PositionsAllocated","inputs":[{"name":"communityId","type":"uint256","indexed":true,"internalType":"uint256"},{"name":"token","type":"address","indexed":true,"internalType":"address"},{"name":"amount","type":"uint256","indexed":false,"internalType":"uint256"},{"name":"indexAfter","type":"uint256","indexed":false,"internalType":"uint256"}],"anonymous":false},{"type":"event","name":"RevenueDistributed","inputs":[{"name":"communityId","type":"uint256","indexed":true,"internalType":"uint256"},{"name":"token","type":"address","indexed":true,"internalType":"address"},{"name":"amount","type":"uint256","indexed":false,"internalType":"uint256"}],"anonymous":false},{"type":"event","name":"SpilloverAllocated","inputs":[{"name":"communityId","type":"uint256","indexed":true,"internalType":"uint256"},{"name":"token","type":"address","indexed":true,"internalType":"address"},{"name":"amount","type":"uint256","indexed":false,"internalType":"uint256"},{"name":"target","type":"uint8","indexed":false,"internalType":"uint8"}],"anonymous":false},{"type":"event","name":"TokenSupportUpdated","inputs":[{"name":"communityId","type":"uint256","indexed":true,"internalType":"uint256"},{"name":"token","type":"address","indexed":true,"internalType":"address"},{"name":"supported","type":"bool","indexed":false,"internalType":"bool"}],"anonymous":false},{"type":"event","name":"TreasuryAllocated","inputs":[{"name":"communityId","type":"uint256","indexed":true,"internalType":"uint256"},{"name":"token","type":"address","indexed":true,"internalType":"address"},{"name":"amount","type":"uint256","indexed":false,"internalType":"uint256"}],"anonymous":false},{"type":"error","name":"AccessManagedInvalidAuthority","inputs":[{"name":"authority","type":"address","internalType":"address"}]},{"type":"error","name":"AccessManagedRequiredDelay","inputs":[{"name":"caller","type":"address","internalType":"address"},{"name":"delay","type":"uint32","internalType":"uint32"}]},{"type":"error","name":"AccessManagedUnauthorized","inputs":[{"name":"caller","type":"address","internalType":"address"}]},{"type":"error","name":"InsufficientBalance","inputs":[{"name":"account","type":"address","internalType":"address"},{"name":"required","type":"uint256","internalType":"uint256"},{"name":"actual","type":"uint256","internalType":"uint256"}]},{"type":"error","name":"InvalidInput","inputs":[{"name":"reason","type":"string","internalType":"string"}]},{"type":"error","name":"NotAuthorized","inputs":[{"name":"caller","type":"address","internalType":"address"}]},{"type":"error","name":"ReentrancyGuardReentrantCall","inputs":[]},{"type":"error","name":"SafeERC20FailedOperation","inputs":[{"name":"token","type":"address","internalType":"address"}]},{"type":"error","name":"ZeroAddress","inputs":[]}],"bytecode":{"object":"0x60a0346200022b57601f62002a7e38819003918201601f191683019291906001600160401b038411838510176200022f578160a092849260409687528339810103126200022b57620000518162000243565b6200005f6020830162000243565b906200006d84840162000243565b9260806200007e6060830162000243565b9101519360018060a01b038093168360018060a01b03199582875f5416175f557f2f658b440c35314f52658ea8a740e05b284cdc84dc9ae01e891f21b8933e7cad60208a51858152a160017f9b779b17422d0df92223018b32b4d1fa46e071723d6817e2486d003becc55f0055169081159081156200021f575b811562000213575b811562000209575b50620001f8578515620001bf57908391856001541617600155168360025416176002551690600354161760035560805251612825908162000259823960805181818161053d0152818161093601528181610d6201528181610fe8015281816111120152818161130901528181611484015281816114ca01528181611508015281816115380152818161156d015281816117a401528181611c0501528181611e3a015281816126d80152818161273d01526127bb0152f35b865163d647364f60e01b8152602060048201526011602482015270496e76616c696420636f6d6d756e69747960781b6044820152606490fd5b865163d92e233d60e01b8152600490fd5b9050155f62000108565b84861615915062000100565b838616159150620000f8565b5f80fd5b634e487b7160e01b5f52604160045260245ffd5b51906001600160a01b03821682036200022b5756fe6080604052600480361015610012575f80fd5b5f3560e01c90816302ec6eda1461124157816315431c481461121157816325bd2517146111eb5781632c4212c4146111ce578163307fc1aa146111a057816331f6e1201461117a57816348b821321461115457816352bbbe5d146111355781635af534711461108157816360dec8df1461103d578163666b004c14610f6a5781636b3be69614610e505781637a9e5e4b14610d855781637f50861a14610d4b5781638d72d057146108705781638fb36037146107fd578163972cd92b146107b8578163991da7461461078b5781639aaf5cfc146104905781639c835ff714610468578163a12f4eea14610424578163b3d31ea614610380578163b807a2e6146102c8578163bf7e214f146102a3578163c19eaa081461025f578163d0d1854d14610239578163e5284d9a14610213578163e8901184146101ed578163ef2034db146101bf578163fd52e59514610191575063fd967f4714610171575f80fd5b3461018d575f36600319011261018d5760206040516127108152f35b5f80fd5b3461018d57604036600319011261018d576101b76020916101b0611400565b9035611c9a565b604051908152f35b3461018d57602036600319011261018d57355f526009602052602063ffffffff60405f205416604051908152f35b3461018d575f36600319011261018d5760206001600160a01b0360035416604051908152f35b3461018d57604036600319011261018d576101b7602091610232611400565b9035611bad565b3461018d575f36600319011261018d5760206001600160a01b0360015416604051908152f35b3461018d57604036600319011261018d57610278611400565b90355f52600d6020526001600160a01b0360405f2091165f52602052602060405f2054604051908152f35b3461018d575f36600319011261018d5760206001600160a01b035f5416604051908152f35b3461018d57602036600319011261018d576102e1611416565b906102ec3633612043565b6001600160a01b0390818316908115610371575061036c7fd44eb4810c935bcbfd8980748b8dbaf20fb31e889bb5597ee95789a95aaab41f936001549273ffffffffffffffffffffffffffffffffffffffff1984161760015560405193849316839060209093929360408301946001600160a01b03809216845216910152565b0390a1005b60405163d92e233d60e01b8152fd5b3461018d57602036600319011261018d57610399611416565b906103a43633612043565b6001600160a01b0390818316908115610371575061036c7fdbae28b74235568f542b9e7ffe53bbbd0ff2850ea2149aa66af600aab156e2e8936002549273ffffffffffffffffffffffffffffffffffffffff1984161760025560405193849316839060209093929360408301946001600160a01b03809216845216910152565b3461018d57604036600319011261018d5761043d611400565b90355f52600c6020526001600160a01b0360405f2091165f52602052602060405f2054604051908152f35b3461018d57602036600319011261018d57355f526008602052602060405f2054604051908152f35b3461018d5760208060031936011261018d5781356104ae3633612043565b805f526007825260ff60405f205416610747576001600160a01b036003541691604051809363b09afec160e01b825283868301528160246101809687935afa93841561073c575f9461070d575b5050825160058110156106fa576003036106ac5767ffffffffffffffff610100840151166106685760a083019263ffffffff90818551161561062457820151937f00000000000000000000000000000000000000000000000000000000000000008095036105dd57907ffdb09a95bf087442d5b49221e7d1390fd08d762ff2a5916eb61d7020af1c34079291845f526007835260405f20600160ff19825416179055600883528560405f2055818151166009845260405f209063ffffffff198254161790556105cf82825116600a5461193c565b600a555116604051908152a3005b6106208660405191829163d647364f60e01b83528201606090602081526012602082015271086dedadaeadcd2e8f240dad2e6dac2e8c6d60731b60408201520190565b0390fd5b606486846040519163d647364f60e01b8352820152600b60248201527f5a65726f20706f696e74730000000000000000000000000000000000000000006044820152fd5b836064916040519163d647364f60e01b8352820152600e60248201527f506f736974696f6e20656e6465640000000000000000000000000000000000006044820152fd5b6106208460405191829163d647364f60e01b8352820160609060208152601260208201527f4e6f7420706f736974696f6e20746f6b656e000000000000000000000000000060408201520190565b602185634e487b7160e01b5f525260245ffd5b61072d929450803d10610735575b61072581836115d1565b810190611627565b9184806104fb565b503d61071b565b6040513d5f823e3d90fd5b606483836040519163d647364f60e01b8352820152601260248201527f416c7265616479207265676973746572656400000000000000000000000000006044820152fd5b3461018d57602036600319011261018d57355f526007602052602060ff60405f2054166040519015158152f35b3461018d576107d76107c93661142c565b916107d2611dde565b611949565b60017f9b779b17422d0df92223018b32b4d1fa46e071723d6817e2486d003becc55f0055005b3461018d575f36600319011261018d575f5460a01c60ff16156108685760207f8fb36037000000000000000000000000000000000000000000000000000000005b7fffffffff0000000000000000000000000000000000000000000000000000000060405191168152f35b60205f61083e565b3461018d57606036600319011261018d57610889611400565b906108943633612043565b61089c611dde565b6108a68135611e38565b60443515610d0f576001600160a01b03908183165f52600560205260ff60405f20541615610cca576040517f23b872dd000000000000000000000000000000000000000000000000000000005f523382523060245260443560445260205f606481808789165af160015f5114811615610ca9575b816040525f60605215610c9457509060249160808260015416917f000000000000000000000000000000000000000000000000000000000000000094859160405194859384927fd32d0ade0000000000000000000000000000000000000000000000000000000084528301525afa801561073c57845f915f925f945f92610bee575b50610a4c610a617f2ff16bd72e6515200e2c2ac219e490d69e5adf1b899e529f2b3610a58669a05e9795610a526020989686610ab996610a5b9891600260ff8c16149081610be1575b50610bd7575b610a0f6127109182610a0461ffff80931660443561170d565b04961660443561170d565b0498610a30610a298b610a2488604435611461565b611461565b9a84612217565b610a47610a408d879b949b6122c4565b809d611461565b61193c565b92612650565b9691909261193c565b9261193c565b9280610b90575b50610a7784610a47858461193c565b80604435115f14610b8857610a8e90604435611461565b905b610a9a828261193c565b868b165f5260068852610ab260405f2091825461193c565b905561193c565b604051908152867fef2dd4ee18c0649f4a8606eb0d72dcc366cce954ac0c7a656f14cfbe6d08e49486868b1693a38287165f52600b845260405f205460405191825284820152857f6ccbf89fab7bccd9c0abf98a4edf13a08e65d40a13912b9428b13632769cf21a6040858a1693a3604051908152847fe5b756663a202df024aea162bf4bb9b692ba31b1f18cb3075608a7a053a7799b8484891693a36040519460443586521693a360017f9b779b17422d0df92223018b32b4d1fa46e071723d6817e2486d003becc55f0055005b505f90610a90565b9081610b9b9161193c565b90604051908152600187820152887f3b56c0e24cd785258d86e7f3d24c12314547fc682f34181f4eb2e443236cf9df6040888d1693a389610a68565b61138891506109eb565b61ffff915016155f6109e5565b9450505050506080813d608011610c8c575b81610c0d608093836115d1565b8101031261018d577f2ff16bd72e6515200e2c2ac219e490d69e5adf1b899e529f2b3610a58669a05e9181610a5b610ab9610a4c610a61610c4f60209761192d565b94610a528b610c5f8a840161192d565b610c776060610c7060408701611619565b950161192d565b9890939897509550969850509597505061099c565b3d9150610c00565b91602493635274afe760e01b84521690820152fd5b6001811516610cc1578385163b15153d15161661091a565b503d5f823e3d90fd5b60649060206040519163d647364f60e01b8352820152601160248201527f556e737570706f7274656420746f6b656e0000000000000000000000000000006044820152fd5b6106209060405191829163d647364f60e01b8352820160609060208152600b60208201526a16995c9bc8185b5bdd5b9d60aa1b60408201520190565b3461018d575f36600319011261018d5760206040517f00000000000000000000000000000000000000000000000000000000000000008152f35b3461018d57602036600319011261018d57610d9e611416565b905f54916001600160a01b03918284163303610e3957813b15610e08577f2f658b440c35314f52658ea8a740e05b284cdc84dc9ae01e891f21b8933e7cad602073ffffffffffffffffffffffffffffffffffffffff198686861691829116175f55604051908152a1005b602492604051927fc2f31e5e0000000000000000000000000000000000000000000000000000000084521690820152fd5b6024906040519062d1953b60e31b82523390820152fd5b3461018d576020908160031936011261018d57803590610e703633612043565b815f526007835260ff60405f20541615610f265750805f52600882527f3e0c05e15c0af4f864ac4dbcdbabf57d69ce649b320f46199cba34bc27923af460405f2054926009815263ffffffff60405f2054166007825260405f2060ff198154169055600882525f60408120556009825260405f2063ffffffff19815416905580151580610f1a575b610f06575b604051908152a3005b610f1281600a54611461565b600a55610efd565b5080600a541015610ef8565b606490836040519163d647364f60e01b8352820152600e60248201527f4e6f7420726567697374657265640000000000000000000000000000000000006044820152fd5b3461018d57604036600319011261018d57610f83611400565b610f8d3633612043565b610f978235611e38565b6001600160a01b039081811691821561102d57835473ffffffffffffffffffffffffffffffffffffffff19811693909317909355604080516001600160a01b039490931684168352921660208201527f0000000000000000000000000000000000000000000000000000000000000000917fb48dfa2309b313dbb4bb81400e29a24c49b64b915fc85657ab0233ede3f9512091a2005b8360405163d92e233d60e01b8152fd5b3461018d57604036600319011261018d57611056611400565b90355f52600e6020526001600160a01b0360405f2091165f52602052602060405f2054604051908152f35b3461018d57606036600319011261018d5761109a611400565b6044359081151580920361018d576001600160a01b03906110bb3633612043565b6110c58435611e38565b169182156103715750815f52600560205260405f2060ff1981541660ff83161790556040519081527f2cd0e2d9f28ea02c722dd6cf4d460b6c53daa27d12f26415f19c752e0b17790560207f000000000000000000000000000000000000000000000000000000000000000092a3005b3461018d576107d76111463661142c565b9161114f611dde565b61173e565b3461018d57604036600319011261018d576101b7602091611173611400565b903561156b565b3461018d575f36600319011261018d5760206001600160a01b0360025416604051908152f35b3461018d57602036600319011261018d576111bd60209135611536565b6001600160a01b0360405191168152f35b3461018d57602036600319011261018d576101b760209135611506565b3461018d57604036600319011261018d576101b760209161120a611400565b90356114c8565b3461018d57604036600319011261018d57611237602091611230611400565b9035611482565b6040519015158152f35b3461018d57608036600319011261018d5761125a611400565b60443590606435906001600160a01b039081831680840361018d5761127d611dde565b6112878635611e38565b156113f0578185541680156113e05733036113c957831561138d571692835f52600660205260405f2054838110611350575050816112de91845f52600660205260405f206112d6838254611461565b905584611e9b565b6040519081527fef2dd4ee18c0649f4a8606eb0d72dcc366cce954ac0c7a656f14cfbe6d08e49460207f000000000000000000000000000000000000000000000000000000000000000092a360017f9b779b17422d0df92223018b32b4d1fa46e071723d6817e2486d003becc55f0055005b6064925083604051927fdb42144d000000000000000000000000000000000000000000000000000000008452309084015260248301526044820152fd5b6106208560405191829163d647364f60e01b8352820160609060208152600b60208201526a16995c9bc8185b5bdd5b9d60aa1b60408201520190565b604051634a0bfec160e01b81523381870152602490fd5b8560405163d92e233d60e01b8152fd5b8460405163d92e233d60e01b8152fd5b602435906001600160a01b038216820361018d57565b600435906001600160a01b038216820361018d57565b606090600319011261018d57600435906001600160a01b0390602435828116810361018d5791604435908116810361018d5790565b9190820391821161146e57565b634e487b7160e01b5f52601160045260245ffd5b7f0000000000000000000000000000000000000000000000000000000000000000036114c3576001600160a01b03165f52600560205260ff60405f20541690565b505f90565b7f0000000000000000000000000000000000000000000000000000000000000000036114c3576001600160a01b03165f52600660205260405f205490565b7f00000000000000000000000000000000000000000000000000000000000000000361153257600a5490565b5f90565b7f000000000000000000000000000000000000000000000000000000000000000003611532576001600160a01b036004541690565b7f0000000000000000000000000000000000000000000000000000000000000000036114c3576001600160a01b03165f52600b60205260405f205490565b67ffffffffffffffff81116115bd57604052565b634e487b7160e01b5f52604160045260245ffd5b90601f8019910116810190811067ffffffffffffffff8211176115bd57604052565b519063ffffffff8216820361018d57565b519067ffffffffffffffff8216820361018d57565b519060ff8216820361018d57565b8091610180928391031261018d5760405191820182811067ffffffffffffffff8211176115bd576040528051600581101561018d5782526020810151602083015260408101516040830152606081015160608301526080810151608083015261169260a082016115f3565b60a08301526116a360c082016115f3565b60c08301526116b460e08201611604565b60e08301526101006116c7818301611604565b908301526101206116d9818301611604565b908301526101406116eb818301611619565b9083015261016080910151906001600160a01b038216820361018d5782015290565b8181029291811591840414171561146e57565b811561172a570490565b634e487b7160e01b5f52601260045260245ffd5b90916001600160a01b03928382161561191c578360035416936040908151809663b09afec160e01b8252866004830152816024610180998a935afa968715611912575f976118f3575b5050855160058110156118df5760030361189a57602095868101517f00000000000000000000000000000000000000000000000000000000000000000361186057816117d287611f2d565b16330361184a5760a063ffffffff91015116921694855f52600b8152670de0b6b3a7640000611821835f205494875f52600c8452845f20895f52845261181b855f205487611461565b9061170d565b04945f52600c8152815f2090865f52525f205581156118455761184392611e9b565b565b505050565b60248351634a0bfec160e01b8152336004820152fd5b825163d647364f60e01b8152602060048201526012602482015271086dedadaeadcd2e8f240dad2e6dac2e8c6d60731b6044820152606490fd5b505163d647364f60e01b815260206004820152601260248201527f4e6f7420706f736974696f6e20746f6b656e00000000000000000000000000006044820152606490fd5b634e487b7160e01b5f52602160045260245ffd5b61190a929750803d106107355761072581836115d1565b945f80611787565b83513d5f823e3d90fd5b600460405163d92e233d60e01b8152fd5b519061ffff8216820361018d57565b9190820180921161146e57565b90916001600160a01b038082161561191c57806003541660409081519263b09afec160e01b84528380600493888583015261018092839160249889915afa918215611ba3575f92611b86575b505080516005811015611b74578303611b3157608001518015611aee57816119bc88611f2d565b163303611ad85781600254169284519586946374c4ef1760e11b86528983870152858260209788935afa968715611ace575f97611a9f575b508615611a5d5750505f52600d8252825f20961695865f528152670de0b6b3a7640000611a3b835f205494875f52600e8452845f20895f52845261181b855f205487611461565b04945f52600e8152815f2090865f52525f205581156118455761184392611e9b565b9060146064928688519363d647364f60e01b85528401528201527f4e6f20696e766573746d656e74207765696768740000000000000000000000006044820152fd5b9096508481813d8311611ac7575b611ab781836115d1565b8101031261018d5751955f6119f4565b503d611aad565b86513d5f823e3d90fd5b5050905190634a0bfec160e01b82523390820152fd5b606483600e87602088519363d647364f60e01b85528401528201527f4d697373696e6720636f686f72740000000000000000000000000000000000006044820152fd5b606483601487602088519363d647364f60e01b85528401528201527f4e6f7420696e766573746d656e7420746f6b656e0000000000000000000000006044820152fd5b85602185634e487b7160e01b5f52525ffd5b611b9c9250803d106107355761072581836115d1565b5f80611995565b85513d5f823e3d90fd5b906001600160a01b03908160035416604051809163b09afec160e01b82528560048301528160246101809485935afa91821561073c575f92611c7d575b5050805160058110156118df57600303611c755760208101517f000000000000000000000000000000000000000000000000000000000000000003611c7557670de0b6b3a764000093611c719363ffffffff60a061181b940151169316805f52600b60205260405f2054915f52600c60205260405f20905f5260205260405f205490611461565b0490565b505050505f90565b611c939250803d106107355761072581836115d1565b5f80611bea565b6001600160a01b03908160035416906040918251809163b09afec160e01b82528360048301528160246101809485935afa918215611dd4575f92611db7575b5050805160058110156118df57600403611dae57608001519083600254169280519586946374c4ef1760e11b86528360048701528560246020998a935afa948515611da4575f95611d75575b508415611d6a57670de0b6b3a764000096611c719661181b955f52600d8252835f20921691825f528152825f2054935f52600e8152825f20915f52525f205490611461565b505050505050505f90565b9094508681813d8311611d9d575b611d8d81836115d1565b8101031261018d5751935f611d25565b503d611d83565b82513d5f823e3d90fd5b50505050505f90565b611dcd9250803d106107355761072581836115d1565b5f80611cd9565b84513d5f823e3d90fd5b7f9b779b17422d0df92223018b32b4d1fa46e071723d6817e2486d003becc55f006002815414611e0e5760029055565b60046040517f3ee5aeb5000000000000000000000000000000000000000000000000000000008152fd5b7f000000000000000000000000000000000000000000000000000000000000000003611e6057565b60405163d647364f60e01b8152602060048201526012602482015271086dedadaeadcd2e8f240dad2e6dac2e8c6d60731b6044820152606490fd5b604051927fa9059cbb000000000000000000000000000000000000000000000000000000005f526001600160a01b0380931660045260245260205f60448180855af160015f5114811615611f0e575b8360405215611ef857505050565b60249350635274afe760e01b8352166004820152fd5b6001811516611f2457813b15153d151616611eea565b833d5f823e3d90fd5b6001600160a01b0390816003541690604051602092838201927f6352211e000000000000000000000000000000000000000000000000000000008452602483015260248252606082019067ffffffffffffffff93838310858411176115bd575f93849360405251915afa3d1561203a573d9182116115bd5760405191611fbc601f8201601f19168501846115d1565b82523d5f8484013e5b158015612031575b611fec57818180518101031261018d57015190811680910361018d5790565b6064826040519063d647364f60e01b82526004820152600e60248201527f6f776e65724f66206661696c65640000000000000000000000000000000000006044820152fd5b50805115611fcd565b60609150611fc5565b5f915f54916001600160a01b0390818416928060041161018d575f8060409485519060208201957fb700961300000000000000000000000000000000000000000000000000000000875216948560248301523060448301527fffffffff000000000000000000000000000000000000000000000000000000005f351660648301526064825260a082019082821067ffffffffffffffff8311176115bd5787925f928452828052826020525190895afa612204575b15612106575b50505050505050565b63ffffffff16156121ee57740100000000000000000000000000000000000000007fffffffffffffffffffffff00ffffffffffffffffffffffffffffffffffffffff809616175f55833b1561018d576064935f928385519687809581947f94c7d7ee00000000000000000000000000000000000000000000000000000000835260048301528860248301528060448301528084848401378181018301849052601f01601f191681010301925af19081156121e557506121d2575b5081541690555f8080808080806120fd565b6121dd9192506115a9565b5f905f6121c0565b513d5f823e3d90fd5b50602491519062d1953b60e31b82526004820152fd5b50505f516020518060201c1502906120f7565b600a54821561227b57801561227457670de0b6b3a76400008302670de0b6b3a763ffff198482040161146e576001600160a01b039161225591611720565b91165f52600b60205261226d60405f2091825461193c565b9055905f90565b505f929050565b5050505f905f90565b67ffffffffffffffff81116115bd5760051b60200190565b80518210156122b05760209160051b010190565b634e487b7160e01b5f52603260045260245ffd5b905f928115612648576001600160a01b03936002928560025416916040938451907f1ea7eca70000000000000000000000000000000000000000000000000000000082526004925f83600481895afa92831561263e575f936125ac575b508251998a1561259d575f986123368c612284565b9b89519c612344908e6115d1565b808d5261235090612284565b60209790601f1901368e8a01375f9a5b86518c10156124285789898c60248f61237a8d918d61229c565b51925194859384927fffea0cbd0000000000000000000000000000000000000000000000000000000084528301525afa90811561241e578f90918e925f916123e9575b5082826123da926123d46123e1966001989661229c565b5261229c565b519061193c565b9b019a612360565b925050508981813d8311612417575b61240281836115d1565b8101031261018d57518c908f906123e16123bd565b503d6123f8565b8c513d5f823e3d90fd5b9c9195999850939a929950959094958b1561258e575f995b89518b1015612580576124538b8361229c565b51908d82156125755761247a6124698e8e61229c565b5191612475858a61170d565b611720565b92831561256957670de0b6b3a76400008402670de0b6b3a763ffff198582040161255657906124a891611720565b905f52600d85528a5f208987165f5285526124c78b5f2091825461193c565b9055878754166124d78d8d61229c565b51813b1561018d575f9060448c838f5195869485937fb16598a30000000000000000000000000000000000000000000000000000000085528401528860248401525af1801561254c5791600193916125349361253d575b5061193c565b9a5b0199612440565b612546906115a9565b5f61252e565b8b513d5f823e3d90fd5b60118c634e487b7160e01b5f525260245ffd5b50509a60019150612536565b509a60019150612536565b9b5050505050505050505050565b505f9a50505050505050505050565b50509750505050505050505f90565b9092503d805f833e6125be81836115d1565b810190602090818184031261018d5780519067ffffffffffffffff821161018d57019180601f8401121561018d5782516125f781612284565b936126048b5195866115d1565b818552838086019260051b82010192831161018d578301905b82821061262f5750505050915f612321565b8151815290830190830161261d565b87513d5f823e3d90fd5b925050505f90565b93919083156127e25760ff168015612765576001146126fe5761268861271061268061ffff61268e94168661170d565b048094611461565b84612217565b9290936001600160a01b036126a3868461193c565b916040519283526002602084015216907f3b56c0e24cd785258d86e7f3d24c12314547fc682f34181f4eb2e443236cf9df60407f000000000000000000000000000000000000000000000000000000000000000092a3929190565b50916001600160a01b03604051918383526001602084015216907f3b56c0e24cd785258d86e7f3d24c12314547fc682f34181f4eb2e443236cf9df60407f000000000000000000000000000000000000000000000000000000000000000092a3905f905f90565b5050826001600160a01b0361277e846127879596612217565b80959196611461565b916040519283525f602084015216907f3b56c0e24cd785258d86e7f3d24c12314547fc682f34181f4eb2e443236cf9df60407f000000000000000000000000000000000000000000000000000000000000000092a35f929190565b50509150505f905f905f9056fea2646970667358221220cd1b73d3f0ca5cd1ecefe7d0a3916e3b4c5d64649c302b3d3c28018ea048ec1364736f6c63430008180033","linkReferences":{}},"methodIdentifiers":{"MAX_BPS()":"fd967f47","activePositionPoints(uint256)":"2c4212c4","authority()":"bf7e214f","claimInvestment(uint256,address,address)":"972cd92b","claimPosition(uint256,address,address)":"52bbbe5d","cohortIndex(uint256,address)":"c19eaa08","cohortIndexPaid(uint256,address)":"60dec8df","cohortRegistry()":"31f6e120","communityId()":"7f50861a","communityTreasuries(uint256)":"307fc1aa","getClaimableInvestment(uint256,address)":"fd52e595","getClaimablePosition(uint256,address)":"e5284d9a","isConsumingScheduledOp()":"8fb36037","paramController()":"d0d1854d","positionCommunity(uint256)":"9c835ff7","positionIndexPaid(uint256,address)":"a12f4eea","positionPoints(uint256)":"ef2034db","positionRegistered(uint256)":"991da746","positionsIndex(uint256,address)":"48b82132","registerPosition(uint256)":"9aaf5cfc","routeRevenue(uint256,address,uint256)":"8d72d057","setAuthority(address)":"7a9e5e4b","setCohortRegistry(address)":"b3d31ea6","setCommunityTreasury(uint256,address)":"666b004c","setParamController(address)":"b807a2e6","setSupportedToken(uint256,address,bool)":"5af53471","supportedTokens(uint256,address)":"15431c48","treasuryAccrual(uint256,address)":"25bd2517","unregisterPosition(uint256)":"6b3be696","valuableActionSBT()":"e8901184","withdrawTreasury(uint256,address,uint256,address)":"02ec6eda"},"id":24}