{"abi":[{"type":"function","name":"COHORT_INVESTMENT_RECORDER_ROLE","inputs":[],"outputs":[{"name":"","type":"uint64","internalType":"uint64"}],"stateMutability":"view"},{"type":"function","name":"COHORT_REVENUE_ROUTER_ROLE","inputs":[],"outputs":[{"name":"","type":"uint64","internalType":"uint64"}],"stateMutability":"view"},{"type":"function","name":"COMMERCE_DISPUTES_CALLER_ROLE","inputs":[],"outputs":[{"name":"","type":"uint64","internalType":"uint64"}],"stateMutability":"view"},{"type":"function","name":"COMMUNITY_CURATOR_ROLE","inputs":[],"outputs":[{"name":"","type":"bytes32","internalType":"bytes32"}],"stateMutability":"view"},{"type":"function","name":"COMMUNITY_GOVERNANCE_ROLE","inputs":[],"outputs":[{"name":"","type":"bytes32","internalType":"bytes32"}],"stateMutability":"view"},{"type":"function","name":"COMMUNITY_MODERATOR_ROLE","inputs":[],"outputs":[{"name":"","type":"bytes32","internalType":"bytes32"}],"stateMutability":"view"},{"type":"function","name":"COMMUNITY_TOKEN_EMERGENCY_ROLE","inputs":[],"outputs":[{"name":"","type":"uint64","internalType":"uint64"}],"stateMutability":"view"},{"type":"function","name":"COMMUNITY_TOKEN_MINTER_ROLE","inputs":[],"outputs":[{"name":"","type":"uint64","internalType":"uint64"}],"stateMutability":"view"},{"type":"function","name":"COMMUNITY_TOKEN_TREASURY_ROLE","inputs":[],"outputs":[{"name":"","type":"uint64","internalType":"uint64"}],"stateMutability":"view"},{"type":"function","name":"CREDENTIAL_MANAGER_APPROVER_ROLE","inputs":[],"outputs":[{"name":"","type":"uint64","internalType":"uint64"}],"stateMutability":"view"},{"type":"function","name":"HOUSING_MARKETPLACE_CALLER_ROLE","inputs":[],"outputs":[{"name":"","type":"uint64","internalType":"uint64"}],"stateMutability":"view"},{"type":"function","name":"MEMBERSHIP_TOKEN_GOVERNANCE_ROLE","inputs":[],"outputs":[{"name":"","type":"uint64","internalType":"uint64"}],"stateMutability":"view"},{"type":"function","name":"MEMBERSHIP_TOKEN_MINTER_ROLE","inputs":[],"outputs":[{"name":"","type":"uint64","internalType":"uint64"}],"stateMutability":"view"},{"type":"function","name":"REVENUE_ROUTER_DISTRIBUTOR_ROLE","inputs":[],"outputs":[{"name":"","type":"uint64","internalType":"uint64"}],"stateMutability":"view"},{"type":"function","name":"REVENUE_ROUTER_POSITION_MANAGER_ROLE","inputs":[],"outputs":[{"name":"","type":"uint64","internalType":"uint64"}],"stateMutability":"view"},{"type":"function","name":"VALUABLE_ACTION_REGISTRY_ISSUER_ROLE","inputs":[],"outputs":[{"name":"","type":"uint64","internalType":"uint64"}],"stateMutability":"view"},{"type":"function","name":"VALUABLE_ACTION_REGISTRY_MODERATOR_ROLE","inputs":[],"outputs":[{"name":"","type":"uint64","internalType":"uint64"}],"stateMutability":"view"},{"type":"function","name":"VALUABLE_ACTION_SBT_GOVERNANCE_ROLE","inputs":[],"outputs":[{"name":"","type":"uint64","internalType":"uint64"}],"stateMutability":"view"},{"type":"function","name":"VALUABLE_ACTION_SBT_MANAGER_ROLE","inputs":[],"outputs":[{"name":"","type":"uint64","internalType":"uint64"}],"stateMutability":"view"},{"type":"function","name":"VERIFIER_MANAGER_CALLER_ROLE","inputs":[],"outputs":[{"name":"","type":"uint64","internalType":"uint64"}],"stateMutability":"view"}],"bytecode":{"object":"0x6080806040523461001a57610346908161001f823930815050f35b5f80fdfe60806040908082526004361015610014575f80fd5b5f3560e01c908163035326d0146102fc5750806311fedc4c146102e65780631607a6d5146102b157806320bccc4f1461029b57806324fdbe0214610285578063282bd3b01461026f5780632a0019bf146102595780632f495b2c146102245780633a8a82931461020e578063515cdf3d146101f85780635a1eff52146101c357806369831ae4146101ad5780637d5abd85146101975780639efb5b8914610181578063b12711621461016b578063b6d3e67014610155578063bb54b0a81461013f578063cca6ae2e14610129578063da5e73f4146101135763e7b518a1146100fa575f80fd5b5f36600319011261010f576020905160058152f35b5f80fd5b505f36600319011261010f576020905160118152f35b505f36600319011261010f576020905160038152f35b505f36600319011261010f576020905160068152f35b505f36600319011261010f5760209051600f8152f35b505f36600319011261010f5760209051600c8152f35b505f36600319011261010f576020905160088152f35b505f36600319011261010f5760209051600e8152f35b505f36600319011261010f576020905160098152f35b505f36600319011261010f57602090517f71f3d55856e4058ed06ee057d79ada615f65cdf5f9ee88181b914225088f834f8152f35b505f36600319011261010f576020905160078152f35b505f36600319011261010f5760209051600d8152f35b505f36600319011261010f57602090517f850d585eb7f024ccee5e68e55f2c26cc72e1e6ee456acf62135757a5eb9d4a108152f35b505f36600319011261010f576020905160028152f35b505f36600319011261010f5760209051600b8152f35b505f36600319011261010f576020905160048152f35b505f36600319011261010f576020905160018152f35b505f36600319011261010f57602090517f71840dc4906352362b0cdaf79870196c8e42acafade72d5d5a6d59291253ceb18152f35b505f36600319011261010f576020905160108152f35b5f36600319011261010f5780600a60209252f3fea26469706673582212206fbe538f12d109f8149d99662e19e33fb355ab4146e380b7967fb2d6d81dd7f964736f6c63430008180033","linkReferences":{}},"methodIdentifiers":{"COHORT_INVESTMENT_RECORDER_ROLE()":"2a0019bf","COHORT_REVENUE_ROUTER_ROLE()":"20bccc4f","COMMERCE_DISPUTES_CALLER_ROLE()":"3a8a8293","COMMUNITY_CURATOR_ROLE()":"2f495b2c","COMMUNITY_GOVERNANCE_ROLE()":"1607a6d5","COMMUNITY_MODERATOR_ROLE()":"5a1eff52","COMMUNITY_TOKEN_EMERGENCY_ROLE()":"035326d0","COMMUNITY_TOKEN_MINTER_ROLE()":"9efb5b89","COMMUNITY_TOKEN_TREASURY_ROLE()":"69831ae4","CREDENTIAL_MANAGER_APPROVER_ROLE()":"11fedc4c","HOUSING_MARKETPLACE_CALLER_ROLE()":"7d5abd85","MEMBERSHIP_TOKEN_GOVERNANCE_ROLE()":"b1271162","MEMBERSHIP_TOKEN_MINTER_ROLE()":"282bd3b0","REVENUE_ROUTER_DISTRIBUTOR_ROLE()":"bb54b0a8","REVENUE_ROUTER_POSITION_MANAGER_ROLE()":"515cdf3d","VALUABLE_ACTION_REGISTRY_ISSUER_ROLE()":"cca6ae2e","VALUABLE_ACTION_REGISTRY_MODERATOR_ROLE()":"da5e73f4","VALUABLE_ACTION_SBT_GOVERNANCE_ROLE()":"e7b518a1","VALUABLE_ACTION_SBT_MANAGER_ROLE()":"24fdbe02","VERIFIER_MANAGER_CALLER_ROLE()":"b6d3e670"},"id":10}