{"abi":[{"type":"constructor","inputs":[{"name":"token","type":"address","internalType":"address"},{"name":"timelock","type":"address","internalType":"address"}],"stateMutability":"nonpayable"},{"type":"receive","stateMutability":"payable"},{"type":"function","name":"BALLOT_TYPEHASH","inputs":[],"outputs":[{"name":"","type":"bytes32","internalType":"bytes32"}],"stateMutability":"view"},{"type":"function","name":"CLOCK_MODE","inputs":[],"outputs":[{"name":"","type":"string","internalType":"string"}],"stateMutability":"view"},{"type":"function","name":"COUNTING_MODE","inputs":[],"outputs":[{"name":"","type":"string","internalType":"string"}],"stateMutability":"pure"},{"type":"function","name":"EXTENDED_BALLOT_TYPEHASH","inputs":[],"outputs":[{"name":"","type":"bytes32","internalType":"bytes32"}],"stateMutability":"view"},{"type":"function","name":"cancel","inputs":[{"name":"targets","type":"address[]","internalType":"address[]"},{"name":"values","type":"uint256[]","internalType":"uint256[]"},{"name":"calldatas","type":"bytes[]","internalType":"bytes[]"},{"name":"descriptionHash","type":"bytes32","internalType":"bytes32"}],"outputs":[{"name":"","type":"uint256","internalType":"uint256"}],"stateMutability":"nonpayable"},{"type":"function","name":"castVote","inputs":[{"name":"proposalId","type":"uint256","internalType":"uint256"},{"name":"support","type":"uint8","internalType":"uint8"}],"outputs":[{"name":"","type":"uint256","internalType":"uint256"}],"stateMutability":"nonpayable"},{"type":"function","name":"castVoteBySig","inputs":[{"name":"proposalId","type":"uint256","internalType":"uint256"},{"name":"support","type":"uint8","internalType":"uint8"},{"name":"voter","type":"address","internalType":"address"},{"name":"signature","type":"bytes","internalType":"bytes"}],"outputs":[{"name":"","type":"uint256","internalType":"uint256"}],"stateMutability":"nonpayable"},{"type":"function","name":"castVoteMultiChoice","inputs":[{"name":"proposalId","type":"uint256","internalType":"uint256"},{"name":"weights","type":"uint256[]","internalType":"uint256[]"},{"name":"reason","type":"string","internalType":"string"}],"outputs":[],"stateMutability":"nonpayable"},{"type":"function","name":"castVoteWithReason","inputs":[{"name":"proposalId","type":"uint256","internalType":"uint256"},{"name":"support","type":"uint8","internalType":"uint8"},{"name":"reason","type":"string","internalType":"string"}],"outputs":[{"name":"","type":"uint256","internalType":"uint256"}],"stateMutability":"nonpayable"},{"type":"function","name":"castVoteWithReasonAndParams","inputs":[{"name":"proposalId","type":"uint256","internalType":"uint256"},{"name":"support","type":"uint8","internalType":"uint8"},{"name":"reason","type":"string","internalType":"string"},{"name":"params","type":"bytes","internalType":"bytes"}],"outputs":[{"name":"","type":"uint256","internalType":"uint256"}],"stateMutability":"nonpayable"},{"type":"function","name":"castVoteWithReasonAndParamsBySig","inputs":[{"name":"proposalId","type":"uint256","internalType":"uint256"},{"name":"support","type":"uint8","internalType":"uint8"},{"name":"voter","type":"address","internalType":"address"},{"name":"reason","type":"string","internalType":"string"},{"name":"params","type":"bytes","internalType":"bytes"},{"name":"signature","type":"bytes","internalType":"bytes"}],"outputs":[{"name":"","type":"uint256","internalType":"uint256"}],"stateMutability":"nonpayable"},{"type":"function","name":"clock","inputs":[],"outputs":[{"name":"","type":"uint48","internalType":"uint48"}],"stateMutability":"view"},{"type":"function","name":"eip712Domain","inputs":[],"outputs":[{"name":"fields","type":"bytes1","internalType":"bytes1"},{"name":"name","type":"string","internalType":"string"},{"name":"version","type":"string","internalType":"string"},{"name":"chainId","type":"uint256","internalType":"uint256"},{"name":"verifyingContract","type":"address","internalType":"address"},{"name":"salt","type":"bytes32","internalType":"bytes32"},{"name":"extensions","type":"uint256[]","internalType":"uint256[]"}],"stateMutability":"view"},{"type":"function","name":"execute","inputs":[{"name":"targets","type":"address[]","internalType":"address[]"},{"name":"values","type":"uint256[]","internalType":"uint256[]"},{"name":"calldatas","type":"bytes[]","internalType":"bytes[]"},{"name":"descriptionHash","type":"bytes32","internalType":"bytes32"}],"outputs":[{"name":"","type":"uint256","internalType":"uint256"}],"stateMutability":"payable"},{"type":"function","name":"getMultiChoiceTotals","inputs":[{"name":"proposalId","type":"uint256","internalType":"uint256"}],"outputs":[{"name":"","type":"uint256[]","internalType":"uint256[]"}],"stateMutability":"view"},{"type":"function","name":"getProposalId","inputs":[{"name":"targets","type":"address[]","internalType":"address[]"},{"name":"values","type":"uint256[]","internalType":"uint256[]"},{"name":"calldatas","type":"bytes[]","internalType":"bytes[]"},{"name":"descriptionHash","type":"bytes32","internalType":"bytes32"}],"outputs":[{"name":"","type":"uint256","internalType":"uint256"}],"stateMutability":"view"},{"type":"function","name":"getVoterMultiChoiceWeights","inputs":[{"name":"proposalId","type":"uint256","internalType":"uint256"},{"name":"voter","type":"address","internalType":"address"}],"outputs":[{"name":"","type":"uint256[]","internalType":"uint256[]"}],"stateMutability":"view"},{"type":"function","name":"getVotes","inputs":[{"name":"account","type":"address","internalType":"address"},{"name":"timepoint","type":"uint256","internalType":"uint256"}],"outputs":[{"name":"","type":"uint256","internalType":"uint256"}],"stateMutability":"view"},{"type":"function","name":"getVotesWithParams","inputs":[{"name":"account","type":"address","internalType":"address"},{"name":"timepoint","type":"uint256","internalType":"uint256"},{"name":"params","type":"bytes","internalType":"bytes"}],"outputs":[{"name":"","type":"uint256","internalType":"uint256"}],"stateMutability":"view"},{"type":"function","name":"hasVoted","inputs":[{"name":"proposalId","type":"uint256","internalType":"uint256"},{"name":"account","type":"address","internalType":"address"}],"outputs":[{"name":"","type":"bool","internalType":"bool"}],"stateMutability":"view"},{"type":"function","name":"hashProposal","inputs":[{"name":"targets","type":"address[]","internalType":"address[]"},{"name":"values","type":"uint256[]","internalType":"uint256[]"},{"name":"calldatas","type":"bytes[]","internalType":"bytes[]"},{"name":"descriptionHash","type":"bytes32","internalType":"bytes32"}],"outputs":[{"name":"","type":"uint256","internalType":"uint256"}],"stateMutability":"pure"},{"type":"function","name":"initCountingMulti","inputs":[{"name":"counter","type":"address","internalType":"address"}],"outputs":[],"stateMutability":"nonpayable"},{"type":"function","name":"isMultiChoice","inputs":[{"name":"proposalId","type":"uint256","internalType":"uint256"}],"outputs":[{"name":"","type":"bool","internalType":"bool"}],"stateMutability":"view"},{"type":"function","name":"multiCounter","inputs":[],"outputs":[{"name":"","type":"address","internalType":"address"}],"stateMutability":"view"},{"type":"function","name":"name","inputs":[],"outputs":[{"name":"","type":"string","internalType":"string"}],"stateMutability":"view"},{"type":"function","name":"nonces","inputs":[{"name":"owner","type":"address","internalType":"address"}],"outputs":[{"name":"","type":"uint256","internalType":"uint256"}],"stateMutability":"view"},{"type":"function","name":"numOptionsOf","inputs":[{"name":"proposalId","type":"uint256","internalType":"uint256"}],"outputs":[{"name":"","type":"uint8","internalType":"uint8"}],"stateMutability":"view"},{"type":"function","name":"onERC1155BatchReceived","inputs":[{"name":"","type":"address","internalType":"address"},{"name":"","type":"address","internalType":"address"},{"name":"","type":"uint256[]","internalType":"uint256[]"},{"name":"","type":"uint256[]","internalType":"uint256[]"},{"name":"","type":"bytes","internalType":"bytes"}],"outputs":[{"name":"","type":"bytes4","internalType":"bytes4"}],"stateMutability":"nonpayable"},{"type":"function","name":"onERC1155Received","inputs":[{"name":"","type":"address","internalType":"address"},{"name":"","type":"address","internalType":"address"},{"name":"","type":"uint256","internalType":"uint256"},{"name":"","type":"uint256","internalType":"uint256"},{"name":"","type":"bytes","internalType":"bytes"}],"outputs":[{"name":"","type":"bytes4","internalType":"bytes4"}],"stateMutability":"nonpayable"},{"type":"function","name":"onERC721Received","inputs":[{"name":"","type":"address","internalType":"address"},{"name":"","type":"address","internalType":"address"},{"name":"","type":"uint256","internalType":"uint256"},{"name":"","type":"bytes","internalType":"bytes"}],"outputs":[{"name":"","type":"bytes4","internalType":"bytes4"}],"stateMutability":"nonpayable"},{"type":"function","name":"proposalDeadline","inputs":[{"name":"proposalId","type":"uint256","internalType":"uint256"}],"outputs":[{"name":"","type":"uint256","internalType":"uint256"}],"stateMutability":"view"},{"type":"function","name":"proposalEta","inputs":[{"name":"proposalId","type":"uint256","internalType":"uint256"}],"outputs":[{"name":"","type":"uint256","internalType":"uint256"}],"stateMutability":"view"},{"type":"function","name":"proposalNeedsQueuing","inputs":[{"name":"proposalId","type":"uint256","internalType":"uint256"}],"outputs":[{"name":"","type":"bool","internalType":"bool"}],"stateMutability":"view"},{"type":"function","name":"proposalProposer","inputs":[{"name":"proposalId","type":"uint256","internalType":"uint256"}],"outputs":[{"name":"","type":"address","internalType":"address"}],"stateMutability":"view"},{"type":"function","name":"proposalSnapshot","inputs":[{"name":"proposalId","type":"uint256","internalType":"uint256"}],"outputs":[{"name":"","type":"uint256","internalType":"uint256"}],"stateMutability":"view"},{"type":"function","name":"proposalThreshold","inputs":[],"outputs":[{"name":"","type":"uint256","internalType":"uint256"}],"stateMutability":"view"},{"type":"function","name":"proposalVotes","inputs":[{"name":"proposalId","type":"uint256","internalType":"uint256"}],"outputs":[{"name":"againstVotes","type":"uint256","internalType":"uint256"},{"name":"forVotes","type":"uint256","internalType":"uint256"},{"name":"abstainVotes","type":"uint256","internalType":"uint256"}],"stateMutability":"view"},{"type":"function","name":"propose","inputs":[{"name":"targets","type":"address[]","internalType":"address[]"},{"name":"values","type":"uint256[]","internalType":"uint256[]"},{"name":"calldatas","type":"bytes[]","internalType":"bytes[]"},{"name":"description","type":"string","internalType":"string"}],"outputs":[{"name":"","type":"uint256","internalType":"uint256"}],"stateMutability":"nonpayable"},{"type":"function","name":"proposeMultiChoice","inputs":[{"name":"targets","type":"address[]","internalType":"address[]"},{"name":"values","type":"uint256[]","internalType":"uint256[]"},{"name":"calldatas","type":"bytes[]","internalType":"bytes[]"},{"name":"description","type":"string","internalType":"string"},{"name":"numOptions","type":"uint8","internalType":"uint8"}],"outputs":[{"name":"proposalId","type":"uint256","internalType":"uint256"}],"stateMutability":"nonpayable"},{"type":"function","name":"queue","inputs":[{"name":"targets","type":"address[]","internalType":"address[]"},{"name":"values","type":"uint256[]","internalType":"uint256[]"},{"name":"calldatas","type":"bytes[]","internalType":"bytes[]"},{"name":"descriptionHash","type":"bytes32","internalType":"bytes32"}],"outputs":[{"name":"","type":"uint256","internalType":"uint256"}],"stateMutability":"nonpayable"},{"type":"function","name":"quorum","inputs":[{"name":"blockNumber","type":"uint256","internalType":"uint256"}],"outputs":[{"name":"","type":"uint256","internalType":"uint256"}],"stateMutability":"view"},{"type":"function","name":"quorumDenominator","inputs":[],"outputs":[{"name":"","type":"uint256","internalType":"uint256"}],"stateMutability":"view"},{"type":"function","name":"quorumNumerator","inputs":[{"name":"timepoint","type":"uint256","internalType":"uint256"}],"outputs":[{"name":"","type":"uint256","internalType":"uint256"}],"stateMutability":"view"},{"type":"function","name":"quorumNumerator","inputs":[],"outputs":[{"name":"","type":"uint256","internalType":"uint256"}],"stateMutability":"view"},{"type":"function","name":"relay","inputs":[{"name":"target","type":"address","internalType":"address"},{"name":"value","type":"uint256","internalType":"uint256"},{"name":"data","type":"bytes","internalType":"bytes"}],"outputs":[],"stateMutability":"payable"},{"type":"function","name":"setCountingMulti","inputs":[{"name":"counter","type":"address","internalType":"address"}],"outputs":[],"stateMutability":"nonpayable"},{"type":"function","name":"setProposalThreshold","inputs":[{"name":"newProposalThreshold","type":"uint256","internalType":"uint256"}],"outputs":[],"stateMutability":"nonpayable"},{"type":"function","name":"setVotingDelay","inputs":[{"name":"newVotingDelay","type":"uint48","internalType":"uint48"}],"outputs":[],"stateMutability":"nonpayable"},{"type":"function","name":"setVotingPeriod","inputs":[{"name":"newVotingPeriod","type":"uint32","internalType":"uint32"}],"outputs":[],"stateMutability":"nonpayable"},{"type":"function","name":"state","inputs":[{"name":"proposalId","type":"uint256","internalType":"uint256"}],"outputs":[{"name":"","type":"uint8","internalType":"enum IGovernor.ProposalState"}],"stateMutability":"view"},{"type":"function","name":"supportsInterface","inputs":[{"name":"interfaceId","type":"bytes4","internalType":"bytes4"}],"outputs":[{"name":"","type":"bool","internalType":"bool"}],"stateMutability":"view"},{"type":"function","name":"timelock","inputs":[],"outputs":[{"name":"","type":"address","internalType":"address"}],"stateMutability":"view"},{"type":"function","name":"token","inputs":[],"outputs":[{"name":"","type":"address","internalType":"contract IERC5805"}],"stateMutability":"view"},{"type":"function","name":"updateQuorumNumerator","inputs":[{"name":"newQuorumNumerator","type":"uint256","internalType":"uint256"}],"outputs":[],"stateMutability":"nonpayable"},{"type":"function","name":"updateTimelock","inputs":[{"name":"newTimelock","type":"address","internalType":"contract TimelockController"}],"outputs":[],"stateMutability":"nonpayable"},{"type":"function","name":"version","inputs":[],"outputs":[{"name":"","type":"string","internalType":"string"}],"stateMutability":"view"},{"type":"function","name":"votingDelay","inputs":[],"outputs":[{"name":"","type":"uint256","internalType":"uint256"}],"stateMutability":"view"},{"type":"function","name":"votingPeriod","inputs":[],"outputs":[{"name":"","type":"uint256","internalType":"uint256"}],"stateMutability":"view"},{"type":"event","name":"EIP712DomainChanged","inputs":[],"anonymous":false},{"type":"event","name":"MultiChoiceProposalCreated","inputs":[{"name":"proposalId","type":"uint256","indexed":true,"internalType":"uint256"},{"name":"proposer","type":"address","indexed":true,"internalType":"address"},{"name":"numOptions","type":"uint8","indexed":false,"internalType":"uint8"},{"name":"description","type":"string","indexed":false,"internalType":"string"}],"anonymous":false},{"type":"event","name":"MultiChoiceVoteCast","inputs":[{"name":"proposalId","type":"uint256","indexed":true,"internalType":"uint256"},{"name":"voter","type":"address","indexed":true,"internalType":"address"},{"name":"weights","type":"uint256[]","indexed":false,"internalType":"uint256[]"},{"name":"totalWeight","type":"uint256","indexed":false,"internalType":"uint256"},{"name":"reason","type":"string","indexed":false,"internalType":"string"}],"anonymous":false},{"type":"event","name":"MultiCounterUpdated","inputs":[{"name":"oldCounter","type":"address","indexed":true,"internalType":"address"},{"name":"newCounter","type":"address","indexed":true,"internalType":"address"}],"anonymous":false},{"type":"event","name":"ProposalCanceled","inputs":[{"name":"proposalId","type":"uint256","indexed":false,"internalType":"uint256"}],"anonymous":false},{"type":"event","name":"ProposalCreated","inputs":[{"name":"proposalId","type":"uint256","indexed":false,"internalType":"uint256"},{"name":"proposer","type":"address","indexed":false,"internalType":"address"},{"name":"targets","type":"address[]","indexed":false,"internalType":"address[]"},{"name":"values","type":"uint256[]","indexed":false,"internalType":"uint256[]"},{"name":"signatures","type":"string[]","indexed":false,"internalType":"string[]"},{"name":"calldatas","type":"bytes[]","indexed":false,"internalType":"bytes[]"},{"name":"voteStart","type":"uint256","indexed":false,"internalType":"uint256"},{"name":"voteEnd","type":"uint256","indexed":false,"internalType":"uint256"},{"name":"description","type":"string","indexed":false,"internalType":"string"}],"anonymous":false},{"type":"event","name":"ProposalExecuted","inputs":[{"name":"proposalId","type":"uint256","indexed":false,"internalType":"uint256"}],"anonymous":false},{"type":"event","name":"ProposalQueued","inputs":[{"name":"proposalId","type":"uint256","indexed":false,"internalType":"uint256"},{"name":"etaSeconds","type":"uint256","indexed":false,"internalType":"uint256"}],"anonymous":false},{"type":"event","name":"ProposalThresholdSet","inputs":[{"name":"oldProposalThreshold","type":"uint256","indexed":false,"internalType":"uint256"},{"name":"newProposalThreshold","type":"uint256","indexed":false,"internalType":"uint256"}],"anonymous":false},{"type":"event","name":"QuorumNumeratorUpdated","inputs":[{"name":"oldQuorumNumerator","type":"uint256","indexed":false,"internalType":"uint256"},{"name":"newQuorumNumerator","type":"uint256","indexed":false,"internalType":"uint256"}],"anonymous":false},{"type":"event","name":"TimelockChange","inputs":[{"name":"oldTimelock","type":"address","indexed":false,"internalType":"address"},{"name":"newTimelock","type":"address","indexed":false,"internalType":"address"}],"anonymous":false},{"type":"event","name":"VoteCast","inputs":[{"name":"voter","type":"address","indexed":true,"internalType":"address"},{"name":"proposalId","type":"uint256","indexed":false,"internalType":"uint256"},{"name":"support","type":"uint8","indexed":false,"internalType":"uint8"},{"name":"weight","type":"uint256","indexed":false,"internalType":"uint256"},{"name":"reason","type":"string","indexed":false,"internalType":"string"}],"anonymous":false},{"type":"event","name":"VoteCastWithParams","inputs":[{"name":"voter","type":"address","indexed":true,"internalType":"address"},{"name":"proposalId","type":"uint256","indexed":false,"internalType":"uint256"},{"name":"support","type":"uint8","indexed":false,"internalType":"uint8"},{"name":"weight","type":"uint256","indexed":false,"internalType":"uint256"},{"name":"reason","type":"string","indexed":false,"internalType":"string"},{"name":"params","type":"bytes","indexed":false,"internalType":"bytes"}],"anonymous":false},{"type":"event","name":"VotingDelaySet","inputs":[{"name":"oldVotingDelay","type":"uint256","indexed":false,"internalType":"uint256"},{"name":"newVotingDelay","type":"uint256","indexed":false,"internalType":"uint256"}],"anonymous":false},{"type":"event","name":"VotingPeriodSet","inputs":[{"name":"oldVotingPeriod","type":"uint256","indexed":false,"internalType":"uint256"},{"name":"newVotingPeriod","type":"uint256","indexed":false,"internalType":"uint256"}],"anonymous":false},{"type":"error","name":"CheckpointUnorderedInsertion","inputs":[]},{"type":"error","name":"FailedCall","inputs":[]},{"type":"error","name":"GovernorAlreadyCastVote","inputs":[{"name":"voter","type":"address","internalType":"address"}]},{"type":"error","name":"GovernorAlreadyQueuedProposal","inputs":[{"name":"proposalId","type":"uint256","internalType":"uint256"}]},{"type":"error","name":"GovernorDisabledDeposit","inputs":[]},{"type":"error","name":"GovernorInsufficientProposerVotes","inputs":[{"name":"proposer","type":"address","internalType":"address"},{"name":"votes","type":"uint256","internalType":"uint256"},{"name":"threshold","type":"uint256","internalType":"uint256"}]},{"type":"error","name":"GovernorInvalidProposalLength","inputs":[{"name":"targets","type":"uint256","internalType":"uint256"},{"name":"calldatas","type":"uint256","internalType":"uint256"},{"name":"values","type":"uint256","internalType":"uint256"}]},{"type":"error","name":"GovernorInvalidQuorumFraction","inputs":[{"name":"quorumNumerator","type":"uint256","internalType":"uint256"},{"name":"quorumDenominator","type":"uint256","internalType":"uint256"}]},{"type":"error","name":"GovernorInvalidSignature","inputs":[{"name":"voter","type":"address","internalType":"address"}]},{"type":"error","name":"GovernorInvalidVoteParams","inputs":[]},{"type":"error","name":"GovernorInvalidVoteType","inputs":[]},{"type":"error","name":"GovernorInvalidVotingPeriod","inputs":[{"name":"votingPeriod","type":"uint256","internalType":"uint256"}]},{"type":"error","name":"GovernorNonexistentProposal","inputs":[{"name":"proposalId","type":"uint256","internalType":"uint256"}]},{"type":"error","name":"GovernorNotQueuedProposal","inputs":[{"name":"proposalId","type":"uint256","internalType":"uint256"}]},{"type":"error","name":"GovernorOnlyExecutor","inputs":[{"name":"account","type":"address","internalType":"address"}]},{"type":"error","name":"GovernorQueueNotImplemented","inputs":[]},{"type":"error","name":"GovernorRestrictedProposer","inputs":[{"name":"proposer","type":"address","internalType":"address"}]},{"type":"error","name":"GovernorUnableToCancel","inputs":[{"name":"proposalId","type":"uint256","internalType":"uint256"},{"name":"account","type":"address","internalType":"address"}]},{"type":"error","name":"GovernorUnexpectedProposalState","inputs":[{"name":"proposalId","type":"uint256","internalType":"uint256"},{"name":"current","type":"uint8","internalType":"enum IGovernor.ProposalState"},{"name":"expectedStates","type":"bytes32","internalType":"bytes32"}]},{"type":"error","name":"InsufficientVotingPower","inputs":[{"name":"voter","type":"address","internalType":"address"},{"name":"required","type":"uint256","internalType":"uint256"},{"name":"actual","type":"uint256","internalType":"uint256"}]},{"type":"error","name":"InvalidAccountNonce","inputs":[{"name":"account","type":"address","internalType":"address"},{"name":"currentNonce","type":"uint256","internalType":"uint256"}]},{"type":"error","name":"InvalidOptionsCount","inputs":[{"name":"options","type":"uint8","internalType":"uint8"}]},{"type":"error","name":"InvalidShortString","inputs":[]},{"type":"error","name":"MultiChoiceNotEnabled","inputs":[{"name":"proposalId","type":"uint256","internalType":"uint256"}]},{"type":"error","name":"ProposalNotActive","inputs":[{"name":"proposalId","type":"uint256","internalType":"uint256"},{"name":"state","type":"uint8","internalType":"uint8"}]},{"type":"error","name":"SafeCastOverflowedUintDowncast","inputs":[{"name":"bits","type":"uint8","internalType":"uint8"},{"name":"value","type":"uint256","internalType":"uint256"}]},{"type":"error","name":"StringTooLong","inputs":[{"name":"str","type":"string","internalType":"string"}]}],"bytecode":{"object":"0x61018060405234620000b457620000206200001962000154565b90620001c2565b604051614a81908162000b83823960805181614578015260a0518161462d015260c05181614549015260e051816145c7015261010051816145ed0152610120518161169e015261014051816116ca0152610160518181816119a801528181611feb015281816121b8015281816122430152818161246601528181612a7a01528181612e0f0152818161383e01526144e90152f35b5f80fd5b634e487b7160e01b5f52604160045260245ffd5b604081019081106001600160401b03821117620000e857604052565b620000b8565b60c081019081106001600160401b03821117620000e857604052565b601f909101601f19168101906001600160401b03821190821017620000e857604052565b604051906200013d82620000cc565b565b51906001600160a01b0382168203620000b457565b62005644906040823803928382519485926200017182856200010a565b833981010312620000b4576200019560206200018d846200013f565b93016200013f565b90565b60405190620001a782620000cc565b600d8252565b60405190620001bc82620000cc565b60018252565b6200013d916001600160a01b03918290620002a2620001e062000198565b602081016c29b434b33a23b7bb32b93737b960991b815262000201620001ad565b906020820190603160f81b82526200021984620006d7565b610120526200022883620007da565b6101405283519020918260e05251902080610100524660a0526040519060208201927f8b73c3c69bb8fe3d512ecc4cf759cc79239f7b179b0ffacaa9a75d522b39400f8452604083015260608201524660808201523060a082015260a081526200029281620000ee565b5190206080523060c05262000413565b620002ac620005f7565b620002b662000647565b620002c06200069f565b1661016052620002cf62000558565b1662000509565b90600182811c9216801562000306575b6020831014620002f257565b634e487b7160e01b5f52602260045260245ffd5b91607f1691620002e6565b601f81116200031e575050565b60035f5260205f20906020601f840160051c830193106200035b575b601f0160051c01905b8181106200034f575050565b5f815560010162000343565b90915081906200033a565b601f811162000373575050565b5f805260205f20906020601f840160051c83019310620003af575b601f0160051c01905b818110620003a3575050565b5f815560010162000397565b90915081906200038e565b90601f8211620003c8575050565b60019160015f5260205f20906020601f840160051c8301931062000408575b601f0160051c01905b818110620003fd57505050565b5f81558201620003f0565b9091508190620003e7565b80519091906001600160401b038111620000e8576200043f8162000439600354620002d6565b62000311565b602080601f831160011462000484575081906200047393945f9262000478575b50508160011b915f199060031b1c19161790565b600355565b015190505f806200045f565b60035f52601f198316949091907fc2575a0e9e593c00f959f8c92f12db2869c3395a3b0502d05e2516446f71f85b925f905b878210620004f0575050836001959610620004d7575b505050811b01600355565b01515f1960f88460031b161c191690555f8080620004cc565b80600185968294968601518155019501930190620004b6565b600b547f08f74ea46ef7894f65eabfb5e6e695de773a000b47c529ab559178069b226401604060018060a01b038094169381519084168152846020820152a16001600160a01b03191617600b55565b600a5480620005a457505f805160206200562483398151915260405f5b6200058962000583620008e2565b62000a7f565b505081516001600160d01b03909116815260046020820152a1565b5f19908082810111620005e357600a5f52015f805160206200560483398151915201545f80516020620056248339815191529060409060301c62000575565b634e487b7160e01b5f52601160045260245ffd5b6008546040519065ffffffffffff811682527fc565b045403dc03c2eea82b81a0465edad9e2e7fc4d97e11421c209da93d7a9360406201518093846020820152a165ffffffffffff191617600855565b680697800000000000006008547f7e3f7f0708a84de9203036abaa450dccc85ad5ff52f78c170f3edb55cf5e88286040805163ffffffff8460301c168152620697806020820152a163ffffffff60301b191617600855565b7fccb45da8d5717e6c4544694297c4ba5cf151d455c9bb0ed4fc7a38411bc05461604060075481519081525f6020820152a15f600755565b90815160208082105f14620006f457505090620001959062000991565b6001600160401b038211620000e8576200071a82620007145f54620002d6565b62000366565b602090601f831160011462000754575081906200074d93945f92620004785750508160011b915f199060031b1c19161790565b5f5560ff90565b5f8052601f198316949091907f290decd9548b62a8d60345a988386fc84ba6bc95484008f6362f93160ef3e563925f905b878210620007c1575050836001959610620007a8575b505050811b015f5560ff90565b01515f1960f88460031b161c191690555f80806200079b565b8060018596829496860151815501950193019062000785565b908151602090602081105f14620007f957505090620001959062000991565b6001600160401b038111620000e85760019162000822826200081c8554620002d6565b620003ba565b602090601f83116001146200085d57508190620008569394955f92620004785750508160011b915f199060031b1c19161790565b905560ff90565b60015f52601f198316959091907fb10e2d527612073b26eecdfd717e6a320cf44b4afac2b0732d9fcbe2b7fa0cf6925f905b888210620008ca5750508385969710620008b1575b505050811b01905560ff90565b01515f1960f88460031b161c191690555f8080620008a4565b8087859682949686015181550195019301906200088f565b610160516040516324776b7d60e21b815290602090829060049082906001600160a01b03165afa5f918162000924575b50620001955750620001954362000b4f565b9091506020813d60201162000965575b8162000943602093836200010a565b81010312620000b4575165ffffffffffff81168103620000b457905f62000912565b3d915062000934565b60208151910151906020811062000983575090565b5f199060200360031b1b1690565b601f815111620009ac57620009a6816200096e565b90511790565b6040519063305a27a960e01b82528160208060048301528251908160248401525f935b828510620009f2575050604492505f838284010152601f80199101168101030190fd5b8481018201518686016044015293810193859350620009cf565b5f19810191908211620005e357565b600a5468010000000000000000811015620000e8576001810180600a5581101562000a6b57600a5f5260205f20019065ffffffffffff81511690602065ffffffffffff1991015160301b16179055565b634e487b7160e01b5f52603260045260245ffd5b600a54801562000b345762000a9862000aaf9162000a0c565b600a5f525f80516020620056048339815191520190565b80549165ffffffffffff80821690841681811162000b22570362000aed5750805465ffffffffffff1666040000000000001790555b60301c90600490565b62000b1c915062000b0f62000b016200012e565b65ffffffffffff9092168252565b6004602082015262000a1b565b62000ae4565b604051632520601d60e01b8152600490fd5b5062000b489062000b0f62000b016200012e565b5f90600490565b65ffffffffffff9081811162000b63571690565b604490604051906306dfcc6560e41b8252603060048301526024820152fdfe60806040526004361015610022575b3615610018575f80fd5b610020612e5b565b005b5f3560e01c806301ffc9a7146103bc57806302a251a3146103b757806306f3f9e6146103b257806306fdde03146103ad578063143489d0146103a8578063150b7a02146103a3578063160cbed71461039e578063201e0030146103995780632656227d146103945780632d63f6931461038f5780632fe3e2611461038a5780633932abb1146103855780633cb455f7146103805780633e4f49e61461037b5780634385963214610376578063452115d6146103715780634bf5d7e91461036c578063544ffc9c1461036757806354710b0f1461036257806354fd4d501461035d57806356781388146103585780635b8d0e0d146103535780635f398a141461034e57806360c4247f146103495780636152ec311461034457806366db3eaf1461033f578063790518871461033a5780637b3c71d3146103355780637d5e81e2146103305780637ecebe001461032b57806384b0196e146103265780638d7169c7146103215780638ff262e31461031c57806391ddadf41461031757806397c3d334146103125780639a802a6d1461030d578063a7713a7014610308578063a890c91014610303578063a8f8a668146102db578063a9a95294146102fe578063ab58fb8e146102f9578063b58131b0146102f4578063bc197c81146102ef578063c01f9e37146102ea578063c041f214146102e5578063c28bc2fa146102e0578063c59057e4146102db578063d33219b4146102d6578063dd4e2ba5146102d1578063deaaa7cc146102cc578063e540d01d146102c7578063e947708a146102c2578063eb9019d4146102bd578063ece40cc1146102b8578063f23a6e61146102b3578063f4bd34ca146102ae578063f8ce560a146102a95763fc0c546a0361000e57612224565b612181565b612108565b612083565b61202e565b611f8f565b611efc565b611e3d565b611e03565b611da6565b611d80565b611ab8565b611ced565b611c19565b611bfb565b611b42565b611b25565b611af0565b611ad4565b611a36565b611a0b565b611938565b61191d565b6118f3565b6117d7565b611762565b611686565b61164a565b6115c1565b61156b565b6114f9565b6114be565b611498565b61147a565b61140a565b611381565b611305565b611288565b61125b565b611210565b6111e1565b61112b565b6110d5565b6110a8565b611049565b611024565b610fea565b610fb5565b610e11565b610dde565b610b01565b61088d565b61070d565b61062d565b6104f3565b6104cd565b346104bf5760203660031901126104bf576004357fffffffff0000000000000000000000000000000000000000000000000000000081168091036104bf57807fcdbdfcee0000000000000000000000000000000000000000000000000000000060209214908115610495575b811561046b575b8115610441575b506040519015158152f35b7f01ffc9a7000000000000000000000000000000000000000000000000000000009150145f610436565b7f4e2312e0000000000000000000000000000000000000000000000000000000008114915061042f565b7f65455a860000000000000000000000000000000000000000000000000000000081149150610428565b5f80fd5b5f9103126104bf57565b346104bf575f3660031901126104bf57602063ffffffff60085460301c16604051908152f35b346104bf5760203660031901126104bf5760043561050f612e6f565b6064811161059b576001600160d01b03908161052961387f565b16610532612a44565b9280831161057c577f0553476bf02ef2726e8ce5ced78d63e26e602e4a2257b1f559418e24b463399793610568918416906143be565b5050604080519182526020820192909252a1005b604483604051906306dfcc6560e41b825260d060048301526024820152fd5b604490604051907f243e5445000000000000000000000000000000000000000000000000000000008252600482015260646024820152fd5b5f5b8381106105e45750505f910152565b81810151838201526020016105d5565b9060209161060d815180928185528580860191016105d3565b601f01601f1916010190565b90602061062a9281815201906105f4565b90565b346104bf575f3660031901126104bf576040515f60035461064d81612267565b808452906020906001908181169081156106e3575060011461068a575b6106868561067a818703826107ef565b60405191829182610619565b0390f35b60035f90815293507fc2575a0e9e593c00f959f8c92f12db2869c3395a3b0502d05e2516446f71f85b5b8385106106d05750505050810160200161067a8261068661066a565b80548686018401529382019381016106b4565b8695506106869693506020925061067a94915060ff191682840152151560051b820101929361066a565b346104bf5760203660031901126104bf576004355f52600460205260206001600160a01b0360405f205416604051908152f35b6001600160a01b038116036104bf57565b634e487b7160e01b5f52604160045260245ffd5b67ffffffffffffffff811161077957604052565b610751565b6040810190811067ffffffffffffffff82111761077957604052565b6020810190811067ffffffffffffffff82111761077957604052565b60c0810190811067ffffffffffffffff82111761077957604052565b610100810190811067ffffffffffffffff82111761077957604052565b90601f8019910116810190811067ffffffffffffffff82111761077957604052565b6040519061081e8261077e565b565b67ffffffffffffffff811161077957601f01601f191660200190565b92919261084882610820565b9161085660405193846107ef565b8294818452818301116104bf578281602093845f960137010152565b9080601f830112156104bf5781602061062a9335910161083c565b346104bf5760803660031901126104bf576108a9600435610740565b6108b4602435610740565b60643567ffffffffffffffff81116104bf576108d4903690600401610872565b506001600160a01b03600b54163003610912576040517f150b7a02000000000000000000000000000000000000000000000000000000008152602090f35b60046040517fe90a651e000000000000000000000000000000000000000000000000000000008152fd5b67ffffffffffffffff81116107795760051b60200190565b9080601f830112156104bf57602090823561096e8161093c565b9361097c60405195866107ef565b81855260208086019260051b8201019283116104bf57602001905b8282106109a5575050505090565b83809183356109b381610740565b815201910190610997565b9080601f830112156104bf5760209082356109d88161093c565b936109e660405195866107ef565b81855260208086019260051b8201019283116104bf57602001905b828210610a0f575050505090565b81358152908301908301610a01565b81601f820112156104bf57803591602091610a388461093c565b93610a4660405195866107ef565b808552838086019160051b830101928084116104bf57848301915b848310610a715750505050505090565b823567ffffffffffffffff81116104bf578691610a9384848094890101610872565b815201920191610a61565b60806003198201126104bf5767ffffffffffffffff916004358381116104bf5782610acb91600401610954565b926024358181116104bf5783610ae3916004016109be565b926044359182116104bf57610afa91600401610a1e565b9060643590565b346104bf57610b0f36610a9e565b610b1d818385879697612bee565b92610b2784612f18565b50610b49610b3d600b546001600160a01b031690565b6001600160a01b031690565b926040958651937ff27a0c9200000000000000000000000000000000000000000000000000000000855260209081866004818a5afa958615610d5a575f96610d8c575b506bffffffffffffffffffffffff193060601b16189581895180927fb1c5f4270000000000000000000000000000000000000000000000000000000082528180610bdc8c8a8a8d6004860161396a565b03915afa918215610d5a575f92610d5f575b5050610c02875f52600c60205260405f2090565b55610c18610b3d600b546001600160a01b031690565b90813b156104bf575f8094610c5c878b51998a97889687957f8f2a0bb0000000000000000000000000000000000000000000000000000000008752600487016139af565b03925af1908115610d5a57610c8092610c7b92610d41575b50426134bd565b613f82565b65ffffffffffff811615610d1857917f9a2e42fd6722813d69113e7d0079d3d940171428df7373df9c7f7617cfda2892610d0784610ce9610686966001610ccf885f52600460205260405f2090565b019065ffffffffffff1665ffffffffffff19825416179055565b835185815265ffffffffffff90911660208201529081906040820190565b0390a1519081529081906020820190565b600483517f90884a46000000000000000000000000000000000000000000000000000000008152fd5b80610d4e610d5492610765565b806104c3565b5f610c74565b61232f565b610d7e9250803d10610d85575b610d7681836107ef565b81019061276e565b5f80610bee565b503d610d6c565b610da4919650823d8411610d8557610d7681836107ef565b945f610b8c565b9081518082526020808093019301915f5b828110610dca575050505090565b835185529381019392810192600101610dbc565b346104bf5760203660031901126104bf57610686610dfd60043561233a565b604051918291602083526020830190610dab565b610e1a36610a9e565b610e28818385879597612bee565b92610e3284612f6a565b50610e91610e48855f52600460205260405f2090565b7e010000000000000000000000000000000000000000000000000000000000007fff00ffffffffffffffffffffffffffffffffffffffffffffffffffffffffffff825416179055565b6001600160a01b039283600b54163003610f50575b94610eb6929161068696866139fc565b610ecb3091600b54166001600160a01b031690565b141580610f22575b610f14575b6040518181527f712ae1383f79ac853f8d882153778e0260ef8f03b504e2866e0593e04d2b291f90602090a16040519081529081906020820190565b610f1d5f600555565b610ed8565b50610f4b610f476005546fffffffffffffffffffffffffffffffff81169060801c1490565b1590565b610ed3565b929093915f5b8451811015610fab5760019030610f80610b3d610f73848a6123cd565b516001600160a01b031690565b14610f8c575b01610f56565b610fa6610f99828a6123cd565b5160208151910120612fbc565b610f86565b5091939092610ea6565b346104bf5760203660031901126104bf576004355f526004602052602065ffffffffffff60405f205460a01c16604051908152f35b346104bf575f3660031901126104bf5760206040517f3e83946653575f9a39005e1545185629e92736b7528ab20ca3816f315424a8118152f35b346104bf575f3660031901126104bf57602065ffffffffffff60085416604051908152f35b346104bf5760203660031901126104bf576004355f52600d602052602060ff60405f2054161515604051908152f35b634e487b7160e01b5f52602160045260245ffd5b6008111561109657565b611078565b9060088210156110965752565b346104bf5760203660031901126104bf5760206110c660043561303d565b6110d3604051809261109b565bf35b346104bf5760403660031901126104bf57602060ff61111f6024356110f981610740565b6004355f5260098452600360405f2001906001600160a01b03165f5260205260405f2090565b54166040519015158152f35b346104bf5761113936610a9e565b9261114984838584969596612bee565b6111528161303d565b60088110156110965715806111c3575b156111865761068661117686868686613bc2565b6040519081529081906020820190565b6040517f8fe5d8a90000000000000000000000000000000000000000000000000000000081526004810191909152336024820152604490fd5b0390fd5b50805f5260046020526001600160a01b0360405f2054163314611162565b346104bf575f3660031901126104bf576106866111fc612431565b6040519182916020835260208301906105f4565b346104bf5760203660031901126104bf576004355f52600960205260405f20805461068660026001840154930154604051938493846040919493926060820195825260208201520152565b346104bf5760203660031901126104bf576004355f52600d602052602060ff60405f205416604051908152f35b346104bf575f3660031901126104bf576106866040516112a78161077e565b600181527f310000000000000000000000000000000000000000000000000000000000000060208201526040519182916020835260208301906105f4565b6024359060ff821682036104bf57565b6084359060ff821682036104bf57565b346104bf5760403660031901126104bf57602061134b6113236112e5565b60405161132f8161079a565b5f81526040519161133f8361079a565b5f8352336004356131f8565b604051908152f35b9181601f840112156104bf5782359167ffffffffffffffff83116104bf57602083818601950101116104bf57565b346104bf5760c03660031901126104bf5761139a6112e5565b604435906113a782610740565b67ffffffffffffffff906064358281116104bf576113c9903690600401611353565b6084358481116104bf576113e1903690600401610872565b9160a4359485116104bf5761068695611401611176963690600401610872565b94600435612519565b346104bf5760803660031901126104bf576114236112e5565b67ffffffffffffffff906044358281116104bf57611445903690600401611353565b90916064359384116104bf5761147061134b936114686020963690600401610872565b93369161083c565b90336004356131f8565b346104bf5760203660031901126104bf57602061134b600435613310565b346104bf575f3660031901126104bf5760206001600160a01b03600e5416604051908152f35b346104bf5760403660031901126104bf57610686610dfd6024356114e181610740565b600435612612565b65ffffffffffff8116036104bf57565b346104bf5760203660031901126104bf57600435611516816114e9565b61151e612e6f565b6008547fc565b045403dc03c2eea82b81a0465edad9e2e7fc4d97e11421c209da93d7a93604065ffffffffffff81519481851686521693846020820152a165ffffffffffff191617600855005b346104bf5760603660031901126104bf576115846112e5565b60443567ffffffffffffffff81116104bf576020916115b46115ad61134b933690600401611353565b369161083c565b6040519161133f8361079a565b346104bf5760803660031901126104bf5767ffffffffffffffff6004358181116104bf576115f3903690600401610954565b906024358181116104bf5761160c9036906004016109be565b916044358281116104bf57611625903690600401610a1e565b6064359283116104bf5761068693611644611176943690600401610872565b9261269d565b346104bf5760203660031901126104bf576001600160a01b0360043561166f81610740565b165f526002602052602060405f2054604051908152f35b346104bf575f3660031901126104bf576117346116c27f00000000000000000000000000000000000000000000000000000000000000006140b7565b6106866116ee7f00000000000000000000000000000000000000000000000000000000000000006141cc565b6117426116f961229f565b916040519586957f0f00000000000000000000000000000000000000000000000000000000000000875260e0602088015260e08701906105f4565b9085820360408701526105f4565b904660608501523060808501525f60a085015283820360c0850152610dab565b346104bf5760603660031901126104bf5760243567ffffffffffffffff8082116104bf57366023830112156104bf578160040135918183116104bf573660248460051b830101116104bf576044359182116104bf57610020926117cb6024933690600401611353565b93909201600435612849565b346104bf5760803660031901126104bf576004356117f36112e5565b906044359161180183610740565b60643567ffffffffffffffff81116104bf57610f476118276118b7923690600401610872565b6118b161184e876001600160a01b03165f52600260205260405f2080549060018201905590565b60405160208101917ff2aad550cf55f045cb27e9c559f9889fdfb6e6cdaa032301d6ea397784ae51d7835288604083015260ff881660608301526001600160a01b038a16608083015260a082015260a081526118a9816107b6565b519020613d4a565b86613d95565b6118d2579061117691610686936118cc6123e6565b9261317d565b6040516394ab6c0760e01b81526001600160a01b0384166004820152602490fd5b346104bf575f3660031901126104bf57602061190d612a44565b65ffffffffffff60405191168152f35b346104bf575f3660031901126104bf57602060405160648152f35b346104bf5760603660031901126104bf5760043561195581610740565b60443567ffffffffffffffff81116104bf5760449161197a6020923690600401610872565b506001600160a01b039283916040519485938492630748d63560e31b845216600483015260243560248301527f0000000000000000000000000000000000000000000000000000000000000000165afa8015610d5a57610686915f916119ec575b506040519081529081906020820190565b611a05915060203d602011610d8557610d7681836107ef565b5f6119db565b346104bf575f3660031901126104bf5760206001600160d01b03611a2d61387f565b16604051908152f35b346104bf5760203660031901126104bf57600435611a5381610740565b611a5b612e6f565b73ffffffffffffffffffffffffffffffffffffffff19600b547f08f74ea46ef7894f65eabfb5e6e695de773a000b47c529ab559178069b22640160406001600160a01b038095169481519084168152856020820152a11617600b55005b346104bf57602061134b611acb36610a9e565b92919091612bee565b346104bf5760203660031901126104bf57602060405160018152f35b346104bf5760203660031901126104bf576004355f526004602052602065ffffffffffff600160405f20015416604051908152f35b346104bf575f3660031901126104bf576020600754604051908152f35b346104bf5760a03660031901126104bf57611b5e600435610740565b611b69602435610740565b67ffffffffffffffff6044358181116104bf57611b8a9036906004016109be565b506064358181116104bf57611ba39036906004016109be565b506084359081116104bf57611bbc903690600401610872565b50610686611bc8612af0565b6040517fffffffff0000000000000000000000000000000000000000000000000000000090911681529081906020820190565b346104bf5760203660031901126104bf57602061134b600435612b26565b346104bf5760203660031901126104bf57600435611c3681610740565b600e546001600160a01b03808216611c8f5773ffffffffffffffffffffffffffffffffffffffff1992169182911617600e555f7f1462fe68e3738bf59facfeb29937768edcbb993311ae3011102bf10f570d256d8180a3005b60646040517f08c379a000000000000000000000000000000000000000000000000000000000815260206004820152601360248201527f416c726561647920696e697469616c697a6564000000000000000000000000006044820152fd5b60603660031901126104bf57600435611d0581610740565b6044359067ffffffffffffffff82116104bf575f8091611d2c610020943690600401611353565b90611d35612e6f565b81604051928392833781018481520391602435905af13d15611d78573d90611d5c82610820565b91611d6a60405193846107ef565b82523d5f602084013e6138c3565b6060906138c3565b346104bf575f3660031901126104bf5760206001600160a01b03600b5416604051908152f35b346104bf575f3660031901126104bf57610686604051611dc58161077e565b602081527f737570706f72743d627261766f2671756f72756d3d666f722c6162737461696e60208201526040519182916020835260208301906105f4565b346104bf575f3660031901126104bf5760206040517ff2aad550cf55f045cb27e9c559f9889fdfb6e6cdaa032301d6ea397784ae51d78152f35b346104bf5760203660031901126104bf5760043563ffffffff808216918281036104bf57611e69612e6f565b8215611ecc577f7e3f7f0708a84de9203036abaa450dccc85ad5ff52f78c170f3edb55cf5e8828604069ffffffff00000000000093600854958251918760301c1682526020820152a160301b169069ffffffff0000000000001916176008555f80f35b60246040517ff1cfbf050000000000000000000000000000000000000000000000000000000081525f6004820152fd5b346104bf5760a03660031901126104bf5767ffffffffffffffff6004358181116104bf57611f2e903690600401610954565b906024358181116104bf57611f479036906004016109be565b916044358281116104bf57611f60903690600401610a1e565b926064359283116104bf5761068693611f80611176943690600401610872565b91611f896112f5565b93612c6c565b346104bf5760403660031901126104bf5760446020600435611fb081610740565b5f604051611fbd8161079a565b526001600160a01b039283916040519485938492630748d63560e31b845216600483015260243560248301527f0000000000000000000000000000000000000000000000000000000000000000165afa8015610d5a57610686915f916119ec57506040519081529081906020820190565b346104bf5760203660031901126104bf5760043561204a612e6f565b60075460408051918252602082018390527fccb45da8d5717e6c4544694297c4ba5cf151d455c9bb0ed4fc7a38411bc0546191a1600755005b346104bf5760a03660031901126104bf5761209f600435610740565b6120aa602435610740565b60843567ffffffffffffffff81116104bf576120ca903690600401610872565b506001600160a01b03600b54163003610912576040517ff23a6e61000000000000000000000000000000000000000000000000000000008152602090f35b346104bf5760203660031901126104bf5760043561212581610740565b61212d612e6f565b600e54906001600160a01b03809116918273ffffffffffffffffffffffffffffffffffffffff19821617600e55167f1462fe68e3738bf59facfeb29937768edcbb993311ae3011102bf10f570d256d5f80a3005b346104bf5760203660031901126104bf57600435604051632394e7a360e21b81528160048201526020816024816001600160a01b037f0000000000000000000000000000000000000000000000000000000000000000165afa8015610d5a5761068692611176925f926121ff575b506121f990613310565b906142a8565b6121f991925061221d9060203d602011610d8557610d7681836107ef565b91906121ef565b346104bf575f3660031901126104bf5760206040516001600160a01b037f0000000000000000000000000000000000000000000000000000000000000000168152f35b90600182811c92168015612295575b602083101461228157565b634e487b7160e01b5f52602260045260245ffd5b91607f1691612276565b6040516122ab8161079a565b5f8152905f368137565b60209081818403126104bf5780519067ffffffffffffffff82116104bf57019180601f840112156104bf5782516122eb8161093c565b936122f960405195866107ef565b818552838086019260051b8201019283116104bf578301905b828210612320575050505090565b81518152908301908301612312565b6040513d5f823e3d90fd5b6001600160a01b03600e54169081156123af575f906024604051809481937f16c500cd00000000000000000000000000000000000000000000000000000000835260048301525afa908115610d5a575f91612393575090565b61062a91503d805f833e6123a781836107ef565b8101906122b5565b505061062a61229f565b634e487b7160e01b5f52603260045260245ffd5b80518210156123e15760209160051b010190565b6123b9565b604051906123f38261079a565b5f8252565b604051906124058261077e565b601d82527f6d6f64653d626c6f636b6e756d6265722666726f6d3d64656661756c740000006020830152565b6040517f4bf5d7e90000000000000000000000000000000000000000000000000000000081525f816004816001600160a01b037f0000000000000000000000000000000000000000000000000000000000000000165afa5f918161249e575b5061062a575061062a6123f8565b9091503d805f833e6124b081836107ef565b8101906020818303126104bf5780519067ffffffffffffffff82116104bf570181601f820112156104bf5780516124e681610820565b926124f460405194856107ef565b818452602082840101116104bf5761251291602080850191016105d3565b905f612490565b939092919695610f476125d6916125d087878c8b612538368a8c61083c565b6001600160a01b03612564846001600160a01b03165f52600260205260405f2080549060018201905590565b916020815191012092602081519101209360ff6040519660208801987f3e83946653575f9a39005e1545185629e92736b7528ab20ca3816f315424a8118a52604089015216606087015216608085015260a084015260c083015260e082015260e081526118a9816107d2565b8a613d95565b6125f15761062a9596916125eb91369161083c565b926131f8565b6040516394ab6c0760e01b81526001600160a01b0388166004820152602490fd5b6001600160a01b03600e541691821561267e576040517f78bbd8fa00000000000000000000000000000000000000000000000000000000815260048101929092526001600160a01b03166024820152905f90829060449082905afa908115610d5a575f91612393575090565b50505061062a61229f565b634e487b7160e01b5f52601160045260245ffd5b91939290936126ac823361341c565b1561273e5760075494856126c8575b61062a94955033936135e2565b65ffffffffffff5f19816126da612a44565b160190808211612739576126ef911633612dd3565b8681106126fc57506126bb565b60649087604051917fc242ee1600000000000000000000000000000000000000000000000000000000835233600484015260248301526044820152fd5b612689565b60246040517fd9b39557000000000000000000000000000000000000000000000000000000008152336004820152fd5b908160209103126104bf575190565b90918281527f07ffffffffffffffffffffffffffffffffffffffffffffffffffffffffffffff83116104bf5760209260051b809284830137010190565b908060209392818452848401375f828201840152601f01601f1916010190565b959391926001600160a01b0361280e9461062a9997938952166020880152604087015260a0606087015260a086019161277d565b9260808185039101526127ba565b906128369061062a9694959360608452606084019161277d565b93602082015260408185039101526127ba565b9290936001600160a01b03612866600e546001600160a01b031690565b16908115612a125760016128798661303d565b6128828161108c565b036129c0576128c26128bc6128b16128a2885f52600460205260405f2090565b5460a01c65ffffffffffff1690565b65ffffffffffff1690565b33612dd3565b918215612982578660209186945f8961290e878a6040519c8d98899788967f2091150d0000000000000000000000000000000000000000000000000000000088523390600489016127da565b03925af1928315610d5a577f0bec8dfbed3c930520729af2ad127776dc8d0bcfe366bf426e28ddca1a747589945f9461295b575b50906129569160405194859433998661281c565b0390a3565b6129569291945061297a9060203d602011610d8557610d7681836107ef565b939091612942565b6040517f09e915af000000000000000000000000000000000000000000000000000000008152336004820152600160248201525f6044820152606490fd5b846129ca8161303d565b906129d48261108c565b6040517f14b469ec000000000000000000000000000000000000000000000000000000008152600481019190915260ff919091166024820152604490fd5b6040517f8dc3513500000000000000000000000000000000000000000000000000000000815260048101869052602490fd5b6040517f91ddadf40000000000000000000000000000000000000000000000000000000081526020816004816001600160a01b037f0000000000000000000000000000000000000000000000000000000000000000165afa5f9181612ab3575b5061062a575061062a43613f82565b9091506020813d602011612ae8575b81612acf602093836107ef565b810103126104bf5751612ae1816114e9565b905f612aa4565b3d9150612ac2565b6001600160a01b03600b54163003610912577fbc197c810000000000000000000000000000000000000000000000000000000090565b5f52600460205260405f205465ffffffffffff908163ffffffff8260d01c169160a01c1601818111612739571690565b9081518082526020808093019301915f5b828110612b75575050505090565b83516001600160a01b031685529381019392810192600101612b67565b90808251908181526020809101926020808460051b8301019501935f915b848310612bc05750505050505090565b9091929394958480612bde600193601f198682030187528a516105f4565b9801930193019194939290612bb0565b9290612c3a92612c4c92604051948592612c2a612c17602086019960808b5260a0870190612b56565b601f199687878303016040880152610dab565b9085858303016060860152612b92565b906080830152039081018352826107ef565b51902090565b60409060ff61062a949316815281602082015201906105f4565b94939294600260ff851610612d9f57918591612c879361269d565b8093612cae83612c9f845f52600d60205260405f2090565b9060ff1660ff19825416179055565b6001600160a01b03612cc8600e546001600160a01b031690565b1680612d03575b506129567f041a320bf2b59376f01527a8d696323df2cd25602e7e08118bd191b084276e2391604051918291339683612c52565b809192503b156104bf576040517ff009f7090000000000000000000000000000000000000000000000000000000081526004810186905260ff84166024820152905f908290604490829084905af18015610d5a5785927f041a320bf2b59376f01527a8d696323df2cd25602e7e08118bd191b084276e239261295692612d8c575b509150612ccf565b80610d4e612d9992610765565b5f612d84565b6040517f8ed0c3c800000000000000000000000000000000000000000000000000000000815260ff85166004820152602490fd5b6020905f604051612de38161079a565b5260446001600160a01b0391826040519586948593630748d63560e31b855216600484015260248301527f0000000000000000000000000000000000000000000000000000000000000000165afa908115610d5a575f91612e42575090565b61062a915060203d602011610d8557610d7681836107ef565b6001600160a01b03600b5416300361091257565b6001600160a01b03600b5416338103612ec9573003612e8a57565b612e9336610820565b612ea060405191826107ef565b3681526020810190365f83375f602036830101525190205b80612ec1613904565b03612eb85750565b60246040517f47096e47000000000000000000000000000000000000000000000000000000008152336004820152fd5b604090612f145f93959460608301968352602083019061109b565b0152565b612f218161303d565b906008821015611096576010600160ff84161b1615612f3e575090565b612f61606492604051926331b75e4d60e01b84526004840152602483019061109b565b60106044820152fd5b612f738161303d565b906008821015611096576030600160ff84161b1615612f90575090565b612fb3606492604051926331b75e4d60e01b84526004840152602483019061109b565b60306044820152fd5b6005548060801c9160018301926fffffffffffffffffffffffffffffffff80931683851614613013575f52600660205260405f20556fffffffffffffffffffffffffffffffff196005549260801b16911617600555565b634e487b715f5260416020526024601cfd5b908160209103126104bf575180151581036104bf5790565b61304681613a9d565b906130508261108c565b600582036131795761306b91505f52600c60205260405f2090565b54613081610b3d600b546001600160a01b031690565b6040517f584b153e0000000000000000000000000000000000000000000000000000000081526004810183905260209291908381602481855afa908115610d5a575f9161315c575b50156130d757505050600590565b6040517f2ab0f52900000000000000000000000000000000000000000000000000000000815260048101929092528290829060249082905afa918215610d5a575f9261312f575b50501561312a57600790565b600290565b61314e9250803d10613155575b61314681836107ef565b810190613025565b5f8061311e565b503d61313c565b6131739150843d86116131555761314681836107ef565b5f6130c9565b5090565b9161062a9391604051936131908561079a565b5f85526131f8565b93909260ff6131c49361062a97958752166020860152604085015260a0606085015260a08401906105f4565b9160808184039101526105f4565b909260ff60809361062a96958452166020830152604082015281606082015201906105f4565b929091936132058461303d565b6008811015611096576002600160ff83161b16156132e35750835f52600460205261325461324c6132466128b160405f2065ffffffffffff905460a01c1690565b85613810565b868587613e15565b9481869251155f146132a557506001600160a01b03927fb8e138887d0aa13bab447e82de9d5c1777041ecd21ca36ba824ff1e6c07ddda4949261329f926040519586951697856131d2565b0390a290565b6001600160a01b03937fe2babfbac5889a709b63bb7f598b324e08bc5a4fb9ec647fb3cbc9ec07eb8712959361329f93604051968796169886613198565b84613307606492604051926331b75e4d60e01b84526004840152602483019061109b565b60026044820152fd5b613318613f2d565b65ffffffffffff93909250908316811061333b57506001600160d01b0391501690565b6133459150613f82565b600a54905f9082600581116133b5575b5061336093506147cf565b8061336a57505f90565b6133b16133aa6133816001600160d01b0393613871565b600a5f527fc65a7bb8d6351c1cf70c95a316cc6a92839c986682d98bc35f958f4883f9d2a80190565b5460301c90565b1690565b90926133c08261468d565b82039182116127395761336094600a5f5280837fc65a7bb8d6351c1cf70c95a316cc6a92839c986682d98bc35f958f4883f9d2a8015416908516105f1461340a5750915b5f613355565b929150613416906134af565b90613404565b908051603481106134a7577f2370726f706f7365723d000000000000000000000000000000000000000000007fffffffffffffffffffff00000000000000000000000000000000000000000000601319838501015116036134a75761348691602919820190613fe0565b901591821561349457505090565b6001600160a01b03918216911614919050565b505050600190565b906001820180921161273957565b9190820180921161273957565b906134d48261093c565b6134e160405191826107ef565b82815280926134f2601f199161093c565b01905f5b82811061350257505050565b8060606020809385010152016134f6565b959261354890613556939b9a98999695926101209089526001600160a01b0360209d168d8a01528060408a0152880190612b56565b908682036060880152610dab565b9784890360808601528251808a52818a019180808360051b8d01019501925f905b8382106135b457505050505061062a9697509061359b9184820360a0860152612b92565b9360c083015260e08201526101008184039101526105f4565b909192939583806135d38f93600194601f199082030186528a516105f4565b98019201920190939291613577565b9194939092946135fa86516020880120828686612bee565b958351855190818114801590613805575b80156137fd575b6137bb57505065ffffffffffff94856136366128a28a5f52600460205260405f2090565b16613794577f7d84a6263ae0d98d3329bd7b46bb4e8d6f98cd35a7adb45c274c8b7fd5ebd5e09561378f9363ffffffff61367f613671612a44565b6008549480861691166134bd565b9260301c1661376d6136998c5f52600460205260405f2090565b805473ffffffffffffffffffffffffffffffffffffffff19166001600160a01b038a161781556137166136cb86613f82565b82547fffffffffffff000000000000ffffffffffffffffffffffffffffffffffffffff1660a09190911b79ffffffffffff000000000000000000000000000000000000000016178255565b61371f83614087565b7fffff00000000ffffffffffffffffffffffffffffffffffffffffffffffffffff7dffffffff000000000000000000000000000000000000000000000000000083549260d01b169116179055565b61378161377a89516134ca565b91846134bd565b936040519889988d8a613513565b0390a1565b8761379e8161303d565b906111bf6040519283926331b75e4d60e01b845260048401612ef9565b83516040517f447b05d0000000000000000000000000000000000000000000000000000000008152600481019290925260248201526044810191909152606490fd5b508015613612565b50835181141561360b565b60209060446001600160a01b0391826040519586948593630748d63560e31b855216600484015260248301527f0000000000000000000000000000000000000000000000000000000000000000165afa908115610d5a575f91612e42575090565b5f1981019190821161273957565b600a548061388c57505f90565b805f1981011161273957600a5f527fc65a7bb8d6351c1cf70c95a316cc6a92839c986682d98bc35f958f4883f9d2a7015460301c90565b156138cb5790565b8051156138da57602081519101fd5b60046040517fd6bda275000000000000000000000000000000000000000000000000000000008152fd5b600554906fffffffffffffffffffffffffffffffff8083169260801c831461395857825f526006602052600160405f20935f8554955501166fffffffffffffffffffffffffffffffff196005541617600555565b634e487b715f5260316020526024601cfd5b9493926139966080936139886139a49460a08a5260a08a0190612b56565b9088820360208a0152610dab565b908682036040880152612b92565b935f60608201520152565b91926139de60a0946139d06139ec949998979960c0875260c0870190612b56565b908582036020870152610dab565b908382036040850152612b92565b945f606083015260808201520152565b929093916001600160a01b03600b541690813b156104bf575f93613a64604051978895869485947fe38335e50000000000000000000000000000000000000000000000000000000086526bffffffffffffffffffffffff193060601b1618926004860161396a565b039134905af1908115610d5a575f92613a8b92613a8e575b505f52600c60205260405f2090565b55565b613a9790610765565b5f613a7c565b613aaf815f52600460205260405f2090565b5460ff8160f01c16613bbb5760f81c613bb557613ada6128b16128a2835f52600460205260405f2090565b8015613b8357613aeb6128b1612a44565b80911015613b7d57613afc82612b26565b10613b075750600190565b613b13610f47826144a6565b8015613b5a575b15613b255750600390565b6128b16001613b3f613b4c935f52600460205260405f2090565b015465ffffffffffff1690565b613b5557600490565b600590565b50613b78610f47825f52600960205260405f20600181015490541090565b613b1a565b50505f90565b6040517f6ad0607500000000000000000000000000000000000000000000000000000000815260048101839052602490fd5b50600290565b5050600790565b90613bce939291612bee565b613bd78161303d565b600881101561109657603b600160ff83161b1615613d1d5750613c4e613c05825f52600460205260405f2090565b7f01000000000000000000000000000000000000000000000000000000000000007effffffffffffffffffffffffffffffffffffffffffffffffffffffffffffff825416179055565b6040518181527f789cf55be980739dad1d0699b93b58e806b51c9d96619bfa8fe0a28abaa7b30c90602090a1613c8c815f52600c60205260405f2090565b5480613c96575090565b613cab610b3d600b546001600160a01b031690565b803b156104bf576040517fc4d252f500000000000000000000000000000000000000000000000000000000815260048101929092525f908290602490829084905af18015610d5a57613d0a575b505f818152600c602052604081205590565b80610d4e613d1792610765565b5f613cf8565b90613d41606492604051926331b75e4d60e01b84526004840152602483019061109b565b603b6044820152fd5b604290613d5561453f565b90604051917f19010000000000000000000000000000000000000000000000000000000000008352600283015260228201522090565b6004111561109657565b9091813b613dbd57613da79192614653565b50613db181613d8b565b15918261349457505090565b6020918160645f9351604051927f1626ba7e000000000000000000000000000000000000000000000000000000009788855260048501526040602485015286820190604485015e01915afa905f5114601f3d11161690565b613e2a909291925f52600960205260405f2090565b9160038301613e54613e4d8383906001600160a01b03165f5260205260405f2090565b5460ff1690565b613ef357613e7960ff9392613e8692906001600160a01b03165f5260205260405f2090565b805460ff19166001179055565b1680613e9d5750613e988282546134bd565b905590565b60018103613eb45750600101613e988282546134bd565b600203613ec957600201613e988282546134bd565b60046040517f06b337c2000000000000000000000000000000000000000000000000000000008152fd5b6040517f71c6af490000000000000000000000000000000000000000000000000000000081526001600160a01b0383166004820152602490fd5b600a5480613f3e57505f905f905f90565b805f1981011161273957600a5f527fc65a7bb8d6351c1cf70c95a316cc6a92839c986682d98bc35f958f4883f9d2a7015460019165ffffffffffff82169160301c90565b65ffffffffffff90818111613f95571690565b604490604051906306dfcc6560e41b8252603060048301526024820152fd5b908160011b918083046002149015171561273957565b908160041b918083046010149015171561273957565b80518311801561407e575b61403f57613ff8826134af565b831180614048575b61400b901515613fb4565b6028018060281161273957828403848111612739570361403f5791614039916001600160a01b039493614848565b90921690565b5050505f905f90565b50808201602001517fffff0000000000000000000000000000000000000000000000000000000000001661060f60f31b14614000565b50828211613feb565b63ffffffff90818111614098571690565b604490604051906306dfcc6560e41b8252602060048301526024820152fd5b60ff811461410d5760ff811690601f82116140e357604051916140d98361077e565b8252602082015290565b60046040517fb3512b0c000000000000000000000000000000000000000000000000000000008152fd5b506040515f815f549161411f83612267565b808352926020906001908181169081156141a8575060011461414a575b505061062a925003826107ef565b9150925f80527f290decd9548b62a8d60345a988386fc84ba6bc95484008f6362f93160ef3e563935f925b828410614190575061062a9450505081016020015f8061413c565b85548785018301529485019486945092810192614175565b9150506020925061062a94915060ff191682840152151560051b8201015f8061413c565b60ff81146141ee5760ff811690601f82116140e357604051916140d98361077e565b506040515f8160019160015461420381612267565b80845293602091600181169081156141a8575060011461422b57505061062a925003826107ef565b91509260015f527fb10e2d527612073b26eecdfd717e6a320cf44b4afac2b0732d9fcbe2b7fa0cf6935f925b828410614272575061062a9450505081016020015f8061413c565b85548785018301529485019486945092810192614257565b8115614294570490565b634e487b7160e01b5f52601260045260245ffd5b5f1982820982820291828083109203918083039214614315578160641115614303577f5c28f5c28f5c28f5c28f5c28f5c28f5c28f5c28f5c28f5c28f5c28f5c28f5c29936064910990828211900360fe1b910360021c170290565b634e487b715f5260116020526024601cfd5b5050606491500490565b600a549068010000000000000000821015610779576001820180600a558210156123e1576001600160d01b03602061081e93600a5f527fc65a7bb8d6351c1cf70c95a316cc6a92839c986682d98bc35f958f4883f9d2a8019261439f65ffffffffffff825116859065ffffffffffff1665ffffffffffff19825416179055565b0151825465ffffffffffff16911660301b65ffffffffffff1916179055565b600a54919291801561447d576133816143d691613871565b9081549165ffffffffffff908184169183168083116144535786920361441b5761441492509065ffffffffffff82549181199060301b169116179055565b60301c9190565b505061444e9061443a61442c610811565b65ffffffffffff9092168252565b6001600160d01b038516602082015261431f565b614414565b60046040517f2520601d000000000000000000000000000000000000000000000000000000008152fd5b506144a19061448d61442c610811565b6001600160d01b038416602082015261431f565b5f9190565b5f52600960205260405f20600460205265ffffffffffff60405f205460a01c16604051632394e7a360e21b81528160048201526020816024816001600160a01b037f0000000000000000000000000000000000000000000000000000000000000000165afa8015610d5a5761453a92614529925f926121ff57506121f990613310565b9160026001820154910154906134bd565b101590565b6001600160a01b037f00000000000000000000000000000000000000000000000000000000000000001630148061462a575b1561459a577f000000000000000000000000000000000000000000000000000000000000000090565b60405160208101907f8b73c3c69bb8fe3d512ecc4cf759cc79239f7b179b0ffacaa9a75d522b39400f82527f000000000000000000000000000000000000000000000000000000000000000060408201527f000000000000000000000000000000000000000000000000000000000000000060608201524660808201523060a082015260a08152612c4c816107b6565b507f00000000000000000000000000000000000000000000000000000000000000004614614571565b81519190604183036146835761467c9250602082015190606060408401519301515f1a90614957565b9192909190565b50505f9160029190565b600181111561062a576001817001000000000000000000000000000000008110156147b8575b61476061475661474c61474261473861472e61476c97600488680100000000000000006147679a10156147ab575b64010000000081101561479e575b62010000811015614791575b610100811015614785575b6010811015614779575b1015614771575b60030260011c614727818b61428a565b0160011c90565b614727818a61428a565b614727818961428a565b614727818861428a565b614727818761428a565b614727818661428a565b809361428a565b821190565b900390565b60011b614717565b811c9160021b91614710565b60081c91811b91614706565b60101c9160081b916146fb565b60201c9160101b916146ef565b60401c9160201b916146e1565b50680100000000000000009050608082901c6146b3565b905b8281106147dd57505090565b90918082169080831860011c820180921161273957600a5f5265ffffffffffff80837fc65a7bb8d6351c1cf70c95a316cc6a92839c986682d98bc35f958f4883f9d2a8015416908516105f146148365750915b906147d1565b929150614842906134af565b90614830565b929092614854846134af565b8311806148f0575b61486e61487591949293941515613fb4565b5f956134bd565b915b8183106148875750505060019190565b9092919360ff6148c46148bf602088860101517fff000000000000000000000000000000000000000000000000000000000000001690565b6149d9565b1690600f82116148e557906148da600192613fca565b019401919290614877565b505f94508493505050565b5061487561486e61060f60f31b7fffff00000000000000000000000000000000000000000000000000000000000061494d602089870101517fffff0000000000000000000000000000000000000000000000000000000000001690565b161491505061485c565b91907f7fffffffffffffffffffffffffffffff5d576e7357a4501ddfe92f46681b20a084116149ce579160209360809260ff5f9560405194855216868401526040830152606082015282805260015afa15610d5a575f516001600160a01b038116156149c457905f905f90565b505f906001905f90565b5050505f9160039190565b60f81c602f811180614a41575b156149f557602f190160ff1690565b6060811180614a37575b15614a0e576056190160ff1690565b6040811180614a2d575b15614a27576036190160ff1690565b5060ff90565b5060478110614a18565b50606781106149ff565b50603a81106149e656fea26469706673582212208c627c1f3db315af2eadd19998ebf892164f18faa359490e2944351327fd133a64736f6c63430008180033c65a7bb8d6351c1cf70c95a316cc6a92839c986682d98bc35f958f4883f9d2a80553476bf02ef2726e8ce5ced78d63e26e602e4a2257b1f559418e24b4633997","linkReferences":{}},"methodIdentifiers":{"BALLOT_TYPEHASH()":"deaaa7cc","CLOCK_MODE()":"4bf5d7e9","COUNTING_MODE()":"dd4e2ba5","EXTENDED_BALLOT_TYPEHASH()":"2fe3e261","cancel(address[],uint256[],bytes[],bytes32)":"452115d6","castVote(uint256,uint8)":"56781388","castVoteBySig(uint256,uint8,address,bytes)":"8ff262e3","castVoteMultiChoice(uint256,uint256[],string)":"8d7169c7","castVoteWithReason(uint256,uint8,string)":"7b3c71d3","castVoteWithReasonAndParams(uint256,uint8,string,bytes)":"5f398a14","castVoteWithReasonAndParamsBySig(uint256,uint8,address,string,bytes,bytes)":"5b8d0e0d","clock()":"91ddadf4","eip712Domain()":"84b0196e","execute(address[],uint256[],bytes[],bytes32)":"2656227d","getMultiChoiceTotals(uint256)":"201e0030","getProposalId(address[],uint256[],bytes[],bytes32)":"a8f8a668","getVoterMultiChoiceWeights(uint256,address)":"66db3eaf","getVotes(address,uint256)":"eb9019d4","getVotesWithParams(address,uint256,bytes)":"9a802a6d","hasVoted(uint256,address)":"43859632","hashProposal(address[],uint256[],bytes[],bytes32)":"c59057e4","initCountingMulti(address)":"c041f214","isMultiChoice(uint256)":"3cb455f7","multiCounter()":"6152ec31","name()":"06fdde03","nonces(address)":"7ecebe00","numOptionsOf(uint256)":"54710b0f","onERC1155BatchReceived(address,address,uint256[],uint256[],bytes)":"bc197c81","onERC1155Received(address,address,uint256,uint256,bytes)":"f23a6e61","onERC721Received(address,address,uint256,bytes)":"150b7a02","proposalDeadline(uint256)":"c01f9e37","proposalEta(uint256)":"ab58fb8e","proposalNeedsQueuing(uint256)":"a9a95294","proposalProposer(uint256)":"143489d0","proposalSnapshot(uint256)":"2d63f693","proposalThreshold()":"b58131b0","proposalVotes(uint256)":"544ffc9c","propose(address[],uint256[],bytes[],string)":"7d5e81e2","proposeMultiChoice(address[],uint256[],bytes[],string,uint8)":"e947708a","queue(address[],uint256[],bytes[],bytes32)":"160cbed7","quorum(uint256)":"f8ce560a","quorumDenominator()":"97c3d334","quorumNumerator()":"a7713a70","quorumNumerator(uint256)":"60c4247f","relay(address,uint256,bytes)":"c28bc2fa","setCountingMulti(address)":"f4bd34ca","setProposalThreshold(uint256)":"ece40cc1","setVotingDelay(uint48)":"79051887","setVotingPeriod(uint32)":"e540d01d","state(uint256)":"3e4f49e6","supportsInterface(bytes4)":"01ffc9a7","timelock()":"d33219b4","token()":"fc0c546a","updateQuorumNumerator(uint256)":"06f3f9e6","updateTimelock(address)":"a890c910","version()":"54fd4d50","votingDelay()":"3932abb1","votingPeriod()":"02a251a3"},"id":1}