{"abi":[{"type":"constructor","inputs":[{"name":"_governance","type":"address","internalType":"address"},{"name":"_communityRegistry","type":"address","internalType":"address"}],"stateMutability":"nonpayable"},{"type":"function","name":"activateFromGovernance","inputs":[{"name":"valuableActionId","type":"uint256","internalType":"uint256"},{"name":"proposalRef","type":"bytes32","internalType":"bytes32"}],"outputs":[],"stateMutability":"nonpayable"},{"type":"function","name":"addFounder","inputs":[{"name":"founder","type":"address","internalType":"address"},{"name":"communityId","type":"uint256","internalType":"uint256"}],"outputs":[],"stateMutability":"nonpayable"},{"type":"function","name":"closePositionToken","inputs":[{"name":"communityId","type":"uint256","internalType":"uint256"},{"name":"positionTokenId","type":"uint256","internalType":"uint256"},{"name":"outcome","type":"uint8","internalType":"uint8"}],"outputs":[],"stateMutability":"nonpayable"},{"type":"function","name":"communityByActionId","inputs":[{"name":"","type":"uint256","internalType":"uint256"}],"outputs":[{"name":"","type":"uint256","internalType":"uint256"}],"stateMutability":"view"},{"type":"function","name":"communityFounders","inputs":[{"name":"","type":"uint256","internalType":"uint256"},{"name":"","type":"uint256","internalType":"uint256"}],"outputs":[{"name":"","type":"address","internalType":"address"}],"stateMutability":"view"},{"type":"function","name":"communityNarrowingEnabled","inputs":[{"name":"","type":"uint256","internalType":"uint256"}],"outputs":[{"name":"","type":"bool","internalType":"bool"}],"stateMutability":"view"},{"type":"function","name":"communityRegistry","inputs":[],"outputs":[{"name":"","type":"address","internalType":"contract CommunityRegistry"}],"stateMutability":"view"},{"type":"function","name":"deactivate","inputs":[{"name":"id","type":"uint256","internalType":"uint256"}],"outputs":[],"stateMutability":"nonpayable"},{"type":"function","name":"founderWhitelist","inputs":[{"name":"","type":"address","internalType":"address"},{"name":"","type":"uint256","internalType":"uint256"}],"outputs":[{"name":"","type":"bool","internalType":"bool"}],"stateMutability":"view"},{"type":"function","name":"getActiveValuableActions","inputs":[],"outputs":[{"name":"ids","type":"uint256[]","internalType":"uint256[]"}],"stateMutability":"view"},{"type":"function","name":"getCommunityFounders","inputs":[{"name":"communityId","type":"uint256","internalType":"uint256"}],"outputs":[{"name":"founders","type":"address[]","internalType":"address[]"}],"stateMutability":"view"},{"type":"function","name":"getValuableAction","inputs":[{"name":"id","type":"uint256","internalType":"uint256"}],"outputs":[{"name":"action","type":"tuple","internalType":"struct Types.ValuableAction","components":[{"name":"membershipTokenReward","type":"uint32","internalType":"uint32"},{"name":"communityTokenReward","type":"uint32","internalType":"uint32"},{"name":"investorSBTReward","type":"uint32","internalType":"uint32"},{"name":"category","type":"uint8","internalType":"enum Types.ActionCategory"},{"name":"roleTypeId","type":"bytes32","internalType":"bytes32"},{"name":"positionPoints","type":"uint32","internalType":"uint32"},{"name":"verifierPolicy","type":"uint8","internalType":"enum Types.VerifierPolicy"},{"name":"metadataSchemaId","type":"bytes32","internalType":"bytes32"},{"name":"jurorsMin","type":"uint32","internalType":"uint32"},{"name":"panelSize","type":"uint32","internalType":"uint32"},{"name":"verifyWindow","type":"uint32","internalType":"uint32"},{"name":"verifierRewardWeight","type":"uint32","internalType":"uint32"},{"name":"slashVerifierBps","type":"uint32","internalType":"uint32"},{"name":"cooldownPeriod","type":"uint32","internalType":"uint32"},{"name":"maxConcurrent","type":"uint32","internalType":"uint32"},{"name":"revocable","type":"bool","internalType":"bool"},{"name":"evidenceTypes","type":"uint32","internalType":"uint32"},{"name":"proposalThreshold","type":"uint256","internalType":"uint256"},{"name":"proposer","type":"address","internalType":"address"},{"name":"evidenceSpecCID","type":"string","internalType":"string"},{"name":"titleTemplate","type":"string","internalType":"string"},{"name":"automationRules","type":"bytes32[]","internalType":"bytes32[]"},{"name":"activationDelay","type":"uint64","internalType":"uint64"},{"name":"deprecationWarning","type":"uint64","internalType":"uint64"}]}],"stateMutability":"view"},{"type":"function","name":"governance","inputs":[],"outputs":[{"name":"","type":"address","internalType":"address"}],"stateMutability":"view"},{"type":"function","name":"isActive","inputs":[{"name":"","type":"uint256","internalType":"uint256"}],"outputs":[{"name":"","type":"bool","internalType":"bool"}],"stateMutability":"view"},{"type":"function","name":"isCommunityIssuanceModule","inputs":[{"name":"","type":"uint256","internalType":"uint256"},{"name":"","type":"address","internalType":"address"}],"outputs":[{"name":"","type":"bool","internalType":"bool"}],"stateMutability":"view"},{"type":"function","name":"isIssuanceModule","inputs":[{"name":"","type":"address","internalType":"address"}],"outputs":[{"name":"","type":"bool","internalType":"bool"}],"stateMutability":"view"},{"type":"function","name":"isModerator","inputs":[{"name":"","type":"address","internalType":"address"}],"outputs":[{"name":"","type":"bool","internalType":"bool"}],"stateMutability":"view"},{"type":"function","name":"isValuableActionActive","inputs":[{"name":"id","type":"uint256","internalType":"uint256"}],"outputs":[{"name":"","type":"bool","internalType":"bool"}],"stateMutability":"view"},{"type":"function","name":"issuancePaused","inputs":[],"outputs":[{"name":"","type":"bool","internalType":"bool"}],"stateMutability":"view"},{"type":"function","name":"issueEngagement","inputs":[{"name":"communityId","type":"uint256","internalType":"uint256"},{"name":"to","type":"address","internalType":"address"},{"name":"subtype","type":"uint8","internalType":"enum Types.EngagementSubtype"},{"name":"actionTypeId","type":"bytes32","internalType":"bytes32"},{"name":"metadata","type":"bytes","internalType":"bytes"}],"outputs":[{"name":"tokenId","type":"uint256","internalType":"uint256"}],"stateMutability":"nonpayable"},{"type":"function","name":"issueInvestment","inputs":[{"name":"communityId","type":"uint256","internalType":"uint256"},{"name":"to","type":"address","internalType":"address"},{"name":"cohortId","type":"uint256","internalType":"uint256"},{"name":"weight","type":"uint32","internalType":"uint32"},{"name":"metadata","type":"bytes","internalType":"bytes"}],"outputs":[{"name":"tokenId","type":"uint256","internalType":"uint256"}],"stateMutability":"nonpayable"},{"type":"function","name":"issuePosition","inputs":[{"name":"communityId","type":"uint256","internalType":"uint256"},{"name":"to","type":"address","internalType":"address"},{"name":"positionTypeId","type":"bytes32","internalType":"bytes32"},{"name":"points","type":"uint32","internalType":"uint32"},{"name":"metadata","type":"bytes","internalType":"bytes"}],"outputs":[{"name":"tokenId","type":"uint256","internalType":"uint256"}],"stateMutability":"nonpayable"},{"type":"function","name":"issueRoleFromPosition","inputs":[{"name":"communityId","type":"uint256","internalType":"uint256"},{"name":"to","type":"address","internalType":"address"},{"name":"roleTypeId","type":"bytes32","internalType":"bytes32"},{"name":"points","type":"uint32","internalType":"uint32"},{"name":"issuedAt","type":"uint64","internalType":"uint64"},{"name":"endedAt","type":"uint64","internalType":"uint64"},{"name":"closeOutcome","type":"uint8","internalType":"uint8"},{"name":"metadata","type":"bytes","internalType":"bytes"}],"outputs":[{"name":"tokenId","type":"uint256","internalType":"uint256"}],"stateMutability":"nonpayable"},{"type":"function","name":"lastId","inputs":[],"outputs":[{"name":"","type":"uint256","internalType":"uint256"}],"stateMutability":"view"},{"type":"function","name":"pendingValuableActions","inputs":[{"name":"","type":"uint256","internalType":"uint256"}],"outputs":[{"name":"","type":"bytes32","internalType":"bytes32"}],"stateMutability":"view"},{"type":"function","name":"proposalRefUsed","inputs":[{"name":"","type":"bytes32","internalType":"bytes32"}],"outputs":[{"name":"","type":"bool","internalType":"bool"}],"stateMutability":"view"},{"type":"function","name":"proposeValuableAction","inputs":[{"name":"communityId","type":"uint256","internalType":"uint256"},{"name":"params","type":"tuple","internalType":"struct Types.ValuableAction","components":[{"name":"membershipTokenReward","type":"uint32","internalType":"uint32"},{"name":"communityTokenReward","type":"uint32","internalType":"uint32"},{"name":"investorSBTReward","type":"uint32","internalType":"uint32"},{"name":"category","type":"uint8","internalType":"enum Types.ActionCategory"},{"name":"roleTypeId","type":"bytes32","internalType":"bytes32"},{"name":"positionPoints","type":"uint32","internalType":"uint32"},{"name":"verifierPolicy","type":"uint8","internalType":"enum Types.VerifierPolicy"},{"name":"metadataSchemaId","type":"bytes32","internalType":"bytes32"},{"name":"jurorsMin","type":"uint32","internalType":"uint32"},{"name":"panelSize","type":"uint32","internalType":"uint32"},{"name":"verifyWindow","type":"uint32","internalType":"uint32"},{"name":"verifierRewardWeight","type":"uint32","internalType":"uint32"},{"name":"slashVerifierBps","type":"uint32","internalType":"uint32"},{"name":"cooldownPeriod","type":"uint32","internalType":"uint32"},{"name":"maxConcurrent","type":"uint32","internalType":"uint32"},{"name":"revocable","type":"bool","internalType":"bool"},{"name":"evidenceTypes","type":"uint32","internalType":"uint32"},{"name":"proposalThreshold","type":"uint256","internalType":"uint256"},{"name":"proposer","type":"address","internalType":"address"},{"name":"evidenceSpecCID","type":"string","internalType":"string"},{"name":"titleTemplate","type":"string","internalType":"string"},{"name":"automationRules","type":"bytes32[]","internalType":"bytes32[]"},{"name":"activationDelay","type":"uint64","internalType":"uint64"},{"name":"deprecationWarning","type":"uint64","internalType":"uint64"}]},{"name":"proposalRef","type":"bytes32","internalType":"bytes32"}],"outputs":[{"name":"valuableActionId","type":"uint256","internalType":"uint256"}],"stateMutability":"payable"},{"type":"function","name":"setCommunityIssuanceModule","inputs":[{"name":"communityId","type":"uint256","internalType":"uint256"},{"name":"module","type":"address","internalType":"address"},{"name":"allowed","type":"bool","internalType":"bool"}],"outputs":[],"stateMutability":"nonpayable"},{"type":"function","name":"setCommunityNarrowing","inputs":[{"name":"communityId","type":"uint256","internalType":"uint256"},{"name":"enabled","type":"bool","internalType":"bool"}],"outputs":[],"stateMutability":"nonpayable"},{"type":"function","name":"setIssuanceModule","inputs":[{"name":"module","type":"address","internalType":"address"},{"name":"allowed","type":"bool","internalType":"bool"}],"outputs":[],"stateMutability":"nonpayable"},{"type":"function","name":"setIssuancePaused","inputs":[{"name":"paused","type":"bool","internalType":"bool"}],"outputs":[],"stateMutability":"nonpayable"},{"type":"function","name":"setModerator","inputs":[{"name":"who","type":"address","internalType":"address"},{"name":"status","type":"bool","internalType":"bool"}],"outputs":[],"stateMutability":"nonpayable"},{"type":"function","name":"setValuableActionSBT","inputs":[{"name":"sbt","type":"address","internalType":"address"}],"outputs":[],"stateMutability":"nonpayable"},{"type":"function","name":"update","inputs":[{"name":"id","type":"uint256","internalType":"uint256"},{"name":"params","type":"tuple","internalType":"struct Types.ValuableAction","components":[{"name":"membershipTokenReward","type":"uint32","internalType":"uint32"},{"name":"communityTokenReward","type":"uint32","internalType":"uint32"},{"name":"investorSBTReward","type":"uint32","internalType":"uint32"},{"name":"category","type":"uint8","internalType":"enum Types.ActionCategory"},{"name":"roleTypeId","type":"bytes32","internalType":"bytes32"},{"name":"positionPoints","type":"uint32","internalType":"uint32"},{"name":"verifierPolicy","type":"uint8","internalType":"enum Types.VerifierPolicy"},{"name":"metadataSchemaId","type":"bytes32","internalType":"bytes32"},{"name":"jurorsMin","type":"uint32","internalType":"uint32"},{"name":"panelSize","type":"uint32","internalType":"uint32"},{"name":"verifyWindow","type":"uint32","internalType":"uint32"},{"name":"verifierRewardWeight","type":"uint32","internalType":"uint32"},{"name":"slashVerifierBps","type":"uint32","internalType":"uint32"},{"name":"cooldownPeriod","type":"uint32","internalType":"uint32"},{"name":"maxConcurrent","type":"uint32","internalType":"uint32"},{"name":"revocable","type":"bool","internalType":"bool"},{"name":"evidenceTypes","type":"uint32","internalType":"uint32"},{"name":"proposalThreshold","type":"uint256","internalType":"uint256"},{"name":"proposer","type":"address","internalType":"address"},{"name":"evidenceSpecCID","type":"string","internalType":"string"},{"name":"titleTemplate","type":"string","internalType":"string"},{"name":"automationRules","type":"bytes32[]","internalType":"bytes32[]"},{"name":"activationDelay","type":"uint64","internalType":"uint64"},{"name":"deprecationWarning","type":"uint64","internalType":"uint64"}]}],"outputs":[],"stateMutability":"nonpayable"},{"type":"function","name":"updateGovernance","inputs":[{"name":"newGovernance","type":"address","internalType":"address"}],"outputs":[],"stateMutability":"nonpayable"},{"type":"function","name":"valuableActionSBT","inputs":[],"outputs":[{"name":"","type":"address","internalType":"address"}],"stateMutability":"view"},{"type":"function","name":"valuableActionsById","inputs":[{"name":"","type":"uint256","internalType":"uint256"}],"outputs":[{"name":"membershipTokenReward","type":"uint32","internalType":"uint32"},{"name":"communityTokenReward","type":"uint32","internalType":"uint32"},{"name":"investorSBTReward","type":"uint32","internalType":"uint32"},{"name":"category","type":"uint8","internalType":"enum Types.ActionCategory"},{"name":"roleTypeId","type":"bytes32","internalType":"bytes32"},{"name":"positionPoints","type":"uint32","internalType":"uint32"},{"name":"verifierPolicy","type":"uint8","internalType":"enum Types.VerifierPolicy"},{"name":"metadataSchemaId","type":"bytes32","internalType":"bytes32"},{"name":"jurorsMin","type":"uint32","internalType":"uint32"},{"name":"panelSize","type":"uint32","internalType":"uint32"},{"name":"verifyWindow","type":"uint32","internalType":"uint32"},{"name":"verifierRewardWeight","type":"uint32","internalType":"uint32"},{"name":"slashVerifierBps","type":"uint32","internalType":"uint32"},{"name":"cooldownPeriod","type":"uint32","internalType":"uint32"},{"name":"maxConcurrent","type":"uint32","internalType":"uint32"},{"name":"revocable","type":"bool","internalType":"bool"},{"name":"evidenceTypes","type":"uint32","internalType":"uint32"},{"name":"proposalThreshold","type":"uint256","internalType":"uint256"},{"name":"proposer","type":"address","internalType":"address"},{"name":"evidenceSpecCID","type":"string","internalType":"string"},{"name":"titleTemplate","type":"string","internalType":"string"},{"name":"activationDelay","type":"uint64","internalType":"uint64"},{"name":"deprecationWarning","type":"uint64","internalType":"uint64"}],"stateMutability":"view"},{"type":"event","name":"EngagementIssued","inputs":[{"name":"to","type":"address","indexed":true,"internalType":"address"},{"name":"tokenId","type":"uint256","indexed":true,"internalType":"uint256"},{"name":"subtype","type":"uint8","indexed":false,"internalType":"enum Types.EngagementSubtype"},{"name":"actionTypeId","type":"bytes32","indexed":true,"internalType":"bytes32"}],"anonymous":false},{"type":"event","name":"InvestmentIssued","inputs":[{"name":"to","type":"address","indexed":true,"internalType":"address"},{"name":"tokenId","type":"uint256","indexed":true,"internalType":"uint256"},{"name":"cohortId","type":"uint256","indexed":true,"internalType":"uint256"},{"name":"weight","type":"uint32","indexed":false,"internalType":"uint32"}],"anonymous":false},{"type":"event","name":"ModeratorUpdated","inputs":[{"name":"account","type":"address","indexed":true,"internalType":"address"},{"name":"isModerator","type":"bool","indexed":false,"internalType":"bool"},{"name":"updater","type":"address","indexed":true,"internalType":"address"}],"anonymous":false},{"type":"event","name":"PositionIssued","inputs":[{"name":"to","type":"address","indexed":true,"internalType":"address"},{"name":"tokenId","type":"uint256","indexed":true,"internalType":"uint256"},{"name":"positionTypeId","type":"bytes32","indexed":true,"internalType":"bytes32"},{"name":"points","type":"uint32","indexed":false,"internalType":"uint32"}],"anonymous":false},{"type":"event","name":"RoleIssued","inputs":[{"name":"to","type":"address","indexed":true,"internalType":"address"},{"name":"tokenId","type":"uint256","indexed":true,"internalType":"uint256"},{"name":"roleTypeId","type":"bytes32","indexed":true,"internalType":"bytes32"},{"name":"points","type":"uint32","indexed":false,"internalType":"uint32"},{"name":"issuedAt","type":"uint64","indexed":false,"internalType":"uint64"},{"name":"endedAt","type":"uint64","indexed":false,"internalType":"uint64"},{"name":"closeOutcome","type":"uint8","indexed":false,"internalType":"uint8"}],"anonymous":false},{"type":"event","name":"ValuableActionActivated","inputs":[{"name":"id","type":"uint256","indexed":true,"internalType":"uint256"},{"name":"proposalId","type":"uint256","indexed":true,"internalType":"uint256"}],"anonymous":false},{"type":"event","name":"ValuableActionCreated","inputs":[{"name":"id","type":"uint256","indexed":true,"internalType":"uint256"},{"name":"valuableAction","type":"tuple","indexed":false,"internalType":"struct Types.ValuableAction","components":[{"name":"membershipTokenReward","type":"uint32","internalType":"uint32"},{"name":"communityTokenReward","type":"uint32","internalType":"uint32"},{"name":"investorSBTReward","type":"uint32","internalType":"uint32"},{"name":"category","type":"uint8","internalType":"enum Types.ActionCategory"},{"name":"roleTypeId","type":"bytes32","internalType":"bytes32"},{"name":"positionPoints","type":"uint32","internalType":"uint32"},{"name":"verifierPolicy","type":"uint8","internalType":"enum Types.VerifierPolicy"},{"name":"metadataSchemaId","type":"bytes32","internalType":"bytes32"},{"name":"jurorsMin","type":"uint32","internalType":"uint32"},{"name":"panelSize","type":"uint32","internalType":"uint32"},{"name":"verifyWindow","type":"uint32","internalType":"uint32"},{"name":"verifierRewardWeight","type":"uint32","internalType":"uint32"},{"name":"slashVerifierBps","type":"uint32","internalType":"uint32"},{"name":"cooldownPeriod","type":"uint32","internalType":"uint32"},{"name":"maxConcurrent","type":"uint32","internalType":"uint32"},{"name":"revocable","type":"bool","internalType":"bool"},{"name":"evidenceTypes","type":"uint32","internalType":"uint32"},{"name":"proposalThreshold","type":"uint256","internalType":"uint256"},{"name":"proposer","type":"address","internalType":"address"},{"name":"evidenceSpecCID","type":"string","internalType":"string"},{"name":"titleTemplate","type":"string","internalType":"string"},{"name":"automationRules","type":"bytes32[]","internalType":"bytes32[]"},{"name":"activationDelay","type":"uint64","internalType":"uint64"},{"name":"deprecationWarning","type":"uint64","internalType":"uint64"}]},{"name":"creator","type":"address","indexed":true,"internalType":"address"}],"anonymous":false},{"type":"event","name":"ValuableActionDeactivated","inputs":[{"name":"id","type":"uint256","indexed":true,"internalType":"uint256"},{"name":"deactivator","type":"address","indexed":true,"internalType":"address"}],"anonymous":false},{"type":"event","name":"ValuableActionUpdated","inputs":[{"name":"id","type":"uint256","indexed":true,"internalType":"uint256"},{"name":"valuableAction","type":"tuple","indexed":false,"internalType":"struct Types.ValuableAction","components":[{"name":"membershipTokenReward","type":"uint32","internalType":"uint32"},{"name":"communityTokenReward","type":"uint32","internalType":"uint32"},{"name":"investorSBTReward","type":"uint32","internalType":"uint32"},{"name":"category","type":"uint8","internalType":"enum Types.ActionCategory"},{"name":"roleTypeId","type":"bytes32","internalType":"bytes32"},{"name":"positionPoints","type":"uint32","internalType":"uint32"},{"name":"verifierPolicy","type":"uint8","internalType":"enum Types.VerifierPolicy"},{"name":"metadataSchemaId","type":"bytes32","internalType":"bytes32"},{"name":"jurorsMin","type":"uint32","internalType":"uint32"},{"name":"panelSize","type":"uint32","internalType":"uint32"},{"name":"verifyWindow","type":"uint32","internalType":"uint32"},{"name":"verifierRewardWeight","type":"uint32","internalType":"uint32"},{"name":"slashVerifierBps","type":"uint32","internalType":"uint32"},{"name":"cooldownPeriod","type":"uint32","internalType":"uint32"},{"name":"maxConcurrent","type":"uint32","internalType":"uint32"},{"name":"revocable","type":"bool","internalType":"bool"},{"name":"evidenceTypes","type":"uint32","internalType":"uint32"},{"name":"proposalThreshold","type":"uint256","internalType":"uint256"},{"name":"proposer","type":"address","internalType":"address"},{"name":"evidenceSpecCID","type":"string","internalType":"string"},{"name":"titleTemplate","type":"string","internalType":"string"},{"name":"automationRules","type":"bytes32[]","internalType":"bytes32[]"},{"name":"activationDelay","type":"uint64","internalType":"uint64"},{"name":"deprecationWarning","type":"uint64","internalType":"uint64"}]},{"name":"updater","type":"address","indexed":true,"internalType":"address"}],"anonymous":false},{"type":"error","name":"InvalidInput","inputs":[{"name":"reason","type":"string","internalType":"string"}]},{"type":"error","name":"InvalidValuableAction","inputs":[{"name":"valuableActionId","type":"uint256","internalType":"uint256"}]},{"type":"error","name":"NotAuthorized","inputs":[{"name":"caller","type":"address","internalType":"address"}]},{"type":"error","name":"ZeroAddress","inputs":[]}],"bytecode":{"object":"0x60a034620001175762003ce190601f38839003908101601f19168201906001600160401b038211838310176200011b578083916040958694855283398101031262000117576200005d602062000055836200012f565b92016200012f565b6001600160a01b03918216919082156200010657168015620000f5578160018060a01b0319600b541617600b55608052805f526003602052815f20600160ff19825416179055815190600182527f6e0f223019887734edb3e629fad26bad6ceeb5108f25ae46e5c762fe264517c160203393a351613b9c908162000145823960805181818161118a01528181611b5a015261297e0152f35b825163d92e233d60e01b8152600490fd5b835163d92e233d60e01b8152600490fd5b5f80fd5b634e487b7160e01b5f52604160045260245ffd5b51906001600160a01b0382168203620001175756fe6080806040526004361015610012575f80fd5b5f905f3560e01c908162a79c0b146130de575080630c5940fd14612f1457806314f1d4f114612eb65780632262fd9d14612e8c57806323e5227c14612c325780633bc87c9c14612afc5780633ee2b01d14612a6e578063408a68021461290b57806347573c2b146128c15780635aa6e6751461289b5780635cfdb862146123ed5780635e61baa114611b055780636da7a0ba146113f85780637b8683011461138757806382afd23b146113585780638fa906b214611288578063916b9bef146111dd5780639de1e191146111ae578063a200ac861461116b578063a2e7b04c14611141578063a7ebafff14610ee7578063a8db791214610e35578063a90e069e14610df8578063a9957f5614610af7578063b256126314610aa3578063bcca485414610a53578063c1292cc314610a37578063c2543371146107d4578063c691af92146107b2578063c6ffb6cb14610770578063e148bb4814610727578063e8901184146106fe578063e9ea801c146106ac578063ee855580146102df578063fa6f3936146102a2578063ff012a43146101e55763ff3a41ab146101b4575f80fd5b346101e25760203660031901126101e25760ff60406020926004358152600684522054166040519015158152f35b80fd5b50346101e25760203660031901126101e2576101ff6132bf565b6001600160a01b0380600b5416330361028b57811615610261577fffffffffffffffffffffff0000000000000000000000000000000000000000ff74ffffffffffffffffffffffffffffffffffffffff00600a549260081b16911617600a5580f35b60046040517fd92e233d000000000000000000000000000000000000000000000000000000008152fd5b6024604051634a0bfec160e01b8152336004820152fd5b50346101e25760203660031901126101e25760ff60406020926001600160a01b036102cb6132bf565b168152600384522054166040519015158152f35b5034610455576060366003190112610455576004356024803560443560ff9384821680920361045557600a548581166106665760081c6001600160a01b031694851561026157335f52602091600783528160405f2054161561063557805f52600983528160405f2054168061064b575b610635576040517fb09afec100000000000000000000000000000000000000000000000000000000815285600482015261018090818189818c5afa93841561044a575f94610525575b505050600382516103a881613277565b6103b181613277565b036104e157828201510361049d57610100015167ffffffffffffffff9392919084166104595750843b156104555760445f928360405197889485937f8045303d0000000000000000000000000000000000000000000000000000000085526004850152888401525af1801561044a57610428578380f35b9091809350116104385750604052005b634e487b7160e01b5f5260416004525ffd5b6040513d5f823e3d90fd5b5f80fd5b6064906017866040519263d647364f60e01b845260048401528201527f506f736974696f6e20616c726561647920636c6f7365640000000000000000006044820152fd5b6064826012876040519263d647364f60e01b845260048401528201527f436f6d6d756e697479206d69736d6174636800000000000000000000000000006044820152fd5b6064836014886040519263d647364f60e01b845260048401528201527f4e6f74206120706f736974696f6e20746f6b656e0000000000000000000000006044820152fd5b90918093945082813d831161062e575b61053f81836131a6565b810103126104555760405192830183811067ffffffffffffffff82111761061b576040528151600581101561045557835284820151858401526040820151604084015260608201516060840152608082015160808401526105a260a083016137f4565b60a08401526105b360c083016137f4565b60c08401526105c460e08301613805565b60e08401526101006105d7818401613805565b908401526101206105e9818401613805565b908401526101408083015191821682036104555783015261060e6101608092016133c1565b90820152905f8080610398565b88634e487b7160e01b5f5260416004525ffd5b503d610535565b85604051634a0bfec160e01b8152336004820152fd5b506008835260405f20335f5283528160405f2054161561034f565b60405163d647364f60e01b815260206004820152600f60248201527f49737375616e63652070617573656400000000000000000000000000000000006044820152606490fd5b3461045557602036600319011261045557600435801515806106f3575b806106dc575b6020906040519015158152f35b505f526004602052602060ff60405f2054166106cf565b505f548111156106c9565b34610455575f3660031901126104555760206001600160a01b03600a5460081c16604051908152f35b34610455576040366003190112610455576001600160a01b036107486132bf565b165f52600c60205260405f206024355f52602052602060ff60405f2054166040519015158152f35b3461045557602036600319011261045557600435801515809103610455576001600160a01b03600b5416330361028b5760ff8019600a5416911617600a555f80f35b34610455575f36600319011261045557602060ff600a54166040519015158152f35b346104555760a0366003190112610455576004356107f06132d5565b90604435906003821015610455576064359060843567ffffffffffffffff81116104555761082290369060040161330f565b600a549060ff8216610666576001600160a01b03809260081c1691821561026157335f526020976007895260ff60405f2054161561028b57855f526009895260ff60405f20541680610a1b575b61028b5785156109d5571693841561026157851561099057916108ed93915f8994604051968795869485937f5788879a0000000000000000000000000000000000000000000000000000000085528b600486015260248501526108d68d60448601906137e7565b8b606485015260a0608485015260a4840191613367565b03925af193841561044a5785915f9561093d575b508492917f01f44671cf0417f4d6b97178acbc6099efd02021ba154faf174f81a738331e889161093460405180926137e7565ba4604051908152f35b9450919084813d8111610989575b61095581836131a6565b81010312610455579251929084907f01f44671cf0417f4d6b97178acbc6099efd02021ba154faf174f81a738331e88610901565b503d61094b565b6064886040519063d647364f60e01b82526004820152601460248201527f4d697373696e6720616374696f6e5479706549640000000000000000000000006044820152fd5b60405163d647364f60e01b815260206004820152601360248201527f496e76616c696420636f6d6d756e6974794964000000000000000000000000006044820152606490fd5b506008895260405f20335f52895260ff60405f2054161561086f565b34610455575f3660031901126104555760205f54604051908152f35b34610455576040366003190112610455576024356004355f52600d60205260405f2090815481101561045557610a936001600160a01b0391602093613352565b9190546040519260031b1c168152f35b3461045557602036600319011261045557610abc6132bf565b600b54906001600160a01b0390818316330361028b57169081156102615773ffffffffffffffffffffffffffffffffffffffff191617600b55005b3461045557610100806003193601126104555760043590610b166132d5565b9160443590610b236132eb565b9260843567ffffffffffffffff908181168091036104555760a435908282168092036104555760c4359260ff84168094036104555760e43590811161045557610b7090369060040161330f565b9097600a549060ff8216610666576001600160a01b03809260081c1691821561026157335f5260209b60078d5260ff60405f2054161561028b57895f5260098d5260ff60405f20541680610ddc575b61028b5789156109d55716978815610261578915610d97578415610d5257848610610d0d57908b9392916040519b8c94859384937fff80afd20000000000000000000000000000000000000000000000000000000085528d600486015260248501528d604485015263ffffffff169a8b60648501528860848501528960a48501528a60c485015260e4840152610104830190610c5a92613367565b03915a905f91f196871561044a575f97610cb6575b50927fe445780dcbd2ad8cc945215ffea2169bd0e452d2f0add6782ce444797b2ee9cb926080928896956040519384528a84015260408301526060820152a4604051908152f35b91965093928782813d8311610d06575b610cd081836131a6565b810103126104555790519592939092907fe445780dcbd2ad8cc945215ffea2169bd0e452d2f0add6782ce444797b2ee9cb610c6f565b503d610cc6565b60648c6040519063d647364f60e01b82526004820152601760248201527f656e6465644174206265666f72652069737375656441740000000000000000006044820152fd5b60648c6040519063d647364f60e01b82526004820152601060248201527f4d697373696e67206973737565644174000000000000000000000000000000006044820152fd5b60648c6040519063d647364f60e01b82526004820152601260248201527f4d697373696e6720726f6c6554797065496400000000000000000000000000006044820152fd5b5060088d5260405f20335f528d5260ff60405f20541615610bbf565b34610455576020366003190112610455576001600160a01b03610e196132bf565b165f526007602052602060ff60405f2054166040519015158152f35b3461045557602080600319360112610455576004355f52600d815260405f20604051908183825491828152019081925f52845f20905f5b86828210610eca578686610e82828803836131a6565b60405192839281840190828552518091526040840192915f5b828110610eaa57505050500390f35b83516001600160a01b031685528695509381019392810192600101610e9b565b83546001600160a01b031685529093019260019283019201610e6c565b346104555760a036600319011261045557600435610f036132d5565b90604435610f0f6132eb565b60843567ffffffffffffffff811161045557610f2f90369060040161330f565b600a549060ff8216610666576001600160a01b03809260081c1691821561026157335f526020976007895260ff60405f2054161561028b57875f526009895260ff60405f20541680611125575b61028b5787156109d557169384156102615785156110e05763ffffffff1695861561109b5791610fff93915f8994604051968795869485937f5514e6990000000000000000000000000000000000000000000000000000000085528b600486015260248501528b60448501528c606485015260a0608485015260a4840191613367565b03925af193841561044a5785915f95611048575b508492917f554dfed9e991f9e5ac3172a909c508958a35fc35bb05650bd8952f2a5db6c6e091604051908152a4604051908152f35b9450919084813d8111611094575b61106081836131a6565b81010312610455579251929084907f554dfed9e991f9e5ac3172a909c508958a35fc35bb05650bd8952f2a5db6c6e0611013565b503d611056565b6064886040519063d647364f60e01b82526004820152601560248201527f506f696e74732063616e6e6f74206265207a65726f00000000000000000000006044820152fd5b6064886040519063d647364f60e01b82526004820152601660248201527f4d697373696e6720706f736974696f6e547970654964000000000000000000006044820152fd5b506008895260405f20335f52895260ff60405f20541615610f7c565b34610455576020366003190112610455576004355f526002602052602060405f2054604051908152f35b34610455575f3660031901126104555760206040516001600160a01b037f0000000000000000000000000000000000000000000000000000000000000000168152f35b34610455576020366003190112610455576004355f526009602052602060ff60405f2054166040519015158152f35b3461045557602036600319011261045557600435335f52600360205260ff60405f2054161561028b578015158061127d575b1561126557805f52600460205260ff60405f2054161561126557805f52600460205260405f2060ff19815416905533907f6a695f3885825e54664b734cb3f92b352642b7a4d913d39f61ce3904eaed7c055f80a3005b60249060405190633e8a1e4160e21b82526004820152fd5b505f5481111561120f565b34610455576040366003190112610455576112a16132bf565b6024356001600160a01b039182600b5416330361028b57821690811561026157815f52600c60205260405f20815f5260205260ff60405f205416156112e257005b815f52600c60205260405f20905f5260205260405f20600160ff19825416179055600d60205260405f208054680100000000000000008110156113445761132e91600182018155613352565b909283549160031b92831b921b19161790555f80f35b634e487b7160e01b5f52604160045260245ffd5b34610455576020366003190112610455576004355f526004602052602060ff60405f2054166040519015158152f35b34610455576060366003190112610455576113a06132d5565b604435908115158203610455576001600160a01b039081600b5416330361028b5716908115610261576113f6916004355f52600860205260405f20905f5260205260405f209060ff801983541691151516179055565b005b34610455576003196040368201126104555767ffffffffffffffff6024351161045557610300906024353603011261045557335f52600360205260ff60405f2054161561028b57600435151580611af8575b15611adf576004355f52600460205260ff60405f20541615611adf5761147460243560040161381a565b6004355f52600160205260405f2063ffffffff806114966024356004016134f0565b1663ffffffff1990818454161783556114d76114b560248035016134f0565b845467ffffffff00000000191660209190911b67ffffffff0000000016178455565b6115126114e86044602435016134f0565b84546bffffffff0000000000000000191660409190911b6bffffffff000000000000000016178455565b6064602435013560048110156104555760ff60601b84549160601b169060ff60601b1916178355608460243501356001840155600283018261155860a4602435016134f0565b1681549060c460243501356005811015610455578061157c64ff0000000092613277565b60201b169164ffffffffff19161717905560e46024350135600384015560048301826115ad610104602435016134f0565b16828254161781556115e96115c7610124602435016134f0565b825467ffffffff00000000191660209190911b67ffffffff0000000016178255565b6116256115fb610144602435016134f0565b82546bffffffff0000000000000000191660409190911b6bffffffff000000000000000016178255565b611634610164602435016134f0565b815473ffffffff0000000000000000000000000000000061165a610184602435016134f0565b60801b1663ffffffff60a01b6116756101a4602435016134f0565b60a01b169063ffffffff60c01b6116916101c4602435016134f0565b60c01b16926101e46024350135801515809103610455576fffffffff00000000000000000000000060ff60e01b7fffffff0000000000000000000000000000000000ffffffffffffffffffffffff9260e01b169660601b169116171717171790556005830191611706610204602435016134f0565b1690825416179055610224602435013560068201556007810161024460243501356001600160a01b0381168091036104555773ffffffffffffffffffffffffffffffffffffffff1982541617905561176961026460243501602435600401613501565b67ffffffffffffffff8193929311611344576117886008830154613151565b601f8111611a9b575b505f92601f8211600114611a3057928192935f92611a25575b50508160011b915f199060031b1c19161760088201555b60098101906117db61028460243501602435600401613501565b67ffffffffffffffff8194929411611344576117f78254613151565b601f81116119e0575b505f601f821160011461197e57819293945f92611973575b50508160011b915f199060031b1c19161790555b600a81016024356102a48101359036036022190181121561045557602435019060048201359167ffffffffffffffff8311610455576024018260051b360381136104555768010000000000000000831161134457815483835580841061194d575b50905f5260205f205f5b83811061193957600b850167ffffffffffffffff6118ba6102c460243501613534565b168154906fffffffffffffffffffffffffffffffff196fffffffffffffffff00000000000000006118f06102e460243501613534565b60401b1692161717905560405133907f493172a5da918afdb4e470aad2ba421ac5dd8393bcd81aff0c9ccc69f619099660043591806119346024356004018261357b565b0390a3005b600190602084359401938184015501611897565b825f528360205f2091820191015b818110611968575061188d565b5f815560010161195b565b013590508480611818565b601f19821694835f5260205f20915f5b8781106119c85750836001959697106119af575b505050811b01905561182c565b01355f19600384901b60f8161c191690558480806119a2565b9092602060018192868601358155019401910161198e565b825f5260205f20601f830160051c81019160208410611a1b575b601f0160051c01905b818110611a105750611800565b5f8155600101611a03565b90915081906119fa565b0135905083806117aa565b600883015f5260205f20905f945b601f1984168610611a8357600194955083601f19811610611a6a575b505050811b0160088201556117c1565b01355f19600384901b60f8161c19169055838080611a5a565b91602060018192858501358155019301950194611a3e565b600883015f5260205f20601f830160051c810160208410611ad8575b601f830160051c82018110611acd575050611791565b5f8155600101611ab7565b5080611ab7565b6024604051633e8a1e4160e21b81526004356004820152fd5b505f54600435111561144a565b6003196060368201126104555767ffffffffffffffff6024351161045557610300906024353603011261045557604051631f061c6960e31b815260043560048201526101c09081816024816001600160a01b037f0000000000000000000000000000000000000000000000000000000000000000165afa91821561044a575f926123c0575b505060208101906001600160a01b038251161580156123ae575b6123695760a001516001600160a01b0316300361232457516001600160a01b0316330361028b57604435156122de576044355f52600660205260ff60405f20541661229957611bf760243560040161381a565b611c015f54613387565b805f55805f52600160205260405f209063ffffffff611c246024356004016134f0565b1663ffffffff19835416178255611c63611c4160248035016134f0565b835467ffffffff00000000191660209190911b67ffffffff0000000016178355565b611c9e611c746044602435016134f0565b83546bffffffff0000000000000000191660409190911b6bffffffff000000000000000016178355565b6064602435013560048110156104555760ff60601b83549160601b169060ff60601b191617825560846024350135600183015563ffffffff611ce460a4602435016134f0565b16600283015490600560c46024350135101561045557611d0960c46024350135613277565b64ff0000000060c4602435013560201b169164ffffffffff19161717600283015560e4602435013560038301556004820163ffffffff611d4e610104602435016134f0565b1663ffffffff19825416178155611d6d6115c7610124602435016134f0565b611d7f6115fb610144602435016134f0565b611d8e610164602435016134f0565b815473ffffffff00000000000000000000000000000000611db4610184602435016134f0565b60801b1663ffffffff60a01b611dcf6101a4602435016134f0565b60a01b169063ffffffff60c01b611deb6101c4602435016134f0565b60c01b16926101e46024350135801515809103610455576fffffffff00000000000000000000000060ff60e01b7fffffff0000000000000000000000000000000000ffffffffffffffffffffffff9260e01b169660601b169116171717171790556005820163ffffffff611e64610204602435016134f0565b1663ffffffff19825416179055610224602435013560068301556007820161024460243501356001600160a01b0381168091036104555773ffffffffffffffffffffffffffffffffffffffff19825416179055611ecc61026460243501602435600401613501565b9067ffffffffffffffff8211611344578190611eeb6008860154613151565b601f8111612249575b505f90601f83116001146121dc575f926121d1575b50508160011b915f199060031b1c19161760088301555b611f3561028460243501602435600401613501565b9067ffffffffffffffff8211611344578190611f546009860154613151565b601f8111612181575b505f90601f8311600114612114575f92612109575b50508160011b915f199060031b1c19161760098301555b600a8201916024356102a481013590360360221901811215610455576024350160048101359067ffffffffffffffff8211610455576024018160051b36038113610455576801000000000000000082116113445784548286558083106120e3575b50935f5260205f205f5b8281106120cf57602085600b860167ffffffffffffffff61201a6102c460243501613534565b168154906fffffffffffffffffffffffffffffffff196fffffffffffffffff00000000000000006120506102e460243501613534565b60401b16921617179055805f526002825260043560405f20556005825260443560405f20556044355f526006825260405f20600160ff19825416179055604051817f0215c6902787bce369520b2032915a714819e29cd4230ff91ab746ae8752947d3392806120c46024356004018261357b565b0390a3604051908152f35b600190602087359701968184015501611ff4565b855f528260205f2091820191015b8181106120fe5750611fea565b5f81556001016120f1565b013590508480611f72565b909250600985015f5260205f20905f935b601f1984168510612169576001945083601f19811610612150575b505050811b016009830155611f89565b01355f19600384901b60f8161c19169055848080612140565b81810135835560209485019460019093019201612125565b909150600985015f5260205f20601f840160051c8101602085106121ca575b90849392915b601f830160051c820181106121bc575050611f5d565b5f81558594506001016121a6565b50806121a0565b013590508480611f09565b909250600885015f5260205f20905f935b601f1984168510612231576001945083601f19811610612218575b505050811b016008830155611f20565b01355f19600384901b60f8161c19169055848080612208565b818101358355602094850194600190930192016121ed565b909150600885015f5260205f20601f840160051c810160208510612292575b90849392915b601f830160051c82018110612284575050611ef4565b5f815585945060010161226e565b5080612268565b606460405163d647364f60e01b815260206004820152601960248201527f50726f706f73616c2072656620616c72656164792075736564000000000000006044820152fd5b60405163d647364f60e01b815260206004820152601460248201527f4d697373696e672070726f706f73616c207265660000000000000000000000006044820152606490fd5b606460405163d647364f60e01b815260206004820152601160248201527f5265676973747279206d69736d617463680000000000000000000000000000006044820152fd5b606460405163d647364f60e01b815260206004820152601860248201527f436f6d6d756e697479206e6f7420636f6e6669677572656400000000000000006044820152fd5b506001600160a01b0381511615611ba4565b6123df9250803d106123e6575b6123d781836131a6565b8101906133d5565b8180611b8a565b503d6123cd565b34610455576020366003190112610455575f6102e060405161240e81613189565b8281528260208201528260408201528260608201528260808201528260a08201528260c08201528260e08201528261010082015282610120820152826101408201528261016082015282610180820152826101a0820152826101c0820152826101e08201528261020082015282610220820152826102408201526060610260820152606061028082015260606102a0820152826102c0820152015260043515158061288e575b15611adf576004355f52600160205260405f20604051906124d482613189565b805463ffffffff8116835263ffffffff8160201c16602084015263ffffffff8160401c166040840152600460ff8260601c16101561287a5760ff9060601c1660608301526001810154608083015260ff600282015463ffffffff811660a0850152612543828260201c16613277565b60201c1660c0830152600381015460e083015260ff600482015463ffffffff811661010085015263ffffffff8160201c1661012085015263ffffffff8160401c1661014085015263ffffffff8160601c1661016085015263ffffffff8160801c1661018085015263ffffffff8160a01c166101a085015263ffffffff8160c01c166101c085015260e01c1615156101e083015263ffffffff60058201541661020083015260068101546102208301526001600160a01b03600782015416610240830152612612600882016131c8565b610260830152612624600982016131c8565b610280830152604051806020600a840154918281520190600a84015f5260205f20905f5b818110612864578667ffffffffffffffff600b8888612669818a03826131a6565b6102a085015201548181166102c084015260401c166102e08201526040516020815263ffffffff825116602082015263ffffffff602083015116604082015263ffffffff60408301511660608201526126ca6060830151608083019061326a565b608082015160a082015263ffffffff60a08301511660c082015260c08201516126f281613277565b60e082015260e082015161010082015263ffffffff6101008301511661012082015263ffffffff6101208301511661014082015263ffffffff6101408301511661016082015263ffffffff6101608301511661018082015263ffffffff610180830151166101a082015263ffffffff6101a0830151166101c082015263ffffffff6101c0830151166101e08201526101e0820151151561020082015263ffffffff610200830151166102208201526102208201516102408201526001600160a01b03610240830151166102608201526102608201516127e06103009182610280850152610320840190613281565b906127ff61028085015192601f199384868303016102a0870152613281565b6102a085015192848203016102c0850152602080845192838152019301905f5b81811061284e5750505067ffffffffffffffff6102e085826102c0879801511682870152015116908301520390f35b825185526020948501949092019160010161281f565b8254845260209093019260019283019201612648565b634e487b7160e01b5f52602160045260245ffd5b505f5460043511156124b4565b34610455575f3660031901126104555760206001600160a01b03600b5416604051908152f35b34610455576040366003190112610455576128da6132d5565b6004355f5260086020526001600160a01b0360405f2091165f52602052602060ff60405f2054166040519015158152f35b346104555760403660031901126104555760243560043580151580612a63575b156112655781156122de57805f526020600581528260405f205403612a1e57815f526002815260405f20546001600160a01b039060405190631f061c6960e31b825260048201526101c0908181602481867f0000000000000000000000000000000000000000000000000000000000000000165afa90811561044a5784925f92612a01575b5050015116330361028b57600590825f526004815260405f20600160ff19825416179055525f60408120557f7ffae721983994812770c99f4f10d1cfc94bc4b5d28b08e6ce84a796fefaa3a75f80a3005b612a179250803d106123e6576123d781836131a6565b86806129b0565b6064906040519063d647364f60e01b82526004820152601560248201527f50726f706f73616c20726566206d69736d6174636800000000000000000000006044820152fd5b505f5481111561292b565b3461045557604036600319011261045557612a876132bf565b612a8f613142565b906001600160a01b039081600b5416330361028b5716801561026157805f526003602052612acc8260405f209060ff801983541691151516179055565b60405191151582527f6e0f223019887734edb3e629fad26bad6ceeb5108f25ae46e5c762fe264517c160203393a3005b34610455575f366003190112610455575f80549060015b82811115612bfa5750612b3e612b28826133a9565b91612b3660405193846131a6565b8083526133a9565b6020928383019291601f19013684375f60015b82811115612b9c575050509060405192839281840190828552518091526040840192915f5b828110612b8557505050500390f35b835185528695509381019392810192600101612b76565b805f526004865260ff60405f205416612bbe575b612bb990613387565b612b51565b90612bc881613387565b918451821015612be6578087612bb99360051b870101529050612bb0565b634e487b7160e01b5f52603260045260245ffd5b805f52600460205260ff60405f205416612c1d575b612c1890613387565b612b13565b90612c2a612c1891613387565b919050612c0f565b346104555760a036600319011261045557600435612c4e6132d5565b90604435612c5a6132eb565b60843567ffffffffffffffff811161045557612c7a90369060040161330f565b600a549060ff8216610666576001600160a01b03809260081c1691821561026157335f526020976007895260ff60405f2054161561028b57875f526009895260ff60405f20541680612e70575b61028b5787156109d55716938415610261578515612e2b5763ffffffff16958615612de65791612d4a93915f8994604051968795869485937f80848b860000000000000000000000000000000000000000000000000000000085528b600486015260248501528b60448501528c606485015260a0608485015260a4840191613367565b03925af193841561044a5785915f95612d93575b508492917f7b8043c22ce41e0e1794bd92378dbf37e79f87ac6b347b584e6ef04ee52296ff91604051908152a4604051908152f35b9450919084813d8111612ddf575b612dab81836131a6565b81010312610455579251929084907f7b8043c22ce41e0e1794bd92378dbf37e79f87ac6b347b584e6ef04ee52296ff612d5e565b503d612da1565b6064886040519063d647364f60e01b82526004820152601560248201527f5765696768742063616e6e6f74206265207a65726f00000000000000000000006044820152fd5b6064886040519063d647364f60e01b82526004820152601060248201527f4d697373696e6720636f686f72744964000000000000000000000000000000006044820152fd5b506008895260405f20335f52895260ff60405f20541615612cc7565b34610455576020366003190112610455576004355f526005602052602060405f2054604051908152f35b3461045557604036600319011261045557612ecf6132bf565b612ed7613142565b906001600160a01b039081600b5416330361028b5716908115610261576113f6915f52600760205260405f209060ff801983541691151516179055565b34610455576020366003190112610455576004355f52600160205260405f20805460018201549160028101549060038101546004820154600583015463ffffffff1660068401549060078501546001600160a01b03169260088601612f78906131c8565b94612f85600988016131c8565b96600b0154976040519a8a63ffffffff8d9c168c528060201c63ffffffff1660208d01528060401c63ffffffff1660408d015260608c019060601c60ff1690612fcd9161326a565b60808b015263ffffffff811660a08b01528060201c60ff16612fee90613277565b60201c60ff1660c08a015260e089015263ffffffff81166101008901528060201c63ffffffff166101208901528060401c63ffffffff166101408901528060601c63ffffffff166101608901528060801c63ffffffff166101808901528060a01c63ffffffff166101a08901528060c01c63ffffffff166101c089015260e01c60ff1615156101e088015261020087015261022086015261024085015261026084016102e090526102e084016130a391613281565b8381036102808501526130b591613281565b9067ffffffffffffffff81166102a084015260401c67ffffffffffffffff166102c08301520390f35b34610455576040366003190112610455576130f7613142565b906001600160a01b03600b5416330361312d576113f6826004355f52600960205260405f209060ff801983541691151516179055565b80634a0bfec160e01b60249252336004820152fd5b60243590811515820361045557565b90600182811c9216801561317f575b602083101461316b57565b634e487b7160e01b5f52602260045260245ffd5b91607f1691613160565b610300810190811067ffffffffffffffff82111761134457604052565b90601f8019910116810190811067ffffffffffffffff82111761134457604052565b9060405191825f82546131da81613151565b908184526020946001916001811690815f14613248575060011461320a575b505050613208925003836131a6565b565b5f90815285812095935091905b81831061323057505061320893508201015f80806131f9565b85548884018501529485019487945091830191613217565b9250505061320894925060ff191682840152151560051b8201015f80806131f9565b90600482101561287a5752565b6005111561287a57565b91908251928382525f5b8481106132ab575050825f602080949584010152601f8019910116010190565b60208183018101518483018201520161328b565b600435906001600160a01b038216820361045557565b602435906001600160a01b038216820361045557565b6064359063ffffffff8216820361045557565b359063ffffffff8216820361045557565b9181601f840112156104555782359167ffffffffffffffff8311610455576020838186019501011161045557565b359067ffffffffffffffff8216820361045557565b8054821015612be6575f5260205f2001905f90565b908060209392818452848401375f828201840152601f01601f1916010190565b5f1981146133955760010190565b634e487b7160e01b5f52601160045260245ffd5b67ffffffffffffffff81116113445760051b60200190565b51906001600160a01b038216820361045557565b80916101c092839103126104555760405191820182811067ffffffffffffffff82111761134457604052613408816133c1565b8252613416602082016133c1565b6020830152613427604082016133c1565b6040830152613438606082016133c1565b6060830152613449608082016133c1565b608083015261345a60a082016133c1565b60a083015261346b60c082016133c1565b60c083015261347c60e082016133c1565b60e083015261010061348f8183016133c1565b908301526101206134a18183016133c1565b908301526101406134b38183016133c1565b908301526101606134c58183016133c1565b908301526101806134d78183016133c1565b908301526134e96101a08092016133c1565b9082015290565b3563ffffffff811681036104555790565b903590601e1981360301821215610455570180359067ffffffffffffffff82116104555760200191813603831361045557565b3567ffffffffffffffff811681036104555790565b9035601e198236030181121561045557016020813591019167ffffffffffffffff821161045557813603831361045557565b60209182825263ffffffff80613590836132fe565b1684840152806135a18584016132fe565b166040840152806135b4604084016132fe565b16606084015260608201356004811015610455576135d690608085019061326a565b608082013560a0840152806135ed60a084016132fe565b1660c084015260c082013560058110156104555761360a81613277565b60e084015261369d61368c61367b61366a61365961364861363761010060e08a0135818c015289016132fe565b876101209116818b015288016132fe565b866101409116818a015287016132fe565b8561016091168189015286016132fe565b8461018091168188015285016132fe565b836101a091168187015284016132fe565b826101c091168186015283016132fe565b816101e0911681850152820135801515809103610455576136c790610200908186015283016132fe565b906102209116818401526102409082013581840152810135916001600160a01b03831680930361045557613708613749936102609081840152830183613549565b9261373061372761030093610280968588880152610320870191613367565b94820182613549565b959094601f19966102a096888784030188880152613367565b93810135601e19823603018112156104555781019486863596019167ffffffffffffffff92838811610455578760051b978836038213610455577f07ffffffffffffffffffffffffffffffffffffffffffffffffffffffffffffff906102c094888a03018589015280895211610455576137de92886137cd928b8a0137820161333d565b90836102e09216828701520161333d565b16910152010190565b90600382101561287a5752565b519063ffffffff8216820361045557565b519067ffffffffffffffff8216820361045557565b63ffffffff908161382a826134f0565b1615613afb5761010081018261383f826134f0565b1615613ab65761012082019083613855836134f0565b1615613a71578361386f61386982936134f0565b936134f0565b16911611613a06578161388561014083016134f0565b16156139c1576127108261389c61018084016134f0565b161161397c576138b0610260820182613501565b905015613911576101a06138c491016134f0565b16156138cc57565b606460405163d647364f60e01b815260206004820152601e60248201527f436f6f6c646f776e20706572696f642063616e6e6f74206265207a65726f00006044820152fd5b608460405163d647364f60e01b815260206004820152602160248201527f45766964656e63652073706563204349442063616e6e6f7420626520656d707460448201527f79000000000000000000000000000000000000000000000000000000000000006064820152fd5b606460405163d647364f60e01b815260206004820152601d60248201527f536c61736820726174652063616e6e6f742065786365656420313030250000006044820152fd5b606460405163d647364f60e01b815260206004820152601c60248201527f5665726966792077696e646f772063616e6e6f74206265207a65726f000000006044820152fd5b608460405163d647364f60e01b815260206004820152602760248201527f4d696e696d756d206a75726f72732063616e6e6f74206578636565642070616e60448201527f656c2073697a65000000000000000000000000000000000000000000000000006064820152fd5b606460405163d647364f60e01b815260206004820152601960248201527f50616e656c2073697a652063616e6e6f74206265207a65726f000000000000006044820152fd5b606460405163d647364f60e01b815260206004820152601d60248201527f4d696e696d756d206a75726f72732063616e6e6f74206265207a65726f0000006044820152fd5b608460405163d647364f60e01b815260206004820152602560248201527f4d656d62657273686970546f6b656e207265776172642063616e6e6f7420626560448201527f207a65726f0000000000000000000000000000000000000000000000000000006064820152fdfea2646970667358221220c3cd227ec44b1e82638a133d1266fa601b1f772124d8b0b4ea4ae59457306fca64736f6c63430008180033","linkReferences":{}},"methodIdentifiers":{"activateFromGovernance(uint256,bytes32)":"408a6802","addFounder(address,uint256)":"8fa906b2","closePositionToken(uint256,uint256,uint8)":"ee855580","communityByActionId(uint256)":"a2e7b04c","communityFounders(uint256,uint256)":"bcca4854","communityNarrowingEnabled(uint256)":"9de1e191","communityRegistry()":"a200ac86","deactivate(uint256)":"916b9bef","founderWhitelist(address,uint256)":"e148bb48","getActiveValuableActions()":"3bc87c9c","getCommunityFounders(uint256)":"a8db7912","getValuableAction(uint256)":"5cfdb862","governance()":"5aa6e675","isActive(uint256)":"82afd23b","isCommunityIssuanceModule(uint256,address)":"47573c2b","isIssuanceModule(address)":"a90e069e","isModerator(address)":"fa6f3936","isValuableActionActive(uint256)":"e9ea801c","issuancePaused()":"c691af92","issueEngagement(uint256,address,uint8,bytes32,bytes)":"c2543371","issueInvestment(uint256,address,uint256,uint32,bytes)":"23e5227c","issuePosition(uint256,address,bytes32,uint32,bytes)":"a7ebafff","issueRoleFromPosition(uint256,address,bytes32,uint32,uint64,uint64,uint8,bytes)":"a9957f56","lastId()":"c1292cc3","pendingValuableActions(uint256)":"2262fd9d","proposalRefUsed(bytes32)":"ff3a41ab","proposeValuableAction(uint256,(uint32,uint32,uint32,uint8,bytes32,uint32,uint8,bytes32,uint32,uint32,uint32,uint32,uint32,uint32,uint32,bool,uint32,uint256,address,string,string,bytes32[],uint64,uint64),bytes32)":"5e61baa1","setCommunityIssuanceModule(uint256,address,bool)":"7b868301","setCommunityNarrowing(uint256,bool)":"00a79c0b","setIssuanceModule(address,bool)":"14f1d4f1","setIssuancePaused(bool)":"c6ffb6cb","setModerator(address,bool)":"3ee2b01d","setValuableActionSBT(address)":"ff012a43","update(uint256,(uint32,uint32,uint32,uint8,bytes32,uint32,uint8,bytes32,uint32,uint32,uint32,uint32,uint32,uint32,uint32,bool,uint32,uint256,address,string,string,bytes32[],uint64,uint64))":"6da7a0ba","updateGovernance(address)":"b2561263","valuableActionSBT()":"e8901184","valuableActionsById(uint256)":"0c5940fd"},"id":16}