{"abi":[{"type":"constructor","inputs":[{"name":"manager","type":"address","internalType":"address"},{"name":"_communityRegistry","type":"address","internalType":"address"},{"name":"initialModerator","type":"address","internalType":"address"},{"name":"_communityId","type":"uint256","internalType":"uint256"}],"stateMutability":"nonpayable"},{"type":"function","name":"activateFromGovernance","inputs":[{"name":"valuableActionId","type":"uint256","internalType":"uint256"},{"name":"proposalRef","type":"bytes32","internalType":"bytes32"}],"outputs":[],"stateMutability":"nonpayable"},{"type":"function","name":"addFounder","inputs":[{"name":"founder","type":"address","internalType":"address"}],"outputs":[],"stateMutability":"nonpayable"},{"type":"function","name":"authority","inputs":[],"outputs":[{"name":"","type":"address","internalType":"address"}],"stateMutability":"view"},{"type":"function","name":"closePositionToken","inputs":[{"name":"positionTokenId","type":"uint256","internalType":"uint256"},{"name":"outcome","type":"uint8","internalType":"uint8"}],"outputs":[],"stateMutability":"nonpayable"},{"type":"function","name":"communityByActionId","inputs":[{"name":"valuableActionId","type":"uint256","internalType":"uint256"}],"outputs":[{"name":"","type":"uint256","internalType":"uint256"}],"stateMutability":"view"},{"type":"function","name":"communityId","inputs":[],"outputs":[{"name":"","type":"uint256","internalType":"uint256"}],"stateMutability":"view"},{"type":"function","name":"communityNarrowingEnabled","inputs":[],"outputs":[{"name":"","type":"bool","internalType":"bool"}],"stateMutability":"view"},{"type":"function","name":"communityRegistry","inputs":[],"outputs":[{"name":"","type":"address","internalType":"contract CommunityRegistry"}],"stateMutability":"view"},{"type":"function","name":"deactivate","inputs":[{"name":"id","type":"uint256","internalType":"uint256"}],"outputs":[],"stateMutability":"nonpayable"},{"type":"function","name":"founderWhitelist","inputs":[{"name":"founder","type":"address","internalType":"address"}],"outputs":[{"name":"","type":"bool","internalType":"bool"}],"stateMutability":"view"},{"type":"function","name":"getActiveValuableActions","inputs":[],"outputs":[{"name":"ids","type":"uint256[]","internalType":"uint256[]"}],"stateMutability":"view"},{"type":"function","name":"getCommunityFounders","inputs":[],"outputs":[{"name":"founders","type":"address[]","internalType":"address[]"}],"stateMutability":"view"},{"type":"function","name":"getValuableAction","inputs":[{"name":"id","type":"uint256","internalType":"uint256"}],"outputs":[{"name":"action","type":"tuple","internalType":"struct Types.ValuableAction","components":[{"name":"membershipTokenReward","type":"uint32","internalType":"uint32"},{"name":"communityTokenReward","type":"uint32","internalType":"uint32"},{"name":"investorSBTReward","type":"uint32","internalType":"uint32"},{"name":"category","type":"uint8","internalType":"enum Types.ActionCategory"},{"name":"roleTypeId","type":"bytes32","internalType":"bytes32"},{"name":"positionPoints","type":"uint32","internalType":"uint32"},{"name":"verifierPolicy","type":"uint8","internalType":"enum Types.VerifierPolicy"},{"name":"metadataSchemaId","type":"bytes32","internalType":"bytes32"},{"name":"jurorsMin","type":"uint32","internalType":"uint32"},{"name":"panelSize","type":"uint32","internalType":"uint32"},{"name":"verifyWindow","type":"uint32","internalType":"uint32"},{"name":"verifierRewardWeight","type":"uint32","internalType":"uint32"},{"name":"slashVerifierBps","type":"uint32","internalType":"uint32"},{"name":"cooldownPeriod","type":"uint32","internalType":"uint32"},{"name":"maxConcurrent","type":"uint32","internalType":"uint32"},{"name":"revocable","type":"bool","internalType":"bool"},{"name":"evidenceTypes","type":"uint32","internalType":"uint32"},{"name":"proposalThreshold","type":"uint256","internalType":"uint256"},{"name":"proposer","type":"address","internalType":"address"},{"name":"evidenceSpecCID","type":"string","internalType":"string"},{"name":"titleTemplate","type":"string","internalType":"string"},{"name":"automationRules","type":"bytes32[]","internalType":"bytes32[]"},{"name":"activationDelay","type":"uint64","internalType":"uint64"},{"name":"deprecationWarning","type":"uint64","internalType":"uint64"}]}],"stateMutability":"view"},{"type":"function","name":"isActive","inputs":[{"name":"","type":"uint256","internalType":"uint256"}],"outputs":[{"name":"","type":"bool","internalType":"bool"}],"stateMutability":"view"},{"type":"function","name":"isCommunityIssuanceModule","inputs":[{"name":"module","type":"address","internalType":"address"}],"outputs":[{"name":"","type":"bool","internalType":"bool"}],"stateMutability":"view"},{"type":"function","name":"isConsumingScheduledOp","inputs":[],"outputs":[{"name":"","type":"bytes4","internalType":"bytes4"}],"stateMutability":"view"},{"type":"function","name":"isIssuanceModule","inputs":[{"name":"","type":"address","internalType":"address"}],"outputs":[{"name":"","type":"bool","internalType":"bool"}],"stateMutability":"view"},{"type":"function","name":"isModerator","inputs":[{"name":"","type":"address","internalType":"address"}],"outputs":[{"name":"","type":"bool","internalType":"bool"}],"stateMutability":"view"},{"type":"function","name":"isValuableActionActive","inputs":[{"name":"id","type":"uint256","internalType":"uint256"}],"outputs":[{"name":"","type":"bool","internalType":"bool"}],"stateMutability":"view"},{"type":"function","name":"issuancePaused","inputs":[],"outputs":[{"name":"","type":"bool","internalType":"bool"}],"stateMutability":"view"},{"type":"function","name":"issueEngagement","inputs":[{"name":"to","type":"address","internalType":"address"},{"name":"subtype","type":"uint8","internalType":"enum Types.EngagementSubtype"},{"name":"actionTypeId","type":"bytes32","internalType":"bytes32"},{"name":"metadata","type":"bytes","internalType":"bytes"}],"outputs":[{"name":"tokenId","type":"uint256","internalType":"uint256"}],"stateMutability":"nonpayable"},{"type":"function","name":"issueInvestment","inputs":[{"name":"to","type":"address","internalType":"address"},{"name":"cohortId","type":"uint256","internalType":"uint256"},{"name":"weight","type":"uint32","internalType":"uint32"},{"name":"metadata","type":"bytes","internalType":"bytes"}],"outputs":[{"name":"tokenId","type":"uint256","internalType":"uint256"}],"stateMutability":"nonpayable"},{"type":"function","name":"issuePosition","inputs":[{"name":"to","type":"address","internalType":"address"},{"name":"positionTypeId","type":"bytes32","internalType":"bytes32"},{"name":"points","type":"uint32","internalType":"uint32"},{"name":"metadata","type":"bytes","internalType":"bytes"}],"outputs":[{"name":"tokenId","type":"uint256","internalType":"uint256"}],"stateMutability":"nonpayable"},{"type":"function","name":"issueRoleFromPosition","inputs":[{"name":"to","type":"address","internalType":"address"},{"name":"roleTypeId","type":"bytes32","internalType":"bytes32"},{"name":"points","type":"uint32","internalType":"uint32"},{"name":"issuedAt","type":"uint64","internalType":"uint64"},{"name":"endedAt","type":"uint64","internalType":"uint64"},{"name":"closeOutcome","type":"uint8","internalType":"uint8"},{"name":"metadata","type":"bytes","internalType":"bytes"}],"outputs":[{"name":"tokenId","type":"uint256","internalType":"uint256"}],"stateMutability":"nonpayable"},{"type":"function","name":"lastId","inputs":[],"outputs":[{"name":"","type":"uint256","internalType":"uint256"}],"stateMutability":"view"},{"type":"function","name":"pendingValuableActions","inputs":[{"name":"","type":"uint256","internalType":"uint256"}],"outputs":[{"name":"","type":"bytes32","internalType":"bytes32"}],"stateMutability":"view"},{"type":"function","name":"proposalRefUsed","inputs":[{"name":"","type":"bytes32","internalType":"bytes32"}],"outputs":[{"name":"","type":"bool","internalType":"bool"}],"stateMutability":"view"},{"type":"function","name":"proposeValuableAction","inputs":[{"name":"params","type":"tuple","internalType":"struct Types.ValuableAction","components":[{"name":"membershipTokenReward","type":"uint32","internalType":"uint32"},{"name":"communityTokenReward","type":"uint32","internalType":"uint32"},{"name":"investorSBTReward","type":"uint32","internalType":"uint32"},{"name":"category","type":"uint8","internalType":"enum Types.ActionCategory"},{"name":"roleTypeId","type":"bytes32","internalType":"bytes32"},{"name":"positionPoints","type":"uint32","internalType":"uint32"},{"name":"verifierPolicy","type":"uint8","internalType":"enum Types.VerifierPolicy"},{"name":"metadataSchemaId","type":"bytes32","internalType":"bytes32"},{"name":"jurorsMin","type":"uint32","internalType":"uint32"},{"name":"panelSize","type":"uint32","internalType":"uint32"},{"name":"verifyWindow","type":"uint32","internalType":"uint32"},{"name":"verifierRewardWeight","type":"uint32","internalType":"uint32"},{"name":"slashVerifierBps","type":"uint32","internalType":"uint32"},{"name":"cooldownPeriod","type":"uint32","internalType":"uint32"},{"name":"maxConcurrent","type":"uint32","internalType":"uint32"},{"name":"revocable","type":"bool","internalType":"bool"},{"name":"evidenceTypes","type":"uint32","internalType":"uint32"},{"name":"proposalThreshold","type":"uint256","internalType":"uint256"},{"name":"proposer","type":"address","internalType":"address"},{"name":"evidenceSpecCID","type":"string","internalType":"string"},{"name":"titleTemplate","type":"string","internalType":"string"},{"name":"automationRules","type":"bytes32[]","internalType":"bytes32[]"},{"name":"activationDelay","type":"uint64","internalType":"uint64"},{"name":"deprecationWarning","type":"uint64","internalType":"uint64"}]},{"name":"proposalRef","type":"bytes32","internalType":"bytes32"}],"outputs":[{"name":"valuableActionId","type":"uint256","internalType":"uint256"}],"stateMutability":"payable"},{"type":"function","name":"setAuthority","inputs":[{"name":"newAuthority","type":"address","internalType":"address"}],"outputs":[],"stateMutability":"nonpayable"},{"type":"function","name":"setCommunityIssuanceModule","inputs":[{"name":"module","type":"address","internalType":"address"},{"name":"allowed","type":"bool","internalType":"bool"}],"outputs":[],"stateMutability":"nonpayable"},{"type":"function","name":"setCommunityNarrowing","inputs":[{"name":"enabled","type":"bool","internalType":"bool"}],"outputs":[],"stateMutability":"nonpayable"},{"type":"function","name":"setIssuanceModule","inputs":[{"name":"module","type":"address","internalType":"address"},{"name":"allowed","type":"bool","internalType":"bool"}],"outputs":[],"stateMutability":"nonpayable"},{"type":"function","name":"setIssuancePaused","inputs":[{"name":"paused","type":"bool","internalType":"bool"}],"outputs":[],"stateMutability":"nonpayable"},{"type":"function","name":"setModerator","inputs":[{"name":"who","type":"address","internalType":"address"},{"name":"status","type":"bool","internalType":"bool"}],"outputs":[],"stateMutability":"nonpayable"},{"type":"function","name":"setValuableActionSBT","inputs":[{"name":"sbt","type":"address","internalType":"address"}],"outputs":[],"stateMutability":"nonpayable"},{"type":"function","name":"update","inputs":[{"name":"id","type":"uint256","internalType":"uint256"},{"name":"params","type":"tuple","internalType":"struct Types.ValuableAction","components":[{"name":"membershipTokenReward","type":"uint32","internalType":"uint32"},{"name":"communityTokenReward","type":"uint32","internalType":"uint32"},{"name":"investorSBTReward","type":"uint32","internalType":"uint32"},{"name":"category","type":"uint8","internalType":"enum Types.ActionCategory"},{"name":"roleTypeId","type":"bytes32","internalType":"bytes32"},{"name":"positionPoints","type":"uint32","internalType":"uint32"},{"name":"verifierPolicy","type":"uint8","internalType":"enum Types.VerifierPolicy"},{"name":"metadataSchemaId","type":"bytes32","internalType":"bytes32"},{"name":"jurorsMin","type":"uint32","internalType":"uint32"},{"name":"panelSize","type":"uint32","internalType":"uint32"},{"name":"verifyWindow","type":"uint32","internalType":"uint32"},{"name":"verifierRewardWeight","type":"uint32","internalType":"uint32"},{"name":"slashVerifierBps","type":"uint32","internalType":"uint32"},{"name":"cooldownPeriod","type":"uint32","internalType":"uint32"},{"name":"maxConcurrent","type":"uint32","internalType":"uint32"},{"name":"revocable","type":"bool","internalType":"bool"},{"name":"evidenceTypes","type":"uint32","internalType":"uint32"},{"name":"proposalThreshold","type":"uint256","internalType":"uint256"},{"name":"proposer","type":"address","internalType":"address"},{"name":"evidenceSpecCID","type":"string","internalType":"string"},{"name":"titleTemplate","type":"string","internalType":"string"},{"name":"automationRules","type":"bytes32[]","internalType":"bytes32[]"},{"name":"activationDelay","type":"uint64","internalType":"uint64"},{"name":"deprecationWarning","type":"uint64","internalType":"uint64"}]}],"outputs":[],"stateMutability":"nonpayable"},{"type":"function","name":"valuableActionSBT","inputs":[],"outputs":[{"name":"","type":"address","internalType":"address"}],"stateMutability":"view"},{"type":"function","name":"valuableActionsById","inputs":[{"name":"","type":"uint256","internalType":"uint256"}],"outputs":[{"name":"membershipTokenReward","type":"uint32","internalType":"uint32"},{"name":"communityTokenReward","type":"uint32","internalType":"uint32"},{"name":"investorSBTReward","type":"uint32","internalType":"uint32"},{"name":"category","type":"uint8","internalType":"enum Types.ActionCategory"},{"name":"roleTypeId","type":"bytes32","internalType":"bytes32"},{"name":"positionPoints","type":"uint32","internalType":"uint32"},{"name":"verifierPolicy","type":"uint8","internalType":"enum Types.VerifierPolicy"},{"name":"metadataSchemaId","type":"bytes32","internalType":"bytes32"},{"name":"jurorsMin","type":"uint32","internalType":"uint32"},{"name":"panelSize","type":"uint32","internalType":"uint32"},{"name":"verifyWindow","type":"uint32","internalType":"uint32"},{"name":"verifierRewardWeight","type":"uint32","internalType":"uint32"},{"name":"slashVerifierBps","type":"uint32","internalType":"uint32"},{"name":"cooldownPeriod","type":"uint32","internalType":"uint32"},{"name":"maxConcurrent","type":"uint32","internalType":"uint32"},{"name":"revocable","type":"bool","internalType":"bool"},{"name":"evidenceTypes","type":"uint32","internalType":"uint32"},{"name":"proposalThreshold","type":"uint256","internalType":"uint256"},{"name":"proposer","type":"address","internalType":"address"},{"name":"evidenceSpecCID","type":"string","internalType":"string"},{"name":"titleTemplate","type":"string","internalType":"string"},{"name":"activationDelay","type":"uint64","internalType":"uint64"},{"name":"deprecationWarning","type":"uint64","internalType":"uint64"}],"stateMutability":"view"},{"type":"event","name":"AuthorityUpdated","inputs":[{"name":"authority","type":"address","indexed":false,"internalType":"address"}],"anonymous":false},{"type":"event","name":"EngagementIssued","inputs":[{"name":"to","type":"address","indexed":true,"internalType":"address"},{"name":"tokenId","type":"uint256","indexed":true,"internalType":"uint256"},{"name":"subtype","type":"uint8","indexed":false,"internalType":"enum Types.EngagementSubtype"},{"name":"actionTypeId","type":"bytes32","indexed":true,"internalType":"bytes32"}],"anonymous":false},{"type":"event","name":"InvestmentIssued","inputs":[{"name":"to","type":"address","indexed":true,"internalType":"address"},{"name":"tokenId","type":"uint256","indexed":true,"internalType":"uint256"},{"name":"cohortId","type":"uint256","indexed":true,"internalType":"uint256"},{"name":"weight","type":"uint32","indexed":false,"internalType":"uint32"}],"anonymous":false},{"type":"event","name":"ModeratorUpdated","inputs":[{"name":"account","type":"address","indexed":true,"internalType":"address"},{"name":"isModerator","type":"bool","indexed":false,"internalType":"bool"},{"name":"updater","type":"address","indexed":true,"internalType":"address"}],"anonymous":false},{"type":"event","name":"PositionIssued","inputs":[{"name":"to","type":"address","indexed":true,"internalType":"address"},{"name":"tokenId","type":"uint256","indexed":true,"internalType":"uint256"},{"name":"positionTypeId","type":"bytes32","indexed":true,"internalType":"bytes32"},{"name":"points","type":"uint32","indexed":false,"internalType":"uint32"}],"anonymous":false},{"type":"event","name":"RoleIssued","inputs":[{"name":"to","type":"address","indexed":true,"internalType":"address"},{"name":"tokenId","type":"uint256","indexed":true,"internalType":"uint256"},{"name":"roleTypeId","type":"bytes32","indexed":true,"internalType":"bytes32"},{"name":"points","type":"uint32","indexed":false,"internalType":"uint32"},{"name":"issuedAt","type":"uint64","indexed":false,"internalType":"uint64"},{"name":"endedAt","type":"uint64","indexed":false,"internalType":"uint64"},{"name":"closeOutcome","type":"uint8","indexed":false,"internalType":"uint8"}],"anonymous":false},{"type":"event","name":"ValuableActionActivated","inputs":[{"name":"id","type":"uint256","indexed":true,"internalType":"uint256"},{"name":"proposalId","type":"uint256","indexed":true,"internalType":"uint256"}],"anonymous":false},{"type":"event","name":"ValuableActionCreated","inputs":[{"name":"id","type":"uint256","indexed":true,"internalType":"uint256"},{"name":"valuableAction","type":"tuple","indexed":false,"internalType":"struct Types.ValuableAction","components":[{"name":"membershipTokenReward","type":"uint32","internalType":"uint32"},{"name":"communityTokenReward","type":"uint32","internalType":"uint32"},{"name":"investorSBTReward","type":"uint32","internalType":"uint32"},{"name":"category","type":"uint8","internalType":"enum Types.ActionCategory"},{"name":"roleTypeId","type":"bytes32","internalType":"bytes32"},{"name":"positionPoints","type":"uint32","internalType":"uint32"},{"name":"verifierPolicy","type":"uint8","internalType":"enum Types.VerifierPolicy"},{"name":"metadataSchemaId","type":"bytes32","internalType":"bytes32"},{"name":"jurorsMin","type":"uint32","internalType":"uint32"},{"name":"panelSize","type":"uint32","internalType":"uint32"},{"name":"verifyWindow","type":"uint32","internalType":"uint32"},{"name":"verifierRewardWeight","type":"uint32","internalType":"uint32"},{"name":"slashVerifierBps","type":"uint32","internalType":"uint32"},{"name":"cooldownPeriod","type":"uint32","internalType":"uint32"},{"name":"maxConcurrent","type":"uint32","internalType":"uint32"},{"name":"revocable","type":"bool","internalType":"bool"},{"name":"evidenceTypes","type":"uint32","internalType":"uint32"},{"name":"proposalThreshold","type":"uint256","internalType":"uint256"},{"name":"proposer","type":"address","internalType":"address"},{"name":"evidenceSpecCID","type":"string","internalType":"string"},{"name":"titleTemplate","type":"string","internalType":"string"},{"name":"automationRules","type":"bytes32[]","internalType":"bytes32[]"},{"name":"activationDelay","type":"uint64","internalType":"uint64"},{"name":"deprecationWarning","type":"uint64","internalType":"uint64"}]},{"name":"creator","type":"address","indexed":true,"internalType":"address"}],"anonymous":false},{"type":"event","name":"ValuableActionDeactivated","inputs":[{"name":"id","type":"uint256","indexed":true,"internalType":"uint256"},{"name":"deactivator","type":"address","indexed":true,"internalType":"address"}],"anonymous":false},{"type":"event","name":"ValuableActionUpdated","inputs":[{"name":"id","type":"uint256","indexed":true,"internalType":"uint256"},{"name":"valuableAction","type":"tuple","indexed":false,"internalType":"struct Types.ValuableAction","components":[{"name":"membershipTokenReward","type":"uint32","internalType":"uint32"},{"name":"communityTokenReward","type":"uint32","internalType":"uint32"},{"name":"investorSBTReward","type":"uint32","internalType":"uint32"},{"name":"category","type":"uint8","internalType":"enum Types.ActionCategory"},{"name":"roleTypeId","type":"bytes32","internalType":"bytes32"},{"name":"positionPoints","type":"uint32","internalType":"uint32"},{"name":"verifierPolicy","type":"uint8","internalType":"enum Types.VerifierPolicy"},{"name":"metadataSchemaId","type":"bytes32","internalType":"bytes32"},{"name":"jurorsMin","type":"uint32","internalType":"uint32"},{"name":"panelSize","type":"uint32","internalType":"uint32"},{"name":"verifyWindow","type":"uint32","internalType":"uint32"},{"name":"verifierRewardWeight","type":"uint32","internalType":"uint32"},{"name":"slashVerifierBps","type":"uint32","internalType":"uint32"},{"name":"cooldownPeriod","type":"uint32","internalType":"uint32"},{"name":"maxConcurrent","type":"uint32","internalType":"uint32"},{"name":"revocable","type":"bool","internalType":"bool"},{"name":"evidenceTypes","type":"uint32","internalType":"uint32"},{"name":"proposalThreshold","type":"uint256","internalType":"uint256"},{"name":"proposer","type":"address","internalType":"address"},{"name":"evidenceSpecCID","type":"string","internalType":"string"},{"name":"titleTemplate","type":"string","internalType":"string"},{"name":"automationRules","type":"bytes32[]","internalType":"bytes32[]"},{"name":"activationDelay","type":"uint64","internalType":"uint64"},{"name":"deprecationWarning","type":"uint64","internalType":"uint64"}]},{"name":"updater","type":"address","indexed":true,"internalType":"address"}],"anonymous":false},{"type":"error","name":"AccessManagedInvalidAuthority","inputs":[{"name":"authority","type":"address","internalType":"address"}]},{"type":"error","name":"AccessManagedRequiredDelay","inputs":[{"name":"caller","type":"address","internalType":"address"},{"name":"delay","type":"uint32","internalType":"uint32"}]},{"type":"error","name":"AccessManagedUnauthorized","inputs":[{"name":"caller","type":"address","internalType":"address"}]},{"type":"error","name":"InvalidInput","inputs":[{"name":"reason","type":"string","internalType":"string"}]},{"type":"error","name":"InvalidValuableAction","inputs":[{"name":"valuableActionId","type":"uint256","internalType":"uint256"}]},{"type":"error","name":"ZeroAddress","inputs":[]}],"bytecode":{"object":"0x60c034620001ca57601f62003dfe38819003918201601f191683019291906001600160401b03841183851017620001ce578160809284926040968752833981010312620001ca576200005181620001e2565b6200005f60208301620001e2565b9060606200006f858501620001e2565b9301515f80546001600160a01b0319166001600160a01b0393841690811790915585518181529193917f2f658b440c35314f52658ea8a740e05b284cdc84dc9ae01e891f21b8933e7cad90602090a115620001b9578116928315620001b95716918215620001a8578115620001635760a052608052805f526003602052815f20600160ff19825416179055815190600182527f6e0f223019887734edb3e629fad26bad6ceeb5108f25ae46e5c762fe264517c160203393a351613c069081620001f882396080518181816105690152818161111e01528181611390015261166e015260a05181818161059801526111850152f35b835163d647364f60e01b815260206004820152601360248201527f496e76616c696420636f6d6d756e6974794964000000000000000000000000006044820152606490fd5b835163d92e233d60e01b8152600490fd5b845163d92e233d60e01b8152600490fd5b5f80fd5b634e487b7160e01b5f52604160045260245ffd5b51906001600160a01b0382168203620001ca5756fe60806040526004361015610011575f80fd5b5f803560e01c8063041848f914612ee45780630c5940fd14612d1a57806314f1d4f114612cbe57806322061c2314612c815780632262fd9d14612c575780632f1ec91c146129aa5780633bc87c9c146128725780633ee2b01d146127e6578063408a6802146127055780634104c3be146124f95780635cfdb862146120315780635d672bb814611ff45780636da7a0ba1461195c57806371304940146117925780637a9e5e4b146116c85780637d0df1be146116915780637f50861a146116575780638045303d146112d857806382afd23b146112a95780638fb3603714611234578063916b9bef146111a9578063a200ac8614611165578063a2e7b04c146110f4578063a90e069e146110b7578063bf7e214f14611091578063c1292cc314611073578063c691af921461104d578063c6ffb6cb1461100f578063ca497d4914610fec578063e08d5b8a14610f8c578063e610e6dd14610501578063e8901184146104d7578063e9ea801c1461047e578063ef4ec04714610396578063fa6f393614610359578063fa889b2314610293578063ff012a43146101ed5763ff3a41ab146101bc575f80fd5b346101ea5760203660031901126101ea5760ff60406020926004358152600684522054166040519015158152f35b80fd5b50346101ea5760203660031901126101ea576102076130f0565b61021136336136c1565b6001600160a01b03811615610269577fffffffffffffffffffff0000000000000000000000000000000000000000ffff75ffffffffffffffffffffffffffffffffffffffff00006009549260101b1691161760095580f35b60046040517fd92e233d000000000000000000000000000000000000000000000000000000008152fd5b50346101ea57806003193601126101ea576040518091600b549081835260208093018092600b83527f0175b7a638427703f0dbe7bb9bbf987a2551717b34e79f33b5b1008d1fa01db990835b81811061033c57505050846102f59103856131dd565b60405193838594850191818652518092526040850193925b82811061031c57505050500390f35b83516001600160a01b03168552869550938101939281019260010161030d565b82546001600160a01b0316845292860192600192830192016102df565b50346101ea5760203660031901126101ea5760ff60406020926001600160a01b036103826130f0565b168152600384522054166040519015158152f35b50346101ea5760203660031901126101ea576001600160a01b036103b86130f0565b6103c236336136c1565b16801561026957808252600a60205260408220805460ff8116156103e4578380f35b60ff19166001179055600b546801000000000000000081101561046a576001810180600b55811015610456577f0175b7a638427703f0dbe7bb9bbf987a2551717b34e79f33b5b1008d1fa01db9019073ffffffffffffffffffffffffffffffffffffffff198254161790555f80808380f35b602483634e487b7160e01b81526032600452fd5b602483634e487b7160e01b81526041600452fd5b50346101ea5760203660031901126101ea576020906004359081151591826104ca575b826104b3575b50506040519015158152f35b815260048352604090205460ff1690505f806104a7565b60015481111592506104a1565b50346101ea57806003193601126101ea5760206001600160a01b0360095460101c16604051908152f35b50600319604036820112610f885767ffffffffffffffff60043511610f885761030090600435360301126101ea5761053936336136c1565b6001600160a01b036040517ff830e3480000000000000000000000000000000000000000000000000000000081527f000000000000000000000000000000000000000000000000000000000000000060048201526101c08082602481867f0000000000000000000000000000000000000000000000000000000000000000165afa918215610f7d578492610e2d575b505081602082015116158015610e22575b610ddd5760a0015181163003610d985760243515610d52576024358252600660205260ff604083205416610d0d57610615600435600401613884565b610620600154613349565b90816001558183526002602052604083209063ffffffff80610646600435600401613383565b1663ffffffff199081855416178455610688610666602460043501613383565b855467ffffffff00000000191660209190911b67ffffffff0000000016178555565b6106c3610699604460043501613383565b85546bffffffff0000000000000000191660409190911b6bffffffff000000000000000016178555565b606460043501356004811015610d095760ff60601b85549160601b169060ff60601b19161784556084600435013560018501558161070560a460043501613383565b1660028501549060c460043501356005811015610d05578061072c64ff00000000926132ae565b60201b169164ffffffffff19161717600285015560e460043501356003850155600484018261076061010460043501613383565b168282541617815561079c61077a61012460043501613383565b825467ffffffff00000000191660209190911b67ffffffff0000000016178255565b6107d86107ae61014460043501613383565b82546bffffffff0000000000000000191660409190911b6bffffffff000000000000000016178255565b6107e761016460043501613383565b815473ffffffff0000000000000000000000000000000061080d61018460043501613383565b60801b1663ffffffff60a01b6108286101a460043501613383565b60a01b169063ffffffff60c01b6108446101c460043501613383565b60c01b16926101e46004350135801515809103610d01576fffffffff00000000000000000000000060ff60e01b7fffffff0000000000000000000000000000000000ffffffffffffffffffffffff9260e01b169660601b1691161717171717905560058401916108b961020460043501613383565b16908254161790556102246004350135600683015560078201906102446004350135908116809103610b5d5773ffffffffffffffffffffffffffffffffffffffff1982541617905561091661026460043501600435600401613394565b9067ffffffffffffffff8211610c275781906109356008850154613158565b601f8111610cb1575b508590601f8311600114610c46578692610c3b575b50508160011b915f199060031b1c19161760088201555b61097f61028460043501600435600401613394565b9067ffffffffffffffff8211610c2757819061099e6009850154613158565b601f8111610bd7575b508590601f8311600114610b6c578692610b61575b50508160011b915f199060031b1c19161760098201555b600a81016004356102a481013590360360221901811215610b5d57600435019060048201359167ffffffffffffffff8311610b59576024018260051b36038113610b5957680100000000000000008311610b45578154838355808410610b1f575b5090855260208520855b838110610b0b57602086604089600b890167ffffffffffffffff610a676102c4600435016133c7565b168154906fffffffffffffffffffffffffffffffff196fffffffffffffffff0000000000000000610a9d6102e4600435016133c7565b871b16921617179055828152600584526024358282205560243581526006845220600160ff19825416179055604051817f0215c6902787bce369520b2032915a714819e29cd4230ff91ab746ae8752947d339280610b006004356004018261340e565b0390a3604051908152f35b600190602084359401938184015501610a3e565b828752836020882091820191015b818110610b3a5750610a34565b5f8155600101610b2d565b602486634e487b7160e01b81526041600452fd5b8580fd5b8480fd5b013590505f806109bc565b60098501875260208720879450915b601f1984168510610bbf576001945083601f19811610610ba6575b505050811b0160098201556109d3565b01355f19600384901b60f8161c191690555f8080610b96565b81810135835560209485019460019093019201610b7b565b90915060098401865260208620601f840160051c810160208510610c20575b90849392915b601f830160051c82018110610c125750506109a7565b5f8155859450600101610bfc565b5080610bf6565b602485634e487b7160e01b81526041600452fd5b013590505f80610953565b60088501875260208720879450915b601f1984168510610c99576001945083601f19811610610c80575b505050811b01600882015561096a565b01355f19600384901b60f8161c191690555f8080610c70565b81810135835560209485019460019093019201610c55565b90915060088401865260208620601f840160051c810160208510610cfa575b90849392915b601f830160051c82018110610cec57505061093e565b5f8155859450600101610cd6565b5080610cd0565b8c80fd5b8880fd5b8680fd5b606460405163d647364f60e01b815260206004820152601960248201527f50726f706f73616c2072656620616c72656164792075736564000000000000006044820152fd5b60405163d647364f60e01b815260206004820152601460248201527f4d697373696e672070726f706f73616c207265660000000000000000000000006044820152606490fd5b606460405163d647364f60e01b815260206004820152601160248201527f5265676973747279206d69736d617463680000000000000000000000000000006044820152fd5b606460405163d647364f60e01b815260206004820152601860248201527f436f6d6d756e697479206e6f7420636f6e6669677572656400000000000000006044820152fd5b5081815116156105d9565b9080925081813d8311610f76575b610e4581836131dd565b81010312610f725760405191820182811067ffffffffffffffff821117610f5e57604052610e72816136ad565b8252610e80602082016136ad565b6020830152610e91604082016136ad565b6040830152610ea2606082016136ad565b6060830152610eb3608082016136ad565b6080830152610ec460a082016136ad565b60a0830152610ed560c082016136ad565b60c0830152610ee660e082016136ad565b60e0830152610100610ef98183016136ad565b90830152610120610f0b8183016136ad565b90830152610140610f1d8183016136ad565b90830152610160610f2f8183016136ad565b90830152610180610f418183016136ad565b90830152610f536101a08092016136ad565b908201525f806105c8565b634e487b7160e01b5f52604160045260245ffd5b8380fd5b503d610e3b565b6040513d86823e3d90fd5b5080fd5b50346101ea5760403660031901126101ea57610fa66130f0565b6001600160a01b03610fb66132f6565b91610fc136336136c1565b1690811561026957610fe99183526008602052604083209060ff801983541691151516179055565b80f35b50346101ea57806003193601126101ea57602060ff600954166040519015158152f35b50346101ea5760203660031901126101ea57611029613305565b61103336336136c1565b61ff0060095491151560081b169061ff0019161760095580f35b50346101ea57806003193601126101ea57602060ff60095460081c166040519015158152f35b50346101ea57806003193601126101ea576020600154604051908152f35b50346101ea57806003193601126101ea576001600160a01b036020915416604051908152f35b50346101ea5760203660031901126101ea5760ff60406020926001600160a01b036110e06130f0565b168152600784522054166040519015158152f35b50346101ea5760203660031901126101ea5760043580151580611159575b156111415760206040517f00000000000000000000000000000000000000000000000000000000000000008152f35b60249060405190633e8a1e4160e21b82526004820152fd5b50600154811115611112565b50346101ea57806003193601126101ea5760206040516001600160a01b037f0000000000000000000000000000000000000000000000000000000000000000168152f35b50346101ea5760203660031901126101ea576004356111c836336136c1565b80151580611228575b1561114157808252600460205260ff6040832054161561114157808252600460205260408220805460ff1916905533907f6a695f3885825e54664b734cb3f92b352642b7a4d913d39f61ce3904eaed7c058380a380f35b506001548111156111d1565b50346101ea57806003193601126101ea57805460a01c60ff16156112a1575060207f8fb36037000000000000000000000000000000000000000000000000000000005b7fffffffff0000000000000000000000000000000000000000000000000000000060405191168152f35b602090611277565b50346101ea5760203660031901126101ea5760ff60406020926004358152600484522054166040519015158152f35b503461142e57604036600319011261142e5760043560249081359160ff831680930361142e5761130836336136c1565b60095460ff8160081c166116115760101c6001600160a01b03168015610269576040517fb09afec100000000000000000000000000000000000000000000000000000000815283600482015261018080828581865afa918215611423575f92611501575b50506003815161137b816132ae565b611384816132ae565b036114bc5760208101517f00000000000000000000000000000000000000000000000000000000000000000361147757610100015167ffffffffffffffff1661143257803b1561142e575f928360449260405196879586947f8045303d00000000000000000000000000000000000000000000000000000000865260048601528401525af1801561142357611417575080f35b61142191506131ad565b005b6040513d5f823e3d90fd5b5f80fd5b60648260176040519163d647364f60e01b8352602060048401528201527f506f736974696f6e20616c726561647920636c6f7365640000000000000000006044820152fd5b60648360126040519163d647364f60e01b8352602060048401528201527f436f6d6d756e697479206d69736d6174636800000000000000000000000000006044820152fd5b60648360146040519163d647364f60e01b8352602060048401528201527f4e6f74206120706f736974696f6e20746f6b656e0000000000000000000000006044820152fd5b9080925081813d831161160a575b61151981836131dd565b8101031261142e5760405191820182811067ffffffffffffffff8211176115f7576040528051600581101561142e5782526020810151602083015260408101516040830152606081015160608301526080810151608083015261157e60a08201613687565b60a083015261158f60c08201613687565b60c08301526115a060e08201613698565b60e08301526101006115b3818301613698565b908301526101206115c5818301613698565b90830152610140808201519060ff8216820361142e578301526115ec6101608092016136ad565b908201525f8061136c565b84634e487b7160e01b5f5260416004525ffd5b503d61150f565b60405163d647364f60e01b815260206004820152600f60248201527f49737375616e63652070617573656400000000000000000000000000000000006044820152606490fd5b3461142e575f36600319011261142e5760206040517f00000000000000000000000000000000000000000000000000000000000000008152f35b3461142e57602036600319011261142e576116aa613305565b6116b436336136c1565b60ff80196009541691151516176009555f80f35b3461142e57602036600319011261142e576116e16130f0565b5f54906001600160a01b0390818316330361177c57803b1561174a577f2f658b440c35314f52658ea8a740e05b284cdc84dc9ae01e891f21b8933e7cad9260209273ffffffffffffffffffffffffffffffffffffffff19921691829116175f55604051908152a1005b602491604051917fc2f31e5e000000000000000000000000000000000000000000000000000000008352166004820152fd5b602460405162d1953b60e31b8152336004820152fd5b3461142e57608036600319011261142e576117ab6130f0565b602435600381101561142e5760443560643567ffffffffffffffff811161142e576117da90369060040161312a565b90936117e636336136c1565b60095460ff8160081c16611611576001600160a01b03809160101c1691821561026957169182156102695783156119175760405180927f56ea547f000000000000000000000000000000000000000000000000000000008252846004830152611852602483018861367a565b85604483015260806064830152815f8161187460209b8c976084840191613329565b03925af19384156114235785915f956118c4575b508492917f01f44671cf0417f4d6b97178acbc6099efd02021ba154faf174f81a738331e88916118bb604051809261367a565ba4604051908152f35b9450919084813d8111611910575b6118dc81836131dd565b8101031261142e579251929084907f01f44671cf0417f4d6b97178acbc6099efd02021ba154faf174f81a738331e88611888565b503d6118d2565b606460405163d647364f60e01b815260206004820152601460248201527f4d697373696e6720616374696f6e5479706549640000000000000000000000006044820152fd5b3461142e5760031960403682011261142e57600435602491823567ffffffffffffffff9182821161142e5781600401946103008336039283011261142e576119a436336136c1565b84151580611fe8575b15611fd257845f526020906004825260ff60405f20541615611fbc576119d287613884565b855f526002825260405f209263ffffffff92836119ee8a613383565b1663ffffffff199081875416178655611a2d611a0b858901613383565b875467ffffffff00000000191660209190911b67ffffffff0000000016178755565b611a66611a3c60448901613383565b87546bffffffff0000000000000000191660409190911b6bffffffff000000000000000016178755565b6064870135600481101561142e5760ff60601b87549160601b169060ff60601b1916178655600194608488013586880155600287019181611aa960a48b01613383565b1692805460c48b0135946005958681101561142e5780611ace64ff00000000926132ae565b881b169164ffffffffff19161717905560e489013560038901556004880182611afa6101048c01613383565b1682825416178155611b1261077a6101248c01613383565b611b226107ae6101448c01613383565b611b2f6101648b01613383565b8a825473ffffffff00000000000000000000000000000000611b546101848401613383565b60801b1663ffffffff60a01b611b6d6101a48501613383565b60a01b16916101e463ffffffff60c01b611b8a6101c48701613383565b60c01b1694013580151580910361142e576fffffffff00000000000000000000000060ff60e01b7fffffff0000000000000000000000000000000000ffffffffffffffffffffffff9260e01b169660601b1691161717171717905582880191611bf66102048b01613383565b16908254161790556102248701356006870155600786016102448801356001600160a01b03811680910361142e5773ffffffffffffffffffffffffffffffffffffffff1982541617905560088601611c5261026489018c613394565b8a8193929311611fa95780611c678354613158565b93601f94858111611f5d575b505f90858311600114611efe575f92611ef3575b50505f19600383901b1c191690881b1790555b6009870190611cad6102848a018d613394565b91908b8311611ee057908291611cc38554613158565b828111611e92575b505f918311600114611e33575f92611e28575b50505f19600383901b1c191690871b1790555b600a8601926102a4880135906022190181121561142e5787019360048501359489861161142e5781869101921b3603821361142e57680100000000000000008511611e1657508254848455808510611def575b50915f52805f20905f5b848110611dde57505050505050600b0191611d6c6102c483016133c7565b166fffffffffffffffffffffffffffffffff196fffffffffffffffff0000000000000000611d9f6102e4865495016133c7565b60401b169216171790557f493172a5da918afdb4e470aad2ba421ac5dd8393bcd81aff0c9ccc69f619099660405180611dd933958261340e565b0390a3005b833583820155928101928501611d4e565b835f528585845f2092830192015b828110611e0b575050611d44565b5f8155018690611dfd565b634e487b7160e01b5f5260416004525ffd5b013590508d80611cde565b899350601f19831691855f52875f20925f5b89828210611e7c5750508411611e63575b505050811b019055611cf1565b01355f19600384901b60f8161c191690558d8080611e56565b8385013586558d97909501949283019201611e45565b90919250845f52865f2083808601881c820192898710611ed7575b9186958d9295949301891c01915b828110611ec9575050611ccb565b5f81558695508c9101611ebb565b92508192611ead565b87634e487b7160e01b5f5260416004525ffd5b013590508e80611c87565b8a9350601f19831691855f52885f20925f5b8a828210611f475750508411611f2e575b505050811b019055611c9a565b01355f19600384901b60f8161c191690558e8080611f21565b8385013586558e97909501949283019201611f10565b909150835f52865f2085808501881c820192898610611fa0575b918c918695949301891c01915b828110611f92575050611c73565b5f81558594508c9101611f84565b92508192611f77565b86634e487b7160e01b5f5260416004525ffd5b8560405190633e8a1e4160e21b82526004820152fd5b8460405190633e8a1e4160e21b82526004820152fd5b506001548511156119ad565b3461142e57602036600319011261142e576001600160a01b036120156130f0565b165f52600a602052602060ff60405f2054166040519015158152f35b3461142e57602036600319011261142e575f6102e060405161205281613190565b8281528260208201528260408201528260608201528260808201528260a08201528260c08201528260e08201528261010082015282610120820152826101408201528261016082015282610180820152826101a0820152826101c0820152826101e08201528261020082015282610220820152826102408201526060610260820152606061028082015260606102a0820152826102c082015201526004351515806124eb575b156124d2576004355f52600260205260405f206040519061211882613190565b805463ffffffff8116835263ffffffff8160201c16602084015263ffffffff8160401c166040840152600460ff8260601c1610156124be5760ff9060601c1660608301526001810154608083015260ff600282015463ffffffff811660a0850152612187828260201c166132ae565b60201c1660c0830152600381015460e083015260ff600482015463ffffffff811661010085015263ffffffff8160201c1661012085015263ffffffff8160401c1661014085015263ffffffff8160601c1661016085015263ffffffff8160801c1661018085015263ffffffff8160a01c166101a085015263ffffffff8160c01c166101c085015260e01c1615156101e083015263ffffffff60058201541661020083015260068101546102208301526001600160a01b03600782015416610240830152612256600882016131ff565b610260830152612268600982016131ff565b610280830152604051806020600a840154918281520190600a84015f5260205f20905f5b8181106124a8578667ffffffffffffffff600b88886122ad818a03826131dd565b6102a085015201548181166102c084015260401c166102e08201526040516020815263ffffffff825116602082015263ffffffff602083015116604082015263ffffffff604083015116606082015261230e606083015160808301906132a1565b608082015160a082015263ffffffff60a08301511660c082015260c0820151612336816132ae565b60e082015260e082015161010082015263ffffffff6101008301511661012082015263ffffffff6101208301511661014082015263ffffffff6101408301511661016082015263ffffffff6101608301511661018082015263ffffffff610180830151166101a082015263ffffffff6101a0830151166101c082015263ffffffff6101c0830151166101e08201526101e0820151151561020082015263ffffffff610200830151166102208201526102208201516102408201526001600160a01b036102408301511661026082015261026082015161242461030091826102808501526103208401906132b8565b9061244361028085015192601f199384868303016102a08701526132b8565b6102a085015192848203016102c0850152602080845192838152019301905f5b8181106124925750505067ffffffffffffffff6102e085826102c0879801511682870152015116908301520390f35b8251855260209485019490920191600101612463565b825484526020909301926001928301920161228c565b634e487b7160e01b5f52602160045260245ffd5b6024604051633e8a1e4160e21b81526004356004820152fd5b5060015460043511156120f8565b3461142e57608036600319011261142e576125126130f0565b60243561251d613106565b9060643567ffffffffffffffff811161142e5761253e90369060040161312a565b92909361254b36336136c1565b60095460ff8160081c16611611576001600160a01b03809160101c1691821561026957169182156102695783156126c05763ffffffff1693841561267b5760405180927f874f414500000000000000000000000000000000000000000000000000000000825284600483015285602483015286604483015260806064830152815f816125df60209b8c976084840191613329565b03925af19384156114235785915f95612628575b508492917f7b8043c22ce41e0e1794bd92378dbf37e79f87ac6b347b584e6ef04ee52296ff91604051908152a4604051908152f35b9450919084813d8111612674575b61264081836131dd565b8101031261142e579251929084907f7b8043c22ce41e0e1794bd92378dbf37e79f87ac6b347b584e6ef04ee52296ff6125f3565b503d612636565b606460405163d647364f60e01b815260206004820152601560248201527f5765696768742063616e6e6f74206265207a65726f00000000000000000000006044820152fd5b606460405163d647364f60e01b815260206004820152601060248201527f4d697373696e6720636f686f72744964000000000000000000000000000000006044820152fd5b3461142e57604036600319011261142e5760243560043561272636336136c1565b801515806127da575b15611141578115610d5257805f5260056020528160405f20540361279557805f52600460205260405f20600160ff1982541617905560056020525f60408120557f7ffae721983994812770c99f4f10d1cfc94bc4b5d28b08e6ce84a796fefaa3a75f80a3005b606460405163d647364f60e01b815260206004820152601560248201527f50726f706f73616c20726566206d69736d6174636800000000000000000000006044820152fd5b5060015481111561272f565b3461142e57604036600319011261142e576127ff6130f0565b6001600160a01b0361280f6132f6565b9161281a36336136c1565b16801561026957805f5260036020526128428260405f209060ff801983541691151516179055565b60405191151582527f6e0f223019887734edb3e629fad26bad6ceeb5108f25ae46e5c762fe264517c160203393a3005b3461142e575f36600319011261142e575f600190600154915b8281111561297257506128b66128a08261336b565b916128ae60405193846131dd565b80835261336b565b6020928383019291601f19013684375f60015b82811115612914575050509060405192839281840190828552518091526040840192915f5b8281106128fd57505050500390f35b8351855286955093810193928101926001016128ee565b805f526004865260ff60405f205416612936575b61293190613349565b6128c9565b9061294081613349565b91845182101561295e5780876129319360051b870101529050612928565b634e487b7160e01b5f52603260045260245ffd5b805f52600460205260ff60405f205416612995575b61299090613349565b61288b565b906129a261299091613349565b919050612987565b3461142e5760e036600319011261142e576129c36130f0565b6024356129ce613106565b906064359267ffffffffffffffff9081851680950361142e576084359180831680930361142e5760a4359060ff821680920361142e5760c43590811161142e57612a1c90369060040161312a565b939096612a2936336136c1565b60095460ff8160081c16611611576001600160a01b03809160101c169485156102695716948515610269578615612c12578115612bcd57818310612b885763ffffffff976040519889917fac701fb800000000000000000000000000000000000000000000000000000000835288600484015289602484015216958660448301528360648301528460848301528560a483015260e060c4830152815f81612ad860209e8f9760e4840191613329565b03925af1968715611423575f97612b31575b50927fe445780dcbd2ad8cc945215ffea2169bd0e452d2f0add6782ce444797b2ee9cb926080928896956040519384528a84015260408301526060820152a4604051908152f35b91965093928782813d8311612b81575b612b4b81836131dd565b8101031261142e5790519592939092907fe445780dcbd2ad8cc945215ffea2169bd0e452d2f0add6782ce444797b2ee9cb612aea565b503d612b41565b606460405163d647364f60e01b815260206004820152601760248201527f656e6465644174206265666f72652069737375656441740000000000000000006044820152fd5b606460405163d647364f60e01b815260206004820152601060248201527f4d697373696e67206973737565644174000000000000000000000000000000006044820152fd5b606460405163d647364f60e01b815260206004820152601260248201527f4d697373696e6720726f6c6554797065496400000000000000000000000000006044820152fd5b3461142e57602036600319011261142e576004355f526005602052602060405f2054604051908152f35b3461142e57602036600319011261142e576001600160a01b03612ca26130f0565b165f526008602052602060ff60405f2054166040519015158152f35b3461142e57604036600319011261142e57612cd76130f0565b6001600160a01b03612ce76132f6565b91612cf236336136c1565b1690811561026957611421915f52600760205260405f209060ff801983541691151516179055565b3461142e57602036600319011261142e576004355f52600260205260405f20805460018201549160028101549060038101546004820154600583015463ffffffff1660068401549060078501546001600160a01b03169260088601612d7e906131ff565b94612d8b600988016131ff565b96600b0154976040519a8a63ffffffff8d9c168c528060201c63ffffffff1660208d01528060401c63ffffffff1660408d015260608c019060601c60ff1690612dd3916132a1565b60808b015263ffffffff811660a08b01528060201c60ff16612df4906132ae565b60201c60ff1660c08a015260e089015263ffffffff81166101008901528060201c63ffffffff166101208901528060401c63ffffffff166101408901528060601c63ffffffff166101608901528060801c63ffffffff166101808901528060a01c63ffffffff166101a08901528060c01c63ffffffff166101c089015260e01c60ff1615156101e088015261020087015261022086015261024085015261026084016102e090526102e08401612ea9916132b8565b838103610280850152612ebb916132b8565b9067ffffffffffffffff81166102a084015260401c67ffffffffffffffff166102c08301520390f35b3461142e57608036600319011261142e57612efd6130f0565b602435612f08613106565b9060643567ffffffffffffffff811161142e57612f2990369060040161312a565b929093612f3636336136c1565b60095460ff8160081c16611611576001600160a01b03809160101c1691821561026957169182156102695783156130ab5763ffffffff169384156130665760405180927f6a4bff2300000000000000000000000000000000000000000000000000000000825284600483015285602483015286604483015260806064830152815f81612fca60209b8c976084840191613329565b03925af19384156114235785915f95613013575b508492917f554dfed9e991f9e5ac3172a909c508958a35fc35bb05650bd8952f2a5db6c6e091604051908152a4604051908152f35b9450919084813d811161305f575b61302b81836131dd565b8101031261142e579251929084907f554dfed9e991f9e5ac3172a909c508958a35fc35bb05650bd8952f2a5db6c6e0612fde565b503d613021565b606460405163d647364f60e01b815260206004820152601560248201527f506f696e74732063616e6e6f74206265207a65726f00000000000000000000006044820152fd5b606460405163d647364f60e01b815260206004820152601660248201527f4d697373696e6720706f736974696f6e547970654964000000000000000000006044820152fd5b600435906001600160a01b038216820361142e57565b6044359063ffffffff8216820361142e57565b359063ffffffff8216820361142e57565b9181601f8401121561142e5782359167ffffffffffffffff831161142e576020838186019501011161142e57565b90600182811c92168015613186575b602083101461317257565b634e487b7160e01b5f52602260045260245ffd5b91607f1691613167565b610300810190811067ffffffffffffffff821117610f5e57604052565b67ffffffffffffffff8111610f5e57604052565b60a0810190811067ffffffffffffffff821117610f5e57604052565b90601f8019910116810190811067ffffffffffffffff821117610f5e57604052565b9060405191825f825461321181613158565b908184526020946001916001811690815f1461327f5750600114613241575b50505061323f925003836131dd565b565b5f90815285812095935091905b81831061326757505061323f93508201015f8080613230565b8554888401850152948501948794509183019161324e565b9250505061323f94925060ff191682840152151560051b8201015f8080613230565b9060048210156124be5752565b600511156124be57565b91908251928382525f5b8481106132e2575050825f602080949584010152601f8019910116010190565b6020818301810151848301820152016132c2565b60243590811515820361142e57565b60043590811515820361142e57565b359067ffffffffffffffff8216820361142e57565b908060209392818452848401375f828201840152601f01601f1916010190565b5f1981146133575760010190565b634e487b7160e01b5f52601160045260245ffd5b67ffffffffffffffff8111610f5e5760051b60200190565b3563ffffffff8116810361142e5790565b903590601e198136030182121561142e570180359067ffffffffffffffff821161142e5760200191813603831361142e57565b3567ffffffffffffffff8116810361142e5790565b9035601e198236030181121561142e57016020813591019167ffffffffffffffff821161142e57813603831361142e57565b60209182825263ffffffff8061342383613119565b168484015280613434858401613119565b1660408401528061344760408401613119565b1660608401526060820135600481101561142e576134699060808501906132a1565b608082013560a08401528061348060a08401613119565b1660c084015260c0820135600581101561142e5761349d816132ae565b60e084015261353061351f61350e6134fd6134ec6134db6134ca61010060e08a0135818c01528901613119565b876101209116818b01528801613119565b866101409116818a01528701613119565b856101609116818901528601613119565b846101809116818801528501613119565b836101a09116818701528401613119565b826101c09116818601528301613119565b816101e091168185015282013580151580910361142e5761355a9061020090818601528301613119565b906102209116818401526102409082013581840152810135916001600160a01b03831680930361142e5761359b6135dc9361026090818401528301836133dc565b926135c36135ba61030093610280968588880152610320870191613329565b948201826133dc565b959094601f19966102a096888784030188880152613329565b93810135601e198236030181121561142e5781019486863596019167ffffffffffffffff9283881161142e578760051b97883603821361142e577f07ffffffffffffffffffffffffffffffffffffffffffffffffffffffffffffff906102c094888a0301858901528089521161142e576136719288613660928b8a01378201613314565b90836102e092168287015201613314565b16910152010190565b9060038210156124be5752565b519063ffffffff8216820361142e57565b519067ffffffffffffffff8216820361142e57565b51906001600160a01b038216820361142e57565b5f915f54916001600160a01b03808416928060041161142e575f92838491604095869182519660208801917fb700961300000000000000000000000000000000000000000000000000000000835216968760248201523060448201527fffffffff00000000000000000000000000000000000000000000000000000000833516606482015260648152613753816131c1565b828052826020525190895afa613871575b15613773575b50505050505050565b63ffffffff161561385b57740100000000000000000000000000000000000000007fffffffffffffffffffffff00ffffffffffffffffffffffffffffffffffffffff809616175f55833b1561142e576064935f928385519687809581947f94c7d7ee00000000000000000000000000000000000000000000000000000000835260048301528860248301528060448301528084848401378181018301849052601f01601f191681010301925af1908115613852575061383f575b5081541690555f80808080808061376a565b61384a9192506131ad565b5f905f61382d565b513d5f823e3d90fd5b50602491519062d1953b60e31b82526004820152fd5b50505f516020518060201c150290613764565b63ffffffff908161389482613383565b1615613b65576101008101826138a982613383565b1615613b2057610120820190836138bf83613383565b1615613adb57836138d96138d38293613383565b93613383565b16911611613a7057816138ef6101408301613383565b1615613a2b57612710826139066101808401613383565b16116139e65761391a610260820182613394565b90501561397b576101a061392e9101613383565b161561393657565b606460405163d647364f60e01b815260206004820152601e60248201527f436f6f6c646f776e20706572696f642063616e6e6f74206265207a65726f00006044820152fd5b608460405163d647364f60e01b815260206004820152602160248201527f45766964656e63652073706563204349442063616e6e6f7420626520656d707460448201527f79000000000000000000000000000000000000000000000000000000000000006064820152fd5b606460405163d647364f60e01b815260206004820152601d60248201527f536c61736820726174652063616e6e6f742065786365656420313030250000006044820152fd5b606460405163d647364f60e01b815260206004820152601c60248201527f5665726966792077696e646f772063616e6e6f74206265207a65726f000000006044820152fd5b608460405163d647364f60e01b815260206004820152602760248201527f4d696e696d756d206a75726f72732063616e6e6f74206578636565642070616e60448201527f656c2073697a65000000000000000000000000000000000000000000000000006064820152fd5b606460405163d647364f60e01b815260206004820152601960248201527f50616e656c2073697a652063616e6e6f74206265207a65726f000000000000006044820152fd5b606460405163d647364f60e01b815260206004820152601d60248201527f4d696e696d756d206a75726f72732063616e6e6f74206265207a65726f0000006044820152fd5b608460405163d647364f60e01b815260206004820152602560248201527f4d656d62657273686970546f6b656e207265776172642063616e6e6f7420626560448201527f207a65726f0000000000000000000000000000000000000000000000000000006064820152fdfea2646970667358221220b5155bb28bd57a21722d95bc3b373504c922818ed21bed2a7f7c02f91edd9a3e64736f6c63430008180033","linkReferences":{}},"methodIdentifiers":{"activateFromGovernance(uint256,bytes32)":"408a6802","addFounder(address)":"ef4ec047","authority()":"bf7e214f","closePositionToken(uint256,uint8)":"8045303d","communityByActionId(uint256)":"a2e7b04c","communityId()":"7f50861a","communityNarrowingEnabled()":"ca497d49","communityRegistry()":"a200ac86","deactivate(uint256)":"916b9bef","founderWhitelist(address)":"5d672bb8","getActiveValuableActions()":"3bc87c9c","getCommunityFounders()":"fa889b23","getValuableAction(uint256)":"5cfdb862","isActive(uint256)":"82afd23b","isCommunityIssuanceModule(address)":"22061c23","isConsumingScheduledOp()":"8fb36037","isIssuanceModule(address)":"a90e069e","isModerator(address)":"fa6f3936","isValuableActionActive(uint256)":"e9ea801c","issuancePaused()":"c691af92","issueEngagement(address,uint8,bytes32,bytes)":"71304940","issueInvestment(address,uint256,uint32,bytes)":"4104c3be","issuePosition(address,bytes32,uint32,bytes)":"041848f9","issueRoleFromPosition(address,bytes32,uint32,uint64,uint64,uint8,bytes)":"2f1ec91c","lastId()":"c1292cc3","pendingValuableActions(uint256)":"2262fd9d","proposalRefUsed(bytes32)":"ff3a41ab","proposeValuableAction((uint32,uint32,uint32,uint8,bytes32,uint32,uint8,bytes32,uint32,uint32,uint32,uint32,uint32,uint32,uint32,bool,uint32,uint256,address,string,string,bytes32[],uint64,uint64),bytes32)":"e610e6dd","setAuthority(address)":"7a9e5e4b","setCommunityIssuanceModule(address,bool)":"e08d5b8a","setCommunityNarrowing(bool)":"7d0df1be","setIssuanceModule(address,bool)":"14f1d4f1","setIssuancePaused(bool)":"c6ffb6cb","setModerator(address,bool)":"3ee2b01d","setValuableActionSBT(address)":"ff012a43","update(uint256,(uint32,uint32,uint32,uint8,bytes32,uint32,uint8,bytes32,uint32,uint32,uint32,uint32,uint32,uint32,uint32,bool,uint32,uint256,address,string,string,bytes32[],uint64,uint64))":"6da7a0ba","valuableActionSBT()":"e8901184","valuableActionsById(uint256)":"0c5940fd"},"id":27}