{"abi":[{"type":"constructor","inputs":[{"name":"accessManager","type":"address","internalType":"address"},{"name":"_communityId","type":"uint256","internalType":"uint256"}],"stateMutability":"nonpayable"},{"type":"function","name":"approve","inputs":[{"name":"","type":"address","internalType":"address"},{"name":"","type":"uint256","internalType":"uint256"}],"outputs":[],"stateMutability":"pure"},{"type":"function","name":"authority","inputs":[],"outputs":[{"name":"","type":"address","internalType":"address"}],"stateMutability":"view"},{"type":"function","name":"balanceOf","inputs":[{"name":"owner","type":"address","internalType":"address"}],"outputs":[{"name":"","type":"uint256","internalType":"uint256"}],"stateMutability":"view"},{"type":"function","name":"closePositionToken","inputs":[{"name":"tokenId","type":"uint256","internalType":"uint256"},{"name":"outcome","type":"uint8","internalType":"uint8"}],"outputs":[],"stateMutability":"nonpayable"},{"type":"function","name":"communityId","inputs":[],"outputs":[{"name":"","type":"uint256","internalType":"uint256"}],"stateMutability":"view"},{"type":"function","name":"getApproved","inputs":[{"name":"tokenId","type":"uint256","internalType":"uint256"}],"outputs":[{"name":"","type":"address","internalType":"address"}],"stateMutability":"view"},{"type":"function","name":"getTokenData","inputs":[{"name":"tokenId","type":"uint256","internalType":"uint256"}],"outputs":[{"name":"","type":"tuple","internalType":"struct ValuableActionSBT.TokenData","components":[{"name":"kind","type":"uint8","internalType":"enum ValuableActionSBT.TokenKind"},{"name":"communityId","type":"uint256","internalType":"uint256"},{"name":"actionTypeId","type":"bytes32","internalType":"bytes32"},{"name":"roleTypeId","type":"bytes32","internalType":"bytes32"},{"name":"cohortId","type":"uint256","internalType":"uint256"},{"name":"points","type":"uint32","internalType":"uint32"},{"name":"weight","type":"uint32","internalType":"uint32"},{"name":"issuedAt","type":"uint64","internalType":"uint64"},{"name":"endedAt","type":"uint64","internalType":"uint64"},{"name":"expiry","type":"uint64","internalType":"uint64"},{"name":"closeOutcome","type":"uint8","internalType":"uint8"},{"name":"verifier","type":"address","internalType":"address"}]}],"stateMutability":"view"},{"type":"function","name":"isApprovedForAll","inputs":[{"name":"owner","type":"address","internalType":"address"},{"name":"operator","type":"address","internalType":"address"}],"outputs":[{"name":"","type":"bool","internalType":"bool"}],"stateMutability":"view"},{"type":"function","name":"isConsumingScheduledOp","inputs":[],"outputs":[{"name":"","type":"bytes4","internalType":"bytes4"}],"stateMutability":"view"},{"type":"function","name":"mintEngagement","inputs":[{"name":"to","type":"address","internalType":"address"},{"name":"subtype","type":"uint8","internalType":"enum Types.EngagementSubtype"},{"name":"actionTypeId","type":"bytes32","internalType":"bytes32"},{"name":"metadata","type":"bytes","internalType":"bytes"}],"outputs":[{"name":"tokenId","type":"uint256","internalType":"uint256"}],"stateMutability":"nonpayable"},{"type":"function","name":"mintInvestment","inputs":[{"name":"to","type":"address","internalType":"address"},{"name":"cohortId","type":"uint256","internalType":"uint256"},{"name":"weight","type":"uint32","internalType":"uint32"},{"name":"metadata","type":"bytes","internalType":"bytes"}],"outputs":[{"name":"tokenId","type":"uint256","internalType":"uint256"}],"stateMutability":"nonpayable"},{"type":"function","name":"mintPosition","inputs":[{"name":"to","type":"address","internalType":"address"},{"name":"positionTypeId","type":"bytes32","internalType":"bytes32"},{"name":"points","type":"uint32","internalType":"uint32"},{"name":"metadata","type":"bytes","internalType":"bytes"}],"outputs":[{"name":"tokenId","type":"uint256","internalType":"uint256"}],"stateMutability":"nonpayable"},{"type":"function","name":"mintRoleFromPosition","inputs":[{"name":"to","type":"address","internalType":"address"},{"name":"roleTypeId","type":"bytes32","internalType":"bytes32"},{"name":"points","type":"uint32","internalType":"uint32"},{"name":"issuedAt","type":"uint64","internalType":"uint64"},{"name":"endedAt","type":"uint64","internalType":"uint64"},{"name":"closeOutcome","type":"uint8","internalType":"uint8"},{"name":"metadata","type":"bytes","internalType":"bytes"}],"outputs":[{"name":"tokenId","type":"uint256","internalType":"uint256"}],"stateMutability":"nonpayable"},{"type":"function","name":"name","inputs":[],"outputs":[{"name":"","type":"string","internalType":"string"}],"stateMutability":"view"},{"type":"function","name":"nextTokenId","inputs":[],"outputs":[{"name":"","type":"uint256","internalType":"uint256"}],"stateMutability":"view"},{"type":"function","name":"ownerOf","inputs":[{"name":"tokenId","type":"uint256","internalType":"uint256"}],"outputs":[{"name":"","type":"address","internalType":"address"}],"stateMutability":"view"},{"type":"function","name":"safeTransferFrom","inputs":[{"name":"from","type":"address","internalType":"address"},{"name":"to","type":"address","internalType":"address"},{"name":"tokenId","type":"uint256","internalType":"uint256"}],"outputs":[],"stateMutability":"nonpayable"},{"type":"function","name":"safeTransferFrom","inputs":[{"name":"from","type":"address","internalType":"address"},{"name":"to","type":"address","internalType":"address"},{"name":"tokenId","type":"uint256","internalType":"uint256"},{"name":"data","type":"bytes","internalType":"bytes"}],"outputs":[],"stateMutability":"nonpayable"},{"type":"function","name":"setApprovalForAll","inputs":[{"name":"","type":"address","internalType":"address"},{"name":"","type":"bool","internalType":"bool"}],"outputs":[],"stateMutability":"pure"},{"type":"function","name":"setAuthority","inputs":[{"name":"newAuthority","type":"address","internalType":"address"}],"outputs":[],"stateMutability":"nonpayable"},{"type":"function","name":"setEndedAt","inputs":[{"name":"tokenId","type":"uint256","internalType":"uint256"},{"name":"endedAt","type":"uint64","internalType":"uint64"}],"outputs":[],"stateMutability":"nonpayable"},{"type":"function","name":"supportsInterface","inputs":[{"name":"interfaceId","type":"bytes4","internalType":"bytes4"}],"outputs":[{"name":"","type":"bool","internalType":"bool"}],"stateMutability":"view"},{"type":"function","name":"symbol","inputs":[],"outputs":[{"name":"","type":"string","internalType":"string"}],"stateMutability":"view"},{"type":"function","name":"tokenURI","inputs":[{"name":"tokenId","type":"uint256","internalType":"uint256"}],"outputs":[{"name":"","type":"string","internalType":"string"}],"stateMutability":"view"},{"type":"function","name":"transferFrom","inputs":[{"name":"from","type":"address","internalType":"address"},{"name":"to","type":"address","internalType":"address"},{"name":"tokenId","type":"uint256","internalType":"uint256"}],"outputs":[],"stateMutability":"nonpayable"},{"type":"function","name":"updateTokenURI","inputs":[{"name":"tokenId","type":"uint256","internalType":"uint256"},{"name":"newURI","type":"string","internalType":"string"}],"outputs":[],"stateMutability":"nonpayable"},{"type":"event","name":"Approval","inputs":[{"name":"owner","type":"address","indexed":true,"internalType":"address"},{"name":"approved","type":"address","indexed":true,"internalType":"address"},{"name":"tokenId","type":"uint256","indexed":true,"internalType":"uint256"}],"anonymous":false},{"type":"event","name":"ApprovalForAll","inputs":[{"name":"owner","type":"address","indexed":true,"internalType":"address"},{"name":"operator","type":"address","indexed":true,"internalType":"address"},{"name":"approved","type":"bool","indexed":false,"internalType":"bool"}],"anonymous":false},{"type":"event","name":"AuthorityUpdated","inputs":[{"name":"authority","type":"address","indexed":false,"internalType":"address"}],"anonymous":false},{"type":"event","name":"BatchMetadataUpdate","inputs":[{"name":"_fromTokenId","type":"uint256","indexed":false,"internalType":"uint256"},{"name":"_toTokenId","type":"uint256","indexed":false,"internalType":"uint256"}],"anonymous":false},{"type":"event","name":"MetadataUpdate","inputs":[{"name":"_tokenId","type":"uint256","indexed":false,"internalType":"uint256"}],"anonymous":false},{"type":"event","name":"TokenIssued","inputs":[{"name":"tokenId","type":"uint256","indexed":true,"internalType":"uint256"},{"name":"kind","type":"uint8","indexed":false,"internalType":"enum ValuableActionSBT.TokenKind"},{"name":"communityId","type":"uint256","indexed":true,"internalType":"uint256"},{"name":"subject","type":"address","indexed":true,"internalType":"address"}],"anonymous":false},{"type":"event","name":"Transfer","inputs":[{"name":"from","type":"address","indexed":true,"internalType":"address"},{"name":"to","type":"address","indexed":true,"internalType":"address"},{"name":"tokenId","type":"uint256","indexed":true,"internalType":"uint256"}],"anonymous":false},{"type":"error","name":"AccessManagedInvalidAuthority","inputs":[{"name":"authority","type":"address","internalType":"address"}]},{"type":"error","name":"AccessManagedRequiredDelay","inputs":[{"name":"caller","type":"address","internalType":"address"},{"name":"delay","type":"uint32","internalType":"uint32"}]},{"type":"error","name":"AccessManagedUnauthorized","inputs":[{"name":"caller","type":"address","internalType":"address"}]},{"type":"error","name":"ERC721IncorrectOwner","inputs":[{"name":"sender","type":"address","internalType":"address"},{"name":"tokenId","type":"uint256","internalType":"uint256"},{"name":"owner","type":"address","internalType":"address"}]},{"type":"error","name":"ERC721InsufficientApproval","inputs":[{"name":"operator","type":"address","internalType":"address"},{"name":"tokenId","type":"uint256","internalType":"uint256"}]},{"type":"error","name":"ERC721InvalidApprover","inputs":[{"name":"approver","type":"address","internalType":"address"}]},{"type":"error","name":"ERC721InvalidOperator","inputs":[{"name":"operator","type":"address","internalType":"address"}]},{"type":"error","name":"ERC721InvalidOwner","inputs":[{"name":"owner","type":"address","internalType":"address"}]},{"type":"error","name":"ERC721InvalidReceiver","inputs":[{"name":"receiver","type":"address","internalType":"address"}]},{"type":"error","name":"ERC721InvalidSender","inputs":[{"name":"sender","type":"address","internalType":"address"}]},{"type":"error","name":"ERC721NonexistentToken","inputs":[{"name":"tokenId","type":"uint256","internalType":"uint256"}]},{"type":"error","name":"InvalidInput","inputs":[{"name":"reason","type":"string","internalType":"string"}]},{"type":"error","name":"Soulbound","inputs":[]},{"type":"error","name":"TokenNotExists","inputs":[{"name":"tokenId","type":"uint256","internalType":"uint256"}]},{"type":"error","name":"ZeroAddress","inputs":[]}],"bytecode":{"object":"0x604060a0815234620003fa576200254881813803918262000020816200041e565b938492833981010312620003fa5780516001600160a01b0381169190829003620003fa576020809101519162000055620003fe565b601881527f53686966742056616c7561626c65416374696f6e2053425400000000000000008382015262000088620003fe565b600981526814d21251950b54d09560ba1b8482015281516001600160401b03919082811162000318575f54906001948583811c93168015620003ef575b88841014620002f9578190601f938481116200039c575b50889084831160011462000338575f926200032c575b50505f19600383901b1c191690851b175f555b815192831162000318578354918483811c931680156200030d575b87841014620002f9578282859411620002a4575b508691831160011462000240575f9262000234575b50505f19600383901b1c191690821b1781555b600780546001600160a01b0319168317905584518281527f2f658b440c35314f52658ea8a740e05b284cdc84dc9ae01e891f21b8933e7cad908490a16008551562000223578115620001df57506080525161210390816200044582396080518181816105e80152818161094601528181610b6701528181610d5d0152610eef0152f35b60649083519063d647364f60e01b82526004820152601360248201527f496e76616c696420636f6d6d756e6974794964000000000000000000000000006044820152fd5b825163d92e233d60e01b8152600490fd5b015190505f8062000149565b90849350601f19831691845f52875f20925f5b898282106200028d575050841162000274575b505050811b0181556200015c565b01515f1960f88460031b161c191690555f808062000266565b838501518655889790950194938401930162000253565b90919250845f52865f208380860160051c820192898710620002ef575b91869588929594930160051c01915b828110620002e057505062000134565b5f8155869550879101620002d0565b92508192620002c1565b634e487b7160e01b5f52602260045260245ffd5b92607f169262000120565b634e487b7160e01b5f52604160045260245ffd5b015190505f80620000f2565b90879350601f198316915f80528a5f20925f5b8c8282106200038557505084116200036c575b505050811b015f5562000105565b01515f1960f88460031b161c191690555f80806200035e565b8385015186558b979095019493840193016200034b565b9091505f8052885f208480850160051c8201928b8610620003e5575b918991869594930160051c01915b828110620003d6575050620000dc565b5f8155859450899101620003c6565b92508192620003b8565b92607f1692620000c5565b5f80fd5b60408051919082016001600160401b038111838210176200031857604052565b6040519190601f01601f191682016001600160401b03811183821017620003185760405256fe6080806040526004361015610012575f80fd5b5f3560e01c90816301ffc9a7146113455750806306fdde031461129e578063081812fc14611261578063095ea7b31461123657806318e97fd11461108d57806323b872dd1461107657806334481d7514610fd757806342842e0e14610faa57806356ea547f14610e395780636352211e14610e0a5780636a4bff2314610cd457806370a0823114610c6657806375794a3c14610c495780637a9e5e4b14610b8a5780637f50861a14610b505780638045303d146109f3578063874f4145146108bd5780638fb360371461086157806395d89b4114610783578063a22cb4651461074d578063ac701fb814610528578063b09afec114610310578063b88d4fde146102a2578063bf7e214f1461027c578063c87b56dd146101915763e985e9c51461013a575f80fd5b3461018d57604036600319011261018d5761015361146d565b61015b611483565b906001600160a01b038091165f52600560205260405f2091165f52602052602060ff60405f2054166040519015158152f35b5f80fd5b3461018d5760208060031936011261018d576004356101af81611801565b505f526006815260405f209060405191825f82546101cc816115c9565b93848452600191866001821691825f1461025a57505060011461021e575b50506101f892500383611555565b5f60405161020581611539565b5261021a60405192828493845283019061142f565b0390f35b8592505f52815f20905f915b8583106102425750506101f8935082010185806101ea565b8054838901850152879450869390920191810161022a565b92509350506101f894915060ff191682840152151560051b82010185806101ea565b3461018d575f36600319011261018d5760206001600160a01b0360075416604051908152f35b3461018d57608036600319011261018d576102bb61146d565b6102c3611483565b906044356064359267ffffffffffffffff841161018d573660238501121561018d576102fc61030e943690602481600401359101611593565b92610308838383611601565b33611f8a565b005b3461018d57602036600319011261018d576004355f6101606040516103348161151c565b8281528260208201528260408201528260608201528260808201528260a08201528260c08201528260e08201528261010082015282610120820152826101408201520152805f5260026020526001600160a01b0360405f20541615610510575f52600960205261018060405f206001600160a01b036006604051926103b88461151c565b6103c660ff825416856117f5565b60018101546020850152600281015460408501526003810154606085015260048101546080850152600581015463ffffffff811660a086015263ffffffff8160201c1660c086015267ffffffffffffffff8160401c1660e086015267ffffffffffffffff8160801c1661010086015260c01c610120850152015460ff811661014084015260081c166101608201526001600160a01b036101606040519261046e84825161150f565b6020810151602085015260408101516040850152606081015160608501526080810151608085015263ffffffff60a08201511660a085015263ffffffff60c08201511660c085015267ffffffffffffffff60e08201511660e085015267ffffffffffffffff6101008201511661010085015267ffffffffffffffff6101208201511661012085015260ff61014082015116610140850152015116610160820152f35b60249060405190630f76b55560e11b82526004820152fd5b3461018d5760e036600319011261018d5761054161146d565b60243561054c6114fc565b906064359267ffffffffffffffff9182851680950361018d576084359183831680930361018d5760a4359360ff851680950361018d5760c43590811161018d5761059a903690600401611499565b9490936105a7363361183a565b6001600160a01b038316156107235783156106de578715610699578781106106545760209763ffffffff61064c98604051966105e28861151c565b600188527f00000000000000000000000000000000000000000000000000000000000000008c8901525f604089015260608801525f60808801521660a08601525f60c086015260e08501526101008401525f61012084015261014083015233610160830152611a6d565b604051908152f35b606460405163d647364f60e01b815260206004820152600f60248201527f496e76616c696420656e646564417400000000000000000000000000000000006044820152fd5b606460405163d647364f60e01b815260206004820152601060248201527f496e76616c6964206973737565644174000000000000000000000000000000006044820152fd5b606460405163d647364f60e01b815260206004820152601260248201527f496e76616c696420726f6c6554797065496400000000000000000000000000006044820152fd5b60046040517fd92e233d000000000000000000000000000000000000000000000000000000008152fd5b3461018d57604036600319011261018d5761076661146d565b506024358015150361018d57600460405163a4420a9560e01b8152fd5b3461018d575f36600319011261018d576040515f600182600154926107a7846115c9565b92838352602094856001821691825f146108415750506001146107e6575b506107d292500383611555565b61021a60405192828493845283019061142f565b84915060015f527fb10e2d527612073b26eecdfd717e6a320cf44b4afac2b0732d9fcbe2b7fa0cf6905f915b8583106108295750506107d29350820101856107c5565b80548389018501528794508693909201918101610812565b60ff1916858201526107d295151560051b85010192508791506107c59050565b3461018d575f36600319011261018d5760075460a01c60ff16156108b55760207f8fb36037000000000000000000000000000000000000000000000000000000005b6001600160e01b031960405191168152f35b60205f6108a3565b3461018d57608036600319011261018d576108d661146d565b6024356108e16114fc565b906064359267ffffffffffffffff9384811161018d57610905903690600401611499565b929091610912363361183a565b6001600160a01b038116156107235781156109ae5760209563ffffffff61064c96604051946109408661151c565b600486527f00000000000000000000000000000000000000000000000000000000000000008a8701525f60408701525f606087015260808601525f60a08601521660c0840152421660e08301525f6101008301525f6101208301525f6101408301525f610160830152611a6d565b606460405163d647364f60e01b815260206004820152601060248201527f496e76616c696420636f686f72744964000000000000000000000000000000006044820152fd5b3461018d57604036600319011261018d576004356024359060ff821680920361018d57610a20363361183a565b805f5260026020526001600160a01b0360405f20541615610510575f52600960205260405f2060ff8154166005811015610b3c57600303610af757600581019067ffffffffffffffff80835460801c16610ab257600692610aa491421667ffffffffffffffff60801b1967ffffffffffffffff60801b83549260801b169116179055565b01805460ff19169091179055005b606460405163d647364f60e01b815260206004820152601760248201527f506f736974696f6e20616c726561647920636c6f7365640000000000000000006044820152fd5b606460405163d647364f60e01b815260206004820152601460248201527f4e6f74206120706f736974696f6e20746f6b656e0000000000000000000000006044820152fd5b634e487b7160e01b5f52602160045260245ffd5b3461018d575f36600319011261018d5760206040517f00000000000000000000000000000000000000000000000000000000000000008152f35b3461018d57602036600319011261018d57610ba361146d565b600754906001600160a01b03908183163303610c3357803b15610c01577f2f658b440c35314f52658ea8a740e05b284cdc84dc9ae01e891f21b8933e7cad926020926001600160a01b031992169182911617600755604051908152a1005b602491604051917fc2f31e5e000000000000000000000000000000000000000000000000000000008352166004820152fd5b602460405162d1953b60e31b8152336004820152fd5b3461018d575f36600319011261018d576020600854604051908152f35b3461018d57602036600319011261018d576001600160a01b03610c8761146d565b168015610ca4575f526003602052602060405f2054604051908152f35b60246040517f89c62b640000000000000000000000000000000000000000000000000000000081525f6004820152fd5b3461018d57608036600319011261018d57610ced61146d565b602435610cf86114fc565b906064359267ffffffffffffffff9384811161018d57610d1c903690600401611499565b929091610d29363361183a565b6001600160a01b03811615610723578115610dc55760209563ffffffff61064c9660405194610d578661151c565b600386527f00000000000000000000000000000000000000000000000000000000000000008a8701525f604087015260608601525f60808601521660a08401525f60c0840152421660e08301525f6101008301525f6101208301525f6101408301525f610160830152611a6d565b606460405163d647364f60e01b815260206004820152601660248201527f496e76616c696420706f736974696f6e547970654964000000000000000000006044820152fd5b3461018d57602036600319011261018d576020610e28600435611801565b6001600160a01b0360405191168152f35b3461018d57608036600319011261018d57610e5261146d565b60243590600382101561018d57604435906064359267ffffffffffffffff9384811161018d57610e86903690600401611499565b929091610e93363361183a565b6001600160a01b03821615610723578415610f6557610eb190611a46565b906005821015610b3c5760209561064c9560018414908115610f5e575f915b15610f5657905b610eed60405195610ee78761151c565b866117f5565b7f000000000000000000000000000000000000000000000000000000000000000089860152604085015260608401525f60808401525f60a08401525f60c0840152421660e08301525f6101008301525f6101208301525f6101408301525f610160830152611a6d565b505f90610ed7565b8091610ed0565b606460405163d647364f60e01b815260206004820152601460248201527f496e76616c696420616374696f6e5479706549640000000000000000000000006044820152fd5b3461018d5761030e610fbb366114c7565b9060405192610fc984611539565b5f8452610308838383611601565b3461018d57604036600319011261018d5760043560243567ffffffffffffffff8116810361018d57611009363361183a565b815f5260026020526001600160a01b0360405f2054161561105e5761030e915f526009602052600560405f20019067ffffffffffffffff60801b1967ffffffffffffffff60801b83549260801b169116179055565b60248260405190630f76b55560e11b82526004820152fd5b3461018d5761030e611087366114c7565b91611601565b3461018d57604036600319011261018d5767ffffffffffffffff60043560243582811161018d576110c2903690600401611499565b91906110ce363361183a565b815f52602092600284526001600160a01b0360405f2054161561121e57906110f7913691611593565b92815f526006835260405f2090845190811161120a576111218161111b84546115c9565b846119f7565b8394601f82116001146111885790807ff8e1a15aba9398e019f0b49df1a4fde98ee17ae345cb5f6b5e2c27f5033e8ce796611171935f9261117d575b50508160011b915f199060031b1c19161790565b90555b604051908152a1005b01519050878061115d565b601f19821695835f52855f20915f5b8881106111f35750908392916001947ff8e1a15aba9398e019f0b49df1a4fde98ee17ae345cb5f6b5e2c27f5033e8ce799106111db575b505050811b019055611174565b01515f1960f88460031b161c191690558680806111ce565b919287600181928685015181550194019201611197565b634e487b7160e01b5f52604160045260245ffd5b60248360405190630f76b55560e11b82526004820152fd5b3461018d57604036600319011261018d5761124f61146d565b50600460405163a4420a9560e01b8152fd5b3461018d57602036600319011261018d5760043561127e81611801565b505f52600460205260206001600160a01b0360405f205416604051908152f35b3461018d575f36600319011261018d576040515f805490826112bf836115c9565b91828252602093600190856001821691825f146108415750506001146112ec57506107d292500383611555565b5f808052859250907f290decd9548b62a8d60345a988386fc84ba6bc95484008f6362f93160ef3e5635b85831061132d5750506107d29350820101856107c5565b80548389018501528794508693909201918101611316565b3461018d57602036600319011261018d57600435906001600160e01b0319821680920361018d57817f4906490600000000000000000000000000000000000000000000000000000000602093149081156113a1575b5015158152f35b7f80ac58cd00000000000000000000000000000000000000000000000000000000811491508115611405575b81156113db575b508361139a565b7f01ffc9a700000000000000000000000000000000000000000000000000000000915014836113d4565b7f5b5e139f00000000000000000000000000000000000000000000000000000000811491506113cd565b91908251928382525f5b848110611459575050825f602080949584010152601f8019910116010190565b602081830181015184830182015201611439565b600435906001600160a01b038216820361018d57565b602435906001600160a01b038216820361018d57565b9181601f8401121561018d5782359167ffffffffffffffff831161018d576020838186019501011161018d57565b606090600319011261018d576001600160a01b0390600435828116810361018d5791602435908116810361018d579060443590565b6044359063ffffffff8216820361018d57565b906005821015610b3c5752565b610180810190811067ffffffffffffffff82111761120a57604052565b6020810190811067ffffffffffffffff82111761120a57604052565b90601f8019910116810190811067ffffffffffffffff82111761120a57604052565b67ffffffffffffffff811161120a57601f01601f191660200190565b92919261159f82611577565b916115ad6040519384611555565b82948184528183011161018d578281602093845f960137010152565b90600182811c921680156115f7575b60208310146115e357565b634e487b7160e01b5f52602260045260245ffd5b91607f16916115d8565b90916001600160a01b038093169283156117de57815f526020926002845260409482865f2054161515806117d6575b6117c6578390815f526002865283875f205416953315158061171b575b50600290876116ed575b825f5260038152885f2060018154019055835f5252865f20816001600160a01b0319825416179055857fddf252ad1be2c89b69c2b068fc378daa952ba7f163c4a11628f55a4df523b3ef5f80a416928383036116b35750505050565b6064945051927f64283d7b000000000000000000000000000000000000000000000000000000008452600484015260248301526044820152fd5b835f5260048152885f206001600160a01b03198154169055875f5260038152885f205f198154019055611657565b9192509080611785575b15611733579084915f61164d565b868587611750576024915190637e27328960e01b82526004820152fd5b60449151907f177e802f0000000000000000000000000000000000000000000000000000000082523360048301526024820152fd5b5033861480156117aa575b806117255750845f52600481523384885f20541614611725565b50855f5260058152865f20335f52815260ff875f205416611790565b6004865163a4420a9560e01b8152fd5b506001611630565b6024604051633250574960e11b81525f6004820152fd5b6005821015610b3c5752565b805f5260026020526001600160a01b0360405f205416908115611822575090565b60249060405190637e27328960e01b82526004820152fd5b600754916001600160a01b0391828416928260041161018d575f925f60409485519360208501957fb700961300000000000000000000000000000000000000000000000000000000875216938460248201523060448201526001600160e01b03195f351660648201526064815260a0810167ffffffffffffffff968282108883111761120a5788925f9284528280528260205251908a5afa6119e4575b156118e6575b50505050505050565b63ffffffff16156119ce57740100000000000000000000000000000000000000007fffffffffffffffffffffff00ffffffffffffffffffffffffffffffffffffffff80971617600755843b1561018d576064945f928386519788809581947f94c7d7ee00000000000000000000000000000000000000000000000000000000835260048301528960248301528060448301528084848401378181018301849052601f01601f191681010301925af180156119c4576119b5575b505050600754166007555f8080808080806118dd565b821161120a57525f808061199f565b82513d5f823e3d90fd5b60248285519062d1953b60e31b82526004820152fd5b50505f516020518060201c1502906118d7565b601f8211611a0457505050565b5f5260205f20906020601f840160051c83019310611a3c575b601f0160051c01905b818110611a31575050565b5f8155600101611a26565b9091508190611a1d565b6003811015610b3c5760018114611a6757600214611a62575f90565b600290565b50600190565b919392600854905f1990818314611f76576001938484016008558397604095865193611a9885611539565b5f85526001600160a01b0394858a16998a15611f6057885f5260209660028852808b5f205416151580611f59575b611f4957895f52600288528a5f205416898c8215159283611f1f575b815f5260038b528d5f20888154019055825f5260028b528d5f20826001600160a01b03198254161790557fddf252ad1be2c89b69c2b068fc378daa952ba7f163c4a11628f55a4df523b3ef5f80a4611ef0573b611dce575b50865f5260098552875f20958451936005851015610b3c576fffffffffffffffff00000000000000009460ff80198a541691161788556006878701988951868201558b8801516002820155606088015160038201556080880151600482015588888d7fffffffffffffffffffffffffffffffff00000000000000000000000000000000600585019a8b9260e067ffffffff0000000063ffffffff60a08801511695549760c0880151901b16950151901b169316171717875567ffffffffffffffff96611c30886101008b015116829067ffffffffffffffff60801b1967ffffffffffffffff60801b83549260801b169116179055565b61012089015177ffffffffffffffffffffffffffffffffffffffffffffffff7fffffffffffffffff00000000000000000000000000000000000000000000000083549260c01b1691161790550160ff610140880151168154907fffffffffffffffffffffff00000000000000000000000000000000000000000074ffffffffffffffffffffffffffffffffffffffff006101608b015160081b16921617179055885f52600a8752895f2094831161120a57611cf583611cef87546115c9565b876119f7565b5f91601f8411600114611d6e5750611d2493505f919083611d635750508160011b915f199060031b1c19161790565b90555b516005811015610b3c57611d607f74308788093243803c10b1e4fbe55a8f1a9c607d067ec3fa75de2b5b7d17898b93519551809261150f565ba4565b013590505f8061115d565b91601f19841692865f5284895f20945f5b8b89838310611db75750505010611d9f575b50505050811b019055611d27565b60f88560031b161c199101351690555f808080611d91565b868801358955909701969485019488935001611d7f565b965f86611e138c849a999f9c9d9e9b8e51948580948193630a85bd0160e11b998a8452336004850152846024850152604484015260806064840152608483019061142f565b03925af15f9181611eb0575b50611e7b578c8c8c3d15611e73573d92611e3884611577565b93611e4583519586611555565b84523d5f8286013e5b83519384611e6d57602484845190633250574960e11b82526004820152fd5b84925001fd5b606092611e4e565b6001600160e01b0319909c9697989b9a999c1603611e99575f611b3a565b602489895190633250574960e11b82526004820152fd5b9091508d81813d8311611ee9575b611ec88183611555565b8101031261018d57516001600160e01b03198116810361018d57905f611e1f565b503d611ebe565b60248a517f73c6ac6e0000000000000000000000000000000000000000000000000000000081525f6004820152fd5b60048b528d5f206001600160a01b03198154169055805f5260038b528d5f208c8154019055611ae2565b60048b5163a4420a9560e01b8152fd5b5084611ac6565b60248a51633250574960e11b81525f6004820152fd5b634e487b7160e01b5f52601160045260245ffd5b9293909193843b611f9d575b5050505050565b90611feb959392916001600160a01b03809616956040519381630a85bd0160e11b9687875216600486015216602484015260448301526080606483015281806020978893608483019061142f565b03815f885af15f918161208d575b50612057575050503d5f1461204f573d9161201383611577565b926120216040519485611555565b83523d5f8285013e5b8251928361204a5760248360405190633250574960e11b82526004820152fd5b019050fd5b60609161202a565b6001600160e01b031991929450160361207557505f80808080611f96565b60249060405190633250574960e11b82526004820152fd5b9091508581813d83116120c6575b6120a58183611555565b8101031261018d57516001600160e01b03198116810361018d57905f611ff9565b503d61209b56fea2646970667358221220833a56aa59b533216212a9bb500b9d7eb0152d8c42cbd57ce82e09aa1f4f7aa764736f6c63430008180033","linkReferences":{}},"methodIdentifiers":{"approve(address,uint256)":"095ea7b3","authority()":"bf7e214f","balanceOf(address)":"70a08231","closePositionToken(uint256,uint8)":"8045303d","communityId()":"7f50861a","getApproved(uint256)":"081812fc","getTokenData(uint256)":"b09afec1","isApprovedForAll(address,address)":"e985e9c5","isConsumingScheduledOp()":"8fb36037","mintEngagement(address,uint8,bytes32,bytes)":"56ea547f","mintInvestment(address,uint256,uint32,bytes)":"874f4145","mintPosition(address,bytes32,uint32,bytes)":"6a4bff23","mintRoleFromPosition(address,bytes32,uint32,uint64,uint64,uint8,bytes)":"ac701fb8","name()":"06fdde03","nextTokenId()":"75794a3c","ownerOf(uint256)":"6352211e","safeTransferFrom(address,address,uint256)":"42842e0e","safeTransferFrom(address,address,uint256,bytes)":"b88d4fde","setApprovalForAll(address,bool)":"a22cb465","setAuthority(address)":"7a9e5e4b","setEndedAt(uint256,uint64)":"34481d75","supportsInterface(bytes4)":"01ffc9a7","symbol()":"95d89b41","tokenURI(uint256)":"c87b56dd","transferFrom(address,address,uint256)":"23b872dd","updateTokenURI(uint256,string)":"18e97fd1"},"id":27}