{"abi":[{"type":"constructor","inputs":[{"name":"manager","type":"address","internalType":"address"},{"name":"_communityRegistry","type":"address","internalType":"address"},{"name":"initialModerator","type":"address","internalType":"address"}],"stateMutability":"nonpayable"},{"type":"function","name":"activateFromGovernance","inputs":[{"name":"valuableActionId","type":"uint256","internalType":"uint256"},{"name":"proposalRef","type":"bytes32","internalType":"bytes32"}],"outputs":[],"stateMutability":"nonpayable"},{"type":"function","name":"addFounder","inputs":[{"name":"founder","type":"address","internalType":"address"},{"name":"communityId","type":"uint256","internalType":"uint256"}],"outputs":[],"stateMutability":"nonpayable"},{"type":"function","name":"authority","inputs":[],"outputs":[{"name":"","type":"address","internalType":"address"}],"stateMutability":"view"},{"type":"function","name":"closePositionToken","inputs":[{"name":"communityId","type":"uint256","internalType":"uint256"},{"name":"positionTokenId","type":"uint256","internalType":"uint256"},{"name":"outcome","type":"uint8","internalType":"uint8"}],"outputs":[],"stateMutability":"nonpayable"},{"type":"function","name":"communityByActionId","inputs":[{"name":"","type":"uint256","internalType":"uint256"}],"outputs":[{"name":"","type":"uint256","internalType":"uint256"}],"stateMutability":"view"},{"type":"function","name":"communityFounders","inputs":[{"name":"","type":"uint256","internalType":"uint256"},{"name":"","type":"uint256","internalType":"uint256"}],"outputs":[{"name":"","type":"address","internalType":"address"}],"stateMutability":"view"},{"type":"function","name":"communityNarrowingEnabled","inputs":[{"name":"","type":"uint256","internalType":"uint256"}],"outputs":[{"name":"","type":"bool","internalType":"bool"}],"stateMutability":"view"},{"type":"function","name":"communityRegistry","inputs":[],"outputs":[{"name":"","type":"address","internalType":"contract CommunityRegistry"}],"stateMutability":"view"},{"type":"function","name":"deactivate","inputs":[{"name":"id","type":"uint256","internalType":"uint256"}],"outputs":[],"stateMutability":"nonpayable"},{"type":"function","name":"founderWhitelist","inputs":[{"name":"","type":"address","internalType":"address"},{"name":"","type":"uint256","internalType":"uint256"}],"outputs":[{"name":"","type":"bool","internalType":"bool"}],"stateMutability":"view"},{"type":"function","name":"getActiveValuableActions","inputs":[],"outputs":[{"name":"ids","type":"uint256[]","internalType":"uint256[]"}],"stateMutability":"view"},{"type":"function","name":"getCommunityFounders","inputs":[{"name":"communityId","type":"uint256","internalType":"uint256"}],"outputs":[{"name":"founders","type":"address[]","internalType":"address[]"}],"stateMutability":"view"},{"type":"function","name":"getValuableAction","inputs":[{"name":"id","type":"uint256","internalType":"uint256"}],"outputs":[{"name":"action","type":"tuple","internalType":"struct Types.ValuableAction","components":[{"name":"membershipTokenReward","type":"uint32","internalType":"uint32"},{"name":"communityTokenReward","type":"uint32","internalType":"uint32"},{"name":"investorSBTReward","type":"uint32","internalType":"uint32"},{"name":"category","type":"uint8","internalType":"enum Types.ActionCategory"},{"name":"roleTypeId","type":"bytes32","internalType":"bytes32"},{"name":"positionPoints","type":"uint32","internalType":"uint32"},{"name":"verifierPolicy","type":"uint8","internalType":"enum Types.VerifierPolicy"},{"name":"metadataSchemaId","type":"bytes32","internalType":"bytes32"},{"name":"jurorsMin","type":"uint32","internalType":"uint32"},{"name":"panelSize","type":"uint32","internalType":"uint32"},{"name":"verifyWindow","type":"uint32","internalType":"uint32"},{"name":"verifierRewardWeight","type":"uint32","internalType":"uint32"},{"name":"slashVerifierBps","type":"uint32","internalType":"uint32"},{"name":"cooldownPeriod","type":"uint32","internalType":"uint32"},{"name":"maxConcurrent","type":"uint32","internalType":"uint32"},{"name":"revocable","type":"bool","internalType":"bool"},{"name":"evidenceTypes","type":"uint32","internalType":"uint32"},{"name":"proposalThreshold","type":"uint256","internalType":"uint256"},{"name":"proposer","type":"address","internalType":"address"},{"name":"evidenceSpecCID","type":"string","internalType":"string"},{"name":"titleTemplate","type":"string","internalType":"string"},{"name":"automationRules","type":"bytes32[]","internalType":"bytes32[]"},{"name":"activationDelay","type":"uint64","internalType":"uint64"},{"name":"deprecationWarning","type":"uint64","internalType":"uint64"}]}],"stateMutability":"view"},{"type":"function","name":"isActive","inputs":[{"name":"","type":"uint256","internalType":"uint256"}],"outputs":[{"name":"","type":"bool","internalType":"bool"}],"stateMutability":"view"},{"type":"function","name":"isCommunityIssuanceModule","inputs":[{"name":"","type":"uint256","internalType":"uint256"},{"name":"","type":"address","internalType":"address"}],"outputs":[{"name":"","type":"bool","internalType":"bool"}],"stateMutability":"view"},{"type":"function","name":"isConsumingScheduledOp","inputs":[],"outputs":[{"name":"","type":"bytes4","internalType":"bytes4"}],"stateMutability":"view"},{"type":"function","name":"isIssuanceModule","inputs":[{"name":"","type":"address","internalType":"address"}],"outputs":[{"name":"","type":"bool","internalType":"bool"}],"stateMutability":"view"},{"type":"function","name":"isModerator","inputs":[{"name":"","type":"address","internalType":"address"}],"outputs":[{"name":"","type":"bool","internalType":"bool"}],"stateMutability":"view"},{"type":"function","name":"isValuableActionActive","inputs":[{"name":"id","type":"uint256","internalType":"uint256"}],"outputs":[{"name":"","type":"bool","internalType":"bool"}],"stateMutability":"view"},{"type":"function","name":"issuancePaused","inputs":[],"outputs":[{"name":"","type":"bool","internalType":"bool"}],"stateMutability":"view"},{"type":"function","name":"issueEngagement","inputs":[{"name":"communityId","type":"uint256","internalType":"uint256"},{"name":"to","type":"address","internalType":"address"},{"name":"subtype","type":"uint8","internalType":"enum Types.EngagementSubtype"},{"name":"actionTypeId","type":"bytes32","internalType":"bytes32"},{"name":"metadata","type":"bytes","internalType":"bytes"}],"outputs":[{"name":"tokenId","type":"uint256","internalType":"uint256"}],"stateMutability":"nonpayable"},{"type":"function","name":"issueInvestment","inputs":[{"name":"communityId","type":"uint256","internalType":"uint256"},{"name":"to","type":"address","internalType":"address"},{"name":"cohortId","type":"uint256","internalType":"uint256"},{"name":"weight","type":"uint32","internalType":"uint32"},{"name":"metadata","type":"bytes","internalType":"bytes"}],"outputs":[{"name":"tokenId","type":"uint256","internalType":"uint256"}],"stateMutability":"nonpayable"},{"type":"function","name":"issuePosition","inputs":[{"name":"communityId","type":"uint256","internalType":"uint256"},{"name":"to","type":"address","internalType":"address"},{"name":"positionTypeId","type":"bytes32","internalType":"bytes32"},{"name":"points","type":"uint32","internalType":"uint32"},{"name":"metadata","type":"bytes","internalType":"bytes"}],"outputs":[{"name":"tokenId","type":"uint256","internalType":"uint256"}],"stateMutability":"nonpayable"},{"type":"function","name":"issueRoleFromPosition","inputs":[{"name":"communityId","type":"uint256","internalType":"uint256"},{"name":"to","type":"address","internalType":"address"},{"name":"roleTypeId","type":"bytes32","internalType":"bytes32"},{"name":"points","type":"uint32","internalType":"uint32"},{"name":"issuedAt","type":"uint64","internalType":"uint64"},{"name":"endedAt","type":"uint64","internalType":"uint64"},{"name":"closeOutcome","type":"uint8","internalType":"uint8"},{"name":"metadata","type":"bytes","internalType":"bytes"}],"outputs":[{"name":"tokenId","type":"uint256","internalType":"uint256"}],"stateMutability":"nonpayable"},{"type":"function","name":"lastId","inputs":[],"outputs":[{"name":"","type":"uint256","internalType":"uint256"}],"stateMutability":"view"},{"type":"function","name":"pendingValuableActions","inputs":[{"name":"","type":"uint256","internalType":"uint256"}],"outputs":[{"name":"","type":"bytes32","internalType":"bytes32"}],"stateMutability":"view"},{"type":"function","name":"proposalRefUsed","inputs":[{"name":"","type":"bytes32","internalType":"bytes32"}],"outputs":[{"name":"","type":"bool","internalType":"bool"}],"stateMutability":"view"},{"type":"function","name":"proposeValuableAction","inputs":[{"name":"communityId","type":"uint256","internalType":"uint256"},{"name":"params","type":"tuple","internalType":"struct Types.ValuableAction","components":[{"name":"membershipTokenReward","type":"uint32","internalType":"uint32"},{"name":"communityTokenReward","type":"uint32","internalType":"uint32"},{"name":"investorSBTReward","type":"uint32","internalType":"uint32"},{"name":"category","type":"uint8","internalType":"enum Types.ActionCategory"},{"name":"roleTypeId","type":"bytes32","internalType":"bytes32"},{"name":"positionPoints","type":"uint32","internalType":"uint32"},{"name":"verifierPolicy","type":"uint8","internalType":"enum Types.VerifierPolicy"},{"name":"metadataSchemaId","type":"bytes32","internalType":"bytes32"},{"name":"jurorsMin","type":"uint32","internalType":"uint32"},{"name":"panelSize","type":"uint32","internalType":"uint32"},{"name":"verifyWindow","type":"uint32","internalType":"uint32"},{"name":"verifierRewardWeight","type":"uint32","internalType":"uint32"},{"name":"slashVerifierBps","type":"uint32","internalType":"uint32"},{"name":"cooldownPeriod","type":"uint32","internalType":"uint32"},{"name":"maxConcurrent","type":"uint32","internalType":"uint32"},{"name":"revocable","type":"bool","internalType":"bool"},{"name":"evidenceTypes","type":"uint32","internalType":"uint32"},{"name":"proposalThreshold","type":"uint256","internalType":"uint256"},{"name":"proposer","type":"address","internalType":"address"},{"name":"evidenceSpecCID","type":"string","internalType":"string"},{"name":"titleTemplate","type":"string","internalType":"string"},{"name":"automationRules","type":"bytes32[]","internalType":"bytes32[]"},{"name":"activationDelay","type":"uint64","internalType":"uint64"},{"name":"deprecationWarning","type":"uint64","internalType":"uint64"}]},{"name":"proposalRef","type":"bytes32","internalType":"bytes32"}],"outputs":[{"name":"valuableActionId","type":"uint256","internalType":"uint256"}],"stateMutability":"payable"},{"type":"function","name":"setAuthority","inputs":[{"name":"newAuthority","type":"address","internalType":"address"}],"outputs":[],"stateMutability":"nonpayable"},{"type":"function","name":"setCommunityIssuanceModule","inputs":[{"name":"communityId","type":"uint256","internalType":"uint256"},{"name":"module","type":"address","internalType":"address"},{"name":"allowed","type":"bool","internalType":"bool"}],"outputs":[],"stateMutability":"nonpayable"},{"type":"function","name":"setCommunityNarrowing","inputs":[{"name":"communityId","type":"uint256","internalType":"uint256"},{"name":"enabled","type":"bool","internalType":"bool"}],"outputs":[],"stateMutability":"nonpayable"},{"type":"function","name":"setIssuanceModule","inputs":[{"name":"module","type":"address","internalType":"address"},{"name":"allowed","type":"bool","internalType":"bool"}],"outputs":[],"stateMutability":"nonpayable"},{"type":"function","name":"setIssuancePaused","inputs":[{"name":"paused","type":"bool","internalType":"bool"}],"outputs":[],"stateMutability":"nonpayable"},{"type":"function","name":"setModerator","inputs":[{"name":"who","type":"address","internalType":"address"},{"name":"status","type":"bool","internalType":"bool"}],"outputs":[],"stateMutability":"nonpayable"},{"type":"function","name":"setValuableActionSBT","inputs":[{"name":"sbt","type":"address","internalType":"address"}],"outputs":[],"stateMutability":"nonpayable"},{"type":"function","name":"update","inputs":[{"name":"id","type":"uint256","internalType":"uint256"},{"name":"params","type":"tuple","internalType":"struct Types.ValuableAction","components":[{"name":"membershipTokenReward","type":"uint32","internalType":"uint32"},{"name":"communityTokenReward","type":"uint32","internalType":"uint32"},{"name":"investorSBTReward","type":"uint32","internalType":"uint32"},{"name":"category","type":"uint8","internalType":"enum Types.ActionCategory"},{"name":"roleTypeId","type":"bytes32","internalType":"bytes32"},{"name":"positionPoints","type":"uint32","internalType":"uint32"},{"name":"verifierPolicy","type":"uint8","internalType":"enum Types.VerifierPolicy"},{"name":"metadataSchemaId","type":"bytes32","internalType":"bytes32"},{"name":"jurorsMin","type":"uint32","internalType":"uint32"},{"name":"panelSize","type":"uint32","internalType":"uint32"},{"name":"verifyWindow","type":"uint32","internalType":"uint32"},{"name":"verifierRewardWeight","type":"uint32","internalType":"uint32"},{"name":"slashVerifierBps","type":"uint32","internalType":"uint32"},{"name":"cooldownPeriod","type":"uint32","internalType":"uint32"},{"name":"maxConcurrent","type":"uint32","internalType":"uint32"},{"name":"revocable","type":"bool","internalType":"bool"},{"name":"evidenceTypes","type":"uint32","internalType":"uint32"},{"name":"proposalThreshold","type":"uint256","internalType":"uint256"},{"name":"proposer","type":"address","internalType":"address"},{"name":"evidenceSpecCID","type":"string","internalType":"string"},{"name":"titleTemplate","type":"string","internalType":"string"},{"name":"automationRules","type":"bytes32[]","internalType":"bytes32[]"},{"name":"activationDelay","type":"uint64","internalType":"uint64"},{"name":"deprecationWarning","type":"uint64","internalType":"uint64"}]}],"outputs":[],"stateMutability":"nonpayable"},{"type":"function","name":"valuableActionSBT","inputs":[],"outputs":[{"name":"","type":"address","internalType":"address"}],"stateMutability":"view"},{"type":"function","name":"valuableActionsById","inputs":[{"name":"","type":"uint256","internalType":"uint256"}],"outputs":[{"name":"membershipTokenReward","type":"uint32","internalType":"uint32"},{"name":"communityTokenReward","type":"uint32","internalType":"uint32"},{"name":"investorSBTReward","type":"uint32","internalType":"uint32"},{"name":"category","type":"uint8","internalType":"enum Types.ActionCategory"},{"name":"roleTypeId","type":"bytes32","internalType":"bytes32"},{"name":"positionPoints","type":"uint32","internalType":"uint32"},{"name":"verifierPolicy","type":"uint8","internalType":"enum Types.VerifierPolicy"},{"name":"metadataSchemaId","type":"bytes32","internalType":"bytes32"},{"name":"jurorsMin","type":"uint32","internalType":"uint32"},{"name":"panelSize","type":"uint32","internalType":"uint32"},{"name":"verifyWindow","type":"uint32","internalType":"uint32"},{"name":"verifierRewardWeight","type":"uint32","internalType":"uint32"},{"name":"slashVerifierBps","type":"uint32","internalType":"uint32"},{"name":"cooldownPeriod","type":"uint32","internalType":"uint32"},{"name":"maxConcurrent","type":"uint32","internalType":"uint32"},{"name":"revocable","type":"bool","internalType":"bool"},{"name":"evidenceTypes","type":"uint32","internalType":"uint32"},{"name":"proposalThreshold","type":"uint256","internalType":"uint256"},{"name":"proposer","type":"address","internalType":"address"},{"name":"evidenceSpecCID","type":"string","internalType":"string"},{"name":"titleTemplate","type":"string","internalType":"string"},{"name":"activationDelay","type":"uint64","internalType":"uint64"},{"name":"deprecationWarning","type":"uint64","internalType":"uint64"}],"stateMutability":"view"},{"type":"event","name":"AuthorityUpdated","inputs":[{"name":"authority","type":"address","indexed":false,"internalType":"address"}],"anonymous":false},{"type":"event","name":"EngagementIssued","inputs":[{"name":"to","type":"address","indexed":true,"internalType":"address"},{"name":"tokenId","type":"uint256","indexed":true,"internalType":"uint256"},{"name":"subtype","type":"uint8","indexed":false,"internalType":"enum Types.EngagementSubtype"},{"name":"actionTypeId","type":"bytes32","indexed":true,"internalType":"bytes32"}],"anonymous":false},{"type":"event","name":"InvestmentIssued","inputs":[{"name":"to","type":"address","indexed":true,"internalType":"address"},{"name":"tokenId","type":"uint256","indexed":true,"internalType":"uint256"},{"name":"cohortId","type":"uint256","indexed":true,"internalType":"uint256"},{"name":"weight","type":"uint32","indexed":false,"internalType":"uint32"}],"anonymous":false},{"type":"event","name":"ModeratorUpdated","inputs":[{"name":"account","type":"address","indexed":true,"internalType":"address"},{"name":"isModerator","type":"bool","indexed":false,"internalType":"bool"},{"name":"updater","type":"address","indexed":true,"internalType":"address"}],"anonymous":false},{"type":"event","name":"PositionIssued","inputs":[{"name":"to","type":"address","indexed":true,"internalType":"address"},{"name":"tokenId","type":"uint256","indexed":true,"internalType":"uint256"},{"name":"positionTypeId","type":"bytes32","indexed":true,"internalType":"bytes32"},{"name":"points","type":"uint32","indexed":false,"internalType":"uint32"}],"anonymous":false},{"type":"event","name":"RoleIssued","inputs":[{"name":"to","type":"address","indexed":true,"internalType":"address"},{"name":"tokenId","type":"uint256","indexed":true,"internalType":"uint256"},{"name":"roleTypeId","type":"bytes32","indexed":true,"internalType":"bytes32"},{"name":"points","type":"uint32","indexed":false,"internalType":"uint32"},{"name":"issuedAt","type":"uint64","indexed":false,"internalType":"uint64"},{"name":"endedAt","type":"uint64","indexed":false,"internalType":"uint64"},{"name":"closeOutcome","type":"uint8","indexed":false,"internalType":"uint8"}],"anonymous":false},{"type":"event","name":"ValuableActionActivated","inputs":[{"name":"id","type":"uint256","indexed":true,"internalType":"uint256"},{"name":"proposalId","type":"uint256","indexed":true,"internalType":"uint256"}],"anonymous":false},{"type":"event","name":"ValuableActionCreated","inputs":[{"name":"id","type":"uint256","indexed":true,"internalType":"uint256"},{"name":"valuableAction","type":"tuple","indexed":false,"internalType":"struct Types.ValuableAction","components":[{"name":"membershipTokenReward","type":"uint32","internalType":"uint32"},{"name":"communityTokenReward","type":"uint32","internalType":"uint32"},{"name":"investorSBTReward","type":"uint32","internalType":"uint32"},{"name":"category","type":"uint8","internalType":"enum Types.ActionCategory"},{"name":"roleTypeId","type":"bytes32","internalType":"bytes32"},{"name":"positionPoints","type":"uint32","internalType":"uint32"},{"name":"verifierPolicy","type":"uint8","internalType":"enum Types.VerifierPolicy"},{"name":"metadataSchemaId","type":"bytes32","internalType":"bytes32"},{"name":"jurorsMin","type":"uint32","internalType":"uint32"},{"name":"panelSize","type":"uint32","internalType":"uint32"},{"name":"verifyWindow","type":"uint32","internalType":"uint32"},{"name":"verifierRewardWeight","type":"uint32","internalType":"uint32"},{"name":"slashVerifierBps","type":"uint32","internalType":"uint32"},{"name":"cooldownPeriod","type":"uint32","internalType":"uint32"},{"name":"maxConcurrent","type":"uint32","internalType":"uint32"},{"name":"revocable","type":"bool","internalType":"bool"},{"name":"evidenceTypes","type":"uint32","internalType":"uint32"},{"name":"proposalThreshold","type":"uint256","internalType":"uint256"},{"name":"proposer","type":"address","internalType":"address"},{"name":"evidenceSpecCID","type":"string","internalType":"string"},{"name":"titleTemplate","type":"string","internalType":"string"},{"name":"automationRules","type":"bytes32[]","internalType":"bytes32[]"},{"name":"activationDelay","type":"uint64","internalType":"uint64"},{"name":"deprecationWarning","type":"uint64","internalType":"uint64"}]},{"name":"creator","type":"address","indexed":true,"internalType":"address"}],"anonymous":false},{"type":"event","name":"ValuableActionDeactivated","inputs":[{"name":"id","type":"uint256","indexed":true,"internalType":"uint256"},{"name":"deactivator","type":"address","indexed":true,"internalType":"address"}],"anonymous":false},{"type":"event","name":"ValuableActionUpdated","inputs":[{"name":"id","type":"uint256","indexed":true,"internalType":"uint256"},{"name":"valuableAction","type":"tuple","indexed":false,"internalType":"struct Types.ValuableAction","components":[{"name":"membershipTokenReward","type":"uint32","internalType":"uint32"},{"name":"communityTokenReward","type":"uint32","internalType":"uint32"},{"name":"investorSBTReward","type":"uint32","internalType":"uint32"},{"name":"category","type":"uint8","internalType":"enum Types.ActionCategory"},{"name":"roleTypeId","type":"bytes32","internalType":"bytes32"},{"name":"positionPoints","type":"uint32","internalType":"uint32"},{"name":"verifierPolicy","type":"uint8","internalType":"enum Types.VerifierPolicy"},{"name":"metadataSchemaId","type":"bytes32","internalType":"bytes32"},{"name":"jurorsMin","type":"uint32","internalType":"uint32"},{"name":"panelSize","type":"uint32","internalType":"uint32"},{"name":"verifyWindow","type":"uint32","internalType":"uint32"},{"name":"verifierRewardWeight","type":"uint32","internalType":"uint32"},{"name":"slashVerifierBps","type":"uint32","internalType":"uint32"},{"name":"cooldownPeriod","type":"uint32","internalType":"uint32"},{"name":"maxConcurrent","type":"uint32","internalType":"uint32"},{"name":"revocable","type":"bool","internalType":"bool"},{"name":"evidenceTypes","type":"uint32","internalType":"uint32"},{"name":"proposalThreshold","type":"uint256","internalType":"uint256"},{"name":"proposer","type":"address","internalType":"address"},{"name":"evidenceSpecCID","type":"string","internalType":"string"},{"name":"titleTemplate","type":"string","internalType":"string"},{"name":"automationRules","type":"bytes32[]","internalType":"bytes32[]"},{"name":"activationDelay","type":"uint64","internalType":"uint64"},{"name":"deprecationWarning","type":"uint64","internalType":"uint64"}]},{"name":"updater","type":"address","indexed":true,"internalType":"address"}],"anonymous":false},{"type":"error","name":"AccessManagedInvalidAuthority","inputs":[{"name":"authority","type":"address","internalType":"address"}]},{"type":"error","name":"AccessManagedRequiredDelay","inputs":[{"name":"caller","type":"address","internalType":"address"},{"name":"delay","type":"uint32","internalType":"uint32"}]},{"type":"error","name":"AccessManagedUnauthorized","inputs":[{"name":"caller","type":"address","internalType":"address"}]},{"type":"error","name":"InvalidInput","inputs":[{"name":"reason","type":"string","internalType":"string"}]},{"type":"error","name":"InvalidValuableAction","inputs":[{"name":"valuableActionId","type":"uint256","internalType":"uint256"}]},{"type":"error","name":"NotAuthorized","inputs":[{"name":"caller","type":"address","internalType":"address"}]},{"type":"error","name":"ZeroAddress","inputs":[]}],"bytecode":{"object":"0x60a0346200015757601f620040aa38819003918201601f191683019291906001600160401b038411838510176200015b578160609284926040968752833981010312620001575762000051816200016f565b6200006c8362000064602085016200016f565b93016200016f565b5f80546001600160a01b0319166001600160a01b0393841690811790915584518181529193917f2f658b440c35314f52658ea8a740e05b284cdc84dc9ae01e891f21b8933e7cad90602090a115620001465781169182156200014657169081156200013557608052805f526004602052815f20600160ff19825416179055815190600182527f6e0f223019887734edb3e629fad26bad6ceeb5108f25ae46e5c762fe264517c160203393a351613f2590816200018582396080518181816112a50152611d8a0152f35b825163d92e233d60e01b8152600490fd5b835163d92e233d60e01b8152600490fd5b5f80fd5b634e487b7160e01b5f52604160045260245ffd5b51906001600160a01b0382168203620001575756fe60806040526004361015610011575f80fd5b5f803560e01c8062a79c0b146133875780630c5940fd146131bd57806314f1d4f1146131615780632262fd9d1461313757806323e5227c14612e945780633bc87c9c14612d5c5780633ee2b01d14612cd0578063408a680214612bef57806347573c2b14612ba55780635cfdb862146126dd5780635e61baa114611d125780636da7a0ba146116425780637a9e5e4b146115785780637b8683011461150a57806382afd23b146114db5780638fa906b21461140c5780638fb3603714611399578063916b9bef146112f85780639de1e191146112c9578063a200ac8614611286578063a2e7b04c1461125c578063a7ebafff14610fb9578063a8db791214610f07578063a90e069e14610eca578063a9957f5614610b6c578063bcca485414610b1c578063bf7e214f14610af7578063c1292cc314610ada578063c254337114610817578063c691af92146107f5578063c6ffb6cb146107bb578063e148bb4814610772578063e890118414610749578063e9ea801c146106f6578063ee855580146102ce578063fa6f393614610291578063ff012a43146101ec5763ff3a41ab146101bb575f80fd5b346101e95760203660031901126101e95760ff60406020926004358152600784522054166040519015158152f35b80fd5b50346101e95760203660031901126101e957610206613579565b61021036336139e0565b6001600160a01b03811615610267577fffffffffffffffffffffff0000000000000000000000000000000000000000ff74ffffffffffffffffffffffffffffffffffffffff00600b549260081b16911617600b5580f35b60046040517fd92e233d000000000000000000000000000000000000000000000000000000008152fd5b50346101e95760203660031901126101e95760ff60406020926001600160a01b036102ba613579565b168152600484522054166040519015158152f35b50346104585760603660031901126104585760043560248035906044359260ff841680940361045857600b549060ff82166106b0576001600160a01b03809260081c16918215610267575f54604080516368fc2b7760e11b81526003600482015233602482015292909183916044918391165afa90811561044d575f91610680575b501561066a57805f52602090600a825260ff60405f2054168061064e575b61063857604051907fb09afec100000000000000000000000000000000000000000000000000000000825285600483015261018080838781885afa92831561044d575f93610528575b5050600382516103c681613531565b6103cf81613531565b036104e45782820151036104a057610100015167ffffffffffffffff1661045c5750803b15610458575f928360449260405196879586947f8045303d00000000000000000000000000000000000000000000000000000000865260048601528401525af1801561044d57610441575080f35b61044b9150613430565b005b6040513d5f823e3d90fd5b5f80fd5b6064906017846040519263d647364f60e01b845260048401528201527f506f736974696f6e20616c726561647920636c6f7365640000000000000000006044820152fd5b6064826012866040519263d647364f60e01b845260048401528201527f436f6d6d756e697479206d69736d6174636800000000000000000000000000006044820152fd5b6064836014876040519263d647364f60e01b845260048401528201527f4e6f74206120706f736974696f6e20746f6b656e0000000000000000000000006044820152fd5b908092935081813d8311610631575b6105418183613460565b810103126104585760405191820182811067ffffffffffffffff82111761061e576040528051600581101561045857825283810151848301526040810151604083015260608101516060830152608081015160808301526105a460a08201613621565b60a08301526105b560c08201613621565b60c08301526105c660e082016139cb565b60e08301526101006105d98183016139cb565b908301526101206105eb8183016139cb565b90830152610140808201519060ff82168203610458578301526106126101608092016136b3565b90820152905f806103b7565b86634e487b7160e01b5f5260416004525ffd5b503d610537565b83604051634a0bfec160e01b8152336004820152fd5b506009825260405f20335f52825260ff60405f2054161561036e565b82604051634a0bfec160e01b8152336004820152fd5b6106a2915060403d6040116106a9575b61069a8183613460565b810190613632565b505f610350565b503d610690565b60405163d647364f60e01b815260206004820152600f60248201527f49737375616e63652070617573656400000000000000000000000000000000006044820152606490fd5b34610458576020366003190112610458576004358015158061073d575b80610726575b6020906040519015158152f35b505f526005602052602060ff60405f205416610719565b50600154811115610713565b34610458575f3660031901126104585760206001600160a01b03600b5460081c16604051908152f35b34610458576040366003190112610458576001600160a01b03610793613579565b165f52600c60205260405f206024355f52602052602060ff60405f2054166040519015158152f35b3461045857602036600319011261045857600435801515809103610458576107e336336139e0565b60ff8019600b5416911617600b555f80f35b34610458575f36600319011261045857602060ff600b54166040519015158152f35b346104585760a03660031901126104585760043561083361358f565b90604435906003821015610458576064359060843567ffffffffffffffff8111610458576108659036906004016135c9565b600b549060ff82166106b0576001600160a01b03809260081c16918215610267575f54604080516368fc2b7760e11b815260036004820152336024820152918290604490829086165afa90811561044d575f91610aba575b5015610a8757845f52602097600a895260ff60405f20541680610a9e575b610a87578515610a4157169384156102675785156109fc579161095993915f8994604051968795869485937f5788879a0000000000000000000000000000000000000000000000000000000085528b600486015260248501526109428d60448601906139be565b8b606485015260a0608485015260a4840191613659565b03925af193841561044d5785915f956109a9575b508492917f01f44671cf0417f4d6b97178acbc6099efd02021ba154faf174f81a738331e88916109a060405180926139be565ba4604051908152f35b9450919084813d81116109f5575b6109c18183613460565b81010312610458579251929084907f01f44671cf0417f4d6b97178acbc6099efd02021ba154faf174f81a738331e8861096d565b503d6109b7565b6064886040519063d647364f60e01b82526004820152601460248201527f4d697373696e6720616374696f6e5479706549640000000000000000000000006044820152fd5b60405163d647364f60e01b815260206004820152601360248201527f496e76616c696420636f6d6d756e6974794964000000000000000000000000006044820152606490fd5b6024604051634a0bfec160e01b8152336004820152fd5b506009895260405f20335f52895260ff60405f205416156108db565b610ad3915060403d6040116106a95761069a8183613460565b50896108bd565b34610458575f366003190112610458576020600154604051908152f35b34610458575f3660031901126104585760206001600160a01b035f5416604051908152f35b34610458576040366003190112610458576024356004355f52600d60205260405f2090815481101561045857610b5c6001600160a01b039160209361360c565b9190546040519260031b1c168152f35b346104585761010036600319011261045857610b8661358f565b610b8e6135a5565b9060843567ffffffffffffffff80821682036104585760a4359080821682036104585760c4359160ff831683036104585760e43582811161045857610bd79036906004016135c9565b949095600b549060ff82166106b0576001600160a01b038260081c1615610267575f54604080516368fc2b7760e11b81526003600482015233602482015291829060449082906001600160a01b03165afa90811561044d575f91610eaa575b5015610a87576004355f52600a60205260ff60405f20541680610e8c575b610a875760043515610a41576001600160a01b03169788156102675760443515610e475784831615610e025784831685851610610dbd57604051809881927fff80afd20000000000000000000000000000000000000000000000000000000083528b60048401526004356024840152604435604484015263ffffffff1698896064840152878616608484015287871660a484015260ff891660c484015260e483016101009052610104830190610d0992613659565b039160081c6001600160a01b031691815a6020945f91f195861561044d575f96610d81575b50928260ff9260209894889660405198895216898801521660408601521660608401527fe445780dcbd2ad8cc945215ffea2169bd0e452d2f0add6782ce444797b2ee9cb608060443594a4604051908152f35b96929550926020873d602011610db5575b81610d9f60209383613460565b8101031261045857955191959194919282610d2e565b3d9150610d92565b606460405163d647364f60e01b815260206004820152601760248201527f656e6465644174206265666f72652069737375656441740000000000000000006044820152fd5b606460405163d647364f60e01b815260206004820152601060248201527f4d697373696e67206973737565644174000000000000000000000000000000006044820152fd5b606460405163d647364f60e01b815260206004820152601260248201527f4d697373696e6720726f6c6554797065496400000000000000000000000000006044820152fd5b50600960205260405f20335f5260205260ff60405f20541615610c54565b610ec3915060403d6040116106a95761069a8183613460565b508a610c36565b34610458576020366003190112610458576001600160a01b03610eeb613579565b165f526008602052602060ff60405f2054166040519015158152f35b3461045857602080600319360112610458576004355f52600d815260405f20604051908183825491828152019081925f52845f20905f5b86828210610f9c578686610f5482880383613460565b60405192839281840190828552518091526040840192915f5b828110610f7c57505050500390f35b83516001600160a01b031685528695509381019392810192600101610f6d565b83546001600160a01b031685529093019260019283019201610f3e565b346104585760a036600319011261045857600435610fd561358f565b90604435610fe16135a5565b60843567ffffffffffffffff8111610458576110019036906004016135c9565b600b549060ff82166106b0576001600160a01b03809260081c16918215610267575f54604080516368fc2b7760e11b815260036004820152336024820152918290604490829086165afa90811561044d575f9161123c575b5015610a8757865f52602097600a895260ff60405f20541680611220575b610a87578715610a4157169384156102675785156111db5763ffffffff1695861561119657916110fa93915f8994604051968795869485937f5514e6990000000000000000000000000000000000000000000000000000000085528b600486015260248501528b60448501528c606485015260a0608485015260a4840191613659565b03925af193841561044d5785915f95611143575b508492917f554dfed9e991f9e5ac3172a909c508958a35fc35bb05650bd8952f2a5db6c6e091604051908152a4604051908152f35b9450919084813d811161118f575b61115b8183613460565b81010312610458579251929084907f554dfed9e991f9e5ac3172a909c508958a35fc35bb05650bd8952f2a5db6c6e061110e565b503d611151565b6064886040519063d647364f60e01b82526004820152601560248201527f506f696e74732063616e6e6f74206265207a65726f00000000000000000000006044820152fd5b6064886040519063d647364f60e01b82526004820152601660248201527f4d697373696e6720706f736974696f6e547970654964000000000000000000006044820152fd5b506009895260405f20335f52895260ff60405f20541615611077565b611255915060403d6040116106a95761069a8183613460565b5089611059565b34610458576020366003190112610458576004355f526003602052602060405f2054604051908152f35b34610458575f3660031901126104585760206040516001600160a01b037f0000000000000000000000000000000000000000000000000000000000000000168152f35b34610458576020366003190112610458576004355f52600a602052602060ff60405f2054166040519015158152f35b346104585760203660031901126104585760043561131636336139e0565b8015158061138d575b1561137557805f52600560205260ff60405f2054161561137557805f52600560205260405f2060ff19815416905533907f6a695f3885825e54664b734cb3f92b352642b7a4d913d39f61ce3904eaed7c055f80a3005b60249060405190633e8a1e4160e21b82526004820152fd5b5060015481111561131f565b34610458575f366003190112610458575f5460a01c60ff16156114045760207f8fb36037000000000000000000000000000000000000000000000000000000005b7fffffffff0000000000000000000000000000000000000000000000000000000060405191168152f35b60205f6113da565b3461045857604036600319011261045857611425613579565b60243561143236336139e0565b6001600160a01b0380921690811561026757815f52600c60205260405f20815f5260205260ff60405f2054161561146557005b815f52600c60205260405f20905f5260205260405f20600160ff19825416179055600d60205260405f208054680100000000000000008110156114c7576114b19160018201815561360c565b909283549160031b92831b921b19161790555f80f35b634e487b7160e01b5f52604160045260245ffd5b34610458576020366003190112610458576004355f526005602052602060ff60405f2054166040519015158152f35b346104585760603660031901126104585761152361358f565b604435908115158203610458576001600160a01b039061154336336139e0565b169081156102675761044b916004355f52600960205260405f20905f5260205260405f209060ff801983541691151516179055565b3461045857602036600319011261045857611591613579565b5f54906001600160a01b0390818316330361162c57803b156115fa577f2f658b440c35314f52658ea8a740e05b284cdc84dc9ae01e891f21b8933e7cad9260209273ffffffffffffffffffffffffffffffffffffffff19921691829116175f55604051908152a1005b602491604051917fc2f31e5e000000000000000000000000000000000000000000000000000000008352166004820152fd5b602460405162d1953b60e31b8152336004820152fd5b346104585760031960403682011261045857600435602491823567ffffffffffffffff91828211610458578160040194610300833603928301126104585761168a36336139e0565b84151580611d06575b15611cf057845f5260059060209282845260ff60405f20541615611cd9576116ba88613ba3565b865f526002845260405f209363ffffffff93846116d68b6136c7565b169463ffffffff1995868854161787556117166116f4868a016136c7565b885467ffffffff00000000191660209190911b67ffffffff0000000016178855565b61174f61172560448a016136c7565b88546bffffffff0000000000000000191660409190911b6bffffffff000000000000000016178855565b606488013560048110156104585760ff60601b88549160601b169060ff60601b1916178755600195608489013587890155600288018261179160a48c016136c7565b1681549060c48c01358681101561045857806117b264ff0000000092613531565b881b169164ffffffffff19161717905560e4890135600389015560048801826117de6101048c016136c7565b16828254161781556118186117f66101248c016136c7565b825467ffffffff00000000191660209190911b67ffffffff0000000016178255565b6118526118286101448c016136c7565b82546bffffffff0000000000000000191660409190911b6bffffffff000000000000000016178255565b61185f6101648b016136c7565b8a825473ffffffff0000000000000000000000000000000061188461018484016136c7565b60801b1663ffffffff60a01b61189d6101a485016136c7565b60a01b16916101e463ffffffff60c01b6118ba6101c487016136c7565b60c01b16940135801515809103610458576fffffffff00000000000000000000000060ff60e01b7fffffff0000000000000000000000000000000000ffffffffffffffffffffffff9260e01b169660601b16911617171717179055828801916119266102048b016136c7565b16908254161790556102248701356006870155600786016102448801356001600160a01b0381168091036104585773ffffffffffffffffffffffffffffffffffffffff198254161790556008860161198261026489018c6136d8565b8a819392931161061e578061199783546133db565b93601f94858111611c8d575b505f90858311600114611c2e575f92611c23575b50505f19600383901b1c191690881b1790555b60098701906119dd6102848a018d6136d8565b91908b8311611c10579082916119f385546133db565b828111611bc2575b505f918311600114611b63575f92611b58575b50505f19600383901b1c191690871b1790555b600a8601926102a48801359060221901811215610458578701936004850135948986116104585781869101921b3603821361045857680100000000000000008511611b4657508254848455808510611b1f575b50915f52805f20905f5b848110611b0e57505050505050600b0191611a9c6102c4830161370b565b166fffffffffffffffffffffffffffffffff196fffffffffffffffff0000000000000000611acf6102e48654950161370b565b60401b169216171790557f493172a5da918afdb4e470aad2ba421ac5dd8393bcd81aff0c9ccc69f619099660405180611b09339582613752565b0390a3005b833583820155928101928501611a7e565b835f528585845f2092830192015b828110611b3b575050611a74565b5f8155018690611b2d565b634e487b7160e01b5f5260416004525ffd5b013590508d80611a0e565b899350601f19831691855f52875f20925f5b89828210611bac5750508411611b93575b505050811b019055611a21565b01355f19600384901b60f8161c191690558d8080611b86565b8385013586558d97909501949283019201611b75565b90919250845f52865f2083808601881c820192898710611c07575b9186958d9295949301891c01915b828110611bf95750506119fb565b5f81558695508c9101611beb565b92508192611bdd565b87634e487b7160e01b5f5260416004525ffd5b013590508e806119b7565b8a9350601f19831691855f52885f20925f5b8a828210611c775750508411611c5e575b505050811b0190556119ca565b01355f19600384901b60f8161c191690558e8080611c51565b8385013586558e97909501949283019201611c40565b909150835f52865f2085808501881c820192898610611cd0575b918c918695949301891c01915b828110611cc25750506119a3565b5f81558594508c9101611cb4565b92508192611ca7565b508560405190633e8a1e4160e21b82526004820152fd5b8460405190633e8a1e4160e21b82526004820152fd5b50600154851115611693565b6003196060368201126104585767ffffffffffffffff6024351161045857610300906024353603011261045857611d4936336139e0565b6001600160a01b036040517ff830e34800000000000000000000000000000000000000000000000000000000815260043560048201526101c08082602481867f0000000000000000000000000000000000000000000000000000000000000000165afa91821561044d575f926125a5575b50508160208201511615801561259a575b6125555760a001518116300361251057604435156124ca576044355f52600760205260ff60405f20541661248557611e07602435600401613ba3565b611e12600154613679565b80600155805f52600260205260405f209163ffffffff80611e376024356004016136c7565b1663ffffffff199081865416178555611e78611e5660248035016136c7565b865467ffffffff00000000191660209190911b67ffffffff0000000016178655565b611eb3611e896044602435016136c7565b86546bffffffff0000000000000000191660409190911b6bffffffff000000000000000016178655565b6064602435013560048110156104585760ff60601b86549160601b169060ff60601b19161785556084602435013560018601556002850182611ef960a4602435016136c7565b1681549060c4602435013560058110156104585780611f1d64ff0000000092613531565b60201b169164ffffffffff19161717905560e4602435013560038601556004850182611f4e610104602435016136c7565b1682825416178155611f686117f6610124602435016136c7565b611f7a611828610144602435016136c7565b611f89610164602435016136c7565b815473ffffffff00000000000000000000000000000000611faf610184602435016136c7565b60801b1663ffffffff60a01b611fca6101a4602435016136c7565b60a01b169063ffffffff60c01b611fe66101c4602435016136c7565b60c01b16926101e46024350135801515809103610458576fffffffff00000000000000000000000060ff60e01b7fffffff0000000000000000000000000000000000ffffffffffffffffffffffff9260e01b169660601b16911617171717179055600585019161205b610204602435016136c7565b169082541617905561022460243501356006840155600783019061024460243501359081168091036104585773ffffffffffffffffffffffffffffffffffffffff198254161790556120b8610264602435016024356004016136d8565b9067ffffffffffffffff82116114c75781906120d760088601546133db565b601f8111612435575b505f90601f83116001146123c8575f926123bd575b50508160011b915f199060031b1c19161760088301555b612121610284602435016024356004016136d8565b9067ffffffffffffffff82116114c757819061214060098601546133db565b601f811161236d575b505f90601f8311600114612300575f926122f5575b50508160011b915f199060031b1c19161760098301555b600a8201916024356102a481013590360360221901811215610458576024350160048101359067ffffffffffffffff8211610458576024018160051b36038113610458576801000000000000000082116114c75784548286558083106122cf575b50935f5260205f205f5b8281106122bb57602085600b860167ffffffffffffffff6122066102c46024350161370b565b168154906fffffffffffffffffffffffffffffffff196fffffffffffffffff000000000000000061223c6102e46024350161370b565b60401b16921617179055805f526003825260043560405f20556006825260443560405f20556044355f526007825260405f20600160ff19825416179055604051817f0215c6902787bce369520b2032915a714819e29cd4230ff91ab746ae8752947d3392806122b060243560040182613752565b0390a3604051908152f35b6001906020873597019681840155016121e0565b855f528260205f2091820191015b8181106122ea57506121d6565b5f81556001016122dd565b01359050848061215e565b909250600985015f5260205f20905f935b601f1984168510612355576001945083601f1981161061233c575b505050811b016009830155612175565b01355f19600384901b60f8161c1916905584808061232c565b81810135835560209485019460019093019201612311565b909150600985015f5260205f20601f840160051c8101602085106123b6575b90849392915b601f830160051c820181106123a8575050612149565b5f8155859450600101612392565b508061238c565b0135905084806120f5565b909250600885015f5260205f20905f935b601f198416851061241d576001945083601f19811610612404575b505050811b01600883015561210c565b01355f19600384901b60f8161c191690558480806123f4565b818101358355602094850194600190930192016123d9565b909150600885015f5260205f20601f840160051c81016020851061247e575b90849392915b601f830160051c820181106124705750506120e0565b5f815585945060010161245a565b5080612454565b606460405163d647364f60e01b815260206004820152601960248201527f50726f706f73616c2072656620616c72656164792075736564000000000000006044820152fd5b60405163d647364f60e01b815260206004820152601460248201527f4d697373696e672070726f706f73616c207265660000000000000000000000006044820152606490fd5b606460405163d647364f60e01b815260206004820152601160248201527f5265676973747279206d69736d617463680000000000000000000000000000006044820152fd5b606460405163d647364f60e01b815260206004820152601860248201527f436f6d6d756e697479206e6f7420636f6e6669677572656400000000000000006044820152fd5b508181511615611dcb565b9080925081813d83116126d6575b6125bd8183613460565b810103126104585760405191820182811067ffffffffffffffff8211176114c7576040526125ea816136b3565b82526125f8602082016136b3565b6020830152612609604082016136b3565b604083015261261a606082016136b3565b606083015261262b608082016136b3565b608083015261263c60a082016136b3565b60a083015261264d60c082016136b3565b60c083015261265e60e082016136b3565b60e08301526101006126718183016136b3565b908301526101206126838183016136b3565b908301526101406126958183016136b3565b908301526101606126a78183016136b3565b908301526101806126b98183016136b3565b908301526126cb6101a08092016136b3565b908201528280611dba565b503d6125b3565b34610458576020366003190112610458575f6102e06040516126fe81613413565b8281528260208201528260408201528260608201528260808201528260a08201528260c08201528260e08201528261010082015282610120820152826101408201528261016082015282610180820152826101a0820152826101c0820152826101e08201528261020082015282610220820152826102408201526060610260820152606061028082015260606102a0820152826102c08201520152600435151580612b97575b15612b7e576004355f52600260205260405f20604051906127c482613413565b805463ffffffff8116835263ffffffff8160201c16602084015263ffffffff8160401c166040840152600460ff8260601c161015612b6a5760ff9060601c1660608301526001810154608083015260ff600282015463ffffffff811660a0850152612833828260201c16613531565b60201c1660c0830152600381015460e083015260ff600482015463ffffffff811661010085015263ffffffff8160201c1661012085015263ffffffff8160401c1661014085015263ffffffff8160601c1661016085015263ffffffff8160801c1661018085015263ffffffff8160a01c166101a085015263ffffffff8160c01c166101c085015260e01c1615156101e083015263ffffffff60058201541661020083015260068101546102208301526001600160a01b0360078201541661024083015261290260088201613482565b61026083015261291460098201613482565b610280830152604051806020600a840154918281520190600a84015f5260205f20905f5b818110612b54578667ffffffffffffffff600b8888612959818a0382613460565b6102a085015201548181166102c084015260401c166102e08201526040516020815263ffffffff825116602082015263ffffffff602083015116604082015263ffffffff60408301511660608201526129ba60608301516080830190613524565b608082015160a082015263ffffffff60a08301511660c082015260c08201516129e281613531565b60e082015260e082015161010082015263ffffffff6101008301511661012082015263ffffffff6101208301511661014082015263ffffffff6101408301511661016082015263ffffffff6101608301511661018082015263ffffffff610180830151166101a082015263ffffffff6101a0830151166101c082015263ffffffff6101c0830151166101e08201526101e0820151151561020082015263ffffffff610200830151166102208201526102208201516102408201526001600160a01b0361024083015116610260820152610260820151612ad0610300918261028085015261032084019061353b565b90612aef61028085015192601f199384868303016102a087015261353b565b6102a085015192848203016102c0850152602080845192838152019301905f5b818110612b3e5750505067ffffffffffffffff6102e085826102c0879801511682870152015116908301520390f35b8251855260209485019490920191600101612b0f565b8254845260209093019260019283019201612938565b634e487b7160e01b5f52602160045260245ffd5b6024604051633e8a1e4160e21b81526004356004820152fd5b5060015460043511156127a4565b3461045857604036600319011261045857612bbe61358f565b6004355f5260096020526001600160a01b0360405f2091165f52602052602060ff60405f2054166040519015158152f35b3461045857604036600319011261045857602435600435612c1036336139e0565b80151580612cc4575b156113755781156124ca57805f5260066020528160405f205403612c7f57805f52600560205260405f20600160ff1982541617905560066020525f60408120557f7ffae721983994812770c99f4f10d1cfc94bc4b5d28b08e6ce84a796fefaa3a75f80a3005b606460405163d647364f60e01b815260206004820152601560248201527f50726f706f73616c20726566206d69736d6174636800000000000000000000006044820152fd5b50600154811115612c19565b3461045857604036600319011261045857612ce9613579565b6001600160a01b03612cf96133cc565b91612d0436336139e0565b16801561026757805f526004602052612d2c8260405f209060ff801983541691151516179055565b60405191151582527f6e0f223019887734edb3e629fad26bad6ceeb5108f25ae46e5c762fe264517c160203393a3005b34610458575f366003190112610458575f600190600154915b82811115612e5c5750612da0612d8a8261369b565b91612d986040519384613460565b80835261369b565b6020928383019291601f19013684375f9060015b81811115612dff575050509060405192839281840190828552518091526040840192915f5b828110612de857505050500390f35b835185528695509381019392810192600101612dd9565b805f5260059081875260ff60405f205416612e24575b612e1f9150613679565b612db4565b612e2d84613679565b938551811015612e4857878291612e1f941b87010152612e15565b634e487b7160e01b5f52603260045260245ffd5b805f52600560205260ff60405f205416612e7f575b612e7a90613679565b612d75565b90612e8c612e7a91613679565b919050612e71565b346104585760a036600319011261045857600435612eb061358f565b90604435612ebc6135a5565b60843567ffffffffffffffff811161045857612edc9036906004016135c9565b600b549060ff82166106b0576001600160a01b03809260081c16918215610267575f54604080516368fc2b7760e11b815260036004820152336024820152918290604490829086165afa90811561044d575f91613117575b5015610a8757865f52602097600a895260ff60405f205416806130fb575b610a87578715610a4157169384156102675785156130b65763ffffffff169586156130715791612fd593915f8994604051968795869485937f80848b860000000000000000000000000000000000000000000000000000000085528b600486015260248501528b60448501528c606485015260a0608485015260a4840191613659565b03925af193841561044d5785915f9561301e575b508492917f7b8043c22ce41e0e1794bd92378dbf37e79f87ac6b347b584e6ef04ee52296ff91604051908152a4604051908152f35b9450919084813d811161306a575b6130368183613460565b81010312610458579251929084907f7b8043c22ce41e0e1794bd92378dbf37e79f87ac6b347b584e6ef04ee52296ff612fe9565b503d61302c565b6064886040519063d647364f60e01b82526004820152601560248201527f5765696768742063616e6e6f74206265207a65726f00000000000000000000006044820152fd5b6064886040519063d647364f60e01b82526004820152601060248201527f4d697373696e6720636f686f72744964000000000000000000000000000000006044820152fd5b506009895260405f20335f52895260ff60405f20541615612f52565b613130915060403d6040116106a95761069a8183613460565b5089612f34565b34610458576020366003190112610458576004355f526006602052602060405f2054604051908152f35b346104585760403660031901126104585761317a613579565b6001600160a01b0361318a6133cc565b9161319536336139e0565b169081156102675761044b915f52600860205260405f209060ff801983541691151516179055565b34610458576020366003190112610458576004355f52600260205260405f20805460018201549160028101549060038101546004820154600583015463ffffffff1660068401549060078501546001600160a01b0316926008860161322190613482565b9461322e60098801613482565b96600b0154976040519a8a63ffffffff8d9c168c528060201c63ffffffff1660208d01528060401c63ffffffff1660408d015260608c019060601c60ff169061327691613524565b60808b015263ffffffff811660a08b01528060201c60ff1661329790613531565b60201c60ff1660c08a015260e089015263ffffffff81166101008901528060201c63ffffffff166101208901528060401c63ffffffff166101408901528060601c63ffffffff166101608901528060801c63ffffffff166101808901528060a01c63ffffffff166101a08901528060c01c63ffffffff166101c089015260e01c60ff1615156101e088015261020087015261022086015261024085015261026084016102e090526102e0840161334c9161353b565b83810361028085015261335e9161353b565b9067ffffffffffffffff81166102a084015260401c67ffffffffffffffff166102c08301520390f35b346104585760403660031901126104585761044b6133a36133cc565b6133ad36336139e0565b6004355f52600a60205260405f209060ff801983541691151516179055565b60243590811515820361045857565b90600182811c92168015613409575b60208310146133f557565b634e487b7160e01b5f52602260045260245ffd5b91607f16916133ea565b610300810190811067ffffffffffffffff8211176114c757604052565b67ffffffffffffffff81116114c757604052565b60a0810190811067ffffffffffffffff8211176114c757604052565b90601f8019910116810190811067ffffffffffffffff8211176114c757604052565b9060405191825f8254613494816133db565b908184526020946001916001811690815f1461350257506001146134c4575b5050506134c292500383613460565b565b5f90815285812095935091905b8183106134ea5750506134c293508201015f80806134b3565b855488840185015294850194879450918301916134d1565b925050506134c294925060ff191682840152151560051b8201015f80806134b3565b906004821015612b6a5752565b60051115612b6a57565b91908251928382525f5b848110613565575050825f602080949584010152601f8019910116010190565b602081830181015184830182015201613545565b600435906001600160a01b038216820361045857565b602435906001600160a01b038216820361045857565b6064359063ffffffff8216820361045857565b359063ffffffff8216820361045857565b9181601f840112156104585782359167ffffffffffffffff8311610458576020838186019501011161045857565b359067ffffffffffffffff8216820361045857565b8054821015612e48575f5260205f2001905f90565b519063ffffffff8216820361045857565b91908260409103126104585781518015158103610458576020613656919301613621565b90565b908060209392818452848401375f828201840152601f01601f1916010190565b5f1981146136875760010190565b634e487b7160e01b5f52601160045260245ffd5b67ffffffffffffffff81116114c75760051b60200190565b51906001600160a01b038216820361045857565b3563ffffffff811681036104585790565b903590601e1981360301821215610458570180359067ffffffffffffffff82116104585760200191813603831361045857565b3567ffffffffffffffff811681036104585790565b9035601e198236030181121561045857016020813591019167ffffffffffffffff821161045857813603831361045857565b60209182825263ffffffff80613767836135b8565b1684840152806137788584016135b8565b1660408401528061378b604084016135b8565b16606084015260608201356004811015610458576137ad906080850190613524565b608082013560a0840152806137c460a084016135b8565b1660c084015260c08201356005811015610458576137e181613531565b60e084015261387461386361385261384161383061381f61380e61010060e08a0135818c015289016135b8565b876101209116818b015288016135b8565b866101409116818a015287016135b8565b8561016091168189015286016135b8565b8461018091168188015285016135b8565b836101a091168187015284016135b8565b826101c091168186015283016135b8565b816101e09116818501528201358015158091036104585761389e90610200908186015283016135b8565b906102209116818401526102409082013581840152810135916001600160a01b038316809303610458576138df613920936102609081840152830183613720565b926139076138fe61030093610280968588880152610320870191613659565b94820182613720565b959094601f19966102a096888784030188880152613659565b93810135601e19823603018112156104585781019486863596019167ffffffffffffffff92838811610458578760051b978836038213610458577f07ffffffffffffffffffffffffffffffffffffffffffffffffffffffffffffff906102c094888a03018589015280895211610458576139b592886139a4928b8a013782016135f7565b90836102e0921682870152016135f7565b16910152010190565b906003821015612b6a5752565b519067ffffffffffffffff8216820361045857565b5f915f54916001600160a01b038084169280600411610458575f92838491604095869182519660208801917fb700961300000000000000000000000000000000000000000000000000000000835216968760248201523060448201527fffffffff00000000000000000000000000000000000000000000000000000000833516606482015260648152613a7281613444565b828052826020525190895afa613b90575b15613a92575b50505050505050565b63ffffffff1615613b7a57740100000000000000000000000000000000000000007fffffffffffffffffffffff00ffffffffffffffffffffffffffffffffffffffff809616175f55833b15610458576064935f928385519687809581947f94c7d7ee00000000000000000000000000000000000000000000000000000000835260048301528860248301528060448301528084848401378181018301849052601f01601f191681010301925af1908115613b715750613b5e575b5081541690555f808080808080613a89565b613b69919250613430565b5f905f613b4c565b513d5f823e3d90fd5b50602491519062d1953b60e31b82526004820152fd5b50505f516020518060201c150290613a83565b63ffffffff9081613bb3826136c7565b1615613e8457610100810182613bc8826136c7565b1615613e3f5761012082019083613bde836136c7565b1615613dfa5783613bf8613bf282936136c7565b936136c7565b16911611613d8f5781613c0e61014083016136c7565b1615613d4a5761271082613c2561018084016136c7565b1611613d0557613c396102608201826136d8565b905015613c9a576101a0613c4d91016136c7565b1615613c5557565b606460405163d647364f60e01b815260206004820152601e60248201527f436f6f6c646f776e20706572696f642063616e6e6f74206265207a65726f00006044820152fd5b608460405163d647364f60e01b815260206004820152602160248201527f45766964656e63652073706563204349442063616e6e6f7420626520656d707460448201527f79000000000000000000000000000000000000000000000000000000000000006064820152fd5b606460405163d647364f60e01b815260206004820152601d60248201527f536c61736820726174652063616e6e6f742065786365656420313030250000006044820152fd5b606460405163d647364f60e01b815260206004820152601c60248201527f5665726966792077696e646f772063616e6e6f74206265207a65726f000000006044820152fd5b608460405163d647364f60e01b815260206004820152602760248201527f4d696e696d756d206a75726f72732063616e6e6f74206578636565642070616e60448201527f656c2073697a65000000000000000000000000000000000000000000000000006064820152fd5b606460405163d647364f60e01b815260206004820152601960248201527f50616e656c2073697a652063616e6e6f74206265207a65726f000000000000006044820152fd5b606460405163d647364f60e01b815260206004820152601d60248201527f4d696e696d756d206a75726f72732063616e6e6f74206265207a65726f0000006044820152fd5b608460405163d647364f60e01b815260206004820152602560248201527f4d656d62657273686970546f6b656e207265776172642063616e6e6f7420626560448201527f207a65726f0000000000000000000000000000000000000000000000000000006064820152fdfea26469706673582212200e12dc04faee786531750bacb32174e8516619ed96deca697c156fc3e7ca9fc664736f6c63430008180033","linkReferences":{}},"methodIdentifiers":{"activateFromGovernance(uint256,bytes32)":"408a6802","addFounder(address,uint256)":"8fa906b2","authority()":"bf7e214f","closePositionToken(uint256,uint256,uint8)":"ee855580","communityByActionId(uint256)":"a2e7b04c","communityFounders(uint256,uint256)":"bcca4854","communityNarrowingEnabled(uint256)":"9de1e191","communityRegistry()":"a200ac86","deactivate(uint256)":"916b9bef","founderWhitelist(address,uint256)":"e148bb48","getActiveValuableActions()":"3bc87c9c","getCommunityFounders(uint256)":"a8db7912","getValuableAction(uint256)":"5cfdb862","isActive(uint256)":"82afd23b","isCommunityIssuanceModule(uint256,address)":"47573c2b","isConsumingScheduledOp()":"8fb36037","isIssuanceModule(address)":"a90e069e","isModerator(address)":"fa6f3936","isValuableActionActive(uint256)":"e9ea801c","issuancePaused()":"c691af92","issueEngagement(uint256,address,uint8,bytes32,bytes)":"c2543371","issueInvestment(uint256,address,uint256,uint32,bytes)":"23e5227c","issuePosition(uint256,address,bytes32,uint32,bytes)":"a7ebafff","issueRoleFromPosition(uint256,address,bytes32,uint32,uint64,uint64,uint8,bytes)":"a9957f56","lastId()":"c1292cc3","pendingValuableActions(uint256)":"2262fd9d","proposalRefUsed(bytes32)":"ff3a41ab","proposeValuableAction(uint256,(uint32,uint32,uint32,uint8,bytes32,uint32,uint8,bytes32,uint32,uint32,uint32,uint32,uint32,uint32,uint32,bool,uint32,uint256,address,string,string,bytes32[],uint64,uint64),bytes32)":"5e61baa1","setAuthority(address)":"7a9e5e4b","setCommunityIssuanceModule(uint256,address,bool)":"7b868301","setCommunityNarrowing(uint256,bool)":"00a79c0b","setIssuanceModule(address,bool)":"14f1d4f1","setIssuancePaused(bool)":"c6ffb6cb","setModerator(address,bool)":"3ee2b01d","setValuableActionSBT(address)":"ff012a43","update(uint256,(uint32,uint32,uint32,uint8,bytes32,uint32,uint8,bytes32,uint32,uint32,uint32,uint32,uint32,uint32,uint32,bool,uint32,uint256,address,string,string,bytes32[],uint64,uint64))":"6da7a0ba","valuableActionSBT()":"e8901184","valuableActionsById(uint256)":"0c5940fd"},"id":12}