{"abi":[{"type":"constructor","inputs":[{"name":"_governance","type":"address","internalType":"address"},{"name":"_communityRegistry","type":"address","internalType":"address"}],"stateMutability":"nonpayable"},{"type":"function","name":"activateFromGovernance","inputs":[{"name":"valuableActionId","type":"uint256","internalType":"uint256"},{"name":"proposalRef","type":"bytes32","internalType":"bytes32"}],"outputs":[],"stateMutability":"nonpayable"},{"type":"function","name":"addFounder","inputs":[{"name":"founder","type":"address","internalType":"address"},{"name":"communityId","type":"uint256","internalType":"uint256"}],"outputs":[],"stateMutability":"nonpayable"},{"type":"function","name":"communityByActionId","inputs":[{"name":"","type":"uint256","internalType":"uint256"}],"outputs":[{"name":"","type":"uint256","internalType":"uint256"}],"stateMutability":"view"},{"type":"function","name":"communityFounders","inputs":[{"name":"","type":"uint256","internalType":"uint256"},{"name":"","type":"uint256","internalType":"uint256"}],"outputs":[{"name":"","type":"address","internalType":"address"}],"stateMutability":"view"},{"type":"function","name":"communityRegistry","inputs":[],"outputs":[{"name":"","type":"address","internalType":"contract CommunityRegistry"}],"stateMutability":"view"},{"type":"function","name":"deactivate","inputs":[{"name":"id","type":"uint256","internalType":"uint256"}],"outputs":[],"stateMutability":"nonpayable"},{"type":"function","name":"founderWhitelist","inputs":[{"name":"","type":"address","internalType":"address"},{"name":"","type":"uint256","internalType":"uint256"}],"outputs":[{"name":"","type":"bool","internalType":"bool"}],"stateMutability":"view"},{"type":"function","name":"getActiveValuableActions","inputs":[],"outputs":[{"name":"ids","type":"uint256[]","internalType":"uint256[]"}],"stateMutability":"view"},{"type":"function","name":"getCommunityFounders","inputs":[{"name":"communityId","type":"uint256","internalType":"uint256"}],"outputs":[{"name":"founders","type":"address[]","internalType":"address[]"}],"stateMutability":"view"},{"type":"function","name":"getValuableAction","inputs":[{"name":"id","type":"uint256","internalType":"uint256"}],"outputs":[{"name":"action","type":"tuple","internalType":"struct Types.ValuableAction","components":[{"name":"membershipTokenReward","type":"uint32","internalType":"uint32"},{"name":"communityTokenReward","type":"uint32","internalType":"uint32"},{"name":"investorSBTReward","type":"uint32","internalType":"uint32"},{"name":"jurorsMin","type":"uint32","internalType":"uint32"},{"name":"panelSize","type":"uint32","internalType":"uint32"},{"name":"verifyWindow","type":"uint32","internalType":"uint32"},{"name":"verifierRewardWeight","type":"uint32","internalType":"uint32"},{"name":"slashVerifierBps","type":"uint32","internalType":"uint32"},{"name":"cooldownPeriod","type":"uint32","internalType":"uint32"},{"name":"maxConcurrent","type":"uint32","internalType":"uint32"},{"name":"revocable","type":"bool","internalType":"bool"},{"name":"evidenceTypes","type":"uint32","internalType":"uint32"},{"name":"proposalThreshold","type":"uint256","internalType":"uint256"},{"name":"proposer","type":"address","internalType":"address"},{"name":"evidenceSpecCID","type":"string","internalType":"string"},{"name":"titleTemplate","type":"string","internalType":"string"},{"name":"automationRules","type":"bytes32[]","internalType":"bytes32[]"},{"name":"activationDelay","type":"uint64","internalType":"uint64"},{"name":"deprecationWarning","type":"uint64","internalType":"uint64"}]}],"stateMutability":"view"},{"type":"function","name":"governance","inputs":[],"outputs":[{"name":"","type":"address","internalType":"address"}],"stateMutability":"view"},{"type":"function","name":"isActive","inputs":[{"name":"","type":"uint256","internalType":"uint256"}],"outputs":[{"name":"","type":"bool","internalType":"bool"}],"stateMutability":"view"},{"type":"function","name":"isModerator","inputs":[{"name":"","type":"address","internalType":"address"}],"outputs":[{"name":"","type":"bool","internalType":"bool"}],"stateMutability":"view"},{"type":"function","name":"isValuableActionActive","inputs":[{"name":"id","type":"uint256","internalType":"uint256"}],"outputs":[{"name":"","type":"bool","internalType":"bool"}],"stateMutability":"view"},{"type":"function","name":"lastId","inputs":[],"outputs":[{"name":"","type":"uint256","internalType":"uint256"}],"stateMutability":"view"},{"type":"function","name":"pendingValuableActions","inputs":[{"name":"","type":"uint256","internalType":"uint256"}],"outputs":[{"name":"","type":"bytes32","internalType":"bytes32"}],"stateMutability":"view"},{"type":"function","name":"proposalRefUsed","inputs":[{"name":"","type":"bytes32","internalType":"bytes32"}],"outputs":[{"name":"","type":"bool","internalType":"bool"}],"stateMutability":"view"},{"type":"function","name":"proposeValuableAction","inputs":[{"name":"communityId","type":"uint256","internalType":"uint256"},{"name":"params","type":"tuple","internalType":"struct Types.ValuableAction","components":[{"name":"membershipTokenReward","type":"uint32","internalType":"uint32"},{"name":"communityTokenReward","type":"uint32","internalType":"uint32"},{"name":"investorSBTReward","type":"uint32","internalType":"uint32"},{"name":"jurorsMin","type":"uint32","internalType":"uint32"},{"name":"panelSize","type":"uint32","internalType":"uint32"},{"name":"verifyWindow","type":"uint32","internalType":"uint32"},{"name":"verifierRewardWeight","type":"uint32","internalType":"uint32"},{"name":"slashVerifierBps","type":"uint32","internalType":"uint32"},{"name":"cooldownPeriod","type":"uint32","internalType":"uint32"},{"name":"maxConcurrent","type":"uint32","internalType":"uint32"},{"name":"revocable","type":"bool","internalType":"bool"},{"name":"evidenceTypes","type":"uint32","internalType":"uint32"},{"name":"proposalThreshold","type":"uint256","internalType":"uint256"},{"name":"proposer","type":"address","internalType":"address"},{"name":"evidenceSpecCID","type":"string","internalType":"string"},{"name":"titleTemplate","type":"string","internalType":"string"},{"name":"automationRules","type":"bytes32[]","internalType":"bytes32[]"},{"name":"activationDelay","type":"uint64","internalType":"uint64"},{"name":"deprecationWarning","type":"uint64","internalType":"uint64"}]},{"name":"proposalRef","type":"bytes32","internalType":"bytes32"}],"outputs":[{"name":"valuableActionId","type":"uint256","internalType":"uint256"}],"stateMutability":"payable"},{"type":"function","name":"setModerator","inputs":[{"name":"who","type":"address","internalType":"address"},{"name":"status","type":"bool","internalType":"bool"}],"outputs":[],"stateMutability":"nonpayable"},{"type":"function","name":"update","inputs":[{"name":"id","type":"uint256","internalType":"uint256"},{"name":"params","type":"tuple","internalType":"struct Types.ValuableAction","components":[{"name":"membershipTokenReward","type":"uint32","internalType":"uint32"},{"name":"communityTokenReward","type":"uint32","internalType":"uint32"},{"name":"investorSBTReward","type":"uint32","internalType":"uint32"},{"name":"jurorsMin","type":"uint32","internalType":"uint32"},{"name":"panelSize","type":"uint32","internalType":"uint32"},{"name":"verifyWindow","type":"uint32","internalType":"uint32"},{"name":"verifierRewardWeight","type":"uint32","internalType":"uint32"},{"name":"slashVerifierBps","type":"uint32","internalType":"uint32"},{"name":"cooldownPeriod","type":"uint32","internalType":"uint32"},{"name":"maxConcurrent","type":"uint32","internalType":"uint32"},{"name":"revocable","type":"bool","internalType":"bool"},{"name":"evidenceTypes","type":"uint32","internalType":"uint32"},{"name":"proposalThreshold","type":"uint256","internalType":"uint256"},{"name":"proposer","type":"address","internalType":"address"},{"name":"evidenceSpecCID","type":"string","internalType":"string"},{"name":"titleTemplate","type":"string","internalType":"string"},{"name":"automationRules","type":"bytes32[]","internalType":"bytes32[]"},{"name":"activationDelay","type":"uint64","internalType":"uint64"},{"name":"deprecationWarning","type":"uint64","internalType":"uint64"}]}],"outputs":[],"stateMutability":"nonpayable"},{"type":"function","name":"updateGovernance","inputs":[{"name":"newGovernance","type":"address","internalType":"address"}],"outputs":[],"stateMutability":"nonpayable"},{"type":"function","name":"valuableActionsById","inputs":[{"name":"","type":"uint256","internalType":"uint256"}],"outputs":[{"name":"membershipTokenReward","type":"uint32","internalType":"uint32"},{"name":"communityTokenReward","type":"uint32","internalType":"uint32"},{"name":"investorSBTReward","type":"uint32","internalType":"uint32"},{"name":"jurorsMin","type":"uint32","internalType":"uint32"},{"name":"panelSize","type":"uint32","internalType":"uint32"},{"name":"verifyWindow","type":"uint32","internalType":"uint32"},{"name":"verifierRewardWeight","type":"uint32","internalType":"uint32"},{"name":"slashVerifierBps","type":"uint32","internalType":"uint32"},{"name":"cooldownPeriod","type":"uint32","internalType":"uint32"},{"name":"maxConcurrent","type":"uint32","internalType":"uint32"},{"name":"revocable","type":"bool","internalType":"bool"},{"name":"evidenceTypes","type":"uint32","internalType":"uint32"},{"name":"proposalThreshold","type":"uint256","internalType":"uint256"},{"name":"proposer","type":"address","internalType":"address"},{"name":"evidenceSpecCID","type":"string","internalType":"string"},{"name":"titleTemplate","type":"string","internalType":"string"},{"name":"activationDelay","type":"uint64","internalType":"uint64"},{"name":"deprecationWarning","type":"uint64","internalType":"uint64"}],"stateMutability":"view"},{"type":"event","name":"ModeratorUpdated","inputs":[{"name":"account","type":"address","indexed":true,"internalType":"address"},{"name":"isModerator","type":"bool","indexed":false,"internalType":"bool"},{"name":"updater","type":"address","indexed":true,"internalType":"address"}],"anonymous":false},{"type":"event","name":"ValuableActionActivated","inputs":[{"name":"id","type":"uint256","indexed":true,"internalType":"uint256"},{"name":"proposalId","type":"uint256","indexed":true,"internalType":"uint256"}],"anonymous":false},{"type":"event","name":"ValuableActionCreated","inputs":[{"name":"id","type":"uint256","indexed":true,"internalType":"uint256"},{"name":"valuableAction","type":"tuple","indexed":false,"internalType":"struct Types.ValuableAction","components":[{"name":"membershipTokenReward","type":"uint32","internalType":"uint32"},{"name":"communityTokenReward","type":"uint32","internalType":"uint32"},{"name":"investorSBTReward","type":"uint32","internalType":"uint32"},{"name":"jurorsMin","type":"uint32","internalType":"uint32"},{"name":"panelSize","type":"uint32","internalType":"uint32"},{"name":"verifyWindow","type":"uint32","internalType":"uint32"},{"name":"verifierRewardWeight","type":"uint32","internalType":"uint32"},{"name":"slashVerifierBps","type":"uint32","internalType":"uint32"},{"name":"cooldownPeriod","type":"uint32","internalType":"uint32"},{"name":"maxConcurrent","type":"uint32","internalType":"uint32"},{"name":"revocable","type":"bool","internalType":"bool"},{"name":"evidenceTypes","type":"uint32","internalType":"uint32"},{"name":"proposalThreshold","type":"uint256","internalType":"uint256"},{"name":"proposer","type":"address","internalType":"address"},{"name":"evidenceSpecCID","type":"string","internalType":"string"},{"name":"titleTemplate","type":"string","internalType":"string"},{"name":"automationRules","type":"bytes32[]","internalType":"bytes32[]"},{"name":"activationDelay","type":"uint64","internalType":"uint64"},{"name":"deprecationWarning","type":"uint64","internalType":"uint64"}]},{"name":"creator","type":"address","indexed":true,"internalType":"address"}],"anonymous":false},{"type":"event","name":"ValuableActionDeactivated","inputs":[{"name":"id","type":"uint256","indexed":true,"internalType":"uint256"},{"name":"deactivator","type":"address","indexed":true,"internalType":"address"}],"anonymous":false},{"type":"event","name":"ValuableActionUpdated","inputs":[{"name":"id","type":"uint256","indexed":true,"internalType":"uint256"},{"name":"valuableAction","type":"tuple","indexed":false,"internalType":"struct Types.ValuableAction","components":[{"name":"membershipTokenReward","type":"uint32","internalType":"uint32"},{"name":"communityTokenReward","type":"uint32","internalType":"uint32"},{"name":"investorSBTReward","type":"uint32","internalType":"uint32"},{"name":"jurorsMin","type":"uint32","internalType":"uint32"},{"name":"panelSize","type":"uint32","internalType":"uint32"},{"name":"verifyWindow","type":"uint32","internalType":"uint32"},{"name":"verifierRewardWeight","type":"uint32","internalType":"uint32"},{"name":"slashVerifierBps","type":"uint32","internalType":"uint32"},{"name":"cooldownPeriod","type":"uint32","internalType":"uint32"},{"name":"maxConcurrent","type":"uint32","internalType":"uint32"},{"name":"revocable","type":"bool","internalType":"bool"},{"name":"evidenceTypes","type":"uint32","internalType":"uint32"},{"name":"proposalThreshold","type":"uint256","internalType":"uint256"},{"name":"proposer","type":"address","internalType":"address"},{"name":"evidenceSpecCID","type":"string","internalType":"string"},{"name":"titleTemplate","type":"string","internalType":"string"},{"name":"automationRules","type":"bytes32[]","internalType":"bytes32[]"},{"name":"activationDelay","type":"uint64","internalType":"uint64"},{"name":"deprecationWarning","type":"uint64","internalType":"uint64"}]},{"name":"updater","type":"address","indexed":true,"internalType":"address"}],"anonymous":false},{"type":"error","name":"InvalidInput","inputs":[{"name":"reason","type":"string","internalType":"string"}]},{"type":"error","name":"InvalidValuableAction","inputs":[{"name":"valuableActionId","type":"uint256","internalType":"uint256"}]},{"type":"error","name":"NotAuthorized","inputs":[{"name":"caller","type":"address","internalType":"address"}]},{"type":"error","name":"ZeroAddress","inputs":[]}],"bytecode":{"object":"0x60a03462000117576200278190601f38839003908101601f19168201906001600160401b038211838310176200011b578083916040958694855283398101031262000117576200005d602062000055836200012f565b92016200012f565b6001600160a01b03918216919082156200010657168015620000f5578160018060a01b03196007541617600755608052805f526003602052815f20600160ff19825416179055815190600182527f6e0f223019887734edb3e629fad26bad6ceeb5108f25ae46e5c762fe264517c160203393a35161263c908162000145823960805181818161022001528181610cb901526118f70152f35b825163d92e233d60e01b8152600490fd5b835163d92e233d60e01b8152600490fd5b5f80fd5b634e487b7160e01b5f52604160045260245ffd5b51906001600160a01b0382168203620001175756fe60806040526004361015610011575f80fd5b5f3560e01c80630c5940fd14611bd05780632262fd9d14611ba65780633bc87c9c14611a705780633ee2b01d146119e7578063408a6802146118845780635aa6e6751461185e5780635cfdb862146114a857806382afd23b146114795780638fa906b2146113bd578063916b9bef146113125780639c2b2bc414610cdd578063a200ac8614610c9a578063a2e7b04c14610c70578063a8db791214610bbe578063b256126314610b40578063bcca485414610af0578063c1292cc314610ad4578063e148bb4814610a8b578063e6573177146101cd578063e9ea801c1461017b578063fa6f39361461013e5763ff3a41ab1461010b575f80fd5b3461013a57602036600319011261013a576004355f526006602052602060ff60405f2054166040519015158152f35b5f80fd5b3461013a57602036600319011261013a576001600160a01b0361015f611e62565b165f526003602052602060ff60405f2054166040519015158152f35b3461013a57602036600319011261013a57600435801515806101c2575b806101ab575b6020906040519015158152f35b505f526004602052602060ff60405f20541661019e565b505f54811115610198565b60031960603682011261013a5767ffffffffffffffff6024351161013a57610260906024353603011261013a57604051631f061c6960e31b815260043560048201526101a0816024816001600160a01b037f0000000000000000000000000000000000000000000000000000000000000000165afa908115610a80575f91610a4f575b5060208101906001600160a01b03825116158015610a3d575b6109f85760a001516001600160a01b031630036109b357516001600160a01b03163303610983576044351561093d576044355f52600660205260ff60405f2054166108f8576102bc6024356004016122be565b6102c65f54611e8d565b805f55805f52600160205260405f209063ffffffff806102ea602435600401611fe4565b1663ffffffff19908185541617845561032b6103096024803501611fe4565b855467ffffffff00000000191660209190911b67ffffffff0000000016178555565b610339604460243501611fe4565b84546fffffffff00000000000000000000000061035a606460243501611fe4565b60601b1673ffffffff00000000000000000000000000000000610381608460243501611fe4565b60801b1663ffffffff60a01b61039b60a460243501611fe4565b60a01b169163ffffffff60c01b6103b660c460243501611fe4565b60c01b169367ffffffffffffffff6bffffffff00000000000000007fffffffff0000000000000000000000000000000000000000000000000000000061040060e460243501611fe4565b60e01b169760401b1691161717171717178455600184019161042761010460243501611fe4565b169082541617815561046361044161012460243501611fe4565b825467ffffffff00000000191660209190911b67ffffffff0000000016178255565b610144602435013580151580910361013a57815468ff00000000000000006cffffffff00000000000000000061049e61016460243501611fe4565b60481b169260401b16906cffffffffff000000000000000019161717905561018460243501356002830155600382016101a460243501356001600160a01b03811680910361013a5773ffffffffffffffffffffffffffffffffffffffff198254161790556105176101c460243501602435600401611ff5565b9067ffffffffffffffff82116107545781906105366004860154611d0b565b601f81116108a8575b505f90601f831160011461083b575f92610830575b50508160011b915f199060031b1c19161760048301555b6105806101e460243501602435600401611ff5565b9067ffffffffffffffff821161075457819061059f6005860154611d0b565b601f81116107e0575b505f90601f8311600114610773575f92610768575b50508160011b915f199060031b1c19161760058301555b60068201916024356102048101359036036022190181121561013a576024350160048101359067ffffffffffffffff821161013a576024018160051b3603811361013a5768010000000000000000821161075457845482865580831061072e575b50935f5260205f205f5b82811061071a576020856007860167ffffffffffffffff61066561022460243501612028565b168154906fffffffffffffffffffffffffffffffff196fffffffffffffffff000000000000000061069b61024460243501612028565b60401b16921617179055805f526002825260043560405f20556005825260443560405f20556044355f526006825260405f20600160ff19825416179055604051817f9cf2763d9d3ab88ed22f73eef0083180eeb8efb66bba493c85b895198aacc8b433928061070f602435600401826120b5565b0390a3604051908152f35b60019060208735970196818401550161063f565b855f528260205f2091820191015b8181106107495750610635565b5f815560010161073c565b634e487b7160e01b5f52604160045260245ffd5b0135905084806105bd565b909250600585015f5260205f20905f935b601f19841685106107c8576001945083601f198116106107af575b505050811b0160058301556105d4565b01355f19600384901b60f8161c1916905584808061079f565b81810135835560209485019460019093019201610784565b909150600585015f5260205f20601f840160051c810160208510610829575b90849392915b601f830160051c8201811061081b5750506105a8565b5f8155859450600101610805565b50806107ff565b013590508480610554565b909250600485015f5260205f20905f935b601f1984168510610890576001945083601f19811610610877575b505050811b01600483015561056b565b01355f19600384901b60f8161c19169055848080610867565b8181013583556020948501946001909301920161084c565b909150600485015f5260205f20601f840160051c8101602085106108f1575b90849392915b601f830160051c820181106108e357505061053f565b5f81558594506001016108cd565b50806108c7565b606460405163d647364f60e01b815260206004820152601960248201527f50726f706f73616c2072656620616c72656164792075736564000000000000006044820152fd5b60405163d647364f60e01b815260206004820152601460248201527f4d697373696e672070726f706f73616c207265660000000000000000000000006044820152606490fd5b60246040517f4a0bfec1000000000000000000000000000000000000000000000000000000008152336004820152fd5b606460405163d647364f60e01b815260206004820152601160248201527f5265676973747279206d69736d617463680000000000000000000000000000006044820152fd5b606460405163d647364f60e01b815260206004820152601860248201527f436f6d6d756e697479206e6f7420636f6e6669677572656400000000000000006044820152fd5b506001600160a01b0381511615610269565b610a7391506101a03d6101a011610a79575b610a6b8183611d60565b810190611edb565b81610250565b503d610a61565b6040513d5f823e3d90fd5b3461013a57604036600319011261013a576001600160a01b03610aac611e62565b165f52600860205260405f206024355f52602052602060ff60405f2054166040519015158152f35b3461013a575f36600319011261013a5760205f54604051908152f35b3461013a57604036600319011261013a576024356004355f52600960205260405f2090815481101561013a57610b306001600160a01b0391602093611e78565b9190546040519260031b1c168152f35b3461013a57602036600319011261013a57610b59611e62565b600754906001600160a01b039081831633036109835716908115610b945773ffffffffffffffffffffffffffffffffffffffff191617600755005b60046040517fd92e233d000000000000000000000000000000000000000000000000000000008152fd5b3461013a5760208060031936011261013a576004355f526009815260405f20604051908183825491828152019081925f52845f20905f5b86828210610c53578686610c0b82880383611d60565b60405192839281840190828552518091526040840192915f5b828110610c3357505050500390f35b83516001600160a01b031685528695509381019392810192600101610c24565b83546001600160a01b031685529093019260019283019201610bf5565b3461013a57602036600319011261013a576004355f526002602052602060405f2054604051908152f35b3461013a575f36600319011261013a5760206040516001600160a01b037f0000000000000000000000000000000000000000000000000000000000000000168152f35b3461013a5760031960403682011261013a5767ffffffffffffffff6024351161013a57610260906024353603011261013a57335f52600360205260ff60405f2054161561098357600435151580611305575b156112ec576004355f52600460205260ff60405f205416156112ec57610d596024356004016122be565b6004355f52600160205260405f2063ffffffff80610d7b602435600401611fe4565b1663ffffffff199081845416178355610dbc610d9a6024803501611fe4565b845467ffffffff00000000191660209190911b67ffffffff0000000016178455565b610dca604460243501611fe4565b83546fffffffff000000000000000000000000610deb606460243501611fe4565b60601b1673ffffffff00000000000000000000000000000000610e12608460243501611fe4565b60801b1663ffffffff60a01b610e2c60a460243501611fe4565b60a01b169163ffffffff60c01b610e4760c460243501611fe4565b60c01b169367ffffffffffffffff6bffffffff00000000000000007fffffffff00000000000000000000000000000000000000000000000000000000610e9160e460243501611fe4565b60e01b169760401b16911617171717171783556001830191610eb861010460243501611fe4565b1690825416178155610ed261044161012460243501611fe4565b610144602435013580151580910361013a57815468ff00000000000000006cffffffff000000000000000000610f0d61016460243501611fe4565b60481b169260401b16906cffffffffff000000000000000019161717905561018460243501356002820155600381016101a460243501356001600160a01b03811680910361013a5773ffffffffffffffffffffffffffffffffffffffff198254161790556004810190610f8b6101c460243501602435600401611ff5565b91909267ffffffffffffffff831161075457610fa78154611d0b565b92601f938481116112aa575b505f8482116001146112475781929394955f9261123c575b50508160011b915f199060031b1c19161790555b60058101610ff86101e460243501602435600401611ff5565b909367ffffffffffffffff8211610754576110138354611d0b565b8181116111fa575b505f90821160011461119857819293945f9261118d575b50508160011b915f199060031b1c19161790555b600681016024356102048101359036036022190181121561013a57602435019060048201359167ffffffffffffffff831161013a576024018260051b3603811361013a57680100000000000000008311610754578154838355808410611167575b50905f5260205f205f5b838110611153576007850167ffffffffffffffff6110d461022460243501612028565b168154906fffffffffffffffffffffffffffffffff196fffffffffffffffff000000000000000061110a61024460243501612028565b60401b1692161717905560405133907fc2efa8373f38986cf620c26b56ee4d30dbaecd81243276c3533c0c954de8bb3e600435918061114e602435600401826120b5565b0390a3005b6001906020843594019381840155016110b1565b825f528360205f2091820191015b81811061118257506110a7565b5f8155600101611175565b013590508480611032565b601f19821694835f5260205f20915f5b8781106111e25750836001959697106111c9575b505050811b019055611046565b01355f19600384901b60f8161c191690558480806111bc565b909260206001819286860135815501940191016111a8565b835f5260205f208280850160051c82019260208610611233575b0160051c01905b818110611228575061101b565b5f815560010161121b565b92508192611214565b013590508580610fcb565b601f19821695835f5260205f20915f5b88811061129257508360019596979810611279575b505050811b019055610fdf565b01355f19600384901b60f8161c1916905585808061126c565b90926020600181928686013581550194019101611257565b825f5260205f208580840160051c820192602085106112e3575b0160051c01905b8181106112d85750610fb3565b5f81556001016112cb565b925081926112c4565b6024604051633e8a1e4160e21b81526004356004820152fd5b505f546004351115610d2f565b3461013a57602036600319011261013a57600435335f52600360205260ff60405f2054161561098357801515806113b2575b1561139a57805f52600460205260ff60405f2054161561139a57805f52600460205260405f2060ff19815416905533907f6a695f3885825e54664b734cb3f92b352642b7a4d913d39f61ce3904eaed7c055f80a3005b60249060405190633e8a1e4160e21b82526004820152fd5b505f54811115611344565b3461013a57604036600319011261013a576113d6611e62565b6024356001600160a01b039182600754163303610983578216908115610b9457815f52600860205260405f20815f5260205260ff60405f2054161561141757005b815f52600860205260405f20905f5260205260405f20600160ff19825416179055600960205260405f208054680100000000000000008110156107545761146391600182018155611e78565b909283549160031b92831b921b19161790555f80f35b3461013a57602036600319011261013a576004355f526004602052602060ff60405f2054166040519015158152f35b3461013a57602036600319011261013a575f6102406040516114c981611d43565b8281528260208201528260408201528260608201528260808201528260a08201528260c08201528260e08201528261010082015282610120820152826101408201528261016082015282610180820152826101a082015260606101c082015260606101e08201526060610200820152826102208201520152600435151580611851575b156112ec576004355f52600160205260405f206040519061156c82611d43565b805463ffffffff8116835263ffffffff8160201c16602084015263ffffffff8160401c16604084015263ffffffff8160601c16606084015263ffffffff8160801c16608084015263ffffffff8160a01c1660a084015263ffffffff8160c01c1660c084015260e01c60e083015263ffffffff6001820154818116610100850152818160201c1661012085015260ff8160401c16151561014085015260481c1661016083015260028101546101808301526001600160a01b036003820154166101a083015261163c60048201611d82565b6101c083015261164e60058201611d82565b6101e08301526040518060206006840154918281520190600684015f5260205f20905f5b81811061183b578667ffffffffffffffff60078888611693818a0382611d60565b610200850152015481811661022084015260401c166102408201526040516020815263ffffffff825116602082015263ffffffff602083015116604082015263ffffffff604083015116606082015263ffffffff606083015116608082015263ffffffff60808301511660a082015263ffffffff60a08301511660c082015263ffffffff60c08301511660e082015263ffffffff60e08301511661010082015263ffffffff6101008301511661012082015263ffffffff61012083015116610140820152610140820151151561016082015263ffffffff610160830151166101808201526101808201516101a08201526001600160a01b036101a0830151166101c08201526101c08201516117b761026091826101e0850152610280840190611e24565b906117d66101e085015192601f19938486830301610200870152611e24565b6102008501519284820301610220850152602080845192838152019301905f5b8181106118255750505067ffffffffffffffff6102408582610220879801511682870152015116908301520390f35b82518552602094850194909201916001016117f6565b8254845260209093019260019283019201611672565b505f54600435111561154c565b3461013a575f36600319011261013a5760206001600160a01b0360075416604051908152f35b3461013a57604036600319011261013a57602435600435801515806119dc575b1561139a57811561093d57805f526020600581528260405f20540361199757815f526002815260405f20546001600160a01b039060405190631f061c6960e31b825260048201526101a0908181602481867f0000000000000000000000000000000000000000000000000000000000000000165afa908115610a805784925f9261197a575b5050015116330361098357600590825f526004815260405f20600160ff19825416179055525f60408120557f7ffae721983994812770c99f4f10d1cfc94bc4b5d28b08e6ce84a796fefaa3a75f80a3005b6119909250803d10610a7957610a6b8183611d60565b8680611929565b6064906040519063d647364f60e01b82526004820152601560248201527f50726f706f73616c20726566206d69736d6174636800000000000000000000006044820152fd5b505f548111156118a4565b3461013a57604036600319011261013a57611a00611e62565b6024359081151580920361013a576001600160a01b03908160075416330361098357168015610b9457805f52600360205260405f2060ff1981541660ff84161790556040519182527f6e0f223019887734edb3e629fad26bad6ceeb5108f25ae46e5c762fe264517c160203393a3005b3461013a575f36600319011261013a575f80549060015b82811115611b6e5750611ab2611a9c82611eaf565b91611aaa6040519384611d60565b808352611eaf565b6020928383019291601f19013684375f60015b82811115611b10575050509060405192839281840190828552518091526040840192915f5b828110611af957505050500390f35b835185528695509381019392810192600101611aea565b805f526004865260ff60405f205416611b32575b611b2d90611e8d565b611ac5565b90611b3c81611e8d565b918451821015611b5a578087611b2d9360051b870101529050611b24565b634e487b7160e01b5f52603260045260245ffd5b805f52600460205260ff60405f205416611b91575b611b8c90611e8d565b611a87565b90611b9e611b8c91611e8d565b919050611b83565b3461013a57602036600319011261013a576004355f526005602052602060405f2054604051908152f35b3461013a57602036600319011261013a576004355f52600160205260405f2080549063ffffffff91600182015491611cf3600282015491611ce46001600160a01b0360038301541694611c2560048401611d82565b906007611c3460058601611d82565b9401549667ffffffffffffffff966040519a8b9a610240948281168d528c60208483821c169101528c60408483821c169101528c60608483821c169101528c60808483821c169101528c60a08483821c169101528c60c08483821c1691015260e01c60e08d01528181166101008d0152818160201c166101208d015260ff8160401c1615156101408d015260481c166101608b01526101808a01526101a0890152806101c0890152870190611e24565b908582036101e0870152611e24565b9181811661020085015260401c166102208301520390f35b90600182811c92168015611d39575b6020831014611d2557565b634e487b7160e01b5f52602260045260245ffd5b91607f1691611d1a565b610260810190811067ffffffffffffffff82111761075457604052565b90601f8019910116810190811067ffffffffffffffff82111761075457604052565b9060405191825f8254611d9481611d0b565b908184526020946001916001811690815f14611e025750600114611dc4575b505050611dc292500383611d60565b565b5f90815285812095935091905b818310611dea575050611dc293508201015f8080611db3565b85548884018501529485019487945091830191611dd1565b92505050611dc294925060ff191682840152151560051b8201015f8080611db3565b91908251928382525f5b848110611e4e575050825f602080949584010152601f8019910116010190565b602081830181015184830182015201611e2e565b600435906001600160a01b038216820361013a57565b8054821015611b5a575f5260205f2001905f90565b5f198114611e9b5760010190565b634e487b7160e01b5f52601160045260245ffd5b67ffffffffffffffff81116107545760051b60200190565b51906001600160a01b038216820361013a57565b80916101a0928391031261013a5760405191820182811067ffffffffffffffff82111761075457604052611f0e81611ec7565b8252611f1c60208201611ec7565b6020830152611f2d60408201611ec7565b6040830152611f3e60608201611ec7565b6060830152611f4f60808201611ec7565b6080830152611f6060a08201611ec7565b60a0830152611f7160c08201611ec7565b60c0830152611f8260e08201611ec7565b60e0830152610100611f95818301611ec7565b90830152610120611fa7818301611ec7565b90830152610140611fb9818301611ec7565b90830152610160611fcb818301611ec7565b90830152611fdd610180809201611ec7565b9082015290565b3563ffffffff8116810361013a5790565b903590601e198136030182121561013a570180359067ffffffffffffffff821161013a5760200191813603831361013a57565b3567ffffffffffffffff8116810361013a5790565b359063ffffffff8216820361013a57565b9035601e198236030181121561013a57016020813591019167ffffffffffffffff821161013a57813603831361013a57565b908060209392818452848401375f828201840152601f01601f1916010190565b359067ffffffffffffffff8216820361013a57565b60209182825263ffffffff806120ca8361203d565b1684840152806120db85840161203d565b166040840152806120ee6040840161203d565b166060840152806121016060840161203d565b166080840152806121146080840161203d565b1660a08401528061212760a0840161203d565b1660c08401528061213a60c0840161203d565b1660e084015261217461216361215260e0850161203d565b83610100911681870152840161203d565b82610120911681860152830161203d565b8161014091168185015282013580151580910361013a5761219e906101609081860152830161203d565b906101809116818401526101a09082013581840152810135916001600160a01b03831680930361013a576121df612220936101c0908184015283018361204e565b926122076121fe610260936101e0968588880152610280870191612080565b9482018261204e565b959094601f199661020096888784030188880152612080565b93810135601e198236030181121561013a5781019486863596019167ffffffffffffffff9283881161013a578760051b97883603821361013a577f07ffffffffffffffffffffffffffffffffffffffffffffffffffffffffffffff9061022094888a0301858901528089521161013a576122b592886122a4928b8a013782016120a0565b9083610240921682870152016120a0565b16910152010190565b63ffffffff90816122ce82611fe4565b161561259b5760608101826122e282611fe4565b1615612556576080820190836122f783611fe4565b1615612511578361231161230b8293611fe4565b93611fe4565b169116116124a6578161232660a08301611fe4565b1615612461576127108261233c60e08401611fe4565b161161241c576123506101c0820182611ff5565b9050156123b1576101006123649101611fe4565b161561236c57565b606460405163d647364f60e01b815260206004820152601e60248201527f436f6f6c646f776e20706572696f642063616e6e6f74206265207a65726f00006044820152fd5b608460405163d647364f60e01b815260206004820152602160248201527f45766964656e63652073706563204349442063616e6e6f7420626520656d707460448201527f79000000000000000000000000000000000000000000000000000000000000006064820152fd5b606460405163d647364f60e01b815260206004820152601d60248201527f536c61736820726174652063616e6e6f742065786365656420313030250000006044820152fd5b606460405163d647364f60e01b815260206004820152601c60248201527f5665726966792077696e646f772063616e6e6f74206265207a65726f000000006044820152fd5b608460405163d647364f60e01b815260206004820152602760248201527f4d696e696d756d206a75726f72732063616e6e6f74206578636565642070616e60448201527f656c2073697a65000000000000000000000000000000000000000000000000006064820152fd5b606460405163d647364f60e01b815260206004820152601960248201527f50616e656c2073697a652063616e6e6f74206265207a65726f000000000000006044820152fd5b606460405163d647364f60e01b815260206004820152601d60248201527f4d696e696d756d206a75726f72732063616e6e6f74206265207a65726f0000006044820152fd5b608460405163d647364f60e01b815260206004820152602560248201527f4d656d62657273686970546f6b656e207265776172642063616e6e6f7420626560448201527f207a65726f0000000000000000000000000000000000000000000000000000006064820152fdfea264697066735822122003214d0656ec5fe5917c3513d1bf72446e84fc797520cc484639c8d23911eac064736f6c63430008180033","linkReferences":{}},"methodIdentifiers":{"activateFromGovernance(uint256,bytes32)":"408a6802","addFounder(address,uint256)":"8fa906b2","communityByActionId(uint256)":"a2e7b04c","communityFounders(uint256,uint256)":"bcca4854","communityRegistry()":"a200ac86","deactivate(uint256)":"916b9bef","founderWhitelist(address,uint256)":"e148bb48","getActiveValuableActions()":"3bc87c9c","getCommunityFounders(uint256)":"a8db7912","getValuableAction(uint256)":"5cfdb862","governance()":"5aa6e675","isActive(uint256)":"82afd23b","isModerator(address)":"fa6f3936","isValuableActionActive(uint256)":"e9ea801c","lastId()":"c1292cc3","pendingValuableActions(uint256)":"2262fd9d","proposalRefUsed(bytes32)":"ff3a41ab","proposeValuableAction(uint256,(uint32,uint32,uint32,uint32,uint32,uint32,uint32,uint32,uint32,uint32,bool,uint32,uint256,address,string,string,bytes32[],uint64,uint64),bytes32)":"e6573177","setModerator(address,bool)":"3ee2b01d","update(uint256,(uint32,uint32,uint32,uint32,uint32,uint32,uint32,uint32,uint32,uint32,bool,uint32,uint256,address,string,string,bytes32[],uint64,uint64))":"9c2b2bc4","updateGovernance(address)":"b2561263","valuableActionsById(uint256)":"0c5940fd"},"id":18}