{"abi":[{"type":"constructor","inputs":[{"name":"manager","type":"address","internalType":"address"},{"name":"_communityRegistry","type":"address","internalType":"address"},{"name":"initialModerator","type":"address","internalType":"address"}],"stateMutability":"nonpayable"},{"type":"function","name":"activateFromGovernance","inputs":[{"name":"valuableActionId","type":"uint256","internalType":"uint256"},{"name":"proposalRef","type":"bytes32","internalType":"bytes32"}],"outputs":[],"stateMutability":"nonpayable"},{"type":"function","name":"addFounder","inputs":[{"name":"founder","type":"address","internalType":"address"},{"name":"communityId","type":"uint256","internalType":"uint256"}],"outputs":[],"stateMutability":"nonpayable"},{"type":"function","name":"authority","inputs":[],"outputs":[{"name":"","type":"address","internalType":"address"}],"stateMutability":"view"},{"type":"function","name":"closePositionToken","inputs":[{"name":"communityId","type":"uint256","internalType":"uint256"},{"name":"positionTokenId","type":"uint256","internalType":"uint256"},{"name":"outcome","type":"uint8","internalType":"uint8"}],"outputs":[],"stateMutability":"nonpayable"},{"type":"function","name":"communityByActionId","inputs":[{"name":"","type":"uint256","internalType":"uint256"}],"outputs":[{"name":"","type":"uint256","internalType":"uint256"}],"stateMutability":"view"},{"type":"function","name":"communityFounders","inputs":[{"name":"","type":"uint256","internalType":"uint256"},{"name":"","type":"uint256","internalType":"uint256"}],"outputs":[{"name":"","type":"address","internalType":"address"}],"stateMutability":"view"},{"type":"function","name":"communityNarrowingEnabled","inputs":[{"name":"","type":"uint256","internalType":"uint256"}],"outputs":[{"name":"","type":"bool","internalType":"bool"}],"stateMutability":"view"},{"type":"function","name":"communityRegistry","inputs":[],"outputs":[{"name":"","type":"address","internalType":"contract CommunityRegistry"}],"stateMutability":"view"},{"type":"function","name":"deactivate","inputs":[{"name":"id","type":"uint256","internalType":"uint256"}],"outputs":[],"stateMutability":"nonpayable"},{"type":"function","name":"founderWhitelist","inputs":[{"name":"","type":"address","internalType":"address"},{"name":"","type":"uint256","internalType":"uint256"}],"outputs":[{"name":"","type":"bool","internalType":"bool"}],"stateMutability":"view"},{"type":"function","name":"getActiveValuableActions","inputs":[],"outputs":[{"name":"ids","type":"uint256[]","internalType":"uint256[]"}],"stateMutability":"view"},{"type":"function","name":"getCommunityFounders","inputs":[{"name":"communityId","type":"uint256","internalType":"uint256"}],"outputs":[{"name":"founders","type":"address[]","internalType":"address[]"}],"stateMutability":"view"},{"type":"function","name":"getValuableAction","inputs":[{"name":"id","type":"uint256","internalType":"uint256"}],"outputs":[{"name":"action","type":"tuple","internalType":"struct Types.ValuableAction","components":[{"name":"membershipTokenReward","type":"uint32","internalType":"uint32"},{"name":"communityTokenReward","type":"uint32","internalType":"uint32"},{"name":"investorSBTReward","type":"uint32","internalType":"uint32"},{"name":"category","type":"uint8","internalType":"enum Types.ActionCategory"},{"name":"roleTypeId","type":"bytes32","internalType":"bytes32"},{"name":"positionPoints","type":"uint32","internalType":"uint32"},{"name":"verifierPolicy","type":"uint8","internalType":"enum Types.VerifierPolicy"},{"name":"metadataSchemaId","type":"bytes32","internalType":"bytes32"},{"name":"jurorsMin","type":"uint32","internalType":"uint32"},{"name":"panelSize","type":"uint32","internalType":"uint32"},{"name":"verifyWindow","type":"uint32","internalType":"uint32"},{"name":"verifierRewardWeight","type":"uint32","internalType":"uint32"},{"name":"slashVerifierBps","type":"uint32","internalType":"uint32"},{"name":"cooldownPeriod","type":"uint32","internalType":"uint32"},{"name":"maxConcurrent","type":"uint32","internalType":"uint32"},{"name":"revocable","type":"bool","internalType":"bool"},{"name":"evidenceTypes","type":"uint32","internalType":"uint32"},{"name":"proposalThreshold","type":"uint256","internalType":"uint256"},{"name":"proposer","type":"address","internalType":"address"},{"name":"evidenceSpecCID","type":"string","internalType":"string"},{"name":"titleTemplate","type":"string","internalType":"string"},{"name":"automationRules","type":"bytes32[]","internalType":"bytes32[]"},{"name":"activationDelay","type":"uint64","internalType":"uint64"},{"name":"deprecationWarning","type":"uint64","internalType":"uint64"}]}],"stateMutability":"view"},{"type":"function","name":"isActive","inputs":[{"name":"","type":"uint256","internalType":"uint256"}],"outputs":[{"name":"","type":"bool","internalType":"bool"}],"stateMutability":"view"},{"type":"function","name":"isCommunityIssuanceModule","inputs":[{"name":"","type":"uint256","internalType":"uint256"},{"name":"","type":"address","internalType":"address"}],"outputs":[{"name":"","type":"bool","internalType":"bool"}],"stateMutability":"view"},{"type":"function","name":"isConsumingScheduledOp","inputs":[],"outputs":[{"name":"","type":"bytes4","internalType":"bytes4"}],"stateMutability":"view"},{"type":"function","name":"isIssuanceModule","inputs":[{"name":"","type":"address","internalType":"address"}],"outputs":[{"name":"","type":"bool","internalType":"bool"}],"stateMutability":"view"},{"type":"function","name":"isModerator","inputs":[{"name":"","type":"address","internalType":"address"}],"outputs":[{"name":"","type":"bool","internalType":"bool"}],"stateMutability":"view"},{"type":"function","name":"isValuableActionActive","inputs":[{"name":"id","type":"uint256","internalType":"uint256"}],"outputs":[{"name":"","type":"bool","internalType":"bool"}],"stateMutability":"view"},{"type":"function","name":"issuancePaused","inputs":[],"outputs":[{"name":"","type":"bool","internalType":"bool"}],"stateMutability":"view"},{"type":"function","name":"issueEngagement","inputs":[{"name":"communityId","type":"uint256","internalType":"uint256"},{"name":"to","type":"address","internalType":"address"},{"name":"subtype","type":"uint8","internalType":"enum Types.EngagementSubtype"},{"name":"actionTypeId","type":"bytes32","internalType":"bytes32"},{"name":"metadata","type":"bytes","internalType":"bytes"}],"outputs":[{"name":"tokenId","type":"uint256","internalType":"uint256"}],"stateMutability":"nonpayable"},{"type":"function","name":"issueInvestment","inputs":[{"name":"communityId","type":"uint256","internalType":"uint256"},{"name":"to","type":"address","internalType":"address"},{"name":"cohortId","type":"uint256","internalType":"uint256"},{"name":"weight","type":"uint32","internalType":"uint32"},{"name":"metadata","type":"bytes","internalType":"bytes"}],"outputs":[{"name":"tokenId","type":"uint256","internalType":"uint256"}],"stateMutability":"nonpayable"},{"type":"function","name":"issuePosition","inputs":[{"name":"communityId","type":"uint256","internalType":"uint256"},{"name":"to","type":"address","internalType":"address"},{"name":"positionTypeId","type":"bytes32","internalType":"bytes32"},{"name":"points","type":"uint32","internalType":"uint32"},{"name":"metadata","type":"bytes","internalType":"bytes"}],"outputs":[{"name":"tokenId","type":"uint256","internalType":"uint256"}],"stateMutability":"nonpayable"},{"type":"function","name":"issueRoleFromPosition","inputs":[{"name":"communityId","type":"uint256","internalType":"uint256"},{"name":"to","type":"address","internalType":"address"},{"name":"roleTypeId","type":"bytes32","internalType":"bytes32"},{"name":"points","type":"uint32","internalType":"uint32"},{"name":"issuedAt","type":"uint64","internalType":"uint64"},{"name":"endedAt","type":"uint64","internalType":"uint64"},{"name":"closeOutcome","type":"uint8","internalType":"uint8"},{"name":"metadata","type":"bytes","internalType":"bytes"}],"outputs":[{"name":"tokenId","type":"uint256","internalType":"uint256"}],"stateMutability":"nonpayable"},{"type":"function","name":"lastId","inputs":[],"outputs":[{"name":"","type":"uint256","internalType":"uint256"}],"stateMutability":"view"},{"type":"function","name":"pendingValuableActions","inputs":[{"name":"","type":"uint256","internalType":"uint256"}],"outputs":[{"name":"","type":"bytes32","internalType":"bytes32"}],"stateMutability":"view"},{"type":"function","name":"proposalRefUsed","inputs":[{"name":"","type":"bytes32","internalType":"bytes32"}],"outputs":[{"name":"","type":"bool","internalType":"bool"}],"stateMutability":"view"},{"type":"function","name":"proposeValuableAction","inputs":[{"name":"communityId","type":"uint256","internalType":"uint256"},{"name":"params","type":"tuple","internalType":"struct Types.ValuableAction","components":[{"name":"membershipTokenReward","type":"uint32","internalType":"uint32"},{"name":"communityTokenReward","type":"uint32","internalType":"uint32"},{"name":"investorSBTReward","type":"uint32","internalType":"uint32"},{"name":"category","type":"uint8","internalType":"enum Types.ActionCategory"},{"name":"roleTypeId","type":"bytes32","internalType":"bytes32"},{"name":"positionPoints","type":"uint32","internalType":"uint32"},{"name":"verifierPolicy","type":"uint8","internalType":"enum Types.VerifierPolicy"},{"name":"metadataSchemaId","type":"bytes32","internalType":"bytes32"},{"name":"jurorsMin","type":"uint32","internalType":"uint32"},{"name":"panelSize","type":"uint32","internalType":"uint32"},{"name":"verifyWindow","type":"uint32","internalType":"uint32"},{"name":"verifierRewardWeight","type":"uint32","internalType":"uint32"},{"name":"slashVerifierBps","type":"uint32","internalType":"uint32"},{"name":"cooldownPeriod","type":"uint32","internalType":"uint32"},{"name":"maxConcurrent","type":"uint32","internalType":"uint32"},{"name":"revocable","type":"bool","internalType":"bool"},{"name":"evidenceTypes","type":"uint32","internalType":"uint32"},{"name":"proposalThreshold","type":"uint256","internalType":"uint256"},{"name":"proposer","type":"address","internalType":"address"},{"name":"evidenceSpecCID","type":"string","internalType":"string"},{"name":"titleTemplate","type":"string","internalType":"string"},{"name":"automationRules","type":"bytes32[]","internalType":"bytes32[]"},{"name":"activationDelay","type":"uint64","internalType":"uint64"},{"name":"deprecationWarning","type":"uint64","internalType":"uint64"}]},{"name":"proposalRef","type":"bytes32","internalType":"bytes32"}],"outputs":[{"name":"valuableActionId","type":"uint256","internalType":"uint256"}],"stateMutability":"payable"},{"type":"function","name":"setAuthority","inputs":[{"name":"newAuthority","type":"address","internalType":"address"}],"outputs":[],"stateMutability":"nonpayable"},{"type":"function","name":"setCommunityIssuanceModule","inputs":[{"name":"communityId","type":"uint256","internalType":"uint256"},{"name":"module","type":"address","internalType":"address"},{"name":"allowed","type":"bool","internalType":"bool"}],"outputs":[],"stateMutability":"nonpayable"},{"type":"function","name":"setCommunityNarrowing","inputs":[{"name":"communityId","type":"uint256","internalType":"uint256"},{"name":"enabled","type":"bool","internalType":"bool"}],"outputs":[],"stateMutability":"nonpayable"},{"type":"function","name":"setIssuanceModule","inputs":[{"name":"module","type":"address","internalType":"address"},{"name":"allowed","type":"bool","internalType":"bool"}],"outputs":[],"stateMutability":"nonpayable"},{"type":"function","name":"setIssuancePaused","inputs":[{"name":"paused","type":"bool","internalType":"bool"}],"outputs":[],"stateMutability":"nonpayable"},{"type":"function","name":"setModerator","inputs":[{"name":"who","type":"address","internalType":"address"},{"name":"status","type":"bool","internalType":"bool"}],"outputs":[],"stateMutability":"nonpayable"},{"type":"function","name":"setValuableActionSBT","inputs":[{"name":"sbt","type":"address","internalType":"address"}],"outputs":[],"stateMutability":"nonpayable"},{"type":"function","name":"update","inputs":[{"name":"id","type":"uint256","internalType":"uint256"},{"name":"params","type":"tuple","internalType":"struct Types.ValuableAction","components":[{"name":"membershipTokenReward","type":"uint32","internalType":"uint32"},{"name":"communityTokenReward","type":"uint32","internalType":"uint32"},{"name":"investorSBTReward","type":"uint32","internalType":"uint32"},{"name":"category","type":"uint8","internalType":"enum Types.ActionCategory"},{"name":"roleTypeId","type":"bytes32","internalType":"bytes32"},{"name":"positionPoints","type":"uint32","internalType":"uint32"},{"name":"verifierPolicy","type":"uint8","internalType":"enum Types.VerifierPolicy"},{"name":"metadataSchemaId","type":"bytes32","internalType":"bytes32"},{"name":"jurorsMin","type":"uint32","internalType":"uint32"},{"name":"panelSize","type":"uint32","internalType":"uint32"},{"name":"verifyWindow","type":"uint32","internalType":"uint32"},{"name":"verifierRewardWeight","type":"uint32","internalType":"uint32"},{"name":"slashVerifierBps","type":"uint32","internalType":"uint32"},{"name":"cooldownPeriod","type":"uint32","internalType":"uint32"},{"name":"maxConcurrent","type":"uint32","internalType":"uint32"},{"name":"revocable","type":"bool","internalType":"bool"},{"name":"evidenceTypes","type":"uint32","internalType":"uint32"},{"name":"proposalThreshold","type":"uint256","internalType":"uint256"},{"name":"proposer","type":"address","internalType":"address"},{"name":"evidenceSpecCID","type":"string","internalType":"string"},{"name":"titleTemplate","type":"string","internalType":"string"},{"name":"automationRules","type":"bytes32[]","internalType":"bytes32[]"},{"name":"activationDelay","type":"uint64","internalType":"uint64"},{"name":"deprecationWarning","type":"uint64","internalType":"uint64"}]}],"outputs":[],"stateMutability":"nonpayable"},{"type":"function","name":"valuableActionSBT","inputs":[],"outputs":[{"name":"","type":"address","internalType":"address"}],"stateMutability":"view"},{"type":"function","name":"valuableActionsById","inputs":[{"name":"","type":"uint256","internalType":"uint256"}],"outputs":[{"name":"membershipTokenReward","type":"uint32","internalType":"uint32"},{"name":"communityTokenReward","type":"uint32","internalType":"uint32"},{"name":"investorSBTReward","type":"uint32","internalType":"uint32"},{"name":"category","type":"uint8","internalType":"enum Types.ActionCategory"},{"name":"roleTypeId","type":"bytes32","internalType":"bytes32"},{"name":"positionPoints","type":"uint32","internalType":"uint32"},{"name":"verifierPolicy","type":"uint8","internalType":"enum Types.VerifierPolicy"},{"name":"metadataSchemaId","type":"bytes32","internalType":"bytes32"},{"name":"jurorsMin","type":"uint32","internalType":"uint32"},{"name":"panelSize","type":"uint32","internalType":"uint32"},{"name":"verifyWindow","type":"uint32","internalType":"uint32"},{"name":"verifierRewardWeight","type":"uint32","internalType":"uint32"},{"name":"slashVerifierBps","type":"uint32","internalType":"uint32"},{"name":"cooldownPeriod","type":"uint32","internalType":"uint32"},{"name":"maxConcurrent","type":"uint32","internalType":"uint32"},{"name":"revocable","type":"bool","internalType":"bool"},{"name":"evidenceTypes","type":"uint32","internalType":"uint32"},{"name":"proposalThreshold","type":"uint256","internalType":"uint256"},{"name":"proposer","type":"address","internalType":"address"},{"name":"evidenceSpecCID","type":"string","internalType":"string"},{"name":"titleTemplate","type":"string","internalType":"string"},{"name":"activationDelay","type":"uint64","internalType":"uint64"},{"name":"deprecationWarning","type":"uint64","internalType":"uint64"}],"stateMutability":"view"},{"type":"event","name":"AuthorityUpdated","inputs":[{"name":"authority","type":"address","indexed":false,"internalType":"address"}],"anonymous":false},{"type":"event","name":"EngagementIssued","inputs":[{"name":"to","type":"address","indexed":true,"internalType":"address"},{"name":"tokenId","type":"uint256","indexed":true,"internalType":"uint256"},{"name":"subtype","type":"uint8","indexed":false,"internalType":"enum Types.EngagementSubtype"},{"name":"actionTypeId","type":"bytes32","indexed":true,"internalType":"bytes32"}],"anonymous":false},{"type":"event","name":"InvestmentIssued","inputs":[{"name":"to","type":"address","indexed":true,"internalType":"address"},{"name":"tokenId","type":"uint256","indexed":true,"internalType":"uint256"},{"name":"cohortId","type":"uint256","indexed":true,"internalType":"uint256"},{"name":"weight","type":"uint32","indexed":false,"internalType":"uint32"}],"anonymous":false},{"type":"event","name":"ModeratorUpdated","inputs":[{"name":"account","type":"address","indexed":true,"internalType":"address"},{"name":"isModerator","type":"bool","indexed":false,"internalType":"bool"},{"name":"updater","type":"address","indexed":true,"internalType":"address"}],"anonymous":false},{"type":"event","name":"PositionIssued","inputs":[{"name":"to","type":"address","indexed":true,"internalType":"address"},{"name":"tokenId","type":"uint256","indexed":true,"internalType":"uint256"},{"name":"positionTypeId","type":"bytes32","indexed":true,"internalType":"bytes32"},{"name":"points","type":"uint32","indexed":false,"internalType":"uint32"}],"anonymous":false},{"type":"event","name":"RoleIssued","inputs":[{"name":"to","type":"address","indexed":true,"internalType":"address"},{"name":"tokenId","type":"uint256","indexed":true,"internalType":"uint256"},{"name":"roleTypeId","type":"bytes32","indexed":true,"internalType":"bytes32"},{"name":"points","type":"uint32","indexed":false,"internalType":"uint32"},{"name":"issuedAt","type":"uint64","indexed":false,"internalType":"uint64"},{"name":"endedAt","type":"uint64","indexed":false,"internalType":"uint64"},{"name":"closeOutcome","type":"uint8","indexed":false,"internalType":"uint8"}],"anonymous":false},{"type":"event","name":"ValuableActionActivated","inputs":[{"name":"id","type":"uint256","indexed":true,"internalType":"uint256"},{"name":"proposalId","type":"uint256","indexed":true,"internalType":"uint256"}],"anonymous":false},{"type":"event","name":"ValuableActionCreated","inputs":[{"name":"id","type":"uint256","indexed":true,"internalType":"uint256"},{"name":"valuableAction","type":"tuple","indexed":false,"internalType":"struct Types.ValuableAction","components":[{"name":"membershipTokenReward","type":"uint32","internalType":"uint32"},{"name":"communityTokenReward","type":"uint32","internalType":"uint32"},{"name":"investorSBTReward","type":"uint32","internalType":"uint32"},{"name":"category","type":"uint8","internalType":"enum Types.ActionCategory"},{"name":"roleTypeId","type":"bytes32","internalType":"bytes32"},{"name":"positionPoints","type":"uint32","internalType":"uint32"},{"name":"verifierPolicy","type":"uint8","internalType":"enum Types.VerifierPolicy"},{"name":"metadataSchemaId","type":"bytes32","internalType":"bytes32"},{"name":"jurorsMin","type":"uint32","internalType":"uint32"},{"name":"panelSize","type":"uint32","internalType":"uint32"},{"name":"verifyWindow","type":"uint32","internalType":"uint32"},{"name":"verifierRewardWeight","type":"uint32","internalType":"uint32"},{"name":"slashVerifierBps","type":"uint32","internalType":"uint32"},{"name":"cooldownPeriod","type":"uint32","internalType":"uint32"},{"name":"maxConcurrent","type":"uint32","internalType":"uint32"},{"name":"revocable","type":"bool","internalType":"bool"},{"name":"evidenceTypes","type":"uint32","internalType":"uint32"},{"name":"proposalThreshold","type":"uint256","internalType":"uint256"},{"name":"proposer","type":"address","internalType":"address"},{"name":"evidenceSpecCID","type":"string","internalType":"string"},{"name":"titleTemplate","type":"string","internalType":"string"},{"name":"automationRules","type":"bytes32[]","internalType":"bytes32[]"},{"name":"activationDelay","type":"uint64","internalType":"uint64"},{"name":"deprecationWarning","type":"uint64","internalType":"uint64"}]},{"name":"creator","type":"address","indexed":true,"internalType":"address"}],"anonymous":false},{"type":"event","name":"ValuableActionDeactivated","inputs":[{"name":"id","type":"uint256","indexed":true,"internalType":"uint256"},{"name":"deactivator","type":"address","indexed":true,"internalType":"address"}],"anonymous":false},{"type":"event","name":"ValuableActionUpdated","inputs":[{"name":"id","type":"uint256","indexed":true,"internalType":"uint256"},{"name":"valuableAction","type":"tuple","indexed":false,"internalType":"struct Types.ValuableAction","components":[{"name":"membershipTokenReward","type":"uint32","internalType":"uint32"},{"name":"communityTokenReward","type":"uint32","internalType":"uint32"},{"name":"investorSBTReward","type":"uint32","internalType":"uint32"},{"name":"category","type":"uint8","internalType":"enum Types.ActionCategory"},{"name":"roleTypeId","type":"bytes32","internalType":"bytes32"},{"name":"positionPoints","type":"uint32","internalType":"uint32"},{"name":"verifierPolicy","type":"uint8","internalType":"enum Types.VerifierPolicy"},{"name":"metadataSchemaId","type":"bytes32","internalType":"bytes32"},{"name":"jurorsMin","type":"uint32","internalType":"uint32"},{"name":"panelSize","type":"uint32","internalType":"uint32"},{"name":"verifyWindow","type":"uint32","internalType":"uint32"},{"name":"verifierRewardWeight","type":"uint32","internalType":"uint32"},{"name":"slashVerifierBps","type":"uint32","internalType":"uint32"},{"name":"cooldownPeriod","type":"uint32","internalType":"uint32"},{"name":"maxConcurrent","type":"uint32","internalType":"uint32"},{"name":"revocable","type":"bool","internalType":"bool"},{"name":"evidenceTypes","type":"uint32","internalType":"uint32"},{"name":"proposalThreshold","type":"uint256","internalType":"uint256"},{"name":"proposer","type":"address","internalType":"address"},{"name":"evidenceSpecCID","type":"string","internalType":"string"},{"name":"titleTemplate","type":"string","internalType":"string"},{"name":"automationRules","type":"bytes32[]","internalType":"bytes32[]"},{"name":"activationDelay","type":"uint64","internalType":"uint64"},{"name":"deprecationWarning","type":"uint64","internalType":"uint64"}]},{"name":"updater","type":"address","indexed":true,"internalType":"address"}],"anonymous":false},{"type":"error","name":"AccessManagedInvalidAuthority","inputs":[{"name":"authority","type":"address","internalType":"address"}]},{"type":"error","name":"AccessManagedRequiredDelay","inputs":[{"name":"caller","type":"address","internalType":"address"},{"name":"delay","type":"uint32","internalType":"uint32"}]},{"type":"error","name":"AccessManagedUnauthorized","inputs":[{"name":"caller","type":"address","internalType":"address"}]},{"type":"error","name":"InvalidInput","inputs":[{"name":"reason","type":"string","internalType":"string"}]},{"type":"error","name":"InvalidValuableAction","inputs":[{"name":"valuableActionId","type":"uint256","internalType":"uint256"}]},{"type":"error","name":"NotAuthorized","inputs":[{"name":"caller","type":"address","internalType":"address"}]},{"type":"error","name":"ZeroAddress","inputs":[]}],"bytecode":{"object":"0x60a0346200015757601f620040d338819003918201601f191683019291906001600160401b038411838510176200015b578160609284926040968752833981010312620001575762000051816200016f565b6200006c8362000064602085016200016f565b93016200016f565b5f80546001600160a01b0319166001600160a01b0393841690811790915584518181529193917f2f658b440c35314f52658ea8a740e05b284cdc84dc9ae01e891f21b8933e7cad90602090a115620001465781169182156200014657169081156200013557608052805f526004602052815f20600160ff19825416179055815190600182527f6e0f223019887734edb3e629fad26bad6ceeb5108f25ae46e5c762fe264517c160203393a351613f4e90816200018582396080518181816112a50152611db30152f35b825163d92e233d60e01b8152600490fd5b835163d92e233d60e01b8152600490fd5b5f80fd5b634e487b7160e01b5f52604160045260245ffd5b51906001600160a01b0382168203620001575756fe60806040526004361015610011575f80fd5b5f803560e01c8062a79c0b146133b05780630c5940fd146131e657806314f1d4f11461318a5780632262fd9d1461316057806323e5227c14612ebd5780633bc87c9c14612d855780633ee2b01d14612cf9578063408a680214612c1857806347573c2b14612bce5780635cfdb862146127065780635e61baa114611d3b5780636da7a0ba1461164d5780637a9e5e4b146115835780637b8683011461151557806382afd23b146114e65780638fa906b2146114175780638fb36037146113a4578063916b9bef146112f85780639de1e191146112c9578063a200ac8614611286578063a2e7b04c1461125c578063a7ebafff14610fb9578063a8db791214610f07578063a90e069e14610eca578063a9957f5614610b6c578063bcca485414610b1c578063bf7e214f14610af7578063c1292cc314610ada578063c254337114610817578063c691af92146107f5578063c6ffb6cb146107bb578063e148bb4814610772578063e890118414610749578063e9ea801c146106f6578063ee855580146102ce578063fa6f393614610291578063ff012a43146101ec5763ff3a41ab146101bb575f80fd5b346101e95760203660031901126101e95760ff60406020926004358152600784522054166040519015158152f35b80fd5b50346101e95760203660031901126101e9576102066135a2565b6102103633613a09565b6001600160a01b03811615610267577fffffffffffffffffffffff0000000000000000000000000000000000000000ff74ffffffffffffffffffffffffffffffffffffffff00600b549260081b16911617600b5580f35b60046040517fd92e233d000000000000000000000000000000000000000000000000000000008152fd5b50346101e95760203660031901126101e95760ff60406020926001600160a01b036102ba6135a2565b168152600484522054166040519015158152f35b50346104585760603660031901126104585760043560248035906044359260ff841680940361045857600b549060ff82166106b0576001600160a01b03809260081c16918215610267575f54604080516368fc2b7760e11b81526003600482015233602482015292909183916044918391165afa90811561044d575f91610680575b501561066a57805f52602090600a825260ff60405f2054168061064e575b61063857604051907fb09afec100000000000000000000000000000000000000000000000000000000825285600483015261018080838781885afa92831561044d575f93610528575b5050600382516103c68161355a565b6103cf8161355a565b036104e45782820151036104a057610100015167ffffffffffffffff1661045c5750803b15610458575f928360449260405196879586947f8045303d00000000000000000000000000000000000000000000000000000000865260048601528401525af1801561044d57610441575080f35b61044b9150613459565b005b6040513d5f823e3d90fd5b5f80fd5b6064906017846040519263d647364f60e01b845260048401528201527f506f736974696f6e20616c726561647920636c6f7365640000000000000000006044820152fd5b6064826012866040519263d647364f60e01b845260048401528201527f436f6d6d756e697479206d69736d6174636800000000000000000000000000006044820152fd5b6064836014876040519263d647364f60e01b845260048401528201527f4e6f74206120706f736974696f6e20746f6b656e0000000000000000000000006044820152fd5b908092935081813d8311610631575b6105418183613489565b810103126104585760405191820182811067ffffffffffffffff82111761061e576040528051600581101561045857825283810151848301526040810151604083015260608101516060830152608081015160808301526105a460a0820161364a565b60a08301526105b560c0820161364a565b60c08301526105c660e082016139f4565b60e08301526101006105d98183016139f4565b908301526101206105eb8183016139f4565b90830152610140808201519060ff82168203610458578301526106126101608092016136dc565b90820152905f806103b7565b86634e487b7160e01b5f5260416004525ffd5b503d610537565b83604051634a0bfec160e01b8152336004820152fd5b506009825260405f20335f52825260ff60405f2054161561036e565b82604051634a0bfec160e01b8152336004820152fd5b6106a2915060403d6040116106a9575b61069a8183613489565b81019061365b565b505f610350565b503d610690565b60405163d647364f60e01b815260206004820152600f60248201527f49737375616e63652070617573656400000000000000000000000000000000006044820152606490fd5b34610458576020366003190112610458576004358015158061073d575b80610726575b6020906040519015158152f35b505f526005602052602060ff60405f205416610719565b50600154811115610713565b34610458575f3660031901126104585760206001600160a01b03600b5460081c16604051908152f35b34610458576040366003190112610458576001600160a01b036107936135a2565b165f52600c60205260405f206024355f52602052602060ff60405f2054166040519015158152f35b3461045857602036600319011261045857600435801515809103610458576107e33633613a09565b60ff8019600b5416911617600b555f80f35b34610458575f36600319011261045857602060ff600b54166040519015158152f35b346104585760a0366003190112610458576004356108336135b8565b90604435906003821015610458576064359060843567ffffffffffffffff8111610458576108659036906004016135f2565b600b549060ff82166106b0576001600160a01b03809260081c16918215610267575f54604080516368fc2b7760e11b815260036004820152336024820152918290604490829086165afa90811561044d575f91610aba575b5015610a8757845f52602097600a895260ff60405f20541680610a9e575b610a87578515610a4157169384156102675785156109fc579161095993915f8994604051968795869485937f5788879a0000000000000000000000000000000000000000000000000000000085528b600486015260248501526109428d60448601906139e7565b8b606485015260a0608485015260a4840191613682565b03925af193841561044d5785915f956109a9575b508492917f01f44671cf0417f4d6b97178acbc6099efd02021ba154faf174f81a738331e88916109a060405180926139e7565ba4604051908152f35b9450919084813d81116109f5575b6109c18183613489565b81010312610458579251929084907f01f44671cf0417f4d6b97178acbc6099efd02021ba154faf174f81a738331e8861096d565b503d6109b7565b6064886040519063d647364f60e01b82526004820152601460248201527f4d697373696e6720616374696f6e5479706549640000000000000000000000006044820152fd5b60405163d647364f60e01b815260206004820152601360248201527f496e76616c696420636f6d6d756e6974794964000000000000000000000000006044820152606490fd5b6024604051634a0bfec160e01b8152336004820152fd5b506009895260405f20335f52895260ff60405f205416156108db565b610ad3915060403d6040116106a95761069a8183613489565b50896108bd565b34610458575f366003190112610458576020600154604051908152f35b34610458575f3660031901126104585760206001600160a01b035f5416604051908152f35b34610458576040366003190112610458576024356004355f52600d60205260405f2090815481101561045857610b5c6001600160a01b0391602093613635565b9190546040519260031b1c168152f35b346104585761010036600319011261045857610b866135b8565b610b8e6135ce565b9060843567ffffffffffffffff80821682036104585760a4359080821682036104585760c4359160ff831683036104585760e43582811161045857610bd79036906004016135f2565b949095600b549060ff82166106b0576001600160a01b038260081c1615610267575f54604080516368fc2b7760e11b81526003600482015233602482015291829060449082906001600160a01b03165afa90811561044d575f91610eaa575b5015610a87576004355f52600a60205260ff60405f20541680610e8c575b610a875760043515610a41576001600160a01b03169788156102675760443515610e475784831615610e025784831685851610610dbd57604051809881927fff80afd20000000000000000000000000000000000000000000000000000000083528b60048401526004356024840152604435604484015263ffffffff1698896064840152878616608484015287871660a484015260ff891660c484015260e483016101009052610104830190610d0992613682565b039160081c6001600160a01b031691815a6020945f91f195861561044d575f96610d81575b50928260ff9260209894889660405198895216898801521660408601521660608401527fe445780dcbd2ad8cc945215ffea2169bd0e452d2f0add6782ce444797b2ee9cb608060443594a4604051908152f35b96929550926020873d602011610db5575b81610d9f60209383613489565b8101031261045857955191959194919282610d2e565b3d9150610d92565b606460405163d647364f60e01b815260206004820152601760248201527f656e6465644174206265666f72652069737375656441740000000000000000006044820152fd5b606460405163d647364f60e01b815260206004820152601060248201527f4d697373696e67206973737565644174000000000000000000000000000000006044820152fd5b606460405163d647364f60e01b815260206004820152601260248201527f4d697373696e6720726f6c6554797065496400000000000000000000000000006044820152fd5b50600960205260405f20335f5260205260ff60405f20541615610c54565b610ec3915060403d6040116106a95761069a8183613489565b508a610c36565b34610458576020366003190112610458576001600160a01b03610eeb6135a2565b165f526008602052602060ff60405f2054166040519015158152f35b3461045857602080600319360112610458576004355f52600d815260405f20604051908183825491828152019081925f52845f20905f5b86828210610f9c578686610f5482880383613489565b60405192839281840190828552518091526040840192915f5b828110610f7c57505050500390f35b83516001600160a01b031685528695509381019392810192600101610f6d565b83546001600160a01b031685529093019260019283019201610f3e565b346104585760a036600319011261045857600435610fd56135b8565b90604435610fe16135ce565b60843567ffffffffffffffff8111610458576110019036906004016135f2565b600b549060ff82166106b0576001600160a01b03809260081c16918215610267575f54604080516368fc2b7760e11b815260036004820152336024820152918290604490829086165afa90811561044d575f9161123c575b5015610a8757865f52602097600a895260ff60405f20541680611220575b610a87578715610a4157169384156102675785156111db5763ffffffff1695861561119657916110fa93915f8994604051968795869485937f5514e6990000000000000000000000000000000000000000000000000000000085528b600486015260248501528b60448501528c606485015260a0608485015260a4840191613682565b03925af193841561044d5785915f95611143575b508492917f554dfed9e991f9e5ac3172a909c508958a35fc35bb05650bd8952f2a5db6c6e091604051908152a4604051908152f35b9450919084813d811161118f575b61115b8183613489565b81010312610458579251929084907f554dfed9e991f9e5ac3172a909c508958a35fc35bb05650bd8952f2a5db6c6e061110e565b503d611151565b6064886040519063d647364f60e01b82526004820152601560248201527f506f696e74732063616e6e6f74206265207a65726f00000000000000000000006044820152fd5b6064886040519063d647364f60e01b82526004820152601660248201527f4d697373696e6720706f736974696f6e547970654964000000000000000000006044820152fd5b506009895260405f20335f52895260ff60405f20541615611077565b611255915060403d6040116106a95761069a8183613489565b5089611059565b34610458576020366003190112610458576004355f526003602052602060405f2054604051908152f35b34610458575f3660031901126104585760206040516001600160a01b037f0000000000000000000000000000000000000000000000000000000000000000168152f35b34610458576020366003190112610458576004355f52600a602052602060ff60405f2054166040519015158152f35b3461045857602036600319011261045857600435335f52600460205260ff60405f20541615610a875780151580611398575b1561138057805f52600560205260ff60405f2054161561138057805f52600560205260405f2060ff19815416905533907f6a695f3885825e54664b734cb3f92b352642b7a4d913d39f61ce3904eaed7c055f80a3005b60249060405190633e8a1e4160e21b82526004820152fd5b5060015481111561132a565b34610458575f366003190112610458575f5460a01c60ff161561140f5760207f8fb36037000000000000000000000000000000000000000000000000000000005b7fffffffff0000000000000000000000000000000000000000000000000000000060405191168152f35b60205f6113e5565b34610458576040366003190112610458576114306135a2565b60243561143d3633613a09565b6001600160a01b0380921690811561026757815f52600c60205260405f20815f5260205260ff60405f2054161561147057005b815f52600c60205260405f20905f5260205260405f20600160ff19825416179055600d60205260405f208054680100000000000000008110156114d2576114bc91600182018155613635565b909283549160031b92831b921b19161790555f80f35b634e487b7160e01b5f52604160045260245ffd5b34610458576020366003190112610458576004355f526005602052602060ff60405f2054166040519015158152f35b346104585760603660031901126104585761152e6135b8565b604435908115158203610458576001600160a01b039061154e3633613a09565b169081156102675761044b916004355f52600960205260405f20905f5260205260405f209060ff801983541691151516179055565b346104585760203660031901126104585761159c6135a2565b5f54906001600160a01b0390818316330361163757803b15611605577f2f658b440c35314f52658ea8a740e05b284cdc84dc9ae01e891f21b8933e7cad9260209273ffffffffffffffffffffffffffffffffffffffff19921691829116175f55604051908152a1005b602491604051917fc2f31e5e000000000000000000000000000000000000000000000000000000008352166004820152fd5b602460405162d1953b60e31b8152336004820152fd5b3461045857600319604036820112610458576004356024803567ffffffffffffffff918282116104585781600401946103008336039182011261045857335f526020916004835260ff60405f20541615611d265785151580611d1a575b15611d0457855f5260059182845260ff60405f20541615611ced576116ce88613bcc565b865f526002845260405f209363ffffffff93846116ea8b6136f0565b169463ffffffff19958688541617875561172a611708868a016136f0565b885467ffffffff00000000191660209190911b67ffffffff0000000016178855565b61176361173960448a016136f0565b88546bffffffff0000000000000000191660409190911b6bffffffff000000000000000016178855565b606488013560048110156104585760ff60601b88549160601b169060ff60601b191617875560019560848901358789015560028801826117a560a48c016136f0565b1681549060c48c01358681101561045857806117c664ff000000009261355a565b881b169164ffffffffff19161717905560e4890135600389015560048801826117f26101048c016136f0565b168282541617815561182c61180a6101248c016136f0565b825467ffffffff00000000191660209190911b67ffffffff0000000016178255565b61186661183c6101448c016136f0565b82546bffffffff0000000000000000191660409190911b6bffffffff000000000000000016178255565b6118736101648b016136f0565b8a825473ffffffff0000000000000000000000000000000061189861018484016136f0565b60801b1663ffffffff60a01b6118b16101a485016136f0565b60a01b16916101e463ffffffff60c01b6118ce6101c487016136f0565b60c01b16940135801515809103610458576fffffffff00000000000000000000000060ff60e01b7fffffff0000000000000000000000000000000000ffffffffffffffffffffffff9260e01b169660601b169116171717171790558288019161193a6102048b016136f0565b16908254161790556102248701356006870155600786016102448801356001600160a01b0381168091036104585773ffffffffffffffffffffffffffffffffffffffff198254161790556008860161199661026489018c613701565b8a819392931161061e57806119ab8354613404565b93601f94858111611ca1575b505f90858311600114611c42575f92611c37575b50505f19600383901b1c191690881b1790555b60098701906119f16102848a018d613701565b91908b8311611c2457908291611a078554613404565b828111611bd6575b505f918311600114611b77575f92611b6c575b50505f19600383901b1c191690871b1790555b600a8601926102a48801359060221901811215610458578701936004850135948986116104585781869101921b3603821361045857680100000000000000008511611b5a57508254848455808510611b33575b50915f52805f20905f5b848110611b2257505050505050600b0191611ab06102c48301613734565b166fffffffffffffffffffffffffffffffff196fffffffffffffffff0000000000000000611ae36102e486549501613734565b60401b169216171790557f493172a5da918afdb4e470aad2ba421ac5dd8393bcd81aff0c9ccc69f619099660405180611b1d33958261377b565b0390a3005b833583820155928101928501611a92565b835f528585845f2092830192015b828110611b4f575050611a88565b5f8155018690611b41565b634e487b7160e01b5f5260416004525ffd5b013590508d80611a22565b899350601f19831691855f52875f20925f5b89828210611bc05750508411611ba7575b505050811b019055611a35565b01355f19600384901b60f8161c191690558d8080611b9a565b8385013586558d97909501949283019201611b89565b90919250845f52865f2083808601881c820192898710611c1b575b9186958d9295949301891c01915b828110611c0d575050611a0f565b5f81558695508c9101611bff565b92508192611bf1565b87634e487b7160e01b5f5260416004525ffd5b013590508e806119cb565b8a9350601f19831691855f52885f20925f5b8a828210611c8b5750508411611c72575b505050811b0190556119de565b01355f19600384901b60f8161c191690558e8080611c65565b8385013586558e97909501949283019201611c54565b909150835f52865f2085808501881c820192898610611ce4575b918c918695949301891c01915b828110611cd65750506119b7565b5f81558594508c9101611cc8565b92508192611cbb565b508560405190633e8a1e4160e21b82526004820152fd5b8560405190633e8a1e4160e21b82526004820152fd5b506001548611156116aa565b604051634a0bfec160e01b8152336004820152fd5b6003196060368201126104585767ffffffffffffffff6024351161045857610300906024353603011261045857611d723633613a09565b6001600160a01b036040517ff830e34800000000000000000000000000000000000000000000000000000000815260043560048201526101c08082602481867f0000000000000000000000000000000000000000000000000000000000000000165afa91821561044d575f926125ce575b5050816020820151161580156125c3575b61257e5760a001518116300361253957604435156124f3576044355f52600760205260ff60405f2054166124ae57611e30602435600401613bcc565b611e3b6001546136a2565b80600155805f52600260205260405f209163ffffffff80611e606024356004016136f0565b1663ffffffff199081865416178555611ea1611e7f60248035016136f0565b865467ffffffff00000000191660209190911b67ffffffff0000000016178655565b611edc611eb26044602435016136f0565b86546bffffffff0000000000000000191660409190911b6bffffffff000000000000000016178655565b6064602435013560048110156104585760ff60601b86549160601b169060ff60601b19161785556084602435013560018601556002850182611f2260a4602435016136f0565b1681549060c4602435013560058110156104585780611f4664ff000000009261355a565b60201b169164ffffffffff19161717905560e4602435013560038601556004850182611f77610104602435016136f0565b1682825416178155611f9161180a610124602435016136f0565b611fa361183c610144602435016136f0565b611fb2610164602435016136f0565b815473ffffffff00000000000000000000000000000000611fd8610184602435016136f0565b60801b1663ffffffff60a01b611ff36101a4602435016136f0565b60a01b169063ffffffff60c01b61200f6101c4602435016136f0565b60c01b16926101e46024350135801515809103610458576fffffffff00000000000000000000000060ff60e01b7fffffff0000000000000000000000000000000000ffffffffffffffffffffffff9260e01b169660601b169116171717171790556005850191612084610204602435016136f0565b169082541617905561022460243501356006840155600783019061024460243501359081168091036104585773ffffffffffffffffffffffffffffffffffffffff198254161790556120e161026460243501602435600401613701565b9067ffffffffffffffff82116114d25781906121006008860154613404565b601f811161245e575b505f90601f83116001146123f1575f926123e6575b50508160011b915f199060031b1c19161760088301555b61214a61028460243501602435600401613701565b9067ffffffffffffffff82116114d25781906121696009860154613404565b601f8111612396575b505f90601f8311600114612329575f9261231e575b50508160011b915f199060031b1c19161760098301555b600a8201916024356102a481013590360360221901811215610458576024350160048101359067ffffffffffffffff8211610458576024018160051b36038113610458576801000000000000000082116114d25784548286558083106122f8575b50935f5260205f205f5b8281106122e457602085600b860167ffffffffffffffff61222f6102c460243501613734565b168154906fffffffffffffffffffffffffffffffff196fffffffffffffffff00000000000000006122656102e460243501613734565b60401b16921617179055805f526003825260043560405f20556006825260443560405f20556044355f526007825260405f20600160ff19825416179055604051817f0215c6902787bce369520b2032915a714819e29cd4230ff91ab746ae8752947d3392806122d96024356004018261377b565b0390a3604051908152f35b600190602087359701968184015501612209565b855f528260205f2091820191015b81811061231357506121ff565b5f8155600101612306565b013590508480612187565b909250600985015f5260205f20905f935b601f198416851061237e576001945083601f19811610612365575b505050811b01600983015561219e565b01355f19600384901b60f8161c19169055848080612355565b8181013583556020948501946001909301920161233a565b909150600985015f5260205f20601f840160051c8101602085106123df575b90849392915b601f830160051c820181106123d1575050612172565b5f81558594506001016123bb565b50806123b5565b01359050848061211e565b909250600885015f5260205f20905f935b601f1984168510612446576001945083601f1981161061242d575b505050811b016008830155612135565b01355f19600384901b60f8161c1916905584808061241d565b81810135835560209485019460019093019201612402565b909150600885015f5260205f20601f840160051c8101602085106124a7575b90849392915b601f830160051c82018110612499575050612109565b5f8155859450600101612483565b508061247d565b606460405163d647364f60e01b815260206004820152601960248201527f50726f706f73616c2072656620616c72656164792075736564000000000000006044820152fd5b60405163d647364f60e01b815260206004820152601460248201527f4d697373696e672070726f706f73616c207265660000000000000000000000006044820152606490fd5b606460405163d647364f60e01b815260206004820152601160248201527f5265676973747279206d69736d617463680000000000000000000000000000006044820152fd5b606460405163d647364f60e01b815260206004820152601860248201527f436f6d6d756e697479206e6f7420636f6e6669677572656400000000000000006044820152fd5b508181511615611df4565b9080925081813d83116126ff575b6125e68183613489565b810103126104585760405191820182811067ffffffffffffffff8211176114d257604052612613816136dc565b8252612621602082016136dc565b6020830152612632604082016136dc565b6040830152612643606082016136dc565b6060830152612654608082016136dc565b608083015261266560a082016136dc565b60a083015261267660c082016136dc565b60c083015261268760e082016136dc565b60e083015261010061269a8183016136dc565b908301526101206126ac8183016136dc565b908301526101406126be8183016136dc565b908301526101606126d08183016136dc565b908301526101806126e28183016136dc565b908301526126f46101a08092016136dc565b908201528280611de3565b503d6125dc565b34610458576020366003190112610458575f6102e06040516127278161343c565b8281528260208201528260408201528260608201528260808201528260a08201528260c08201528260e08201528261010082015282610120820152826101408201528261016082015282610180820152826101a0820152826101c0820152826101e08201528261020082015282610220820152826102408201526060610260820152606061028082015260606102a0820152826102c08201520152600435151580612bc0575b15612ba7576004355f52600260205260405f20604051906127ed8261343c565b805463ffffffff8116835263ffffffff8160201c16602084015263ffffffff8160401c166040840152600460ff8260601c161015612b935760ff9060601c1660608301526001810154608083015260ff600282015463ffffffff811660a085015261285c828260201c1661355a565b60201c1660c0830152600381015460e083015260ff600482015463ffffffff811661010085015263ffffffff8160201c1661012085015263ffffffff8160401c1661014085015263ffffffff8160601c1661016085015263ffffffff8160801c1661018085015263ffffffff8160a01c166101a085015263ffffffff8160c01c166101c085015260e01c1615156101e083015263ffffffff60058201541661020083015260068101546102208301526001600160a01b0360078201541661024083015261292b600882016134ab565b61026083015261293d600982016134ab565b610280830152604051806020600a840154918281520190600a84015f5260205f20905f5b818110612b7d578667ffffffffffffffff600b8888612982818a0382613489565b6102a085015201548181166102c084015260401c166102e08201526040516020815263ffffffff825116602082015263ffffffff602083015116604082015263ffffffff60408301511660608201526129e36060830151608083019061354d565b608082015160a082015263ffffffff60a08301511660c082015260c0820151612a0b8161355a565b60e082015260e082015161010082015263ffffffff6101008301511661012082015263ffffffff6101208301511661014082015263ffffffff6101408301511661016082015263ffffffff6101608301511661018082015263ffffffff610180830151166101a082015263ffffffff6101a0830151166101c082015263ffffffff6101c0830151166101e08201526101e0820151151561020082015263ffffffff610200830151166102208201526102208201516102408201526001600160a01b0361024083015116610260820152610260820151612af96103009182610280850152610320840190613564565b90612b1861028085015192601f199384868303016102a0870152613564565b6102a085015192848203016102c0850152602080845192838152019301905f5b818110612b675750505067ffffffffffffffff6102e085826102c0879801511682870152015116908301520390f35b8251855260209485019490920191600101612b38565b8254845260209093019260019283019201612961565b634e487b7160e01b5f52602160045260245ffd5b6024604051633e8a1e4160e21b81526004356004820152fd5b5060015460043511156127cd565b3461045857604036600319011261045857612be76135b8565b6004355f5260096020526001600160a01b0360405f2091165f52602052602060ff60405f2054166040519015158152f35b3461045857604036600319011261045857602435600435612c393633613a09565b80151580612ced575b156113805781156124f357805f5260066020528160405f205403612ca857805f52600560205260405f20600160ff1982541617905560066020525f60408120557f7ffae721983994812770c99f4f10d1cfc94bc4b5d28b08e6ce84a796fefaa3a75f80a3005b606460405163d647364f60e01b815260206004820152601560248201527f50726f706f73616c20726566206d69736d6174636800000000000000000000006044820152fd5b50600154811115612c42565b3461045857604036600319011261045857612d126135a2565b6001600160a01b03612d226133f5565b91612d2d3633613a09565b16801561026757805f526004602052612d558260405f209060ff801983541691151516179055565b60405191151582527f6e0f223019887734edb3e629fad26bad6ceeb5108f25ae46e5c762fe264517c160203393a3005b34610458575f366003190112610458575f600190600154915b82811115612e855750612dc9612db3826136c4565b91612dc16040519384613489565b8083526136c4565b6020928383019291601f19013684375f9060015b81811115612e28575050509060405192839281840190828552518091526040840192915f5b828110612e1157505050500390f35b835185528695509381019392810192600101612e02565b805f5260059081875260ff60405f205416612e4d575b612e4891506136a2565b612ddd565b612e56846136a2565b938551811015612e7157878291612e48941b87010152612e3e565b634e487b7160e01b5f52603260045260245ffd5b805f52600560205260ff60405f205416612ea8575b612ea3906136a2565b612d9e565b90612eb5612ea3916136a2565b919050612e9a565b346104585760a036600319011261045857600435612ed96135b8565b90604435612ee56135ce565b60843567ffffffffffffffff811161045857612f059036906004016135f2565b600b549060ff82166106b0576001600160a01b03809260081c16918215610267575f54604080516368fc2b7760e11b815260036004820152336024820152918290604490829086165afa90811561044d575f91613140575b5015610a8757865f52602097600a895260ff60405f20541680613124575b610a87578715610a4157169384156102675785156130df5763ffffffff1695861561309a5791612ffe93915f8994604051968795869485937f80848b860000000000000000000000000000000000000000000000000000000085528b600486015260248501528b60448501528c606485015260a0608485015260a4840191613682565b03925af193841561044d5785915f95613047575b508492917f7b8043c22ce41e0e1794bd92378dbf37e79f87ac6b347b584e6ef04ee52296ff91604051908152a4604051908152f35b9450919084813d8111613093575b61305f8183613489565b81010312610458579251929084907f7b8043c22ce41e0e1794bd92378dbf37e79f87ac6b347b584e6ef04ee52296ff613012565b503d613055565b6064886040519063d647364f60e01b82526004820152601560248201527f5765696768742063616e6e6f74206265207a65726f00000000000000000000006044820152fd5b6064886040519063d647364f60e01b82526004820152601060248201527f4d697373696e6720636f686f72744964000000000000000000000000000000006044820152fd5b506009895260405f20335f52895260ff60405f20541615612f7b565b613159915060403d6040116106a95761069a8183613489565b5089612f5d565b34610458576020366003190112610458576004355f526006602052602060405f2054604051908152f35b34610458576040366003190112610458576131a36135a2565b6001600160a01b036131b36133f5565b916131be3633613a09565b169081156102675761044b915f52600860205260405f209060ff801983541691151516179055565b34610458576020366003190112610458576004355f52600260205260405f20805460018201549160028101549060038101546004820154600583015463ffffffff1660068401549060078501546001600160a01b0316926008860161324a906134ab565b94613257600988016134ab565b96600b0154976040519a8a63ffffffff8d9c168c528060201c63ffffffff1660208d01528060401c63ffffffff1660408d015260608c019060601c60ff169061329f9161354d565b60808b015263ffffffff811660a08b01528060201c60ff166132c09061355a565b60201c60ff1660c08a015260e089015263ffffffff81166101008901528060201c63ffffffff166101208901528060401c63ffffffff166101408901528060601c63ffffffff166101608901528060801c63ffffffff166101808901528060a01c63ffffffff166101a08901528060c01c63ffffffff166101c089015260e01c60ff1615156101e088015261020087015261022086015261024085015261026084016102e090526102e0840161337591613564565b83810361028085015261338791613564565b9067ffffffffffffffff81166102a084015260401c67ffffffffffffffff166102c08301520390f35b346104585760403660031901126104585761044b6133cc6133f5565b6133d63633613a09565b6004355f52600a60205260405f209060ff801983541691151516179055565b60243590811515820361045857565b90600182811c92168015613432575b602083101461341e57565b634e487b7160e01b5f52602260045260245ffd5b91607f1691613413565b610300810190811067ffffffffffffffff8211176114d257604052565b67ffffffffffffffff81116114d257604052565b60a0810190811067ffffffffffffffff8211176114d257604052565b90601f8019910116810190811067ffffffffffffffff8211176114d257604052565b9060405191825f82546134bd81613404565b908184526020946001916001811690815f1461352b57506001146134ed575b5050506134eb92500383613489565b565b5f90815285812095935091905b8183106135135750506134eb93508201015f80806134dc565b855488840185015294850194879450918301916134fa565b925050506134eb94925060ff191682840152151560051b8201015f80806134dc565b906004821015612b935752565b60051115612b9357565b91908251928382525f5b84811061358e575050825f602080949584010152601f8019910116010190565b60208183018101518483018201520161356e565b600435906001600160a01b038216820361045857565b602435906001600160a01b038216820361045857565b6064359063ffffffff8216820361045857565b359063ffffffff8216820361045857565b9181601f840112156104585782359167ffffffffffffffff8311610458576020838186019501011161045857565b359067ffffffffffffffff8216820361045857565b8054821015612e71575f5260205f2001905f90565b519063ffffffff8216820361045857565b9190826040910312610458578151801515810361045857602061367f91930161364a565b90565b908060209392818452848401375f828201840152601f01601f1916010190565b5f1981146136b05760010190565b634e487b7160e01b5f52601160045260245ffd5b67ffffffffffffffff81116114d25760051b60200190565b51906001600160a01b038216820361045857565b3563ffffffff811681036104585790565b903590601e1981360301821215610458570180359067ffffffffffffffff82116104585760200191813603831361045857565b3567ffffffffffffffff811681036104585790565b9035601e198236030181121561045857016020813591019167ffffffffffffffff821161045857813603831361045857565b60209182825263ffffffff80613790836135e1565b1684840152806137a18584016135e1565b166040840152806137b4604084016135e1565b16606084015260608201356004811015610458576137d690608085019061354d565b608082013560a0840152806137ed60a084016135e1565b1660c084015260c082013560058110156104585761380a8161355a565b60e084015261389d61388c61387b61386a61385961384861383761010060e08a0135818c015289016135e1565b876101209116818b015288016135e1565b866101409116818a015287016135e1565b8561016091168189015286016135e1565b8461018091168188015285016135e1565b836101a091168187015284016135e1565b826101c091168186015283016135e1565b816101e0911681850152820135801515809103610458576138c790610200908186015283016135e1565b906102209116818401526102409082013581840152810135916001600160a01b03831680930361045857613908613949936102609081840152830183613749565b9261393061392761030093610280968588880152610320870191613682565b94820182613749565b959094601f19966102a096888784030188880152613682565b93810135601e19823603018112156104585781019486863596019167ffffffffffffffff92838811610458578760051b978836038213610458577f07ffffffffffffffffffffffffffffffffffffffffffffffffffffffffffffff906102c094888a03018589015280895211610458576139de92886139cd928b8a01378201613620565b90836102e092168287015201613620565b16910152010190565b906003821015612b935752565b519067ffffffffffffffff8216820361045857565b5f915f54916001600160a01b038084169280600411610458575f92838491604095869182519660208801917fb700961300000000000000000000000000000000000000000000000000000000835216968760248201523060448201527fffffffff00000000000000000000000000000000000000000000000000000000833516606482015260648152613a9b8161346d565b828052826020525190895afa613bb9575b15613abb575b50505050505050565b63ffffffff1615613ba357740100000000000000000000000000000000000000007fffffffffffffffffffffff00ffffffffffffffffffffffffffffffffffffffff809616175f55833b15610458576064935f928385519687809581947f94c7d7ee00000000000000000000000000000000000000000000000000000000835260048301528860248301528060448301528084848401378181018301849052601f01601f191681010301925af1908115613b9a5750613b87575b5081541690555f808080808080613ab2565b613b92919250613459565b5f905f613b75565b513d5f823e3d90fd5b50602491519062d1953b60e31b82526004820152fd5b50505f516020518060201c150290613aac565b63ffffffff9081613bdc826136f0565b1615613ead57610100810182613bf1826136f0565b1615613e685761012082019083613c07836136f0565b1615613e235783613c21613c1b82936136f0565b936136f0565b16911611613db85781613c3761014083016136f0565b1615613d735761271082613c4e61018084016136f0565b1611613d2e57613c62610260820182613701565b905015613cc3576101a0613c7691016136f0565b1615613c7e57565b606460405163d647364f60e01b815260206004820152601e60248201527f436f6f6c646f776e20706572696f642063616e6e6f74206265207a65726f00006044820152fd5b608460405163d647364f60e01b815260206004820152602160248201527f45766964656e63652073706563204349442063616e6e6f7420626520656d707460448201527f79000000000000000000000000000000000000000000000000000000000000006064820152fd5b606460405163d647364f60e01b815260206004820152601d60248201527f536c61736820726174652063616e6e6f742065786365656420313030250000006044820152fd5b606460405163d647364f60e01b815260206004820152601c60248201527f5665726966792077696e646f772063616e6e6f74206265207a65726f000000006044820152fd5b608460405163d647364f60e01b815260206004820152602760248201527f4d696e696d756d206a75726f72732063616e6e6f74206578636565642070616e60448201527f656c2073697a65000000000000000000000000000000000000000000000000006064820152fd5b606460405163d647364f60e01b815260206004820152601960248201527f50616e656c2073697a652063616e6e6f74206265207a65726f000000000000006044820152fd5b606460405163d647364f60e01b815260206004820152601d60248201527f4d696e696d756d206a75726f72732063616e6e6f74206265207a65726f0000006044820152fd5b608460405163d647364f60e01b815260206004820152602560248201527f4d656d62657273686970546f6b656e207265776172642063616e6e6f7420626560448201527f207a65726f0000000000000000000000000000000000000000000000000000006064820152fdfea2646970667358221220de9fd47822c017679f4eee8a3a320c7362e1c8001842669529c17fd0ea8d478e64736f6c63430008180033","linkReferences":{}},"methodIdentifiers":{"activateFromGovernance(uint256,bytes32)":"408a6802","addFounder(address,uint256)":"8fa906b2","authority()":"bf7e214f","closePositionToken(uint256,uint256,uint8)":"ee855580","communityByActionId(uint256)":"a2e7b04c","communityFounders(uint256,uint256)":"bcca4854","communityNarrowingEnabled(uint256)":"9de1e191","communityRegistry()":"a200ac86","deactivate(uint256)":"916b9bef","founderWhitelist(address,uint256)":"e148bb48","getActiveValuableActions()":"3bc87c9c","getCommunityFounders(uint256)":"a8db7912","getValuableAction(uint256)":"5cfdb862","isActive(uint256)":"82afd23b","isCommunityIssuanceModule(uint256,address)":"47573c2b","isConsumingScheduledOp()":"8fb36037","isIssuanceModule(address)":"a90e069e","isModerator(address)":"fa6f3936","isValuableActionActive(uint256)":"e9ea801c","issuancePaused()":"c691af92","issueEngagement(uint256,address,uint8,bytes32,bytes)":"c2543371","issueInvestment(uint256,address,uint256,uint32,bytes)":"23e5227c","issuePosition(uint256,address,bytes32,uint32,bytes)":"a7ebafff","issueRoleFromPosition(uint256,address,bytes32,uint32,uint64,uint64,uint8,bytes)":"a9957f56","lastId()":"c1292cc3","pendingValuableActions(uint256)":"2262fd9d","proposalRefUsed(bytes32)":"ff3a41ab","proposeValuableAction(uint256,(uint32,uint32,uint32,uint8,bytes32,uint32,uint8,bytes32,uint32,uint32,uint32,uint32,uint32,uint32,uint32,bool,uint32,uint256,address,string,string,bytes32[],uint64,uint64),bytes32)":"5e61baa1","setAuthority(address)":"7a9e5e4b","setCommunityIssuanceModule(uint256,address,bool)":"7b868301","setCommunityNarrowing(uint256,bool)":"00a79c0b","setIssuanceModule(address,bool)":"14f1d4f1","setIssuancePaused(bool)":"c6ffb6cb","setModerator(address,bool)":"3ee2b01d","setValuableActionSBT(address)":"ff012a43","update(uint256,(uint32,uint32,uint32,uint8,bytes32,uint32,uint8,bytes32,uint32,uint32,uint32,uint32,uint32,uint32,uint32,bool,uint32,uint256,address,string,string,bytes32[],uint64,uint64))":"6da7a0ba","valuableActionSBT()":"e8901184","valuableActionsById(uint256)":"0c5940fd"},"id":18}