{"abi":[{"type":"constructor","inputs":[{"name":"manager","type":"address","internalType":"address"},{"name":"_communityRegistry","type":"address","internalType":"address"},{"name":"initialModerator","type":"address","internalType":"address"},{"name":"_communityId","type":"uint256","internalType":"uint256"}],"stateMutability":"nonpayable"},{"type":"function","name":"activateFromGovernance","inputs":[{"name":"valuableActionId","type":"uint256","internalType":"uint256"},{"name":"proposalRef","type":"bytes32","internalType":"bytes32"}],"outputs":[],"stateMutability":"nonpayable"},{"type":"function","name":"addFounder","inputs":[{"name":"founder","type":"address","internalType":"address"}],"outputs":[],"stateMutability":"nonpayable"},{"type":"function","name":"authority","inputs":[],"outputs":[{"name":"","type":"address","internalType":"address"}],"stateMutability":"view"},{"type":"function","name":"closePositionToken","inputs":[{"name":"positionTokenId","type":"uint256","internalType":"uint256"},{"name":"outcome","type":"uint8","internalType":"uint8"}],"outputs":[],"stateMutability":"nonpayable"},{"type":"function","name":"communityByActionId","inputs":[{"name":"valuableActionId","type":"uint256","internalType":"uint256"}],"outputs":[{"name":"","type":"uint256","internalType":"uint256"}],"stateMutability":"view"},{"type":"function","name":"communityId","inputs":[],"outputs":[{"name":"","type":"uint256","internalType":"uint256"}],"stateMutability":"view"},{"type":"function","name":"communityNarrowingEnabled","inputs":[{"name":"","type":"uint256","internalType":"uint256"}],"outputs":[{"name":"","type":"bool","internalType":"bool"}],"stateMutability":"view"},{"type":"function","name":"communityRegistry","inputs":[],"outputs":[{"name":"","type":"address","internalType":"contract CommunityRegistry"}],"stateMutability":"view"},{"type":"function","name":"deactivate","inputs":[{"name":"id","type":"uint256","internalType":"uint256"}],"outputs":[],"stateMutability":"nonpayable"},{"type":"function","name":"founderWhitelist","inputs":[{"name":"founder","type":"address","internalType":"address"},{"name":"","type":"uint256","internalType":"uint256"}],"outputs":[{"name":"","type":"bool","internalType":"bool"}],"stateMutability":"view"},{"type":"function","name":"getActiveValuableActions","inputs":[],"outputs":[{"name":"ids","type":"uint256[]","internalType":"uint256[]"}],"stateMutability":"view"},{"type":"function","name":"getCommunityFounders","inputs":[{"name":"communityId_","type":"uint256","internalType":"uint256"}],"outputs":[{"name":"founders","type":"address[]","internalType":"address[]"}],"stateMutability":"view"},{"type":"function","name":"getValuableAction","inputs":[{"name":"id","type":"uint256","internalType":"uint256"}],"outputs":[{"name":"action","type":"tuple","internalType":"struct Types.ValuableAction","components":[{"name":"membershipTokenReward","type":"uint32","internalType":"uint32"},{"name":"communityTokenReward","type":"uint32","internalType":"uint32"},{"name":"investorSBTReward","type":"uint32","internalType":"uint32"},{"name":"category","type":"uint8","internalType":"enum Types.ActionCategory"},{"name":"roleTypeId","type":"bytes32","internalType":"bytes32"},{"name":"positionPoints","type":"uint32","internalType":"uint32"},{"name":"verifierPolicy","type":"uint8","internalType":"enum Types.VerifierPolicy"},{"name":"metadataSchemaId","type":"bytes32","internalType":"bytes32"},{"name":"jurorsMin","type":"uint32","internalType":"uint32"},{"name":"panelSize","type":"uint32","internalType":"uint32"},{"name":"verifyWindow","type":"uint32","internalType":"uint32"},{"name":"verifierRewardWeight","type":"uint32","internalType":"uint32"},{"name":"slashVerifierBps","type":"uint32","internalType":"uint32"},{"name":"cooldownPeriod","type":"uint32","internalType":"uint32"},{"name":"maxConcurrent","type":"uint32","internalType":"uint32"},{"name":"revocable","type":"bool","internalType":"bool"},{"name":"evidenceTypes","type":"uint32","internalType":"uint32"},{"name":"proposalThreshold","type":"uint256","internalType":"uint256"},{"name":"proposer","type":"address","internalType":"address"},{"name":"evidenceSpecCID","type":"string","internalType":"string"},{"name":"titleTemplate","type":"string","internalType":"string"},{"name":"automationRules","type":"bytes32[]","internalType":"bytes32[]"},{"name":"activationDelay","type":"uint64","internalType":"uint64"},{"name":"deprecationWarning","type":"uint64","internalType":"uint64"}]}],"stateMutability":"view"},{"type":"function","name":"isActive","inputs":[{"name":"","type":"uint256","internalType":"uint256"}],"outputs":[{"name":"","type":"bool","internalType":"bool"}],"stateMutability":"view"},{"type":"function","name":"isCommunityIssuanceModule","inputs":[{"name":"","type":"uint256","internalType":"uint256"},{"name":"module","type":"address","internalType":"address"}],"outputs":[{"name":"","type":"bool","internalType":"bool"}],"stateMutability":"view"},{"type":"function","name":"isConsumingScheduledOp","inputs":[],"outputs":[{"name":"","type":"bytes4","internalType":"bytes4"}],"stateMutability":"view"},{"type":"function","name":"isIssuanceModule","inputs":[{"name":"","type":"address","internalType":"address"}],"outputs":[{"name":"","type":"bool","internalType":"bool"}],"stateMutability":"view"},{"type":"function","name":"isModerator","inputs":[{"name":"","type":"address","internalType":"address"}],"outputs":[{"name":"","type":"bool","internalType":"bool"}],"stateMutability":"view"},{"type":"function","name":"isValuableActionActive","inputs":[{"name":"id","type":"uint256","internalType":"uint256"}],"outputs":[{"name":"","type":"bool","internalType":"bool"}],"stateMutability":"view"},{"type":"function","name":"issuancePaused","inputs":[],"outputs":[{"name":"","type":"bool","internalType":"bool"}],"stateMutability":"view"},{"type":"function","name":"issueEngagement","inputs":[{"name":"to","type":"address","internalType":"address"},{"name":"subtype","type":"uint8","internalType":"enum Types.EngagementSubtype"},{"name":"actionTypeId","type":"bytes32","internalType":"bytes32"},{"name":"metadata","type":"bytes","internalType":"bytes"}],"outputs":[{"name":"tokenId","type":"uint256","internalType":"uint256"}],"stateMutability":"nonpayable"},{"type":"function","name":"issueInvestment","inputs":[{"name":"to","type":"address","internalType":"address"},{"name":"cohortId","type":"uint256","internalType":"uint256"},{"name":"weight","type":"uint32","internalType":"uint32"},{"name":"metadata","type":"bytes","internalType":"bytes"}],"outputs":[{"name":"tokenId","type":"uint256","internalType":"uint256"}],"stateMutability":"nonpayable"},{"type":"function","name":"issuePosition","inputs":[{"name":"to","type":"address","internalType":"address"},{"name":"positionTypeId","type":"bytes32","internalType":"bytes32"},{"name":"points","type":"uint32","internalType":"uint32"},{"name":"metadata","type":"bytes","internalType":"bytes"}],"outputs":[{"name":"tokenId","type":"uint256","internalType":"uint256"}],"stateMutability":"nonpayable"},{"type":"function","name":"issueRoleFromPosition","inputs":[{"name":"to","type":"address","internalType":"address"},{"name":"roleTypeId","type":"bytes32","internalType":"bytes32"},{"name":"points","type":"uint32","internalType":"uint32"},{"name":"issuedAt","type":"uint64","internalType":"uint64"},{"name":"endedAt","type":"uint64","internalType":"uint64"},{"name":"closeOutcome","type":"uint8","internalType":"uint8"},{"name":"metadata","type":"bytes","internalType":"bytes"}],"outputs":[{"name":"tokenId","type":"uint256","internalType":"uint256"}],"stateMutability":"nonpayable"},{"type":"function","name":"lastId","inputs":[],"outputs":[{"name":"","type":"uint256","internalType":"uint256"}],"stateMutability":"view"},{"type":"function","name":"pendingValuableActions","inputs":[{"name":"","type":"uint256","internalType":"uint256"}],"outputs":[{"name":"","type":"bytes32","internalType":"bytes32"}],"stateMutability":"view"},{"type":"function","name":"proposalRefUsed","inputs":[{"name":"","type":"bytes32","internalType":"bytes32"}],"outputs":[{"name":"","type":"bool","internalType":"bool"}],"stateMutability":"view"},{"type":"function","name":"proposeValuableAction","inputs":[{"name":"params","type":"tuple","internalType":"struct Types.ValuableAction","components":[{"name":"membershipTokenReward","type":"uint32","internalType":"uint32"},{"name":"communityTokenReward","type":"uint32","internalType":"uint32"},{"name":"investorSBTReward","type":"uint32","internalType":"uint32"},{"name":"category","type":"uint8","internalType":"enum Types.ActionCategory"},{"name":"roleTypeId","type":"bytes32","internalType":"bytes32"},{"name":"positionPoints","type":"uint32","internalType":"uint32"},{"name":"verifierPolicy","type":"uint8","internalType":"enum Types.VerifierPolicy"},{"name":"metadataSchemaId","type":"bytes32","internalType":"bytes32"},{"name":"jurorsMin","type":"uint32","internalType":"uint32"},{"name":"panelSize","type":"uint32","internalType":"uint32"},{"name":"verifyWindow","type":"uint32","internalType":"uint32"},{"name":"verifierRewardWeight","type":"uint32","internalType":"uint32"},{"name":"slashVerifierBps","type":"uint32","internalType":"uint32"},{"name":"cooldownPeriod","type":"uint32","internalType":"uint32"},{"name":"maxConcurrent","type":"uint32","internalType":"uint32"},{"name":"revocable","type":"bool","internalType":"bool"},{"name":"evidenceTypes","type":"uint32","internalType":"uint32"},{"name":"proposalThreshold","type":"uint256","internalType":"uint256"},{"name":"proposer","type":"address","internalType":"address"},{"name":"evidenceSpecCID","type":"string","internalType":"string"},{"name":"titleTemplate","type":"string","internalType":"string"},{"name":"automationRules","type":"bytes32[]","internalType":"bytes32[]"},{"name":"activationDelay","type":"uint64","internalType":"uint64"},{"name":"deprecationWarning","type":"uint64","internalType":"uint64"}]},{"name":"proposalRef","type":"bytes32","internalType":"bytes32"}],"outputs":[{"name":"valuableActionId","type":"uint256","internalType":"uint256"}],"stateMutability":"payable"},{"type":"function","name":"setAuthority","inputs":[{"name":"newAuthority","type":"address","internalType":"address"}],"outputs":[],"stateMutability":"nonpayable"},{"type":"function","name":"setCommunityIssuanceModule","inputs":[{"name":"module","type":"address","internalType":"address"},{"name":"allowed","type":"bool","internalType":"bool"}],"outputs":[],"stateMutability":"nonpayable"},{"type":"function","name":"setCommunityNarrowing","inputs":[{"name":"enabled","type":"bool","internalType":"bool"}],"outputs":[],"stateMutability":"nonpayable"},{"type":"function","name":"setIssuanceModule","inputs":[{"name":"module","type":"address","internalType":"address"},{"name":"allowed","type":"bool","internalType":"bool"}],"outputs":[],"stateMutability":"nonpayable"},{"type":"function","name":"setIssuancePaused","inputs":[{"name":"paused","type":"bool","internalType":"bool"}],"outputs":[],"stateMutability":"nonpayable"},{"type":"function","name":"setModerator","inputs":[{"name":"who","type":"address","internalType":"address"},{"name":"status","type":"bool","internalType":"bool"}],"outputs":[],"stateMutability":"nonpayable"},{"type":"function","name":"setValuableActionSBT","inputs":[{"name":"sbt","type":"address","internalType":"address"}],"outputs":[],"stateMutability":"nonpayable"},{"type":"function","name":"update","inputs":[{"name":"id","type":"uint256","internalType":"uint256"},{"name":"params","type":"tuple","internalType":"struct Types.ValuableAction","components":[{"name":"membershipTokenReward","type":"uint32","internalType":"uint32"},{"name":"communityTokenReward","type":"uint32","internalType":"uint32"},{"name":"investorSBTReward","type":"uint32","internalType":"uint32"},{"name":"category","type":"uint8","internalType":"enum Types.ActionCategory"},{"name":"roleTypeId","type":"bytes32","internalType":"bytes32"},{"name":"positionPoints","type":"uint32","internalType":"uint32"},{"name":"verifierPolicy","type":"uint8","internalType":"enum Types.VerifierPolicy"},{"name":"metadataSchemaId","type":"bytes32","internalType":"bytes32"},{"name":"jurorsMin","type":"uint32","internalType":"uint32"},{"name":"panelSize","type":"uint32","internalType":"uint32"},{"name":"verifyWindow","type":"uint32","internalType":"uint32"},{"name":"verifierRewardWeight","type":"uint32","internalType":"uint32"},{"name":"slashVerifierBps","type":"uint32","internalType":"uint32"},{"name":"cooldownPeriod","type":"uint32","internalType":"uint32"},{"name":"maxConcurrent","type":"uint32","internalType":"uint32"},{"name":"revocable","type":"bool","internalType":"bool"},{"name":"evidenceTypes","type":"uint32","internalType":"uint32"},{"name":"proposalThreshold","type":"uint256","internalType":"uint256"},{"name":"proposer","type":"address","internalType":"address"},{"name":"evidenceSpecCID","type":"string","internalType":"string"},{"name":"titleTemplate","type":"string","internalType":"string"},{"name":"automationRules","type":"bytes32[]","internalType":"bytes32[]"},{"name":"activationDelay","type":"uint64","internalType":"uint64"},{"name":"deprecationWarning","type":"uint64","internalType":"uint64"}]}],"outputs":[],"stateMutability":"nonpayable"},{"type":"function","name":"valuableActionSBT","inputs":[],"outputs":[{"name":"","type":"address","internalType":"address"}],"stateMutability":"view"},{"type":"function","name":"valuableActionsById","inputs":[{"name":"","type":"uint256","internalType":"uint256"}],"outputs":[{"name":"membershipTokenReward","type":"uint32","internalType":"uint32"},{"name":"communityTokenReward","type":"uint32","internalType":"uint32"},{"name":"investorSBTReward","type":"uint32","internalType":"uint32"},{"name":"category","type":"uint8","internalType":"enum Types.ActionCategory"},{"name":"roleTypeId","type":"bytes32","internalType":"bytes32"},{"name":"positionPoints","type":"uint32","internalType":"uint32"},{"name":"verifierPolicy","type":"uint8","internalType":"enum Types.VerifierPolicy"},{"name":"metadataSchemaId","type":"bytes32","internalType":"bytes32"},{"name":"jurorsMin","type":"uint32","internalType":"uint32"},{"name":"panelSize","type":"uint32","internalType":"uint32"},{"name":"verifyWindow","type":"uint32","internalType":"uint32"},{"name":"verifierRewardWeight","type":"uint32","internalType":"uint32"},{"name":"slashVerifierBps","type":"uint32","internalType":"uint32"},{"name":"cooldownPeriod","type":"uint32","internalType":"uint32"},{"name":"maxConcurrent","type":"uint32","internalType":"uint32"},{"name":"revocable","type":"bool","internalType":"bool"},{"name":"evidenceTypes","type":"uint32","internalType":"uint32"},{"name":"proposalThreshold","type":"uint256","internalType":"uint256"},{"name":"proposer","type":"address","internalType":"address"},{"name":"evidenceSpecCID","type":"string","internalType":"string"},{"name":"titleTemplate","type":"string","internalType":"string"},{"name":"activationDelay","type":"uint64","internalType":"uint64"},{"name":"deprecationWarning","type":"uint64","internalType":"uint64"}],"stateMutability":"view"},{"type":"event","name":"AuthorityUpdated","inputs":[{"name":"authority","type":"address","indexed":false,"internalType":"address"}],"anonymous":false},{"type":"event","name":"EngagementIssued","inputs":[{"name":"to","type":"address","indexed":true,"internalType":"address"},{"name":"tokenId","type":"uint256","indexed":true,"internalType":"uint256"},{"name":"subtype","type":"uint8","indexed":false,"internalType":"enum Types.EngagementSubtype"},{"name":"actionTypeId","type":"bytes32","indexed":true,"internalType":"bytes32"}],"anonymous":false},{"type":"event","name":"InvestmentIssued","inputs":[{"name":"to","type":"address","indexed":true,"internalType":"address"},{"name":"tokenId","type":"uint256","indexed":true,"internalType":"uint256"},{"name":"cohortId","type":"uint256","indexed":true,"internalType":"uint256"},{"name":"weight","type":"uint32","indexed":false,"internalType":"uint32"}],"anonymous":false},{"type":"event","name":"ModeratorUpdated","inputs":[{"name":"account","type":"address","indexed":true,"internalType":"address"},{"name":"isModerator","type":"bool","indexed":false,"internalType":"bool"},{"name":"updater","type":"address","indexed":true,"internalType":"address"}],"anonymous":false},{"type":"event","name":"PositionIssued","inputs":[{"name":"to","type":"address","indexed":true,"internalType":"address"},{"name":"tokenId","type":"uint256","indexed":true,"internalType":"uint256"},{"name":"positionTypeId","type":"bytes32","indexed":true,"internalType":"bytes32"},{"name":"points","type":"uint32","indexed":false,"internalType":"uint32"}],"anonymous":false},{"type":"event","name":"RoleIssued","inputs":[{"name":"to","type":"address","indexed":true,"internalType":"address"},{"name":"tokenId","type":"uint256","indexed":true,"internalType":"uint256"},{"name":"roleTypeId","type":"bytes32","indexed":true,"internalType":"bytes32"},{"name":"points","type":"uint32","indexed":false,"internalType":"uint32"},{"name":"issuedAt","type":"uint64","indexed":false,"internalType":"uint64"},{"name":"endedAt","type":"uint64","indexed":false,"internalType":"uint64"},{"name":"closeOutcome","type":"uint8","indexed":false,"internalType":"uint8"}],"anonymous":false},{"type":"event","name":"ValuableActionActivated","inputs":[{"name":"id","type":"uint256","indexed":true,"internalType":"uint256"},{"name":"proposalId","type":"uint256","indexed":true,"internalType":"uint256"}],"anonymous":false},{"type":"event","name":"ValuableActionCreated","inputs":[{"name":"id","type":"uint256","indexed":true,"internalType":"uint256"},{"name":"valuableAction","type":"tuple","indexed":false,"internalType":"struct Types.ValuableAction","components":[{"name":"membershipTokenReward","type":"uint32","internalType":"uint32"},{"name":"communityTokenReward","type":"uint32","internalType":"uint32"},{"name":"investorSBTReward","type":"uint32","internalType":"uint32"},{"name":"category","type":"uint8","internalType":"enum Types.ActionCategory"},{"name":"roleTypeId","type":"bytes32","internalType":"bytes32"},{"name":"positionPoints","type":"uint32","internalType":"uint32"},{"name":"verifierPolicy","type":"uint8","internalType":"enum Types.VerifierPolicy"},{"name":"metadataSchemaId","type":"bytes32","internalType":"bytes32"},{"name":"jurorsMin","type":"uint32","internalType":"uint32"},{"name":"panelSize","type":"uint32","internalType":"uint32"},{"name":"verifyWindow","type":"uint32","internalType":"uint32"},{"name":"verifierRewardWeight","type":"uint32","internalType":"uint32"},{"name":"slashVerifierBps","type":"uint32","internalType":"uint32"},{"name":"cooldownPeriod","type":"uint32","internalType":"uint32"},{"name":"maxConcurrent","type":"uint32","internalType":"uint32"},{"name":"revocable","type":"bool","internalType":"bool"},{"name":"evidenceTypes","type":"uint32","internalType":"uint32"},{"name":"proposalThreshold","type":"uint256","internalType":"uint256"},{"name":"proposer","type":"address","internalType":"address"},{"name":"evidenceSpecCID","type":"string","internalType":"string"},{"name":"titleTemplate","type":"string","internalType":"string"},{"name":"automationRules","type":"bytes32[]","internalType":"bytes32[]"},{"name":"activationDelay","type":"uint64","internalType":"uint64"},{"name":"deprecationWarning","type":"uint64","internalType":"uint64"}]},{"name":"creator","type":"address","indexed":true,"internalType":"address"}],"anonymous":false},{"type":"event","name":"ValuableActionDeactivated","inputs":[{"name":"id","type":"uint256","indexed":true,"internalType":"uint256"},{"name":"deactivator","type":"address","indexed":true,"internalType":"address"}],"anonymous":false},{"type":"event","name":"ValuableActionUpdated","inputs":[{"name":"id","type":"uint256","indexed":true,"internalType":"uint256"},{"name":"valuableAction","type":"tuple","indexed":false,"internalType":"struct Types.ValuableAction","components":[{"name":"membershipTokenReward","type":"uint32","internalType":"uint32"},{"name":"communityTokenReward","type":"uint32","internalType":"uint32"},{"name":"investorSBTReward","type":"uint32","internalType":"uint32"},{"name":"category","type":"uint8","internalType":"enum Types.ActionCategory"},{"name":"roleTypeId","type":"bytes32","internalType":"bytes32"},{"name":"positionPoints","type":"uint32","internalType":"uint32"},{"name":"verifierPolicy","type":"uint8","internalType":"enum Types.VerifierPolicy"},{"name":"metadataSchemaId","type":"bytes32","internalType":"bytes32"},{"name":"jurorsMin","type":"uint32","internalType":"uint32"},{"name":"panelSize","type":"uint32","internalType":"uint32"},{"name":"verifyWindow","type":"uint32","internalType":"uint32"},{"name":"verifierRewardWeight","type":"uint32","internalType":"uint32"},{"name":"slashVerifierBps","type":"uint32","internalType":"uint32"},{"name":"cooldownPeriod","type":"uint32","internalType":"uint32"},{"name":"maxConcurrent","type":"uint32","internalType":"uint32"},{"name":"revocable","type":"bool","internalType":"bool"},{"name":"evidenceTypes","type":"uint32","internalType":"uint32"},{"name":"proposalThreshold","type":"uint256","internalType":"uint256"},{"name":"proposer","type":"address","internalType":"address"},{"name":"evidenceSpecCID","type":"string","internalType":"string"},{"name":"titleTemplate","type":"string","internalType":"string"},{"name":"automationRules","type":"bytes32[]","internalType":"bytes32[]"},{"name":"activationDelay","type":"uint64","internalType":"uint64"},{"name":"deprecationWarning","type":"uint64","internalType":"uint64"}]},{"name":"updater","type":"address","indexed":true,"internalType":"address"}],"anonymous":false},{"type":"error","name":"AccessManagedInvalidAuthority","inputs":[{"name":"authority","type":"address","internalType":"address"}]},{"type":"error","name":"AccessManagedRequiredDelay","inputs":[{"name":"caller","type":"address","internalType":"address"},{"name":"delay","type":"uint32","internalType":"uint32"}]},{"type":"error","name":"AccessManagedUnauthorized","inputs":[{"name":"caller","type":"address","internalType":"address"}]},{"type":"error","name":"InvalidInput","inputs":[{"name":"reason","type":"string","internalType":"string"}]},{"type":"error","name":"InvalidValuableAction","inputs":[{"name":"valuableActionId","type":"uint256","internalType":"uint256"}]},{"type":"error","name":"NotAuthorized","inputs":[{"name":"caller","type":"address","internalType":"address"}]},{"type":"error","name":"ZeroAddress","inputs":[]}],"bytecode":{"object":"0x60c034620001ca57601f6200416038819003918201601f191683019291906001600160401b03841183851017620001ce578160809284926040968752833981010312620001ca576200005181620001e2565b6200005f60208301620001e2565b9060606200006f858501620001e2565b9301515f80546001600160a01b0319166001600160a01b0393841690811790915585518181529193917f2f658b440c35314f52658ea8a740e05b284cdc84dc9ae01e891f21b8933e7cad90602090a115620001b9578116928315620001b95716918215620001a8578115620001635760a052608052805f526003602052815f20600160ff19825416179055815190600182527f6e0f223019887734edb3e629fad26bad6ceeb5108f25ae46e5c762fe264517c160203393a351613f689081620001f882396080518181816104a70152818161113b015281816114160152611767015260a0518181816104d601526111a20152f35b835163d647364f60e01b815260206004820152601360248201527f496e76616c696420636f6d6d756e6974794964000000000000000000000000006044820152606490fd5b835163d92e233d60e01b8152600490fd5b845163d92e233d60e01b8152600490fd5b5f80fd5b634e487b7160e01b5f52604160045260245ffd5b51906001600160a01b0382168203620001ca5756fe6080806040526004361015610012575f80fd5b5f905f3560e01c908163041848f914613168575080630c5940fd14612f9e57806314f1d4f114612f425780632262fd9d14612f185780632f1ec91c14612bc75780633bc87c9c14612a8f5780633ee2b01d14612a03578063408a6802146129225780634104c3be1461268557806347573c2b146126455780635cfdb8621461217d5780636da7a0ba14611ae5578063713049401461188b5780637a9e5e4b146117c15780637d0df1be1461178a5780637f50861a146117505780638045303d1461131957806382afd23b146112ea5780638fb3603714611275578063916b9bef146111ea5780639de1e191146111c6578063a200ac8614611182578063a2e7b04c14611111578063a8db79121461104c578063a90e069e1461100f578063bf7e214f14610fe9578063c1292cc314610fcb578063c691af9214610fa5578063c6ffb6cb14610f67578063e08d5b8a14610f07578063e148bb4814610eca578063e610e6dd1461043f578063e890118414610415578063e9ea801c146103bc578063ef4ec047146102d4578063fa6f393614610297578063ff012a43146101f15763ff3a41ab146101c0575f80fd5b346101ee5760203660031901126101ee5760ff60406020926004358152600684522054166040519015158152f35b80fd5b50346101ee5760203660031901126101ee5761020b613436565b6102153633613a12565b6001600160a01b0381161561026d577fffffffffffffffffffff0000000000000000000000000000000000000000ffff75ffffffffffffffffffffffffffffffffffffffff00006009549260101b1691161760095580f35b60046040517fd92e233d000000000000000000000000000000000000000000000000000000008152fd5b50346101ee5760203660031901126101ee5760ff60406020926001600160a01b036102c0613436565b168152600384522054166040519015158152f35b50346101ee5760203660031901126101ee576001600160a01b036102f6613436565b6103003633613a12565b16801561026d57808252600a60205260408220805460ff811615610322578380f35b60ff19166001179055600b54680100000000000000008110156103a8576001810180600b55811015610394577f0175b7a638427703f0dbe7bb9bbf987a2551717b34e79f33b5b1008d1fa01db9019073ffffffffffffffffffffffffffffffffffffffff198254161790555f80808380f35b602483634e487b7160e01b81526032600452fd5b602483634e487b7160e01b81526041600452fd5b50346101ee5760203660031901126101ee57602090600435908115159182610408575b826103f1575b50506040519015158152f35b815260048352604090205460ff1690505f806103e5565b60015481111592506103df565b50346101ee57806003193601126101ee5760206001600160a01b0360095460101c16604051908152f35b50600319604036820112610ec65767ffffffffffffffff60043511610ec65761030090600435360301126101ee576104773633613a12565b6001600160a01b036040517ff830e3480000000000000000000000000000000000000000000000000000000081527f000000000000000000000000000000000000000000000000000000000000000060048201526101c08082602481867f0000000000000000000000000000000000000000000000000000000000000000165afa918215610ebb578492610d6b575b505081602082015116158015610d60575b610d1b5760a0015181163003610cd65760243515610c90576024358252600660205260ff604083205416610c4b57610553600435600401613be6565b61055e6001546136ab565b90816001558183526002602052604083209063ffffffff806105846004356004016136e5565b1663ffffffff1990818554161784556105c66105a46024600435016136e5565b855467ffffffff00000000191660209190911b67ffffffff0000000016178555565b6106016105d76044600435016136e5565b85546bffffffff0000000000000000191660409190911b6bffffffff000000000000000016178555565b606460043501356004811015610c475760ff60601b85549160601b169060ff60601b19161784556084600435013560018501558161064360a4600435016136e5565b1660028501549060c460043501356005811015610c43578061066a64ff00000000926135d8565b60201b169164ffffffffff19161717600285015560e460043501356003850155600484018261069e610104600435016136e5565b16828254161781556106da6106b8610124600435016136e5565b825467ffffffff00000000191660209190911b67ffffffff0000000016178255565b6107166106ec610144600435016136e5565b82546bffffffff0000000000000000191660409190911b6bffffffff000000000000000016178255565b610725610164600435016136e5565b815473ffffffff0000000000000000000000000000000061074b610184600435016136e5565b60801b1663ffffffff60a01b6107666101a4600435016136e5565b60a01b169063ffffffff60c01b6107826101c4600435016136e5565b60c01b16926101e46004350135801515809103610c3f576fffffffff00000000000000000000000060ff60e01b7fffffff0000000000000000000000000000000000ffffffffffffffffffffffff9260e01b169660601b1691161717171717905560058401916107f7610204600435016136e5565b16908254161790556102246004350135600683015560078201906102446004350135908116809103610a9b5773ffffffffffffffffffffffffffffffffffffffff19825416179055610854610264600435016004356004016136f6565b9067ffffffffffffffff8211610b65578190610873600885015461349e565b601f8111610bef575b508590601f8311600114610b84578692610b79575b50508160011b915f199060031b1c19161760088201555b6108bd610284600435016004356004016136f6565b9067ffffffffffffffff8211610b655781906108dc600985015461349e565b601f8111610b15575b508590601f8311600114610aaa578692610a9f575b50508160011b915f199060031b1c19161760098201555b600a81016004356102a481013590360360221901811215610a9b57600435019060048201359167ffffffffffffffff8311610a97576024018260051b36038113610a9757680100000000000000008311610a83578154838355808410610a5d575b5090855260208520855b838110610a4957602086604089600b890167ffffffffffffffff6109a56102c460043501613729565b168154906fffffffffffffffffffffffffffffffff196fffffffffffffffff00000000000000006109db6102e460043501613729565b871b16921617179055828152600584526024358282205560243581526006845220600160ff19825416179055604051817f0215c6902787bce369520b2032915a714819e29cd4230ff91ab746ae8752947d339280610a3e60043560040182613770565b0390a3604051908152f35b60019060208435940193818401550161097c565b828752836020882091820191015b818110610a785750610972565b5f8155600101610a6b565b602486634e487b7160e01b81526041600452fd5b8580fd5b8480fd5b013590505f806108fa565b60098501875260208720879450915b601f1984168510610afd576001945083601f19811610610ae4575b505050811b016009820155610911565b01355f19600384901b60f8161c191690555f8080610ad4565b81810135835560209485019460019093019201610ab9565b90915060098401865260208620601f840160051c810160208510610b5e575b90849392915b601f830160051c82018110610b505750506108e5565b5f8155859450600101610b3a565b5080610b34565b602485634e487b7160e01b81526041600452fd5b013590505f80610891565b60088501875260208720879450915b601f1984168510610bd7576001945083601f19811610610bbe575b505050811b0160088201556108a8565b01355f19600384901b60f8161c191690555f8080610bae565b81810135835560209485019460019093019201610b93565b90915060088401865260208620601f840160051c810160208510610c38575b90849392915b601f830160051c82018110610c2a57505061087c565b5f8155859450600101610c14565b5080610c0e565b8c80fd5b8880fd5b8680fd5b606460405163d647364f60e01b815260206004820152601960248201527f50726f706f73616c2072656620616c72656164792075736564000000000000006044820152fd5b60405163d647364f60e01b815260206004820152601460248201527f4d697373696e672070726f706f73616c207265660000000000000000000000006044820152606490fd5b606460405163d647364f60e01b815260206004820152601160248201527f5265676973747279206d69736d617463680000000000000000000000000000006044820152fd5b606460405163d647364f60e01b815260206004820152601860248201527f436f6d6d756e697479206e6f7420636f6e6669677572656400000000000000006044820152fd5b508181511615610517565b9080925081813d8311610eb4575b610d838183613507565b81010312610eb05760405191820182811067ffffffffffffffff821117610e9c57604052610db0816139fe565b8252610dbe602082016139fe565b6020830152610dcf604082016139fe565b6040830152610de0606082016139fe565b6060830152610df1608082016139fe565b6080830152610e0260a082016139fe565b60a0830152610e1360c082016139fe565b60c0830152610e2460e082016139fe565b60e0830152610100610e378183016139fe565b90830152610120610e498183016139fe565b90830152610140610e5b8183016139fe565b90830152610160610e6d8183016139fe565b90830152610180610e7f8183016139fe565b90830152610e916101a08092016139fe565b908201525f80610506565b634e487b7160e01b5f52604160045260245ffd5b8380fd5b503d610d79565b6040513d86823e3d90fd5b5080fd5b50346101ee5760403660031901126101ee5760ff60406020926001600160a01b03610ef3613436565b168152600a84522054166040519015158152f35b50346101ee5760403660031901126101ee57610f21613436565b6001600160a01b03610f31613620565b91610f3c3633613a12565b1690811561026d57610f649183526008602052604083209060ff801983541691151516179055565b80f35b50346101ee5760203660031901126101ee57610f8161362f565b610f8b3633613a12565b61ff0060095491151560081b169061ff0019161760095580f35b50346101ee57806003193601126101ee57602060ff60095460081c166040519015158152f35b50346101ee57806003193601126101ee576020600154604051908152f35b50346101ee57806003193601126101ee576001600160a01b036020915416604051908152f35b50346101ee5760203660031901126101ee5760ff60406020926001600160a01b03611038613436565b168152600784522054166040519015158152f35b50346101ee57602080600319360112610ec657604051809282600b5492838152018092600b83527f0175b7a638427703f0dbe7bb9bbf987a2551717b34e79f33b5b1008d1fa01db990835b8181106110f457505050846110ad910385613507565b60405193838594850191818652518092526040850193925b8281106110d457505050500390f35b83516001600160a01b0316855286955093810193928101926001016110c5565b82546001600160a01b031684529286019260019283019201611097565b50346101ee5760203660031901126101ee5760043580151580611176575b1561115e5760206040517f00000000000000000000000000000000000000000000000000000000000000008152f35b60249060405190633e8a1e4160e21b82526004820152fd5b5060015481111561112f565b50346101ee57806003193601126101ee5760206040516001600160a01b037f0000000000000000000000000000000000000000000000000000000000000000168152f35b50346101ee5760203660031901126101ee57602060ff600954166040519015158152f35b50346101ee5760203660031901126101ee576004356112093633613a12565b80151580611269575b1561115e57808252600460205260ff6040832054161561115e57808252600460205260408220805460ff1916905533907f6a695f3885825e54664b734cb3f92b352642b7a4d913d39f61ce3904eaed7c058380a380f35b50600154811115611212565b50346101ee57806003193601126101ee57805460a01c60ff16156112e2575060207f8fb36037000000000000000000000000000000000000000000000000000000005b7fffffffff0000000000000000000000000000000000000000000000000000000060405191168152f35b6020906112b8565b50346101ee5760203660031901126101ee5760ff60406020926004358152600484522054166040519015158152f35b50346114b45760403660031901126114b45760043560249081359160ff83168093036114b45760095460ff8160081c1661170a576001600160a01b0390818160101c1691821561026d575f54604080516368fc2b7760e11b81526003600482015233602482015292909183916044918391165afa9081156114a9575f916116da575b50156116c45760ff16806116ad575b611697576040517fb09afec100000000000000000000000000000000000000000000000000000000815283600482015261018080828581865afa9182156114a9575f92611587575b505060038151611401816135d8565b61140a816135d8565b036115425760208101517f0000000000000000000000000000000000000000000000000000000000000000036114fd57610100015167ffffffffffffffff166114b857803b156114b4575f928360449260405196879586947f8045303d00000000000000000000000000000000000000000000000000000000865260048601528401525af180156114a95761149d575080f35b6114a791506134f3565b005b6040513d5f823e3d90fd5b5f80fd5b60648260176040519163d647364f60e01b8352602060048401528201527f506f736974696f6e20616c726561647920636c6f7365640000000000000000006044820152fd5b60648360126040519163d647364f60e01b8352602060048401528201527f436f6d6d756e697479206d69736d6174636800000000000000000000000000006044820152fd5b60648360146040519163d647364f60e01b8352602060048401528201527f4e6f74206120706f736974696f6e20746f6b656e0000000000000000000000006044820152fd5b9080925081813d8311611690575b61159f8183613507565b810103126114b45760405191820182811067ffffffffffffffff82111761167d57604052805160058110156114b45782526020810151602083015260408101516040830152606081015160608301526080810151608083015261160460a08201613653565b60a083015261161560c08201613653565b60c083015261162660e082016139e9565b60e08301526101006116398183016139e9565b9083015261012061164b8183016139e9565b90830152610140808201519060ff821682036114b4578301526116726101608092016139fe565b908201525f806113f2565b84634e487b7160e01b5f5260416004525ffd5b503d611595565b50604051634a0bfec160e01b8152336004820152fd5b50335f52600860205260ff60405f205416156113aa565b82604051634a0bfec160e01b8152336004820152fd5b6116fc915060403d604011611703575b6116f48183613507565b810190613664565b505f61139b565b503d6116ea565b60405163d647364f60e01b815260206004820152600f60248201527f49737375616e63652070617573656400000000000000000000000000000000006044820152606490fd5b346114b4575f3660031901126114b45760206040517f00000000000000000000000000000000000000000000000000000000000000008152f35b346114b45760203660031901126114b4576117a361362f565b6117ad3633613a12565b60ff80196009541691151516176009555f80f35b346114b45760203660031901126114b4576117da613436565b5f54906001600160a01b0390818316330361187557803b15611843577f2f658b440c35314f52658ea8a740e05b284cdc84dc9ae01e891f21b8933e7cad9260209273ffffffffffffffffffffffffffffffffffffffff19921691829116175f55604051908152a1005b602491604051917fc2f31e5e000000000000000000000000000000000000000000000000000000008352166004820152fd5b602460405162d1953b60e31b8152336004820152fd5b346114b45760803660031901126114b4576118a4613436565b60243560038110156114b45760443560643567ffffffffffffffff81116114b4576118d3903690600401613470565b90936009549060ff8260081c1661170a576001600160a01b0390818360101c1692831561026d575f54604080516368fc2b7760e11b815260036004820152336024820152918290604490829088165afa9081156114a9575f91611ac5575b5015611a975760ff1680611aae575b611a97571691821561026d578315611a525760405180927f56ea547f00000000000000000000000000000000000000000000000000000000825284600483015261198d60248301886139dc565b85604483015260806064830152815f816119af60209b8c97608484019161368b565b03925af19384156114a95785915f956119ff575b508492917f01f44671cf0417f4d6b97178acbc6099efd02021ba154faf174f81a738331e88916119f660405180926139dc565ba4604051908152f35b9450919084813d8111611a4b575b611a178183613507565b810103126114b4579251929084907f01f44671cf0417f4d6b97178acbc6099efd02021ba154faf174f81a738331e886119c3565b503d611a0d565b606460405163d647364f60e01b815260206004820152601460248201527f4d697373696e6720616374696f6e5479706549640000000000000000000000006044820152fd5b6024604051634a0bfec160e01b8152336004820152fd5b50335f52600860205260ff60405f20541615611940565b611ade915060403d604011611703576116f48183613507565b5089611931565b346114b4576003196040368201126114b457600435602491823567ffffffffffffffff918282116114b4578160040194610300833603928301126114b457611b2d3633613a12565b84151580612171575b1561215b57845f526020906004825260ff60405f2054161561214557611b5b87613be6565b855f526002825260405f209263ffffffff9283611b778a6136e5565b1663ffffffff199081875416178655611bb6611b948589016136e5565b875467ffffffff00000000191660209190911b67ffffffff0000000016178755565b611bef611bc5604489016136e5565b87546bffffffff0000000000000000191660409190911b6bffffffff000000000000000016178755565b606487013560048110156114b45760ff60601b87549160601b169060ff60601b1916178655600194608488013586880155600287019181611c3260a48b016136e5565b1692805460c48b013594600595868110156114b45780611c5764ff00000000926135d8565b881b169164ffffffffff19161717905560e489013560038901556004880182611c836101048c016136e5565b1682825416178155611c9b6106b86101248c016136e5565b611cab6106ec6101448c016136e5565b611cb86101648b016136e5565b8a825473ffffffff00000000000000000000000000000000611cdd61018484016136e5565b60801b1663ffffffff60a01b611cf66101a485016136e5565b60a01b16916101e463ffffffff60c01b611d136101c487016136e5565b60c01b169401358015158091036114b4576fffffffff00000000000000000000000060ff60e01b7fffffff0000000000000000000000000000000000ffffffffffffffffffffffff9260e01b169660601b1691161717171717905582880191611d7f6102048b016136e5565b16908254161790556102248701356006870155600786016102448801356001600160a01b0381168091036114b45773ffffffffffffffffffffffffffffffffffffffff1982541617905560088601611ddb61026489018c6136f6565b8a81939293116121325780611df0835461349e565b93601f948581116120e6575b505f90858311600114612087575f9261207c575b50505f19600383901b1c191690881b1790555b6009870190611e366102848a018d6136f6565b91908b831161206957908291611e4c855461349e565b82811161201b575b505f918311600114611fbc575f92611fb1575b50505f19600383901b1c191690871b1790555b600a8601926102a488013590602219018112156114b4578701936004850135948986116114b45781869101921b360382136114b457680100000000000000008511611f9f57508254848455808510611f78575b50915f52805f20905f5b848110611f6757505050505050600b0191611ef56102c48301613729565b166fffffffffffffffffffffffffffffffff196fffffffffffffffff0000000000000000611f286102e486549501613729565b60401b169216171790557f493172a5da918afdb4e470aad2ba421ac5dd8393bcd81aff0c9ccc69f619099660405180611f62339582613770565b0390a3005b833583820155928101928501611ed7565b835f528585845f2092830192015b828110611f94575050611ecd565b5f8155018690611f86565b634e487b7160e01b5f5260416004525ffd5b013590508d80611e67565b899350601f19831691855f52875f20925f5b898282106120055750508411611fec575b505050811b019055611e7a565b01355f19600384901b60f8161c191690558d8080611fdf565b8385013586558d97909501949283019201611fce565b90919250845f52865f2083808601881c820192898710612060575b9186958d9295949301891c01915b828110612052575050611e54565b5f81558695508c9101612044565b92508192612036565b87634e487b7160e01b5f5260416004525ffd5b013590508e80611e10565b8a9350601f19831691855f52885f20925f5b8a8282106120d057505084116120b7575b505050811b019055611e23565b01355f19600384901b60f8161c191690558e80806120aa565b8385013586558e97909501949283019201612099565b909150835f52865f2085808501881c820192898610612129575b918c918695949301891c01915b82811061211b575050611dfc565b5f81558594508c910161210d565b92508192612100565b86634e487b7160e01b5f5260416004525ffd5b8560405190633e8a1e4160e21b82526004820152fd5b8460405190633e8a1e4160e21b82526004820152fd5b50600154851115611b36565b346114b45760203660031901126114b4575f6102e060405161219e816134d6565b8281528260208201528260408201528260608201528260808201528260a08201528260c08201528260e08201528261010082015282610120820152826101408201528261016082015282610180820152826101a0820152826101c0820152826101e08201528261020082015282610220820152826102408201526060610260820152606061028082015260606102a0820152826102c08201520152600435151580612637575b1561261e576004355f52600260205260405f2060405190612264826134d6565b805463ffffffff8116835263ffffffff8160201c16602084015263ffffffff8160401c166040840152600460ff8260601c16101561260a5760ff9060601c1660608301526001810154608083015260ff600282015463ffffffff811660a08501526122d3828260201c166135d8565b60201c1660c0830152600381015460e083015260ff600482015463ffffffff811661010085015263ffffffff8160201c1661012085015263ffffffff8160401c1661014085015263ffffffff8160601c1661016085015263ffffffff8160801c1661018085015263ffffffff8160a01c166101a085015263ffffffff8160c01c166101c085015260e01c1615156101e083015263ffffffff60058201541661020083015260068101546102208301526001600160a01b036007820154166102408301526123a260088201613529565b6102608301526123b460098201613529565b610280830152604051806020600a840154918281520190600a84015f5260205f20905f5b8181106125f4578667ffffffffffffffff600b88886123f9818a0382613507565b6102a085015201548181166102c084015260401c166102e08201526040516020815263ffffffff825116602082015263ffffffff602083015116604082015263ffffffff604083015116606082015261245a606083015160808301906135cb565b608082015160a082015263ffffffff60a08301511660c082015260c0820151612482816135d8565b60e082015260e082015161010082015263ffffffff6101008301511661012082015263ffffffff6101208301511661014082015263ffffffff6101408301511661016082015263ffffffff6101608301511661018082015263ffffffff610180830151166101a082015263ffffffff6101a0830151166101c082015263ffffffff6101c0830151166101e08201526101e0820151151561020082015263ffffffff610200830151166102208201526102208201516102408201526001600160a01b036102408301511661026082015261026082015161257061030091826102808501526103208401906135e2565b9061258f61028085015192601f199384868303016102a08701526135e2565b6102a085015192848203016102c0850152602080845192838152019301905f5b8181106125de5750505067ffffffffffffffff6102e085826102c0879801511682870152015116908301520390f35b82518552602094850194909201916001016125af565b82548452602090930192600192830192016123d8565b634e487b7160e01b5f52602160045260245ffd5b6024604051633e8a1e4160e21b81526004356004820152fd5b506001546004351115612244565b346114b45760403660031901126114b4576024356001600160a01b0381168091036114b4575f526008602052602060ff60405f2054166040519015158152f35b346114b45760803660031901126114b45761269e613436565b60249081356126ab61344c565b60643567ffffffffffffffff81116114b4576126cb903690600401613470565b90946009549460ff8660081c1661170a576001600160a01b0390818760101c1696871561026d575f54604080516368fc2b7760e11b815260036004820152336024820152918290604490829088165afa9081156114a9575f91612902575b50156128ec5760ff16806128d5575b6116c4571692831561026d5784156128905763ffffffff1694851561284b57908492916040519384927f874f414500000000000000000000000000000000000000000000000000000000845286600485015283015286604483015260806064830152815f816127af60209b8c97608484019161368b565b03925af19384156114a95785915f956127f8575b508492917f7b8043c22ce41e0e1794bd92378dbf37e79f87ac6b347b584e6ef04ee52296ff91604051908152a4604051908152f35b9450919084813d8111612844575b6128108183613507565b810103126114b4579251929084907f7b8043c22ce41e0e1794bd92378dbf37e79f87ac6b347b584e6ef04ee52296ff6127c3565b503d612806565b60648260156040519163d647364f60e01b8352602060048401528201527f5765696768742063616e6e6f74206265207a65726f00000000000000000000006044820152fd5b60648260106040519163d647364f60e01b8352602060048401528201527f4d697373696e6720636f686f72744964000000000000000000000000000000006044820152fd5b50335f52600860205260ff60405f20541615612738565b83604051634a0bfec160e01b8152336004820152fd5b61291b915060403d604011611703576116f48183613507565b508a612729565b346114b45760403660031901126114b4576024356004356129433633613a12565b801515806129f7575b1561115e578115610c9057805f5260056020528160405f2054036129b257805f52600460205260405f20600160ff1982541617905560056020525f60408120557f7ffae721983994812770c99f4f10d1cfc94bc4b5d28b08e6ce84a796fefaa3a75f80a3005b606460405163d647364f60e01b815260206004820152601560248201527f50726f706f73616c20726566206d69736d6174636800000000000000000000006044820152fd5b5060015481111561294c565b346114b45760403660031901126114b457612a1c613436565b6001600160a01b03612a2c613620565b91612a373633613a12565b16801561026d57805f526003602052612a5f8260405f209060ff801983541691151516179055565b60405191151582527f6e0f223019887734edb3e629fad26bad6ceeb5108f25ae46e5c762fe264517c160203393a3005b346114b4575f3660031901126114b4575f600190600154915b82811115612b8f5750612ad3612abd826136cd565b91612acb6040519384613507565b8083526136cd565b6020928383019291601f19013684375f60015b82811115612b31575050509060405192839281840190828552518091526040840192915f5b828110612b1a57505050500390f35b835185528695509381019392810192600101612b0b565b805f526004865260ff60405f205416612b53575b612b4e906136ab565b612ae6565b90612b5d816136ab565b918451821015612b7b578087612b4e9360051b870101529050612b45565b634e487b7160e01b5f52603260045260245ffd5b805f52600460205260ff60405f205416612bb2575b612bad906136ab565b612aa8565b90612bbf612bad916136ab565b919050612ba4565b346114b45760e03660031901126114b457612be0613436565b6024908135612bed61344c565b6064359267ffffffffffffffff8085168095036114b4576084358181168091036114b45760a4359160ff83168093036114b45760c4359081116114b457612c38903690600401613470565b6009979197549460ff8660081c1661170a576001600160a01b0390818760101c1696871561026d575f54604080516368fc2b7760e11b815260036004820152336024820152918290604490829088165afa9081156114a9575f91612ef8575b5015612ee25760ff1680612ecb575b612eb5571695861561026d578715612e70578215612e2b57828410612de6579863ffffffff88999a6040519a8b937fac701fb80000000000000000000000000000000000000000000000000000000085528a600486015284015216958660448301528360648301528460848301528560a483015260e060c4830152815f81612d3660209e8f9760e484019161368b565b03925af19687156114a9575f97612d8f575b50927fe445780dcbd2ad8cc945215ffea2169bd0e452d2f0add6782ce444797b2ee9cb926080928896956040519384528a84015260408301526060820152a4604051908152f35b91965093928782813d8311612ddf575b612da98183613507565b810103126114b45790519592939092907fe445780dcbd2ad8cc945215ffea2169bd0e452d2f0add6782ce444797b2ee9cb612d48565b503d612d9f565b60648a60176040519163d647364f60e01b8352602060048401528201527f656e6465644174206265666f72652069737375656441740000000000000000006044820152fd5b60648a60106040519163d647364f60e01b8352602060048401528201527f4d697373696e67206973737565644174000000000000000000000000000000006044820152fd5b60648a60126040519163d647364f60e01b8352602060048401528201527f4d697373696e6720726f6c6554797065496400000000000000000000000000006044820152fd5b8a604051634a0bfec160e01b8152336004820152fd5b50335f52600860205260ff60405f20541615612ca6565b8b604051634a0bfec160e01b8152336004820152fd5b612f11915060403d604011611703576116f48183613507565b508d612c97565b346114b45760203660031901126114b4576004355f526005602052602060405f2054604051908152f35b346114b45760403660031901126114b457612f5b613436565b6001600160a01b03612f6b613620565b91612f763633613a12565b1690811561026d576114a7915f52600760205260405f209060ff801983541691151516179055565b346114b45760203660031901126114b4576004355f52600260205260405f20805460018201549160028101549060038101546004820154600583015463ffffffff1660068401549060078501546001600160a01b0316926008860161300290613529565b9461300f60098801613529565b96600b0154976040519a8a63ffffffff8d9c168c528060201c63ffffffff1660208d01528060401c63ffffffff1660408d015260608c019060601c60ff1690613057916135cb565b60808b015263ffffffff811660a08b01528060201c60ff16613078906135d8565b60201c60ff1660c08a015260e089015263ffffffff81166101008901528060201c63ffffffff166101208901528060401c63ffffffff166101408901528060601c63ffffffff166101608901528060801c63ffffffff166101808901528060a01c63ffffffff166101a08901528060c01c63ffffffff166101c089015260e01c60ff1615156101e088015261020087015261022086015261024085015261026084016102e090526102e0840161312d916135e2565b83810361028085015261313f916135e2565b9067ffffffffffffffff81166102a084015260401c67ffffffffffffffff166102c08301520390f35b346114b45760803660031901126114b457613181613436565b90602480359061318f61344c565b9060643567ffffffffffffffff81116114b4576131b0903690600401613470565b9190956009549560ff8760081c166133f357506001600160a01b0390818760101c1696871561026d575f54604080516368fc2b7760e11b815260036004820152336024820152918290604490829088165afa9081156114a9575f916133d3575b50156128ec5760ff16806133bc575b6116c4571692831561026d5784156133775763ffffffff1694851561333257908492916040519384927f6a4bff2300000000000000000000000000000000000000000000000000000000845286600485015283015286604483015260806064830152815f8161329660209b8c97608484019161368b565b03925af19384156114a95785915f956132df575b508492917f554dfed9e991f9e5ac3172a909c508958a35fc35bb05650bd8952f2a5db6c6e091604051908152a4604051908152f35b9450919084813d811161332b575b6132f78183613507565b810103126114b4579251929084907f554dfed9e991f9e5ac3172a909c508958a35fc35bb05650bd8952f2a5db6c6e06132aa565b503d6132ed565b60648260156040519163d647364f60e01b8352602060048401528201527f506f696e74732063616e6e6f74206265207a65726f00000000000000000000006044820152fd5b60648260166040519163d647364f60e01b8352602060048401528201527f4d697373696e6720706f736974696f6e547970654964000000000000000000006044820152fd5b50335f52600860205260ff60405f2054161561321f565b6133ec915060403d604011611703576116f48183613507565b508a613210565b63d647364f60e01b815260206004820152600f60248201527f49737375616e63652070617573656400000000000000000000000000000000006044820152606490fd5b600435906001600160a01b03821682036114b457565b6044359063ffffffff821682036114b457565b359063ffffffff821682036114b457565b9181601f840112156114b45782359167ffffffffffffffff83116114b457602083818601950101116114b457565b90600182811c921680156134cc575b60208310146134b857565b634e487b7160e01b5f52602260045260245ffd5b91607f16916134ad565b610300810190811067ffffffffffffffff821117610e9c57604052565b67ffffffffffffffff8111610e9c57604052565b90601f8019910116810190811067ffffffffffffffff821117610e9c57604052565b9060405191825f825461353b8161349e565b908184526020946001916001811690815f146135a9575060011461356b575b50505061356992500383613507565b565b5f90815285812095935091905b81831061359157505061356993508201015f808061355a565b85548884018501529485019487945091830191613578565b9250505061356994925060ff191682840152151560051b8201015f808061355a565b90600482101561260a5752565b6005111561260a57565b91908251928382525f5b84811061360c575050825f602080949584010152601f8019910116010190565b6020818301810151848301820152016135ec565b6024359081151582036114b457565b6004359081151582036114b457565b359067ffffffffffffffff821682036114b457565b519063ffffffff821682036114b457565b91908260409103126114b457815180151581036114b4576020613688919301613653565b90565b908060209392818452848401375f828201840152601f01601f1916010190565b5f1981146136b95760010190565b634e487b7160e01b5f52601160045260245ffd5b67ffffffffffffffff8111610e9c5760051b60200190565b3563ffffffff811681036114b45790565b903590601e19813603018212156114b4570180359067ffffffffffffffff82116114b4576020019181360383136114b457565b3567ffffffffffffffff811681036114b45790565b9035601e19823603018112156114b457016020813591019167ffffffffffffffff82116114b45781360383136114b457565b60209182825263ffffffff806137858361345f565b16848401528061379685840161345f565b166040840152806137a96040840161345f565b166060840152606082013560048110156114b4576137cb9060808501906135cb565b608082013560a0840152806137e260a0840161345f565b1660c084015260c082013560058110156114b4576137ff816135d8565b60e084015261389261388161387061385f61384e61383d61382c61010060e08a0135818c0152890161345f565b876101209116818b0152880161345f565b866101409116818a0152870161345f565b85610160911681890152860161345f565b84610180911681880152850161345f565b836101a0911681870152840161345f565b826101c0911681860152830161345f565b816101e09116818501528201358015158091036114b4576138bc906102009081860152830161345f565b906102209116818401526102409082013581840152810135916001600160a01b0383168093036114b4576138fd61393e93610260908184015283018361373e565b9261392561391c6103009361028096858888015261032087019161368b565b9482018261373e565b959094601f19966102a09688878403018888015261368b565b93810135601e19823603018112156114b45781019486863596019167ffffffffffffffff928388116114b4578760051b9788360382136114b4577f07ffffffffffffffffffffffffffffffffffffffffffffffffffffffffffffff906102c094888a030185890152808952116114b4576139d392886139c2928b8a0137820161363e565b90836102e09216828701520161363e565b16910152010190565b90600382101561260a5752565b519067ffffffffffffffff821682036114b457565b51906001600160a01b03821682036114b457565b5f915f54916001600160a01b039081841692806004116114b4575f8060409485519060208201957fb700961300000000000000000000000000000000000000000000000000000000875216948560248301523060448301527fffffffff000000000000000000000000000000000000000000000000000000005f351660648301526064825260a082019082821067ffffffffffffffff831117610e9c5787925f928452828052826020525190895afa613bd3575b15613ad5575b50505050505050565b63ffffffff1615613bbd57740100000000000000000000000000000000000000007fffffffffffffffffffffff00ffffffffffffffffffffffffffffffffffffffff809616175f55833b156114b4576064935f928385519687809581947f94c7d7ee00000000000000000000000000000000000000000000000000000000835260048301528860248301528060448301528084848401378181018301849052601f01601f191681010301925af1908115613bb45750613ba1575b5081541690555f808080808080613acc565b613bac9192506134f3565b5f905f613b8f565b513d5f823e3d90fd5b50602491519062d1953b60e31b82526004820152fd5b50505f516020518060201c150290613ac6565b63ffffffff9081613bf6826136e5565b1615613ec757610100810182613c0b826136e5565b1615613e825761012082019083613c21836136e5565b1615613e3d5783613c3b613c3582936136e5565b936136e5565b16911611613dd25781613c5161014083016136e5565b1615613d8d5761271082613c6861018084016136e5565b1611613d4857613c7c6102608201826136f6565b905015613cdd576101a0613c9091016136e5565b1615613c9857565b606460405163d647364f60e01b815260206004820152601e60248201527f436f6f6c646f776e20706572696f642063616e6e6f74206265207a65726f00006044820152fd5b608460405163d647364f60e01b815260206004820152602160248201527f45766964656e63652073706563204349442063616e6e6f7420626520656d707460448201527f79000000000000000000000000000000000000000000000000000000000000006064820152fd5b606460405163d647364f60e01b815260206004820152601d60248201527f536c61736820726174652063616e6e6f742065786365656420313030250000006044820152fd5b606460405163d647364f60e01b815260206004820152601c60248201527f5665726966792077696e646f772063616e6e6f74206265207a65726f000000006044820152fd5b608460405163d647364f60e01b815260206004820152602760248201527f4d696e696d756d206a75726f72732063616e6e6f74206578636565642070616e60448201527f656c2073697a65000000000000000000000000000000000000000000000000006064820152fd5b606460405163d647364f60e01b815260206004820152601960248201527f50616e656c2073697a652063616e6e6f74206265207a65726f000000000000006044820152fd5b606460405163d647364f60e01b815260206004820152601d60248201527f4d696e696d756d206a75726f72732063616e6e6f74206265207a65726f0000006044820152fd5b608460405163d647364f60e01b815260206004820152602560248201527f4d656d62657273686970546f6b656e207265776172642063616e6e6f7420626560448201527f207a65726f0000000000000000000000000000000000000000000000000000006064820152fdfea26469706673582212208e7dcbe31ef9c6b1c3d6e4b0053580957284f3f51e00c15e0d3ac462f43bc64464736f6c63430008180033","linkReferences":{}},"methodIdentifiers":{"activateFromGovernance(uint256,bytes32)":"408a6802","addFounder(address)":"ef4ec047","authority()":"bf7e214f","closePositionToken(uint256,uint8)":"8045303d","communityByActionId(uint256)":"a2e7b04c","communityId()":"7f50861a","communityNarrowingEnabled(uint256)":"9de1e191","communityRegistry()":"a200ac86","deactivate(uint256)":"916b9bef","founderWhitelist(address,uint256)":"e148bb48","getActiveValuableActions()":"3bc87c9c","getCommunityFounders(uint256)":"a8db7912","getValuableAction(uint256)":"5cfdb862","isActive(uint256)":"82afd23b","isCommunityIssuanceModule(uint256,address)":"47573c2b","isConsumingScheduledOp()":"8fb36037","isIssuanceModule(address)":"a90e069e","isModerator(address)":"fa6f3936","isValuableActionActive(uint256)":"e9ea801c","issuancePaused()":"c691af92","issueEngagement(address,uint8,bytes32,bytes)":"71304940","issueInvestment(address,uint256,uint32,bytes)":"4104c3be","issuePosition(address,bytes32,uint32,bytes)":"041848f9","issueRoleFromPosition(address,bytes32,uint32,uint64,uint64,uint8,bytes)":"2f1ec91c","lastId()":"c1292cc3","pendingValuableActions(uint256)":"2262fd9d","proposalRefUsed(bytes32)":"ff3a41ab","proposeValuableAction((uint32,uint32,uint32,uint8,bytes32,uint32,uint8,bytes32,uint32,uint32,uint32,uint32,uint32,uint32,uint32,bool,uint32,uint256,address,string,string,bytes32[],uint64,uint64),bytes32)":"e610e6dd","setAuthority(address)":"7a9e5e4b","setCommunityIssuanceModule(address,bool)":"e08d5b8a","setCommunityNarrowing(bool)":"7d0df1be","setIssuanceModule(address,bool)":"14f1d4f1","setIssuancePaused(bool)":"c6ffb6cb","setModerator(address,bool)":"3ee2b01d","setValuableActionSBT(address)":"ff012a43","update(uint256,(uint32,uint32,uint32,uint8,bytes32,uint32,uint8,bytes32,uint32,uint32,uint32,uint32,uint32,uint32,uint32,bool,uint32,uint256,address,string,string,bytes32[],uint64,uint64))":"6da7a0ba","valuableActionSBT()":"e8901184","valuableActionsById(uint256)":"0c5940fd"},"id":26}