{"abi":[{"type":"constructor","inputs":[{"name":"manager","type":"address","internalType":"address"},{"name":"uri","type":"string","internalType":"string"},{"name":"_communityId","type":"uint256","internalType":"uint256"}],"stateMutability":"nonpayable"},{"type":"function","name":"adminTransfer","inputs":[{"name":"from","type":"address","internalType":"address"},{"name":"to","type":"address","internalType":"address"},{"name":"amount","type":"uint256","internalType":"uint256"},{"name":"reasonCID","type":"string","internalType":"string"}],"outputs":[],"stateMutability":"nonpayable"},{"type":"function","name":"authority","inputs":[],"outputs":[{"name":"","type":"address","internalType":"address"}],"stateMutability":"view"},{"type":"function","name":"balanceOf","inputs":[{"name":"account","type":"address","internalType":"address"},{"name":"id","type":"uint256","internalType":"uint256"}],"outputs":[{"name":"","type":"uint256","internalType":"uint256"}],"stateMutability":"view"},{"type":"function","name":"balanceOfBatch","inputs":[{"name":"accounts","type":"address[]","internalType":"address[]"},{"name":"ids","type":"uint256[]","internalType":"uint256[]"}],"outputs":[{"name":"","type":"uint256[]","internalType":"uint256[]"}],"stateMutability":"view"},{"type":"function","name":"batchBurn","inputs":[{"name":"from","type":"address[]","internalType":"address[]"},{"name":"amounts","type":"uint256[]","internalType":"uint256[]"},{"name":"reasonCID","type":"string","internalType":"string"}],"outputs":[],"stateMutability":"nonpayable"},{"type":"function","name":"batchMint","inputs":[{"name":"to","type":"address[]","internalType":"address[]"},{"name":"amounts","type":"uint256[]","internalType":"uint256[]"},{"name":"reasonCID","type":"string","internalType":"string"}],"outputs":[],"stateMutability":"nonpayable"},{"type":"function","name":"burn","inputs":[{"name":"from","type":"address","internalType":"address"},{"name":"amount","type":"uint256","internalType":"uint256"},{"name":"reasonCID","type":"string","internalType":"string"}],"outputs":[],"stateMutability":"nonpayable"},{"type":"function","name":"communityId","inputs":[],"outputs":[{"name":"","type":"uint256","internalType":"uint256"}],"stateMutability":"view"},{"type":"function","name":"communityInitialized","inputs":[],"outputs":[{"name":"","type":"bool","internalType":"bool"}],"stateMutability":"view"},{"type":"function","name":"getCommunityStats","inputs":[],"outputs":[{"name":"totalVerifiers","type":"uint256","internalType":"uint256"},{"name":"totalPower","type":"uint256","internalType":"uint256"},{"name":"averagePower","type":"uint256","internalType":"uint256"}],"stateMutability":"view"},{"type":"function","name":"getCommunityVerifiers","inputs":[{"name":"","type":"uint256","internalType":"uint256"},{"name":"","type":"uint256","internalType":"uint256"},{"name":"","type":"uint256","internalType":"uint256"}],"outputs":[{"name":"verifiers","type":"address[]","internalType":"address[]"},{"name":"powers","type":"uint256[]","internalType":"uint256[]"},{"name":"hasMore","type":"bool","internalType":"bool"}],"stateMutability":"pure"},{"type":"function","name":"hasVerifierPower","inputs":[{"name":"account","type":"address","internalType":"address"}],"outputs":[{"name":"","type":"bool","internalType":"bool"}],"stateMutability":"view"},{"type":"function","name":"initializeCommunity","inputs":[{"name":"metadataURI","type":"string","internalType":"string"}],"outputs":[],"stateMutability":"nonpayable"},{"type":"function","name":"isApprovedForAll","inputs":[{"name":"account","type":"address","internalType":"address"},{"name":"operator","type":"address","internalType":"address"}],"outputs":[{"name":"","type":"bool","internalType":"bool"}],"stateMutability":"view"},{"type":"function","name":"isConsumingScheduledOp","inputs":[],"outputs":[{"name":"","type":"bytes4","internalType":"bytes4"}],"stateMutability":"view"},{"type":"function","name":"mint","inputs":[{"name":"to","type":"address","internalType":"address"},{"name":"amount","type":"uint256","internalType":"uint256"},{"name":"reasonCID","type":"string","internalType":"string"}],"outputs":[],"stateMutability":"nonpayable"},{"type":"function","name":"safeBatchTransferFrom","inputs":[{"name":"","type":"address","internalType":"address"},{"name":"","type":"address","internalType":"address"},{"name":"","type":"uint256[]","internalType":"uint256[]"},{"name":"","type":"uint256[]","internalType":"uint256[]"},{"name":"","type":"bytes","internalType":"bytes"}],"outputs":[],"stateMutability":"nonpayable"},{"type":"function","name":"safeTransferFrom","inputs":[{"name":"","type":"address","internalType":"address"},{"name":"","type":"address","internalType":"address"},{"name":"","type":"uint256","internalType":"uint256"},{"name":"","type":"uint256","internalType":"uint256"},{"name":"","type":"bytes","internalType":"bytes"}],"outputs":[],"stateMutability":"nonpayable"},{"type":"function","name":"setApprovalForAll","inputs":[{"name":"operator","type":"address","internalType":"address"},{"name":"approved","type":"bool","internalType":"bool"}],"outputs":[],"stateMutability":"nonpayable"},{"type":"function","name":"setAuthority","inputs":[{"name":"newAuthority","type":"address","internalType":"address"}],"outputs":[],"stateMutability":"nonpayable"},{"type":"function","name":"setURI","inputs":[{"name":"newURI","type":"string","internalType":"string"}],"outputs":[],"stateMutability":"nonpayable"},{"type":"function","name":"supportsInterface","inputs":[{"name":"interfaceId","type":"bytes4","internalType":"bytes4"}],"outputs":[{"name":"","type":"bool","internalType":"bool"}],"stateMutability":"view"},{"type":"function","name":"totalSupply","inputs":[],"outputs":[{"name":"","type":"uint256","internalType":"uint256"}],"stateMutability":"view"},{"type":"function","name":"uri","inputs":[{"name":"","type":"uint256","internalType":"uint256"}],"outputs":[{"name":"","type":"string","internalType":"string"}],"stateMutability":"view"},{"type":"event","name":"ApprovalForAll","inputs":[{"name":"account","type":"address","indexed":true,"internalType":"address"},{"name":"operator","type":"address","indexed":true,"internalType":"address"},{"name":"approved","type":"bool","indexed":false,"internalType":"bool"}],"anonymous":false},{"type":"event","name":"AuthorityUpdated","inputs":[{"name":"authority","type":"address","indexed":false,"internalType":"address"}],"anonymous":false},{"type":"event","name":"CommunityInitialized","inputs":[{"name":"communityId","type":"uint256","indexed":true,"internalType":"uint256"},{"name":"metadataURI","type":"string","indexed":false,"internalType":"string"}],"anonymous":false},{"type":"event","name":"TransferBatch","inputs":[{"name":"operator","type":"address","indexed":true,"internalType":"address"},{"name":"from","type":"address","indexed":true,"internalType":"address"},{"name":"to","type":"address","indexed":true,"internalType":"address"},{"name":"ids","type":"uint256[]","indexed":false,"internalType":"uint256[]"},{"name":"values","type":"uint256[]","indexed":false,"internalType":"uint256[]"}],"anonymous":false},{"type":"event","name":"TransferSingle","inputs":[{"name":"operator","type":"address","indexed":true,"internalType":"address"},{"name":"from","type":"address","indexed":true,"internalType":"address"},{"name":"to","type":"address","indexed":true,"internalType":"address"},{"name":"id","type":"uint256","indexed":false,"internalType":"uint256"},{"name":"value","type":"uint256","indexed":false,"internalType":"uint256"}],"anonymous":false},{"type":"event","name":"URI","inputs":[{"name":"value","type":"string","indexed":false,"internalType":"string"},{"name":"id","type":"uint256","indexed":true,"internalType":"uint256"}],"anonymous":false},{"type":"event","name":"VerifierGranted","inputs":[{"name":"to","type":"address","indexed":true,"internalType":"address"},{"name":"communityId","type":"uint256","indexed":true,"internalType":"uint256"},{"name":"amount","type":"uint256","indexed":false,"internalType":"uint256"},{"name":"reasonCID","type":"string","indexed":false,"internalType":"string"}],"anonymous":false},{"type":"event","name":"VerifierRevoked","inputs":[{"name":"from","type":"address","indexed":true,"internalType":"address"},{"name":"communityId","type":"uint256","indexed":true,"internalType":"uint256"},{"name":"amount","type":"uint256","indexed":false,"internalType":"uint256"},{"name":"reasonCID","type":"string","indexed":false,"internalType":"string"}],"anonymous":false},{"type":"error","name":"AccessManagedInvalidAuthority","inputs":[{"name":"authority","type":"address","internalType":"address"}]},{"type":"error","name":"AccessManagedRequiredDelay","inputs":[{"name":"caller","type":"address","internalType":"address"},{"name":"delay","type":"uint32","internalType":"uint32"}]},{"type":"error","name":"AccessManagedUnauthorized","inputs":[{"name":"caller","type":"address","internalType":"address"}]},{"type":"error","name":"CommunityNotInitialized","inputs":[{"name":"communityId","type":"uint256","internalType":"uint256"}]},{"type":"error","name":"ERC1155InsufficientBalance","inputs":[{"name":"sender","type":"address","internalType":"address"},{"name":"balance","type":"uint256","internalType":"uint256"},{"name":"needed","type":"uint256","internalType":"uint256"},{"name":"tokenId","type":"uint256","internalType":"uint256"}]},{"type":"error","name":"ERC1155InvalidApprover","inputs":[{"name":"approver","type":"address","internalType":"address"}]},{"type":"error","name":"ERC1155InvalidArrayLength","inputs":[{"name":"idsLength","type":"uint256","internalType":"uint256"},{"name":"valuesLength","type":"uint256","internalType":"uint256"}]},{"type":"error","name":"ERC1155InvalidOperator","inputs":[{"name":"operator","type":"address","internalType":"address"}]},{"type":"error","name":"ERC1155InvalidReceiver","inputs":[{"name":"receiver","type":"address","internalType":"address"}]},{"type":"error","name":"ERC1155InvalidSender","inputs":[{"name":"sender","type":"address","internalType":"address"}]},{"type":"error","name":"ERC1155MissingApprovalForAll","inputs":[{"name":"operator","type":"address","internalType":"address"},{"name":"owner","type":"address","internalType":"address"}]},{"type":"error","name":"InsufficientBalance","inputs":[{"name":"account","type":"address","internalType":"address"},{"name":"communityId","type":"uint256","internalType":"uint256"},{"name":"required","type":"uint256","internalType":"uint256"},{"name":"available","type":"uint256","internalType":"uint256"}]},{"type":"error","name":"InvalidAmount","inputs":[{"name":"amount","type":"uint256","internalType":"uint256"}]},{"type":"error","name":"InvalidInput","inputs":[{"name":"reason","type":"string","internalType":"string"}]},{"type":"error","name":"TransfersDisabled","inputs":[]},{"type":"error","name":"ZeroAddress","inputs":[]}],"bytecode":{"object":"0x604060a08152346200030b5762002639803803806200001e816200030f565b92833981016060828203126200030b5781516001600160a01b038116908190036200030b576020838101519092906001600160401b03908181116200030b57850191601f958187850112156200030b578351838111620002df57601f19946200008d828a01871689016200030f565b938285528883830101116200030b5789929188915f5b828110620002f3575050905f91850101520151958151928311620002df57600254916001928381811c91168015620002d4575b88821014620002c05782811162000277575b50869184116001146200021357839450908392915f9462000207575b50501b915f199060031b1c1916176002555b600380546001600160a01b0319168217905583518181527f2f658b440c35314f52658ea8a740e05b284cdc84dc9ae01e891f21b8933e7cad908390a115620001f6578115620001b2575060805251612303908162000336823960805181818161046501528181610697015281816108a501528181610cc901528181610e1d015281816110090152818161113901528181611321015261148b0152f35b60649083519063d647364f60e01b82526004820152601360248201527f496e76616c696420636f6d6d756e6974794964000000000000000000000000006044820152fd5b825163d92e233d60e01b8152600490fd5b015192505f8062000104565b919383169160025f5283875f20935f5b89888383106200025f575050501062000246575b505050811b0160025562000116565b01515f1960f88460031b161c191690555f808062000237565b86860151885590960195948501948793500162000223565b60025f52875f208380870160051c8201928a8810620002b6575b0160051c019084905b828110620002aa575050620000e8565b5f81550184906200029a565b9250819262000291565b634e487b7160e01b5f52602260045260245ffd5b90607f1690620000d6565b634e487b7160e01b5f52604160045260245ffd5b8181018401518782018501528c95508a9301620000a3565b5f80fd5b6040519190601f01601f191682016001600160401b03811183821017620002df5760405256fe60806040526004361015610011575f80fd5b5f3560e01c8062fdd58e1461019357806301ffc9a71461018e57806302fe53051461018957806309b2c748146101845780630e89341c1461017f57806315f570dc1461017a57806318160ddd146101755780631fa0850c146101705780632eb2c2d61461016b57806337f9fbdd146101665780634e1273f4146101615780637120f9af1461015c5780637a9e5e4b146101575780637f50861a146101525780638fb360371461014d57806393b293241461014857806395b1f41814610143578063a22cb4651461013e578063bf7e214f14610139578063c075e3dd14610134578063d3fc98641461012f578063e985e9c51461012a578063f242432a146101255763f8cd5ff114610120575f80fd5b611410565b6113b7565b611351565b6112a6565b61127d565b611257565b611182565b611115565b611088565b61102c565b610ff2565b610f69565b610f47565b610e8a565b610c85565b610c05565b610879565b6107c9565b610663565b610550565b610433565b610323565b61020c565b6101ad565b6001600160a01b038116036101a957565b5f80fd5b346101a95760403660031901126101a95760206101f16004356101cf81610198565b6024355f525f835260405f20906001600160a01b03165f5260205260405f2090565b54604051908152f35b6001600160e01b03198116036101a957565b346101a95760203660031901126101a95760206001600160e01b0319600435610234816101fa565b167fd9b67a2600000000000000000000000000000000000000000000000000000000811490811561029c575b8115610272575b506040519015158152f35b7f01ffc9a7000000000000000000000000000000000000000000000000000000009150145f610267565b7f0e89341c0000000000000000000000000000000000000000000000000000000081149150610260565b9181601f840112156101a95782359167ffffffffffffffff83116101a957602083818601950101116101a957565b60206003198201126101a9576004359067ffffffffffffffff82116101a95761031f916004016102c6565b9091565b346101a957610345610334366102f4565b61033e36336117bd565b3691610bb4565b805167ffffffffffffffff811161042e5761036a816103656002546115cc565b6118ec565b602080601f83116001146103aa5750819061039a935f9261039f575b50508160011b915f199060031b1c19161790565b600255005b015190505f80610386565b90601f198316936103dc60025f527f405787fa12a823e0f2b7631cc41b3ba8828b3321ca811111fa75cd3aa3bb5ace90565b925f905b86821061041657505083600195106103fe575b505050811b01600255005b01515f1960f88460031b161c191690555f80806103f3565b806001859682949686015181550195019301906103e0565b610aba565b346101a957610441366102f4565b61044b36336117bd565b60055460ff81166104b95760ff19166001176005556040517f0000000000000000000000000000000000000000000000000000000000000000927f188d94d10b41b30d4bc3d32e8445c0e311200d4bbdfddbd3f5215c7b412cb9999282916104b4919083611959565b0390a2005b606460405163d647364f60e01b815260206004820152601d60248201527f436f6d6d756e69747920616c726561647920696e697469616c697a65640000006044820152fd5b91908251928382525f5b848110610528575050825f602080949584010152601f8019910116010190565b602081830181015184830182015201610508565b90602061054d9281815201906104fe565b90565b346101a9576020806003193601126101a9576040515f91600254610573816115cc565b8084529060019081811690811561060757506001146105ad575b6105a98461059d81880382610afe565b6040519182918261053c565b0390f35b60025f9081529294507f405787fa12a823e0f2b7631cc41b3ba8828b3321ca811111fa75cd3aa3bb5ace5b8284106105f457505050816105a99361059d928201019361058d565b80548585018701529285019281016105d8565b60ff1916858501525050151560051b820101915061059d816105a961058d565b60606003198201126101a95760043561063f81610198565b91602435916044359067ffffffffffffffff82116101a95761031f916004016102c6565b346101a95761067136610627565b92919061067e36336117bd565b6001600160a01b03831691821561079557801561077b577f000000000000000000000000000000000000000000000000000000000000000094856106e3866106cd835f525f60205260405f2090565b906001600160a01b03165f5260205260405f2090565b548381106107425750906107318361073d937f70f4eb073b42e2d387217545c289bbf84ce98cf1c596d43186b00f850f6cd3a5979861072c6107278460045461196a565b600455565b611ac9565b6040519384938461197c565b0390a3005b60405163670f004560e01b81526001600160a01b03881660048201526024810192909252604482018490526064820152608490fd5b0390fd5b604051633728b83d60e01b81526004810191909152602490fd5b60046040517fd92e233d000000000000000000000000000000000000000000000000000000008152fd5b5f9103126101a957565b346101a9575f3660031901126101a9576020600454604051908152f35b9181601f840112156101a95782359167ffffffffffffffff83116101a9576020808501948460051b0101116101a957565b9060606003198301126101a95767ffffffffffffffff6004358181116101a95783610844916004016107e6565b939093926024358381116101a9578261085f916004016107e6565b939093926044359182116101a95761031f916004016102c6565b346101a95761088736610817565b94919261089436336117bd565b838503610a7457949392905f955f957f0000000000000000000000000000000000000000000000000000000000000000935b8688106108de576108dc6107278a60045461196a565b005b90919293949596976109086108fc6108f78b8b8b611993565b6119a3565b6001600160a01b031690565b1561079557610918898386611993565b3515610a4857610935866109306108f78c8c8c611993565b6115a4565b6109408a8487611993565b3581106109ed57506109606001916109598b8588611993565b35906119ad565b986109856109726108f7838c8c611993565b8861097e84878a611993565b3591611ac9565b866109946108f7838c8c611993565b7f70f4eb073b42e2d387217545c289bbf84ce98cf1c596d43186b00f850f6cd3a56001600160a01b036109c885888b611993565b35926109dd898c60405194859416968461197c565b0390a301969594939291906108c6565b84915061077790610a0e8b8995610a086108f7838f8f611993565b95611993565b3560405194859463670f004560e01b865260048601909493926060926001600160a01b036080840197168352602083015260408201520152565b610777610a568a8487611993565b604051633728b83d60e01b8152903560048201529081906024820190565b60405163d647364f60e01b815260206004820152601560248201527f4172726179206c656e677468206d69736d6174636800000000000000000000006044820152606490fd5b634e487b7160e01b5f52604160045260245ffd5b67ffffffffffffffff811161042e57604052565b6020810190811067ffffffffffffffff82111761042e57604052565b90601f8019910116810190811067ffffffffffffffff82111761042e57604052565b67ffffffffffffffff811161042e5760051b60200190565b9080601f830112156101a9576020908235610b5281610b20565b93610b606040519586610afe565b81855260208086019260051b8201019283116101a957602001905b828210610b89575050505090565b81358152908301908301610b7b565b67ffffffffffffffff811161042e57601f01601f191660200190565b929192610bc082610b98565b91610bce6040519384610afe565b8294818452818301116101a9578281602093845f960137010152565b9080601f830112156101a95781602061054d93359101610bb4565b346101a95760a03660031901126101a957610c21600435610198565b610c2c602435610198565b67ffffffffffffffff6044358181116101a957610c4d903690600401610b38565b506064358181116101a957610c66903690600401610b38565b506084359081116101a957610c7f903690600401610bea565b50611604565b346101a957610c9336610817565b94919392610ca136336117bd565b848403610a7457610cbb610cb760055460ff1690565b1590565b610df557949392905f955f957f0000000000000000000000000000000000000000000000000000000000000000935b808810610d00576108dc6107278a6004546119ad565b9091929394959697610d196108fc6108f78b858b611993565b1561079557610d29898986611993565b3515610de757610d3a898986611993565b35610d44916119ad565b97610d50818389611993565b610d59906119a3565b86610d65838b88611993565b35610d6e6119ba565b91610d7893611c6e565b858584610d8684868c611993565b610d8f906119a3565b610d9a858d8a611993565b35604051926001600160a01b0384931694610db5928461197c565b037e38c3a83bf06ac39b57ba6d1fff5afed0e2ece59a60b7801a809998963885fc91a360010196959493929190610cea565b610777610a568a8a87611993565b6040517fe533a0fb0000000000000000000000000000000000000000000000000000000081527f00000000000000000000000000000000000000000000000000000000000000006004820152602490fd5b9081518082526020808093019301915f5b828110610e65575050505090565b835185529381019392810192600101610e57565b90602061054d928181520190610e46565b346101a95760403660031901126101a95760043567ffffffffffffffff8082116101a957366023830112156101a9578160040135610ec781610b20565b92610ed56040519485610afe565b8184526020916024602086019160051b830101913683116101a957602401905b828210610f2e57856024358681116101a9576105a991610f1c610f22923690600401610b38565b90611671565b60405191829182610e79565b8380918335610f3c81610198565b815201910190610ef5565b346101a9575f3660031901126101a957602060ff600554166040519015158152f35b346101a95760203660031901126101a957600435610f8681610198565b6001600160a01b039081600354163303610fdc57803b15610faa576108dc906119cc565b602491604051917fc2f31e5e000000000000000000000000000000000000000000000000000000008352166004820152fd5b602460405162d1953b60e31b8152336004820152fd5b346101a9575f3660031901126101a95760206040517f00000000000000000000000000000000000000000000000000000000000000008152f35b346101a9575f3660031901126101a95760035460a01c60ff16156110805760207f8fb36037000000000000000000000000000000000000000000000000000000005b6001600160e01b031960405191168152f35b60205f61106e565b346101a95760603660031901126101a9576040516110a581610ae2565b5f815260206110b2611615565b604051928391606083016060845282518091526020608085019301945f5b8281106110f55785806110eb87878382036020850152610e46565b5f60408301520390f35b86516001600160a01b0316855295810195879550938101936001016110d0565b346101a95760203660031901126101a957602061117760043561113781610198565b7f00000000000000000000000000000000000000000000000000000000000000005f525f835260405f20906001600160a01b03165f5260205260405f2090565b541515604051908152f35b346101a95760403660031901126101a95760043561119f81610198565b60243590811515908183036101a9576001600160a01b038116928315611227576111e86111f992335f52600160205260405f20906001600160a01b03165f5260205260405f2090565b9060ff801983541691151516179055565b6040519081527f17307eab39ab6107e8899845ad3d59bd9653f200f220920489ca2b5937696c3160203392a3005b60246040517fced3e1000000000000000000000000000000000000000000000000000000000081525f6004820152fd5b346101a9575f3660031901126101a95760206001600160a01b0360035416604051908152f35b346101a9575f3660031901126101a9576060600454604051905f825260208201525f6040820152f35b346101a9576112b436610627565b906112bf36336117bd565b6001600160a01b03841692831561079557801561077b576112e5610cb760055460ff1690565b610df55761073d7e38c3a83bf06ac39b57ba6d1fff5afed0e2ece59a60b7801a809998963885fc9361131c610727846004546119ad565b6107317f000000000000000000000000000000000000000000000000000000000000000097848961134b6119ba565b92611c6e565b346101a95760403660031901126101a957602060ff6113ab60043561137581610198565b6001600160a01b036024359161138a83610198565b165f526001845260405f20906001600160a01b03165f5260205260405f2090565b54166040519015158152f35b346101a95760a03660031901126101a9576113d3600435610198565b6113de602435610198565b60843567ffffffffffffffff81116101a9576113fe903690600401610bea565b506004604051638574adcf60e01b8152fd5b346101a95760803660031901126101a95760043561142d81610198565b6024359061143a82610198565b60443560643567ffffffffffffffff81116101a95761145d9036906004016102c6565b909361146936336117bd565b6001600160a01b0391828516958615801561159a575b610795578415611581577f000000000000000000000000000000000000000000000000000000000000000080976114c1886106cd845f525f60205260405f2090565b5487811061154a57509061073d93929161150788997e38c3a83bf06ac39b57ba6d1fff5afed0e2ece59a60b7801a809998963885fc9984896115016119ba565b93611dc7565b6040517f70f4eb073b42e2d387217545c289bbf84ce98cf1c596d43186b00f850f6cd3a5908061153987878e8461197c565b0390a360405194859416968461197c565b60405163670f004560e01b81526001600160a01b038a16600482015260248101849052604481018990526064810191909152608490fd5b604051633728b83d60e01b815260048101869052602490fd5b508383161561147f565b6115c8915f525f60205260405f20906001600160a01b03165f5260205260405f2090565b5490565b90600182811c921680156115fa575b60208310146115e657565b634e487b7160e01b5f52602260045260245ffd5b91607f16916115db565b6004604051638574adcf60e01b8152fd5b60405161162181610ae2565b5f8152905f368137565b9061163582610b20565b6116426040519182610afe565b8281528092611653601f1991610b20565b0190602036910137565b634e487b7160e01b5f52603260045260245ffd5b9190825181518082036116d357505061168a835161162b565b925f5b81518110156116ce578060051b9060206116b2818486010151828588010151906115a4565b9087518310156116c957600193880101520161168d565b61165d565b505050565b6040517f5b05999100000000000000000000000000000000000000000000000000000000815260048101919091526024810191909152604490fd5b634e487b7160e01b5f52601160045260245ffd5b6004116101a9575f90600490565b6001600160e01b0319903581811693926004811061174d57505050565b60040360031b82901b16169150565b908060209392818452848401375f828201840152601f01601f1916010190565b90916001600160a01b0360609316825260406020830152806040830152805f848401375f828201840152601f01601f1916010190565b6040513d5f823e3d90fd5b6117ed6117d26003546001600160a01b031690565b6117e46117de85611722565b90611730565b90833091611a2c565b90156117f857505050565b63ffffffff16156118ca5761182c7401000000000000000000000000000000000000000060ff60a01b196003541617600355565b6118446108fc6108fc6003546001600160a01b031690565b91823b156101a957611888925f92836040518096819582947f94c7d7ee0000000000000000000000000000000000000000000000000000000084526004840161177c565b03925af180156118c5576118ac575b506118aa60ff60a01b1960035416600355565b565b806118b96118bf92610ace565b806107bf565b5f611897565b6117b2565b60405162d1953b60e31b81526001600160a01b03919091166004820152602490fd5b601f81116118f8575050565b60025f527f405787fa12a823e0f2b7631cc41b3ba8828b3321ca811111fa75cd3aa3bb5ace906020601f840160051c8301931061194f575b601f0160051c01905b818110611944575050565b5f8155600101611939565b9091508190611930565b91602061054d93818152019161175c565b9190820391821161197757565b61170e565b60409061054d94928152816020820152019161175c565b91908110156116c95760051b0190565b3561054d81610198565b9190820180921161197757565b604051906119c782610ae2565b5f8252565b60206001600160a01b037f2f658b440c35314f52658ea8a740e05b284cdc84dc9ae01e891f21b8933e7cad9216807fffffffffffffffffffffffff00000000000000000000000000000000000000006003541617600355604051908152a1565b93915f946001600160e01b03195f956040519460208601947fb70096130000000000000000000000000000000000000000000000000000000086526001600160a01b0380921660248801521660448601521660648401526064835260a083019183831067ffffffffffffffff84111761042e576040935f9385528380528360205251915afa611ab757565b9150505f51906020518060201c150290565b906001600160a01b038216928315611c3e57611b0260405192600184526020840152604083019160018352606084015260808301604052565b91906040945f604051611b1481610ae2565b5281518451908181036116d35750505f5b8251811015611bb5578060051b60208082860101519187010151611b54866106cd845f525f60205260405f2090565b54818110611b7f57866106cd6001959493611b789303935f525f60205260405f2090565b5501611b25565b89516303dee4c560e01b81526001600160a01b038816600482015260248101919091526044810182905260648101839052608490fd5b5094505f9392915060018151148414611c0b5760209081015191810151604080519384529183015233917fc3d58168c5ae7397731d063d5bbf3d657854427343f4c083240f7aacaa2d0f6291819081015b0390a4565b60405133927f4a39dc06d4c0dbc64b70af90fd698a233a518aa5d07e595d983b8c0526c8f7fb928291611c069183611f80565b60246040517f01a835140000000000000000000000000000000000000000000000000000000081525f6004820152fd5b909291926001600160a01b038216938415611db057611caa60405192600184526020840152604083019160018352606084015260808301604052565b9281518451908181036116d35750505f5b8251811015611d00578060019160051b611cf8611cf0876106cd602080868b010151958c010151945f525f60205260405f2090565b9182546119ad565b905501611cbb565b5092919360018251145f14611d75576020828101518482015160408051928352928201525f9133917fc3d58168c5ae7397731d063d5bbf3d657854427343f4c083240f7aacaa2d0f629190a45b8051600103611d6b57906020806118aa959301519101519133612261565b6118aa9333612067565b5f6040517f4a39dc06d4c0dbc64b70af90fd698a233a518aa5d07e595d983b8c0526c8f7fb339180611da8888883611f80565b0390a4611d4d565b6024604051632bfa23e760e11b81525f6004820152fd5b92939190946001600160a01b0391828716928315611db0578516958615611c3e57611e0f60405192600184526020840152604083019160018352606084015260808301604052565b93909283518551908181036116d35750505f5b8451811015611ecf578060051b6020808288010151918801015190611e52896106cd835f525f60205260405f2090565b54828110611e9857611cf08c6106cd85948d611e8260019998611e909703916106cd845f525f60205260405f2090565b555f525f60205260405f2090565b905501611e22565b6040516303dee4c560e01b81526001600160a01b038b16600482015260248101919091526044810183905260648101829052608490fd5b50909493929596919660018751145f14611f465760208781015185820151604080519283529282015233917fc3d58168c5ae7397731d063d5bbf3d657854427343f4c083240f7aacaa2d0f6291a45b8451600103611f3a576020806118aa9601519201519233612296565b6118aa94919233612161565b6040517f4a39dc06d4c0dbc64b70af90fd698a233a518aa5d07e595d983b8c0526c8f7fb339180611f78888c83611f80565b0390a4611f1e565b9091611f9761054d93604084526040840190610e46565b916020818403910152610e46565b908160209103126101a9575161054d816101fa565b92611fe961054d95936001600160a01b03611ff7941686525f602087015260a0604087015260a0860190610e46565b908482036060860152610e46565b9160808184039101526104fe565b939061054d9593611fe991611ff7946001600160a01b03809216885216602087015260a0604087015260a0860190610e46565b3d15612062573d9061204982610b98565b916120576040519384610afe565b82523d5f602084013e565b606090565b9293919093843b61207a575b5050505050565b60209161209d604051948593849363bc197c8160e01b9889865260048601611fba565b03815f6001600160a01b0388165af15f9181612130575b506120f357826120c2612038565b80519190826120ec57604051632bfa23e760e11b81526001600160a01b0383166004820152602490fd5b6020915001fd5b6001600160e01b0319160361210d57505f80808080612073565b604051632bfa23e760e11b81526001600160a01b03919091166004820152602490fd5b61215391925060203d60201161215a575b61214b8183610afe565b810190611fa5565b905f6120b4565b503d612141565b939290949194853b612176575b505050505050565b612199602093604051958694859463bc197c8160e01b998a875260048701612005565b03815f6001600160a01b0388165af15f91816121d9575b506121be57826120c2612038565b6001600160e01b0319160361210d57505f808080808061216e565b6121f391925060203d60201161215a5761214b8183610afe565b905f6121b0565b909260a0926001600160a01b0361054d96951683525f60208401526040830152606082015281608082015201906104fe565b919261054d95949160a0946001600160a01b0380921685521660208401526040830152606082015281608082015201906104fe565b9293919093843b612273575050505050565b60209161209d604051948593849363f23a6e6160e01b98898652600486016121fa565b939290949194853b6122aa57505050505050565b612199602093604051958694859463f23a6e6160e01b998a87526004870161222c56fea2646970667358221220c3c44bc7742ecc3f472dc1d93930ed303fe5262411a5a8337437f5703167a05264736f6c63430008180033","linkReferences":{}},"methodIdentifiers":{"adminTransfer(address,address,uint256,string)":"f8cd5ff1","authority()":"bf7e214f","balanceOf(address,uint256)":"00fdd58e","balanceOfBatch(address[],uint256[])":"4e1273f4","batchBurn(address[],uint256[],string)":"1fa0850c","batchMint(address[],uint256[],string)":"37f9fbdd","burn(address,uint256,string)":"15f570dc","communityId()":"7f50861a","communityInitialized()":"7120f9af","getCommunityStats()":"c075e3dd","getCommunityVerifiers(uint256,uint256,uint256)":"93b29324","hasVerifierPower(address)":"95b1f418","initializeCommunity(string)":"09b2c748","isApprovedForAll(address,address)":"e985e9c5","isConsumingScheduledOp()":"8fb36037","mint(address,uint256,string)":"d3fc9864","safeBatchTransferFrom(address,address,uint256[],uint256[],bytes)":"2eb2c2d6","safeTransferFrom(address,address,uint256,uint256,bytes)":"f242432a","setApprovalForAll(address,bool)":"a22cb465","setAuthority(address)":"7a9e5e4b","setURI(string)":"02fe5305","supportsInterface(bytes4)":"01ffc9a7","totalSupply()":"18160ddd","uri(uint256)":"0e89341c"},"id":45}