{"abi":[{"type":"constructor","inputs":[{"name":"_verifierElection","type":"address","internalType":"address"},{"name":"_paramController","type":"address","internalType":"address"},{"name":"_governance","type":"address","internalType":"address"}],"stateMutability":"nonpayable"},{"type":"function","name":"MAX_WEIGHT_PER_VERIFIER","inputs":[],"outputs":[{"name":"","type":"bytes32","internalType":"bytes32"}],"stateMutability":"view"},{"type":"function","name":"USE_VPT_WEIGHTING","inputs":[],"outputs":[{"name":"","type":"bytes32","internalType":"bytes32"}],"stateMutability":"view"},{"type":"function","name":"VERIFIER_MIN","inputs":[],"outputs":[{"name":"","type":"bytes32","internalType":"bytes32"}],"stateMutability":"view"},{"type":"function","name":"VERIFIER_PANEL_SIZE","inputs":[],"outputs":[{"name":"","type":"bytes32","internalType":"bytes32"}],"stateMutability":"view"},{"type":"function","name":"claimsContract","inputs":[],"outputs":[{"name":"","type":"address","internalType":"address"}],"stateMutability":"view"},{"type":"function","name":"getEligibleVerifierCount","inputs":[{"name":"communityId","type":"uint256","internalType":"uint256"}],"outputs":[{"name":"","type":"uint256","internalType":"uint256"}],"stateMutability":"view"},{"type":"function","name":"getJurorSelection","inputs":[{"name":"claimId","type":"uint256","internalType":"uint256"}],"outputs":[{"name":"selection","type":"tuple","internalType":"struct VerifierManager.JurorSelection","components":[{"name":"selectedJurors","type":"address[]","internalType":"address[]"},{"name":"selectedPowers","type":"uint256[]","internalType":"uint256[]"},{"name":"seed","type":"uint256","internalType":"uint256"},{"name":"selectedAt","type":"uint64","internalType":"uint64"},{"name":"completed","type":"bool","internalType":"bool"}]}],"stateMutability":"view"},{"type":"function","name":"getSelectedJurors","inputs":[{"name":"claimId","type":"uint256","internalType":"uint256"}],"outputs":[{"name":"jurors","type":"address[]","internalType":"address[]"},{"name":"powers","type":"uint256[]","internalType":"uint256[]"}],"stateMutability":"view"},{"type":"function","name":"getVerifierPower","inputs":[{"name":"verifier","type":"address","internalType":"address"},{"name":"communityId","type":"uint256","internalType":"uint256"}],"outputs":[{"name":"power","type":"uint256","internalType":"uint256"}],"stateMutability":"view"},{"type":"function","name":"governance","inputs":[],"outputs":[{"name":"","type":"address","internalType":"address"}],"stateMutability":"view"},{"type":"function","name":"hasVerifierPower","inputs":[{"name":"verifier","type":"address","internalType":"address"},{"name":"communityId","type":"uint256","internalType":"uint256"}],"outputs":[{"name":"","type":"bool","internalType":"bool"}],"stateMutability":"view"},{"type":"function","name":"paramController","inputs":[],"outputs":[{"name":"","type":"address","internalType":"contract IParamController"}],"stateMutability":"view"},{"type":"function","name":"reportFraud","inputs":[{"name":"claimId","type":"uint256","internalType":"uint256"},{"name":"communityId","type":"uint256","internalType":"uint256"},{"name":"offenders","type":"address[]","internalType":"address[]"},{"name":"evidenceCID","type":"string","internalType":"string"}],"outputs":[],"stateMutability":"nonpayable"},{"type":"function","name":"selectJurors","inputs":[{"name":"claimId","type":"uint256","internalType":"uint256"},{"name":"communityId","type":"uint256","internalType":"uint256"},{"name":"panelSize","type":"uint256","internalType":"uint256"},{"name":"seed","type":"uint256","internalType":"uint256"},{"name":"useWeighting","type":"bool","internalType":"bool"}],"outputs":[{"name":"selectedJurors","type":"address[]","internalType":"address[]"}],"stateMutability":"nonpayable"},{"type":"function","name":"selections","inputs":[{"name":"","type":"uint256","internalType":"uint256"}],"outputs":[{"name":"seed","type":"uint256","internalType":"uint256"},{"name":"selectedAt","type":"uint64","internalType":"uint64"},{"name":"completed","type":"bool","internalType":"bool"}],"stateMutability":"view"},{"type":"function","name":"setClaimsContract","inputs":[{"name":"_claimsContract","type":"address","internalType":"address"}],"outputs":[],"stateMutability":"nonpayable"},{"type":"function","name":"verifierElection","inputs":[],"outputs":[{"name":"","type":"address","internalType":"contract IVerifierElection"}],"stateMutability":"view"},{"type":"event","name":"ClaimsContractUpdated","inputs":[{"name":"oldClaims","type":"address","indexed":false,"internalType":"address"},{"name":"newClaims","type":"address","indexed":false,"internalType":"address"}],"anonymous":false},{"type":"event","name":"FraudReported","inputs":[{"name":"claimId","type":"uint256","indexed":true,"internalType":"uint256"},{"name":"communityId","type":"uint256","indexed":true,"internalType":"uint256"},{"name":"offenders","type":"address[]","indexed":false,"internalType":"address[]"},{"name":"evidenceCID","type":"string","indexed":false,"internalType":"string"}],"anonymous":false},{"type":"event","name":"JurorsSelected","inputs":[{"name":"claimId","type":"uint256","indexed":true,"internalType":"uint256"},{"name":"communityId","type":"uint256","indexed":true,"internalType":"uint256"},{"name":"jurors","type":"address[]","indexed":false,"internalType":"address[]"},{"name":"powers","type":"uint256[]","indexed":false,"internalType":"uint256[]"},{"name":"seed","type":"uint256","indexed":false,"internalType":"uint256"},{"name":"weighted","type":"bool","indexed":false,"internalType":"bool"}],"anonymous":false},{"type":"error","name":"InsufficientVerifiers","inputs":[{"name":"available","type":"uint256","internalType":"uint256"},{"name":"required","type":"uint256","internalType":"uint256"}]},{"type":"error","name":"InvalidInput","inputs":[{"name":"reason","type":"string","internalType":"string"}]},{"type":"error","name":"NotAuthorized","inputs":[{"name":"caller","type":"address","internalType":"address"}]},{"type":"error","name":"ZeroAddress","inputs":[]}],"bytecode":{"object":"0x60e0346200012557601f6200196338819003918201601f191683019291906001600160401b0384118385101762000129578160609284926040968752833981010312620001255762000051816200013d565b6200006c8362000064602085016200013d565b93016200013d565b916001600160a01b03918216908115620001145782169182156200011457831615620001035760805260a05260c0525161181090816200015382396080518181816103fa0152818161058d0152818161099501528181610a9d0152611380015260a05181818161016e01528181610aee01528181610b3501528181610fcb01526111d3015260c051818181610489015261144c0152f35b835163d92e233d60e01b8152600490fd5b845163d92e233d60e01b8152600490fd5b5f80fd5b634e487b7160e01b5f52604160045260245ffd5b51906001600160a01b0382168203620001255756fe6080806040526004361015610012575f80fd5b5f3560e01c90816332d6aaa014611470575080635aa6e6751461142d578063611eb6ac146113f357806363082b5b14611356578063705ac2f014610a275780637fcb097214610a02578063851990201461091f5780639f0e661a146105eb578063ad4c0591146105b1578063b996d44e1461056e578063c009c2e414610464578063cc2d2631146103c5578063d02b3fba146102ec578063d04127bc14610192578063d0d1854d1461014f578063e79f923c146101155763e8732e57146100d7575f80fd5b34610111575f3660031901126101115760206040517f573243d7ea8f9f273e2bfef517366429acf64a49eab8904d3be1983503a5a51f8152f35b5f80fd5b34610111575f3660031901126101115760206040517fe5531c8ad39fc55e35fc114f9d52e71a35b94188eb694a232ae515b034e4fca68152f35b34610111575f3660031901126101115760206040516001600160a01b037f0000000000000000000000000000000000000000000000000000000000000000168152f35b3461011157602080600319360112610111575f60806040516101b381611543565b6060815260608482015282604082015282606082015201526004355f52600180825260405f206040516101e581611543565b6101ee82611710565b81526001820160405190818682549182815201915f52865f20905f5b8181106102d9575050508161022091038261157b565b84820190815260036002840154936040840194855201549167ffffffffffffffff916060820196838516885260ff608084019560401c16151585526040519681885260c0880193519360a0838a015284518091528260e08a019501925f5b8281106102bd5750505050508596916102a39151601f19888303016040890152611510565b935160608601525116608084015251151560a08301520390f35b84516001600160a01b031687529581019593810193830161027e565b825484529288019291870191870161020a565b3461011157602080600319360112610111576004355f52600180825260405f206040519061031982611543565b61032281611710565b82526001810160405180948683549283815201925f52865f20915f5b8181106103b2576103a1886103ae8b8a60ff60038c61035f878e038861157b565b868585015260028101546040850152015467ffffffffffffffff8116606084015260401c161515608082015251926040519485946040865260408601906114d4565b9184830390850152611510565b0390f35b835485529388019392820192820161033e565b346101115760203660031901126101115760405163d2251cbf60e01b815260043560048201525f816024816001600160a01b037f0000000000000000000000000000000000000000000000000000000000000000165afa8015610459576020915f91610436575b5051604051908152f35b61045291503d805f833e61044a818361157b565b8101906115eb565b508261042c565b6040513d5f823e3d90fd5b346101115760203660031901126101115761047d6114be565b6001600160a01b0390817f000000000000000000000000000000000000000000000000000000000000000016330361053e5781168015610514577fdcd41c94cabdb2c35f4e8fa502b3aa39a8ae14120ea92cfe37b48732a02e9864916040915f5491817fffffffffffffffffffffffff00000000000000000000000000000000000000008416175f558351921682526020820152a1005b60046040517fd92e233d000000000000000000000000000000000000000000000000000000008152fd5b60246040517f4a0bfec1000000000000000000000000000000000000000000000000000000008152336004820152fd5b34610111575f3660031901126101115760206040516001600160a01b037f0000000000000000000000000000000000000000000000000000000000000000168152f35b34610111575f3660031901126101115760206040517f4603c93892940d6a21d52bcd45d10362f0a941707bd9ea851a75a452142e57518152f35b346101115760803660031901126101115767ffffffffffffffff80604435116101115736602360443501121561011157806044356004013511610111573660246044356004013560051b604435010111610111578060643511610111573660236064350112156101115760643560040135116101115736602460643560040135606435010111610111576001600160a01b035f5416330361053e5760443560040135156108da576004355f52600160205260ff600360405f20015460401c1615610895576004355f5260016020526106c560405f20611710565b5f905b604435600401358210156107cb575f905f5b81518110156107c357604435600401358410156107af5760248460051b6044350101356001600160a01b038116809103610111576001600160a01b036107208385611769565b51161461072f576001016106da565b5091905060015b1561074457600101906106c8565b608460405163d647364f60e01b815260206004820152602260248201527f4f6666656e64657220776173206e6f742073656c6563746564206173206a757260448201527f6f720000000000000000000000000000000000000000000000000000000000006064820152fd5b634e487b7160e01b5f52603260045260245ffd5b509190610736565b6040516040810160408252604435600401359052606081016024604435015f5b60443560040135811061086c57505081810360208301526064356004013581526064356004013560246064350160208301375f602060643560040135830101527f65351422d3e5886b416a6c0314a3a1ddac4a0bc3aea8ff00c760336685c705ea6024359260208160043594601f19601f60643560040135011601030190a3005b90918235906001600160a01b0382168092036101115760208160019382935201930191016107eb565b606460405163d647364f60e01b815260206004820152601b60248201527f4e6f206a7572792073656c656374696f6e20666f7220636c61696d00000000006044820152fd5b606460405163d647364f60e01b815260206004820152601560248201527f4e6f206f6666656e646572732070726f766964656400000000000000000000006044820152fd5b3461011157604036600319011261011157610989606061093d6114be565b604051809381927fc03acb43000000000000000000000000000000000000000000000000000000008352602435600484019092916001600160a01b036020916040840195845216910152565b03816001600160a01b037f0000000000000000000000000000000000000000000000000000000000000000165afa8015610459576020915f916109d0575b50604051908152f35b6109f2915060603d6060116109fb575b6109ea818361157b565b8101906115aa565b509050826109c7565b503d6109e0565b34610111575f3660031901126101115760206001600160a01b035f5416604051908152f35b346101115760a0366003190112610111576084358015158103610111576001600160a01b035f5416330361053e5760443515611311576004355f52600160205260ff600360405f20015460401c166112a65760405163d2251cbf60e01b815260243560048201525f816024816001600160a01b037f0000000000000000000000000000000000000000000000000000000000000000165afa918215610459575f915f93611288575b5081511561126b578151806044351161124d5750916001600160a01b037f00000000000000000000000000000000000000000000000000000000000000001661116f575b821561104357610b2460443561177d565b610b2f60443561177d565b915f19907f00000000000000000000000000000000000000000000000000000000000000006001600160a01b0316610f67575b610b6c855161177d565b925f945f955b8751871015610beb57610bc260019186610b8c8a88611769565b511115610bdb57865b610b9f8a8a611769565b52610baa8989611769565b5115610bca575b610bbb8989611769565b51906117cd565b960195610b72565b82610bd58a8a611769565b52610bb1565b610be58987611769565b51610b95565b9492919693509450825190610bff826115d3565b91610c0d604051938461157b565b808352610c1c601f19916115d3565b013660208401375f935b6044358510610e1f575050505050505b60405192610c4384611543565b828452816020850152606435604085015267ffffffffffffffff42166060850152600160808501526004355f52600160205260405f2093805180519067ffffffffffffffff8211610dee57680100000000000000008211610dee57602090610cb0838954818b558a6116df565b01865f5260205f205f5b838110610e0257505050506001850194602082015180519067ffffffffffffffff8211610dee57680100000000000000008211610dee57602090610d03838a54818c558b6116df565b01965f5260205f20965f5b828110610dda575050506103ae955060039060408301516002820155019067ffffffffffffffff60608201511668ff000000000000000060808454930151151560401b169168ffffffffffffffffff191617179055610d896040519260808452610d7b60808501866114d4565b908482036020860152611510565b906064356040840152151560608301527f3aeb57dea3a3b20f91e2722eac7740c82d7c550752c910888797c03c02233bd26024359280600435930390a36040519182916020835260208301906114d4565b60019060208351930192818b015501610d0e565b634e487b7160e01b5f52604160045260245ffd5b60019060206001600160a01b038551169401938184015501610cba565b610e878660409a999394959697989a5160208101906064358252896040820152606080820152600860808201527f776569676874656400000000000000000000000000000000000000000000000060a082015260a08152610e7f8161155f565b5190206117af565b5f805b8351821015610f5357610e9d8288611769565b51610f4a57610eb090610bbb838a611769565b90818310610ec3576001905b0190610e8a565b9050610f1b91506001600160a01b03610ee582859a999798969c9d9b95611769565b5116610ef1888c611769565b52610efc8187611769565b51610f07888b611769565b526001610f148286611769565b5284611769565b518103908111610f3657600190945b01939492909192610c26565b634e487b7160e01b5f52601160045260245ffd5b90600190610ebc565b505050946001909896949293919798610f2a565b6040517f6a06295400000000000000000000000000000000000000000000000000000000815260243560048201527f4603c93892940d6a21d52bcd45d10362f0a941707bd9ea851a75a452142e575160248201526020816044816001600160a01b037f0000000000000000000000000000000000000000000000000000000000000000165afa5f918161100f575b50611001575b50610b62565b8015610ffb57915086610ffb565b9091506020813d60201161103b575b8161102b6020938361157b565b8101031261011157519088610ff5565b3d915061101e565b909161105060443561177d565b61105b60443561177d565b611065855161177d565b935f5b865181101561108657808061107f60019389611769565b5201611068565b509193949092948151915f925b60443584106110a6575050505050610c36565b6110fd8160405160208101906064358252876040820152606080820152600760808201527f756e69666f726d0000000000000000000000000000000000000000000000000060a082015260a08152610e7f8161155f565b9061113161110b8386611769565b516001600160a01b0361111e8287611769565b511661112a888c611769565b5287611769565b5161113c8689611769565b525f19810191818311610f365761115e6111568487611769565b519186611769565b5215610f3657600190930192611093565b6040517fcc30e90f00000000000000000000000000000000000000000000000000000000815260243560048201527fc223fd96ca0738ce706226f502e5db69bfc1d1121c61f95f1dd3613ea8b964c160248201526020816044816001600160a01b037f0000000000000000000000000000000000000000000000000000000000000000165afa5f9181611211575b50611209575b50610b13565b925083611203565b9091506020813d602011611245575b8161122d6020938361157b565b810103126101115761123e9061159d565b90856111fd565b3d9150611220565b6044906040519062d73f6360e21b8252600482015281356024820152fd5b604460405162d73f6360e21b81525f600482015281356024820152fd5b90925061129f91503d805f833e61044a818361157b565b9183610acf565b608460405163d647364f60e01b815260206004820152602160248201527f4a75726f727320616c72656164792073656c656374656420666f7220636c616960448201527f6d000000000000000000000000000000000000000000000000000000000000006064820152fd5b606460405163d647364f60e01b815260206004820152601960248201527f50616e656c2073697a652063616e6e6f74206265207a65726f000000000000006044820152fd5b3461011157604036600319011261011157611374606061093d6114be565b03816001600160a01b037f0000000000000000000000000000000000000000000000000000000000000000165afa908115610459576020915f915f916113d0575b50816113c7575b506040519015158152f35b905015826113bc565b90506113eb915060603d6060116109fb576109ea818361157b565b9050836113b5565b34610111575f3660031901126101115760206040517fc223fd96ca0738ce706226f502e5db69bfc1d1121c61f95f1dd3613ea8b964c18152f35b34610111575f3660031901126101115760206040516001600160a01b037f0000000000000000000000000000000000000000000000000000000000000000168152f35b34610111576020366003190112610111576060906004355f52600160205260ff60405f206003600282015491015490835267ffffffffffffffff8116602084015260401c1615156040820152f35b600435906001600160a01b038216820361011157565b9081518082526020808093019301915f5b8281106114f3575050505090565b83516001600160a01b0316855293810193928101926001016114e5565b9081518082526020808093019301915f5b82811061152f575050505090565b835185529381019392810192600101611521565b60a0810190811067ffffffffffffffff821117610dee57604052565b60c0810190811067ffffffffffffffff821117610dee57604052565b90601f8019910116810190811067ffffffffffffffff821117610dee57604052565b5190811515820361011157565b90816060910312610111576115be8161159d565b916115d060406020840151930161159d565b90565b67ffffffffffffffff8111610dee5760051b60200190565b919060408382031261011157825167ffffffffffffffff908181116101115784019082601f83011215610111578151602092611626826115d3565b91611634604051938461157b565b808352848084019160051b83010191868311610111578501905b8282106116c057505050948281015191821161011157019180601f8401121561011157825161167c816115d3565b9361168a604051958661157b565b818552838086019260051b820101928311610111578301905b8282106116b1575050505090565b815181529083019083016116a3565b81516001600160a01b038116810361011157815290850190850161164e565b9190918282106116ee57505050565b5f5260205f2091820191015b818110611705575050565b5f81556001016116fa565b90604051918281549182825260209260208301915f5260205f20935f905b828210611746575050506117449250038361157b565b565b85546001600160a01b03168452600195860195889550938101939091019061172e565b80518210156107af5760209160051b010190565b90611787826115d3565b611794604051918261157b565b82815280926117a5601f19916115d3565b0190602036910137565b81156117b9570690565b634e487b7160e01b5f52601260045260245ffd5b91908201809211610f365756fea2646970667358221220dd303432aa2fec35bd1b342ebef84899f44ca4a58efbeaf967d2c3c44c4f01c464736f6c63430008180033","linkReferences":{}},"methodIdentifiers":{"MAX_WEIGHT_PER_VERIFIER()":"ad4c0591","USE_VPT_WEIGHTING()":"611eb6ac","VERIFIER_MIN()":"e8732e57","VERIFIER_PANEL_SIZE()":"e79f923c","claimsContract()":"7fcb0972","getEligibleVerifierCount(uint256)":"cc2d2631","getJurorSelection(uint256)":"d04127bc","getSelectedJurors(uint256)":"d02b3fba","getVerifierPower(address,uint256)":"85199020","governance()":"5aa6e675","hasVerifierPower(address,uint256)":"63082b5b","paramController()":"d0d1854d","reportFraud(uint256,uint256,address[],string)":"9f0e661a","selectJurors(uint256,uint256,uint256,uint256,bool)":"705ac2f0","selections(uint256)":"32d6aaa0","setClaimsContract(address)":"c009c2e4","verifierElection()":"b996d44e"},"id":23}