{"abi":[{"type":"constructor","inputs":[{"name":"manager","type":"address","internalType":"address"},{"name":"_verifierElection","type":"address","internalType":"address"},{"name":"_paramController","type":"address","internalType":"address"},{"name":"_communityId","type":"uint256","internalType":"uint256"}],"stateMutability":"nonpayable"},{"type":"function","name":"MAX_WEIGHT_PER_VERIFIER","inputs":[],"outputs":[{"name":"","type":"bytes32","internalType":"bytes32"}],"stateMutability":"view"},{"type":"function","name":"USE_VPT_WEIGHTING","inputs":[],"outputs":[{"name":"","type":"bytes32","internalType":"bytes32"}],"stateMutability":"view"},{"type":"function","name":"VERIFIER_MIN","inputs":[],"outputs":[{"name":"","type":"bytes32","internalType":"bytes32"}],"stateMutability":"view"},{"type":"function","name":"VERIFIER_PANEL_SIZE","inputs":[],"outputs":[{"name":"","type":"bytes32","internalType":"bytes32"}],"stateMutability":"view"},{"type":"function","name":"authority","inputs":[],"outputs":[{"name":"","type":"address","internalType":"address"}],"stateMutability":"view"},{"type":"function","name":"communityId","inputs":[],"outputs":[{"name":"","type":"uint256","internalType":"uint256"}],"stateMutability":"view"},{"type":"function","name":"getEligibleVerifierCount","inputs":[],"outputs":[{"name":"","type":"uint256","internalType":"uint256"}],"stateMutability":"view"},{"type":"function","name":"getJurorSelection","inputs":[{"name":"engagementId","type":"uint256","internalType":"uint256"}],"outputs":[{"name":"selection","type":"tuple","internalType":"struct VerifierManager.JurorSelection","components":[{"name":"selectedJurors","type":"address[]","internalType":"address[]"},{"name":"selectedPowers","type":"uint256[]","internalType":"uint256[]"},{"name":"seed","type":"uint256","internalType":"uint256"},{"name":"selectedAt","type":"uint64","internalType":"uint64"},{"name":"completed","type":"bool","internalType":"bool"}]}],"stateMutability":"view"},{"type":"function","name":"getSelectedJurors","inputs":[{"name":"engagementId","type":"uint256","internalType":"uint256"}],"outputs":[{"name":"jurors","type":"address[]","internalType":"address[]"},{"name":"powers","type":"uint256[]","internalType":"uint256[]"}],"stateMutability":"view"},{"type":"function","name":"getVerifierPower","inputs":[{"name":"verifier","type":"address","internalType":"address"}],"outputs":[{"name":"power","type":"uint256","internalType":"uint256"}],"stateMutability":"view"},{"type":"function","name":"hasVerifierPower","inputs":[{"name":"verifier","type":"address","internalType":"address"}],"outputs":[{"name":"","type":"bool","internalType":"bool"}],"stateMutability":"view"},{"type":"function","name":"isConsumingScheduledOp","inputs":[],"outputs":[{"name":"","type":"bytes4","internalType":"bytes4"}],"stateMutability":"view"},{"type":"function","name":"paramController","inputs":[],"outputs":[{"name":"","type":"address","internalType":"contract IParamController"}],"stateMutability":"view"},{"type":"function","name":"reportFraud","inputs":[{"name":"engagementId","type":"uint256","internalType":"uint256"},{"name":"offenders","type":"address[]","internalType":"address[]"},{"name":"evidenceCID","type":"string","internalType":"string"}],"outputs":[],"stateMutability":"nonpayable"},{"type":"function","name":"selectJurors","inputs":[{"name":"engagementId","type":"uint256","internalType":"uint256"},{"name":"panelSize","type":"uint256","internalType":"uint256"},{"name":"seed","type":"uint256","internalType":"uint256"},{"name":"useWeighting","type":"bool","internalType":"bool"}],"outputs":[{"name":"selectedJurors","type":"address[]","internalType":"address[]"}],"stateMutability":"nonpayable"},{"type":"function","name":"selections","inputs":[{"name":"","type":"uint256","internalType":"uint256"}],"outputs":[{"name":"seed","type":"uint256","internalType":"uint256"},{"name":"selectedAt","type":"uint64","internalType":"uint64"},{"name":"completed","type":"bool","internalType":"bool"}],"stateMutability":"view"},{"type":"function","name":"setAuthority","inputs":[{"name":"newAuthority","type":"address","internalType":"address"}],"outputs":[],"stateMutability":"nonpayable"},{"type":"function","name":"verifierElection","inputs":[],"outputs":[{"name":"","type":"address","internalType":"contract IVerifierElection"}],"stateMutability":"view"},{"type":"event","name":"AuthorityUpdated","inputs":[{"name":"authority","type":"address","indexed":false,"internalType":"address"}],"anonymous":false},{"type":"event","name":"FraudReported","inputs":[{"name":"engagementId","type":"uint256","indexed":true,"internalType":"uint256"},{"name":"communityId","type":"uint256","indexed":true,"internalType":"uint256"},{"name":"offenders","type":"address[]","indexed":false,"internalType":"address[]"},{"name":"evidenceCID","type":"string","indexed":false,"internalType":"string"}],"anonymous":false},{"type":"event","name":"JurorsSelected","inputs":[{"name":"engagementId","type":"uint256","indexed":true,"internalType":"uint256"},{"name":"communityId","type":"uint256","indexed":true,"internalType":"uint256"},{"name":"jurors","type":"address[]","indexed":false,"internalType":"address[]"},{"name":"powers","type":"uint256[]","indexed":false,"internalType":"uint256[]"},{"name":"seed","type":"uint256","indexed":false,"internalType":"uint256"},{"name":"weighted","type":"bool","indexed":false,"internalType":"bool"}],"anonymous":false},{"type":"error","name":"AccessManagedInvalidAuthority","inputs":[{"name":"authority","type":"address","internalType":"address"}]},{"type":"error","name":"AccessManagedRequiredDelay","inputs":[{"name":"caller","type":"address","internalType":"address"},{"name":"delay","type":"uint32","internalType":"uint32"}]},{"type":"error","name":"AccessManagedUnauthorized","inputs":[{"name":"caller","type":"address","internalType":"address"}]},{"type":"error","name":"InsufficientVerifiers","inputs":[{"name":"available","type":"uint256","internalType":"uint256"},{"name":"required","type":"uint256","internalType":"uint256"}]},{"type":"error","name":"InvalidInput","inputs":[{"name":"reason","type":"string","internalType":"string"}]},{"type":"error","name":"ZeroAddress","inputs":[]}],"bytecode":{"object":"0x60e034620001d357601f62001cef38819003918201601f191683019291906001600160401b03841183851017620001d7578160809284926040968752833981010312620001d3576200005181620001eb565b906200006060208201620001eb565b91606062000070858401620001eb565b9201515f80546001600160a01b0319166001600160a01b0393841690811790915585518181529194917f2f658b440c35314f52658ea8a740e05b284cdc84dc9ae01e891f21b8933e7cad90602090a115620001c2578116918215620001c25716908115620001b15782156200016c5760805260a05260c05251611aee9081620002018239608051818181610120015281816107fa0152818161089901528181610af40152610c0a015260a05181818161055f01528181610c5a01528181610d31015281816112110152611436015260c0518181816103460152818161099601528181610c9e01528181610fc8015281816111b701526113dc0152f35b835163d647364f60e01b815260206004820152601360248201527f496e76616c696420636f6d6d756e6974794964000000000000000000000000006044820152606490fd5b835163d92e233d60e01b8152600490fd5b845163d92e233d60e01b8152600490fd5b5f80fd5b634e487b7160e01b5f52604160045260245ffd5b51906001600160a01b0382168203620001d35756fe60806040526004361015610011575f80fd5b5f3560e01c80631814a3f214610ba357806332d6aaa014610b535780633c464ca514610ac8578063611eb6ac14610a8e5780637a9e5e4b146109b95780637f50861a1461097f5780638fb360371461090c57806395b1f41814610858578063ad4c05911461081e578063b996d44e146107db578063bf7e214f146107b6578063d02b3fba146106dd578063d04127bc14610583578063d0d1854d14610540578063e512c8cd14610210578063e79f923c146101d6578063e8732e571461019c5763ffca9054146100df575f80fd5b3461019857602036600319011261019857602460606100fc6115f7565b604051634c0251d960e11b81526001600160a01b03918216600482015292839182907f0000000000000000000000000000000000000000000000000000000000000000165afa801561018d576020915f9161015b575b50604051908152f35b61017d915060603d606011610186575b6101758183611678565b810190611a0a565b5090505f610152565b503d61016b565b6040513d5f823e3d90fd5b5f80fd5b34610198575f3660031901126101985760206040517f573243d7ea8f9f273e2bfef517366429acf64a49eab8904d3be1983503a5a51f8152f35b34610198575f3660031901126101985760206040517fe5531c8ad39fc55e35fc114f9d52e71a35b94188eb694a232ae515b034e4fca68152f35b346101985760603660031901126101985767ffffffffffffffff60043560248035908382116101985736602383011215610198578160040135918483116101985760059136818560051b84010111610198576044803590878211610198573660238301121561019857816004013597881161019857368389840101116101985761029a36336116f3565b85156104fb57865f5260019060209582875260ff600360405f20015460401c16156104b85790899493929791895f528888526102d860405f2061169a565b905f8a5b6103a6575b5050505060405196816040890160408a525283606089019601915f5b81811061037457868b7f65351422d3e5886b416a6c0314a3a1ddac4a0bc3aea8ff00c760336685c705ea8c8c818d868d8d8484038686015282845201848301375f8188018401527f000000000000000000000000000000000000000000000000000000000000000096601f01601f191601030190a3005b919394955091958635906001600160a01b038216809203610198579081528701958a95949390880192909182016102fd565b90919293809a95969750811015806104ac575f9081875b610444575b5050156103db57908480949392018c9796959a946102dc565b6084897f4f6666656e64657220776173206e6f742073656c6563746564206173206a75728660228b6040519463d647364f60e01b865260048601528401528201527f6f720000000000000000000000000000000000000000000000000000000000006064820152fd5b85518110156104a75781610494578984861b8c010135906001600160a01b039182811680910361019857899261047a838a611a33565b511614610489578101906103bd565b509150508d806103c2565b89634e487b7160e01b5f5260326004525ffd5b6103c2565b8c9796959a94506102e1565b606485886040519163d647364f60e01b83528160048401528201527f4e6f206a7572792073656c656374696f6e20666f7220656e676167656d656e746044820152fd5b60648360156040519163d647364f60e01b8352602060048401528201527f4e6f206f6666656e646572732070726f766964656400000000000000000000006044820152fd5b34610198575f3660031901126101985760206040516001600160a01b037f0000000000000000000000000000000000000000000000000000000000000000168152f35b3461019857602080600319360112610198575f60806040516105a481611640565b6060815260608482015282604082015282606082015201526004355f52600180825260405f206040516105d681611640565b6105df8261169a565b81526001820160405190818682549182815201915f52865f20905f5b8181106106ca5750505081610611910382611678565b84820190815260036002840154936040840194855201549167ffffffffffffffff916060820196838516885260ff608084019560401c16151585526040519681885260c0880193519360a0838a015284518091528260e08a019501925f5b8281106106ae5750505050508596916106949151601f1988830301604089015261160d565b935160608601525116608084015251151560a08301520390f35b84516001600160a01b031687529581019593810193830161066f565b82548452928801929187019187016105fb565b3461019857602080600319360112610198576004355f52600180825260405f206040519061070a82611640565b6107138161169a565b82526001810160405180948683549283815201925f52865f20915f5b8181106107a3576107928861079f8b8a60ff60038c610750878e0388611678565b868585015260028101546040850152015467ffffffffffffffff8116606084015260401c161515608082015251926040519485946040865260408601906115bb565b918483039085015261160d565b0390f35b835485529388019392820192820161072f565b34610198575f3660031901126101985760206001600160a01b035f5416604051908152f35b34610198575f3660031901126101985760206040516001600160a01b037f0000000000000000000000000000000000000000000000000000000000000000168152f35b34610198575f3660031901126101985760206040517f4603c93892940d6a21d52bcd45d10362f0a941707bd9ea851a75a452142e57518152f35b3461019857602036600319011261019857602460606108756115f7565b604051634c0251d960e11b81526001600160a01b03918216600482015292839182907f0000000000000000000000000000000000000000000000000000000000000000165afa90811561018d576020915f915f916108e9575b50816108e0575b506040519015158152f35b905015826108d5565b9050610904915060603d606011610186576101758183611678565b9050836108ce565b34610198575f366003190112610198575f5460a01c60ff16156109775760207f8fb36037000000000000000000000000000000000000000000000000000000005b7fffffffff0000000000000000000000000000000000000000000000000000000060405191168152f35b60205f61094d565b34610198575f3660031901126101985760206040517f00000000000000000000000000000000000000000000000000000000000000008152f35b34610198576020366003190112610198576109d26115f7565b5f54906001600160a01b03908183163303610a7857803b15610a46577f2f658b440c35314f52658ea8a740e05b284cdc84dc9ae01e891f21b8933e7cad926020927fffffffffffffffffffffffff0000000000000000000000000000000000000000921691829116175f55604051908152a1005b602491604051917fc2f31e5e000000000000000000000000000000000000000000000000000000008352166004820152fd5b602460405162d1953b60e31b8152336004820152fd5b34610198575f3660031901126101985760206040517fc223fd96ca0738ce706226f502e5db69bfc1d1121c61f95f1dd3613ea8b964c18152f35b34610198575f36600319011261019857604051633d4df64960e11b81525f816004816001600160a01b037f0000000000000000000000000000000000000000000000000000000000000000165afa801561018d576020915f91610b30575b5051604051908152f35b610b4c91503d805f833e610b448183611678565b8101906118d8565b5082610b26565b34610198576020366003190112610198576004355f526001602052606060405f2060ff6003600283015492015460405192835267ffffffffffffffff8116602084015260401c1615156040820152f35b3461019857608036600319011261019857606435801515810361019857610bca36336116f3565b60243515611576576004355f52600160205260ff600360405f20015460401c1661150b57604051633d4df64960e11b81525f816004816001600160a01b037f0000000000000000000000000000000000000000000000000000000000000000165afa91821561018d575f915f936114ed575b508151156114cf57815180602435116114b057506001600160a01b037f0000000000000000000000000000000000000000000000000000000000000000166113b4575b435f1981011161115e57604051604435602082015260043560408201527f000000000000000000000000000000000000000000000000000000000000000060608201524460808201525f1943014060a08201523060c08201523360e082015260e081528061010081011067ffffffffffffffff610100830111176110185761010081016040526020815191012090805f1461128957610d1f602435611a5b565b93610d2b602435611a5b565b925f19927f00000000000000000000000000000000000000000000000000000000000000006001600160a01b031661118f575b610d688651611a5b565b965f95865b8851881015610def57610dbe60019188610d878b8a611a33565b511115610dd95788610d998b8e611a33565b52898c610da68282611a33565b5115610dc6575b90610db791611a33565b5190611aab565b970196610d6d565b8491610dd191611a33565b52898c610dad565b8b610d998b610de8818c611a33565b5192611a33565b9491965094509690959196825190610e06826118c0565b91610e146040519384611678565b808352610e23601f19916118c0565b013660208401375f935b60243585106110495750505050505090915b60405193610e4c85611640565b838552826020860152604085015267ffffffffffffffff42166060850152600160808501526004355f52600160205260405f2093805180519067ffffffffffffffff82116110185768010000000000000000821161101857602090610eb6838954818b558a6119d9565b01865f5260205f205f5b83811061102c575050505060208101519485519567ffffffffffffffff8711611018576801000000000000000087116110185760018201805488825560209291610f0b918a916119d9565b0195600182015f5260205f20965f5b8281106110045750505061079f955060039060408301516002820155019067ffffffffffffffff60608201511668ff000000000000000060808454930151151560401b169168ffffffffffffffffff191617179055610f956040519260808452610f8760808501866115bb565b90848203602086015261160d565b906044356040840152151560608301527f3aeb57dea3a3b20f91e2722eac7740c82d7c550752c910888797c03c02233bd27f00000000000000000000000000000000000000000000000000000000000000009280600435930390a36040519182916020835260208301906115bb565b60019060208351930192818b015501610f1a565b634e487b7160e01b5f52604160045260245ffd5b60019060206001600160a01b038551169401938184015501610ec0565b90929496919395986110ae8860405160208101908482528a6040820152606080820152600860808201527f776569676874656400000000000000000000000000000000000000000000000060a082015260a081526110a68161165c565b519020611a8d565b905f90815b845183101561117b576110c68389611a33565b51611172576110d990610db7848b611a33565b918284106110ec576001905b01916110b3565b909b989693979499925061114391506001600160a01b0361110d828a611a33565b5116611119888c611a33565b526111248187611a33565b5161112f888b611a33565b52600161113c8286611a33565b5284611a33565b51810390811161115e57600190945b01939492909192610e2d565b634e487b7160e01b5f52601160045260245ffd5b916001906110e5565b509a97905060019150979491959297611152565b6040517f6a0629540000000000000000000000000000000000000000000000000000000081527f000000000000000000000000000000000000000000000000000000000000000060048201527f4603c93892940d6a21d52bcd45d10362f0a941707bd9ea851a75a452142e575160248201526020816044816001600160a01b037f0000000000000000000000000000000000000000000000000000000000000000165afa5f9181611255575b50611247575b50610d5e565b801561124157935087611241565b9091506020813d602011611281575b8161127160209383611678565b810103126101985751908961123b565b3d9150611264565b611294602435611a5b565b61129f602435611a5b565b6112a98551611a5b565b955f5b86518110156112ca5780806112c36001938b611a33565b52016112ac565b50919395949092948151915f925b60243584106112ed5750505050509091610e3f565b6113428160405160208101908c8252876040820152606080820152600760808201527f756e69666f726d0000000000000000000000000000000000000000000000000060a082015260a081526110a68161165c565b906113766113508386611a33565b516001600160a01b036113638287611a33565b511661136f888c611a33565b5287611a33565b516113818689611a33565b525f1981019181831161115e576113a361139b8487611a33565b519186611a33565b521561115e576001909301926112d8565b6040517fcc30e90f0000000000000000000000000000000000000000000000000000000081527f000000000000000000000000000000000000000000000000000000000000000060048201527fc223fd96ca0738ce706226f502e5db69bfc1d1121c61f95f1dd3613ea8b964c160248201526020816044816001600160a01b037f0000000000000000000000000000000000000000000000000000000000000000165afa5f9181611474575b5061146c575b50610c7f565b905083611466565b9091506020813d6020116114a8575b8161149060209383611678565b81010312610198576114a1906119cc565b9085611460565b3d9150611483565b6044906040519062d73f6360e21b825260048201526024356024820152fd5b604460405162d73f6360e21b81525f60048201526024356024820152fd5b90925061150491503d805f833e610b448183611678565b9183610c3c565b608460405163d647364f60e01b815260206004820152602660248201527f4a75726f727320616c72656164792073656c656374656420666f7220656e676160448201527f67656d656e7400000000000000000000000000000000000000000000000000006064820152fd5b606460405163d647364f60e01b815260206004820152601960248201527f50616e656c2073697a652063616e6e6f74206265207a65726f000000000000006044820152fd5b9081518082526020808093019301915f5b8281106115da575050505090565b83516001600160a01b0316855293810193928101926001016115cc565b600435906001600160a01b038216820361019857565b9081518082526020808093019301915f5b82811061162c575050505090565b83518552938101939281019260010161161e565b60a0810190811067ffffffffffffffff82111761101857604052565b60c0810190811067ffffffffffffffff82111761101857604052565b90601f8019910116810190811067ffffffffffffffff82111761101857604052565b90604051918281549182825260209260208301915f5260205f20935f905b8282106116d0575050506116ce92500383611678565b565b85546001600160a01b0316845260019586019588955093810193909101906116b8565b5f915f54916001600160a01b038084169280600411610198575f92838491604095869182519660208801917fb700961300000000000000000000000000000000000000000000000000000000835216968760248201523060448201527fffffffff0000000000000000000000000000000000000000000000000000000083351660648201526064815261178581611640565b828052826020525190895afa6118ad575b156117a5575b50505050505050565b63ffffffff161561189757740100000000000000000000000000000000000000007fffffffffffffffffffffff00ffffffffffffffffffffffffffffffffffffffff809616175f55833b15610198576064935f928385519687809581947f94c7d7ee00000000000000000000000000000000000000000000000000000000835260048301528860248301528060448301528084848401378181018301849052601f01601f191681010301925af1801561188d57611870575b505081541690555f80808080808061179c565b9091925067ffffffffffffffff821161101857525f905f8061185d565b50513d5f823e3d90fd5b50602491519062d1953b60e31b82526004820152fd5b50505f516020518060201c150290611796565b67ffffffffffffffff81116110185760051b60200190565b919060408382031261019857825167ffffffffffffffff908181116101985784019082601f83011215610198578151602092611913826118c0565b916119216040519384611678565b808352848084019160051b83010191868311610198578501905b8282106119ad57505050948281015191821161019857019180601f84011215610198578251611969816118c0565b936119776040519586611678565b818552838086019260051b820101928311610198578301905b82821061199e575050505090565b81518152908301908301611990565b81516001600160a01b038116810361019857815290850190850161193b565b5190811515820361019857565b9190918282106119e857505050565b5f5260205f2091820191015b8181106119ff575050565b5f81556001016119f4565b9081606091031261019857611a1e816119cc565b91611a306040602084015193016119cc565b90565b8051821015611a475760209160051b010190565b634e487b7160e01b5f52603260045260245ffd5b90611a65826118c0565b611a726040519182611678565b8281528092611a83601f19916118c0565b0190602036910137565b8115611a97570690565b634e487b7160e01b5f52601260045260245ffd5b9190820180921161115e5756fea26469706673582212204a7c729dc6f669da30ac686ec73c9e2044d7673b3fc4db28770c52c8ab54827d64736f6c63430008180033","linkReferences":{}},"methodIdentifiers":{"MAX_WEIGHT_PER_VERIFIER()":"ad4c0591","USE_VPT_WEIGHTING()":"611eb6ac","VERIFIER_MIN()":"e8732e57","VERIFIER_PANEL_SIZE()":"e79f923c","authority()":"bf7e214f","communityId()":"7f50861a","getEligibleVerifierCount()":"3c464ca5","getJurorSelection(uint256)":"d04127bc","getSelectedJurors(uint256)":"d02b3fba","getVerifierPower(address)":"ffca9054","hasVerifierPower(address)":"95b1f418","isConsumingScheduledOp()":"8fb36037","paramController()":"d0d1854d","reportFraud(uint256,address[],string)":"e512c8cd","selectJurors(uint256,uint256,uint256,bool)":"1814a3f2","selections(uint256)":"32d6aaa0","setAuthority(address)":"7a9e5e4b","verifierElection()":"b996d44e"},"id":30}