{"abi":[{"type":"function","name":"bootstrapAccessAndRuntime","inputs":[{"name":"accessManager","type":"address","internalType":"address"},{"name":"selectorConfigs","type":"tuple[]","internalType":"struct BootstrapCoordinator.TargetRoleConfig[]","components":[{"name":"target","type":"address","internalType":"address"},{"name":"selectors","type":"bytes4[]","internalType":"bytes4[]"},{"name":"role","type":"uint64","internalType":"uint64"}]},{"name":"roleGrants","type":"tuple[]","internalType":"struct BootstrapCoordinator.RoleGrant[]","components":[{"name":"role","type":"uint64","internalType":"uint64"},{"name":"account","type":"address","internalType":"address"},{"name":"executionDelay","type":"uint32","internalType":"uint32"}]},{"name":"runtimeConfig","type":"tuple","internalType":"struct BootstrapCoordinator.RuntimeBootstrapConfig","components":[{"name":"communityId","type":"uint256","internalType":"uint256"},{"name":"valuableActionRegistry","type":"address","internalType":"address"},{"name":"verifierPowerToken","type":"address","internalType":"address"},{"name":"requestHub","type":"address","internalType":"address"},{"name":"founder","type":"address","internalType":"address"},{"name":"valuableActionSBT","type":"address","internalType":"address"},{"name":"revenueRouter","type":"address","internalType":"address"},{"name":"treasuryAdapter","type":"address","internalType":"address"},{"name":"marketplace","type":"address","internalType":"address"},{"name":"communityToken","type":"address","internalType":"address"},{"name":"treasuryVault","type":"address","internalType":"address"},{"name":"supportedTokens","type":"address[]","internalType":"address[]"},{"name":"tokenCapBps","type":"uint16","internalType":"uint16"},{"name":"verifierMetadataURI","type":"string","internalType":"string"}]}],"outputs":[],"stateMutability":"nonpayable"},{"type":"function","name":"configureAccessManager","inputs":[{"name":"accessManager","type":"address","internalType":"address"},{"name":"selectorConfigs","type":"tuple[]","internalType":"struct BootstrapCoordinator.TargetRoleConfig[]","components":[{"name":"target","type":"address","internalType":"address"},{"name":"selectors","type":"bytes4[]","internalType":"bytes4[]"},{"name":"role","type":"uint64","internalType":"uint64"}]},{"name":"roleGrants","type":"tuple[]","internalType":"struct BootstrapCoordinator.RoleGrant[]","components":[{"name":"role","type":"uint64","internalType":"uint64"},{"name":"account","type":"address","internalType":"address"},{"name":"executionDelay","type":"uint32","internalType":"uint32"}]}],"outputs":[],"stateMutability":"nonpayable"},{"type":"event","name":"AccessManagerBootstrapped","inputs":[{"name":"accessManager","type":"address","indexed":true,"internalType":"address"},{"name":"operator","type":"address","indexed":true,"internalType":"address"},{"name":"selectorConfigCount","type":"uint256","indexed":false,"internalType":"uint256"},{"name":"roleGrantCount","type":"uint256","indexed":false,"internalType":"uint256"}],"anonymous":false},{"type":"event","name":"RuntimeBootstrapped","inputs":[{"name":"operator","type":"address","indexed":true,"internalType":"address"},{"name":"communityId","type":"uint256","indexed":true,"internalType":"uint256"},{"name":"supportedTokenCount","type":"uint256","indexed":false,"internalType":"uint256"}],"anonymous":false},{"type":"error","name":"InvalidInput","inputs":[{"name":"reason","type":"string","internalType":"string"}]},{"type":"error","name":"NotAuthorized","inputs":[{"name":"caller","type":"address","internalType":"address"}]},{"type":"error","name":"ZeroAddress","inputs":[]}],"bytecode":{"object":"0x60808060405234610016576116d8908161001b8239f35b5f80fdfe60806040526004361015610011575f80fd5b5f803560e01c806335aa15ed14610f9f5763ec41fe0c14610030575f80fd5b34610ef257600319608036820112610ef25761004a611004565b60243567ffffffffffffffff8111610ef25761006a90369060040161101a565b909260443567ffffffffffffffff8111610ef25761008c90369060040161104b565b92909167ffffffffffffffff60643511610ef2576101c09060643536030112610ef2576100c1946100bc85611133565b611306565b6064356004013515610f5a576001600160a01b036100e36024606435016112dd565b16156107a1576001600160a01b036100ff6044606435016112dd565b16156107a1576001600160a01b0361011a60648035016112dd565b16156107a1576001600160a01b036101366084606435016112dd565b16156107a1576001600160a01b0361015260a4606435016112dd565b16156107a1576001600160a01b0361016e60c4606435016112dd565b16156107a1576001600160a01b0361018a60e4606435016112dd565b16156107a1576001600160a01b036101a7610104606435016112dd565b16156107a1576001600160a01b036101c4610124606435016112dd565b16156107a1576001600160a01b036101e1610144606435016112dd565b16156107a15761271061ffff6101fc61018460643501611674565b1611610f15576001600160a01b036102186024606435016112dd565b16906040517fe8901184000000000000000000000000000000000000000000000000000000008152602081600481865afa908115610ee7575f91610ef6575b506001600160a01b038061026f60a4606435016112dd565b16911603610e72575b809161028760648035016112dd565b6001600160a01b03604051917fa90e069e000000000000000000000000000000000000000000000000000000008352166004820152602081602481855afa908115610646578391610e38575b5015610db6575b6102e86084606435016112dd565b6001600160a01b03604051917f5d672bb8000000000000000000000000000000000000000000000000000000008352166004820152602081602481855afa908115610646578391610d7c575b5015610d08575b506001600160a01b036103526044606435016112dd565b166040517f7120f9af000000000000000000000000000000000000000000000000000000008152602081600481855afa908115610646578391610cce575b5015610be8575b50506001600160a01b036103af60c4606435016112dd565b166040517fa7f37b2a000000000000000000000000000000000000000000000000000000008152602081600481855afa908115610646578391610bc9575b506001600160a01b0380610406610144606435016112dd565b16911603610b4e575b6001600160a01b0361042560e4606435016112dd565b1690825b8361043f6101646064350160643560040161107c565b90508210156107df575061045e6101646064350160643560040161107c565b8210156107cb5761047b6001600160a01b03918360051b016112dd565b1680156107a15784906040517f68c4ac26000000000000000000000000000000000000000000000000000000008152816004820152602081602481885afa908115610646578391610767575b50156106fb575b6040517f55219d5a000000000000000000000000000000000000000000000000000000008152816004820152602081602481895afa9081156106465783916106c1575b5015610651575b6040517fc44530b5000000000000000000000000000000000000000000000000000000008152816004820152602081602481895afa908115610646578391610609575b5061ffff8061056f61018460643501611674565b16911603610582575b5050600101610429565b61059161018460643501611674565b853b156106055761ffff90604051927fcb39331f0000000000000000000000000000000000000000000000000000000084526004840152166024820152818160448183895af180156105fa5715610578576105eb906110b2565b6105f657835f610578565b8380fd5b6040513d84823e3d90fd5b8280fd5b90506020813d60201161063e575b81610624602093836110da565b81010312610605575161ffff81168103610605575f61055b565b3d9150610617565b6040513d85823e3d90fd5b843b156106bd576040517f15f69012000000000000000000000000000000000000000000000000000000008152816004820152600160248201528281604481838a5af19081156106465783916106a9575b5050610518565b6106b2906110b2565b6106bd57815f6106a2565b5080fd5b90506020813d6020116106f3575b816106dc602093836110da565b81010312610605576106ed906110fc565b5f610511565b3d91506106cf565b833b156106bd576040517fe798646600000000000000000000000000000000000000000000000000000000815281600482015260016024820152828160448183895af1908115610646578391610753575b50506104ce565b61075c906110b2565b6106bd57815f61074c565b90506020813d602011610799575b81610782602093836110da565b8101031261060557610793906110fc565b5f6104c7565b3d9150610775565b60046040517fd92e233d000000000000000000000000000000000000000000000000000000008152fd5b602485634e487b7160e01b81526032600452fd5b80846107ee60648035016112dd565b6001600160a01b03604051917fe2ead2de000000000000000000000000000000000000000000000000000000008352166004820152602081602481855afa908115610646578391610b14575b5015610a9a575b506001600160a01b03610859610104606435016112dd565b166040517f3b5040ae000000000000000000000000000000000000000000000000000000008152602081600481855afa908115610646578391610a60575b50156109f7575b6040517f2e5fe746000000000000000000000000000000000000000000000000000000008152602081600481855afa9081156106465783916109c8575b506001600160a01b03806108f4610124606435016112dd565b1691160361094c575b506109136101646064350160643560040161107c565b905060405190815260643560040135907f6fd49c59ec436cf344b325dab9f3f12ca59826d6616f5126d9be61c63f79c76360203392a380f35b61095b610124606435016112dd565b813b156109c4576001600160a01b03602484928360405195869485937f8c15e6a40000000000000000000000000000000000000000000000000000000085521660048401525af180156105fa57156108fd576109b6906110b2565b6109c15780826108fd565b80fd5b5050fd5b6109ea915060203d6020116109f0575b6109e281836110da565b810190611683565b846108db565b503d6109d8565b803b15610a5d576040517fedcbb1aa00000000000000000000000000000000000000000000000000000000815260016004820152828160248183865af1908115610646578391610a49575b505061089e565b610a52906110b2565b610a5d578184610a42565b50fd5b90506020813d602011610a92575b81610a7b602093836110da565b810103126109c457610a8c906110fc565b84610897565b3d9150610a6e565b610aa760648035016112dd565b813b156109c4576001600160a01b03604484928360405195869485937ff3142095000000000000000000000000000000000000000000000000000000008552166004840152600160248401525af180156105fa571561084157610b09906110b2565b6109c1578082610841565b90506020813d602011610b46575b81610b2f602093836110da565b810103126109c457610b40906110fc565b8461083a565b3d9150610b22565b81610b5e610144606435016112dd565b823b156106bd576001600160a01b03604051917fe74abe39000000000000000000000000000000000000000000000000000000008352166004820152818160248183875af180156105fa57610bb5575b505061040f565b610bbe906110b2565b6106bd57815f610bae565b610be2915060203d6020116109f0576109e281836110da565b5f6103ed565b6064356101a481013591903603602219018212156109c45767ffffffffffffffff600483606435010135116109c4576064358201600481013536036024909101136109c457803b156109c457604483929183926040519485938480937f09b2c74800000000000000000000000000000000000000000000000000000000825260206004830152600481606435010135602483015260048160643501013560248260643501018484013760643501600401358181018301849052601f01601f191681010301925af180156105fa571561039757610cc3906110b2565b6109c157805f610397565b90506020813d602011610d00575b81610ce9602093836110da565b810103126109c457610cfa906110fc565b5f610390565b3d9150610cdc565b610d166084606435016112dd565b813b156109c4576001600160a01b03602484928360405195869485937fef4ec0470000000000000000000000000000000000000000000000000000000085521660048401525af180156105fa571561033b57610d71906110b2565b6109c157805f61033b565b90506020813d602011610dae575b81610d97602093836110da565b810103126109c457610da8906110fc565b5f610334565b3d9150610d8a565b610dc360648035016112dd565b813b156109c4576001600160a01b03604051917f14f1d4f100000000000000000000000000000000000000000000000000000000835216600482015260016024820152828160448183865af1908115610646578391610e24575b50506102da565b610e2d906110b2565b610a5d57815f610e1d565b90506020813d602011610e6a575b81610e53602093836110da565b810103126109c457610e64906110fc565b5f6102d3565b3d9150610e46565b610e8060a4606435016112dd565b823b15610ef2576001600160a01b03604051917fff012a430000000000000000000000000000000000000000000000000000000083521660048201525f8160248183875af18015610ee757610ed6575b50610278565b610ee091506110b2565b5f80610ed0565b6040513d5f823e3d90fd5b5f80fd5b610f0f915060203d6020116109f0576109e281836110da565b5f610257565b606460405163d647364f60e01b815260206004820152601560248201527f496e76616c696420746f6b656e206361702062707300000000000000000000006044820152fd5b606460405163d647364f60e01b815260206004820152601360248201527f496e76616c696420636f6d6d756e6974794964000000000000000000000000006044820152fd5b34610ef2576060366003190112610ef257610fb8611004565b67ffffffffffffffff90602435828111610ef257610fda90369060040161101a565b90604435938411610ef257610ff661100294369060040161104b565b9290916100bc85611133565b005b600435906001600160a01b0382168203610ef257565b9181601f84011215610ef25782359167ffffffffffffffff8311610ef2576020808501948460051b010111610ef257565b9181601f84011215610ef25782359167ffffffffffffffff8311610ef25760208085019460608502010111610ef257565b903590601e1981360301821215610ef2570180359067ffffffffffffffff8211610ef257602001918160051b36038313610ef257565b67ffffffffffffffff81116110c657604052565b634e487b7160e01b5f52604160045260245ffd5b90601f8019910116810190811067ffffffffffffffff8211176110c657604052565b51908115158203610ef257565b9190826040910312610ef2576020611120836110fc565b92015163ffffffff81168103610ef25790565b6001600160a01b03169081156107a157604080517f75b238fc00000000000000000000000000000000000000000000000000000000815283602082600481845afa9182156112d3575f9261128e575b5082516368fc2b7760e11b80825267ffffffffffffffff84166004830152336024830152908481604481865afa908115611284575f91611266575b501561125057835190815267ffffffffffffffff9290921660048301523060248301528290829060449082905afa908115611246575f91611218575b50156112025750565b60249051634a0bfec160e01b8152306004820152fd5b6112389150823d841161123f575b61123081836110da565b810190611109565b505f6111f9565b503d611226565b82513d5f823e3d90fd5b60248451634a0bfec160e01b8152336004820152fd5b61127d9150853d871161123f5761123081836110da565b505f6111bd565b85513d5f823e3d90fd5b9091506020813d6020116112cb575b816112aa602093836110da565b81010312610ef2575167ffffffffffffffff81168103610ef257905f611182565b3d915061129d565b83513d5f823e3d90fd5b356001600160a01b0381168103610ef25790565b3567ffffffffffffffff81168103610ef25790565b919392905f5b8581106114d85750505f5b83811061135e5750505060405191825260208201527f9ef3b5ca03c1e48d8c2f3cb3a0feeb10f66a0c76d4c67ad98036598e989a187d60406001600160a01b0333941692a3565b606081028201602081016001600160a01b03918261137b836112dd565b16156107a1578286169061138e816112f1565b93611398846112dd565b936113db604080968151809381926368fc2b7760e11b835260049b8c84019092916001600160a01b0360209167ffffffffffffffff604085019616845216910152565b0381885afa9081156114ce575f916114b0575b5015611403575b505050505050600101611317565b84611416611410856112f1565b926112dd565b9301359263ffffffff8416809403610ef257843b15610ef2575f9467ffffffffffffffff94606494879389519a8b9889977f25c471a0000000000000000000000000000000000000000000000000000000008952169087015216602485015260448401525af19081156114a757509060019291611498575b81928180806113f5565b6114a1906110b2565b5f61148e565b513d5f823e3d90fd5b6114c79150863d881161123f5761123081836110da565b505f6113ee565b86513d5f823e3d90fd5b8060051b820135605e1983360301811215610ef25782016001600160a01b039081611502826112dd565b16156107a157602080820190611518828461107c565b90501561162f578388169161153661152f856112dd565b918561107c565b61154660409492948097016112f1565b92853b15610ef25786517f08d6122d000000000000000000000000000000000000000000000000000000008152971660048801526060602488015260648701819052869360848501939290915f915b8183106115e257505050505f8381959367ffffffffffffffff829416604483015203925af19081156114a7575090600192916115d3575b500161130c565b6115dc906110b2565b5f6115cc565b919394909280965035907fffffffff000000000000000000000000000000000000000000000000000000008216809203610ef2578281600193829352019601930190918895949392611595565b6064906040519063d647364f60e01b82526004820152601560248201527f456d7074792073656c6563746f7220636f6e66696700000000000000000000006044820152fd5b3561ffff81168103610ef25790565b90816020910312610ef257516001600160a01b0381168103610ef2579056fea2646970667358221220c99b3295a7f527e706555caa73e15f27ffd49a5837fade4668296b27955c05e764736f6c63430008180033","linkReferences":{}},"methodIdentifiers":{"bootstrapAccessAndRuntime(address,(address,bytes4[],uint64)[],(uint64,address,uint32)[],(uint256,address,address,address,address,address,address,address,address,address,address,address[],uint16,string))":"ec41fe0c","configureAccessManager(address,(address,bytes4[],uint64)[],(uint64,address,uint32)[])":"35aa15ed"},"id":0}