{"abi":[{"type":"constructor","inputs":[{"name":"_governance","type":"address","internalType":"address"},{"name":"_actionRegistry","type":"address","internalType":"address"},{"name":"_verifierManager","type":"address","internalType":"address"},{"name":"_valuableActionSBT","type":"address","internalType":"address"},{"name":"_membershipToken","type":"address","internalType":"address"},{"name":"_communityId","type":"uint256","internalType":"uint256"}],"stateMutability":"nonpayable"},{"type":"function","name":"actionRegistry","inputs":[],"outputs":[{"name":"","type":"address","internalType":"contract ValuableActionRegistry"}],"stateMutability":"view"},{"type":"function","name":"appeals","inputs":[{"name":"","type":"uint256","internalType":"uint256"}],"outputs":[{"name":"claimId","type":"uint256","internalType":"uint256"},{"name":"appellant","type":"address","internalType":"address"},{"name":"appealReason","type":"string","internalType":"string"},{"name":"createdAt","type":"uint64","internalType":"uint64"},{"name":"status","type":"uint8","internalType":"enum Types.ClaimStatus"},{"name":"approvalsCount","type":"uint32","internalType":"uint32"},{"name":"rejectionsCount","type":"uint32","internalType":"uint32"},{"name":"resolved","type":"bool","internalType":"bool"}],"stateMutability":"view"},{"type":"function","name":"assignJurors","inputs":[{"name":"claimId","type":"uint256","internalType":"uint256"},{"name":"jurors","type":"address[]","internalType":"address[]"}],"outputs":[],"stateMutability":"nonpayable"},{"type":"function","name":"claims","inputs":[{"name":"","type":"uint256","internalType":"uint256"}],"outputs":[{"name":"typeId","type":"uint256","internalType":"uint256"},{"name":"worker","type":"address","internalType":"address"},{"name":"evidenceCID","type":"string","internalType":"string"},{"name":"status","type":"uint8","internalType":"enum Types.ClaimStatus"},{"name":"createdAt","type":"uint64","internalType":"uint64"},{"name":"verifyDeadline","type":"uint64","internalType":"uint64"},{"name":"approvalsCount","type":"uint32","internalType":"uint32"},{"name":"rejectionsCount","type":"uint32","internalType":"uint32"},{"name":"resolved","type":"bool","internalType":"bool"}],"stateMutability":"view"},{"type":"function","name":"claimsByWorker","inputs":[{"name":"","type":"uint256","internalType":"uint256"},{"name":"","type":"uint256","internalType":"uint256"}],"outputs":[{"name":"","type":"uint256","internalType":"uint256"}],"stateMutability":"view"},{"type":"function","name":"communityId","inputs":[],"outputs":[{"name":"","type":"uint256","internalType":"uint256"}],"stateMutability":"view"},{"type":"function","name":"getClaim","inputs":[{"name":"claimId","type":"uint256","internalType":"uint256"}],"outputs":[{"name":"typeId","type":"uint256","internalType":"uint256"},{"name":"worker","type":"address","internalType":"address"},{"name":"evidenceCID","type":"string","internalType":"string"},{"name":"status","type":"uint8","internalType":"enum Types.ClaimStatus"},{"name":"createdAt","type":"uint64","internalType":"uint64"},{"name":"verifyDeadline","type":"uint64","internalType":"uint64"},{"name":"jurors","type":"address[]","internalType":"address[]"},{"name":"approvalsCount","type":"uint32","internalType":"uint32"},{"name":"rejectionsCount","type":"uint32","internalType":"uint32"},{"name":"resolved","type":"bool","internalType":"bool"}],"stateMutability":"view"},{"type":"function","name":"getClaimInfo","inputs":[{"name":"claimId","type":"uint256","internalType":"uint256"}],"outputs":[{"name":"typeId","type":"uint256","internalType":"uint256"},{"name":"worker","type":"address","internalType":"address"},{"name":"evidenceCID","type":"string","internalType":"string"},{"name":"status","type":"uint8","internalType":"enum Types.ClaimStatus"},{"name":"createdAt","type":"uint64","internalType":"uint64"},{"name":"verifyDeadline","type":"uint64","internalType":"uint64"},{"name":"approvalsCount","type":"uint32","internalType":"uint32"},{"name":"rejectionsCount","type":"uint32","internalType":"uint32"}],"stateMutability":"view"},{"type":"function","name":"getClaimJurors","inputs":[{"name":"claimId","type":"uint256","internalType":"uint256"}],"outputs":[{"name":"jurors","type":"address[]","internalType":"address[]"}],"stateMutability":"view"},{"type":"function","name":"getClaimsByWorker","inputs":[{"name":"worker","type":"address","internalType":"address"}],"outputs":[{"name":"","type":"uint256[]","internalType":"uint256[]"}],"stateMutability":"view"},{"type":"function","name":"getCommunityId","inputs":[],"outputs":[{"name":"","type":"uint256","internalType":"uint256"}],"stateMutability":"view"},{"type":"function","name":"getPendingClaims","inputs":[{"name":"typeId","type":"uint256","internalType":"uint256"}],"outputs":[{"name":"","type":"uint256[]","internalType":"uint256[]"}],"stateMutability":"view"},{"type":"function","name":"getWorkerCooldown","inputs":[{"name":"worker","type":"address","internalType":"address"},{"name":"typeId","type":"uint256","internalType":"uint256"}],"outputs":[{"name":"nextAllowed","type":"uint64","internalType":"uint64"}],"stateMutability":"view"},{"type":"function","name":"governance","inputs":[],"outputs":[{"name":"","type":"address","internalType":"address"}],"stateMutability":"view"},{"type":"function","name":"hasJurorVoted","inputs":[{"name":"claimId","type":"uint256","internalType":"uint256"},{"name":"juror","type":"address","internalType":"address"}],"outputs":[{"name":"","type":"bool","internalType":"bool"}],"stateMutability":"view"},{"type":"function","name":"lastAppealId","inputs":[],"outputs":[{"name":"","type":"uint256","internalType":"uint256"}],"stateMutability":"view"},{"type":"function","name":"lastClaimId","inputs":[],"outputs":[{"name":"","type":"uint256","internalType":"uint256"}],"stateMutability":"view"},{"type":"function","name":"membershipToken","inputs":[],"outputs":[{"name":"","type":"address","internalType":"address"}],"stateMutability":"view"},{"type":"function","name":"pendingClaims","inputs":[{"name":"","type":"uint256","internalType":"uint256"},{"name":"","type":"uint256","internalType":"uint256"}],"outputs":[{"name":"","type":"uint256","internalType":"uint256"}],"stateMutability":"view"},{"type":"function","name":"revoke","inputs":[{"name":"claimId","type":"uint256","internalType":"uint256"}],"outputs":[],"stateMutability":"nonpayable"},{"type":"function","name":"submit","inputs":[{"name":"typeId","type":"uint256","internalType":"uint256"},{"name":"evidenceCID","type":"string","internalType":"string"}],"outputs":[{"name":"claimId","type":"uint256","internalType":"uint256"}],"stateMutability":"nonpayable"},{"type":"function","name":"submitAppeal","inputs":[{"name":"claimId","type":"uint256","internalType":"uint256"},{"name":"reason","type":"string","internalType":"string"}],"outputs":[{"name":"appealId","type":"uint256","internalType":"uint256"}],"stateMutability":"nonpayable"},{"type":"function","name":"updateContracts","inputs":[{"name":"_verifierManager","type":"address","internalType":"address"},{"name":"_valuableActionSBT","type":"address","internalType":"address"}],"outputs":[],"stateMutability":"nonpayable"},{"type":"function","name":"updateGovernance","inputs":[{"name":"_governance","type":"address","internalType":"address"}],"outputs":[],"stateMutability":"nonpayable"},{"type":"function","name":"valuableActionSBT","inputs":[],"outputs":[{"name":"","type":"address","internalType":"address"}],"stateMutability":"view"},{"type":"function","name":"verifierManager","inputs":[],"outputs":[{"name":"","type":"address","internalType":"address"}],"stateMutability":"view"},{"type":"function","name":"verify","inputs":[{"name":"claimId","type":"uint256","internalType":"uint256"},{"name":"approve","type":"bool","internalType":"bool"}],"outputs":[],"stateMutability":"nonpayable"},{"type":"function","name":"workerCooldowns","inputs":[{"name":"","type":"address","internalType":"address"},{"name":"","type":"uint256","internalType":"uint256"}],"outputs":[{"name":"","type":"uint64","internalType":"uint64"}],"stateMutability":"view"},{"type":"event","name":"AppealResolved","inputs":[{"name":"appealId","type":"uint256","indexed":true,"internalType":"uint256"},{"name":"status","type":"uint8","indexed":false,"internalType":"enum Types.ClaimStatus"}],"anonymous":false},{"type":"event","name":"AppealSubmitted","inputs":[{"name":"appealId","type":"uint256","indexed":true,"internalType":"uint256"},{"name":"claimId","type":"uint256","indexed":true,"internalType":"uint256"},{"name":"appellant","type":"address","indexed":true,"internalType":"address"},{"name":"reason","type":"string","indexed":false,"internalType":"string"}],"anonymous":false},{"type":"event","name":"ClaimResolved","inputs":[{"name":"claimId","type":"uint256","indexed":true,"internalType":"uint256"},{"name":"status","type":"uint8","indexed":false,"internalType":"enum Types.ClaimStatus"},{"name":"finalApprovals","type":"uint32","indexed":false,"internalType":"uint32"},{"name":"finalRejections","type":"uint32","indexed":false,"internalType":"uint32"}],"anonymous":false},{"type":"event","name":"ClaimRevoked","inputs":[{"name":"claimId","type":"uint256","indexed":true,"internalType":"uint256"},{"name":"revoker","type":"address","indexed":true,"internalType":"address"}],"anonymous":false},{"type":"event","name":"ClaimSubmitted","inputs":[{"name":"claimId","type":"uint256","indexed":true,"internalType":"uint256"},{"name":"typeId","type":"uint256","indexed":true,"internalType":"uint256"},{"name":"worker","type":"address","indexed":true,"internalType":"address"},{"name":"evidenceCID","type":"string","indexed":false,"internalType":"string"}],"anonymous":false},{"type":"event","name":"ClaimVerified","inputs":[{"name":"claimId","type":"uint256","indexed":true,"internalType":"uint256"},{"name":"verifier","type":"address","indexed":true,"internalType":"address"},{"name":"approve","type":"bool","indexed":false,"internalType":"bool"}],"anonymous":false},{"type":"event","name":"CooldownUpdated","inputs":[{"name":"worker","type":"address","indexed":true,"internalType":"address"},{"name":"typeId","type":"uint256","indexed":true,"internalType":"uint256"},{"name":"nextAllowed","type":"uint64","indexed":false,"internalType":"uint64"}],"anonymous":false},{"type":"event","name":"JurorsAssigned","inputs":[{"name":"claimId","type":"uint256","indexed":true,"internalType":"uint256"},{"name":"jurors","type":"address[]","indexed":false,"internalType":"address[]"}],"anonymous":false},{"type":"error","name":"InvalidInput","inputs":[{"name":"reason","type":"string","internalType":"string"}]},{"type":"error","name":"NotAuthorized","inputs":[{"name":"caller","type":"address","internalType":"address"}]},{"type":"error","name":"ZeroAddress","inputs":[]}],"bytecode":{"object":"0x60c0346200015f57601f6200311a38819003918201601f191683019291906001600160401b0384118385101762000163578160c092849260409687528339810103126200015f57620000518162000177565b90620000606020820162000177565b6200006d84830162000177565b916200007c6060820162000177565b60a06200008c6080840162000177565b920151946001600160a01b039081169384156200014e5781169485156200014e5781169182156200014e5781169283156200014e57169384156200013d5760018060a01b031993846002541617600255608052825f5416175f55816001541617600155600354161760035560a05251612f8d90816200018d82396080518181816103120152818161098401526116bf015260a051818181610c5f015281816121f401528181612a340152612d290152f35b865163d92e233d60e01b8152600490fd5b875163d92e233d60e01b8152600490fd5b5f80fd5b634e487b7160e01b5f52604160045260245ffd5b51906001600160a01b03821682036200015f5756fe6080806040526004361015610012575f80fd5b5f3560e01c908163090563f4146120bb575080630b4eb2e414611f975780630cbd99a61461209657806320c5429b14611fe5578063235e0f0b14611f975780633e7cb0d3146114d85780633f6e3ca9146112535780635aa6e6751461122d5780635aef2447146111335780635d63f6c61461096557806362ad351b1461093f5780636c8dc288146108f25780637119ca76146108d557806375b0e1f1146106815780637e0766d41461067c5780637f50861a1461067c578063a888c2cd146105b9578063acff868714610503578063b256126314610492578063d2070193146103df578063dc133a541461039e578063de979c4114610336578063e4e39678146102f3578063e692c49f1461026c578063e890118414610246578063efa037fa146101c0578063f21dc8b8146101915763fdb33ecb14610150575f80fd5b3461018d5761015e36612362565b905f52600a60205260405f20805482101561018d5760209161017f91612378565b90546040519160031b1c8152f35b5f80fd5b3461018d5761019f36612362565b905f52600960205260405f20805482101561018d5760209161017f91612378565b3461018d5760208060031936011261018d576001600160a01b036101e26120d5565b165f52600960205260405f20906040519081602084549182815201935f5260205f20915f905b82821061022f5761022b8561021f81890382612263565b60405191829182612327565b0390f35b835486529485019460019384019390910190610208565b3461018d575f36600319011261018d5760206001600160a01b0360015416604051908152f35b3461018d57604036600319011261018d576102856120d5565b61028d6120eb565b6001600160a01b0391826002541633036102dc578216806102c7575b5016806102b257005b6001600160a01b031960015416176001555f80f35b6001600160a01b03195f5416175f55826102a9565b6024604051634a0bfec160e01b8152336004820152fd5b3461018d575f36600319011261018d5760206040516001600160a01b037f0000000000000000000000000000000000000000000000000000000000000000168152f35b3461018d5760208060031936011261018d576004355f52600a60205260405f20906040519081602084549182815201935f5260205f20915f905b8282106103875761022b8561021f81890382612263565b835486529485019460019384019390910190610370565b3461018d57602036600319011261018d576004355f52600660205261022b6103cb600460405f2001612422565b6040519182916020835260208301906121a1565b3461018d57602036600319011261018d576004355f52600660205260405f208054906001600160a01b036001820154169060038101549067ffffffffffffffff600782015490610458610439600263ffffffff9501612285565b604051978897610100918952602089015280604089015287019061216f565b936104696060870160ff8316612194565b818160081c16608087015260481c1660a085015281811660c085015260201c1660e08301520390f35b3461018d57602036600319011261018d576104ab6120d5565b600254906001600160a01b039081831633036102dc57169081156104d9576001600160a01b03191617600255005b60046040517fd92e233d000000000000000000000000000000000000000000000000000000008152fd5b3461018d57602036600319011261018d576004355f52600760205260405f208054906001600160a01b036001820154169060ff61054260028301612285565b600660038401549301549061059861057863ffffffff92604051988998610100918a5260208a01528060408a015288019061216f565b9467ffffffffffffffff8116606088015284608088019160401c16612194565b80821660a08601528160201c1660c085015260401c16151560e08301520390f35b3461018d57602036600319011261018d576004355f52600660205260405f208054906001600160a01b036001820154169060ff6105f860028301612285565b91600381015492600767ffffffffffffffff9201549161063663ffffffff92604051988998610120918a5260208a01528060408a015288019061216f565b9461064660608801868316612194565b818160081c16608088015260481c1660a086015280821660c08601528160201c1660e085015260401c1615156101008301520390f35b6121dd565b3461018d57604036600319011261018d5760043560249081359167ffffffffffffffff80841161018d573660238501121561018d57836004013590811161018d57818401938236918360051b01011161018d576001600160a01b0391825f541633036108c057831580156108b5575b61086f57835f526020906006825260405f209060ff600383015416600481101561085c576108185783156107d45750909291906004016107308282612753565b5f90815283812090865b8382106107af575050506040519281818501828652526040840195925f905b83821061078957867ff083f0aa71f20298d1c44ffb7a3ecf49b9dcdaa51dcf4a0b519a39167bcb1c8a878a0388a2005b909192939687359082821680920361018d57908152830196830193929160010190610759565b80959394953591868316830361018d578460019201928185015501909493929461073a565b8260126064926040519263d647364f60e01b845260048401528201527f4e6f206a75726f72732070726f766964656400000000000000000000000000006044820152fd5b8260116064926040519263d647364f60e01b845260048401528201527f436c61696d206e6f742070656e64696e670000000000000000000000000000006044820152fd5b50634e487b7160e01b5f5260216004525ffd5b60405163d647364f60e01b815260206004820152601060248201527f496e76616c696420636c61696d204944000000000000000000000000000000006044820152606490fd5b5060045484116106f0565b604051634a0bfec160e01b8152336004820152fd5b3461018d575f36600319011261018d576020600454604051908152f35b3461018d57604036600319011261018d5761090b6120eb565b6004355f5260066020526001600160a01b03600660405f200191165f52602052602060ff60405f2054166040519015158152f35b3461018d575f36600319011261018d5760206001600160a01b0360035416604051908152f35b3461018d5761097336612101565b9081156110ee576001600160a01b037f0000000000000000000000000000000000000000000000000000000000000000169260405193632e7edc3160e11b85528160048601525f85602481845afa9485156110b9575f956110c4575b506020602491604051928380927fe9ea801c0000000000000000000000000000000000000000000000000000000082528660048301525afa9081156110b9575f9161107f575b501561103a57335f52600860205260405f20815f5260205267ffffffffffffffff60405f2054164210610ff5575f335f52600960205260405f205f908054915b828110610f7d5750505063ffffffff610120860151161115610f1257610a7c6004546123d7565b9283600455835f52600660205260405f2082815560018101336001600160a01b031982541617905567ffffffffffffffff8211610d7857610ac06002820154612217565b601f8111610ed4575b50815f601f8211600114610e6a575f91610e5f575b508260011b905f198460031b1c19161760028201555b60038101805470ffffffffffffffff000000000000000000610b2063ffffffff60a08b015116426123ca565b60481b16907fffffffffffffffffffffffffffffff000000000000000000000000000000000068ffffffffffffffff004260081b169116171790556001600160a01b035f54169586151580610e55575b610be2575b5050602094507fbee96127fc856f54721f3e15c7d0f27a7947ed6c05f35a313ef16b5ae6653a83610bd78592845f52600a8852610bb58460405f2061278a565b335f5260098852610bc98460405f2061278a565b6040519182913397836123fb565b0390a4604051908152f35b608063ffffffff91015116604051964260208901524460408901528660608901526060885287608081011067ffffffffffffffff60808a011117610d78575f9160808901604052885160208a0120907f705ac2f00000000000000000000000000000000000000000000000000000000060808b01528860848b01527f000000000000000000000000000000000000000000000000000000000000000060a48b015260c48a015260e48901528161010489015260a460808901918360808b01915af15f9681610d8c575b50610cb7575b80610b75565b60040194805167ffffffffffffffff8111610d7857610cd68188612753565b60208201965f5260205f20965f5b828110610d5b5750505060209550610bd78592837ff083f0aa71f20298d1c44ffb7a3ecf49b9dcdaa51dcf4a0b519a39167bcb1c8a610d507fbee96127fc856f54721f3e15c7d0f27a7947ed6c05f35a313ef16b5ae6653a83956040519182918d83528d8301906121a1565b0390a2925050610cb1565b60019060206001600160a01b03845116930192818b015501610ce4565b634e487b7160e01b5f52604160045260245ffd5b9096503d805f608084013e610da48160808401612263565b602082828101031261018d5760808201519067ffffffffffffffff821161018d57608081840101609f83850101121561018d576080828401015191610de88361250c565b93610df66040519586612263565b8385526080602086019382010160a08560051b84840101011161018d5780820160a00192915b60a08560051b82840101018410610e395750505050509587610cab565b60208060a094610e4887612497565b8152019401939250610e1c565b50863b1515610b70565b905084013587610ade565b9050600282015f5260205f20905f5b601f1985168110610ebc575083601f19811610610ea3575b5050600182811b016002820155610af4565b8501355f19600385901b60f8161c191690558680610e91565b9091602060018192858a013581550193019101610e79565b610f0290600283015f5260205f20601f850160051c81019160208610610f08575b601f0160051c01906123e5565b86610ac9565b9091508190610ef5565b608460405163d647364f60e01b815260206004820152602f60248201527f546f6f206d616e7920636f6e63757272656e7420636c61696d7320666f72207460448201527f68697320616374696f6e207479706500000000000000000000000000000000006064820152fd5b610f878183612378565b9054600391821b1c5f52600660205260405f2090868254149182610fc9575b5050610fb5575b600101610a55565b92610fc16001916123d7565b939050610fad565b60ff92500154166004811015610fe157158980610fa6565b634e487b7160e01b5f52602160045260245ffd5b606460405163d647364f60e01b815260206004820152601c60248201527f576f726b657220697320696e20636f6f6c646f776e20706572696f64000000006044820152fd5b606460405163d647364f60e01b815260206004820152601960248201527f416374696f6e2074797065206973206e6f7420616374697665000000000000006044820152fd5b90506020813d6020116110b1575b8161109a60209383612263565b8101031261018d576110ab9061248a565b85610a15565b3d915061108d565b6040513d5f823e3d90fd5b60249195506110e66020913d805f833e6110de8183612263565b810190612539565b9591506109cf565b606460405163d647364f60e01b815260206004820152601c60248201527f45766964656e6365204349442063616e6e6f7420626520656d707479000000006044820152fd5b3461018d57602036600319011261018d5760043580158015611222575b61086f575f52600660205260405f208054906001600160a01b036001820154169060ff6003820154916111fe67ffffffffffffffff9360078301549263ffffffff956111cd6111ad60046111a660028601612285565b9401612422565b926040519a8b9a610140918c5260208c01528060408c01528a019061216f565b926111dd60608a01888316612194565b818160081c1660808a015260481c1660a088015286820360c08801526121a1565b9280821660e08601528160201c1661010085015260401c1615156101208301520390f35b506004548111611150565b3461018d575f36600319011261018d5760206001600160a01b0360025416604051908152f35b3461018d5761126136612101565b90821580156114cd575b61086f57825f526020926006845260405f206001906001600160a01b03828201541633036102dc576003015460ff166004811015610fe157600203611488578315611443576112bb6005546123d7565b9384600555845f526007865260405f20838155828101336001600160a01b0319825416179055600281019067ffffffffffffffff91828411610d785787946113038254612217565b601f8111611415575b505f601f861160011461138b5792610bd7949286806003947f8b854ce0da61627b71db5b08aa8add12d290d4986ff2a3fa0a8a4bbec82adf4099975f93611380575b501b905f1987861b1c19161790555b0190421668ffffffffffffffffff198254161790556040519182913397836123fb565b8d013592508f61134e565b601f19861690835f528b5f20915f5b8d8c8383106113ff5750505092879592610bd79795927f8b854ce0da61627b71db5b08aa8add12d290d4986ff2a3fa0a8a4bbec82adf4099600396106113e8575b505085811b01905561135d565b8c01355f1988871b60f8161c191690558d806113db565b84013585558d9a5093850193928301920161139a565b61143d90835f528b5f20601f880160051c8101918d8910610f0857601f0160051c01906123e5565b8a61130c565b6064856040519063d647364f60e01b82526004820152601d60248201527f41707065616c20726561736f6e2063616e6e6f7420626520656d7074790000006044820152fd5b6064856040519063d647364f60e01b82526004820152601f60248201527f43616e206f6e6c792061707065616c2072656a656374656420636c61696d73006044820152fd5b50600454831161126b565b3461018d57604036600319011261018d5760043560248035918215159283810361018d575f925f5b835f526006602052600460405f20018054821015611f8d5761152a826001600160a01b0392612378565b919054339260031b1c161461154157600101611500565b509091925060015b156108c057825f5260206006815260405f2094600786019260ff845460401c16611f495767ffffffffffffffff96600390888282015460481c164211611f055760058101335f5280865260ff60405f205416611ec15790600491335f52865260405f209460019860ff19968a8882541617905560068301885260405f208781541660ff84161790555f14611e8e57875463ffffffff6115e98183166123a1565b169063ffffffff19161788555b604051908152897f4e4c58163587b8c8cf445c69be779a18e3e847feb29a0230d7897cab1b71fa00883393a30154861c94868601809611611e7b575463ffffffff958616908087168211611cb7575050865f526006845260405f2092868285019182541617905560078301976801000000000000000068ff0000000000000000198a54161789556001600160a01b03805f54168015159081611cac575b5080611c9f575b611c91575b5f9185549560405192632e7edc3160e11b84528760048501525f848881847f0000000000000000000000000000000000000000000000000000000000000000165afa80156110b9578b988a955f92611c75575b50848c6101008401511680611c37575b505050818754168d81151580611c2b575b611af6575b50508a828a541691826118cf575b505050819293949596977fd8eb0cefdb0127a28f46f819c890dd12498a91c4e8651ad37cdb4c198f57827392015416915493849383875260088252604087208588528252604087205416604051908152a38152600a8452604081209281875b6117d0575b505050505090606092917ff31ec2e0b9a8dc658930091fcba29f94ae79b74eb810a8267e6305b0cca5c60394955490604051938452828216818501521c166040820152a2005b8454808210156118c957896117e58388612378565b905490871b1c146117f95750870187611785565b935f9a969798999a19948581019081116118b657611843929161181f61182b9289612378565b9054911b1c9187612378565b90919082549060031b91821b915f19901b1916179055565b83549182156118a55750509160609593917ff31ec2e0b9a8dc658930091fcba29f94ae79b74eb810a8267e6305b0cca5c60397959301906118976118878383612378565b8154905f199060031b1b19169055565b55959481929394888061178a565b634e487b7160e01b81526031600452fd5b8385634e487b7160e01b81526011600452fd5b5061178a565b9092949697989950829193955051168015155f14611aee575b166118f28c612e2d565b91611a3a605f6119028754612e2d565b9461190c85612e2d565b8d611a0561191942612e2d565b92604051998a957f7b2274797065223a22636c61696d222c226964223a000000000000000000000085880152611958815180928760358b01910161214e565b86017f2c2276616c7561626c65416374696f6e223a00000000000000000000000000006035820152611993825180938760478501910161214e565b017f2c22706f696e7473223a0000000000000000000000000000000000000000000060478201526119cd825180938660518501910161214e565b01917f2c2274696d657374616d70223a0000000000000000000000000000000000000060518401528351938491605e8501910161214e565b017f7d00000000000000000000000000000000000000000000000000000000000000605e82015203603f810186520184612263565b838c86015416813b15611aea57908988809493611a96604051978896879586947f18399ef2000000000000000000000000000000000000000000000000000000008652600486015284015260606044840152606483019061216f565b03925af18015611adf57918893918b9897969593611ab6575b8a81611726565b8596979850611ac991939592945061224f565b611adb5791869189969594938d611aaf565b8380fd5b6040513d87823e3d90fd5b8780fd5b50600a6118e8565b611b8f9a50611b9e91929650604590611b18611b128754612e2d565b91612e2d565b8d6040519d8e937f56616c7561626c65416374696f6e20230000000000000000000000000000000083860152611b57815180928560308901910161214e565b8401917f20636f6d706c6574696f6e202d20436c61696d2023000000000000000000000060308401528351938491878501910161214e565b0103602581018c52018a612263565b818c84015416908b86511690803b1561018d57895f8094611bfe6040519e8f96879586947fd3fc9864000000000000000000000000000000000000000000000000000000008652600486015284015260606044840152606483019061216f565b03925af19384156110b9578b988a95611c18575b8d611718565b611c2391965061224f565b5f948e611c12565b508c8351161515611713565b611c4190426123ca565b1690838b860154165f526008875260405f20905f52865260405f209067ffffffffffffffff198254161790558e8481611702565b611c8a9192503d805f833e6110de8183612263565b908f6116f2565b611c9a89612b87565b61169f565b506004850154151561169a565b90503b15158b611693565b85879896999a5096919294961c161015611ccd57005b8291875f526006875260405f209460028287019182541617905560078501946801000000000000000068ff0000000000000000198754161786556001600160a01b035f54168015159081611e70575b5080611e63575b611e55575b545f52600a875260405f20915f945b611d81575b5050505050916060917ff31ec2e0b9a8dc658930091fcba29f94ae79b74eb810a8267e6305b0cca5c60393546040519260028452828216818501521c166040820152a2005b825480861015611e4f5789611d968786612378565b905490851b1c14611dac57508380950194611d37565b93509193905f1993848101908111611e3c57611ddc9291611dd061182b9288612378565b9054911b1c9186612378565b8254908115611e2a5750917ff31ec2e0b9a8dc658930091fcba29f94ae79b74eb810a8267e6305b0cca5c603959391606095930190611e1e6118878383612378565b55919381938780611d3c565b634e487b7160e01b5f5260316004525ffd5b83634e487b7160e01b5f5260116004525ffd5b50611d3c565b611e5e896127f8565b611d28565b5060048101541515611d23565b90503b15158a611d1c565b82634e487b7160e01b5f5260116004525ffd5b875467ffffffff00000000611eaa63ffffffff838b1c166123a1565b891b169067ffffffff0000000019161788556115f6565b6064866013866040519263d647364f60e01b845260048401528201527f4a75726f7220616c726561647920766f746564000000000000000000000000006044820152fd5b606485601c856040519263d647364f60e01b845260048401528201527f566572696669636174696f6e20646561646c696e6520706173736564000000006044820152fd5b8260166064926040519263d647364f60e01b845260048401528201527f436c61696d20616c7265616479207265736f6c766564000000000000000000006044820152fd5b5050909192611549565b3461018d57604036600319011261018d576001600160a01b03611fb86120d5565b165f52600860205260405f206024355f52602052602067ffffffffffffffff60405f205416604051908152f35b3461018d57602036600319011261018d576004356001600160a01b036002541633036102dc578015801561208b575b61086f57805f52600660205260405f2060ff600782015460401c1680612071575b61203b57005b600301600360ff1982541617905533907f2773a4866bfa84cbee6a7def6453a797ed617c6d11fcd93b8c0c1f94570b94345f80a3005b5060ff6003820154166004811015610fe157600114612035565b506004548111612014565b3461018d575f36600319011261018d5760206001600160a01b035f5416604051908152f35b3461018d575f36600319011261018d576020906005548152f35b600435906001600160a01b038216820361018d57565b602435906001600160a01b038216820361018d57565b604060031982011261018d576004359160243567ffffffffffffffff9283821161018d578060238301121561018d57816004013593841161018d576024848301011161018d576024019190565b5f5b83811061215f5750505f910152565b8181015183820152602001612150565b906020916121888151809281855285808601910161214e565b601f01601f1916010190565b906004821015610fe15752565b9081518082526020808093019301915f5b8281106121c0575050505090565b83516001600160a01b0316855293810193928101926001016121b2565b3461018d575f36600319011261018d5760206040517f00000000000000000000000000000000000000000000000000000000000000008152f35b90600182811c92168015612245575b602083101461223157565b634e487b7160e01b5f52602260045260245ffd5b91607f1691612226565b67ffffffffffffffff8111610d7857604052565b90601f8019910116810190811067ffffffffffffffff821117610d7857604052565b9060405191825f825461229781612217565b908184526020946001916001811690815f1461230557506001146122c7575b5050506122c592500383612263565b565b5f90815285812095935091905b8183106122ed5750506122c593508201015f80806122b6565b855488840185015294850194879450918301916122d4565b925050506122c594925060ff191682840152151560051b8201015f80806122b6565b60209060206040818301928281528551809452019301915f5b82811061234e575050505090565b835185529381019392810192600101612340565b604090600319011261018d576004359060243590565b805482101561238d575f5260205f2001905f90565b634e487b7160e01b5f52603260045260245ffd5b63ffffffff8091169081146123b65760010190565b634e487b7160e01b5f52601160045260245ffd5b919082018092116123b657565b5f1981146123b65760010190565b8181106123f0575050565b5f81556001016123e5565b90918060409360208452816020850152848401375f828201840152601f01601f1916010190565b90604051918281549182825260209260208301915f5260205f20935f905b828210612456575050506122c592500383612263565b85546001600160a01b031684526001958601958895509381019390910190612440565b519063ffffffff8216820361018d57565b5190811515820361018d57565b51906001600160a01b038216820361018d57565b67ffffffffffffffff8111610d7857601f01601f191660200190565b81601f8201121561018d5780516124dd816124ab565b926124eb6040519485612263565b8184526020828401011161018d57612509916020808501910161214e565b90565b67ffffffffffffffff8111610d785760051b60200190565b519067ffffffffffffffff8216820361018d57565b602091828282031261018d57815167ffffffffffffffff9283821161018d5701916102a093848484031261018d5760405194850185811083821117610d785760405261258484612479565b8552612591818501612479565b818601526125a160408501612479565b60408601526125b260608501612479565b60608601526125c360808501612479565b60808601526125d460a08501612479565b60a08601526125e560c08501612479565b60c08601526125f660e08501612479565b60e0860152610100612609818601612479565b9086015261012061261b818601612479565b9086015261014061262d81860161248a565b9086015261016061263f818601612479565b9086015261018080850151908601526101a061265c818601612497565b908601526101c061266e81860161248a565b908601526101e08085015183811161018d578461268c9187016124c7565b908601526102008085015183811161018d57846126aa9187016124c7565b90860152610220918285015190811161018d5784019280601f8501121561018d5783516126d68161250c565b946126e46040519687612263565b818652838087019260051b82010192831161018d578301905b8282106127445750505050830152610240612719818301612524565b9083015261026061272b818301612524565b9083015261273d61028080920161248a565b9082015290565b815181529083019083016126fd565b90680100000000000000008111610d785781549080835581811061277657505050565b6122c5925f5260205f2091820191016123e5565b9081549168010000000000000000831015610d78578261182b9160016122c595018155612378565b906127bc8261250c565b6127c96040519182612263565b82815280926127da601f199161250c565b0190602036910137565b805182101561238d5760209160051b010190565b5f815f52602090600682526040805f20906004908183018054908115612b7d5790612822816127b2565b945f92600582019160060190845b848110612aef5750505050508061284b575b50505050505050565b61285b81989394959697986127b2565b94865b828110612ac7575050508461287288612e2d565b95612ab457506002965f949088805b612a9e575061288f866124ab565b9761289c8451998a612263565b8689526128a8876124ab565b8982019790601f19013689375b808b15612980575f19820191821161296d57819b600a928382049380850290858204148515171561295a5782039182116129475760ff809216603001918211612947578c5111156129345760f81b7fff00000000000000000000000000000000000000000000000000000000000000165f1a908b01601f0153996128b5565b603289634e487b7160e01b5f525260245ffd5b60118a634e487b7160e01b5f525260245ffd5b60118b634e487b7160e01b5f525260245ffd5b601188634e487b7160e01b5f525260245ffd5b505090939850603791956129ba95986129ef6129fe95998a51988565636c61696d2d60d01b8b97880152825192839160268901910161214e565b8401917f2d696e636f72726563742d766f7465732d00000000000000000000000000000060268401525180938684019061214e565b01036017810185520183612263565b6001600160a01b035f541691823b1561018d57612a6995612a7b5f969287935198899788968795634f87330d60e11b87528601527f000000000000000000000000000000000000000000000000000000000000000060248601526080604486015260848501906121a1565b8381036003190160648501529061216f565b03925af1612a8f575b808080808080612842565b612a989061224f565b5f612a84565b9895612aab600a916123d7565b96990480612881565b80602185634e487b7160e01b6024945252fd5b806001600160a01b03612adc600193856127e4565b5116612ae8828a6127e4565b520161285e565b6001600160a01b03612b018284612378565b90549060031b1c16808b52848c528a8c8560ff91828c8520541615612b70575289822054169b612b5d57505f9a612b3e575b506001905b01612830565b86612b5691612b50600194998d6127e4565b526123d7565b9590612b33565b8060218b634e487b7160e01b6024945252fd5b5050505050600190612b38565b5050505050505050565b805f526020600681526040805f20600480820180549081156128425790612bad816127b2565b935f92600582019160060190845b848110612dc457505050505080612bd5575b505050505050565b612be68197929397969495966127b2565b965f5b828110612d9657505050612bfc83612e2d565b936001968794855f965b612d805750612c14866124ab565b97612c218451998a612263565b868952612c2d876124ab565b8982019790601f19013689375b808b15612cb9575f19820191821161296d57819b600a928382049380850290858204148515171561295a5782039182116129475760ff809216603001918211612947578c5111156129345760f81b7fff00000000000000000000000000000000000000000000000000000000000000165f1a908b01601f015399612c3a565b505090939850603791956129ba95986129ef612cf395998a51988565636c61696d2d60d01b8b97880152825192839160268901910161214e565b6001600160a01b035f541691823b1561018d57612a6995612d5e5f969287935198899788968795634f87330d60e11b87528601527f000000000000000000000000000000000000000000000000000000000000000060248601526080604486015260848501906121a1565b03925af1612d71575b8080808080612bcd565b612d7a9061224f565b5f612d67565b9895612d8d600a916123d7565b96990480612c06565b806001600160a01b03612dae600193859c999c6127e4565b5116612dba82896127e4565b5201979497612be9565b6001600160a01b03612dd68284612378565b90549060031b1c16805f52848b5260ff808b5f20541615612e2357848c528a5f20541615612e0a575b506001905b01612bbb565b86612e1c91612b50600194998c6127e4565b9590612dff565b5050600190612e04565b8015612f0c57905f9082805b612ef25750612e47826124ab565b91612e556040519384612263565b808352601f19612e64826124ab565b013660208501375b808415612eeb575f1982019182116123b6578194600a92838204938085029085820414851517156123b65782039182116123b65760ff8092166030019182116123b6578551111561238d5760f81b7fff00000000000000000000000000000000000000000000000000000000000000165f1a908401601f015392612e6c565b5050915090565b91612f01600a919492946123d7565b920480939193612e39565b506040516040810181811067ffffffffffffffff821117610d7857604052600181527f300000000000000000000000000000000000000000000000000000000000000060208201529056fea2646970667358221220384f8428abab54420ad5a062dd3c6e2ff919688116232ba7499c67bad9e6cb9e64736f6c63430008180033","linkReferences":{}},"methodIdentifiers":{"actionRegistry()":"e4e39678","appeals(uint256)":"acff8687","assignJurors(uint256,address[])":"75b0e1f1","claims(uint256)":"a888c2cd","claimsByWorker(uint256,uint256)":"f21dc8b8","communityId()":"7f50861a","getClaim(uint256)":"5aef2447","getClaimInfo(uint256)":"d2070193","getClaimJurors(uint256)":"dc133a54","getClaimsByWorker(address)":"efa037fa","getCommunityId()":"7e0766d4","getPendingClaims(uint256)":"de979c41","getWorkerCooldown(address,uint256)":"235e0f0b","governance()":"5aa6e675","hasJurorVoted(uint256,address)":"6c8dc288","lastAppealId()":"090563f4","lastClaimId()":"7119ca76","membershipToken()":"62ad351b","pendingClaims(uint256,uint256)":"fdb33ecb","revoke(uint256)":"20c5429b","submit(uint256,string)":"5d63f6c6","submitAppeal(uint256,string)":"3f6e3ca9","updateContracts(address,address)":"e692c49f","updateGovernance(address)":"b2561263","valuableActionSBT()":"e8901184","verifierManager()":"0cbd99a6","verify(uint256,bool)":"3e7cb0d3","workerCooldowns(address,uint256)":"0b4eb2e4"},"id":8}