{
  "_format": "hh-sol-artifact-1",
  "contractName": "CohortRegistry",
  "sourceName": "contracts/modules/CohortRegistry.sol",
  "abi": [
    {
      "inputs": [
        {
          "internalType": "address",
          "name": "manager",
          "type": "address"
        },
        {
          "internalType": "uint256",
          "name": "_communityId",
          "type": "uint256"
        }
      ],
      "stateMutability": "nonpayable",
      "type": "constructor"
    },
    {
      "inputs": [
        {
          "internalType": "address",
          "name": "authority",
          "type": "address"
        }
      ],
      "name": "AccessManagedInvalidAuthority",
      "type": "error"
    },
    {
      "inputs": [
        {
          "internalType": "address",
          "name": "caller",
          "type": "address"
        },
        {
          "internalType": "uint32",
          "name": "delay",
          "type": "uint32"
        }
      ],
      "name": "AccessManagedRequiredDelay",
      "type": "error"
    },
    {
      "inputs": [
        {
          "internalType": "address",
          "name": "caller",
          "type": "address"
        }
      ],
      "name": "AccessManagedUnauthorized",
      "type": "error"
    },
    {
      "inputs": [
        {
          "internalType": "string",
          "name": "reason",
          "type": "string"
        }
      ],
      "name": "InvalidInput",
      "type": "error"
    },
    {
      "inputs": [],
      "name": "ZeroAddress",
      "type": "error"
    },
    {
      "anonymous": false,
      "inputs": [
        {
          "indexed": false,
          "internalType": "address",
          "name": "authority",
          "type": "address"
        }
      ],
      "name": "AuthorityUpdated",
      "type": "event"
    },
    {
      "anonymous": false,
      "inputs": [
        {
          "indexed": true,
          "internalType": "uint256",
          "name": "cohortId",
          "type": "uint256"
        },
        {
          "indexed": false,
          "internalType": "uint256",
          "name": "finalRecoveredTotal",
          "type": "uint256"
        }
      ],
      "name": "CohortCompleted",
      "type": "event"
    },
    {
      "anonymous": false,
      "inputs": [
        {
          "indexed": true,
          "internalType": "uint256",
          "name": "communityId",
          "type": "uint256"
        },
        {
          "indexed": true,
          "internalType": "uint256",
          "name": "cohortId",
          "type": "uint256"
        },
        {
          "indexed": false,
          "internalType": "uint16",
          "name": "targetRoiBps",
          "type": "uint16"
        },
        {
          "indexed": false,
          "internalType": "uint32",
          "name": "priorityWeight",
          "type": "uint32"
        },
        {
          "indexed": false,
          "internalType": "bytes32",
          "name": "termsHash",
          "type": "bytes32"
        }
      ],
      "name": "CohortCreated",
      "type": "event"
    },
    {
      "anonymous": false,
      "inputs": [
        {
          "indexed": true,
          "internalType": "uint256",
          "name": "cohortId",
          "type": "uint256"
        },
        {
          "indexed": false,
          "internalType": "uint256",
          "name": "amount",
          "type": "uint256"
        },
        {
          "indexed": false,
          "internalType": "uint256",
          "name": "newRecoveredTotal",
          "type": "uint256"
        }
      ],
      "name": "CohortPaid",
      "type": "event"
    },
    {
      "anonymous": false,
      "inputs": [
        {
          "indexed": true,
          "internalType": "uint256",
          "name": "cohortId",
          "type": "uint256"
        },
        {
          "indexed": true,
          "internalType": "address",
          "name": "investor",
          "type": "address"
        },
        {
          "indexed": false,
          "internalType": "uint256",
          "name": "amount",
          "type": "uint256"
        }
      ],
      "name": "InvestmentAdded",
      "type": "event"
    },
    {
      "anonymous": false,
      "inputs": [
        {
          "indexed": false,
          "internalType": "address",
          "name": "oldRouter",
          "type": "address"
        },
        {
          "indexed": false,
          "internalType": "address",
          "name": "newRouter",
          "type": "address"
        }
      ],
      "name": "RevenueRouterUpdated",
      "type": "event"
    },
    {
      "anonymous": false,
      "inputs": [
        {
          "indexed": false,
          "internalType": "address",
          "name": "oldSBT",
          "type": "address"
        },
        {
          "indexed": false,
          "internalType": "address",
          "name": "newSBT",
          "type": "address"
        }
      ],
      "name": "ValuableActionSBTUpdated",
      "type": "event"
    },
    {
      "inputs": [
        {
          "internalType": "uint256",
          "name": "cohortId",
          "type": "uint256"
        },
        {
          "internalType": "address",
          "name": "investor",
          "type": "address"
        },
        {
          "internalType": "uint256",
          "name": "amount",
          "type": "uint256"
        },
        {
          "internalType": "uint256",
          "name": "tokenId",
          "type": "uint256"
        }
      ],
      "name": "addInvestment",
      "outputs": [],
      "stateMutability": "nonpayable",
      "type": "function"
    },
    {
      "inputs": [],
      "name": "authority",
      "outputs": [
        {
          "internalType": "address",
          "name": "",
          "type": "address"
        }
      ],
      "stateMutability": "view",
      "type": "function"
    },
    {
      "inputs": [
        {
          "internalType": "uint256",
          "name": "",
          "type": "uint256"
        },
        {
          "internalType": "uint256",
          "name": "",
          "type": "uint256"
        }
      ],
      "name": "cohortInvestors",
      "outputs": [
        {
          "internalType": "address",
          "name": "",
          "type": "address"
        }
      ],
      "stateMutability": "view",
      "type": "function"
    },
    {
      "inputs": [
        {
          "internalType": "uint256",
          "name": "",
          "type": "uint256"
        }
      ],
      "name": "cohorts",
      "outputs": [
        {
          "internalType": "uint256",
          "name": "id",
          "type": "uint256"
        },
        {
          "internalType": "uint256",
          "name": "communityId",
          "type": "uint256"
        },
        {
          "internalType": "uint16",
          "name": "targetRoiBps",
          "type": "uint16"
        },
        {
          "internalType": "uint64",
          "name": "createdAt",
          "type": "uint64"
        },
        {
          "internalType": "uint64",
          "name": "startAt",
          "type": "uint64"
        },
        {
          "internalType": "uint64",
          "name": "endAt",
          "type": "uint64"
        },
        {
          "internalType": "uint32",
          "name": "priorityWeight",
          "type": "uint32"
        },
        {
          "internalType": "uint256",
          "name": "investedTotal",
          "type": "uint256"
        },
        {
          "internalType": "uint256",
          "name": "recoveredTotal",
          "type": "uint256"
        },
        {
          "internalType": "bool",
          "name": "active",
          "type": "bool"
        },
        {
          "internalType": "bytes32",
          "name": "termsHash",
          "type": "bytes32"
        }
      ],
      "stateMutability": "view",
      "type": "function"
    },
    {
      "inputs": [],
      "name": "communityId",
      "outputs": [
        {
          "internalType": "uint256",
          "name": "",
          "type": "uint256"
        }
      ],
      "stateMutability": "view",
      "type": "function"
    },
    {
      "inputs": [
        {
          "internalType": "uint16",
          "name": "targetRoiBps",
          "type": "uint16"
        },
        {
          "internalType": "uint32",
          "name": "priorityWeight",
          "type": "uint32"
        },
        {
          "internalType": "bytes32",
          "name": "termsHash",
          "type": "bytes32"
        },
        {
          "internalType": "uint64",
          "name": "startAt",
          "type": "uint64"
        },
        {
          "internalType": "uint64",
          "name": "endAt",
          "type": "uint64"
        },
        {
          "internalType": "bool",
          "name": "active",
          "type": "bool"
        }
      ],
      "name": "createCohort",
      "outputs": [
        {
          "internalType": "uint256",
          "name": "cohortId",
          "type": "uint256"
        }
      ],
      "stateMutability": "nonpayable",
      "type": "function"
    },
    {
      "inputs": [],
      "name": "getActiveCohorts",
      "outputs": [
        {
          "internalType": "uint256[]",
          "name": "",
          "type": "uint256[]"
        }
      ],
      "stateMutability": "view",
      "type": "function"
    },
    {
      "inputs": [
        {
          "internalType": "uint256",
          "name": "cohortId",
          "type": "uint256"
        }
      ],
      "name": "getCohort",
      "outputs": [
        {
          "components": [
            {
              "internalType": "uint256",
              "name": "id",
              "type": "uint256"
            },
            {
              "internalType": "uint256",
              "name": "communityId",
              "type": "uint256"
            },
            {
              "internalType": "uint16",
              "name": "targetRoiBps",
              "type": "uint16"
            },
            {
              "internalType": "uint64",
              "name": "createdAt",
              "type": "uint64"
            },
            {
              "internalType": "uint64",
              "name": "startAt",
              "type": "uint64"
            },
            {
              "internalType": "uint64",
              "name": "endAt",
              "type": "uint64"
            },
            {
              "internalType": "uint32",
              "name": "priorityWeight",
              "type": "uint32"
            },
            {
              "internalType": "uint256",
              "name": "investedTotal",
              "type": "uint256"
            },
            {
              "internalType": "uint256",
              "name": "recoveredTotal",
              "type": "uint256"
            },
            {
              "internalType": "bool",
              "name": "active",
              "type": "bool"
            },
            {
              "internalType": "bytes32",
              "name": "termsHash",
              "type": "bytes32"
            }
          ],
          "internalType": "struct CohortRegistry.Cohort",
          "name": "",
          "type": "tuple"
        }
      ],
      "stateMutability": "view",
      "type": "function"
    },
    {
      "inputs": [
        {
          "internalType": "uint256",
          "name": "cohortId",
          "type": "uint256"
        }
      ],
      "name": "getCohortCommunity",
      "outputs": [
        {
          "internalType": "uint256",
          "name": "",
          "type": "uint256"
        }
      ],
      "stateMutability": "view",
      "type": "function"
    },
    {
      "inputs": [
        {
          "internalType": "uint256",
          "name": "cohortId",
          "type": "uint256"
        }
      ],
      "name": "getCohortInvestors",
      "outputs": [
        {
          "internalType": "address[]",
          "name": "",
          "type": "address[]"
        }
      ],
      "stateMutability": "view",
      "type": "function"
    },
    {
      "inputs": [
        {
          "internalType": "uint256",
          "name": "cohortId",
          "type": "uint256"
        }
      ],
      "name": "getCohortROIProgress",
      "outputs": [
        {
          "internalType": "uint256",
          "name": "",
          "type": "uint256"
        }
      ],
      "stateMutability": "view",
      "type": "function"
    },
    {
      "inputs": [
        {
          "internalType": "uint256",
          "name": "cohortId",
          "type": "uint256"
        },
        {
          "internalType": "bool",
          "name": "useWeights",
          "type": "bool"
        }
      ],
      "name": "getCohortWeight",
      "outputs": [
        {
          "internalType": "uint256",
          "name": "",
          "type": "uint256"
        }
      ],
      "stateMutability": "view",
      "type": "function"
    },
    {
      "inputs": [
        {
          "internalType": "uint256",
          "name": "cohortId",
          "type": "uint256"
        }
      ],
      "name": "getCohortWeight",
      "outputs": [
        {
          "internalType": "uint256",
          "name": "",
          "type": "uint256"
        }
      ],
      "stateMutability": "view",
      "type": "function"
    },
    {
      "inputs": [
        {
          "internalType": "uint256",
          "name": "cohortId",
          "type": "uint256"
        },
        {
          "internalType": "address",
          "name": "investor",
          "type": "address"
        }
      ],
      "name": "getInvestmentAmount",
      "outputs": [
        {
          "internalType": "uint256",
          "name": "",
          "type": "uint256"
        }
      ],
      "stateMutability": "view",
      "type": "function"
    },
    {
      "inputs": [
        {
          "internalType": "uint256",
          "name": "tokenId",
          "type": "uint256"
        }
      ],
      "name": "getInvestmentAmountByToken",
      "outputs": [
        {
          "internalType": "uint256",
          "name": "",
          "type": "uint256"
        }
      ],
      "stateMutability": "view",
      "type": "function"
    },
    {
      "inputs": [
        {
          "internalType": "uint256",
          "name": "cohortId",
          "type": "uint256"
        }
      ],
      "name": "getUnrecoveredAmount",
      "outputs": [
        {
          "internalType": "uint256",
          "name": "",
          "type": "uint256"
        }
      ],
      "stateMutability": "view",
      "type": "function"
    },
    {
      "inputs": [
        {
          "internalType": "uint256",
          "name": "cohortId",
          "type": "uint256"
        }
      ],
      "name": "hasReachedTargetROI",
      "outputs": [
        {
          "internalType": "bool",
          "name": "",
          "type": "bool"
        }
      ],
      "stateMutability": "view",
      "type": "function"
    },
    {
      "inputs": [
        {
          "internalType": "uint256",
          "name": "",
          "type": "uint256"
        },
        {
          "internalType": "address",
          "name": "",
          "type": "address"
        }
      ],
      "name": "investedBy",
      "outputs": [
        {
          "internalType": "uint256",
          "name": "",
          "type": "uint256"
        }
      ],
      "stateMutability": "view",
      "type": "function"
    },
    {
      "inputs": [
        {
          "internalType": "uint256",
          "name": "",
          "type": "uint256"
        }
      ],
      "name": "investmentByToken",
      "outputs": [
        {
          "internalType": "uint256",
          "name": "",
          "type": "uint256"
        }
      ],
      "stateMutability": "view",
      "type": "function"
    },
    {
      "inputs": [
        {
          "internalType": "uint256",
          "name": "cohortId",
          "type": "uint256"
        }
      ],
      "name": "isCohortActive",
      "outputs": [
        {
          "internalType": "bool",
          "name": "",
          "type": "bool"
        }
      ],
      "stateMutability": "view",
      "type": "function"
    },
    {
      "inputs": [],
      "name": "isConsumingScheduledOp",
      "outputs": [
        {
          "internalType": "bytes4",
          "name": "",
          "type": "bytes4"
        }
      ],
      "stateMutability": "view",
      "type": "function"
    },
    {
      "inputs": [
        {
          "internalType": "uint256",
          "name": "cohortId",
          "type": "uint256"
        },
        {
          "internalType": "uint256",
          "name": "amount",
          "type": "uint256"
        }
      ],
      "name": "markRecovered",
      "outputs": [],
      "stateMutability": "nonpayable",
      "type": "function"
    },
    {
      "inputs": [],
      "name": "nextCohortId",
      "outputs": [
        {
          "internalType": "uint256",
          "name": "",
          "type": "uint256"
        }
      ],
      "stateMutability": "view",
      "type": "function"
    },
    {
      "inputs": [
        {
          "internalType": "address",
          "name": "newAuthority",
          "type": "address"
        }
      ],
      "name": "setAuthority",
      "outputs": [],
      "stateMutability": "nonpayable",
      "type": "function"
    },
    {
      "inputs": [
        {
          "internalType": "uint256",
          "name": "cohortId",
          "type": "uint256"
        },
        {
          "internalType": "bool",
          "name": "active",
          "type": "bool"
        }
      ],
      "name": "setCohortActive",
      "outputs": [],
      "stateMutability": "nonpayable",
      "type": "function"
    },
    {
      "inputs": [
        {
          "internalType": "uint256",
          "name": "",
          "type": "uint256"
        }
      ],
      "name": "tokenCohort",
      "outputs": [
        {
          "internalType": "uint256",
          "name": "",
          "type": "uint256"
        }
      ],
      "stateMutability": "view",
      "type": "function"
    }
  ],
  "bytecode": "0x60a0346101185761181b90601f38839003908101601f19168201906001600160401b0382118383101761011c57808391604095869485528339810103126101185780516001600160a01b03811691908290036101185760200151908060018060a01b03195f5416175f557f2f658b440c35314f52658ea8a740e05b284cdc84dc9ae01e891f21b8933e7cad60208451838152a16001600755156101075780156100c257608052516116ea9081610131823960805181818161060f0152610ad90152f35b815163d647364f60e01b815260206004820152601b60248201527f436f6d6d756e6974792049442063616e6e6f74206265207a65726f00000000006044820152606490fd5b815163d92e233d60e01b8152600490fd5b5f80fd5b634e487b7160e01b5f52604160045260245ffdfe6080806040526004361015610012575f80fd5b5f3560e01c9081631ea7eca714610f245750806322047f8714610efa5780632935a31f14610edc57806346a2ba2214610eae578063526e91f6146104f357806364229dad14610c5157806374ed78d014610ba05780637a9e5e4b14610afc5780637f50861a14610ac2578063837f3dec146109065780638c64b1a8146108e95780638fb36037146108a65780639cc70b8c1461055a578063aee1be42146102bf578063b16598a314610537578063bb7e385a146104f3578063bf7e214f146104cc578063c7aa945414610486578063ce27c34e1461043e578063cfbb73221461038c578063d8952e131461036e578063e7466ca6146102e9578063e989de2e146102bf578063ea8da51b14610291578063fbc174e9146101c35763ffea0cbd1461013a575f80fd5b346101ad576020806003193601126101ad5760405163ea8da51b60e01b81526004803590820152600160248201528181604481305afa9081156101b8575f91610187575b50604051908152f35b90508181813d83116101b1575b61019e8183611089565b810103126101ad57515f61017e565b5f80fd5b503d610194565b6040513d5f823e3d90fd5b346101ad5760203660031901126101ad576004355f526001602052602060405f206127106102846040516101f68161106d565b8354815260018401548582015260028401549063ffffffff61ffff8316928360408401526001600160401b03808260101c166060850152808260501c1660808501528160901c1660a084015260d01c1660c08201526003850154908160e08201526101406006600488015497610100840198895260ff600582015416151561012085015201549101526110aa565b0490511015604051908152f35b346101ad5760403660031901126101ad5760206102b76102af610fd4565b600435611419565b604051908152f35b346101ad5760203660031901126101ad576004355f526003602052602060405f2054604051908152f35b346101ad5760203660031901126101ad5760043580158015610362575b610328575f526001602052602060ff600560405f200154166040519015158152f35b60405163d647364f60e01b8152602060048201526011602482015270125b9d985b1a590818dbda1bdc9d081251607a1b6044820152606490fd5b50600754811015610306565b346101ad5760203660031901126101ad5760206102b7600435611347565b346101ad576020806003193601126101ad576004355f526006815260405f20604051908183825491828152019081925f52845f20905f5b868282106104215786866103d982880383611089565b60405192839281840190828552518091526040840192915f5b82811061040157505050500390f35b83516001600160a01b0316855286955093810193928101926001016103f2565b83546001600160a01b0316855290930192600192830192016103c3565b346101ad5761044c36610ff9565b905f52600660205260405f2080548210156101ad5760209161046d91611058565b905460405160039290921b1c6001600160a01b03168152f35b346101ad5760203660031901126101ad57600435801580156104c0575b610328575f5260016020526020600160405f200154604051908152f35b506007548110156104a3565b346101ad575f3660031901126101ad575f546040516001600160a01b039091168152602090f35b346101ad5760403660031901126101ad5761050c610fe3565b6004355f52600260205260405f209060018060a01b03165f52602052602060405f2054604051908152f35b346101ad5761055861054836610ff9565b9061055336336114af565b611259565b005b346101ad5760c03660031901126101ad5760043561ffff908181168091036101ad57602480359163ffffffff83168093036101ad57604435926064356001600160401b03928382168092036101ad57608435968488168098036101ad5760a43592831515908185036101ad576105d036336114af565b612710841061086157851561081c5788156107d757891515806107cd575b61079557600754975f19891461078257509087899a819a93600183016007557f0000000000000000000000000000000000000000000000000000000000000000996040519661063c8861106d565b84885260208801938c855260408901938a855260608a01934216845260808a0190815260a08a0191825260c08a01928d845260e08b01965f88526101008c01985f8a526101208d019a8b526101408d019b8c525f52600160205260405f209b518c555160018c015560028b019551168554945160101b69ffffffffffffffff000016916001600160401b0360501b905160501b16926001600160401b0360901b905160901b169363ffffffff60d01b905160d01b169461ffff60f01b16171717171790555160038501555160048401555115156005830190610729919060ff801983541691151516179055565b5190600601556020967f57d3005557c77a7de3128c9a7be1c0e7a357132fae7d5171209b6b163d39824293606093610774575b604051928352888301526040820152a3604051908152f35b61077d876111ab565b61075c565b634e487b7160e01b5f9081526011600452fd5b60405163d647364f60e01b8152602060048201526010818a01526f496e76616c6964207363686564756c6560801b6044820152606490fd5b50808a11156105ee565b60405163d647364f60e01b815260206004820152601a818a01527f5465726d7320686173682063616e6e6f7420626520656d7074790000000000006044820152606490fd5b60405163d647364f60e01b815260206004820152601b818a01527f5072696f7269747920776569676874206d757374206265203e203000000000006044820152606490fd5b60405163d647364f60e01b815260206004820152601a818a01527f54617267657420524f49206d757374206265203e3d20313030250000000000006044820152606490fd5b346101ad575f3660031901126101ad575f5460a01c60ff16156108e1576020638fb3603760e01b5b6040516001600160e01b03199091168152f35b60205f6108ce565b346101ad575f3660031901126101ad576020600754604051908152f35b346101ad5760203660031901126101ad576004355f61014060405161092a8161106d565b8281528260208201528260408201528260608201528260808201528260a08201528260c08201528260e08201528261010082015282610120820152015280158015610ab6575b610328575f52600160205261016060405f206101406040516109918161106d565b60068354938483526001810154602084015263ffffffff600282015461ffff811660408601526001600160401b038160101c1660608601526001600160401b038160501c1660808601526001600160401b038160901c1660a086015260d01c1660c0840152600381015460e0840152600481015461010084015260ff60058201541615156101208401520154828201526040519283526020810151602084015261ffff60408201511660408401526001600160401b0360608201511660608401526001600160401b0360808201511660808401526001600160401b0360a08201511660a084015263ffffffff60c08201511660c084015260e081015160e084015261010081015161010084015261012081015115156101208401520151610140820152f35b50600754811015610970565b346101ad575f3660031901126101ad5760206040517f00000000000000000000000000000000000000000000000000000000000000008152f35b346101ad5760203660031901126101ad576004356001600160a01b03818116918281036101ad575f549182163303610b89573b15610b70576001600160a01b03191681175f556040519081527f2f658b440c35314f52658ea8a740e05b284cdc84dc9ae01e891f21b8933e7cad90602090a1005b6040516361798f2f60e11b815260048101839052602490fd5b60405162d1953b60e31b8152336004820152602490fd5b346101ad5760203660031901126101ad576004355f52600160205261016060405f2080549060018101549060028101546001600160401b039063ffffffff600384015491600485015493600660ff60058801541696015496604051988952602089015261ffff82166040890152808260101c166060890152808260501c1660808901528160901c1660a088015260d01c1660c086015260e08501526101008401521515610120830152610140820152f35b346101ad5760803660031901126101ad57600435610c6d610fe3565b9060443591606435610c7f36336114af565b82158015610ea2575b610328576001600160a01b03918216938415610e90578015610e4a57835f526020916001835260ff600560405f2001541615610e0d578015610dd557845f526002835260405f20865f52835260405f205415610d5d575b7f83d7de07eb14e34aec48e34d6b3a2d265dbcd948bab442146572f9d41c27378c9350845f526002835260405f20865f52835260405f20610d2183825461124c565b9055845f5260018352600360405f2001610d3c83825461124c565b90555f52600382528060405f2055600482528360405f2055604051908152a3005b845f526006835260405f2093845494600160401b861015610dc15785610da99160017f83d7de07eb14e34aec48e34d6b3a2d265dbcd948bab442146572f9d41c27378c98018155611058565b819291549060031b9189831b921b1916179055610cdf565b634e487b7160e01b5f52604160045260245ffd5b60405163d647364f60e01b815260048101849052600f60248201526e125b9d985b1a59081d1bdad95b9259608a1b6044820152606490fd5b60405163d647364f60e01b8152602060048201526014602482015273436f686f7274206973206e6f742061637469766560601b6044820152606490fd5b60405163d647364f60e01b815260206004820152601d60248201527f496e766573746d656e7420616d6f756e74206d757374206265203e20300000006044820152606490fd5b60405163d92e233d60e01b8152600490fd5b50600754831015610c88565b346101ad5760403660031901126101ad57610558610eca610fd4565b610ed436336114af565b6004356111e8565b346101ad5760203660031901126101ad5760206102b76004356110d1565b346101ad5760203660031901126101ad576004355f526004602052602060405f2054604051908152f35b346101ad575f3660031901126101ad5760055490818152602091828201809160055f527f036b6384b5eca791c62761152d0c79bb0604c104a5fb6f4eb0703f3154bb3db0905f5b86828210610fc0578686610f8182880383611089565b60405192839281840190828552518091526040840192915f5b828110610fa957505050500390f35b835185528695509381019392810192600101610f9a565b835485529093019260019283019201610f6b565b6024359081151582036101ad57565b602435906001600160a01b03821682036101ad57565b60409060031901126101ad576004359060243590565b6005548110156110445760055f527f036b6384b5eca791c62761152d0c79bb0604c104a5fb6f4eb0703f3154bb3db001905f90565b634e487b7160e01b5f52603260045260245ffd5b8054821015611044575f5260205f2001905f90565b61016081019081106001600160401b03821117610dc157604052565b90601f801991011681019081106001600160401b03821117610dc157604052565b818102929181159184041417156110bd57565b634e487b7160e01b5f52601160045260245ffd5b5f52600160205260405f20604051906110e98261106d565b805482526001810154602083015260028101549063ffffffff61ffff8316928360408601526001600160401b03808260101c166060870152808260501c1660808701528160901c1660a086015260d01c1660c08401526003810154908160e08501526004810154936101008101948552610140600660ff6005850154161593841561012085015201549101526111a45761271091611186916110aa565b0490518082115f1461119e5781039081116110bd5790565b50505f90565b5050505f90565b60055490600160401b821015610dc1576111ce8260016111e6940160055561100f565b90919082549060031b91821b915f19901b1916179055565b565b9081158015611240575b61032857815f526001602052600560405f200160ff8154168215159015151461123b57805460ff191660ff8315151617905515611232576111e6906111ab565b6111e690611617565b505050565b506007548210156111f2565b919082018092116110bd57565b908115801561133b575b61032857801561133757815f52600160205260405f20600581019182549160ff831615610e0d577f8e6b807756011553cdfa213e5a66e2c6030ac3d9d6135c8f1b1f029fd86e9f0d9360409360048301926127106112dd6112c587875461124c565b9283875561ffff6002600383015492015416906110aa565b0411156112f5575b50505482519182526020820152a2565b60ff1916905561130485611617565b847f3b05374b3938cac762fc68ba58964584f4f0c62fc833d07155ebf9c083d462d9602083548651908152a25f806112e5565b5050565b50600754821015611263565b5f52600160205260405f2060405161135e8161106d565b815481526001820154602082015260028201549063ffffffff61ffff8316928360408401526001600160401b03808260101c166060850152808260501c1660808501528160901c1660a084015260d01c1660c08201526003830154908160e08201526101406006600486015495610100840196875260ff6005820154161515610120850152015491015280156111a4576113fc6127109283926110aa565b049182156111a457518181029181830414901517156110bd570490565b604051632935a31f60e01b81526004810182905291602083602481305afa9283156101b8575f9361147b575b5082156111a457156114775790611474915f52600160205263ffffffff600260405f20015460d01c16906110aa565b90565b5090565b9092506020813d6020116114a7575b8161149760209383611089565b810103126101ad5751915f611445565b3d915061148a565b5f8054909290916001600160a01b03808416929190600483106101ad575f925f604094855193602085019563b700961360e01b8752169384602482015230604482015263ffffffff60e01b5f351660648201526064815260a081016001600160401b039682821088831117610dc15788925f9284528280528260205251908a5afa611604575b15611545575b5050505050505050565b63ffffffff16156115ed5760ff60a01b19958616600160a01b175f55843b156101ad576064945f92838651978880958194634a63ebf760e11b835260048301528960248301528060448301528084848401378181018301849052601f01601f191681010301925af180156115e3576115cd575b50505081541690555f8080808080808061153b565b90918093945011610dc157525f905f80806115b8565b82513d5f823e3d90fd5b835162d1953b60e31b815260048101839052602490fd5b50505f516020518060201c150290611535565b5f5b600590815491828210156116ae5783926116328361100f565b959054600396871b1c1461164d575050600191925001611619565b9092505f19918282019182116110bd576111ce61166c6116789361100f565b905490871b1c9161100f565b8154801561169a5781019261168c8461100f565b81939154921b1b1916905555565b634e487b7160e01b5f52603160045260245ffd5b5050505056fea2646970667358221220d9f38acffd45598e458b2a57f02c56774741d6fe6abce77794d39c5b86dfa66264736f6c63430008180033",
  "linkReferences": {},
  "deployedLinkReferences": {}
}