{"abi":[{"type":"constructor","inputs":[{"name":"manager","type":"address","internalType":"address"},{"name":"_communityId","type":"uint256","internalType":"uint256"}],"stateMutability":"nonpayable"},{"type":"function","name":"addInvestment","inputs":[{"name":"cohortId","type":"uint256","internalType":"uint256"},{"name":"investor","type":"address","internalType":"address"},{"name":"amount","type":"uint256","internalType":"uint256"},{"name":"tokenId","type":"uint256","internalType":"uint256"}],"outputs":[],"stateMutability":"nonpayable"},{"type":"function","name":"authority","inputs":[],"outputs":[{"name":"","type":"address","internalType":"address"}],"stateMutability":"view"},{"type":"function","name":"cohortInvestors","inputs":[{"name":"","type":"uint256","internalType":"uint256"},{"name":"","type":"uint256","internalType":"uint256"}],"outputs":[{"name":"","type":"address","internalType":"address"}],"stateMutability":"view"},{"type":"function","name":"cohorts","inputs":[{"name":"","type":"uint256","internalType":"uint256"}],"outputs":[{"name":"id","type":"uint256","internalType":"uint256"},{"name":"communityId","type":"uint256","internalType":"uint256"},{"name":"targetRoiBps","type":"uint16","internalType":"uint16"},{"name":"createdAt","type":"uint64","internalType":"uint64"},{"name":"startAt","type":"uint64","internalType":"uint64"},{"name":"endAt","type":"uint64","internalType":"uint64"},{"name":"priorityWeight","type":"uint32","internalType":"uint32"},{"name":"investedTotal","type":"uint256","internalType":"uint256"},{"name":"recoveredTotal","type":"uint256","internalType":"uint256"},{"name":"active","type":"bool","internalType":"bool"},{"name":"termsHash","type":"bytes32","internalType":"bytes32"}],"stateMutability":"view"},{"type":"function","name":"communityId","inputs":[],"outputs":[{"name":"","type":"uint256","internalType":"uint256"}],"stateMutability":"view"},{"type":"function","name":"createCohort","inputs":[{"name":"targetRoiBps","type":"uint16","internalType":"uint16"},{"name":"priorityWeight","type":"uint32","internalType":"uint32"},{"name":"termsHash","type":"bytes32","internalType":"bytes32"},{"name":"startAt","type":"uint64","internalType":"uint64"},{"name":"endAt","type":"uint64","internalType":"uint64"},{"name":"active","type":"bool","internalType":"bool"}],"outputs":[{"name":"cohortId","type":"uint256","internalType":"uint256"}],"stateMutability":"nonpayable"},{"type":"function","name":"getActiveCohorts","inputs":[],"outputs":[{"name":"","type":"uint256[]","internalType":"uint256[]"}],"stateMutability":"view"},{"type":"function","name":"getCohort","inputs":[{"name":"cohortId","type":"uint256","internalType":"uint256"}],"outputs":[{"name":"","type":"tuple","internalType":"struct CohortRegistry.Cohort","components":[{"name":"id","type":"uint256","internalType":"uint256"},{"name":"communityId","type":"uint256","internalType":"uint256"},{"name":"targetRoiBps","type":"uint16","internalType":"uint16"},{"name":"createdAt","type":"uint64","internalType":"uint64"},{"name":"startAt","type":"uint64","internalType":"uint64"},{"name":"endAt","type":"uint64","internalType":"uint64"},{"name":"priorityWeight","type":"uint32","internalType":"uint32"},{"name":"investedTotal","type":"uint256","internalType":"uint256"},{"name":"recoveredTotal","type":"uint256","internalType":"uint256"},{"name":"active","type":"bool","internalType":"bool"},{"name":"termsHash","type":"bytes32","internalType":"bytes32"}]}],"stateMutability":"view"},{"type":"function","name":"getCohortCommunity","inputs":[{"name":"cohortId","type":"uint256","internalType":"uint256"}],"outputs":[{"name":"","type":"uint256","internalType":"uint256"}],"stateMutability":"view"},{"type":"function","name":"getCohortInvestors","inputs":[{"name":"cohortId","type":"uint256","internalType":"uint256"}],"outputs":[{"name":"","type":"address[]","internalType":"address[]"}],"stateMutability":"view"},{"type":"function","name":"getCohortROIProgress","inputs":[{"name":"cohortId","type":"uint256","internalType":"uint256"}],"outputs":[{"name":"","type":"uint256","internalType":"uint256"}],"stateMutability":"view"},{"type":"function","name":"getCohortWeight","inputs":[{"name":"cohortId","type":"uint256","internalType":"uint256"},{"name":"useWeights","type":"bool","internalType":"bool"}],"outputs":[{"name":"","type":"uint256","internalType":"uint256"}],"stateMutability":"view"},{"type":"function","name":"getCohortWeight","inputs":[{"name":"cohortId","type":"uint256","internalType":"uint256"}],"outputs":[{"name":"","type":"uint256","internalType":"uint256"}],"stateMutability":"view"},{"type":"function","name":"getInvestmentAmount","inputs":[{"name":"cohortId","type":"uint256","internalType":"uint256"},{"name":"investor","type":"address","internalType":"address"}],"outputs":[{"name":"","type":"uint256","internalType":"uint256"}],"stateMutability":"view"},{"type":"function","name":"getInvestmentAmountByToken","inputs":[{"name":"tokenId","type":"uint256","internalType":"uint256"}],"outputs":[{"name":"","type":"uint256","internalType":"uint256"}],"stateMutability":"view"},{"type":"function","name":"getUnrecoveredAmount","inputs":[{"name":"cohortId","type":"uint256","internalType":"uint256"}],"outputs":[{"name":"","type":"uint256","internalType":"uint256"}],"stateMutability":"view"},{"type":"function","name":"hasReachedTargetROI","inputs":[{"name":"cohortId","type":"uint256","internalType":"uint256"}],"outputs":[{"name":"","type":"bool","internalType":"bool"}],"stateMutability":"view"},{"type":"function","name":"investedBy","inputs":[{"name":"","type":"uint256","internalType":"uint256"},{"name":"","type":"address","internalType":"address"}],"outputs":[{"name":"","type":"uint256","internalType":"uint256"}],"stateMutability":"view"},{"type":"function","name":"investmentByToken","inputs":[{"name":"","type":"uint256","internalType":"uint256"}],"outputs":[{"name":"","type":"uint256","internalType":"uint256"}],"stateMutability":"view"},{"type":"function","name":"isCohortActive","inputs":[{"name":"cohortId","type":"uint256","internalType":"uint256"}],"outputs":[{"name":"","type":"bool","internalType":"bool"}],"stateMutability":"view"},{"type":"function","name":"isConsumingScheduledOp","inputs":[],"outputs":[{"name":"","type":"bytes4","internalType":"bytes4"}],"stateMutability":"view"},{"type":"function","name":"markRecovered","inputs":[{"name":"cohortId","type":"uint256","internalType":"uint256"},{"name":"amount","type":"uint256","internalType":"uint256"}],"outputs":[],"stateMutability":"nonpayable"},{"type":"function","name":"nextCohortId","inputs":[],"outputs":[{"name":"","type":"uint256","internalType":"uint256"}],"stateMutability":"view"},{"type":"function","name":"setAuthority","inputs":[{"name":"newAuthority","type":"address","internalType":"address"}],"outputs":[],"stateMutability":"nonpayable"},{"type":"function","name":"setCohortActive","inputs":[{"name":"cohortId","type":"uint256","internalType":"uint256"},{"name":"active","type":"bool","internalType":"bool"}],"outputs":[],"stateMutability":"nonpayable"},{"type":"function","name":"tokenCohort","inputs":[{"name":"","type":"uint256","internalType":"uint256"}],"outputs":[{"name":"","type":"uint256","internalType":"uint256"}],"stateMutability":"view"},{"type":"event","name":"AuthorityUpdated","inputs":[{"name":"authority","type":"address","indexed":false,"internalType":"address"}],"anonymous":false},{"type":"event","name":"CohortCompleted","inputs":[{"name":"cohortId","type":"uint256","indexed":true,"internalType":"uint256"},{"name":"finalRecoveredTotal","type":"uint256","indexed":false,"internalType":"uint256"}],"anonymous":false},{"type":"event","name":"CohortCreated","inputs":[{"name":"communityId","type":"uint256","indexed":true,"internalType":"uint256"},{"name":"cohortId","type":"uint256","indexed":true,"internalType":"uint256"},{"name":"targetRoiBps","type":"uint16","indexed":false,"internalType":"uint16"},{"name":"priorityWeight","type":"uint32","indexed":false,"internalType":"uint32"},{"name":"termsHash","type":"bytes32","indexed":false,"internalType":"bytes32"}],"anonymous":false},{"type":"event","name":"CohortPaid","inputs":[{"name":"cohortId","type":"uint256","indexed":true,"internalType":"uint256"},{"name":"amount","type":"uint256","indexed":false,"internalType":"uint256"},{"name":"newRecoveredTotal","type":"uint256","indexed":false,"internalType":"uint256"}],"anonymous":false},{"type":"event","name":"InvestmentAdded","inputs":[{"name":"cohortId","type":"uint256","indexed":true,"internalType":"uint256"},{"name":"investor","type":"address","indexed":true,"internalType":"address"},{"name":"amount","type":"uint256","indexed":false,"internalType":"uint256"}],"anonymous":false},{"type":"event","name":"RevenueRouterUpdated","inputs":[{"name":"oldRouter","type":"address","indexed":false,"internalType":"address"},{"name":"newRouter","type":"address","indexed":false,"internalType":"address"}],"anonymous":false},{"type":"event","name":"ValuableActionSBTUpdated","inputs":[{"name":"oldSBT","type":"address","indexed":false,"internalType":"address"},{"name":"newSBT","type":"address","indexed":false,"internalType":"address"}],"anonymous":false},{"type":"error","name":"AccessManagedInvalidAuthority","inputs":[{"name":"authority","type":"address","internalType":"address"}]},{"type":"error","name":"AccessManagedRequiredDelay","inputs":[{"name":"caller","type":"address","internalType":"address"},{"name":"delay","type":"uint32","internalType":"uint32"}]},{"type":"error","name":"AccessManagedUnauthorized","inputs":[{"name":"caller","type":"address","internalType":"address"}]},{"type":"error","name":"InvalidInput","inputs":[{"name":"reason","type":"string","internalType":"string"}]},{"type":"error","name":"ZeroAddress","inputs":[]}],"bytecode":{"object":"0x60a034610118576119c290601f38839003908101601f19168201906001600160401b0382118383101761011c57808391604095869485528339810103126101185780516001600160a01b03811691908290036101185760200151908060018060a01b03195f5416175f557f2f658b440c35314f52658ea8a740e05b284cdc84dc9ae01e891f21b8933e7cad60208451838152a16001600755156101075780156100c25760805251611891908161013182396080518181816106350152610b880152f35b815163d647364f60e01b815260206004820152601b60248201527f436f6d6d756e6974792049442063616e6e6f74206265207a65726f00000000006044820152606490fd5b815163d92e233d60e01b8152600490fd5b5f80fd5b634e487b7160e01b5f52604160045260245ffdfe6080806040526004361015610012575f80fd5b5f3560e01c9081631ea7eca7146110355750806322047f871461100b5780632935a31f14610fed57806346a2ba2214610fbf578063526e91f61461051757806364229dad14610d3057806374ed78d014610c7e5780637a9e5e4b14610bab5780637f50861a14610b71578063837f3dec146109af5780638c64b1a8146109925780638fb360371461091f5780639cc70b8c1461057f578063aee1be42146102d9578063b16598a31461055c578063bb7e385a14610517578063bf7e214f146104f2578063c7aa9454146104ac578063ce27c34e14610464578063cfbb7322146103b2578063d8952e1314610394578063e7466ca614610303578063e989de2e146102d9578063ea8da51b146102ab578063fbc174e9146101dc5763ffea0cbd1461013a575f80fd5b346101c6576020806003193601126101c6576040517fea8da51b0000000000000000000000000000000000000000000000000000000081526004356004820152600160248201528181604481305afa9081156101d1575f916101a0575b50604051908152f35b90508181813d83116101ca575b6101b7818361119b565b810103126101c657515f610197565b5f80fd5b503d6101ad565b6040513d5f823e3d90fd5b346101c65760203660031901126101c6576004355f526001602052602060405f2061271061029e60405161020f8161117e565b8354815260018401548582015260028401549063ffffffff61ffff83169283604084015267ffffffffffffffff808260101c166060850152808260501c1660808501528160901c1660a084015260d01c1660c08201526003850154908160e08201526101406006600488015497610100840198895260ff600582015416151561012085015201549101526111bd565b0490511015604051908152f35b346101c65760403660031901126101c65760206102d16102c96110e5565b600435611533565b604051908152f35b346101c65760203660031901126101c6576004355f526003602052602060405f2054604051908152f35b346101c65760203660031901126101c65760043580158015610388575b610342575f526001602052602060ff600560405f200154166040519015158152f35b60405163d647364f60e01b815260206004820152601160248201527f496e76616c696420636f686f72742049440000000000000000000000000000006044820152606490fd5b50600754811015610320565b346101c65760203660031901126101c65760206102d1600435611460565b346101c6576020806003193601126101c6576004355f526006815260405f20604051908183825491828152019081925f52845f20905f5b868282106104475786866103ff8288038361119b565b60405192839281840190828552518091526040840192915f5b82811061042757505050500390f35b83516001600160a01b031685528695509381019392810192600101610418565b83546001600160a01b0316855290930192600192830192016103e9565b346101c6576104723661110a565b905f52600660205260405f209081548110156101c65761049c6001600160a01b0391602093611169565b9190546040519260031b1c168152f35b346101c65760203660031901126101c657600435801580156104e6575b610342575f5260016020526020600160405f200154604051908152f35b506007548110156104c9565b346101c6575f3660031901126101c65760206001600160a01b035f5416604051908152f35b346101c65760403660031901126101c6576105306110f4565b6004355f5260026020526001600160a01b0360405f2091165f52602052602060405f2054604051908152f35b346101c65761057d61056d3661110a565b9061057836336115e1565b611372565b005b346101c65760c03660031901126101c65760043561ffff908181168091036101c657602480359163ffffffff83168093036101c6576044359260643567ffffffffffffffff928382168092036101c657608435968488168098036101c65760a43592831515908185036101c6576105f636336115e1565b61271084106108da5785156108955788156108505789151580610846575b61080157600754975f1989146107ef57509087899a819a93600183016007557f000000000000000000000000000000000000000000000000000000000000000099604051966106628861117e565b84885260208801938c855260408901938a855260608a01934216845260808a0190815260a08a0191825260c08a01928d845260e08b01965f88526101008c01985f8a526101208d019a8b526101408d019b8c525f52600160205260405f209b518c555160018c015560028b019551168554945160101b69ffffffffffffffff000016915160501b71ffffffffffffffff0000000000000000000016925160901b79ffffffffffffffff00000000000000000000000000000000000016935160d01b7dffffffff000000000000000000000000000000000000000000000000000016947fffff00000000000000000000000000000000000000000000000000000000000016171717171790555160038501555160048401555115156005830190610796919060ff801983541691151516179055565b5190600601556020967f57d3005557c77a7de3128c9a7be1c0e7a357132fae7d5171209b6b163d398242936060936107e1575b604051928352888301526040820152a3604051908152f35b6107ea876112bf565b6107c9565b634e487b7160e01b5f5260116004525ffd5b60648860106040519163d647364f60e01b8352602060048401528201527f496e76616c6964207363686564756c65000000000000000000000000000000006044820152fd5b50808a1115610614565b606488601a6040519163d647364f60e01b8352602060048401528201527f5465726d7320686173682063616e6e6f7420626520656d7074790000000000006044820152fd5b606488601b6040519163d647364f60e01b8352602060048401528201527f5072696f7269747920776569676874206d757374206265203e203000000000006044820152fd5b606488601a6040519163d647364f60e01b8352602060048401528201527f54617267657420524f49206d757374206265203e3d20313030250000000000006044820152fd5b346101c6575f3660031901126101c6575f5460a01c60ff161561098a5760207f8fb36037000000000000000000000000000000000000000000000000000000005b7fffffffff0000000000000000000000000000000000000000000000000000000060405191168152f35b60205f610960565b346101c6575f3660031901126101c6576020600754604051908152f35b346101c65760203660031901126101c6576004355f6101406040516109d38161117e565b8281528260208201528260408201528260608201528260808201528260a08201528260c08201528260e08201528261010082015282610120820152015280158015610b65575b610342575f52600160205261016060405f20610140604051610a3a8161117e565b60068354938483526001810154602084015263ffffffff600282015461ffff8116604086015267ffffffffffffffff8160101c16606086015267ffffffffffffffff8160501c16608086015267ffffffffffffffff8160901c1660a086015260d01c1660c0840152600381015460e0840152600481015461010084015260ff60058201541615156101208401520154828201526040519283526020810151602084015261ffff604082015116604084015267ffffffffffffffff606082015116606084015267ffffffffffffffff608082015116608084015267ffffffffffffffff60a08201511660a084015263ffffffff60c08201511660c084015260e081015160e084015261010081015161010084015261012081015115156101208401520151610140820152f35b50600754811015610a19565b346101c6575f3660031901126101c65760206040517f00000000000000000000000000000000000000000000000000000000000000008152f35b346101c65760203660031901126101c6576004356001600160a01b03808216918281036101c6575f549182163303610c68573b15610c3757817f2f658b440c35314f52658ea8a740e05b284cdc84dc9ae01e891f21b8933e7cad927fffffffffffffffffffffffff000000000000000000000000000000000000000060209316175f55604051908152a1005b602482604051907fc2f31e5e0000000000000000000000000000000000000000000000000000000082526004820152fd5b602460405162d1953b60e31b8152336004820152fd5b346101c65760203660031901126101c6576004355f52600160205261016060405f20805490600181015490600281015467ffffffffffffffff9063ffffffff600384015491600485015493600660ff60058801541696015496604051988952602089015261ffff82166040890152808260101c166060890152808260501c1660808901528160901c1660a088015260d01c1660c086015260e08501526101008401521515610120830152610140820152f35b346101c65760803660031901126101c657600435610d4c6110f4565b9060443591606435610d5e36336115e1565b82158015610fb3575b610342576001600160a01b03809216938415610f89578015610f4457835f526020916001835260ff600560405f2001541615610efe578015610eb957845f526002835260405f20865f52835260405f205415610e3c575b7f83d7de07eb14e34aec48e34d6b3a2d265dbcd948bab442146572f9d41c27378c9350845f526002835260405f20865f52835260405f20610e00838254611365565b9055845f5260018352600360405f2001610e1b838254611365565b90555f52600382528060405f2055600482528360405f2055604051908152a3005b845f526006835260405f209384549468010000000000000000861015610ea55785610e8d9160017f83d7de07eb14e34aec48e34d6b3a2d265dbcd948bab442146572f9d41c27378c98018155611169565b819291549060031b9189831b921b1916179055610dbe565b634e487b7160e01b5f52604160045260245ffd5b6064836040519063d647364f60e01b82526004820152600f60248201527f496e76616c696420746f6b656e496400000000000000000000000000000000006044820152fd5b60405163d647364f60e01b815260206004820152601460248201527f436f686f7274206973206e6f74206163746976650000000000000000000000006044820152606490fd5b606460405163d647364f60e01b815260206004820152601d60248201527f496e766573746d656e7420616d6f756e74206d757374206265203e20300000006044820152fd5b60046040517fd92e233d000000000000000000000000000000000000000000000000000000008152fd5b50600754831015610d67565b346101c65760403660031901126101c65761057d610fdb6110e5565b610fe536336115e1565b600435611301565b346101c65760203660031901126101c65760206102d16004356111e4565b346101c65760203660031901126101c6576004355f526004602052602060405f2054604051908152f35b346101c6575f3660031901126101c65760055490818152602091828201809160055f527f036b6384b5eca791c62761152d0c79bb0604c104a5fb6f4eb0703f3154bb3db0905f5b868282106110d15786866110928288038361119b565b60405192839281840190828552518091526040840192915f5b8281106110ba57505050500390f35b8351855286955093810193928101926001016110ab565b83548552909301926001928301920161107c565b6024359081151582036101c657565b602435906001600160a01b03821682036101c657565b60409060031901126101c6576004359060243590565b6005548110156111555760055f527f036b6384b5eca791c62761152d0c79bb0604c104a5fb6f4eb0703f3154bb3db001905f90565b634e487b7160e01b5f52603260045260245ffd5b8054821015611155575f5260205f2001905f90565b610160810190811067ffffffffffffffff821117610ea557604052565b90601f8019910116810190811067ffffffffffffffff821117610ea557604052565b818102929181159184041417156111d057565b634e487b7160e01b5f52601160045260245ffd5b5f52600160205260405f20604051906111fc8261117e565b805482526001810154602083015260028101549063ffffffff61ffff83169283604086015267ffffffffffffffff808260101c166060870152808260501c1660808701528160901c1660a086015260d01c1660c08401526003810154908160e08501526004810154936101008101948552610140600660ff6005850154161593841561012085015201549101526112b8576127109161129a916111bd565b0490518082115f146112b25781039081116111d05790565b50505f90565b5050505f90565b6005549068010000000000000000821015610ea5576112e78260016112ff9401600555611120565b90919082549060031b91821b915f19901b1916179055565b565b9081158015611359575b61034257815f526001602052600560405f200160ff8154168215159015151461135457805460ff191660ff831515161790551561134b576112ff906112bf565b6112ff906117be565b505050565b5060075482101561130b565b919082018092116111d057565b9081158015611454575b61034257801561145057815f52600160205260405f20600581019182549160ff831615610efe577f8e6b807756011553cdfa213e5a66e2c6030ac3d9d6135c8f1b1f029fd86e9f0d9360409360048301926127106113f66113de878754611365565b9283875561ffff6002600383015492015416906111bd565b04111561140e575b50505482519182526020820152a2565b60ff1916905561141d856117be565b847f3b05374b3938cac762fc68ba58964584f4f0c62fc833d07155ebf9c083d462d9602083548651908152a25f806113fe565b5050565b5060075482101561137c565b5f52600160205260405f206040516114778161117e565b815481526001820154602082015260028201549063ffffffff61ffff83169283604084015267ffffffffffffffff808260101c166060850152808260501c1660808501528160901c1660a084015260d01c1660c08201526003830154908160e08201526101406006600486015495610100840196875260ff6005820154161515610120850152015491015280156112b8576115166127109283926111bd565b049182156112b857518181029181830414901517156111d0570490565b604051917f2935a31f000000000000000000000000000000000000000000000000000000008352816004840152602083602481305afa9283156101d1575f936115ad575b5082156112b857156115a957906115a6915f52600160205263ffffffff600260405f20015460d01c16906111bd565b90565b5090565b9092506020813d6020116115d9575b816115c96020938361119b565b810103126101c65751915f611577565b3d91506115bc565b905f915f54916001600160a01b039182841692826004116101c6575f925f60409485519360208501957fb700961300000000000000000000000000000000000000000000000000000000875216938460248201523060448201527fffffffff000000000000000000000000000000000000000000000000000000005f351660648201526064815260a0810167ffffffffffffffff9682821088831117610ea55788925f9284528280528260205251908a5afa6117ab575b156116a8575b5050505050505050565b63ffffffff161561179557740100000000000000000000000000000000000000007fffffffffffffffffffffff00ffffffffffffffffffffffffffffffffffffffff809716175f55843b156101c6576064945f928386519788809581947f94c7d7ee00000000000000000000000000000000000000000000000000000000835260048301528960248301528060448301528084848401378181018301849052601f01601f191681010301925af1801561178b57611775575b50505081541690555f8080808080808061169e565b90918093945011610ea557525f905f8080611760565b82513d5f823e3d90fd5b60248285519062d1953b60e31b82526004820152fd5b50505f516020518060201c150290611698565b5f5b600590815491828210156118555783926117d983611120565b959054600396871b1c146117f45750506001919250016117c0565b9092505f19918282019182116111d0576112e761181361181f93611120565b905490871b1c91611120565b815480156118415781019261183384611120565b81939154921b1b1916905555565b634e487b7160e01b5f52603160045260245ffd5b5050505056fea2646970667358221220c82a020553c79442f6ba82f5fcb028b18348b03d1cb2ad4e78dce2992b579d9d64736f6c63430008180033","linkReferences":{}},"methodIdentifiers":{"addInvestment(uint256,address,uint256,uint256)":"64229dad","authority()":"bf7e214f","cohortInvestors(uint256,uint256)":"ce27c34e","cohorts(uint256)":"74ed78d0","communityId()":"7f50861a","createCohort(uint16,uint32,bytes32,uint64,uint64,bool)":"9cc70b8c","getActiveCohorts()":"1ea7eca7","getCohort(uint256)":"837f3dec","getCohortCommunity(uint256)":"c7aa9454","getCohortInvestors(uint256)":"cfbb7322","getCohortROIProgress(uint256)":"d8952e13","getCohortWeight(uint256)":"ffea0cbd","getCohortWeight(uint256,bool)":"ea8da51b","getInvestmentAmount(uint256,address)":"bb7e385a","getInvestmentAmountByToken(uint256)":"e989de2e","getUnrecoveredAmount(uint256)":"2935a31f","hasReachedTargetROI(uint256)":"fbc174e9","investedBy(uint256,address)":"526e91f6","investmentByToken(uint256)":"aee1be42","isCohortActive(uint256)":"e7466ca6","isConsumingScheduledOp()":"8fb36037","markRecovered(uint256,uint256)":"b16598a3","nextCohortId()":"8c64b1a8","setAuthority(address)":"7a9e5e4b","setCohortActive(uint256,bool)":"46a2ba22","tokenCohort(uint256)":"22047f87"},"id":12}