{"abi":[{"type":"constructor","inputs":[{"name":"initialAdmin","type":"address","internalType":"address"},{"name":"_paramController","type":"address","internalType":"address"}],"stateMutability":"nonpayable"},{"type":"function","name":"CURATOR_ROLE","inputs":[],"outputs":[{"name":"","type":"bytes32","internalType":"bytes32"}],"stateMutability":"view"},{"type":"function","name":"DEFAULT_ADMIN_ROLE","inputs":[],"outputs":[{"name":"","type":"bytes32","internalType":"bytes32"}],"stateMutability":"view"},{"type":"function","name":"GOVERNANCE_ROLE","inputs":[],"outputs":[{"name":"","type":"bytes32","internalType":"bytes32"}],"stateMutability":"view"},{"type":"function","name":"MODERATOR_ROLE","inputs":[],"outputs":[{"name":"","type":"bytes32","internalType":"bytes32"}],"stateMutability":"view"},{"type":"function","name":"activeCommunityCount","inputs":[],"outputs":[{"name":"","type":"uint256","internalType":"uint256"}],"stateMutability":"view"},{"type":"function","name":"communities","inputs":[{"name":"","type":"uint256","internalType":"uint256"}],"outputs":[{"name":"name","type":"string","internalType":"string"},{"name":"description","type":"string","internalType":"string"},{"name":"metadataURI","type":"string","internalType":"string"},{"name":"active","type":"bool","internalType":"bool"},{"name":"createdAt","type":"uint256","internalType":"uint256"},{"name":"governor","type":"address","internalType":"address"},{"name":"timelock","type":"address","internalType":"address"},{"name":"requestHub","type":"address","internalType":"address"},{"name":"draftsManager","type":"address","internalType":"address"},{"name":"engagementsManager","type":"address","internalType":"address"},{"name":"valuableActionRegistry","type":"address","internalType":"address"},{"name":"verifierPowerToken","type":"address","internalType":"address"},{"name":"verifierElection","type":"address","internalType":"address"},{"name":"verifierManager","type":"address","internalType":"address"},{"name":"valuableActionSBT","type":"address","internalType":"address"},{"name":"treasuryVault","type":"address","internalType":"address"},{"name":"treasuryAdapter","type":"address","internalType":"address"},{"name":"communityToken","type":"address","internalType":"address"},{"name":"paramController","type":"address","internalType":"address"},{"name":"parentCommunityId","type":"uint256","internalType":"uint256"}],"stateMutability":"view"},{"type":"function","name":"communityAdmins","inputs":[{"name":"","type":"uint256","internalType":"uint256"},{"name":"","type":"address","internalType":"address"}],"outputs":[{"name":"","type":"bool","internalType":"bool"}],"stateMutability":"view"},{"type":"function","name":"communityRoles","inputs":[{"name":"","type":"uint256","internalType":"uint256"},{"name":"","type":"address","internalType":"address"},{"name":"","type":"bytes32","internalType":"bytes32"}],"outputs":[{"name":"","type":"bool","internalType":"bool"}],"stateMutability":"view"},{"type":"function","name":"curators","inputs":[{"name":"","type":"uint256","internalType":"uint256"},{"name":"","type":"address","internalType":"address"}],"outputs":[{"name":"","type":"bool","internalType":"bool"}],"stateMutability":"view"},{"type":"function","name":"formAlliance","inputs":[{"name":"communityId1","type":"uint256","internalType":"uint256"},{"name":"communityId2","type":"uint256","internalType":"uint256"}],"outputs":[],"stateMutability":"nonpayable"},{"type":"function","name":"getActiveCommunities","inputs":[],"outputs":[{"name":"","type":"uint256[]","internalType":"uint256[]"}],"stateMutability":"view"},{"type":"function","name":"getCommunity","inputs":[{"name":"communityId","type":"uint256","internalType":"uint256"}],"outputs":[{"name":"","type":"tuple","internalType":"struct CommunityRegistry.Community","components":[{"name":"name","type":"string","internalType":"string"},{"name":"description","type":"string","internalType":"string"},{"name":"metadataURI","type":"string","internalType":"string"},{"name":"active","type":"bool","internalType":"bool"},{"name":"createdAt","type":"uint256","internalType":"uint256"},{"name":"governor","type":"address","internalType":"address"},{"name":"timelock","type":"address","internalType":"address"},{"name":"requestHub","type":"address","internalType":"address"},{"name":"draftsManager","type":"address","internalType":"address"},{"name":"engagementsManager","type":"address","internalType":"address"},{"name":"valuableActionRegistry","type":"address","internalType":"address"},{"name":"verifierPowerToken","type":"address","internalType":"address"},{"name":"verifierElection","type":"address","internalType":"address"},{"name":"verifierManager","type":"address","internalType":"address"},{"name":"valuableActionSBT","type":"address","internalType":"address"},{"name":"treasuryVault","type":"address","internalType":"address"},{"name":"treasuryAdapter","type":"address","internalType":"address"},{"name":"communityToken","type":"address","internalType":"address"},{"name":"paramController","type":"address","internalType":"address"},{"name":"parentCommunityId","type":"uint256","internalType":"uint256"},{"name":"allyCommunityIds","type":"uint256[]","internalType":"uint256[]"}]}],"stateMutability":"view"},{"type":"function","name":"getCommunityModules","inputs":[{"name":"communityId","type":"uint256","internalType":"uint256"}],"outputs":[{"name":"","type":"tuple","internalType":"struct CommunityRegistry.ModuleAddresses","components":[{"name":"governor","type":"address","internalType":"address"},{"name":"timelock","type":"address","internalType":"address"},{"name":"requestHub","type":"address","internalType":"address"},{"name":"draftsManager","type":"address","internalType":"address"},{"name":"engagementsManager","type":"address","internalType":"address"},{"name":"valuableActionRegistry","type":"address","internalType":"address"},{"name":"verifierPowerToken","type":"address","internalType":"address"},{"name":"verifierElection","type":"address","internalType":"address"},{"name":"verifierManager","type":"address","internalType":"address"},{"name":"valuableActionSBT","type":"address","internalType":"address"},{"name":"treasuryVault","type":"address","internalType":"address"},{"name":"treasuryAdapter","type":"address","internalType":"address"},{"name":"communityToken","type":"address","internalType":"address"},{"name":"paramController","type":"address","internalType":"address"}]}],"stateMutability":"view"},{"type":"function","name":"getCommunityRelationships","inputs":[{"name":"communityId","type":"uint256","internalType":"uint256"}],"outputs":[{"name":"parentCommunityId","type":"uint256","internalType":"uint256"},{"name":"allyCommunityIds","type":"uint256[]","internalType":"uint256[]"}],"stateMutability":"view"},{"type":"function","name":"getEconomicParameters","inputs":[{"name":"communityId","type":"uint256","internalType":"uint256"}],"outputs":[{"name":"minTreasuryBps","type":"uint256","internalType":"uint256"},{"name":"minPositionsBps","type":"uint256","internalType":"uint256"},{"name":"spilloverTarget","type":"uint8","internalType":"uint8"},{"name":"spilloverSplitBpsToTreasury","type":"uint256","internalType":"uint256"},{"name":"feeOnWithdraw","type":"uint256","internalType":"uint256"},{"name":"backingAssets","type":"address[]","internalType":"address[]"}],"stateMutability":"view"},{"type":"function","name":"getEligibilityRules","inputs":[{"name":"communityId","type":"uint256","internalType":"uint256"}],"outputs":[{"name":"minSeniority","type":"uint256","internalType":"uint256"},{"name":"minSBTs","type":"uint256","internalType":"uint256"},{"name":"proposalThreshold","type":"uint256","internalType":"uint256"}],"stateMutability":"view"},{"type":"function","name":"getGovernanceParameters","inputs":[{"name":"communityId","type":"uint256","internalType":"uint256"}],"outputs":[{"name":"debateWindow","type":"uint256","internalType":"uint256"},{"name":"voteWindow","type":"uint256","internalType":"uint256"},{"name":"executionDelay","type":"uint256","internalType":"uint256"}],"stateMutability":"view"},{"type":"function","name":"getRoleAdmin","inputs":[{"name":"role","type":"bytes32","internalType":"bytes32"}],"outputs":[{"name":"","type":"bytes32","internalType":"bytes32"}],"stateMutability":"view"},{"type":"function","name":"getTimelock","inputs":[{"name":"communityId","type":"uint256","internalType":"uint256"}],"outputs":[{"name":"","type":"address","internalType":"address"}],"stateMutability":"view"},{"type":"function","name":"grantCommunityRole","inputs":[{"name":"communityId","type":"uint256","internalType":"uint256"},{"name":"user","type":"address","internalType":"address"},{"name":"role","type":"bytes32","internalType":"bytes32"}],"outputs":[],"stateMutability":"nonpayable"},{"type":"function","name":"grantRole","inputs":[{"name":"role","type":"bytes32","internalType":"bytes32"},{"name":"account","type":"address","internalType":"address"}],"outputs":[],"stateMutability":"nonpayable"},{"type":"function","name":"hasRole","inputs":[{"name":"communityId","type":"uint256","internalType":"uint256"},{"name":"user","type":"address","internalType":"address"},{"name":"role","type":"bytes32","internalType":"bytes32"}],"outputs":[{"name":"","type":"bool","internalType":"bool"}],"stateMutability":"view"},{"type":"function","name":"hasRole","inputs":[{"name":"role","type":"bytes32","internalType":"bytes32"},{"name":"account","type":"address","internalType":"address"}],"outputs":[{"name":"","type":"bool","internalType":"bool"}],"stateMutability":"view"},{"type":"function","name":"initializeDefaultParameters","inputs":[{"name":"communityId","type":"uint256","internalType":"uint256"}],"outputs":[],"stateMutability":"nonpayable"},{"type":"function","name":"moderators","inputs":[{"name":"","type":"uint256","internalType":"uint256"},{"name":"","type":"address","internalType":"address"}],"outputs":[{"name":"","type":"bool","internalType":"bool"}],"stateMutability":"view"},{"type":"function","name":"nextCommunityId","inputs":[],"outputs":[{"name":"","type":"uint256","internalType":"uint256"}],"stateMutability":"view"},{"type":"function","name":"paramController","inputs":[],"outputs":[{"name":"","type":"address","internalType":"contract ParamController"}],"stateMutability":"view"},{"type":"function","name":"registerCommunity","inputs":[{"name":"name","type":"string","internalType":"string"},{"name":"description","type":"string","internalType":"string"},{"name":"metadataURI","type":"string","internalType":"string"},{"name":"parentCommunityId","type":"uint256","internalType":"uint256"}],"outputs":[{"name":"communityId","type":"uint256","internalType":"uint256"}],"stateMutability":"nonpayable"},{"type":"function","name":"renounceRole","inputs":[{"name":"role","type":"bytes32","internalType":"bytes32"},{"name":"callerConfirmation","type":"address","internalType":"address"}],"outputs":[],"stateMutability":"nonpayable"},{"type":"function","name":"revokeCommunityRole","inputs":[{"name":"communityId","type":"uint256","internalType":"uint256"},{"name":"user","type":"address","internalType":"address"},{"name":"role","type":"bytes32","internalType":"bytes32"}],"outputs":[],"stateMutability":"nonpayable"},{"type":"function","name":"revokeRole","inputs":[{"name":"role","type":"bytes32","internalType":"bytes32"},{"name":"account","type":"address","internalType":"address"}],"outputs":[],"stateMutability":"nonpayable"},{"type":"function","name":"setCommunityStatus","inputs":[{"name":"communityId","type":"uint256","internalType":"uint256"},{"name":"active","type":"bool","internalType":"bool"}],"outputs":[],"stateMutability":"nonpayable"},{"type":"function","name":"setModuleAddress","inputs":[{"name":"communityId","type":"uint256","internalType":"uint256"},{"name":"moduleKey","type":"bytes32","internalType":"bytes32"},{"name":"moduleAddress","type":"address","internalType":"address"}],"outputs":[],"stateMutability":"nonpayable"},{"type":"function","name":"setModuleAddresses","inputs":[{"name":"communityId","type":"uint256","internalType":"uint256"},{"name":"modules","type":"tuple","internalType":"struct CommunityRegistry.ModuleAddresses","components":[{"name":"governor","type":"address","internalType":"address"},{"name":"timelock","type":"address","internalType":"address"},{"name":"requestHub","type":"address","internalType":"address"},{"name":"draftsManager","type":"address","internalType":"address"},{"name":"engagementsManager","type":"address","internalType":"address"},{"name":"valuableActionRegistry","type":"address","internalType":"address"},{"name":"verifierPowerToken","type":"address","internalType":"address"},{"name":"verifierElection","type":"address","internalType":"address"},{"name":"verifierManager","type":"address","internalType":"address"},{"name":"valuableActionSBT","type":"address","internalType":"address"},{"name":"treasuryVault","type":"address","internalType":"address"},{"name":"treasuryAdapter","type":"address","internalType":"address"},{"name":"communityToken","type":"address","internalType":"address"},{"name":"paramController","type":"address","internalType":"address"}]}],"outputs":[],"stateMutability":"nonpayable"},{"type":"function","name":"supportsInterface","inputs":[{"name":"interfaceId","type":"bytes4","internalType":"bytes4"}],"outputs":[{"name":"","type":"bool","internalType":"bool"}],"stateMutability":"view"},{"type":"event","name":"CommunityAllianceFormed","inputs":[{"name":"communityId1","type":"uint256","indexed":true,"internalType":"uint256"},{"name":"communityId2","type":"uint256","indexed":true,"internalType":"uint256"}],"anonymous":false},{"type":"event","name":"CommunityRegistered","inputs":[{"name":"communityId","type":"uint256","indexed":true,"internalType":"uint256"},{"name":"name","type":"string","indexed":false,"internalType":"string"},{"name":"creator","type":"address","indexed":true,"internalType":"address"},{"name":"parentCommunityId","type":"uint256","indexed":false,"internalType":"uint256"}],"anonymous":false},{"type":"event","name":"CommunityRoleGranted","inputs":[{"name":"communityId","type":"uint256","indexed":true,"internalType":"uint256"},{"name":"user","type":"address","indexed":true,"internalType":"address"},{"name":"role","type":"bytes32","indexed":true,"internalType":"bytes32"}],"anonymous":false},{"type":"event","name":"CommunityRoleRevoked","inputs":[{"name":"communityId","type":"uint256","indexed":true,"internalType":"uint256"},{"name":"user","type":"address","indexed":true,"internalType":"address"},{"name":"role","type":"bytes32","indexed":true,"internalType":"bytes32"}],"anonymous":false},{"type":"event","name":"CommunityStatusChanged","inputs":[{"name":"communityId","type":"uint256","indexed":true,"internalType":"uint256"},{"name":"active","type":"bool","indexed":false,"internalType":"bool"}],"anonymous":false},{"type":"event","name":"ModuleAddressUpdated","inputs":[{"name":"communityId","type":"uint256","indexed":true,"internalType":"uint256"},{"name":"moduleKey","type":"bytes32","indexed":true,"internalType":"bytes32"},{"name":"oldAddress","type":"address","indexed":false,"internalType":"address"},{"name":"newAddress","type":"address","indexed":false,"internalType":"address"}],"anonymous":false},{"type":"event","name":"RoleAdminChanged","inputs":[{"name":"role","type":"bytes32","indexed":true,"internalType":"bytes32"},{"name":"previousAdminRole","type":"bytes32","indexed":true,"internalType":"bytes32"},{"name":"newAdminRole","type":"bytes32","indexed":true,"internalType":"bytes32"}],"anonymous":false},{"type":"event","name":"RoleGranted","inputs":[{"name":"role","type":"bytes32","indexed":true,"internalType":"bytes32"},{"name":"account","type":"address","indexed":true,"internalType":"address"},{"name":"sender","type":"address","indexed":true,"internalType":"address"}],"anonymous":false},{"type":"event","name":"RoleRevoked","inputs":[{"name":"role","type":"bytes32","indexed":true,"internalType":"bytes32"},{"name":"account","type":"address","indexed":true,"internalType":"address"},{"name":"sender","type":"address","indexed":true,"internalType":"address"}],"anonymous":false},{"type":"error","name":"AccessControlBadConfirmation","inputs":[]},{"type":"error","name":"AccessControlUnauthorizedAccount","inputs":[{"name":"account","type":"address","internalType":"address"},{"name":"neededRole","type":"bytes32","internalType":"bytes32"}]},{"type":"error","name":"InvalidInput","inputs":[{"name":"reason","type":"string","internalType":"string"}]},{"type":"error","name":"NotAuthorized","inputs":[{"name":"caller","type":"address","internalType":"address"}]},{"type":"error","name":"ZeroAddress","inputs":[]}],"bytecode":{"object":"0x60a034620000d057601f6200358438819003918201601f19168301916001600160401b03831184841017620000d4578084926040948552833981010312620000d0576200005a60206200005283620000e8565b9201620000e8565b60016006556001600160a01b039082821615620000be5716908115620000be576200008590620000fd565b506080526040516133e49081620001808239608051818181610cb40152818161147d01528181611757015281816118180152612a6a0152f35b60405163d92e233d60e01b8152600490fd5b5f80fd5b634e487b7160e01b5f52604160045260245ffd5b51906001600160a01b0382168203620000d057565b6001600160a01b03165f8181525f8051602062003564833981519152602052604090205460ff166200017a575f8181525f805160206200356483398151915260205260408120805460ff191660011790553391907f2f8788117e7eff1d82e926ec794901d17c78024a50270940304540a733656f0d8180a4600190565b505f9056fe610160806040526004361015610013575f80fd5b5f905f3560e01c90816301ffc9a714612bbf5750806306055b8414612ba257806310b1843814612b635780631ca5b57114612b1357806321be27b814612a39578063248a9ca314612a0d5780632530ebb3146124e45780632f2ff15d146124a7578063336249661461233757806336568abe146122d75780633688da791461228c578063370603f814611e9c5780633b47246014611e5157806345dc230814611d7b57806349dc706b14611cb75780634a2cfb5414611c7c5780634d609b0114611c315780634fbcf13114611bda57806350c76b46146117ec578063555973c4146117a9578063560d4015146116fd578063628005b51461156f578063797669c914611534578063826410c4146115165780638594e56c1461142357806391d14854146113d9578063968fdaf014610d215780639f9e887114610cf4578063a217fddf14610cd8578063d0d1854d14610c94578063d547741f14610c53578063e590b56a14610a33578063f1b150bd1461049c578063f36c8f5c146104615763f830e348146101a0575f80fd5b3461045e57602036600319011261045e57806040516101be81612d63565b8181528160208201528160408201528160608201528160808201528160a08201528160c08201528160e082015281610100820152816101208201528161014082015281610160820152816101808201526101a0015260043561021f90613161565b600435815260016020526040902060058101546001600160a01b0316816006829301546001600160a01b03169060078101546001600160a01b031660088201546001600160a01b031660098301546001600160a01b0316600a8401546001600160a01b0316600b8501546001600160a01b0316600c8601546001600160a01b031690600d8701546001600160a01b031692600e8801546001600160a01b031694600f8901546001600160a01b03169660108a01546001600160a01b03169860118b01546001600160a01b03169a601201546001600160a01b03169b604051809e61030882612d63565b81526020015260408d015260608c015260808b015260a08a015260c089015260e08801526101008701526101208601526101408501526101608401526101808301526101a082015260405191825260208101516001600160a01b0316602083015260408101516001600160a01b0316604083015260608101516001600160a01b0316606083015260808101516001600160a01b0316608083015260a08101516001600160a01b031660a083015260c08101516001600160a01b031660c083015260e08101516001600160a01b031660e08301526101008101516001600160a01b03166101008301526101208101516001600160a01b03166101208301526101408101516001600160a01b03166101408301526101608101516001600160a01b03166101608301526101808101516001600160a01b03166101808301526101a001516001600160a01b03166101a08201526101c090f35b80fd5b503461045e578060031936011261045e5760206040517f71840dc4906352362b0cdaf79870196c8e42acafade72d5d5a6d59291253ceb18152f35b503461045e57608036600319011261045e5760043567ffffffffffffffff8111610a2b576104ce903690600401612e44565b60249291923567ffffffffffffffff8111610a2f576104f1903690600401612e44565b9260443567ffffffffffffffff8111610a2b57610512903690600401612e44565b84939193156109e657606435610988575b6006549561053087612f18565b6006558684526001602052604084209267ffffffffffffffff87116108c3576105598454612d0e565b601f8111610947575b508685601f82116001146108e25786916108d7575b508760011b905f198960031b1c19161784555b67ffffffffffffffff82116108c35781906105a86001860154612d0e565b601f8111610873575b508590601f83116001146108085786926107fd575b50508160011b915f199060031b1c19161760018301555b67ffffffffffffffff81116107e9576105f96002830154612d0e565b601f81116107a1575b509160209691869382601f82116001146107115781907f4efcb338ffccf7b085281c4db55554049eb8f23f9d2b09327c3756f0cf2a213f96978592610706575b50508160011b915f199060031b1c19161760028201555b600381019060ff199160018382541617905542600482015560136064359101558482526004885260408220335f52885260405f208280528852604082206001828254161790558482526005885260408220335f528852600160405f20918254161790556106c7600754612f18565b600755846040519260408452816040850152606084013760608583010152606435868201526060813395601f80199101168101030190a3604051908152f35b013590505f80610642565b9560028301845289842096845b601f198416811061078757509682917f4efcb338ffccf7b085281c4db55554049eb8f23f9d2b09327c3756f0cf2a213f9798600194601f1981161061076e575b505050811b016002820155610659565b01355f19600384901b60f8161c191690555f808061075e565b8183013589556001909801978a9750908b01908b0161071e565b60028301845260208420601f830160051c810191602084106107df575b601f0160051c01905b8181106107d45750610602565b5f81556001016107c7565b90915081906107be565b602483634e487b7160e01b81526041600452fd5b013590505f806105c6565b60018601875260208720879450915b601f198416851061085b576001945083601f19811610610842575b505050811b0160018301556105dd565b01355f19600384901b60f8161c191690555f8080610832565b81810135835560209485019460019093019201610817565b90915060018501865260208620601f840160051c8101602085106108bc575b90849392915b601f830160051c820181106108ae5750506105b1565b5f8155859450600101610898565b5080610892565b602485634e487b7160e01b81526041600452fd5b90508901355f610577565b858752602087209150865b8b601f198b16821061092f57505088601f19811610610916575b5050600187811b01845561058a565b8a01355f1960038a901b60f8161c191690555f80610907565b600183946020939484930135815501930191016108ed565b84865260208620601f890160051c810160208a10610981575b601f830160051c82018110610976575050610562565b5f8155600101610960565b5080610960565b6064358352600160205260ff60036040852001541661052357606460405163d647364f60e01b815260206004820152601b60248201527f506172656e7420636f6d6d756e697479206e6f742061637469766500000000006044820152fd5b606460405163d647364f60e01b815260206004820152601e60248201527f436f6d6d756e697479206e616d652063616e6e6f7420626520656d70747900006044820152fd5b5080fd5b8280fd5b503461045e57602036600319011261045e576004358152600160205260409020610a5c81612da2565b90610a6960018201612da2565b61012052610a7960028201612da2565b61014052600381015460ff166101005260048101549160058201546001600160a01b031660068301546001600160a01b031660078401546001600160a01b031660088501546001600160a01b031660098601546001600160a01b0316600a8701546001600160a01b031690600b8801546001600160a01b031692600c8901546001600160a01b031694600d8a01546001600160a01b031696600e8b01546001600160a01b031698600f8c01546001600160a01b03169a60108d01546001600160a01b03169c60118101546001600160a01b031660805260128101546001600160a01b031660a0526013015460e05260405160c0526102808060c0515260c05101610b8291612c9d565b60c051810360c051602001526101205190610b9c91612c9d565b60c051810360c051604001526101405190610bb691612c9d565b9c61010051151560c0516060015260c0516080015260c05160a0015260c05160c0015260c05160e0015260c051610100015260c051610120015260c051610140015260c051610160015260c051610180015260c0516101a0015260c0516101c0015260c0516101e0015260c051610200015260805160c051610220015260a05160c051610240015260e05160c051610260015260c051900360c051f35b503461045e57604036600319011261045e57610c90600435610c73612c5d565b9080845283602052610c8b6001604086200154613246565b61331b565b5080f35b503461045e578060031936011261045e5760206040516001600160a01b037f0000000000000000000000000000000000000000000000000000000000000000168152f35b503461045e578060031936011261045e57602090604051908152f35b503461045e57604036600319011261045e576024358015158103610a2b57610d1e9060043561309f565b80f35b503461045e576101e036600319011261045e576004356101c0366023190112610a2b57610d4d81613161565b610d56816131c4565b808252600160205260408220906001600160a01b039182610d75612f64565b16611378575b82610d84612f7a565b16611317575b82610d93612f90565b166112b6575b82610da2612fa6565b16611255575b82610db1612fbc565b166111f4575b82610dc0612fd2565b16611193575b82610dcf612fe8565b16611132575b82610dde612ffe565b166110d1575b82610ded613015565b16611070575b82610dfc61302c565b1661100f575b82610e0b613043565b16610fae575b82610e1a61305a565b16610f4d575b82610e29613071565b16610ec8575b82610e38613088565b16610e41578380f35b60126001600160a01b03199101927f8261c36d170ec64b60c2f015482418cba997cb5d3787c13f43e3e29e3713a3aa8454935f8051602061338f833981519152610eb0610e8c613088565b604080516001600160a01b038a891681168252909216602083015290918291820190565b0390a3610ebb613088565b1691161790555f80808380f35b6011810180547f98e8485c9f8d32054528913734a0b61a027120b5b579681fd3be4ad009f54d88845f8051602061338f833981519152610f2d610f09613071565b604080516001600160a01b03888d1681168252909216602083015290918291820190565b0390a36001600160a01b031985610f42613071565b169116179055610e2f565b6010810180547f5a200776fcd7bd781b66706fec6e1b18f0621e153b73c7363545fca20f04a1d2845f8051602061338f833981519152610f8e610f0961305a565b0390a36001600160a01b031985610fa361305a565b169116179055610e20565b600f810180547fe43d20cf7f6a2ff14d5f0335d5c7789349ccc63ae1114e12b0bd87c3f1e951a1845f8051602061338f833981519152610fef610f09613043565b0390a36001600160a01b031985611004613043565b169116179055610e11565b600e810180547f32afddabd709addf4415072b8d91182991dca79db32c8f955b2de08fde6a6f5b845f8051602061338f833981519152611050610f0961302c565b0390a36001600160a01b03198561106561302c565b169116179055610e02565b600d810180547f7b5100c5075e8b464921c50f00e473a3bc0c31203deea60edb85769b757f8bf3845f8051602061338f8339815191526110b1610f09613015565b0390a36001600160a01b0319856110c6613015565b169116179055610df3565b600c810180547f462e21731791a88fbc3d6e262bf146c4157be7e45705bcc62f1a363fee3c4826845f8051602061338f833981519152611112610f09612ffe565b0390a36001600160a01b031985611127612ffe565b169116179055610de4565b600b810180547fb8cb7564b4fae24959e5c4110e8d9cf91dec7f90b166d06cf5ec514d3c9572bb845f8051602061338f833981519152611173610f09612fe8565b0390a36001600160a01b031985611188612fe8565b169116179055610dd5565b600a810180547f666ae48d5d989da88ad33b18d9ad1eb36fb06da47a87e3848edc838a0c833b66845f8051602061338f8339815191526111d4610f09612fd2565b0390a36001600160a01b0319856111e9612fd2565b169116179055610dc6565b6009810180547fbff2e278cc551512f9de0667dc3c1f1adc56d0fa1cc74c9c4bc2fdb3bf19b4eb845f8051602061338f833981519152611235610f09612fbc565b0390a36001600160a01b03198561124a612fbc565b169116179055610db7565b6008810180547f4347b7879af66b5dbc633ac7823917506d8e6f9413913e212b835d7d207618e6845f8051602061338f833981519152611296610f09612fa6565b0390a36001600160a01b0319856112ab612fa6565b169116179055610da8565b6007810180547f53f851c2f0120d87a66d7c53ece15902d923fb3a96f123db6800bb40afe22dd9845f8051602061338f8339815191526112f7610f09612f90565b0390a36001600160a01b03198561130c612f90565b169116179055610d99565b6006810180547f268198d81cd5de2a4c427017a36e6262825f97fa3f1ca0d7bccee07cfae2ad58845f8051602061338f833981519152611358610f09612f7a565b0390a36001600160a01b03198561136d612f7a565b169116179055610d8a565b6005810180547f1e46cebd6689d8c64011118478db0c61a89aa2646c860df401de476fbf378983845f8051602061338f8339815191526113b9610f09612f64565b0390a36001600160a01b0319856113ce612f64565b169116179055610d7b565b503461045e57604036600319011261045e576001600160a01b0360406113fd612c5d565b926004358152806020522091165f52602052602060ff60405f2054166040519015158152f35b503461045e57602036600319011261045e5760043561144181613161565b604051907fa1debd1300000000000000000000000000000000000000000000000000000000825260048201526060816024816001600160a01b037f0000000000000000000000000000000000000000000000000000000000000000165afa801561150b57829183916114d4575b506114d090604051938493846040919493926060820195825260208201520152565b0390f35b90506114d092506114fd915060603d606011611504575b6114f58183612d80565b810190612f49565b90926114ae565b503d6114eb565b6040513d84823e3d90fd5b503461045e578060031936011261045e576020600754604051908152f35b503461045e578060031936011261045e5760206040517f71f3d55856e4058ed06ee057d79ada615f65cdf5f9ee88181b914225088f834f8152f35b503461045e5761157e36612c73565b919061158982613161565b611592826131c4565b7f71f3d55856e4058ed06ee057d79ada615f65cdf5f9ee88181b914225088f834f8303611637576001600160a01b039082855260026020526040852082821690815f5260205260405f209060ff1991828154169055848752600460205260408720905f5260205260405f20858752602052604086209081541690555b16907f5d889adddd84715508093563ae8da798a941b4accfcda9c79f2bba3a2602dd718480a480f35b7f850d585eb7f024ccee5e68e55f2c26cc72e1e6ee456acf62135757a5eb9d4a1083036116b7576001600160a01b039082855260036020526040852082821690815f5260205260405f209060ff1991828154169055848752600460205260408720905f5260205260405f208587526020526040862090815416905561160e565b60405163d647364f60e01b815260206004820152600c60248201527f496e76616c696420726f6c6500000000000000000000000000000000000000006044820152606490fd5b503461045e57602036600319011261045e5760043561171b81613161565b604051907fa3a2479200000000000000000000000000000000000000000000000000000000825260048201526060816024816001600160a01b037f0000000000000000000000000000000000000000000000000000000000000000165afa801561150b57829183916114d457506114d090604051938493846040919493926060820195825260208201520152565b503461045e5760ff60406020926117bf36612c73565b918352600486526001600160a01b0384842091165f528552825f2090825284522054166040519015158152f35b503461045e57602080600319360112610a2b576004359061180c82613161565b6001600160a01b0392837f00000000000000000000000000000000000000000000000000000000000000001691604051917fd32d0ade000000000000000000000000000000000000000000000000000000008352846004840152608083602481875afa948515611bcd578193829683918491611b5e575b5061ffff91604051937fa93ed1ba00000000000000000000000000000000000000000000000000000000855286856004818c5afa948515611b24578695611b2f575b50604051947f6a062954000000000000000000000000000000000000000000000000000000008652816004870152602486015286856044818c5afa948515611b24578695611af5575b50604051907fa5afc4c600000000000000000000000000000000000000000000000000000000825287826004818d5afa918215611aea57908792918392611ab3575b506044906040519b8c9384927f0bcb2f93000000000000000000000000000000000000000000000000000000008452600484015260248301525afa978815611aa85785986119fd575b5060ff9083604098979698519a8160c08d0199168c5216868b0152166040890152166060870152608086015260c060a086015283518092528060e086019401925b8281106119e75785850386f35b83518716855293810193928101926001016119da565b9097503d8086833e611a0f8183612d80565b8101908681830312611aa05780519067ffffffffffffffff8211611aa457019080601f83011215611aa0578151611a4581612f00565b92611a536040519485612d80565b818452888085019260051b820101928311611a9c578801905b828210611a805750505060ff909790611999565b81518d81168103611a98578152908801908801611a6c565b8880fd5b8780fd5b8580fd5b8680fd5b6040513d87823e3d90fd5b925090508782813d8111611ae3575b611acc8183612d80565b81010312611adf57905186916044611950565b5f80fd5b503d611ac2565b6040513d89823e3d90fd5b9094508681813d8311611b1d575b611b0d8183612d80565b81010312611aa05751935f61190e565b503d611b03565b6040513d88823e3d90fd5b9094508681813d8311611b57575b611b478183612d80565b81010312611adf5751935f6118c5565b503d611b3d565b9750505092506080853d608011611bc5575b81611b7d60809383612d80565b8101031261045e57611b8e85612f3a565b92611b9a838701612f3a565b9360408701519660ff88168803611bc1576060611bb79101612f3a565b909496905f611883565b8380fd5b3d9150611b70565b50604051903d90823e3d90fd5b503461045e57602036600319011261045e57604090600435611bfb81613161565b8152600160205220611c14601460138301549201612e72565b906114d06040519283928352604060208401526040830190612cdb565b503461045e57604036600319011261045e576001600160a01b036040611c55612c5d565b92600435815260026020522091165f52602052602060ff60405f2054166040519015158152f35b503461045e578060031936011261045e5760206040517f850d585eb7f024ccee5e68e55f2c26cc72e1e6ee456acf62135757a5eb9d4a108152f35b503461045e578060031936011261045e57600754611ced611cd782612f00565b91611ce56040519384612d80565b808352612f00565b60209290601f1901368385013780600193600192600654935b848110611d2357604051602080825281906114d090820189612cdb565b808791835281845260ff600360408520015416611d41575b01611d06565b9390508551811015611d6757611d618185858a9460051b8a010152612f18565b93611d3b565b602482634e487b7160e01b81526032600452fd5b503461045e57604036600319011261045e57602435600435611d9c81613161565b611da582613161565b611dae816131c4565b818114611e0c578083526001602052611dcd8260146040862001612ec0565b8183526001602052611de58160146040862001612ec0565b7fe4efcf2d01d38d3de90c4288e3533ee47fe8f6dd7ea0253636790b242dc705108380a380f35b606460405163d647364f60e01b815260206004820152601560248201527f43616e6e6f7420616c6c7920776974682073656c6600000000000000000000006044820152fd5b503461045e57604036600319011261045e576001600160a01b036040611e75612c5d565b92600435815260036020522091165f52602052602060ff60405f2054166040519015158152f35b503461045e57602036600319011261045e5760406114d09160606102808351611ec481612d46565b828152826020820152828582015283838201528360808201528360a08201528360c08201528360e08201528361010082015283610120820152836101408201528361016082015283610180820152836101a0820152836101c0820152836101e0820152836102008201528361022082015283610240820152836102608201520152611f50600435613161565b60043581526001602052206120d9601460405192611f6d84612d46565b611f7681612da2565b8452611f8460018201612da2565b6020850152611f9560028201612da2565b604085015260ff60038201541615156060850152600481015460808501526001600160a01b0360058201541660a08501526001600160a01b0360068201541660c08501526001600160a01b0360078201541660e08501526001600160a01b036008820154166101008501526001600160a01b036009820154166101208501526001600160a01b03600a820154166101408501526001600160a01b03600b820154166101608501526001600160a01b03600c820154166101808501526001600160a01b03600d820154166101a08501526001600160a01b03600e820154166101c08501526001600160a01b03600f820154166101e08501526001600160a01b036010820154166102008501526001600160a01b036011820154166102208501526001600160a01b03601282015416610240850152601381015461026085015201612e72565b6102808201526040519182916020835261028061213661212061210a84516102a060208901526102c0880190612c9d565b6020850151878203601f19016040890152612c9d565b6040840151868203601f19016060880152612c9d565b91606081015115156080860152608081015160a08601526001600160a01b0360a08201511660c08601526001600160a01b0360c08201511660e08601526001600160a01b0360e0820151166101008601526001600160a01b03610100820151166101208601526001600160a01b03610120820151166101408601526001600160a01b03610140820151166101608601526001600160a01b03610160820151166101808601526001600160a01b03610180820151166101a08601526001600160a01b036101a0820151166101c08601526001600160a01b036101c0820151166101e08601526001600160a01b036101e0820151166102008601526001600160a01b03610200820151166102208601526001600160a01b03610220820151166102408601526001600160a01b0361024082015116610260860152610260810151828601520151601f19848303016102a0850152612cdb565b503461045e57604036600319011261045e576001600160a01b0360406122b0612c5d565b92600435815260056020522091165f52602052602060ff60405f2054166040519015158152f35b503461045e57604036600319011261045e576122f1612c5d565b336001600160a01b0382160361230d57610c909060043561331b565b60046040517f6697b232000000000000000000000000000000000000000000000000000000008152fd5b503461045e576001600160a01b0361234e36612c73565b929061235983613161565b612362836131c4565b1690811561247d577f71f3d55856e4058ed06ee057d79ada615f65cdf5f9ee88181b914225088f834f830361240557808452600260205260408420825f5260205260405f2060ff1990600182825416179055818552600460205260408520835f5260205260405f20848652602052600160408620918254161790555b7f94765e3c1e0f3b4ba19015a25eec7ec04cb5c6acc83a4ac9cac5cf4412abf8488480a480f35b7f850d585eb7f024ccee5e68e55f2c26cc72e1e6ee456acf62135757a5eb9d4a1083036116b757808452600360205260408420825f5260205260405f2060ff1990600182825416179055818552600460205260408520835f5260205260405f20848652602052600160408620918254161790556123de565b60046040517fd92e233d000000000000000000000000000000000000000000000000000000008152fd5b503461045e57604036600319011261045e57610c906004356124c7612c5d565b90808452836020526124df6001604086200154613246565b61329e565b503461045e57606036600319011261045e576024356004356001600160a01b0360443581811691828203611adf5761251b84613161565b612524846131c4565b838652600160205260408620927f1e46cebd6689d8c64011118478db0c61a89aa2646c860df401de476fbf378983860361259e5760055f8051602061338f8339815191529401906001600160a01b0319825493841693161790555b604080516001600160a01b03928316815292909116602083015290a380f35b7f268198d81cd5de2a4c427017a36e6262825f97fa3f1ca0d7bccee07cfae2ad5886036125f05760065f8051602061338f8339815191529401906001600160a01b03198254938416931617905561257f565b7f53f851c2f0120d87a66d7c53ece15902d923fb3a96f123db6800bb40afe22dd986036126425760075f8051602061338f8339815191529401906001600160a01b03198254938416931617905561257f565b7f4347b7879af66b5dbc633ac7823917506d8e6f9413913e212b835d7d207618e686036126945760085f8051602061338f8339815191529401906001600160a01b03198254938416931617905561257f565b7fbff2e278cc551512f9de0667dc3c1f1adc56d0fa1cc74c9c4bc2fdb3bf19b4eb86036126e65760095f8051602061338f8339815191529401906001600160a01b03198254938416931617905561257f565b7f666ae48d5d989da88ad33b18d9ad1eb36fb06da47a87e3848edc838a0c833b66860361273857600a5f8051602061338f8339815191529401906001600160a01b03198254938416931617905561257f565b7fb8cb7564b4fae24959e5c4110e8d9cf91dec7f90b166d06cf5ec514d3c9572bb860361278a57600b5f8051602061338f8339815191529401906001600160a01b03198254938416931617905561257f565b7f462e21731791a88fbc3d6e262bf146c4157be7e45705bcc62f1a363fee3c482686036127dc57600c5f8051602061338f8339815191529401906001600160a01b03198254938416931617905561257f565b7f7b5100c5075e8b464921c50f00e473a3bc0c31203deea60edb85769b757f8bf3860361282e57600d5f8051602061338f8339815191529401906001600160a01b03198254938416931617905561257f565b7f32afddabd709addf4415072b8d91182991dca79db32c8f955b2de08fde6a6f5b860361288057600e5f8051602061338f8339815191529401906001600160a01b03198254938416931617905561257f565b7fe43d20cf7f6a2ff14d5f0335d5c7789349ccc63ae1114e12b0bd87c3f1e951a186036128d257600f5f8051602061338f8339815191529401906001600160a01b03198254938416931617905561257f565b7f5a200776fcd7bd781b66706fec6e1b18f0621e153b73c7363545fca20f04a1d286036129245760105f8051602061338f8339815191529401906001600160a01b03198254938416931617905561257f565b7f98e8485c9f8d32054528913734a0b61a027120b5b579681fd3be4ad009f54d8886036129765760115f8051602061338f8339815191529401906001600160a01b03198254938416931617905561257f565b7f8261c36d170ec64b60c2f015482418cba997cb5d3787c13f43e3e29e3713a3aa86036129c85760125f8051602061338f8339815191529401906001600160a01b03198254938416931617905561257f565b606460405163d647364f60e01b815260206004820152601260248201527f556e6b6e6f776e206d6f64756c65206b657900000000000000000000000000006044820152fd5b503461045e57602036600319011261045e57600160406020926004358152808452200154604051908152f35b5034611adf576020366003190112611adf57600435612a5781613161565b612a60816131c4565b6001600160a01b037f00000000000000000000000000000000000000000000000000000000000000001690813b15611adf575f916044839260405194859384927f612dca9800000000000000000000000000000000000000000000000000000000845260048401523360248401525af18015612b0857612ade575080f35b905067ffffffffffffffff8111612af457604052005b634e487b7160e01b5f52604160045260245ffd5b6040513d5f823e3d90fd5b34611adf57612b2136612c73565b91612b2b81613161565b5f5260046020526001600160a01b0360405f2091165f5260205260405f20905f52602052602060ff60405f2054166040519015158152f35b34611adf576020366003190112611adf57600435612b8081613161565b5f52600160205260206001600160a01b03600660405f20015416604051908152f35b34611adf575f366003190112611adf576020600654604051908152f35b34611adf576020366003190112611adf57600435907fffffffff000000000000000000000000000000000000000000000000000000008216809203611adf57817f7965db0b0000000000000000000000000000000000000000000000000000000060209314908115612c33575b5015158152f35b7f01ffc9a70000000000000000000000000000000000000000000000000000000091501483612c2c565b602435906001600160a01b0382168203611adf57565b6060906003190112611adf57600435906024356001600160a01b0381168103611adf579060443590565b91908251928382525f5b848110612cc7575050825f602080949584010152601f8019910116010190565b602081830181015184830182015201612ca7565b9081518082526020808093019301915f5b828110612cfa575050505090565b835185529381019392810192600101612cec565b90600182811c92168015612d3c575b6020831014612d2857565b634e487b7160e01b5f52602260045260245ffd5b91607f1691612d1d565b6102a0810190811067ffffffffffffffff821117612af457604052565b6101c0810190811067ffffffffffffffff821117612af457604052565b90601f8019910116810190811067ffffffffffffffff821117612af457604052565b9060405191825f8254612db481612d0e565b908184526020946001916001811690815f14612e225750600114612de4575b505050612de292500383612d80565b565b5f90815285812095935091905b818310612e0a575050612de293508201015f8080612dd3565b85548884018501529485019487945091830191612df1565b92505050612de294925060ff191682840152151560051b8201015f8080612dd3565b9181601f84011215611adf5782359167ffffffffffffffff8311611adf5760208381860195010111611adf57565b90604051918281549182825260209260208301915f5260205f20935f905b828210612ea657505050612de292500383612d80565b855484526001958601958895509381019390910190612e90565b80549068010000000000000000821015612af45760018201808255821015612eec575f5260205f200155565b634e487b7160e01b5f52603260045260245ffd5b67ffffffffffffffff8111612af45760051b60200190565b5f198114612f265760010190565b634e487b7160e01b5f52601160045260245ffd5b519061ffff82168203611adf57565b90816060910312611adf578051916040602083015192015190565b6024356001600160a01b0381168103611adf5790565b6044356001600160a01b0381168103611adf5790565b6064356001600160a01b0381168103611adf5790565b6084356001600160a01b0381168103611adf5790565b60a4356001600160a01b0381168103611adf5790565b60c4356001600160a01b0381168103611adf5790565b60e4356001600160a01b0381168103611adf5790565b610104356001600160a01b0381168103611adf5790565b610124356001600160a01b0381168103611adf5790565b610144356001600160a01b0381168103611adf5790565b610164356001600160a01b0381168103611adf5790565b610184356001600160a01b0381168103611adf5790565b6101a4356001600160a01b0381168103611adf5790565b6101c4356001600160a01b0381168103611adf5790565b906130a982613161565b6130b2826131c4565b815f526001602052600360405f200190815491811515928360ff821615151461315a5760ff191660ff8416179055156131215760207f1b33bf721278476ef24ca6ec530cfd3532aa6a88fe28b73f6bdf0f74e3ee52cc91613114600754612f18565b6007555b604051908152a2565b6007548015612f26575f19016007557f1b33bf721278476ef24ca6ec530cfd3532aa6a88fe28b73f6bdf0f74e3ee52cc90602090613118565b5050505050565b80159081156131b7575b5061317257565b606460405163d647364f60e01b815260206004820152601860248201527f436f6d6d756e69747920646f6573206e6f7420657869737400000000000000006044820152fd5b905060065411155f61316b565b5f52600560205260405f20335f5260205260ff60405f205416612de257335f9081527fad3228b676f7d3cd4284a5443f17f1962b36e491b30a40b2405849e597ba5fb5602052604090205460ff16612de25760246040517f4a0bfec1000000000000000000000000000000000000000000000000000000008152336004820152fd5b805f525f60205260405f20335f5260205260ff60405f205416156132675750565b604490604051907fe2517d3f0000000000000000000000000000000000000000000000000000000082523360048301526024820152fd5b90815f525f6020526001600160a01b0360405f20911690815f5260205260ff60405f205416155f1461331557815f525f60205260405f20815f5260205260405f20600160ff1982541617905533917f2f8788117e7eff1d82e926ec794901d17c78024a50270940304540a733656f0d5f80a4600190565b50505f90565b90815f525f6020526001600160a01b0360405f20911690815f5260205260ff60405f2054165f1461331557815f525f60205260405f20815f5260205260405f2060ff19815416905533917ff6391f5c32d9c69d2a47ea670b442974b53935d1edc7fd64eb21e047a839171b5f80a460019056fe2f3bea06c6e9b63d5e7c84a6bc5a08817c09192cdc87f2ec5a5fecc2a7dd503ba2646970667358221220d8b8dab30b606b6dfdb3d642cbae7e3c323745c7501728ccf4f392ce15429eac64736f6c63430008180033ad3228b676f7d3cd4284a5443f17f1962b36e491b30a40b2405849e597ba5fb5","linkReferences":{}},"methodIdentifiers":{"CURATOR_ROLE()":"4a2cfb54","DEFAULT_ADMIN_ROLE()":"a217fddf","GOVERNANCE_ROLE()":"f36c8f5c","MODERATOR_ROLE()":"797669c9","activeCommunityCount()":"826410c4","communities(uint256)":"e590b56a","communityAdmins(uint256,address)":"3688da79","communityRoles(uint256,address,bytes32)":"555973c4","curators(uint256,address)":"3b472460","formAlliance(uint256,uint256)":"45dc2308","getActiveCommunities()":"49dc706b","getCommunity(uint256)":"370603f8","getCommunityModules(uint256)":"f830e348","getCommunityRelationships(uint256)":"4fbcf131","getEconomicParameters(uint256)":"50c76b46","getEligibilityRules(uint256)":"560d4015","getGovernanceParameters(uint256)":"8594e56c","getRoleAdmin(bytes32)":"248a9ca3","getTimelock(uint256)":"10b18438","grantCommunityRole(uint256,address,bytes32)":"33624966","grantRole(bytes32,address)":"2f2ff15d","hasRole(bytes32,address)":"91d14854","hasRole(uint256,address,bytes32)":"1ca5b571","initializeDefaultParameters(uint256)":"21be27b8","moderators(uint256,address)":"4d609b01","nextCommunityId()":"06055b84","paramController()":"d0d1854d","registerCommunity(string,string,string,uint256)":"f1b150bd","renounceRole(bytes32,address)":"36568abe","revokeCommunityRole(uint256,address,bytes32)":"628005b5","revokeRole(bytes32,address)":"d547741f","setCommunityStatus(uint256,bool)":"9f9e8871","setModuleAddress(uint256,bytes32,address)":"2530ebb3","setModuleAddresses(uint256,(address,address,address,address,address,address,address,address,address,address,address,address,address,address))":"968fdaf0","supportsInterface(bytes4)":"01ffc9a7"},"id":6}