{"abi":[{"type":"constructor","inputs":[{"name":"_usdc","type":"address","internalType":"address"},{"name":"_communityId","type":"uint256","internalType":"uint256"},{"name":"_name","type":"string","internalType":"string"},{"name":"_symbol","type":"string","internalType":"string"},{"name":"_treasury","type":"address","internalType":"address"},{"name":"_maxSupply","type":"uint256","internalType":"uint256"},{"name":"_paramController","type":"address","internalType":"address"},{"name":"_manager","type":"address","internalType":"address"}],"stateMutability":"nonpayable"},{"type":"function","name":"EMERGENCY_DELAY","inputs":[],"outputs":[{"name":"","type":"uint256","internalType":"uint256"}],"stateMutability":"view"},{"type":"function","name":"EMERGENCY_ROLE","inputs":[],"outputs":[{"name":"","type":"uint64","internalType":"uint64"}],"stateMutability":"view"},{"type":"function","name":"MAX_REDEMPTION_FEE","inputs":[],"outputs":[{"name":"","type":"uint256","internalType":"uint256"}],"stateMutability":"view"},{"type":"function","name":"MINTER_ROLE","inputs":[],"outputs":[{"name":"","type":"uint64","internalType":"uint64"}],"stateMutability":"view"},{"type":"function","name":"TREASURY_ROLE","inputs":[],"outputs":[{"name":"","type":"uint64","internalType":"uint64"}],"stateMutability":"view"},{"type":"function","name":"USDC","inputs":[],"outputs":[{"name":"","type":"address","internalType":"contract IERC20"}],"stateMutability":"view"},{"type":"function","name":"allowance","inputs":[{"name":"owner","type":"address","internalType":"address"},{"name":"spender","type":"address","internalType":"address"}],"outputs":[{"name":"","type":"uint256","internalType":"uint256"}],"stateMutability":"view"},{"type":"function","name":"approve","inputs":[{"name":"spender","type":"address","internalType":"address"},{"name":"value","type":"uint256","internalType":"uint256"}],"outputs":[{"name":"","type":"bool","internalType":"bool"}],"stateMutability":"nonpayable"},{"type":"function","name":"authority","inputs":[],"outputs":[{"name":"","type":"address","internalType":"address"}],"stateMutability":"view"},{"type":"function","name":"balanceOf","inputs":[{"name":"account","type":"address","internalType":"address"}],"outputs":[{"name":"","type":"uint256","internalType":"uint256"}],"stateMutability":"view"},{"type":"function","name":"calculateRedemption","inputs":[{"name":"tokenAmount","type":"uint256","internalType":"uint256"}],"outputs":[{"name":"grossUsdc","type":"uint256","internalType":"uint256"},{"name":"fee","type":"uint256","internalType":"uint256"},{"name":"netUsdc","type":"uint256","internalType":"uint256"}],"stateMutability":"view"},{"type":"function","name":"communityId","inputs":[],"outputs":[{"name":"","type":"uint256","internalType":"uint256"}],"stateMutability":"view"},{"type":"function","name":"decimals","inputs":[],"outputs":[{"name":"","type":"uint8","internalType":"uint8"}],"stateMutability":"view"},{"type":"function","name":"depositToTreasury","inputs":[{"name":"amount","type":"uint256","internalType":"uint256"}],"outputs":[],"stateMutability":"nonpayable"},{"type":"function","name":"emergencyWithdrawalCount","inputs":[],"outputs":[{"name":"","type":"uint256","internalType":"uint256"}],"stateMutability":"view"},{"type":"function","name":"emergencyWithdrawals","inputs":[{"name":"","type":"uint256","internalType":"uint256"}],"outputs":[{"name":"amount","type":"uint256","internalType":"uint256"},{"name":"requestTime","type":"uint256","internalType":"uint256"},{"name":"executed","type":"bool","internalType":"bool"},{"name":"requestedBy","type":"address","internalType":"address"}],"stateMutability":"view"},{"type":"function","name":"executeEmergencyWithdrawal","inputs":[{"name":"requestId","type":"uint256","internalType":"uint256"},{"name":"recipient","type":"address","internalType":"address"}],"outputs":[],"stateMutability":"nonpayable"},{"type":"function","name":"getAvailableTreasuryBalance","inputs":[],"outputs":[{"name":"available","type":"uint256","internalType":"uint256"}],"stateMutability":"view"},{"type":"function","name":"getBackingRatio","inputs":[],"outputs":[{"name":"ratio","type":"uint256","internalType":"uint256"}],"stateMutability":"view"},{"type":"function","name":"getEffectiveRedemptionFee","inputs":[],"outputs":[{"name":"feeBps","type":"uint256","internalType":"uint256"}],"stateMutability":"view"},{"type":"function","name":"isConsumingScheduledOp","inputs":[],"outputs":[{"name":"","type":"bytes4","internalType":"bytes4"}],"stateMutability":"view"},{"type":"function","name":"isEmergencyWithdrawalReady","inputs":[{"name":"requestId","type":"uint256","internalType":"uint256"}],"outputs":[{"name":"ready","type":"bool","internalType":"bool"},{"name":"timeRemaining","type":"uint256","internalType":"uint256"}],"stateMutability":"view"},{"type":"function","name":"maxSupply","inputs":[],"outputs":[{"name":"","type":"uint256","internalType":"uint256"}],"stateMutability":"view"},{"type":"function","name":"mint","inputs":[{"name":"usdcAmount","type":"uint256","internalType":"uint256"}],"outputs":[{"name":"tokensAmount","type":"uint256","internalType":"uint256"}],"stateMutability":"nonpayable"},{"type":"function","name":"mintTo","inputs":[{"name":"to","type":"address","internalType":"address"},{"name":"amount","type":"uint256","internalType":"uint256"}],"outputs":[],"stateMutability":"nonpayable"},{"type":"function","name":"name","inputs":[],"outputs":[{"name":"","type":"string","internalType":"string"}],"stateMutability":"view"},{"type":"function","name":"paramController","inputs":[],"outputs":[{"name":"","type":"address","internalType":"contract ParamController"}],"stateMutability":"view"},{"type":"function","name":"pause","inputs":[],"outputs":[],"stateMutability":"nonpayable"},{"type":"function","name":"paused","inputs":[],"outputs":[{"name":"","type":"bool","internalType":"bool"}],"stateMutability":"view"},{"type":"function","name":"redeem","inputs":[{"name":"tokenAmount","type":"uint256","internalType":"uint256"}],"outputs":[{"name":"usdcAmount","type":"uint256","internalType":"uint256"}],"stateMutability":"nonpayable"},{"type":"function","name":"requestEmergencyWithdrawal","inputs":[{"name":"amount","type":"uint256","internalType":"uint256"}],"outputs":[],"stateMutability":"nonpayable"},{"type":"function","name":"setAuthority","inputs":[{"name":"newAuthority","type":"address","internalType":"address"}],"outputs":[],"stateMutability":"nonpayable"},{"type":"function","name":"setMaxSupply","inputs":[{"name":"newMaxSupply","type":"uint256","internalType":"uint256"}],"outputs":[],"stateMutability":"nonpayable"},{"type":"function","name":"setParamController","inputs":[{"name":"newParamController","type":"address","internalType":"address"}],"outputs":[],"stateMutability":"nonpayable"},{"type":"function","name":"setTreasury","inputs":[{"name":"newTreasury","type":"address","internalType":"address"}],"outputs":[],"stateMutability":"nonpayable"},{"type":"function","name":"symbol","inputs":[],"outputs":[{"name":"","type":"string","internalType":"string"}],"stateMutability":"view"},{"type":"function","name":"totalSupply","inputs":[],"outputs":[{"name":"","type":"uint256","internalType":"uint256"}],"stateMutability":"view"},{"type":"function","name":"transfer","inputs":[{"name":"to","type":"address","internalType":"address"},{"name":"value","type":"uint256","internalType":"uint256"}],"outputs":[{"name":"","type":"bool","internalType":"bool"}],"stateMutability":"nonpayable"},{"type":"function","name":"transferFrom","inputs":[{"name":"from","type":"address","internalType":"address"},{"name":"to","type":"address","internalType":"address"},{"name":"value","type":"uint256","internalType":"uint256"}],"outputs":[{"name":"","type":"bool","internalType":"bool"}],"stateMutability":"nonpayable"},{"type":"function","name":"treasury","inputs":[],"outputs":[{"name":"","type":"address","internalType":"address"}],"stateMutability":"view"},{"type":"function","name":"unpause","inputs":[],"outputs":[],"stateMutability":"nonpayable"},{"type":"function","name":"withdrawFromTreasury","inputs":[{"name":"recipient","type":"address","internalType":"address"},{"name":"amount","type":"uint256","internalType":"uint256"},{"name":"reason","type":"string","internalType":"string"}],"outputs":[],"stateMutability":"nonpayable"},{"type":"event","name":"Approval","inputs":[{"name":"owner","type":"address","indexed":true,"internalType":"address"},{"name":"spender","type":"address","indexed":true,"internalType":"address"},{"name":"value","type":"uint256","indexed":false,"internalType":"uint256"}],"anonymous":false},{"type":"event","name":"AuthorityUpdated","inputs":[{"name":"authority","type":"address","indexed":false,"internalType":"address"}],"anonymous":false},{"type":"event","name":"EmergencyWithdrawalExecuted","inputs":[{"name":"requestId","type":"uint256","indexed":true,"internalType":"uint256"},{"name":"amount","type":"uint256","indexed":false,"internalType":"uint256"},{"name":"recipient","type":"address","indexed":true,"internalType":"address"}],"anonymous":false},{"type":"event","name":"EmergencyWithdrawalRequested","inputs":[{"name":"requestId","type":"uint256","indexed":true,"internalType":"uint256"},{"name":"amount","type":"uint256","indexed":false,"internalType":"uint256"},{"name":"requester","type":"address","indexed":true,"internalType":"address"}],"anonymous":false},{"type":"event","name":"MaxSupplyUpdated","inputs":[{"name":"oldMax","type":"uint256","indexed":false,"internalType":"uint256"},{"name":"newMax","type":"uint256","indexed":false,"internalType":"uint256"}],"anonymous":false},{"type":"event","name":"Paused","inputs":[{"name":"account","type":"address","indexed":false,"internalType":"address"}],"anonymous":false},{"type":"event","name":"RedemptionFeeUpdated","inputs":[{"name":"oldFee","type":"uint256","indexed":false,"internalType":"uint256"},{"name":"newFee","type":"uint256","indexed":false,"internalType":"uint256"}],"anonymous":false},{"type":"event","name":"TokensMinted","inputs":[{"name":"to","type":"address","indexed":true,"internalType":"address"},{"name":"usdcAmount","type":"uint256","indexed":false,"internalType":"uint256"},{"name":"tokensAmount","type":"uint256","indexed":false,"internalType":"uint256"}],"anonymous":false},{"type":"event","name":"TokensRedeemed","inputs":[{"name":"from","type":"address","indexed":true,"internalType":"address"},{"name":"tokensAmount","type":"uint256","indexed":false,"internalType":"uint256"},{"name":"usdcAmount","type":"uint256","indexed":false,"internalType":"uint256"},{"name":"fee","type":"uint256","indexed":false,"internalType":"uint256"}],"anonymous":false},{"type":"event","name":"Transfer","inputs":[{"name":"from","type":"address","indexed":true,"internalType":"address"},{"name":"to","type":"address","indexed":true,"internalType":"address"},{"name":"value","type":"uint256","indexed":false,"internalType":"uint256"}],"anonymous":false},{"type":"event","name":"TreasuryDeposit","inputs":[{"name":"amount","type":"uint256","indexed":false,"internalType":"uint256"},{"name":"depositor","type":"address","indexed":true,"internalType":"address"}],"anonymous":false},{"type":"event","name":"TreasuryUpdated","inputs":[{"name":"oldTreasury","type":"address","indexed":false,"internalType":"address"},{"name":"newTreasury","type":"address","indexed":false,"internalType":"address"}],"anonymous":false},{"type":"event","name":"TreasuryWithdrawal","inputs":[{"name":"amount","type":"uint256","indexed":false,"internalType":"uint256"},{"name":"recipient","type":"address","indexed":true,"internalType":"address"},{"name":"reason","type":"string","indexed":false,"internalType":"string"}],"anonymous":false},{"type":"event","name":"Unpaused","inputs":[{"name":"account","type":"address","indexed":false,"internalType":"address"}],"anonymous":false},{"type":"error","name":"AccessManagedInvalidAuthority","inputs":[{"name":"authority","type":"address","internalType":"address"}]},{"type":"error","name":"AccessManagedRequiredDelay","inputs":[{"name":"caller","type":"address","internalType":"address"},{"name":"delay","type":"uint32","internalType":"uint32"}]},{"type":"error","name":"AccessManagedUnauthorized","inputs":[{"name":"caller","type":"address","internalType":"address"}]},{"type":"error","name":"ERC20InsufficientAllowance","inputs":[{"name":"spender","type":"address","internalType":"address"},{"name":"allowance","type":"uint256","internalType":"uint256"},{"name":"needed","type":"uint256","internalType":"uint256"}]},{"type":"error","name":"ERC20InsufficientBalance","inputs":[{"name":"sender","type":"address","internalType":"address"},{"name":"balance","type":"uint256","internalType":"uint256"},{"name":"needed","type":"uint256","internalType":"uint256"}]},{"type":"error","name":"ERC20InvalidApprover","inputs":[{"name":"approver","type":"address","internalType":"address"}]},{"type":"error","name":"ERC20InvalidReceiver","inputs":[{"name":"receiver","type":"address","internalType":"address"}]},{"type":"error","name":"ERC20InvalidSender","inputs":[{"name":"sender","type":"address","internalType":"address"}]},{"type":"error","name":"ERC20InvalidSpender","inputs":[{"name":"spender","type":"address","internalType":"address"}]},{"type":"error","name":"EmergencyWithdrawalAlreadyExecuted","inputs":[{"name":"requestId","type":"uint256","internalType":"uint256"}]},{"type":"error","name":"EmergencyWithdrawalNotReady","inputs":[{"name":"requestTime","type":"uint256","internalType":"uint256"},{"name":"currentTime","type":"uint256","internalType":"uint256"}]},{"type":"error","name":"EnforcedPause","inputs":[]},{"type":"error","name":"ExpectedPause","inputs":[]},{"type":"error","name":"InsufficientTokenBalance","inputs":[{"name":"required","type":"uint256","internalType":"uint256"},{"name":"available","type":"uint256","internalType":"uint256"}]},{"type":"error","name":"InsufficientTreasuryBalance","inputs":[{"name":"required","type":"uint256","internalType":"uint256"},{"name":"available","type":"uint256","internalType":"uint256"}]},{"type":"error","name":"InsufficientUSDCBalance","inputs":[{"name":"required","type":"uint256","internalType":"uint256"},{"name":"available","type":"uint256","internalType":"uint256"}]},{"type":"error","name":"InvalidInput","inputs":[{"name":"reason","type":"string","internalType":"string"}]},{"type":"error","name":"InvalidRedemptionFee","inputs":[{"name":"fee","type":"uint256","internalType":"uint256"},{"name":"maxAllowed","type":"uint256","internalType":"uint256"}]},{"type":"error","name":"InvalidWithdrawalAmount","inputs":[{"name":"amount","type":"uint256","internalType":"uint256"}]},{"type":"error","name":"MaxSupplyExceeded","inputs":[{"name":"requested","type":"uint256","internalType":"uint256"},{"name":"maxAllowed","type":"uint256","internalType":"uint256"}]},{"type":"error","name":"ReentrancyGuardReentrantCall","inputs":[]},{"type":"error","name":"SafeERC20FailedOperation","inputs":[{"name":"token","type":"address","internalType":"address"}]},{"type":"error","name":"ZeroAddress","inputs":[]}],"bytecode":{"object":"0x60c0604052346200058c5762002941803803806200001d8162000590565b928339810190610100818303126200058c576200003a81620005b6565b60208201516040830151919290916001600160401b0381116200058c578462000065918301620005cb565b606082015190946001600160401b0382116200058c5762000088918301620005cb565b916200009760808301620005b6565b60a083015193620000b960e0620000b160c08701620005b6565b9501620005b6565b875190976001600160401b038211620004645760035490600182811c9216801562000581575b6020831014620004455781601f84931162000511575b50602090601f831160011462000484575f9262000478575b50508160011b915f199060031b1c1916176003555b8051906001600160401b038211620004645760045490600182811c9216801562000459575b6020831014620004455781601f849311620003d2575b50602090601f831160011462000345575f9262000339575b50508160011b915f199060031b1c1916176004555b60018060a01b03809616958060018060a01b031996888860055416176005557f2f658b440c35314f52658ea8a740e05b284cdc84dc9ae01e891f21b8933e7cad60206040518b8152a160017f9b779b17422d0df92223018b32b4d1fa46e071723d6817e2486d003becc55f0055169182156200032757811693841562000327571695861562000327571562000327578115620002e15783156200029b5760805260a052826009541617600955600655600a541617600a5560405161230590816200063c823960805181818161037301528181610685015281816108160152818161097b01528181610ce301528181610df6015281816113270152611c39015260a051818181610fee01526122230152f35b60405163d647364f60e01b815260206004820152601960248201527f4d617820737570706c792063616e6e6f74206265207a65726f000000000000006044820152606490fd5b60405163d647364f60e01b815260206004820152601b60248201527f436f6d6d756e6974792049442063616e6e6f74206265207a65726f00000000006044820152606490fd5b60405163d92e233d60e01b8152600490fd5b015190505f8062000175565b60045f90815293507f8a35acfbc15ff81a39ae7d344fd709f28e8600b4aa8c65c6b64bfe7fe36bd19b91905b601f1984168510620003b6576001945083601f198116106200039d575b505050811b016004556200018a565b01515f1960f88460031b161c191690555f80806200038e565b8181015183556020948501946001909301929091019062000371565b60045f529091507f8a35acfbc15ff81a39ae7d344fd709f28e8600b4aa8c65c6b64bfe7fe36bd19b601f840160051c810191602085106200043a575b90601f859493920160051c01905b8181106200042b57506200015d565b5f81558493506001016200041c565b90915081906200040e565b634e487b7160e01b5f52602260045260245ffd5b91607f169162000147565b634e487b7160e01b5f52604160045260245ffd5b015190505f806200010d565b60035f90815293507fc2575a0e9e593c00f959f8c92f12db2869c3395a3b0502d05e2516446f71f85b91905b601f1984168510620004f5576001945083601f19811610620004dc575b505050811b0160035562000122565b01515f1960f88460031b161c191690555f8080620004cd565b81810151835560209485019460019093019290910190620004b0565b60035f529091507fc2575a0e9e593c00f959f8c92f12db2869c3395a3b0502d05e2516446f71f85b601f840160051c81016020851062000579575b90849392915b601f830160051c820181106200056a575050620000f5565b5f815585945060010162000552565b50806200054c565b91607f1691620000df565b5f80fd5b6040519190601f01601f191682016001600160401b038111838210176200046457604052565b51906001600160a01b03821682036200058c57565b919080601f840112156200058c5782516001600160401b038111620004645760209062000601601f8201601f1916830162000590565b928184528282870101116200058c575f5b818110620006275750825f9394955001015290565b85810183015184820184015282016200061256fe6080604090808252600480361015610015575f80fd5b5f3560e01c91826306fdde031461198657508163095ea7b3146118de5781630d7b7fb2146118b357816318160ddd1461189557816320df43591461187a57816323b872dd1461176e57816323c7b49c1461163d578163313ce567146116225781633f4ba83a1461159a578163449a52f81461149c5781634e3cbff81461129b5781635abd98db1461127f5781635c975abb1461125957816361d027b3146112325781636f8b44b01461116957816370a0823114611133578163719487ff146110de5781637a9e5e4b146110115781637f50861a14610fd757816382944e2d14610fba57816384169c2214610d7a5781638456cb5914610d0757816389a3027114610cc45781638fb3603714610c2e57816395d89b4114610b30578163a0712d6814610930578163a9059cbb14610900578163abaf7360146108a9578163acf9072f146107e3578163b5ddd0e8146107c7578163b807a2e614610764578163bf7e214f1461073d578163c0e58a0e14610659578163d0d1854d14610632578163d11a57ec14610617578163d5391393146105fc578163d5abeb01146105de578163db006a7514610312578163dd62ed3e146102c8578163e65bc3d3146102aa578163f0f4426014610214575063ffa32099146101ee575f80fd5b34610210575f36600319011261021057602090610209611c0d565b9051908152f35b5f80fd5b82346102105760203660031901126102105761022e611abe565b6102383633611db7565b6001600160a01b03809116801561029b577f4ab5be82436d353e61ca18726e984e561f5c1cc7c6d38b29d2553c790434705a9350600954918173ffffffffffffffffffffffffffffffffffffffff198416176009558351921682526020820152a1005b50505163d92e233d60e01b8152fd5b8234610210575f366003190112610210576020906008549051908152f35b82346102105780600319360112610210576020906102e4611abe565b6102ec611ad4565b906001600160a01b038091165f5260018452825f2091165f528252805f20549051908152f35b9050346102105760209182600319360112610210578135610331611f8c565b610339612022565b801561059957335f525f8452815f2054818110610565575061271061036561035f6121a6565b83611bfa565b046103708183611b5d565b937f00000000000000000000000000000000000000000000000000000000000000006001600160a01b039185516370a0823160e01b8152308282015288816024818787165afa90811561055b575f9161052e575b50858110610512575033156104fc57335f525f8852855f2054908582106104cd575091837fbac106664789786e9447ad88f3982270e2061a36e65e191da1d7707d87e284ff94928661047a95335f525f8c5203885f205586600254036002555f88518881527fddf252ad1be2c89b69c2b068fc378daa952ba7f163c4a11628f55a4df523b3ef8c3392a3886104bd575b816104a7575b505085519485525060208401869052604084015233929081906060820190565b0390a260017f9b779b17422d0df92223018b32b4d1fa46e071723d6817e2486d003becc55f005551908152f35b6104b592600954169061207c565b5f818161045a565b6104c889338361207c565b610454565b865163391434e360e21b81523391810191825260208201929092526040810186905281906060010390fd5b0390fd5b6024905f875191634b637e8f60e11b8352820152fd5b6044925085875192630722f6b360e11b84528301526024820152fd5b90508881813d8311610554575b6105458183611b1a565b8101031261021057515f6103c4565b503d61053b565b87513d5f823e3d90fd5b916044945051927fa17124f80000000000000000000000000000000000000000000000000000000084528301526024820152fd5b6104f883835191829163d647364f60e01b83528201606090602081526015602082015274416d6f756e742063616e6e6f74206265207a65726f60581b60408201520190565b8234610210575f366003190112610210576020906006549051908152f35b8234610210575f366003190112610210576020905160088152f35b8234610210575f366003190112610210576020905160098152f35b8234610210575f366003190112610210576020906001600160a01b03600a54169051908152f35b823461021057602036600319011261021057813591610676612022565b82156106f957506106a98230337f0000000000000000000000000000000000000000000000000000000000000000612127565b519081527f7c6f48495c72d5b2228accd3655fda52647c03e677ef8c5163b2ad142221d9dd60203392a260017f9b779b17422d0df92223018b32b4d1fa46e071723d6817e2486d003becc55f0055005b6104f8915191829163d647364f60e01b83528201606090602081526015602082015274416d6f756e742063616e6e6f74206265207a65726f60581b60408201520190565b8234610210575f366003190112610210576020906001600160a01b03600554169051908152f35b905034610210576020366003190112610210576001600160a01b03610787611abe565b6107913633611db7565b169182156107ba57600a805473ffffffffffffffffffffffffffffffffffffffff191684179055005b5163d92e233d60e01b8152fd5b8234610210575f366003190112610210576020906102096121a6565b8234610210575f366003190112610210578051916370a0823160e01b835230908301526020826024816001600160a01b037f0000000000000000000000000000000000000000000000000000000000000000165afa801561089f575f9061086c575b60025460209350808211156108635761020991611b5d565b51908152f35b50505f9061085d565b506020823d602011610897575b8161088660209383611b1a565b810103126102105760209151610845565b3d9150610879565b50513d5f823e3d90fd5b90503461021057602036600319011261021057356108fc6127106108d46108ce6121a6565b84611bfa565b04926108e08484611b5d565b9051938493846040919493926060820195825260208201520152565b0390f35b823461021057806003193601126102105760209061092961091f611abe565b6024359033611cc6565b5160018152f35b905034610210576020918260031936011261021057813561094f611f8c565b610957612022565b801561059957809260025461096c8382611b3c565b90600654809211610af35750507f00000000000000000000000000000000000000000000000000000000000000006001600160a01b038116918451916370a0823160e01b9081845230838501528884602481885afa93841561055b578993929187915f96610abb575b50602492916109e79130903390612127565b87519586938492835230908301525afa8015610ab1575f90610a82575b610a0e9250611b5d565b818110610a7a575b50610a218333611fc5565b815190815282848201527f2e8ac5177a616f2aec08c3048f5021e4e9743ece034e8d83ba5caf76688bb475823392a260017f9b779b17422d0df92223018b32b4d1fa46e071723d6817e2486d003becc55f005551908152f35b92505f610a16565b508582813d8311610aaa575b610a988183611b1a565b8101031261021057610a0e9151610a04565b503d610a8e565b84513d5f823e3d90fd5b9294839196508092503d8311610aec575b610ad68183611b1a565b81010312610210575192889290869060246109d5565b503d610acc565b610b006044948692611b3c565b9051927fea0582460000000000000000000000000000000000000000000000000000000084528301526024820152fd5b8234610210575f366003190112610210578051905f9280549060018260011c9160018416938415610c24575b6020948585108114610c1157848852908115610bef5750600114610b96575b6108fc8686610b8c828b0383611b1a565b5191829182611a77565b5f9081529295507f8a35acfbc15ff81a39ae7d344fd709f28e8600b4aa8c65c6b64bfe7fe36bd19b5b828410610bdc57505050826108fc94610b8c928201019486610b7b565b8054868501880152928601928101610bbf565b60ff191687860152505050151560051b8301019250610b8c826108fc86610b7b565b602283634e487b7160e01b5f525260245ffd5b92607f1692610b5c565b8234610210575f3660031901126102105760209060ff60055460a01c165f14610c9c577fffffffff000000000000000000000000000000000000000000000000000000007f8fb3603700000000000000000000000000000000000000000000000000000000915b5191168152f35b7fffffffff000000000000000000000000000000000000000000000000000000005f91610c95565b8234610210575f36600319011261021057602090516001600160a01b037f0000000000000000000000000000000000000000000000000000000000000000168152f35b8234610210575f3660031901126102105760207f62e78cea01bee320cd4e420270b5ea74000d11b0c9f74754ebdbfc544b05a25891610d463633611db7565b610d4e611f8c565b750100000000000000000000000000000000000000000060ff60a81b19600554161760055551338152a1005b905034610210578160031936011261021057803590610d97611ad4565b92610da23633611db7565b6001600160a01b0391828516948515610fab57845f5260209360078552835f2092600284019081549060ff8216610f7c57600186015462093a808101808211610f69574210610f34575090602494939291887f0000000000000000000000000000000000000000000000000000000000000000948951978880926370a0823160e01b8252308683015288165afa958615610f2a575f96610efb575b50865495868110610edf57600254610e558882611b3c565b8210610ea05750505060ff191660011790557f3dd4d219e5da8002a176de6de9686b5cb6b225750efed912b33b059990cd017b95949392610e9792909161207c565b549051908152a3005b60449350610eaf888b92611b3c565b9051927f207d7f300000000000000000000000000000000000000000000000000000000084528301526024820152fd5b6044925086895192630722f6b360e11b84528301526024820152fd5b9095508881813d8311610f23575b610f138183611b1a565b810103126102105751945f610e3d565b503d610f09565b88513d5f823e3d90fd5b604492508751917f311114e5000000000000000000000000000000000000000000000000000000008352820152426024820152fd5b601183634e487b7160e01b5f525260245ffd5b602490898851917f55cf91af000000000000000000000000000000000000000000000000000000008352820152fd5b50905163d92e233d60e01b8152fd5b8234610210575f366003190112610210576020905162093a808152f35b8234610210575f36600319011261021057602090517f00000000000000000000000000000000000000000000000000000000000000008152f35b82346102105760203660031901126102105761102b611abe565b91600554906001600160a01b039081831633036110c857843b15611096577f2f658b440c35314f52658ea8a740e05b284cdc84dc9ae01e891f21b8933e7cad602073ffffffffffffffffffffffffffffffffffffffff198686868a16928391161760055551908152a1005b91506024939251927fc2f31e5e0000000000000000000000000000000000000000000000000000000084521690820152fd5b60249084519062d1953b60e31b82523390820152fd5b823461021057602036600319011261021057608091355f5260076020526001600160a01b03815f2080549260026001830154920154918151948552602085015260ff821615159084015260081c166060820152f35b8234610210576020366003190112610210576020906001600160a01b03611158611abe565b165f525f8252805f20549051908152f35b82346102105760203660031901126102105781356111873633611db7565b60025481106111c8577f44ecfc706d63e347851cfd40acfa6cf2e3a41faa3e8b460210c03938e84a91ad9250600654908060065582519182526020820152a1005b608483602084519163d647364f60e01b8352820152602d60248201527f4d617820737570706c792063616e6e6f74206265206c657373207468616e206360448201527f757272656e7420737570706c79000000000000000000000000000000000000006064820152fd5b8234610210575f366003190112610210576020906001600160a01b03600954169051908152f35b8234610210575f3660031901126102105760209060ff60055460a81c1690519015158152f35b8234610210575f36600319011261021057602090516103e88152f35b8234610210576060366003190112610210576112b5611abe565b6024359060443567ffffffffffffffff9182821161021057366023830112156102105781860135928311610210573660248484010111610210576112f93633611db7565b611301611f8c565b611309612022565b6001600160a01b0380821696871561148e57851561144957602460207f0000000000000000000000000000000000000000000000000000000000000000938951928380926370a0823160e01b8252308783015287165afa908115610f2a575f91611417575b5060025461137c8882611b3c565b821061140857897f1344a12efcfaa7e07f4a90af0e8513bf4dede9b9f43a5f6496b28cd8e72cd19c8a60608b8b8060248d6113b8858f8f61207c565b828751978896875280602088015286015201848401375f828201840152601f01601f19168101030190a260017f9b779b17422d0df92223018b32b4d1fa46e071723d6817e2486d003becc55f0055005b60449350610eaf888a92611b3c565b90506020813d602011611441575b8161143260209383611b1a565b8101031261021057518961136e565b3d9150611425565b6104f890875191829163d647364f60e01b83528201606090602081526015602082015274416d6f756e742063616e6e6f74206265207a65726f60581b60408201520190565b865163d92e233d60e01b8152fd5b9050346102105781600319360112610210576114b6611abe565b91602435926114c53633611db7565b6114cd611f8c565b6001600160a01b03811692831561158c578415611547576002546114f18682611b3c565b9060065480921161153857857f2e8ac5177a616f2aec08c3048f5021e4e9743ece034e8d83ba5caf76688bb475868961152a8189611fc5565b8151905f82526020820152a2005b60449350610b00878692611b3c565b6104f890835191829163d647364f60e01b83528201606090602081526015602082015274416d6f756e742063616e6e6f74206265207a65726f60581b60408201520190565b825163d92e233d60e01b8152fd5b8234610210575f366003190112610210576115b53633611db7565b6005549160ff8360a81c16156115fb577f5db9ee0a495bf2e6ff9c91a7834c1ba4fdd244a5e8aa4e537bd38aeae4b073aa60208360ff60a81b19861660055551338152a1005b90517f8dfc202b000000000000000000000000000000000000000000000000000000008152fd5b8234610210575f366003190112610210576020905160128152f35b9050346102105760203660031901126102105780359161165d3633611db7565b821561174057600854915f19831461172d575060018201600855805161168281611aea565b838152602081014281526002838301925f84526060810192338452865f526007602052855f20915182555160018201550191511515907fffffffffffffffffffffff00000000000000000000000000000000000000000060ff74ffffffffffffffffffffffffffffffffffffffff008554935160081b169316911617179055519182527fe44db7717c26e0d0391f584290910dae108cfe03b0ea7f892eb81fd78fad814660203393a3005b601190634e487b7160e01b5f525260245ffd5b9160249251917f05a4a8e7000000000000000000000000000000000000000000000000000000008352820152fd5b90503461021057606036600319011261021057611789611abe565b611791611ad4565b90604435926001600160a01b038216805f526001602052855f20335f52602052855f2054915f1983106117cd575b602087610929888888611cc6565b85831061183557811561181f57331561180957505f908152600160209081528682203383528152908690209185900390915582906109296117bf565b6024905f885191634a1406b160e11b8352820152fd5b6024905f88519163e602df0560e01b8352820152fd5b86517ffb8f41b2000000000000000000000000000000000000000000000000000000008152339181019182526020820193909352604081018690528291506060010390fd5b8234610210575f3660031901126102105760209051600a8152f35b8234610210575f366003190112610210576020906002549051908152f35b905034610210576020366003190112610210576118d09035611b6a565b825191151582526020820152f35b82346102105780600319360112610210576118f7611abe565b602435903315611970576001600160a01b031690811561195a5760209350335f5260018452825f20825f52845280835f205582519081527f8c5be1e5ebec7d5bd14f71427d1e84f3dd0314c0f7b2291e5b200ac8c7c3b925843392a35160018152f35b6024845f855191634a1406b160e11b8352820152fd5b6024845f85519163e602df0560e01b8352820152fd5b8334610210575f366003190112610210575f9260035460018160011c91600181168015611a6d575b6020948585108214611a5a5750838752908115611a3a57506001146119e0575b505050610b8c826108fc940383611b1a565b60035f9081529295507fc2575a0e9e593c00f959f8c92f12db2869c3395a3b0502d05e2516446f71f85b5b828410611a2757505050826108fc94610b8c92820101946119ce565b8054868501880152928601928101611a0b565b60ff1916868501525050151560051b8301019250610b8c826108fc6119ce565b602290634e487b7160e01b5f525260245ffd5b92607f16926119ae565b602080825282518183018190529093925f5b828110611aaa57505060409293505f838284010152601f8019910116010190565b818101860151848201604001528501611a89565b600435906001600160a01b038216820361021057565b602435906001600160a01b038216820361021057565b6080810190811067ffffffffffffffff821117611b0657604052565b634e487b7160e01b5f52604160045260245ffd5b90601f8019910116810190811067ffffffffffffffff821117611b0657604052565b91908201809211611b4957565b634e487b7160e01b5f52601160045260245ffd5b91908203918211611b4957565b5f52600760205260405f20604051611b8181611aea565b815481526002600183015492836020840152015460ff8116159160606001600160a01b0384159384604085015260081c1691015290611bf2575b611beb5762093a808101809111611b4957428111611bdb57506001905f90565b90611be85f924290611b5d565b90565b505f905f90565b508015611bbb565b81810292918115918404141715611b4957565b6002548015611cbf576040516370a0823160e01b81523060048201526020816024816001600160a01b037f0000000000000000000000000000000000000000000000000000000000000000165afa908115611cb4575f91611c82575b5061271090818102918183041490151715611b49570490565b90506020813d602011611cac575b81611c9d60209383611b1a565b8101031261021057515f611c69565b3d9150611c90565b6040513d5f823e3d90fd5b5061271090565b916001600160a01b03808416928315611da05716928315611d7057825f525f60205260405f205490828210611d3e5750817fddf252ad1be2c89b69c2b068fc378daa952ba7f163c4a11628f55a4df523b3ef92602092855f525f84520360405f2055845f5260405f20818154019055604051908152a3565b60405163391434e360e21b81526001600160a01b03919091166004820152602481019190915260448101829052606490fd5b60246040517fec442f050000000000000000000000000000000000000000000000000000000081525f6004820152fd5b6024604051634b637e8f60e11b81525f6004820152fd5b600554916001600160a01b03918284169282600411610210575f925f60409485519360208501957fb700961300000000000000000000000000000000000000000000000000000000875216938460248201523060448201527fffffffff000000000000000000000000000000000000000000000000000000005f351660648201526064815260a0810167ffffffffffffffff9682821088831117611b065788925f9284528280528260205251908a5afa611f79575b15611e7b575b50505050505050565b63ffffffff1615611f6357740100000000000000000000000000000000000000007fffffffffffffffffffffff00ffffffffffffffffffffffffffffffffffffffff80971617600555843b15610210576064945f928386519788809581947f94c7d7ee00000000000000000000000000000000000000000000000000000000835260048301528960248301528060448301528084848401378181018301849052601f01601f191681010301925af18015611f5957611f4a575b505050600554166005555f808080808080611e72565b8211611b0657525f8080611f34565b82513d5f823e3d90fd5b60248285519062d1953b60e31b82526004820152fd5b50505f516020518060201c150290611e6c565b60ff60055460a81c16611f9b57565b60046040517fd93c0665000000000000000000000000000000000000000000000000000000008152fd5b6001600160a01b0316908115611d70577fddf252ad1be2c89b69c2b068fc378daa952ba7f163c4a11628f55a4df523b3ef6020826120065f94600254611b3c565b60025584845283825260408420818154019055604051908152a3565b7f9b779b17422d0df92223018b32b4d1fa46e071723d6817e2486d003becc55f0060028154146120525760029055565b60046040517f3ee5aeb5000000000000000000000000000000000000000000000000000000008152fd5b604051927fa9059cbb000000000000000000000000000000000000000000000000000000005f526001600160a01b0380931660045260245260205f60448180855af160015f5114811615612108575b83604052156120d957505050565b602493507f5274afe7000000000000000000000000000000000000000000000000000000008352166004820152fd5b600181151661211e57813b15153d1516166120cb565b833d5f823e3d90fd5b9092604051937f23b872dd000000000000000000000000000000000000000000000000000000005f526001600160a01b0393848092166004521660245260445260205f60648180855af160015f5114811615612190575b836040525f606052156120d957505050565b600181151661211e57813b15153d15161661217e565b6001600160a01b03600a541690604051917fa93ed1ba0000000000000000000000000000000000000000000000000000000083526020928381600481855afa8015611cb45784915f916122a0575b506044604051809481937f6a0629540000000000000000000000000000000000000000000000000000000083527f0000000000000000000000000000000000000000000000000000000000000000600484015260248301525afa928315611cb4575f93612270575b5050816103e880911161226c5750565b9150565b9080929350813d8311612299575b6122888183611b1a565b810103126102105751905f8061225c565b503d61227e565b82819392503d83116122c8575b6122b78183611b1a565b81010312610210578390515f6121f4565b503d6122ad56fea2646970667358221220ff24b92f2a1334f4b49f0a0b5616298275c577aa98355a7d5bd3d4dfff5fbe9e64736f6c63430008180033","linkReferences":{}},"methodIdentifiers":{"EMERGENCY_DELAY()":"82944e2d","EMERGENCY_ROLE()":"20df4359","MAX_REDEMPTION_FEE()":"5abd98db","MINTER_ROLE()":"d5391393","TREASURY_ROLE()":"d11a57ec","USDC()":"89a30271","allowance(address,address)":"dd62ed3e","approve(address,uint256)":"095ea7b3","authority()":"bf7e214f","balanceOf(address)":"70a08231","calculateRedemption(uint256)":"abaf7360","communityId()":"7f50861a","decimals()":"313ce567","depositToTreasury(uint256)":"c0e58a0e","emergencyWithdrawalCount()":"e65bc3d3","emergencyWithdrawals(uint256)":"719487ff","executeEmergencyWithdrawal(uint256,address)":"84169c22","getAvailableTreasuryBalance()":"acf9072f","getBackingRatio()":"ffa32099","getEffectiveRedemptionFee()":"b5ddd0e8","isConsumingScheduledOp()":"8fb36037","isEmergencyWithdrawalReady(uint256)":"0d7b7fb2","maxSupply()":"d5abeb01","mint(uint256)":"a0712d68","mintTo(address,uint256)":"449a52f8","name()":"06fdde03","paramController()":"d0d1854d","pause()":"8456cb59","paused()":"5c975abb","redeem(uint256)":"db006a75","requestEmergencyWithdrawal(uint256)":"23c7b49c","setAuthority(address)":"7a9e5e4b","setMaxSupply(uint256)":"6f8b44b0","setParamController(address)":"b807a2e6","setTreasury(address)":"f0f44260","symbol()":"95d89b41","totalSupply()":"18160ddd","transfer(address,uint256)":"a9059cbb","transferFrom(address,address,uint256)":"23b872dd","treasury()":"61d027b3","unpause()":"3f4ba83a","withdrawFromTreasury(address,uint256,string)":"4e3cbff8"},"id":43}