{"abi":[{"type":"constructor","inputs":[{"name":"manager","type":"address","internalType":"address"},{"name":"_communityId","type":"uint256","internalType":"uint256"}],"stateMutability":"nonpayable"},{"type":"function","name":"activeDisputeFor","inputs":[{"name":"","type":"uint8","internalType":"enum CommerceDisputes.DisputeType"},{"name":"","type":"uint256","internalType":"uint256"}],"outputs":[{"name":"","type":"uint256","internalType":"uint256"}],"stateMutability":"view"},{"type":"function","name":"authority","inputs":[],"outputs":[{"name":"","type":"address","internalType":"address"}],"stateMutability":"view"},{"type":"function","name":"cancelDispute","inputs":[{"name":"disputeId","type":"uint256","internalType":"uint256"}],"outputs":[],"stateMutability":"nonpayable"},{"type":"function","name":"communityId","inputs":[],"outputs":[{"name":"","type":"uint256","internalType":"uint256"}],"stateMutability":"view"},{"type":"function","name":"disputeReceiver","inputs":[],"outputs":[{"name":"","type":"address","internalType":"address"}],"stateMutability":"view"},{"type":"function","name":"disputes","inputs":[{"name":"","type":"uint256","internalType":"uint256"}],"outputs":[{"name":"disputeId","type":"uint256","internalType":"uint256"},{"name":"disputeType","type":"uint8","internalType":"enum CommerceDisputes.DisputeType"},{"name":"relatedId","type":"uint256","internalType":"uint256"},{"name":"buyer","type":"address","internalType":"address"},{"name":"seller","type":"address","internalType":"address"},{"name":"amount","type":"uint256","internalType":"uint256"},{"name":"evidenceURI","type":"string","internalType":"string"},{"name":"outcome","type":"uint8","internalType":"enum CommerceDisputes.DisputeOutcome"},{"name":"status","type":"uint8","internalType":"enum CommerceDisputes.DisputeStatus"},{"name":"createdAt","type":"uint64","internalType":"uint64"},{"name":"resolvedAt","type":"uint64","internalType":"uint64"}],"stateMutability":"view"},{"type":"function","name":"finalizeDispute","inputs":[{"name":"disputeId","type":"uint256","internalType":"uint256"},{"name":"outcome","type":"uint8","internalType":"enum CommerceDisputes.DisputeOutcome"}],"outputs":[],"stateMutability":"nonpayable"},{"type":"function","name":"getDispute","inputs":[{"name":"disputeId","type":"uint256","internalType":"uint256"}],"outputs":[{"name":"","type":"tuple","internalType":"struct CommerceDisputes.Dispute","components":[{"name":"disputeId","type":"uint256","internalType":"uint256"},{"name":"disputeType","type":"uint8","internalType":"enum CommerceDisputes.DisputeType"},{"name":"relatedId","type":"uint256","internalType":"uint256"},{"name":"buyer","type":"address","internalType":"address"},{"name":"seller","type":"address","internalType":"address"},{"name":"amount","type":"uint256","internalType":"uint256"},{"name":"evidenceURI","type":"string","internalType":"string"},{"name":"outcome","type":"uint8","internalType":"enum CommerceDisputes.DisputeOutcome"},{"name":"status","type":"uint8","internalType":"enum CommerceDisputes.DisputeStatus"},{"name":"createdAt","type":"uint64","internalType":"uint64"},{"name":"resolvedAt","type":"uint64","internalType":"uint64"}]}],"stateMutability":"view"},{"type":"function","name":"hasActiveDispute","inputs":[{"name":"disputeType","type":"uint8","internalType":"enum CommerceDisputes.DisputeType"},{"name":"relatedId","type":"uint256","internalType":"uint256"}],"outputs":[{"name":"","type":"bool","internalType":"bool"}],"stateMutability":"view"},{"type":"function","name":"isConsumingScheduledOp","inputs":[],"outputs":[{"name":"","type":"bytes4","internalType":"bytes4"}],"stateMutability":"view"},{"type":"function","name":"nextDisputeId","inputs":[],"outputs":[{"name":"","type":"uint256","internalType":"uint256"}],"stateMutability":"view"},{"type":"function","name":"openDispute","inputs":[{"name":"disputeType","type":"uint8","internalType":"enum CommerceDisputes.DisputeType"},{"name":"relatedId","type":"uint256","internalType":"uint256"},{"name":"buyer","type":"address","internalType":"address"},{"name":"seller","type":"address","internalType":"address"},{"name":"amount","type":"uint256","internalType":"uint256"},{"name":"evidenceURI","type":"string","internalType":"string"}],"outputs":[{"name":"disputeId","type":"uint256","internalType":"uint256"}],"stateMutability":"nonpayable"},{"type":"function","name":"setAuthority","inputs":[{"name":"newAuthority","type":"address","internalType":"address"}],"outputs":[],"stateMutability":"nonpayable"},{"type":"function","name":"setDisputeReceiver","inputs":[{"name":"receiver","type":"address","internalType":"address"}],"outputs":[],"stateMutability":"nonpayable"},{"type":"event","name":"AuthorityUpdated","inputs":[{"name":"authority","type":"address","indexed":false,"internalType":"address"}],"anonymous":false},{"type":"event","name":"DisputeCancelled","inputs":[{"name":"disputeId","type":"uint256","indexed":true,"internalType":"uint256"}],"anonymous":false},{"type":"event","name":"DisputeOpened","inputs":[{"name":"disputeId","type":"uint256","indexed":true,"internalType":"uint256"},{"name":"disputeType","type":"uint8","indexed":true,"internalType":"enum CommerceDisputes.DisputeType"},{"name":"relatedId","type":"uint256","indexed":true,"internalType":"uint256"},{"name":"communityId","type":"uint256","indexed":false,"internalType":"uint256"},{"name":"buyer","type":"address","indexed":false,"internalType":"address"},{"name":"seller","type":"address","indexed":false,"internalType":"address"},{"name":"amount","type":"uint256","indexed":false,"internalType":"uint256"}],"anonymous":false},{"type":"event","name":"DisputeReceiverUpdated","inputs":[{"name":"oldReceiver","type":"address","indexed":true,"internalType":"address"},{"name":"newReceiver","type":"address","indexed":true,"internalType":"address"}],"anonymous":false},{"type":"event","name":"DisputeResolved","inputs":[{"name":"disputeId","type":"uint256","indexed":true,"internalType":"uint256"},{"name":"disputeType","type":"uint8","indexed":false,"internalType":"enum CommerceDisputes.DisputeType"},{"name":"relatedId","type":"uint256","indexed":false,"internalType":"uint256"},{"name":"outcome","type":"uint8","indexed":false,"internalType":"enum CommerceDisputes.DisputeOutcome"}],"anonymous":false},{"type":"error","name":"AccessManagedInvalidAuthority","inputs":[{"name":"authority","type":"address","internalType":"address"}]},{"type":"error","name":"AccessManagedRequiredDelay","inputs":[{"name":"caller","type":"address","internalType":"address"},{"name":"delay","type":"uint32","internalType":"uint32"}]},{"type":"error","name":"AccessManagedUnauthorized","inputs":[{"name":"caller","type":"address","internalType":"address"}]},{"type":"error","name":"DisputeAlreadyExists","inputs":[{"name":"existingDisputeId","type":"uint256","internalType":"uint256"}]},{"type":"error","name":"DisputeNotFound","inputs":[{"name":"disputeId","type":"uint256","internalType":"uint256"}]},{"type":"error","name":"DisputeNotOpen","inputs":[{"name":"disputeId","type":"uint256","internalType":"uint256"}]},{"type":"error","name":"InvalidInput","inputs":[{"name":"reason","type":"string","internalType":"string"}]},{"type":"error","name":"InvalidOutcome","inputs":[]},{"type":"error","name":"NoReceiver","inputs":[]},{"type":"error","name":"ZeroAddress","inputs":[]}],"bytecode":{"object":"0x60a034610118576113f590601f38839003908101601f19168201906001600160401b0382118383101761011c57808391604095869485528339810103126101185780516001600160a01b03811691908290036101185760200151908060018060a01b03195f5416175f557f2f658b440c35314f52658ea8a740e05b284cdc84dc9ae01e891f21b8933e7cad60208451838152a16001600255156101075780156100c257608052516112c4908161013182396080518181816109cd0152610c280152f35b815163d647364f60e01b815260206004820152601b60248201527f436f6d6d756e6974792049442063616e6e6f74206265207a65726f00000000006044820152606490fd5b815163d92e233d60e01b8152600490fd5b5f80fd5b634e487b7160e01b5f52604160045260245ffdfe6080806040526004361015610012575f80fd5b5f905f3560e01c90816301251da014610ea5575080630db3993414610e885780633a57c80b14610e2f578063526aa76c14610e02578063564a565d14610d155780637a9e5e4b14610c4b5780637f50861a14610c115780638fb3603714610b9e578063be11f1ac14610679578063bf7e214f14610654578063cab5a035146105dd578063d9e786ab146103b7578063df02935c146102a75763e3a96cbd146100b8575f80fd5b346102a45760203660031901126102a4578060409161014083516100db81610f36565b82815282602082015282858201528260608201528260808201528260a0820152606060c08201528260e082015282610100820152826101208201520152600435815260016020522067ffffffffffffffff60076040519261013b84610f36565b8054845261015360ff600183015416602086016110ae565b600281015460408501526001600160a01b0360038201541660608501526001600160a01b036004820154166080850152600581015460a085015261019960068201610f89565b60c0850152015460ff81166101ad81611076565b60e084015260ff8160081c166101c281611076565b610100840152818160101c1661012084015260501c16610140820152604051809160208252805160208301526102006020820151604084019061102b565b604081015160608301526001600160a01b0360608201511660808301526001600160a01b0360808201511660a083015260a081015160c083015260c081015167ffffffffffffffff610140610263610160938460e0880152610180870190611038565b9360e081015161027281611076565b61010087015261010081015161028781611076565b610120870152826101208201511682870152015116908301520390f35b80fd5b50346102a45760203660031901126102a4576004356102c636336110ba565b8082526001602052604082208054156103865760078101805460ff8160081c166102ef81611076565b61036e5771ffffffffffffffff0000000000000000ff0019164260501b71ffffffffffffffff000000000000000000001617610200179055600261033960ff600184015416610ee7565b91015483526020528160408120557f7fe0314ddd8432eac273e729cc289f5a8f8a7860761b74472f4782fbaccd2c5f8280a280f35b602484604051906303dc1ed360e31b82526004820152fd5b602482604051907f4294e0f70000000000000000000000000000000000000000000000000000000082526004820152fd5b5034610566576040366003190112610566576024356004356003821015610566576103e236336110ba565b805f52600160205260405f2080541561038657600781019060ff825460081c1661040b81611076565b6105c55761041884611076565b831561059b5760607f59dce9fc667900fd114532df6d472fff85d115c184757820fca4218d5cf0a9e19161048984610451888897611096565b805471ffffffffffffffff0000000000000000ff0019164260501b71ffffffffffffffff000000000000000000001617610100179055565b60ff60018201600261049d83835416610ee7565b93019283545f526020525f6040812055541690546104be604051809361102b565b60208201526104cc86611076565b856040820152a26001600160a01b036003541691821561057157806104f2600192611076565b0361056a5760015b823b156105665760445f928360ff9560405196879586947fa01371f500000000000000000000000000000000000000000000000000000000865260048601521660248401525af1801561055b5761054f575080f35b6105599150610f53565b005b6040513d5f823e3d90fd5b5f80fd5b60026104fa565b60046040517fc8721389000000000000000000000000000000000000000000000000000000008152fd5b60046040517fc74a206d000000000000000000000000000000000000000000000000000000008152fd5b602483604051906303dc1ed360e31b82526004820152fd5b34610566576020366003190112610566576105f6611080565b61060036336110ba565b600354906001600160a01b03809116918273ffffffffffffffffffffffffffffffffffffffff19821617600355167f915a392a694b39e45424a7afc4f5613c136e9ee3b9d2d8905d4dd7fc7dfca1d15f80a3005b34610566575f3660031901126105665760206001600160a01b035f5416604051908152f35b346105665760c03660031901126105665760026004351015610566576044356001600160a01b038116810361056657606435906001600160a01b03821682036105665767ffffffffffffffff60a435116105665736602360a4350112156105665767ffffffffffffffff60a43560040135116105665736602460a4356004013560a4350101116105665761070d36336110ba565b610718600435610ee7565b6024355f5260205260405f205480151580610b78575b610b475750600254905f198214610b3357600182016002556040519261075384610f36565b828452610765600435602086016110ae565b60243560408501526001600160a01b03821660608501526001600160a01b038116608085015260843560a08501526040516107b06020601f19601f60a4356004013501160182610f67565b60a43560048101358083529060240160208301375f602060a435600401358301015260c08501525f60e08501525f61010085015267ffffffffffffffff42166101208501525f610140850152825f52600160205260405f2093805185556001850160208201516002811015610b1f5760ff8019835416911617905560408101516002860155600385016001600160a01b036060830151169073ffffffffffffffffffffffffffffffffffffffff19918282541617905560048601906001600160a01b036080840151169082541617905560a0810151600586015560c081015194855167ffffffffffffffff8111610b0b576108ae6006830154610efe565b96601f8811610ac7575b602097508790601f8311600114610a415760076109ae94846001600160a01b0398979567ffffffffffffffff95610140955f92610a36575b50508160011b915f199060031b1c19161760068201555b019261092060e082015161091a81611076565b85611096565b61010081015161092f81611076565b61093881611076565b845461ff0069ffffffffffffffff000061012085015160101b169260081b169069ffffffffffffffffff001916171784550151167fffffffffffffffffffffffffffff0000000000000000ffffffffffffffffffff71ffffffffffffffff0000000000000000000083549260501b169116179055565b6109b9600435610ee7565b6024355f5285528360405f205581604051937f000000000000000000000000000000000000000000000000000000000000000085521685840152166040820152608435606082015260243590827fd8d381df4e8c12b89b6902f6d7c11e8dbd9ab3ba29c5266bd95aa9d92215693e608060043593a4604051908152f35b015190508d806108f0565b90600684015f52885f20915f5b601f1985168110610ab057506109ae9460018567ffffffffffffffff95610140956007956001600160a01b039c9b99601f19811610610a98575b505050811b016006820155610907565b01515f1960f88460031b161c191690558d8080610a88565b91928a600181928685015181550194019201610a4e565b600683015f5260205f20601f830160051c810160208410610b04575b601f8a0160051c82018110610af95750506108b8565b5f8155600101610ae3565b5080610ae3565b634e487b7160e01b5f52604160045260245ffd5b634e487b7160e01b5f52602160045260245ffd5b634e487b7160e01b5f52601160045260245ffd5b602490604051907fb40fec210000000000000000000000000000000000000000000000000000000082526004820152fd5b50805f52600160205260ff600760405f20015460081c16610b9881611076565b1561072e565b34610566575f366003190112610566575f5460a01c60ff1615610c095760207f8fb36037000000000000000000000000000000000000000000000000000000005b7fffffffff0000000000000000000000000000000000000000000000000000000060405191168152f35b60205f610bdf565b34610566575f3660031901126105665760206040517f00000000000000000000000000000000000000000000000000000000000000008152f35b3461056657602036600319011261056657610c64611080565b5f54906001600160a01b03908183163303610cff57803b15610ccd577f2f658b440c35314f52658ea8a740e05b284cdc84dc9ae01e891f21b8933e7cad9260209273ffffffffffffffffffffffffffffffffffffffff19921691829116175f55604051908152a1005b602491604051917fc2f31e5e000000000000000000000000000000000000000000000000000000008352166004820152fd5b602460405162d1953b60e31b8152336004820152fd5b34610566576020366003190112610566576004355f52600160205260405f20602081549160ff600182015416926002820154906001600160a01b03610dca8160038601541691600486015416946005810154936007610d7660068401610f89565b9201549460ff86169760ff8760081c169567ffffffffffffffff98610da86040519d8e9d8e610160988152019061102b565b60408c015260608b015260808a015260a08901528060c0890152870190611038565b93610dd481611076565b60e0860152610de281611076565b610100850152818160101c1661012085015260501c166101408301520390f35b3461056657610e1a610e1336610ec8565b9190610ee7565b905f52602052602060405f2054604051908152f35b3461056657610e40610e1336610ec8565b905f5260205260405f205480151580610e61575b6020906040519015158152f35b505f526001602052602060ff600760405f20015460081c16610e8281611076565b15610e54565b34610566575f366003190112610566576020600254604051908152f35b34610566575f366003190112610566576020906001600160a01b03600354168152f35b6040906003190112610566576004356002811015610566579060243590565b6002811015610b1f575f52600460205260405f2090565b90600182811c92168015610f2c575b6020831014610f1857565b634e487b7160e01b5f52602260045260245ffd5b91607f1691610f0d565b610160810190811067ffffffffffffffff821117610b0b57604052565b67ffffffffffffffff8111610b0b57604052565b90601f8019910116810190811067ffffffffffffffff821117610b0b57604052565b9060405191825f8254610f9b81610efe565b908184526020946001916001811690815f146110095750600114610fcb575b505050610fc992500383610f67565b565b5f90815285812095935091905b818310610ff1575050610fc993508201015f8080610fba565b85548884018501529485019487945091830191610fd8565b92505050610fc994925060ff191682840152151560051b8201015f8080610fba565b906002821015610b1f5752565b91908251928382525f5b848110611062575050825f602080949584010152601f8019910116010190565b602081830181015184830182015201611042565b60031115610b1f57565b600435906001600160a01b038216820361056657565b906110a081611076565b60ff80198354169116179055565b6002821015610b1f5752565b5f915f54916001600160a01b03908184169280600411610566575f8060409485519060208201957fb700961300000000000000000000000000000000000000000000000000000000875216948560248301523060448301527fffffffff000000000000000000000000000000000000000000000000000000005f351660648301526064825260a082019082821067ffffffffffffffff831117610b0b5787925f928452828052826020525190895afa61127b575b1561117d575b50505050505050565b63ffffffff161561126557740100000000000000000000000000000000000000007fffffffffffffffffffffff00ffffffffffffffffffffffffffffffffffffffff809616175f55833b15610566576064935f928385519687809581947f94c7d7ee00000000000000000000000000000000000000000000000000000000835260048301528860248301528060448301528084848401378181018301849052601f01601f191681010301925af190811561125c5750611249575b5081541690555f808080808080611174565b611254919250610f53565b5f905f611237565b513d5f823e3d90fd5b50602491519062d1953b60e31b82526004820152fd5b50505f516020518060201c15029061116e56fea2646970667358221220f7df9a16c2272271c8da9caa6a7b99bac44d0de90152448ec3b6ef8d76eb686a64736f6c63430008180033","linkReferences":{}},"methodIdentifiers":{"activeDisputeFor(uint8,uint256)":"526aa76c","authority()":"bf7e214f","cancelDispute(uint256)":"df02935c","communityId()":"7f50861a","disputeReceiver()":"01251da0","disputes(uint256)":"564a565d","finalizeDispute(uint256,uint8)":"d9e786ab","getDispute(uint256)":"e3a96cbd","hasActiveDispute(uint8,uint256)":"3a57c80b","isConsumingScheduledOp()":"8fb36037","nextDisputeId()":"0db39934","openDispute(uint8,uint256,address,address,uint256,string)":"be11f1ac","setAuthority(address)":"7a9e5e4b","setDisputeReceiver(address)":"cab5a035"},"id":13}