{
  "_format": "hh-sol-artifact-1",
  "contractName": "CommerceDisputes",
  "sourceName": "contracts/modules/CommerceDisputes.sol",
  "abi": [
    {
      "inputs": [
        {
          "internalType": "address",
          "name": "manager",
          "type": "address"
        },
        {
          "internalType": "uint256",
          "name": "_communityId",
          "type": "uint256"
        }
      ],
      "stateMutability": "nonpayable",
      "type": "constructor"
    },
    {
      "inputs": [
        {
          "internalType": "address",
          "name": "authority",
          "type": "address"
        }
      ],
      "name": "AccessManagedInvalidAuthority",
      "type": "error"
    },
    {
      "inputs": [
        {
          "internalType": "address",
          "name": "caller",
          "type": "address"
        },
        {
          "internalType": "uint32",
          "name": "delay",
          "type": "uint32"
        }
      ],
      "name": "AccessManagedRequiredDelay",
      "type": "error"
    },
    {
      "inputs": [
        {
          "internalType": "address",
          "name": "caller",
          "type": "address"
        }
      ],
      "name": "AccessManagedUnauthorized",
      "type": "error"
    },
    {
      "inputs": [
        {
          "internalType": "uint256",
          "name": "existingDisputeId",
          "type": "uint256"
        }
      ],
      "name": "DisputeAlreadyExists",
      "type": "error"
    },
    {
      "inputs": [
        {
          "internalType": "uint256",
          "name": "disputeId",
          "type": "uint256"
        }
      ],
      "name": "DisputeNotFound",
      "type": "error"
    },
    {
      "inputs": [
        {
          "internalType": "uint256",
          "name": "disputeId",
          "type": "uint256"
        }
      ],
      "name": "DisputeNotOpen",
      "type": "error"
    },
    {
      "inputs": [
        {
          "internalType": "string",
          "name": "reason",
          "type": "string"
        }
      ],
      "name": "InvalidInput",
      "type": "error"
    },
    {
      "inputs": [],
      "name": "InvalidOutcome",
      "type": "error"
    },
    {
      "inputs": [],
      "name": "NoReceiver",
      "type": "error"
    },
    {
      "inputs": [],
      "name": "ZeroAddress",
      "type": "error"
    },
    {
      "anonymous": false,
      "inputs": [
        {
          "indexed": false,
          "internalType": "address",
          "name": "authority",
          "type": "address"
        }
      ],
      "name": "AuthorityUpdated",
      "type": "event"
    },
    {
      "anonymous": false,
      "inputs": [
        {
          "indexed": true,
          "internalType": "uint256",
          "name": "disputeId",
          "type": "uint256"
        }
      ],
      "name": "DisputeCancelled",
      "type": "event"
    },
    {
      "anonymous": false,
      "inputs": [
        {
          "indexed": true,
          "internalType": "uint256",
          "name": "disputeId",
          "type": "uint256"
        },
        {
          "indexed": true,
          "internalType": "enum CommerceDisputes.DisputeType",
          "name": "disputeType",
          "type": "uint8"
        },
        {
          "indexed": true,
          "internalType": "uint256",
          "name": "relatedId",
          "type": "uint256"
        },
        {
          "indexed": false,
          "internalType": "uint256",
          "name": "communityId",
          "type": "uint256"
        },
        {
          "indexed": false,
          "internalType": "address",
          "name": "buyer",
          "type": "address"
        },
        {
          "indexed": false,
          "internalType": "address",
          "name": "seller",
          "type": "address"
        },
        {
          "indexed": false,
          "internalType": "uint256",
          "name": "amount",
          "type": "uint256"
        }
      ],
      "name": "DisputeOpened",
      "type": "event"
    },
    {
      "anonymous": false,
      "inputs": [
        {
          "indexed": true,
          "internalType": "address",
          "name": "oldReceiver",
          "type": "address"
        },
        {
          "indexed": true,
          "internalType": "address",
          "name": "newReceiver",
          "type": "address"
        }
      ],
      "name": "DisputeReceiverUpdated",
      "type": "event"
    },
    {
      "anonymous": false,
      "inputs": [
        {
          "indexed": true,
          "internalType": "uint256",
          "name": "disputeId",
          "type": "uint256"
        },
        {
          "indexed": false,
          "internalType": "enum CommerceDisputes.DisputeType",
          "name": "disputeType",
          "type": "uint8"
        },
        {
          "indexed": false,
          "internalType": "uint256",
          "name": "relatedId",
          "type": "uint256"
        },
        {
          "indexed": false,
          "internalType": "enum CommerceDisputes.DisputeOutcome",
          "name": "outcome",
          "type": "uint8"
        }
      ],
      "name": "DisputeResolved",
      "type": "event"
    },
    {
      "inputs": [
        {
          "internalType": "enum CommerceDisputes.DisputeType",
          "name": "",
          "type": "uint8"
        },
        {
          "internalType": "uint256",
          "name": "",
          "type": "uint256"
        }
      ],
      "name": "activeDisputeFor",
      "outputs": [
        {
          "internalType": "uint256",
          "name": "",
          "type": "uint256"
        }
      ],
      "stateMutability": "view",
      "type": "function"
    },
    {
      "inputs": [],
      "name": "authority",
      "outputs": [
        {
          "internalType": "address",
          "name": "",
          "type": "address"
        }
      ],
      "stateMutability": "view",
      "type": "function"
    },
    {
      "inputs": [
        {
          "internalType": "uint256",
          "name": "disputeId",
          "type": "uint256"
        }
      ],
      "name": "cancelDispute",
      "outputs": [],
      "stateMutability": "nonpayable",
      "type": "function"
    },
    {
      "inputs": [],
      "name": "communityId",
      "outputs": [
        {
          "internalType": "uint256",
          "name": "",
          "type": "uint256"
        }
      ],
      "stateMutability": "view",
      "type": "function"
    },
    {
      "inputs": [],
      "name": "disputeReceiver",
      "outputs": [
        {
          "internalType": "address",
          "name": "",
          "type": "address"
        }
      ],
      "stateMutability": "view",
      "type": "function"
    },
    {
      "inputs": [
        {
          "internalType": "uint256",
          "name": "",
          "type": "uint256"
        }
      ],
      "name": "disputes",
      "outputs": [
        {
          "internalType": "uint256",
          "name": "disputeId",
          "type": "uint256"
        },
        {
          "internalType": "enum CommerceDisputes.DisputeType",
          "name": "disputeType",
          "type": "uint8"
        },
        {
          "internalType": "uint256",
          "name": "relatedId",
          "type": "uint256"
        },
        {
          "internalType": "address",
          "name": "buyer",
          "type": "address"
        },
        {
          "internalType": "address",
          "name": "seller",
          "type": "address"
        },
        {
          "internalType": "uint256",
          "name": "amount",
          "type": "uint256"
        },
        {
          "internalType": "string",
          "name": "evidenceURI",
          "type": "string"
        },
        {
          "internalType": "enum CommerceDisputes.DisputeOutcome",
          "name": "outcome",
          "type": "uint8"
        },
        {
          "internalType": "enum CommerceDisputes.DisputeStatus",
          "name": "status",
          "type": "uint8"
        },
        {
          "internalType": "uint64",
          "name": "createdAt",
          "type": "uint64"
        },
        {
          "internalType": "uint64",
          "name": "resolvedAt",
          "type": "uint64"
        }
      ],
      "stateMutability": "view",
      "type": "function"
    },
    {
      "inputs": [
        {
          "internalType": "uint256",
          "name": "disputeId",
          "type": "uint256"
        },
        {
          "internalType": "enum CommerceDisputes.DisputeOutcome",
          "name": "outcome",
          "type": "uint8"
        }
      ],
      "name": "finalizeDispute",
      "outputs": [],
      "stateMutability": "nonpayable",
      "type": "function"
    },
    {
      "inputs": [
        {
          "internalType": "uint256",
          "name": "disputeId",
          "type": "uint256"
        }
      ],
      "name": "getDispute",
      "outputs": [
        {
          "components": [
            {
              "internalType": "uint256",
              "name": "disputeId",
              "type": "uint256"
            },
            {
              "internalType": "enum CommerceDisputes.DisputeType",
              "name": "disputeType",
              "type": "uint8"
            },
            {
              "internalType": "uint256",
              "name": "relatedId",
              "type": "uint256"
            },
            {
              "internalType": "address",
              "name": "buyer",
              "type": "address"
            },
            {
              "internalType": "address",
              "name": "seller",
              "type": "address"
            },
            {
              "internalType": "uint256",
              "name": "amount",
              "type": "uint256"
            },
            {
              "internalType": "string",
              "name": "evidenceURI",
              "type": "string"
            },
            {
              "internalType": "enum CommerceDisputes.DisputeOutcome",
              "name": "outcome",
              "type": "uint8"
            },
            {
              "internalType": "enum CommerceDisputes.DisputeStatus",
              "name": "status",
              "type": "uint8"
            },
            {
              "internalType": "uint64",
              "name": "createdAt",
              "type": "uint64"
            },
            {
              "internalType": "uint64",
              "name": "resolvedAt",
              "type": "uint64"
            }
          ],
          "internalType": "struct CommerceDisputes.Dispute",
          "name": "",
          "type": "tuple"
        }
      ],
      "stateMutability": "view",
      "type": "function"
    },
    {
      "inputs": [
        {
          "internalType": "enum CommerceDisputes.DisputeType",
          "name": "disputeType",
          "type": "uint8"
        },
        {
          "internalType": "uint256",
          "name": "relatedId",
          "type": "uint256"
        }
      ],
      "name": "hasActiveDispute",
      "outputs": [
        {
          "internalType": "bool",
          "name": "",
          "type": "bool"
        }
      ],
      "stateMutability": "view",
      "type": "function"
    },
    {
      "inputs": [],
      "name": "isConsumingScheduledOp",
      "outputs": [
        {
          "internalType": "bytes4",
          "name": "",
          "type": "bytes4"
        }
      ],
      "stateMutability": "view",
      "type": "function"
    },
    {
      "inputs": [],
      "name": "nextDisputeId",
      "outputs": [
        {
          "internalType": "uint256",
          "name": "",
          "type": "uint256"
        }
      ],
      "stateMutability": "view",
      "type": "function"
    },
    {
      "inputs": [
        {
          "internalType": "enum CommerceDisputes.DisputeType",
          "name": "disputeType",
          "type": "uint8"
        },
        {
          "internalType": "uint256",
          "name": "relatedId",
          "type": "uint256"
        },
        {
          "internalType": "address",
          "name": "buyer",
          "type": "address"
        },
        {
          "internalType": "address",
          "name": "seller",
          "type": "address"
        },
        {
          "internalType": "uint256",
          "name": "amount",
          "type": "uint256"
        },
        {
          "internalType": "string",
          "name": "evidenceURI",
          "type": "string"
        }
      ],
      "name": "openDispute",
      "outputs": [
        {
          "internalType": "uint256",
          "name": "disputeId",
          "type": "uint256"
        }
      ],
      "stateMutability": "nonpayable",
      "type": "function"
    },
    {
      "inputs": [
        {
          "internalType": "address",
          "name": "newAuthority",
          "type": "address"
        }
      ],
      "name": "setAuthority",
      "outputs": [],
      "stateMutability": "nonpayable",
      "type": "function"
    },
    {
      "inputs": [
        {
          "internalType": "address",
          "name": "receiver",
          "type": "address"
        }
      ],
      "name": "setDisputeReceiver",
      "outputs": [],
      "stateMutability": "nonpayable",
      "type": "function"
    }
  ],
  "bytecode": "0x60a0346101185761125c90601f38839003908101601f19168201906001600160401b0382118383101761011c57808391604095869485528339810103126101185780516001600160a01b03811691908290036101185760200151908060018060a01b03195f5416175f557f2f658b440c35314f52658ea8a740e05b284cdc84dc9ae01e891f21b8933e7cad60208451838152a16001600255156101075780156100c2576080525161112b908161013182396080518181816109160152610b2c0152f35b815163d647364f60e01b815260206004820152601b60248201527f436f6d6d756e6974792049442063616e6e6f74206265207a65726f00000000006044820152606490fd5b815163d92e233d60e01b8152600490fd5b5f80fd5b634e487b7160e01b5f52604160045260245ffdfe6080806040526004361015610012575f80fd5b5f905f3560e01c90816301251da014610d88575080630db3993414610d6b5780633a57c80b14610d12578063526aa76c14610ce5578063564a565d14610bfa5780637a9e5e4b14610b4f5780637f50861a14610b155780638fb3603714610ad2578063be11f1ac146105f8578063bf7e214f146105d1578063cab5a03514610566578063d9e786ab1461038f578063df02935c1461029d5763e3a96cbd146100b8575f80fd5b3461029a57602036600319011261029a578060409161014083516100db81610e19565b82815282602082015282858201528260608201528260808201528260a0820152606060c08201528260e08201528261010082015282610120820152015260043581526001602052206001600160401b0360076040519261013a84610e19565b8054845261015260ff60018301541660208601610f8e565b6002810154604085015260038101546001600160a01b0390811660608601526004820154166080850152600581015460a085015261019260068201610e69565b60c0850152015460ff81166101a681610f56565b60e084015260ff8160081c166101bb81610f56565b610100840152818160101c1661012084015260501c16610140820152604051809160208252805160208301526101f960208201516040840190610f0b565b6040810151606083015260018060a01b03606082015116608083015260018060a01b0360808201511660a083015260a081015160c083015260c08101516001600160401b03610140610259610160938460e0880152610180870190610f18565b9360e081015161026881610f56565b61010087015261010081015161027d81610f56565b610120870152826101208201511682870152015116908301520390f35b80fd5b503461029a57602036600319011261029a576004356102bc3633610f9a565b8082526001602052604082208054156103765760078101805460ff8160081c166102e581610f56565b61035d5771ffffffffffffffff0000000000000000ff0019164260501b67ffffffffffffffff60501b1617610200179055600261032860ff600184015416610dca565b91015483526020528160408120557f7fe0314ddd8432eac273e729cc289f5a8f8a7860761b74472f4782fbaccd2c5f8280a280f35b6040516303dc1ed360e31b815260048101859052602490fd5b604051634294e0f760e01b815260048101839052602490fd5b503461051e57604036600319011261051e57602435600435600382101561051e576103ba3633610f9a565b805f52600160205260405f2080541561037657600781019060ff825460081c166103e381610f56565b61054d576103f084610f56565b831561053b5760607f59dce9fc667900fd114532df6d472fff85d115c184757820fca4218d5cf0a9e19161045a84610429888897610f76565b805471ffffffffffffffff0000000000000000ff0019164260501b67ffffffffffffffff60501b1617610100179055565b60ff60018201600261046e83835416610dca565b93019283545f526020525f60408120555416905461048f6040518093610f0b565b602082015261049d86610f56565b856040820152a26003546001600160a01b031691821561052957806104c3600192610f56565b036105225760015b823b1561051e5760445f928360ff95604051968795869463a01371f560e01b865260048601521660248401525af1801561051357610507575080f35b6105119150610e35565b005b6040513d5f823e3d90fd5b5f80fd5b60026104cb565b60405163c872138960e01b8152600490fd5b60405163c74a206d60e01b8152600490fd5b6040516303dc1ed360e31b815260048101849052602490fd5b3461051e57602036600319011261051e5761057f610f60565b6105893633610f9a565b600380546001600160a01b039283166001600160a01b0319821681179092559091167f915a392a694b39e45424a7afc4f5613c136e9ee3b9d2d8905d4dd7fc7dfca1d15f80a3005b3461051e575f36600319011261051e575f546040516001600160a01b039091168152602090f35b3461051e5760c036600319011261051e576002600435101561051e576044356001600160a01b038116810361051e57606435906001600160a01b038216820361051e576001600160401b0360a4351161051e5736602360a43501121561051e576001600160401b0360a435600401351161051e5736602460a4356004013560a43501011161051e5761068a3633610f9a565b610695600435610dca565b6024355f5260205260405f205480151580610aac575b610a945750600254905f198214610a805760018201600255604051926106d084610e19565b8284526106e260043560208601610f8e565b6024356040858101919091526001600160a01b0383811660608701528216608086015260843560a086015251610728600460a4350135601f01601f191660200182610e48565b60a43560048101358083529060240160208301375f602060a435600401358301015260c08501525f60e08501525f6101008501526001600160401b0342166101208501525f610140850152825f52600160205260405f2093805185556001850160208201516002811015610a6c5760ff80198354169116179055604081015160028601556003850160018060a01b03606083015116906bffffffffffffffffffffffff60a01b9182825416179055600486019060018060a01b036080840151169082541617905560a0810151600586015560c08101519485516001600160401b038111610a585761081c6006830154610de1565b96601f8811610a14575b602097508790601f8311600114610998576108f89493836001600160401b0394610140946007945f9261098d575b50508160011b915f199060031b1c19161760068201555b019261088460e082015161087e81610f56565b85610f76565b61010081015161089381610f56565b61089c81610f56565b8454610120830151939092015171ffffffffffffffffffffffffffffffffff001990921660089190911b61ff00161760109290921b69ffffffffffffffff00001691909117911660501b67ffffffffffffffff60501b16179055565b610903600435610dca565b6024355f5284528260405f2055604051917f0000000000000000000000000000000000000000000000000000000000000000835260018060a01b03168483015260018060a01b03166040820152608435606082015260243590827fd8d381df4e8c12b89b6902f6d7c11e8dbd9ab3ba29c5266bd95aa9d92215693e608060043593a4604051908152f35b015190508c80610854565b90600684015f52885f20915f5b601f19851681106109fd575093600184610140946007946108f899986001600160401b0398601f198116106109e5575b505050811b01600682015561086b565b01515f1960f88460031b161c191690558c80806109d5565b91928a6001819286850151815501940192016109a5565b600683015f5260205f20601f830160051c810160208410610a51575b601f8a0160051c82018110610a46575050610826565b5f8155600101610a30565b5080610a30565b634e487b7160e01b5f52604160045260245ffd5b634e487b7160e01b5f52602160045260245ffd5b634e487b7160e01b5f52601160045260245ffd5b6024906040519063b40fec2160e01b82526004820152fd5b50805f52600160205260ff600760405f20015460081c16610acc81610f56565b156106ab565b3461051e575f36600319011261051e575f5460a01c60ff1615610b0d576020638fb3603760e01b5b6040516001600160e01b03199091168152f35b60205f610afa565b3461051e575f36600319011261051e5760206040517f00000000000000000000000000000000000000000000000000000000000000008152f35b3461051e57602036600319011261051e57610b68610f60565b5f54906001600160a01b03908183163303610be357803b15610bca57916020917f2f658b440c35314f52658ea8a740e05b284cdc84dc9ae01e891f21b8933e7cad931680916bffffffffffffffffffffffff60a01b16175f55604051908152a1005b6040516361798f2f60e11b815291166004820152602490fd5b60405162d1953b60e31b8152336004820152602490fd5b3461051e57602036600319011261051e576004355f52600160205260405f20602081549160ff6001820154169260028201549060018060a01b03610cad8160038601541691600486015416946005810154936007610c5a60068401610e69565b9201549460ff86169760ff8760081c16956001600160401b0398610c8b6040519d8e9d8e6101609881520190610f0b565b60408c015260608b015260808a015260a08901528060c0890152870190610f18565b93610cb781610f56565b60e0860152610cc581610f56565b610100850152818160101c1661012085015260501c166101408301520390f35b3461051e57610cfd610cf636610dab565b9190610dca565b905f52602052602060405f2054604051908152f35b3461051e57610d23610cf636610dab565b905f5260205260405f205480151580610d44575b6020906040519015158152f35b505f526001602052602060ff600760405f20015460081c16610d6581610f56565b15610d37565b3461051e575f36600319011261051e576020600254604051908152f35b3461051e575f36600319011261051e576003546001600160a01b03168152602090f35b604090600319011261051e57600435600281101561051e579060243590565b6002811015610a6c575f52600460205260405f2090565b90600182811c92168015610e0f575b6020831014610dfb57565b634e487b7160e01b5f52602260045260245ffd5b91607f1691610df0565b61016081019081106001600160401b03821117610a5857604052565b6001600160401b038111610a5857604052565b90601f801991011681019081106001600160401b03821117610a5857604052565b9060405191825f8254610e7b81610de1565b908184526020946001916001811690815f14610ee95750600114610eab575b505050610ea992500383610e48565b565b5f90815285812095935091905b818310610ed1575050610ea993508201015f8080610e9a565b85548884018501529485019487945091830191610eb8565b92505050610ea994925060ff191682840152151560051b8201015f8080610e9a565b906002821015610a6c5752565b91908251928382525f5b848110610f42575050825f602080949584010152601f8019910116010190565b602081830181015184830182015201610f22565b60031115610a6c57565b600435906001600160a01b038216820361051e57565b90610f8081610f56565b60ff80198354169116179055565b6002821015610a6c5752565b5f915f549160018060a01b0390818416928060041161051e575f80604094855190602082019563b700961360e01b8752169485602483015230604483015263ffffffff60e01b5f351660648301526064825260a08201908282106001600160401b03831117610a585787925f928452828052826020525190895afa6110e2575b15611029575b50505050505050565b63ffffffff16156110cc5760ff60a01b19948516600160a01b175f55833b1561051e576064935f92838551968780958194634a63ebf760e11b835260048301528860248301528060448301528084848401378181018301849052601f01601f191681010301925af19081156110c357506110b0575b5081541690555f808080808080611020565b6110bb919250610e35565b5f905f61109e565b513d5f823e3d90fd5b50602491519062d1953b60e31b82526004820152fd5b50505f516020518060201c15029061101a56fea26469706673582212209f65b24daba3fc59bdf924471752f4bb595ed01e1fcffae3c16fad8a4194eb0164736f6c63430008180033",
  "linkReferences": {},
  "deployedLinkReferences": {}
}