{"abi":[{"type":"constructor","inputs":[{"name":"_paramController","type":"address","internalType":"address"}],"stateMutability":"nonpayable"},{"type":"function","name":"CURATOR_ROLE","inputs":[],"outputs":[{"name":"","type":"bytes32","internalType":"bytes32"}],"stateMutability":"view"},{"type":"function","name":"GOVERNANCE_ROLE","inputs":[],"outputs":[{"name":"","type":"bytes32","internalType":"bytes32"}],"stateMutability":"view"},{"type":"function","name":"MODERATOR_ROLE","inputs":[],"outputs":[{"name":"","type":"bytes32","internalType":"bytes32"}],"stateMutability":"view"},{"type":"function","name":"activeCommunityCount","inputs":[],"outputs":[{"name":"","type":"uint256","internalType":"uint256"}],"stateMutability":"view"},{"type":"function","name":"bootstrapCommunity","inputs":[{"name":"name","type":"string","internalType":"string"},{"name":"description","type":"string","internalType":"string"},{"name":"metadataURI","type":"string","internalType":"string"},{"name":"parentCommunityId","type":"uint256","internalType":"uint256"},{"name":"bootstrapParams","type":"tuple","internalType":"struct CommunityRegistry.BootstrapParams","components":[{"name":"verifierPanelSize","type":"uint256","internalType":"uint256"},{"name":"verifierMin","type":"uint256","internalType":"uint256"},{"name":"maxPanelsPerEpoch","type":"uint256","internalType":"uint256"},{"name":"useVPTWeighting","type":"bool","internalType":"bool"},{"name":"maxWeightPerVerifier","type":"uint256","internalType":"uint256"},{"name":"cooldownAfterFraud","type":"uint256","internalType":"uint256"},{"name":"debateWindow","type":"uint256","internalType":"uint256"},{"name":"voteWindow","type":"uint256","internalType":"uint256"},{"name":"executionDelay","type":"uint256","internalType":"uint256"},{"name":"minSeniority","type":"uint256","internalType":"uint256"},{"name":"minSBTs","type":"uint256","internalType":"uint256"},{"name":"proposalThreshold","type":"uint256","internalType":"uint256"},{"name":"minTreasuryBps","type":"uint16","internalType":"uint16"},{"name":"minPositionsBps","type":"uint16","internalType":"uint16"},{"name":"spilloverTarget","type":"uint8","internalType":"uint8"},{"name":"spilloverSplitBpsToTreasury","type":"uint16","internalType":"uint16"}]},{"name":"modules","type":"tuple","internalType":"struct CommunityRegistry.ModuleAddresses","components":[{"name":"accessManager","type":"address","internalType":"address"},{"name":"membershipToken","type":"address","internalType":"address"},{"name":"governor","type":"address","internalType":"address"},{"name":"timelock","type":"address","internalType":"address"},{"name":"countingMultiChoice","type":"address","internalType":"address"},{"name":"requestHub","type":"address","internalType":"address"},{"name":"draftsManager","type":"address","internalType":"address"},{"name":"engagementsManager","type":"address","internalType":"address"},{"name":"valuableActionRegistry","type":"address","internalType":"address"},{"name":"verifierPowerToken","type":"address","internalType":"address"},{"name":"verifierElection","type":"address","internalType":"address"},{"name":"verifierManager","type":"address","internalType":"address"},{"name":"valuableActionSBT","type":"address","internalType":"address"},{"name":"positionManager","type":"address","internalType":"address"},{"name":"credentialManager","type":"address","internalType":"address"},{"name":"cohortRegistry","type":"address","internalType":"address"},{"name":"investmentCohortManager","type":"address","internalType":"address"},{"name":"revenueRouter","type":"address","internalType":"address"},{"name":"treasuryVault","type":"address","internalType":"address"},{"name":"treasuryAdapter","type":"address","internalType":"address"},{"name":"communityToken","type":"address","internalType":"address"},{"name":"paramController","type":"address","internalType":"address"},{"name":"commerceDisputes","type":"address","internalType":"address"},{"name":"marketplace","type":"address","internalType":"address"},{"name":"housingManager","type":"address","internalType":"address"},{"name":"projectFactory","type":"address","internalType":"address"}]}],"outputs":[{"name":"communityId","type":"uint256","internalType":"uint256"}],"stateMutability":"nonpayable"},{"type":"function","name":"communities","inputs":[{"name":"","type":"uint256","internalType":"uint256"}],"outputs":[{"name":"name","type":"string","internalType":"string"},{"name":"description","type":"string","internalType":"string"},{"name":"metadataURI","type":"string","internalType":"string"},{"name":"active","type":"bool","internalType":"bool"},{"name":"createdAt","type":"uint256","internalType":"uint256"},{"name":"accessManager","type":"address","internalType":"address"},{"name":"membershipToken","type":"address","internalType":"address"},{"name":"governor","type":"address","internalType":"address"},{"name":"timelock","type":"address","internalType":"address"},{"name":"countingMultiChoice","type":"address","internalType":"address"},{"name":"requestHub","type":"address","internalType":"address"},{"name":"draftsManager","type":"address","internalType":"address"},{"name":"engagementsManager","type":"address","internalType":"address"},{"name":"valuableActionRegistry","type":"address","internalType":"address"},{"name":"verifierPowerToken","type":"address","internalType":"address"},{"name":"verifierElection","type":"address","internalType":"address"},{"name":"verifierManager","type":"address","internalType":"address"},{"name":"valuableActionSBT","type":"address","internalType":"address"},{"name":"positionManager","type":"address","internalType":"address"},{"name":"credentialManager","type":"address","internalType":"address"},{"name":"cohortRegistry","type":"address","internalType":"address"},{"name":"investmentCohortManager","type":"address","internalType":"address"},{"name":"revenueRouter","type":"address","internalType":"address"},{"name":"treasuryVault","type":"address","internalType":"address"},{"name":"treasuryAdapter","type":"address","internalType":"address"},{"name":"communityToken","type":"address","internalType":"address"},{"name":"paramController","type":"address","internalType":"address"},{"name":"commerceDisputes","type":"address","internalType":"address"},{"name":"marketplace","type":"address","internalType":"address"},{"name":"housingManager","type":"address","internalType":"address"},{"name":"projectFactory","type":"address","internalType":"address"},{"name":"parentCommunityId","type":"uint256","internalType":"uint256"}],"stateMutability":"view"},{"type":"function","name":"communityAdmins","inputs":[{"name":"","type":"uint256","internalType":"uint256"},{"name":"","type":"address","internalType":"address"}],"outputs":[{"name":"","type":"bool","internalType":"bool"}],"stateMutability":"view"},{"type":"function","name":"communityRoles","inputs":[{"name":"","type":"uint256","internalType":"uint256"},{"name":"","type":"address","internalType":"address"},{"name":"","type":"bytes32","internalType":"bytes32"}],"outputs":[{"name":"","type":"bool","internalType":"bool"}],"stateMutability":"view"},{"type":"function","name":"curators","inputs":[{"name":"","type":"uint256","internalType":"uint256"},{"name":"","type":"address","internalType":"address"}],"outputs":[{"name":"","type":"bool","internalType":"bool"}],"stateMutability":"view"},{"type":"function","name":"formAlliance","inputs":[{"name":"communityId1","type":"uint256","internalType":"uint256"},{"name":"communityId2","type":"uint256","internalType":"uint256"}],"outputs":[],"stateMutability":"nonpayable"},{"type":"function","name":"getActiveCommunities","inputs":[],"outputs":[{"name":"","type":"uint256[]","internalType":"uint256[]"}],"stateMutability":"view"},{"type":"function","name":"getCommunity","inputs":[{"name":"communityId","type":"uint256","internalType":"uint256"}],"outputs":[{"name":"","type":"tuple","internalType":"struct CommunityRegistry.Community","components":[{"name":"name","type":"string","internalType":"string"},{"name":"description","type":"string","internalType":"string"},{"name":"metadataURI","type":"string","internalType":"string"},{"name":"active","type":"bool","internalType":"bool"},{"name":"createdAt","type":"uint256","internalType":"uint256"},{"name":"accessManager","type":"address","internalType":"address"},{"name":"membershipToken","type":"address","internalType":"address"},{"name":"governor","type":"address","internalType":"address"},{"name":"timelock","type":"address","internalType":"address"},{"name":"countingMultiChoice","type":"address","internalType":"address"},{"name":"requestHub","type":"address","internalType":"address"},{"name":"draftsManager","type":"address","internalType":"address"},{"name":"engagementsManager","type":"address","internalType":"address"},{"name":"valuableActionRegistry","type":"address","internalType":"address"},{"name":"verifierPowerToken","type":"address","internalType":"address"},{"name":"verifierElection","type":"address","internalType":"address"},{"name":"verifierManager","type":"address","internalType":"address"},{"name":"valuableActionSBT","type":"address","internalType":"address"},{"name":"positionManager","type":"address","internalType":"address"},{"name":"credentialManager","type":"address","internalType":"address"},{"name":"cohortRegistry","type":"address","internalType":"address"},{"name":"investmentCohortManager","type":"address","internalType":"address"},{"name":"revenueRouter","type":"address","internalType":"address"},{"name":"treasuryVault","type":"address","internalType":"address"},{"name":"treasuryAdapter","type":"address","internalType":"address"},{"name":"communityToken","type":"address","internalType":"address"},{"name":"paramController","type":"address","internalType":"address"},{"name":"commerceDisputes","type":"address","internalType":"address"},{"name":"marketplace","type":"address","internalType":"address"},{"name":"housingManager","type":"address","internalType":"address"},{"name":"projectFactory","type":"address","internalType":"address"},{"name":"parentCommunityId","type":"uint256","internalType":"uint256"},{"name":"allyCommunityIds","type":"uint256[]","internalType":"uint256[]"}]}],"stateMutability":"view"},{"type":"function","name":"getCommunityModules","inputs":[{"name":"communityId","type":"uint256","internalType":"uint256"}],"outputs":[{"name":"","type":"tuple","internalType":"struct CommunityRegistry.ModuleAddresses","components":[{"name":"accessManager","type":"address","internalType":"address"},{"name":"membershipToken","type":"address","internalType":"address"},{"name":"governor","type":"address","internalType":"address"},{"name":"timelock","type":"address","internalType":"address"},{"name":"countingMultiChoice","type":"address","internalType":"address"},{"name":"requestHub","type":"address","internalType":"address"},{"name":"draftsManager","type":"address","internalType":"address"},{"name":"engagementsManager","type":"address","internalType":"address"},{"name":"valuableActionRegistry","type":"address","internalType":"address"},{"name":"verifierPowerToken","type":"address","internalType":"address"},{"name":"verifierElection","type":"address","internalType":"address"},{"name":"verifierManager","type":"address","internalType":"address"},{"name":"valuableActionSBT","type":"address","internalType":"address"},{"name":"positionManager","type":"address","internalType":"address"},{"name":"credentialManager","type":"address","internalType":"address"},{"name":"cohortRegistry","type":"address","internalType":"address"},{"name":"investmentCohortManager","type":"address","internalType":"address"},{"name":"revenueRouter","type":"address","internalType":"address"},{"name":"treasuryVault","type":"address","internalType":"address"},{"name":"treasuryAdapter","type":"address","internalType":"address"},{"name":"communityToken","type":"address","internalType":"address"},{"name":"paramController","type":"address","internalType":"address"},{"name":"commerceDisputes","type":"address","internalType":"address"},{"name":"marketplace","type":"address","internalType":"address"},{"name":"housingManager","type":"address","internalType":"address"},{"name":"projectFactory","type":"address","internalType":"address"}]}],"stateMutability":"view"},{"type":"function","name":"getCommunityRelationships","inputs":[{"name":"communityId","type":"uint256","internalType":"uint256"}],"outputs":[{"name":"parentCommunityId","type":"uint256","internalType":"uint256"},{"name":"allyCommunityIds","type":"uint256[]","internalType":"uint256[]"}],"stateMutability":"view"},{"type":"function","name":"getEconomicParameters","inputs":[{"name":"communityId","type":"uint256","internalType":"uint256"}],"outputs":[{"name":"minTreasuryBps","type":"uint256","internalType":"uint256"},{"name":"minPositionsBps","type":"uint256","internalType":"uint256"},{"name":"spilloverTarget","type":"uint8","internalType":"uint8"},{"name":"spilloverSplitBpsToTreasury","type":"uint256","internalType":"uint256"},{"name":"feeOnWithdraw","type":"uint256","internalType":"uint256"},{"name":"backingAssets","type":"address[]","internalType":"address[]"}],"stateMutability":"view"},{"type":"function","name":"getEligibilityRules","inputs":[{"name":"communityId","type":"uint256","internalType":"uint256"}],"outputs":[{"name":"minSeniority","type":"uint256","internalType":"uint256"},{"name":"minSBTs","type":"uint256","internalType":"uint256"},{"name":"proposalThreshold","type":"uint256","internalType":"uint256"}],"stateMutability":"view"},{"type":"function","name":"getGovernanceParameters","inputs":[{"name":"communityId","type":"uint256","internalType":"uint256"}],"outputs":[{"name":"debateWindow","type":"uint256","internalType":"uint256"},{"name":"voteWindow","type":"uint256","internalType":"uint256"},{"name":"executionDelay","type":"uint256","internalType":"uint256"}],"stateMutability":"view"},{"type":"function","name":"getTimelock","inputs":[{"name":"communityId","type":"uint256","internalType":"uint256"}],"outputs":[{"name":"","type":"address","internalType":"address"}],"stateMutability":"view"},{"type":"function","name":"grantCommunityRole","inputs":[{"name":"communityId","type":"uint256","internalType":"uint256"},{"name":"user","type":"address","internalType":"address"},{"name":"role","type":"bytes32","internalType":"bytes32"}],"outputs":[],"stateMutability":"nonpayable"},{"type":"function","name":"hasRole","inputs":[{"name":"communityId","type":"uint256","internalType":"uint256"},{"name":"user","type":"address","internalType":"address"},{"name":"role","type":"bytes32","internalType":"bytes32"}],"outputs":[{"name":"","type":"bool","internalType":"bool"}],"stateMutability":"view"},{"type":"function","name":"initializeDefaultParameters","inputs":[{"name":"communityId","type":"uint256","internalType":"uint256"}],"outputs":[],"stateMutability":"nonpayable"},{"type":"function","name":"moderators","inputs":[{"name":"","type":"uint256","internalType":"uint256"},{"name":"","type":"address","internalType":"address"}],"outputs":[{"name":"","type":"bool","internalType":"bool"}],"stateMutability":"view"},{"type":"function","name":"nextCommunityId","inputs":[],"outputs":[{"name":"","type":"uint256","internalType":"uint256"}],"stateMutability":"view"},{"type":"function","name":"paramController","inputs":[],"outputs":[{"name":"","type":"address","internalType":"contract ParamController"}],"stateMutability":"view"},{"type":"function","name":"registerCommunity","inputs":[{"name":"name","type":"string","internalType":"string"},{"name":"description","type":"string","internalType":"string"},{"name":"metadataURI","type":"string","internalType":"string"},{"name":"parentCommunityId","type":"uint256","internalType":"uint256"}],"outputs":[{"name":"communityId","type":"uint256","internalType":"uint256"}],"stateMutability":"nonpayable"},{"type":"function","name":"revokeCommunityRole","inputs":[{"name":"communityId","type":"uint256","internalType":"uint256"},{"name":"user","type":"address","internalType":"address"},{"name":"role","type":"bytes32","internalType":"bytes32"}],"outputs":[],"stateMutability":"nonpayable"},{"type":"function","name":"setCommunityStatus","inputs":[{"name":"communityId","type":"uint256","internalType":"uint256"},{"name":"active","type":"bool","internalType":"bool"}],"outputs":[],"stateMutability":"nonpayable"},{"type":"function","name":"setModuleAddress","inputs":[{"name":"communityId","type":"uint256","internalType":"uint256"},{"name":"moduleKey","type":"bytes32","internalType":"bytes32"},{"name":"moduleAddress","type":"address","internalType":"address"}],"outputs":[],"stateMutability":"nonpayable"},{"type":"function","name":"setModuleAddresses","inputs":[{"name":"communityId","type":"uint256","internalType":"uint256"},{"name":"modules","type":"tuple","internalType":"struct CommunityRegistry.ModuleAddresses","components":[{"name":"accessManager","type":"address","internalType":"address"},{"name":"membershipToken","type":"address","internalType":"address"},{"name":"governor","type":"address","internalType":"address"},{"name":"timelock","type":"address","internalType":"address"},{"name":"countingMultiChoice","type":"address","internalType":"address"},{"name":"requestHub","type":"address","internalType":"address"},{"name":"draftsManager","type":"address","internalType":"address"},{"name":"engagementsManager","type":"address","internalType":"address"},{"name":"valuableActionRegistry","type":"address","internalType":"address"},{"name":"verifierPowerToken","type":"address","internalType":"address"},{"name":"verifierElection","type":"address","internalType":"address"},{"name":"verifierManager","type":"address","internalType":"address"},{"name":"valuableActionSBT","type":"address","internalType":"address"},{"name":"positionManager","type":"address","internalType":"address"},{"name":"credentialManager","type":"address","internalType":"address"},{"name":"cohortRegistry","type":"address","internalType":"address"},{"name":"investmentCohortManager","type":"address","internalType":"address"},{"name":"revenueRouter","type":"address","internalType":"address"},{"name":"treasuryVault","type":"address","internalType":"address"},{"name":"treasuryAdapter","type":"address","internalType":"address"},{"name":"communityToken","type":"address","internalType":"address"},{"name":"paramController","type":"address","internalType":"address"},{"name":"commerceDisputes","type":"address","internalType":"address"},{"name":"marketplace","type":"address","internalType":"address"},{"name":"housingManager","type":"address","internalType":"address"},{"name":"projectFactory","type":"address","internalType":"address"}]}],"outputs":[],"stateMutability":"nonpayable"},{"type":"function","name":"updateCommunityMetadataURI","inputs":[{"name":"communityId","type":"uint256","internalType":"uint256"},{"name":"newMetadataURI","type":"string","internalType":"string"}],"outputs":[],"stateMutability":"nonpayable"},{"type":"function","name":"updateParentCommunity","inputs":[{"name":"communityId","type":"uint256","internalType":"uint256"},{"name":"newParentCommunityId","type":"uint256","internalType":"uint256"}],"outputs":[],"stateMutability":"nonpayable"},{"type":"event","name":"CommunityAllianceFormed","inputs":[{"name":"communityId1","type":"uint256","indexed":true,"internalType":"uint256"},{"name":"communityId2","type":"uint256","indexed":true,"internalType":"uint256"}],"anonymous":false},{"type":"event","name":"CommunityMetadataURIUpdated","inputs":[{"name":"communityId","type":"uint256","indexed":true,"internalType":"uint256"},{"name":"oldMetadataURI","type":"string","indexed":false,"internalType":"string"},{"name":"newMetadataURI","type":"string","indexed":false,"internalType":"string"}],"anonymous":false},{"type":"event","name":"CommunityParentUpdated","inputs":[{"name":"communityId","type":"uint256","indexed":true,"internalType":"uint256"},{"name":"oldParentCommunityId","type":"uint256","indexed":true,"internalType":"uint256"},{"name":"newParentCommunityId","type":"uint256","indexed":true,"internalType":"uint256"}],"anonymous":false},{"type":"event","name":"CommunityRegistered","inputs":[{"name":"communityId","type":"uint256","indexed":true,"internalType":"uint256"},{"name":"name","type":"string","indexed":false,"internalType":"string"},{"name":"creator","type":"address","indexed":true,"internalType":"address"},{"name":"parentCommunityId","type":"uint256","indexed":false,"internalType":"uint256"}],"anonymous":false},{"type":"event","name":"CommunityRoleGranted","inputs":[{"name":"communityId","type":"uint256","indexed":true,"internalType":"uint256"},{"name":"user","type":"address","indexed":true,"internalType":"address"},{"name":"role","type":"bytes32","indexed":true,"internalType":"bytes32"}],"anonymous":false},{"type":"event","name":"CommunityRoleRevoked","inputs":[{"name":"communityId","type":"uint256","indexed":true,"internalType":"uint256"},{"name":"user","type":"address","indexed":true,"internalType":"address"},{"name":"role","type":"bytes32","indexed":true,"internalType":"bytes32"}],"anonymous":false},{"type":"event","name":"CommunityStatusChanged","inputs":[{"name":"communityId","type":"uint256","indexed":true,"internalType":"uint256"},{"name":"active","type":"bool","indexed":false,"internalType":"bool"}],"anonymous":false},{"type":"event","name":"ModuleAddressUpdated","inputs":[{"name":"communityId","type":"uint256","indexed":true,"internalType":"uint256"},{"name":"moduleKey","type":"bytes32","indexed":true,"internalType":"bytes32"},{"name":"oldAddress","type":"address","indexed":false,"internalType":"address"},{"name":"newAddress","type":"address","indexed":false,"internalType":"address"}],"anonymous":false},{"type":"error","name":"InvalidInput","inputs":[{"name":"reason","type":"string","internalType":"string"}]},{"type":"error","name":"NotAuthorized","inputs":[{"name":"caller","type":"address","internalType":"address"}]},{"type":"error","name":"ZeroAddress","inputs":[]}],"bytecode":{"object":"0x60a034620000ba57601f6200553c38819003918201601f19168301916001600160401b03831184841017620000be57808492602094604052833981010312620000ba57516001600160a01b03811690819003620000ba5760016005558015620000a8576080526040516154699081620000d38239608051818181610b9701528181610d6e01528181610e8c01528181612c8801528181612f570152818161301801526148060152f35b60405163d92e233d60e01b8152600490fd5b5f80fd5b634e487b7160e01b5f52604160045260245ffdfe610500806040526004361015610013575f80fd5b5f905f3560e01c90816306055b841461491f5750806310b18438146148e15780631ca5b5711461489157806321be27b8146147d55780632530ebb314613ed357806333083a6114613e6c5780633362496614613cfc5780633688da7914613cb1578063370603f8146136835780633b4724601461363857806345dc23081461356c57806349dc706b146134a65780634a2cfb541461346b5780634d609b01146134205780634fbcf131146133ca57806350c76b4614612fec578063555973c414612fa9578063560d401514612efd578063628005b514612d6f578063797669c914612d34578063826410c414612d165780638594e56c14612c2e578063925291e714611e8b5780639b6070bd14611ca75780639f9e887114611c7a578063a9c50fd314610bbb578063d0d1854d14610b77578063e590b56a1461084a578063f1b150bd146107be578063f36c8f5c146107835763f830e34814610174575f80fd5b346107805760203660031901126107805780604091610320835161019781614a97565b82815282602082015282858201528260608201528260808201528260a08201528260c08201528260e08201528261010082015282610120820152826101408201528261016082015282610180820152826101a0820152826101c0820152826101e08201528261020082015282610220820152826102408201528261026082015282610280820152826102a0820152826102c0820152826102e0820152826103008201520152610247600435614d4b565b60043581528060205220610220526103406001600160a01b036005610220510154166001600160a01b03600661022051015416610100526001600160a01b03600761022051015416610140526001600160a01b036008610220510154166001600160a01b036009610220510154166001600160a01b03600a610220510154166001600160a01b03600b610220510154166001600160a01b03600c610220510154166001600160a01b03600d610220510154166001600160a01b03600e610220510154166001600160a01b03600f61022051015416916001600160a01b03601061022051015416936001600160a01b03601161022051015416956001600160a01b03601261022051015416976001600160a01b03601361022051015416996001600160a01b036014610220510154169b6001600160a01b036015610220510154166080526001600160a01b0360166102205101541660c0526001600160a01b03601761022051015416610200526001600160a01b036018610220510154166101e0526001600160a01b036019610220510154166101c0526001600160a01b03601a610220510154166101a0526001600160a01b03601b61022051015416610180526001600160a01b03601c61022051015416610160526001600160a01b03601d61022051015416610120526001600160a01b03601e6102205101541660e05260405160a05261045660a051614a97565b8d60a0515261010051602060a051015261014051604060a0510152606060a0510152608060a051015260a08051015260c060a051015260e060a051015261010060a051015261012060a051015261014060a051015261016060a051015261018060a05101526101a060a05101526101c060a05101526101e060a051015260805161020060a051015260c05161022060a05101526102005161024060a05101526101e05161026060a05101526101c05161028060a05101526101a0516102a060a0510152610180516102c060a0510152610160516102e060a05101526101205161030060a051015260e05161032060a05101526040519081526001600160a01b03602060a05101511660208201526001600160a01b03604060a05101511660408201526001600160a01b03606060a05101511660608201526001600160a01b03608060a05101511660808201526001600160a01b0360a0805101511660a08201526001600160a01b0360c060a05101511660c08201526001600160a01b0360e060a05101511660e08201526001600160a01b0361010060a0510151166101008201526001600160a01b0361012060a0510151166101208201526001600160a01b0361014060a0510151166101408201526001600160a01b0361016060a0510151166101608201526001600160a01b0361018060a0510151166101808201526001600160a01b036101a060a0510151166101a08201526001600160a01b036101c060a0510151166101c08201526001600160a01b036101e060a0510151166101e08201526001600160a01b0361020060a0510151166102008201526001600160a01b0361022060a0510151166102208201526001600160a01b0361024060a0510151166102408201526001600160a01b0361026060a0510151166102608201526001600160a01b0361028060a0510151166102808201526001600160a01b036102a060a0510151166102a08201526001600160a01b036102c060a0510151166102c08201526001600160a01b036102e060a0510151166102e08201526001600160a01b0361030060a0510151166103008201526001600160a01b0361032060a051015116610320820152f35b80fd5b503461078057806003193601126107805760206040517f71840dc4906352362b0cdaf79870196c8e42acafade72d5d5a6d59291253ceb18152f35b50346107805760803660031901126107805767ffffffffffffffff90600435828111610846576107f2903690600401614a00565b9290916024358281116108465761080d903690600401614a00565b92909160443591821161078057602061083e878787876108303660048a01614a00565b929091339560643595614fb5565b604051908152f35b5080fd5b503461078057602036600319011261078057604090600435815280602052206104e0526108796104e051614ad6565b61088860016104e05101614ad6565b6102c05261089b60026104e05101614ad6565b610320526104e051600381015460ff166103005260048101546103405260058101546001600160a01b03908116610380526006820154600783015460088401546009850154600a860154600b870154600c880154600d890154600e8a0154600f8b015460108c015460118d01548c166102405260128d01548c166102605260138d01548c166102805260148d01548c166104c05260158d01548c166104a05260168d01548c166104805260178d01548c166104605260188d01548c166104405260198d01548c1661042052601a8d01548c16610400908152601b8e01548d166103e052601c8e01548d166103c052601d8e01548d166103a052601e8e01548d1661036052601f909d01546102e0526040516102a0818152908e9052519a8c169d908c169c918c169b9283169a9383169994831698958316979683169683169583169490921692610a2292610a0b926109f492019061498f565b6102a051810360206102a05101526102c05161498f565b6102a051810360406102a05101526103205161498f565b9a61030051151560606102a05101526103405160806102a05101526103805160a06102a051015260c06102a051015260e06102a05101526101006102a05101526101206102a05101526101406102a05101526101606102a05101526101806102a05101526101a06102a05101526101c06102a05101526101e06102a05101526102006102a0510152610240516102206102a0510152610260516102406102a0510152610280516102606102a05101526104c0516102806102a05101526104a0516102a080510152610480516102c06102a0510152610460516102e06102a0510152610440516103006102a0510152610420516103206102a0510152610400516103406102a05101526103e0516103606102a05101526103c0516103806102a05101526103a0516103a06102a0510152610360516103c06102a05101526102e0516103e06102a05101526102a05190036102a051f35b503461078057806003193601126107805760206040516001600160a01b037f0000000000000000000000000000000000000000000000000000000000000000168152f35b5034610780576105c03660031901126107805760043567ffffffffffffffff811161084657610bee903690600401614a00565b60243567ffffffffffffffff8111611c7657610c0e903690600401614a00565b60449391933567ffffffffffffffff8111611c7257610c31903690600401614a00565b91610200366083190112611c6e5761034036610283190112611c6e57610c5c95339560643595614fb5565b6001600160a01b039160e435801515810361084657610204359061ffff8216820361118e57610224359161ffff8316830361118e57610244359060ff82168203611c6a5761ffff6102643516610264350361118e57604051938461020081011067ffffffffffffffff61020087011117611c565761ffff809260ff956102008801604052608435885260a435602089015260c4356040890152151560608801526101043560808801526101243560a08801526101443560c08801526101643560e0880152610184356101008801526101a4356101208801526101c4356101408801526101e43561016088015216610180860152166101a0840152166101c082015261ffff61026435166101e0820152837f0000000000000000000000000000000000000000000000000000000000000000163b156108465761ffff6101e0604051927fde4feae60000000000000000000000000000000000000000000000000000000084528560048501523360248501528051604485015260208101516064850152604081015160848501526060810151151560a4850152608081015160c485015260a081015160e485015260c081015161010485015260e08101516101248501526101008101516101448501526101208101516101648501526101408101516101848501526101608101516101a485015282610180820151166101c4850152826101a0820151166101e485015260ff6101c08201511661020485015201511661022482015281816102448183887f0000000000000000000000000000000000000000000000000000000000000000165af18015611c4b57611c37575b5050805f525f60205260405f206102843583811680820361118e5780611bca575b50506102a43583811680820361118e5780611b5d575b50506102c43583811680820361118e5780611af0575b50506102e43583811680820361118e5780611a83575b50506103043583811680820361118e5780611a16575b50506103243583811680820361118e57806119a9575b50506103443583811680820361118e578061193c575b50506103643583811680820361118e57806118cf575b50506103843583811680820361118e5780611862575b50506103a43583811680820361118e57806117f5575b50506103c43583811680820361118e5780611788575b50506103e43583811680820361118e578061171b575b50506104043583811680820361118e57806116ae575b50506104243583811680820361118e5780611641575b50506104443583811680820361118e57806115d4575b50506104643583811680820361118e5780611567575b50506104843583811680820361118e57806114fa575b50506104a43583811680820361118e578061148d575b50506104c43583811680820361118e5780611420575b50506104e43583811680820361118e57806113b3575b50506105043583811680820361118e5780611346575b50506105243583811680820361118e57806112d9575b50506105443583811680820361118e578061126c575b50506105643583811680820361118e57806111ff575b50506105843583811680820361118e5780611192575b50506105a435908382169081830361118e57602094849183611111575b8683604051908152f35b6001600160a01b0319925f80516020615414833981519152601e7f7df47a1017c379bfcdc814d9844a4203915311da1b67a3deaa8ac0408df7413393019687549461117d6040519283928816839060209093929360408301946001600160a01b03809216845216910152565b0390a3161790555f80828180611107565b5f80fd5b601d83018054604080516001600160a01b038984168116825295909516602086015291936001600160a01b0319927fb8ea76e94f1fa1c619a101614916e863c5e94c9a7af818d1349dbd7764e831449188915f8051602061541483398151915291a3161790555f806110ea565b601c83018054604080516001600160a01b038984168116825295909516602086015291936001600160a01b0319927fcef6e888ca344077e889d6d961447b180a6f2c1f8a3a4b954e2385449143c6c89188915f8051602061541483398151915291a3161790555f806110d4565b601b83018054604080516001600160a01b038984168116825295909516602086015291936001600160a01b0319927f63dd945f73078583ef50fd03af198fa3c78e7933617ee2aed52ef628f45ded689188915f8051602061541483398151915291a3161790555f806110be565b601a83018054604080516001600160a01b038984168116825295909516602086015291936001600160a01b0319927f8261c36d170ec64b60c2f015482418cba997cb5d3787c13f43e3e29e3713a3aa9188915f8051602061541483398151915291a3161790555f806110a8565b601983018054604080516001600160a01b038984168116825295909516602086015291936001600160a01b0319927f98e8485c9f8d32054528913734a0b61a027120b5b579681fd3be4ad009f54d889188915f8051602061541483398151915291a3161790555f80611092565b601883018054604080516001600160a01b038984168116825295909516602086015291936001600160a01b0319927f5a200776fcd7bd781b66706fec6e1b18f0621e153b73c7363545fca20f04a1d29188915f8051602061541483398151915291a3161790555f8061107c565b601783018054604080516001600160a01b038984168116825295909516602086015291936001600160a01b0319927fe43d20cf7f6a2ff14d5f0335d5c7789349ccc63ae1114e12b0bd87c3f1e951a19188915f8051602061541483398151915291a3161790555f80611066565b601683018054604080516001600160a01b038984168116825295909516602086015291936001600160a01b0319927fb854146362255d5eede99c74f1b401239cdf7180a0c47f511c1557e6409c7b4b9188915f8051602061541483398151915291a3161790555f80611050565b601583018054604080516001600160a01b038984168116825295909516602086015291936001600160a01b0319927f9186309698ee627a535c955ea1228e075c42d3a0a1d08728ecfd9e895f4199d49188915f8051602061541483398151915291a3161790555f8061103a565b601483018054604080516001600160a01b038984168116825295909516602086015291936001600160a01b0319927f5d065ed09f08f7097cb10b9eb7dcca8928903e9d07ab34b9075dc83c39f381ac9188915f8051602061541483398151915291a3161790555f80611024565b601383018054604080516001600160a01b038984168116825295909516602086015291936001600160a01b0319927f2822d734b7f548aead5dffdb79a1d04beee6bedc39c1fe6b31f1db55b5b432a89188915f8051602061541483398151915291a3161790555f8061100e565b601283018054604080516001600160a01b038984168116825295909516602086015291936001600160a01b0319927f64b344ea52e7d4fb7b6ebe47cbbbbaf6c3cead98ea350e4b7972fbb247fe424c9188915f8051602061541483398151915291a3161790555f80610ff8565b601183018054604080516001600160a01b038984168116825295909516602086015291936001600160a01b0319927f32afddabd709addf4415072b8d91182991dca79db32c8f955b2de08fde6a6f5b9188915f8051602061541483398151915291a3161790555f80610fe2565b601083018054604080516001600160a01b038984168116825295909516602086015291936001600160a01b0319927f7b5100c5075e8b464921c50f00e473a3bc0c31203deea60edb85769b757f8bf39188915f8051602061541483398151915291a3161790555f80610fcc565b600f83018054604080516001600160a01b038984168116825295909516602086015291936001600160a01b0319927f462e21731791a88fbc3d6e262bf146c4157be7e45705bcc62f1a363fee3c48269188915f8051602061541483398151915291a3161790555f80610fb6565b600e83018054604080516001600160a01b038984168116825295909516602086015291936001600160a01b0319927fb8cb7564b4fae24959e5c4110e8d9cf91dec7f90b166d06cf5ec514d3c9572bb9188915f8051602061541483398151915291a3161790555f80610fa0565b600d83018054604080516001600160a01b038984168116825295909516602086015291936001600160a01b0319927f666ae48d5d989da88ad33b18d9ad1eb36fb06da47a87e3848edc838a0c833b669188915f8051602061541483398151915291a3161790555f80610f8a565b600c83018054604080516001600160a01b038984168116825295909516602086015291936001600160a01b0319927fbff2e278cc551512f9de0667dc3c1f1adc56d0fa1cc74c9c4bc2fdb3bf19b4eb9188915f8051602061541483398151915291a3161790555f80610f74565b600b83018054604080516001600160a01b038984168116825295909516602086015291936001600160a01b0319927f4347b7879af66b5dbc633ac7823917506d8e6f9413913e212b835d7d207618e69188915f8051602061541483398151915291a3161790555f80610f5e565b600a83018054604080516001600160a01b038984168116825295909516602086015291936001600160a01b0319927f53f851c2f0120d87a66d7c53ece15902d923fb3a96f123db6800bb40afe22dd99188915f8051602061541483398151915291a3161790555f80610f48565b600983018054604080516001600160a01b038984168116825295909516602086015291936001600160a01b0319927fe8c109986cf423efdcea0006729e534fc595d32c889b5db8f41e3c1e396608ca9188915f8051602061541483398151915291a3161790555f80610f32565b600883018054604080516001600160a01b038984168116825295909516602086015291936001600160a01b0319927f268198d81cd5de2a4c427017a36e6262825f97fa3f1ca0d7bccee07cfae2ad589188915f8051602061541483398151915291a3161790555f80610f1c565b600783018054604080516001600160a01b038984168116825295909516602086015291936001600160a01b0319927f1e46cebd6689d8c64011118478db0c61a89aa2646c860df401de476fbf3789839188915f8051602061541483398151915291a3161790555f80610f06565b600683018054604080516001600160a01b038984168116825295909516602086015291936001600160a01b0319927f1738168993c657b31bb6b4ae2a138e1b0ce7a642a4f833580e270a93ac3019c39188915f8051602061541483398151915291a3161790555f80610ef0565b600583018054604080516001600160a01b038984168116825295909516602086015291936001600160a01b0319927fbb08281a0f98e2046588a698be9c1af9fc5ce8c044126c7d453aed8e646637349188915f8051602061541483398151915291a3161790555f80610eda565b611c418291614a66565b6107805780610eb9565b6040513d84823e3d90fd5b634e487b7160e01b5f52604160045260245ffd5b8480fd5b8680fd5b8580fd5b8380fd5b503461078057604036600319011261078057602435801515810361084657611ca490600435614c8a565b80f35b50346107805760403660031901126107805760043567ffffffffffffffff602435818111611c7657611cdd903690600401614a00565b611ce684614d4b565b611cef84614de2565b83855260209185835260026040872001611d0881614ad6565b948311611e7757611d198154614a2e565b601f8111611e34575b5086601f8411600114611da95792611d9892611d8b9592827fb26ca528190a3fe437aedeffb50ed632e954d361de1993c1171c63ec9ed7620298968b91611d9e575b508360011b905f198560031b1c19161790555b60405195869560408752604087019061498f565b9285840390860152614c6a565b0390a280f35b90508201355f611d64565b81885284882090601f198516895b818110611e1d5750928592611d9895927fb26ca528190a3fe437aedeffb50ed632e954d361de1993c1171c63ec9ed762029997611d8b999610611e04575b5050600183811b019055611d77565b8301355f19600386901b60f8161c191690555f80611df5565b919287600181928689013581550194019201611db7565b818852848820601f850160051c810191868610611e6d575b601f0160051c01905b818110611e625750611d22565b5f8155600101611e55565b9091508190611e4c565b602487634e487b7160e01b81526041600452fd5b5034610780576103603660031901126107805760043561034036602319011261084657611eb781614d4b565b611ec081614dae565b805f525f60205260405f20602435916001600160a01b039283811680820361118e5780612bc1575b505060443583811680820361118e5780612b54575b505060643583811680820361118e5780612ae7575b505060843583811680820361118e5780612a7a575b505060a43583811680820361118e5780612a0d575b505060c43583811680820361118e57806129a0575b505060e43583811680820361118e5780612933575b50506101043583811680820361118e57806128c6575b50506101243583811680820361118e5780612859575b50506101443583811680820361118e57806127ec575b50506101643583811680820361118e578061277f575b50506101843583811680820361118e5780612712575b50506101a43583811680820361118e57806126a5575b50506101c43583811680820361118e5780612638575b50506101e43583811680820361118e57806125cb575b50506102043583811680820361118e578061255e575b50506102243583811680820361118e57806124f1575b50506102443583811680820361118e5780612484575b50506102643583811680820361118e5780612417575b50506102843583811680820361118e57806123aa575b50506102a43583811680820361118e578061233d575b50506102c43583811680820361118e57806122d0575b50506102e43583811680820361118e5780612263575b50506103043583811680820361118e57806121f6575b50506103243583811680820361118e5780612189575b505061034435928084169283850361118e578361210d578580f35b6001600160a01b0319925f80516020615414833981519152601e7f7df47a1017c379bfcdc814d9844a4203915311da1b67a3deaa8ac0408df741339301968754946121796040519283928816839060209093929360408301946001600160a01b03809216845216910152565b0390a3161790555f808080808580f35b601d84018054604080516001600160a01b038984168116825295909516602086015291936001600160a01b0319927fb8ea76e94f1fa1c619a101614916e863c5e94c9a7af818d1349dbd7764e831449187915f8051602061541483398151915291a3161790555f806120f2565b601c84018054604080516001600160a01b038984168116825295909516602086015291936001600160a01b0319927fcef6e888ca344077e889d6d961447b180a6f2c1f8a3a4b954e2385449143c6c89187915f8051602061541483398151915291a3161790555f806120dc565b601b84018054604080516001600160a01b038984168116825295909516602086015291936001600160a01b0319927f63dd945f73078583ef50fd03af198fa3c78e7933617ee2aed52ef628f45ded689187915f8051602061541483398151915291a3161790555f806120c6565b601a84018054604080516001600160a01b038984168116825295909516602086015291936001600160a01b0319927f8261c36d170ec64b60c2f015482418cba997cb5d3787c13f43e3e29e3713a3aa9187915f8051602061541483398151915291a3161790555f806120b0565b601984018054604080516001600160a01b038984168116825295909516602086015291936001600160a01b0319927f98e8485c9f8d32054528913734a0b61a027120b5b579681fd3be4ad009f54d889187915f8051602061541483398151915291a3161790555f8061209a565b601884018054604080516001600160a01b038984168116825295909516602086015291936001600160a01b0319927f5a200776fcd7bd781b66706fec6e1b18f0621e153b73c7363545fca20f04a1d29187915f8051602061541483398151915291a3161790555f80612084565b601784018054604080516001600160a01b038984168116825295909516602086015291936001600160a01b0319927fe43d20cf7f6a2ff14d5f0335d5c7789349ccc63ae1114e12b0bd87c3f1e951a19187915f8051602061541483398151915291a3161790555f8061206e565b601684018054604080516001600160a01b038984168116825295909516602086015291936001600160a01b0319927fb854146362255d5eede99c74f1b401239cdf7180a0c47f511c1557e6409c7b4b9187915f8051602061541483398151915291a3161790555f80612058565b601584018054604080516001600160a01b038984168116825295909516602086015291936001600160a01b0319927f9186309698ee627a535c955ea1228e075c42d3a0a1d08728ecfd9e895f4199d49187915f8051602061541483398151915291a3161790555f80612042565b601484018054604080516001600160a01b038984168116825295909516602086015291936001600160a01b0319927f5d065ed09f08f7097cb10b9eb7dcca8928903e9d07ab34b9075dc83c39f381ac9187915f8051602061541483398151915291a3161790555f8061202c565b601384018054604080516001600160a01b038984168116825295909516602086015291936001600160a01b0319927f2822d734b7f548aead5dffdb79a1d04beee6bedc39c1fe6b31f1db55b5b432a89187915f8051602061541483398151915291a3161790555f80612016565b601284018054604080516001600160a01b038984168116825295909516602086015291936001600160a01b0319927f64b344ea52e7d4fb7b6ebe47cbbbbaf6c3cead98ea350e4b7972fbb247fe424c9187915f8051602061541483398151915291a3161790555f80612000565b601184018054604080516001600160a01b038984168116825295909516602086015291936001600160a01b0319927f32afddabd709addf4415072b8d91182991dca79db32c8f955b2de08fde6a6f5b9187915f8051602061541483398151915291a3161790555f80611fea565b601084018054604080516001600160a01b038984168116825295909516602086015291936001600160a01b0319927f7b5100c5075e8b464921c50f00e473a3bc0c31203deea60edb85769b757f8bf39187915f8051602061541483398151915291a3161790555f80611fd4565b600f84018054604080516001600160a01b038984168116825295909516602086015291936001600160a01b0319927f462e21731791a88fbc3d6e262bf146c4157be7e45705bcc62f1a363fee3c48269187915f8051602061541483398151915291a3161790555f80611fbe565b600e84018054604080516001600160a01b038984168116825295909516602086015291936001600160a01b0319927fb8cb7564b4fae24959e5c4110e8d9cf91dec7f90b166d06cf5ec514d3c9572bb9187915f8051602061541483398151915291a3161790555f80611fa8565b600d84018054604080516001600160a01b038984168116825295909516602086015291936001600160a01b0319927f666ae48d5d989da88ad33b18d9ad1eb36fb06da47a87e3848edc838a0c833b669187915f8051602061541483398151915291a3161790555f80611f92565b600c84018054604080516001600160a01b038984168116825295909516602086015291936001600160a01b0319927fbff2e278cc551512f9de0667dc3c1f1adc56d0fa1cc74c9c4bc2fdb3bf19b4eb9187915f8051602061541483398151915291a3161790555f80611f7c565b600b84018054604080516001600160a01b038984168116825295909516602086015291936001600160a01b0319927f4347b7879af66b5dbc633ac7823917506d8e6f9413913e212b835d7d207618e69187915f8051602061541483398151915291a3161790555f80611f66565b600a84018054604080516001600160a01b038984168116825295909516602086015291936001600160a01b0319927f53f851c2f0120d87a66d7c53ece15902d923fb3a96f123db6800bb40afe22dd99187915f8051602061541483398151915291a3161790555f80611f51565b600984018054604080516001600160a01b038984168116825295909516602086015291936001600160a01b0319927fe8c109986cf423efdcea0006729e534fc595d32c889b5db8f41e3c1e396608ca9187915f8051602061541483398151915291a3161790555f80611f3c565b600884018054604080516001600160a01b038984168116825295909516602086015291936001600160a01b0319927f268198d81cd5de2a4c427017a36e6262825f97fa3f1ca0d7bccee07cfae2ad589187915f8051602061541483398151915291a3161790555f80611f27565b600784018054604080516001600160a01b038984168116825295909516602086015291936001600160a01b0319927f1e46cebd6689d8c64011118478db0c61a89aa2646c860df401de476fbf3789839187915f8051602061541483398151915291a3161790555f80611f12565b600684018054604080516001600160a01b038984168116825295909516602086015291936001600160a01b0319927f1738168993c657b31bb6b4ae2a138e1b0ce7a642a4f833580e270a93ac3019c39187915f8051602061541483398151915291a3161790555f80611efd565b600584018054604080516001600160a01b038984168116825295909516602086015291936001600160a01b0319927fbb08281a0f98e2046588a698be9c1af9fc5ce8c044126c7d453aed8e646637349187915f8051602061541483398151915291a3161790555f80611ee8565b503461078057602036600319011261078057600435612c4c81614d4b565b604051907fa1debd1300000000000000000000000000000000000000000000000000000000825260048201526060816024816001600160a01b037f0000000000000000000000000000000000000000000000000000000000000000165afa8015611c4b5782918391612cdf575b50612cdb90604051938493846040919493926060820195825260208201520152565b0390f35b9050612cdb9250612d08915060603d606011612d0f575b612d008183614ab4565b810190614c4f565b9092612cb9565b503d612cf6565b50346107805780600319360112610780576020600654604051908152f35b503461078057806003193601126107805760206040517f71f3d55856e4058ed06ee057d79ada615f65cdf5f9ee88181b914225088f834f8152f35b503461078057612d7e3661494f565b9190612d8982614d4b565b612d9282614dae565b7f71f3d55856e4058ed06ee057d79ada615f65cdf5f9ee88181b914225088f834f8303612e37576001600160a01b039082855260016020526040852082821690815f5260205260405f209060ff1991828154169055848752600360205260408720905f5260205260405f20858752602052604086209081541690555b16907f5d889adddd84715508093563ae8da798a941b4accfcda9c79f2bba3a2602dd718480a480f35b7f850d585eb7f024ccee5e68e55f2c26cc72e1e6ee456acf62135757a5eb9d4a108303612eb7576001600160a01b039082855260026020526040852082821690815f5260205260405f209060ff1991828154169055848752600360205260408720905f5260205260405f2085875260205260408620908154169055612e0e565b60405163d647364f60e01b815260206004820152600c60248201527f496e76616c696420726f6c6500000000000000000000000000000000000000006044820152606490fd5b503461078057602036600319011261078057600435612f1b81614d4b565b604051907fa3a2479200000000000000000000000000000000000000000000000000000000825260048201526060816024816001600160a01b037f0000000000000000000000000000000000000000000000000000000000000000165afa8015611c4b5782918391612cdf5750612cdb90604051938493846040919493926060820195825260208201520152565b50346107805760ff6040602092612fbf3661494f565b918352600386526001600160a01b0384842091165f528552825f2090825284522054166040519015158152f35b503461078057602080600319360112610846576004359061300c82614d4b565b6001600160a01b0392837f00000000000000000000000000000000000000000000000000000000000000001691604051917fd32d0ade000000000000000000000000000000000000000000000000000000008352846004840152608083602481875afa9485156133bd578193829683918491613352575b5061ffff91604051937fa93ed1ba00000000000000000000000000000000000000000000000000000000855286856004818c5afa948515613318578695613323575b50604051947f6a062954000000000000000000000000000000000000000000000000000000008652816004870152602486015286856044818c5afa9485156133185786956132e9575b50604051907fa5afc4c600000000000000000000000000000000000000000000000000000000825287826004818d5afa9182156132de579087929183926132ab575b506044906040519b8c9384927f0bcb2f93000000000000000000000000000000000000000000000000000000008452600484015260248301525afa9788156132a05785986131fd575b5060ff9083604098979698519a8160c08d0199168c5216868b0152166040890152166060870152608086015260c060a086015283518092528060e086019401925b8281106131e75785850386f35b83518716855293810193928101926001016131da565b9097503d8086833e61320f8183614ab4565b8101908681830312611c725780519067ffffffffffffffff8211611c6e57019080601f83011215611c7257815161324581614c06565b926132536040519485614ab4565b818452888085019260051b82010192831161329c578801905b8282106132805750505060ff909790613199565b81518d8116810361329857815290880190880161326c565b8880fd5b8780fd5b6040513d87823e3d90fd5b925090508782813d81116132d7575b6132c48183614ab4565b8101031261118e57905186916044613150565b503d6132ba565b6040513d89823e3d90fd5b9094508681813d8311613311575b6133018183614ab4565b81010312611c725751935f61310e565b503d6132f7565b6040513d88823e3d90fd5b9094508681813d831161334b575b61333b8183614ab4565b8101031261118e5751935f6130c5565b503d613331565b9750505092506080853d6080116133b5575b8161337160809383614ab4565b810103126107805761338285614c40565b9261338e838701614c40565b9360408701519660ff88168803611c765760606133ab9101614c40565b909496905f613083565b3d9150613364565b50604051903d90823e3d90fd5b5034610780576020366003190112610780576040906004356133eb81614d4b565b815280602052206134036020601f8301549201614b78565b90612cdb60405192839283526040602084015260408301906149cd565b5034610780576040366003190112610780576001600160a01b036040613444614939565b92600435815260016020522091165f52602052602060ff60405f2054166040519015158152f35b503461078057806003193601126107805760206040517f850d585eb7f024ccee5e68e55f2c26cc72e1e6ee456acf62135757a5eb9d4a108152f35b50346107805780600319360112610780576006546134dc6134c682614c06565b916134d46040519384614ab4565b808352614c06565b60209290601f1901368385013780600193600192600590600554945b8581106135155760405160208082528190612cdb9082018a6149cd565b808891835282855260ff600360408520015416613533575b016134f8565b9490508651811015613558576135528186868b94871b8b010152614c1e565b9461352d565b602482634e487b7160e01b81526032600452fd5b50346107805761357b36614979565b9061358581614d4b565b61358e82614d4b565b61359781614dae565b8181146135f357808352826020526135b58260206040862001614bc6565b818352826020526135cc8160206040862001614bc6565b7fe4efcf2d01d38d3de90c4288e3533ee47fe8f6dd7ea0253636790b242dc705108380a380f35b606460405163d647364f60e01b815260206004820152601560248201527f43616e6e6f7420616c6c7920776974682073656c6600000000000000000000006044820152fd5b5034610780576040366003190112610780576001600160a01b03604061365c614939565b92600435815260026020522091165f52602052602060ff60405f2054166040519015158152f35b5034610780576020366003190112610780576040612cdb91606061040083516136ab81614a7a565b828152826020820152828582015283838201528360808201528360a08201528360c08201528360e08201528361010082015283610120820152836101408201528361016082015283610180820152836101a0820152836101c0820152836101e08201528361020082015283610220820152836102408201528361026082015283610280820152836102a0820152836102c0820152836102e08201528361030082015283610320820152836103408201528361036082015283610380820152836103a0820152836103c0820152836103e0820152015261378b600435614d4b565b60043581528060205220613a026020604051926137a784614a7a565b6137b081614ad6565b84526137be60018201614ad6565b828501526137ce60028201614ad6565b604085015260ff60038201541615156060850152600481015460808501526001600160a01b0360058201541660a08501526001600160a01b0360068201541660c08501526001600160a01b0360078201541660e08501526001600160a01b036008820154166101008501526001600160a01b036009820154166101208501526001600160a01b03600a820154166101408501526001600160a01b03600b820154166101608501526001600160a01b03600c820154166101808501526001600160a01b03600d820154166101a08501526001600160a01b03600e820154166101c08501526001600160a01b03600f820154166101e08501526001600160a01b036010820154166102008501526001600160a01b036011820154166102208501526001600160a01b036012820154166102408501526001600160a01b036013820154166102608501526001600160a01b036014820154166102808501526001600160a01b036015820154166102a08501526001600160a01b036016820154166102c08501526001600160a01b036017820154166102e08501526001600160a01b036018820154166103008501526001600160a01b036019820154166103208501526001600160a01b03601a820154166103408501526001600160a01b03601b820154166103608501526001600160a01b03601c820154166103808501526001600160a01b03601d820154166103a08501526001600160a01b03601e820154166103c0850152601f8101546103e085015201614b78565b61040082015260405191829160208352610400613a5f613a49613a338451610420602089015261044088019061498f565b6020850151878203601f1901604089015261498f565b6040840151868203601f1901606088015261498f565b91606081015115156080860152608081015160a08601526001600160a01b0360a08201511660c08601526001600160a01b0360c08201511660e08601526001600160a01b0360e0820151166101008601526001600160a01b03610100820151166101208601526001600160a01b03610120820151166101408601526001600160a01b03610140820151166101608601526001600160a01b03610160820151166101808601526001600160a01b03610180820151166101a08601526001600160a01b036101a0820151166101c08601526001600160a01b036101c0820151166101e08601526001600160a01b036101e0820151166102008601526001600160a01b03610200820151166102208601526001600160a01b03610220820151166102408601526001600160a01b03610240820151166102608601526001600160a01b03610260820151166102808601526001600160a01b03610280820151166102a08601526001600160a01b036102a0820151166102c08601526001600160a01b036102c0820151166102e08601526001600160a01b036102e0820151166103008601526001600160a01b03610300820151166103208601526001600160a01b03610320820151166103408601526001600160a01b03610340820151166103608601526001600160a01b03610360820151166103808601526001600160a01b03610380820151166103a08601526001600160a01b036103a0820151166103c08601526001600160a01b036103c0820151166103e08601526103e0810151828601520151601f19848303016104208501526149cd565b5034610780576040366003190112610780576001600160a01b036040613cd5614939565b92600435815260046020522091165f52602052602060ff60405f2054166040519015158152f35b5034610780576001600160a01b03613d133661494f565b9290613d1e83614d4b565b613d2783614dae565b16908115613e42577f71f3d55856e4058ed06ee057d79ada615f65cdf5f9ee88181b914225088f834f8303613dca57808452600160205260408420825f5260205260405f2060ff1990600182825416179055818552600360205260408520835f5260205260405f20848652602052600160408620918254161790555b7f94765e3c1e0f3b4ba19015a25eec7ec04cb5c6acc83a4ac9cac5cf4412abf8488480a480f35b7f850d585eb7f024ccee5e68e55f2c26cc72e1e6ee456acf62135757a5eb9d4a108303612eb757808452600260205260408420825f5260205260405f2060ff1990600182825416179055818552600360205260408520835f5260205260405f2084865260205260016040862091825416179055613da3565b60046040517fd92e233d000000000000000000000000000000000000000000000000000000008152fd5b503461078057613e7b36614979565b90613e8581614d4b565b613e8e81614de2565b613e988282614f18565b80835282602052601f60408420019082825492557f631f679f58452626ff7f3e74d02a628170dac32fea0201f8297036b46628b8c18480a480f35b5034610780576060366003190112610780576024356004356001600160a01b036044358181169182820361118e57613f0a84614d4b565b613f1384614dae565b8386528560205260408620927fbb08281a0f98e2046588a698be9c1af9fc5ce8c044126c7d453aed8e6466373486145f14613f8e5760055f805160206154148339815191529401906001600160a01b0319825493841693161790555b604080516001600160a01b03928316815292909116602083015290a380f35b7f1738168993c657b31bb6b4ae2a138e1b0ce7a642a4f833580e270a93ac3019c38603613fe05760065f805160206154148339815191529401906001600160a01b031982549384169316179055613f6f565b7f1e46cebd6689d8c64011118478db0c61a89aa2646c860df401de476fbf37898386036140325760075f805160206154148339815191529401906001600160a01b031982549384169316179055613f6f565b7f268198d81cd5de2a4c427017a36e6262825f97fa3f1ca0d7bccee07cfae2ad5886036140845760085f805160206154148339815191529401906001600160a01b031982549384169316179055613f6f565b7fe8c109986cf423efdcea0006729e534fc595d32c889b5db8f41e3c1e396608ca86036140d65760095f805160206154148339815191529401906001600160a01b031982549384169316179055613f6f565b7f53f851c2f0120d87a66d7c53ece15902d923fb3a96f123db6800bb40afe22dd9860361412857600a5f805160206154148339815191529401906001600160a01b031982549384169316179055613f6f565b7f4347b7879af66b5dbc633ac7823917506d8e6f9413913e212b835d7d207618e6860361417a57600b5f805160206154148339815191529401906001600160a01b031982549384169316179055613f6f565b7fbff2e278cc551512f9de0667dc3c1f1adc56d0fa1cc74c9c4bc2fdb3bf19b4eb86036141cc57600c5f805160206154148339815191529401906001600160a01b031982549384169316179055613f6f565b7f666ae48d5d989da88ad33b18d9ad1eb36fb06da47a87e3848edc838a0c833b66860361421e57600d5f805160206154148339815191529401906001600160a01b031982549384169316179055613f6f565b7fb8cb7564b4fae24959e5c4110e8d9cf91dec7f90b166d06cf5ec514d3c9572bb860361427057600e5f805160206154148339815191529401906001600160a01b031982549384169316179055613f6f565b7f462e21731791a88fbc3d6e262bf146c4157be7e45705bcc62f1a363fee3c482686036142c257600f5f805160206154148339815191529401906001600160a01b031982549384169316179055613f6f565b7f7b5100c5075e8b464921c50f00e473a3bc0c31203deea60edb85769b757f8bf386036143145760105f805160206154148339815191529401906001600160a01b031982549384169316179055613f6f565b7f32afddabd709addf4415072b8d91182991dca79db32c8f955b2de08fde6a6f5b86036143665760115f805160206154148339815191529401906001600160a01b031982549384169316179055613f6f565b7f64b344ea52e7d4fb7b6ebe47cbbbbaf6c3cead98ea350e4b7972fbb247fe424c86036143b85760125f805160206154148339815191529401906001600160a01b031982549384169316179055613f6f565b7f2822d734b7f548aead5dffdb79a1d04beee6bedc39c1fe6b31f1db55b5b432a8860361440a5760135f805160206154148339815191529401906001600160a01b031982549384169316179055613f6f565b7f5d065ed09f08f7097cb10b9eb7dcca8928903e9d07ab34b9075dc83c39f381ac860361445c5760145f805160206154148339815191529401906001600160a01b031982549384169316179055613f6f565b7f9186309698ee627a535c955ea1228e075c42d3a0a1d08728ecfd9e895f4199d486036144ae5760155f805160206154148339815191529401906001600160a01b031982549384169316179055613f6f565b7fb854146362255d5eede99c74f1b401239cdf7180a0c47f511c1557e6409c7b4b86036145005760165f805160206154148339815191529401906001600160a01b031982549384169316179055613f6f565b7fe43d20cf7f6a2ff14d5f0335d5c7789349ccc63ae1114e12b0bd87c3f1e951a186036145525760175f805160206154148339815191529401906001600160a01b031982549384169316179055613f6f565b7f5a200776fcd7bd781b66706fec6e1b18f0621e153b73c7363545fca20f04a1d286036145a45760185f805160206154148339815191529401906001600160a01b031982549384169316179055613f6f565b7f98e8485c9f8d32054528913734a0b61a027120b5b579681fd3be4ad009f54d8886036145f65760195f805160206154148339815191529401906001600160a01b031982549384169316179055613f6f565b7f8261c36d170ec64b60c2f015482418cba997cb5d3787c13f43e3e29e3713a3aa860361464857601a5f805160206154148339815191529401906001600160a01b031982549384169316179055613f6f565b7f63dd945f73078583ef50fd03af198fa3c78e7933617ee2aed52ef628f45ded68860361469a57601b5f805160206154148339815191529401906001600160a01b031982549384169316179055613f6f565b7fcef6e888ca344077e889d6d961447b180a6f2c1f8a3a4b954e2385449143c6c886036146ec57601c5f805160206154148339815191529401906001600160a01b031982549384169316179055613f6f565b7fb8ea76e94f1fa1c619a101614916e863c5e94c9a7af818d1349dbd7764e83144860361473e57601d5f805160206154148339815191529401906001600160a01b031982549384169316179055613f6f565b7f7df47a1017c379bfcdc814d9844a4203915311da1b67a3deaa8ac0408df74133860361479057601e5f805160206154148339815191529401906001600160a01b031982549384169316179055613f6f565b606460405163d647364f60e01b815260206004820152601260248201527f556e6b6e6f776e206d6f64756c65206b657900000000000000000000000000006044820152fd5b503461118e57602036600319011261118e576004356147f381614d4b565b6147fc81614dae565b6001600160a01b037f00000000000000000000000000000000000000000000000000000000000000001690813b1561118e575f916044839260405194859384927f612dca9800000000000000000000000000000000000000000000000000000000845260048401523360248401525af180156148865761487a575080f35b6148849150614a66565b005b6040513d5f823e3d90fd5b3461118e5761489f3661494f565b916148a981614d4b565b5f5260036020526001600160a01b0360405f2091165f5260205260405f20905f52602052602060ff60405f2054166040519015158152f35b3461118e57602036600319011261118e576004356148fe81614d4b565b5f525f60205260206001600160a01b03600860405f20015416604051908152f35b3461118e575f36600319011261118e576020906005548152f35b602435906001600160a01b038216820361118e57565b606090600319011261118e57600435906024356001600160a01b038116810361118e579060443590565b604090600319011261118e576004359060243590565b91908251928382525f5b8481106149b9575050825f602080949584010152601f8019910116010190565b602081830181015184830182015201614999565b9081518082526020808093019301915f5b8281106149ec575050505090565b8351855293810193928101926001016149de565b9181601f8401121561118e5782359167ffffffffffffffff831161118e576020838186019501011161118e57565b90600182811c92168015614a5c575b6020831014614a4857565b634e487b7160e01b5f52602260045260245ffd5b91607f1691614a3d565b67ffffffffffffffff8111611c5657604052565b610420810190811067ffffffffffffffff821117611c5657604052565b610340810190811067ffffffffffffffff821117611c5657604052565b90601f8019910116810190811067ffffffffffffffff821117611c5657604052565b9060405191825f8254614ae881614a2e565b908184526020946001916001811690815f14614b565750600114614b18575b505050614b1692500383614ab4565b565b5f90815285812095935091905b818310614b3e575050614b1693508201015f8080614b07565b85548884018501529485019487945091830191614b25565b92505050614b1694925060ff191682840152151560051b8201015f8080614b07565b90604051918281549182825260209260208301915f5260205f20935f905b828210614bac57505050614b1692500383614ab4565b855484526001958601958895509381019390910190614b96565b80549068010000000000000000821015611c565760018201808255821015614bf2575f5260205f200155565b634e487b7160e01b5f52603260045260245ffd5b67ffffffffffffffff8111611c565760051b60200190565b5f198114614c2c5760010190565b634e487b7160e01b5f52601160045260245ffd5b519061ffff8216820361118e57565b9081606091031261118e578051916040602083015192015190565b908060209392818452848401375f828201840152601f01601f1916010190565b90614c9482614d4b565b614c9d82614dae565b815f525f602052600360405f200190815491811515928360ff8216151514614d445760ff191660ff841617905515614d0b5760207f1b33bf721278476ef24ca6ec530cfd3532aa6a88fe28b73f6bdf0f74e3ee52cc91614cfe600654614c1e565b6006555b604051908152a2565b6006548015614c2c575f19016006557f1b33bf721278476ef24ca6ec530cfd3532aa6a88fe28b73f6bdf0f74e3ee52cc90602090614d02565b5050505050565b8015908115614da1575b50614d5c57565b606460405163d647364f60e01b815260206004820152601860248201527f436f6d6d756e69747920646f6573206e6f7420657869737400000000000000006044820152fd5b905060055411155f614d55565b5f52600460205260405f20335f5260205260ff60405f205416614b16576024604051634a0bfec160e01b8152336004820152fd5b5f525f6020526001600160a01b03600860405f200154168015614e1e573303614e0757565b6024604051634a0bfec160e01b8152336004820152fd5b606460405163d647364f60e01b815260206004820152601a60248201527f436f6d6d756e6974792074696d656c6f636b206e6f74207365740000000000006044820152fd5b8015614f1557600554811015614ed0575f525f60205260ff600360405f2001541615614e8b57565b606460405163d647364f60e01b815260206004820152601b60248201527f506172656e7420636f6d6d756e697479206e6f742061637469766500000000006044820152fd5b606460405163d647364f60e01b815260206004820152601f60248201527f506172656e7420636f6d6d756e69747920646f6573206e6f74206578697374006044820152fd5b50565b8115614fb1578114614f4657600554811015614ed0575f525f60205260ff600360405f2001541615614e8b57565b608460405163d647364f60e01b815260206004820152602260248201527f436f6d6d756e6974792063616e6e6f7420626520697473206f776e207061726560448201527f6e740000000000000000000000000000000000000000000000000000000000006064820152fd5b5050565b929694939795909182156153ce57614fcc82614e63565b60055494614fd986614c1e565b6005558598865f525f60205260405f209267ffffffffffffffff8611611c56576150038454614a2e565b601f8111615389575b50855f601f8211600114615324575f91615319575b508660011b905f198860031b1c19161784555b67ffffffffffffffff8211611c565781906150526001860154614a2e565b601f81116152c6575b505f90601f8311600114615259575f9261524e575b50508160011b915f199060031b1c19161760018301555b600282019067ffffffffffffffff8111611c56576150a58254614a2e565b601f8111615209575b505f601f82116001146151805781907f4efcb338ffccf7b085281c4db55554049eb8f23f9d2b09327c3756f0cf2a213f98999a9b9c5f92615175575b50508160011b915f199060031b1c19161790555b81601f600383019260ff19936001858254161790554260048201550155855f5260046020526001600160a01b0360405f20971696875f52602052600160405f2091825416179055615150600654614c1e565b60065561516a604051938493604085526040850191614c6a565b9060208301520390a3565b013590505f806150ea565b601f19821690835f5260205f20915f5b8181106151f157509c8392916001947f4efcb338ffccf7b085281c4db55554049eb8f23f9d2b09327c3756f0cf2a213f9b9c9d9e9f106151d8575b505050811b0190556150fe565b01355f19600384901b60f8161c191690555f80806151cb565b8e830135845560019093019260209283019201615190565b825f5260205f20601f830160051c81019160208410615244575b601f0160051c01905b81811061523957506150ae565b5f815560010161522c565b9091508190615223565b013590505f80615070565b909150601f19831691600186015f5260205f20925f5b8181106152ae5750908460019594939210615295575b505050811b016001830155615087565b01355f19600384901b60f8161c191690555f8080615285565b9193602060018192878701358155019501920161526f565b909150600185015f5260205f20601f840160051c8101916020851061530f575b90601f859493920160051c01905b818110615301575061505b565b5f81558493506001016152f4565b90915081906152e6565b90508701355f615021565b5f8681526020812092508890601f198216905b8b82821061536f57505010615356575b5050600186811b018455615034565b8801355f19600389901b60f8161c191690555f80615347565b84013585556001909401936020938401938b935001615337565b845f5260205f20601f880160051c810191602089106153c4575b601f0160051c01905b8181106153b9575061500c565b5f81556001016153ac565b90915081906153a3565b606460405163d647364f60e01b815260206004820152601e60248201527f436f6d6d756e697479206e616d652063616e6e6f7420626520656d70747900006044820152fdfe2f3bea06c6e9b63d5e7c84a6bc5a08817c09192cdc87f2ec5a5fecc2a7dd503ba26469706673582212206e51a58331f804ad7d435c0338775e0e211a447cae218e378064475397537fb064736f6c63430008180033","linkReferences":{}},"methodIdentifiers":{"CURATOR_ROLE()":"4a2cfb54","GOVERNANCE_ROLE()":"f36c8f5c","MODERATOR_ROLE()":"797669c9","activeCommunityCount()":"826410c4","bootstrapCommunity(string,string,string,uint256,(uint256,uint256,uint256,bool,uint256,uint256,uint256,uint256,uint256,uint256,uint256,uint256,uint16,uint16,uint8,uint16),(address,address,address,address,address,address,address,address,address,address,address,address,address,address,address,address,address,address,address,address,address,address,address,address,address,address))":"a9c50fd3","communities(uint256)":"e590b56a","communityAdmins(uint256,address)":"3688da79","communityRoles(uint256,address,bytes32)":"555973c4","curators(uint256,address)":"3b472460","formAlliance(uint256,uint256)":"45dc2308","getActiveCommunities()":"49dc706b","getCommunity(uint256)":"370603f8","getCommunityModules(uint256)":"f830e348","getCommunityRelationships(uint256)":"4fbcf131","getEconomicParameters(uint256)":"50c76b46","getEligibilityRules(uint256)":"560d4015","getGovernanceParameters(uint256)":"8594e56c","getTimelock(uint256)":"10b18438","grantCommunityRole(uint256,address,bytes32)":"33624966","hasRole(uint256,address,bytes32)":"1ca5b571","initializeDefaultParameters(uint256)":"21be27b8","moderators(uint256,address)":"4d609b01","nextCommunityId()":"06055b84","paramController()":"d0d1854d","registerCommunity(string,string,string,uint256)":"f1b150bd","revokeCommunityRole(uint256,address,bytes32)":"628005b5","setCommunityStatus(uint256,bool)":"9f9e8871","setModuleAddress(uint256,bytes32,address)":"2530ebb3","setModuleAddresses(uint256,(address,address,address,address,address,address,address,address,address,address,address,address,address,address,address,address,address,address,address,address,address,address,address,address,address,address))":"925291e7","updateCommunityMetadataURI(uint256,string)":"9b6070bd","updateParentCommunity(uint256,uint256)":"33083a61"},"id":14}