{"abi":[{"type":"constructor","inputs":[{"name":"initialAdmin","type":"address","internalType":"address"},{"name":"_paramController","type":"address","internalType":"address"}],"stateMutability":"nonpayable"},{"type":"function","name":"CURATOR_ROLE","inputs":[],"outputs":[{"name":"","type":"bytes32","internalType":"bytes32"}],"stateMutability":"view"},{"type":"function","name":"DEFAULT_ADMIN_ROLE","inputs":[],"outputs":[{"name":"","type":"bytes32","internalType":"bytes32"}],"stateMutability":"view"},{"type":"function","name":"GOVERNANCE_ROLE","inputs":[],"outputs":[{"name":"","type":"bytes32","internalType":"bytes32"}],"stateMutability":"view"},{"type":"function","name":"MODERATOR_ROLE","inputs":[],"outputs":[{"name":"","type":"bytes32","internalType":"bytes32"}],"stateMutability":"view"},{"type":"function","name":"activeCommunityCount","inputs":[],"outputs":[{"name":"","type":"uint256","internalType":"uint256"}],"stateMutability":"view"},{"type":"function","name":"communities","inputs":[{"name":"","type":"uint256","internalType":"uint256"}],"outputs":[{"name":"name","type":"string","internalType":"string"},{"name":"description","type":"string","internalType":"string"},{"name":"metadataURI","type":"string","internalType":"string"},{"name":"active","type":"bool","internalType":"bool"},{"name":"createdAt","type":"uint256","internalType":"uint256"},{"name":"governor","type":"address","internalType":"address"},{"name":"timelock","type":"address","internalType":"address"},{"name":"requestHub","type":"address","internalType":"address"},{"name":"draftsManager","type":"address","internalType":"address"},{"name":"engagementsManager","type":"address","internalType":"address"},{"name":"valuableActionRegistry","type":"address","internalType":"address"},{"name":"verifierPowerToken","type":"address","internalType":"address"},{"name":"verifierElection","type":"address","internalType":"address"},{"name":"verifierManager","type":"address","internalType":"address"},{"name":"valuableActionSBT","type":"address","internalType":"address"},{"name":"treasuryAdapter","type":"address","internalType":"address"},{"name":"communityToken","type":"address","internalType":"address"},{"name":"paramController","type":"address","internalType":"address"},{"name":"parentCommunityId","type":"uint256","internalType":"uint256"}],"stateMutability":"view"},{"type":"function","name":"communityAdmins","inputs":[{"name":"","type":"uint256","internalType":"uint256"},{"name":"","type":"address","internalType":"address"}],"outputs":[{"name":"","type":"bool","internalType":"bool"}],"stateMutability":"view"},{"type":"function","name":"communityRoles","inputs":[{"name":"","type":"uint256","internalType":"uint256"},{"name":"","type":"address","internalType":"address"},{"name":"","type":"bytes32","internalType":"bytes32"}],"outputs":[{"name":"","type":"bool","internalType":"bool"}],"stateMutability":"view"},{"type":"function","name":"curators","inputs":[{"name":"","type":"uint256","internalType":"uint256"},{"name":"","type":"address","internalType":"address"}],"outputs":[{"name":"","type":"bool","internalType":"bool"}],"stateMutability":"view"},{"type":"function","name":"formAlliance","inputs":[{"name":"communityId1","type":"uint256","internalType":"uint256"},{"name":"communityId2","type":"uint256","internalType":"uint256"}],"outputs":[],"stateMutability":"nonpayable"},{"type":"function","name":"getActiveCommunities","inputs":[],"outputs":[{"name":"","type":"uint256[]","internalType":"uint256[]"}],"stateMutability":"view"},{"type":"function","name":"getCommunity","inputs":[{"name":"communityId","type":"uint256","internalType":"uint256"}],"outputs":[{"name":"","type":"tuple","internalType":"struct CommunityRegistry.Community","components":[{"name":"name","type":"string","internalType":"string"},{"name":"description","type":"string","internalType":"string"},{"name":"metadataURI","type":"string","internalType":"string"},{"name":"active","type":"bool","internalType":"bool"},{"name":"createdAt","type":"uint256","internalType":"uint256"},{"name":"governor","type":"address","internalType":"address"},{"name":"timelock","type":"address","internalType":"address"},{"name":"requestHub","type":"address","internalType":"address"},{"name":"draftsManager","type":"address","internalType":"address"},{"name":"engagementsManager","type":"address","internalType":"address"},{"name":"valuableActionRegistry","type":"address","internalType":"address"},{"name":"verifierPowerToken","type":"address","internalType":"address"},{"name":"verifierElection","type":"address","internalType":"address"},{"name":"verifierManager","type":"address","internalType":"address"},{"name":"valuableActionSBT","type":"address","internalType":"address"},{"name":"treasuryAdapter","type":"address","internalType":"address"},{"name":"communityToken","type":"address","internalType":"address"},{"name":"paramController","type":"address","internalType":"address"},{"name":"parentCommunityId","type":"uint256","internalType":"uint256"},{"name":"allyCommunityIds","type":"uint256[]","internalType":"uint256[]"}]}],"stateMutability":"view"},{"type":"function","name":"getCommunityModules","inputs":[{"name":"communityId","type":"uint256","internalType":"uint256"}],"outputs":[{"name":"","type":"tuple","internalType":"struct CommunityRegistry.ModuleAddresses","components":[{"name":"governor","type":"address","internalType":"address"},{"name":"timelock","type":"address","internalType":"address"},{"name":"requestHub","type":"address","internalType":"address"},{"name":"draftsManager","type":"address","internalType":"address"},{"name":"engagementsManager","type":"address","internalType":"address"},{"name":"valuableActionRegistry","type":"address","internalType":"address"},{"name":"verifierPowerToken","type":"address","internalType":"address"},{"name":"verifierElection","type":"address","internalType":"address"},{"name":"verifierManager","type":"address","internalType":"address"},{"name":"valuableActionSBT","type":"address","internalType":"address"},{"name":"treasuryAdapter","type":"address","internalType":"address"},{"name":"communityToken","type":"address","internalType":"address"},{"name":"paramController","type":"address","internalType":"address"}]}],"stateMutability":"view"},{"type":"function","name":"getCommunityRelationships","inputs":[{"name":"communityId","type":"uint256","internalType":"uint256"}],"outputs":[{"name":"parentCommunityId","type":"uint256","internalType":"uint256"},{"name":"allyCommunityIds","type":"uint256[]","internalType":"uint256[]"}],"stateMutability":"view"},{"type":"function","name":"getEconomicParameters","inputs":[{"name":"communityId","type":"uint256","internalType":"uint256"}],"outputs":[{"name":"minWorkersBps","type":"uint256","internalType":"uint256"},{"name":"treasuryBps","type":"uint256","internalType":"uint256"},{"name":"investorsBps","type":"uint256","internalType":"uint256"},{"name":"spilloverTarget","type":"uint8","internalType":"uint8"},{"name":"feeOnWithdraw","type":"uint256","internalType":"uint256"},{"name":"backingAssets","type":"address[]","internalType":"address[]"}],"stateMutability":"view"},{"type":"function","name":"getEligibilityRules","inputs":[{"name":"communityId","type":"uint256","internalType":"uint256"}],"outputs":[{"name":"minSeniority","type":"uint256","internalType":"uint256"},{"name":"minSBTs","type":"uint256","internalType":"uint256"},{"name":"proposalThreshold","type":"uint256","internalType":"uint256"}],"stateMutability":"view"},{"type":"function","name":"getGovernanceParameters","inputs":[{"name":"communityId","type":"uint256","internalType":"uint256"}],"outputs":[{"name":"debateWindow","type":"uint256","internalType":"uint256"},{"name":"voteWindow","type":"uint256","internalType":"uint256"},{"name":"executionDelay","type":"uint256","internalType":"uint256"}],"stateMutability":"view"},{"type":"function","name":"getModuleAddresses","inputs":[{"name":"communityId","type":"uint256","internalType":"uint256"}],"outputs":[{"name":"governor","type":"address","internalType":"address"},{"name":"timelock","type":"address","internalType":"address"},{"name":"requestHub","type":"address","internalType":"address"},{"name":"draftsManager","type":"address","internalType":"address"},{"name":"engagementsManager","type":"address","internalType":"address"},{"name":"valuableActionRegistry","type":"address","internalType":"address"},{"name":"valuableActionSBT","type":"address","internalType":"address"},{"name":"treasuryAdapter","type":"address","internalType":"address"},{"name":"communityToken","type":"address","internalType":"address"}],"stateMutability":"view"},{"type":"function","name":"getRoleAdmin","inputs":[{"name":"role","type":"bytes32","internalType":"bytes32"}],"outputs":[{"name":"","type":"bytes32","internalType":"bytes32"}],"stateMutability":"view"},{"type":"function","name":"grantCommunityRole","inputs":[{"name":"communityId","type":"uint256","internalType":"uint256"},{"name":"user","type":"address","internalType":"address"},{"name":"role","type":"bytes32","internalType":"bytes32"}],"outputs":[],"stateMutability":"nonpayable"},{"type":"function","name":"grantRole","inputs":[{"name":"role","type":"bytes32","internalType":"bytes32"},{"name":"account","type":"address","internalType":"address"}],"outputs":[],"stateMutability":"nonpayable"},{"type":"function","name":"hasRole","inputs":[{"name":"communityId","type":"uint256","internalType":"uint256"},{"name":"user","type":"address","internalType":"address"},{"name":"role","type":"bytes32","internalType":"bytes32"}],"outputs":[{"name":"","type":"bool","internalType":"bool"}],"stateMutability":"view"},{"type":"function","name":"hasRole","inputs":[{"name":"role","type":"bytes32","internalType":"bytes32"},{"name":"account","type":"address","internalType":"address"}],"outputs":[{"name":"","type":"bool","internalType":"bool"}],"stateMutability":"view"},{"type":"function","name":"initializeDefaultParameters","inputs":[{"name":"communityId","type":"uint256","internalType":"uint256"}],"outputs":[],"stateMutability":"nonpayable"},{"type":"function","name":"moderators","inputs":[{"name":"","type":"uint256","internalType":"uint256"},{"name":"","type":"address","internalType":"address"}],"outputs":[{"name":"","type":"bool","internalType":"bool"}],"stateMutability":"view"},{"type":"function","name":"nextCommunityId","inputs":[],"outputs":[{"name":"","type":"uint256","internalType":"uint256"}],"stateMutability":"view"},{"type":"function","name":"paramController","inputs":[],"outputs":[{"name":"","type":"address","internalType":"contract ParamController"}],"stateMutability":"view"},{"type":"function","name":"registerCommunity","inputs":[{"name":"name","type":"string","internalType":"string"},{"name":"description","type":"string","internalType":"string"},{"name":"metadataURI","type":"string","internalType":"string"},{"name":"parentCommunityId","type":"uint256","internalType":"uint256"}],"outputs":[{"name":"communityId","type":"uint256","internalType":"uint256"}],"stateMutability":"nonpayable"},{"type":"function","name":"renounceRole","inputs":[{"name":"role","type":"bytes32","internalType":"bytes32"},{"name":"callerConfirmation","type":"address","internalType":"address"}],"outputs":[],"stateMutability":"nonpayable"},{"type":"function","name":"revokeCommunityRole","inputs":[{"name":"communityId","type":"uint256","internalType":"uint256"},{"name":"user","type":"address","internalType":"address"},{"name":"role","type":"bytes32","internalType":"bytes32"}],"outputs":[],"stateMutability":"nonpayable"},{"type":"function","name":"revokeRole","inputs":[{"name":"role","type":"bytes32","internalType":"bytes32"},{"name":"account","type":"address","internalType":"address"}],"outputs":[],"stateMutability":"nonpayable"},{"type":"function","name":"setCommunityStatus","inputs":[{"name":"communityId","type":"uint256","internalType":"uint256"},{"name":"active","type":"bool","internalType":"bool"}],"outputs":[],"stateMutability":"nonpayable"},{"type":"function","name":"setModuleAddress","inputs":[{"name":"communityId","type":"uint256","internalType":"uint256"},{"name":"moduleKey","type":"bytes32","internalType":"bytes32"},{"name":"moduleAddress","type":"address","internalType":"address"}],"outputs":[],"stateMutability":"nonpayable"},{"type":"function","name":"setModuleAddresses","inputs":[{"name":"communityId","type":"uint256","internalType":"uint256"},{"name":"modules","type":"tuple","internalType":"struct CommunityRegistry.ModuleAddresses","components":[{"name":"governor","type":"address","internalType":"address"},{"name":"timelock","type":"address","internalType":"address"},{"name":"requestHub","type":"address","internalType":"address"},{"name":"draftsManager","type":"address","internalType":"address"},{"name":"engagementsManager","type":"address","internalType":"address"},{"name":"valuableActionRegistry","type":"address","internalType":"address"},{"name":"verifierPowerToken","type":"address","internalType":"address"},{"name":"verifierElection","type":"address","internalType":"address"},{"name":"verifierManager","type":"address","internalType":"address"},{"name":"valuableActionSBT","type":"address","internalType":"address"},{"name":"treasuryAdapter","type":"address","internalType":"address"},{"name":"communityToken","type":"address","internalType":"address"},{"name":"paramController","type":"address","internalType":"address"}]}],"outputs":[],"stateMutability":"nonpayable"},{"type":"function","name":"supportsInterface","inputs":[{"name":"interfaceId","type":"bytes4","internalType":"bytes4"}],"outputs":[{"name":"","type":"bool","internalType":"bool"}],"stateMutability":"view"},{"type":"event","name":"CommunityAllianceFormed","inputs":[{"name":"communityId1","type":"uint256","indexed":true,"internalType":"uint256"},{"name":"communityId2","type":"uint256","indexed":true,"internalType":"uint256"}],"anonymous":false},{"type":"event","name":"CommunityRegistered","inputs":[{"name":"communityId","type":"uint256","indexed":true,"internalType":"uint256"},{"name":"name","type":"string","indexed":false,"internalType":"string"},{"name":"creator","type":"address","indexed":true,"internalType":"address"},{"name":"parentCommunityId","type":"uint256","indexed":false,"internalType":"uint256"}],"anonymous":false},{"type":"event","name":"CommunityRoleGranted","inputs":[{"name":"communityId","type":"uint256","indexed":true,"internalType":"uint256"},{"name":"user","type":"address","indexed":true,"internalType":"address"},{"name":"role","type":"bytes32","indexed":true,"internalType":"bytes32"}],"anonymous":false},{"type":"event","name":"CommunityRoleRevoked","inputs":[{"name":"communityId","type":"uint256","indexed":true,"internalType":"uint256"},{"name":"user","type":"address","indexed":true,"internalType":"address"},{"name":"role","type":"bytes32","indexed":true,"internalType":"bytes32"}],"anonymous":false},{"type":"event","name":"CommunityStatusChanged","inputs":[{"name":"communityId","type":"uint256","indexed":true,"internalType":"uint256"},{"name":"active","type":"bool","indexed":false,"internalType":"bool"}],"anonymous":false},{"type":"event","name":"ModuleAddressUpdated","inputs":[{"name":"communityId","type":"uint256","indexed":true,"internalType":"uint256"},{"name":"moduleKey","type":"bytes32","indexed":true,"internalType":"bytes32"},{"name":"oldAddress","type":"address","indexed":false,"internalType":"address"},{"name":"newAddress","type":"address","indexed":false,"internalType":"address"}],"anonymous":false},{"type":"event","name":"RoleAdminChanged","inputs":[{"name":"role","type":"bytes32","indexed":true,"internalType":"bytes32"},{"name":"previousAdminRole","type":"bytes32","indexed":true,"internalType":"bytes32"},{"name":"newAdminRole","type":"bytes32","indexed":true,"internalType":"bytes32"}],"anonymous":false},{"type":"event","name":"RoleGranted","inputs":[{"name":"role","type":"bytes32","indexed":true,"internalType":"bytes32"},{"name":"account","type":"address","indexed":true,"internalType":"address"},{"name":"sender","type":"address","indexed":true,"internalType":"address"}],"anonymous":false},{"type":"event","name":"RoleRevoked","inputs":[{"name":"role","type":"bytes32","indexed":true,"internalType":"bytes32"},{"name":"account","type":"address","indexed":true,"internalType":"address"},{"name":"sender","type":"address","indexed":true,"internalType":"address"}],"anonymous":false},{"type":"error","name":"AccessControlBadConfirmation","inputs":[]},{"type":"error","name":"AccessControlUnauthorizedAccount","inputs":[{"name":"account","type":"address","internalType":"address"},{"name":"neededRole","type":"bytes32","internalType":"bytes32"}]},{"type":"error","name":"InvalidInput","inputs":[{"name":"reason","type":"string","internalType":"string"}]},{"type":"error","name":"NotAuthorized","inputs":[{"name":"caller","type":"address","internalType":"address"}]},{"type":"error","name":"ZeroAddress","inputs":[]}],"bytecode":{"object":"0x60a034620000d057601f6200362938819003918201601f19168301916001600160401b03831184841017620000d4578084926040948552833981010312620000d0576200005a60206200005283620000e8565b9201620000e8565b60016006556001600160a01b039082821615620000be5716908115620000be576200008590620000fd565b506080526040516134899081620001808239608051818181610c0f01528181610dc9015281816110a30152818161116501526129200152f35b60405163d92e233d60e01b8152600490fd5b5f80fd5b634e487b7160e01b5f52604160045260245ffd5b51906001600160a01b0382168203620000d057565b6001600160a01b03165f8181525f8051602062003609833981519152602052604090205460ff166200017a575f8181525f805160206200360983398151915260205260408120805460ff191660011790553391907f2f8788117e7eff1d82e926ec794901d17c78024a50270940304540a733656f0d8180a4600190565b505f9056fe610140806040526004361015610013575f80fd5b5f905f3560e01c90816301ffc9a714612c3a5750806306055b8414612c1d5780631ca5b57114612bcd57806321be27b8146128ed578063248a9ca3146128c15780632530ebb3146123ea5780632f2ff15d146123ad578063336249661461223d5780633600311b14611bf557806336568abe14611b955780633688da7914611b4a578063370603f81461178a5780633b4724601461173f57806345dc23081461166957806349dc706b146115a55780634a2cfb541461156a5780634d609b011461151f5780634fbcf131146114c857806350c76b4614611138578063555973c4146110f5578063560d401514611049578063628005b514610ebb578063797669c914610e80578063826410c414610e625780638594e56c14610d6f57806391d1485414610d255780639f9e887114610cf8578063a217fddf14610cdc578063b4fbd28614610c33578063d0d1854d14610bef578063d547741f14610bae578063e590b56a14610a00578063f1b150bd14610469578063f36c8f5c1461042e5763f830e348146101a0575f80fd5b3461042b57602036600319011261042b57600435816040516101c181612e2e565b8181528160208201528160408201528160608201528160808201528160a08201528160c08201528160e082015281610100820152816101208201528161014082015281610160820152610180015261021881613206565b815260016020526040902060058101546001600160a01b03169060068101546001600160a01b03169060078101546001600160a01b03169060088101546001600160a01b031660098201546001600160a01b0316600a8301546001600160a01b0316600b8401546001600160a01b0316600c8501546001600160a01b031690600d8601546001600160a01b031692600e8701546001600160a01b031694600f8801546001600160a01b03169660108901546001600160a01b031698601101546001600160a01b0316996040519b6102ee8d612e2e565b8d8d5260208d015260408c015260608b015260808a015260a089015260c088015260e087015261010086015261012085015261014084015261016083015261018082015260405191825260208101516001600160a01b0316602083015260408101516001600160a01b0316604083015260608101516001600160a01b0316606083015260808101516001600160a01b0316608083015260a08101516001600160a01b031660a083015260c08101516001600160a01b031660c083015260e08101516001600160a01b031660e08301526101008101516001600160a01b03166101008301526101208101516001600160a01b03166101208301526101408101516001600160a01b03166101408301526101608101516001600160a01b031661016083015261018001516001600160a01b03166101808201526101a090f35b80fd5b503461042b578060031936011261042b5760206040517f71840dc4906352362b0cdaf79870196c8e42acafade72d5d5a6d59291253ceb18152f35b503461042b57608036600319011261042b5760043567ffffffffffffffff81116109f85761049b903690600401612f0f565b60249291923567ffffffffffffffff81116109fc576104be903690600401612f0f565b9260443567ffffffffffffffff81116109f8576104df903690600401612f0f565b84939193156109b357606435610955575b600654956104fd87613107565b6006558684526001602052604084209267ffffffffffffffff8711610890576105268454612dc5565b601f8111610914575b508685601f82116001146108af5786916108a4575b508760011b905f198960031b1c19161784555b67ffffffffffffffff82116108905781906105756001860154612dc5565b601f8111610840575b508590601f83116001146107d55786926107ca575b50508160011b915f199060031b1c19161760018301555b67ffffffffffffffff81116107b6576105c66002830154612dc5565b601f811161076e575b509160209691869382601f82116001146106de5781907f4efcb338ffccf7b085281c4db55554049eb8f23f9d2b09327c3756f0cf2a213f969785926106d3575b50508160011b915f199060031b1c19161760028201555b600381019060ff199160018382541617905542600482015560126064359101558482526004885260408220335f52885260405f208280528852604082206001828254161790558482526005885260408220335f528852600160405f2091825416179055610694600754613107565b600755846040519260408452816040850152606084013760608583010152606435868201526060813395601f80199101168101030190a3604051908152f35b013590505f8061060f565b9560028301845289842096845b601f198416811061075457509682917f4efcb338ffccf7b085281c4db55554049eb8f23f9d2b09327c3756f0cf2a213f9798600194601f1981161061073b575b505050811b016002820155610626565b01355f19600384901b60f8161c191690555f808061072b565b8183013589556001909801978a9750908b01908b016106eb565b60028301845260208420601f830160051c810191602084106107ac575b601f0160051c01905b8181106107a157506105cf565b5f8155600101610794565b909150819061078b565b602483634e487b7160e01b81526041600452fd5b013590505f80610593565b60018601875260208720879450915b601f1984168510610828576001945083601f1981161061080f575b505050811b0160018301556105aa565b01355f19600384901b60f8161c191690555f80806107ff565b818101358355602094850194600190930192016107e4565b90915060018501865260208620601f840160051c810160208510610889575b90849392915b601f830160051c8201811061087b57505061057e565b5f8155859450600101610865565b508061085f565b602485634e487b7160e01b81526041600452fd5b90508901355f610544565b858752602087209150865b8b601f198b1682106108fc57505088601f198116106108e3575b5050600187811b018455610557565b8a01355f1960038a901b60f8161c191690555f806108d4565b600183946020939484930135815501930191016108ba565b84865260208620601f890160051c810160208a1061094e575b601f830160051c8201811061094357505061052f565b5f815560010161092d565b508061092d565b6064358352600160205260ff6003604085200154166104f057606460405163d647364f60e01b815260206004820152601b60248201527f506172656e7420636f6d6d756e697479206e6f742061637469766500000000006044820152fd5b606460405163d647364f60e01b815260206004820152601e60248201527f436f6d6d756e697479206e616d652063616e6e6f7420626520656d70747900006044820152fd5b5080fd5b8280fd5b503461042b57602036600319011261042b576004358152600160205260409020610a2981612e6d565b610a3560018301612e6d565b61010052610a4560028301612e6d565b61012052600382015460ff1660e0526004820154916001600160a01b0391826005830154168360068401541684600785015416856008860154168660098701541687600a880154169188600b890154169389600c8a015416958a600d8b015416978b600e8c015416998c600f8d0154169b8d6010820154169d6011820154166080526012015460a05260405160c0526102608060c0515260c05101610ae991612d18565b60c051810360c051602001526101005190610b0391612d18565b60c051810360c051604001526101205190610b1d91612d18565b9c60e051151560c0516060015260c0516080015260c05160a0015260c05160c0015260c05160e0015260c051610100015260c051610120015260c051610140015260c051610160015260c051610180015260c0516101a0015260c0516101c0015260c0516101e0015260c051610200015260805160c051610220015260a05160c051610240015260c051900360c051f35b503461042b57604036600319011261042b57610beb600435610bce612cd8565b9080845283602052610be660016040862001546132eb565b6133c0565b5080f35b503461042b578060031936011261042b5760206040516001600160a01b037f0000000000000000000000000000000000000000000000000000000000000000168152f35b503461042b57602036600319011261042b57604061012091600435610c5781613206565b81526001602052206001600160a01b03806005830154169181600682015416918060078301541681600884015416826009850154169083600a860154169284600e8701541694601081600f890154169701541696604051988952602089015260408801526060870152608086015260a085015260c084015260e0830152610100820152f35b503461042b578060031936011261042b57602090604051908152f35b503461042b57604036600319011261042b5760243580151581036109f857610d2290600435613144565b80f35b503461042b57604036600319011261042b576001600160a01b036040610d49612cd8565b926004358152806020522091165f52602052602060ff60405f2054166040519015158152f35b503461042b57602036600319011261042b57600435610d8d81613206565b604051907fa1debd1300000000000000000000000000000000000000000000000000000000825260048201526060816024816001600160a01b037f0000000000000000000000000000000000000000000000000000000000000000165afa8015610e575782918391610e20575b50610e1c90604051938493846040919493926060820195825260208201520152565b0390f35b9050610e1c9250610e49915060603d606011610e50575b610e418183612e4b565b810190613129565b9092610dfa565b503d610e37565b6040513d84823e3d90fd5b503461042b578060031936011261042b576020600754604051908152f35b503461042b578060031936011261042b5760206040517f71f3d55856e4058ed06ee057d79ada615f65cdf5f9ee88181b914225088f834f8152f35b503461042b57610eca36612cee565b9190610ed582613206565b610ede82613269565b7f71f3d55856e4058ed06ee057d79ada615f65cdf5f9ee88181b914225088f834f8303610f83576001600160a01b039082855260026020526040852082821690815f5260205260405f209060ff1991828154169055848752600460205260408720905f5260205260405f20858752602052604086209081541690555b16907f5d889adddd84715508093563ae8da798a941b4accfcda9c79f2bba3a2602dd718480a480f35b7f850d585eb7f024ccee5e68e55f2c26cc72e1e6ee456acf62135757a5eb9d4a108303611003576001600160a01b039082855260036020526040852082821690815f5260205260405f209060ff1991828154169055848752600460205260408720905f5260205260405f2085875260205260408620908154169055610f5a565b60405163d647364f60e01b815260206004820152600c60248201527f496e76616c696420726f6c6500000000000000000000000000000000000000006044820152606490fd5b503461042b57602036600319011261042b5760043561106781613206565b604051907fa3a2479200000000000000000000000000000000000000000000000000000000825260048201526060816024816001600160a01b037f0000000000000000000000000000000000000000000000000000000000000000165afa8015610e575782918391610e205750610e1c90604051938493846040919493926060820195825260208201520152565b503461042b5760ff604060209261110b36612cee565b918352600486526001600160a01b0384842091165f528552825f2090825284522054166040519015158152f35b503461042b576020908160031936011261042b576004359061115982613206565b6001600160a01b0390817f000000000000000000000000000000000000000000000000000000000000000016926040517fd32d0ade000000000000000000000000000000000000000000000000000000008152816004820152608081602481885afa9485156114bd578394849185938698611462575b50604051947fa93ed1ba0000000000000000000000000000000000000000000000000000000086528986600481855afa958615611428578796611433575b50604051957f6a06295400000000000000000000000000000000000000000000000000000000875281600488015260248701528986604481855afa9586156114285787966113f5575b50604051906352d7e26360e11b82528a82600481865afa9182156113ea579088929183926113b3575b5060449060405194859384927f0bcb2f93000000000000000000000000000000000000000000000000000000008452600484015260248301525afa9586156113a7578096611300575b5050509460ff91610e1c959660405198899889528801526040870152166060850152608084015260c060a084015260c0830190612d89565b90919295503d8082843e6113148184612e4b565b82019189818403126109f85780519067ffffffffffffffff82116109fc57019282601f850112156109f85783519161134b83612f3d565b946113596040519687612e4b565b8386528b8087019460051b8201019485116109f8578b01925b84841061138f575093969350849250610e1c915060ff90506112c8565b835183811681036109fc578152928b01928b01611372565b604051903d90823e3d90fd5b925090508a82813d81116113e3575b6113cc8183612e4b565b810103126113df5790518791604461127f565b5f80fd5b503d6113c2565b6040513d8a823e3d90fd5b9095508981813d8311611421575b61140d8183612e4b565b8101031261141d5751945f611256565b8680fd5b503d611403565b6040513d89823e3d90fd5b9095508981813d831161145b575b61144b8183612e4b565b810103126113df5751945f61120d565b503d611441565b935096509450506080813d6080116114b5575b8161148260809383612e4b565b810103126109fc578051908681015194606060408301519201519260ff841684036114b157959192965f6111cf565b8580fd5b3d9150611475565b6040513d85823e3d90fd5b503461042b57602036600319011261042b576040906004356114e981613206565b8152600160205220611502601360128301549201613079565b90610e1c6040519283928352604060208401526040830190612d56565b503461042b57604036600319011261042b576001600160a01b036040611543612cd8565b92600435815260026020522091165f52602052602060ff60405f2054166040519015158152f35b503461042b578060031936011261042b5760206040517f850d585eb7f024ccee5e68e55f2c26cc72e1e6ee456acf62135757a5eb9d4a108152f35b503461042b578060031936011261042b576007546115db6115c582612f3d565b916115d36040519384612e4b565b808352612f3d565b60209290601f1901368385013780600193600192600654935b8481106116115760405160208082528190610e1c90820189612d56565b808791835281845260ff60036040852001541661162f575b016115f4565b93905085518110156116555761164f8185858a9460051b8a010152613107565b93611629565b602482634e487b7160e01b81526032600452fd5b503461042b57604036600319011261042b5760243560043561168a81613206565b61169382613206565b61169c81613269565b8181146116fa5780835260016020526116bb82601360408620016130c7565b81835260016020526116d381601360408620016130c7565b7fe4efcf2d01d38d3de90c4288e3533ee47fe8f6dd7ea0253636790b242dc705108380a380f35b606460405163d647364f60e01b815260206004820152601560248201527f43616e6e6f7420616c6c7920776974682073656c6600000000000000000000006044820152fd5b503461042b57604036600319011261042b576001600160a01b036040611763612cd8565b92600435815260036020522091165f52602052602060ff60405f2054166040519015158152f35b503461042b57602036600319011261042b576040610e1c91606061026083516117b281612e11565b828152826020820152828582015283838201528360808201528360a08201528360c08201528360e08201528361010082015283610120820152836101408201528361016082015283610180820152836101a0820152836101c0820152836101e08201528361020082015283610220820152836102408201520152611837600435613206565b60043581526001602052206119ac60136040519261185484612e11565b61185d81612e6d565b845261186b60018201612e6d565b602085015261187c60028201612e6d565b604085015260ff60038201541615156060850152600481015460808501526001600160a01b0360058201541660a08501526001600160a01b0360068201541660c08501526001600160a01b0360078201541660e08501526001600160a01b036008820154166101008501526001600160a01b036009820154166101208501526001600160a01b03600a820154166101408501526001600160a01b03600b820154166101608501526001600160a01b03600c820154166101808501526001600160a01b03600d820154166101a08501526001600160a01b03600e820154166101c08501526001600160a01b03600f820154166101e08501526001600160a01b036010820154166102008501526001600160a01b03601182015416610220850152601281015461024085015201613079565b61026082015260405191829160208352610260611a096119f36119dd845161028060208901526102a0880190612d18565b6020850151878203601f19016040890152612d18565b6040840151868203601f19016060880152612d18565b91606081015115156080860152608081015160a08601526001600160a01b0360a08201511660c08601526001600160a01b0360c08201511660e08601526001600160a01b0360e0820151166101008601526001600160a01b03610100820151166101208601526001600160a01b03610120820151166101408601526001600160a01b03610140820151166101608601526001600160a01b03610160820151166101808601526001600160a01b03610180820151166101a08601526001600160a01b036101a0820151166101c08601526001600160a01b036101c0820151166101e08601526001600160a01b036101e0820151166102008601526001600160a01b03610200820151166102208601526001600160a01b0361022082015116610240860152610240810151828601520151601f1984830301610280850152612d56565b503461042b57604036600319011261042b576001600160a01b036040611b6e612cd8565b92600435815260056020522091165f52602052602060ff60405f2054166040519015158152f35b503461042b57604036600319011261042b57611baf612cd8565b336001600160a01b03821603611bcb57610beb906004356133c0565b60046040517f6697b232000000000000000000000000000000000000000000000000000000008152fd5b503461042b576101c036600319011261042b576004356101a03660231901126109f857611c2181613206565b611c2a81613269565b808252600160205260408220906001600160a01b039182611c49612f55565b166121dc575b82611c58612f6b565b1661217b575b82611c67612f81565b1661211a575b82611c76612f97565b166120b9575b82611c85612fad565b16612058575b82611c94612fc3565b16611ff7575b82611ca3612fd9565b16611f96575b82611cb2612fef565b16611f35575b82611cc1613006565b16611ed4575b82611cd061301d565b16611e73575b82611cdf613034565b16611e12575b82611cee61304b565b16611d8d575b82611cfd613062565b16611d06578380f35b60116001600160a01b03199101927f8261c36d170ec64b60c2f015482418cba997cb5d3787c13f43e3e29e3713a3aa8454935f80516020613434833981519152611d75611d51613062565b604080516001600160a01b038a891681168252909216602083015290918291820190565b0390a3611d80613062565b1691161790555f80808380f35b6010810180547f98e8485c9f8d32054528913734a0b61a027120b5b579681fd3be4ad009f54d88845f80516020613434833981519152611df2611dce61304b565b604080516001600160a01b03888d1681168252909216602083015290918291820190565b0390a36001600160a01b031985611e0761304b565b169116179055611cf4565b600f810180547f5a200776fcd7bd781b66706fec6e1b18f0621e153b73c7363545fca20f04a1d2845f80516020613434833981519152611e53611dce613034565b0390a36001600160a01b031985611e68613034565b169116179055611ce5565b600e810180547f32afddabd709addf4415072b8d91182991dca79db32c8f955b2de08fde6a6f5b845f80516020613434833981519152611eb4611dce61301d565b0390a36001600160a01b031985611ec961301d565b169116179055611cd6565b600d810180547f7b5100c5075e8b464921c50f00e473a3bc0c31203deea60edb85769b757f8bf3845f80516020613434833981519152611f15611dce613006565b0390a36001600160a01b031985611f2a613006565b169116179055611cc7565b600c810180547f462e21731791a88fbc3d6e262bf146c4157be7e45705bcc62f1a363fee3c4826845f80516020613434833981519152611f76611dce612fef565b0390a36001600160a01b031985611f8b612fef565b169116179055611cb8565b600b810180547fb8cb7564b4fae24959e5c4110e8d9cf91dec7f90b166d06cf5ec514d3c9572bb845f80516020613434833981519152611fd7611dce612fd9565b0390a36001600160a01b031985611fec612fd9565b169116179055611ca9565b600a810180547f666ae48d5d989da88ad33b18d9ad1eb36fb06da47a87e3848edc838a0c833b66845f80516020613434833981519152612038611dce612fc3565b0390a36001600160a01b03198561204d612fc3565b169116179055611c9a565b6009810180547fbff2e278cc551512f9de0667dc3c1f1adc56d0fa1cc74c9c4bc2fdb3bf19b4eb845f80516020613434833981519152612099611dce612fad565b0390a36001600160a01b0319856120ae612fad565b169116179055611c8b565b6008810180547f4347b7879af66b5dbc633ac7823917506d8e6f9413913e212b835d7d207618e6845f805160206134348339815191526120fa611dce612f97565b0390a36001600160a01b03198561210f612f97565b169116179055611c7c565b6007810180547f53f851c2f0120d87a66d7c53ece15902d923fb3a96f123db6800bb40afe22dd9845f8051602061343483398151915261215b611dce612f81565b0390a36001600160a01b031985612170612f81565b169116179055611c6d565b6006810180547f268198d81cd5de2a4c427017a36e6262825f97fa3f1ca0d7bccee07cfae2ad58845f805160206134348339815191526121bc611dce612f6b565b0390a36001600160a01b0319856121d1612f6b565b169116179055611c5e565b6005810180547f1e46cebd6689d8c64011118478db0c61a89aa2646c860df401de476fbf378983845f8051602061343483398151915261221d611dce612f55565b0390a36001600160a01b031985612232612f55565b169116179055611c4f565b503461042b576001600160a01b0361225436612cee565b929061225f83613206565b61226883613269565b16908115612383577f71f3d55856e4058ed06ee057d79ada615f65cdf5f9ee88181b914225088f834f830361230b57808452600260205260408420825f5260205260405f2060ff1990600182825416179055818552600460205260408520835f5260205260405f20848652602052600160408620918254161790555b7f94765e3c1e0f3b4ba19015a25eec7ec04cb5c6acc83a4ac9cac5cf4412abf8488480a480f35b7f850d585eb7f024ccee5e68e55f2c26cc72e1e6ee456acf62135757a5eb9d4a10830361100357808452600360205260408420825f5260205260405f2060ff1990600182825416179055818552600460205260408520835f5260205260405f20848652602052600160408620918254161790556122e4565b60046040517fd92e233d000000000000000000000000000000000000000000000000000000008152fd5b503461042b57604036600319011261042b57610beb6004356123cd612cd8565b90808452836020526123e560016040862001546132eb565b613343565b503461042b57606036600319011261042b576024356004356001600160a01b03604435818116918282036113df5761242184613206565b61242a84613269565b838652600160205260408620927f1e46cebd6689d8c64011118478db0c61a89aa2646c860df401de476fbf37898386036124a45760055f805160206134348339815191529401906001600160a01b0319825493841693161790555b604080516001600160a01b03928316815292909116602083015290a380f35b7f268198d81cd5de2a4c427017a36e6262825f97fa3f1ca0d7bccee07cfae2ad5886036124f65760065f805160206134348339815191529401906001600160a01b031982549384169316179055612485565b7f53f851c2f0120d87a66d7c53ece15902d923fb3a96f123db6800bb40afe22dd986036125485760075f805160206134348339815191529401906001600160a01b031982549384169316179055612485565b7f4347b7879af66b5dbc633ac7823917506d8e6f9413913e212b835d7d207618e6860361259a5760085f805160206134348339815191529401906001600160a01b031982549384169316179055612485565b7fbff2e278cc551512f9de0667dc3c1f1adc56d0fa1cc74c9c4bc2fdb3bf19b4eb86036125ec5760095f805160206134348339815191529401906001600160a01b031982549384169316179055612485565b7f666ae48d5d989da88ad33b18d9ad1eb36fb06da47a87e3848edc838a0c833b66860361263e57600a5f805160206134348339815191529401906001600160a01b031982549384169316179055612485565b7fb8cb7564b4fae24959e5c4110e8d9cf91dec7f90b166d06cf5ec514d3c9572bb860361269057600b5f805160206134348339815191529401906001600160a01b031982549384169316179055612485565b7f462e21731791a88fbc3d6e262bf146c4157be7e45705bcc62f1a363fee3c482686036126e257600c5f805160206134348339815191529401906001600160a01b031982549384169316179055612485565b7f7b5100c5075e8b464921c50f00e473a3bc0c31203deea60edb85769b757f8bf3860361273457600d5f805160206134348339815191529401906001600160a01b031982549384169316179055612485565b7f32afddabd709addf4415072b8d91182991dca79db32c8f955b2de08fde6a6f5b860361278657600e5f805160206134348339815191529401906001600160a01b031982549384169316179055612485565b7f5a200776fcd7bd781b66706fec6e1b18f0621e153b73c7363545fca20f04a1d286036127d857600f5f805160206134348339815191529401906001600160a01b031982549384169316179055612485565b7f98e8485c9f8d32054528913734a0b61a027120b5b579681fd3be4ad009f54d88860361282a5760105f805160206134348339815191529401906001600160a01b031982549384169316179055612485565b7f8261c36d170ec64b60c2f015482418cba997cb5d3787c13f43e3e29e3713a3aa860361287c5760115f805160206134348339815191529401906001600160a01b031982549384169316179055612485565b606460405163d647364f60e01b815260206004820152601260248201527f556e6b6e6f776e206d6f64756c65206b657900000000000000000000000000006044820152fd5b503461042b57602036600319011261042b57600160406020926004358152808452200154604051908152f35b50346113df576020806003193601126113df576004359061290d82613206565b61291682613269565b6001600160a01b037f00000000000000000000000000000000000000000000000000000000000000001691823b156113df576040517f5da23e7f00000000000000000000000000000000000000000000000000000000815281600482015262093a8060248201526203f48060448201526202a30060648201525f8160848183885af18015612bc257612baf575b50823b15612b9757836040517f1baffc85000000000000000000000000000000000000000000000000000000008152826004820152816024820152816044820152670de0b6b3a76400006064820152818160848183895af18015610e5757612b9b575b5050823b15612b9757836040517f739bea5e0000000000000000000000000000000000000000000000000000000081528260048201526109c48060248301526044820152611388606482015260016084820152818160a48183895af18015610e5757612b83575b50506040518281019381851067ffffffffffffffff861117612b6f5785946040528482526040516352d7e26360e11b81528481600481855afa948515612b64578695612b31575b5050803b15612b2d57612b0c93858094604051968795869485937fd785648900000000000000000000000000000000000000000000000000000000855260048501526024840152606060448401526064830190612d89565b03925af18015610e5757612b1d5750f35b612b2690612dfd565b61042b5780f35b8480fd5b819650809295503d8311612b5d575b612b4a8183612e4b565b810103126113df57849351925f80612ab4565b503d612b40565b6040513d88823e3d90fd5b634e487b7160e01b5f52604160045260245ffd5b612b8c90612dfd565b612b9757835f612a6d565b8380fd5b612ba490612dfd565b612b9757835f612a06565b612bba919450612dfd565b5f925f6129a3565b6040513d5f823e3d90fd5b346113df57612bdb36612cee565b91612be581613206565b5f5260046020526001600160a01b0360405f2091165f5260205260405f20905f52602052602060ff60405f2054166040519015158152f35b346113df575f3660031901126113df576020600654604051908152f35b346113df5760203660031901126113df57600435907fffffffff0000000000000000000000000000000000000000000000000000000082168092036113df57817f7965db0b0000000000000000000000000000000000000000000000000000000060209314908115612cae575b5015158152f35b7f01ffc9a70000000000000000000000000000000000000000000000000000000091501483612ca7565b602435906001600160a01b03821682036113df57565b60609060031901126113df57600435906024356001600160a01b03811681036113df579060443590565b91908251928382525f5b848110612d42575050825f602080949584010152601f8019910116010190565b602081830181015184830182015201612d22565b9081518082526020808093019301915f5b828110612d75575050505090565b835185529381019392810192600101612d67565b9081518082526020808093019301915f5b828110612da8575050505090565b83516001600160a01b031685529381019392810192600101612d9a565b90600182811c92168015612df3575b6020831014612ddf57565b634e487b7160e01b5f52602260045260245ffd5b91607f1691612dd4565b67ffffffffffffffff8111612b6f57604052565b610280810190811067ffffffffffffffff821117612b6f57604052565b6101a0810190811067ffffffffffffffff821117612b6f57604052565b90601f8019910116810190811067ffffffffffffffff821117612b6f57604052565b9060405191825f8254612e7f81612dc5565b908184526020946001916001811690815f14612eed5750600114612eaf575b505050612ead92500383612e4b565b565b5f90815285812095935091905b818310612ed5575050612ead93508201015f8080612e9e565b85548884018501529485019487945091830191612ebc565b92505050612ead94925060ff191682840152151560051b8201015f8080612e9e565b9181601f840112156113df5782359167ffffffffffffffff83116113df57602083818601950101116113df57565b67ffffffffffffffff8111612b6f5760051b60200190565b6024356001600160a01b03811681036113df5790565b6044356001600160a01b03811681036113df5790565b6064356001600160a01b03811681036113df5790565b6084356001600160a01b03811681036113df5790565b60a4356001600160a01b03811681036113df5790565b60c4356001600160a01b03811681036113df5790565b60e4356001600160a01b03811681036113df5790565b610104356001600160a01b03811681036113df5790565b610124356001600160a01b03811681036113df5790565b610144356001600160a01b03811681036113df5790565b610164356001600160a01b03811681036113df5790565b610184356001600160a01b03811681036113df5790565b6101a4356001600160a01b03811681036113df5790565b90604051918281549182825260209260208301915f5260205f20935f905b8282106130ad57505050612ead92500383612e4b565b855484526001958601958895509381019390910190613097565b80549068010000000000000000821015612b6f57600182018082558210156130f3575f5260205f200155565b634e487b7160e01b5f52603260045260245ffd5b5f1981146131155760010190565b634e487b7160e01b5f52601160045260245ffd5b908160609103126113df578051916040602083015192015190565b9061314e82613206565b61315782613269565b815f526001602052600360405f200190815491811515928360ff82161515146131ff5760ff191660ff8416179055156131c65760207f1b33bf721278476ef24ca6ec530cfd3532aa6a88fe28b73f6bdf0f74e3ee52cc916131b9600754613107565b6007555b604051908152a2565b6007548015613115575f19016007557f1b33bf721278476ef24ca6ec530cfd3532aa6a88fe28b73f6bdf0f74e3ee52cc906020906131bd565b5050505050565b801590811561325c575b5061321757565b606460405163d647364f60e01b815260206004820152601860248201527f436f6d6d756e69747920646f6573206e6f7420657869737400000000000000006044820152fd5b905060065411155f613210565b5f52600560205260405f20335f5260205260ff60405f205416612ead57335f9081527fad3228b676f7d3cd4284a5443f17f1962b36e491b30a40b2405849e597ba5fb5602052604090205460ff16612ead5760246040517f4a0bfec1000000000000000000000000000000000000000000000000000000008152336004820152fd5b805f525f60205260405f20335f5260205260ff60405f2054161561330c5750565b604490604051907fe2517d3f0000000000000000000000000000000000000000000000000000000082523360048301526024820152fd5b90815f525f6020526001600160a01b0360405f20911690815f5260205260ff60405f205416155f146133ba57815f525f60205260405f20815f5260205260405f20600160ff1982541617905533917f2f8788117e7eff1d82e926ec794901d17c78024a50270940304540a733656f0d5f80a4600190565b50505f90565b90815f525f6020526001600160a01b0360405f20911690815f5260205260ff60405f2054165f146133ba57815f525f60205260405f20815f5260205260405f2060ff19815416905533917ff6391f5c32d9c69d2a47ea670b442974b53935d1edc7fd64eb21e047a839171b5f80a460019056fe2f3bea06c6e9b63d5e7c84a6bc5a08817c09192cdc87f2ec5a5fecc2a7dd503ba2646970667358221220da42058913576da774a92715c89f2a96995ef6b76dc16d3f1afcf86c389f409b64736f6c63430008180033ad3228b676f7d3cd4284a5443f17f1962b36e491b30a40b2405849e597ba5fb5","linkReferences":{}},"methodIdentifiers":{"CURATOR_ROLE()":"4a2cfb54","DEFAULT_ADMIN_ROLE()":"a217fddf","GOVERNANCE_ROLE()":"f36c8f5c","MODERATOR_ROLE()":"797669c9","activeCommunityCount()":"826410c4","communities(uint256)":"e590b56a","communityAdmins(uint256,address)":"3688da79","communityRoles(uint256,address,bytes32)":"555973c4","curators(uint256,address)":"3b472460","formAlliance(uint256,uint256)":"45dc2308","getActiveCommunities()":"49dc706b","getCommunity(uint256)":"370603f8","getCommunityModules(uint256)":"f830e348","getCommunityRelationships(uint256)":"4fbcf131","getEconomicParameters(uint256)":"50c76b46","getEligibilityRules(uint256)":"560d4015","getGovernanceParameters(uint256)":"8594e56c","getModuleAddresses(uint256)":"b4fbd286","getRoleAdmin(bytes32)":"248a9ca3","grantCommunityRole(uint256,address,bytes32)":"33624966","grantRole(bytes32,address)":"2f2ff15d","hasRole(bytes32,address)":"91d14854","hasRole(uint256,address,bytes32)":"1ca5b571","initializeDefaultParameters(uint256)":"21be27b8","moderators(uint256,address)":"4d609b01","nextCommunityId()":"06055b84","paramController()":"d0d1854d","registerCommunity(string,string,string,uint256)":"f1b150bd","renounceRole(bytes32,address)":"36568abe","revokeCommunityRole(uint256,address,bytes32)":"628005b5","revokeRole(bytes32,address)":"d547741f","setCommunityStatus(uint256,bool)":"9f9e8871","setModuleAddress(uint256,bytes32,address)":"2530ebb3","setModuleAddresses(uint256,(address,address,address,address,address,address,address,address,address,address,address,address,address))":"3600311b","supportsInterface(bytes4)":"01ffc9a7"},"id":10}