{"abi":[{"type":"constructor","inputs":[{"name":"_paramController","type":"address","internalType":"address"}],"stateMutability":"nonpayable"},{"type":"function","name":"CURATOR_ROLE","inputs":[],"outputs":[{"name":"","type":"bytes32","internalType":"bytes32"}],"stateMutability":"view"},{"type":"function","name":"GOVERNANCE_ROLE","inputs":[],"outputs":[{"name":"","type":"bytes32","internalType":"bytes32"}],"stateMutability":"view"},{"type":"function","name":"MODERATOR_ROLE","inputs":[],"outputs":[{"name":"","type":"bytes32","internalType":"bytes32"}],"stateMutability":"view"},{"type":"function","name":"activeCommunityCount","inputs":[],"outputs":[{"name":"","type":"uint256","internalType":"uint256"}],"stateMutability":"view"},{"type":"function","name":"bootstrapCommunity","inputs":[{"name":"name","type":"string","internalType":"string"},{"name":"description","type":"string","internalType":"string"},{"name":"metadataURI","type":"string","internalType":"string"},{"name":"parentCommunityId","type":"uint256","internalType":"uint256"},{"name":"bootstrapParams","type":"tuple","internalType":"struct CommunityRegistry.BootstrapParams","components":[{"name":"verifierPanelSize","type":"uint256","internalType":"uint256"},{"name":"verifierMin","type":"uint256","internalType":"uint256"},{"name":"maxPanelsPerEpoch","type":"uint256","internalType":"uint256"},{"name":"useVPTWeighting","type":"bool","internalType":"bool"},{"name":"maxWeightPerVerifier","type":"uint256","internalType":"uint256"},{"name":"cooldownAfterFraud","type":"uint256","internalType":"uint256"},{"name":"debateWindow","type":"uint256","internalType":"uint256"},{"name":"voteWindow","type":"uint256","internalType":"uint256"},{"name":"executionDelay","type":"uint256","internalType":"uint256"},{"name":"minSeniority","type":"uint256","internalType":"uint256"},{"name":"minSBTs","type":"uint256","internalType":"uint256"},{"name":"proposalThreshold","type":"uint256","internalType":"uint256"},{"name":"minTreasuryBps","type":"uint16","internalType":"uint16"},{"name":"minPositionsBps","type":"uint16","internalType":"uint16"},{"name":"spilloverTarget","type":"uint8","internalType":"uint8"},{"name":"spilloverSplitBpsToTreasury","type":"uint16","internalType":"uint16"}]},{"name":"modules","type":"tuple","internalType":"struct CommunityRegistry.ModuleAddresses","components":[{"name":"accessManager","type":"address","internalType":"address"},{"name":"membershipToken","type":"address","internalType":"address"},{"name":"governor","type":"address","internalType":"address"},{"name":"timelock","type":"address","internalType":"address"},{"name":"countingMultiChoice","type":"address","internalType":"address"},{"name":"requestHub","type":"address","internalType":"address"},{"name":"draftsManager","type":"address","internalType":"address"},{"name":"engagementsManager","type":"address","internalType":"address"},{"name":"valuableActionRegistry","type":"address","internalType":"address"},{"name":"verifierPowerToken","type":"address","internalType":"address"},{"name":"verifierElection","type":"address","internalType":"address"},{"name":"verifierManager","type":"address","internalType":"address"},{"name":"valuableActionSBT","type":"address","internalType":"address"},{"name":"positionManager","type":"address","internalType":"address"},{"name":"credentialManager","type":"address","internalType":"address"},{"name":"cohortRegistry","type":"address","internalType":"address"},{"name":"investmentCohortManager","type":"address","internalType":"address"},{"name":"revenueRouter","type":"address","internalType":"address"},{"name":"treasuryVault","type":"address","internalType":"address"},{"name":"treasuryAdapter","type":"address","internalType":"address"},{"name":"communityToken","type":"address","internalType":"address"},{"name":"paramController","type":"address","internalType":"address"},{"name":"commerceDisputes","type":"address","internalType":"address"},{"name":"marketplace","type":"address","internalType":"address"},{"name":"housingManager","type":"address","internalType":"address"},{"name":"projectFactory","type":"address","internalType":"address"}]}],"outputs":[{"name":"communityId","type":"uint256","internalType":"uint256"}],"stateMutability":"nonpayable"},{"type":"function","name":"communities","inputs":[{"name":"","type":"uint256","internalType":"uint256"}],"outputs":[{"name":"name","type":"string","internalType":"string"},{"name":"description","type":"string","internalType":"string"},{"name":"metadataURI","type":"string","internalType":"string"},{"name":"active","type":"bool","internalType":"bool"},{"name":"createdAt","type":"uint256","internalType":"uint256"},{"name":"accessManager","type":"address","internalType":"address"},{"name":"membershipToken","type":"address","internalType":"address"},{"name":"governor","type":"address","internalType":"address"},{"name":"timelock","type":"address","internalType":"address"},{"name":"countingMultiChoice","type":"address","internalType":"address"},{"name":"requestHub","type":"address","internalType":"address"},{"name":"draftsManager","type":"address","internalType":"address"},{"name":"engagementsManager","type":"address","internalType":"address"},{"name":"valuableActionRegistry","type":"address","internalType":"address"},{"name":"verifierPowerToken","type":"address","internalType":"address"},{"name":"verifierElection","type":"address","internalType":"address"},{"name":"verifierManager","type":"address","internalType":"address"},{"name":"valuableActionSBT","type":"address","internalType":"address"},{"name":"positionManager","type":"address","internalType":"address"},{"name":"credentialManager","type":"address","internalType":"address"},{"name":"cohortRegistry","type":"address","internalType":"address"},{"name":"investmentCohortManager","type":"address","internalType":"address"},{"name":"revenueRouter","type":"address","internalType":"address"},{"name":"treasuryVault","type":"address","internalType":"address"},{"name":"treasuryAdapter","type":"address","internalType":"address"},{"name":"communityToken","type":"address","internalType":"address"},{"name":"paramController","type":"address","internalType":"address"},{"name":"commerceDisputes","type":"address","internalType":"address"},{"name":"marketplace","type":"address","internalType":"address"},{"name":"housingManager","type":"address","internalType":"address"},{"name":"projectFactory","type":"address","internalType":"address"},{"name":"parentCommunityId","type":"uint256","internalType":"uint256"}],"stateMutability":"view"},{"type":"function","name":"communityAdmins","inputs":[{"name":"","type":"uint256","internalType":"uint256"},{"name":"","type":"address","internalType":"address"}],"outputs":[{"name":"","type":"bool","internalType":"bool"}],"stateMutability":"view"},{"type":"function","name":"communityRoles","inputs":[{"name":"","type":"uint256","internalType":"uint256"},{"name":"","type":"address","internalType":"address"},{"name":"","type":"bytes32","internalType":"bytes32"}],"outputs":[{"name":"","type":"bool","internalType":"bool"}],"stateMutability":"view"},{"type":"function","name":"curators","inputs":[{"name":"","type":"uint256","internalType":"uint256"},{"name":"","type":"address","internalType":"address"}],"outputs":[{"name":"","type":"bool","internalType":"bool"}],"stateMutability":"view"},{"type":"function","name":"formAlliance","inputs":[{"name":"communityId1","type":"uint256","internalType":"uint256"},{"name":"communityId2","type":"uint256","internalType":"uint256"}],"outputs":[],"stateMutability":"nonpayable"},{"type":"function","name":"getActiveCommunities","inputs":[],"outputs":[{"name":"","type":"uint256[]","internalType":"uint256[]"}],"stateMutability":"view"},{"type":"function","name":"getCommunity","inputs":[{"name":"communityId","type":"uint256","internalType":"uint256"}],"outputs":[{"name":"","type":"tuple","internalType":"struct CommunityRegistry.Community","components":[{"name":"name","type":"string","internalType":"string"},{"name":"description","type":"string","internalType":"string"},{"name":"metadataURI","type":"string","internalType":"string"},{"name":"active","type":"bool","internalType":"bool"},{"name":"createdAt","type":"uint256","internalType":"uint256"},{"name":"accessManager","type":"address","internalType":"address"},{"name":"membershipToken","type":"address","internalType":"address"},{"name":"governor","type":"address","internalType":"address"},{"name":"timelock","type":"address","internalType":"address"},{"name":"countingMultiChoice","type":"address","internalType":"address"},{"name":"requestHub","type":"address","internalType":"address"},{"name":"draftsManager","type":"address","internalType":"address"},{"name":"engagementsManager","type":"address","internalType":"address"},{"name":"valuableActionRegistry","type":"address","internalType":"address"},{"name":"verifierPowerToken","type":"address","internalType":"address"},{"name":"verifierElection","type":"address","internalType":"address"},{"name":"verifierManager","type":"address","internalType":"address"},{"name":"valuableActionSBT","type":"address","internalType":"address"},{"name":"positionManager","type":"address","internalType":"address"},{"name":"credentialManager","type":"address","internalType":"address"},{"name":"cohortRegistry","type":"address","internalType":"address"},{"name":"investmentCohortManager","type":"address","internalType":"address"},{"name":"revenueRouter","type":"address","internalType":"address"},{"name":"treasuryVault","type":"address","internalType":"address"},{"name":"treasuryAdapter","type":"address","internalType":"address"},{"name":"communityToken","type":"address","internalType":"address"},{"name":"paramController","type":"address","internalType":"address"},{"name":"commerceDisputes","type":"address","internalType":"address"},{"name":"marketplace","type":"address","internalType":"address"},{"name":"housingManager","type":"address","internalType":"address"},{"name":"projectFactory","type":"address","internalType":"address"},{"name":"parentCommunityId","type":"uint256","internalType":"uint256"},{"name":"allyCommunityIds","type":"uint256[]","internalType":"uint256[]"}]}],"stateMutability":"view"},{"type":"function","name":"getCommunityModules","inputs":[{"name":"communityId","type":"uint256","internalType":"uint256"}],"outputs":[{"name":"","type":"tuple","internalType":"struct CommunityRegistry.ModuleAddresses","components":[{"name":"accessManager","type":"address","internalType":"address"},{"name":"membershipToken","type":"address","internalType":"address"},{"name":"governor","type":"address","internalType":"address"},{"name":"timelock","type":"address","internalType":"address"},{"name":"countingMultiChoice","type":"address","internalType":"address"},{"name":"requestHub","type":"address","internalType":"address"},{"name":"draftsManager","type":"address","internalType":"address"},{"name":"engagementsManager","type":"address","internalType":"address"},{"name":"valuableActionRegistry","type":"address","internalType":"address"},{"name":"verifierPowerToken","type":"address","internalType":"address"},{"name":"verifierElection","type":"address","internalType":"address"},{"name":"verifierManager","type":"address","internalType":"address"},{"name":"valuableActionSBT","type":"address","internalType":"address"},{"name":"positionManager","type":"address","internalType":"address"},{"name":"credentialManager","type":"address","internalType":"address"},{"name":"cohortRegistry","type":"address","internalType":"address"},{"name":"investmentCohortManager","type":"address","internalType":"address"},{"name":"revenueRouter","type":"address","internalType":"address"},{"name":"treasuryVault","type":"address","internalType":"address"},{"name":"treasuryAdapter","type":"address","internalType":"address"},{"name":"communityToken","type":"address","internalType":"address"},{"name":"paramController","type":"address","internalType":"address"},{"name":"commerceDisputes","type":"address","internalType":"address"},{"name":"marketplace","type":"address","internalType":"address"},{"name":"housingManager","type":"address","internalType":"address"},{"name":"projectFactory","type":"address","internalType":"address"}]}],"stateMutability":"view"},{"type":"function","name":"getCommunityRelationships","inputs":[{"name":"communityId","type":"uint256","internalType":"uint256"}],"outputs":[{"name":"parentCommunityId","type":"uint256","internalType":"uint256"},{"name":"allyCommunityIds","type":"uint256[]","internalType":"uint256[]"}],"stateMutability":"view"},{"type":"function","name":"getEconomicParameters","inputs":[{"name":"communityId","type":"uint256","internalType":"uint256"}],"outputs":[{"name":"minTreasuryBps","type":"uint256","internalType":"uint256"},{"name":"minPositionsBps","type":"uint256","internalType":"uint256"},{"name":"spilloverTarget","type":"uint8","internalType":"uint8"},{"name":"spilloverSplitBpsToTreasury","type":"uint256","internalType":"uint256"},{"name":"feeOnWithdraw","type":"uint256","internalType":"uint256"},{"name":"backingAssets","type":"address[]","internalType":"address[]"}],"stateMutability":"view"},{"type":"function","name":"getEligibilityRules","inputs":[{"name":"communityId","type":"uint256","internalType":"uint256"}],"outputs":[{"name":"minSeniority","type":"uint256","internalType":"uint256"},{"name":"minSBTs","type":"uint256","internalType":"uint256"},{"name":"proposalThreshold","type":"uint256","internalType":"uint256"}],"stateMutability":"view"},{"type":"function","name":"getGovernanceParameters","inputs":[{"name":"communityId","type":"uint256","internalType":"uint256"}],"outputs":[{"name":"debateWindow","type":"uint256","internalType":"uint256"},{"name":"voteWindow","type":"uint256","internalType":"uint256"},{"name":"executionDelay","type":"uint256","internalType":"uint256"}],"stateMutability":"view"},{"type":"function","name":"getTimelock","inputs":[{"name":"communityId","type":"uint256","internalType":"uint256"}],"outputs":[{"name":"","type":"address","internalType":"address"}],"stateMutability":"view"},{"type":"function","name":"grantCommunityRole","inputs":[{"name":"communityId","type":"uint256","internalType":"uint256"},{"name":"user","type":"address","internalType":"address"},{"name":"role","type":"bytes32","internalType":"bytes32"}],"outputs":[],"stateMutability":"nonpayable"},{"type":"function","name":"hasRole","inputs":[{"name":"communityId","type":"uint256","internalType":"uint256"},{"name":"user","type":"address","internalType":"address"},{"name":"role","type":"bytes32","internalType":"bytes32"}],"outputs":[{"name":"","type":"bool","internalType":"bool"}],"stateMutability":"view"},{"type":"function","name":"initializeDefaultParameters","inputs":[{"name":"communityId","type":"uint256","internalType":"uint256"}],"outputs":[],"stateMutability":"nonpayable"},{"type":"function","name":"moderators","inputs":[{"name":"","type":"uint256","internalType":"uint256"},{"name":"","type":"address","internalType":"address"}],"outputs":[{"name":"","type":"bool","internalType":"bool"}],"stateMutability":"view"},{"type":"function","name":"nextCommunityId","inputs":[],"outputs":[{"name":"","type":"uint256","internalType":"uint256"}],"stateMutability":"view"},{"type":"function","name":"paramController","inputs":[],"outputs":[{"name":"","type":"address","internalType":"contract ParamController"}],"stateMutability":"view"},{"type":"function","name":"registerCommunity","inputs":[{"name":"name","type":"string","internalType":"string"},{"name":"description","type":"string","internalType":"string"},{"name":"metadataURI","type":"string","internalType":"string"},{"name":"parentCommunityId","type":"uint256","internalType":"uint256"}],"outputs":[{"name":"communityId","type":"uint256","internalType":"uint256"}],"stateMutability":"nonpayable"},{"type":"function","name":"revokeCommunityRole","inputs":[{"name":"communityId","type":"uint256","internalType":"uint256"},{"name":"user","type":"address","internalType":"address"},{"name":"role","type":"bytes32","internalType":"bytes32"}],"outputs":[],"stateMutability":"nonpayable"},{"type":"function","name":"setCommunityStatus","inputs":[{"name":"communityId","type":"uint256","internalType":"uint256"},{"name":"active","type":"bool","internalType":"bool"}],"outputs":[],"stateMutability":"nonpayable"},{"type":"function","name":"setModuleAddress","inputs":[{"name":"communityId","type":"uint256","internalType":"uint256"},{"name":"moduleKey","type":"bytes32","internalType":"bytes32"},{"name":"moduleAddress","type":"address","internalType":"address"}],"outputs":[],"stateMutability":"nonpayable"},{"type":"function","name":"setModuleAddresses","inputs":[{"name":"communityId","type":"uint256","internalType":"uint256"},{"name":"modules","type":"tuple","internalType":"struct CommunityRegistry.ModuleAddresses","components":[{"name":"accessManager","type":"address","internalType":"address"},{"name":"membershipToken","type":"address","internalType":"address"},{"name":"governor","type":"address","internalType":"address"},{"name":"timelock","type":"address","internalType":"address"},{"name":"countingMultiChoice","type":"address","internalType":"address"},{"name":"requestHub","type":"address","internalType":"address"},{"name":"draftsManager","type":"address","internalType":"address"},{"name":"engagementsManager","type":"address","internalType":"address"},{"name":"valuableActionRegistry","type":"address","internalType":"address"},{"name":"verifierPowerToken","type":"address","internalType":"address"},{"name":"verifierElection","type":"address","internalType":"address"},{"name":"verifierManager","type":"address","internalType":"address"},{"name":"valuableActionSBT","type":"address","internalType":"address"},{"name":"positionManager","type":"address","internalType":"address"},{"name":"credentialManager","type":"address","internalType":"address"},{"name":"cohortRegistry","type":"address","internalType":"address"},{"name":"investmentCohortManager","type":"address","internalType":"address"},{"name":"revenueRouter","type":"address","internalType":"address"},{"name":"treasuryVault","type":"address","internalType":"address"},{"name":"treasuryAdapter","type":"address","internalType":"address"},{"name":"communityToken","type":"address","internalType":"address"},{"name":"paramController","type":"address","internalType":"address"},{"name":"commerceDisputes","type":"address","internalType":"address"},{"name":"marketplace","type":"address","internalType":"address"},{"name":"housingManager","type":"address","internalType":"address"},{"name":"projectFactory","type":"address","internalType":"address"}]}],"outputs":[],"stateMutability":"nonpayable"},{"type":"event","name":"CommunityAllianceFormed","inputs":[{"name":"communityId1","type":"uint256","indexed":true,"internalType":"uint256"},{"name":"communityId2","type":"uint256","indexed":true,"internalType":"uint256"}],"anonymous":false},{"type":"event","name":"CommunityRegistered","inputs":[{"name":"communityId","type":"uint256","indexed":true,"internalType":"uint256"},{"name":"name","type":"string","indexed":false,"internalType":"string"},{"name":"creator","type":"address","indexed":true,"internalType":"address"},{"name":"parentCommunityId","type":"uint256","indexed":false,"internalType":"uint256"}],"anonymous":false},{"type":"event","name":"CommunityRoleGranted","inputs":[{"name":"communityId","type":"uint256","indexed":true,"internalType":"uint256"},{"name":"user","type":"address","indexed":true,"internalType":"address"},{"name":"role","type":"bytes32","indexed":true,"internalType":"bytes32"}],"anonymous":false},{"type":"event","name":"CommunityRoleRevoked","inputs":[{"name":"communityId","type":"uint256","indexed":true,"internalType":"uint256"},{"name":"user","type":"address","indexed":true,"internalType":"address"},{"name":"role","type":"bytes32","indexed":true,"internalType":"bytes32"}],"anonymous":false},{"type":"event","name":"CommunityStatusChanged","inputs":[{"name":"communityId","type":"uint256","indexed":true,"internalType":"uint256"},{"name":"active","type":"bool","indexed":false,"internalType":"bool"}],"anonymous":false},{"type":"event","name":"ModuleAddressUpdated","inputs":[{"name":"communityId","type":"uint256","indexed":true,"internalType":"uint256"},{"name":"moduleKey","type":"bytes32","indexed":true,"internalType":"bytes32"},{"name":"oldAddress","type":"address","indexed":false,"internalType":"address"},{"name":"newAddress","type":"address","indexed":false,"internalType":"address"}],"anonymous":false},{"type":"error","name":"InvalidInput","inputs":[{"name":"reason","type":"string","internalType":"string"}]},{"type":"error","name":"NotAuthorized","inputs":[{"name":"caller","type":"address","internalType":"address"}]},{"type":"error","name":"ZeroAddress","inputs":[]}],"bytecode":{"object":"0x60a034620000ba57601f6200513738819003918201601f19168301916001600160401b03831184841017620000be57808492602094604052833981010312620000ba57516001600160a01b03811690819003620000ba5760016005558015620000a8576080526040516150649081620000d38239608051818181610b8101528181610d5801528181610e7601528181612a8e01528181612d5d01528181612e1e01526145ad0152f35b60405163d92e233d60e01b8152600490fd5b5f80fd5b634e487b7160e01b5f52604160045260245ffdfe610500806040526004361015610013575f80fd5b5f905f3560e01c90816306055b84146146c65750806310b18438146146885780631ca5b5711461463857806321be27b81461457c5780632530ebb314613c7a5780633362496614613b0a5780633688da7914613abf578063370603f8146134915780633b4724601461344657806345dc23081461337257806349dc706b146132ac5780634a2cfb54146132715780634d609b01146132265780634fbcf131146131d057806350c76b4614612df2578063555973c414612daf578063560d401514612d03578063628005b514612b75578063797669c914612b3a578063826410c414612b1c5780638594e56c14612a34578063925291e714611c915780639f9e887114611c64578063a9c50fd314610ba5578063d0d1854d14610b61578063e590b56a14610834578063f1b150bd146107a8578063f36c8f5c1461076d5763f830e3481461015e575f80fd5b3461076a57602036600319011261076a5780604091610320835161018181614828565b82815282602082015282858201528260608201528260808201528260a08201528260c08201528260e08201528261010082015282610120820152826101408201528261016082015282610180820152826101a0820152826101c0820152826101e08201528261020082015282610220820152826102408201528261026082015282610280820152826102a0820152826102c0820152826102e0820152826103008201520152610231600435614abc565b60043581528060205220610220526103406001600160a01b036005610220510154166001600160a01b03600661022051015416610100526001600160a01b03600761022051015416610140526001600160a01b036008610220510154166001600160a01b036009610220510154166001600160a01b03600a610220510154166001600160a01b03600b610220510154166001600160a01b03600c610220510154166001600160a01b03600d610220510154166001600160a01b03600e610220510154166001600160a01b03600f61022051015416916001600160a01b03601061022051015416936001600160a01b03601161022051015416956001600160a01b03601261022051015416976001600160a01b03601361022051015416996001600160a01b036014610220510154169b6001600160a01b036015610220510154166080526001600160a01b0360166102205101541660c0526001600160a01b03601761022051015416610200526001600160a01b036018610220510154166101e0526001600160a01b036019610220510154166101c0526001600160a01b03601a610220510154166101a0526001600160a01b03601b61022051015416610180526001600160a01b03601c61022051015416610160526001600160a01b03601d61022051015416610120526001600160a01b03601e6102205101541660e05260405160a05261044060a051614828565b8d60a0515261010051602060a051015261014051604060a0510152606060a0510152608060a051015260a08051015260c060a051015260e060a051015261010060a051015261012060a051015261014060a051015261016060a051015261018060a05101526101a060a05101526101c060a05101526101e060a051015260805161020060a051015260c05161022060a05101526102005161024060a05101526101e05161026060a05101526101c05161028060a05101526101a0516102a060a0510152610180516102c060a0510152610160516102e060a05101526101205161030060a051015260e05161032060a05101526040519081526001600160a01b03602060a05101511660208201526001600160a01b03604060a05101511660408201526001600160a01b03606060a05101511660608201526001600160a01b03608060a05101511660808201526001600160a01b0360a0805101511660a08201526001600160a01b0360c060a05101511660c08201526001600160a01b0360e060a05101511660e08201526001600160a01b0361010060a0510151166101008201526001600160a01b0361012060a0510151166101208201526001600160a01b0361014060a0510151166101408201526001600160a01b0361016060a0510151166101608201526001600160a01b0361018060a0510151166101808201526001600160a01b036101a060a0510151166101a08201526001600160a01b036101c060a0510151166101c08201526001600160a01b036101e060a0510151166101e08201526001600160a01b0361020060a0510151166102008201526001600160a01b0361022060a0510151166102208201526001600160a01b0361024060a0510151166102408201526001600160a01b0361026060a0510151166102608201526001600160a01b0361028060a0510151166102808201526001600160a01b036102a060a0510151166102a08201526001600160a01b036102c060a0510151166102c08201526001600160a01b036102e060a0510151166102e08201526001600160a01b0361030060a0510151166103008201526001600160a01b0361032060a051015116610320820152f35b80fd5b503461076a578060031936011261076a5760206040517f71840dc4906352362b0cdaf79870196c8e42acafade72d5d5a6d59291253ceb18152f35b503461076a57608036600319011261076a5767ffffffffffffffff90600435828111610830576107dc903690600401614791565b929091602435828111610830576107f7903690600401614791565b92909160443591821161076a5760206108288787878761081a3660048a01614791565b929091339560643595614b6c565b604051908152f35b5080fd5b503461076a57602036600319011261076a57604090600435815280602052206104e0526108636104e051614867565b61087260016104e05101614867565b6102c05261088560026104e05101614867565b610320526104e051600381015460ff166103005260048101546103405260058101546001600160a01b03908116610380526006820154600783015460088401546009850154600a860154600b870154600c880154600d890154600e8a0154600f8b015460108c015460118d01548c166102405260128d01548c166102605260138d01548c166102805260148d01548c166104c05260158d01548c166104a05260168d01548c166104805260178d01548c166104605260188d01548c166104405260198d01548c1661042052601a8d01548c16610400908152601b8e01548d166103e052601c8e01548d166103c052601d8e01548d166103a052601e8e01548d1661036052601f909d01546102e0526040516102a0818152908e9052519a8c169d908c169c918c169b9283169a9383169994831698958316979683169683169583169490921692610a0c926109f5926109de920190614720565b6102a051810360206102a05101526102c051614720565b6102a051810360406102a051015261032051614720565b9a61030051151560606102a05101526103405160806102a05101526103805160a06102a051015260c06102a051015260e06102a05101526101006102a05101526101206102a05101526101406102a05101526101606102a05101526101806102a05101526101a06102a05101526101c06102a05101526101e06102a05101526102006102a0510152610240516102206102a0510152610260516102406102a0510152610280516102606102a05101526104c0516102806102a05101526104a0516102a080510152610480516102c06102a0510152610460516102e06102a0510152610440516103006102a0510152610420516103206102a0510152610400516103406102a05101526103e0516103606102a05101526103c0516103806102a05101526103a0516103a06102a0510152610360516103c06102a05101526102e0516103e06102a05101526102a05190036102a051f35b503461076a578060031936011261076a5760206040516001600160a01b037f0000000000000000000000000000000000000000000000000000000000000000168152f35b503461076a576105c036600319011261076a5760043567ffffffffffffffff811161083057610bd8903690600401614791565b60243567ffffffffffffffff8111611c6057610bf8903690600401614791565b60449391933567ffffffffffffffff8111611c5c57610c1b903690600401614791565b91610200366083190112611c585761034036610283190112611c5857610c4695339560643595614b6c565b6001600160a01b039160e435801515810361083057610204359061ffff8216820361117857610224359161ffff8316830361117857610244359060ff82168203611c545761ffff6102643516610264350361117857604051938461020081011067ffffffffffffffff61020087011117611c405761ffff809260ff956102008801604052608435885260a435602089015260c4356040890152151560608801526101043560808801526101243560a08801526101443560c08801526101643560e0880152610184356101008801526101a4356101208801526101c4356101408801526101e43561016088015216610180860152166101a0840152166101c082015261ffff61026435166101e0820152837f0000000000000000000000000000000000000000000000000000000000000000163b156108305761ffff6101e0604051927fde4feae60000000000000000000000000000000000000000000000000000000084528560048501523360248501528051604485015260208101516064850152604081015160848501526060810151151560a4850152608081015160c485015260a081015160e485015260c081015161010485015260e08101516101248501526101008101516101448501526101208101516101648501526101408101516101848501526101608101516101a485015282610180820151166101c4850152826101a0820151166101e485015260ff6101c08201511661020485015201511661022482015281816102448183887f0000000000000000000000000000000000000000000000000000000000000000165af18015611c3557611c21575b5050805f525f60205260405f20610284358381168082036111785780611bb4575b50506102a4358381168082036111785780611b47575b50506102c4358381168082036111785780611ada575b50506102e4358381168082036111785780611a6d575b5050610304358381168082036111785780611a00575b5050610324358381168082036111785780611993575b5050610344358381168082036111785780611926575b50506103643583811680820361117857806118b9575b505061038435838116808203611178578061184c575b50506103a43583811680820361117857806117df575b50506103c4358381168082036111785780611772575b50506103e4358381168082036111785780611705575b5050610404358381168082036111785780611698575b505061042435838116808203611178578061162b575b50506104443583811680820361117857806115be575b5050610464358381168082036111785780611551575b50506104843583811680820361117857806114e4575b50506104a4358381168082036111785780611477575b50506104c435838116808203611178578061140a575b50506104e435838116808203611178578061139d575b5050610504358381168082036111785780611330575b50506105243583811680820361117857806112c3575b5050610544358381168082036111785780611256575b50506105643583811680820361117857806111e9575b505061058435838116808203611178578061117c575b50506105a4359083821690818303611178576020948491836110fb575b8683604051908152f35b6001600160a01b0319925f8051602061500f833981519152601e7f7df47a1017c379bfcdc814d9844a4203915311da1b67a3deaa8ac0408df741339301968754946111676040519283928816839060209093929360408301946001600160a01b03809216845216910152565b0390a3161790555f808281806110f1565b5f80fd5b601d83018054604080516001600160a01b038984168116825295909516602086015291936001600160a01b0319927fb8ea76e94f1fa1c619a101614916e863c5e94c9a7af818d1349dbd7764e831449188915f8051602061500f83398151915291a3161790555f806110d4565b601c83018054604080516001600160a01b038984168116825295909516602086015291936001600160a01b0319927fcef6e888ca344077e889d6d961447b180a6f2c1f8a3a4b954e2385449143c6c89188915f8051602061500f83398151915291a3161790555f806110be565b601b83018054604080516001600160a01b038984168116825295909516602086015291936001600160a01b0319927f63dd945f73078583ef50fd03af198fa3c78e7933617ee2aed52ef628f45ded689188915f8051602061500f83398151915291a3161790555f806110a8565b601a83018054604080516001600160a01b038984168116825295909516602086015291936001600160a01b0319927f8261c36d170ec64b60c2f015482418cba997cb5d3787c13f43e3e29e3713a3aa9188915f8051602061500f83398151915291a3161790555f80611092565b601983018054604080516001600160a01b038984168116825295909516602086015291936001600160a01b0319927f98e8485c9f8d32054528913734a0b61a027120b5b579681fd3be4ad009f54d889188915f8051602061500f83398151915291a3161790555f8061107c565b601883018054604080516001600160a01b038984168116825295909516602086015291936001600160a01b0319927f5a200776fcd7bd781b66706fec6e1b18f0621e153b73c7363545fca20f04a1d29188915f8051602061500f83398151915291a3161790555f80611066565b601783018054604080516001600160a01b038984168116825295909516602086015291936001600160a01b0319927fe43d20cf7f6a2ff14d5f0335d5c7789349ccc63ae1114e12b0bd87c3f1e951a19188915f8051602061500f83398151915291a3161790555f80611050565b601683018054604080516001600160a01b038984168116825295909516602086015291936001600160a01b0319927fb854146362255d5eede99c74f1b401239cdf7180a0c47f511c1557e6409c7b4b9188915f8051602061500f83398151915291a3161790555f8061103a565b601583018054604080516001600160a01b038984168116825295909516602086015291936001600160a01b0319927f9186309698ee627a535c955ea1228e075c42d3a0a1d08728ecfd9e895f4199d49188915f8051602061500f83398151915291a3161790555f80611024565b601483018054604080516001600160a01b038984168116825295909516602086015291936001600160a01b0319927f5d065ed09f08f7097cb10b9eb7dcca8928903e9d07ab34b9075dc83c39f381ac9188915f8051602061500f83398151915291a3161790555f8061100e565b601383018054604080516001600160a01b038984168116825295909516602086015291936001600160a01b0319927f2822d734b7f548aead5dffdb79a1d04beee6bedc39c1fe6b31f1db55b5b432a89188915f8051602061500f83398151915291a3161790555f80610ff8565b601283018054604080516001600160a01b038984168116825295909516602086015291936001600160a01b0319927f64b344ea52e7d4fb7b6ebe47cbbbbaf6c3cead98ea350e4b7972fbb247fe424c9188915f8051602061500f83398151915291a3161790555f80610fe2565b601183018054604080516001600160a01b038984168116825295909516602086015291936001600160a01b0319927f32afddabd709addf4415072b8d91182991dca79db32c8f955b2de08fde6a6f5b9188915f8051602061500f83398151915291a3161790555f80610fcc565b601083018054604080516001600160a01b038984168116825295909516602086015291936001600160a01b0319927f7b5100c5075e8b464921c50f00e473a3bc0c31203deea60edb85769b757f8bf39188915f8051602061500f83398151915291a3161790555f80610fb6565b600f83018054604080516001600160a01b038984168116825295909516602086015291936001600160a01b0319927f462e21731791a88fbc3d6e262bf146c4157be7e45705bcc62f1a363fee3c48269188915f8051602061500f83398151915291a3161790555f80610fa0565b600e83018054604080516001600160a01b038984168116825295909516602086015291936001600160a01b0319927fb8cb7564b4fae24959e5c4110e8d9cf91dec7f90b166d06cf5ec514d3c9572bb9188915f8051602061500f83398151915291a3161790555f80610f8a565b600d83018054604080516001600160a01b038984168116825295909516602086015291936001600160a01b0319927f666ae48d5d989da88ad33b18d9ad1eb36fb06da47a87e3848edc838a0c833b669188915f8051602061500f83398151915291a3161790555f80610f74565b600c83018054604080516001600160a01b038984168116825295909516602086015291936001600160a01b0319927fbff2e278cc551512f9de0667dc3c1f1adc56d0fa1cc74c9c4bc2fdb3bf19b4eb9188915f8051602061500f83398151915291a3161790555f80610f5e565b600b83018054604080516001600160a01b038984168116825295909516602086015291936001600160a01b0319927f4347b7879af66b5dbc633ac7823917506d8e6f9413913e212b835d7d207618e69188915f8051602061500f83398151915291a3161790555f80610f48565b600a83018054604080516001600160a01b038984168116825295909516602086015291936001600160a01b0319927f53f851c2f0120d87a66d7c53ece15902d923fb3a96f123db6800bb40afe22dd99188915f8051602061500f83398151915291a3161790555f80610f32565b600983018054604080516001600160a01b038984168116825295909516602086015291936001600160a01b0319927fe8c109986cf423efdcea0006729e534fc595d32c889b5db8f41e3c1e396608ca9188915f8051602061500f83398151915291a3161790555f80610f1c565b600883018054604080516001600160a01b038984168116825295909516602086015291936001600160a01b0319927f268198d81cd5de2a4c427017a36e6262825f97fa3f1ca0d7bccee07cfae2ad589188915f8051602061500f83398151915291a3161790555f80610f06565b600783018054604080516001600160a01b038984168116825295909516602086015291936001600160a01b0319927f1e46cebd6689d8c64011118478db0c61a89aa2646c860df401de476fbf3789839188915f8051602061500f83398151915291a3161790555f80610ef0565b600683018054604080516001600160a01b038984168116825295909516602086015291936001600160a01b0319927f1738168993c657b31bb6b4ae2a138e1b0ce7a642a4f833580e270a93ac3019c39188915f8051602061500f83398151915291a3161790555f80610eda565b600583018054604080516001600160a01b038984168116825295909516602086015291936001600160a01b0319927fbb08281a0f98e2046588a698be9c1af9fc5ce8c044126c7d453aed8e646637349188915f8051602061500f83398151915291a3161790555f80610ec4565b611c2b82916147f7565b61076a5780610ea3565b6040513d84823e3d90fd5b634e487b7160e01b5f52604160045260245ffd5b8480fd5b8680fd5b8580fd5b8380fd5b503461076a57604036600319011261076a57602435801515810361083057611c8e906004356149fb565b80f35b503461076a5761036036600319011261076a5760043561034036602319011261083057611cbd81614abc565b611cc681614b1f565b805f525f60205260405f20602435916001600160a01b039283811680820361117857806129c7575b5050604435838116808203611178578061295a575b505060643583811680820361117857806128ed575b50506084358381168082036111785780612880575b505060a4358381168082036111785780612813575b505060c43583811680820361117857806127a6575b505060e4358381168082036111785780612739575b50506101043583811680820361117857806126cc575b505061012435838116808203611178578061265f575b50506101443583811680820361117857806125f2575b5050610164358381168082036111785780612585575b5050610184358381168082036111785780612518575b50506101a43583811680820361117857806124ab575b50506101c435838116808203611178578061243e575b50506101e43583811680820361117857806123d1575b5050610204358381168082036111785780612364575b50506102243583811680820361117857806122f7575b505061024435838116808203611178578061228a575b505061026435838116808203611178578061221d575b50506102843583811680820361117857806121b0575b50506102a4358381168082036111785780612143575b50506102c43583811680820361117857806120d6575b50506102e4358381168082036111785780612069575b5050610304358381168082036111785780611ffc575b5050610324358381168082036111785780611f8f575b50506103443592808416928385036111785783611f13578580f35b6001600160a01b0319925f8051602061500f833981519152601e7f7df47a1017c379bfcdc814d9844a4203915311da1b67a3deaa8ac0408df74133930196875494611f7f6040519283928816839060209093929360408301946001600160a01b03809216845216910152565b0390a3161790555f808080808580f35b601d84018054604080516001600160a01b038984168116825295909516602086015291936001600160a01b0319927fb8ea76e94f1fa1c619a101614916e863c5e94c9a7af818d1349dbd7764e831449187915f8051602061500f83398151915291a3161790555f80611ef8565b601c84018054604080516001600160a01b038984168116825295909516602086015291936001600160a01b0319927fcef6e888ca344077e889d6d961447b180a6f2c1f8a3a4b954e2385449143c6c89187915f8051602061500f83398151915291a3161790555f80611ee2565b601b84018054604080516001600160a01b038984168116825295909516602086015291936001600160a01b0319927f63dd945f73078583ef50fd03af198fa3c78e7933617ee2aed52ef628f45ded689187915f8051602061500f83398151915291a3161790555f80611ecc565b601a84018054604080516001600160a01b038984168116825295909516602086015291936001600160a01b0319927f8261c36d170ec64b60c2f015482418cba997cb5d3787c13f43e3e29e3713a3aa9187915f8051602061500f83398151915291a3161790555f80611eb6565b601984018054604080516001600160a01b038984168116825295909516602086015291936001600160a01b0319927f98e8485c9f8d32054528913734a0b61a027120b5b579681fd3be4ad009f54d889187915f8051602061500f83398151915291a3161790555f80611ea0565b601884018054604080516001600160a01b038984168116825295909516602086015291936001600160a01b0319927f5a200776fcd7bd781b66706fec6e1b18f0621e153b73c7363545fca20f04a1d29187915f8051602061500f83398151915291a3161790555f80611e8a565b601784018054604080516001600160a01b038984168116825295909516602086015291936001600160a01b0319927fe43d20cf7f6a2ff14d5f0335d5c7789349ccc63ae1114e12b0bd87c3f1e951a19187915f8051602061500f83398151915291a3161790555f80611e74565b601684018054604080516001600160a01b038984168116825295909516602086015291936001600160a01b0319927fb854146362255d5eede99c74f1b401239cdf7180a0c47f511c1557e6409c7b4b9187915f8051602061500f83398151915291a3161790555f80611e5e565b601584018054604080516001600160a01b038984168116825295909516602086015291936001600160a01b0319927f9186309698ee627a535c955ea1228e075c42d3a0a1d08728ecfd9e895f4199d49187915f8051602061500f83398151915291a3161790555f80611e48565b601484018054604080516001600160a01b038984168116825295909516602086015291936001600160a01b0319927f5d065ed09f08f7097cb10b9eb7dcca8928903e9d07ab34b9075dc83c39f381ac9187915f8051602061500f83398151915291a3161790555f80611e32565b601384018054604080516001600160a01b038984168116825295909516602086015291936001600160a01b0319927f2822d734b7f548aead5dffdb79a1d04beee6bedc39c1fe6b31f1db55b5b432a89187915f8051602061500f83398151915291a3161790555f80611e1c565b601284018054604080516001600160a01b038984168116825295909516602086015291936001600160a01b0319927f64b344ea52e7d4fb7b6ebe47cbbbbaf6c3cead98ea350e4b7972fbb247fe424c9187915f8051602061500f83398151915291a3161790555f80611e06565b601184018054604080516001600160a01b038984168116825295909516602086015291936001600160a01b0319927f32afddabd709addf4415072b8d91182991dca79db32c8f955b2de08fde6a6f5b9187915f8051602061500f83398151915291a3161790555f80611df0565b601084018054604080516001600160a01b038984168116825295909516602086015291936001600160a01b0319927f7b5100c5075e8b464921c50f00e473a3bc0c31203deea60edb85769b757f8bf39187915f8051602061500f83398151915291a3161790555f80611dda565b600f84018054604080516001600160a01b038984168116825295909516602086015291936001600160a01b0319927f462e21731791a88fbc3d6e262bf146c4157be7e45705bcc62f1a363fee3c48269187915f8051602061500f83398151915291a3161790555f80611dc4565b600e84018054604080516001600160a01b038984168116825295909516602086015291936001600160a01b0319927fb8cb7564b4fae24959e5c4110e8d9cf91dec7f90b166d06cf5ec514d3c9572bb9187915f8051602061500f83398151915291a3161790555f80611dae565b600d84018054604080516001600160a01b038984168116825295909516602086015291936001600160a01b0319927f666ae48d5d989da88ad33b18d9ad1eb36fb06da47a87e3848edc838a0c833b669187915f8051602061500f83398151915291a3161790555f80611d98565b600c84018054604080516001600160a01b038984168116825295909516602086015291936001600160a01b0319927fbff2e278cc551512f9de0667dc3c1f1adc56d0fa1cc74c9c4bc2fdb3bf19b4eb9187915f8051602061500f83398151915291a3161790555f80611d82565b600b84018054604080516001600160a01b038984168116825295909516602086015291936001600160a01b0319927f4347b7879af66b5dbc633ac7823917506d8e6f9413913e212b835d7d207618e69187915f8051602061500f83398151915291a3161790555f80611d6c565b600a84018054604080516001600160a01b038984168116825295909516602086015291936001600160a01b0319927f53f851c2f0120d87a66d7c53ece15902d923fb3a96f123db6800bb40afe22dd99187915f8051602061500f83398151915291a3161790555f80611d57565b600984018054604080516001600160a01b038984168116825295909516602086015291936001600160a01b0319927fe8c109986cf423efdcea0006729e534fc595d32c889b5db8f41e3c1e396608ca9187915f8051602061500f83398151915291a3161790555f80611d42565b600884018054604080516001600160a01b038984168116825295909516602086015291936001600160a01b0319927f268198d81cd5de2a4c427017a36e6262825f97fa3f1ca0d7bccee07cfae2ad589187915f8051602061500f83398151915291a3161790555f80611d2d565b600784018054604080516001600160a01b038984168116825295909516602086015291936001600160a01b0319927f1e46cebd6689d8c64011118478db0c61a89aa2646c860df401de476fbf3789839187915f8051602061500f83398151915291a3161790555f80611d18565b600684018054604080516001600160a01b038984168116825295909516602086015291936001600160a01b0319927f1738168993c657b31bb6b4ae2a138e1b0ce7a642a4f833580e270a93ac3019c39187915f8051602061500f83398151915291a3161790555f80611d03565b600584018054604080516001600160a01b038984168116825295909516602086015291936001600160a01b0319927fbb08281a0f98e2046588a698be9c1af9fc5ce8c044126c7d453aed8e646637349187915f8051602061500f83398151915291a3161790555f80611cee565b503461076a57602036600319011261076a57600435612a5281614abc565b604051907fa1debd1300000000000000000000000000000000000000000000000000000000825260048201526060816024816001600160a01b037f0000000000000000000000000000000000000000000000000000000000000000165afa8015611c355782918391612ae5575b50612ae190604051938493846040919493926060820195825260208201520152565b0390f35b9050612ae19250612b0e915060603d606011612b15575b612b068183614845565b8101906149e0565b9092612abf565b503d612afc565b503461076a578060031936011261076a576020600654604051908152f35b503461076a578060031936011261076a5760206040517f71f3d55856e4058ed06ee057d79ada615f65cdf5f9ee88181b914225088f834f8152f35b503461076a57612b84366146f6565b9190612b8f82614abc565b612b9882614b1f565b7f71f3d55856e4058ed06ee057d79ada615f65cdf5f9ee88181b914225088f834f8303612c3d576001600160a01b039082855260016020526040852082821690815f5260205260405f209060ff1991828154169055848752600360205260408720905f5260205260405f20858752602052604086209081541690555b16907f5d889adddd84715508093563ae8da798a941b4accfcda9c79f2bba3a2602dd718480a480f35b7f850d585eb7f024ccee5e68e55f2c26cc72e1e6ee456acf62135757a5eb9d4a108303612cbd576001600160a01b039082855260026020526040852082821690815f5260205260405f209060ff1991828154169055848752600360205260408720905f5260205260405f2085875260205260408620908154169055612c14565b60405163d647364f60e01b815260206004820152600c60248201527f496e76616c696420726f6c6500000000000000000000000000000000000000006044820152606490fd5b503461076a57602036600319011261076a57600435612d2181614abc565b604051907fa3a2479200000000000000000000000000000000000000000000000000000000825260048201526060816024816001600160a01b037f0000000000000000000000000000000000000000000000000000000000000000165afa8015611c355782918391612ae55750612ae190604051938493846040919493926060820195825260208201520152565b503461076a5760ff6040602092612dc5366146f6565b918352600386526001600160a01b0384842091165f528552825f2090825284522054166040519015158152f35b503461076a576020806003193601126108305760043590612e1282614abc565b6001600160a01b0392837f00000000000000000000000000000000000000000000000000000000000000001691604051917fd32d0ade000000000000000000000000000000000000000000000000000000008352846004840152608083602481875afa9485156131c3578193829683918491613158575b5061ffff91604051937fa93ed1ba00000000000000000000000000000000000000000000000000000000855286856004818c5afa94851561311e578695613129575b50604051947f6a062954000000000000000000000000000000000000000000000000000000008652816004870152602486015286856044818c5afa94851561311e5786956130ef575b50604051907fa5afc4c600000000000000000000000000000000000000000000000000000000825287826004818d5afa9182156130e4579087929183926130b1575b506044906040519b8c9384927f0bcb2f93000000000000000000000000000000000000000000000000000000008452600484015260248301525afa9788156130a6578598613003575b5060ff9083604098979698519a8160c08d0199168c5216868b0152166040890152166060870152608086015260c060a086015283518092528060e086019401925b828110612fed5785850386f35b8351871685529381019392810192600101612fe0565b9097503d8086833e6130158183614845565b8101908681830312611c5c5780519067ffffffffffffffff8211611c5857019080601f83011215611c5c57815161304b81614997565b926130596040519485614845565b818452888085019260051b8201019283116130a2578801905b8282106130865750505060ff909790612f9f565b81518d8116810361309e578152908801908801613072565b8880fd5b8780fd5b6040513d87823e3d90fd5b925090508782813d81116130dd575b6130ca8183614845565b8101031261117857905186916044612f56565b503d6130c0565b6040513d89823e3d90fd5b9094508681813d8311613117575b6131078183614845565b81010312611c5c5751935f612f14565b503d6130fd565b6040513d88823e3d90fd5b9094508681813d8311613151575b6131418183614845565b810103126111785751935f612ecb565b503d613137565b9750505092506080853d6080116131bb575b8161317760809383614845565b8101031261076a57613188856149d1565b926131948387016149d1565b9360408701519660ff88168803611c605760606131b191016149d1565b909496905f612e89565b3d915061316a565b50604051903d90823e3d90fd5b503461076a57602036600319011261076a576040906004356131f181614abc565b815280602052206132096020601f8301549201614909565b90612ae1604051928392835260406020840152604083019061475e565b503461076a57604036600319011261076a576001600160a01b03604061324a6146e0565b92600435815260016020522091165f52602052602060ff60405f2054166040519015158152f35b503461076a578060031936011261076a5760206040517f850d585eb7f024ccee5e68e55f2c26cc72e1e6ee456acf62135757a5eb9d4a108152f35b503461076a578060031936011261076a576006546132e26132cc82614997565b916132da6040519384614845565b808352614997565b60209290601f1901368385013780600193600192600590600554945b85811061331b5760405160208082528190612ae19082018a61475e565b808891835282855260ff600360408520015416613339575b016132fe565b949050865181101561335e576133588186868b94871b8b0101526149af565b94613333565b602482634e487b7160e01b81526032600452fd5b503461076a57604036600319011261076a5760243560043561339381614abc565b61339c82614abc565b6133a581614b1f565b81811461340157808352826020526133c38260206040862001614957565b818352826020526133da8160206040862001614957565b7fe4efcf2d01d38d3de90c4288e3533ee47fe8f6dd7ea0253636790b242dc705108380a380f35b606460405163d647364f60e01b815260206004820152601560248201527f43616e6e6f7420616c6c7920776974682073656c6600000000000000000000006044820152fd5b503461076a57604036600319011261076a576001600160a01b03604061346a6146e0565b92600435815260026020522091165f52602052602060ff60405f2054166040519015158152f35b503461076a57602036600319011261076a576040612ae191606061040083516134b98161480b565b828152826020820152828582015283838201528360808201528360a08201528360c08201528360e08201528361010082015283610120820152836101408201528361016082015283610180820152836101a0820152836101c0820152836101e08201528361020082015283610220820152836102408201528361026082015283610280820152836102a0820152836102c0820152836102e08201528361030082015283610320820152836103408201528361036082015283610380820152836103a0820152836103c0820152836103e08201520152613599600435614abc565b600435815280602052206138106020604051926135b58461480b565b6135be81614867565b84526135cc60018201614867565b828501526135dc60028201614867565b604085015260ff60038201541615156060850152600481015460808501526001600160a01b0360058201541660a08501526001600160a01b0360068201541660c08501526001600160a01b0360078201541660e08501526001600160a01b036008820154166101008501526001600160a01b036009820154166101208501526001600160a01b03600a820154166101408501526001600160a01b03600b820154166101608501526001600160a01b03600c820154166101808501526001600160a01b03600d820154166101a08501526001600160a01b03600e820154166101c08501526001600160a01b03600f820154166101e08501526001600160a01b036010820154166102008501526001600160a01b036011820154166102208501526001600160a01b036012820154166102408501526001600160a01b036013820154166102608501526001600160a01b036014820154166102808501526001600160a01b036015820154166102a08501526001600160a01b036016820154166102c08501526001600160a01b036017820154166102e08501526001600160a01b036018820154166103008501526001600160a01b036019820154166103208501526001600160a01b03601a820154166103408501526001600160a01b03601b820154166103608501526001600160a01b03601c820154166103808501526001600160a01b03601d820154166103a08501526001600160a01b03601e820154166103c0850152601f8101546103e085015201614909565b6104008201526040519182916020835261040061386d61385761384184516104206020890152610440880190614720565b6020850151878203601f19016040890152614720565b6040840151868203601f19016060880152614720565b91606081015115156080860152608081015160a08601526001600160a01b0360a08201511660c08601526001600160a01b0360c08201511660e08601526001600160a01b0360e0820151166101008601526001600160a01b03610100820151166101208601526001600160a01b03610120820151166101408601526001600160a01b03610140820151166101608601526001600160a01b03610160820151166101808601526001600160a01b03610180820151166101a08601526001600160a01b036101a0820151166101c08601526001600160a01b036101c0820151166101e08601526001600160a01b036101e0820151166102008601526001600160a01b03610200820151166102208601526001600160a01b03610220820151166102408601526001600160a01b03610240820151166102608601526001600160a01b03610260820151166102808601526001600160a01b03610280820151166102a08601526001600160a01b036102a0820151166102c08601526001600160a01b036102c0820151166102e08601526001600160a01b036102e0820151166103008601526001600160a01b03610300820151166103208601526001600160a01b03610320820151166103408601526001600160a01b03610340820151166103608601526001600160a01b03610360820151166103808601526001600160a01b03610380820151166103a08601526001600160a01b036103a0820151166103c08601526001600160a01b036103c0820151166103e08601526103e0810151828601520151601f198483030161042085015261475e565b503461076a57604036600319011261076a576001600160a01b036040613ae36146e0565b92600435815260046020522091165f52602052602060ff60405f2054166040519015158152f35b503461076a576001600160a01b03613b21366146f6565b9290613b2c83614abc565b613b3583614b1f565b16908115613c50577f71f3d55856e4058ed06ee057d79ada615f65cdf5f9ee88181b914225088f834f8303613bd857808452600160205260408420825f5260205260405f2060ff1990600182825416179055818552600360205260408520835f5260205260405f20848652602052600160408620918254161790555b7f94765e3c1e0f3b4ba19015a25eec7ec04cb5c6acc83a4ac9cac5cf4412abf8488480a480f35b7f850d585eb7f024ccee5e68e55f2c26cc72e1e6ee456acf62135757a5eb9d4a108303612cbd57808452600260205260408420825f5260205260405f2060ff1990600182825416179055818552600360205260408520835f5260205260405f2084865260205260016040862091825416179055613bb1565b60046040517fd92e233d000000000000000000000000000000000000000000000000000000008152fd5b503461076a57606036600319011261076a576024356004356001600160a01b036044358181169182820361117857613cb184614abc565b613cba84614b1f565b8386528560205260408620927fbb08281a0f98e2046588a698be9c1af9fc5ce8c044126c7d453aed8e6466373486145f14613d355760055f8051602061500f8339815191529401906001600160a01b0319825493841693161790555b604080516001600160a01b03928316815292909116602083015290a380f35b7f1738168993c657b31bb6b4ae2a138e1b0ce7a642a4f833580e270a93ac3019c38603613d875760065f8051602061500f8339815191529401906001600160a01b031982549384169316179055613d16565b7f1e46cebd6689d8c64011118478db0c61a89aa2646c860df401de476fbf3789838603613dd95760075f8051602061500f8339815191529401906001600160a01b031982549384169316179055613d16565b7f268198d81cd5de2a4c427017a36e6262825f97fa3f1ca0d7bccee07cfae2ad588603613e2b5760085f8051602061500f8339815191529401906001600160a01b031982549384169316179055613d16565b7fe8c109986cf423efdcea0006729e534fc595d32c889b5db8f41e3c1e396608ca8603613e7d5760095f8051602061500f8339815191529401906001600160a01b031982549384169316179055613d16565b7f53f851c2f0120d87a66d7c53ece15902d923fb3a96f123db6800bb40afe22dd98603613ecf57600a5f8051602061500f8339815191529401906001600160a01b031982549384169316179055613d16565b7f4347b7879af66b5dbc633ac7823917506d8e6f9413913e212b835d7d207618e68603613f2157600b5f8051602061500f8339815191529401906001600160a01b031982549384169316179055613d16565b7fbff2e278cc551512f9de0667dc3c1f1adc56d0fa1cc74c9c4bc2fdb3bf19b4eb8603613f7357600c5f8051602061500f8339815191529401906001600160a01b031982549384169316179055613d16565b7f666ae48d5d989da88ad33b18d9ad1eb36fb06da47a87e3848edc838a0c833b668603613fc557600d5f8051602061500f8339815191529401906001600160a01b031982549384169316179055613d16565b7fb8cb7564b4fae24959e5c4110e8d9cf91dec7f90b166d06cf5ec514d3c9572bb860361401757600e5f8051602061500f8339815191529401906001600160a01b031982549384169316179055613d16565b7f462e21731791a88fbc3d6e262bf146c4157be7e45705bcc62f1a363fee3c4826860361406957600f5f8051602061500f8339815191529401906001600160a01b031982549384169316179055613d16565b7f7b5100c5075e8b464921c50f00e473a3bc0c31203deea60edb85769b757f8bf386036140bb5760105f8051602061500f8339815191529401906001600160a01b031982549384169316179055613d16565b7f32afddabd709addf4415072b8d91182991dca79db32c8f955b2de08fde6a6f5b860361410d5760115f8051602061500f8339815191529401906001600160a01b031982549384169316179055613d16565b7f64b344ea52e7d4fb7b6ebe47cbbbbaf6c3cead98ea350e4b7972fbb247fe424c860361415f5760125f8051602061500f8339815191529401906001600160a01b031982549384169316179055613d16565b7f2822d734b7f548aead5dffdb79a1d04beee6bedc39c1fe6b31f1db55b5b432a886036141b15760135f8051602061500f8339815191529401906001600160a01b031982549384169316179055613d16565b7f5d065ed09f08f7097cb10b9eb7dcca8928903e9d07ab34b9075dc83c39f381ac86036142035760145f8051602061500f8339815191529401906001600160a01b031982549384169316179055613d16565b7f9186309698ee627a535c955ea1228e075c42d3a0a1d08728ecfd9e895f4199d486036142555760155f8051602061500f8339815191529401906001600160a01b031982549384169316179055613d16565b7fb854146362255d5eede99c74f1b401239cdf7180a0c47f511c1557e6409c7b4b86036142a75760165f8051602061500f8339815191529401906001600160a01b031982549384169316179055613d16565b7fe43d20cf7f6a2ff14d5f0335d5c7789349ccc63ae1114e12b0bd87c3f1e951a186036142f95760175f8051602061500f8339815191529401906001600160a01b031982549384169316179055613d16565b7f5a200776fcd7bd781b66706fec6e1b18f0621e153b73c7363545fca20f04a1d2860361434b5760185f8051602061500f8339815191529401906001600160a01b031982549384169316179055613d16565b7f98e8485c9f8d32054528913734a0b61a027120b5b579681fd3be4ad009f54d88860361439d5760195f8051602061500f8339815191529401906001600160a01b031982549384169316179055613d16565b7f8261c36d170ec64b60c2f015482418cba997cb5d3787c13f43e3e29e3713a3aa86036143ef57601a5f8051602061500f8339815191529401906001600160a01b031982549384169316179055613d16565b7f63dd945f73078583ef50fd03af198fa3c78e7933617ee2aed52ef628f45ded68860361444157601b5f8051602061500f8339815191529401906001600160a01b031982549384169316179055613d16565b7fcef6e888ca344077e889d6d961447b180a6f2c1f8a3a4b954e2385449143c6c8860361449357601c5f8051602061500f8339815191529401906001600160a01b031982549384169316179055613d16565b7fb8ea76e94f1fa1c619a101614916e863c5e94c9a7af818d1349dbd7764e8314486036144e557601d5f8051602061500f8339815191529401906001600160a01b031982549384169316179055613d16565b7f7df47a1017c379bfcdc814d9844a4203915311da1b67a3deaa8ac0408df74133860361453757601e5f8051602061500f8339815191529401906001600160a01b031982549384169316179055613d16565b606460405163d647364f60e01b815260206004820152601260248201527f556e6b6e6f776e206d6f64756c65206b657900000000000000000000000000006044820152fd5b50346111785760203660031901126111785760043561459a81614abc565b6145a381614b1f565b6001600160a01b037f00000000000000000000000000000000000000000000000000000000000000001690813b15611178575f916044839260405194859384927f612dca9800000000000000000000000000000000000000000000000000000000845260048401523360248401525af1801561462d57614621575080f35b61462b91506147f7565b005b6040513d5f823e3d90fd5b3461117857614646366146f6565b9161465081614abc565b5f5260036020526001600160a01b0360405f2091165f5260205260405f20905f52602052602060ff60405f2054166040519015158152f35b34611178576020366003190112611178576004356146a581614abc565b5f525f60205260206001600160a01b03600860405f20015416604051908152f35b34611178575f366003190112611178576020906005548152f35b602435906001600160a01b038216820361117857565b606090600319011261117857600435906024356001600160a01b0381168103611178579060443590565b91908251928382525f5b84811061474a575050825f602080949584010152601f8019910116010190565b60208183018101518483018201520161472a565b9081518082526020808093019301915f5b82811061477d575050505090565b83518552938101939281019260010161476f565b9181601f840112156111785782359167ffffffffffffffff8311611178576020838186019501011161117857565b90600182811c921680156147ed575b60208310146147d957565b634e487b7160e01b5f52602260045260245ffd5b91607f16916147ce565b67ffffffffffffffff8111611c4057604052565b610420810190811067ffffffffffffffff821117611c4057604052565b610340810190811067ffffffffffffffff821117611c4057604052565b90601f8019910116810190811067ffffffffffffffff821117611c4057604052565b9060405191825f8254614879816147bf565b908184526020946001916001811690815f146148e757506001146148a9575b5050506148a792500383614845565b565b5f90815285812095935091905b8183106148cf5750506148a793508201015f8080614898565b855488840185015294850194879450918301916148b6565b925050506148a794925060ff191682840152151560051b8201015f8080614898565b90604051918281549182825260209260208301915f5260205f20935f905b82821061493d575050506148a792500383614845565b855484526001958601958895509381019390910190614927565b80549068010000000000000000821015611c405760018201808255821015614983575f5260205f200155565b634e487b7160e01b5f52603260045260245ffd5b67ffffffffffffffff8111611c405760051b60200190565b5f1981146149bd5760010190565b634e487b7160e01b5f52601160045260245ffd5b519061ffff8216820361117857565b90816060910312611178578051916040602083015192015190565b90614a0582614abc565b614a0e82614b1f565b815f525f602052600360405f200190815491811515928360ff8216151514614ab55760ff191660ff841617905515614a7c5760207f1b33bf721278476ef24ca6ec530cfd3532aa6a88fe28b73f6bdf0f74e3ee52cc91614a6f6006546149af565b6006555b604051908152a2565b60065480156149bd575f19016006557f1b33bf721278476ef24ca6ec530cfd3532aa6a88fe28b73f6bdf0f74e3ee52cc90602090614a73565b5050505050565b8015908115614b12575b50614acd57565b606460405163d647364f60e01b815260206004820152601860248201527f436f6d6d756e69747920646f6573206e6f7420657869737400000000000000006044820152fd5b905060055411155f614ac6565b5f52600460205260405f20335f5260205260ff60405f2054166148a75760246040517f4a0bfec1000000000000000000000000000000000000000000000000000000008152336004820152fd5b92949796959093978415614fc95781614f6e575b600598895496614b8f886149af565b8b55879a885f526020935f855260405f209367ffffffffffffffff92838b11611c4057614bbc86546147bf565b988b601f9a8b8111614f2e575b505f8b8211600114614ec4575f91614eb9575b505f1960038e901b1c191660018d901b1787555b60019586880191868211611c40578190614c0a84546147bf565b8d8111614e6d575b505f908d8311600114614e0c575f92614e01575b50505f19600383901b1c191690871b1790555b60028601938311611c4057614c4e84546147bf565b90898211614dc0575b50505f90888311600114614d3457928260609996938c9b9996937f4efcb338ffccf7b085281c4db55554049eb8f23f9d2b09327c3756f0cf2a213f9d99965f92614d29575b50505f19600383901b1c191690831b1790555b8385600384019360ff1994848682541617905542600482015501558a5f52600483526001600160a01b0360405f209c169b8c5f52835260405f2091825416179055614cfb6006546149af565b60065560405196879560408752816040880152878701375f85850187015284015201601f19168101030190a3565b013590505f80614c9c565b601f19831691845f52875f20925f5b818110614dab57509386938d9c9a9792937f4efcb338ffccf7b085281c4db55554049eb8f23f9d2b09327c3756f0cf2a213f9e9a97948360609e9b9810614d92575b505050811b019055614caf565b01355f19600384901b60f8161c191690555f8080614d85565b83830135855593870193918901918901614d43565b845f52875f20908a808601821c8301938a8710614df8575b01901c019085905b828110614ded5750614c57565b5f8155018590614de0565b93508293614dd8565b013590505f80614c26565b5f8581528c81208b95509290601f198516908e5b828210614e565750508411614e3d575b505050811b019055614c39565b01355f19600384901b60f8161c191690555f8080614e30565b8385013586558d979095019492830192018e614e20565b909150835f528a5f208d808501871c8201928d8610614eb0575b918b918695949301881c01915b828110614ea2575050614c12565b5f81558594508b9101614e94565b92508192614e87565b90508b01355f614bdc565b8c91601f1981168a5f528b5f20938c5f915b838310614f0e5750505010614ef5575b505060018c811b018755614bf0565b8c01355f1960038f901b60f8161c191690555f80614ee6565b819394509585600192939697013581550194019201908f918f8d90614ed6565b885f528b8a5f20918b828501871c84019410614f65575b01841c01905b818110614f5a578d9150614bc9565b5f8155600101614f4b565b92508192614f45565b815f525f60205260ff600360405f20015416614b8057606460405163d647364f60e01b815260206004820152601b60248201527f506172656e7420636f6d6d756e697479206e6f742061637469766500000000006044820152fd5b606460405163d647364f60e01b815260206004820152601e60248201527f436f6d6d756e697479206e616d652063616e6e6f7420626520656d70747900006044820152fdfe2f3bea06c6e9b63d5e7c84a6bc5a08817c09192cdc87f2ec5a5fecc2a7dd503ba2646970667358221220410cc94bb9033e28cd651f0afed352ca9f07c2d99efbcc0b750d94ce6126f99564736f6c63430008180033","linkReferences":{}},"methodIdentifiers":{"CURATOR_ROLE()":"4a2cfb54","GOVERNANCE_ROLE()":"f36c8f5c","MODERATOR_ROLE()":"797669c9","activeCommunityCount()":"826410c4","bootstrapCommunity(string,string,string,uint256,(uint256,uint256,uint256,bool,uint256,uint256,uint256,uint256,uint256,uint256,uint256,uint256,uint16,uint16,uint8,uint16),(address,address,address,address,address,address,address,address,address,address,address,address,address,address,address,address,address,address,address,address,address,address,address,address,address,address))":"a9c50fd3","communities(uint256)":"e590b56a","communityAdmins(uint256,address)":"3688da79","communityRoles(uint256,address,bytes32)":"555973c4","curators(uint256,address)":"3b472460","formAlliance(uint256,uint256)":"45dc2308","getActiveCommunities()":"49dc706b","getCommunity(uint256)":"370603f8","getCommunityModules(uint256)":"f830e348","getCommunityRelationships(uint256)":"4fbcf131","getEconomicParameters(uint256)":"50c76b46","getEligibilityRules(uint256)":"560d4015","getGovernanceParameters(uint256)":"8594e56c","getTimelock(uint256)":"10b18438","grantCommunityRole(uint256,address,bytes32)":"33624966","hasRole(uint256,address,bytes32)":"1ca5b571","initializeDefaultParameters(uint256)":"21be27b8","moderators(uint256,address)":"4d609b01","nextCommunityId()":"06055b84","paramController()":"d0d1854d","registerCommunity(string,string,string,uint256)":"f1b150bd","revokeCommunityRole(uint256,address,bytes32)":"628005b5","setCommunityStatus(uint256,bool)":"9f9e8871","setModuleAddress(uint256,bytes32,address)":"2530ebb3","setModuleAddresses(uint256,(address,address,address,address,address,address,address,address,address,address,address,address,address,address,address,address,address,address,address,address,address,address,address,address,address,address))":"925291e7"},"id":14}