{"abi":[{"type":"constructor","inputs":[{"name":"_paramController","type":"address","internalType":"address"}],"stateMutability":"nonpayable"},{"type":"function","name":"CURATOR_ROLE","inputs":[],"outputs":[{"name":"","type":"bytes32","internalType":"bytes32"}],"stateMutability":"view"},{"type":"function","name":"GOVERNANCE_ROLE","inputs":[],"outputs":[{"name":"","type":"bytes32","internalType":"bytes32"}],"stateMutability":"view"},{"type":"function","name":"MODERATOR_ROLE","inputs":[],"outputs":[{"name":"","type":"bytes32","internalType":"bytes32"}],"stateMutability":"view"},{"type":"function","name":"activeCommunityCount","inputs":[],"outputs":[{"name":"","type":"uint256","internalType":"uint256"}],"stateMutability":"view"},{"type":"function","name":"bootstrapCommunity","inputs":[{"name":"name","type":"string","internalType":"string"},{"name":"description","type":"string","internalType":"string"},{"name":"metadataURI","type":"string","internalType":"string"},{"name":"parentCommunityId","type":"uint256","internalType":"uint256"},{"name":"bootstrapParams","type":"tuple","internalType":"struct CommunityRegistry.BootstrapParams","components":[{"name":"verifierPanelSize","type":"uint256","internalType":"uint256"},{"name":"verifierMin","type":"uint256","internalType":"uint256"},{"name":"maxPanelsPerEpoch","type":"uint256","internalType":"uint256"},{"name":"useVPTWeighting","type":"bool","internalType":"bool"},{"name":"maxWeightPerVerifier","type":"uint256","internalType":"uint256"},{"name":"cooldownAfterFraud","type":"uint256","internalType":"uint256"},{"name":"debateWindow","type":"uint256","internalType":"uint256"},{"name":"voteWindow","type":"uint256","internalType":"uint256"},{"name":"executionDelay","type":"uint256","internalType":"uint256"},{"name":"minSeniority","type":"uint256","internalType":"uint256"},{"name":"minSBTs","type":"uint256","internalType":"uint256"},{"name":"proposalThreshold","type":"uint256","internalType":"uint256"},{"name":"minTreasuryBps","type":"uint16","internalType":"uint16"},{"name":"minPositionsBps","type":"uint16","internalType":"uint16"},{"name":"spilloverTarget","type":"uint8","internalType":"uint8"},{"name":"spilloverSplitBpsToTreasury","type":"uint16","internalType":"uint16"}]},{"name":"modules","type":"tuple","internalType":"struct CommunityRegistry.ModuleAddresses","components":[{"name":"governor","type":"address","internalType":"address"},{"name":"timelock","type":"address","internalType":"address"},{"name":"requestHub","type":"address","internalType":"address"},{"name":"draftsManager","type":"address","internalType":"address"},{"name":"engagementsManager","type":"address","internalType":"address"},{"name":"valuableActionRegistry","type":"address","internalType":"address"},{"name":"verifierPowerToken","type":"address","internalType":"address"},{"name":"verifierElection","type":"address","internalType":"address"},{"name":"verifierManager","type":"address","internalType":"address"},{"name":"valuableActionSBT","type":"address","internalType":"address"},{"name":"treasuryVault","type":"address","internalType":"address"},{"name":"treasuryAdapter","type":"address","internalType":"address"},{"name":"communityToken","type":"address","internalType":"address"},{"name":"paramController","type":"address","internalType":"address"}]}],"outputs":[{"name":"communityId","type":"uint256","internalType":"uint256"}],"stateMutability":"nonpayable"},{"type":"function","name":"communities","inputs":[{"name":"","type":"uint256","internalType":"uint256"}],"outputs":[{"name":"name","type":"string","internalType":"string"},{"name":"description","type":"string","internalType":"string"},{"name":"metadataURI","type":"string","internalType":"string"},{"name":"active","type":"bool","internalType":"bool"},{"name":"createdAt","type":"uint256","internalType":"uint256"},{"name":"governor","type":"address","internalType":"address"},{"name":"timelock","type":"address","internalType":"address"},{"name":"requestHub","type":"address","internalType":"address"},{"name":"draftsManager","type":"address","internalType":"address"},{"name":"engagementsManager","type":"address","internalType":"address"},{"name":"valuableActionRegistry","type":"address","internalType":"address"},{"name":"verifierPowerToken","type":"address","internalType":"address"},{"name":"verifierElection","type":"address","internalType":"address"},{"name":"verifierManager","type":"address","internalType":"address"},{"name":"valuableActionSBT","type":"address","internalType":"address"},{"name":"treasuryVault","type":"address","internalType":"address"},{"name":"treasuryAdapter","type":"address","internalType":"address"},{"name":"communityToken","type":"address","internalType":"address"},{"name":"paramController","type":"address","internalType":"address"},{"name":"parentCommunityId","type":"uint256","internalType":"uint256"}],"stateMutability":"view"},{"type":"function","name":"communityAdmins","inputs":[{"name":"","type":"uint256","internalType":"uint256"},{"name":"","type":"address","internalType":"address"}],"outputs":[{"name":"","type":"bool","internalType":"bool"}],"stateMutability":"view"},{"type":"function","name":"communityRoles","inputs":[{"name":"","type":"uint256","internalType":"uint256"},{"name":"","type":"address","internalType":"address"},{"name":"","type":"bytes32","internalType":"bytes32"}],"outputs":[{"name":"","type":"bool","internalType":"bool"}],"stateMutability":"view"},{"type":"function","name":"curators","inputs":[{"name":"","type":"uint256","internalType":"uint256"},{"name":"","type":"address","internalType":"address"}],"outputs":[{"name":"","type":"bool","internalType":"bool"}],"stateMutability":"view"},{"type":"function","name":"formAlliance","inputs":[{"name":"communityId1","type":"uint256","internalType":"uint256"},{"name":"communityId2","type":"uint256","internalType":"uint256"}],"outputs":[],"stateMutability":"nonpayable"},{"type":"function","name":"getActiveCommunities","inputs":[],"outputs":[{"name":"","type":"uint256[]","internalType":"uint256[]"}],"stateMutability":"view"},{"type":"function","name":"getCommunity","inputs":[{"name":"communityId","type":"uint256","internalType":"uint256"}],"outputs":[{"name":"","type":"tuple","internalType":"struct CommunityRegistry.Community","components":[{"name":"name","type":"string","internalType":"string"},{"name":"description","type":"string","internalType":"string"},{"name":"metadataURI","type":"string","internalType":"string"},{"name":"active","type":"bool","internalType":"bool"},{"name":"createdAt","type":"uint256","internalType":"uint256"},{"name":"governor","type":"address","internalType":"address"},{"name":"timelock","type":"address","internalType":"address"},{"name":"requestHub","type":"address","internalType":"address"},{"name":"draftsManager","type":"address","internalType":"address"},{"name":"engagementsManager","type":"address","internalType":"address"},{"name":"valuableActionRegistry","type":"address","internalType":"address"},{"name":"verifierPowerToken","type":"address","internalType":"address"},{"name":"verifierElection","type":"address","internalType":"address"},{"name":"verifierManager","type":"address","internalType":"address"},{"name":"valuableActionSBT","type":"address","internalType":"address"},{"name":"treasuryVault","type":"address","internalType":"address"},{"name":"treasuryAdapter","type":"address","internalType":"address"},{"name":"communityToken","type":"address","internalType":"address"},{"name":"paramController","type":"address","internalType":"address"},{"name":"parentCommunityId","type":"uint256","internalType":"uint256"},{"name":"allyCommunityIds","type":"uint256[]","internalType":"uint256[]"}]}],"stateMutability":"view"},{"type":"function","name":"getCommunityModules","inputs":[{"name":"communityId","type":"uint256","internalType":"uint256"}],"outputs":[{"name":"","type":"tuple","internalType":"struct CommunityRegistry.ModuleAddresses","components":[{"name":"governor","type":"address","internalType":"address"},{"name":"timelock","type":"address","internalType":"address"},{"name":"requestHub","type":"address","internalType":"address"},{"name":"draftsManager","type":"address","internalType":"address"},{"name":"engagementsManager","type":"address","internalType":"address"},{"name":"valuableActionRegistry","type":"address","internalType":"address"},{"name":"verifierPowerToken","type":"address","internalType":"address"},{"name":"verifierElection","type":"address","internalType":"address"},{"name":"verifierManager","type":"address","internalType":"address"},{"name":"valuableActionSBT","type":"address","internalType":"address"},{"name":"treasuryVault","type":"address","internalType":"address"},{"name":"treasuryAdapter","type":"address","internalType":"address"},{"name":"communityToken","type":"address","internalType":"address"},{"name":"paramController","type":"address","internalType":"address"}]}],"stateMutability":"view"},{"type":"function","name":"getCommunityRelationships","inputs":[{"name":"communityId","type":"uint256","internalType":"uint256"}],"outputs":[{"name":"parentCommunityId","type":"uint256","internalType":"uint256"},{"name":"allyCommunityIds","type":"uint256[]","internalType":"uint256[]"}],"stateMutability":"view"},{"type":"function","name":"getEconomicParameters","inputs":[{"name":"communityId","type":"uint256","internalType":"uint256"}],"outputs":[{"name":"minTreasuryBps","type":"uint256","internalType":"uint256"},{"name":"minPositionsBps","type":"uint256","internalType":"uint256"},{"name":"spilloverTarget","type":"uint8","internalType":"uint8"},{"name":"spilloverSplitBpsToTreasury","type":"uint256","internalType":"uint256"},{"name":"feeOnWithdraw","type":"uint256","internalType":"uint256"},{"name":"backingAssets","type":"address[]","internalType":"address[]"}],"stateMutability":"view"},{"type":"function","name":"getEligibilityRules","inputs":[{"name":"communityId","type":"uint256","internalType":"uint256"}],"outputs":[{"name":"minSeniority","type":"uint256","internalType":"uint256"},{"name":"minSBTs","type":"uint256","internalType":"uint256"},{"name":"proposalThreshold","type":"uint256","internalType":"uint256"}],"stateMutability":"view"},{"type":"function","name":"getGovernanceParameters","inputs":[{"name":"communityId","type":"uint256","internalType":"uint256"}],"outputs":[{"name":"debateWindow","type":"uint256","internalType":"uint256"},{"name":"voteWindow","type":"uint256","internalType":"uint256"},{"name":"executionDelay","type":"uint256","internalType":"uint256"}],"stateMutability":"view"},{"type":"function","name":"getTimelock","inputs":[{"name":"communityId","type":"uint256","internalType":"uint256"}],"outputs":[{"name":"","type":"address","internalType":"address"}],"stateMutability":"view"},{"type":"function","name":"grantCommunityRole","inputs":[{"name":"communityId","type":"uint256","internalType":"uint256"},{"name":"user","type":"address","internalType":"address"},{"name":"role","type":"bytes32","internalType":"bytes32"}],"outputs":[],"stateMutability":"nonpayable"},{"type":"function","name":"hasRole","inputs":[{"name":"communityId","type":"uint256","internalType":"uint256"},{"name":"user","type":"address","internalType":"address"},{"name":"role","type":"bytes32","internalType":"bytes32"}],"outputs":[{"name":"","type":"bool","internalType":"bool"}],"stateMutability":"view"},{"type":"function","name":"initializeDefaultParameters","inputs":[{"name":"communityId","type":"uint256","internalType":"uint256"}],"outputs":[],"stateMutability":"nonpayable"},{"type":"function","name":"moderators","inputs":[{"name":"","type":"uint256","internalType":"uint256"},{"name":"","type":"address","internalType":"address"}],"outputs":[{"name":"","type":"bool","internalType":"bool"}],"stateMutability":"view"},{"type":"function","name":"nextCommunityId","inputs":[],"outputs":[{"name":"","type":"uint256","internalType":"uint256"}],"stateMutability":"view"},{"type":"function","name":"paramController","inputs":[],"outputs":[{"name":"","type":"address","internalType":"contract ParamController"}],"stateMutability":"view"},{"type":"function","name":"registerCommunity","inputs":[{"name":"name","type":"string","internalType":"string"},{"name":"description","type":"string","internalType":"string"},{"name":"metadataURI","type":"string","internalType":"string"},{"name":"parentCommunityId","type":"uint256","internalType":"uint256"}],"outputs":[{"name":"communityId","type":"uint256","internalType":"uint256"}],"stateMutability":"nonpayable"},{"type":"function","name":"revokeCommunityRole","inputs":[{"name":"communityId","type":"uint256","internalType":"uint256"},{"name":"user","type":"address","internalType":"address"},{"name":"role","type":"bytes32","internalType":"bytes32"}],"outputs":[],"stateMutability":"nonpayable"},{"type":"function","name":"setCommunityStatus","inputs":[{"name":"communityId","type":"uint256","internalType":"uint256"},{"name":"active","type":"bool","internalType":"bool"}],"outputs":[],"stateMutability":"nonpayable"},{"type":"function","name":"setModuleAddress","inputs":[{"name":"communityId","type":"uint256","internalType":"uint256"},{"name":"moduleKey","type":"bytes32","internalType":"bytes32"},{"name":"moduleAddress","type":"address","internalType":"address"}],"outputs":[],"stateMutability":"nonpayable"},{"type":"function","name":"setModuleAddresses","inputs":[{"name":"communityId","type":"uint256","internalType":"uint256"},{"name":"modules","type":"tuple","internalType":"struct CommunityRegistry.ModuleAddresses","components":[{"name":"governor","type":"address","internalType":"address"},{"name":"timelock","type":"address","internalType":"address"},{"name":"requestHub","type":"address","internalType":"address"},{"name":"draftsManager","type":"address","internalType":"address"},{"name":"engagementsManager","type":"address","internalType":"address"},{"name":"valuableActionRegistry","type":"address","internalType":"address"},{"name":"verifierPowerToken","type":"address","internalType":"address"},{"name":"verifierElection","type":"address","internalType":"address"},{"name":"verifierManager","type":"address","internalType":"address"},{"name":"valuableActionSBT","type":"address","internalType":"address"},{"name":"treasuryVault","type":"address","internalType":"address"},{"name":"treasuryAdapter","type":"address","internalType":"address"},{"name":"communityToken","type":"address","internalType":"address"},{"name":"paramController","type":"address","internalType":"address"}]}],"outputs":[],"stateMutability":"nonpayable"},{"type":"event","name":"CommunityAllianceFormed","inputs":[{"name":"communityId1","type":"uint256","indexed":true,"internalType":"uint256"},{"name":"communityId2","type":"uint256","indexed":true,"internalType":"uint256"}],"anonymous":false},{"type":"event","name":"CommunityRegistered","inputs":[{"name":"communityId","type":"uint256","indexed":true,"internalType":"uint256"},{"name":"name","type":"string","indexed":false,"internalType":"string"},{"name":"creator","type":"address","indexed":true,"internalType":"address"},{"name":"parentCommunityId","type":"uint256","indexed":false,"internalType":"uint256"}],"anonymous":false},{"type":"event","name":"CommunityRoleGranted","inputs":[{"name":"communityId","type":"uint256","indexed":true,"internalType":"uint256"},{"name":"user","type":"address","indexed":true,"internalType":"address"},{"name":"role","type":"bytes32","indexed":true,"internalType":"bytes32"}],"anonymous":false},{"type":"event","name":"CommunityRoleRevoked","inputs":[{"name":"communityId","type":"uint256","indexed":true,"internalType":"uint256"},{"name":"user","type":"address","indexed":true,"internalType":"address"},{"name":"role","type":"bytes32","indexed":true,"internalType":"bytes32"}],"anonymous":false},{"type":"event","name":"CommunityStatusChanged","inputs":[{"name":"communityId","type":"uint256","indexed":true,"internalType":"uint256"},{"name":"active","type":"bool","indexed":false,"internalType":"bool"}],"anonymous":false},{"type":"event","name":"ModuleAddressUpdated","inputs":[{"name":"communityId","type":"uint256","indexed":true,"internalType":"uint256"},{"name":"moduleKey","type":"bytes32","indexed":true,"internalType":"bytes32"},{"name":"oldAddress","type":"address","indexed":false,"internalType":"address"},{"name":"newAddress","type":"address","indexed":false,"internalType":"address"}],"anonymous":false},{"type":"error","name":"InvalidInput","inputs":[{"name":"reason","type":"string","internalType":"string"}]},{"type":"error","name":"NotAuthorized","inputs":[{"name":"caller","type":"address","internalType":"address"}]},{"type":"error","name":"ZeroAddress","inputs":[]}],"bytecode":{"object":"0x60a034620000ba57601f62003a7b38819003918201601f19168301916001600160401b03831184841017620000be57808492602094604052833981010312620000ba57516001600160a01b03811690819003620000ba5760016005558015620000a8576080526040516139a89081620000d382396080518181816108ba015281816109d8015281816111be015281816119e801528181611cb701528181611d780152612ef00152f35b60405163d92e233d60e01b8152600490fd5b5f80fd5b634e487b7160e01b5f52604160045260245ffdfe610160806040526004361015610013575f80fd5b5f905f3560e01c90816306055b84146130095750806310b1843814612fcb5780631ca5b57114612f7b57806321be27b814612ebf5780632530ebb31461299557806333624966146128255780633688da79146127da578063370603f8146123eb5780633b472460146123a057806345dc2308146122cc57806349dc706b146122065780634a2cfb54146121cb5780634d609b01146121805780634fbcf1311461212a57806350c76b4614611d4c578063555973c414611d09578063560d401514611c5d578063628005b514611acf578063797669c914611a94578063826410c414611a765780638594e56c1461198e578063968fdaf01461120f5780639f9e8871146111e2578063d0d1854d1461119e578063daa2ea6114610704578063e590b56a146104e5578063f1b150bd14610459578063f36c8f5c1461041e5763f830e3481461015e575f80fd5b3461041b57602036600319011261041b578060405161017c8161316b565b8181528160208201528160408201528160608201528160808201528160a08201528160c08201528160e082015281610100820152816101208201528161014082015281610160820152816101808201526101a001526004356101dd906133ff565b6004358152806020526040902060058101546001600160a01b0316816006829301546001600160a01b03169060078101546001600160a01b031660088201546001600160a01b031660098301546001600160a01b0316600a8401546001600160a01b0316600b8501546001600160a01b0316600c8601546001600160a01b031690600d8701546001600160a01b031692600e8801546001600160a01b031694600f8901546001600160a01b03169660108a01546001600160a01b03169860118b01546001600160a01b03169a601201546001600160a01b03169b604051809e6102c58261316b565b81526020015260408d015260608c015260808b015260a08a015260c089015260e08801526101008701526101208601526101408501526101608401526101808301526101a082015260405191825260208101516001600160a01b0316602083015260408101516001600160a01b0316604083015260608101516001600160a01b0316606083015260808101516001600160a01b0316608083015260a08101516001600160a01b031660a083015260c08101516001600160a01b031660c083015260e08101516001600160a01b031660e08301526101008101516001600160a01b03166101008301526101208101516001600160a01b03166101208301526101408101516001600160a01b03166101408301526101608101516001600160a01b03166101608301526101808101516001600160a01b03166101808301526101a001516001600160a01b03166101a08201526101c090f35b80fd5b503461041b578060031936011261041b5760206040517f71840dc4906352362b0cdaf79870196c8e42acafade72d5d5a6d59291253ceb18152f35b503461041b57608036600319011261041b5767ffffffffffffffff906004358281116104e15761048d9036906004016130d4565b9290916024358281116104e1576104a89036906004016130d4565b92909160443591821161041b5760206104d9878787876104cb3660048a016130d4565b9290913395606435956134af565b604051908152f35b5080fd5b503461041b57602036600319011261041b576004358152806020526040902061050d816131aa565b9061051a600182016131aa565b6101205261052a600282016131aa565b61014052600381015460ff166101005260048101549160058201546001600160a01b031660068301546001600160a01b031660078401546001600160a01b031660088501546001600160a01b031660098601546001600160a01b0316600a8701546001600160a01b031690600b8801546001600160a01b031692600c8901546001600160a01b031694600d8a01546001600160a01b031696600e8b01546001600160a01b031698600f8c01546001600160a01b03169a60108d01546001600160a01b03169c60118101546001600160a01b031660805260128101546001600160a01b031660a0526013015460e05260405160c0526102808060c0515260c0510161063391613063565b60c051810360c05160200152610120519061064d91613063565b60c051810360c05160400152610140519061066791613063565b9c61010051151560c0516060015260c0516080015260c05160a0015260c05160c0015260c05160e0015260c051610100015260c051610120015260c051610140015260c051610160015260c051610180015260c0516101a0015260c0516101c0015260c0516101e0015260c051610200015260805160c051610220015260a05160c051610240015260e05160c051610260015260c051900360c051f35b503461041b5761044036600319011261041b5760043567ffffffffffffffff81116104e1576107379036906004016130d4565b60243567ffffffffffffffff8111611192576107579036906004016130d4565b60449391933567ffffffffffffffff811161119a5761077a9036906004016130d4565b91610200366083190112611196576101c036610283190112611196576107a5953395606435956134af565b6001600160a01b039160e43580151581036104e1576102043561ffff81168103610bd2576102243561ffff81168103610bd25760ff610244351661024435036111925761ffff61026435166102643503610bd257604051928361020081011067ffffffffffffffff6102008601111761117e5761ffff9283916102008601604052608435865260a435602087015260c4356040870152151560608601526101043560808601526101243560a08601526101443560c08601526101643560e0860152610184356101008601526101a4356101208601526101c4356101408601526101e43561016086015216610180840152166101a082015260ff61024435166101c082015261ffff61026435166101e0820152837f0000000000000000000000000000000000000000000000000000000000000000163b156104e15761ffff6101e0604051927fde4feae60000000000000000000000000000000000000000000000000000000084528560048501523360248501528051604485015260208101516064850152604081015160848501526060810151151560a4850152608081015160c485015260a081015160e485015260c081015161010485015260e08101516101248501526101008101516101448501526101208101516101648501526101408101516101848501526101608101516101a485015282610180820151166101c4850152826101a0820151166101e485015260ff6101c08201511661020485015201511661022482015281816102448183887f0000000000000000000000000000000000000000000000000000000000000000165af180156111735761115f575b5050805f525f60205260405f2061028435838116808203610bd257806110f2575b50506102a435838116808203610bd25780611085575b50506102c435838116808203610bd25780611018575b50506102e435838116808203610bd25780610fab575b505061030435838116808203610bd25780610f3e575b505061032435838116808203610bd25780610ed1575b505061034435838116808203610bd25780610e64575b505061036435838116808203610bd25780610df7575b505061038435838116808203610bd25780610d8a575b50506103a435838116808203610bd25780610d1d575b50506103c435838116808203610bd25780610cb0575b50506103e435838116808203610bd25780610c43575b505061040435838116808203610bd25780610bd6575b5050610424359083821690818303610bd257602094849183610b55575b8683604051908152f35b6001600160a01b0319925f8051602061395383398151915260127f8261c36d170ec64b60c2f015482418cba997cb5d3787c13f43e3e29e3713a3aa930196875494610bc16040519283928816839060209093929360408301946001600160a01b03809216845216910152565b0390a3161790555f80828180610b4b565b5f80fd5b601183018054604080516001600160a01b038984168116825295909516602086015291936001600160a01b0319927f98e8485c9f8d32054528913734a0b61a027120b5b579681fd3be4ad009f54d889188915f8051602061395383398151915291a3161790555f80610b2e565b601083018054604080516001600160a01b038984168116825295909516602086015291936001600160a01b0319927f5a200776fcd7bd781b66706fec6e1b18f0621e153b73c7363545fca20f04a1d29188915f8051602061395383398151915291a3161790555f80610b18565b600f83018054604080516001600160a01b038984168116825295909516602086015291936001600160a01b0319927fe43d20cf7f6a2ff14d5f0335d5c7789349ccc63ae1114e12b0bd87c3f1e951a19188915f8051602061395383398151915291a3161790555f80610b02565b600e83018054604080516001600160a01b038984168116825295909516602086015291936001600160a01b0319927f32afddabd709addf4415072b8d91182991dca79db32c8f955b2de08fde6a6f5b9188915f8051602061395383398151915291a3161790555f80610aec565b600d83018054604080516001600160a01b038984168116825295909516602086015291936001600160a01b0319927f7b5100c5075e8b464921c50f00e473a3bc0c31203deea60edb85769b757f8bf39188915f8051602061395383398151915291a3161790555f80610ad6565b600c83018054604080516001600160a01b038984168116825295909516602086015291936001600160a01b0319927f462e21731791a88fbc3d6e262bf146c4157be7e45705bcc62f1a363fee3c48269188915f8051602061395383398151915291a3161790555f80610ac0565b600b83018054604080516001600160a01b038984168116825295909516602086015291936001600160a01b0319927fb8cb7564b4fae24959e5c4110e8d9cf91dec7f90b166d06cf5ec514d3c9572bb9188915f8051602061395383398151915291a3161790555f80610aaa565b600a83018054604080516001600160a01b038984168116825295909516602086015291936001600160a01b0319927f666ae48d5d989da88ad33b18d9ad1eb36fb06da47a87e3848edc838a0c833b669188915f8051602061395383398151915291a3161790555f80610a94565b600983018054604080516001600160a01b038984168116825295909516602086015291936001600160a01b0319927fbff2e278cc551512f9de0667dc3c1f1adc56d0fa1cc74c9c4bc2fdb3bf19b4eb9188915f8051602061395383398151915291a3161790555f80610a7e565b600883018054604080516001600160a01b038984168116825295909516602086015291936001600160a01b0319927f4347b7879af66b5dbc633ac7823917506d8e6f9413913e212b835d7d207618e69188915f8051602061395383398151915291a3161790555f80610a68565b600783018054604080516001600160a01b038984168116825295909516602086015291936001600160a01b0319927f53f851c2f0120d87a66d7c53ece15902d923fb3a96f123db6800bb40afe22dd99188915f8051602061395383398151915291a3161790555f80610a52565b600683018054604080516001600160a01b038984168116825295909516602086015291936001600160a01b0319927f268198d81cd5de2a4c427017a36e6262825f97fa3f1ca0d7bccee07cfae2ad589188915f8051602061395383398151915291a3161790555f80610a3c565b600583018054604080516001600160a01b038984168116825295909516602086015291936001600160a01b0319927f1e46cebd6689d8c64011118478db0c61a89aa2646c860df401de476fbf3789839188915f8051602061395383398151915291a3161790555f80610a26565b611169829161313a565b61041b5780610a05565b6040513d84823e3d90fd5b634e487b7160e01b5f52604160045260245ffd5b8380fd5b8680fd5b8580fd5b503461041b578060031936011261041b5760206040516001600160a01b037f0000000000000000000000000000000000000000000000000000000000000000168152f35b503461041b57604036600319011261041b5760243580151581036104e15761120c9060043561333e565b80f35b503461041b576101e036600319011261041b576004356101c03660231901126104e15761123b816133ff565b61124481613462565b805f525f60205260405f20602435916001600160a01b0392838116808203610bd25780611921575b5050604435838116808203610bd257806118b4575b5050606435838116808203610bd25780611847575b5050608435838116808203610bd257806117da575b505060a435838116808203610bd2578061176d575b505060c435838116808203610bd25780611700575b505060e435838116808203610bd25780611693575b505061010435838116808203610bd25780611626575b505061012435838116808203610bd257806115b9575b505061014435838116808203610bd2578061154c575b505061016435838116808203610bd257806114df575b505061018435838116808203610bd25780611472575b50506101a435838116808203610bd25780611405575b50506101c4359280841692838503610bd25783611389578580f35b6001600160a01b0319925f8051602061395383398151915260127f8261c36d170ec64b60c2f015482418cba997cb5d3787c13f43e3e29e3713a3aa9301968754946113f56040519283928816839060209093929360408301946001600160a01b03809216845216910152565b0390a3161790555f808080808580f35b601184018054604080516001600160a01b038984168116825295909516602086015291936001600160a01b0319927f98e8485c9f8d32054528913734a0b61a027120b5b579681fd3be4ad009f54d889187915f8051602061395383398151915291a3161790555f8061136e565b601084018054604080516001600160a01b038984168116825295909516602086015291936001600160a01b0319927f5a200776fcd7bd781b66706fec6e1b18f0621e153b73c7363545fca20f04a1d29187915f8051602061395383398151915291a3161790555f80611358565b600f84018054604080516001600160a01b038984168116825295909516602086015291936001600160a01b0319927fe43d20cf7f6a2ff14d5f0335d5c7789349ccc63ae1114e12b0bd87c3f1e951a19187915f8051602061395383398151915291a3161790555f80611342565b600e84018054604080516001600160a01b038984168116825295909516602086015291936001600160a01b0319927f32afddabd709addf4415072b8d91182991dca79db32c8f955b2de08fde6a6f5b9187915f8051602061395383398151915291a3161790555f8061132c565b600d84018054604080516001600160a01b038984168116825295909516602086015291936001600160a01b0319927f7b5100c5075e8b464921c50f00e473a3bc0c31203deea60edb85769b757f8bf39187915f8051602061395383398151915291a3161790555f80611316565b600c84018054604080516001600160a01b038984168116825295909516602086015291936001600160a01b0319927f462e21731791a88fbc3d6e262bf146c4157be7e45705bcc62f1a363fee3c48269187915f8051602061395383398151915291a3161790555f80611300565b600b84018054604080516001600160a01b038984168116825295909516602086015291936001600160a01b0319927fb8cb7564b4fae24959e5c4110e8d9cf91dec7f90b166d06cf5ec514d3c9572bb9187915f8051602061395383398151915291a3161790555f806112ea565b600a84018054604080516001600160a01b038984168116825295909516602086015291936001600160a01b0319927f666ae48d5d989da88ad33b18d9ad1eb36fb06da47a87e3848edc838a0c833b669187915f8051602061395383398151915291a3161790555f806112d5565b600984018054604080516001600160a01b038984168116825295909516602086015291936001600160a01b0319927fbff2e278cc551512f9de0667dc3c1f1adc56d0fa1cc74c9c4bc2fdb3bf19b4eb9187915f8051602061395383398151915291a3161790555f806112c0565b600884018054604080516001600160a01b038984168116825295909516602086015291936001600160a01b0319927f4347b7879af66b5dbc633ac7823917506d8e6f9413913e212b835d7d207618e69187915f8051602061395383398151915291a3161790555f806112ab565b600784018054604080516001600160a01b038984168116825295909516602086015291936001600160a01b0319927f53f851c2f0120d87a66d7c53ece15902d923fb3a96f123db6800bb40afe22dd99187915f8051602061395383398151915291a3161790555f80611296565b600684018054604080516001600160a01b038984168116825295909516602086015291936001600160a01b0319927f268198d81cd5de2a4c427017a36e6262825f97fa3f1ca0d7bccee07cfae2ad589187915f8051602061395383398151915291a3161790555f80611281565b600584018054604080516001600160a01b038984168116825295909516602086015291936001600160a01b0319927f1e46cebd6689d8c64011118478db0c61a89aa2646c860df401de476fbf3789839187915f8051602061395383398151915291a3161790555f8061126c565b503461041b57602036600319011261041b576004356119ac816133ff565b604051907fa1debd1300000000000000000000000000000000000000000000000000000000825260048201526060816024816001600160a01b037f0000000000000000000000000000000000000000000000000000000000000000165afa80156111735782918391611a3f575b50611a3b90604051938493846040919493926060820195825260208201520152565b0390f35b9050611a3b9250611a68915060603d606011611a6f575b611a608183613188565b810190613323565b9092611a19565b503d611a56565b503461041b578060031936011261041b576020600654604051908152f35b503461041b578060031936011261041b5760206040517f71f3d55856e4058ed06ee057d79ada615f65cdf5f9ee88181b914225088f834f8152f35b503461041b57611ade36613039565b9190611ae9826133ff565b611af282613462565b7f71f3d55856e4058ed06ee057d79ada615f65cdf5f9ee88181b914225088f834f8303611b97576001600160a01b039082855260016020526040852082821690815f5260205260405f209060ff1991828154169055848752600360205260408720905f5260205260405f20858752602052604086209081541690555b16907f5d889adddd84715508093563ae8da798a941b4accfcda9c79f2bba3a2602dd718480a480f35b7f850d585eb7f024ccee5e68e55f2c26cc72e1e6ee456acf62135757a5eb9d4a108303611c17576001600160a01b039082855260026020526040852082821690815f5260205260405f209060ff1991828154169055848752600360205260408720905f5260205260405f2085875260205260408620908154169055611b6e565b60405163d647364f60e01b815260206004820152600c60248201527f496e76616c696420726f6c6500000000000000000000000000000000000000006044820152606490fd5b503461041b57602036600319011261041b57600435611c7b816133ff565b604051907fa3a2479200000000000000000000000000000000000000000000000000000000825260048201526060816024816001600160a01b037f0000000000000000000000000000000000000000000000000000000000000000165afa80156111735782918391611a3f5750611a3b90604051938493846040919493926060820195825260208201520152565b503461041b5760ff6040602092611d1f36613039565b918352600386526001600160a01b0384842091165f528552825f2090825284522054166040519015158152f35b503461041b576020806003193601126104e15760043590611d6c826133ff565b6001600160a01b0392837f00000000000000000000000000000000000000000000000000000000000000001691604051917fd32d0ade000000000000000000000000000000000000000000000000000000008352846004840152608083602481875afa94851561211d5781938296839184916120b2575b5061ffff91604051937fa93ed1ba00000000000000000000000000000000000000000000000000000000855286856004818c5afa948515612078578695612083575b50604051947f6a062954000000000000000000000000000000000000000000000000000000008652816004870152602486015286856044818c5afa948515612078578695612049575b50604051907fa5afc4c600000000000000000000000000000000000000000000000000000000825287826004818d5afa91821561203e5790879291839261200b575b506044906040519b8c9384927f0bcb2f93000000000000000000000000000000000000000000000000000000008452600484015260248301525afa978815612000578598611f5d575b5060ff9083604098979698519a8160c08d0199168c5216868b0152166040890152166060870152608086015260c060a086015283518092528060e086019401925b828110611f475785850386f35b8351871685529381019392810192600101611f3a565b9097503d8086833e611f6f8183613188565b810190868183031261119a5780519067ffffffffffffffff821161119657019080601f8301121561119a578151611fa5816132da565b92611fb36040519485613188565b818452888085019260051b820101928311611ffc578801905b828210611fe05750505060ff909790611ef9565b81518d81168103611ff8578152908801908801611fcc565b8880fd5b8780fd5b6040513d87823e3d90fd5b925090508782813d8111612037575b6120248183613188565b81010312610bd257905186916044611eb0565b503d61201a565b6040513d89823e3d90fd5b9094508681813d8311612071575b6120618183613188565b8101031261119a5751935f611e6e565b503d612057565b6040513d88823e3d90fd5b9094508681813d83116120ab575b61209b8183613188565b81010312610bd25751935f611e25565b503d612091565b9750505092506080853d608011612115575b816120d160809383613188565b8101031261041b576120e285613314565b926120ee838701613314565b9360408701519660ff8816880361119257606061210b9101613314565b909496905f611de3565b3d91506120c4565b50604051903d90823e3d90fd5b503461041b57602036600319011261041b5760409060043561214b816133ff565b8152806020522061216360146013830154920161324c565b90611a3b60405192839283526040602084015260408301906130a1565b503461041b57604036600319011261041b576001600160a01b0360406121a4613023565b92600435815260016020522091165f52602052602060ff60405f2054166040519015158152f35b503461041b578060031936011261041b5760206040517f850d585eb7f024ccee5e68e55f2c26cc72e1e6ee456acf62135757a5eb9d4a108152f35b503461041b578060031936011261041b5760065461223c612226826132da565b916122346040519384613188565b8083526132da565b60209290601f1901368385013780600193600192600590600554945b8581106122755760405160208082528190611a3b9082018a6130a1565b808891835282855260ff600360408520015416612293575b01612258565b94905086518110156122b8576122b28186868b94871b8b0101526132f2565b9461228d565b602482634e487b7160e01b81526032600452fd5b503461041b57604036600319011261041b576024356004356122ed816133ff565b6122f6826133ff565b6122ff81613462565b81811461235b578083528260205261231d826014604086200161329a565b81835282602052612334816014604086200161329a565b7fe4efcf2d01d38d3de90c4288e3533ee47fe8f6dd7ea0253636790b242dc705108380a380f35b606460405163d647364f60e01b815260206004820152601560248201527f43616e6e6f7420616c6c7920776974682073656c6600000000000000000000006044820152fd5b503461041b57604036600319011261041b576001600160a01b0360406123c4613023565b92600435815260026020522091165f52602052602060ff60405f2054166040519015158152f35b503461041b57602036600319011261041b576040611a3b91606061028083516124138161314e565b828152826020820152828582015283838201528360808201528360a08201528360c08201528360e08201528361010082015283610120820152836101408201528361016082015283610180820152836101a0820152836101c0820152836101e082015283610200820152836102208201528361024082015283610260820152015261249f6004356133ff565b600435815280602052206126276014604051926124bb8461314e565b6124c4816131aa565b84526124d2600182016131aa565b60208501526124e3600282016131aa565b604085015260ff60038201541615156060850152600481015460808501526001600160a01b0360058201541660a08501526001600160a01b0360068201541660c08501526001600160a01b0360078201541660e08501526001600160a01b036008820154166101008501526001600160a01b036009820154166101208501526001600160a01b03600a820154166101408501526001600160a01b03600b820154166101608501526001600160a01b03600c820154166101808501526001600160a01b03600d820154166101a08501526001600160a01b03600e820154166101c08501526001600160a01b03600f820154166101e08501526001600160a01b036010820154166102008501526001600160a01b036011820154166102208501526001600160a01b0360128201541661024085015260138101546102608501520161324c565b6102808201526040519182916020835261028061268461266e61265884516102a060208901526102c0880190613063565b6020850151878203601f19016040890152613063565b6040840151868203601f19016060880152613063565b91606081015115156080860152608081015160a08601526001600160a01b0360a08201511660c08601526001600160a01b0360c08201511660e08601526001600160a01b0360e0820151166101008601526001600160a01b03610100820151166101208601526001600160a01b03610120820151166101408601526001600160a01b03610140820151166101608601526001600160a01b03610160820151166101808601526001600160a01b03610180820151166101a08601526001600160a01b036101a0820151166101c08601526001600160a01b036101c0820151166101e08601526001600160a01b036101e0820151166102008601526001600160a01b03610200820151166102208601526001600160a01b03610220820151166102408601526001600160a01b0361024082015116610260860152610260810151828601520151601f19848303016102a08501526130a1565b503461041b57604036600319011261041b576001600160a01b0360406127fe613023565b92600435815260046020522091165f52602052602060ff60405f2054166040519015158152f35b503461041b576001600160a01b0361283c36613039565b9290612847836133ff565b61285083613462565b1690811561296b577f71f3d55856e4058ed06ee057d79ada615f65cdf5f9ee88181b914225088f834f83036128f357808452600160205260408420825f5260205260405f2060ff1990600182825416179055818552600360205260408520835f5260205260405f20848652602052600160408620918254161790555b7f94765e3c1e0f3b4ba19015a25eec7ec04cb5c6acc83a4ac9cac5cf4412abf8488480a480f35b7f850d585eb7f024ccee5e68e55f2c26cc72e1e6ee456acf62135757a5eb9d4a108303611c1757808452600260205260408420825f5260205260405f2060ff1990600182825416179055818552600360205260408520835f5260205260405f20848652602052600160408620918254161790556128cc565b60046040517fd92e233d000000000000000000000000000000000000000000000000000000008152fd5b503461041b57606036600319011261041b576024356004356001600160a01b0360443581811691828203610bd2576129cc846133ff565b6129d584613462565b8386528560205260408620927f1e46cebd6689d8c64011118478db0c61a89aa2646c860df401de476fbf37898386145f14612a505760055f805160206139538339815191529401906001600160a01b0319825493841693161790555b604080516001600160a01b03928316815292909116602083015290a380f35b7f268198d81cd5de2a4c427017a36e6262825f97fa3f1ca0d7bccee07cfae2ad588603612aa25760065f805160206139538339815191529401906001600160a01b031982549384169316179055612a31565b7f53f851c2f0120d87a66d7c53ece15902d923fb3a96f123db6800bb40afe22dd98603612af45760075f805160206139538339815191529401906001600160a01b031982549384169316179055612a31565b7f4347b7879af66b5dbc633ac7823917506d8e6f9413913e212b835d7d207618e68603612b465760085f805160206139538339815191529401906001600160a01b031982549384169316179055612a31565b7fbff2e278cc551512f9de0667dc3c1f1adc56d0fa1cc74c9c4bc2fdb3bf19b4eb8603612b985760095f805160206139538339815191529401906001600160a01b031982549384169316179055612a31565b7f666ae48d5d989da88ad33b18d9ad1eb36fb06da47a87e3848edc838a0c833b668603612bea57600a5f805160206139538339815191529401906001600160a01b031982549384169316179055612a31565b7fb8cb7564b4fae24959e5c4110e8d9cf91dec7f90b166d06cf5ec514d3c9572bb8603612c3c57600b5f805160206139538339815191529401906001600160a01b031982549384169316179055612a31565b7f462e21731791a88fbc3d6e262bf146c4157be7e45705bcc62f1a363fee3c48268603612c8e57600c5f805160206139538339815191529401906001600160a01b031982549384169316179055612a31565b7f7b5100c5075e8b464921c50f00e473a3bc0c31203deea60edb85769b757f8bf38603612ce057600d5f805160206139538339815191529401906001600160a01b031982549384169316179055612a31565b7f32afddabd709addf4415072b8d91182991dca79db32c8f955b2de08fde6a6f5b8603612d3257600e5f805160206139538339815191529401906001600160a01b031982549384169316179055612a31565b7fe43d20cf7f6a2ff14d5f0335d5c7789349ccc63ae1114e12b0bd87c3f1e951a18603612d8457600f5f805160206139538339815191529401906001600160a01b031982549384169316179055612a31565b7f5a200776fcd7bd781b66706fec6e1b18f0621e153b73c7363545fca20f04a1d28603612dd65760105f805160206139538339815191529401906001600160a01b031982549384169316179055612a31565b7f98e8485c9f8d32054528913734a0b61a027120b5b579681fd3be4ad009f54d888603612e285760115f805160206139538339815191529401906001600160a01b031982549384169316179055612a31565b7f8261c36d170ec64b60c2f015482418cba997cb5d3787c13f43e3e29e3713a3aa8603612e7a5760125f805160206139538339815191529401906001600160a01b031982549384169316179055612a31565b606460405163d647364f60e01b815260206004820152601260248201527f556e6b6e6f776e206d6f64756c65206b657900000000000000000000000000006044820152fd5b5034610bd2576020366003190112610bd257600435612edd816133ff565b612ee681613462565b6001600160a01b037f00000000000000000000000000000000000000000000000000000000000000001690813b15610bd2575f916044839260405194859384927f612dca9800000000000000000000000000000000000000000000000000000000845260048401523360248401525af18015612f7057612f64575080f35b612f6e915061313a565b005b6040513d5f823e3d90fd5b34610bd257612f8936613039565b91612f93816133ff565b5f5260036020526001600160a01b0360405f2091165f5260205260405f20905f52602052602060ff60405f2054166040519015158152f35b34610bd2576020366003190112610bd257600435612fe8816133ff565b5f525f60205260206001600160a01b03600660405f20015416604051908152f35b34610bd2575f366003190112610bd2576020906005548152f35b602435906001600160a01b0382168203610bd257565b6060906003190112610bd257600435906024356001600160a01b0381168103610bd2579060443590565b91908251928382525f5b84811061308d575050825f602080949584010152601f8019910116010190565b60208183018101518483018201520161306d565b9081518082526020808093019301915f5b8281106130c0575050505090565b8351855293810193928101926001016130b2565b9181601f84011215610bd25782359167ffffffffffffffff8311610bd25760208381860195010111610bd257565b90600182811c92168015613130575b602083101461311c57565b634e487b7160e01b5f52602260045260245ffd5b91607f1691613111565b67ffffffffffffffff811161117e57604052565b6102a0810190811067ffffffffffffffff82111761117e57604052565b6101c0810190811067ffffffffffffffff82111761117e57604052565b90601f8019910116810190811067ffffffffffffffff82111761117e57604052565b9060405191825f82546131bc81613102565b908184526020946001916001811690815f1461322a57506001146131ec575b5050506131ea92500383613188565b565b5f90815285812095935091905b8183106132125750506131ea93508201015f80806131db565b855488840185015294850194879450918301916131f9565b925050506131ea94925060ff191682840152151560051b8201015f80806131db565b90604051918281549182825260209260208301915f5260205f20935f905b828210613280575050506131ea92500383613188565b85548452600195860195889550938101939091019061326a565b8054906801000000000000000082101561117e57600182018082558210156132c6575f5260205f200155565b634e487b7160e01b5f52603260045260245ffd5b67ffffffffffffffff811161117e5760051b60200190565b5f1981146133005760010190565b634e487b7160e01b5f52601160045260245ffd5b519061ffff82168203610bd257565b90816060910312610bd2578051916040602083015192015190565b90613348826133ff565b61335182613462565b815f525f602052600360405f200190815491811515928360ff82161515146133f85760ff191660ff8416179055156133bf5760207f1b33bf721278476ef24ca6ec530cfd3532aa6a88fe28b73f6bdf0f74e3ee52cc916133b26006546132f2565b6006555b604051908152a2565b6006548015613300575f19016006557f1b33bf721278476ef24ca6ec530cfd3532aa6a88fe28b73f6bdf0f74e3ee52cc906020906133b6565b5050505050565b8015908115613455575b5061341057565b606460405163d647364f60e01b815260206004820152601860248201527f436f6d6d756e69747920646f6573206e6f7420657869737400000000000000006044820152fd5b905060055411155f613409565b5f52600460205260405f20335f5260205260ff60405f2054166131ea5760246040517f4a0bfec1000000000000000000000000000000000000000000000000000000008152336004820152fd5b9294979695909397841561390d57816138b2575b6005988954966134d2886132f2565b8b55879a885f526020935f855260405f209367ffffffffffffffff92838b1161117e576134ff8654613102565b988b601f9a8b8111613872575b505f8b8211600114613808575f916137fd575b505f1960038e901b1c191660018d901b1787555b6001958688019186821161117e57819061354d8454613102565b8d81116137b1575b505f908d8311600114613750575f92613745575b50505f19600383901b1c191690871b1790555b6002860193831161117e576135918454613102565b90898211613704575b50505f9088831160011461367857928260609996938c9b9996937f4efcb338ffccf7b085281c4db55554049eb8f23f9d2b09327c3756f0cf2a213f9d99965f9261366d575b50505f19600383901b1c191690831b1790555b836013600384019360ff1994848682541617905542600482015501558a5f52600483526001600160a01b0360405f209c169b8c5f52835260405f209182541617905561363f6006546132f2565b60065560405196879560408752816040880152878701375f85850187015284015201601f19168101030190a3565b013590505f806135df565b601f19831691845f52875f20925f5b8181106136ef57509386938d9c9a9792937f4efcb338ffccf7b085281c4db55554049eb8f23f9d2b09327c3756f0cf2a213f9e9a97948360609e9b98106136d6575b505050811b0190556135f2565b01355f19600384901b60f8161c191690555f80806136c9565b83830135855593870193918901918901613687565b845f52875f20908a808601821c8301938a871061373c575b01901c019085905b828110613731575061359a565b5f8155018590613724565b9350829361371c565b013590505f80613569565b5f8581528c81208b95509290601f198516908e5b82821061379a5750508411613781575b505050811b01905561357c565b01355f19600384901b60f8161c191690555f8080613774565b8385013586558d979095019492830192018e613764565b909150835f528a5f208d808501871c8201928d86106137f4575b918b918695949301881c01915b8281106137e6575050613555565b5f81558594508b91016137d8565b925081926137cb565b90508b01355f61351f565b8c91601f1981168a5f528b5f20938c5f915b8383106138525750505010613839575b505060018c811b018755613533565b8c01355f1960038f901b60f8161c191690555f8061382a565b819394509585600192939697013581550194019201908f918f8d9061381a565b885f528b8a5f20918b828501871c840194106138a9575b01841c01905b81811061389e578d915061350c565b5f815560010161388f565b92508192613889565b815f525f60205260ff600360405f200154166134c357606460405163d647364f60e01b815260206004820152601b60248201527f506172656e7420636f6d6d756e697479206e6f742061637469766500000000006044820152fd5b606460405163d647364f60e01b815260206004820152601e60248201527f436f6d6d756e697479206e616d652063616e6e6f7420626520656d70747900006044820152fdfe2f3bea06c6e9b63d5e7c84a6bc5a08817c09192cdc87f2ec5a5fecc2a7dd503ba2646970667358221220f27f58269a036ee475b8e5f0dd8f5560259d8cb3802e430cc8473617d8b398ee64736f6c63430008180033","linkReferences":{}},"methodIdentifiers":{"CURATOR_ROLE()":"4a2cfb54","GOVERNANCE_ROLE()":"f36c8f5c","MODERATOR_ROLE()":"797669c9","activeCommunityCount()":"826410c4","bootstrapCommunity(string,string,string,uint256,(uint256,uint256,uint256,bool,uint256,uint256,uint256,uint256,uint256,uint256,uint256,uint256,uint16,uint16,uint8,uint16),(address,address,address,address,address,address,address,address,address,address,address,address,address,address))":"daa2ea61","communities(uint256)":"e590b56a","communityAdmins(uint256,address)":"3688da79","communityRoles(uint256,address,bytes32)":"555973c4","curators(uint256,address)":"3b472460","formAlliance(uint256,uint256)":"45dc2308","getActiveCommunities()":"49dc706b","getCommunity(uint256)":"370603f8","getCommunityModules(uint256)":"f830e348","getCommunityRelationships(uint256)":"4fbcf131","getEconomicParameters(uint256)":"50c76b46","getEligibilityRules(uint256)":"560d4015","getGovernanceParameters(uint256)":"8594e56c","getTimelock(uint256)":"10b18438","grantCommunityRole(uint256,address,bytes32)":"33624966","hasRole(uint256,address,bytes32)":"1ca5b571","initializeDefaultParameters(uint256)":"21be27b8","moderators(uint256,address)":"4d609b01","nextCommunityId()":"06055b84","paramController()":"d0d1854d","registerCommunity(string,string,string,uint256)":"f1b150bd","revokeCommunityRole(uint256,address,bytes32)":"628005b5","setCommunityStatus(uint256,bool)":"9f9e8871","setModuleAddress(uint256,bytes32,address)":"2530ebb3","setModuleAddresses(uint256,(address,address,address,address,address,address,address,address,address,address,address,address,address,address))":"968fdaf0"},"id":14}