{"abi":[{"type":"function","name":"deployLayer","inputs":[{"name":"communityId","type":"uint256","internalType":"uint256"},{"name":"communityRegistry","type":"address","internalType":"address"},{"name":"valuableActionRegistry","type":"address","internalType":"address"},{"name":"governor","type":"address","internalType":"address"},{"name":"accessManager","type":"address","internalType":"address"},{"name":"requestHubCreationCode","type":"bytes","internalType":"bytes"},{"name":"draftsManagerCreationCode","type":"bytes","internalType":"bytes"}],"outputs":[{"name":"deployment","type":"tuple","internalType":"struct CoordinationLayerFactory.Deployment","components":[{"name":"requestHub","type":"address","internalType":"address"},{"name":"draftsManager","type":"address","internalType":"address"}]}],"stateMutability":"nonpayable"},{"type":"function","name":"lastDeploymentByCaller","inputs":[{"name":"","type":"address","internalType":"address"}],"outputs":[{"name":"requestHub","type":"address","internalType":"address"},{"name":"draftsManager","type":"address","internalType":"address"}],"stateMutability":"view"},{"type":"event","name":"CoordinationLayerDeployed","inputs":[{"name":"caller","type":"address","indexed":true,"internalType":"address"},{"name":"communityId","type":"uint256","indexed":true,"internalType":"uint256"},{"name":"requestHub","type":"address","indexed":false,"internalType":"address"},{"name":"draftsManager","type":"address","indexed":false,"internalType":"address"}],"anonymous":false},{"type":"error","name":"InvalidInput","inputs":[{"name":"reason","type":"string","internalType":"string"}]},{"type":"error","name":"ZeroAddress","inputs":[]}],"bytecode":{"object":"0x608080604052346100165761053d908161001b8239f35b5f80fdfe6080806040526004361015610012575f80fd5b5f3560e01c90816364996a771461034d57506397efd38914610032575f80fd5b346103495760e0366003190112610349576001600160a01b036024351660243503610349576001600160a01b036044351660443503610349576064356001600160a01b038116810361034957608435906001600160a01b03821682036103495760a43567ffffffffffffffff8111610349576100b29036906004016103b4565b92909160c43567ffffffffffffffff8111610349576100d59036906004016103b4565b9490926040519485604081011067ffffffffffffffff6040880111176102ad57604086016040525f86525f602087015260043515610304576001600160a01b0360243516156102da576001600160a01b0360443516156102da576001600160a01b038416156102da576001600160a01b038216156102da57604080516001600160a01b0360243581166020830152604435811682840152918152909384926101899291906101846060846103e2565b610404565b16855281604051938160243516602086015216604084015216606082015260043560808201526080815260a081019080821067ffffffffffffffff8311176102ad576040946001600160a01b03936101e2938752610404565b166020820152335f525f602052815f206001600160a01b0382511660017fffffffffffffffffffffffff0000000000000000000000000000000000000000928284825416178155016001600160a01b0360208501511680938254161790557fa7bf0045756a05243dc2ee98f90d8cabe0fae669ba4238589e478f7cbd7be92e84518061028d600435953395839060209093929360408301946001600160a01b03809216845216910152565b0390a36001600160a01b0360208351928281511684520151166020820152f35b7f4e487b71000000000000000000000000000000000000000000000000000000005f52604160045260245ffd5b60046040517fd92e233d000000000000000000000000000000000000000000000000000000008152fd5b606460405163d647364f60e01b815260206004820152601460248201527f636f6d6d756e69747949642072657175697265640000000000000000000000006044820152fd5b5f80fd5b34610349576020366003190112610349576004356001600160a01b03908181168091036103495782916103b0915f525f60205260405f20906001818354169201541690839060209093929360408301946001600160a01b03809216845216910152565b0390f35b9181601f840112156103495782359167ffffffffffffffff8311610349576020838186019501011161034957565b90601f8019910116810190811067ffffffffffffffff8211176102ad57604052565b9060405192839160209481869283830196873781015f838201528351905f945b8286106104eb57506104429450015f838201520380845201826103e2565b8051156104a65751905ff0906001600160a01b03821615610461575090565b6064906040519063d647364f60e01b82526004820152600d60248201527f637265617465206661696c6564000000000000000000000000000000000000006044820152fd5b6064836040519063d647364f60e01b82526004820152600f60248201527f656d70747920696e697420636f646500000000000000000000000000000000006044820152fd5b925092909381818401015182828601015201928692859261042456fea2646970667358221220b609892035bd12bd8ef270760933463f0ab9d9d47182d529ddbbe046d5962bed64736f6c63430008180033","linkReferences":{}},"methodIdentifiers":{"deployLayer(uint256,address,address,address,address,bytes,bytes)":"97efd389","lastDeploymentByCaller(address)":"64996a77"},"id":32}