{
  "_format": "hh-sol-artifact-1",
  "contractName": "CredentialManager",
  "sourceName": "contracts/modules/CredentialManager.sol",
  "abi": [
    {
      "inputs": [
        {
          "internalType": "address",
          "name": "manager",
          "type": "address"
        },
        {
          "internalType": "address",
          "name": "_valuableActionRegistry",
          "type": "address"
        },
        {
          "internalType": "address",
          "name": "_sbt",
          "type": "address"
        },
        {
          "internalType": "uint256",
          "name": "_communityId",
          "type": "uint256"
        }
      ],
      "stateMutability": "nonpayable",
      "type": "constructor"
    },
    {
      "inputs": [
        {
          "internalType": "address",
          "name": "authority",
          "type": "address"
        }
      ],
      "name": "AccessManagedInvalidAuthority",
      "type": "error"
    },
    {
      "inputs": [
        {
          "internalType": "address",
          "name": "caller",
          "type": "address"
        },
        {
          "internalType": "uint32",
          "name": "delay",
          "type": "uint32"
        }
      ],
      "name": "AccessManagedRequiredDelay",
      "type": "error"
    },
    {
      "inputs": [
        {
          "internalType": "address",
          "name": "caller",
          "type": "address"
        }
      ],
      "name": "AccessManagedUnauthorized",
      "type": "error"
    },
    {
      "inputs": [
        {
          "internalType": "string",
          "name": "reason",
          "type": "string"
        }
      ],
      "name": "InvalidInput",
      "type": "error"
    },
    {
      "inputs": [],
      "name": "ZeroAddress",
      "type": "error"
    },
    {
      "anonymous": false,
      "inputs": [
        {
          "indexed": false,
          "internalType": "address",
          "name": "authority",
          "type": "address"
        }
      ],
      "name": "AuthorityUpdated",
      "type": "event"
    },
    {
      "anonymous": false,
      "inputs": [
        {
          "indexed": true,
          "internalType": "bytes32",
          "name": "courseId",
          "type": "bytes32"
        },
        {
          "indexed": false,
          "internalType": "bool",
          "name": "active",
          "type": "bool"
        }
      ],
      "name": "CourseActivationUpdated",
      "type": "event"
    },
    {
      "anonymous": false,
      "inputs": [
        {
          "indexed": true,
          "internalType": "bytes32",
          "name": "courseId",
          "type": "bytes32"
        },
        {
          "indexed": true,
          "internalType": "uint256",
          "name": "communityId",
          "type": "uint256"
        },
        {
          "indexed": true,
          "internalType": "address",
          "name": "verifier",
          "type": "address"
        },
        {
          "indexed": false,
          "internalType": "bool",
          "name": "active",
          "type": "bool"
        }
      ],
      "name": "CourseDefined",
      "type": "event"
    },
    {
      "anonymous": false,
      "inputs": [
        {
          "indexed": true,
          "internalType": "uint256",
          "name": "appId",
          "type": "uint256"
        },
        {
          "indexed": true,
          "internalType": "address",
          "name": "applicant",
          "type": "address"
        },
        {
          "indexed": true,
          "internalType": "bytes32",
          "name": "courseId",
          "type": "bytes32"
        },
        {
          "indexed": false,
          "internalType": "uint256",
          "name": "communityId",
          "type": "uint256"
        }
      ],
      "name": "CredentialApplied",
      "type": "event"
    },
    {
      "anonymous": false,
      "inputs": [
        {
          "indexed": true,
          "internalType": "uint256",
          "name": "appId",
          "type": "uint256"
        },
        {
          "indexed": true,
          "internalType": "uint256",
          "name": "tokenId",
          "type": "uint256"
        },
        {
          "indexed": true,
          "internalType": "address",
          "name": "applicant",
          "type": "address"
        },
        {
          "indexed": false,
          "internalType": "bytes32",
          "name": "courseId",
          "type": "bytes32"
        },
        {
          "indexed": false,
          "internalType": "uint256",
          "name": "communityId",
          "type": "uint256"
        }
      ],
      "name": "CredentialIssued",
      "type": "event"
    },
    {
      "anonymous": false,
      "inputs": [
        {
          "indexed": true,
          "internalType": "uint256",
          "name": "tokenId",
          "type": "uint256"
        },
        {
          "indexed": true,
          "internalType": "bytes32",
          "name": "courseId",
          "type": "bytes32"
        },
        {
          "indexed": true,
          "internalType": "address",
          "name": "applicant",
          "type": "address"
        },
        {
          "indexed": false,
          "internalType": "bytes",
          "name": "metadata",
          "type": "bytes"
        }
      ],
      "name": "CredentialRevoked",
      "type": "event"
    },
    {
      "inputs": [
        {
          "internalType": "uint256",
          "name": "",
          "type": "uint256"
        }
      ],
      "name": "applicationIdByToken",
      "outputs": [
        {
          "internalType": "uint256",
          "name": "",
          "type": "uint256"
        }
      ],
      "stateMutability": "view",
      "type": "function"
    },
    {
      "inputs": [
        {
          "internalType": "uint256",
          "name": "",
          "type": "uint256"
        }
      ],
      "name": "applications",
      "outputs": [
        {
          "internalType": "address",
          "name": "applicant",
          "type": "address"
        },
        {
          "internalType": "bytes32",
          "name": "courseId",
          "type": "bytes32"
        },
        {
          "internalType": "uint8",
          "name": "status",
          "type": "uint8"
        },
        {
          "internalType": "uint256",
          "name": "tokenId",
          "type": "uint256"
        }
      ],
      "stateMutability": "view",
      "type": "function"
    },
    {
      "inputs": [
        {
          "internalType": "bytes32",
          "name": "courseId",
          "type": "bytes32"
        },
        {
          "internalType": "bytes",
          "name": "evidence",
          "type": "bytes"
        }
      ],
      "name": "applyForCredential",
      "outputs": [
        {
          "internalType": "uint256",
          "name": "appId",
          "type": "uint256"
        }
      ],
      "stateMutability": "nonpayable",
      "type": "function"
    },
    {
      "inputs": [
        {
          "internalType": "uint256",
          "name": "appId",
          "type": "uint256"
        }
      ],
      "name": "approveApplication",
      "outputs": [
        {
          "internalType": "uint256",
          "name": "tokenId",
          "type": "uint256"
        }
      ],
      "stateMutability": "nonpayable",
      "type": "function"
    },
    {
      "inputs": [],
      "name": "authority",
      "outputs": [
        {
          "internalType": "address",
          "name": "",
          "type": "address"
        }
      ],
      "stateMutability": "view",
      "type": "function"
    },
    {
      "inputs": [],
      "name": "communityId",
      "outputs": [
        {
          "internalType": "uint256",
          "name": "",
          "type": "uint256"
        }
      ],
      "stateMutability": "view",
      "type": "function"
    },
    {
      "inputs": [
        {
          "internalType": "bytes32",
          "name": "",
          "type": "bytes32"
        }
      ],
      "name": "courses",
      "outputs": [
        {
          "internalType": "address",
          "name": "verifier",
          "type": "address"
        },
        {
          "internalType": "bool",
          "name": "active",
          "type": "bool"
        },
        {
          "internalType": "bool",
          "name": "exists",
          "type": "bool"
        }
      ],
      "stateMutability": "view",
      "type": "function"
    },
    {
      "inputs": [
        {
          "internalType": "bytes32",
          "name": "courseId",
          "type": "bytes32"
        },
        {
          "internalType": "address",
          "name": "verifier",
          "type": "address"
        },
        {
          "internalType": "bool",
          "name": "active",
          "type": "bool"
        }
      ],
      "name": "defineCourse",
      "outputs": [],
      "stateMutability": "nonpayable",
      "type": "function"
    },
    {
      "inputs": [
        {
          "internalType": "uint256",
          "name": "appId",
          "type": "uint256"
        }
      ],
      "name": "getApplication",
      "outputs": [
        {
          "components": [
            {
              "internalType": "address",
              "name": "applicant",
              "type": "address"
            },
            {
              "internalType": "bytes32",
              "name": "courseId",
              "type": "bytes32"
            },
            {
              "internalType": "uint8",
              "name": "status",
              "type": "uint8"
            },
            {
              "internalType": "uint256",
              "name": "tokenId",
              "type": "uint256"
            }
          ],
          "internalType": "struct CredentialManager.CredentialApplication",
          "name": "",
          "type": "tuple"
        }
      ],
      "stateMutability": "view",
      "type": "function"
    },
    {
      "inputs": [
        {
          "internalType": "bytes32",
          "name": "courseId",
          "type": "bytes32"
        }
      ],
      "name": "getCourse",
      "outputs": [
        {
          "components": [
            {
              "internalType": "address",
              "name": "verifier",
              "type": "address"
            },
            {
              "internalType": "bool",
              "name": "active",
              "type": "bool"
            },
            {
              "internalType": "bool",
              "name": "exists",
              "type": "bool"
            }
          ],
          "internalType": "struct CredentialManager.Course",
          "name": "",
          "type": "tuple"
        }
      ],
      "stateMutability": "view",
      "type": "function"
    },
    {
      "inputs": [
        {
          "internalType": "bytes32",
          "name": "",
          "type": "bytes32"
        },
        {
          "internalType": "address",
          "name": "",
          "type": "address"
        }
      ],
      "name": "hasCredential",
      "outputs": [
        {
          "internalType": "bool",
          "name": "",
          "type": "bool"
        }
      ],
      "stateMutability": "view",
      "type": "function"
    },
    {
      "inputs": [],
      "name": "isConsumingScheduledOp",
      "outputs": [
        {
          "internalType": "bytes4",
          "name": "",
          "type": "bytes4"
        }
      ],
      "stateMutability": "view",
      "type": "function"
    },
    {
      "inputs": [
        {
          "internalType": "uint256",
          "name": "",
          "type": "uint256"
        }
      ],
      "name": "issuanceMetadata",
      "outputs": [
        {
          "internalType": "bytes",
          "name": "",
          "type": "bytes"
        }
      ],
      "stateMutability": "view",
      "type": "function"
    },
    {
      "inputs": [],
      "name": "nextAppId",
      "outputs": [
        {
          "internalType": "uint256",
          "name": "",
          "type": "uint256"
        }
      ],
      "stateMutability": "view",
      "type": "function"
    },
    {
      "inputs": [
        {
          "internalType": "bytes32",
          "name": "",
          "type": "bytes32"
        },
        {
          "internalType": "address",
          "name": "",
          "type": "address"
        }
      ],
      "name": "pendingApplicationId",
      "outputs": [
        {
          "internalType": "uint256",
          "name": "",
          "type": "uint256"
        }
      ],
      "stateMutability": "view",
      "type": "function"
    },
    {
      "inputs": [
        {
          "internalType": "uint256",
          "name": "",
          "type": "uint256"
        }
      ],
      "name": "revocationMetadata",
      "outputs": [
        {
          "internalType": "bytes",
          "name": "",
          "type": "bytes"
        }
      ],
      "stateMutability": "view",
      "type": "function"
    },
    {
      "inputs": [
        {
          "internalType": "uint256",
          "name": "tokenId",
          "type": "uint256"
        },
        {
          "internalType": "bytes32",
          "name": "courseId",
          "type": "bytes32"
        },
        {
          "internalType": "bytes",
          "name": "reason",
          "type": "bytes"
        }
      ],
      "name": "revokeCredential",
      "outputs": [],
      "stateMutability": "nonpayable",
      "type": "function"
    },
    {
      "inputs": [],
      "name": "sbt",
      "outputs": [
        {
          "internalType": "contract ValuableActionSBT",
          "name": "",
          "type": "address"
        }
      ],
      "stateMutability": "view",
      "type": "function"
    },
    {
      "inputs": [
        {
          "internalType": "address",
          "name": "newAuthority",
          "type": "address"
        }
      ],
      "name": "setAuthority",
      "outputs": [],
      "stateMutability": "nonpayable",
      "type": "function"
    },
    {
      "inputs": [
        {
          "internalType": "bytes32",
          "name": "courseId",
          "type": "bytes32"
        },
        {
          "internalType": "bool",
          "name": "active",
          "type": "bool"
        }
      ],
      "name": "setCourseActive",
      "outputs": [],
      "stateMutability": "nonpayable",
      "type": "function"
    },
    {
      "inputs": [],
      "name": "valuableActionRegistry",
      "outputs": [
        {
          "internalType": "contract ValuableActionRegistry",
          "name": "",
          "type": "address"
        }
      ],
      "stateMutability": "view",
      "type": "function"
    }
  ],
  "bytecode": "0x60e034620001bc57601f62001a9438819003918201601f191683019291906001600160401b03841183851017620001c0578160809284926040968752833981010312620001bc576200005181620001d4565b906200006060208201620001d4565b91606062000070858401620001d4565b9201515f80546001600160a01b0319166001600160a01b0393841690811790915585518181529194917f2f658b440c35314f52658ea8a740e05b284cdc84dc9ae01e891f21b8933e7cad90602090a1600160085515620001ab578116918215620001ab57169081156200019a578215620001555760805260a05260c052516118aa9081620001ea823960805181818161113301526114e5015260a0518181816103a20152818161069a0152818161076e015281816107c2015261088b015260c05181818161024101528181610571015281816106db01528181610ddb01526112510152f35b835163d647364f60e01b815260206004820152601360248201527f496e76616c696420636f6d6d756e6974794964000000000000000000000000006044820152606490fd5b835163d92e233d60e01b8152600490fd5b845163d92e233d60e01b8152600490fd5b5f80fd5b634e487b7160e01b5f52604160045260245ffd5b51906001600160a01b0382168203620001bc5756fe6080806040526004361015610012575f80fd5b5f905f3560e01c90816310127811146114d3575080631f2f4bfd146114355780632116974e1461140b578063213fbf1b1461102a57806324cdf73b14610f9a57806338226c2a14610f7d5780634b946b7d14610f3b578063763eaf5914610c88578063792450fb1461063a5780637a9e5e4b146105945780637f50861a146105595780638fb3603714610514578063987b57b91461048a578063a418594114610440578063a5f6a865146103fb578063a83bfe12146103d1578063b1324f7b1461038c578063bf7e214f14610365578063c4b8875114610317578063cf51b14c1461015f5763dfefadff14610105575f80fd5b3461015c57602036600319011261015c576040608091600435815260026020522060018060a01b0381541690600181015490600360ff60028301541691015491604051938452602084015260408301526060820152f35b80fd5b503461015c57606036600319011261015c5760043561017c6116c8565b9060443590811515809203610313576101953633611718565b80156102da576001600160a01b039283169283156102c857818552600160205260ff604086205460a81c1661028a57604051906101d182611568565b848252602080830185815260016040808601828152878b529190935291882093518454915160ff60a01b1991909416166001600160a81b03199091161791151560a01b60ff60a01b1691909117825551815460ff60a81b191690151560a81b60ff60a81b161790556040519182527f0000000000000000000000000000000000000000000000000000000000000000917f758622b5b0acb1ac404d63fbcd6367c37fc392d8fe4f81ea3be5e7417ad8b2f890602090a480f35b60405163d647364f60e01b8152602060048201526015602482015274436f7572736520616c72656164792065786973747360581b6044820152606490fd5b60405163d92e233d60e01b8152600490fd5b60405163d647364f60e01b815260206004820152601060248201526f135a5cdcda5b99c818dbdd5c9cd9525960821b6044820152606490fd5b5f80fd5b503461015c57602036600319011261015c57604060609160043581526001602052205460ff6040519160018060a01b0381168352818160a01c161515602084015260a81c1615156040820152f35b503461015c578060031936011261015c57546040516001600160a01b039091168152602090f35b503461015c578060031936011261015c576040517f00000000000000000000000000000000000000000000000000000000000000006001600160a01b03168152602090f35b503461015c57602036600319011261015c5760406020916004358152600583522054604051908152f35b503461015c57604036600319011261015c5760406104176116c8565b9160043581526003602052209060018060a01b03165f52602052602060405f2054604051908152f35b503461015c57604036600319011261015c57604061045c6116c8565b9160043581526004602052209060018060a01b03165f52602052602060ff60405f2054166040519015158152f35b503461015c57602036600319011261015c576040816060928280516104ae81611568565b82815282602082015201526004358152600160205220604051906104d182611568565b5460018060a01b0381169182815260ff60406020830192828560a01c1615158452019260a81c161515825260405192835251151560208301525115156040820152f35b503461015c578060031936011261015c57805460a01c60ff161561055157506020638fb3603760e01b5b6040516001600160e01b03199091168152f35b60209061053e565b503461015c578060031936011261015c5760206040517f00000000000000000000000000000000000000000000000000000000000000008152f35b503461015c57602036600319011261015c576004356001600160a01b03818116918281036103135783549182163303610623573b1561060a576001600160a01b031916811782556040519081527f2f658b440c35314f52658ea8a740e05b284cdc84dc9ae01e891f21b8933e7cad90602090a180f35b6040516361798f2f60e11b815260048101839052602490fd5b60405162d1953b60e31b8152336004820152602490fd5b50346103135760603660031901126103135767ffffffffffffffff90604480358381116103135761066f90369060040161169a565b919061067b3633611718565b60405163b09afec160e01b8152600480359082015261018080826024817f00000000000000000000000000000000000000000000000000000000000000006001600160a01b03165afa918215610a6c575f92610b7f575b505060208101517f000000000000000000000000000000000000000000000000000000000000000003610b455780516005811015610b3157600203610af357602435604082015103610abc5761010001518516610a7757608061076c91846040519586926024356020850152604080850152816060850152848401375f838284010152601f80199101168101036060810185520183611598565b7f00000000000000000000000000000000000000000000000000000000000000006001600160a01b03163b15610313576040516334481d7560e01b815260048035908201524285166024820152905f90829081837f00000000000000000000000000000000000000000000000000000000000000006001600160a01b03165af18015610a6c57610a59575b5060043582526007602052604082208151938411610a45576108198154611514565b601f8111610a00575b50602093601f81116001146109a05783948192939491610995575b508160011b915f199060031b1c19161790555b6004358252600560205260408220548015158061097a575b61095b575b506040516331a9108f60e11b815260048035908201526020816024817f00000000000000000000000000000000000000000000000000000000000000006001600160a01b03165afa908115610950578391610912575b50604051906020825260018060a01b0316917f9185c104ab25ee523e58c1a9ad04418072d2e222b20937dea433f726abca72c3602435928061090c60043594602083019061165c565b0390a480f35b90506020813d602011610948575b8161092d60209383611598565b810103126109445761093e90611704565b5f6108c3565b8280fd5b3d9150610920565b6040513d85823e3d90fd5b8252600260205260026040832001600360ff198254161790555f61086d565b508083526002602052600260ff816040862001541614610868565b90508301515f61083d565b81845260208420601f19821695855b8781106109e8575082600194959697106109d0575b5050811b019055610850565b8501515f1960f88460031b161c191690555f806109c4565b909160206001819285890151815501930191016109af565b81845260208420601f860160051c81019160208710610a3b575b601f0160051c01905b818110610a305750610822565b848155600101610a23565b9091508190610a1a565b634e487b7160e01b83526041600452602483fd5b610a64919250611584565b5f905f6107f7565b6040513d5f823e3d90fd5b60405163d647364f60e01b815260206004820152601960248201527f43726564656e7469616c20616c726561647920636c6f7365640000000000000081840152606490fd5b60405163d647364f60e01b815260206004820152600f60248201526e086deeae4e6ca40dad2e6dac2e8c6d608b1b81850152606490fd5b60405163d647364f60e01b81526020600482015260166024820152752737ba10309031b932b232b73a34b0b6103a37b5b2b760511b81850152606490fd5b634e487b7160e01b5f52602160045260245ffd5b60405163d647364f60e01b8152602060048201526012602482015271086dedadaeadcd2e8f240dad2e6dac2e8c6d60731b81850152606490fd5b9080925081813d8311610c81575b610b978183611598565b810103126103135760405191820182811088821117610c6d576040528051600581101561031357825260208101516020830152604081015160408301526060810151606083015260808101516080830152610bf460a082016116de565b60a0830152610c0560c082016116de565b60c0830152610c1660e082016116ef565b60e0830152610100610c298183016116ef565b90830152610120610c3b8183016116ef565b90830152610140808201519060ff8216820361031357830152610c62610160809201611704565b908201525f806106d2565b634e487b7160e01b5f52604160045260245ffd5b503d610b8d565b346103135760403660031901126103135760043560243567ffffffffffffffff811161031357610cbc90369060040161169a565b5050805f526020906001825260405f209060405191610cda83611568565b5460018060a01b0392838216815260ff85820192818160a01c161515845260a81c16159060408215910152610f02575115610eca57805f526004835260405f20335f52835260ff60405f205416610e8457805f526003835260405f20335f52835260405f2054610e3e57600854915f198314610e2a5760018301600855600360405191610d668361154c565b33835285830184815260408401906001825260608501925f8452875f526002895260405f209551166bffffffffffffffffffffffff60a01b86541617855551600185015560ff6002850191511660ff1982541617905551910155805f526003835260405f20335f5283528160405f20556040517f00000000000000000000000000000000000000000000000000000000000000008152827fa26ac19519f0ff038102b40e040cd37019bc8f5cf68b55fa918edab637df3121853393a4604051908152f35b634e487b7160e01b5f52601160045260245ffd5b60405163d647364f60e01b815260048101849052601b60248201527f4170706c69636174696f6e20616c72656164792070656e64696e6700000000006044820152606490fd5b60405163d647364f60e01b815260206004820152601960248201527f43726564656e7469616c20616c726561647920697373756564000000000000006044820152606490fd5b60405163d647364f60e01b815260206004820152600f60248201526e436f7572736520696e61637469766560881b6044820152606490fd5b60405163d647364f60e01b815260206004820152601060248201526f155b9adb9bdddb8818dbdd5c9cd9525960821b6044820152606490fd5b34610313576020366003190112610313576004355f526006602052610f79610f6560405f206115ba565b60405191829160208352602083019061165c565b0390f35b34610313575f366003190112610313576020600854604051908152f35b34610313576040366003190112610313576004356024358015159081810361031357610fc63633611718565b825f52600160205260405f209160ff835460a81c1615610f0257825460ff60a01b191691151560a01b60ff60a01b16919091179091557f01e3d5785ae82cccccf0a35b308df42e22e2b5fc04cad31053cd24c6cb0ae45790602090604051908152a2005b3461031357602080600319360112610313576004359061104a3633611718565b815f526002815260405f20600281016001938460ff835416036113c55782546001600160a01b039081169384156113875786810193845490815f5288885260405f206040519061109982611568565b54908582168152604060ff808460a01c16159384158d85015260a81c161515910152610eca57815f526004885260405f20875f52885260ff60405f205416610e8457604051918089840152856040840152604083526110f783611568565b604051976301c4c12560e61b895260048901526002602489015260448801526080606488015287878061112d608482018661165c565b03815f887f0000000000000000000000000000000000000000000000000000000000000000165af1968715610a6c575f97611358575b5060ff199060028282541617905586600384015585545f526004885260405f20848454165f5288528860405f209182541617905584545f526003875260405f20838354165f5287525f6040812055855f52600587528360405f20556006875260405f209080519067ffffffffffffffff8211610c6d576111e38354611514565b601f8111611316575b5097989697959688968a906001601f8511146112885792807f01f301ee6ea492b70f5575546b4c5b7f2c80d161318bc883b4bfc8b57db453449795938193604098965f9461127d575b50501b915f199060031b1c19161790555b5416945481519081527f000000000000000000000000000000000000000000000000000000000000000088820152a4604051908152f35b015192508e80611235565b5f8581528c8120939493929190601f198516908e5b8282106112fe57505091604097959391857f01f301ee6ea492b70f5575546b4c5b7f2c80d161318bc883b4bfc8b57db453449a989694106112e6575b505050811b019055611246565b01515f1960f88460031b161c191690558c80806112d9565b8484015186558e9c509487019493840193018e61129d565b835f52895f20601f840160051c8101918b851061134e575b601f0160051c01905b81811061134457506111ec565b5f81558b01611337565b909150819061132e565b9096508781813d8311611380575b6113708183611598565b8101031261031357519589611163565b503d611366565b60405163d647364f60e01b8152600481018790526015602482015274105c1c1b1a58d85d1a5bdb881b9bdd08199bdd5b99605a1b6044820152606490fd5b60405163d647364f60e01b815260048101859052601760248201527f4170706c69636174696f6e206e6f742070656e64696e670000000000000000006044820152606490fd5b34610313576020366003190112610313576004355f526007602052610f79610f6560405f206115ba565b34610313576020366003190112610313575f60606040516114558161154c565b82815282602082015282604082015201526004355f526002602052608060405f206040516114828161154c565b60ff60018060a01b0383541692838352600181015460208401908152606060038460028501541693604087019485520154940193845260405194855251602085015251166040830152516060820152f35b34610313575f366003190112610313577f00000000000000000000000000000000000000000000000000000000000000006001600160a01b03168152602090f35b90600182811c92168015611542575b602083101461152e57565b634e487b7160e01b5f52602260045260245ffd5b91607f1691611523565b6080810190811067ffffffffffffffff821117610c6d57604052565b6060810190811067ffffffffffffffff821117610c6d57604052565b67ffffffffffffffff8111610c6d57604052565b90601f8019910116810190811067ffffffffffffffff821117610c6d57604052565b60405190815f82546115cb81611514565b908184526020946001916001811690815f1461163a57506001146115fc575b5050506115f992500382611598565b90565b5f90815285812095935091905b8183106116225750506115f993508201015f80806115ea565b85548784018501529485019486945091830191611609565b925050506115f994925060ff191682840152151560051b8201015f80806115ea565b91908251928382525f5b848110611686575050825f602080949584010152601f8019910116010190565b602081830181015184830182015201611666565b9181601f840112156103135782359167ffffffffffffffff8311610313576020838186019501011161031357565b602435906001600160a01b038216820361031357565b519063ffffffff8216820361031357565b519067ffffffffffffffff8216820361031357565b51906001600160a01b038216820361031357565b5f915f549160018060a01b03908184169280600411610313575f80604094855190602082019563b700961360e01b8752169485602483015230604483015263ffffffff60e01b5f351660648301526064825260a082019082821067ffffffffffffffff831117610c6d5787925f928452828052826020525190895afa611861575b156117a8575b50505050505050565b63ffffffff161561184b5760ff60a01b19948516600160a01b175f55833b15610313576064935f92838551968780958194634a63ebf760e11b835260048301528860248301528060448301528084848401378181018301849052601f01601f191681010301925af1908115611842575061182f575b5081541690555f80808080808061179f565b61183a919250611584565b5f905f61181d565b513d5f823e3d90fd5b50602491519062d1953b60e31b82526004820152fd5b50505f516020518060201c15029061179956fea264697066735822122011da75774910ea55d05e844ed3e8acd2300851056c03fae6e9b30c147a52900b64736f6c63430008180033",
  "linkReferences": {},
  "deployedLinkReferences": {}
}