{"abi":[{"type":"constructor","inputs":[{"name":"manager","type":"address","internalType":"address"},{"name":"_valuableActionRegistry","type":"address","internalType":"address"},{"name":"_sbt","type":"address","internalType":"address"},{"name":"_communityId","type":"uint256","internalType":"uint256"}],"stateMutability":"nonpayable"},{"type":"function","name":"applicationIdByToken","inputs":[{"name":"","type":"uint256","internalType":"uint256"}],"outputs":[{"name":"","type":"uint256","internalType":"uint256"}],"stateMutability":"view"},{"type":"function","name":"applications","inputs":[{"name":"","type":"uint256","internalType":"uint256"}],"outputs":[{"name":"applicant","type":"address","internalType":"address"},{"name":"courseId","type":"bytes32","internalType":"bytes32"},{"name":"status","type":"uint8","internalType":"uint8"},{"name":"tokenId","type":"uint256","internalType":"uint256"}],"stateMutability":"view"},{"type":"function","name":"applyForCredential","inputs":[{"name":"courseId","type":"bytes32","internalType":"bytes32"},{"name":"evidence","type":"bytes","internalType":"bytes"}],"outputs":[{"name":"appId","type":"uint256","internalType":"uint256"}],"stateMutability":"nonpayable"},{"type":"function","name":"approveApplication","inputs":[{"name":"appId","type":"uint256","internalType":"uint256"}],"outputs":[{"name":"tokenId","type":"uint256","internalType":"uint256"}],"stateMutability":"nonpayable"},{"type":"function","name":"authority","inputs":[],"outputs":[{"name":"","type":"address","internalType":"address"}],"stateMutability":"view"},{"type":"function","name":"communityId","inputs":[],"outputs":[{"name":"","type":"uint256","internalType":"uint256"}],"stateMutability":"view"},{"type":"function","name":"courses","inputs":[{"name":"","type":"bytes32","internalType":"bytes32"}],"outputs":[{"name":"verifier","type":"address","internalType":"address"},{"name":"active","type":"bool","internalType":"bool"},{"name":"exists","type":"bool","internalType":"bool"}],"stateMutability":"view"},{"type":"function","name":"defineCourse","inputs":[{"name":"courseId","type":"bytes32","internalType":"bytes32"},{"name":"verifier","type":"address","internalType":"address"},{"name":"active","type":"bool","internalType":"bool"}],"outputs":[],"stateMutability":"nonpayable"},{"type":"function","name":"getApplication","inputs":[{"name":"appId","type":"uint256","internalType":"uint256"}],"outputs":[{"name":"","type":"tuple","internalType":"struct CredentialManager.CredentialApplication","components":[{"name":"applicant","type":"address","internalType":"address"},{"name":"courseId","type":"bytes32","internalType":"bytes32"},{"name":"status","type":"uint8","internalType":"uint8"},{"name":"tokenId","type":"uint256","internalType":"uint256"}]}],"stateMutability":"view"},{"type":"function","name":"getCourse","inputs":[{"name":"courseId","type":"bytes32","internalType":"bytes32"}],"outputs":[{"name":"","type":"tuple","internalType":"struct CredentialManager.Course","components":[{"name":"verifier","type":"address","internalType":"address"},{"name":"active","type":"bool","internalType":"bool"},{"name":"exists","type":"bool","internalType":"bool"}]}],"stateMutability":"view"},{"type":"function","name":"hasCredential","inputs":[{"name":"","type":"bytes32","internalType":"bytes32"},{"name":"","type":"address","internalType":"address"}],"outputs":[{"name":"","type":"bool","internalType":"bool"}],"stateMutability":"view"},{"type":"function","name":"isConsumingScheduledOp","inputs":[],"outputs":[{"name":"","type":"bytes4","internalType":"bytes4"}],"stateMutability":"view"},{"type":"function","name":"issuanceMetadata","inputs":[{"name":"","type":"uint256","internalType":"uint256"}],"outputs":[{"name":"","type":"bytes","internalType":"bytes"}],"stateMutability":"view"},{"type":"function","name":"nextAppId","inputs":[],"outputs":[{"name":"","type":"uint256","internalType":"uint256"}],"stateMutability":"view"},{"type":"function","name":"pendingApplicationId","inputs":[{"name":"","type":"bytes32","internalType":"bytes32"},{"name":"","type":"address","internalType":"address"}],"outputs":[{"name":"","type":"uint256","internalType":"uint256"}],"stateMutability":"view"},{"type":"function","name":"revocationMetadata","inputs":[{"name":"","type":"uint256","internalType":"uint256"}],"outputs":[{"name":"","type":"bytes","internalType":"bytes"}],"stateMutability":"view"},{"type":"function","name":"revokeCredential","inputs":[{"name":"tokenId","type":"uint256","internalType":"uint256"},{"name":"courseId","type":"bytes32","internalType":"bytes32"},{"name":"reason","type":"bytes","internalType":"bytes"}],"outputs":[],"stateMutability":"nonpayable"},{"type":"function","name":"sbt","inputs":[],"outputs":[{"name":"","type":"address","internalType":"contract ValuableActionSBT"}],"stateMutability":"view"},{"type":"function","name":"setAuthority","inputs":[{"name":"newAuthority","type":"address","internalType":"address"}],"outputs":[],"stateMutability":"nonpayable"},{"type":"function","name":"setCourseActive","inputs":[{"name":"courseId","type":"bytes32","internalType":"bytes32"},{"name":"active","type":"bool","internalType":"bool"}],"outputs":[],"stateMutability":"nonpayable"},{"type":"function","name":"valuableActionRegistry","inputs":[],"outputs":[{"name":"","type":"address","internalType":"contract ValuableActionRegistry"}],"stateMutability":"view"},{"type":"event","name":"AuthorityUpdated","inputs":[{"name":"authority","type":"address","indexed":false,"internalType":"address"}],"anonymous":false},{"type":"event","name":"CourseActivationUpdated","inputs":[{"name":"courseId","type":"bytes32","indexed":true,"internalType":"bytes32"},{"name":"active","type":"bool","indexed":false,"internalType":"bool"}],"anonymous":false},{"type":"event","name":"CourseDefined","inputs":[{"name":"courseId","type":"bytes32","indexed":true,"internalType":"bytes32"},{"name":"communityId","type":"uint256","indexed":true,"internalType":"uint256"},{"name":"verifier","type":"address","indexed":true,"internalType":"address"},{"name":"active","type":"bool","indexed":false,"internalType":"bool"}],"anonymous":false},{"type":"event","name":"CredentialApplied","inputs":[{"name":"appId","type":"uint256","indexed":true,"internalType":"uint256"},{"name":"applicant","type":"address","indexed":true,"internalType":"address"},{"name":"courseId","type":"bytes32","indexed":true,"internalType":"bytes32"},{"name":"communityId","type":"uint256","indexed":false,"internalType":"uint256"}],"anonymous":false},{"type":"event","name":"CredentialIssued","inputs":[{"name":"appId","type":"uint256","indexed":true,"internalType":"uint256"},{"name":"tokenId","type":"uint256","indexed":true,"internalType":"uint256"},{"name":"applicant","type":"address","indexed":true,"internalType":"address"},{"name":"courseId","type":"bytes32","indexed":false,"internalType":"bytes32"},{"name":"communityId","type":"uint256","indexed":false,"internalType":"uint256"}],"anonymous":false},{"type":"event","name":"CredentialRevoked","inputs":[{"name":"tokenId","type":"uint256","indexed":true,"internalType":"uint256"},{"name":"courseId","type":"bytes32","indexed":true,"internalType":"bytes32"},{"name":"applicant","type":"address","indexed":true,"internalType":"address"},{"name":"metadata","type":"bytes","indexed":false,"internalType":"bytes"}],"anonymous":false},{"type":"error","name":"AccessManagedInvalidAuthority","inputs":[{"name":"authority","type":"address","internalType":"address"}]},{"type":"error","name":"AccessManagedRequiredDelay","inputs":[{"name":"caller","type":"address","internalType":"address"},{"name":"delay","type":"uint32","internalType":"uint32"}]},{"type":"error","name":"AccessManagedUnauthorized","inputs":[{"name":"caller","type":"address","internalType":"address"}]},{"type":"error","name":"InvalidInput","inputs":[{"name":"reason","type":"string","internalType":"string"}]},{"type":"error","name":"ZeroAddress","inputs":[]}],"bytecode":{"object":"0x60e034620001bc57601f62001c5e38819003918201601f191683019291906001600160401b03841183851017620001c0578160809284926040968752833981010312620001bc576200005181620001d4565b906200006060208201620001d4565b91606062000070858401620001d4565b9201515f80546001600160a01b0319166001600160a01b0393841690811790915585518181529194917f2f658b440c35314f52658ea8a740e05b284cdc84dc9ae01e891f21b8933e7cad90602090a1600160085515620001ab578116918215620001ab57169081156200019a578215620001555760805260a05260c05251611a749081620001ea8239608051818181611299015261165d015260a0518181816104160152818161077b0152818161084f015281816108ba015261099c015260c0518181816102a50152818161060d015281816107b401528181610f0c01526113b70152f35b835163d647364f60e01b815260206004820152601360248201527f496e76616c696420636f6d6d756e6974794964000000000000000000000000006044820152606490fd5b835163d92e233d60e01b8152600490fd5b845163d92e233d60e01b8152600490fd5b5f80fd5b634e487b7160e01b5f52604160045260245ffd5b51906001600160a01b0382168203620001bc5756fe6080806040526004361015610012575f80fd5b5f905f3560e01c9081631012781114611640575080631f2f4bfd146115a15780632116974e14611577578063213fbf1b1461117857806324cdf73b146110e557806338226c2a146110c85780634b946b7d14611086578063763eaf5914610db2578063792450fb146106fa5780637a9e5e4b146106305780637f50861a146105f55780638fb3603714610580578063987b57b9146104f5578063a4185941146104aa578063a5f6a86514610464578063a83bfe121461043a578063b1324f7b146103f6578063bf7e214f146103d0578063c4b8875114610381578063cf51b14c146101605763dfefadff14610105575f80fd5b3461015d57602036600319011261015d57604060809160043581526002602052206001600160a01b0381541690600181015490600360ff60028301541691015491604051938452602084015260408301526060820152f35b80fd5b503461015d57606036600319011261015d5760043561017d611835565b906044359081151580920361037d576101963633611885565b8015610338576001600160a01b0380931692831561030e57818552600160205260ff604086205460a81c166102c957604051906101d2826116d5565b8482526102336020830185815260408401926001845285895260016020526040892094511673ffffffffffffffffffffffffffffffffffffffff19855416178455511515839060ff60a01b1960ff60a01b835492151560a01b169116179055565b5115157fffffffffffffffffffff00ffffffffffffffffffffffffffffffffffffffffff75ff00000000000000000000000000000000000000000083549260a81b1691161790556040519182527f758622b5b0acb1ac404d63fbcd6367c37fc392d8fe4f81ea3be5e7417ad8b2f860207f000000000000000000000000000000000000000000000000000000000000000093a480f35b606460405163d647364f60e01b815260206004820152601560248201527f436f7572736520616c72656164792065786973747300000000000000000000006044820152fd5b60046040517fd92e233d000000000000000000000000000000000000000000000000000000008152fd5b606460405163d647364f60e01b815260206004820152601060248201527f4d697373696e6720636f757273654964000000000000000000000000000000006044820152fd5b5f80fd5b503461015d57602036600319011261015d57604060609160043581526001602052205460ff604051916001600160a01b0381168352818160a01c161515602084015260a81c1615156040820152f35b503461015d578060031936011261015d576001600160a01b036020915416604051908152f35b503461015d578060031936011261015d5760206040516001600160a01b037f0000000000000000000000000000000000000000000000000000000000000000168152f35b503461015d57602036600319011261015d5760406020916004358152600583522054604051908152f35b503461015d57604036600319011261015d576001600160a01b036040610488611835565b92600435815260036020522091165f52602052602060405f2054604051908152f35b503461015d57604036600319011261015d576001600160a01b0360406104ce611835565b92600435815260046020522091165f52602052602060ff60405f2054166040519015158152f35b503461015d57602036600319011261015d57604081606092828051610519816116d5565b828152826020820152015260043581526001602052206040519061053c826116d5565b546001600160a01b0381169182815260ff60406020830192828560a01c1615158452019260a81c161515825260405192835251151560208301525115156040820152f35b503461015d578060031936011261015d57805460a01c60ff16156105ed575060207f8fb36037000000000000000000000000000000000000000000000000000000005b7fffffffff0000000000000000000000000000000000000000000000000000000060405191168152f35b6020906105c3565b503461015d578060031936011261015d5760206040517f00000000000000000000000000000000000000000000000000000000000000008152f35b503461015d57602036600319011261015d576004356001600160a01b038082169182810361037d57835491821633036106e4573b156106b357817f2f658b440c35314f52658ea8a740e05b284cdc84dc9ae01e891f21b8933e7cad9273ffffffffffffffffffffffffffffffffffffffff1960209316178455604051908152a180f35b602482604051907fc2f31e5e0000000000000000000000000000000000000000000000000000000082526004820152fd5b602460405162d1953b60e31b8152336004820152fd5b503461037d57606036600319011261037d5767ffffffffffffffff906044803583811161037d5761072f903690600401611807565b919061073b3633611885565b6040517fb09afec1000000000000000000000000000000000000000000000000000000008152600435600482015261018080826024816001600160a01b037f0000000000000000000000000000000000000000000000000000000000000000165afa918215610b76575f92610ca9575b505060208101517f000000000000000000000000000000000000000000000000000000000000000003610c645780516005811015610c5057600203610c0b57602435604082015103610bc65761010001518516610b8157608061084591846040519586926024356020850152604080850152816060850152848401375f838284010152601f80199101168101036060810185520183611705565b6001600160a01b037f0000000000000000000000000000000000000000000000000000000000000000163b1561037d575f60405180927f34481d750000000000000000000000000000000000000000000000000000000082526004356004830152864216602483015281836001600160a01b037f0000000000000000000000000000000000000000000000000000000000000000165af18015610b7657610b63575b5060043582526007602052604082208151938411610b4f576109098154611681565b601f8111610b0a575b50602093601f8111600114610aaa5783948192939491610a9f575b508160011b915f199060031b1c19161790555b60043582526005602052604082205480151580610a84575b610a65575b506040517f6352211e00000000000000000000000000000000000000000000000000000000815260043560048201526020816024816001600160a01b037f0000000000000000000000000000000000000000000000000000000000000000165afa908115610a5a578391610a1c575b506001600160a01b03604051916020835216917f9185c104ab25ee523e58c1a9ad04418072d2e222b20937dea433f726abca72c36024359280610a166004359460208301906117c9565b0390a480f35b90506020813d602011610a52575b81610a3760209383611705565b81010312610a4e57610a4890611871565b5f6109cc565b8280fd5b3d9150610a2a565b6040513d85823e3d90fd5b8252600260205260026040832001600360ff198254161790555f61095d565b508083526002602052600260ff816040862001541614610958565b90508301515f61092d565b81845260208420601f19821695855b878110610af257508260019495969710610ada575b5050811b019055610940565b8501515f1960f88460031b161c191690555f80610ace565b90916020600181928589015181550193019101610ab9565b81845260208420601f860160051c81019160208710610b45575b601f0160051c01905b818110610b3a5750610912565b848155600101610b2d565b9091508190610b24565b602483634e487b7160e01b81526041600452fd5b610b6e9192506116f1565b5f905f6108e7565b6040513d5f823e3d90fd5b6064827f43726564656e7469616c20616c726561647920636c6f736564000000000000006040519163d647364f60e01b83526020600484015260196024840152820152fd5b6064837f436f75727365206d69736d6174636800000000000000000000000000000000006040519163d647364f60e01b835260206004840152600f6024840152820152fd5b6064837f4e6f7420612063726564656e7469616c20746f6b656e000000000000000000006040519163d647364f60e01b83526020600484015260166024840152820152fd5b634e487b7160e01b5f52602160045260245ffd5b6064837f436f6d6d756e697479206d69736d6174636800000000000000000000000000006040519163d647364f60e01b83526020600484015260126024840152820152fd5b9080925081813d8311610dab575b610cc18183611705565b8101031261037d5760405191820182811088821117610d97576040528051600581101561037d57825260208101516020830152604081015160408301526060810151606083015260808101516080830152610d1e60a0820161184b565b60a0830152610d2f60c0820161184b565b60c0830152610d4060e0820161185c565b60e0830152610100610d5381830161185c565b90830152610120610d6581830161185c565b90830152610140808201519060ff8216820361037d57830152610d8c610160809201611871565b908201525f806107ab565b634e487b7160e01b5f52604160045260245ffd5b503d610cb7565b3461037d57604036600319011261037d5760043560243567ffffffffffffffff811161037d57610de6903690600401611807565b5050805f526020906001825260405f209060405191610e04836116d5565b546001600160a01b0392838216815260ff85820192818160a01c161515845260a81c16159060408215910152611040575115610ffa57805f526004835260405f20335f52835260ff60405f205416610fb457805f526003835260405f20335f52835260405f2054610f6f57600854915f198314610f5b5760018301600855600360405191610e91836116b9565b33835285830184815260408401906001825260608501925f8452875f526002895260405f2095511673ffffffffffffffffffffffffffffffffffffffff1986541617855551600185015560ff6002850191511660ff1982541617905551910155805f526003835260405f20335f5283528160405f20556040517f00000000000000000000000000000000000000000000000000000000000000008152827fa26ac19519f0ff038102b40e040cd37019bc8f5cf68b55fa918edab637df3121853393a4604051908152f35b634e487b7160e01b5f52601160045260245ffd5b6064836040519063d647364f60e01b82526004820152601b60248201527f4170706c69636174696f6e20616c72656164792070656e64696e6700000000006044820152fd5b60405163d647364f60e01b815260206004820152601960248201527f43726564656e7469616c20616c726561647920697373756564000000000000006044820152606490fd5b60405163d647364f60e01b815260206004820152600f60248201527f436f7572736520696e61637469766500000000000000000000000000000000006044820152606490fd5b60405163d647364f60e01b815260206004820152601060248201527f556e6b6e6f776e20636f757273654964000000000000000000000000000000006044820152606490fd5b3461037d57602036600319011261037d576004355f5260066020526110c46110b060405f20611727565b6040519182916020835260208301906117c9565b0390f35b3461037d575f36600319011261037d576020600854604051908152f35b3461037d57604036600319011261037d576004356024358015159081810361037d576111113633611885565b825f52600160205260405f209160ff835460a81c16156110405761116f6020927f01e3d5785ae82cccccf0a35b308df42e22e2b5fc04cad31053cd24c6cb0ae457949060ff60a01b1960ff60a01b835492151560a01b169116179055565b604051908152a2005b3461037d5760208060031936011261037d57600435906111983633611885565b815f526002815260405f20600281016001938460ff83541603611532576001600160a01b03808454169384156114ed5786810193845490815f5288885260405f20604051906111e6826116d5565b54908582168152604060ff808460a01c16159384158d85015260a81c161515910152610ffa57815f526004885260405f20875f52885260ff60405f205416610fb45760405191808984015285604084015260408352611244836116d5565b604051977f7130494000000000000000000000000000000000000000000000000000000000895260048901526002602489015260448801526080606488015287878061129360848201866117c9565b03815f887f0000000000000000000000000000000000000000000000000000000000000000165af1968715610b76575f976114be575b5060ff199060028282541617905586600384015585545f526004885260405f20848454165f5288528860405f209182541617905584545f526003875260405f20838354165f5287525f6040812055855f52600587528360405f20556006875260405f209080519067ffffffffffffffff8211610d97576113498354611681565b601f811161147c575b5097989697959688968a906001601f8511146113ee5792807f01f301ee6ea492b70f5575546b4c5b7f2c80d161318bc883b4bfc8b57db453449795938193604098965f946113e3575b50501b915f199060031b1c19161790555b5416945481519081527f000000000000000000000000000000000000000000000000000000000000000088820152a4604051908152f35b015192508e8061139b565b5f8581528c8120939493929190601f198516908e5b82821061146457505091604097959391857f01f301ee6ea492b70f5575546b4c5b7f2c80d161318bc883b4bfc8b57db453449a9896941061144c575b505050811b0190556113ac565b01515f1960f88460031b161c191690558c808061143f565b8484015186558e9c509487019493840193018e611403565b835f52895f20601f840160051c8101918b85106114b4575b601f0160051c01905b8181106114aa5750611352565b5f81558b0161149d565b9091508190611494565b9096508781813d83116114e6575b6114d68183611705565b8101031261037d575195896112c9565b503d6114cc565b6064866040519063d647364f60e01b82526004820152601560248201527f4170706c69636174696f6e206e6f7420666f756e6400000000000000000000006044820152fd5b6064846040519063d647364f60e01b82526004820152601760248201527f4170706c69636174696f6e206e6f742070656e64696e670000000000000000006044820152fd5b3461037d57602036600319011261037d576004355f5260076020526110c46110b060405f20611727565b3461037d57602036600319011261037d575f60606040516115c1816116b9565b82815282602082015282604082015201526004355f526002602052608060405f206040516115ee816116b9565b60ff6001600160a01b0383541692838352600181015460208401908152606060038460028501541693604087019485520154940193845260405194855251602085015251166040830152516060820152f35b3461037d575f36600319011261037d576020906001600160a01b037f0000000000000000000000000000000000000000000000000000000000000000168152f35b90600182811c921680156116af575b602083101461169b57565b634e487b7160e01b5f52602260045260245ffd5b91607f1691611690565b6080810190811067ffffffffffffffff821117610d9757604052565b6060810190811067ffffffffffffffff821117610d9757604052565b67ffffffffffffffff8111610d9757604052565b90601f8019910116810190811067ffffffffffffffff821117610d9757604052565b60405190815f825461173881611681565b908184526020946001916001811690815f146117a75750600114611769575b50505061176692500382611705565b90565b5f90815285812095935091905b81831061178f57505061176693508201015f8080611757565b85548784018501529485019486945091830191611776565b9250505061176694925060ff191682840152151560051b8201015f8080611757565b91908251928382525f5b8481106117f3575050825f602080949584010152601f8019910116010190565b6020818301810151848301820152016117d3565b9181601f8401121561037d5782359167ffffffffffffffff831161037d576020838186019501011161037d57565b602435906001600160a01b038216820361037d57565b519063ffffffff8216820361037d57565b519067ffffffffffffffff8216820361037d57565b51906001600160a01b038216820361037d57565b5f915f54916001600160a01b0390818416928060041161037d575f8060409485519060208201957fb700961300000000000000000000000000000000000000000000000000000000875216948560248301523060448301527fffffffff000000000000000000000000000000000000000000000000000000005f351660648301526064825260a082019082821067ffffffffffffffff831117610d975787925f928452828052826020525190895afa611a2b575b15611948575b50505050505050565b63ffffffff1615611a15577401000000000000000000000000000000000000000060ff60a01b19809616175f55833b1561037d576064935f928385519687809581947f94c7d7ee00000000000000000000000000000000000000000000000000000000835260048301528860248301528060448301528084848401378181018301849052601f01601f191681010301925af1908115611a0c57506119f9575b5081541690555f80808080808061193f565b611a049192506116f1565b5f905f6119e7565b513d5f823e3d90fd5b50602491519062d1953b60e31b82526004820152fd5b50505f516020518060201c15029061193956fea26469706673582212201c25f531cf174107de861a293c57ddff7a8e236f42760c61fb6731f67a36209b64736f6c63430008180033","linkReferences":{}},"methodIdentifiers":{"applicationIdByToken(uint256)":"a83bfe12","applications(uint256)":"dfefadff","applyForCredential(bytes32,bytes)":"763eaf59","approveApplication(uint256)":"213fbf1b","authority()":"bf7e214f","communityId()":"7f50861a","courses(bytes32)":"c4b88751","defineCourse(bytes32,address,bool)":"cf51b14c","getApplication(uint256)":"1f2f4bfd","getCourse(bytes32)":"987b57b9","hasCredential(bytes32,address)":"a4185941","isConsumingScheduledOp()":"8fb36037","issuanceMetadata(uint256)":"4b946b7d","nextAppId()":"38226c2a","pendingApplicationId(bytes32,address)":"a5f6a865","revocationMetadata(uint256)":"2116974e","revokeCredential(uint256,bytes32,bytes)":"792450fb","sbt()":"b1324f7b","setAuthority(address)":"7a9e5e4b","setCourseActive(bytes32,bool)":"24cdf73b","valuableActionRegistry()":"10127811"},"id":15}