{"abi":[{"type":"constructor","inputs":[{"name":"_communityRegistry","type":"address","internalType":"address"},{"name":"_governor","type":"address","internalType":"address"},{"name":"manager","type":"address","internalType":"address"}],"stateMutability":"nonpayable"},{"type":"function","name":"addContributor","inputs":[{"name":"draftId","type":"uint256","internalType":"uint256"},{"name":"contributor","type":"address","internalType":"address"}],"outputs":[],"stateMutability":"nonpayable"},{"type":"function","name":"authorDrafts","inputs":[{"name":"","type":"address","internalType":"address"},{"name":"","type":"uint256","internalType":"uint256"}],"outputs":[{"name":"","type":"uint256","internalType":"uint256"}],"stateMutability":"view"},{"type":"function","name":"authority","inputs":[],"outputs":[{"name":"","type":"address","internalType":"address"}],"stateMutability":"view"},{"type":"function","name":"communityDrafts","inputs":[{"name":"","type":"uint256","internalType":"uint256"},{"name":"","type":"uint256","internalType":"uint256"}],"outputs":[{"name":"","type":"uint256","internalType":"uint256"}],"stateMutability":"view"},{"type":"function","name":"communityRegistry","inputs":[],"outputs":[{"name":"","type":"address","internalType":"address"}],"stateMutability":"view"},{"type":"function","name":"contributorDrafts","inputs":[{"name":"","type":"address","internalType":"address"},{"name":"","type":"uint256","internalType":"uint256"}],"outputs":[{"name":"","type":"uint256","internalType":"uint256"}],"stateMutability":"view"},{"type":"function","name":"createDraft","inputs":[{"name":"communityId","type":"uint256","internalType":"uint256"},{"name":"requestId","type":"uint256","internalType":"uint256"},{"name":"actions","type":"tuple","internalType":"struct DraftsManager.ActionBundle","components":[{"name":"targets","type":"address[]","internalType":"address[]"},{"name":"values","type":"uint256[]","internalType":"uint256[]"},{"name":"calldatas","type":"bytes[]","internalType":"bytes[]"},{"name":"actionsHash","type":"bytes32","internalType":"bytes32"}]},{"name":"versionCID","type":"string","internalType":"string"}],"outputs":[{"name":"draftId","type":"uint256","internalType":"uint256"}],"stateMutability":"nonpayable"},{"type":"function","name":"escalateToProposal","inputs":[{"name":"draftId","type":"uint256","internalType":"uint256"},{"name":"multiChoice","type":"bool","internalType":"bool"},{"name":"numOptions","type":"uint8","internalType":"uint8"},{"name":"description","type":"string","internalType":"string"}],"outputs":[{"name":"proposalId","type":"uint256","internalType":"uint256"}],"stateMutability":"nonpayable"},{"type":"function","name":"finalizeForProposal","inputs":[{"name":"draftId","type":"uint256","internalType":"uint256"}],"outputs":[],"stateMutability":"nonpayable"},{"type":"function","name":"getDraft","inputs":[{"name":"draftId","type":"uint256","internalType":"uint256"}],"outputs":[{"name":"communityId","type":"uint256","internalType":"uint256"},{"name":"requestId","type":"uint256","internalType":"uint256"},{"name":"author","type":"address","internalType":"address"},{"name":"contributors","type":"address[]","internalType":"address[]"},{"name":"actions","type":"tuple","internalType":"struct DraftsManager.ActionBundle","components":[{"name":"targets","type":"address[]","internalType":"address[]"},{"name":"values","type":"uint256[]","internalType":"uint256[]"},{"name":"calldatas","type":"bytes[]","internalType":"bytes[]"},{"name":"actionsHash","type":"bytes32","internalType":"bytes32"}]},{"name":"versionCIDs","type":"string[]","internalType":"string[]"},{"name":"status","type":"uint8","internalType":"enum DraftsManager.DraftStatus"},{"name":"createdAt","type":"uint64","internalType":"uint64"},{"name":"reviewStartedAt","type":"uint64","internalType":"uint64"},{"name":"finalizedAt","type":"uint64","internalType":"uint64"},{"name":"proposalId","type":"uint256","internalType":"uint256"}],"stateMutability":"view"},{"type":"function","name":"getDraftsByAuthor","inputs":[{"name":"author","type":"address","internalType":"address"}],"outputs":[{"name":"","type":"uint256[]","internalType":"uint256[]"}],"stateMutability":"view"},{"type":"function","name":"getDraftsByCommunity","inputs":[{"name":"communityId","type":"uint256","internalType":"uint256"}],"outputs":[{"name":"","type":"uint256[]","internalType":"uint256[]"}],"stateMutability":"view"},{"type":"function","name":"getDraftsByContributor","inputs":[{"name":"contributor","type":"address","internalType":"address"}],"outputs":[{"name":"","type":"uint256[]","internalType":"uint256[]"}],"stateMutability":"view"},{"type":"function","name":"getDraftsByRequest","inputs":[{"name":"requestId","type":"uint256","internalType":"uint256"}],"outputs":[{"name":"","type":"uint256[]","internalType":"uint256[]"}],"stateMutability":"view"},{"type":"function","name":"getDraftsCount","inputs":[],"outputs":[{"name":"","type":"uint256","internalType":"uint256"}],"stateMutability":"view"},{"type":"function","name":"getReview","inputs":[{"name":"draftId","type":"uint256","internalType":"uint256"},{"name":"reviewer","type":"address","internalType":"address"}],"outputs":[{"name":"reviewType","type":"uint8","internalType":"enum DraftsManager.ReviewType"},{"name":"reasonCID","type":"string","internalType":"string"},{"name":"timestamp","type":"uint64","internalType":"uint64"},{"name":"isActive","type":"bool","internalType":"bool"}],"stateMutability":"view"},{"type":"function","name":"getReviewSummary","inputs":[{"name":"draftId","type":"uint256","internalType":"uint256"}],"outputs":[{"name":"supportCount","type":"uint256","internalType":"uint256"},{"name":"opposeCount","type":"uint256","internalType":"uint256"},{"name":"neutralCount","type":"uint256","internalType":"uint256"},{"name":"requestChangesCount","type":"uint256","internalType":"uint256"},{"name":"totalReviews","type":"uint256","internalType":"uint256"}],"stateMutability":"view"},{"type":"function","name":"governor","inputs":[],"outputs":[{"name":"","type":"address","internalType":"address"}],"stateMutability":"view"},{"type":"function","name":"isConsumingScheduledOp","inputs":[],"outputs":[{"name":"","type":"bytes4","internalType":"bytes4"}],"stateMutability":"view"},{"type":"function","name":"isContributor","inputs":[{"name":"draftId","type":"uint256","internalType":"uint256"},{"name":"contributor","type":"address","internalType":"address"}],"outputs":[{"name":"","type":"bool","internalType":"bool"}],"stateMutability":"view"},{"type":"function","name":"minReviewsForEscalation","inputs":[],"outputs":[{"name":"","type":"uint256","internalType":"uint256"}],"stateMutability":"view"},{"type":"function","name":"removeContributor","inputs":[{"name":"draftId","type":"uint256","internalType":"uint256"},{"name":"contributor","type":"address","internalType":"address"}],"outputs":[],"stateMutability":"nonpayable"},{"type":"function","name":"requestDrafts","inputs":[{"name":"","type":"uint256","internalType":"uint256"},{"name":"","type":"uint256","internalType":"uint256"}],"outputs":[{"name":"","type":"uint256","internalType":"uint256"}],"stateMutability":"view"},{"type":"function","name":"retractReview","inputs":[{"name":"draftId","type":"uint256","internalType":"uint256"}],"outputs":[],"stateMutability":"nonpayable"},{"type":"function","name":"reviewPeriod","inputs":[],"outputs":[{"name":"","type":"uint256","internalType":"uint256"}],"stateMutability":"view"},{"type":"function","name":"setAuthority","inputs":[{"name":"newAuthority","type":"address","internalType":"address"}],"outputs":[],"stateMutability":"nonpayable"},{"type":"function","name":"snapshotVersion","inputs":[{"name":"draftId","type":"uint256","internalType":"uint256"},{"name":"newVersionCID","type":"string","internalType":"string"}],"outputs":[],"stateMutability":"nonpayable"},{"type":"function","name":"submitForReview","inputs":[{"name":"draftId","type":"uint256","internalType":"uint256"}],"outputs":[],"stateMutability":"nonpayable"},{"type":"function","name":"submitReview","inputs":[{"name":"draftId","type":"uint256","internalType":"uint256"},{"name":"reviewType","type":"uint8","internalType":"enum DraftsManager.ReviewType"},{"name":"reasonCID","type":"string","internalType":"string"}],"outputs":[],"stateMutability":"nonpayable"},{"type":"function","name":"supportThresholdBps","inputs":[],"outputs":[{"name":"","type":"uint256","internalType":"uint256"}],"stateMutability":"view"},{"type":"function","name":"updateConfiguration","inputs":[{"name":"newReviewPeriod","type":"uint256","internalType":"uint256"},{"name":"newMinReviews","type":"uint256","internalType":"uint256"},{"name":"newSupportThreshold","type":"uint256","internalType":"uint256"}],"outputs":[],"stateMutability":"nonpayable"},{"type":"function","name":"updateGovernor","inputs":[{"name":"newGovernor","type":"address","internalType":"address"}],"outputs":[],"stateMutability":"nonpayable"},{"type":"function","name":"updateProposalOutcome","inputs":[{"name":"draftId","type":"uint256","internalType":"uint256"},{"name":"outcome","type":"uint8","internalType":"enum DraftsManager.DraftStatus"}],"outputs":[],"stateMutability":"nonpayable"},{"type":"event","name":"AuthorityUpdated","inputs":[{"name":"authority","type":"address","indexed":false,"internalType":"address"}],"anonymous":false},{"type":"event","name":"ConfigurationUpdated","inputs":[{"name":"reviewPeriod","type":"uint256","indexed":false,"internalType":"uint256"},{"name":"minReviewsForEscalation","type":"uint256","indexed":false,"internalType":"uint256"},{"name":"supportThresholdBps","type":"uint256","indexed":false,"internalType":"uint256"}],"anonymous":false},{"type":"event","name":"ContributorAdded","inputs":[{"name":"draftId","type":"uint256","indexed":true,"internalType":"uint256"},{"name":"contributor","type":"address","indexed":true,"internalType":"address"},{"name":"addedBy","type":"address","indexed":true,"internalType":"address"}],"anonymous":false},{"type":"event","name":"ContributorRemoved","inputs":[{"name":"draftId","type":"uint256","indexed":true,"internalType":"uint256"},{"name":"contributor","type":"address","indexed":true,"internalType":"address"},{"name":"removedBy","type":"address","indexed":true,"internalType":"address"}],"anonymous":false},{"type":"event","name":"DraftCreated","inputs":[{"name":"draftId","type":"uint256","indexed":true,"internalType":"uint256"},{"name":"communityId","type":"uint256","indexed":true,"internalType":"uint256"},{"name":"requestId","type":"uint256","indexed":true,"internalType":"uint256"},{"name":"author","type":"address","indexed":false,"internalType":"address"},{"name":"actionsHash","type":"bytes32","indexed":false,"internalType":"bytes32"},{"name":"versionCID","type":"string","indexed":false,"internalType":"string"}],"anonymous":false},{"type":"event","name":"DraftStatusChanged","inputs":[{"name":"draftId","type":"uint256","indexed":true,"internalType":"uint256"},{"name":"oldStatus","type":"uint8","indexed":false,"internalType":"enum DraftsManager.DraftStatus"},{"name":"newStatus","type":"uint8","indexed":false,"internalType":"enum DraftsManager.DraftStatus"},{"name":"changedBy","type":"address","indexed":true,"internalType":"address"}],"anonymous":false},{"type":"event","name":"GovernorUpdated","inputs":[{"name":"oldGovernor","type":"address","indexed":true,"internalType":"address"},{"name":"newGovernor","type":"address","indexed":true,"internalType":"address"}],"anonymous":false},{"type":"event","name":"ProposalEscalated","inputs":[{"name":"draftId","type":"uint256","indexed":true,"internalType":"uint256"},{"name":"proposalId","type":"uint256","indexed":true,"internalType":"uint256"},{"name":"isMultiChoice","type":"bool","indexed":false,"internalType":"bool"},{"name":"numOptions","type":"uint8","indexed":false,"internalType":"uint8"}],"anonymous":false},{"type":"event","name":"ProposalOutcomeUpdated","inputs":[{"name":"draftId","type":"uint256","indexed":true,"internalType":"uint256"},{"name":"proposalId","type":"uint256","indexed":true,"internalType":"uint256"},{"name":"outcome","type":"uint8","indexed":false,"internalType":"enum DraftsManager.DraftStatus"}],"anonymous":false},{"type":"event","name":"ReviewRetracted","inputs":[{"name":"draftId","type":"uint256","indexed":true,"internalType":"uint256"},{"name":"reviewer","type":"address","indexed":true,"internalType":"address"}],"anonymous":false},{"type":"event","name":"ReviewSubmitted","inputs":[{"name":"draftId","type":"uint256","indexed":true,"internalType":"uint256"},{"name":"reviewer","type":"address","indexed":true,"internalType":"address"},{"name":"reviewType","type":"uint8","indexed":false,"internalType":"enum DraftsManager.ReviewType"},{"name":"reasonCID","type":"string","indexed":false,"internalType":"string"}],"anonymous":false},{"type":"event","name":"VersionSnapshot","inputs":[{"name":"draftId","type":"uint256","indexed":true,"internalType":"uint256"},{"name":"versionNumber","type":"uint256","indexed":false,"internalType":"uint256"},{"name":"versionCID","type":"string","indexed":false,"internalType":"string"},{"name":"contributor","type":"address","indexed":true,"internalType":"address"}],"anonymous":false},{"type":"error","name":"AccessManagedInvalidAuthority","inputs":[{"name":"authority","type":"address","internalType":"address"}]},{"type":"error","name":"AccessManagedRequiredDelay","inputs":[{"name":"caller","type":"address","internalType":"address"},{"name":"delay","type":"uint32","internalType":"uint32"}]},{"type":"error","name":"AccessManagedUnauthorized","inputs":[{"name":"caller","type":"address","internalType":"address"}]},{"type":"error","name":"AlreadyReviewed","inputs":[{"name":"reviewer","type":"address","internalType":"address"}]},{"type":"error","name":"ContributorAlreadyExists","inputs":[{"name":"contributor","type":"address","internalType":"address"}]},{"type":"error","name":"ContributorNotFound","inputs":[{"name":"contributor","type":"address","internalType":"address"}]},{"type":"error","name":"DraftNotFound","inputs":[{"name":"draftId","type":"uint256","internalType":"uint256"}]},{"type":"error","name":"InsufficientReviews","inputs":[{"name":"current","type":"uint256","internalType":"uint256"},{"name":"required","type":"uint256","internalType":"uint256"}]},{"type":"error","name":"InsufficientSupport","inputs":[{"name":"supportBps","type":"uint256","internalType":"uint256"},{"name":"requiredBps","type":"uint256","internalType":"uint256"}]},{"type":"error","name":"InvalidInput","inputs":[{"name":"reason","type":"string","internalType":"string"}]},{"type":"error","name":"InvalidStatus","inputs":[{"name":"current","type":"uint8","internalType":"enum DraftsManager.DraftStatus"},{"name":"required","type":"uint8","internalType":"enum DraftsManager.DraftStatus"}]},{"type":"error","name":"NotAuthorized","inputs":[{"name":"user","type":"address","internalType":"address"}]},{"type":"error","name":"ReviewPeriodNotMet","inputs":[{"name":"timeRemaining","type":"uint256","internalType":"uint256"}]},{"type":"error","name":"ZeroAddress","inputs":[]}],"bytecode":{"object":"0x60a0346200013d57601f6200368738819003918201601f19168301916001600160401b0383118484101762000141578084926060946040528339810103126200013d5760406200004f8262000155565b916200005e6020820162000155565b6001600160a01b03929091839162000077910162000155565b169260018060a01b03199380855f5416175f557f2f658b440c35314f52658ea8a740e05b284cdc84dc9ae01e891f21b8933e7cad6020604051838152a16203f48060035560036004556117706005558382161590811562000131575b811562000127575b5062000115576080521690600154161760015560405161351c90816200016b8239608051818181610206015281816114d8015261308b0152f35b60405163d92e233d60e01b8152600490fd5b9050155f620000db565b838516159150620000d3565b5f80fd5b634e487b7160e01b5f52604160045260245ffd5b51906001600160a01b03821682036200013d5756fe6080806040526004361015610012575f80fd5b5f3560e01c9081630c340a2414612939575080631306454a146129055780631854f67a146128bf57806318efb58a1461285d5780632101ff65146127ae578063261f635f146123e35780632ae7773b1461239d578063305a9678146121c35780633b249810146121a65780633f3da2c71461217757806362f384ad146120fb57806366a5e1ad14611f79578063673ad03f14611f5c57806371f7fecc14611f3f5780637281f82b14611cfc57806374a5b693146118c257806379d60fee146118855780637a9e5e4b146117bb5780637ccea3591461179e5780638a3b37e2146116265780638fb36037146115b35780639d04097a146115715780639eda7d23146114fc578063a200ac86146114b9578063a2f79f8e146111b8578063ad2df7d814611139578063af3595ba14610f27578063bf7e214f14610f02578063c501651a14610e27578063c55354f114610c4b578063d9c48e3a14610c09578063da968fc614610bbe5763f5fc985514610187575f80fd5b346106ce576003196080368201126106ce5767ffffffffffffffff604435116106ce57608090604435360301126106ce5760643567ffffffffffffffff81116106ce576101d8903690600401612a3f565b8015610b7857604051631f061c6960e31b815260043560048201526101c09081816024816001600160a01b037f0000000000000000000000000000000000000000000000000000000000000000165afa908115610afb576001600160a01b03916040915f91610b4b575b50015116908115610b065760243561089a575b506102679050600460443501806132b2565b905061027d6024604435016044356004016132b2565b9190501480159061086b575b6108265761029c600460443501806132b2565b906102b16024604435016044356004016132b2565b6102c460448035016044356004016132b2565b91604051958060808801606060208a01525260a0870195905f905b8082106107fb57505050858503601f190160408701528085527f07ffffffffffffffffffffffffffffffffffffffffffffffffffffffffffffff81116106ce57918593919260051b809260208701378482018481036060860152602081018290529294600582901b840160409081019401925f9187915b848410610794578b8b89610373818b03601f198101835282612b40565b602081519101209160025491600160401b831015610747576001830160025561039b83612b62565b50600480358255602435600183015560028201805473ffffffffffffffffffffffffffffffffffffffff1916331790556103d99060443501806132b2565b9067ffffffffffffffff821161074757600160401b821161074757600483018054838255610409918491906132e8565b90600483015f5260205f20915f905b82821061076f57505050506104376024604435016044356004016132b2565b9067ffffffffffffffff821161074757600160401b821161074757600583018054838255610467918491906132e8565b600583015f5260205f205f5b83811061075b575050505061049160448035016044356004016132b2565b600160401b81116107475760068301548160068501558082106106d2575b5081600684015f5260205f205f915b8383106105a75750505050507f8790ca50c31e8b011ca44d51858f6930ec87a1cb1712aa45474b5cf66d0a2a4d85610527848660088660209b60078c99015560098101805468ffffffffffffffff0042851b169068ffffffffffffffffff191617905501612d8f565b6004355f526006875261053d8360405f20613218565b60243561058c575b335f52600887526105598360405f20613218565b6040519033825287820152606060408201528061058160243596600435966060840191612d07565b0390a4604051908152f35b6024355f52600787526105a28360405f20613218565b610545565b8035601e19863603018112156106ce5767ffffffffffffffff81870135116106ce57808601353603602082880101136106ce576105f1818701356105eb8554612b9b565b85612d4a565b5f90601f818801351160011461064c5760019261062e84936020935f91818c013561063d575b508a0135908160011b915f199060031b1c19161790565b85555b019201920191906104be565b8b82010185013591505f610617565b9086601f19838201351691855f5260205f20925f5b8181106106b0575093602093836001979493889784899601351161068f575b5090500135811b018555610631565b8690845f1960f88286013560031b161c1993010101351690558f8a81610680565b6020938601830184013585556001909401938a939283019201610661565b5f80fd5b600684015f5260205f20908282015b81830181106106f15750506104af565b806106fe60019254612b9b565b8061070b575b50016106e1565b601f9081811184146107235750505f81555b8b610704565b61073e5f9284845260208420920160051c8201858301612d34565b8183555561071d565b634e487b7160e01b5f52604160045260245ffd5b600190602084359401938184015501610473565b8035916001600160a01b03831683036106ce5760206001920192818601550190610418565b9193959092949650603f1982840182030187528735601e19853603018112156106ce578401906020823592019167ffffffffffffffff81116106ce5780360383136106ce576107e96020928392600195612d07565b99019701940191889697959391610356565b9091968735906001600160a01b0382168092036106ce576020816001938293520198019201906102df565b606460405163d647364f60e01b815260206004820152601760248201527f416374696f6e73206c656e677468206d69736d617463680000000000000000006044820152fd5b5061087b600460443501806132b2565b905061089060448035016044356004016132b2565b9190501415610289565b5f602492604051938480927fc58343ef000000000000000000000000000000000000000000000000000000008252823560048301525afa8015610afb5715610255573d91825f823e6108ec8382612b40565b60208184810103126106ce5780519167ffffffffffffffff83116106ce5782820184830103126106ce576040519261092384612b23565b8183018051855261093690602001612f25565b60208501526040838301015167ffffffffffffffff81116106ce57610962908284019085850101613258565b60408501526060838301015167ffffffffffffffff81116106ce5761098e908284019085850101613258565b60608501526080838301015160038110156106ce5760808501526109b660a08484010161329d565b60a08501526109c960c08484010161329d565b60c085015260e083830101519067ffffffffffffffff82116106ce57808301601f83868601010112156106ce57818484010151610a0581612f0d565b92610a136040519485612b40565b8184526020840183860160208460051b848a8a01010101116106ce576020828888010101905b60208460051b848a8a010101018210610ac157505050505060e084015261010080838301015190840152610120610a738184840101612f25565b90840152808201610140818101519085015261016080820151908501526101809081015190919080151581036106ce57610ab7928501526101a09283910101612f25565b9101525f80610255565b81519067ffffffffffffffff82116106ce576020809291610aee8a838095898f8d85019401010101613258565b8152019201919050610a39565b6040513d5f823e3d90fd5b606460405163d647364f60e01b815260206004820152601260248201527f52657175657374487562206e6f742073657400000000000000000000000000006044820152fd5b610b6b9150843d8611610b71575b610b638183612b40565b810190612f39565b5f610242565b503d610b59565b60405163d647364f60e01b815260206004820152601b60248201527f56657273696f6e204349442063616e6e6f7420626520656d70747900000000006044820152606490fd5b346106ce5760203660031901126106ce576004355f526007602052610c05610bf2610bf960405f2060405192838092612acc565b0382612b40565b6040519182918261295c565b0390f35b346106ce5760203660031901126106ce576001600160a01b03610c2a612997565b165f526009602052610c05610bf2610bf960405f2060405192838092612acc565b346106ce5760203660031901126106ce57600435600254811015610e0f5760ff6009610c7683612b62565b500154166006811015610d7d5760018103610de85750610c9581612b62565b50600b810190335f526010810160205260405f209081546001600160a01b038116158015610dd6575b610d915760a01c60ff16906004821015610d7d57600293600f9280610d315750610ce8815461324c565b90555b01610cf6815461324c565b905501805468ff00000000000000001916905533907f12e54cb43c69e66621df1300fe1eb277b76f51a76d8fcfe36419d944e22fc1a75f80a3005b905060018103610d525750600c8101610d4a815461324c565b90555b610ceb565b808503610d685750600d8101610d4a815461324c565b600303610d4d57600e8101610d4a815461324c565b634e487b7160e01b5f52602160045260245ffd5b606460405163d647364f60e01b815260206004820152601b60248201527f4e6f206163746976652072657669657720746f207265747261637400000000006044820152fd5b5060ff600284015460401c1615610cbe565b604490610e066040519163f924664d60e01b83526004830190612abf565b60016024820152fd5b6024906040519063c41d418b60e01b82526004820152fd5b346106ce5760603660031901126106ce57604435602435600435610e4b3633613309565b6127108311610e98577fd1df9ea585fa96cacfd37b45876312d2c04c0f6bf740539becffbec7e81822be9260609282600355806004558160055560405192835260208301526040820152a1005b608460405163d647364f60e01b8152602060048201526024808201527f537570706f7274207468726573686f6c642063616e6e6f74206578636565642060448201527f31303025000000000000000000000000000000000000000000000000000000006064820152fd5b346106ce575f3660031901126106ce5760206001600160a01b035f5416604051908152f35b346106ce5760403660031901126106ce57600435610f436129ad565b60025482101561112157610f5682612b62565b50906001600160a01b0391826002820154163314159081611107575b506110f05760ff6009610f8485612b62565b500154166006811015610d7d57806110ca57508181169182156110a057610faa84612b62565b509060028201541683148015611088575b611057576003810191825490600160401b82101561074757610fe8826011956001611007950181556129c3565b9091906001600160a01b038084549260031b9316831b921b1916179055565b825f520160205260405f20600160ff19825416179055600960205261102f8260405f20613218565b33917f1edd8eba933bb6abe13c18ee5bd22bf6d3886540e4a22b288af4c11dbda8196b5f80a4005b602483604051907fc0db7ecd0000000000000000000000000000000000000000000000000000000082526004820152fd5b50825f526011810160205260ff60405f205416610fbb565b60046040517fd92e233d000000000000000000000000000000000000000000000000000000008152fd5b6044906110e86040519163f924664d60e01b83526004830190612abf565b5f6024820152fd5b6024604051634a0bfec160e01b8152336004820152fd5b60119150335f520160205260ff60405f2054161584610f72565b6024826040519063c41d418b60e01b82526004820152fd5b346106ce5760403660031901126106ce5760043560243560068110156106ce576002548210156111215760ff600961117084612b62565b50015416916006831015610d7d5760038303611192576111909250613043565b005b60405163f924664d60e01b81526044906111af6004820186612abf565b60036024820152fd5b346106ce5760203660031901126106ce576004355f60606040516111db81612b07565b8181528160208201528160408201520152600254811015610e0f576111ff90612b62565b508054906001810154906001600160a01b03600282015416600982015493600a8301549161122f60038501612eb6565b6040519261123c84612b07565b61124860048701612eb6565b845260405161125e81610bf28160058b01612acc565b602085015260068601805461127281612f0d565b916112806040519384612b40565b81835260208301905f5260205f205f915b83831061149457505050506040850152600786015460608501526008860154926112ba84612f0d565b936112c86040519586612b40565b8085526020850160088199015f5260205f205f915b83831061146f575050505090611310929160405198610160928a5260208a01526040890152806060890152870190612a83565b858103608087015261132b8351608083526080830190612a83565b926020810151938281036020840152602080865192838152019501905f5b818110611459575050506040810151938281036040840152845180825260208201916020808360051b8301019701925f915b83831061142c57505050505060608091015191015284820360a086015251808252602082019160208260051b82010194925f915b8383106113ff578780888867ffffffffffffffff8d6113d460c0860160ff8316612abf565b818160081c1660e0860152818160481c1661010086015260881c166101208401526101408301520390f35b909192939560208061141d600193601f198682030187528a51612a1a565b980193019301919392906113af565b909192939760208061144a600193601f198682030187528c51612a1a565b9a01930193019193929061137b565b8251875260209687019690920191600101611349565b60016020819260405161148681610bf28189612bd3565b8152019201920191906112dd565b6001602081926040516114ab81610bf28189612bd3565b815201920192019190611291565b346106ce575f3660031901126106ce5760206040516001600160a01b037f0000000000000000000000000000000000000000000000000000000000000000168152f35b346106ce5760403660031901126106ce576004356115186129ad565b90600254811015610e0f5761152c90612b62565b506001600160a01b03806002830154169216809214918215611556575b6020836040519015158152f35b601192505f5201602052602060ff60405f2054169082611549565b346106ce5760203660031901126106ce576001600160a01b03611592612997565b165f526008602052610c05610bf2610bf960405f2060405192838092612acc565b346106ce575f3660031901126106ce575f5460a01c60ff161561161e5760207f8fb36037000000000000000000000000000000000000000000000000000000005b7fffffffff0000000000000000000000000000000000000000000000000000000060405191168152f35b60205f6115f4565b346106ce5760203660031901126106ce57600435600254811015610e0f5761164d81612b62565b506001600160a01b036002820154163314159081611784575b506110f05760ff600961167883612b62565b500154166006811015610d7d57806110ca575061169481612b62565b5060088101541561171a57600901600181547fffffffffffffffffffffffffffffff0000000000000000ffffffffffffffff0070ffffffffffffffff0000000000000000004260481b16911617179055604051905f8252600160208301527ff7fa3caad94fe12c60166546c7c4bda02955b0fbba7ac35eeb843d49d885e2a360403393a3005b608460405163d647364f60e01b8152602060048201526024808201527f4472616674206d7573742068617665206174206c65617374206f6e652076657260448201527f73696f6e000000000000000000000000000000000000000000000000000000006064820152fd5b60119150335f520160205260ff60405f2054161582611666565b346106ce575f3660031901126106ce576020600254604051908152f35b346106ce5760203660031901126106ce576117d4612997565b5f54906001600160a01b0390818316330361186f57803b1561183d577f2f658b440c35314f52658ea8a740e05b284cdc84dc9ae01e891f21b8933e7cad9260209273ffffffffffffffffffffffffffffffffffffffff19921691829116175f55604051908152a1005b602491604051917fc2f31e5e000000000000000000000000000000000000000000000000000000008352166004820152fd5b602460405162d1953b60e31b8152336004820152fd5b346106ce5761189336612a6d565b905f52600660205260405f2080548210156106ce576020916118b4916129c3565b90546040519160031b1c8152f35b346106ce5760603660031901126106ce57600460243510156106ce5760443567ffffffffffffffff81116106ce576118fe903690600401612a3f565b906002546004351015611ce35760ff600961191a600435612b62565b500154166006811015610d7d5760018103610de8575061193b600435612b62565b50916001600160a01b03928360028201541633148015611ccb575b611c605760108101335f52806020528460405f205416611c30576040519060a0820182811067ffffffffffffffff821117610747576040523382526020820160243581526119a385612e8c565b916119b16040519384612b40565b85835236868801116106ce57858760208501375f602087850101526040840192835267ffffffffffffffff4216606085015260016080850152335f5260205260405f2096835116875491516004811015610d7d5774ff00000000000000000000000000000000000000007fffffffffffffffffffffff0000000000000000000000000000000000000000009160a01b169216171786555194855167ffffffffffffffff811161074757611a7481611a6b6001850154612b9b565b60018501612d4a565b6020601f8211600114611bbe578160029392611aaa92600f98999a5f92611bb3575b50508160011b915f199060031b1c19161790565b60018201555b019067ffffffffffffffff60608201511668ff000000000000000060808454930151151560401b169168ffffffffffffffffff191617179055602435155f14611b6357611b00600b820154612ea8565b600b8201555b01611b118154612ea8565b90557f1d4e9183da763b1e285cbd17de8d69818200b71822bc1d67e368eaadde895f1c604051611b43816024356129ec565b6040602082015280611b5e3395600435956040840191612d07565b0390a3005b602435600103611b8357600c8101611b7b8154612ea8565b90555b611b06565b602435600203611b9b57600d8101611b7b8154612ea8565b600360243503611b7e57600e8101611b7b8154612ea8565b015190508a80611a96565b600183015f5260205f20975f5b601f1984168110611c18575091600f9697986001926002959483601f19811610611c00575b505050811b016001820155611ab0565b01515f1960f88460031b161c19169055898080611bf0565b828201518a5560019099019860209283019201611bcb565b60246040517fcfa761e4000000000000000000000000000000000000000000000000000000008152336004820152fd5b608460405163d647364f60e01b815260206004820152602a60248201527f436f6e7472696275746f72732063616e6e6f742072657669657720746865697260448201527f206f776e206472616674000000000000000000000000000000000000000000006064820152fd5b50335f526011810160205260ff60405f205416611956565b602460405163c41d418b60e01b81526004356004820152fd5b346106ce5760203660031901126106ce57600435600254811015610e0f57611d2381612b62565b506001600160a01b036002820154163314159081611f25575b506110f05760ff6009611d4e83612b62565b500154166006811015610d7d5760018103610de85750611d6d81612b62565b506009810190815490611d8d67ffffffffffffffff8360481c1642612d27565b600354808210611eeb575050600f81015490600454808310611eb45750600b015461271090818102918183041490151715611ea0578115611e8c5704600554808210611e555750506002907fffffffffffffff0000000000000000ffffffffffffffffffffffffffffffff0078ffffffffffffffff00000000000000000000000000000000004260881b169116171790556040519060018252600260208301527ff7fa3caad94fe12c60166546c7c4bda02955b0fbba7ac35eeb843d49d885e2a360403393a3005b60449250604051917fc7effce900000000000000000000000000000000000000000000000000000000835260048301526024820152fd5b634e487b7160e01b5f52601260045260245ffd5b634e487b7160e01b5f52601160045260245ffd5b82604491604051917febd82d0200000000000000000000000000000000000000000000000000000000835260048301526024820152fd5b602491611ef791612d27565b604051907f60b2716e0000000000000000000000000000000000000000000000000000000082526004820152fd5b60119150335f520160205260ff60405f2054161582611d3c565b346106ce575f3660031901126106ce576020600454604051908152f35b346106ce575f3660031901126106ce576020600554604051908152f35b346106ce5760403660031901126106ce576024600435813567ffffffffffffffff81116106ce57611fae903690600401612a3f565b926002548310156120e557611fc283612b62565b506001600160a01b0360028201541633141590816120cb575b506120b65760ff6009611fed85612b62565b5001541660068110156120a3578061207f57508315610b7857600861201184612b62565b500161201e858483612d8f565b545f1981019190821161206d5750907f515e8cd3bc65e597ecd44560be0bdf9a836cc9218e3ca0b1d6cfbb2baa0f8fce91611b5e60405192839283526040602084015233966040840191612d07565b634e487b7160e01b5f5260116004525ffd5b5f60449261209e6040519363f924664d60e01b85526004850190612abf565b820152fd5b50634e487b7160e01b5f5260216004525ffd5b604051634a0bfec160e01b8152336004820152fd5b60119150335f520160205260ff60405f2054161585611fdb565b826040519063c41d418b60e01b82526004820152fd5b346106ce5760203660031901126106ce57612114612997565b61211e3633613309565b6001600160a01b038091169081156110a0576001548273ffffffffffffffffffffffffffffffffffffffff19821617600155167f5af6a85e864342d4f108c43dd574d98480c91f1de0ac2a9f66d826dee49bd9bb5f80a3005b346106ce5761218536612a6d565b905f52600760205260405f2080548210156106ce576020916118b4916129c3565b346106ce575f3660031901126106ce576020600354604051908152f35b346106ce5760403660031901126106ce576004356121df6129ad565b600254821015611121576121f282612b62565b506001600160a01b0390816002820154163314159081612383575b506110f05760ff600961221f85612b62565b500154166006811015610d7d57806110ca575061223b83612b62565b50916011928260118201921692835f528260205260ff60405f20541615612352576003809201905f5b82548082101561234557868361227a84876129c3565b905490881b1c161461228f5750600101612264565b5f979293949596971992838201918211612333575090610fe8846122b66122c494886129c3565b905490891b1c1691866129c3565b8254801561231f5701926122d884846129c3565b81939154921b1b19169055555b815f5260205260405f2060ff19815416905533917f9faf0bd600a8424364aa473fce68c7a603750bcd52a4dc12dd7a69cc7b160b015f80a4005b634e487b7160e01b5f52603160045260245ffd5b634e487b7160e01b5f5260045260245ffd5b50505050509091506122e5565b602484604051907fd3cedf290000000000000000000000000000000000000000000000000000000082526004820152fd5b60119150335f520160205260ff60405f205416158461220d565b346106ce5760403660031901126106ce576123b6612997565b6001600160a01b0360243591165f52600860205260405f2080548210156106ce576020916118b4916129c3565b346106ce576003196080368201126106ce57600435602491823592831515918285036106ce576044359160ff83168093036106ce5760643567ffffffffffffffff81116106ce57612438903690600401612a3f565b6002939193548710156127975761244e87612b62565b506001600160a01b039081600282015416331415908161277d575b506127675760ff600961247b8a612b62565b5001541660068110156127545760028103612733575061249a88612b62565b5080995f146126515750600286106125e6575f60209461253c6006958c989561251c95600154169661252d6040519b8c9a8b998a987fe947708a000000000000000000000000000000000000000000000000000000008a5260a060048b015261250960a48b0160048601612c64565b90888b830301908b015260058401612acc565b91868984030160448a015201612ca8565b92858403016064860152612d07565b88608483015203925af1908115610afb575f916125a9575b50604060209593600a95937ff5f3c022abf1448d67e8a9325eb16a6c9274e802b0d204940a1ac39f7f5d15e293809781975b60098101805460ff191660031790550155825191825287820152a3604051908152f35b9492939190506020853d6020116125de575b816125c860209383612b40565b810103126106ce57935191939092916040612554565b3d91506125bb565b60848460286040519163d647364f60e01b8352602060048401528201527f4d756c74692d63686f696365207265717569726573206174206c65617374203260448201527f206f7074696f6e730000000000000000000000000000000000000000000000006064820152fd5b94916020946126ae6006955f9361251c95600154169661252d6040519b8c9a8b998a987f7d5e81e2000000000000000000000000000000000000000000000000000000008a52608060048b015261250960848b0160048601612c64565b03925af1908115610afb575f916126f6575b50604060209593600a95937ff5f3c022abf1448d67e8a9325eb16a6c9274e802b0d204940a1ac39f7f5d15e29380978197612586565b9492939190506020853d60201161272b575b8161271560209383612b40565b810103126106ce579351919390929160406126c0565b3d9150612708565b60449060028661209e6040519363f924664d60e01b85526004850190612abf565b84634e487b7160e01b5f5260216004525ffd5b83604051634a0bfec160e01b8152336004820152fd5b60119150335f520160205260ff60405f205416158a612469565b82876040519063c41d418b60e01b82526004820152fd5b346106ce5760403660031901126106ce576004356127ca6129ad565b600254821015611121576001600160a01b036127e7601093612b62565b5091165f520160205261282c60405f2060ff815460a01c169060ff61283d6001612820600285015494610bf26040518094819301612bd3565b604051958680966129ec565b608060208601526080850190612a1a565b9167ffffffffffffffff8116604085015260401c16151560608301520390f35b346106ce5760203660031901126106ce57600435600254811015610e0f5761288660a091612b62565b50600b81015490600c81015490600d810154600f600e830154920154926040519485526020850152604084015260608301526080820152f35b346106ce5760403660031901126106ce576128d8612997565b6001600160a01b0360243591165f52600960205260405f2080548210156106ce576020916118b4916129c3565b346106ce5760203660031901126106ce576004355f526006602052610c05610bf2610bf960405f2060405192838092612acc565b346106ce575f3660031901126106ce576020906001600160a01b03600154168152f35b60209060206040818301928281528551809452019301915f5b828110612983575050505090565b835185529381019392810192600101612975565b600435906001600160a01b03821682036106ce57565b602435906001600160a01b03821682036106ce57565b80548210156129d8575f5260205f2001905f90565b634e487b7160e01b5f52603260045260245ffd5b906004821015610d7d5752565b5f5b838110612a0a5750505f910152565b81810151838201526020016129fb565b90602091612a33815180928185528580860191016129f9565b601f01601f1916010190565b9181601f840112156106ce5782359167ffffffffffffffff83116106ce57602083818601950101116106ce57565b60409060031901126106ce576004359060243590565b9081518082526020808093019301915f5b828110612aa2575050505090565b83516001600160a01b031685529381019392810192600101612a94565b906006821015610d7d5752565b9081548082526020809201925f5260205f20915f905b828210612af0575050505090565b835485529384019360019384019390910190612ae2565b6080810190811067ffffffffffffffff82111761074757604052565b6101c0810190811067ffffffffffffffff82111761074757604052565b90601f8019910116810190811067ffffffffffffffff82111761074757604052565b6002548110156129d85760129060025f52027f405787fa12a823e0f2b7631cc41b3ba8828b3321ca811111fa75cd3aa3bb5ace01905f90565b90600182811c92168015612bc9575b6020831014612bb557565b634e487b7160e01b5f52602260045260245ffd5b91607f1691612baa565b80545f9392612be182612b9b565b918282526020936001916001811690815f14612c455750600114612c07575b5050505050565b90939495505f92919252835f2092845f945b838610612c3157505050500101905f80808080612c00565b805485870183015294019385908201612c19565b60ff19168685015250505090151560051b010191505f80808080612c00565b9081548082526020809201925f5260205f20915f905b828210612c88575050505090565b83546001600160a01b031685529384019360019384019390910190612c7a565b908082549081815260208091019260208360051b820101945f5260205f20935f915b848310612cda5750505050505090565b909192939495846001612cf78193601f198682030187528a612bd3565b9801930193019194939290612cca565b908060209392818452848401375f828201840152601f01601f1916010190565b91908203918211611ea057565b818110612d3f575050565b5f8155600101612d34565b9190601f8111612d5957505050565b612d83925f5260205f20906020601f840160051c83019310612d85575b601f0160051c0190612d34565b565b9091508190612d76565b92918354600160401b81101561074757612db1906001956001820181556129c3565b929092612e795767ffffffffffffffff821161074757612dd5826105eb8554612b9b565b5f94601f8311600114612e145750612e0592939482915f92612e095750508160011b915f199060031b1c19161790565b9055565b013590505f80611a96565b90601f19831695845f5260209260205f20935f915b898310612e625750505083600195969710612e49575b505050811b019055565b01355f19600384901b60f8161c191690555f8080612e3f565b848401358655948501949281019291810191612e29565b634e487b7160e01b5f525f60045260245ffd5b67ffffffffffffffff811161074757601f01601f191660200190565b5f198114611ea05760010190565b90604051918281549182825260209260208301915f5260205f20935f905b828210612eea57505050612d8392500383612b40565b85546001600160a01b031684526001958601958895509381019390910190612ed4565b67ffffffffffffffff81116107475760051b60200190565b51906001600160a01b03821682036106ce57565b90816101c09103126106ce5760405190612f5282612b23565b612f5b81612f25565b8252612f6960208201612f25565b6020830152612f7a60408201612f25565b6040830152612f8b60608201612f25565b6060830152612f9c60808201612f25565b6080830152612fad60a08201612f25565b60a0830152612fbe60c08201612f25565b60c0830152612fcf60e08201612f25565b60e0830152610100612fe2818301612f25565b90830152610120612ff4818301612f25565b90830152610140613006818301612f25565b90830152610160613018818301612f25565b9083015261018061302a818301612f25565b9083015261303c6101a0809201612f25565b9082015290565b9061304d82612b62565b506001600160a01b03908160028201541633148015613145575b61313a575460405190631f061c6960e31b825260048201526101c0908181602481867f0000000000000000000000000000000000000000000000000000000000000000165afa908115610afb576020925f9261311d575b505001511680156130d85733036110f057612d839161315d565b606460405163d647364f60e01b815260206004820152601060248201527f54696d656c6f636b206e6f7420736574000000000000000000000000000000006044820152fd5b6131339250803d10610b7157610b638183612b40565b5f806130be565b5050612d839161315d565b50335f526011810160205260ff60405f205416613067565b6006821015610d7d5760048214158061320d575b6131c8577ff8565e1fcefe8730946b9a0b3b21656f89a6775423cd6b879c1b5ab9871bcace6020600a6131a384612b62565b506009810160ff1981541660ff88161790550154936131c56040518092612abf565ba3565b606460405163d647364f60e01b815260206004820152601b60248201527f4f7574636f6d65206d75737420626520574f4e206f72204c4f535400000000006044820152fd5b506005821415613171565b8054600160401b81101561074757613235916001820181556129c3565b819291549060031b91821b915f19901b1916179055565b8015611ea0575f190190565b81601f820112156106ce57805161326e81612e8c565b9261327c6040519485612b40565b818452602082840101116106ce5761329a91602080850191016129f9565b90565b519067ffffffffffffffff821682036106ce57565b903590601e19813603018212156106ce570180359067ffffffffffffffff82116106ce57602001918160051b360383136106ce57565b918181106132f557505050565b612d83925f5260205f209182019101612d34565b905f915f54916001600160a01b039182841692826004116106ce575f925f60409485519360208501957fb700961300000000000000000000000000000000000000000000000000000000875216938460248201523060448201527fffffffff000000000000000000000000000000000000000000000000000000005f351660648201526064815260a0810167ffffffffffffffff96828210888311176107475788925f9284528280528260205251908a5afa6134d3575b156133d0575b5050505050505050565b63ffffffff16156134bd57740100000000000000000000000000000000000000007fffffffffffffffffffffff00ffffffffffffffffffffffffffffffffffffffff809716175f55843b156106ce576064945f928386519788809581947f94c7d7ee00000000000000000000000000000000000000000000000000000000835260048301528960248301528060448301528084848401378181018301849052601f01601f191681010301925af180156134b35761349d575b50505081541690555f808080808080806133c6565b9091809394501161074757525f905f8080613488565b82513d5f823e3d90fd5b60248285519062d1953b60e31b82526004820152fd5b50505f516020518060201c1502906133c056fea2646970667358221220291df43f4f0a2d40f356c9518f38847be66ede76f89c65761fdfc533e490190964736f6c63430008180033","linkReferences":{}},"methodIdentifiers":{"addContributor(uint256,address)":"af3595ba","authorDrafts(address,uint256)":"2ae7773b","authority()":"bf7e214f","communityDrafts(uint256,uint256)":"79d60fee","communityRegistry()":"a200ac86","contributorDrafts(address,uint256)":"1854f67a","createDraft(uint256,uint256,(address[],uint256[],bytes[],bytes32),string)":"f5fc9855","escalateToProposal(uint256,bool,uint8,string)":"261f635f","finalizeForProposal(uint256)":"7281f82b","getDraft(uint256)":"a2f79f8e","getDraftsByAuthor(address)":"9d04097a","getDraftsByCommunity(uint256)":"1306454a","getDraftsByContributor(address)":"d9c48e3a","getDraftsByRequest(uint256)":"da968fc6","getDraftsCount()":"7ccea359","getReview(uint256,address)":"2101ff65","getReviewSummary(uint256)":"18efb58a","governor()":"0c340a24","isConsumingScheduledOp()":"8fb36037","isContributor(uint256,address)":"9eda7d23","minReviewsForEscalation()":"71f7fecc","removeContributor(uint256,address)":"305a9678","requestDrafts(uint256,uint256)":"3f3da2c7","retractReview(uint256)":"c55354f1","reviewPeriod()":"3b249810","setAuthority(address)":"7a9e5e4b","snapshotVersion(uint256,string)":"66a5e1ad","submitForReview(uint256)":"8a3b37e2","submitReview(uint256,uint8,string)":"74a5b693","supportThresholdBps()":"673ad03f","updateConfiguration(uint256,uint256,uint256)":"c501651a","updateGovernor(address)":"62f384ad","updateProposalOutcome(uint256,uint8)":"ad2df7d8"},"id":7}