{"abi":[{"type":"constructor","inputs":[{"name":"_communityRegistry","type":"address","internalType":"address"},{"name":"_governor","type":"address","internalType":"address"}],"stateMutability":"nonpayable"},{"type":"function","name":"addContributor","inputs":[{"name":"draftId","type":"uint256","internalType":"uint256"},{"name":"contributor","type":"address","internalType":"address"}],"outputs":[],"stateMutability":"nonpayable"},{"type":"function","name":"authorDrafts","inputs":[{"name":"","type":"address","internalType":"address"},{"name":"","type":"uint256","internalType":"uint256"}],"outputs":[{"name":"","type":"uint256","internalType":"uint256"}],"stateMutability":"view"},{"type":"function","name":"communityDrafts","inputs":[{"name":"","type":"uint256","internalType":"uint256"},{"name":"","type":"uint256","internalType":"uint256"}],"outputs":[{"name":"","type":"uint256","internalType":"uint256"}],"stateMutability":"view"},{"type":"function","name":"communityRegistry","inputs":[],"outputs":[{"name":"","type":"address","internalType":"address"}],"stateMutability":"view"},{"type":"function","name":"contributorDrafts","inputs":[{"name":"","type":"address","internalType":"address"},{"name":"","type":"uint256","internalType":"uint256"}],"outputs":[{"name":"","type":"uint256","internalType":"uint256"}],"stateMutability":"view"},{"type":"function","name":"createDraft","inputs":[{"name":"communityId","type":"uint256","internalType":"uint256"},{"name":"requestId","type":"uint256","internalType":"uint256"},{"name":"actions","type":"tuple","internalType":"struct DraftsManager.ActionBundle","components":[{"name":"targets","type":"address[]","internalType":"address[]"},{"name":"values","type":"uint256[]","internalType":"uint256[]"},{"name":"calldatas","type":"bytes[]","internalType":"bytes[]"},{"name":"actionsHash","type":"bytes32","internalType":"bytes32"}]},{"name":"versionCID","type":"string","internalType":"string"}],"outputs":[{"name":"draftId","type":"uint256","internalType":"uint256"}],"stateMutability":"nonpayable"},{"type":"function","name":"escalateToProposal","inputs":[{"name":"draftId","type":"uint256","internalType":"uint256"},{"name":"multiChoice","type":"bool","internalType":"bool"},{"name":"numOptions","type":"uint8","internalType":"uint8"},{"name":"description","type":"string","internalType":"string"}],"outputs":[{"name":"proposalId","type":"uint256","internalType":"uint256"}],"stateMutability":"nonpayable"},{"type":"function","name":"finalizeForProposal","inputs":[{"name":"draftId","type":"uint256","internalType":"uint256"}],"outputs":[],"stateMutability":"nonpayable"},{"type":"function","name":"getDraft","inputs":[{"name":"draftId","type":"uint256","internalType":"uint256"}],"outputs":[{"name":"communityId","type":"uint256","internalType":"uint256"},{"name":"requestId","type":"uint256","internalType":"uint256"},{"name":"author","type":"address","internalType":"address"},{"name":"contributors","type":"address[]","internalType":"address[]"},{"name":"actions","type":"tuple","internalType":"struct DraftsManager.ActionBundle","components":[{"name":"targets","type":"address[]","internalType":"address[]"},{"name":"values","type":"uint256[]","internalType":"uint256[]"},{"name":"calldatas","type":"bytes[]","internalType":"bytes[]"},{"name":"actionsHash","type":"bytes32","internalType":"bytes32"}]},{"name":"versionCIDs","type":"string[]","internalType":"string[]"},{"name":"status","type":"uint8","internalType":"enum DraftsManager.DraftStatus"},{"name":"createdAt","type":"uint64","internalType":"uint64"},{"name":"reviewStartedAt","type":"uint64","internalType":"uint64"},{"name":"finalizedAt","type":"uint64","internalType":"uint64"},{"name":"proposalId","type":"uint256","internalType":"uint256"}],"stateMutability":"view"},{"type":"function","name":"getDraftsByAuthor","inputs":[{"name":"author","type":"address","internalType":"address"}],"outputs":[{"name":"","type":"uint256[]","internalType":"uint256[]"}],"stateMutability":"view"},{"type":"function","name":"getDraftsByCommunity","inputs":[{"name":"communityId","type":"uint256","internalType":"uint256"}],"outputs":[{"name":"","type":"uint256[]","internalType":"uint256[]"}],"stateMutability":"view"},{"type":"function","name":"getDraftsByContributor","inputs":[{"name":"contributor","type":"address","internalType":"address"}],"outputs":[{"name":"","type":"uint256[]","internalType":"uint256[]"}],"stateMutability":"view"},{"type":"function","name":"getDraftsByRequest","inputs":[{"name":"requestId","type":"uint256","internalType":"uint256"}],"outputs":[{"name":"","type":"uint256[]","internalType":"uint256[]"}],"stateMutability":"view"},{"type":"function","name":"getDraftsCount","inputs":[],"outputs":[{"name":"","type":"uint256","internalType":"uint256"}],"stateMutability":"view"},{"type":"function","name":"getReview","inputs":[{"name":"draftId","type":"uint256","internalType":"uint256"},{"name":"reviewer","type":"address","internalType":"address"}],"outputs":[{"name":"reviewType","type":"uint8","internalType":"enum DraftsManager.ReviewType"},{"name":"reasonCID","type":"string","internalType":"string"},{"name":"timestamp","type":"uint64","internalType":"uint64"},{"name":"isActive","type":"bool","internalType":"bool"}],"stateMutability":"view"},{"type":"function","name":"getReviewSummary","inputs":[{"name":"draftId","type":"uint256","internalType":"uint256"}],"outputs":[{"name":"supportCount","type":"uint256","internalType":"uint256"},{"name":"opposeCount","type":"uint256","internalType":"uint256"},{"name":"neutralCount","type":"uint256","internalType":"uint256"},{"name":"requestChangesCount","type":"uint256","internalType":"uint256"},{"name":"totalReviews","type":"uint256","internalType":"uint256"}],"stateMutability":"view"},{"type":"function","name":"governor","inputs":[],"outputs":[{"name":"","type":"address","internalType":"address"}],"stateMutability":"view"},{"type":"function","name":"isContributor","inputs":[{"name":"draftId","type":"uint256","internalType":"uint256"},{"name":"contributor","type":"address","internalType":"address"}],"outputs":[{"name":"","type":"bool","internalType":"bool"}],"stateMutability":"view"},{"type":"function","name":"minReviewsForEscalation","inputs":[],"outputs":[{"name":"","type":"uint256","internalType":"uint256"}],"stateMutability":"view"},{"type":"function","name":"removeContributor","inputs":[{"name":"draftId","type":"uint256","internalType":"uint256"},{"name":"contributor","type":"address","internalType":"address"}],"outputs":[],"stateMutability":"nonpayable"},{"type":"function","name":"requestDrafts","inputs":[{"name":"","type":"uint256","internalType":"uint256"},{"name":"","type":"uint256","internalType":"uint256"}],"outputs":[{"name":"","type":"uint256","internalType":"uint256"}],"stateMutability":"view"},{"type":"function","name":"retractReview","inputs":[{"name":"draftId","type":"uint256","internalType":"uint256"}],"outputs":[],"stateMutability":"nonpayable"},{"type":"function","name":"reviewPeriod","inputs":[],"outputs":[{"name":"","type":"uint256","internalType":"uint256"}],"stateMutability":"view"},{"type":"function","name":"snapshotVersion","inputs":[{"name":"draftId","type":"uint256","internalType":"uint256"},{"name":"newVersionCID","type":"string","internalType":"string"}],"outputs":[],"stateMutability":"nonpayable"},{"type":"function","name":"submitForReview","inputs":[{"name":"draftId","type":"uint256","internalType":"uint256"}],"outputs":[],"stateMutability":"nonpayable"},{"type":"function","name":"submitReview","inputs":[{"name":"draftId","type":"uint256","internalType":"uint256"},{"name":"reviewType","type":"uint8","internalType":"enum DraftsManager.ReviewType"},{"name":"reasonCID","type":"string","internalType":"string"}],"outputs":[],"stateMutability":"nonpayable"},{"type":"function","name":"supportThresholdBps","inputs":[],"outputs":[{"name":"","type":"uint256","internalType":"uint256"}],"stateMutability":"view"},{"type":"function","name":"updateConfiguration","inputs":[{"name":"newReviewPeriod","type":"uint256","internalType":"uint256"},{"name":"newMinReviews","type":"uint256","internalType":"uint256"},{"name":"newSupportThreshold","type":"uint256","internalType":"uint256"}],"outputs":[],"stateMutability":"nonpayable"},{"type":"function","name":"updateGovernor","inputs":[{"name":"newGovernor","type":"address","internalType":"address"}],"outputs":[],"stateMutability":"nonpayable"},{"type":"function","name":"updateProposalOutcome","inputs":[{"name":"draftId","type":"uint256","internalType":"uint256"},{"name":"outcome","type":"uint8","internalType":"enum DraftsManager.DraftStatus"}],"outputs":[],"stateMutability":"nonpayable"},{"type":"event","name":"ContributorAdded","inputs":[{"name":"draftId","type":"uint256","indexed":true,"internalType":"uint256"},{"name":"contributor","type":"address","indexed":true,"internalType":"address"},{"name":"addedBy","type":"address","indexed":true,"internalType":"address"}],"anonymous":false},{"type":"event","name":"ContributorRemoved","inputs":[{"name":"draftId","type":"uint256","indexed":true,"internalType":"uint256"},{"name":"contributor","type":"address","indexed":true,"internalType":"address"},{"name":"removedBy","type":"address","indexed":true,"internalType":"address"}],"anonymous":false},{"type":"event","name":"DraftCreated","inputs":[{"name":"draftId","type":"uint256","indexed":true,"internalType":"uint256"},{"name":"communityId","type":"uint256","indexed":true,"internalType":"uint256"},{"name":"requestId","type":"uint256","indexed":true,"internalType":"uint256"},{"name":"author","type":"address","indexed":false,"internalType":"address"},{"name":"actionsHash","type":"bytes32","indexed":false,"internalType":"bytes32"},{"name":"versionCID","type":"string","indexed":false,"internalType":"string"}],"anonymous":false},{"type":"event","name":"DraftStatusChanged","inputs":[{"name":"draftId","type":"uint256","indexed":true,"internalType":"uint256"},{"name":"oldStatus","type":"uint8","indexed":false,"internalType":"enum DraftsManager.DraftStatus"},{"name":"newStatus","type":"uint8","indexed":false,"internalType":"enum DraftsManager.DraftStatus"},{"name":"changedBy","type":"address","indexed":true,"internalType":"address"}],"anonymous":false},{"type":"event","name":"ProposalEscalated","inputs":[{"name":"draftId","type":"uint256","indexed":true,"internalType":"uint256"},{"name":"proposalId","type":"uint256","indexed":true,"internalType":"uint256"},{"name":"isMultiChoice","type":"bool","indexed":false,"internalType":"bool"},{"name":"numOptions","type":"uint8","indexed":false,"internalType":"uint8"}],"anonymous":false},{"type":"event","name":"ProposalOutcomeUpdated","inputs":[{"name":"draftId","type":"uint256","indexed":true,"internalType":"uint256"},{"name":"proposalId","type":"uint256","indexed":true,"internalType":"uint256"},{"name":"outcome","type":"uint8","indexed":false,"internalType":"enum DraftsManager.DraftStatus"}],"anonymous":false},{"type":"event","name":"ReviewRetracted","inputs":[{"name":"draftId","type":"uint256","indexed":true,"internalType":"uint256"},{"name":"reviewer","type":"address","indexed":true,"internalType":"address"}],"anonymous":false},{"type":"event","name":"ReviewSubmitted","inputs":[{"name":"draftId","type":"uint256","indexed":true,"internalType":"uint256"},{"name":"reviewer","type":"address","indexed":true,"internalType":"address"},{"name":"reviewType","type":"uint8","indexed":false,"internalType":"enum DraftsManager.ReviewType"},{"name":"reasonCID","type":"string","indexed":false,"internalType":"string"}],"anonymous":false},{"type":"event","name":"VersionSnapshot","inputs":[{"name":"draftId","type":"uint256","indexed":true,"internalType":"uint256"},{"name":"versionNumber","type":"uint256","indexed":false,"internalType":"uint256"},{"name":"versionCID","type":"string","indexed":false,"internalType":"string"},{"name":"contributor","type":"address","indexed":true,"internalType":"address"}],"anonymous":false},{"type":"error","name":"AlreadyReviewed","inputs":[{"name":"reviewer","type":"address","internalType":"address"}]},{"type":"error","name":"ContributorAlreadyExists","inputs":[{"name":"contributor","type":"address","internalType":"address"}]},{"type":"error","name":"ContributorNotFound","inputs":[{"name":"contributor","type":"address","internalType":"address"}]},{"type":"error","name":"DraftNotFound","inputs":[{"name":"draftId","type":"uint256","internalType":"uint256"}]},{"type":"error","name":"InsufficientReviews","inputs":[{"name":"current","type":"uint256","internalType":"uint256"},{"name":"required","type":"uint256","internalType":"uint256"}]},{"type":"error","name":"InsufficientSupport","inputs":[{"name":"supportBps","type":"uint256","internalType":"uint256"},{"name":"requiredBps","type":"uint256","internalType":"uint256"}]},{"type":"error","name":"InvalidInput","inputs":[{"name":"reason","type":"string","internalType":"string"}]},{"type":"error","name":"InvalidStatus","inputs":[{"name":"current","type":"uint8","internalType":"enum DraftsManager.DraftStatus"},{"name":"required","type":"uint8","internalType":"enum DraftsManager.DraftStatus"}]},{"type":"error","name":"NotAuthorized","inputs":[{"name":"user","type":"address","internalType":"address"}]},{"type":"error","name":"ReviewPeriodNotMet","inputs":[{"name":"timeRemaining","type":"uint256","internalType":"uint256"}]},{"type":"error","name":"ZeroAddress","inputs":[]}],"bytecode":{"object":"0x60a034620000cd57601f62002a3f38819003918201601f19168301916001600160401b03831184841017620000d1578084926040948552833981010312620000cd576200005a60206200005283620000e5565b9201620000e5565b6203f480600255600380556117706004556001600160a01b0391808316158015620000c2575b620000b0576080521660018060a01b03195f5416175f556040516129449081620000fb823960805181610f870152f35b60405163d92e233d60e01b8152600490fd5b508282161562000080565b5f80fd5b634e487b7160e01b5f52604160045260245ffd5b51906001600160a01b0382168203620000cd5756fe6080806040526004361015610012575f80fd5b5f3560e01c9081630c340a24146122cd575080631306454a146122995780631854f67a1461225357806318efb58a146121f15780632101ff6514612142578063261f635f14611d6e5780632ae7773b14611d28578063305a967814611b245780633b24981014611b075780633f3da2c714611ad857806362f384ad14611a9057806366a5e1ad1461190e578063673ad03f146118f157806371f7fecc146118d45780637281f82b1461169157806374a5b6931461123457806379d60fee146111f75780637ccea359146111da5780638a3b37e2146110625780639d04097a146110205780639eda7d2314610fab578063a200ac8614610f68578063a2f79f8e14610c67578063ad2df7d814610b41578063af3595ba1461092f578063c501651a14610898578063c55354f1146106bc578063d9c48e3a1461067a578063da968fc61461062f5763f5fc985514610166575f80fd5b34610523576003196080368201126105235767ffffffffffffffff6044351161052357608090604435360301126105235760643567ffffffffffffffff8111610523576101b79036906004016123ca565b9081156105e95760015490600160401b82101561059c57600182016001556101de826124d0565b509260043584556024356001850155600284013373ffffffffffffffffffffffffffffffffffffffff198254161790556102226044356004016044356004016128b7565b9067ffffffffffffffff821161059c57600160401b821161059c57600486018054838255610252918491906128ed565b90600486015f5260205f20915f905b8282106105c457505050506102806024604435016044356004016128b7565b9067ffffffffffffffff821161059c57600160401b821161059c576005860180548382556102b0918491906128ed565b600586015f5260205f205f5b8381106105b057505050506102da60448035016044356004016128b7565b600160401b811161059c576006860154816006880155808210610527575b5081600687015f5260205f20905f935b8385106103f6576020888888827f8790ca50c31e8b011ca44d51858f6930ec87a1cb1712aa45474b5cf66d0a2a4d8e61037684866008606460443501359485600782015560098101805468ffffffffffffffff0042851b169068ffffffffffffffffff1916179055016126fd565b6004355f526005875261038c8360405f20612877565b6024356103db575b335f52600787526103a88360405f20612877565b604051903382528782015260606040820152806103d060243596600435966060840191612675565b0390a4604051908152f35b6024355f52600687526103f18360405f20612877565b610394565b601e1982360301813512156105235767ffffffffffffffff81358301351161052357803582018035360360209091011361052357610442813583013561043c8554612509565b856126b8565b5f601f8235840135116001146104a057602060019261048184935f908335880135610490575b508235870135908160011b915f199060031b1c19161790565b86555b01930194019391610308565b849150833588010101355f610468565b835f5260205f20905f5b8335850135601f19168110610506575060019283926020928235870135601f198116106104e4575b5050828135860135811b018655610484565b835f1960f885358a013560031b161c1991843589010101351690555f806104d2565b9091602060018192828688358a01010135815501930191016104aa565b5f80fd5b600687015f5260205f20908282015b81830181106105465750506102f8565b8061055360019254612509565b80610560575b5001610536565b601f9081811184146105785750505f81555b5f610559565b6105935f9284845260208420920160051c82018583016126a2565b81835555610572565b634e487b7160e01b5f52604160045260245ffd5b6001906020843594019381840155016102bc565b8035916001600160a01b03831683036105235760206001920192818601550190610261565b60405163d647364f60e01b815260206004820152601b60248201527f56657273696f6e204349442063616e6e6f7420626520656d70747900000000006044820152606490fd5b34610523576020366003190112610523576004355f52600660205261067661066361066a60405f2060405192838092612457565b03826124ae565b604051918291826122ef565b0390f35b34610523576020366003190112610523576001600160a01b0361069b61232a565b165f52600860205261067661066361066a60405f2060405192838092612457565b34610523576020366003190112610523576004356001548110156108805760ff60096106e7836124d0565b5001541660068110156107ee57600181036108595750610706816124d0565b50600b810190335f526010810160205260405f209081546001600160a01b038116158015610847575b6108025760a01c60ff169060048210156107ee57600293600f92806107a2575061075981546128ab565b90555b0161076781546128ab565b905501805468ff00000000000000001916905533907f12e54cb43c69e66621df1300fe1eb277b76f51a76d8fcfe36419d944e22fc1a75f80a3005b9050600181036107c35750600c81016107bb81546128ab565b90555b61075c565b8085036107d95750600d81016107bb81546128ab565b6003036107be57600e81016107bb81546128ab565b634e487b7160e01b5f52602160045260245ffd5b606460405163d647364f60e01b815260206004820152601b60248201527f4e6f206163746976652072657669657720746f207265747261637400000000006044820152fd5b5060ff600284015460401c161561072f565b6044906108776040519163f924664d60e01b8352600483019061244a565b60016024820152fd5b6024906040519063c41d418b60e01b82526004820152fd5b346105235760603660031901126105235760443561271081116108c5576004803560025560243560035555005b608460405163d647364f60e01b8152602060048201526024808201527f537570706f7274207468726573686f6c642063616e6e6f74206578636565642060448201527f31303025000000000000000000000000000000000000000000000000000000006064820152fd5b346105235760403660031901126105235760043561094b612340565b600154821015610b295761095e826124d0565b50906001600160a01b0391826002820154163314159081610b0f575b50610af85760ff600961098c856124d0565b5001541660068110156107ee5780610ad25750818116918215610aa8576109b2846124d0565b509060028201541683148015610a90575b610a5f576003810191825490600160401b82101561059c576109f0826011956001610a0f95018155612356565b9091906001600160a01b038084549260031b9316831b921b1916179055565b825f520160205260405f20600160ff198254161790556008602052610a378260405f20612877565b33917f1edd8eba933bb6abe13c18ee5bd22bf6d3886540e4a22b288af4c11dbda8196b5f80a4005b602483604051907fc0db7ecd0000000000000000000000000000000000000000000000000000000082526004820152fd5b50825f526011810160205260ff60405f2054166109c3565b60046040517fd92e233d000000000000000000000000000000000000000000000000000000008152fd5b604490610af06040519163f924664d60e01b8352600483019061244a565b5f6024820152fd5b6024604051634a0bfec160e01b8152336004820152fd5b60119150335f520160205260ff60405f205416158461097a565b6024826040519063c41d418b60e01b82526004820152fd5b34610523576040366003190112610523576024356004356006821015610523576001548110156108805760ff6009610b78836124d0565b5001541660068110156107ee5760038103610c405750600482141580610c35575b610bf0577ff8565e1fcefe8730946b9a0b3b21656f89a6775423cd6b879c1b5ab9871bcace6020600a610bcb846124d0565b506009810160ff1981541660ff8816179055015493610bed604051809261244a565ba3005b606460405163d647364f60e01b815260206004820152601b60248201527f4f7574636f6d65206d75737420626520574f4e206f72204c4f535400000000006044820152fd5b506005821415610b99565b604490610c5e6040519163f924664d60e01b8352600483019061244a565b60036024820152fd5b34610523576020366003190112610523576004355f6060604051610c8a81612492565b818152816020820152816040820152015260015481101561088057610cae906124d0565b508054906001810154906001600160a01b03600282015416600982015493600a83015491610cde60038501612808565b60405192610ceb84612492565b610cf760048701612808565b8452604051610d0d816106638160058b01612457565b6020850152600686018054610d218161285f565b91610d2f60405193846124ae565b81835260208301905f5260205f205f915b838310610f435750505050604085015260078601546060850152600886015492610d698461285f565b93610d7760405195866124ae565b8085526020850160088199015f5260205f205f915b838310610f1e575050505090610dbf929160405198610160928a5260208a0152604089015280606089015287019061240e565b8581036080870152610dda835160808352608083019061240e565b926020810151938281036020840152602080865192838152019501905f5b818110610f08575050506040810151938281036040840152845180825260208201916020808360051b8301019701925f915b838310610edb57505050505060608091015191015284820360a086015251808252602082019160208260051b82010194925f915b838310610eae578780888867ffffffffffffffff8d610e8360c0860160ff831661244a565b818160081c1660e0860152818160481c1661010086015260881c166101208401526101408301520390f35b9091929395602080610ecc600193601f198682030187528a5161238c565b98019301930191939290610e5e565b9091929397602080610ef9600193601f198682030187528c5161238c565b9a019301930191939290610e2a565b8251875260209687019690920191600101610df8565b600160208192604051610f35816106638189612541565b815201920192019190610d8c565b600160208192604051610f5a816106638189612541565b815201920192019190610d40565b34610523575f3660031901126105235760206040516001600160a01b037f0000000000000000000000000000000000000000000000000000000000000000168152f35b3461052357604036600319011261052357600435610fc7612340565b9060015481101561088057610fdb906124d0565b506001600160a01b03806002830154169216809214918215611005575b6020836040519015158152f35b601192505f5201602052602060ff60405f2054169082610ff8565b34610523576020366003190112610523576001600160a01b0361104161232a565b165f52600760205261067661066361066a60405f2060405192838092612457565b346105235760203660031901126105235760043560015481101561088057611089816124d0565b506001600160a01b0360028201541633141590816111c0575b50610af85760ff60096110b4836124d0565b5001541660068110156107ee5780610ad257506110d0816124d0565b5060088101541561115657600901600181547fffffffffffffffffffffffffffffff0000000000000000ffffffffffffffff0070ffffffffffffffff0000000000000000004260481b16911617179055604051905f8252600160208301527ff7fa3caad94fe12c60166546c7c4bda02955b0fbba7ac35eeb843d49d885e2a360403393a3005b608460405163d647364f60e01b8152602060048201526024808201527f4472616674206d7573742068617665206174206c65617374206f6e652076657260448201527f73696f6e000000000000000000000000000000000000000000000000000000006064820152fd5b60119150335f520160205260ff60405f20541615826110a2565b34610523575f366003190112610523576020600154604051908152f35b3461052357611205366123f8565b905f52600560205260405f2080548210156105235760209161122691612356565b90546040519160031b1c8152f35b3461052357606036600319011261052357600460243510156105235760443567ffffffffffffffff8111610523576112709036906004016123ca565b9060015460043510156116785760ff600961128c6004356124d0565b5001541660068110156107ee576001810361085957506112ad6004356124d0565b50916001600160a01b0360028401541633148015611660575b6115f557335f52601083016020526001600160a01b0360405f2054166115c5576040519260a0840184811067ffffffffffffffff82111761059c57604052338452602435602085015267ffffffffffffffff821161059c5760405193611336601f8401601f1916602001866124ae565b828552368385011161052357828460208701375f602084870101526040810194855267ffffffffffffffff4216606082015260016080820152335f526010820160205260405f20946001600160a01b03825116865490602084015160048110156107ee5774ff00000000000000000000000000000000000000007fffffffffffffffffffffff0000000000000000000000000000000000000000009160a01b169216171786555194855167ffffffffffffffff811161059c57611409816114006001850154612509565b600185016126b8565b6020601f821160011461155357816002939261143f92600f98999a5f92611548575b50508160011b915f199060031b1c19161790565b60018201555b019067ffffffffffffffff60608201511668ff000000000000000060808454930151151560401b169168ffffffffffffffffff191617179055602435155f146114f857611495600b8201546127fa565b600b8201555b016114a681546127fa565b90557f1d4e9183da763b1e285cbd17de8d69818200b71822bc1d67e368eaadde895f1c6040516114d88160243561237f565b60406020820152806114f33395600435956040840191612675565b0390a3005b60243560010361151857600c810161151081546127fa565b90555b61149b565b60243560020361153057600d810161151081546127fa565b60036024350361151357600e810161151081546127fa565b015190508a8061142b565b600183015f5260205f20975f5b601f19841681106115ad575091600f9697986001926002959483601f19811610611595575b505050811b016001820155611445565b01515f1960f88460031b161c19169055898080611585565b828201518a5560019099019860209283019201611560565b60246040517fcfa761e4000000000000000000000000000000000000000000000000000000008152336004820152fd5b608460405163d647364f60e01b815260206004820152602a60248201527f436f6e7472696275746f72732063616e6e6f742072657669657720746865697260448201527f206f776e206472616674000000000000000000000000000000000000000000006064820152fd5b50335f526011830160205260ff60405f2054166112c6565b602460405163c41d418b60e01b81526004356004820152fd5b3461052357602036600319011261052357600435600154811015610880576116b8816124d0565b506001600160a01b0360028201541633141590816118ba575b50610af85760ff60096116e3836124d0565b5001541660068110156107ee57600181036108595750611702816124d0565b50600981019081549061172267ffffffffffffffff8360481c1642612695565b600254808210611880575050600f810154906003548083106118495750600b01546127109081810291818304149015171561183557811561182157046004548082106117ea5750506002907fffffffffffffff0000000000000000ffffffffffffffffffffffffffffffff0078ffffffffffffffff00000000000000000000000000000000004260881b169116171790556040519060018252600260208301527ff7fa3caad94fe12c60166546c7c4bda02955b0fbba7ac35eeb843d49d885e2a360403393a3005b60449250604051917fc7effce900000000000000000000000000000000000000000000000000000000835260048301526024820152fd5b634e487b7160e01b5f52601260045260245ffd5b634e487b7160e01b5f52601160045260245ffd5b82604491604051917febd82d0200000000000000000000000000000000000000000000000000000000835260048301526024820152fd5b60249161188c91612695565b604051907f60b2716e0000000000000000000000000000000000000000000000000000000082526004820152fd5b60119150335f520160205260ff60405f20541615826116d1565b34610523575f366003190112610523576020600354604051908152f35b34610523575f366003190112610523576020600454604051908152f35b34610523576040366003190112610523576024600435813567ffffffffffffffff8111610523576119439036906004016123ca565b92600154831015611a7a57611957836124d0565b506001600160a01b036002820154163314159081611a60575b50611a4b5760ff6009611982856124d0565b500154166006811015611a385780611a14575083156105e95760086119a6846124d0565b50016119b38584836126fd565b545f19810191908211611a025750907f515e8cd3bc65e597ecd44560be0bdf9a836cc9218e3ca0b1d6cfbb2baa0f8fce916114f360405192839283526040602084015233966040840191612675565b634e487b7160e01b5f5260116004525ffd5b5f604492611a336040519363f924664d60e01b8552600485019061244a565b820152fd5b50634e487b7160e01b5f5260216004525ffd5b604051634a0bfec160e01b8152336004820152fd5b60119150335f520160205260ff60405f2054161585611970565b826040519063c41d418b60e01b82526004820152fd5b34610523576020366003190112610523576001600160a01b03611ab161232a565b168015610aa85773ffffffffffffffffffffffffffffffffffffffff195f5416175f555f80f35b3461052357611ae6366123f8565b905f52600660205260405f2080548210156105235760209161122691612356565b34610523575f366003190112610523576020600254604051908152f35b3461052357604036600319011261052357600435611b40612340565b600190600154831015611d1057611b56836124d0565b50916001600160a01b0392836002820154163314159081611cf6575b50610af85760ff6009611b84866124d0565b5001541660068110156107ee5780610ad25750611ba0846124d0565b5060118460118301941694855f528460205260ff60405f20541615611cc557909291600391908201905f845b611c0e575b888888815f5260205260405f2060ff19815416905533917f9faf0bd600a8424364aa473fce68c7a603750bcd52a4dc12dd7a69cc7b160b015f80a4005b825480821015611cbf578883611c248487612356565b905490881b1c1614611c395750840184611bcc565b939592945090925f1992838201918211611cad5750906109f084611c60611c6e9488612356565b905490891b1c169186612356565b82548015611c99570192611c828484612356565b81939154921b1b1916905555838080808080611bd1565b634e487b7160e01b5f52603160045260245ffd5b634e487b7160e01b5f5260045260245ffd5b50611bd1565b602486604051907fd3cedf290000000000000000000000000000000000000000000000000000000082526004820152fd5b60119150335f520160205260ff60405f2054161585611b72565b6024836040519063c41d418b60e01b82526004820152fd5b3461052357604036600319011261052357611d4161232a565b6001600160a01b0360243591165f52600760205260405f2080548210156105235760209161122691612356565b34610523576003196080368201126105235760043560249182359283151591828503610523576044359160ff83168093036105235760643567ffffffffffffffff811161052357611dc39036906004016123ca565b60019391935487101561212b57611dd9876124d0565b506001600160a01b0390816002820154163314159081612111575b506120fb5760ff6009611e068a6124d0565b5001541660068110156120e857600281036120c75750611e25886124d0565b5080995f14611fe6575060028610611f7b575f602094611ec66006958c9895611ea69585541696611eb76040519b8c9a8b998a987fe947708a000000000000000000000000000000000000000000000000000000008a5260a060048b0152611e9360a48b01600486016125d2565b90888b830301908b015260058401612457565b91868984030160448a015201612616565b92858403016064860152612675565b88608483015203925af1908115611f70575f91611f33575b50604060209593600a95937ff5f3c022abf1448d67e8a9325eb16a6c9274e802b0d204940a1ac39f7f5d15e293809781975b60098101805460ff191660031790550155825191825287820152a3604051908152f35b9492939190506020853d602011611f68575b81611f52602093836124ae565b8101031261052357935191939092916040611ede565b3d9150611f45565b6040513d5f823e3d90fd5b60848460286040519163d647364f60e01b8352602060048401528201527f4d756c74692d63686f696365207265717569726573206174206c65617374203260448201527f206f7074696f6e730000000000000000000000000000000000000000000000006064820152fd5b94916020946120426006955f93611ea69585541696611eb76040519b8c9a8b998a987f7d5e81e2000000000000000000000000000000000000000000000000000000008a52608060048b0152611e9360848b01600486016125d2565b03925af1908115611f70575f9161208a575b50604060209593600a95937ff5f3c022abf1448d67e8a9325eb16a6c9274e802b0d204940a1ac39f7f5d15e29380978197611f10565b9492939190506020853d6020116120bf575b816120a9602093836124ae565b8101031261052357935191939092916040612054565b3d915061209c565b604490600286611a336040519363f924664d60e01b8552600485019061244a565b84634e487b7160e01b5f5260216004525ffd5b83604051634a0bfec160e01b8152336004820152fd5b60119150335f520160205260ff60405f205416158a611df4565b82876040519063c41d418b60e01b82526004820152fd5b346105235760403660031901126105235760043561215e612340565b600154821015610b29576001600160a01b0361217b6010936124d0565b5091165f52016020526121c060405f2060ff815460a01c169060ff6121d160016121b46002850154946106636040518094819301612541565b6040519586809661237f565b60806020860152608085019061238c565b9167ffffffffffffffff8116604085015260401c16151560608301520390f35b34610523576020366003190112610523576004356001548110156108805761221a60a0916124d0565b50600b81015490600c81015490600d810154600f600e830154920154926040519485526020850152604084015260608301526080820152f35b346105235760403660031901126105235761226c61232a565b6001600160a01b0360243591165f52600860205260405f2080548210156105235760209161122691612356565b34610523576020366003190112610523576004355f52600560205261067661066361066a60405f2060405192838092612457565b34610523575f366003190112610523576020906001600160a01b035f54168152f35b60209060206040818301928281528551809452019301915f5b828110612316575050505090565b835185529381019392810192600101612308565b600435906001600160a01b038216820361052357565b602435906001600160a01b038216820361052357565b805482101561236b575f5260205f2001905f90565b634e487b7160e01b5f52603260045260245ffd5b9060048210156107ee5752565b91908251928382525f5b8481106123b6575050825f602080949584010152601f8019910116010190565b602081830181015184830182015201612396565b9181601f840112156105235782359167ffffffffffffffff8311610523576020838186019501011161052357565b6040906003190112610523576004359060243590565b9081518082526020808093019301915f5b82811061242d575050505090565b83516001600160a01b03168552938101939281019260010161241f565b9060068210156107ee5752565b9081548082526020809201925f5260205f20915f905b82821061247b575050505090565b83548552938401936001938401939091019061246d565b6080810190811067ffffffffffffffff82111761059c57604052565b90601f8019910116810190811067ffffffffffffffff82111761059c57604052565b60015481101561236b5760129060015f52027fb10e2d527612073b26eecdfd717e6a320cf44b4afac2b0732d9fcbe2b7fa0cf601905f90565b90600182811c92168015612537575b602083101461252357565b634e487b7160e01b5f52602260045260245ffd5b91607f1691612518565b80545f939261254f82612509565b918282526020936001916001811690815f146125b35750600114612575575b5050505050565b90939495505f92919252835f2092845f945b83861061259f57505050500101905f8080808061256e565b805485870183015294019385908201612587565b60ff19168685015250505090151560051b010191505f8080808061256e565b9081548082526020809201925f5260205f20915f905b8282106125f6575050505090565b83546001600160a01b0316855293840193600193840193909101906125e8565b908082549081815260208091019260208360051b820101945f5260205f20935f915b8483106126485750505050505090565b9091929394958460016126658193601f198682030187528a612541565b9801930193019194939290612638565b908060209392818452848401375f828201840152601f01601f1916010190565b9190820391821161183557565b8181106126ad575050565b5f81556001016126a2565b9190601f81116126c757505050565b6126f1925f5260205f20906020601f840160051c830193106126f3575b601f0160051c01906126a2565b565b90915081906126e4565b92918354600160401b81101561059c5761271f90600195600182018155612356565b9290926127e75767ffffffffffffffff821161059c576127438261043c8554612509565b5f94601f8311600114612782575061277392939482915f926127775750508160011b915f199060031b1c19161790565b9055565b013590505f8061142b565b90601f19831695845f5260209260205f20935f915b8983106127d057505050836001959697106127b7575b505050811b019055565b01355f19600384901b60f8161c191690555f80806127ad565b848401358655948501949281019291810191612797565b634e487b7160e01b5f525f60045260245ffd5b5f1981146118355760010190565b90604051918281549182825260209260208301915f5260205f20935f905b82821061283c575050506126f1925003836124ae565b85546001600160a01b031684526001958601958895509381019390910190612826565b67ffffffffffffffff811161059c5760051b60200190565b8054600160401b81101561059c5761289491600182018155612356565b819291549060031b91821b915f19901b1916179055565b8015611835575f190190565b903590601e1981360301821215610523570180359067ffffffffffffffff821161052357602001918160051b3603831361052357565b918181106128fa57505050565b6126f1925f5260205f2091820191016126a256fea26469706673582212204660175fad1b5e87306fda4693ef53d82aa08f0b0fd889836cc2ae053ee5d54b64736f6c63430008180033","linkReferences":{}},"methodIdentifiers":{"addContributor(uint256,address)":"af3595ba","authorDrafts(address,uint256)":"2ae7773b","communityDrafts(uint256,uint256)":"79d60fee","communityRegistry()":"a200ac86","contributorDrafts(address,uint256)":"1854f67a","createDraft(uint256,uint256,(address[],uint256[],bytes[],bytes32),string)":"f5fc9855","escalateToProposal(uint256,bool,uint8,string)":"261f635f","finalizeForProposal(uint256)":"7281f82b","getDraft(uint256)":"a2f79f8e","getDraftsByAuthor(address)":"9d04097a","getDraftsByCommunity(uint256)":"1306454a","getDraftsByContributor(address)":"d9c48e3a","getDraftsByRequest(uint256)":"da968fc6","getDraftsCount()":"7ccea359","getReview(uint256,address)":"2101ff65","getReviewSummary(uint256)":"18efb58a","governor()":"0c340a24","isContributor(uint256,address)":"9eda7d23","minReviewsForEscalation()":"71f7fecc","removeContributor(uint256,address)":"305a9678","requestDrafts(uint256,uint256)":"3f3da2c7","retractReview(uint256)":"c55354f1","reviewPeriod()":"3b249810","snapshotVersion(uint256,string)":"66a5e1ad","submitForReview(uint256)":"8a3b37e2","submitReview(uint256,uint8,string)":"74a5b693","supportThresholdBps()":"673ad03f","updateConfiguration(uint256,uint256,uint256)":"c501651a","updateGovernor(address)":"62f384ad","updateProposalOutcome(uint256,uint8)":"ad2df7d8"},"id":12}