{"abi":[{"type":"constructor","inputs":[{"name":"_communityRegistry","type":"address","internalType":"address"},{"name":"_governor","type":"address","internalType":"address"},{"name":"manager","type":"address","internalType":"address"},{"name":"_communityId","type":"uint256","internalType":"uint256"}],"stateMutability":"nonpayable"},{"type":"function","name":"addContributor","inputs":[{"name":"draftId","type":"uint256","internalType":"uint256"},{"name":"contributor","type":"address","internalType":"address"}],"outputs":[],"stateMutability":"nonpayable"},{"type":"function","name":"authorDrafts","inputs":[{"name":"","type":"address","internalType":"address"},{"name":"","type":"uint256","internalType":"uint256"}],"outputs":[{"name":"","type":"uint256","internalType":"uint256"}],"stateMutability":"view"},{"type":"function","name":"authority","inputs":[],"outputs":[{"name":"","type":"address","internalType":"address"}],"stateMutability":"view"},{"type":"function","name":"communityId","inputs":[],"outputs":[{"name":"","type":"uint256","internalType":"uint256"}],"stateMutability":"view"},{"type":"function","name":"communityRegistry","inputs":[],"outputs":[{"name":"","type":"address","internalType":"address"}],"stateMutability":"view"},{"type":"function","name":"contributorDrafts","inputs":[{"name":"","type":"address","internalType":"address"},{"name":"","type":"uint256","internalType":"uint256"}],"outputs":[{"name":"","type":"uint256","internalType":"uint256"}],"stateMutability":"view"},{"type":"function","name":"createDraft","inputs":[{"name":"requestId","type":"uint256","internalType":"uint256"},{"name":"actions","type":"tuple","internalType":"struct DraftsManager.ActionBundle","components":[{"name":"targets","type":"address[]","internalType":"address[]"},{"name":"values","type":"uint256[]","internalType":"uint256[]"},{"name":"calldatas","type":"bytes[]","internalType":"bytes[]"},{"name":"actionsHash","type":"bytes32","internalType":"bytes32"}]},{"name":"versionCID","type":"string","internalType":"string"}],"outputs":[{"name":"draftId","type":"uint256","internalType":"uint256"}],"stateMutability":"nonpayable"},{"type":"function","name":"escalateToProposal","inputs":[{"name":"draftId","type":"uint256","internalType":"uint256"},{"name":"multiChoice","type":"bool","internalType":"bool"},{"name":"numOptions","type":"uint8","internalType":"uint8"},{"name":"description","type":"string","internalType":"string"}],"outputs":[{"name":"proposalId","type":"uint256","internalType":"uint256"}],"stateMutability":"nonpayable"},{"type":"function","name":"finalizeForProposal","inputs":[{"name":"draftId","type":"uint256","internalType":"uint256"}],"outputs":[],"stateMutability":"nonpayable"},{"type":"function","name":"getDraft","inputs":[{"name":"draftId","type":"uint256","internalType":"uint256"}],"outputs":[{"name":"draftCommunityId","type":"uint256","internalType":"uint256"},{"name":"requestId","type":"uint256","internalType":"uint256"},{"name":"author","type":"address","internalType":"address"},{"name":"contributors","type":"address[]","internalType":"address[]"},{"name":"actions","type":"tuple","internalType":"struct DraftsManager.ActionBundle","components":[{"name":"targets","type":"address[]","internalType":"address[]"},{"name":"values","type":"uint256[]","internalType":"uint256[]"},{"name":"calldatas","type":"bytes[]","internalType":"bytes[]"},{"name":"actionsHash","type":"bytes32","internalType":"bytes32"}]},{"name":"versionCIDs","type":"string[]","internalType":"string[]"},{"name":"status","type":"uint8","internalType":"enum DraftsManager.DraftStatus"},{"name":"createdAt","type":"uint64","internalType":"uint64"},{"name":"reviewStartedAt","type":"uint64","internalType":"uint64"},{"name":"finalizedAt","type":"uint64","internalType":"uint64"},{"name":"proposalId","type":"uint256","internalType":"uint256"}],"stateMutability":"view"},{"type":"function","name":"getDraftsByAuthor","inputs":[{"name":"author","type":"address","internalType":"address"}],"outputs":[{"name":"","type":"uint256[]","internalType":"uint256[]"}],"stateMutability":"view"},{"type":"function","name":"getDraftsByCommunity","inputs":[],"outputs":[{"name":"","type":"uint256[]","internalType":"uint256[]"}],"stateMutability":"view"},{"type":"function","name":"getDraftsByContributor","inputs":[{"name":"contributor","type":"address","internalType":"address"}],"outputs":[{"name":"","type":"uint256[]","internalType":"uint256[]"}],"stateMutability":"view"},{"type":"function","name":"getDraftsByRequest","inputs":[{"name":"requestId","type":"uint256","internalType":"uint256"}],"outputs":[{"name":"","type":"uint256[]","internalType":"uint256[]"}],"stateMutability":"view"},{"type":"function","name":"getDraftsCount","inputs":[],"outputs":[{"name":"","type":"uint256","internalType":"uint256"}],"stateMutability":"view"},{"type":"function","name":"getReview","inputs":[{"name":"draftId","type":"uint256","internalType":"uint256"},{"name":"reviewer","type":"address","internalType":"address"}],"outputs":[{"name":"reviewType","type":"uint8","internalType":"enum DraftsManager.ReviewType"},{"name":"reasonCID","type":"string","internalType":"string"},{"name":"timestamp","type":"uint64","internalType":"uint64"},{"name":"isActive","type":"bool","internalType":"bool"}],"stateMutability":"view"},{"type":"function","name":"getReviewSummary","inputs":[{"name":"draftId","type":"uint256","internalType":"uint256"}],"outputs":[{"name":"supportCount","type":"uint256","internalType":"uint256"},{"name":"opposeCount","type":"uint256","internalType":"uint256"},{"name":"neutralCount","type":"uint256","internalType":"uint256"},{"name":"requestChangesCount","type":"uint256","internalType":"uint256"},{"name":"totalReviews","type":"uint256","internalType":"uint256"}],"stateMutability":"view"},{"type":"function","name":"governor","inputs":[],"outputs":[{"name":"","type":"address","internalType":"address"}],"stateMutability":"view"},{"type":"function","name":"isConsumingScheduledOp","inputs":[],"outputs":[{"name":"","type":"bytes4","internalType":"bytes4"}],"stateMutability":"view"},{"type":"function","name":"isContributor","inputs":[{"name":"draftId","type":"uint256","internalType":"uint256"},{"name":"contributor","type":"address","internalType":"address"}],"outputs":[{"name":"","type":"bool","internalType":"bool"}],"stateMutability":"view"},{"type":"function","name":"minReviewsForEscalation","inputs":[],"outputs":[{"name":"","type":"uint256","internalType":"uint256"}],"stateMutability":"view"},{"type":"function","name":"removeContributor","inputs":[{"name":"draftId","type":"uint256","internalType":"uint256"},{"name":"contributor","type":"address","internalType":"address"}],"outputs":[],"stateMutability":"nonpayable"},{"type":"function","name":"requestDrafts","inputs":[{"name":"","type":"uint256","internalType":"uint256"},{"name":"","type":"uint256","internalType":"uint256"}],"outputs":[{"name":"","type":"uint256","internalType":"uint256"}],"stateMutability":"view"},{"type":"function","name":"retractReview","inputs":[{"name":"draftId","type":"uint256","internalType":"uint256"}],"outputs":[],"stateMutability":"nonpayable"},{"type":"function","name":"reviewPeriod","inputs":[],"outputs":[{"name":"","type":"uint256","internalType":"uint256"}],"stateMutability":"view"},{"type":"function","name":"setAuthority","inputs":[{"name":"newAuthority","type":"address","internalType":"address"}],"outputs":[],"stateMutability":"nonpayable"},{"type":"function","name":"snapshotVersion","inputs":[{"name":"draftId","type":"uint256","internalType":"uint256"},{"name":"newVersionCID","type":"string","internalType":"string"}],"outputs":[],"stateMutability":"nonpayable"},{"type":"function","name":"submitForReview","inputs":[{"name":"draftId","type":"uint256","internalType":"uint256"}],"outputs":[],"stateMutability":"nonpayable"},{"type":"function","name":"submitReview","inputs":[{"name":"draftId","type":"uint256","internalType":"uint256"},{"name":"reviewType","type":"uint8","internalType":"enum DraftsManager.ReviewType"},{"name":"reasonCID","type":"string","internalType":"string"}],"outputs":[],"stateMutability":"nonpayable"},{"type":"function","name":"supportThresholdBps","inputs":[],"outputs":[{"name":"","type":"uint256","internalType":"uint256"}],"stateMutability":"view"},{"type":"function","name":"updateConfiguration","inputs":[{"name":"newReviewPeriod","type":"uint256","internalType":"uint256"},{"name":"newMinReviews","type":"uint256","internalType":"uint256"},{"name":"newSupportThreshold","type":"uint256","internalType":"uint256"}],"outputs":[],"stateMutability":"nonpayable"},{"type":"function","name":"updateGovernor","inputs":[{"name":"newGovernor","type":"address","internalType":"address"}],"outputs":[],"stateMutability":"nonpayable"},{"type":"function","name":"updateProposalOutcome","inputs":[{"name":"draftId","type":"uint256","internalType":"uint256"},{"name":"outcome","type":"uint8","internalType":"enum DraftsManager.DraftStatus"}],"outputs":[],"stateMutability":"nonpayable"},{"type":"event","name":"AuthorityUpdated","inputs":[{"name":"authority","type":"address","indexed":false,"internalType":"address"}],"anonymous":false},{"type":"event","name":"ConfigurationUpdated","inputs":[{"name":"reviewPeriod","type":"uint256","indexed":false,"internalType":"uint256"},{"name":"minReviewsForEscalation","type":"uint256","indexed":false,"internalType":"uint256"},{"name":"supportThresholdBps","type":"uint256","indexed":false,"internalType":"uint256"}],"anonymous":false},{"type":"event","name":"ContributorAdded","inputs":[{"name":"draftId","type":"uint256","indexed":true,"internalType":"uint256"},{"name":"contributor","type":"address","indexed":true,"internalType":"address"},{"name":"addedBy","type":"address","indexed":true,"internalType":"address"}],"anonymous":false},{"type":"event","name":"ContributorRemoved","inputs":[{"name":"draftId","type":"uint256","indexed":true,"internalType":"uint256"},{"name":"contributor","type":"address","indexed":true,"internalType":"address"},{"name":"removedBy","type":"address","indexed":true,"internalType":"address"}],"anonymous":false},{"type":"event","name":"DraftCreated","inputs":[{"name":"draftId","type":"uint256","indexed":true,"internalType":"uint256"},{"name":"communityId","type":"uint256","indexed":true,"internalType":"uint256"},{"name":"requestId","type":"uint256","indexed":true,"internalType":"uint256"},{"name":"author","type":"address","indexed":false,"internalType":"address"},{"name":"actionsHash","type":"bytes32","indexed":false,"internalType":"bytes32"},{"name":"versionCID","type":"string","indexed":false,"internalType":"string"}],"anonymous":false},{"type":"event","name":"DraftStatusChanged","inputs":[{"name":"draftId","type":"uint256","indexed":true,"internalType":"uint256"},{"name":"oldStatus","type":"uint8","indexed":false,"internalType":"enum DraftsManager.DraftStatus"},{"name":"newStatus","type":"uint8","indexed":false,"internalType":"enum DraftsManager.DraftStatus"},{"name":"changedBy","type":"address","indexed":true,"internalType":"address"}],"anonymous":false},{"type":"event","name":"GovernorUpdated","inputs":[{"name":"oldGovernor","type":"address","indexed":true,"internalType":"address"},{"name":"newGovernor","type":"address","indexed":true,"internalType":"address"}],"anonymous":false},{"type":"event","name":"ProposalEscalated","inputs":[{"name":"draftId","type":"uint256","indexed":true,"internalType":"uint256"},{"name":"proposalId","type":"uint256","indexed":true,"internalType":"uint256"},{"name":"isMultiChoice","type":"bool","indexed":false,"internalType":"bool"},{"name":"numOptions","type":"uint8","indexed":false,"internalType":"uint8"}],"anonymous":false},{"type":"event","name":"ProposalOutcomeUpdated","inputs":[{"name":"draftId","type":"uint256","indexed":true,"internalType":"uint256"},{"name":"proposalId","type":"uint256","indexed":true,"internalType":"uint256"},{"name":"outcome","type":"uint8","indexed":false,"internalType":"enum DraftsManager.DraftStatus"}],"anonymous":false},{"type":"event","name":"ReviewRetracted","inputs":[{"name":"draftId","type":"uint256","indexed":true,"internalType":"uint256"},{"name":"reviewer","type":"address","indexed":true,"internalType":"address"}],"anonymous":false},{"type":"event","name":"ReviewSubmitted","inputs":[{"name":"draftId","type":"uint256","indexed":true,"internalType":"uint256"},{"name":"reviewer","type":"address","indexed":true,"internalType":"address"},{"name":"reviewType","type":"uint8","indexed":false,"internalType":"enum DraftsManager.ReviewType"},{"name":"reasonCID","type":"string","indexed":false,"internalType":"string"}],"anonymous":false},{"type":"event","name":"VersionSnapshot","inputs":[{"name":"draftId","type":"uint256","indexed":true,"internalType":"uint256"},{"name":"versionNumber","type":"uint256","indexed":false,"internalType":"uint256"},{"name":"versionCID","type":"string","indexed":false,"internalType":"string"},{"name":"contributor","type":"address","indexed":true,"internalType":"address"}],"anonymous":false},{"type":"error","name":"AccessManagedInvalidAuthority","inputs":[{"name":"authority","type":"address","internalType":"address"}]},{"type":"error","name":"AccessManagedRequiredDelay","inputs":[{"name":"caller","type":"address","internalType":"address"},{"name":"delay","type":"uint32","internalType":"uint32"}]},{"type":"error","name":"AccessManagedUnauthorized","inputs":[{"name":"caller","type":"address","internalType":"address"}]},{"type":"error","name":"AlreadyReviewed","inputs":[{"name":"reviewer","type":"address","internalType":"address"}]},{"type":"error","name":"ContributorAlreadyExists","inputs":[{"name":"contributor","type":"address","internalType":"address"}]},{"type":"error","name":"ContributorNotFound","inputs":[{"name":"contributor","type":"address","internalType":"address"}]},{"type":"error","name":"DraftNotFound","inputs":[{"name":"draftId","type":"uint256","internalType":"uint256"}]},{"type":"error","name":"InsufficientReviews","inputs":[{"name":"current","type":"uint256","internalType":"uint256"},{"name":"required","type":"uint256","internalType":"uint256"}]},{"type":"error","name":"InsufficientSupport","inputs":[{"name":"supportBps","type":"uint256","internalType":"uint256"},{"name":"requiredBps","type":"uint256","internalType":"uint256"}]},{"type":"error","name":"InvalidInput","inputs":[{"name":"reason","type":"string","internalType":"string"}]},{"type":"error","name":"InvalidStatus","inputs":[{"name":"current","type":"uint8","internalType":"enum DraftsManager.DraftStatus"},{"name":"required","type":"uint8","internalType":"enum DraftsManager.DraftStatus"}]},{"type":"error","name":"NotAuthorized","inputs":[{"name":"user","type":"address","internalType":"address"}]},{"type":"error","name":"ReviewPeriodNotMet","inputs":[{"name":"timeRemaining","type":"uint256","internalType":"uint256"}]},{"type":"error","name":"ZeroAddress","inputs":[]}],"bytecode":{"object":"0x60c034620001b257601f620037e738819003918201601f191683019291906001600160401b03841183851017620001b6578160809284926040968752833981010312620001b2576200005181620001ca565b6200005f60208301620001ca565b9160606200006f858301620001ca565b9101519260018060a01b038092169260018060a01b03199380855f5416175f557f2f658b440c35314f52658ea8a740e05b284cdc84dc9ae01e891f21b8933e7cad60208851838152a16203f480600355600360045561177060055583821615908115620001a6575b81156200019c575b506200018b57841562000146576080521690600154161760015560a052516136079081620001e082396080518181816105f8015281816115d20152613176015260a0518181816105c101528181610783015281816109a201528181610d4401526118a50152f35b855163d647364f60e01b815260206004820152601360248201527f496e76616c696420636f6d6d756e6974794964000000000000000000000000006044820152606490fd5b855163d92e233d60e01b8152600490fd5b9050155f620000df565b838516159150620000d7565b5f80fd5b634e487b7160e01b5f52604160045260245ffd5b51906001600160a01b0382168203620001b25756fe6080806040526004361015610012575f80fd5b5f3560e01c9081630c340a2414612a08575080631854f67a146129c257806318efb58a146129605780632101ff65146128b1578063261f635f146124e65780632ae7773b146124a0578063305a9678146122c65780633b249810146122a95780633f3da2c71461226457806362f384ad146121e857806366a5e1ad14612066578063673ad03f1461204957806371f7fecc1461202c5780637281f82b14611de957806374a5b693146119af5780637a9e5e4b146118e55780637ccea359146118c85780637f50861a1461188e5780638a3b37e2146117165780638fb36037146116a35780639d04097a1461166b5780639eda7d23146115f6578063a200ac86146115b3578063a2f79f8e146112db578063ad2df7d81461125c578063af3595ba1461104a578063af61f45b14610559578063bf7e214f14610534578063c501651a14610459578063c55354f11461027d578063d7c24f9e14610205578063d9c48e3a146101cd5763da968fc614610187575f80fd5b346101c95760203660031901126101c9576004355f5260076020526101c56101b160405f20612f53565b604051918291602083526020830190612aed565b0390f35b5f80fd5b346101c95760203660031901126101c9576001600160a01b036101ee612a2b565b165f5260096020526101c56101b160405f20612f53565b346101c9575f3660031901126101c957604051806006549182815260208091019260065f527ff652222313e28459528d920b65115c16c04f3efc82aaedc97be59f3f377c0d3f915f905b828210610266576101c5856101b181890382612ca4565b83548652948501946001938401939091019061024f565b346101c95760203660031901126101c9576004356002548110156104415760ff60096102a883612b69565b5001541660068110156103af576001810361041a57506102c781612b69565b50600b810190335f526010810160205260405f209081546001600160a01b038116158015610408575b6103c35760a01c60ff169060048210156103af57600293600f9280610363575061031a81546133e8565b90555b0161032881546133e8565b905501805468ff00000000000000001916905533907f12e54cb43c69e66621df1300fe1eb277b76f51a76d8fcfe36419d944e22fc1a75f80a3005b9050600181036103845750600c810161037c81546133e8565b90555b61031d565b80850361039a5750600d810161037c81546133e8565b60030361037f57600e810161037c81546133e8565b634e487b7160e01b5f52602160045260245ffd5b606460405163d647364f60e01b815260206004820152601b60248201527f4e6f206163746976652072657669657720746f207265747261637400000000006044820152fd5b5060ff600284015460401c16156102f0565b6044906104386040519163f924664d60e01b83526004830190612b5c565b60016024820152fd5b6024906040519063c41d418b60e01b82526004820152fd5b346101c95760603660031901126101c95760443560243560043561047d36336133f4565b61271083116104ca577fd1df9ea585fa96cacfd37b45876312d2c04c0f6bf740539becffbec7e81822be9260609282600355806004558160055560405192835260208301526040820152a1005b608460405163d647364f60e01b8152602060048201526024808201527f537570706f7274207468726573686f6c642063616e6e6f74206578636565642060448201527f31303025000000000000000000000000000000000000000000000000000000006064820152fd5b346101c9575f3660031901126101c95760206001600160a01b035f5416604051908152f35b346101c9576003196060368201126101c9576024359067ffffffffffffffff82116101c95760809082360301126101c957604490813567ffffffffffffffff81116101c9576105ac903690600401612abf565b801561100457604051631f061c6960e31b81527f000000000000000000000000000000000000000000000000000000000000000060048201526101c09081816024816001600160a01b037f0000000000000000000000000000000000000000000000000000000000000000165afa908115610f87576001600160a01b03916040915f91610fd7575b500151168015610f9257600435610cfa575b5061065690506004840180613391565b90506106686024850185600401613391565b91905014801590610cd1575b610c8c576106856004840180613391565b906106966024860186600401613391565b6106a588880188600401613391565b91604051958060808801606060208a01525260a0870195905f905b808210610c6157505050858503601f190160408701528085527f07ffffffffffffffffffffffffffffffffffffffffffffffffffffffffffffff81116101c957918593919260051b809260208701378482018481036060860152602081018290529294600582901b840160409081019401925f9187915b848410610bfa57505050505050610757925003601f198101835282612ca4565b602081519101209360025493600160401b851015610a06576001850160025561077f85612b69565b50917f000000000000000000000000000000000000000000000000000000000000000083556004356001840155600283013373ffffffffffffffffffffffffffffffffffffffff198254161790556107dd8260040183600401613391565b9067ffffffffffffffff8211610a0657600160401b8211610a065760048501805483825561080d918491906133c7565b90600485015f5260205f20915f905b828210610bd557505050506108376024830183600401613391565b9067ffffffffffffffff8211610a0657600160401b8211610a0657600585018054838255610867918491906133c7565b600585015f5260205f205f5b838110610bc157505050509061088e91810190600401613391565b600160401b8111610a06576006830154816006850155808210610b4c575b508185918593600686015f5260205f205f915b838310610a1a57505050505060088388600761090196015560098101805468ffffffffffffffff0042851b169068ffffffffffffffffff191617905501612e2c565b60065493600160401b851015610a065760018501806006558510156109f2577f8790ca50c31e8b011ca44d51858f6930ec87a1cb1712aa45474b5cf66d0a2a4d8491826020977ff652222313e28459528d920b65115c16c04f3efc82aaedc97be59f3f377c0d3f01556004356109d7575b335f52600887526109868360405f20613303565b604051903382528782015260606040820152806109cc600435967f0000000000000000000000000000000000000000000000000000000000000000966060840191612da4565b0390a4604051908152f35b6004355f52600787526109ed8360405f20613303565b610972565b634e487b7160e01b5f52603260045260245ffd5b634e487b7160e01b5f52604160045260245ffd5b919395509193508035601e19863603018112156101c95767ffffffffffffffff81870135116101c957808601353603602082880101136101c957610a6b81870135610a658554612ba2565b85612de7565b5f90601f8188013511600114610aca57600192610aa884936020935f91818c0135610abb575b508a0135908160011b915f199060031b1c19161790565b85555b01920192018694928894926108bf565b8b82010185013591505f610a91565b9086601f19838201351691855f5260205f20925f5b818110610b2e5750936020938360019794938897848996013511610b0d575b5090500135811b018555610aab565b8690845f1960f88286013560031b161c1993010101351690558f8a81610afe565b6020938601830184013585556001909401938a939283019201610adf565b600684015f5260205f20908282015b8183018110610b6b5750506108ac565b80610b7860019254612ba2565b80610b85575b5001610b5b565b601f908181118414610b9d5750505f81555b8b610b7e565b610bb85f9284845260208420920160051c8201858301612dd1565b81835555610b97565b600190602084359401938184015501610873565b8035916001600160a01b03831683036101c9576020600192019281860155019061081c565b9193959092949650603f1982840182030187528735601e19853603018112156101c9578401906020823592019167ffffffffffffffff81116101c95780360383136101c957610c4f6020928392600195612da4565b99019701940191889697959391610737565b9091968735906001600160a01b0382168092036101c9576020816001938293520198019201906106c0565b6064847f416374696f6e73206c656e677468206d69736d617463680000000000000000006040519163d647364f60e01b83526020600484015260176024840152820152fd5b50610cdf6004840180613391565b9050610cf085850185600401613391565b9190501415610674565b5f602491604051928380927fc58343ef00000000000000000000000000000000000000000000000000000000825260043560048301525afa918215610f87575f92610db6575b50507f0000000000000000000000000000000000000000000000000000000000000000905103610d71578480610646565b6064847f436f6d6d756e697479206d69736d6174636800000000000000000000000000006040519163d647364f60e01b83526020600484015260126024840152820152fd5b9091503d805f843e610dc88184612ca4565b820160209283818303126101c95780519067ffffffffffffffff82116101c9570191828203126101c95760405192610dff84612c87565b82518452610e0e818401613010565b81850152604083015167ffffffffffffffff81116101c95782610e32918501613337565b6040850152606083015167ffffffffffffffff81116101c95782610e57918501613337565b6060850152608083015160038110156101c9576080850152610e7b60a0840161337c565b60a0850152610e8c60c0840161337c565b60c085015260e083015167ffffffffffffffff81116101c95783019180601f840112156101c957825192610ebf84612ff8565b93610ecd6040519586612ca4565b808552838086019160051b830101928084116101c957848301915b848310610f5a5750505050505060e08301526101008082015190830152610120610f13818301613010565b9083015261014080820151908301526101608082015190830152610180808201519081151582036101c957830152610f4f6101a0809201613010565b908201528580610d40565b825167ffffffffffffffff81116101c9578691610f7c84848094890101613337565b815201920191610ee8565b6040513d5f823e3d90fd5b6064867f52657175657374487562206e6f742073657400000000000000000000000000006040519163d647364f60e01b83526020600484015260126024840152820152fd5b610ff79150843d8611610ffd575b610fef8183612ca4565b810190613024565b88610634565b503d610fe5565b60405163d647364f60e01b815260206004820152601b60248201527f56657273696f6e204349442063616e6e6f7420626520656d70747900000000006044820152606490fd5b346101c95760403660031901126101c957600435611066612a41565b6002548210156112445761107982612b69565b50906001600160a01b039182600282015416331415908161122a575b506112135760ff60096110a785612b69565b5001541660068110156103af57806111ed57508181169182156111c3576110cd84612b69565b5090600282015416831480156111ab575b61117a576003810191825490600160401b821015610a065761110b82601195600161112a95018155612a57565b9091906001600160a01b038084549260031b9316831b921b1916179055565b825f520160205260405f20600160ff1982541617905560096020526111528260405f20613303565b33917f1edd8eba933bb6abe13c18ee5bd22bf6d3886540e4a22b288af4c11dbda8196b5f80a4005b602483604051907fc0db7ecd0000000000000000000000000000000000000000000000000000000082526004820152fd5b50825f526011810160205260ff60405f2054166110de565b60046040517fd92e233d000000000000000000000000000000000000000000000000000000008152fd5b60449061120b6040519163f924664d60e01b83526004830190612b5c565b5f6024820152fd5b6024604051634a0bfec160e01b8152336004820152fd5b60119150335f520160205260ff60405f2054161584611095565b6024826040519063c41d418b60e01b82526004820152fd5b346101c95760403660031901126101c95760043560243560068110156101c9576002548210156112445760ff600961129384612b69565b500154169160068310156103af57600383036112b5576112b3925061312e565b005b60405163f924664d60e01b81526044906112d26004820186612b5c565b60036024820152fd5b346101c95760203660031901126101c9576004355f60606040516112fe81612c6b565b81815281602082015281604082015201526002548110156104415761132290612b69565b508054906001810154906001600160a01b03600282015416600982015493600a8301549161135260038501612fa1565b6040519261135f84612c6b565b61136b60048701612fa1565b845261137960058701612f53565b602085015260068601805461138d81612ff8565b9161139b6040519384612ca4565b81835260208301905f5260205f205f915b83831061158e57505050506040850152600786015460608501526008860154926113d584612ff8565b936113e36040519586612ca4565b8085526020850160088199015f5260205f205f915b83831061156257505050509061142b929160405198610160928a5260208a01526040890152806060890152870190612b20565b858103608087015261145b6114498451608084526080840190612b20565b60208501518382036020850152612aed565b926040810151938281036040840152845180825260208201916020808360051b8301019701925f915b83831061153557505050505060608091015191015284820360a086015251808252602082019160208260051b82010194925f915b838310611508578780888867ffffffffffffffff8d6114dd60c0860160ff8316612b5c565b818160081c1660e0860152818160481c1661010086015260881c166101208401526101408301520390f35b9091929395602080611526600193601f198682030187528a51612a9a565b980193019301919392906114b8565b9091929397602080611553600193601f198682030187528c51612a9a565b9a019301930191939290611484565b600160208192604051611580816115798189612bda565b0382612ca4565b8152019201920191906113f8565b6001602081926040516115a5816115798189612bda565b8152019201920191906113ac565b346101c9575f3660031901126101c95760206040516001600160a01b037f0000000000000000000000000000000000000000000000000000000000000000168152f35b346101c95760403660031901126101c957600435611612612a41565b906002548110156104415761162690612b69565b506001600160a01b03806002830154169216809214918215611650575b6020836040519015158152f35b601192505f5201602052602060ff60405f2054169082611643565b346101c95760203660031901126101c9576001600160a01b0361168c612a2b565b165f5260086020526101c56101b160405f20612f53565b346101c9575f3660031901126101c9575f5460a01c60ff161561170e5760207f8fb36037000000000000000000000000000000000000000000000000000000005b7fffffffff0000000000000000000000000000000000000000000000000000000060405191168152f35b60205f6116e4565b346101c95760203660031901126101c9576004356002548110156104415761173d81612b69565b506001600160a01b036002820154163314159081611874575b506112135760ff600961176883612b69565b5001541660068110156103af57806111ed575061178481612b69565b5060088101541561180a57600901600181547fffffffffffffffffffffffffffffff0000000000000000ffffffffffffffff0070ffffffffffffffff0000000000000000004260481b16911617179055604051905f8252600160208301527ff7fa3caad94fe12c60166546c7c4bda02955b0fbba7ac35eeb843d49d885e2a360403393a3005b608460405163d647364f60e01b8152602060048201526024808201527f4472616674206d7573742068617665206174206c65617374206f6e652076657260448201527f73696f6e000000000000000000000000000000000000000000000000000000006064820152fd5b60119150335f520160205260ff60405f2054161582611756565b346101c9575f3660031901126101c95760206040517f00000000000000000000000000000000000000000000000000000000000000008152f35b346101c9575f3660031901126101c9576020600254604051908152f35b346101c95760203660031901126101c9576118fe612a2b565b5f54906001600160a01b0390818316330361199957803b15611967577f2f658b440c35314f52658ea8a740e05b284cdc84dc9ae01e891f21b8933e7cad9260209273ffffffffffffffffffffffffffffffffffffffff19921691829116175f55604051908152a1005b602491604051917fc2f31e5e000000000000000000000000000000000000000000000000000000008352166004820152fd5b602460405162d1953b60e31b8152336004820152fd5b346101c95760603660031901126101c957600460243510156101c95760443567ffffffffffffffff81116101c9576119eb903690600401612abf565b906002546004351015611dd05760ff6009611a07600435612b69565b5001541660068110156103af576001810361041a5750611a28600435612b69565b50916001600160a01b03928360028201541633148015611db8575b611d4d5760108101335f52806020528460405f205416611d1d576040519060a0820182811067ffffffffffffffff821117610a0657604052338252602082016024358152611a9085612f29565b91611a9e6040519384612ca4565b85835236868801116101c957858760208501375f602087850101526040840192835267ffffffffffffffff4216606085015260016080850152335f5260205260405f20968351168754915160048110156103af5774ff00000000000000000000000000000000000000007fffffffffffffffffffffff0000000000000000000000000000000000000000009160a01b169216171786555194855167ffffffffffffffff8111610a0657611b6181611b586001850154612ba2565b60018501612de7565b6020601f8211600114611cab578160029392611b9792600f98999a5f92611ca0575b50508160011b915f199060031b1c19161790565b60018201555b019067ffffffffffffffff60608201511668ff000000000000000060808454930151151560401b169168ffffffffffffffffff191617179055602435155f14611c5057611bed600b820154612f45565b600b8201555b01611bfe8154612f45565b90557f1d4e9183da763b1e285cbd17de8d69818200b71822bc1d67e368eaadde895f1c604051611c3081602435612a6c565b6040602082015280611c4b3395600435956040840191612da4565b0390a3005b602435600103611c7057600c8101611c688154612f45565b90555b611bf3565b602435600203611c8857600d8101611c688154612f45565b600360243503611c6b57600e8101611c688154612f45565b015190508a80611b83565b600183015f5260205f20975f5b601f1984168110611d05575091600f9697986001926002959483601f19811610611ced575b505050811b016001820155611b9d565b01515f1960f88460031b161c19169055898080611cdd565b828201518a5560019099019860209283019201611cb8565b60246040517fcfa761e4000000000000000000000000000000000000000000000000000000008152336004820152fd5b608460405163d647364f60e01b815260206004820152602a60248201527f436f6e7472696275746f72732063616e6e6f742072657669657720746865697260448201527f206f776e206472616674000000000000000000000000000000000000000000006064820152fd5b50335f526011810160205260ff60405f205416611a43565b602460405163c41d418b60e01b81526004356004820152fd5b346101c95760203660031901126101c95760043560025481101561044157611e1081612b69565b506001600160a01b036002820154163314159081612012575b506112135760ff6009611e3b83612b69565b5001541660068110156103af576001810361041a5750611e5a81612b69565b506009810190815490611e7a67ffffffffffffffff8360481c1642612dc4565b600354808210611fd8575050600f81015490600454808310611fa15750600b015461271090818102918183041490151715611f8d578115611f795704600554808210611f425750506002907fffffffffffffff0000000000000000ffffffffffffffffffffffffffffffff0078ffffffffffffffff00000000000000000000000000000000004260881b169116171790556040519060018252600260208301527ff7fa3caad94fe12c60166546c7c4bda02955b0fbba7ac35eeb843d49d885e2a360403393a3005b60449250604051917fc7effce900000000000000000000000000000000000000000000000000000000835260048301526024820152fd5b634e487b7160e01b5f52601260045260245ffd5b634e487b7160e01b5f52601160045260245ffd5b82604491604051917febd82d0200000000000000000000000000000000000000000000000000000000835260048301526024820152fd5b602491611fe491612dc4565b604051907f60b2716e0000000000000000000000000000000000000000000000000000000082526004820152fd5b60119150335f520160205260ff60405f2054161582611e29565b346101c9575f3660031901126101c9576020600454604051908152f35b346101c9575f3660031901126101c9576020600554604051908152f35b346101c95760403660031901126101c9576024600435813567ffffffffffffffff81116101c95761209b903690600401612abf565b926002548310156121d2576120af83612b69565b506001600160a01b0360028201541633141590816121b8575b506121a35760ff60096120da85612b69565b500154166006811015612190578061216c575083156110045760086120fe84612b69565b500161210b858483612e2c565b545f1981019190821161215a5750907f515e8cd3bc65e597ecd44560be0bdf9a836cc9218e3ca0b1d6cfbb2baa0f8fce91611c4b60405192839283526040602084015233966040840191612da4565b634e487b7160e01b5f5260116004525ffd5b5f60449261218b6040519363f924664d60e01b85526004850190612b5c565b820152fd5b50634e487b7160e01b5f5260216004525ffd5b604051634a0bfec160e01b8152336004820152fd5b60119150335f520160205260ff60405f20541615856120c8565b826040519063c41d418b60e01b82526004820152fd5b346101c95760203660031901126101c957612201612a2b565b61220b36336133f4565b6001600160a01b038091169081156111c3576001548273ffffffffffffffffffffffffffffffffffffffff19821617600155167f5af6a85e864342d4f108c43dd574d98480c91f1de0ac2a9f66d826dee49bd9bb5f80a3005b346101c95760403660031901126101c9576024356004355f52600760205260405f2080548210156101c95760209161229b91612a57565b90546040519160031b1c8152f35b346101c9575f3660031901126101c9576020600354604051908152f35b346101c95760403660031901126101c9576004356122e2612a41565b600254821015611244576122f582612b69565b506001600160a01b0390816002820154163314159081612486575b506112135760ff600961232285612b69565b5001541660068110156103af57806111ed575061233e83612b69565b50916011928260118201921692835f528260205260ff60405f20541615612455576003809201905f5b82548082101561244857868361237d8487612a57565b905490881b1c16146123925750600101612367565b5f97929394959697199283820191821161243657509061110b846123b96123c79488612a57565b905490891b1c169186612a57565b825480156124225701926123db8484612a57565b81939154921b1b19169055555b815f5260205260405f2060ff19815416905533917f9faf0bd600a8424364aa473fce68c7a603750bcd52a4dc12dd7a69cc7b160b015f80a4005b634e487b7160e01b5f52603160045260245ffd5b634e487b7160e01b5f5260045260245ffd5b50505050509091506123e8565b602484604051907fd3cedf290000000000000000000000000000000000000000000000000000000082526004820152fd5b60119150335f520160205260ff60405f2054161584612310565b346101c95760403660031901126101c9576124b9612a2b565b6001600160a01b0360243591165f52600860205260405f2080548210156101c95760209161229b91612a57565b346101c9576003196080368201126101c957600435602491823592831515918285036101c9576044359160ff83168093036101c95760643567ffffffffffffffff81116101c95761253b903690600401612abf565b60029391935487101561289a5761255187612b69565b506001600160a01b0390816002820154163314159081612880575b5061286a5760ff600961257e8a612b69565b5001541660068110156128575760028103612836575061259d88612b69565b5080995f146127545750600286106126e9575f60209461263f6006958c989561261f9560015416966126306040519b8c9a8b998a987fe947708a000000000000000000000000000000000000000000000000000000008a5260a060048b015261260c60a48b0160048601612cc6565b90888b830301908b015260058401612d0a565b91868984030160448a015201612d45565b92858403016064860152612da4565b88608483015203925af1908115610f87575f916126ac575b50604060209593600a95937ff5f3c022abf1448d67e8a9325eb16a6c9274e802b0d204940a1ac39f7f5d15e293809781975b60098101805460ff191660031790550155825191825287820152a3604051908152f35b9492939190506020853d6020116126e1575b816126cb60209383612ca4565b810103126101c957935191939092916040612657565b3d91506126be565b60848460286040519163d647364f60e01b8352602060048401528201527f4d756c74692d63686f696365207265717569726573206174206c65617374203260448201527f206f7074696f6e730000000000000000000000000000000000000000000000006064820152fd5b94916020946127b16006955f9361261f9560015416966126306040519b8c9a8b998a987f7d5e81e2000000000000000000000000000000000000000000000000000000008a52608060048b015261260c60848b0160048601612cc6565b03925af1908115610f87575f916127f9575b50604060209593600a95937ff5f3c022abf1448d67e8a9325eb16a6c9274e802b0d204940a1ac39f7f5d15e29380978197612689565b9492939190506020853d60201161282e575b8161281860209383612ca4565b810103126101c9579351919390929160406127c3565b3d915061280b565b60449060028661218b6040519363f924664d60e01b85526004850190612b5c565b84634e487b7160e01b5f5260216004525ffd5b83604051634a0bfec160e01b8152336004820152fd5b60119150335f520160205260ff60405f205416158a61256c565b82876040519063c41d418b60e01b82526004820152fd5b346101c95760403660031901126101c9576004356128cd612a41565b600254821015611244576001600160a01b036128ea601093612b69565b5091165f520160205261292f60405f2060ff815460a01c169060ff61294060016129236002850154946115796040518094819301612bda565b60405195868096612a6c565b608060208601526080850190612a9a565b9167ffffffffffffffff8116604085015260401c16151560608301520390f35b346101c95760203660031901126101c9576004356002548110156104415761298960a091612b69565b50600b81015490600c81015490600d810154600f600e830154920154926040519485526020850152604084015260608301526080820152f35b346101c95760403660031901126101c9576129db612a2b565b6001600160a01b0360243591165f52600960205260405f2080548210156101c95760209161229b91612a57565b346101c9575f3660031901126101c9576020906001600160a01b03600154168152f35b600435906001600160a01b03821682036101c957565b602435906001600160a01b03821682036101c957565b80548210156109f2575f5260205f2001905f90565b9060048210156103af5752565b5f5b838110612a8a5750505f910152565b8181015183820152602001612a7b565b90602091612ab381518092818552858086019101612a79565b601f01601f1916010190565b9181601f840112156101c95782359167ffffffffffffffff83116101c957602083818601950101116101c957565b9081518082526020808093019301915f5b828110612b0c575050505090565b835185529381019392810192600101612afe565b9081518082526020808093019301915f5b828110612b3f575050505090565b83516001600160a01b031685529381019392810192600101612b31565b9060068210156103af5752565b6002548110156109f25760129060025f52027f405787fa12a823e0f2b7631cc41b3ba8828b3321ca811111fa75cd3aa3bb5ace01905f90565b90600182811c92168015612bd0575b6020831014612bbc57565b634e487b7160e01b5f52602260045260245ffd5b91607f1691612bb1565b80545f9392612be882612ba2565b918282526020936001916001811690815f14612c4c5750600114612c0e575b5050505050565b90939495505f92919252835f2092845f945b838610612c3857505050500101905f80808080612c07565b805485870183015294019385908201612c20565b60ff19168685015250505090151560051b010191505f80808080612c07565b6080810190811067ffffffffffffffff821117610a0657604052565b6101c0810190811067ffffffffffffffff821117610a0657604052565b90601f8019910116810190811067ffffffffffffffff821117610a0657604052565b9081548082526020809201925f5260205f20915f905b828210612cea575050505090565b83546001600160a01b031685529384019360019384019390910190612cdc565b9081548082526020809201925f5260205f20915f905b828210612d2e575050505090565b835485529384019360019384019390910190612d20565b908082549081815260208091019260208360051b820101945f5260205f20935f915b848310612d775750505050505090565b909192939495846001612d948193601f198682030187528a612bda565b9801930193019194939290612d67565b908060209392818452848401375f828201840152601f01601f1916010190565b91908203918211611f8d57565b818110612ddc575050565b5f8155600101612dd1565b9190601f8111612df657505050565b612e20925f5260205f20906020601f840160051c83019310612e22575b601f0160051c0190612dd1565b565b9091508190612e13565b92918354600160401b811015610a0657612e4e90600195600182018155612a57565b929092612f165767ffffffffffffffff8211610a0657612e7282610a658554612ba2565b5f94601f8311600114612eb15750612ea292939482915f92612ea65750508160011b915f199060031b1c19161790565b9055565b013590505f80611b83565b90601f19831695845f5260209260205f20935f915b898310612eff5750505083600195969710612ee6575b505050811b019055565b01355f19600384901b60f8161c191690555f8080612edc565b848401358655948501949281019291810191612ec6565b634e487b7160e01b5f525f60045260245ffd5b67ffffffffffffffff8111610a0657601f01601f191660200190565b5f198114611f8d5760010190565b90604051918281549182825260209260208301915f5260205f20935f905b828210612f8757505050612e2092500383612ca4565b855484526001958601958895509381019390910190612f71565b90604051918281549182825260209260208301915f5260205f20935f905b828210612fd557505050612e2092500383612ca4565b85546001600160a01b031684526001958601958895509381019390910190612fbf565b67ffffffffffffffff8111610a065760051b60200190565b51906001600160a01b03821682036101c957565b90816101c09103126101c9576040519061303d82612c87565b61304681613010565b825261305460208201613010565b602083015261306560408201613010565b604083015261307660608201613010565b606083015261308760808201613010565b608083015261309860a08201613010565b60a08301526130a960c08201613010565b60c08301526130ba60e08201613010565b60e08301526101006130cd818301613010565b908301526101206130df818301613010565b908301526101406130f1818301613010565b90830152610160613103818301613010565b90830152610180613115818301613010565b908301526131276101a0809201613010565b9082015290565b9061313882612b69565b506001600160a01b03908160028201541633148015613230575b613225575460405190631f061c6960e31b825260048201526101c0908181602481867f0000000000000000000000000000000000000000000000000000000000000000165afa908115610f87576020925f92613208575b505001511680156131c357330361121357612e2091613248565b606460405163d647364f60e01b815260206004820152601060248201527f54696d656c6f636b206e6f7420736574000000000000000000000000000000006044820152fd5b61321e9250803d10610ffd57610fef8183612ca4565b5f806131a9565b5050612e2091613248565b50335f526011810160205260ff60405f205416613152565b60068210156103af576004821415806132f8575b6132b3577ff8565e1fcefe8730946b9a0b3b21656f89a6775423cd6b879c1b5ab9871bcace6020600a61328e84612b69565b506009810160ff1981541660ff88161790550154936132b06040518092612b5c565ba3565b606460405163d647364f60e01b815260206004820152601b60248201527f4f7574636f6d65206d75737420626520574f4e206f72204c4f535400000000006044820152fd5b50600582141561325c565b8054600160401b811015610a065761332091600182018155612a57565b819291549060031b91821b915f19901b1916179055565b81601f820112156101c957805161334d81612f29565b9261335b6040519485612ca4565b818452602082840101116101c9576133799160208085019101612a79565b90565b519067ffffffffffffffff821682036101c957565b903590601e19813603018212156101c9570180359067ffffffffffffffff82116101c957602001918160051b360383136101c957565b918181106133d457505050565b612e20925f5260205f209182019101612dd1565b8015611f8d575f190190565b905f915f54916001600160a01b039182841692826004116101c9575f925f60409485519360208501957fb700961300000000000000000000000000000000000000000000000000000000875216938460248201523060448201527fffffffff000000000000000000000000000000000000000000000000000000005f351660648201526064815260a0810167ffffffffffffffff9682821088831117610a065788925f9284528280528260205251908a5afa6135be575b156134bb575b5050505050505050565b63ffffffff16156135a857740100000000000000000000000000000000000000007fffffffffffffffffffffff00ffffffffffffffffffffffffffffffffffffffff809716175f55843b156101c9576064945f928386519788809581947f94c7d7ee00000000000000000000000000000000000000000000000000000000835260048301528960248301528060448301528084848401378181018301849052601f01601f191681010301925af1801561359e57613588575b50505081541690555f808080808080806134b1565b90918093945011610a0657525f905f8080613573565b82513d5f823e3d90fd5b60248285519062d1953b60e31b82526004820152fd5b50505f516020518060201c1502906134ab56fea26469706673582212200bba872b6a99f2f67125692a4c149fbeefbf8b6af79d884e773f40af2868fc6c64736f6c63430008180033","linkReferences":{}},"methodIdentifiers":{"addContributor(uint256,address)":"af3595ba","authorDrafts(address,uint256)":"2ae7773b","authority()":"bf7e214f","communityId()":"7f50861a","communityRegistry()":"a200ac86","contributorDrafts(address,uint256)":"1854f67a","createDraft(uint256,(address[],uint256[],bytes[],bytes32),string)":"af61f45b","escalateToProposal(uint256,bool,uint8,string)":"261f635f","finalizeForProposal(uint256)":"7281f82b","getDraft(uint256)":"a2f79f8e","getDraftsByAuthor(address)":"9d04097a","getDraftsByCommunity()":"d7c24f9e","getDraftsByContributor(address)":"d9c48e3a","getDraftsByRequest(uint256)":"da968fc6","getDraftsCount()":"7ccea359","getReview(uint256,address)":"2101ff65","getReviewSummary(uint256)":"18efb58a","governor()":"0c340a24","isConsumingScheduledOp()":"8fb36037","isContributor(uint256,address)":"9eda7d23","minReviewsForEscalation()":"71f7fecc","removeContributor(uint256,address)":"305a9678","requestDrafts(uint256,uint256)":"3f3da2c7","retractReview(uint256)":"c55354f1","reviewPeriod()":"3b249810","setAuthority(address)":"7a9e5e4b","snapshotVersion(uint256,string)":"66a5e1ad","submitForReview(uint256)":"8a3b37e2","submitReview(uint256,uint8,string)":"74a5b693","supportThresholdBps()":"673ad03f","updateConfiguration(uint256,uint256,uint256)":"c501651a","updateGovernor(address)":"62f384ad","updateProposalOutcome(uint256,uint8)":"ad2df7d8"},"id":16}