{"abi":[{"type":"constructor","inputs":[{"name":"_communityRegistry","type":"address","internalType":"address"},{"name":"_governor","type":"address","internalType":"address"},{"name":"_timelock","type":"address","internalType":"address"}],"stateMutability":"nonpayable"},{"type":"function","name":"addContributor","inputs":[{"name":"draftId","type":"uint256","internalType":"uint256"},{"name":"contributor","type":"address","internalType":"address"}],"outputs":[],"stateMutability":"nonpayable"},{"type":"function","name":"authorDrafts","inputs":[{"name":"","type":"address","internalType":"address"},{"name":"","type":"uint256","internalType":"uint256"}],"outputs":[{"name":"","type":"uint256","internalType":"uint256"}],"stateMutability":"view"},{"type":"function","name":"communityDrafts","inputs":[{"name":"","type":"uint256","internalType":"uint256"},{"name":"","type":"uint256","internalType":"uint256"}],"outputs":[{"name":"","type":"uint256","internalType":"uint256"}],"stateMutability":"view"},{"type":"function","name":"communityRegistry","inputs":[],"outputs":[{"name":"","type":"address","internalType":"address"}],"stateMutability":"view"},{"type":"function","name":"contributorDrafts","inputs":[{"name":"","type":"address","internalType":"address"},{"name":"","type":"uint256","internalType":"uint256"}],"outputs":[{"name":"","type":"uint256","internalType":"uint256"}],"stateMutability":"view"},{"type":"function","name":"createDraft","inputs":[{"name":"communityId","type":"uint256","internalType":"uint256"},{"name":"requestId","type":"uint256","internalType":"uint256"},{"name":"actions","type":"tuple","internalType":"struct DraftsManager.ActionBundle","components":[{"name":"targets","type":"address[]","internalType":"address[]"},{"name":"values","type":"uint256[]","internalType":"uint256[]"},{"name":"calldatas","type":"bytes[]","internalType":"bytes[]"},{"name":"actionsHash","type":"bytes32","internalType":"bytes32"}]},{"name":"versionCID","type":"string","internalType":"string"}],"outputs":[{"name":"draftId","type":"uint256","internalType":"uint256"}],"stateMutability":"nonpayable"},{"type":"function","name":"escalateToProposal","inputs":[{"name":"draftId","type":"uint256","internalType":"uint256"},{"name":"multiChoice","type":"bool","internalType":"bool"},{"name":"numOptions","type":"uint8","internalType":"uint8"},{"name":"description","type":"string","internalType":"string"}],"outputs":[{"name":"proposalId","type":"uint256","internalType":"uint256"}],"stateMutability":"nonpayable"},{"type":"function","name":"finalizeForProposal","inputs":[{"name":"draftId","type":"uint256","internalType":"uint256"}],"outputs":[],"stateMutability":"nonpayable"},{"type":"function","name":"getDraft","inputs":[{"name":"draftId","type":"uint256","internalType":"uint256"}],"outputs":[{"name":"communityId","type":"uint256","internalType":"uint256"},{"name":"requestId","type":"uint256","internalType":"uint256"},{"name":"author","type":"address","internalType":"address"},{"name":"contributors","type":"address[]","internalType":"address[]"},{"name":"actions","type":"tuple","internalType":"struct DraftsManager.ActionBundle","components":[{"name":"targets","type":"address[]","internalType":"address[]"},{"name":"values","type":"uint256[]","internalType":"uint256[]"},{"name":"calldatas","type":"bytes[]","internalType":"bytes[]"},{"name":"actionsHash","type":"bytes32","internalType":"bytes32"}]},{"name":"versionCIDs","type":"string[]","internalType":"string[]"},{"name":"status","type":"uint8","internalType":"enum DraftsManager.DraftStatus"},{"name":"createdAt","type":"uint64","internalType":"uint64"},{"name":"reviewStartedAt","type":"uint64","internalType":"uint64"},{"name":"finalizedAt","type":"uint64","internalType":"uint64"},{"name":"proposalId","type":"uint256","internalType":"uint256"}],"stateMutability":"view"},{"type":"function","name":"getDraftsByAuthor","inputs":[{"name":"author","type":"address","internalType":"address"}],"outputs":[{"name":"","type":"uint256[]","internalType":"uint256[]"}],"stateMutability":"view"},{"type":"function","name":"getDraftsByCommunity","inputs":[{"name":"communityId","type":"uint256","internalType":"uint256"}],"outputs":[{"name":"","type":"uint256[]","internalType":"uint256[]"}],"stateMutability":"view"},{"type":"function","name":"getDraftsByContributor","inputs":[{"name":"contributor","type":"address","internalType":"address"}],"outputs":[{"name":"","type":"uint256[]","internalType":"uint256[]"}],"stateMutability":"view"},{"type":"function","name":"getDraftsByRequest","inputs":[{"name":"requestId","type":"uint256","internalType":"uint256"}],"outputs":[{"name":"","type":"uint256[]","internalType":"uint256[]"}],"stateMutability":"view"},{"type":"function","name":"getDraftsCount","inputs":[],"outputs":[{"name":"","type":"uint256","internalType":"uint256"}],"stateMutability":"view"},{"type":"function","name":"getReview","inputs":[{"name":"draftId","type":"uint256","internalType":"uint256"},{"name":"reviewer","type":"address","internalType":"address"}],"outputs":[{"name":"reviewType","type":"uint8","internalType":"enum DraftsManager.ReviewType"},{"name":"reasonCID","type":"string","internalType":"string"},{"name":"timestamp","type":"uint64","internalType":"uint64"},{"name":"isActive","type":"bool","internalType":"bool"}],"stateMutability":"view"},{"type":"function","name":"getReviewSummary","inputs":[{"name":"draftId","type":"uint256","internalType":"uint256"}],"outputs":[{"name":"supportCount","type":"uint256","internalType":"uint256"},{"name":"opposeCount","type":"uint256","internalType":"uint256"},{"name":"neutralCount","type":"uint256","internalType":"uint256"},{"name":"requestChangesCount","type":"uint256","internalType":"uint256"},{"name":"totalReviews","type":"uint256","internalType":"uint256"}],"stateMutability":"view"},{"type":"function","name":"governor","inputs":[],"outputs":[{"name":"","type":"address","internalType":"address"}],"stateMutability":"view"},{"type":"function","name":"isContributor","inputs":[{"name":"draftId","type":"uint256","internalType":"uint256"},{"name":"contributor","type":"address","internalType":"address"}],"outputs":[{"name":"","type":"bool","internalType":"bool"}],"stateMutability":"view"},{"type":"function","name":"minReviewsForEscalation","inputs":[],"outputs":[{"name":"","type":"uint256","internalType":"uint256"}],"stateMutability":"view"},{"type":"function","name":"removeContributor","inputs":[{"name":"draftId","type":"uint256","internalType":"uint256"},{"name":"contributor","type":"address","internalType":"address"}],"outputs":[],"stateMutability":"nonpayable"},{"type":"function","name":"requestDrafts","inputs":[{"name":"","type":"uint256","internalType":"uint256"},{"name":"","type":"uint256","internalType":"uint256"}],"outputs":[{"name":"","type":"uint256","internalType":"uint256"}],"stateMutability":"view"},{"type":"function","name":"retractReview","inputs":[{"name":"draftId","type":"uint256","internalType":"uint256"}],"outputs":[],"stateMutability":"nonpayable"},{"type":"function","name":"reviewPeriod","inputs":[],"outputs":[{"name":"","type":"uint256","internalType":"uint256"}],"stateMutability":"view"},{"type":"function","name":"snapshotVersion","inputs":[{"name":"draftId","type":"uint256","internalType":"uint256"},{"name":"newVersionCID","type":"string","internalType":"string"}],"outputs":[],"stateMutability":"nonpayable"},{"type":"function","name":"submitForReview","inputs":[{"name":"draftId","type":"uint256","internalType":"uint256"}],"outputs":[],"stateMutability":"nonpayable"},{"type":"function","name":"submitReview","inputs":[{"name":"draftId","type":"uint256","internalType":"uint256"},{"name":"reviewType","type":"uint8","internalType":"enum DraftsManager.ReviewType"},{"name":"reasonCID","type":"string","internalType":"string"}],"outputs":[],"stateMutability":"nonpayable"},{"type":"function","name":"supportThresholdBps","inputs":[],"outputs":[{"name":"","type":"uint256","internalType":"uint256"}],"stateMutability":"view"},{"type":"function","name":"timelock","inputs":[],"outputs":[{"name":"","type":"address","internalType":"address"}],"stateMutability":"view"},{"type":"function","name":"updateConfiguration","inputs":[{"name":"newReviewPeriod","type":"uint256","internalType":"uint256"},{"name":"newMinReviews","type":"uint256","internalType":"uint256"},{"name":"newSupportThreshold","type":"uint256","internalType":"uint256"}],"outputs":[],"stateMutability":"nonpayable"},{"type":"function","name":"updateGovernor","inputs":[{"name":"newGovernor","type":"address","internalType":"address"}],"outputs":[],"stateMutability":"nonpayable"},{"type":"function","name":"updateProposalOutcome","inputs":[{"name":"draftId","type":"uint256","internalType":"uint256"},{"name":"outcome","type":"uint8","internalType":"enum DraftsManager.DraftStatus"}],"outputs":[],"stateMutability":"nonpayable"},{"type":"event","name":"ConfigurationUpdated","inputs":[{"name":"reviewPeriod","type":"uint256","indexed":false,"internalType":"uint256"},{"name":"minReviewsForEscalation","type":"uint256","indexed":false,"internalType":"uint256"},{"name":"supportThresholdBps","type":"uint256","indexed":false,"internalType":"uint256"}],"anonymous":false},{"type":"event","name":"ContributorAdded","inputs":[{"name":"draftId","type":"uint256","indexed":true,"internalType":"uint256"},{"name":"contributor","type":"address","indexed":true,"internalType":"address"},{"name":"addedBy","type":"address","indexed":true,"internalType":"address"}],"anonymous":false},{"type":"event","name":"ContributorRemoved","inputs":[{"name":"draftId","type":"uint256","indexed":true,"internalType":"uint256"},{"name":"contributor","type":"address","indexed":true,"internalType":"address"},{"name":"removedBy","type":"address","indexed":true,"internalType":"address"}],"anonymous":false},{"type":"event","name":"DraftCreated","inputs":[{"name":"draftId","type":"uint256","indexed":true,"internalType":"uint256"},{"name":"communityId","type":"uint256","indexed":true,"internalType":"uint256"},{"name":"requestId","type":"uint256","indexed":true,"internalType":"uint256"},{"name":"author","type":"address","indexed":false,"internalType":"address"},{"name":"actionsHash","type":"bytes32","indexed":false,"internalType":"bytes32"},{"name":"versionCID","type":"string","indexed":false,"internalType":"string"}],"anonymous":false},{"type":"event","name":"DraftStatusChanged","inputs":[{"name":"draftId","type":"uint256","indexed":true,"internalType":"uint256"},{"name":"oldStatus","type":"uint8","indexed":false,"internalType":"enum DraftsManager.DraftStatus"},{"name":"newStatus","type":"uint8","indexed":false,"internalType":"enum DraftsManager.DraftStatus"},{"name":"changedBy","type":"address","indexed":true,"internalType":"address"}],"anonymous":false},{"type":"event","name":"GovernorUpdated","inputs":[{"name":"oldGovernor","type":"address","indexed":true,"internalType":"address"},{"name":"newGovernor","type":"address","indexed":true,"internalType":"address"}],"anonymous":false},{"type":"event","name":"ProposalEscalated","inputs":[{"name":"draftId","type":"uint256","indexed":true,"internalType":"uint256"},{"name":"proposalId","type":"uint256","indexed":true,"internalType":"uint256"},{"name":"isMultiChoice","type":"bool","indexed":false,"internalType":"bool"},{"name":"numOptions","type":"uint8","indexed":false,"internalType":"uint8"}],"anonymous":false},{"type":"event","name":"ProposalOutcomeUpdated","inputs":[{"name":"draftId","type":"uint256","indexed":true,"internalType":"uint256"},{"name":"proposalId","type":"uint256","indexed":true,"internalType":"uint256"},{"name":"outcome","type":"uint8","indexed":false,"internalType":"enum DraftsManager.DraftStatus"}],"anonymous":false},{"type":"event","name":"ReviewRetracted","inputs":[{"name":"draftId","type":"uint256","indexed":true,"internalType":"uint256"},{"name":"reviewer","type":"address","indexed":true,"internalType":"address"}],"anonymous":false},{"type":"event","name":"ReviewSubmitted","inputs":[{"name":"draftId","type":"uint256","indexed":true,"internalType":"uint256"},{"name":"reviewer","type":"address","indexed":true,"internalType":"address"},{"name":"reviewType","type":"uint8","indexed":false,"internalType":"enum DraftsManager.ReviewType"},{"name":"reasonCID","type":"string","indexed":false,"internalType":"string"}],"anonymous":false},{"type":"event","name":"VersionSnapshot","inputs":[{"name":"draftId","type":"uint256","indexed":true,"internalType":"uint256"},{"name":"versionNumber","type":"uint256","indexed":false,"internalType":"uint256"},{"name":"versionCID","type":"string","indexed":false,"internalType":"string"},{"name":"contributor","type":"address","indexed":true,"internalType":"address"}],"anonymous":false},{"type":"error","name":"AlreadyReviewed","inputs":[{"name":"reviewer","type":"address","internalType":"address"}]},{"type":"error","name":"ContributorAlreadyExists","inputs":[{"name":"contributor","type":"address","internalType":"address"}]},{"type":"error","name":"ContributorNotFound","inputs":[{"name":"contributor","type":"address","internalType":"address"}]},{"type":"error","name":"DraftNotFound","inputs":[{"name":"draftId","type":"uint256","internalType":"uint256"}]},{"type":"error","name":"InsufficientReviews","inputs":[{"name":"current","type":"uint256","internalType":"uint256"},{"name":"required","type":"uint256","internalType":"uint256"}]},{"type":"error","name":"InsufficientSupport","inputs":[{"name":"supportBps","type":"uint256","internalType":"uint256"},{"name":"requiredBps","type":"uint256","internalType":"uint256"}]},{"type":"error","name":"InvalidInput","inputs":[{"name":"reason","type":"string","internalType":"string"}]},{"type":"error","name":"InvalidStatus","inputs":[{"name":"current","type":"uint8","internalType":"enum DraftsManager.DraftStatus"},{"name":"required","type":"uint8","internalType":"enum DraftsManager.DraftStatus"}]},{"type":"error","name":"NotAuthorized","inputs":[{"name":"user","type":"address","internalType":"address"}]},{"type":"error","name":"ReviewPeriodNotMet","inputs":[{"name":"timeRemaining","type":"uint256","internalType":"uint256"}]},{"type":"error","name":"ZeroAddress","inputs":[]}],"bytecode":{"object":"0x60c0346200011857601f620033ba38819003918201601f19168301916001600160401b038311848410176200011c5780849260609460405283398101031262000118576200004d8162000130565b620000696040620000616020850162000130565b930162000130565b6203f48060025560038055611770600455916001600160a01b03918083161580156200010d575b801562000102575b620000f0576080521660018060a01b03195f5416175f5560a05260405161327490816200014682396080518181816101f0015281816115060152612fc0015260a051818181610c5401528181610e7001526120110152f35b60405163d92e233d60e01b8152600490fd5b508284161562000098565b508282161562000090565b5f80fd5b634e487b7160e01b5f52604160045260245ffd5b51906001600160a01b0382168203620001185756fe6080806040526004361015610012575f80fd5b5f3560e01c9081630c340a241461286f575080631306454a1461283b5780631854f67a146127f557806318efb58a146127935780632101ff65146126e4578063261f635f1461231b5780632ae7773b146122d5578063305a9678146120d15780633b249810146120b45780633f3da2c71461208557806362f384ad14611fec57806366a5e1ad14611e6a578063673ad03f14611e4d57806371f7fecc14611e305780637281f82b14611bed57806374a5b693146117b357806379d60fee146117765780637ccea359146117595780638a3b37e2146115e15780639d04097a1461159f5780639eda7d231461152a578063a200ac86146114e7578063a2f79f8e146111e6578063ad2df7d814611167578063af3595ba14610f6c578063c501651a14610e54578063c55354f114610c78578063d33219b414610c35578063d9c48e3a14610bf3578063da968fc614610ba85763f5fc985514610171575f80fd5b346106b8576003196080368201126106b85767ffffffffffffffff604435116106b857608090604435360301126106b85760643567ffffffffffffffff81116106b8576101c2903690600401612974565b8015610b6257604051631f061c6960e31b815260043560048201526101c09081816024816001600160a01b037f0000000000000000000000000000000000000000000000000000000000000000165afa908115610ae5576001600160a01b03916040915f91610b35575b50015116908115610af057602435610884575b506102519050600460443501806131e7565b90506102676024604435016044356004016131e7565b91905014801590610855575b61081057610286600460443501806131e7565b9061029b6024604435016044356004016131e7565b6102ae60448035016044356004016131e7565b91604051958060808801606060208a01525260a0870195905f905b8082106107e557505050858503601f190160408701528085527f07ffffffffffffffffffffffffffffffffffffffffffffffffffffffffffffff81116106b857918593919260051b809260208701378482018481036060860152602081018290529294600582901b840160409081019401925f9187915b84841061077e578b8b8961035d818b03601f198101835282612a75565b602081519101209160015491600160401b831015610731576001830160015561038583612a97565b50600480358255602435600183015560028201805473ffffffffffffffffffffffffffffffffffffffff1916331790556103c39060443501806131e7565b9067ffffffffffffffff821161073157600160401b8211610731576004830180548382556103f39184919061321d565b90600483015f5260205f20915f905b82821061075957505050506104216024604435016044356004016131e7565b9067ffffffffffffffff821161073157600160401b8211610731576005830180548382556104519184919061321d565b600583015f5260205f205f5b838110610745575050505061047b60448035016044356004016131e7565b600160401b81116107315760068301548160068501558082106106bc575b5081600684015f5260205f205f915b8383106105915750505050507f8790ca50c31e8b011ca44d51858f6930ec87a1cb1712aa45474b5cf66d0a2a4d85610511848660088660209b60078c99015560098101805468ffffffffffffffff0042851b169068ffffffffffffffffff191617905501612cc4565b6004355f52600587526105278360405f2061314d565b602435610576575b335f52600787526105438360405f2061314d565b6040519033825287820152606060408201528061056b60243596600435966060840191612c3c565b0390a4604051908152f35b6024355f526006875261058c8360405f2061314d565b61052f565b8035601e19863603018112156106b85767ffffffffffffffff81870135116106b857808601353603602082880101136106b8576105db818701356105d58554612ad0565b85612c7f565b5f90601f81880135116001146106365760019261061884936020935f91818c0135610627575b508a0135908160011b915f199060031b1c19161790565b85555b019201920191906104a8565b8b82010185013591505f610601565b9086601f19838201351691855f5260205f20925f5b81811061069a5750936020938360019794938897848996013511610679575b5090500135811b01855561061b565b8690845f1960f88286013560031b161c1993010101351690558f8a8161066a565b6020938601830184013585556001909401938a93928301920161064b565b5f80fd5b600684015f5260205f20908282015b81830181106106db575050610499565b806106e860019254612ad0565b806106f5575b50016106cb565b601f90818111841461070d5750505f81555b8b6106ee565b6107285f9284845260208420920160051c8201858301612c69565b81835555610707565b634e487b7160e01b5f52604160045260245ffd5b60019060208435940193818401550161045d565b8035916001600160a01b03831683036106b85760206001920192818601550190610402565b9193959092949650603f1982840182030187528735601e19853603018112156106b8578401906020823592019167ffffffffffffffff81116106b85780360383136106b8576107d36020928392600195612c3c565b99019701940191889697959391610340565b9091968735906001600160a01b0382168092036106b8576020816001938293520198019201906102c9565b606460405163d647364f60e01b815260206004820152601760248201527f416374696f6e73206c656e677468206d69736d617463680000000000000000006044820152fd5b50610865600460443501806131e7565b905061087a60448035016044356004016131e7565b9190501415610273565b5f602492604051938480927fc58343ef000000000000000000000000000000000000000000000000000000008252823560048301525afa8015610ae5571561023f573d91825f823e6108d68382612a75565b60208184810103126106b85780519167ffffffffffffffff83116106b85782820184830103126106b8576040519261090d84612a58565b8183018051855261092090602001612e5a565b60208501526040838301015167ffffffffffffffff81116106b85761094c90828401908585010161318d565b60408501526060838301015167ffffffffffffffff81116106b85761097890828401908585010161318d565b60608501526080838301015160038110156106b85760808501526109a060a0848401016131d2565b60a08501526109b360c0848401016131d2565b60c085015260e083830101519067ffffffffffffffff82116106b857808301601f83868601010112156106b8578184840101516109ef81612e42565b926109fd6040519485612a75565b8184526020840183860160208460051b848a8a01010101116106b8576020828888010101905b60208460051b848a8a010101018210610aab57505050505060e084015261010080838301015190840152610120610a5d8184840101612e5a565b90840152808201610140818101519085015261016080820151908501526101809081015190919080151581036106b857610aa1928501526101a09283910101612e5a565b9101525f8061023f565b81519067ffffffffffffffff82116106b8576020809291610ad88a838095898f8d8501940101010161318d565b8152019201919050610a23565b6040513d5f823e3d90fd5b606460405163d647364f60e01b815260206004820152601260248201527f52657175657374487562206e6f742073657400000000000000000000000000006044820152fd5b610b559150843d8611610b5b575b610b4d8183612a75565b810190612e6e565b5f61022c565b503d610b43565b60405163d647364f60e01b815260206004820152601b60248201527f56657273696f6e204349442063616e6e6f7420626520656d70747900000000006044820152606490fd5b346106b85760203660031901126106b8576004355f526006602052610bef610bdc610be360405f2060405192838092612a01565b0382612a75565b60405191829182612891565b0390f35b346106b85760203660031901126106b8576001600160a01b03610c146128cc565b165f526008602052610bef610bdc610be360405f2060405192838092612a01565b346106b8575f3660031901126106b85760206040516001600160a01b037f0000000000000000000000000000000000000000000000000000000000000000168152f35b346106b85760203660031901126106b857600435600154811015610e3c5760ff6009610ca383612a97565b500154166006811015610daa5760018103610e155750610cc281612a97565b50600b810190335f526010810160205260405f209081546001600160a01b038116158015610e03575b610dbe5760a01c60ff16906004821015610daa57600293600f9280610d5e5750610d158154613181565b90555b01610d238154613181565b905501805468ff00000000000000001916905533907f12e54cb43c69e66621df1300fe1eb277b76f51a76d8fcfe36419d944e22fc1a75f80a3005b905060018103610d7f5750600c8101610d778154613181565b90555b610d18565b808503610d955750600d8101610d778154613181565b600303610d7a57600e8101610d778154613181565b634e487b7160e01b5f52602160045260245ffd5b606460405163d647364f60e01b815260206004820152601b60248201527f4e6f206163746976652072657669657720746f207265747261637400000000006044820152fd5b5060ff600284015460401c1615610ceb565b604490610e336040519163f924664d60e01b835260048301906129f4565b60016024820152fd5b6024906040519063c41d418b60e01b82526004820152fd5b346106b85760603660031901126106b8576044356024356004357f00000000000000000000000000000000000000000000000000000000000000006001600160a01b03163303610f55576127108311610eeb577fd1df9ea585fa96cacfd37b45876312d2c04c0f6bf740539becffbec7e81822be9260609282600255806003558160045560405192835260208301526040820152a1005b608460405163d647364f60e01b8152602060048201526024808201527f537570706f7274207468726573686f6c642063616e6e6f74206578636565642060448201527f31303025000000000000000000000000000000000000000000000000000000006064820152fd5b6024604051634a0bfec160e01b8152336004820152fd5b346106b85760403660031901126106b857600435610f886128e2565b60015482101561114f57610f9b82612a97565b50906001600160a01b0391826002820154163314159081611135575b50610f555760ff6009610fc985612a97565b500154166006811015610daa578061110f57508181169182156110e557610fef84612a97565b5090600282015416831480156110cd575b61109c576003810191825490600160401b8210156107315761102d82601195600161104c950181556128f8565b9091906001600160a01b038084549260031b9316831b921b1916179055565b825f520160205260405f20600160ff1982541617905560086020526110748260405f2061314d565b33917f1edd8eba933bb6abe13c18ee5bd22bf6d3886540e4a22b288af4c11dbda8196b5f80a4005b602483604051907fc0db7ecd0000000000000000000000000000000000000000000000000000000082526004820152fd5b50825f526011810160205260ff60405f205416611000565b60046040517fd92e233d000000000000000000000000000000000000000000000000000000008152fd5b60449061112d6040519163f924664d60e01b835260048301906129f4565b5f6024820152fd5b60119150335f520160205260ff60405f2054161584610fb7565b6024826040519063c41d418b60e01b82526004820152fd5b346106b85760403660031901126106b85760043560243560068110156106b85760015482101561114f5760ff600961119e84612a97565b50015416916006831015610daa57600383036111c0576111be9250612f78565b005b60405163f924664d60e01b81526044906111dd60048201866129f4565b60036024820152fd5b346106b85760203660031901126106b8576004355f606060405161120981612a3c565b8181528160208201528160408201520152600154811015610e3c5761122d90612a97565b508054906001810154906001600160a01b03600282015416600982015493600a8301549161125d60038501612deb565b6040519261126a84612a3c565b61127660048701612deb565b845260405161128c81610bdc8160058b01612a01565b60208501526006860180546112a081612e42565b916112ae6040519384612a75565b81835260208301905f5260205f205f915b8383106114c257505050506040850152600786015460608501526008860154926112e884612e42565b936112f66040519586612a75565b8085526020850160088199015f5260205f205f915b83831061149d57505050509061133e929160405198610160928a5260208a015260408901528060608901528701906129b8565b858103608087015261135983516080835260808301906129b8565b926020810151938281036020840152602080865192838152019501905f5b818110611487575050506040810151938281036040840152845180825260208201916020808360051b8301019701925f915b83831061145a57505050505060608091015191015284820360a086015251808252602082019160208260051b82010194925f915b83831061142d578780888867ffffffffffffffff8d61140260c0860160ff83166129f4565b818160081c1660e0860152818160481c1661010086015260881c166101208401526101408301520390f35b909192939560208061144b600193601f198682030187528a5161294f565b980193019301919392906113dd565b9091929397602080611478600193601f198682030187528c5161294f565b9a0193019301919392906113a9565b8251875260209687019690920191600101611377565b6001602081926040516114b481610bdc8189612b08565b81520192019201919061130b565b6001602081926040516114d981610bdc8189612b08565b8152019201920191906112bf565b346106b8575f3660031901126106b85760206040516001600160a01b037f0000000000000000000000000000000000000000000000000000000000000000168152f35b346106b85760403660031901126106b8576004356115466128e2565b90600154811015610e3c5761155a90612a97565b506001600160a01b03806002830154169216809214918215611584575b6020836040519015158152f35b601192505f5201602052602060ff60405f2054169082611577565b346106b85760203660031901126106b8576001600160a01b036115c06128cc565b165f526007602052610bef610bdc610be360405f2060405192838092612a01565b346106b85760203660031901126106b857600435600154811015610e3c5761160881612a97565b506001600160a01b03600282015416331415908161173f575b50610f555760ff600961163383612a97565b500154166006811015610daa578061110f575061164f81612a97565b506008810154156116d557600901600181547fffffffffffffffffffffffffffffff0000000000000000ffffffffffffffff0070ffffffffffffffff0000000000000000004260481b16911617179055604051905f8252600160208301527ff7fa3caad94fe12c60166546c7c4bda02955b0fbba7ac35eeb843d49d885e2a360403393a3005b608460405163d647364f60e01b8152602060048201526024808201527f4472616674206d7573742068617665206174206c65617374206f6e652076657260448201527f73696f6e000000000000000000000000000000000000000000000000000000006064820152fd5b60119150335f520160205260ff60405f2054161582611621565b346106b8575f3660031901126106b8576020600154604051908152f35b346106b857611784366129a2565b905f52600560205260405f2080548210156106b8576020916117a5916128f8565b90546040519160031b1c8152f35b346106b85760603660031901126106b857600460243510156106b85760443567ffffffffffffffff81116106b8576117ef903690600401612974565b906001546004351015611bd45760ff600961180b600435612a97565b500154166006811015610daa5760018103610e15575061182c600435612a97565b50916001600160a01b03928360028201541633148015611bbc575b611b515760108101335f52806020528460405f205416611b21576040519060a0820182811067ffffffffffffffff8211176107315760405233825260208201602435815261189485612dc1565b916118a26040519384612a75565b85835236868801116106b857858760208501375f602087850101526040840192835267ffffffffffffffff4216606085015260016080850152335f5260205260405f2096835116875491516004811015610daa5774ff00000000000000000000000000000000000000007fffffffffffffffffffffff0000000000000000000000000000000000000000009160a01b169216171786555194855167ffffffffffffffff8111610731576119658161195c6001850154612ad0565b60018501612c7f565b6020601f8211600114611aaf57816002939261199b92600f98999a5f92611aa4575b50508160011b915f199060031b1c19161790565b60018201555b019067ffffffffffffffff60608201511668ff000000000000000060808454930151151560401b169168ffffffffffffffffff191617179055602435155f14611a54576119f1600b820154612ddd565b600b8201555b01611a028154612ddd565b90557f1d4e9183da763b1e285cbd17de8d69818200b71822bc1d67e368eaadde895f1c604051611a3481602435612921565b6040602082015280611a4f3395600435956040840191612c3c565b0390a3005b602435600103611a7457600c8101611a6c8154612ddd565b90555b6119f7565b602435600203611a8c57600d8101611a6c8154612ddd565b600360243503611a6f57600e8101611a6c8154612ddd565b015190508a80611987565b600183015f5260205f20975f5b601f1984168110611b09575091600f9697986001926002959483601f19811610611af1575b505050811b0160018201556119a1565b01515f1960f88460031b161c19169055898080611ae1565b828201518a5560019099019860209283019201611abc565b60246040517fcfa761e4000000000000000000000000000000000000000000000000000000008152336004820152fd5b608460405163d647364f60e01b815260206004820152602a60248201527f436f6e7472696275746f72732063616e6e6f742072657669657720746865697260448201527f206f776e206472616674000000000000000000000000000000000000000000006064820152fd5b50335f526011810160205260ff60405f205416611847565b602460405163c41d418b60e01b81526004356004820152fd5b346106b85760203660031901126106b857600435600154811015610e3c57611c1481612a97565b506001600160a01b036002820154163314159081611e16575b50610f555760ff6009611c3f83612a97565b500154166006811015610daa5760018103610e155750611c5e81612a97565b506009810190815490611c7e67ffffffffffffffff8360481c1642612c5c565b600254808210611ddc575050600f81015490600354808310611da55750600b015461271090818102918183041490151715611d91578115611d7d5704600454808210611d465750506002907fffffffffffffff0000000000000000ffffffffffffffffffffffffffffffff0078ffffffffffffffff00000000000000000000000000000000004260881b169116171790556040519060018252600260208301527ff7fa3caad94fe12c60166546c7c4bda02955b0fbba7ac35eeb843d49d885e2a360403393a3005b60449250604051917fc7effce900000000000000000000000000000000000000000000000000000000835260048301526024820152fd5b634e487b7160e01b5f52601260045260245ffd5b634e487b7160e01b5f52601160045260245ffd5b82604491604051917febd82d0200000000000000000000000000000000000000000000000000000000835260048301526024820152fd5b602491611de891612c5c565b604051907f60b2716e0000000000000000000000000000000000000000000000000000000082526004820152fd5b60119150335f520160205260ff60405f2054161582611c2d565b346106b8575f3660031901126106b8576020600354604051908152f35b346106b8575f3660031901126106b8576020600454604051908152f35b346106b85760403660031901126106b8576024600435813567ffffffffffffffff81116106b857611e9f903690600401612974565b92600154831015611fd657611eb383612a97565b506001600160a01b036002820154163314159081611fbc575b50611fa75760ff6009611ede85612a97565b500154166006811015611f945780611f7057508315610b62576008611f0284612a97565b5001611f0f858483612cc4565b545f19810191908211611f5e5750907f515e8cd3bc65e597ecd44560be0bdf9a836cc9218e3ca0b1d6cfbb2baa0f8fce91611a4f60405192839283526040602084015233966040840191612c3c565b634e487b7160e01b5f5260116004525ffd5b5f604492611f8f6040519363f924664d60e01b855260048501906129f4565b820152fd5b50634e487b7160e01b5f5260216004525ffd5b604051634a0bfec160e01b8152336004820152fd5b60119150335f520160205260ff60405f2054161585611ecc565b826040519063c41d418b60e01b82526004820152fd5b346106b85760203660031901126106b8576120056128cc565b6001600160a01b0390817f0000000000000000000000000000000000000000000000000000000000000000163303610f555781169081156110e5575f548273ffffffffffffffffffffffffffffffffffffffff198216175f55167f5af6a85e864342d4f108c43dd574d98480c91f1de0ac2a9f66d826dee49bd9bb5f80a3005b346106b857612093366129a2565b905f52600660205260405f2080548210156106b8576020916117a5916128f8565b346106b8575f3660031901126106b8576020600254604051908152f35b346106b85760403660031901126106b8576004356120ed6128e2565b6001906001548310156122bd5761210383612a97565b50916001600160a01b03928360028201541633141590816122a3575b50610f555760ff600961213186612a97565b500154166006811015610daa578061110f575061214d84612a97565b5060118460118301941694855f528460205260ff60405f2054161561227257909291600391908201905f845b6121bb575b888888815f5260205260405f2060ff19815416905533917f9faf0bd600a8424364aa473fce68c7a603750bcd52a4dc12dd7a69cc7b160b015f80a4005b82548082101561226c5788836121d184876128f8565b905490881b1c16146121e65750840184612179565b939592945090925f199283820191821161225a57509061102d8461220d61221b94886128f8565b905490891b1c1691866128f8565b8254801561224657019261222f84846128f8565b81939154921b1b191690555583808080808061217e565b634e487b7160e01b5f52603160045260245ffd5b634e487b7160e01b5f5260045260245ffd5b5061217e565b602486604051907fd3cedf290000000000000000000000000000000000000000000000000000000082526004820152fd5b60119150335f520160205260ff60405f205416158561211f565b6024836040519063c41d418b60e01b82526004820152fd5b346106b85760403660031901126106b8576122ee6128cc565b6001600160a01b0360243591165f52600760205260405f2080548210156106b8576020916117a5916128f8565b346106b8576003196080368201126106b857600435602491823592831515918285036106b8576044359160ff83168093036106b85760643567ffffffffffffffff81116106b857612370903690600401612974565b6001939193548710156126cd5761238687612a97565b506001600160a01b03908160028201541633141590816126b3575b5061269d5760ff60096123b38a612a97565b50015416600681101561268a576002810361266957506123d288612a97565b5080995f1461258857506002861061251d575f6020946124736006958c989561245395855416966124646040519b8c9a8b998a987fe947708a000000000000000000000000000000000000000000000000000000008a5260a060048b015261244060a48b0160048601612b99565b90888b830301908b015260058401612a01565b91868984030160448a015201612bdd565b92858403016064860152612c3c565b88608483015203925af1908115610ae5575f916124e0575b50604060209593600a95937ff5f3c022abf1448d67e8a9325eb16a6c9274e802b0d204940a1ac39f7f5d15e293809781975b60098101805460ff191660031790550155825191825287820152a3604051908152f35b9492939190506020853d602011612515575b816124ff60209383612a75565b810103126106b85793519193909291604061248b565b3d91506124f2565b60848460286040519163d647364f60e01b8352602060048401528201527f4d756c74692d63686f696365207265717569726573206174206c65617374203260448201527f206f7074696f6e730000000000000000000000000000000000000000000000006064820152fd5b94916020946125e46006955f9361245395855416966124646040519b8c9a8b998a987f7d5e81e2000000000000000000000000000000000000000000000000000000008a52608060048b015261244060848b0160048601612b99565b03925af1908115610ae5575f9161262c575b50604060209593600a95937ff5f3c022abf1448d67e8a9325eb16a6c9274e802b0d204940a1ac39f7f5d15e293809781976124bd565b9492939190506020853d602011612661575b8161264b60209383612a75565b810103126106b8579351919390929160406125f6565b3d915061263e565b604490600286611f8f6040519363f924664d60e01b855260048501906129f4565b84634e487b7160e01b5f5260216004525ffd5b83604051634a0bfec160e01b8152336004820152fd5b60119150335f520160205260ff60405f205416158a6123a1565b82876040519063c41d418b60e01b82526004820152fd5b346106b85760403660031901126106b8576004356127006128e2565b60015482101561114f576001600160a01b0361271d601093612a97565b5091165f520160205261276260405f2060ff815460a01c169060ff6127736001612756600285015494610bdc6040518094819301612b08565b60405195868096612921565b60806020860152608085019061294f565b9167ffffffffffffffff8116604085015260401c16151560608301520390f35b346106b85760203660031901126106b857600435600154811015610e3c576127bc60a091612a97565b50600b81015490600c81015490600d810154600f600e830154920154926040519485526020850152604084015260608301526080820152f35b346106b85760403660031901126106b85761280e6128cc565b6001600160a01b0360243591165f52600860205260405f2080548210156106b8576020916117a5916128f8565b346106b85760203660031901126106b8576004355f526005602052610bef610bdc610be360405f2060405192838092612a01565b346106b8575f3660031901126106b8576020906001600160a01b035f54168152f35b60209060206040818301928281528551809452019301915f5b8281106128b8575050505090565b8351855293810193928101926001016128aa565b600435906001600160a01b03821682036106b857565b602435906001600160a01b03821682036106b857565b805482101561290d575f5260205f2001905f90565b634e487b7160e01b5f52603260045260245ffd5b906004821015610daa5752565b5f5b83811061293f5750505f910152565b8181015183820152602001612930565b906020916129688151809281855285808601910161292e565b601f01601f1916010190565b9181601f840112156106b85782359167ffffffffffffffff83116106b857602083818601950101116106b857565b60409060031901126106b8576004359060243590565b9081518082526020808093019301915f5b8281106129d7575050505090565b83516001600160a01b0316855293810193928101926001016129c9565b906006821015610daa5752565b9081548082526020809201925f5260205f20915f905b828210612a25575050505090565b835485529384019360019384019390910190612a17565b6080810190811067ffffffffffffffff82111761073157604052565b6101c0810190811067ffffffffffffffff82111761073157604052565b90601f8019910116810190811067ffffffffffffffff82111761073157604052565b60015481101561290d5760129060015f52027fb10e2d527612073b26eecdfd717e6a320cf44b4afac2b0732d9fcbe2b7fa0cf601905f90565b90600182811c92168015612afe575b6020831014612aea57565b634e487b7160e01b5f52602260045260245ffd5b91607f1691612adf565b80545f9392612b1682612ad0565b918282526020936001916001811690815f14612b7a5750600114612b3c575b5050505050565b90939495505f92919252835f2092845f945b838610612b6657505050500101905f80808080612b35565b805485870183015294019385908201612b4e565b60ff19168685015250505090151560051b010191505f80808080612b35565b9081548082526020809201925f5260205f20915f905b828210612bbd575050505090565b83546001600160a01b031685529384019360019384019390910190612baf565b908082549081815260208091019260208360051b820101945f5260205f20935f915b848310612c0f5750505050505090565b909192939495846001612c2c8193601f198682030187528a612b08565b9801930193019194939290612bff565b908060209392818452848401375f828201840152601f01601f1916010190565b91908203918211611d9157565b818110612c74575050565b5f8155600101612c69565b9190601f8111612c8e57505050565b612cb8925f5260205f20906020601f840160051c83019310612cba575b601f0160051c0190612c69565b565b9091508190612cab565b92918354600160401b81101561073157612ce6906001956001820181556128f8565b929092612dae5767ffffffffffffffff821161073157612d0a826105d58554612ad0565b5f94601f8311600114612d495750612d3a92939482915f92612d3e5750508160011b915f199060031b1c19161790565b9055565b013590505f80611987565b90601f19831695845f5260209260205f20935f915b898310612d975750505083600195969710612d7e575b505050811b019055565b01355f19600384901b60f8161c191690555f8080612d74565b848401358655948501949281019291810191612d5e565b634e487b7160e01b5f525f60045260245ffd5b67ffffffffffffffff811161073157601f01601f191660200190565b5f198114611d915760010190565b90604051918281549182825260209260208301915f5260205f20935f905b828210612e1f57505050612cb892500383612a75565b85546001600160a01b031684526001958601958895509381019390910190612e09565b67ffffffffffffffff81116107315760051b60200190565b51906001600160a01b03821682036106b857565b90816101c09103126106b85760405190612e8782612a58565b612e9081612e5a565b8252612e9e60208201612e5a565b6020830152612eaf60408201612e5a565b6040830152612ec060608201612e5a565b6060830152612ed160808201612e5a565b6080830152612ee260a08201612e5a565b60a0830152612ef360c08201612e5a565b60c0830152612f0460e08201612e5a565b60e0830152610100612f17818301612e5a565b90830152610120612f29818301612e5a565b90830152610140612f3b818301612e5a565b90830152610160612f4d818301612e5a565b90830152610180612f5f818301612e5a565b90830152612f716101a0809201612e5a565b9082015290565b90612f8282612a97565b506001600160a01b0390816002820154163314801561307a575b61306f575460405190631f061c6960e31b825260048201526101c0908181602481867f0000000000000000000000000000000000000000000000000000000000000000165afa908115610ae5576020925f92613052575b5050015116801561300d573303610f5557612cb891613092565b606460405163d647364f60e01b815260206004820152601060248201527f54696d656c6f636b206e6f7420736574000000000000000000000000000000006044820152fd5b6130689250803d10610b5b57610b4d8183612a75565b5f80612ff3565b5050612cb891613092565b50335f526011810160205260ff60405f205416612f9c565b6006821015610daa57600482141580613142575b6130fd577ff8565e1fcefe8730946b9a0b3b21656f89a6775423cd6b879c1b5ab9871bcace6020600a6130d884612a97565b506009810160ff1981541660ff88161790550154936130fa60405180926129f4565ba3565b606460405163d647364f60e01b815260206004820152601b60248201527f4f7574636f6d65206d75737420626520574f4e206f72204c4f535400000000006044820152fd5b5060058214156130a6565b8054600160401b8110156107315761316a916001820181556128f8565b819291549060031b91821b915f19901b1916179055565b8015611d91575f190190565b81601f820112156106b85780516131a381612dc1565b926131b16040519485612a75565b818452602082840101116106b8576131cf916020808501910161292e565b90565b519067ffffffffffffffff821682036106b857565b903590601e19813603018212156106b8570180359067ffffffffffffffff82116106b857602001918160051b360383136106b857565b9181811061322a57505050565b612cb8925f5260205f209182019101612c6956fea2646970667358221220c0988ffc261c9db97872220581a32e2f87b66a4513994f1852470c4a4c6ca57964736f6c63430008180033","linkReferences":{}},"methodIdentifiers":{"addContributor(uint256,address)":"af3595ba","authorDrafts(address,uint256)":"2ae7773b","communityDrafts(uint256,uint256)":"79d60fee","communityRegistry()":"a200ac86","contributorDrafts(address,uint256)":"1854f67a","createDraft(uint256,uint256,(address[],uint256[],bytes[],bytes32),string)":"f5fc9855","escalateToProposal(uint256,bool,uint8,string)":"261f635f","finalizeForProposal(uint256)":"7281f82b","getDraft(uint256)":"a2f79f8e","getDraftsByAuthor(address)":"9d04097a","getDraftsByCommunity(uint256)":"1306454a","getDraftsByContributor(address)":"d9c48e3a","getDraftsByRequest(uint256)":"da968fc6","getDraftsCount()":"7ccea359","getReview(uint256,address)":"2101ff65","getReviewSummary(uint256)":"18efb58a","governor()":"0c340a24","isContributor(uint256,address)":"9eda7d23","minReviewsForEscalation()":"71f7fecc","removeContributor(uint256,address)":"305a9678","requestDrafts(uint256,uint256)":"3f3da2c7","retractReview(uint256)":"c55354f1","reviewPeriod()":"3b249810","snapshotVersion(uint256,string)":"66a5e1ad","submitForReview(uint256)":"8a3b37e2","submitReview(uint256,uint8,string)":"74a5b693","supportThresholdBps()":"673ad03f","timelock()":"d33219b4","updateConfiguration(uint256,uint256,uint256)":"c501651a","updateGovernor(address)":"62f384ad","updateProposalOutcome(uint256,uint8)":"ad2df7d8"},"id":2}