{"abi":[{"type":"constructor","inputs":[{"name":"_communityRegistry","type":"address","internalType":"address"},{"name":"_governor","type":"address","internalType":"address"},{"name":"manager","type":"address","internalType":"address"},{"name":"_communityId","type":"uint256","internalType":"uint256"}],"stateMutability":"nonpayable"},{"type":"function","name":"addContributor","inputs":[{"name":"draftId","type":"uint256","internalType":"uint256"},{"name":"contributor","type":"address","internalType":"address"}],"outputs":[],"stateMutability":"nonpayable"},{"type":"function","name":"authorDrafts","inputs":[{"name":"","type":"address","internalType":"address"},{"name":"","type":"uint256","internalType":"uint256"}],"outputs":[{"name":"","type":"uint256","internalType":"uint256"}],"stateMutability":"view"},{"type":"function","name":"authority","inputs":[],"outputs":[{"name":"","type":"address","internalType":"address"}],"stateMutability":"view"},{"type":"function","name":"communityId","inputs":[],"outputs":[{"name":"","type":"uint256","internalType":"uint256"}],"stateMutability":"view"},{"type":"function","name":"communityRegistry","inputs":[],"outputs":[{"name":"","type":"address","internalType":"address"}],"stateMutability":"view"},{"type":"function","name":"contributorDrafts","inputs":[{"name":"","type":"address","internalType":"address"},{"name":"","type":"uint256","internalType":"uint256"}],"outputs":[{"name":"","type":"uint256","internalType":"uint256"}],"stateMutability":"view"},{"type":"function","name":"createDraft","inputs":[{"name":"requestId","type":"uint256","internalType":"uint256"},{"name":"actions","type":"tuple","internalType":"struct DraftsManager.ActionBundle","components":[{"name":"targets","type":"address[]","internalType":"address[]"},{"name":"values","type":"uint256[]","internalType":"uint256[]"},{"name":"calldatas","type":"bytes[]","internalType":"bytes[]"},{"name":"actionsHash","type":"bytes32","internalType":"bytes32"}]},{"name":"versionCID","type":"string","internalType":"string"}],"outputs":[{"name":"draftId","type":"uint256","internalType":"uint256"}],"stateMutability":"nonpayable"},{"type":"function","name":"escalateToProposal","inputs":[{"name":"draftId","type":"uint256","internalType":"uint256"},{"name":"multiChoice","type":"bool","internalType":"bool"},{"name":"numOptions","type":"uint8","internalType":"uint8"},{"name":"description","type":"string","internalType":"string"}],"outputs":[{"name":"proposalId","type":"uint256","internalType":"uint256"}],"stateMutability":"nonpayable"},{"type":"function","name":"finalizeForProposal","inputs":[{"name":"draftId","type":"uint256","internalType":"uint256"}],"outputs":[],"stateMutability":"nonpayable"},{"type":"function","name":"getDraft","inputs":[{"name":"draftId","type":"uint256","internalType":"uint256"}],"outputs":[{"name":"draftCommunityId","type":"uint256","internalType":"uint256"},{"name":"requestId","type":"uint256","internalType":"uint256"},{"name":"author","type":"address","internalType":"address"},{"name":"contributors","type":"address[]","internalType":"address[]"},{"name":"actions","type":"tuple","internalType":"struct DraftsManager.ActionBundle","components":[{"name":"targets","type":"address[]","internalType":"address[]"},{"name":"values","type":"uint256[]","internalType":"uint256[]"},{"name":"calldatas","type":"bytes[]","internalType":"bytes[]"},{"name":"actionsHash","type":"bytes32","internalType":"bytes32"}]},{"name":"versionCIDs","type":"string[]","internalType":"string[]"},{"name":"status","type":"uint8","internalType":"enum DraftsManager.DraftStatus"},{"name":"createdAt","type":"uint64","internalType":"uint64"},{"name":"reviewStartedAt","type":"uint64","internalType":"uint64"},{"name":"finalizedAt","type":"uint64","internalType":"uint64"},{"name":"proposalId","type":"uint256","internalType":"uint256"}],"stateMutability":"view"},{"type":"function","name":"getDraftsByAuthor","inputs":[{"name":"author","type":"address","internalType":"address"}],"outputs":[{"name":"","type":"uint256[]","internalType":"uint256[]"}],"stateMutability":"view"},{"type":"function","name":"getDraftsByCommunity","inputs":[],"outputs":[{"name":"","type":"uint256[]","internalType":"uint256[]"}],"stateMutability":"view"},{"type":"function","name":"getDraftsByContributor","inputs":[{"name":"contributor","type":"address","internalType":"address"}],"outputs":[{"name":"","type":"uint256[]","internalType":"uint256[]"}],"stateMutability":"view"},{"type":"function","name":"getDraftsByRequest","inputs":[{"name":"requestId","type":"uint256","internalType":"uint256"}],"outputs":[{"name":"","type":"uint256[]","internalType":"uint256[]"}],"stateMutability":"view"},{"type":"function","name":"getDraftsCount","inputs":[],"outputs":[{"name":"","type":"uint256","internalType":"uint256"}],"stateMutability":"view"},{"type":"function","name":"getReview","inputs":[{"name":"draftId","type":"uint256","internalType":"uint256"},{"name":"reviewer","type":"address","internalType":"address"}],"outputs":[{"name":"reviewType","type":"uint8","internalType":"enum DraftsManager.ReviewType"},{"name":"reasonCID","type":"string","internalType":"string"},{"name":"timestamp","type":"uint64","internalType":"uint64"},{"name":"isActive","type":"bool","internalType":"bool"}],"stateMutability":"view"},{"type":"function","name":"getReviewSummary","inputs":[{"name":"draftId","type":"uint256","internalType":"uint256"}],"outputs":[{"name":"supportCount","type":"uint256","internalType":"uint256"},{"name":"opposeCount","type":"uint256","internalType":"uint256"},{"name":"neutralCount","type":"uint256","internalType":"uint256"},{"name":"requestChangesCount","type":"uint256","internalType":"uint256"},{"name":"totalReviews","type":"uint256","internalType":"uint256"}],"stateMutability":"view"},{"type":"function","name":"governor","inputs":[],"outputs":[{"name":"","type":"address","internalType":"address"}],"stateMutability":"view"},{"type":"function","name":"isConsumingScheduledOp","inputs":[],"outputs":[{"name":"","type":"bytes4","internalType":"bytes4"}],"stateMutability":"view"},{"type":"function","name":"isContributor","inputs":[{"name":"draftId","type":"uint256","internalType":"uint256"},{"name":"contributor","type":"address","internalType":"address"}],"outputs":[{"name":"","type":"bool","internalType":"bool"}],"stateMutability":"view"},{"type":"function","name":"minReviewsForEscalation","inputs":[],"outputs":[{"name":"","type":"uint256","internalType":"uint256"}],"stateMutability":"view"},{"type":"function","name":"removeContributor","inputs":[{"name":"draftId","type":"uint256","internalType":"uint256"},{"name":"contributor","type":"address","internalType":"address"}],"outputs":[],"stateMutability":"nonpayable"},{"type":"function","name":"requestDrafts","inputs":[{"name":"","type":"uint256","internalType":"uint256"},{"name":"","type":"uint256","internalType":"uint256"}],"outputs":[{"name":"","type":"uint256","internalType":"uint256"}],"stateMutability":"view"},{"type":"function","name":"retractReview","inputs":[{"name":"draftId","type":"uint256","internalType":"uint256"}],"outputs":[],"stateMutability":"nonpayable"},{"type":"function","name":"reviewPeriod","inputs":[],"outputs":[{"name":"","type":"uint256","internalType":"uint256"}],"stateMutability":"view"},{"type":"function","name":"setAuthority","inputs":[{"name":"newAuthority","type":"address","internalType":"address"}],"outputs":[],"stateMutability":"nonpayable"},{"type":"function","name":"snapshotVersion","inputs":[{"name":"draftId","type":"uint256","internalType":"uint256"},{"name":"newVersionCID","type":"string","internalType":"string"}],"outputs":[],"stateMutability":"nonpayable"},{"type":"function","name":"submitForReview","inputs":[{"name":"draftId","type":"uint256","internalType":"uint256"}],"outputs":[],"stateMutability":"nonpayable"},{"type":"function","name":"submitReview","inputs":[{"name":"draftId","type":"uint256","internalType":"uint256"},{"name":"reviewType","type":"uint8","internalType":"enum DraftsManager.ReviewType"},{"name":"reasonCID","type":"string","internalType":"string"}],"outputs":[],"stateMutability":"nonpayable"},{"type":"function","name":"supportThresholdBps","inputs":[],"outputs":[{"name":"","type":"uint256","internalType":"uint256"}],"stateMutability":"view"},{"type":"function","name":"updateConfiguration","inputs":[{"name":"newReviewPeriod","type":"uint256","internalType":"uint256"},{"name":"newMinReviews","type":"uint256","internalType":"uint256"},{"name":"newSupportThreshold","type":"uint256","internalType":"uint256"}],"outputs":[],"stateMutability":"nonpayable"},{"type":"function","name":"updateGovernor","inputs":[{"name":"newGovernor","type":"address","internalType":"address"}],"outputs":[],"stateMutability":"nonpayable"},{"type":"function","name":"updateProposalOutcome","inputs":[{"name":"draftId","type":"uint256","internalType":"uint256"},{"name":"outcome","type":"uint8","internalType":"enum DraftsManager.DraftStatus"}],"outputs":[],"stateMutability":"nonpayable"},{"type":"event","name":"AuthorityUpdated","inputs":[{"name":"authority","type":"address","indexed":false,"internalType":"address"}],"anonymous":false},{"type":"event","name":"ConfigurationUpdated","inputs":[{"name":"reviewPeriod","type":"uint256","indexed":false,"internalType":"uint256"},{"name":"minReviewsForEscalation","type":"uint256","indexed":false,"internalType":"uint256"},{"name":"supportThresholdBps","type":"uint256","indexed":false,"internalType":"uint256"}],"anonymous":false},{"type":"event","name":"ContributorAdded","inputs":[{"name":"draftId","type":"uint256","indexed":true,"internalType":"uint256"},{"name":"contributor","type":"address","indexed":true,"internalType":"address"},{"name":"addedBy","type":"address","indexed":true,"internalType":"address"}],"anonymous":false},{"type":"event","name":"ContributorRemoved","inputs":[{"name":"draftId","type":"uint256","indexed":true,"internalType":"uint256"},{"name":"contributor","type":"address","indexed":true,"internalType":"address"},{"name":"removedBy","type":"address","indexed":true,"internalType":"address"}],"anonymous":false},{"type":"event","name":"DraftCreated","inputs":[{"name":"draftId","type":"uint256","indexed":true,"internalType":"uint256"},{"name":"communityId","type":"uint256","indexed":true,"internalType":"uint256"},{"name":"requestId","type":"uint256","indexed":true,"internalType":"uint256"},{"name":"author","type":"address","indexed":false,"internalType":"address"},{"name":"actionsHash","type":"bytes32","indexed":false,"internalType":"bytes32"},{"name":"versionCID","type":"string","indexed":false,"internalType":"string"}],"anonymous":false},{"type":"event","name":"DraftStatusChanged","inputs":[{"name":"draftId","type":"uint256","indexed":true,"internalType":"uint256"},{"name":"oldStatus","type":"uint8","indexed":false,"internalType":"enum DraftsManager.DraftStatus"},{"name":"newStatus","type":"uint8","indexed":false,"internalType":"enum DraftsManager.DraftStatus"},{"name":"changedBy","type":"address","indexed":true,"internalType":"address"}],"anonymous":false},{"type":"event","name":"GovernorUpdated","inputs":[{"name":"oldGovernor","type":"address","indexed":true,"internalType":"address"},{"name":"newGovernor","type":"address","indexed":true,"internalType":"address"}],"anonymous":false},{"type":"event","name":"ProposalEscalated","inputs":[{"name":"draftId","type":"uint256","indexed":true,"internalType":"uint256"},{"name":"proposalId","type":"uint256","indexed":true,"internalType":"uint256"},{"name":"isMultiChoice","type":"bool","indexed":false,"internalType":"bool"},{"name":"numOptions","type":"uint8","indexed":false,"internalType":"uint8"}],"anonymous":false},{"type":"event","name":"ProposalOutcomeUpdated","inputs":[{"name":"draftId","type":"uint256","indexed":true,"internalType":"uint256"},{"name":"proposalId","type":"uint256","indexed":true,"internalType":"uint256"},{"name":"outcome","type":"uint8","indexed":false,"internalType":"enum DraftsManager.DraftStatus"}],"anonymous":false},{"type":"event","name":"ReviewRetracted","inputs":[{"name":"draftId","type":"uint256","indexed":true,"internalType":"uint256"},{"name":"reviewer","type":"address","indexed":true,"internalType":"address"}],"anonymous":false},{"type":"event","name":"ReviewSubmitted","inputs":[{"name":"draftId","type":"uint256","indexed":true,"internalType":"uint256"},{"name":"reviewer","type":"address","indexed":true,"internalType":"address"},{"name":"reviewType","type":"uint8","indexed":false,"internalType":"enum DraftsManager.ReviewType"},{"name":"reasonCID","type":"string","indexed":false,"internalType":"string"}],"anonymous":false},{"type":"event","name":"VersionSnapshot","inputs":[{"name":"draftId","type":"uint256","indexed":true,"internalType":"uint256"},{"name":"versionNumber","type":"uint256","indexed":false,"internalType":"uint256"},{"name":"versionCID","type":"string","indexed":false,"internalType":"string"},{"name":"contributor","type":"address","indexed":true,"internalType":"address"}],"anonymous":false},{"type":"error","name":"AccessManagedInvalidAuthority","inputs":[{"name":"authority","type":"address","internalType":"address"}]},{"type":"error","name":"AccessManagedRequiredDelay","inputs":[{"name":"caller","type":"address","internalType":"address"},{"name":"delay","type":"uint32","internalType":"uint32"}]},{"type":"error","name":"AccessManagedUnauthorized","inputs":[{"name":"caller","type":"address","internalType":"address"}]},{"type":"error","name":"AlreadyReviewed","inputs":[{"name":"reviewer","type":"address","internalType":"address"}]},{"type":"error","name":"ContributorAlreadyExists","inputs":[{"name":"contributor","type":"address","internalType":"address"}]},{"type":"error","name":"ContributorNotFound","inputs":[{"name":"contributor","type":"address","internalType":"address"}]},{"type":"error","name":"DraftNotFound","inputs":[{"name":"draftId","type":"uint256","internalType":"uint256"}]},{"type":"error","name":"InsufficientReviews","inputs":[{"name":"current","type":"uint256","internalType":"uint256"},{"name":"required","type":"uint256","internalType":"uint256"}]},{"type":"error","name":"InsufficientSupport","inputs":[{"name":"supportBps","type":"uint256","internalType":"uint256"},{"name":"requiredBps","type":"uint256","internalType":"uint256"}]},{"type":"error","name":"InvalidInput","inputs":[{"name":"reason","type":"string","internalType":"string"}]},{"type":"error","name":"InvalidStatus","inputs":[{"name":"current","type":"uint8","internalType":"enum DraftsManager.DraftStatus"},{"name":"required","type":"uint8","internalType":"enum DraftsManager.DraftStatus"}]},{"type":"error","name":"NotAuthorized","inputs":[{"name":"user","type":"address","internalType":"address"}]},{"type":"error","name":"ReviewPeriodNotMet","inputs":[{"name":"timeRemaining","type":"uint256","internalType":"uint256"}]},{"type":"error","name":"ZeroAddress","inputs":[]}],"bytecode":{"object":"0x60c034620001b257601f6200391138819003918201601f191683019291906001600160401b03841183851017620001b6578160809284926040968752833981010312620001b2576200005181620001ca565b6200005f60208301620001ca565b9160606200006f858301620001ca565b9101519260018060a01b038092169260018060a01b03199380855f5416175f557f2f658b440c35314f52658ea8a740e05b284cdc84dc9ae01e891f21b8933e7cad60208851838152a16203f480600355600360045561177060055583821615908115620001a6575b81156200019c575b506200018b57841562000146576080521690600154161760015560a052516137319081620001e082396080518181816105f50152818161163001526132a0015260a0518181816105bf01528181610789015281816109ae01528181610d5601526119030152f35b855163d647364f60e01b815260206004820152601360248201527f496e76616c696420636f6d6d756e6974794964000000000000000000000000006044820152606490fd5b855163d92e233d60e01b8152600490fd5b9050155f620000df565b838516159150620000d7565b5f80fd5b634e487b7160e01b5f52604160045260245ffd5b51906001600160a01b0382168203620001b25756fe6080806040526004361015610012575f80fd5b5f3560e01c9081630c340a2414612a66575080631854f67a14612a2057806318efb58a146129be5780632101ff651461290f578063261f635f146125445780632ae7773b146124fe578063305a9678146123245780633b249810146123075780633f3da2c7146122c257806362f384ad1461224657806366a5e1ad146120c4578063673ad03f146120a757806371f7fecc1461208a5780637281f82b14611e4757806374a5b69314611a0d5780637a9e5e4b146119435780637ccea359146119265780637f50861a146118ec5780638a3b37e2146117745780638fb36037146117015780639d04097a146116c95780639eda7d2314611654578063a200ac8614611611578063a2f79f8e14611339578063ad2df7d8146112ba578063af3595ba146110a8578063af61f45b14610559578063bf7e214f14610534578063c501651a14610459578063c55354f11461027d578063d7c24f9e14610205578063d9c48e3a146101cd5763da968fc614610187575f80fd5b346101c95760203660031901126101c9576004355f5260076020526101c56101b160405f20612f94565b604051918291602083526020830190612b4b565b0390f35b5f80fd5b346101c95760203660031901126101c9576001600160a01b036101ee612a89565b165f5260096020526101c56101b160405f20612f94565b346101c9575f3660031901126101c957604051806006549182815260208091019260065f527ff652222313e28459528d920b65115c16c04f3efc82aaedc97be59f3f377c0d3f915f905b828210610266576101c5856101b181890382612ce5565b83548652948501946001938401939091019061024f565b346101c95760203660031901126101c9576004356002548110156104415760ff60096102a883612bc7565b5001541660068110156103af576001810361041a57506102c781612bc7565b50600b810190335f526010810160205260405f209081546001600160a01b038116158015610408575b6103c35760a01c60ff169060048210156103af57600293600f9280610363575061031a8154613512565b90555b016103288154613512565b905501805468ff00000000000000001916905533907f12e54cb43c69e66621df1300fe1eb277b76f51a76d8fcfe36419d944e22fc1a75f80a3005b9050600181036103845750600c810161037c8154613512565b90555b61031d565b80850361039a5750600d810161037c8154613512565b60030361037f57600e810161037c8154613512565b634e487b7160e01b5f52602160045260245ffd5b606460405163d647364f60e01b815260206004820152601b60248201527f4e6f206163746976652072657669657720746f207265747261637400000000006044820152fd5b5060ff600284015460401c16156102f0565b6044906104386040519163f924664d60e01b83526004830190612bba565b60016024820152fd5b6024906040519063c41d418b60e01b82526004820152fd5b346101c95760603660031901126101c95760443560243560043561047d363361351e565b61271083116104ca577fd1df9ea585fa96cacfd37b45876312d2c04c0f6bf740539becffbec7e81822be9260609282600355806004558160055560405192835260208301526040820152a1005b608460405163d647364f60e01b8152602060048201526024808201527f537570706f7274207468726573686f6c642063616e6e6f74206578636565642060448201527f31303025000000000000000000000000000000000000000000000000000000006064820152fd5b346101c9575f3660031901126101c95760206001600160a01b035f5416604051908152f35b346101c9576003196060368201126101c95767ffffffffffffffff602435116101c957608090602435360301126101c95760443567ffffffffffffffff81116101c9576105aa903690600401612b1d565b801561106257604051631f061c6960e31b81527f0000000000000000000000000000000000000000000000000000000000000000600482015261034080826024816001600160a01b037f0000000000000000000000000000000000000000000000000000000000000000165afa8015610fe5576001600160a01b039260a0925f92611035575b50500151168015610ff057600435610d0d575b50610653600460243501806134bb565b905061066860248035016024356004016134bb565b91905014801590610cdd575b610c9857610687600460243501806134bb565b9061069b60248035016024356004016134bb565b6106af6044602435016024356004016134bb565b91604051958060808801606060208a01525260a0870195905f905b808210610c6d57505050858503601f190160408701528085527f07ffffffffffffffffffffffffffffffffffffffffffffffffffffffffffffff81116101c957918593919260051b809260208701378482018481036060860152602081018290529294600582901b840160409081019401925f9187915b848410610c06578b8b8961075e818b03601f198101835282612ce5565b602081519101209160025491600160401b831015610a12576001830160025561078683612bc7565b507f0000000000000000000000000000000000000000000000000000000000000000815560048035600183015560028201805473ffffffffffffffffffffffffffffffffffffffff1916331790556107e29060243501806134bb565b9067ffffffffffffffff8211610a1257600160401b8211610a1257600483018054838255610812918491906134f1565b90600483015f5260205f20915f905b828210610be1575050505061083f60248035016024356004016134bb565b9067ffffffffffffffff8211610a1257600160401b8211610a125760058301805483825561086f918491906134f1565b600583015f5260205f205f5b838110610bcd575050505061089a6044602435016024356004016134bb565b600160401b8111610a12576006830154816006850155808210610b58575b508185918593600686015f5260205f205f915b838310610a2657505050505060088388600761090d96015560098101805468ffffffffffffffff0042851b169068ffffffffffffffffff191617905501612e6d565b60065493600160401b851015610a125760018501806006558510156109fe577f8790ca50c31e8b011ca44d51858f6930ec87a1cb1712aa45474b5cf66d0a2a4d8491826020977ff652222313e28459528d920b65115c16c04f3efc82aaedc97be59f3f377c0d3f01556004356109e3575b335f52600887526109928360405f2061342d565b604051903382528782015260606040820152806109d8600435967f0000000000000000000000000000000000000000000000000000000000000000966060840191612de5565b0390a4604051908152f35b6004355f52600787526109f98360405f2061342d565b61097e565b634e487b7160e01b5f52603260045260245ffd5b634e487b7160e01b5f52604160045260245ffd5b919395509193508035601e19863603018112156101c95767ffffffffffffffff81870135116101c957808601353603602082880101136101c957610a7781870135610a718554612c00565b85612e28565b5f90601f8188013511600114610ad657600192610ab484936020935f91818c0135610ac7575b508a0135908160011b915f199060031b1c19161790565b85555b01920192018694928894926108cb565b8b82010185013591505f610a9d565b9086601f19838201351691855f5260205f20925f5b818110610b3a5750936020938360019794938897848996013511610b19575b5090500135811b018555610ab7565b8690845f1960f88286013560031b161c1993010101351690558f8a81610b0a565b6020938601830184013585556001909401938a939283019201610aeb565b600684015f5260205f20908282015b8183018110610b775750506108b8565b80610b8460019254612c00565b80610b91575b5001610b67565b601f908181118414610ba95750505f81555b8b610b8a565b610bc45f9284845260208420920160051c8201858301612e12565b81835555610ba3565b60019060208435940193818401550161087b565b8035916001600160a01b03831683036101c95760206001920192818601550190610821565b9193959092949650603f1982840182030187528735601e19853603018112156101c9578401906020823592019167ffffffffffffffff81116101c95780360383136101c957610c5b6020928392600195612de5565b99019701940191889697959391610741565b9091968735906001600160a01b0382168092036101c9576020816001938293520198019201906106ca565b606460405163d647364f60e01b815260206004820152601760248201527f416374696f6e73206c656e677468206d69736d617463680000000000000000006044820152fd5b50610ced600460243501806134bb565b9050610d036044602435016024356004016134bb565b9190501415610674565b5f602491604051928380927fc58343ef00000000000000000000000000000000000000000000000000000000825260043560048301525afa908115610fe5575f91610dc7575b507f0000000000000000000000000000000000000000000000000000000000000000905103610d825782610643565b606460405163d647364f60e01b815260206004820152601260248201527f436f6d6d756e697479206d69736d6174636800000000000000000000000000006044820152fd5b3d9150815f823e610dd88282612ce5565b60208183810103126101c95780519067ffffffffffffffff82116101c9576101c082820184830103126101c95760405192836101c081011067ffffffffffffffff6101c086011117610a12576101c0840160405281830180518552610e3f90602001613051565b60208501526040838301015167ffffffffffffffff81116101c957610e6b908284019085850101613461565b60408501526060838301015167ffffffffffffffff81116101c957610e97908284019085850101613461565b60608501526080838301015160038110156101c9576080850152610ebf60a0848401016134a6565b60a0850152610ed260c0848401016134a6565b60c085015260e0838301015167ffffffffffffffff81116101c9578383010190808301601f830112156101c957815191610f0b83613039565b92610f196040519485612ce5565b80845260208085019160051b8301019280860184116101c95760208301915b848310610fb457505050505060e084015261010080838301015190840152610120610f668184840101613051565b90840152808201610140818101519085015261016080820151908501526101809081015190919080151581036101c957610faa928501526101a09283910101613051565b9082015283610d53565b825167ffffffffffffffff81116101c957602091610fda839283868c0191890101613461565b815201920191610f38565b6040513d5f823e3d90fd5b606460405163d647364f60e01b815260206004820152601260248201527f52657175657374487562206e6f742073657400000000000000000000000000006044820152fd5b6110549250803d1061105b575b61104c8183612ce5565b810190613065565b8580610630565b503d611042565b60405163d647364f60e01b815260206004820152601b60248201527f56657273696f6e204349442063616e6e6f7420626520656d70747900000000006044820152606490fd5b346101c95760403660031901126101c9576004356110c4612a9f565b6002548210156112a2576110d782612bc7565b50906001600160a01b0391826002820154163314159081611288575b506112715760ff600961110585612bc7565b5001541660068110156103af578061124b57508181169182156112215761112b84612bc7565b509060028201541683148015611209575b6111d8576003810191825490600160401b821015610a125761116982601195600161118895018155612ab5565b9091906001600160a01b038084549260031b9316831b921b1916179055565b825f520160205260405f20600160ff1982541617905560096020526111b08260405f2061342d565b33917f1edd8eba933bb6abe13c18ee5bd22bf6d3886540e4a22b288af4c11dbda8196b5f80a4005b602483604051907fc0db7ecd0000000000000000000000000000000000000000000000000000000082526004820152fd5b50825f526011810160205260ff60405f20541661113c565b60046040517fd92e233d000000000000000000000000000000000000000000000000000000008152fd5b6044906112696040519163f924664d60e01b83526004830190612bba565b5f6024820152fd5b6024604051634a0bfec160e01b8152336004820152fd5b60119150335f520160205260ff60405f20541615846110f3565b6024826040519063c41d418b60e01b82526004820152fd5b346101c95760403660031901126101c95760043560243560068110156101c9576002548210156112a25760ff60096112f184612bc7565b500154169160068310156103af5760038303611313576113119250613258565b005b60405163f924664d60e01b81526044906113306004820186612bba565b60036024820152fd5b346101c95760203660031901126101c9576004355f606060405161135c81612cc9565b81815281602082015281604082015201526002548110156104415761138090612bc7565b508054906001810154906001600160a01b03600282015416600982015493600a830154916113b060038501612fe2565b604051926113bd84612cc9565b6113c960048701612fe2565b84526113d760058701612f94565b60208501526006860180546113eb81613039565b916113f96040519384612ce5565b81835260208301905f5260205f205f915b8383106115ec575050505060408501526007860154606085015260088601549261143384613039565b936114416040519586612ce5565b8085526020850160088199015f5260205f205f915b8383106115c0575050505090611489929160405198610160928a5260208a01526040890152806060890152870190612b7e565b85810360808701526114b96114a78451608084526080840190612b7e565b60208501518382036020850152612b4b565b926040810151938281036040840152845180825260208201916020808360051b8301019701925f915b83831061159357505050505060608091015191015284820360a086015251808252602082019160208260051b82010194925f915b838310611566578780888867ffffffffffffffff8d61153b60c0860160ff8316612bba565b818160081c1660e0860152818160481c1661010086015260881c166101208401526101408301520390f35b9091929395602080611584600193601f198682030187528a51612af8565b98019301930191939290611516565b90919293976020806115b1600193601f198682030187528c51612af8565b9a0193019301919392906114e2565b6001602081926040516115de816115d78189612c38565b0382612ce5565b815201920192019190611456565b600160208192604051611603816115d78189612c38565b81520192019201919061140a565b346101c9575f3660031901126101c95760206040516001600160a01b037f0000000000000000000000000000000000000000000000000000000000000000168152f35b346101c95760403660031901126101c957600435611670612a9f565b906002548110156104415761168490612bc7565b506001600160a01b038060028301541692168092149182156116ae575b6020836040519015158152f35b601192505f5201602052602060ff60405f20541690826116a1565b346101c95760203660031901126101c9576001600160a01b036116ea612a89565b165f5260086020526101c56101b160405f20612f94565b346101c9575f3660031901126101c9575f5460a01c60ff161561176c5760207f8fb36037000000000000000000000000000000000000000000000000000000005b7fffffffff0000000000000000000000000000000000000000000000000000000060405191168152f35b60205f611742565b346101c95760203660031901126101c9576004356002548110156104415761179b81612bc7565b506001600160a01b0360028201541633141590816118d2575b506112715760ff60096117c683612bc7565b5001541660068110156103af578061124b57506117e281612bc7565b5060088101541561186857600901600181547fffffffffffffffffffffffffffffff0000000000000000ffffffffffffffff0070ffffffffffffffff0000000000000000004260481b16911617179055604051905f8252600160208301527ff7fa3caad94fe12c60166546c7c4bda02955b0fbba7ac35eeb843d49d885e2a360403393a3005b608460405163d647364f60e01b8152602060048201526024808201527f4472616674206d7573742068617665206174206c65617374206f6e652076657260448201527f73696f6e000000000000000000000000000000000000000000000000000000006064820152fd5b60119150335f520160205260ff60405f20541615826117b4565b346101c9575f3660031901126101c95760206040517f00000000000000000000000000000000000000000000000000000000000000008152f35b346101c9575f3660031901126101c9576020600254604051908152f35b346101c95760203660031901126101c95761195c612a89565b5f54906001600160a01b039081831633036119f757803b156119c5577f2f658b440c35314f52658ea8a740e05b284cdc84dc9ae01e891f21b8933e7cad9260209273ffffffffffffffffffffffffffffffffffffffff19921691829116175f55604051908152a1005b602491604051917fc2f31e5e000000000000000000000000000000000000000000000000000000008352166004820152fd5b602460405162d1953b60e31b8152336004820152fd5b346101c95760603660031901126101c957600460243510156101c95760443567ffffffffffffffff81116101c957611a49903690600401612b1d565b906002546004351015611e2e5760ff6009611a65600435612bc7565b5001541660068110156103af576001810361041a5750611a86600435612bc7565b50916001600160a01b03928360028201541633148015611e16575b611dab5760108101335f52806020528460405f205416611d7b576040519060a0820182811067ffffffffffffffff821117610a1257604052338252602082016024358152611aee85612f6a565b91611afc6040519384612ce5565b85835236868801116101c957858760208501375f602087850101526040840192835267ffffffffffffffff4216606085015260016080850152335f5260205260405f20968351168754915160048110156103af5774ff00000000000000000000000000000000000000007fffffffffffffffffffffff0000000000000000000000000000000000000000009160a01b169216171786555194855167ffffffffffffffff8111610a1257611bbf81611bb66001850154612c00565b60018501612e28565b6020601f8211600114611d09578160029392611bf592600f98999a5f92611cfe575b50508160011b915f199060031b1c19161790565b60018201555b019067ffffffffffffffff60608201511668ff000000000000000060808454930151151560401b169168ffffffffffffffffff191617179055602435155f14611cae57611c4b600b820154612f86565b600b8201555b01611c5c8154612f86565b90557f1d4e9183da763b1e285cbd17de8d69818200b71822bc1d67e368eaadde895f1c604051611c8e81602435612aca565b6040602082015280611ca93395600435956040840191612de5565b0390a3005b602435600103611cce57600c8101611cc68154612f86565b90555b611c51565b602435600203611ce657600d8101611cc68154612f86565b600360243503611cc957600e8101611cc68154612f86565b015190508a80611be1565b600183015f5260205f20975f5b601f1984168110611d63575091600f9697986001926002959483601f19811610611d4b575b505050811b016001820155611bfb565b01515f1960f88460031b161c19169055898080611d3b565b828201518a5560019099019860209283019201611d16565b60246040517fcfa761e4000000000000000000000000000000000000000000000000000000008152336004820152fd5b608460405163d647364f60e01b815260206004820152602a60248201527f436f6e7472696275746f72732063616e6e6f742072657669657720746865697260448201527f206f776e206472616674000000000000000000000000000000000000000000006064820152fd5b50335f526011810160205260ff60405f205416611aa1565b602460405163c41d418b60e01b81526004356004820152fd5b346101c95760203660031901126101c95760043560025481101561044157611e6e81612bc7565b506001600160a01b036002820154163314159081612070575b506112715760ff6009611e9983612bc7565b5001541660068110156103af576001810361041a5750611eb881612bc7565b506009810190815490611ed867ffffffffffffffff8360481c1642612e05565b600354808210612036575050600f81015490600454808310611fff5750600b015461271090818102918183041490151715611feb578115611fd75704600554808210611fa05750506002907fffffffffffffff0000000000000000ffffffffffffffffffffffffffffffff0078ffffffffffffffff00000000000000000000000000000000004260881b169116171790556040519060018252600260208301527ff7fa3caad94fe12c60166546c7c4bda02955b0fbba7ac35eeb843d49d885e2a360403393a3005b60449250604051917fc7effce900000000000000000000000000000000000000000000000000000000835260048301526024820152fd5b634e487b7160e01b5f52601260045260245ffd5b634e487b7160e01b5f52601160045260245ffd5b82604491604051917febd82d0200000000000000000000000000000000000000000000000000000000835260048301526024820152fd5b60249161204291612e05565b604051907f60b2716e0000000000000000000000000000000000000000000000000000000082526004820152fd5b60119150335f520160205260ff60405f2054161582611e87565b346101c9575f3660031901126101c9576020600454604051908152f35b346101c9575f3660031901126101c9576020600554604051908152f35b346101c95760403660031901126101c9576024600435813567ffffffffffffffff81116101c9576120f9903690600401612b1d565b926002548310156122305761210d83612bc7565b506001600160a01b036002820154163314159081612216575b506122015760ff600961213885612bc7565b5001541660068110156121ee57806121ca5750831561106257600861215c84612bc7565b5001612169858483612e6d565b545f198101919082116121b85750907f515e8cd3bc65e597ecd44560be0bdf9a836cc9218e3ca0b1d6cfbb2baa0f8fce91611ca960405192839283526040602084015233966040840191612de5565b634e487b7160e01b5f5260116004525ffd5b5f6044926121e96040519363f924664d60e01b85526004850190612bba565b820152fd5b50634e487b7160e01b5f5260216004525ffd5b604051634a0bfec160e01b8152336004820152fd5b60119150335f520160205260ff60405f2054161585612126565b826040519063c41d418b60e01b82526004820152fd5b346101c95760203660031901126101c95761225f612a89565b612269363361351e565b6001600160a01b03809116908115611221576001548273ffffffffffffffffffffffffffffffffffffffff19821617600155167f5af6a85e864342d4f108c43dd574d98480c91f1de0ac2a9f66d826dee49bd9bb5f80a3005b346101c95760403660031901126101c9576024356004355f52600760205260405f2080548210156101c9576020916122f991612ab5565b90546040519160031b1c8152f35b346101c9575f3660031901126101c9576020600354604051908152f35b346101c95760403660031901126101c957600435612340612a9f565b6002548210156112a25761235382612bc7565b506001600160a01b03908160028201541633141590816124e4575b506112715760ff600961238085612bc7565b5001541660068110156103af578061124b575061239c83612bc7565b50916011928260118201921692835f528260205260ff60405f205416156124b3576003809201905f5b8254808210156124a65786836123db8487612ab5565b905490881b1c16146123f057506001016123c5565b5f979293949596971992838201918211612494575090611169846124176124259488612ab5565b905490891b1c169186612ab5565b825480156124805701926124398484612ab5565b81939154921b1b19169055555b815f5260205260405f2060ff19815416905533917f9faf0bd600a8424364aa473fce68c7a603750bcd52a4dc12dd7a69cc7b160b015f80a4005b634e487b7160e01b5f52603160045260245ffd5b634e487b7160e01b5f5260045260245ffd5b5050505050909150612446565b602484604051907fd3cedf290000000000000000000000000000000000000000000000000000000082526004820152fd5b60119150335f520160205260ff60405f205416158461236e565b346101c95760403660031901126101c957612517612a89565b6001600160a01b0360243591165f52600860205260405f2080548210156101c9576020916122f991612ab5565b346101c9576003196080368201126101c957600435602491823592831515918285036101c9576044359160ff83168093036101c95760643567ffffffffffffffff81116101c957612599903690600401612b1d565b6002939193548710156128f8576125af87612bc7565b506001600160a01b03908160028201541633141590816128de575b506128c85760ff60096125dc8a612bc7565b5001541660068110156128b5576002810361289457506125fb88612bc7565b5080995f146127b2575060028610612747575f60209461269d6006958c989561267d95600154169661268e6040519b8c9a8b998a987fe947708a000000000000000000000000000000000000000000000000000000008a5260a060048b015261266a60a48b0160048601612d07565b90888b830301908b015260058401612d4b565b91868984030160448a015201612d86565b92858403016064860152612de5565b88608483015203925af1908115610fe5575f9161270a575b50604060209593600a95937ff5f3c022abf1448d67e8a9325eb16a6c9274e802b0d204940a1ac39f7f5d15e293809781975b60098101805460ff191660031790550155825191825287820152a3604051908152f35b9492939190506020853d60201161273f575b8161272960209383612ce5565b810103126101c9579351919390929160406126b5565b3d915061271c565b60848460286040519163d647364f60e01b8352602060048401528201527f4d756c74692d63686f696365207265717569726573206174206c65617374203260448201527f206f7074696f6e730000000000000000000000000000000000000000000000006064820152fd5b949160209461280f6006955f9361267d95600154169661268e6040519b8c9a8b998a987f7d5e81e2000000000000000000000000000000000000000000000000000000008a52608060048b015261266a60848b0160048601612d07565b03925af1908115610fe5575f91612857575b50604060209593600a95937ff5f3c022abf1448d67e8a9325eb16a6c9274e802b0d204940a1ac39f7f5d15e293809781976126e7565b9492939190506020853d60201161288c575b8161287660209383612ce5565b810103126101c957935191939092916040612821565b3d9150612869565b6044906002866121e96040519363f924664d60e01b85526004850190612bba565b84634e487b7160e01b5f5260216004525ffd5b83604051634a0bfec160e01b8152336004820152fd5b60119150335f520160205260ff60405f205416158a6125ca565b82876040519063c41d418b60e01b82526004820152fd5b346101c95760403660031901126101c95760043561292b612a9f565b6002548210156112a2576001600160a01b03612948601093612bc7565b5091165f520160205261298d60405f2060ff815460a01c169060ff61299e60016129816002850154946115d76040518094819301612c38565b60405195868096612aca565b608060208601526080850190612af8565b9167ffffffffffffffff8116604085015260401c16151560608301520390f35b346101c95760203660031901126101c957600435600254811015610441576129e760a091612bc7565b50600b81015490600c81015490600d810154600f600e830154920154926040519485526020850152604084015260608301526080820152f35b346101c95760403660031901126101c957612a39612a89565b6001600160a01b0360243591165f52600960205260405f2080548210156101c9576020916122f991612ab5565b346101c9575f3660031901126101c9576020906001600160a01b03600154168152f35b600435906001600160a01b03821682036101c957565b602435906001600160a01b03821682036101c957565b80548210156109fe575f5260205f2001905f90565b9060048210156103af5752565b5f5b838110612ae85750505f910152565b8181015183820152602001612ad9565b90602091612b1181518092818552858086019101612ad7565b601f01601f1916010190565b9181601f840112156101c95782359167ffffffffffffffff83116101c957602083818601950101116101c957565b9081518082526020808093019301915f5b828110612b6a575050505090565b835185529381019392810192600101612b5c565b9081518082526020808093019301915f5b828110612b9d575050505090565b83516001600160a01b031685529381019392810192600101612b8f565b9060068210156103af5752565b6002548110156109fe5760129060025f52027f405787fa12a823e0f2b7631cc41b3ba8828b3321ca811111fa75cd3aa3bb5ace01905f90565b90600182811c92168015612c2e575b6020831014612c1a57565b634e487b7160e01b5f52602260045260245ffd5b91607f1691612c0f565b80545f9392612c4682612c00565b918282526020936001916001811690815f14612caa5750600114612c6c575b5050505050565b90939495505f92919252835f2092845f945b838610612c9657505050500101905f80808080612c65565b805485870183015294019385908201612c7e565b60ff19168685015250505090151560051b010191505f80808080612c65565b6080810190811067ffffffffffffffff821117610a1257604052565b90601f8019910116810190811067ffffffffffffffff821117610a1257604052565b9081548082526020809201925f5260205f20915f905b828210612d2b575050505090565b83546001600160a01b031685529384019360019384019390910190612d1d565b9081548082526020809201925f5260205f20915f905b828210612d6f575050505090565b835485529384019360019384019390910190612d61565b908082549081815260208091019260208360051b820101945f5260205f20935f915b848310612db85750505050505090565b909192939495846001612dd58193601f198682030187528a612c38565b9801930193019194939290612da8565b908060209392818452848401375f828201840152601f01601f1916010190565b91908203918211611feb57565b818110612e1d575050565b5f8155600101612e12565b9190601f8111612e3757505050565b612e61925f5260205f20906020601f840160051c83019310612e63575b601f0160051c0190612e12565b565b9091508190612e54565b92918354600160401b811015610a1257612e8f90600195600182018155612ab5565b929092612f575767ffffffffffffffff8211610a1257612eb382610a718554612c00565b5f94601f8311600114612ef25750612ee392939482915f92612ee75750508160011b915f199060031b1c19161790565b9055565b013590505f80611be1565b90601f19831695845f5260209260205f20935f915b898310612f405750505083600195969710612f27575b505050811b019055565b01355f19600384901b60f8161c191690555f8080612f1d565b848401358655948501949281019291810191612f07565b634e487b7160e01b5f525f60045260245ffd5b67ffffffffffffffff8111610a1257601f01601f191660200190565b5f198114611feb5760010190565b90604051918281549182825260209260208301915f5260205f20935f905b828210612fc857505050612e6192500383612ce5565b855484526001958601958895509381019390910190612fb2565b90604051918281549182825260209260208301915f5260205f20935f905b82821061301657505050612e6192500383612ce5565b85546001600160a01b031684526001958601958895509381019390910190613000565b67ffffffffffffffff8111610a125760051b60200190565b51906001600160a01b03821682036101c957565b809161034092839103126101c95760405191820182811067ffffffffffffffff821117610a125760405261309881613051565b82526130a660208201613051565b60208301526130b760408201613051565b60408301526130c860608201613051565b60608301526130d960808201613051565b60808301526130ea60a08201613051565b60a08301526130fb60c08201613051565b60c083015261310c60e08201613051565b60e083015261010061311f818301613051565b90830152610120613131818301613051565b90830152610140613143818301613051565b90830152610160613155818301613051565b90830152610180613167818301613051565b908301526101a0613179818301613051565b908301526101c061318b818301613051565b908301526101e061319d818301613051565b908301526102006131af818301613051565b908301526102206131c1818301613051565b908301526102406131d3818301613051565b908301526102606131e5818301613051565b908301526102806131f7818301613051565b908301526102a0613209818301613051565b908301526102c061321b818301613051565b908301526102e061322d818301613051565b9083015261030061323f818301613051565b90830152613251610320809201613051565b9082015290565b9061326282612bc7565b506001600160a01b0390816002820154163314801561335a575b61334f575460405190631f061c6960e31b82526004820152610340908181602481867f0000000000000000000000000000000000000000000000000000000000000000165afa908115610fe5576060925f92613332575b505001511680156132ed57330361127157612e6191613372565b606460405163d647364f60e01b815260206004820152601060248201527f54696d656c6f636b206e6f7420736574000000000000000000000000000000006044820152fd5b6133489250803d1061105b5761104c8183612ce5565b5f806132d3565b5050612e6191613372565b50335f526011810160205260ff60405f20541661327c565b60068210156103af57600482141580613422575b6133dd577ff8565e1fcefe8730946b9a0b3b21656f89a6775423cd6b879c1b5ab9871bcace6020600a6133b884612bc7565b506009810160ff1981541660ff88161790550154936133da6040518092612bba565ba3565b606460405163d647364f60e01b815260206004820152601b60248201527f4f7574636f6d65206d75737420626520574f4e206f72204c4f535400000000006044820152fd5b506005821415613386565b8054600160401b811015610a125761344a91600182018155612ab5565b819291549060031b91821b915f19901b1916179055565b81601f820112156101c957805161347781612f6a565b926134856040519485612ce5565b818452602082840101116101c9576134a39160208085019101612ad7565b90565b519067ffffffffffffffff821682036101c957565b903590601e19813603018212156101c9570180359067ffffffffffffffff82116101c957602001918160051b360383136101c957565b918181106134fe57505050565b612e61925f5260205f209182019101612e12565b8015611feb575f190190565b905f915f54916001600160a01b039182841692826004116101c9575f925f60409485519360208501957fb700961300000000000000000000000000000000000000000000000000000000875216938460248201523060448201527fffffffff000000000000000000000000000000000000000000000000000000005f351660648201526064815260a0810167ffffffffffffffff9682821088831117610a125788925f9284528280528260205251908a5afa6136e8575b156135e5575b5050505050505050565b63ffffffff16156136d257740100000000000000000000000000000000000000007fffffffffffffffffffffff00ffffffffffffffffffffffffffffffffffffffff809716175f55843b156101c9576064945f928386519788809581947f94c7d7ee00000000000000000000000000000000000000000000000000000000835260048301528960248301528060448301528084848401378181018301849052601f01601f191681010301925af180156136c8576136b2575b50505081541690555f808080808080806135db565b90918093945011610a1257525f905f808061369d565b82513d5f823e3d90fd5b60248285519062d1953b60e31b82526004820152fd5b50505f516020518060201c1502906135d556fea2646970667358221220de1a4f19ab7ca24edb4416a22034d23eb42a5d02b8ddb66cf7b4cfddc46c155164736f6c63430008180033","linkReferences":{}},"methodIdentifiers":{"addContributor(uint256,address)":"af3595ba","authorDrafts(address,uint256)":"2ae7773b","authority()":"bf7e214f","communityId()":"7f50861a","communityRegistry()":"a200ac86","contributorDrafts(address,uint256)":"1854f67a","createDraft(uint256,(address[],uint256[],bytes[],bytes32),string)":"af61f45b","escalateToProposal(uint256,bool,uint8,string)":"261f635f","finalizeForProposal(uint256)":"7281f82b","getDraft(uint256)":"a2f79f8e","getDraftsByAuthor(address)":"9d04097a","getDraftsByCommunity()":"d7c24f9e","getDraftsByContributor(address)":"d9c48e3a","getDraftsByRequest(uint256)":"da968fc6","getDraftsCount()":"7ccea359","getReview(uint256,address)":"2101ff65","getReviewSummary(uint256)":"18efb58a","governor()":"0c340a24","isConsumingScheduledOp()":"8fb36037","isContributor(uint256,address)":"9eda7d23","minReviewsForEscalation()":"71f7fecc","removeContributor(uint256,address)":"305a9678","requestDrafts(uint256,uint256)":"3f3da2c7","retractReview(uint256)":"c55354f1","reviewPeriod()":"3b249810","setAuthority(address)":"7a9e5e4b","snapshotVersion(uint256,string)":"66a5e1ad","submitForReview(uint256)":"8a3b37e2","submitReview(uint256,uint8,string)":"74a5b693","supportThresholdBps()":"673ad03f","updateConfiguration(uint256,uint256,uint256)":"c501651a","updateGovernor(address)":"62f384ad","updateProposalOutcome(uint256,uint8)":"ad2df7d8"},"id":16}