{"abi":[{"type":"function","name":"deployLayer","inputs":[{"name":"communityId","type":"uint256","internalType":"uint256"},{"name":"communityName","type":"string","internalType":"string"},{"name":"accessManager","type":"address","internalType":"address"},{"name":"paramController","type":"address","internalType":"address"},{"name":"communityRegistry","type":"address","internalType":"address"},{"name":"valuableActionRegistry","type":"address","internalType":"address"},{"name":"valuableActionSBT","type":"address","internalType":"address"},{"name":"treasuryStableToken","type":"address","internalType":"address"},{"name":"treasuryVault","type":"address","internalType":"address"},{"name":"cohortRegistryCreationCode","type":"bytes","internalType":"bytes"},{"name":"investmentCohortManagerCreationCode","type":"bytes","internalType":"bytes"},{"name":"revenueRouterCreationCode","type":"bytes","internalType":"bytes"},{"name":"communityTokenCreationCode","type":"bytes","internalType":"bytes"},{"name":"treasuryAdapterCreationCode","type":"bytes","internalType":"bytes"}],"outputs":[{"name":"deployment","type":"tuple","internalType":"struct EconomicLayerFactory.Deployment","components":[{"name":"cohortRegistry","type":"address","internalType":"address"},{"name":"investmentCohortManager","type":"address","internalType":"address"},{"name":"revenueRouter","type":"address","internalType":"address"},{"name":"communityToken","type":"address","internalType":"address"},{"name":"treasuryAdapter","type":"address","internalType":"address"}]}],"stateMutability":"nonpayable"},{"type":"function","name":"lastDeploymentByCaller","inputs":[{"name":"","type":"address","internalType":"address"}],"outputs":[{"name":"cohortRegistry","type":"address","internalType":"address"},{"name":"investmentCohortManager","type":"address","internalType":"address"},{"name":"revenueRouter","type":"address","internalType":"address"},{"name":"communityToken","type":"address","internalType":"address"},{"name":"treasuryAdapter","type":"address","internalType":"address"}],"stateMutability":"view"},{"type":"event","name":"EconomicLayerDeployed","inputs":[{"name":"caller","type":"address","indexed":true,"internalType":"address"},{"name":"communityId","type":"uint256","indexed":true,"internalType":"uint256"},{"name":"cohortRegistry","type":"address","indexed":false,"internalType":"address"},{"name":"investmentCohortManager","type":"address","indexed":false,"internalType":"address"},{"name":"revenueRouter","type":"address","indexed":false,"internalType":"address"},{"name":"communityToken","type":"address","indexed":false,"internalType":"address"},{"name":"treasuryAdapter","type":"address","indexed":false,"internalType":"address"}],"anonymous":false},{"type":"error","name":"InvalidInput","inputs":[{"name":"reason","type":"string","internalType":"string"}]},{"type":"error","name":"ZeroAddress","inputs":[]}],"bytecode":{"object":"0x6080806040523461001657610a6c908161001b8239f35b5f80fdfe60806040526004361015610011575f80fd5b5f3560e01c80630d1eafc2146100c0576364996a771461002f575f80fd5b346100bc5760203660031901126100bc576004356001600160a01b03908181168091036100bc575f9081526020818152604091829020805460018201546002830154600384015460049094015486519388166001600160a01b039081168552928816831695840195909552861681169482019490945290841683166060820152921616608082015260a090f35b5f80fd5b346100bc576101c03660031901126100bc5760243567ffffffffffffffff81116100bc576100f290369060040161076f565b6001600160a01b0360443516604435036100bc576001600160a01b0360643516606435036100bc576084356001600160a01b03811681036100bc576001600160a01b0360a4351660a435036100bc576001600160a01b0360c4351660c435036100bc5760e435916001600160a01b03831683036100bc57610104356001600160a01b03811681036100bc576101243567ffffffffffffffff81116100bc5761019e90369060040161076f565b9490926101443567ffffffffffffffff81116100bc576101c290369060040161076f565b94909367ffffffffffffffff61016435116100bc576101e7366101643560040161076f565b94909167ffffffffffffffff61018435116100bc5761020c366101843560040161076f565b9590946101a43567ffffffffffffffff81116100bc5761023090369060040161076f565b909d909c906101206040525f608081905260a081905260c081905260e0819052610100526004351561072a5783156106e5576001600160a01b0360443516156106bb576001600160a01b0360643516156106bb576001600160a01b038d16156106bb576001600160a01b0360a43516156106bb576001600160a01b0360c43516156106bb576001600160a01b038616156106bb576001600160a01b038516156106bb57604051926001600160a01b0360443516602085015260043560408501526040845283606081011067ffffffffffffffff6060860111176106a75761040861039a6001600160a01b039e9c8f9d9a6105279f8f9561039a6103a89e88936103a88561034d61044f9f60269f6103ad9860608301604052610805565b166080818152604080516001600160a01b03604435811660208301529384169181019190915260a4358316606082015260c435929092169082015260043560a082015293849060c0820190565b03601f19810185528461079d565b610805565b166020608001526103a885608051166040519485916004359060c435906064356044356020870191909360809396959460a08401976001600160a01b0380948180941687521660208601521660408401521660608201520152565b1660c0526040519384918190602084013781017f20546f6b656e0000000000000000000000000000000000000000000000000000602082015203600681018452018261079d565b866104ef61045e600435610904565b6104b1602460405180937f5343542d0000000000000000000000000000000000000000000000000000000060208301526104a181518092602086860191016107bf565b810103600481018452018261079d565b604051998a9616602087015260043560408701526104dd610100948560608901526101208801906107e0565b868103601f19016080880152906107e0565b921660a084015269d3c21bcecceda100000060c0840152606435891660e084015260443589169083015203601f19810185528461079d565b166060608001526001600160a01b036040519181604435166020840152166040820152600435606082015260608152608081019181831067ffffffffffffffff8411176106a7576001600160a01b039361058393604052610805565b16610100819052335f81815260208181526040918290206080805182547fffffffffffffffffffffffff00000000000000000000000000000000000000009081166001600160a01b03928316908117855560a080516001870180548516918616918217905560c0516002880180548616918716918217905560e051600389018054871691881691821790556004988901805490961696909c169586179094558851928352968201969096529586015260608501969096528301949094529235927f7b6308ea179ff2eebf5e0f5b2fbda8bc76acfce4c9a8fcb64a8632ef54d39b5591a360408051608080516001600160a01b03908116835260a080518216602085015260c05182169484019490945260e05181166060840152610100511690820152f35b634e487b7160e01b5f52604160045260245ffd5b60046040517fd92e233d000000000000000000000000000000000000000000000000000000008152fd5b606460405163d647364f60e01b815260206004820152601660248201527f636f6d6d756e6974794e616d65207265717569726564000000000000000000006044820152fd5b606460405163d647364f60e01b815260206004820152601460248201527f636f6d6d756e69747949642072657175697265640000000000000000000000006044820152fd5b9181601f840112156100bc5782359167ffffffffffffffff83116100bc57602083818601950101116100bc57565b90601f8019910116810190811067ffffffffffffffff8211176106a757604052565b5f5b8381106107d05750505f910152565b81810151838201526020016107c1565b906020916107f9815180928185528580860191016107bf565b601f01601f1916010190565b9061083f61083360405180936020968793828593848601998a378401918383015f81528151948592016107bf565b0103808452018261079d565b8051156108a35751905ff0906001600160a01b0382161561085e575090565b6064906040519063d647364f60e01b82526004820152600d60248201527f637265617465206661696c6564000000000000000000000000000000000000006044820152fd5b6064836040519063d647364f60e01b82526004820152600f60248201527f656d70747920696e697420636f646500000000000000000000000000000000006044820152fd5b67ffffffffffffffff81116106a757601f01601f191660200190565b80156109eb575f81805b6109d4575061091c816108e8565b9061092a604051928361079d565b808252601f19610939826108e8565b013660208401375b809280156109cd575f1982019182116109b9578193600a9260309084840682018092116109b957855111156109a55760f81b7fff00000000000000000000000000000000000000000000000000000000000000165f1a908401601f01530491610941565b634e487b7160e01b5f52603260045260245ffd5b634e487b7160e01b5f52601160045260245ffd5b5050905090565b905f1981146109b9576001600a910191048061090e565b506040516040810181811067ffffffffffffffff8211176106a757604052600181527f300000000000000000000000000000000000000000000000000000000000000060208201529056fea2646970667358221220757f54f74758c719fdfeb347e8eab7ce62c3157a2b7c47c14a01aaf80d1fc41864736f6c63430008180033","linkReferences":{}},"methodIdentifiers":{"deployLayer(uint256,string,address,address,address,address,address,address,address,bytes,bytes,bytes,bytes,bytes)":"0d1eafc2","lastDeploymentByCaller(address)":"64996a77"},"id":33}