{"abi":[{"type":"constructor","inputs":[{"name":"_governance","type":"address","internalType":"address"},{"name":"_actionRegistry","type":"address","internalType":"address"},{"name":"_verifierManager","type":"address","internalType":"address"},{"name":"_valuableActionSBT","type":"address","internalType":"address"},{"name":"_membershipToken","type":"address","internalType":"address"},{"name":"_communityId","type":"uint256","internalType":"uint256"}],"stateMutability":"nonpayable"},{"type":"function","name":"actionRegistry","inputs":[],"outputs":[{"name":"","type":"address","internalType":"contract ValuableActionRegistry"}],"stateMutability":"view"},{"type":"function","name":"appeals","inputs":[{"name":"","type":"uint256","internalType":"uint256"}],"outputs":[{"name":"engagementId","type":"uint256","internalType":"uint256"},{"name":"appellant","type":"address","internalType":"address"},{"name":"appealReason","type":"string","internalType":"string"},{"name":"createdAt","type":"uint64","internalType":"uint64"},{"name":"status","type":"uint8","internalType":"enum Types.EngagementStatus"},{"name":"approvalsCount","type":"uint32","internalType":"uint32"},{"name":"rejectionsCount","type":"uint32","internalType":"uint32"},{"name":"resolved","type":"bool","internalType":"bool"}],"stateMutability":"view"},{"type":"function","name":"assignJurors","inputs":[{"name":"engagementId","type":"uint256","internalType":"uint256"},{"name":"jurors","type":"address[]","internalType":"address[]"}],"outputs":[],"stateMutability":"nonpayable"},{"type":"function","name":"communityId","inputs":[],"outputs":[{"name":"","type":"uint256","internalType":"uint256"}],"stateMutability":"view"},{"type":"function","name":"engagements","inputs":[{"name":"","type":"uint256","internalType":"uint256"}],"outputs":[{"name":"typeId","type":"uint256","internalType":"uint256"},{"name":"worker","type":"address","internalType":"address"},{"name":"evidenceCID","type":"string","internalType":"string"},{"name":"status","type":"uint8","internalType":"enum Types.EngagementStatus"},{"name":"createdAt","type":"uint64","internalType":"uint64"},{"name":"verifyDeadline","type":"uint64","internalType":"uint64"},{"name":"approvalsCount","type":"uint32","internalType":"uint32"},{"name":"rejectionsCount","type":"uint32","internalType":"uint32"},{"name":"resolved","type":"bool","internalType":"bool"}],"stateMutability":"view"},{"type":"function","name":"engagementsByWorker","inputs":[{"name":"","type":"uint256","internalType":"uint256"},{"name":"","type":"uint256","internalType":"uint256"}],"outputs":[{"name":"","type":"uint256","internalType":"uint256"}],"stateMutability":"view"},{"type":"function","name":"getCommunityId","inputs":[],"outputs":[{"name":"","type":"uint256","internalType":"uint256"}],"stateMutability":"view"},{"type":"function","name":"getEngagement","inputs":[{"name":"engagementId","type":"uint256","internalType":"uint256"}],"outputs":[{"name":"typeId","type":"uint256","internalType":"uint256"},{"name":"worker","type":"address","internalType":"address"},{"name":"evidenceCID","type":"string","internalType":"string"},{"name":"status","type":"uint8","internalType":"enum Types.EngagementStatus"},{"name":"createdAt","type":"uint64","internalType":"uint64"},{"name":"verifyDeadline","type":"uint64","internalType":"uint64"},{"name":"jurors","type":"address[]","internalType":"address[]"},{"name":"approvalsCount","type":"uint32","internalType":"uint32"},{"name":"rejectionsCount","type":"uint32","internalType":"uint32"},{"name":"resolved","type":"bool","internalType":"bool"}],"stateMutability":"view"},{"type":"function","name":"getEngagementInfo","inputs":[{"name":"engagementId","type":"uint256","internalType":"uint256"}],"outputs":[{"name":"typeId","type":"uint256","internalType":"uint256"},{"name":"worker","type":"address","internalType":"address"},{"name":"evidenceCID","type":"string","internalType":"string"},{"name":"status","type":"uint8","internalType":"enum Types.EngagementStatus"},{"name":"createdAt","type":"uint64","internalType":"uint64"},{"name":"verifyDeadline","type":"uint64","internalType":"uint64"},{"name":"approvalsCount","type":"uint32","internalType":"uint32"},{"name":"rejectionsCount","type":"uint32","internalType":"uint32"}],"stateMutability":"view"},{"type":"function","name":"getEngagementJurors","inputs":[{"name":"engagementId","type":"uint256","internalType":"uint256"}],"outputs":[{"name":"jurors","type":"address[]","internalType":"address[]"}],"stateMutability":"view"},{"type":"function","name":"getEngagementsByWorker","inputs":[{"name":"worker","type":"address","internalType":"address"}],"outputs":[{"name":"","type":"uint256[]","internalType":"uint256[]"}],"stateMutability":"view"},{"type":"function","name":"getPendingEngagements","inputs":[{"name":"typeId","type":"uint256","internalType":"uint256"}],"outputs":[{"name":"","type":"uint256[]","internalType":"uint256[]"}],"stateMutability":"view"},{"type":"function","name":"getWorkerCooldown","inputs":[{"name":"worker","type":"address","internalType":"address"},{"name":"typeId","type":"uint256","internalType":"uint256"}],"outputs":[{"name":"nextAllowed","type":"uint64","internalType":"uint64"}],"stateMutability":"view"},{"type":"function","name":"governance","inputs":[],"outputs":[{"name":"","type":"address","internalType":"address"}],"stateMutability":"view"},{"type":"function","name":"hasJurorVoted","inputs":[{"name":"engagementId","type":"uint256","internalType":"uint256"},{"name":"juror","type":"address","internalType":"address"}],"outputs":[{"name":"","type":"bool","internalType":"bool"}],"stateMutability":"view"},{"type":"function","name":"lastAppealId","inputs":[],"outputs":[{"name":"","type":"uint256","internalType":"uint256"}],"stateMutability":"view"},{"type":"function","name":"lastEngagementId","inputs":[],"outputs":[{"name":"","type":"uint256","internalType":"uint256"}],"stateMutability":"view"},{"type":"function","name":"membershipToken","inputs":[],"outputs":[{"name":"","type":"address","internalType":"address"}],"stateMutability":"view"},{"type":"function","name":"pendingEngagements","inputs":[{"name":"","type":"uint256","internalType":"uint256"},{"name":"","type":"uint256","internalType":"uint256"}],"outputs":[{"name":"","type":"uint256","internalType":"uint256"}],"stateMutability":"view"},{"type":"function","name":"revoke","inputs":[{"name":"engagementId","type":"uint256","internalType":"uint256"}],"outputs":[],"stateMutability":"nonpayable"},{"type":"function","name":"submit","inputs":[{"name":"typeId","type":"uint256","internalType":"uint256"},{"name":"evidenceCID","type":"string","internalType":"string"}],"outputs":[{"name":"engagementId","type":"uint256","internalType":"uint256"}],"stateMutability":"nonpayable"},{"type":"function","name":"submitAppeal","inputs":[{"name":"engagementId","type":"uint256","internalType":"uint256"},{"name":"reason","type":"string","internalType":"string"}],"outputs":[{"name":"appealId","type":"uint256","internalType":"uint256"}],"stateMutability":"nonpayable"},{"type":"function","name":"updateContracts","inputs":[{"name":"_verifierManager","type":"address","internalType":"address"},{"name":"_valuableActionSBT","type":"address","internalType":"address"}],"outputs":[],"stateMutability":"nonpayable"},{"type":"function","name":"updateGovernance","inputs":[{"name":"_governance","type":"address","internalType":"address"}],"outputs":[],"stateMutability":"nonpayable"},{"type":"function","name":"valuableActionSBT","inputs":[],"outputs":[{"name":"","type":"address","internalType":"address"}],"stateMutability":"view"},{"type":"function","name":"verifierManager","inputs":[],"outputs":[{"name":"","type":"address","internalType":"address"}],"stateMutability":"view"},{"type":"function","name":"verify","inputs":[{"name":"engagementId","type":"uint256","internalType":"uint256"},{"name":"approve","type":"bool","internalType":"bool"}],"outputs":[],"stateMutability":"nonpayable"},{"type":"function","name":"workerCooldowns","inputs":[{"name":"","type":"address","internalType":"address"},{"name":"","type":"uint256","internalType":"uint256"}],"outputs":[{"name":"","type":"uint64","internalType":"uint64"}],"stateMutability":"view"},{"type":"event","name":"AppealResolved","inputs":[{"name":"appealId","type":"uint256","indexed":true,"internalType":"uint256"},{"name":"status","type":"uint8","indexed":false,"internalType":"enum Types.EngagementStatus"}],"anonymous":false},{"type":"event","name":"AppealSubmitted","inputs":[{"name":"appealId","type":"uint256","indexed":true,"internalType":"uint256"},{"name":"engagementId","type":"uint256","indexed":true,"internalType":"uint256"},{"name":"appellant","type":"address","indexed":true,"internalType":"address"},{"name":"reason","type":"string","indexed":false,"internalType":"string"}],"anonymous":false},{"type":"event","name":"CooldownUpdated","inputs":[{"name":"worker","type":"address","indexed":true,"internalType":"address"},{"name":"typeId","type":"uint256","indexed":true,"internalType":"uint256"},{"name":"nextAllowed","type":"uint64","indexed":false,"internalType":"uint64"}],"anonymous":false},{"type":"event","name":"EngagementResolved","inputs":[{"name":"engagementId","type":"uint256","indexed":true,"internalType":"uint256"},{"name":"status","type":"uint8","indexed":false,"internalType":"enum Types.EngagementStatus"},{"name":"finalApprovals","type":"uint32","indexed":false,"internalType":"uint32"},{"name":"finalRejections","type":"uint32","indexed":false,"internalType":"uint32"}],"anonymous":false},{"type":"event","name":"EngagementRevoked","inputs":[{"name":"engagementId","type":"uint256","indexed":true,"internalType":"uint256"},{"name":"revoker","type":"address","indexed":true,"internalType":"address"}],"anonymous":false},{"type":"event","name":"EngagementSubmitted","inputs":[{"name":"engagementId","type":"uint256","indexed":true,"internalType":"uint256"},{"name":"typeId","type":"uint256","indexed":true,"internalType":"uint256"},{"name":"worker","type":"address","indexed":true,"internalType":"address"},{"name":"evidenceCID","type":"string","indexed":false,"internalType":"string"}],"anonymous":false},{"type":"event","name":"EngagementVerified","inputs":[{"name":"engagementId","type":"uint256","indexed":true,"internalType":"uint256"},{"name":"verifier","type":"address","indexed":true,"internalType":"address"},{"name":"approve","type":"bool","indexed":false,"internalType":"bool"}],"anonymous":false},{"type":"event","name":"JurorsAssigned","inputs":[{"name":"engagementId","type":"uint256","indexed":true,"internalType":"uint256"},{"name":"jurors","type":"address[]","indexed":false,"internalType":"address[]"}],"anonymous":false},{"type":"error","name":"InvalidInput","inputs":[{"name":"reason","type":"string","internalType":"string"}]},{"type":"error","name":"NotAuthorized","inputs":[{"name":"caller","type":"address","internalType":"address"}]},{"type":"error","name":"ZeroAddress","inputs":[]}],"bytecode":{"object":"0x60c0346200015f57601f6200312538819003918201601f191683019291906001600160401b0384118385101762000163578160c092849260409687528339810103126200015f57620000518162000177565b90620000606020820162000177565b6200006d84830162000177565b916200007c6060820162000177565b60a06200008c6080840162000177565b920151946001600160a01b039081169384156200014e5781169485156200014e5781169182156200014e5781169283156200014e57169384156200013d5760018060a01b031993846002541617600255608052825f5416175f55816001541617600155600354161760035560a05251612f9890816200018d8239608051818181610220015281816108590152611527015260a051818181610b340152818161236401528181612a3a0152612d340152f35b865163d92e233d60e01b8152600490fd5b875163d92e233d60e01b8152600490fd5b5f80fd5b634e487b7160e01b5f52604160045260245ffd5b51906001600160a01b03821682036200015f5756fe6080806040526004361015610012575f80fd5b5f3560e01c908163090563f4146120e0575080630b4eb2e414611ef95780630cbd99a6146120bb5780630f2516f414611ff857806320c5429b14611f47578063235e0f0b14611ef95780632e94dfda14611dff5780633e7cb0d3146113405780633f6e3ca9146110965780635352d75e1461102e5780635aa6e675146110085780635d63f6c61461083a57806362ad351b14610814578063649d3d29146107f75780636c8dc288146107aa57806375b0e1f1146105565780637935b495146104a35780637e0766d41461049e5780637f50861a1461049e57806395a2f7ea1461046f5780639947d241146103ed578063acff868714610337578063b2561263146102c6578063b3afac9d14610281578063d6aa9b6e14610244578063e4e3967814610201578063e692c49f1461017a5763e890118414610150575f80fd5b34610176575f3660031901126101765760206001600160a01b0360015416604051908152f35b5f80fd5b34610176576040366003190112610176576101936120fa565b61019b612110565b6001600160a01b0391826002541633036101ea578216806101d5575b5016806101c057005b6001600160a01b031960015416176001555f80f35b6001600160a01b03195f5416175f55826101b7565b6024604051634a0bfec160e01b8152336004820152fd5b34610176575f3660031901126101765760206040516001600160a01b037f0000000000000000000000000000000000000000000000000000000000000000168152f35b346101765761025236612387565b905f52600a60205260405f208054821015610176576020916102739161239d565b90546040519160031b1c8152f35b34610176576020366003190112610176576004355f5260066020526102c26102ae600460405f20016123c6565b604051918291602083526020830190612289565b0390f35b34610176576020366003190112610176576102df6120fa565b600254906001600160a01b039081831633036101ea571690811561030d576001600160a01b03191617600255005b60046040517fd92e233d000000000000000000000000000000000000000000000000000000008152fd5b34610176576020366003190112610176576004355f52600760205260405f208054906001600160a01b036001820154169060ff61037660028301612194565b60066003840154930154906103cc6103ac63ffffffff92604051988998610100918a5260208a01528060408a0152880190612257565b9467ffffffffffffffff8116606088015284608088019160401c1661227c565b80821660a08601528160201c1660c085015260401c16151560e08301520390f35b3461017657602080600319360112610176576001600160a01b0361040f6120fa565b165f52600960205260405f20906040519081602084549182815201935f5260205f20915f905b828210610458576102c28561044c81890382612172565b60405191829182612312565b835486529485019460019384019390910190610435565b346101765761047d36612387565b905f52600960205260405f208054821015610176576020916102739161239d565b61234d565b34610176576020366003190112610176576004355f52600660205260405f208054906001600160a01b036001820154169060038101549067ffffffffffffffff60078201549061051c6104fd600263ffffffff9501612194565b6040519788976101009189526020890152806040890152870190612257565b9361052d6060870160ff831661227c565b818160081c16608087015260481c1660a085015281811660c085015260201c1660e08301520390f35b346101765760403660031901126101765760043560249081359167ffffffffffffffff808411610176573660238501121561017657836004013590811161017657818401938236918360051b010111610176576001600160a01b0391825f54163303610795578315801561078a575b61074457835f526020906006825260405f209060ff6003830154166004811015610731576106ed5783156106a95750909291906004016106058282612754565b5f90815283812090865b838210610684575050506040519281818501828652526040840195925f905b83821061065e57867ff083f0aa71f20298d1c44ffb7a3ecf49b9dcdaa51dcf4a0b519a39167bcb1c8a878a0388a2005b90919293968735908282168092036101765790815283019683019392916001019061062e565b809593949535918683168303610176578460019201928185015501909493929461060f565b8260126064926040519263d647364f60e01b845260048401528201527f4e6f206a75726f72732070726f766964656400000000000000000000000000006044820152fd5b8260166064926040519263d647364f60e01b845260048401528201527f456e676167656d656e74206e6f742070656e64696e67000000000000000000006044820152fd5b50634e487b7160e01b5f5260216004525ffd5b60405163d647364f60e01b815260206004820152601560248201527f496e76616c696420656e676167656d656e7420494400000000000000000000006044820152606490fd5b5060045484116105c5565b604051634a0bfec160e01b8152336004820152fd5b34610176576040366003190112610176576107c3612110565b6004355f5260066020526001600160a01b03600660405f200191165f52602052602060ff60405f2054166040519015158152f35b34610176575f366003190112610176576020600454604051908152f35b34610176575f3660031901126101765760206001600160a01b0360035416604051908152f35b3461017657610848366122c5565b908115610fc3576001600160a01b037f0000000000000000000000000000000000000000000000000000000000000000169260405193632e7edc3160e11b85528160048601525f85602481845afa948515610f8e575f95610f99575b506020602491604051928380927fe9ea801c0000000000000000000000000000000000000000000000000000000082528660048301525afa908115610f8e575f91610f54575b5015610f0f57335f52600860205260405f20815f5260205267ffffffffffffffff60405f2054164210610eca575f335f52600960205260405f205f908054915b828110610e525750505063ffffffff610120860151161115610de757610951600454612453565b9283600455835f52600660205260405f2082815560018101336001600160a01b031982541617905567ffffffffffffffff8211610c4d576109956002820154612126565b601f8111610da9575b50815f601f8211600114610d3f575f91610d34575b508260011b905f198460031b1c19161760028201555b60038101805470ffffffffffffffff0000000000000000006109f563ffffffff60a08b01511642612446565b60481b16907fffffffffffffffffffffffffffffff000000000000000000000000000000000068ffffffffffffffff004260081b169116171790556001600160a01b035f54169586151580610d2a575b610ab7575b5050602094507fa7d3ae224c6019488e1452211c528a36b619bfcb8881b5c85248ee05d320b9fc610aac8592845f52600a8852610a8a8460405f2061278b565b335f5260098852610a9e8460405f2061278b565b604051918291339783612477565b0390a4604051908152f35b608063ffffffff91015116604051964260208901524460408901528660608901526060885287608081011067ffffffffffffffff60808a011117610c4d575f9160808901604052885160208a0120907f705ac2f00000000000000000000000000000000000000000000000000000000060808b01528860848b01527f000000000000000000000000000000000000000000000000000000000000000060a48b015260c48a015260e48901528161010489015260a460808901918360808b01915af15f9681610c61575b50610b8c575b80610a4a565b60040194805167ffffffffffffffff8111610c4d57610bab8188612754565b60208201965f5260205f20965f5b828110610c305750505060209550610aac8592837ff083f0aa71f20298d1c44ffb7a3ecf49b9dcdaa51dcf4a0b519a39167bcb1c8a610c257fa7d3ae224c6019488e1452211c528a36b619bfcb8881b5c85248ee05d320b9fc956040519182918d83528d830190612289565b0390a2925050610b86565b60019060206001600160a01b03845116930192818b015501610bb9565b634e487b7160e01b5f52604160045260245ffd5b9096503d805f608084013e610c798160808401612172565b60208282810103126101765760808201519067ffffffffffffffff821161017657608081840101609f838501011215610176576080828401015191610cbd83612531565b93610ccb6040519586612172565b8385526080602086019382010160a08560051b8484010101116101765780820160a00192915b60a08560051b82840101018410610d0e5750505050509587610b80565b60208060a094610d1d876124bc565b8152019401939250610cf1565b50863b1515610a45565b9050840135876109b3565b9050600282015f5260205f20905f5b601f1985168110610d91575083601f19811610610d78575b5050600182811b0160028201556109c9565b8501355f19600385901b60f8161c191690558680610d66565b9091602060018192858a013581550193019101610d4e565b610dd790600283015f5260205f20601f850160051c81019160208610610ddd575b601f0160051c0190612461565b8661099e565b9091508190610dca565b608460405163d647364f60e01b815260206004820152603460248201527f546f6f206d616e7920636f6e63757272656e7420656e676167656d656e74732060448201527f666f72207468697320616374696f6e20747970650000000000000000000000006064820152fd5b610e5c818361239d565b9054600391821b1c5f52600660205260405f2090868254149182610e9e575b5050610e8a575b60010161092a565b92610e96600191612453565b939050610e82565b60ff92500154166004811015610eb657158980610e7b565b634e487b7160e01b5f52602160045260245ffd5b606460405163d647364f60e01b815260206004820152601c60248201527f576f726b657220697320696e20636f6f6c646f776e20706572696f64000000006044820152fd5b606460405163d647364f60e01b815260206004820152601960248201527f416374696f6e2074797065206973206e6f7420616374697665000000000000006044820152fd5b90506020813d602011610f86575b81610f6f60209383612172565b8101031261017657610f80906124af565b856108ea565b3d9150610f62565b6040513d5f823e3d90fd5b6024919550610fbb6020913d805f833e610fb38183612172565b81019061255e565b9591506108a4565b606460405163d647364f60e01b815260206004820152601c60248201527f45766964656e6365204349442063616e6e6f7420626520656d707479000000006044820152fd5b34610176575f3660031901126101765760206001600160a01b0360025416604051908152f35b3461017657602080600319360112610176576004355f52600a60205260405f20906040519081602084549182815201935f5260205f20915f905b82821061107f576102c28561044c81890382612172565b835486529485019460019384019390910190611068565b34610176576110a4366122c5565b9082158015611335575b61074457825f526020926006845260405f206001906001600160a01b03828201541633036101ea576003015460ff166004811015610eb6576002036112cb578315611286576110fe600554612453565b9384600555845f526007865260405f20838155828101336001600160a01b0319825416179055600281019067ffffffffffffffff91828411610c4d5787946111468254612126565b601f8111611258575b505f601f86116001146111ce5792610aac949286806003947f8b854ce0da61627b71db5b08aa8add12d290d4986ff2a3fa0a8a4bbec82adf4099975f936111c3575b501b905f1987861b1c19161790555b0190421668ffffffffffffffffff19825416179055604051918291339783612477565b8d013592508f611191565b601f19861690835f528b5f20915f5b8d8c8383106112425750505092879592610aac9795927f8b854ce0da61627b71db5b08aa8add12d290d4986ff2a3fa0a8a4bbec82adf40996003961061122b575b505085811b0190556111a0565b8c01355f1988871b60f8161c191690558d8061121e565b84013585558d9a509385019392830192016111dd565b61128090835f528b5f20601f880160051c8101918d8910610ddd57601f0160051c0190612461565b8a61114f565b6064856040519063d647364f60e01b82526004820152601d60248201527f41707065616c20726561736f6e2063616e6e6f7420626520656d7074790000006044820152fd5b6084856040519063d647364f60e01b825260048201526024808201527f43616e206f6e6c792061707065616c2072656a656374656420656e676167656d60448201527f656e7473000000000000000000000000000000000000000000000000000000006064820152fd5b5060045483116110ae565b3461017657604036600319011261017657600435602480359182151592838103610176575f925f5b835f526006602052600460405f20018054821015611df557611392826001600160a01b039261239d565b919054339260031b1c16146113a957600101611368565b509091925060015b1561079557825f5260206006815260405f2094600786019260ff845460401c16611db15767ffffffffffffffff96600390888282015460481c164211611d6d5760058101335f5280865260ff60405f205416611d295790600491335f52865260405f209460019860ff19968a8882541617905560068301885260405f208781541660ff84161790555f14611cf657875463ffffffff61145181831661241d565b169063ffffffff19161788555b604051908152897f42617fa09c8caa7d4f81a73197c4ba0e471fece9de0cea84deadf0f77a840296883393a30154861c94868601809611611ce3575463ffffffff958616908087168211611b1f575050865f526006845260405f2092868285019182541617905560078301976801000000000000000068ff0000000000000000198a54161789556001600160a01b03805f54168015159081611b14575b5080611b07575b611af9575b5f9185549560405192632e7edc3160e11b84528760048501525f848881847f0000000000000000000000000000000000000000000000000000000000000000165afa8015610f8e578b988a955f92611add575b50848c6101008401511680611a9f575b505050818754168d81151580611a93575b61195e575b50508a828a54169182611737575b505050819293949596977fd8eb0cefdb0127a28f46f819c890dd12498a91c4e8651ad37cdb4c198f57827392015416915493849383875260088252604087208588528252604087205416604051908152a38152600a8452604081209281875b611638575b505050505090606092917f63a2ece265013dc14ef474ec9db320c23a7f7138ecebbd5e709273474233004094955490604051938452828216818501521c166040820152a2005b845480821015611731578961164d838861239d565b905490871b1c1461166157508701876115ed565b935f9a969798999a199485810190811161171e576116ab9291611687611693928961239d565b9054911b1c918761239d565b90919082549060031b91821b915f19901b1916179055565b835491821561170d5750509160609593917f63a2ece265013dc14ef474ec9db320c23a7f7138ecebbd5e709273474233004097959301906116ff6116ef838361239d565b8154905f199060031b1b19169055565b5595948192939488806115f2565b634e487b7160e01b81526031600452fd5b8385634e487b7160e01b81526011600452fd5b506115f2565b9092949697989950829193955051168015155f14611956575b1661175a8c612e38565b916118a2606461176a8754612e38565b9461177485612e38565b8d61186d61178142612e38565b92604051998a957f7b2274797065223a22656e676167656d656e74222c226964223a000000000000858801526117c08151809287603a8b019101612236565b86017f2c2276616c7561626c65416374696f6e223a0000000000000000000000000000603a8201526117fb8251809387604c85019101612236565b017f2c22706f696e7473223a00000000000000000000000000000000000000000000604c8201526118358251809386605685019101612236565b01917f2c2274696d657374616d70223a0000000000000000000000000000000000000060568401528351938491606385019101612236565b017f7d000000000000000000000000000000000000000000000000000000000000006063820152036044810186520184612172565b838c86015416813b15611952579089888094936118fe604051978896879586947f18399ef20000000000000000000000000000000000000000000000000000000086526004860152840152606060448401526064830190612257565b03925af1801561194757918893918b989796959361191e575b8a8161158e565b859697985061193191939592945061215e565b6119435791869189969594938d611917565b8380fd5b6040513d87823e3d90fd5b8780fd5b50600a611750565b6119f79a50611a0691929650604a9061198061197a8754612e38565b91612e38565b8d6040519d8e937f56616c7561626c65416374696f6e202300000000000000000000000000000000838601526119bf8151809285603089019101612236565b8401917f20636f6d706c6574696f6e202d20456e676167656d656e742023000000000000603084015283519384918785019101612236565b0103602a81018c52018a612172565b818c84015416908b86511690803b1561017657895f8094611a666040519e8f96879586947fd3fc98640000000000000000000000000000000000000000000000000000000086526004860152840152606060448401526064830190612257565b03925af1938415610f8e578b988a95611a80575b8d611580565b611a8b91965061215e565b5f948e611a7a565b508c835116151561157b565b611aa99042612446565b1690838b860154165f526008875260405f20905f52865260405f209067ffffffffffffffff198254161790558e848161156a565b611af29192503d805f833e610fb38183612172565b908f61155a565b611b0289612b8d565b611507565b5060048501541515611502565b90503b15158b6114fb565b85879896999a5096919294961c161015611b3557005b8291875f526006875260405f209460028287019182541617905560078501946801000000000000000068ff0000000000000000198754161786556001600160a01b035f54168015159081611cd8575b5080611ccb575b611cbd575b545f52600a875260405f20915f945b611be9575b5050505050916060917f63a2ece265013dc14ef474ec9db320c23a7f7138ecebbd5e709273474233004093546040519260028452828216818501521c166040820152a2005b825480861015611cb75789611bfe878661239d565b905490851b1c14611c1457508380950194611b9f565b93509193905f1993848101908111611ca457611c449291611c38611693928861239d565b9054911b1c918661239d565b8254908115611c925750917f63a2ece265013dc14ef474ec9db320c23a7f7138ecebbd5e7092734742330040959391606095930190611c866116ef838361239d565b55919381938780611ba4565b634e487b7160e01b5f5260316004525ffd5b83634e487b7160e01b5f5260116004525ffd5b50611ba4565b611cc6896127f9565b611b90565b5060048101541515611b8b565b90503b15158a611b84565b82634e487b7160e01b5f5260116004525ffd5b875467ffffffff00000000611d1263ffffffff838b1c1661241d565b891b169067ffffffff00000000191617885561145e565b6064866013866040519263d647364f60e01b845260048401528201527f4a75726f7220616c726561647920766f746564000000000000000000000000006044820152fd5b606485601c856040519263d647364f60e01b845260048401528201527f566572696669636174696f6e20646561646c696e6520706173736564000000006044820152fd5b82601b6064926040519263d647364f60e01b845260048401528201527f456e676167656d656e7420616c7265616479207265736f6c76656400000000006044820152fd5b50509091926113b1565b346101765760203660031901126101765760043580158015611eee575b610744575f52600660205260405f208054906001600160a01b036001820154169060ff600382015491611eca67ffffffffffffffff9360078301549263ffffffff95611e99611e796004611e7260028601612194565b94016123c6565b926040519a8b9a610140918c5260208c01528060408c01528a0190612257565b92611ea960608a0188831661227c565b818160081c1660808a015260481c1660a088015286820360c0880152612289565b9280821660e08601528160201c1661010085015260401c1615156101208301520390f35b506004548111611e1c565b34610176576040366003190112610176576001600160a01b03611f1a6120fa565b165f52600860205260405f206024355f52602052602067ffffffffffffffff60405f205416604051908152f35b34610176576020366003190112610176576004356001600160a01b036002541633036101ea5780158015611fed575b61074457805f52600660205260405f2060ff600782015460401c1680611fd3575b611f9d57005b600301600360ff1982541617905533907fbbced4f2f4eedf16b14afceeba0a9fcf96fc3475c059f0dbc23057708ae47aa65f80a3005b5060ff6003820154166004811015610eb657600114611f97565b506004548111611f76565b34610176576020366003190112610176576004355f52600660205260405f208054906001600160a01b036001820154169060ff61203760028301612194565b91600381015492600767ffffffffffffffff9201549161207563ffffffff92604051988998610120918a5260208a01528060408a0152880190612257565b946120856060880186831661227c565b818160081c16608088015260481c1660a086015280821660c08601528160201c1660e085015260401c1615156101008301520390f35b34610176575f3660031901126101765760206001600160a01b035f5416604051908152f35b34610176575f366003190112610176576020906005548152f35b600435906001600160a01b038216820361017657565b602435906001600160a01b038216820361017657565b90600182811c92168015612154575b602083101461214057565b634e487b7160e01b5f52602260045260245ffd5b91607f1691612135565b67ffffffffffffffff8111610c4d57604052565b90601f8019910116810190811067ffffffffffffffff821117610c4d57604052565b9060405191825f82546121a681612126565b908184526020946001916001811690815f1461221457506001146121d6575b5050506121d492500383612172565b565b5f90815285812095935091905b8183106121fc5750506121d493508201015f80806121c5565b855488840185015294850194879450918301916121e3565b925050506121d494925060ff191682840152151560051b8201015f80806121c5565b5f5b8381106122475750505f910152565b8181015183820152602001612238565b9060209161227081518092818552858086019101612236565b601f01601f1916010190565b906004821015610eb65752565b9081518082526020808093019301915f5b8281106122a8575050505090565b83516001600160a01b03168552938101939281019260010161229a565b6040600319820112610176576004359160243567ffffffffffffffff9283821161017657806023830112156101765781600401359384116101765760248483010111610176576024019190565b60209060206040818301928281528551809452019301915f5b828110612339575050505090565b83518552938101939281019260010161232b565b34610176575f3660031901126101765760206040517f00000000000000000000000000000000000000000000000000000000000000008152f35b6040906003190112610176576004359060243590565b80548210156123b2575f5260205f2001905f90565b634e487b7160e01b5f52603260045260245ffd5b90604051918281549182825260209260208301915f5260205f20935f905b8282106123fa575050506121d492500383612172565b85546001600160a01b0316845260019586019588955093810193909101906123e4565b63ffffffff8091169081146124325760010190565b634e487b7160e01b5f52601160045260245ffd5b9190820180921161243257565b5f1981146124325760010190565b81811061246c575050565b5f8155600101612461565b90918060409360208452816020850152848401375f828201840152601f01601f1916010190565b519063ffffffff8216820361017657565b5190811515820361017657565b51906001600160a01b038216820361017657565b67ffffffffffffffff8111610c4d57601f01601f191660200190565b81601f82011215610176578051612502816124d0565b926125106040519485612172565b818452602082840101116101765761252e9160208085019101612236565b90565b67ffffffffffffffff8111610c4d5760051b60200190565b519067ffffffffffffffff8216820361017657565b602091828282031261017657815167ffffffffffffffff928382116101765701916102609384848403126101765760405194850185811083821117610c4d576040526125a98461249e565b85526125b681850161249e565b818601526125c66040850161249e565b60408601526125d76060850161249e565b60608601526125e86080850161249e565b60808601526125f960a0850161249e565b60a086015261260a60c0850161249e565b60c086015261261b60e0850161249e565b60e086015261010061262e81860161249e565b9086015261012061264081860161249e565b908601526101406126528186016124af565b9086015261016061266481860161249e565b9086015261018080850151908601526101a06126818186016124bc565b908601526101c080850151838111610176578461269f9187016124ec565b908601526101e08085015183811161017657846126bd9187016124ec565b9086015261020091828501519081116101765784019280601f850112156101765783516126e981612531565b946126f76040519687612172565b818652838087019260051b820101928311610176578301905b828210612745575050505083015261022061272c818301612549565b9083015261273e610240809201612549565b9082015290565b81518152908301908301612710565b90680100000000000000008111610c4d5781549080835581811061277757505050565b6121d4925f5260205f209182019101612461565b9081549168010000000000000000831015610c4d57826116939160016121d49501815561239d565b906127bd82612531565b6127ca6040519182612172565b82815280926127db601f1991612531565b0190602036910137565b80518210156123b25760209160051b010190565b5f815f52602090600682526040805f20906004908183018054908115612b835790612823816127b3565b945f92600582019160060190845b848110612af55750505050508061284c575b50505050505050565b61285c81989394959697986127b3565b94865b828110612acd575050508461287388612e38565b95612aba57506002965f949088805b612aa45750612890866124d0565b9761289d8451998a612172565b8689526128a9876124d0565b8982019790601f19013689375b808b15612981575f19820191821161296e57819b600a928382049380850290858204148515171561295b5782039182116129485760ff809216603001918211612948578c5111156129355760f81b7fff00000000000000000000000000000000000000000000000000000000000000165f1a908b01601f0153996128b6565b603289634e487b7160e01b5f525260245ffd5b60118a634e487b7160e01b5f525260245ffd5b60118b634e487b7160e01b5f525260245ffd5b601188634e487b7160e01b5f525260245ffd5b505090939850603c91956129c095986129f5612a0495998a5198856a656e676167656d656e742d60a81b8b978801528251928391602b89019101612236565b8401917f2d696e636f72726563742d766f7465732d000000000000000000000000000000602b84015251809386840190612236565b0103601c810185520183612172565b6001600160a01b035f541691823b1561017657612a6f95612a815f969287935198899788968795634f87330d60e11b87528601527f00000000000000000000000000000000000000000000000000000000000000006024860152608060448601526084850190612289565b83810360031901606485015290612257565b03925af1612a95575b808080808080612843565b612a9e9061215e565b5f612a8a565b9895612ab1600a91612453565b96990480612882565b80602185634e487b7160e01b6024945252fd5b806001600160a01b03612ae2600193856127e5565b5116612aee828a6127e5565b520161285f565b6001600160a01b03612b07828461239d565b90549060031b1c16808b52848c528a8c8560ff91828c8520541615612b76575289822054169b612b6357505f9a612b44575b506001905b01612831565b86612b5c91612b56600194998d6127e5565b52612453565b9590612b39565b8060218b634e487b7160e01b6024945252fd5b5050505050600190612b3e565b5050505050505050565b805f526020600681526040805f20600480820180549081156128435790612bb3816127b3565b935f92600582019160060190845b848110612dcf57505050505080612bdb575b505050505050565b612bec8197929397969495966127b3565b965f5b828110612da157505050612c0283612e38565b936001968794855f965b612d8b5750612c1a866124d0565b97612c278451998a612172565b868952612c33876124d0565b8982019790601f19013689375b808b15612cbf575f19820191821161296e57819b600a928382049380850290858204148515171561295b5782039182116129485760ff809216603001918211612948578c5111156129355760f81b7fff00000000000000000000000000000000000000000000000000000000000000165f1a908b01601f015399612c40565b505090939850603c91956129c095986129f5612cfe95998a5198856a656e676167656d656e742d60a81b8b978801528251928391602b89019101612236565b6001600160a01b035f541691823b1561017657612a6f95612d695f969287935198899788968795634f87330d60e11b87528601527f00000000000000000000000000000000000000000000000000000000000000006024860152608060448601526084850190612289565b03925af1612d7c575b8080808080612bd3565b612d859061215e565b5f612d72565b9895612d98600a91612453565b96990480612c0c565b806001600160a01b03612db9600193859c999c6127e5565b5116612dc582896127e5565b5201979497612bef565b6001600160a01b03612de1828461239d565b90549060031b1c16805f52848b5260ff808b5f20541615612e2e57848c528a5f20541615612e15575b506001905b01612bc1565b86612e2791612b56600194998c6127e5565b9590612e0a565b5050600190612e0f565b8015612f1757905f9082805b612efd5750612e52826124d0565b91612e606040519384612172565b808352601f19612e6f826124d0565b013660208501375b808415612ef6575f198201918211612432578194600a92838204938085029085820414851517156124325782039182116124325760ff80921660300191821161243257855111156123b25760f81b7fff00000000000000000000000000000000000000000000000000000000000000165f1a908401601f015392612e77565b5050915090565b91612f0c600a91949294612453565b920480939193612e44565b506040516040810181811067ffffffffffffffff821117610c4d57604052600181527f300000000000000000000000000000000000000000000000000000000000000060208201529056fea2646970667358221220646e20c092bba81f0ff3f629da830bf931823099a942635dceef68aa3f52314f64736f6c63430008180033","linkReferences":{}},"methodIdentifiers":{"actionRegistry()":"e4e39678","appeals(uint256)":"acff8687","assignJurors(uint256,address[])":"75b0e1f1","communityId()":"7f50861a","engagements(uint256)":"0f2516f4","engagementsByWorker(uint256,uint256)":"95a2f7ea","getCommunityId()":"7e0766d4","getEngagement(uint256)":"2e94dfda","getEngagementInfo(uint256)":"7935b495","getEngagementJurors(uint256)":"b3afac9d","getEngagementsByWorker(address)":"9947d241","getPendingEngagements(uint256)":"5352d75e","getWorkerCooldown(address,uint256)":"235e0f0b","governance()":"5aa6e675","hasJurorVoted(uint256,address)":"6c8dc288","lastAppealId()":"090563f4","lastEngagementId()":"649d3d29","membershipToken()":"62ad351b","pendingEngagements(uint256,uint256)":"d6aa9b6e","revoke(uint256)":"20c5429b","submit(uint256,string)":"5d63f6c6","submitAppeal(uint256,string)":"3f6e3ca9","updateContracts(address,address)":"e692c49f","updateGovernance(address)":"b2561263","valuableActionSBT()":"e8901184","verifierManager()":"0cbd99a6","verify(uint256,bool)":"3e7cb0d3","workerCooldowns(address,uint256)":"0b4eb2e4"},"id":12}