{"abi":[{"type":"function","name":"deployLayer","inputs":[{"name":"communityId","type":"uint256","internalType":"uint256"},{"name":"communityName","type":"string","internalType":"string"},{"name":"accessManager","type":"address","internalType":"address"},{"name":"executionDelay","type":"uint256","internalType":"uint256"},{"name":"timelockAdmin","type":"address","internalType":"address"},{"name":"membershipTokenCreationCode","type":"bytes","internalType":"bytes"},{"name":"timelockCreationCode","type":"bytes","internalType":"bytes"},{"name":"governorCreationCode","type":"bytes","internalType":"bytes"},{"name":"countingMultiChoiceCreationCode","type":"bytes","internalType":"bytes"}],"outputs":[{"name":"deployment","type":"tuple","internalType":"struct GovernanceLayerFactory.Deployment","components":[{"name":"membershipToken","type":"address","internalType":"address"},{"name":"timelock","type":"address","internalType":"address"},{"name":"governor","type":"address","internalType":"address"},{"name":"countingMultiChoice","type":"address","internalType":"address"}]}],"stateMutability":"nonpayable"},{"type":"function","name":"lastDeploymentByCaller","inputs":[{"name":"","type":"address","internalType":"address"}],"outputs":[{"name":"membershipToken","type":"address","internalType":"address"},{"name":"timelock","type":"address","internalType":"address"},{"name":"governor","type":"address","internalType":"address"},{"name":"countingMultiChoice","type":"address","internalType":"address"}],"stateMutability":"view"},{"type":"event","name":"GovernanceLayerDeployed","inputs":[{"name":"caller","type":"address","indexed":true,"internalType":"address"},{"name":"communityId","type":"uint256","indexed":true,"internalType":"uint256"},{"name":"membershipToken","type":"address","indexed":false,"internalType":"address"},{"name":"timelock","type":"address","indexed":false,"internalType":"address"},{"name":"governor","type":"address","indexed":false,"internalType":"address"},{"name":"countingMultiChoice","type":"address","indexed":false,"internalType":"address"}],"anonymous":false},{"type":"error","name":"InvalidInput","inputs":[{"name":"reason","type":"string","internalType":"string"}]},{"type":"error","name":"ZeroAddress","inputs":[]}],"bytecode":{"object":"0x6080806040523461001657610982908161001b8239f35b5f80fdfe60806040526004361015610011575f80fd5b5f3560e01c8063569cb26f146100bb576364996a771461002f575f80fd5b346100b75760203660031901126100b7576004356001600160a01b03908181168091036100b7575f525f60205260405f206100b3828254169183600182015416936003816002840154169201541690604051948594859294936060929160808501966001600160a01b03809481809416885216602087015216604085015216910152565b0390f35b5f80fd5b346100b7576101203660031901126100b75760243567ffffffffffffffff81116100b7576100ed903690600401610622565b90604435916001600160a01b03831683036100b7576084356001600160a01b03811681036100b75760a43567ffffffffffffffff81116100b757610135903690600401610622565b92909160c43567ffffffffffffffff81116100b757610158903690600401610622565b95909260e43567ffffffffffffffff81116100b75761017b903690600401610622565b9790946101043567ffffffffffffffff81116100b75761019f903690600401610622565b90989097906101006040525f608081905260a081905260c081905260e052600435156105dd578415610598576001600160a01b038c161561056e576001600160a01b0387161561056e5763ffffffff60643511610529576001600160a01b03968761030e6102db8f94610309966103096103549b6025986102c06103779f602b9061027e61022e600435610748565b6040519e8f80927f734d454d2d000000000000000000000000000000000000000000000000000000602083015261026e81518092602086860191016106aa565b8101036005810183520190610688565b84604051958692602084013781017f204d656d62657273686970000000000000000000000000000000000000000000602082015203600b810185520183610688565b876102ee6040519788946080602087015260a08601906106cb565b601f199c8d8683030160408701526106cb565b91600435606085015216608083015203888101855284610688565b610869565b166080526040519061031f82610650565b5f82528861036460405161033281610650565b5f8152604051998a9560643560208801526080604088015260a08701906106f0565b90868683030160608701526106f0565b9116608083015203908101855284610688565b166020608001526001600160a01b0380608051169560405196602088015216604086015263ffffffff606435166060860152606085526080850185811067ffffffffffffffff821117610515576001600160a01b03956103fe9587936103df93604052610869565b169182604060800152604051926020840152602083526103098361066c565b1660e0819052335f81815260208181526040918290206080805182546001600160a01b039182167fffffffffffffffffffffffff00000000000000000000000000000000000000009182168117855560a0516001860180549185169184168217905560c051600287018054918616918516821790556003909601805494909a16939092168317909855855197885293870193909352928501526060840152600435927ff764f950483ab4943706c6832e0b41163f902b6680a96d1905c24ccda7c4acb29190a360806040516001600160a01b036080511681526001600160a01b036020608001511660208201526001600160a01b036040608001511660408201526001600160a01b03606060800151166060820152f35b634e487b7160e01b5f52604160045260245ffd5b606460405163d647364f60e01b815260206004820152601d60248201527f657865637574696f6e44656c617920657863656564732075696e7433320000006044820152fd5b60046040517fd92e233d000000000000000000000000000000000000000000000000000000008152fd5b606460405163d647364f60e01b815260206004820152601660248201527f636f6d6d756e6974794e616d65207265717569726564000000000000000000006044820152fd5b606460405163d647364f60e01b815260206004820152601460248201527f636f6d6d756e69747949642072657175697265640000000000000000000000006044820152fd5b9181601f840112156100b75782359167ffffffffffffffff83116100b757602083818601950101116100b757565b6020810190811067ffffffffffffffff82111761051557604052565b6040810190811067ffffffffffffffff82111761051557604052565b90601f8019910116810190811067ffffffffffffffff82111761051557604052565b5f5b8381106106bb5750505f910152565b81810151838201526020016106ac565b906020916106e4815180928185528580860191016106aa565b601f01601f1916010190565b9081518082526020808093019301915f5b82811061070f575050505090565b83516001600160a01b031685529381019392810192600101610701565b67ffffffffffffffff811161051557601f01601f191660200190565b801561082f575f81805b61081857506107608161072c565b9061076e6040519283610688565b808252601f1961077d8261072c565b013660208401375b80928015610811575f1982019182116107fd578193600a9260309084840682018092116107fd57855111156107e95760f81b7fff00000000000000000000000000000000000000000000000000000000000000165f1a908401601f01530491610785565b634e487b7160e01b5f52603260045260245ffd5b634e487b7160e01b5f52601160045260245ffd5b5050905090565b905f1981146107fd576001600a9101910480610752565b5060405161083c8161066c565b600181527f3000000000000000000000000000000000000000000000000000000000000000602082015290565b906108a361089760405180936020968793828593848601998a378401918383015f81528151948592016106aa565b01038084520182610688565b8051156109075751905ff0906001600160a01b038216156108c2575090565b6064906040519063d647364f60e01b82526004820152600d60248201527f637265617465206661696c6564000000000000000000000000000000000000006044820152fd5b6064836040519063d647364f60e01b82526004820152600f60248201527f656d70747920696e697420636f646500000000000000000000000000000000006044820152fdfea26469706673582212205267157f1415ee2cd7b499837148ada971d258f7a02af3ca02fc0abf55fd805764736f6c63430008180033","linkReferences":{}},"methodIdentifiers":{"deployLayer(uint256,string,address,uint256,address,bytes,bytes,bytes,bytes)":"569cb26f","lastDeploymentByCaller(address)":"64996a77"},"id":34}