{"abi":[{"type":"constructor","inputs":[{"name":"manager","type":"address","internalType":"address"},{"name":"_stablecoin","type":"address","internalType":"address"},{"name":"_communityId","type":"uint256","internalType":"uint256"}],"stateMutability":"nonpayable"},{"type":"function","name":"BPS_DENOMINATOR","inputs":[],"outputs":[{"name":"","type":"uint256","internalType":"uint256"}],"stateMutability":"view"},{"type":"function","name":"CANCEL_FULL_REFUND_DAYS","inputs":[],"outputs":[{"name":"","type":"uint256","internalType":"uint256"}],"stateMutability":"view"},{"type":"function","name":"CANCEL_HALF_REFUND_DAYS","inputs":[],"outputs":[{"name":"","type":"uint256","internalType":"uint256"}],"stateMutability":"view"},{"type":"function","name":"MAX_STAY_NIGHTS","inputs":[],"outputs":[{"name":"","type":"uint256","internalType":"uint256"}],"stateMutability":"view"},{"type":"function","name":"MIN_STAY_NIGHTS","inputs":[],"outputs":[{"name":"","type":"uint256","internalType":"uint256"}],"stateMutability":"view"},{"type":"function","name":"authority","inputs":[],"outputs":[{"name":"","type":"address","internalType":"address"}],"stateMutability":"view"},{"type":"function","name":"balanceOf","inputs":[{"name":"account","type":"address","internalType":"address"},{"name":"id","type":"uint256","internalType":"uint256"}],"outputs":[{"name":"","type":"uint256","internalType":"uint256"}],"stateMutability":"view"},{"type":"function","name":"balanceOfBatch","inputs":[{"name":"accounts","type":"address[]","internalType":"address[]"},{"name":"ids","type":"uint256[]","internalType":"uint256[]"}],"outputs":[{"name":"","type":"uint256[]","internalType":"uint256[]"}],"stateMutability":"view"},{"type":"function","name":"checkIn","inputs":[{"name":"reservationId","type":"uint256","internalType":"uint256"}],"outputs":[],"stateMutability":"nonpayable"},{"type":"function","name":"checkOut","inputs":[{"name":"reservationId","type":"uint256","internalType":"uint256"}],"outputs":[],"stateMutability":"nonpayable"},{"type":"function","name":"communityId","inputs":[],"outputs":[{"name":"","type":"uint256","internalType":"uint256"}],"stateMutability":"view"},{"type":"function","name":"consume","inputs":[{"name":"productId","type":"uint256","internalType":"uint256"},{"name":"buyer","type":"address","internalType":"address"},{"name":"params","type":"bytes","internalType":"bytes"},{"name":"amountPaid","type":"uint256","internalType":"uint256"}],"outputs":[{"name":"resourceId","type":"uint256","internalType":"uint256"}],"stateMutability":"nonpayable"},{"type":"function","name":"createUnit","inputs":[{"name":"unitOwner","type":"address","internalType":"address"},{"name":"metadataURI","type":"string","internalType":"string"},{"name":"basePrice","type":"uint256","internalType":"uint256"},{"name":"capacity","type":"uint256","internalType":"uint256"},{"name":"cancellationPolicyBps","type":"uint256","internalType":"uint256"}],"outputs":[{"name":"unitId","type":"uint256","internalType":"uint256"}],"stateMutability":"nonpayable"},{"type":"function","name":"exists","inputs":[{"name":"id","type":"uint256","internalType":"uint256"}],"outputs":[{"name":"","type":"bool","internalType":"bool"}],"stateMutability":"view"},{"type":"function","name":"getCancellationRefundBps","inputs":[{"name":"reservationId","type":"uint256","internalType":"uint256"}],"outputs":[{"name":"refundBps","type":"uint256","internalType":"uint256"}],"stateMutability":"view"},{"type":"function","name":"getInvestorStake","inputs":[{"name":"unitId","type":"uint256","internalType":"uint256"},{"name":"investor","type":"address","internalType":"address"}],"outputs":[{"name":"","type":"uint256","internalType":"uint256"}],"stateMutability":"view"},{"type":"function","name":"getReservation","inputs":[{"name":"reservationId","type":"uint256","internalType":"uint256"}],"outputs":[{"name":"","type":"tuple","internalType":"struct HousingManager.Reservation","components":[{"name":"reservationId","type":"uint256","internalType":"uint256"},{"name":"unitId","type":"uint256","internalType":"uint256"},{"name":"orderId","type":"uint256","internalType":"uint256"},{"name":"guest","type":"address","internalType":"address"},{"name":"checkInDate","type":"uint64","internalType":"uint64"},{"name":"checkOutDate","type":"uint64","internalType":"uint64"},{"name":"totalPrice","type":"uint256","internalType":"uint256"},{"name":"status","type":"uint8","internalType":"enum HousingManager.ReservationStatus"},{"name":"checkedInAt","type":"uint64","internalType":"uint64"},{"name":"checkedOutAt","type":"uint64","internalType":"uint64"}]}],"stateMutability":"view"},{"type":"function","name":"getUnit","inputs":[{"name":"unitId","type":"uint256","internalType":"uint256"}],"outputs":[{"name":"","type":"tuple","internalType":"struct HousingManager.Unit","components":[{"name":"unitId","type":"uint256","internalType":"uint256"},{"name":"communityId","type":"uint256","internalType":"uint256"},{"name":"owner","type":"address","internalType":"address"},{"name":"metadataURI","type":"string","internalType":"string"},{"name":"basePrice","type":"uint256","internalType":"uint256"},{"name":"capacity","type":"uint256","internalType":"uint256"},{"name":"active","type":"bool","internalType":"bool"},{"name":"stakedBacking","type":"uint256","internalType":"uint256"},{"name":"cancellationPolicyBps","type":"uint256","internalType":"uint256"}]}],"stateMutability":"view"},{"type":"function","name":"investorStakes","inputs":[{"name":"","type":"uint256","internalType":"uint256"},{"name":"","type":"address","internalType":"address"}],"outputs":[{"name":"","type":"uint256","internalType":"uint256"}],"stateMutability":"view"},{"type":"function","name":"isApprovedForAll","inputs":[{"name":"account","type":"address","internalType":"address"},{"name":"operator","type":"address","internalType":"address"}],"outputs":[{"name":"","type":"bool","internalType":"bool"}],"stateMutability":"view"},{"type":"function","name":"isAvailable","inputs":[{"name":"unitId","type":"uint256","internalType":"uint256"},{"name":"checkInTime","type":"uint64","internalType":"uint64"},{"name":"checkOutTime","type":"uint64","internalType":"uint64"}],"outputs":[{"name":"","type":"bool","internalType":"bool"}],"stateMutability":"view"},{"type":"function","name":"isConsumingScheduledOp","inputs":[],"outputs":[{"name":"","type":"bytes4","internalType":"bytes4"}],"stateMutability":"view"},{"type":"function","name":"nextReservationId","inputs":[],"outputs":[{"name":"","type":"uint256","internalType":"uint256"}],"stateMutability":"view"},{"type":"function","name":"nextUnitId","inputs":[],"outputs":[{"name":"","type":"uint256","internalType":"uint256"}],"stateMutability":"view"},{"type":"function","name":"onOrderSettled","inputs":[{"name":"productId","type":"uint256","internalType":"uint256"},{"name":"resourceId","type":"uint256","internalType":"uint256"},{"name":"outcome","type":"uint8","internalType":"uint8"}],"outputs":[],"stateMutability":"nonpayable"},{"type":"function","name":"orderToReservation","inputs":[{"name":"","type":"uint256","internalType":"uint256"}],"outputs":[{"name":"","type":"uint256","internalType":"uint256"}],"stateMutability":"view"},{"type":"function","name":"quote","inputs":[{"name":"productId","type":"uint256","internalType":"uint256"},{"name":"params","type":"bytes","internalType":"bytes"},{"name":"basePrice","type":"uint256","internalType":"uint256"}],"outputs":[{"name":"finalPrice","type":"uint256","internalType":"uint256"}],"stateMutability":"view"},{"type":"function","name":"reservations","inputs":[{"name":"","type":"uint256","internalType":"uint256"}],"outputs":[{"name":"reservationId","type":"uint256","internalType":"uint256"},{"name":"unitId","type":"uint256","internalType":"uint256"},{"name":"orderId","type":"uint256","internalType":"uint256"},{"name":"guest","type":"address","internalType":"address"},{"name":"checkInDate","type":"uint64","internalType":"uint64"},{"name":"checkOutDate","type":"uint64","internalType":"uint64"},{"name":"totalPrice","type":"uint256","internalType":"uint256"},{"name":"status","type":"uint8","internalType":"enum HousingManager.ReservationStatus"},{"name":"checkedInAt","type":"uint64","internalType":"uint64"},{"name":"checkedOutAt","type":"uint64","internalType":"uint64"}],"stateMutability":"view"},{"type":"function","name":"safeBatchTransferFrom","inputs":[{"name":"from","type":"address","internalType":"address"},{"name":"to","type":"address","internalType":"address"},{"name":"ids","type":"uint256[]","internalType":"uint256[]"},{"name":"values","type":"uint256[]","internalType":"uint256[]"},{"name":"data","type":"bytes","internalType":"bytes"}],"outputs":[],"stateMutability":"nonpayable"},{"type":"function","name":"safeTransferFrom","inputs":[{"name":"from","type":"address","internalType":"address"},{"name":"to","type":"address","internalType":"address"},{"name":"id","type":"uint256","internalType":"uint256"},{"name":"value","type":"uint256","internalType":"uint256"},{"name":"data","type":"bytes","internalType":"bytes"}],"outputs":[],"stateMutability":"nonpayable"},{"type":"function","name":"setApprovalForAll","inputs":[{"name":"operator","type":"address","internalType":"address"},{"name":"approved","type":"bool","internalType":"bool"}],"outputs":[],"stateMutability":"nonpayable"},{"type":"function","name":"setAuthority","inputs":[{"name":"newAuthority","type":"address","internalType":"address"}],"outputs":[],"stateMutability":"nonpayable"},{"type":"function","name":"stablecoin","inputs":[],"outputs":[{"name":"","type":"address","internalType":"address"}],"stateMutability":"view"},{"type":"function","name":"stakeForUnit","inputs":[{"name":"unitId","type":"uint256","internalType":"uint256"},{"name":"amount","type":"uint256","internalType":"uint256"}],"outputs":[],"stateMutability":"nonpayable"},{"type":"function","name":"supportsInterface","inputs":[{"name":"interfaceId","type":"bytes4","internalType":"bytes4"}],"outputs":[{"name":"","type":"bool","internalType":"bool"}],"stateMutability":"view"},{"type":"function","name":"totalSupply","inputs":[],"outputs":[{"name":"","type":"uint256","internalType":"uint256"}],"stateMutability":"view"},{"type":"function","name":"totalSupply","inputs":[{"name":"id","type":"uint256","internalType":"uint256"}],"outputs":[{"name":"","type":"uint256","internalType":"uint256"}],"stateMutability":"view"},{"type":"function","name":"unitOccupied","inputs":[{"name":"","type":"uint256","internalType":"uint256"},{"name":"","type":"uint256","internalType":"uint256"}],"outputs":[{"name":"","type":"bool","internalType":"bool"}],"stateMutability":"view"},{"type":"function","name":"units","inputs":[{"name":"","type":"uint256","internalType":"uint256"}],"outputs":[{"name":"unitId","type":"uint256","internalType":"uint256"},{"name":"communityId","type":"uint256","internalType":"uint256"},{"name":"owner","type":"address","internalType":"address"},{"name":"metadataURI","type":"string","internalType":"string"},{"name":"basePrice","type":"uint256","internalType":"uint256"},{"name":"capacity","type":"uint256","internalType":"uint256"},{"name":"active","type":"bool","internalType":"bool"},{"name":"stakedBacking","type":"uint256","internalType":"uint256"},{"name":"cancellationPolicyBps","type":"uint256","internalType":"uint256"}],"stateMutability":"view"},{"type":"function","name":"unstakeFromUnit","inputs":[{"name":"unitId","type":"uint256","internalType":"uint256"},{"name":"amount","type":"uint256","internalType":"uint256"}],"outputs":[],"stateMutability":"nonpayable"},{"type":"function","name":"updateUnit","inputs":[{"name":"unitId","type":"uint256","internalType":"uint256"},{"name":"active","type":"bool","internalType":"bool"},{"name":"basePrice","type":"uint256","internalType":"uint256"}],"outputs":[],"stateMutability":"nonpayable"},{"type":"function","name":"uri","inputs":[{"name":"","type":"uint256","internalType":"uint256"}],"outputs":[{"name":"","type":"string","internalType":"string"}],"stateMutability":"view"},{"type":"event","name":"ApprovalForAll","inputs":[{"name":"account","type":"address","indexed":true,"internalType":"address"},{"name":"operator","type":"address","indexed":true,"internalType":"address"},{"name":"approved","type":"bool","indexed":false,"internalType":"bool"}],"anonymous":false},{"type":"event","name":"AuthorityUpdated","inputs":[{"name":"authority","type":"address","indexed":false,"internalType":"address"}],"anonymous":false},{"type":"event","name":"CheckedIn","inputs":[{"name":"reservationId","type":"uint256","indexed":true,"internalType":"uint256"},{"name":"timestamp","type":"uint64","indexed":false,"internalType":"uint64"}],"anonymous":false},{"type":"event","name":"CheckedOut","inputs":[{"name":"reservationId","type":"uint256","indexed":true,"internalType":"uint256"},{"name":"timestamp","type":"uint64","indexed":false,"internalType":"uint64"}],"anonymous":false},{"type":"event","name":"ReservationCancelled","inputs":[{"name":"reservationId","type":"uint256","indexed":true,"internalType":"uint256"},{"name":"refundAmount","type":"uint256","indexed":false,"internalType":"uint256"}],"anonymous":false},{"type":"event","name":"ReservationCreated","inputs":[{"name":"reservationId","type":"uint256","indexed":true,"internalType":"uint256"},{"name":"unitId","type":"uint256","indexed":true,"internalType":"uint256"},{"name":"orderId","type":"uint256","indexed":true,"internalType":"uint256"},{"name":"guest","type":"address","indexed":false,"internalType":"address"},{"name":"checkInDate","type":"uint64","indexed":false,"internalType":"uint64"},{"name":"checkOutDate","type":"uint64","indexed":false,"internalType":"uint64"}],"anonymous":false},{"type":"event","name":"ReservationRefunded","inputs":[{"name":"reservationId","type":"uint256","indexed":true,"internalType":"uint256"}],"anonymous":false},{"type":"event","name":"TransferBatch","inputs":[{"name":"operator","type":"address","indexed":true,"internalType":"address"},{"name":"from","type":"address","indexed":true,"internalType":"address"},{"name":"to","type":"address","indexed":true,"internalType":"address"},{"name":"ids","type":"uint256[]","indexed":false,"internalType":"uint256[]"},{"name":"values","type":"uint256[]","indexed":false,"internalType":"uint256[]"}],"anonymous":false},{"type":"event","name":"TransferSingle","inputs":[{"name":"operator","type":"address","indexed":true,"internalType":"address"},{"name":"from","type":"address","indexed":true,"internalType":"address"},{"name":"to","type":"address","indexed":true,"internalType":"address"},{"name":"id","type":"uint256","indexed":false,"internalType":"uint256"},{"name":"value","type":"uint256","indexed":false,"internalType":"uint256"}],"anonymous":false},{"type":"event","name":"URI","inputs":[{"name":"value","type":"string","indexed":false,"internalType":"string"},{"name":"id","type":"uint256","indexed":true,"internalType":"uint256"}],"anonymous":false},{"type":"event","name":"UnitCreated","inputs":[{"name":"unitId","type":"uint256","indexed":true,"internalType":"uint256"},{"name":"communityId","type":"uint256","indexed":true,"internalType":"uint256"},{"name":"owner","type":"address","indexed":true,"internalType":"address"},{"name":"basePrice","type":"uint256","indexed":false,"internalType":"uint256"}],"anonymous":false},{"type":"event","name":"UnitStaked","inputs":[{"name":"unitId","type":"uint256","indexed":true,"internalType":"uint256"},{"name":"investor","type":"address","indexed":true,"internalType":"address"},{"name":"amount","type":"uint256","indexed":false,"internalType":"uint256"},{"name":"totalStaked","type":"uint256","indexed":false,"internalType":"uint256"}],"anonymous":false},{"type":"event","name":"UnitUnstaked","inputs":[{"name":"unitId","type":"uint256","indexed":true,"internalType":"uint256"},{"name":"investor","type":"address","indexed":true,"internalType":"address"},{"name":"amount","type":"uint256","indexed":false,"internalType":"uint256"},{"name":"totalStaked","type":"uint256","indexed":false,"internalType":"uint256"}],"anonymous":false},{"type":"event","name":"UnitUpdated","inputs":[{"name":"unitId","type":"uint256","indexed":true,"internalType":"uint256"},{"name":"active","type":"bool","indexed":false,"internalType":"bool"},{"name":"basePrice","type":"uint256","indexed":false,"internalType":"uint256"}],"anonymous":false},{"type":"error","name":"AccessManagedInvalidAuthority","inputs":[{"name":"authority","type":"address","internalType":"address"}]},{"type":"error","name":"AccessManagedRequiredDelay","inputs":[{"name":"caller","type":"address","internalType":"address"},{"name":"delay","type":"uint32","internalType":"uint32"}]},{"type":"error","name":"AccessManagedUnauthorized","inputs":[{"name":"caller","type":"address","internalType":"address"}]},{"type":"error","name":"ERC1155InsufficientBalance","inputs":[{"name":"sender","type":"address","internalType":"address"},{"name":"balance","type":"uint256","internalType":"uint256"},{"name":"needed","type":"uint256","internalType":"uint256"},{"name":"tokenId","type":"uint256","internalType":"uint256"}]},{"type":"error","name":"ERC1155InvalidApprover","inputs":[{"name":"approver","type":"address","internalType":"address"}]},{"type":"error","name":"ERC1155InvalidArrayLength","inputs":[{"name":"idsLength","type":"uint256","internalType":"uint256"},{"name":"valuesLength","type":"uint256","internalType":"uint256"}]},{"type":"error","name":"ERC1155InvalidOperator","inputs":[{"name":"operator","type":"address","internalType":"address"}]},{"type":"error","name":"ERC1155InvalidReceiver","inputs":[{"name":"receiver","type":"address","internalType":"address"}]},{"type":"error","name":"ERC1155InvalidSender","inputs":[{"name":"sender","type":"address","internalType":"address"}]},{"type":"error","name":"ERC1155MissingApprovalForAll","inputs":[{"name":"operator","type":"address","internalType":"address"},{"name":"owner","type":"address","internalType":"address"}]},{"type":"error","name":"InvalidDateRange","inputs":[{"name":"checkIn","type":"uint64","internalType":"uint64"},{"name":"checkOut","type":"uint64","internalType":"uint64"}]},{"type":"error","name":"InvalidInput","inputs":[{"name":"reason","type":"string","internalType":"string"}]},{"type":"error","name":"InvalidStatus","inputs":[{"name":"current","type":"uint8","internalType":"enum HousingManager.ReservationStatus"},{"name":"required","type":"uint8","internalType":"enum HousingManager.ReservationStatus"}]},{"type":"error","name":"MaxStayExceeded","inputs":[{"name":"nights","type":"uint256","internalType":"uint256"},{"name":"maxAllowed","type":"uint256","internalType":"uint256"}]},{"type":"error","name":"MinStayNotMet","inputs":[{"name":"nights","type":"uint256","internalType":"uint256"},{"name":"required","type":"uint256","internalType":"uint256"}]},{"type":"error","name":"OnlyGuest","inputs":[]},{"type":"error","name":"OnlyUnitOwner","inputs":[]},{"type":"error","name":"ReentrancyGuardReentrantCall","inputs":[]},{"type":"error","name":"ReservationNotFound","inputs":[{"name":"reservationId","type":"uint256","internalType":"uint256"}]},{"type":"error","name":"SafeERC20FailedOperation","inputs":[{"name":"token","type":"address","internalType":"address"}]},{"type":"error","name":"UnitNotActive","inputs":[{"name":"unitId","type":"uint256","internalType":"uint256"}]},{"type":"error","name":"UnitNotAvailable","inputs":[{"name":"unitId","type":"uint256","internalType":"uint256"},{"name":"checkIn","type":"uint64","internalType":"uint64"},{"name":"checkOut","type":"uint64","internalType":"uint64"}]},{"type":"error","name":"UnitNotFound","inputs":[{"name":"unitId","type":"uint256","internalType":"uint256"}]},{"type":"error","name":"ZeroAddress","inputs":[]}],"bytecode":{"object":"0x60a0346200021457601f6200386b38819003918201601f19168301926001600160401b0392909183851183861017620002005781606092849260409788528339810103126200021457620000538162000218565b90602091846200006584840162000218565b920151938551848101918183109083111762000200575f91875252600254916001928381811c91168015620001f5575b85821014620001e157601f8111620001b2575b505f600255600580546001600160a01b039384166001600160a01b03199182168117909255875191825293907f2f658b440c35314f52658ea8a740e05b284cdc84dc9ae01e891f21b8933e7cad908690a1807f9b779b17422d0df92223018b32b4d1fa46e071723d6817e2486d003becc55f00558060075560095516918215620001a15783156200015d5750600d541617600d556080525161363d90816200022e8239608051818181610d1f01526114af0152f35b60649085519063d647364f60e01b82526004820152601b60248201527f436f6d6d756e6974792049442063616e6e6f74206265207a65726f00000000006044820152fd5b845163d92e233d60e01b8152600490fd5b60025f5283601f865f20920160051c8201915b828110620001d5575050620000a8565b5f8155018490620001c5565b634e487b7160e01b5f52602260045260245ffd5b90607f169062000095565b634e487b7160e01b5f52604160045260245ffd5b5f80fd5b51906001600160a01b0382168203620002145756fe60806040526004361015610011575f80fd5b5f3560e01c8062fdd58e146102ae57806301ffc9a7146102a9578063067cf832146102a4578063095e68e11461029f5780630e5f0e77146102865780630e89341c1461029a5780631655bfbe1461029557806318160ddd146102905780631bd2eeee1461028b5780631bec6e8f1461028657806324f0e4691461028157806328793bff1461027c5780632af03573146102775780632eb2c2d6146102725780632ec126031461026d5780634e1273f4146102685780634f558e79146102635780635c118c5b1461025e578063716081d3146102595780637a9e5e4b146102545780637e3b128b1461024f5780637f50861a1461024a5780638fb36037146102455780639697b13a14610240578063a22cb4651461023b578063b0b8071114610236578063bd85b03914610231578063bf7e214f1461022c578063c1c5613a14610227578063c70c26cd14610222578063d57763c31461021d578063d633a55e14610218578063d9f50a6914610213578063e1a452181461020e578063e5fba6cc14610209578063e95a644f14610204578063e985e9c5146101ff578063e9cbd822146101fa578063f22b11fd146101f5578063f242432a146101f0578063f82eed3c146101eb5763f8ea88e7146101e6575f80fd5b612115565b6120fa565b611fd3565b611eca565b611ea4565b611e46565b611caa565b611c3a565b611af2565b61197c565b611941565b6117e3565b611718565b6116e4565b6116be565b611694565b61166a565b61159d565b611543565b6114d2565b611498565b61147b565b6113f6565b6113db565b6113b5565b611389565b6112ce565b61126f565b61113d565b610dd2565b610c8c565b6109d9565b610548565b61084c565b61082f565b610730565b6105c7565b61052d565b61049f565b610352565b6102f7565b600435906001600160a01b03821682036102c957565b5f80fd5b602435906001600160a01b03821682036102c957565b35906001600160a01b03821682036102c957565b346102c95760403660031901126102c95760206103376103156102b3565b6024355f525f835260405f20906001600160a01b03165f5260205260405f2090565b54604051908152f35b6001600160e01b03198116036102c957565b346102c95760203660031901126102c95760206001600160e01b031960043561037a81610340565b167fd9b67a260000000000000000000000000000000000000000000000000000000081149081156103e2575b81156103b8575b506040519015158152f35b7f01ffc9a7000000000000000000000000000000000000000000000000000000009150145f6103ad565b7f0e89341c00000000000000000000000000000000000000000000000000000000811491506103a6565b6006111561041657565b634e487b7160e01b5f52602160045260245ffd5b9060068210156104165752565b98936001600160a01b0390610492946101209a949d9c9899939d6101408d019e8d5260208d015260408c01521660608a015267ffffffffffffffff80978180971660808c01521660a08a015260c089015260e088019061042a565b1661010085015216910152565b346102c95760203660031901126102c9576004355f52600860205260405f2080549061051f600182015460028301549260038101549067ffffffffffffffff90816004820154166006600583015492015493604051988998858760481c16976001600160a01b0360ff888a60081c169916978560a01c169416928b610437565b0390f35b5f9103126102c957565b346102c9575f3660031901126102c957602060405160078152f35b346102c95760403660031901126102c95760206103376105666102cd565b6004355f52600c835260405f20906001600160a01b03165f5260205260405f2090565b91908251928382525f5b8481106105b3575050825f602080949584010152601f8019910116010190565b602081830181015184830182015201610593565b346102c9576020806003193601126102c957604051905f82600254916105ec83611b0e565b92838352600190856001821691825f1461068657505060011461062b575b5061061792500383611017565b61051f604051928284938452830190610589565b84915060025f527f405787fa12a823e0f2b7631cc41b3ba8828b3321ca811111fa75cd3aa3bb5ace905f915b85831061066e57505061061793508201015f61060a565b80548389018501528794508693909201918101610657565b60ff19168582015261061795151560051b85010192505f915061060a9050565b6020815281516020820152602082015160408201526106d5604083015160608301906001600160a01b03169052565b60608201516106f261012091826080850152610140840190610589565b92608081015160a084015260a081015160c084015261071a60c082015160e085019015159052565b60e0810151906101009182850152015191015290565b346102c95760203660031901126102c95761051f60405161075081610fc4565b5f81525f60208201525f60408201526060808201525f60808201525f60a08201525f60c08201525f60e08201525f610100809201526004355f52600660205260405f2090600861079e611039565b9280548452600181015460208501526107d46107c460028301546001600160a01b031690565b6001600160a01b03166040860152565b6107e060038201611b46565b606085015260048101546080850152600581015460a085015261081361080a600683015460ff1690565b151560c0860152565b600781015460e0850152015490820152604051918291826106a6565b346102c9575f3660031901126102c9576020600454604051908152f35b346102c95760203660031901126102c957600435805f52600860205260405f20541561099357610884815f52600860205260405f2090565b6108a761089b60038301546001600160a01b031690565b6001600160a01b031690565b330361098257600601805460ff166108be8161040c565b60028103610961575061095c610941826109007fe13b856d8f7e29529ee7a96de5d6e990cab8432e2f3680a624c07c4236cae7f594600360ff19825416179055565b805470ffffffffffffffff00000000000000000019164260481b70ffffffffffffffff000000000000000000161781555460481c67ffffffffffffffff1690565b60405167ffffffffffffffff90911681529081906020820190565b0390a2005b61097e9060405191829163f924664d60e01b83526004830161223b565b0390fd5b6004604051635c9d5eb160e11b8152fd5b60249060405190630362e90d60e01b82526004820152fd5b9181601f840112156102c95782359167ffffffffffffffff83116102c957602083818601950101116102c957565b346102c95760803660031901126102c95760048035906109f76102cd565b9060443567ffffffffffffffff81116102c957610a1790369083016109ab565b610a21363361296f565b610a33855f52600660205260405f2090565b805415610c70576006015460ff1615610a4b565b1590565b610c3b5790610a5c91810190612283565b929091610a8f610a82610a6f85876122b8565b67ffffffffffffffff6201518091160490565b67ffffffffffffffff1690565b605a8111610c195750610aa6610a47858588612a9c565b610bc35761051f610bb05f87877f17dd9ed071ddf3128f12ae745d856c23c3553dff97738f53d3d897ab253c62708888610ae1848387612afb565b600954968794610af8610af3876122d7565b600955565b610b7c610b03611048565b878152886020820152896040820152610b288560608301906001600160a01b03169052565b67ffffffffffffffff8616608082015267ffffffffffffffff831660a082015260643560c0820152600160e08201528961010082015289610120820152610b77885f52600860205260405f2090565b6122f1565b604051938493849160409194936001600160a01b03606085019616845267ffffffffffffffff809216602085015216910152565b0390a46040519081529081906020820190565b92905061097e916040519485947f2c49992f00000000000000000000000000000000000000000000000000000000865285019160409194936060840195845267ffffffffffffffff809216602085015216910152565b60408051634a6d77fb60e01b8152928301918252605a60208301528291010390fd5b6040517f53e8a01800000000000000000000000000000000000000000000000000000000815280840186815281906020010390fd5b604051633237507b60e01b815280850187815281906020010390fd5b346102c95760a03660031901126102c957610ca56102b3565b60243567ffffffffffffffff81116102c95761051f91610ccc610dae9236906004016109ab565b7fea571bb837d04361f0bf4fc6a3e82a5ac35e2a0bacceb8de79beb934bd5f5bf56001600160a01b0360443594610d03363361296f565b600754968794610d1a610d15876122d7565b600755565b610d687f000000000000000000000000000000000000000000000000000000000000000097610d47611039565b888152602081018a90526001600160a01b03861660408201529236916110e9565b606082015287608082015260643560a0820152610d8860c0820160019052565b5f60e0820152608435610100820152610da9865f52600660205260405f2090565b6125a9565b610dc0610db961265c565b8583612b50565b60405195865216938060208101610bb0565b346102c9576040806003193601126102c95760043560243591610df3612c29565b815f526006602052805f205415610f9957610e16825f52600660205260405f2090565b610e41610e2b845f52600c60205260405f2090565b336001600160a01b03165f5260205260405f2090565b548415610f66578411610f21577f21a2839edc816d4650db8a1b7208c302e82635f9e3bfc5e091060eca75dc8403916007610ef392610ea233610e8c885f52600c60205260405f2090565b906001600160a01b03165f5260205260405f2090565b610ead88825461267f565b905501610ebb86825461267f565b8155610edc8633610ed761089b600d546001600160a01b031690565b612c83565b549051948552602085015233939081906040820190565b0390a3610f1f60017f9b779b17422d0df92223018b32b4d1fa46e071723d6817e2486d003becc55f0055565b005b505163d647364f60e01b815260206004820152601260248201527f496e73756666696369656e74207374616b6500000000000000000000000000006044820152606490fd5b825163d647364f60e01b815260206004820152600b60248201526a16995c9bc8185b5bdd5b9d60aa1b6044820152606490fd5b602492505190633237507b60e01b82526004820152fd5b634e487b7160e01b5f52604160045260245ffd5b610120810190811067ffffffffffffffff821117610fe157604052565b610fb0565b610140810190811067ffffffffffffffff821117610fe157604052565b67ffffffffffffffff8111610fe157604052565b90601f8019910116810190811067ffffffffffffffff821117610fe157604052565b6040519061104682610fc4565b565b6040519061104682610fe6565b67ffffffffffffffff8111610fe15760051b60200190565b9080601f830112156102c957602090823561108781611055565b936110956040519586611017565b81855260208086019260051b8201019283116102c957602001905b8282106110be575050505090565b813581529083019083016110b0565b67ffffffffffffffff8111610fe157601f01601f191660200190565b9291926110f5826110cd565b916111036040519384611017565b8294818452818301116102c9578281602093845f960137010152565b9080601f830112156102c95781602061113a933591016110e9565b90565b346102c95760a03660031901126102c9576111566102b3565b61115e6102cd565b906044359167ffffffffffffffff908184116102c9576111836004943690860161106d565b906064358381116102c95761119b903690870161106d565b926084359081116102c9576111b3903690870161111f565b936001600160a01b0380821690338214158061123e575b611211578316156111fa57156111e457610f1f9550612eca565b6024865f60405191626a0d4560e21b8352820152fd5b6024875f60405191632bfa23e760e11b8352820152fd5b6040805163711bec9160e11b815233818b019081526001600160a01b038616602082015290918291010390fd5b50815f52600160205260ff6112673360405f20906001600160a01b03165f5260205260405f2090565b5416156111ca565b346102c9575f3660031901126102c957602060405160018152f35b9081518082526020808093019301915f5b8281106112a9575050505090565b83518552938101939281019260010161129b565b90602061113a92818152019061128a565b346102c95760403660031901126102c95760043567ffffffffffffffff8082116102c957366023830112156102c957816004013561130b81611055565b926113196040519485611017565b8184526020916024602086019160051b830101913683116102c957602401905b82821061137257856024358681116102c95761051f9161136061136692369060040161106d565b906126b4565b604051918291826112bd565b83809161137e846102e3565b815201910190611339565b346102c95760203660031901126102c9576004355f526003602052602060405f20541515604051908152f35b346102c95760203660031901126102c95760206113d3600435612771565b604051908152f35b346102c9575f3660031901126102c9576020604051605a8152f35b346102c95760203660031901126102c95761140f6102b3565b6001600160a01b03908160055416330361146557803b1561143357610f1f90612d36565b602491604051917fc2f31e5e000000000000000000000000000000000000000000000000000000008352166004820152fd5b602460405162d1953b60e31b8152336004820152fd5b346102c9575f3660031901126102c9576020600754604051908152f35b346102c9575f3660031901126102c95760206040517f00000000000000000000000000000000000000000000000000000000000000008152f35b346102c9575f3660031901126102c95760055460a01c60ff16156115265760207f8fb36037000000000000000000000000000000000000000000000000000000005b6001600160e01b031960405191168152f35b60205f611514565b359067ffffffffffffffff821682036102c957565b346102c95760603660031901126102c95767ffffffffffffffff60243581811681036102c95760443591821682036102c95760209161158491600435612a9c565b6040519015158152f35b6024359081151582036102c957565b346102c95760403660031901126102c9576115b66102b3565b6115be61158e565b6001600160a01b03821691821561163a57816115f961160a92335f52600160205260405f20906001600160a01b03165f5260205260405f2090565b9060ff801983541691151516179055565b60405190151581527f17307eab39ab6107e8899845ad3d59bd9653f200f220920489ca2b5937696c3160203392a3005b60246040517fced3e1000000000000000000000000000000000000000000000000000000000081525f6004820152fd5b346102c95760203660031901126102c9576004355f52600b602052602060405f2054604051908152f35b346102c95760203660031901126102c9576004355f526003602052602060405f2054604051908152f35b346102c9575f3660031901126102c95760206001600160a01b0360055416604051908152f35b346102c95760603660031901126102c95760443560ff811681036102c957610f1f90611710363361296f565b6024356127fb565b346102c9575f3660031901126102c9576020600954604051908152f35b61104690929192610140810193805182526020810151602083015260408101516040830152611774606082015160608401906001600160a01b03169052565b60808181015167ffffffffffffffff169083015260a08181015167ffffffffffffffff169083015260c081015160c08301526117b860e082015160e084019061042a565b6101008181015167ffffffffffffffff16908301526101209081015167ffffffffffffffff16910152565b346102c95760203660031901126102c95761051f60405161180381610fe6565b5f81525f60208201525f60408201525f60608201525f60808201525f60a08201525f60c08201525f60e0820152611935610100915f838201525f610120809201526004355f52600860205260405f2061185a611048565b9381548552600182015460208601526002820154604086015261191f600660038401549361189d6001600160a01b03861660608a01906001600160a01b03169052565b6118c267ffffffffffffffff809660a01c1660808a019067ffffffffffffffff169052565b6118eb6118da600483015467ffffffffffffffff1690565b67ffffffffffffffff1660a08a0152565b600581015460c089015201549161190860ff841660e089016122e5565b67ffffffffffffffff600884901c85161690870152565b60481c169083019067ffffffffffffffff169052565b60405191829182611735565b346102c95760403660031901126102c9576004355f52600a60205260405f206024355f52602052602060ff60405f2054166040519015158152f35b346102c95760603660031901126102c957600480359067ffffffffffffffff6024358181116102c9576119b290369084016109ab565b6119c4855f52600660205260405f2090565b94855415611ad55750906119da91810190612283565b90918083169082161115611a8b57610a6f6119f892610a82926122b8565b9160018310611a4d57605a8311611a2857015461051f91611a18916128d4565b6040519081529081906020820190565b5060408051634a6d77fb60e01b8152918201928352605a602084015290918291010390fd5b50604080517fc31c0e380000000000000000000000000000000000000000000000000000000081529182019283526001602084015290918291010390fd5b604080517f9f8f2ef900000000000000000000000000000000000000000000000000000000815267ffffffffffffffff938416858201908152929093166020830152908290030190fd5b604051633237507b60e01b81528086019182529081906020010390fd5b346102c9575f3660031901126102c95760206040516127108152f35b90600182811c92168015611b3c575b6020831014611b2857565b634e487b7160e01b5f52602260045260245ffd5b91607f1691611b1d565b9060405191825f8254611b5881611b0e565b908184526020946001916001811690815f14611bc45750600114611b86575b50505061104692500383611017565b5f90815285812095935091905b818310611bac57505061104693508201015f8080611b77565b85548884018501529485019487945091830191611b93565b9250505061104694925060ff191682840152151560051b8201015f8080611b77565b9592906001600160a01b03610100989592611c1f949c9b9a979c610120938a5260208a0152166040880152806060880152860190610589565b97608085015260a0840152151560c083015260e08201520152565b346102c95760203660031901126102c9576004355f52600660205260405f20805461051f6001830154926001600160a01b0360028201541690611c7f60038201611b46565b600482015460058301549060ff600685015416926008600786015495015495604051998a998a611be6565b346102c95760203660031901126102c957600435805f5260086020526040805f205415611e2f57611ce3825f52600860205260405f2090565b6003810154906001600160a01b0382163303611e1f5760060190611d08825460ff1690565b611d118161040c565b60018103611e03575067ffffffffffffffff809160a01c164210611dbe5791611da482611d937f3204a168926ad7593d69338c6e47b73dad63dcb4225dd22925295c01801fb4aa95611d6d61095c96600260ff19825416179055565b825468ffffffffffffffff001916429190911660081b68ffffffffffffffff0016178255565b5460081c67ffffffffffffffff1690565b905167ffffffffffffffff90911681529081906020820190565b825163d647364f60e01b815260206004820152601560248201527f546f6f206561726c7920746f20636865636b20696e00000000000000000000006044820152606490fd5b61097e90845191829163f924664d60e01b835260048301612255565b60048351635c9d5eb160e11b8152fd5b906024915190630362e90d60e01b82526004820152fd5b346102c95760403660031901126102c957602060ff611e98611e666102b3565b6001600160a01b03611e766102cd565b91165f526001845260405f20906001600160a01b03165f5260205260405f2090565b54166040519015158152f35b346102c9575f3660031901126102c95760206001600160a01b03600d5416604051908152f35b346102c9576040806003193601126102c95760043560243591611eeb612c29565b815f526006602052805f205415610f9957815f526006602052805f208315611fa0577f46a0bba4de4edfcaa8b7a5d49e4d3b5450356f141173cb6f7a0553748b62285b916007610ef392611f5787611f4e61089b600d546001600160a01b031690565b30903390612d8b565b611f6d33610e8c885f52600c60205260405f2090565b611f788882546128e7565b90550190611f878683546128e7565b9182905551948552602085015233939081906040820190565b505163d647364f60e01b815260206004820152600b60248201526a16995c9bc8185b5bdd5b9d60aa1b6044820152606490fd5b346102c95760a03660031901126102c957611fec6102b3565b611ff46102cd565b60843567ffffffffffffffff81116102c95761201490369060040161111f565b906001600160a01b038084169033821415806120c9575b6120a25782161561208b571561207557610f1f9261206d6064356044359160405192600184526020840152604083019160018352606084015260808301604052565b929091612eca565b6024604051626a0d4560e21b81525f6004820152fd5b6024604051632bfa23e760e11b81525f6004820152fd5b60405163711bec9160e11b81523360048201526001600160a01b0386166024820152604490fd5b50815f52600160205260ff6120f23360405f20906001600160a01b03165f5260205260405f2090565b54161561202b565b346102c9575f3660031901126102c957602060405160038152f35b346102c95760603660031901126102c95760043561213161158e565b604435825f52600660205260405f2054156121fb57825f52600660205260405f20916001600160a01b0360028401541633036121d15781836121a38360067f2c7d3a4e564ba7d3719f72f1e0e982c91ab03f6da0de1e3811bc372155f1310697019060ff801983541691151516179055565b816121c6575b50506040805191151582526020820192909252908190810161095c565b60040155815f6121a9565b60046040517fa2f9bc3d000000000000000000000000000000000000000000000000000000008152fd5b60248360405190633237507b60e01b82526004820152fd5b612237915f525f60205260405f20906001600160a01b03165f5260205260405f2090565b5490565b602060029193929361225181604081019661042a565b0152565b602060019193929361225181604081019661042a565b9060068110156104165760ff80198354169116179055565b91908260409103126102c95761113a602061229d8461152e565b930161152e565b634e487b7160e01b5f52601160045260245ffd5b67ffffffffffffffff91821690821603919082116122d257565b6122a4565b5f1981146122d25760010190565b60068210156104165752565b906124576101206006611046948451815560208501516001820155604085015160028201556123af6003820161235d61233460608901516001600160a01b031690565b82906001600160a01b031673ffffffffffffffffffffffffffffffffffffffff19825416179055565b608087015181547fffffffff0000000000000000ffffffffffffffffffffffffffffffffffffffff1660a09190911b7bffffffffffffffff000000000000000000000000000000000000000016179055565b6123e86123c760a087015167ffffffffffffffff1690565b600483019067ffffffffffffffff1667ffffffffffffffff19825416179055565b60c08501516005820155019261240b60e08201516124058161040c565b8561226b565b61244861242461010083015167ffffffffffffffff1690565b855468ffffffffffffffff00191660089190911b68ffffffffffffffff0016178555565b015167ffffffffffffffff1690565b70ffffffffffffffff0000000000000000001970ffffffffffffffff00000000000000000083549260481b169116179055565b601f821161249757505050565b5f5260205f20906020601f840160051c830193106124cf575b601f0160051c01905b8181106124c4575050565b5f81556001016124b9565b90915081906124b0565b919091825167ffffffffffffffff8111610fe157612501816124fb8454611b0e565b8461248a565b602080601f8311600114612542575081906125339394955f92612537575b50508160011b915f199060031b1c19161790565b9055565b015190505f8061251f565b90601f19831695612556855f5260205f2090565b925f905b88821061259157505083600195969710612579575b505050811b019055565b01515f1960f88460031b161c191690555f808061256f565b8060018596829496860151815501950193019061255a565b9061010060089180518455602081015160018501556126016125d560408301516001600160a01b031690565b60028601906001600160a01b031673ffffffffffffffffffffffffffffffffffffffff19825416179055565b6126126060820151600386016124d9565b6080810151600485015560a0810151600585015561264b61263660c0830151151590565b600686019060ff801983541691151516179055565b60e081015160078501550151910155565b604051906020820182811067ffffffffffffffff821117610fe1576040525f8252565b919082039182116122d257565b80518210156126a05760209160051b010190565b634e487b7160e01b5f52603260045260245ffd5b919091805183518082036127365750508051906126e96126d383611055565b926126e16040519485611017565b808452611055565b60209190601f190136848401375f5b815181101561272e578061271d60019260051b85808287010151918a01015190612213565b612727828761268c565b52016126f8565b509193505050565b6040517f5b05999100000000000000000000000000000000000000000000000000000000815260048101919091526024810191909152604490fd5b612783905f52600860205260405f2090565b600861279b60018301545f52600660205260405f2090565b0154806127f65750600301546127d6906127cd9060a01c67ffffffffffffffff1667ffffffffffffffff42911661267f565b62015180900490565b600781106127e5575061271090565b6003116127f25761138890565b5f90565b905090565b90815f52602060086020526040805f20928354156128cd5760ff16600214612824575b50505050565b600683019160ff1992600584825416179055600184015461286661286067ffffffffffffffff60048160038a015460a01c169801541696612ea7565b95612ea7565b945b8581106128a2575050505050507f23845fb323c00cccdbd8857fba7e5e540339a6428d390468611aee6df64356855f80a25f80808061281e565b815f52600a8352835f20815f528352835f2085815416905562015180810180911115612868576122a4565b5050505050565b818102929181159184041417156122d257565b919082018092116122d257565b6004116102c9575f90600490565b6001600160e01b0319903581811693926004811061291f57505050565b60040360031b82901b16169150565b90916001600160a01b0360609316825260406020830152806040830152805f848401375f828201840152601f01601f1916010190565b6040513d5f823e3d90fd5b61299f6129846005546001600160a01b031690565b612996612990856128f4565b90612902565b90833091612e0a565b90156129aa57505050565b63ffffffff1615612a7a576129de7401000000000000000000000000000000000000000060ff60a01b196005541617600555565b6129f661089b61089b6005546001600160a01b031690565b91823b156102c957612a3a925f92836040518096819582947f94c7d7ee0000000000000000000000000000000000000000000000000000000084526004840161292e565b03925af18015612a7557612a5c575b5061104660ff60a01b1960055416600555565b80612a69612a6f92611003565b80610523565b5f612a49565b612964565b60405162d1953b60e31b81526001600160a01b03919091166004820152602490fd5b90612aac612ab291949394612ea7565b93612ea7565b925b838110612ac357506001925050565b815f5260ff6020600a8152604090815f2090845f52525f205416612af45762015180810180911115612ab4576122a4565b505f925050565b90612b08612b0e91612ea7565b92612ea7565b915b828110612b1c57505050565b815f526020600a8152604090815f2090835f52525f20600160ff1982541617905562015180810180911115612b10576122a4565b92906001600160a01b0384161561208b57612b8a604051916001835260208301526040820190600182526001606084015260808301604052565b9091612b97828487613341565b5f94855b8451871015612be757612bdf6001918860051b90612bcd602080848a010151938a0101515f52600360205260405f2090565b612bd88382546128e7565b90556128e7565b960195612b9b565b612c01919594929650612bfc906004546128e7565b600455565b8051600103612c1f57906020806110469593015191015191336132b0565b61104693336130b7565b7f9b779b17422d0df92223018b32b4d1fa46e071723d6817e2486d003becc55f006002815414612c595760029055565b60046040517f3ee5aeb5000000000000000000000000000000000000000000000000000000008152fd5b604051927fa9059cbb000000000000000000000000000000000000000000000000000000005f526001600160a01b0380931660045260245260205f60448180855af160015f5114811615612d17575b8360405215612ce057505050565b7f5274afe7000000000000000000000000000000000000000000000000000000008352166001600160a01b03166004820152602490fd5b6001811516612d2d57813b15153d151616612cd2565b833d5f823e3d90fd5b60206001600160a01b037f2f658b440c35314f52658ea8a740e05b284cdc84dc9ae01e891f21b8933e7cad92168073ffffffffffffffffffffffffffffffffffffffff196005541617600555604051908152a1565b9092604051937f23b872dd000000000000000000000000000000000000000000000000000000005f526001600160a01b0393848092166004521660245260445260205f60648180855af160015f5114811615612df4575b836040525f60605215612ce057505050565b6001811516612d2d57813b15153d151616612de2565b93915f946001600160e01b03195f956040519460208601947fb70096130000000000000000000000000000000000000000000000000000000086526001600160a01b0380921660248801521660448601521660648401526064835260a083019183831067ffffffffffffffff841117610fe1576040935f9385528380528360205251915afa612e9557565b9150505f51906020518060201c150290565b6201518067ffffffffffffffff9182168190048216029081169081036122d25790565b91939290612eda82868386613454565b6001600160a01b0380841615612f95575b81161580612f37575b15612f00575050505050565b8451600103612f2657602080612f1c96015192015192336132e5565b5f808080806128cd565b612f32949192336131b0565b612f1c565b94935f939091845b8651861015612f7d576001908660051b90612f6e602080848a010151938b0101515f52600360205260405f2090565b82815403905501950194612f3f565b612f909193969792955060045403600455565b612ef4565b9591925f94915f955b8751871015612fd857612fd06001918860051b90612bcd602080848c010151938d0101515f52600360205260405f2090565b960195612f9e565b612ff091939650612bfc9098929594986004546128e7565b612eeb565b908160209103126102c9575161113a81610340565b9261303961113a95936001600160a01b03613047941686525f602087015260a0604087015260a086019061128a565b90848203606086015261128a565b916080818403910152610589565b939061113a959361303991613047946001600160a01b03809216885216602087015260a0604087015260a086019061128a565b3d156130b2573d90613099826110cd565b916130a76040519384611017565b82523d5f602084013e565b606090565b9293919093843b6130c9575050505050565b6020916130ec604051948593849363bc197c8160e01b988986526004860161300a565b03815f6001600160a01b0388165af15f918161317f575b506131425782613111613088565b805191908261313b57604051632bfa23e760e11b81526001600160a01b0383166004820152602490fd5b6020915001fd5b6001600160e01b0319160361315c57505f808080806128cd565b604051632bfa23e760e11b81526001600160a01b03919091166004820152602490fd5b6131a291925060203d6020116131a9575b61319a8183611017565b810190612ff5565b905f613103565b503d613190565b939290949194853b6131c5575b505050505050565b6131e8602093604051958694859463bc197c8160e01b998a875260048701613055565b03815f6001600160a01b0388165af15f9181613228575b5061320d5782613111613088565b6001600160e01b0319160361315c57505f80808080806131bd565b61324291925060203d6020116131a95761319a8183611017565b905f6131ff565b909260a0926001600160a01b0361113a96951683525f6020840152604083015260608201528160808201520190610589565b919261113a95949160a0946001600160a01b038092168552166020840152604083015260608201528160808201520190610589565b9293919093843b6132c2575050505050565b6020916130ec604051948593849363f23a6e6160e01b9889865260048601613249565b939290949194853b6132f957505050505050565b6131e8602093604051958694859463f23a6e6160e01b998a87526004870161327b565b909161333361113a9360408452604084019061128a565b91602081840391015261128a565b91909182518251908181036127365750505f5b83518110156133b5578060019160051b8360208083890101519287010151916001600160a01b03821661338b575b50505001613354565b6133ab91610e8c6133a3925f525f60205260405f2090565b9182546128e7565b90555f8381613382565b509160018151145f14613415576020908101519181015160408051938452918301526001600160a01b0392909216915f9133917fc3d58168c5ae7397731d063d5bbf3d657854427343f4c083240f7aacaa2d0f629190819081015b0390a4565b7f4a39dc06d4c0dbc64b70af90fd698a233a518aa5d07e595d983b8c0526c8f7fb6001600160a01b035f9394613410604051928392169633958361331c565b93929180518351908181036127365750505f5b8151811015613562578060051b9060208083850101519286010151846001600160a01b0393848a166134c9575b60019482166134a7575b50505001613467565b6134bf91610e8c6133a3925f525f60205260405f2090565b90555f848161349e565b91929390506134e389610e8c845f525f60205260405f2090565b54838110613512579186918460019695940361350a8c610e8c855f525f60205260405f2090565b559450613494565b6040517f03dee4c50000000000000000000000000000000000000000000000000000000081526001600160a01b038b16600482015260248101919091526044810184905260648101839052608490fd5b5080519394939192916001036135c4576020908101519181015160408051938452918301526001600160a01b03928316939092169133917fc3d58168c5ae7397731d063d5bbf3d657854427343f4c083240f7aacaa2d0f629181908101613410565b90917f4a39dc06d4c0dbc64b70af90fd698a233a518aa5d07e595d983b8c0526c8f7fb906001600160a01b0390613410826040519384931697169533958361331c56fea2646970667358221220703f30533480ea7656e8c30751c8245c5b3b7ccc749ccce7eedfddd85d71a01b64736f6c63430008180033","linkReferences":{}},"methodIdentifiers":{"BPS_DENOMINATOR()":"e1a45218","CANCEL_FULL_REFUND_DAYS()":"095e68e1","CANCEL_HALF_REFUND_DAYS()":"f82eed3c","MAX_STAY_NIGHTS()":"716081d3","MIN_STAY_NIGHTS()":"2ec12603","authority()":"bf7e214f","balanceOf(address,uint256)":"00fdd58e","balanceOfBatch(address[],uint256[])":"4e1273f4","checkIn(uint256)":"e95a644f","checkOut(uint256)":"1bd2eeee","communityId()":"7f50861a","consume(uint256,address,bytes,uint256)":"24f0e469","createUnit(address,string,uint256,uint256,uint256)":"28793bff","exists(uint256)":"4f558e79","getCancellationRefundBps(uint256)":"5c118c5b","getInvestorStake(uint256,address)":"1bec6e8f","getReservation(uint256)":"d57763c3","getUnit(uint256)":"1655bfbe","investorStakes(uint256,address)":"0e5f0e77","isApprovedForAll(address,address)":"e985e9c5","isAvailable(uint256,uint64,uint64)":"9697b13a","isConsumingScheduledOp()":"8fb36037","nextReservationId()":"c70c26cd","nextUnitId()":"7e3b128b","onOrderSettled(uint256,uint256,uint8)":"c1c5613a","orderToReservation(uint256)":"b0b80711","quote(uint256,bytes,uint256)":"d9f50a69","reservations(uint256)":"067cf832","safeBatchTransferFrom(address,address,uint256[],uint256[],bytes)":"2eb2c2d6","safeTransferFrom(address,address,uint256,uint256,bytes)":"f242432a","setApprovalForAll(address,bool)":"a22cb465","setAuthority(address)":"7a9e5e4b","stablecoin()":"e9cbd822","stakeForUnit(uint256,uint256)":"f22b11fd","supportsInterface(bytes4)":"01ffc9a7","totalSupply()":"18160ddd","totalSupply(uint256)":"bd85b039","unitOccupied(uint256,uint256)":"d633a55e","units(uint256)":"e5fba6cc","unstakeFromUnit(uint256,uint256)":"2af03573","updateUnit(uint256,bool,uint256)":"f8ea88e7","uri(uint256)":"0e89341c"},"id":18}