{"abi":[{"type":"constructor","inputs":[{"name":"manager","type":"address","internalType":"address"},{"name":"_cohortRegistry","type":"address","internalType":"address"},{"name":"_valuableActionRegistry","type":"address","internalType":"address"},{"name":"_sbt","type":"address","internalType":"address"},{"name":"_communityId","type":"uint256","internalType":"uint256"}],"stateMutability":"nonpayable"},{"type":"function","name":"authority","inputs":[],"outputs":[{"name":"","type":"address","internalType":"address"}],"stateMutability":"view"},{"type":"function","name":"cohortRegistry","inputs":[],"outputs":[{"name":"","type":"address","internalType":"contract CohortRegistry"}],"stateMutability":"view"},{"type":"function","name":"communityId","inputs":[],"outputs":[{"name":"","type":"uint256","internalType":"uint256"}],"stateMutability":"view"},{"type":"function","name":"createCohort","inputs":[{"name":"targetRoiBps","type":"uint16","internalType":"uint16"},{"name":"priorityWeight","type":"uint32","internalType":"uint32"},{"name":"termsHash","type":"bytes32","internalType":"bytes32"},{"name":"startAt","type":"uint64","internalType":"uint64"},{"name":"endAt","type":"uint64","internalType":"uint64"},{"name":"active","type":"bool","internalType":"bool"}],"outputs":[{"name":"cohortId","type":"uint256","internalType":"uint256"}],"stateMutability":"nonpayable"},{"type":"function","name":"getCohortCommunity","inputs":[{"name":"cohortId","type":"uint256","internalType":"uint256"}],"outputs":[{"name":"","type":"uint256","internalType":"uint256"}],"stateMutability":"view"},{"type":"function","name":"getInvestmentWeight","inputs":[{"name":"cohortId","type":"uint256","internalType":"uint256"},{"name":"investor","type":"address","internalType":"address"}],"outputs":[{"name":"","type":"uint256","internalType":"uint256"}],"stateMutability":"view"},{"type":"function","name":"getInvestmentWeightByToken","inputs":[{"name":"tokenId","type":"uint256","internalType":"uint256"}],"outputs":[{"name":"","type":"uint256","internalType":"uint256"}],"stateMutability":"view"},{"type":"function","name":"isCohortActive","inputs":[{"name":"cohortId","type":"uint256","internalType":"uint256"}],"outputs":[{"name":"","type":"bool","internalType":"bool"}],"stateMutability":"view"},{"type":"function","name":"isConsumingScheduledOp","inputs":[],"outputs":[{"name":"","type":"bytes4","internalType":"bytes4"}],"stateMutability":"view"},{"type":"function","name":"issueInvestment","inputs":[{"name":"to","type":"address","internalType":"address"},{"name":"cohortId","type":"uint256","internalType":"uint256"},{"name":"weight","type":"uint32","internalType":"uint32"},{"name":"metadata","type":"bytes","internalType":"bytes"}],"outputs":[{"name":"tokenId","type":"uint256","internalType":"uint256"}],"stateMutability":"nonpayable"},{"type":"function","name":"sbt","inputs":[],"outputs":[{"name":"","type":"address","internalType":"contract ValuableActionSBT"}],"stateMutability":"view"},{"type":"function","name":"setAuthority","inputs":[{"name":"newAuthority","type":"address","internalType":"address"}],"outputs":[],"stateMutability":"nonpayable"},{"type":"function","name":"setCohortActive","inputs":[{"name":"cohortId","type":"uint256","internalType":"uint256"},{"name":"active","type":"bool","internalType":"bool"}],"outputs":[],"stateMutability":"nonpayable"},{"type":"function","name":"valuableActionRegistry","inputs":[],"outputs":[{"name":"","type":"address","internalType":"contract ValuableActionRegistry"}],"stateMutability":"view"},{"type":"event","name":"AuthorityUpdated","inputs":[{"name":"authority","type":"address","indexed":false,"internalType":"address"}],"anonymous":false},{"type":"event","name":"CohortActivationUpdated","inputs":[{"name":"cohortId","type":"uint256","indexed":true,"internalType":"uint256"},{"name":"active","type":"bool","indexed":false,"internalType":"bool"}],"anonymous":false},{"type":"event","name":"CohortCreated","inputs":[{"name":"cohortId","type":"uint256","indexed":true,"internalType":"uint256"},{"name":"communityId","type":"uint256","indexed":true,"internalType":"uint256"},{"name":"active","type":"bool","indexed":false,"internalType":"bool"}],"anonymous":false},{"type":"event","name":"InvestmentIssued","inputs":[{"name":"investor","type":"address","indexed":true,"internalType":"address"},{"name":"tokenId","type":"uint256","indexed":true,"internalType":"uint256"},{"name":"cohortId","type":"uint256","indexed":true,"internalType":"uint256"},{"name":"communityId","type":"uint256","indexed":false,"internalType":"uint256"},{"name":"weight","type":"uint32","indexed":false,"internalType":"uint32"}],"anonymous":false},{"type":"error","name":"AccessManagedInvalidAuthority","inputs":[{"name":"authority","type":"address","internalType":"address"}]},{"type":"error","name":"AccessManagedRequiredDelay","inputs":[{"name":"caller","type":"address","internalType":"address"},{"name":"delay","type":"uint32","internalType":"uint32"}]},{"type":"error","name":"AccessManagedUnauthorized","inputs":[{"name":"caller","type":"address","internalType":"address"}]},{"type":"error","name":"InvalidInput","inputs":[{"name":"reason","type":"string","internalType":"string"}]},{"type":"error","name":"ZeroAddress","inputs":[]}],"bytecode":{"object":"0x61010034620001dc57601f6200118838819003918201601f191683019291906001600160401b03841183851017620001e0578160a09284926040968752833981010312620001dc576200005281620001f4565b6200006060208301620001f4565b916200006e848201620001f4565b9160806200007f60608401620001f4565b9201515f80546001600160a01b0319166001600160a01b0393841690811790915586518181529195917f2f658b440c35314f52658ea8a740e05b284cdc84dc9ae01e891f21b8933e7cad90602090a115620001cb578116928315620001cb578116918215620001cb5716918215620001ba578315620001755760805260a05260c05260e05251610f7e90816200020a823960805181818161010a015281816101e30152818161029b015281816103fe01528181610697015281816107f701528181610bff0152610c96015260a0518181816108f60152610cd7015260c05181610314015260e05181818161045801526105660152f35b845163d647364f60e01b815260206004820152601360248201527f496e76616c696420636f6d6d756e6974794964000000000000000000000000006044820152606490fd5b845163d92e233d60e01b8152600490fd5b855163d92e233d60e01b8152600490fd5b5f80fd5b634e487b7160e01b5f52604160045260245ffd5b51906001600160a01b0382168203620001dc5756fe608060409080825260049182361015610016575f80fd5b5f915f3560e01c9081631012781114610cba5750806331f6e12014610c7757806336c5b67c14610b9a5780634104c3be1461077757806346a2ba22146106605780637a9e5e4b146105895780637f50861a1461054f5780638fb36037146104b95780639cc70b8c14610338578063b1324f7b146102f5578063bf7e214f146102d0578063c7aa94541461024c578063d2fc4e48146101945763e7466ca6146100bc575f80fd5b34610190576020928360031936011261018c578151907fe7466ca600000000000000000000000000000000000000000000000000000000825280359082015283816024816001600160a01b037f0000000000000000000000000000000000000000000000000000000000000000165afa928315610181578093610144575b5050519015158152f35b909192508382813d831161017a575b61015d8183610d39565b81010312610177575061016f90610d70565b905f8061013a565b80fd5b503d610153565b8251903d90823e3d90fd5b8280fd5b5080fd5b5034610190576020928360031936011261018c578151907fe989de2e00000000000000000000000000000000000000000000000000000000825280359082015283816024816001600160a01b037f0000000000000000000000000000000000000000000000000000000000000000165afa9283156101815792610219575b5051908152f35b9091508281813d8311610245575b6102318183610d39565b810103126102415751905f610212565b5f80fd5b503d610227565b5034610190576020928360031936011261018c578151907fc7aa945400000000000000000000000000000000000000000000000000000000825280359082015283816024816001600160a01b037f0000000000000000000000000000000000000000000000000000000000000000165afa9283156101815792610219575051908152f35b50346101905781600319360112610190576001600160a01b0360209254169051908152f35b5034610190578160031936011261019057602090516001600160a01b037f0000000000000000000000000000000000000000000000000000000000000000168152f35b50346101905760c036600319011261019057823561ffff811680910361018c5760243563ffffffff81168091036102415760643567ffffffffffffffff91828216809203610241576084359283168093036102415760a43593841515809503610241576103a53633610d7d565b8551977f9cc70b8c00000000000000000000000000000000000000000000000000000000895288015260248701526044356044870152606486015260848501528060a4850152602093848160c481876001600160a01b037f0000000000000000000000000000000000000000000000000000000000000000165af19384156104ae579361047f575b508151908152827fb286797d81dc35708794897838eec30f0fb55ccc70ab65ec1b818ae1ea796d9e857f000000000000000000000000000000000000000000000000000000000000000093a351908152f35b9092508381813d83116104a7575b6104978183610d39565b810103126102415751915f61042d565b503d61048d565b8351903d90823e3d90fd5b50346101905781600319360112610190578160ff6020935460a01c165f1461052757507fffffffff000000000000000000000000000000000000000000000000000000007f8fb3603700000000000000000000000000000000000000000000000000000000915b5191168152f35b7fffffffff000000000000000000000000000000000000000000000000000000009091610520565b5034610190578160031936011261019057602090517f00000000000000000000000000000000000000000000000000000000000000008152f35b50823461018c57602036600319011261018c576105a4610cfb565b908354916001600160a01b0391828416330361064a57813b1561061a5750926020927fffffffffffffffffffffffff0000000000000000000000000000000000000000927f2f658b440c35314f52658ea8a740e05b284cdc84dc9ae01e891f21b8933e7cad95169283911617855551908152a180f35b6024928551927fc2f31e5e0000000000000000000000000000000000000000000000000000000084521690820152fd5b60249085519062d1953b60e31b82523390820152fd5b508234610241578160031936011261024157803591602435918215158093036102415761068d3633610d7d565b6001600160a01b037f00000000000000000000000000000000000000000000000000000000000000001690813b15610241578460445f9283865195869485937f46a2ba220000000000000000000000000000000000000000000000000000000085528401528860248401525af1801561076d57610733575b507f89f0e7749ead94ed9d94befab7eb53cd487cdb721d1a2c5ce1fe41914a9697989160209151908152a280f35b6020919450916107637f89f0e7749ead94ed9d94befab7eb53cd487cdb721d1a2c5ce1fe41914a96979893610d11565b5f94915091610705565b82513d5f823e3d90fd5b83823461024157608036600319011261024157610792610cfb565b9060249283359060443563ffffffff808216809203610241576064359267ffffffffffffffff908185116102415736602386011215610241578481013582811161024157368a8288010111610241576107eb3633610d7d565b6001600160a01b0398897f0000000000000000000000000000000000000000000000000000000000000000169389517f837f3dec0000000000000000000000000000000000000000000000000000000081528985820152808d610160928391818a5afa978815610b90575f98610aa1575b50505061012086015115610a5e5760a0860151168015159081610a54575b50610a1157908a9392918a828b519d8e9d8e947f4104c3be000000000000000000000000000000000000000000000000000000008652169a8b878601528c828601528a604486015260648501608090528260848601520160a484013782820160a4015f90528160209d8e94601f1990601f011681010360a401917f0000000000000000000000000000000000000000000000000000000000000000165a905f91f1988915610a07575f996109d8575b50813b1561024157608487915f8094898c5197889687957f64229dad0000000000000000000000000000000000000000000000000000000087528601528401528860448401528c60648401525af180156109ce5792887f44591648cf09f5733222d9e62243bcfd82dbab41c08d4d5e207476ecd7d95c179388938a97966109bf575b50015190825191825289820152a451908152f35b6109c890610d11565b8b6109ab565b86513d5f823e3d90fd5b9098508981813d8311610a00575b6109f08183610d39565b810103126102415751978a610929565b503d6109e6565b88513d5f823e3d90fd5b606483600e8d60208d519363d647364f60e01b85528401528201527f436f686f727420657870697265640000000000000000000000000000000000006044820152fd5b905042118c61087a565b606484600f8e60208e519363d647364f60e01b85528401528201527f436f686f727420696e61637469766500000000000000000000000000000000006044820152fd5b90918093985082813d8311610b89575b610abb8183610d39565b81010312610241578b5192830183811089821117610b77578c5281518352602082015160208401528b82015161ffff81168103610241578c840152610b0260608301610d5b565b6060840152610b1360808301610d5b565b6080840152610b2460a08301610d5b565b60a084015260c082015190811681036102415760c083015260e081015160e08301526101008082015190830152610120610b5f818301610d70565b908301526101408091015190820152948c808061085c565b8e604188634e487b7160e01b5f52525ffd5b503d610ab1565b8c513d5f823e3d90fd5b838234610241578060031936011261024157602435916001600160a01b0392838116809103610241576044602092845195869384927fbb7e385a00000000000000000000000000000000000000000000000000000000845280359084015260248301527f0000000000000000000000000000000000000000000000000000000000000000165afa908115610c6e575f91610c39575b6020925051908152f35b90506020823d602011610c66575b81610c5460209383610d39565b81010312610241576020915190610c2f565b3d9150610c47565b513d5f823e3d90fd5b5034610241575f36600319011261024157602090516001600160a01b037f0000000000000000000000000000000000000000000000000000000000000000168152f35b34610241575f366003190112610241576020906001600160a01b037f0000000000000000000000000000000000000000000000000000000000000000168152f35b600435906001600160a01b038216820361024157565b67ffffffffffffffff8111610d2557604052565b634e487b7160e01b5f52604160045260245ffd5b90601f8019910116810190811067ffffffffffffffff821117610d2557604052565b519067ffffffffffffffff8216820361024157565b5190811515820361024157565b5f915f54916001600160a01b03908184169280600411610241575f8060409485519060208201957fb700961300000000000000000000000000000000000000000000000000000000875216948560248301523060448301527fffffffff000000000000000000000000000000000000000000000000000000005f351660648301526064825260a082019082821067ffffffffffffffff831117610d255787925f928452828052826020525190895afa610f35575b15610e40575b50505050505050565b63ffffffff1615610f1f57740100000000000000000000000000000000000000007fffffffffffffffffffffff00ffffffffffffffffffffffffffffffffffffffff809616175f55833b15610241576064935f928385519687809581947f94c7d7ee00000000000000000000000000000000000000000000000000000000835260048301528860248301528060448301528084848401378181018301849052601f01601f191681010301925af1908115610c6e5750610f0c575b5081541690555f808080808080610e37565b610f17919250610d11565b5f905f610efa565b50602491519062d1953b60e31b82526004820152fd5b50505f516020518060201c150290610e3156fea2646970667358221220ae8d5fd6b64f0d49e17880265fdfe5ed819282de86701e0653585f5bc5c8a14f64736f6c63430008180033","linkReferences":{}},"methodIdentifiers":{"authority()":"bf7e214f","cohortRegistry()":"31f6e120","communityId()":"7f50861a","createCohort(uint16,uint32,bytes32,uint64,uint64,bool)":"9cc70b8c","getCohortCommunity(uint256)":"c7aa9454","getInvestmentWeight(uint256,address)":"36c5b67c","getInvestmentWeightByToken(uint256)":"d2fc4e48","isCohortActive(uint256)":"e7466ca6","isConsumingScheduledOp()":"8fb36037","issueInvestment(address,uint256,uint32,bytes)":"4104c3be","sbt()":"b1324f7b","setAuthority(address)":"7a9e5e4b","setCohortActive(uint256,bool)":"46a2ba22","valuableActionRegistry()":"10127811"},"id":19}