{
  "_format": "hh-sol-artifact-1",
  "contractName": "InvestmentCohortManager",
  "sourceName": "contracts/modules/InvestmentCohortManager.sol",
  "abi": [
    {
      "inputs": [
        {
          "internalType": "address",
          "name": "manager",
          "type": "address"
        },
        {
          "internalType": "address",
          "name": "_cohortRegistry",
          "type": "address"
        },
        {
          "internalType": "address",
          "name": "_valuableActionRegistry",
          "type": "address"
        },
        {
          "internalType": "address",
          "name": "_sbt",
          "type": "address"
        },
        {
          "internalType": "uint256",
          "name": "_communityId",
          "type": "uint256"
        }
      ],
      "stateMutability": "nonpayable",
      "type": "constructor"
    },
    {
      "inputs": [
        {
          "internalType": "address",
          "name": "authority",
          "type": "address"
        }
      ],
      "name": "AccessManagedInvalidAuthority",
      "type": "error"
    },
    {
      "inputs": [
        {
          "internalType": "address",
          "name": "caller",
          "type": "address"
        },
        {
          "internalType": "uint32",
          "name": "delay",
          "type": "uint32"
        }
      ],
      "name": "AccessManagedRequiredDelay",
      "type": "error"
    },
    {
      "inputs": [
        {
          "internalType": "address",
          "name": "caller",
          "type": "address"
        }
      ],
      "name": "AccessManagedUnauthorized",
      "type": "error"
    },
    {
      "inputs": [
        {
          "internalType": "string",
          "name": "reason",
          "type": "string"
        }
      ],
      "name": "InvalidInput",
      "type": "error"
    },
    {
      "inputs": [],
      "name": "ZeroAddress",
      "type": "error"
    },
    {
      "anonymous": false,
      "inputs": [
        {
          "indexed": false,
          "internalType": "address",
          "name": "authority",
          "type": "address"
        }
      ],
      "name": "AuthorityUpdated",
      "type": "event"
    },
    {
      "anonymous": false,
      "inputs": [
        {
          "indexed": true,
          "internalType": "uint256",
          "name": "cohortId",
          "type": "uint256"
        },
        {
          "indexed": false,
          "internalType": "bool",
          "name": "active",
          "type": "bool"
        }
      ],
      "name": "CohortActivationUpdated",
      "type": "event"
    },
    {
      "anonymous": false,
      "inputs": [
        {
          "indexed": true,
          "internalType": "uint256",
          "name": "cohortId",
          "type": "uint256"
        },
        {
          "indexed": true,
          "internalType": "uint256",
          "name": "communityId",
          "type": "uint256"
        },
        {
          "indexed": false,
          "internalType": "bool",
          "name": "active",
          "type": "bool"
        }
      ],
      "name": "CohortCreated",
      "type": "event"
    },
    {
      "anonymous": false,
      "inputs": [
        {
          "indexed": true,
          "internalType": "address",
          "name": "investor",
          "type": "address"
        },
        {
          "indexed": true,
          "internalType": "uint256",
          "name": "tokenId",
          "type": "uint256"
        },
        {
          "indexed": true,
          "internalType": "uint256",
          "name": "cohortId",
          "type": "uint256"
        },
        {
          "indexed": false,
          "internalType": "uint256",
          "name": "communityId",
          "type": "uint256"
        },
        {
          "indexed": false,
          "internalType": "uint32",
          "name": "weight",
          "type": "uint32"
        }
      ],
      "name": "InvestmentIssued",
      "type": "event"
    },
    {
      "inputs": [],
      "name": "authority",
      "outputs": [
        {
          "internalType": "address",
          "name": "",
          "type": "address"
        }
      ],
      "stateMutability": "view",
      "type": "function"
    },
    {
      "inputs": [],
      "name": "cohortRegistry",
      "outputs": [
        {
          "internalType": "contract CohortRegistry",
          "name": "",
          "type": "address"
        }
      ],
      "stateMutability": "view",
      "type": "function"
    },
    {
      "inputs": [],
      "name": "communityId",
      "outputs": [
        {
          "internalType": "uint256",
          "name": "",
          "type": "uint256"
        }
      ],
      "stateMutability": "view",
      "type": "function"
    },
    {
      "inputs": [
        {
          "internalType": "uint16",
          "name": "targetRoiBps",
          "type": "uint16"
        },
        {
          "internalType": "uint32",
          "name": "priorityWeight",
          "type": "uint32"
        },
        {
          "internalType": "bytes32",
          "name": "termsHash",
          "type": "bytes32"
        },
        {
          "internalType": "uint64",
          "name": "startAt",
          "type": "uint64"
        },
        {
          "internalType": "uint64",
          "name": "endAt",
          "type": "uint64"
        },
        {
          "internalType": "bool",
          "name": "active",
          "type": "bool"
        }
      ],
      "name": "createCohort",
      "outputs": [
        {
          "internalType": "uint256",
          "name": "cohortId",
          "type": "uint256"
        }
      ],
      "stateMutability": "nonpayable",
      "type": "function"
    },
    {
      "inputs": [
        {
          "internalType": "uint256",
          "name": "cohortId",
          "type": "uint256"
        }
      ],
      "name": "getCohortCommunity",
      "outputs": [
        {
          "internalType": "uint256",
          "name": "",
          "type": "uint256"
        }
      ],
      "stateMutability": "view",
      "type": "function"
    },
    {
      "inputs": [
        {
          "internalType": "uint256",
          "name": "cohortId",
          "type": "uint256"
        },
        {
          "internalType": "address",
          "name": "investor",
          "type": "address"
        }
      ],
      "name": "getInvestmentWeight",
      "outputs": [
        {
          "internalType": "uint256",
          "name": "",
          "type": "uint256"
        }
      ],
      "stateMutability": "view",
      "type": "function"
    },
    {
      "inputs": [
        {
          "internalType": "uint256",
          "name": "tokenId",
          "type": "uint256"
        }
      ],
      "name": "getInvestmentWeightByToken",
      "outputs": [
        {
          "internalType": "uint256",
          "name": "",
          "type": "uint256"
        }
      ],
      "stateMutability": "view",
      "type": "function"
    },
    {
      "inputs": [
        {
          "internalType": "uint256",
          "name": "cohortId",
          "type": "uint256"
        }
      ],
      "name": "isCohortActive",
      "outputs": [
        {
          "internalType": "bool",
          "name": "",
          "type": "bool"
        }
      ],
      "stateMutability": "view",
      "type": "function"
    },
    {
      "inputs": [],
      "name": "isConsumingScheduledOp",
      "outputs": [
        {
          "internalType": "bytes4",
          "name": "",
          "type": "bytes4"
        }
      ],
      "stateMutability": "view",
      "type": "function"
    },
    {
      "inputs": [
        {
          "internalType": "address",
          "name": "to",
          "type": "address"
        },
        {
          "internalType": "uint256",
          "name": "cohortId",
          "type": "uint256"
        },
        {
          "internalType": "uint32",
          "name": "weight",
          "type": "uint32"
        },
        {
          "internalType": "bytes",
          "name": "metadata",
          "type": "bytes"
        }
      ],
      "name": "issueInvestment",
      "outputs": [
        {
          "internalType": "uint256",
          "name": "tokenId",
          "type": "uint256"
        }
      ],
      "stateMutability": "nonpayable",
      "type": "function"
    },
    {
      "inputs": [],
      "name": "sbt",
      "outputs": [
        {
          "internalType": "contract ValuableActionSBT",
          "name": "",
          "type": "address"
        }
      ],
      "stateMutability": "view",
      "type": "function"
    },
    {
      "inputs": [
        {
          "internalType": "address",
          "name": "newAuthority",
          "type": "address"
        }
      ],
      "name": "setAuthority",
      "outputs": [],
      "stateMutability": "nonpayable",
      "type": "function"
    },
    {
      "inputs": [
        {
          "internalType": "uint256",
          "name": "cohortId",
          "type": "uint256"
        },
        {
          "internalType": "bool",
          "name": "active",
          "type": "bool"
        }
      ],
      "name": "setCohortActive",
      "outputs": [],
      "stateMutability": "nonpayable",
      "type": "function"
    },
    {
      "inputs": [],
      "name": "valuableActionRegistry",
      "outputs": [
        {
          "internalType": "contract ValuableActionRegistry",
          "name": "",
          "type": "address"
        }
      ],
      "stateMutability": "view",
      "type": "function"
    }
  ],
  "bytecode": "0x610100346101c957601f610f8638819003918201601f191683019291906001600160401b038411838510176101cd578160a092849260409687528339810103126101c95761004c816101e1565b610058602083016101e1565b916100648482016101e1565b916080610073606084016101e1565b9201515f80546001600160a01b0319166001600160a01b0393841690811790915586518181529195917f2f658b440c35314f52658ea8a740e05b284cdc84dc9ae01e891f21b8933e7cad90602090a1156101b85781169283156101b85781169182156101b857169182156101a75783156101625760805260a05260c05260e05251610d9090816101f6823960805181818160eb015281816101ad0152818161024e0152818161039b015281816105b10152818161071101528181610a890152610b15015260a0518181816107cf0152610b56015260c051816102c6015260e0518181816103fd01526104b90152f35b845163d647364f60e01b815260206004820152601360248201527f496e76616c696420636f6d6d756e6974794964000000000000000000000000006044820152606490fd5b845163d92e233d60e01b8152600490fd5b855163d92e233d60e01b8152600490fd5b5f80fd5b634e487b7160e01b5f52604160045260245ffd5b51906001600160a01b03821682036101c95756fe608060409080825260049182361015610016575f80fd5b5f915f3560e01c9081631012781114610b445750806331f6e12014610b0157806336c5b67c14610a3d5780634104c3be1461068057806346a2ba22146105825780637a9e5e4b146104dc5780637f50861a146104a25780638fb360371461045e5780639cc70b8c146102f5578063b1324f7b146102b2578063bf7e214f1461028b578063c7aa94541461021e578063d2fc4e481461017d5763e7466ca6146100bc575f80fd5b3461017957602092836003193601126101755781516373a3365360e11b815281359181019190915283816024817f00000000000000000000000000000000000000000000000000000000000000006001600160a01b03165afa92831561016a57809361012d575b5050519015158152f35b909192508382813d8311610163575b6101468183610bc3565b81010312610160575061015890610bfa565b905f80610123565b80fd5b503d61013c565b8251903d90823e3d90fd5b8280fd5b5080fd5b503461017957602092836003193601126101755781516374c4ef1760e11b815281359181019190915283816024817f00000000000000000000000000000000000000000000000000000000000000006001600160a01b03165afa92831561016a57926101eb575b5051908152f35b9091508281813d8311610217575b6102038183610bc3565b810103126102135751905f6101e4565b5f80fd5b503d6101f9565b503461017957602092836003193601126101755781516331eaa51560e21b815281359181019190915283816024817f00000000000000000000000000000000000000000000000000000000000000006001600160a01b03165afa92831561016a57926101eb575051908152f35b5034610179578160031936011261017957905490516001600160a01b039091168152602090f35b5034610179578160031936011261017957517f00000000000000000000000000000000000000000000000000000000000000006001600160a01b03168152602090f35b50346101795760c036600319011261017957823561ffff81168091036101755760243563ffffffff81168091036102135760643567ffffffffffffffff91828216809203610213576084359283168093036102135760a43593841515809503610213576103623633610c07565b8551632731c2e360e21b815297880152602487015260448035908701526064860152608485015260a48401819052602093848160c481877f00000000000000000000000000000000000000000000000000000000000000006001600160a01b03165af19384156104535793610424575b508151908152827fb286797d81dc35708794897838eec30f0fb55ccc70ab65ec1b818ae1ea796d9e857f000000000000000000000000000000000000000000000000000000000000000093a351908152f35b9092508381813d831161044c575b61043c8183610bc3565b810103126102135751915f6103d2565b503d610432565b8351903d90823e3d90fd5b50346101795781600319360112610179578160ff6020935460a01c165f1461049c5750638fb3603760e01b905b516001600160e01b03199091168152f35b9061048b565b5034610179578160031936011261017957602090517f00000000000000000000000000000000000000000000000000000000000000008152f35b50829034610175576020366003190112610175576104f8610b85565b8354926001600160a01b039190828516330361056c57813b156105555750166001600160a01b03199290921682178355519081527f2f658b440c35314f52658ea8a740e05b284cdc84dc9ae01e891f21b8933e7cad90602090a180f35b6024928451926361798f2f60e11b84521690820152fd5b60249084519062d1953b60e31b82523390820152fd5b50823461021357816003193601126102135780359160243591821515809303610213576105af3633610c07565b7f00000000000000000000000000000000000000000000000000000000000000006001600160a01b031690813b15610213578460445f9283865195869485936323515d1160e11b85528401528860248401525af180156106765761063c575b507f89f0e7749ead94ed9d94befab7eb53cd487cdb721d1a2c5ce1fe41914a9697989160209151908152a280f35b60209194509161066c7f89f0e7749ead94ed9d94befab7eb53cd487cdb721d1a2c5ce1fe41914a96979893610b9b565b5f9491509161060e565b82513d5f823e3d90fd5b8382346102135760803660031901126102135761069b610b85565b9060249283359060443563ffffffff808216809203610213576064359267ffffffffffffffff908185116102135736602386011215610213578481013582811161021357368a8288010111610213576106f43633610c07565b87516320dfcf7b60e21b81528281018890526001600160a01b03997f00000000000000000000000000000000000000000000000000000000000000008b169490916101609081818f818a5afa978815610a33575f98610944575b5050506101208601511561090f5760a0860151168015159081610905575b506108d157908a9392918a828b519d8e9d8e9463208261df60e11b8652169a8b878601528c828601528a604486015260648501608090528260848601520160a484013782820160a4015f90528160209d8e94601f1990601f011681010360a401917f0000000000000000000000000000000000000000000000000000000000000000165a905f91f19889156108c7575f99610898575b50813b1561021357608487915f8094898c5197889687956364229dad60e01b87528601528401528860448401528c60648401525af1801561088e5792887f44591648cf09f5733222d9e62243bcfd82dbab41c08d4d5e207476ecd7d95c179388938a979661087f575b50015190825191825289820152a451908152f35b61088890610b9b565b8b61086b565b86513d5f823e3d90fd5b9098508981813d83116108c0575b6108b08183610bc3565b810103126102135751978a610802565b503d6108a6565b88513d5f823e3d90fd5b885163d647364f60e01b8152602081850152600e818d01526d10dbda1bdc9d08195e1c1a5c995960921b6044820152606490fd5b905042118c61076c565b895163d647364f60e01b8152602081860152600f818e01526e436f686f727420696e61637469766560881b6044820152606490fd5b90918093985082813d8311610a2c575b61095e8183610bc3565b81010312610213578b5192830183811089821117610a1a578c5281518352602082015160208401528b82015161ffff81168103610213578c8401526109a560608301610be5565b60608401526109b660808301610be5565b60808401526109c760a08301610be5565b60a084015260c082015190811681036102135760c083015260e081015160e08301526101008082015190830152610120610a02818301610bfa565b908301526101408091015190820152948c808061074e565b8e604188634e487b7160e01b5f52525ffd5b503d610954565b8c513d5f823e3d90fd5b8382346102135780600319360112610213576001600160a01b03916024358381169081900361021357604460209284519586938492635dbf1c2d60e11b845280359084015260248301527f0000000000000000000000000000000000000000000000000000000000000000165afa908115610af8575f91610ac3575b6020925051908152f35b90506020823d602011610af0575b81610ade60209383610bc3565b81010312610213576020915190610ab9565b3d9150610ad1565b513d5f823e3d90fd5b5034610213575f36600319011261021357517f00000000000000000000000000000000000000000000000000000000000000006001600160a01b03168152602090f35b34610213575f366003190112610213577f00000000000000000000000000000000000000000000000000000000000000006001600160a01b03168152602090f35b600435906001600160a01b038216820361021357565b67ffffffffffffffff8111610baf57604052565b634e487b7160e01b5f52604160045260245ffd5b90601f8019910116810190811067ffffffffffffffff821117610baf57604052565b519067ffffffffffffffff8216820361021357565b5190811515820361021357565b5f915f549160018060a01b03908184169280600411610213575f80604094855190602082019563b700961360e01b8752169485602483015230604483015263ffffffff60e01b5f351660648301526064825260a082019082821067ffffffffffffffff831117610baf5787925f928452828052826020525190895afa610d47575b15610c97575b50505050505050565b63ffffffff1615610d315760ff60a01b19948516600160a01b175f55833b15610213576064935f92838551968780958194634a63ebf760e11b835260048301528860248301528060448301528084848401378181018301849052601f01601f191681010301925af1908115610af85750610d1e575b5081541690555f808080808080610c8e565b610d29919250610b9b565b5f905f610d0c565b50602491519062d1953b60e31b82526004820152fd5b50505f516020518060201c150290610c8856fea2646970667358221220fafbf70e20bd4ae95a9c599525a5ca95cb400921f907e4834ac40b092105967664736f6c63430008180033",
  "linkReferences": {},
  "deployedLinkReferences": {}
}