{
  "_format": "hh-sol-artifact-1",
  "contractName": "Marketplace",
  "sourceName": "contracts/modules/Marketplace.sol",
  "abi": [
    {
      "inputs": [
        {
          "internalType": "address",
          "name": "manager",
          "type": "address"
        },
        {
          "internalType": "address",
          "name": "_commerceDisputes",
          "type": "address"
        },
        {
          "internalType": "address",
          "name": "_revenueRouter",
          "type": "address"
        },
        {
          "internalType": "uint256",
          "name": "_communityId",
          "type": "uint256"
        }
      ],
      "stateMutability": "nonpayable",
      "type": "constructor"
    },
    {
      "inputs": [
        {
          "internalType": "address",
          "name": "authority",
          "type": "address"
        }
      ],
      "name": "AccessManagedInvalidAuthority",
      "type": "error"
    },
    {
      "inputs": [
        {
          "internalType": "address",
          "name": "caller",
          "type": "address"
        },
        {
          "internalType": "uint32",
          "name": "delay",
          "type": "uint32"
        }
      ],
      "name": "AccessManagedRequiredDelay",
      "type": "error"
    },
    {
      "inputs": [
        {
          "internalType": "address",
          "name": "caller",
          "type": "address"
        }
      ],
      "name": "AccessManagedUnauthorized",
      "type": "error"
    },
    {
      "inputs": [
        {
          "internalType": "uint256",
          "name": "communityId",
          "type": "uint256"
        }
      ],
      "name": "CommunityNotActive",
      "type": "error"
    },
    {
      "inputs": [],
      "name": "DisputeWindowActive",
      "type": "error"
    },
    {
      "inputs": [],
      "name": "DisputeWindowClosed",
      "type": "error"
    },
    {
      "inputs": [],
      "name": "InvalidDiscount",
      "type": "error"
    },
    {
      "inputs": [
        {
          "internalType": "string",
          "name": "reason",
          "type": "string"
        }
      ],
      "name": "InvalidInput",
      "type": "error"
    },
    {
      "inputs": [
        {
          "internalType": "enum Marketplace.OrderStatus",
          "name": "current",
          "type": "uint8"
        },
        {
          "internalType": "enum Marketplace.OrderStatus",
          "name": "required",
          "type": "uint8"
        }
      ],
      "name": "InvalidStatus",
      "type": "error"
    },
    {
      "inputs": [
        {
          "internalType": "uint256",
          "name": "offerId",
          "type": "uint256"
        }
      ],
      "name": "OfferNotActive",
      "type": "error"
    },
    {
      "inputs": [
        {
          "internalType": "uint256",
          "name": "offerId",
          "type": "uint256"
        }
      ],
      "name": "OfferNotFound",
      "type": "error"
    },
    {
      "inputs": [],
      "name": "OnlyBuyer",
      "type": "error"
    },
    {
      "inputs": [],
      "name": "OnlySeller",
      "type": "error"
    },
    {
      "inputs": [
        {
          "internalType": "uint256",
          "name": "orderId",
          "type": "uint256"
        }
      ],
      "name": "OrderNotFound",
      "type": "error"
    },
    {
      "inputs": [
        {
          "internalType": "address",
          "name": "token",
          "type": "address"
        }
      ],
      "name": "PaymentTokenNotAccepted",
      "type": "error"
    },
    {
      "inputs": [],
      "name": "ReentrancyGuardReentrantCall",
      "type": "error"
    },
    {
      "inputs": [
        {
          "internalType": "address",
          "name": "token",
          "type": "address"
        }
      ],
      "name": "SafeERC20FailedOperation",
      "type": "error"
    },
    {
      "inputs": [
        {
          "internalType": "address",
          "name": "caller",
          "type": "address"
        }
      ],
      "name": "UnauthorizedCaller",
      "type": "error"
    },
    {
      "anonymous": false,
      "inputs": [
        {
          "indexed": false,
          "internalType": "address",
          "name": "authority",
          "type": "address"
        }
      ],
      "name": "AuthorityUpdated",
      "type": "event"
    },
    {
      "anonymous": false,
      "inputs": [
        {
          "indexed": true,
          "internalType": "uint256",
          "name": "offerId",
          "type": "uint256"
        },
        {
          "indexed": true,
          "internalType": "uint256",
          "name": "communityId",
          "type": "uint256"
        },
        {
          "indexed": true,
          "internalType": "address",
          "name": "seller",
          "type": "address"
        },
        {
          "indexed": false,
          "internalType": "enum Marketplace.OfferKind",
          "name": "kind",
          "type": "uint8"
        },
        {
          "indexed": false,
          "internalType": "address",
          "name": "productContract",
          "type": "address"
        },
        {
          "indexed": false,
          "internalType": "uint256",
          "name": "productId",
          "type": "uint256"
        }
      ],
      "name": "OfferCreated",
      "type": "event"
    },
    {
      "anonymous": false,
      "inputs": [
        {
          "indexed": true,
          "internalType": "uint256",
          "name": "offerId",
          "type": "uint256"
        },
        {
          "indexed": false,
          "internalType": "bool",
          "name": "active",
          "type": "bool"
        },
        {
          "indexed": false,
          "internalType": "uint256",
          "name": "basePrice",
          "type": "uint256"
        }
      ],
      "name": "OfferUpdated",
      "type": "event"
    },
    {
      "anonymous": false,
      "inputs": [
        {
          "indexed": true,
          "internalType": "uint256",
          "name": "orderId",
          "type": "uint256"
        },
        {
          "indexed": true,
          "internalType": "uint256",
          "name": "offerId",
          "type": "uint256"
        },
        {
          "indexed": true,
          "internalType": "address",
          "name": "buyer",
          "type": "address"
        },
        {
          "indexed": false,
          "internalType": "address",
          "name": "paymentToken",
          "type": "address"
        },
        {
          "indexed": false,
          "internalType": "uint256",
          "name": "amount",
          "type": "uint256"
        }
      ],
      "name": "OrderCreated",
      "type": "event"
    },
    {
      "anonymous": false,
      "inputs": [
        {
          "indexed": true,
          "internalType": "uint256",
          "name": "orderId",
          "type": "uint256"
        },
        {
          "indexed": true,
          "internalType": "uint256",
          "name": "disputeId",
          "type": "uint256"
        }
      ],
      "name": "OrderDisputeOpened",
      "type": "event"
    },
    {
      "anonymous": false,
      "inputs": [
        {
          "indexed": true,
          "internalType": "uint256",
          "name": "orderId",
          "type": "uint256"
        },
        {
          "indexed": true,
          "internalType": "uint256",
          "name": "disputeId",
          "type": "uint256"
        },
        {
          "indexed": false,
          "internalType": "uint8",
          "name": "outcome",
          "type": "uint8"
        },
        {
          "indexed": false,
          "internalType": "address",
          "name": "seller",
          "type": "address"
        },
        {
          "indexed": false,
          "internalType": "address",
          "name": "buyer",
          "type": "address"
        },
        {
          "indexed": false,
          "internalType": "uint256",
          "name": "communityId",
          "type": "uint256"
        }
      ],
      "name": "OrderDisputeResolved",
      "type": "event"
    },
    {
      "anonymous": false,
      "inputs": [
        {
          "indexed": true,
          "internalType": "uint256",
          "name": "orderId",
          "type": "uint256"
        },
        {
          "indexed": false,
          "internalType": "uint64",
          "name": "fulfilledAt",
          "type": "uint64"
        }
      ],
      "name": "OrderFulfilled",
      "type": "event"
    },
    {
      "anonymous": false,
      "inputs": [
        {
          "indexed": true,
          "internalType": "uint256",
          "name": "orderId",
          "type": "uint256"
        },
        {
          "indexed": false,
          "internalType": "uint256",
          "name": "amount",
          "type": "uint256"
        },
        {
          "indexed": false,
          "internalType": "address",
          "name": "paymentToken",
          "type": "address"
        }
      ],
      "name": "OrderRefunded",
      "type": "event"
    },
    {
      "anonymous": false,
      "inputs": [
        {
          "indexed": true,
          "internalType": "uint256",
          "name": "orderId",
          "type": "uint256"
        },
        {
          "indexed": false,
          "internalType": "uint256",
          "name": "amount",
          "type": "uint256"
        },
        {
          "indexed": false,
          "internalType": "address",
          "name": "paymentToken",
          "type": "address"
        }
      ],
      "name": "OrderSettled",
      "type": "event"
    },
    {
      "inputs": [],
      "name": "BPS_DENOMINATOR",
      "outputs": [
        {
          "internalType": "uint256",
          "name": "",
          "type": "uint256"
        }
      ],
      "stateMutability": "view",
      "type": "function"
    },
    {
      "inputs": [],
      "name": "DISPUTE_WINDOW",
      "outputs": [
        {
          "internalType": "uint256",
          "name": "",
          "type": "uint256"
        }
      ],
      "stateMutability": "view",
      "type": "function"
    },
    {
      "inputs": [],
      "name": "OUTCOME_PAID",
      "outputs": [
        {
          "internalType": "uint8",
          "name": "",
          "type": "uint8"
        }
      ],
      "stateMutability": "view",
      "type": "function"
    },
    {
      "inputs": [],
      "name": "OUTCOME_REFUNDED",
      "outputs": [
        {
          "internalType": "uint8",
          "name": "",
          "type": "uint8"
        }
      ],
      "stateMutability": "view",
      "type": "function"
    },
    {
      "inputs": [],
      "name": "authority",
      "outputs": [
        {
          "internalType": "address",
          "name": "",
          "type": "address"
        }
      ],
      "stateMutability": "view",
      "type": "function"
    },
    {
      "inputs": [
        {
          "internalType": "uint256",
          "name": "orderId",
          "type": "uint256"
        }
      ],
      "name": "canOpenDispute",
      "outputs": [
        {
          "internalType": "bool",
          "name": "",
          "type": "bool"
        }
      ],
      "stateMutability": "view",
      "type": "function"
    },
    {
      "inputs": [
        {
          "internalType": "uint256",
          "name": "orderId",
          "type": "uint256"
        }
      ],
      "name": "canSettle",
      "outputs": [
        {
          "internalType": "bool",
          "name": "",
          "type": "bool"
        }
      ],
      "stateMutability": "view",
      "type": "function"
    },
    {
      "inputs": [],
      "name": "commerceDisputes",
      "outputs": [
        {
          "internalType": "contract CommerceDisputes",
          "name": "",
          "type": "address"
        }
      ],
      "stateMutability": "view",
      "type": "function"
    },
    {
      "inputs": [
        {
          "internalType": "uint256",
          "name": "communityId_",
          "type": "uint256"
        }
      ],
      "name": "communityActive",
      "outputs": [
        {
          "internalType": "bool",
          "name": "",
          "type": "bool"
        }
      ],
      "stateMutability": "view",
      "type": "function"
    },
    {
      "inputs": [],
      "name": "communityId",
      "outputs": [
        {
          "internalType": "uint256",
          "name": "",
          "type": "uint256"
        }
      ],
      "stateMutability": "view",
      "type": "function"
    },
    {
      "inputs": [
        {
          "internalType": "uint256",
          "name": "communityId_",
          "type": "uint256"
        }
      ],
      "name": "communityTokens",
      "outputs": [
        {
          "internalType": "address",
          "name": "",
          "type": "address"
        }
      ],
      "stateMutability": "view",
      "type": "function"
    },
    {
      "inputs": [
        {
          "internalType": "uint256",
          "name": "communityId_",
          "type": "uint256"
        },
        {
          "internalType": "enum Marketplace.OfferKind",
          "name": "kind",
          "type": "uint8"
        },
        {
          "internalType": "address",
          "name": "productContract",
          "type": "address"
        },
        {
          "internalType": "uint256",
          "name": "productId",
          "type": "uint256"
        },
        {
          "internalType": "uint256",
          "name": "basePrice",
          "type": "uint256"
        },
        {
          "internalType": "address",
          "name": "pricingCurrency",
          "type": "address"
        },
        {
          "internalType": "bool",
          "name": "acceptCommunityToken",
          "type": "bool"
        },
        {
          "internalType": "bool",
          "name": "acceptStablecoin",
          "type": "bool"
        },
        {
          "internalType": "uint256",
          "name": "communityTokenDiscountBps",
          "type": "uint256"
        },
        {
          "internalType": "address",
          "name": "stablecoin",
          "type": "address"
        },
        {
          "internalType": "uint256",
          "name": "cohortTag",
          "type": "uint256"
        },
        {
          "internalType": "string",
          "name": "metadataURI",
          "type": "string"
        }
      ],
      "name": "createOffer",
      "outputs": [
        {
          "internalType": "uint256",
          "name": "offerId",
          "type": "uint256"
        }
      ],
      "stateMutability": "nonpayable",
      "type": "function"
    },
    {
      "inputs": [
        {
          "internalType": "uint256",
          "name": "",
          "type": "uint256"
        }
      ],
      "name": "disputeToOrder",
      "outputs": [
        {
          "internalType": "uint256",
          "name": "",
          "type": "uint256"
        }
      ],
      "stateMutability": "view",
      "type": "function"
    },
    {
      "inputs": [
        {
          "internalType": "uint256",
          "name": "offerId",
          "type": "uint256"
        }
      ],
      "name": "getOffer",
      "outputs": [
        {
          "components": [
            {
              "internalType": "uint256",
              "name": "offerId",
              "type": "uint256"
            },
            {
              "internalType": "uint256",
              "name": "communityId",
              "type": "uint256"
            },
            {
              "internalType": "address",
              "name": "seller",
              "type": "address"
            },
            {
              "internalType": "enum Marketplace.OfferKind",
              "name": "kind",
              "type": "uint8"
            },
            {
              "internalType": "address",
              "name": "productContract",
              "type": "address"
            },
            {
              "internalType": "uint256",
              "name": "productId",
              "type": "uint256"
            },
            {
              "internalType": "uint256",
              "name": "basePrice",
              "type": "uint256"
            },
            {
              "internalType": "address",
              "name": "pricingCurrency",
              "type": "address"
            },
            {
              "internalType": "bool",
              "name": "acceptCommunityToken",
              "type": "bool"
            },
            {
              "internalType": "bool",
              "name": "acceptStablecoin",
              "type": "bool"
            },
            {
              "internalType": "uint256",
              "name": "communityTokenDiscountBps",
              "type": "uint256"
            },
            {
              "internalType": "address",
              "name": "stablecoin",
              "type": "address"
            },
            {
              "internalType": "bool",
              "name": "active",
              "type": "bool"
            },
            {
              "internalType": "uint256",
              "name": "cohortTag",
              "type": "uint256"
            },
            {
              "internalType": "string",
              "name": "metadataURI",
              "type": "string"
            }
          ],
          "internalType": "struct Marketplace.Offer",
          "name": "",
          "type": "tuple"
        }
      ],
      "stateMutability": "view",
      "type": "function"
    },
    {
      "inputs": [
        {
          "internalType": "uint256",
          "name": "orderId",
          "type": "uint256"
        }
      ],
      "name": "getOrder",
      "outputs": [
        {
          "components": [
            {
              "internalType": "uint256",
              "name": "orderId",
              "type": "uint256"
            },
            {
              "internalType": "uint256",
              "name": "offerId",
              "type": "uint256"
            },
            {
              "internalType": "address",
              "name": "buyer",
              "type": "address"
            },
            {
              "internalType": "address",
              "name": "paymentToken",
              "type": "address"
            },
            {
              "internalType": "uint256",
              "name": "amount",
              "type": "uint256"
            },
            {
              "internalType": "enum Marketplace.OrderStatus",
              "name": "status",
              "type": "uint8"
            },
            {
              "internalType": "uint64",
              "name": "createdAt",
              "type": "uint64"
            },
            {
              "internalType": "uint64",
              "name": "fulfilledAt",
              "type": "uint64"
            },
            {
              "internalType": "uint256",
              "name": "resourceId",
              "type": "uint256"
            },
            {
              "internalType": "uint256",
              "name": "disputeId",
              "type": "uint256"
            }
          ],
          "internalType": "struct Marketplace.Order",
          "name": "",
          "type": "tuple"
        }
      ],
      "stateMutability": "view",
      "type": "function"
    },
    {
      "inputs": [],
      "name": "isConsumingScheduledOp",
      "outputs": [
        {
          "internalType": "bytes4",
          "name": "",
          "type": "bytes4"
        }
      ],
      "stateMutability": "view",
      "type": "function"
    },
    {
      "inputs": [
        {
          "internalType": "uint256",
          "name": "orderId",
          "type": "uint256"
        }
      ],
      "name": "markOrderFulfilled",
      "outputs": [],
      "stateMutability": "nonpayable",
      "type": "function"
    },
    {
      "inputs": [],
      "name": "nextOfferId",
      "outputs": [
        {
          "internalType": "uint256",
          "name": "",
          "type": "uint256"
        }
      ],
      "stateMutability": "view",
      "type": "function"
    },
    {
      "inputs": [],
      "name": "nextOrderId",
      "outputs": [
        {
          "internalType": "uint256",
          "name": "",
          "type": "uint256"
        }
      ],
      "stateMutability": "view",
      "type": "function"
    },
    {
      "inputs": [
        {
          "internalType": "uint256",
          "name": "",
          "type": "uint256"
        }
      ],
      "name": "offers",
      "outputs": [
        {
          "internalType": "uint256",
          "name": "offerId",
          "type": "uint256"
        },
        {
          "internalType": "uint256",
          "name": "communityId",
          "type": "uint256"
        },
        {
          "internalType": "address",
          "name": "seller",
          "type": "address"
        },
        {
          "internalType": "enum Marketplace.OfferKind",
          "name": "kind",
          "type": "uint8"
        },
        {
          "internalType": "address",
          "name": "productContract",
          "type": "address"
        },
        {
          "internalType": "uint256",
          "name": "productId",
          "type": "uint256"
        },
        {
          "internalType": "uint256",
          "name": "basePrice",
          "type": "uint256"
        },
        {
          "internalType": "address",
          "name": "pricingCurrency",
          "type": "address"
        },
        {
          "internalType": "bool",
          "name": "acceptCommunityToken",
          "type": "bool"
        },
        {
          "internalType": "bool",
          "name": "acceptStablecoin",
          "type": "bool"
        },
        {
          "internalType": "uint256",
          "name": "communityTokenDiscountBps",
          "type": "uint256"
        },
        {
          "internalType": "address",
          "name": "stablecoin",
          "type": "address"
        },
        {
          "internalType": "bool",
          "name": "active",
          "type": "bool"
        },
        {
          "internalType": "uint256",
          "name": "cohortTag",
          "type": "uint256"
        },
        {
          "internalType": "string",
          "name": "metadataURI",
          "type": "string"
        }
      ],
      "stateMutability": "view",
      "type": "function"
    },
    {
      "inputs": [
        {
          "internalType": "uint256",
          "name": "disputeId",
          "type": "uint256"
        },
        {
          "internalType": "uint8",
          "name": "outcomeValue",
          "type": "uint8"
        }
      ],
      "name": "onDisputeResolved",
      "outputs": [],
      "stateMutability": "nonpayable",
      "type": "function"
    },
    {
      "inputs": [
        {
          "internalType": "uint256",
          "name": "orderId",
          "type": "uint256"
        },
        {
          "internalType": "string",
          "name": "evidenceURI",
          "type": "string"
        }
      ],
      "name": "openOrderDispute",
      "outputs": [],
      "stateMutability": "nonpayable",
      "type": "function"
    },
    {
      "inputs": [
        {
          "internalType": "uint256",
          "name": "",
          "type": "uint256"
        }
      ],
      "name": "orders",
      "outputs": [
        {
          "internalType": "uint256",
          "name": "orderId",
          "type": "uint256"
        },
        {
          "internalType": "uint256",
          "name": "offerId",
          "type": "uint256"
        },
        {
          "internalType": "address",
          "name": "buyer",
          "type": "address"
        },
        {
          "internalType": "address",
          "name": "paymentToken",
          "type": "address"
        },
        {
          "internalType": "uint256",
          "name": "amount",
          "type": "uint256"
        },
        {
          "internalType": "enum Marketplace.OrderStatus",
          "name": "status",
          "type": "uint8"
        },
        {
          "internalType": "uint64",
          "name": "createdAt",
          "type": "uint64"
        },
        {
          "internalType": "uint64",
          "name": "fulfilledAt",
          "type": "uint64"
        },
        {
          "internalType": "uint256",
          "name": "resourceId",
          "type": "uint256"
        },
        {
          "internalType": "uint256",
          "name": "disputeId",
          "type": "uint256"
        }
      ],
      "stateMutability": "view",
      "type": "function"
    },
    {
      "inputs": [
        {
          "internalType": "uint256",
          "name": "offerId",
          "type": "uint256"
        },
        {
          "internalType": "address",
          "name": "paymentToken",
          "type": "address"
        },
        {
          "internalType": "bytes",
          "name": "params",
          "type": "bytes"
        }
      ],
      "name": "purchase",
      "outputs": [
        {
          "internalType": "uint256",
          "name": "orderId",
          "type": "uint256"
        }
      ],
      "stateMutability": "nonpayable",
      "type": "function"
    },
    {
      "inputs": [],
      "name": "revenueRouter",
      "outputs": [
        {
          "internalType": "contract RevenueRouter",
          "name": "",
          "type": "address"
        }
      ],
      "stateMutability": "view",
      "type": "function"
    },
    {
      "inputs": [
        {
          "internalType": "address",
          "name": "newAuthority",
          "type": "address"
        }
      ],
      "name": "setAuthority",
      "outputs": [],
      "stateMutability": "nonpayable",
      "type": "function"
    },
    {
      "inputs": [
        {
          "internalType": "address",
          "name": "_commerceDisputes",
          "type": "address"
        }
      ],
      "name": "setCommerceDisputes",
      "outputs": [],
      "stateMutability": "nonpayable",
      "type": "function"
    },
    {
      "inputs": [
        {
          "internalType": "uint256",
          "name": "communityId_",
          "type": "uint256"
        },
        {
          "internalType": "bool",
          "name": "active",
          "type": "bool"
        }
      ],
      "name": "setCommunityActive",
      "outputs": [],
      "stateMutability": "nonpayable",
      "type": "function"
    },
    {
      "inputs": [
        {
          "internalType": "uint256",
          "name": "communityId_",
          "type": "uint256"
        },
        {
          "internalType": "address",
          "name": "token",
          "type": "address"
        }
      ],
      "name": "setCommunityToken",
      "outputs": [],
      "stateMutability": "nonpayable",
      "type": "function"
    },
    {
      "inputs": [
        {
          "internalType": "address",
          "name": "_revenueRouter",
          "type": "address"
        }
      ],
      "name": "setRevenueRouter",
      "outputs": [],
      "stateMutability": "nonpayable",
      "type": "function"
    },
    {
      "inputs": [
        {
          "internalType": "uint256",
          "name": "orderId",
          "type": "uint256"
        }
      ],
      "name": "settleOrder",
      "outputs": [],
      "stateMutability": "nonpayable",
      "type": "function"
    },
    {
      "inputs": [
        {
          "internalType": "uint256",
          "name": "offerId",
          "type": "uint256"
        },
        {
          "internalType": "bool",
          "name": "active",
          "type": "bool"
        },
        {
          "internalType": "uint256",
          "name": "basePrice",
          "type": "uint256"
        }
      ],
      "name": "updateOffer",
      "outputs": [],
      "stateMutability": "nonpayable",
      "type": "function"
    }
  ],
  "bytecode": "0x60a0346200017557601f6200288d38819003918201601f19168301916001600160401b03831184841017620001795780849260809460405283398101031262000175576200004d816200018d565b6200005b602083016200018d565b9060606200006c604085016200018d565b9301519260015f5560018060a01b03809216927f2f658b440c35314f52658ea8a740e05b284cdc84dc9ae01e891f21b8933e7cad602060018060a01b03199580876001541617600155604051908152a16001600355600160055584156200012f578216836007541617600755169060085416176008556080526040516126ea9081620001a38239608051818181610d5301528181610fda015281816112560152818161212001528181612159015281816122d40152818161241501526125880152f35b60405163d647364f60e01b815260206004820152601b60248201527f436f6d6d756e6974792049442063616e6e6f74206265207a65726f00000000006044820152606490fd5b5f80fd5b634e487b7160e01b5f52604160045260245ffd5b51906001600160a01b0382168203620001755756fe60806040526004361015610011575f80fd5b5f803560e01c80630562d1cd14611e8d5780632967ea4314611e405780632a58b33014611e235780632b78aa4d14611e085780633493197b14611965578063422284571461193b5780634579268a146116f1578063503ece4e146116c95780635f5d0655146116ac57806363b8ba0e146115dc578063708a974b146113715780637a9e5e4b146112c95780637e840d2e146112795780637f50861a1461123f5780638a72ea6a1461111a5780638af1971614610c755780638fb3603714610c315780639d083cb414610b34578063a01371f5146107e0578063a85c38ef14610734578063b3b917d9146106f2578063b50e801d14610564578063bf7e214f1461053b578063c02d087214610489578063d09ef241146102ee578063d3e4047a146102bd578063df69433b14610225578063e1a4521814610208578063e744b66b146101ec578063e8855812146101c3578063f11b2bc81461019a5763f585dc571461017a575f80fd5b3461019757806003193601126101975760206040516203f4808152f35b80fd5b50346101975760203660031901126101975760206101b9600435612157565b6040519015158152f35b50346101975780600319360112610197576008546040516001600160a01b039091168152602090f35b5034610197578060031936011261019757602060405160018152f35b503461019757806003193601126101975760206040516127108152f35b50346101975760203660031901126101975760043581526004602052600560408220015460ff811660078110156102a957600214908161026d575b6020826040519015158152f35b6001600160401b03915060481c16906203f4808201809211610295575060209042115f610260565b634e487b7160e01b81526011600452602490fd5b634e487b7160e01b83526021600452602483fd5b50346101975760203660031901126101975760206102dc60043561211e565b6040516001600160a01b039091168152f35b50346101975760203660031901126101975780604091610120835161031281611fba565b82815282602082015282858201528260608201528260808201528260a08201528260c08201528260e0820152826101008201520152600435815260046020522060405161035e81611fba565b815481526001820154602082015260028201546001600160a01b039081166040830152600383015416606082015260048201546080820152600582015460ff8116926007841015610475576001600160401b036007926101409560a0860152818160081c1660c086015260481c1660e08401526006810154610100840152015461012082015261012060405191805183526020810151602084015260018060a01b03604082015116604084015260018060a01b0360608201511660608401526080810151608084015261043960a082015160a08501906120e3565b6001600160401b0360c08201511660c08401526001600160401b0360e08201511660e08401526101008101516101008401520151610120820152f35b634e487b7160e01b5f52602160045260245ffd5b503461019757602036600319011261019757600435815260046020526040812060058101549060ff821660078110156105275760021491826104e9575b5060209250816104dc575b506040519015158152f35b600791500154155f6104d1565b6001600160401b0391925060481c166203f48081018091116105135760209250421115905f6104c6565b634e487b7160e01b83526011600452602483fd5b634e487b7160e01b84526021600452602484fd5b50346101975780600319360112610197576001546040516001600160a01b039091168152602090f35b503461019757602036600319011261019757600435610581612335565b80825260046020526040822054156106da57808252600460205260408220600181015483526002602052604083209060018060a01b038060028401541633036106c857600582019283549060ff821660078110156106b4576002810361068d57506001600160401b038260481c166203f4808101809111610679574210610667577f0438ae4aeacbb97ded863730513043b050da81d6dbbd2de13aae486da885f0f09460046106379360ff191617905583612356565b60048201546003909201546040805193845291166001600160a01b03166020830152819081010390a26001815580f35b60405163e52e798f60e01b8152600490fd5b634e487b7160e01b88526011600452602488fd5b60405163f924664d60e01b81526044916106ab9060048301906120e3565b60026024820152fd5b634e487b7160e01b88526021600452602488fd5b6040516342e8fb9360e11b8152600490fd5b602490604051906313a42eb760e21b82526004820152fd5b50346101975760203660031901126101975761070c611ed2565b6107163633612189565b60018060a01b03166001600160601b0360a01b600854161760085580f35b503461019757602036600319011261019757604061014091600435815260046020522080549060018101549060018060a01b03806002830154169060038301541660048301546005840154916001600160401b0393600760068701549601549660405198895260208901526040880152606087015260808601526107be60a0860160ff83166120e3565b818160081c1660c086015260481c1660e0840152610100830152610120820152f35b5034610a2a576040366003190112610a2a576004356024803560ff8116809103610a2a5761080c612335565b6007546001600160a01b039081163303610b1d57835f52600660205260405f2054928315610b0757835f52600460205260405f209160018301545f5260028060205260405f209260058501805460ff81166007811015610af45760038103610ace57508892919060018903610a2e5750600560ff19825416179055600386019084825416906108a886868a0154169260048a019384549161261e565b85600388015416908161095e575b5050926001927f62d8641ff5d28239342755632dd9b154e685e2939d082a23d6af44f52cd90a9c8693608099977ee3b833dfa15fc2ef46b0bc1a8adc8f87485648b140e6d391a61f73eb3109b19b9997549154169061092f604051928392839092916020906040830194835260018060a01b0316910152565b0390a25b8181850154169401541691015491604051938452602084015260408301526060820152a36001815580f35b9091929350600487015490600689015492803b15610a2a575f928360649260405196879586946360e2b09d60e11b865260048601528401528960448401525af18015610a1f576109b3575b90818993926108b6565b60809694919a5092887f62d8641ff5d28239342755632dd9b154e685e2939d082a23d6af44f52cd90a9c600194610a0b7ee3b833dfa15fc2ef46b0bc1a8adc8f87485648b140e6d391a61f73eb3109b19b9997611ff2565b845f9e9550979950945050509294966109a9565b6040513d5f823e3d90fd5b5f80fd5b600193506080979592509084918997957ee3b833dfa15fc2ef46b0bc1a8adc8f87485648b140e6d391a61f73eb3109b19a14610a6c575b5050610933565b60ff19166004179055610a7f8486612356565b60048501546003860154604080519283529084166001600160a01b031660208301528a917f0438ae4aeacbb97ded863730513043b050da81d6dbbd2de13aae486da885f0f09190a25f80610a65565b604490600385610aef6040519363f924664d60e01b855260048501906120e3565b820152fd5b83634e487b7160e01b5f5260216004525ffd5b6040516313a42eb760e21b815260048101859052fd5b60405163d86ad9cf60e01b81523360048201528390fd5b34610a2a576020366003190112610a2a57600435805f52600460205260405f2054156106da57805f52600460205260405f2060018101545f52600260205260018060a01b03600260405f2001541633036106c857600501805460ff811660078110156104755760018103610c0a575070ffffffffffffffff0000000000000000ff19164260481b67ffffffffffffffff60481b161760021781557f8b02a6bd2a882848d63ad9fe5722de87bacc09c84011817b7c5b5fcd8b2e76ba906020906001600160401b03905460481c16604051908152a2005b60405163f924664d60e01b8152604491610c289060048301906120e3565b60016024820152fd5b34610a2a575f366003190112610a2a5760015460a01c60ff1615610c6d576020638fb3603760e01b5b6040516001600160e01b03199091168152f35b60205f610c5a565b34610a2a57610180366003190112610a2a5760043560026024351015610a2a57604435906001600160a01b0382168203610a2a5760a435916001600160a01b0383168303610a2a5760c435918215158303610a2a5760e4358015158103610a2a57610124356001600160a01b0381168103610a2a57610164356001600160401b038111610a2a57610d0a903690600401611f0d565b929093610d16816122d2565b60ff60095460a01c1615611102575061271061010435116110f05760035495610d3e87612110565b60035560405197610d4e89611fd6565b8789527f000000000000000000000000000000000000000000000000000000000000000060208a01523360408a0152610d88602435611f3a565b60243560608a01526001600160a01b0387811660808b015260643560a08b015260843560c08b015290811660e08a015290151561010089015290151561012088015261010435610140880152166101608601526001610180860152610144356101a08601526001600160401b0381116110dc5760405191610e13601f8301601f191660200184612020565b8183523682820111610a2a57815f9260209283860137830101526101c0840152815f5260026020526101c0600a60405f2085518155602086015160018201556002810160018060a01b036040880151168154906060890151610e7481611f3a565b610e7d81611f3a565b60ff60a01b60a091821b81166001600160a81b0319948516939093179290921790935560808901516003850180546001600160a01b039283166001600160a01b031990911617905589840151600486015560c08a0151600586015560e08a01516006860180546101008d01516101208e01516001600160b01b031990921693851693909317921515871b85169290921791151560a81b60ff60a81b169190911790556101408a015160078601556101608a01516008860180546101808d01519516919092161792151590931b161790556101a08601516009820155019301519283516001600160401b0381116110dc57610f778254611f82565b601f8111611097575b50806020958690601f8311600114611035575f9261102a575b50508160011b915f199060031b1c19161790555b60405190610fbc602435611f3a565b60243582526001600160a01b031683820152606435604082015233907f00000000000000000000000000000000000000000000000000000000000000009083907f2e4e071828d4444515fa26c9c8d05a23cd7c2fe4d89865797b13fe2e4322506690606090a4604051908152f35b015190508680610f99565b5f8581528881209350601f198516905b8181106110805750908460019594939210611068575b505050811b019055610fad565b01515f1960f88460031b161c1916905586808061105b565b929389600181928786015181550195019301611045565b825f5260205f20601f830160051c810191602084106110d2575b601f0160051c01905b8181106110c75750610f80565b5f81556001016110ba565b90915081906110b1565b634e487b7160e01b5f52604160045260245ffd5b6040516304cbf51b60e51b8152600490fd5b60249060405190638947da3560e01b82526004820152fd5b34610a2a576020366003190112610a2a576004355f52600260205260405f20805490600181015490600281015492600160a01b6001900360038301541691600481015460058201546006830154600784015491600885015493600986015495600a0161118590612041565b976040519a8b9a6101e0998c5260208c0152600160a01b60019003811660408c01528060a01c60ff166111b790611f3a565b60a01c60ff1660608b015260808a015260a089015260c0880152600160a01b60019003811660e08801528060a01c60ff16151561010088015260a81c60ff161515610120870152610140860152600160a01b60019003811661016086015260a01c60ff1615156101808501526101a0840152806101c0840152820161123b91611f44565b0390f35b34610a2a575f366003190112610a2a5760206040517f00000000000000000000000000000000000000000000000000000000000000008152f35b34610a2a576040366003190112610a2a57611292611ee8565b61129c3633612189565b6112a76004356122d2565b600980546001600160a01b0319166001600160a01b0392909216919091179055005b34610a2a576020366003190112610a2a576112e2611ed2565b600154906001600160a01b0390818316330361135a57803b1561134157916020917f2f658b440c35314f52658ea8a740e05b284cdc84dc9ae01e891f21b8933e7cad931680916001600160601b0360a01b1617600155604051908152a1005b6040516361798f2f60e11b815291166004820152602490fd5b60405162d1953b60e31b8152336004820152602490fd5b34610a2a576040366003190112610a2a5760246004356001600160401b038235818111610a2a576113a6903690600401611f0d565b916113af612335565b835f526020926004845260405f2054156115c457845f526004845260405f209560018701545f526002855260405f209060018060a01b03948560028a015416938433036115b25760058a0195865460ff8116600781101561159f576002810361157e575060481c166203f480810180911161156b5742116115595760078a0196875461151b579261148e8a935f9360048760028e9b9a9960075416990154169e01546040519e8f998a988997632f847c6b60e21b89528960048a015288015260448701526064860152608485015260c060a485015260c48401916120f0565b03925af1948515610a1f575f956114e7575b50600692918591600360ff1982541617905555835f52528060405f20557feaaac4730c027d75122b2fed3aaeccdd96ae7c1d515e12392379bf648c88bceb5f80a360015f55005b928092955083813d8311611514575b6115008183612020565b81010312610a2a57600692519491926114a0565b503d6114f6565b60405163d647364f60e01b8152600481018a9052601681860152754469737075746520616c72656164792065786973747360501b6044820152606490fd5b6040516321ad1e7f60e11b8152600490fd5b83634e487b7160e01b5f5260116004525ffd5b604490600287610aef6040519363f924664d60e01b855260048501906120e3565b85634e487b7160e01b5f5260216004525ffd5b6040516386efbb5560e01b8152600490fd5b6040516313a42eb760e21b8152600481018690528690fd5b34610a2a576060366003190112610a2a576004356115f8611efe565b60443590825f52600260205260405f20541561169357825f52600260205260405f209060018060a01b0360028301541633036106c85760088201805460ff60a01b191682151560a01b60ff60a01b161790557fe39eaecce2d1ddf3a18cc260e6c343b85cb5319d7a62273263c4ec5759192bca92604092819081611688575b5050825191151582526020820152a2005b600501558086611677565b6040516307cddb9360e21b815260048101849052602490fd5b34610a2a575f366003190112610a2a576020600354604051908152f35b34610a2a575f366003190112610a2a576007546040516001600160a01b039091168152602090f35b34610a2a576020366003190112610a2a5760606101c060405161171381611fd6565b5f81525f60208201525f60408201525f838201525f60808201525f60a08201525f60c08201525f60e08201525f6101008201525f6101208201525f6101408201525f6101608201525f6101808201525f6101a082015201526004355f5260026020526101c060405f20611853600a6040519261178e84611fd6565b805484526001810154602085015260028101546001600160a01b038116604086015260a01c60ff166117bf81611f3a565b606085015260038101546001600160a01b039081166080860152600482015460a080870191909152600583015460c0870152600683015480831660e088015260ff81831c8116151561010089015260a89190911c811615156101208801526007840154610140880152600884015492831661016088015291901c16151561018085015260098101546101a085015201612041565b8282015261123b60405192839260208452805160208501526020810151604085015260018060a01b036040820151166060850152606081015161189581611f3a565b608085015260018060a01b0360808201511660a085015260a081015160c085015260c081015160e085015260018060a01b0360e0820151166101008501526101008101511515610120850152610120810151151561014085015261014081015161016085015260018060a01b036101608201511661018085015261018081015115156101a08501526101a08101518285015201516101e080840152610200830190611f44565b34610a2a576020366003190112610a2a576004355f526006602052602060405f2054604051908152f35b34610a2a576060366003190112610a2a57600435611981611ee8565b6001600160401b039190604435838111610a2a576119a3903690600401611f0d565b6119ae939193612335565b815f526020946002865260405f20541561169357825f526002865260405f2060088101549260ff8460a01c1615611def576009546001600160a01b03878116989095918616891491861689148280611ddd575b611db2578080611dcb575b611db25782159081611da9575b50611d90576005840154938a60038201938885541680611d0a575b5080611cfd575b15611cf65750600781015461271090810395818711611ce257868102968188041490151715611ce2578b9504935b611aa06040516323b872dd60e01b8882015233602482015230604482015286606482015260648152611a9a81612005565b8c61265a565b875f9460ff600285015460a01c16611ab781611f3a565b151580611cd6575b611c43575b505050505060055497611ad689612110565b6005558860405192611ae784611fba565b81845285840192898452604085019033825260608601908152608086019187835260a087019a60018c5260c08801968b42168852600460e08a019b5f8d526101008b019788526101208b01985f8a525f525260405f20985189555160018901558060028901925116916001600160601b0360a01b9283825416179055600388019251169082541617905551600485015560058401975192600784101561047557887f49e931e521b3ceb66193af0aefdeddff97d898c2d6b6ba416482c630bcc2f57898611c34986007968f9c9460ff68ffffffffffffffff00611c079754925160081b1692169068ffffffffffffffffff191617178355511667ffffffffffffffff60481b82549160481b169067ffffffffffffffff60481b1916179055565b51600684015551910155604080516001600160a01b03909716875260208701919091523395918291820190565b0390a460015f55604051908152f35b611c839795505f916004915416930154604051978895869485936324f0e46960e01b855260048501523360248501526080604485015260848401916120f0565b87606483015203925af18015610a1f5788925f91611ca7575b508980808781611ac4565b83819492503d8311611ccf575b611cbe8183612020565b81010312610a2a5787915189611c9c565b503d611cb4565b50818154161515611abf565b634e487b7160e01b5f52601160045260245ffd5b9493611a69565b5060078201541515611a3b565b60048498939298015490604051808095819463d9f50a6960e01b8352600483015260606024830152611d40606483018c8b6120f0565b90604483015203915afa8015610a1f578c915f91611d61575b50958d611a34565b82819392503d8311611d89575b611d788183612020565b81010312610a2a578b90518d611d59565b503d611d6e565b604051638762da1760e01b8152600481018a9052602490fd5b9050158b611a19565b604051638762da1760e01b8152600481018b9052602490fd5b5060ff600686015460a81c1615611a0c565b5060ff600686015460a01c1615611a01565b604051630e3dde1b60e11b815260048101869052602490fd5b34610a2a575f366003190112610a2a57602060405160028152f35b34610a2a575f366003190112610a2a576020600554604051908152f35b34610a2a576040366003190112610a2a57611e59611efe565b611e633633612189565b611e6e6004356122d2565b6009805460ff60a01b191691151560a01b60ff60a01b16919091179055005b34610a2a576020366003190112610a2a57611ea6611ed2565b611eb03633612189565b600780546001600160a01b0319166001600160a01b0392909216919091179055005b600435906001600160a01b0382168203610a2a57565b602435906001600160a01b0382168203610a2a57565b602435908115158203610a2a57565b9181601f84011215610a2a578235916001600160401b038311610a2a5760208381860195010111610a2a57565b6002111561047557565b91908251928382525f5b848110611f6e575050825f602080949584010152601f8019910116010190565b602081830181015184830182015201611f4e565b90600182811c92168015611fb0575b6020831014611f9c57565b634e487b7160e01b5f52602260045260245ffd5b91607f1691611f91565b61014081019081106001600160401b038211176110dc57604052565b6101e081019081106001600160401b038211176110dc57604052565b6001600160401b0381116110dc57604052565b60a081019081106001600160401b038211176110dc57604052565b90601f801991011681019081106001600160401b038211176110dc57604052565b9060405191825f825461205381611f82565b908184526020946001916001811690815f146120c15750600114612083575b50505061208192500383612020565b565b5f90815285812095935091905b8183106120a957505061208193508201015f8080612072565b85548884018501529485019487945091830191612090565b9250505061208194925060ff191682840152151560051b8201015f8080612072565b9060078210156104755752565b908060209392818452848401375f828201840152601f01601f1916010190565b5f198114611ce25760010190565b7f000000000000000000000000000000000000000000000000000000000000000003612153576009546001600160a01b031690565b5f90565b7f0000000000000000000000000000000000000000000000000000000000000000036121535760ff60095460a01c1690565b600154916001600160a01b03808416929160048110610a2a575f928384916040958691825196602088019163b700961360e01b8352169687602482015230604482015263ffffffff60e01b8335166064820152606481526121e981612005565b828052826020525190895afa6122bf575b15612208575b505050505050565b63ffffffff16156122a95760ff60a01b19948516600160a01b17600155833b15610a2a576064935f92838551968780958194634a63ebf760e11b835260048301528860248301528060448301528084848401378181018301849052601f01601f191681010301925af19081156122a05750612291575b50600154166001555f8080808080612200565b61229a90611ff2565b5f61227e565b513d5f823e3d90fd5b50602491519062d1953b60e31b82526004820152fd5b50505f516020518060201c1502906121fa565b7f0000000000000000000000000000000000000000000000000000000000000000036122fa57565b60405163d647364f60e01b8152602060048201526012602482015271086dedadaeadcd2e8f240dad2e6dac2e8c6d60731b6044820152606490fd5b60025f54146123445760025f55565b604051633ee5aeb560e01b8152600490fd5b6008545f9291906001600160a01b03908490821680612574575b50156125535760038201805460085460048501805460405163095ea7b360e01b60208083018281529589166001600160a01b038116602485015260448085019590955293835293959094919390881692915f906123ce606487612020565b85519082865af15f513d82612537575b5050156124ea575b505050508280600854169254169054823b15610a2a5760645f92836040519586948593638d72d05760e01b85527f00000000000000000000000000000000000000000000000000000000000000006004860152602485015260448401525af18015610a1f576124d7575b505b6003830154169182612465575b50505050565b6004600691015491015490823b156124d35790606484928360405195869485936360e2b09d60e11b855260048501526024840152600160448401525af180156124c8576124b4575b808061245f565b6124be8291611ff2565b61019757806124ad565b6040513d84823e3d90fd5b8380fd5b6124e2919450611ff2565b5f925f612450565b60405193602085015260248401525f604484015260448352608083018381106001600160401b038211176110dc5761252e93612529916040528261265a565b61265a565b5f8080806123e6565b90915061254b5750813b15155b5f806123de565b600114612544565b61256f816003840154168260028601541660048501549161261e565b612452565b60038401546040516302a8638960e31b81527f000000000000000000000000000000000000000000000000000000000000000060048201529084166001600160a01b031660248201529150602090829081806044810103915afa908115610a1f575f916125e3575b505f612370565b90506020813d602011612616575b816125fe60209383612020565b81010312610a2a57518015158103610a2a575f6125dc565b3d91506125f1565b60405163a9059cbb60e01b60208201526001600160a01b0392909216602483015260448083019390935291815261208191612529606483612020565b905f602091828151910182855af115610a1f575f513d6126ab57506001600160a01b0381163b155b6126895750565b604051635274afe760e01b81526001600160a01b039091166004820152602490fd5b6001141561268256fea26469706673582212207ae2827d5d0c7ae544a56bdf68172b95509683ab3d5fda05459df9d2f03464dd64736f6c63430008180033",
  "linkReferences": {},
  "deployedLinkReferences": {}
}