{"abi":[{"type":"constructor","inputs":[{"name":"_systemAdmin","type":"address","internalType":"address"}],"stateMutability":"nonpayable"},{"type":"function","name":"BACKING_ASSETS","inputs":[],"outputs":[{"name":"","type":"bytes32","internalType":"bytes32"}],"stateMutability":"view"},{"type":"function","name":"COHORT_PRIORITY_SCHEME","inputs":[],"outputs":[{"name":"","type":"bytes32","internalType":"bytes32"}],"stateMutability":"view"},{"type":"function","name":"COOLDOWN_AFTER_FRAUD","inputs":[],"outputs":[{"name":"","type":"bytes32","internalType":"bytes32"}],"stateMutability":"view"},{"type":"function","name":"DEBATE_WINDOW","inputs":[],"outputs":[{"name":"","type":"bytes32","internalType":"bytes32"}],"stateMutability":"view"},{"type":"function","name":"EXECUTION_DELAY","inputs":[],"outputs":[{"name":"","type":"bytes32","internalType":"bytes32"}],"stateMutability":"view"},{"type":"function","name":"FEE_ON_WITHDRAW","inputs":[],"outputs":[{"name":"","type":"bytes32","internalType":"bytes32"}],"stateMutability":"view"},{"type":"function","name":"MAX_INVESTOR_COHORTS_ACTIVE","inputs":[],"outputs":[{"name":"","type":"bytes32","internalType":"bytes32"}],"stateMutability":"view"},{"type":"function","name":"MAX_PANELS_PER_EPOCH","inputs":[],"outputs":[{"name":"","type":"bytes32","internalType":"bytes32"}],"stateMutability":"view"},{"type":"function","name":"MAX_WEIGHT_PER_VERIFIER","inputs":[],"outputs":[{"name":"","type":"bytes32","internalType":"bytes32"}],"stateMutability":"view"},{"type":"function","name":"MIN_POSITIONS_BPS","inputs":[],"outputs":[{"name":"","type":"bytes32","internalType":"bytes32"}],"stateMutability":"view"},{"type":"function","name":"MIN_SBTS","inputs":[],"outputs":[{"name":"","type":"bytes32","internalType":"bytes32"}],"stateMutability":"view"},{"type":"function","name":"MIN_SENIORITY","inputs":[],"outputs":[{"name":"","type":"bytes32","internalType":"bytes32"}],"stateMutability":"view"},{"type":"function","name":"MIN_TREASURY_BPS","inputs":[],"outputs":[{"name":"","type":"bytes32","internalType":"bytes32"}],"stateMutability":"view"},{"type":"function","name":"PROPOSAL_THRESHOLD","inputs":[],"outputs":[{"name":"","type":"bytes32","internalType":"bytes32"}],"stateMutability":"view"},{"type":"function","name":"SPILLOVER_SPLIT_BPS_TREASURY","inputs":[],"outputs":[{"name":"","type":"bytes32","internalType":"bytes32"}],"stateMutability":"view"},{"type":"function","name":"SPILLOVER_TARGET","inputs":[],"outputs":[{"name":"","type":"bytes32","internalType":"bytes32"}],"stateMutability":"view"},{"type":"function","name":"USE_VPT_WEIGHTING","inputs":[],"outputs":[{"name":"","type":"bytes32","internalType":"bytes32"}],"stateMutability":"view"},{"type":"function","name":"VERIFIER_MIN","inputs":[],"outputs":[{"name":"","type":"bytes32","internalType":"bytes32"}],"stateMutability":"view"},{"type":"function","name":"VERIFIER_PANEL_SIZE","inputs":[],"outputs":[{"name":"","type":"bytes32","internalType":"bytes32"}],"stateMutability":"view"},{"type":"function","name":"VOTE_WINDOW","inputs":[],"outputs":[{"name":"","type":"bytes32","internalType":"bytes32"}],"stateMutability":"view"},{"type":"function","name":"addressArrayParams","inputs":[{"name":"","type":"uint256","internalType":"uint256"},{"name":"","type":"bytes32","internalType":"bytes32"},{"name":"","type":"uint256","internalType":"uint256"}],"outputs":[{"name":"","type":"address","internalType":"address"}],"stateMutability":"view"},{"type":"function","name":"boolParams","inputs":[{"name":"","type":"uint256","internalType":"uint256"},{"name":"","type":"bytes32","internalType":"bytes32"}],"outputs":[{"name":"","type":"bool","internalType":"bool"}],"stateMutability":"view"},{"type":"function","name":"bootstrapConfigureFromRegistry","inputs":[{"name":"communityId","type":"uint256","internalType":"uint256"},{"name":"deployerAdmin","type":"address","internalType":"address"},{"name":"config","type":"tuple","internalType":"struct ParamController.BootstrapConfig","components":[{"name":"verifierPanelSize","type":"uint256","internalType":"uint256"},{"name":"verifierMin","type":"uint256","internalType":"uint256"},{"name":"maxPanelsPerEpoch","type":"uint256","internalType":"uint256"},{"name":"useVPTWeighting","type":"bool","internalType":"bool"},{"name":"maxWeightPerVerifier","type":"uint256","internalType":"uint256"},{"name":"cooldownAfterFraud","type":"uint256","internalType":"uint256"},{"name":"debateWindow","type":"uint256","internalType":"uint256"},{"name":"voteWindow","type":"uint256","internalType":"uint256"},{"name":"executionDelay","type":"uint256","internalType":"uint256"},{"name":"minSeniority","type":"uint256","internalType":"uint256"},{"name":"minSBTs","type":"uint256","internalType":"uint256"},{"name":"proposalThreshold","type":"uint256","internalType":"uint256"},{"name":"minTreasuryBps","type":"uint16","internalType":"uint16"},{"name":"minPositionsBps","type":"uint16","internalType":"uint16"},{"name":"spilloverTarget","type":"uint8","internalType":"uint8"},{"name":"spilloverSplitBpsToTreasury","type":"uint16","internalType":"uint16"}]}],"outputs":[],"stateMutability":"nonpayable"},{"type":"function","name":"communityRegistry","inputs":[],"outputs":[{"name":"","type":"address","internalType":"contract ICommunityRegistry"}],"stateMutability":"view"},{"type":"function","name":"currentFeeBps","inputs":[{"name":"communityId","type":"uint256","internalType":"uint256"}],"outputs":[{"name":"","type":"uint32","internalType":"uint32"}],"stateMutability":"view"},{"type":"function","name":"getAddressArray","inputs":[{"name":"communityId","type":"uint256","internalType":"uint256"},{"name":"key","type":"bytes32","internalType":"bytes32"}],"outputs":[{"name":"","type":"address[]","internalType":"address[]"}],"stateMutability":"view"},{"type":"function","name":"getBool","inputs":[{"name":"communityId","type":"uint256","internalType":"uint256"},{"name":"key","type":"bytes32","internalType":"bytes32"}],"outputs":[{"name":"","type":"bool","internalType":"bool"}],"stateMutability":"view"},{"type":"function","name":"getCohortParams","inputs":[{"name":"communityId","type":"uint256","internalType":"uint256"}],"outputs":[{"name":"maxActiveCohorts","type":"uint256","internalType":"uint256"},{"name":"priorityScheme","type":"uint8","internalType":"uint8"}],"stateMutability":"view"},{"type":"function","name":"getEligibilityParams","inputs":[{"name":"communityId","type":"uint256","internalType":"uint256"}],"outputs":[{"name":"minSeniority","type":"uint256","internalType":"uint256"},{"name":"minSBTs","type":"uint256","internalType":"uint256"},{"name":"proposalThreshold","type":"uint256","internalType":"uint256"}],"stateMutability":"view"},{"type":"function","name":"getGovernanceParams","inputs":[{"name":"communityId","type":"uint256","internalType":"uint256"}],"outputs":[{"name":"debateWindow","type":"uint256","internalType":"uint256"},{"name":"voteWindow","type":"uint256","internalType":"uint256"},{"name":"executionDelay","type":"uint256","internalType":"uint256"}],"stateMutability":"view"},{"type":"function","name":"getRevenuePolicy","inputs":[{"name":"communityId","type":"uint256","internalType":"uint256"}],"outputs":[{"name":"minTreasuryBps","type":"uint16","internalType":"uint16"},{"name":"minPositionsBps","type":"uint16","internalType":"uint16"},{"name":"spilloverTarget","type":"uint8","internalType":"uint8"},{"name":"spilloverSplitBpsToTreasury","type":"uint16","internalType":"uint16"}],"stateMutability":"view"},{"type":"function","name":"getUint256","inputs":[{"name":"communityId","type":"uint256","internalType":"uint256"},{"name":"key","type":"bytes32","internalType":"bytes32"}],"outputs":[{"name":"","type":"uint256","internalType":"uint256"}],"stateMutability":"view"},{"type":"function","name":"getVerifierParams","inputs":[{"name":"communityId","type":"uint256","internalType":"uint256"}],"outputs":[{"name":"verifierPanelSize","type":"uint256","internalType":"uint256"},{"name":"verifierMin","type":"uint256","internalType":"uint256"},{"name":"maxPanelsPerEpoch","type":"uint256","internalType":"uint256"},{"name":"useVPTWeighting","type":"bool","internalType":"bool"},{"name":"maxWeightPerVerifier","type":"uint256","internalType":"uint256"},{"name":"cooldownAfterFraud","type":"uint256","internalType":"uint256"}],"stateMutability":"view"},{"type":"function","name":"initializeDefaultParameters","inputs":[{"name":"communityId","type":"uint256","internalType":"uint256"},{"name":"deployerAdmin","type":"address","internalType":"address"}],"outputs":[],"stateMutability":"nonpayable"},{"type":"function","name":"registrySet","inputs":[],"outputs":[{"name":"","type":"bool","internalType":"bool"}],"stateMutability":"view"},{"type":"function","name":"scheduleFeeChange","inputs":[{"name":"communityId","type":"uint256","internalType":"uint256"},{"name":"p","type":"tuple","internalType":"struct ParamController.FeePeriod","components":[{"name":"start","type":"uint64","internalType":"uint64"},{"name":"end","type":"uint64","internalType":"uint64"},{"name":"bps","type":"uint32","internalType":"uint32"}]}],"outputs":[],"stateMutability":"nonpayable"},{"type":"function","name":"setAddressArray","inputs":[{"name":"communityId","type":"uint256","internalType":"uint256"},{"name":"key","type":"bytes32","internalType":"bytes32"},{"name":"value","type":"address[]","internalType":"address[]"}],"outputs":[],"stateMutability":"nonpayable"},{"type":"function","name":"setBool","inputs":[{"name":"communityId","type":"uint256","internalType":"uint256"},{"name":"key","type":"bytes32","internalType":"bytes32"},{"name":"value","type":"bool","internalType":"bool"}],"outputs":[],"stateMutability":"nonpayable"},{"type":"function","name":"setCohortParams","inputs":[{"name":"communityId","type":"uint256","internalType":"uint256"},{"name":"maxActiveCohortsLimit","type":"uint256","internalType":"uint256"},{"name":"priorityScheme","type":"uint8","internalType":"uint8"}],"outputs":[],"stateMutability":"nonpayable"},{"type":"function","name":"setCommunityRegistry","inputs":[{"name":"registry","type":"address","internalType":"address"}],"outputs":[],"stateMutability":"nonpayable"},{"type":"function","name":"setEligibilityParams","inputs":[{"name":"communityId","type":"uint256","internalType":"uint256"},{"name":"minSeniority","type":"uint256","internalType":"uint256"},{"name":"minSBTs","type":"uint256","internalType":"uint256"},{"name":"proposalThreshold","type":"uint256","internalType":"uint256"}],"outputs":[],"stateMutability":"nonpayable"},{"type":"function","name":"setGovernanceParams","inputs":[{"name":"communityId","type":"uint256","internalType":"uint256"},{"name":"debateWindow","type":"uint256","internalType":"uint256"},{"name":"voteWindow","type":"uint256","internalType":"uint256"},{"name":"executionDelay","type":"uint256","internalType":"uint256"}],"outputs":[],"stateMutability":"nonpayable"},{"type":"function","name":"setRevenuePolicy","inputs":[{"name":"communityId","type":"uint256","internalType":"uint256"},{"name":"minTreasuryBps","type":"uint16","internalType":"uint16"},{"name":"minPositionsBps","type":"uint16","internalType":"uint16"},{"name":"spilloverTarget","type":"uint8","internalType":"uint8"},{"name":"spilloverSplitBpsToTreasury","type":"uint16","internalType":"uint16"}],"outputs":[],"stateMutability":"nonpayable"},{"type":"function","name":"setUint256","inputs":[{"name":"communityId","type":"uint256","internalType":"uint256"},{"name":"key","type":"bytes32","internalType":"bytes32"},{"name":"value","type":"uint256","internalType":"uint256"}],"outputs":[],"stateMutability":"nonpayable"},{"type":"function","name":"setVerifierParams","inputs":[{"name":"communityId","type":"uint256","internalType":"uint256"},{"name":"verifierPanelSize","type":"uint256","internalType":"uint256"},{"name":"verifierMin","type":"uint256","internalType":"uint256"},{"name":"maxPanelsPerEpoch","type":"uint256","internalType":"uint256"},{"name":"useVPTWeighting","type":"bool","internalType":"bool"},{"name":"maxWeightPerVerifier","type":"uint256","internalType":"uint256"},{"name":"cooldownAfterFraud","type":"uint256","internalType":"uint256"}],"outputs":[],"stateMutability":"nonpayable"},{"type":"function","name":"systemAdmin","inputs":[],"outputs":[{"name":"","type":"address","internalType":"address"}],"stateMutability":"view"},{"type":"function","name":"uintParams","inputs":[{"name":"","type":"uint256","internalType":"uint256"},{"name":"","type":"bytes32","internalType":"bytes32"}],"outputs":[{"name":"","type":"uint256","internalType":"uint256"}],"stateMutability":"view"},{"type":"event","name":"AddressArrayParamSet","inputs":[{"name":"communityId","type":"uint256","indexed":true,"internalType":"uint256"},{"name":"key","type":"bytes32","indexed":true,"internalType":"bytes32"},{"name":"value","type":"address[]","indexed":false,"internalType":"address[]"}],"anonymous":false},{"type":"event","name":"BoolParamSet","inputs":[{"name":"communityId","type":"uint256","indexed":true,"internalType":"uint256"},{"name":"key","type":"bytes32","indexed":true,"internalType":"bytes32"},{"name":"value","type":"bool","indexed":false,"internalType":"bool"}],"anonymous":false},{"type":"event","name":"CommunityRegistrySet","inputs":[{"name":"registry","type":"address","indexed":false,"internalType":"address"}],"anonymous":false},{"type":"event","name":"FeeScheduled","inputs":[{"name":"communityId","type":"uint256","indexed":true,"internalType":"uint256"},{"name":"p","type":"tuple","indexed":false,"internalType":"struct ParamController.FeePeriod","components":[{"name":"start","type":"uint64","internalType":"uint64"},{"name":"end","type":"uint64","internalType":"uint64"},{"name":"bps","type":"uint32","internalType":"uint32"}]}],"anonymous":false},{"type":"event","name":"UintParamSet","inputs":[{"name":"communityId","type":"uint256","indexed":true,"internalType":"uint256"},{"name":"key","type":"bytes32","indexed":true,"internalType":"bytes32"},{"name":"value","type":"uint256","indexed":false,"internalType":"uint256"}],"anonymous":false},{"type":"error","name":"InvalidInput","inputs":[{"name":"reason","type":"string","internalType":"string"}]},{"type":"error","name":"NotAuthorized","inputs":[{"name":"caller","type":"address","internalType":"address"}]},{"type":"error","name":"ZeroAddress","inputs":[]}],"bytecode":{"object":"0x60a034620000cf57601f62003a0138819003918201601f19168301916001600160401b03831184841017620000d357808492602094604052833981010312620000cf57516001600160a01b038116808203620000cf5715620000bd576080526040516139199081620000e8823960805181818161024b01528181610f4f015281816112b0015281816116c9015281816119bb01528181611e6a0152818161273401528181612b4701528181612e0801528181612fa201526131aa0152f35b60405163d92e233d60e01b8152600490fd5b5f80fd5b634e487b7160e01b5f52604160045260245ffdfe60808060405260049081361015610014575f80fd5b5f3560e01c9081630b9020bb146135b8575080630bcb2f9314613535578063185974fd1461313c5780631baffc8514612f3e5780631caf5c8314612f045780631d5a875914612da6578063223564ac146115f2578063316c3fcb146121645780633795e7b214612acf57806337f135d714612a955780633b873f1314612a5b57806340328eef146129cf578063450b198a1461297c578063469a78d2146129425780634a86327b146129085780634f72d5fd146128ce5780635da23e7f146126d0578063611eb6ac146126965780636128bc091461265c578063612dca98146121935780636a0629541461216457806371e184fd1461212a578063768554ef1461210657806388a856b514611f89578063a1debd1314611eb3578063a200ac8614611e8e578063a239e33d14611e4b578063a3a2479214611d71578063a5afc4c614611d37578063a5d3e81214611924578063a6c26603146118ea578063a93ed1ba146118b0578063ad4c059114611876578063ae3640711461183c578063b043cd5f14611802578063bf6f442b14611652578063cc2e775a14611626578063cc30e90f146115f2578063cc9a1612146115b8578063d110f9061461123b578063d32d0ade1461112b578063d785648914610ea6578063de4feae614610427578063e79f923c146103ed578063e8732e57146103b3578063ebe093fd146103795763f3ed333214610223575f80fd5b34610375576020366003190112610375578035906001600160a01b03808316809303610375577f000000000000000000000000000000000000000000000000000000000000000016330361035d578115610335575f549060ff8260a01c166102f0577f3f9ba1ccac4f9108cbe01337fca9145892df0c4c5657d454325f44ad27115f3860208474010000000000000000000000000000000000000000817fffffffffffffffffffffff000000000000000000000000000000000000000000871617175f55604051908152a1005b60649060206040519163d647364f60e01b8352820152601460248201527f526567697374727920616c7265616479207365740000000000000000000000006044820152fd5b6040517fd92e233d000000000000000000000000000000000000000000000000000000008152fd5b60249060405190634a0bfec160e01b82523390820152fd5b5f80fd5b34610375575f3660031901126103755760206040517f19e09d40c8af1ff58f24a4102d80e62651145fbb6e4df3533b7667c9376515648152f35b34610375575f3660031901126103755760206040517f573243d7ea8f9f273e2bfef517366429acf64a49eab8904d3be1983503a5a51f8152f35b34610375575f3660031901126103755760206040517fe5531c8ad39fc55e35fc114f9d52e71a35b94188eb694a232ae515b034e4fca68152f35b503461037557610240366003190112610375576104426136ab565b610200366043190112610375576001600160a01b03805f5416803303610e8f57604051630216308760e31b8152843585820152602081602481855afa8015610e075783915f91610e60575b5016610e125760206040518092633688da7960e01b825281806104ca888a358b84019092916001600160a01b036020916040840195845216910152565b03915afa908115610e07575f91610dd8575b5015610dbf578260443560643511610d715760443515610d23576105199061050261386d565b61ffff61271093849261051361387f565b90613773565b1611610cd5576002918260ff61052d6138a3565b1611610c87578260ff61053e6138a3565b16149081610c72575b50610c205780355f908152602083815260408083207fe5531c8ad39fc55e35fc114f9d52e71a35b94188eb694a232ae515b034e4fca6845290915280822060443590557f573243d7ea8f9f273e2bfef517366429acf64a49eab8904d3be1983503a5a51f825280822060643590557fec1f72bd3eb35c39de1d179a7ef3289a58efd94d33eb0e057409d13887e815cc825280822060843590557f4603c93892940d6a21d52bcd45d10362f0a941707bd9ea851a75a452142e5751825280822060c43590557fe9a36c32bd211264c9d1cb3540bff65b22c53f2f1a382784a040e6bd608439628252902060e43590556106886106406138b4565b82355f52600360205260405f207fc223fd96ca0738ce706226f502e5db69bfc1d1121c61f95f1dd3613ea8b964c15f5260205260405f209060ff801983541691151516179055565b7fe5531c8ad39fc55e35fc114f9d52e71a35b94188eb694a232ae515b034e4fca660405160443581525f805160206138c48339815191526020843592a37f573243d7ea8f9f273e2bfef517366429acf64a49eab8904d3be1983503a5a51f60405160643581525f805160206138c48339815191526020843592a37fec1f72bd3eb35c39de1d179a7ef3289a58efd94d33eb0e057409d13887e815cc60405160843581525f805160206138c48339815191526020843592a37f4603c93892940d6a21d52bcd45d10362f0a941707bd9ea851a75a452142e575160405160c43581525f805160206138c48339815191526020843592a37fe9a36c32bd211264c9d1cb3540bff65b22c53f2f1a382784a040e6bd6084396260405160e43581525f805160206138c48339815191526020843592a37fc223fd96ca0738ce706226f502e5db69bfc1d1121c61f95f1dd3613ea8b964c16107e26138b4565b60405190151581527f45b5b5bed5e87f2eeb359f84f9cf35336a6898226823a271ebe44f63f9de1a636020843592a380355f818152602084815260408083207f9554e486bd63d6fb626f0f984be796e1f1835c731c30c8a2762862b28f326d7f80855290835281842061010435908190557fffce6896f046cb01c9c06380682bb1dfd0aa60250caab13cbacf456e92e6f27d85528285206101243590557f4f933f023b010a4bd2bf5fd7afc910de59473949ec8ca73485b0525ffa4c12d4855293829020610144359055905192835292915f805160206138c48339815191529190a37fffce6896f046cb01c9c06380682bb1dfd0aa60250caab13cbacf456e92e6f27d6040516101243581525f805160206138c48339815191526020843592a37f4f933f023b010a4bd2bf5fd7afc910de59473949ec8ca73485b0525ffa4c12d46040516101443581525f805160206138c48339815191526020843592a380355f818152602084815260408083207fc41b1e13941431fe76e2a271adc249a67c0fdc6f426d89c2ca49ce056e96324780855290835281842061016435908190557f5d3a004b39453e97c02735c1e062e8976ec5e44b296fdd37e639ecc3711db0fa85528285206101843590557fadaeb7b480e4a96119a926cd6605280bb2be9e2d2321cb8fe402588771032e9b8552938290206101a4359055905192835292915f805160206138c48339815191529190a37f5d3a004b39453e97c02735c1e062e8976ec5e44b296fdd37e639ecc3711db0fa6040516101843581525f805160206138c48339815191526020843592a37fadaeb7b480e4a96119a926cd6605280bb2be9e2d2321cb8fe402588771032e9b6040516101a43581525f805160206138c48339815191526020843592a361ffff610a7a61386d565b1681355f528260205260405f20907f6474967592d926b5523999da0bf30e820313af3409958039270230c54fbf0fbb91825f5260205260405f205561ffff610ac061387f565b1682355f528360205260405f20907f661b13c67d81b01c330faf03c583ea0c3a3ffe71c97334849c0f8f64952086d591825f5260205260405f205560ff610b056138a3565b169183355f528460205260405f20927f883e9498641c0698de211288285b7969a8b76497cba0da44c5ed5f1d9cd3a52b93845f5260205260405f205561ffff610b4c613891565b169484355f5260205260405f20947f40c50951a8de7d0edf429f815a88e0b1125ff82c15242bfe586e4e03809f06c495865f5260205260405f2055610b8f61386d565b61ffff604051911681525f805160206138c48339815191526020863592a3610bb561387f565b61ffff604051911681525f805160206138c48339815191526020853592a3610bdb6138a3565b60ff604051911681525f805160206138c48339815191526020843592a35f805160206138c48339815191526020610c10613891565b9261ffff604051941684523592a3005b610c6e9060405191829163d647364f60e01b8352820160609060208152601060208201527f53706c697420627073203e20313030250000000000000000000000000000000060408201520190565b0390fd5b905061ffff610c7f613891565b161183610547565b610c6e8260405191829163d647364f60e01b8352820160609060208152601860208201527f496e76616c6964207370696c6c6f76657220746172676574000000000000000060408201520190565b610c6e9060405191829163d647364f60e01b8352820160609060208152601660208201527f47756172616e746565732065786365656420313030250000000000000000000060408201520190565b610c6e9060405191829163d647364f60e01b8352820160609060208152601960208201527f50616e656c2073697a652063616e6e6f74206265207a65726f0000000000000060408201520190565b610c6e9060405191829163d647364f60e01b8352820160609060208152601c60208201527f4d696e2063616e6e6f74206578636565642070616e656c2073697a650000000060408201520190565b9160249260405192634a0bfec160e01b84521690820152fd5b610dfa915060203d602011610e00575b610df281836136c1565b810190613716565b5f6104dc565b503d610de8565b6040513d5f823e3d90fd5b610c6e8460405191829163d647364f60e01b8352820160609060208152601460208201527f54696d656c6f636b20616c72656164792073657400000000000000000000000060408201520190565b610e82915060203d602011610e88575b610e7a81836136c1565b8101906136f7565b5f61048d565b503d610e70565b604051634a0bfec160e01b81523381860152602490fd5b50346103755760603660031901126103755780356024918235926044359067ffffffffffffffff908183116103755736602384011215610375578284013591821161037557808301928136918460051b010111610375575f549360ff8560a01c16156110ea576001600160a01b038095169160405192630216308760e31b8452878385015260209384818481855afa8015610e075788915f916110cd575b5016806110bb5750867f00000000000000000000000000000000000000000000000000000000000000001633149081159161105c575b506110465750939190935b855f52845260405f20865f52845260405f20610fa1828261372e565b5f90815284812090845b838210611021575050506040519381818601828752526040850193925f905b838210610ffb5788887f197a5ec42ea09b81bc0a4ef8002a104739b72c475b57c2c5ca044754741740a98989038aa3005b909192939485359082821680920361037557908152830194830193929160010190610fca565b8096939496359187831683036103755784600192019281850155019095939295610fab565b9060405190634a0bfec160e01b82523390820152fd5b60408051633688da7960e01b81528581018b8152336020820152909350869284929091839182910103915afa908115610e07575f9161109e575b50155f610f7a565b6110b59150843d8611610e0057610df281836136c1565b5f611096565b90503303611046575093919093610f85565b6110e49150863d8811610e8857610e7a81836136c1565b5f610f44565b610c6e9060405191829163d647364f60e01b8352820160609060208152601060208201526f149959da5cdd1c9e481b9bdd081cd95d60821b60408201520190565b503461037557602080600319360112610375576080913590815f526002815260405f207f6474967592d926b5523999da0bf30e820313af3409958039270230c54fbf0fbb5f52815261ffff918260405f20541692815f526002835260405f207f661b13c67d81b01c330faf03c583ea0c3a3ffe71c97334849c0f8f64952086d55f5283528060405f20541690825f526002845260405f207f883e9498641c0698de211288285b7969a8b76497cba0da44c5ed5f1d9cd3a52b5f52845260ff60405f205416925f526002845260405f207f40c50951a8de7d0edf429f815a88e0b1125ff82c15242bfe586e4e03809f06c45f52845260405f2054169260405194855284015260408301526060820152f35b5034610375576080366003190112610375578035906060366023190112610375575f549060ff8260a01c16156110ea576001600160a01b038092169160405192630216308760e31b8452848385015260209160249483818781865afa8015610e075782915f9161159b575b50168061157b57507f00000000000000000000000000000000000000000000000000000000000000001633149081159161151c575b50611506575b6112e961382c565b9067ffffffffffffffff9182806112fe613843565b16911610156114c35763ffffffff926127108461131961385a565b161161148157855f526001825260405f208054906801000000000000000082101561146f579061134e91600182018155613682565b91909161145e57508261135f61382c565b168154908067ffffffffffffffff1983161783556fffffffffffffffff000000000000000061138c613843565b60401b169081817fffffffffffffffffffffffffffffffff000000000000000000000000000000008516171784557fffffffffffffffffffffffff000000000000000000000000000000000000000073ffffffff000000000000000000000000000000006113f861385a565b60801b1693161717179055604051933582811680910361037557845260443591821680920361037557830152606435908116809103610375578160609160407f5a2f5440f55e2c07a23964b62717defc386d4f0998d12473611eba8003842c60940152a2005b5f8691634e487b7160e01b8252525ffd5b86604184634e487b7160e01b5f52525ffd5b600c856064936040519363d647364f60e01b85528401528201527f46656520746f6f206869676800000000000000000000000000000000000000006044820152fd5b826013856064936040519363d647364f60e01b85528401528201527f496e76616c69642074696d6520706572696f64000000000000000000000000006044820152fd5b5060405190634a0bfec160e01b82523390820152fd5b60408051633688da7960e01b8152858101888152336020820152909350849284929091839182910103915afa908115610e07575f9161155e575b50155f6112db565b6115759150823d8411610e0057610df281836136c1565b5f611556565b9150503303156112e1575060405190634a0bfec160e01b82523390820152fd5b6115b29150853d8711610e8857610e7a81836136c1565b5f6112a6565b34610375575f3660031901126103755760206040517f5d3a004b39453e97c02735c1e062e8976ec5e44b296fdd37e639ecc3711db0fa8152f35b3461037557611600366135f0565b905f52600360205260405f20905f52602052602060ff60405f2054166040519015158152f35b5034610375576020366003190112610375576116446020913561379d565b63ffffffff60405191168152f35b50346103755760603660031901126103755780356024359160443580151590818103610375575f549260ff8460a01c16156110ea576001600160a01b0380941660405194630216308760e31b865286838701526020958681602481865afa8015610e075782915f916117e5575b5016806117af57507f000000000000000000000000000000000000000000000000000000000000000016331490811591611750575b5061035d5750906117477f45b5b5bed5e87f2eeb359f84f9cf35336a6898226823a271ebe44f63f9de1a6393925b855f526003845260405f20875f52845260405f209060ff801983541691151516179055565b604051908152a3005b60408051633688da7960e01b8152848101898152336020820152909350879284929091839182910103915afa908115610e07575f91611792575b50155f6116f4565b6117a99150853d8711610e0057610df281836136c1565b5f61178a565b915050330361035d5750906117477f45b5b5bed5e87f2eeb359f84f9cf35336a6898226823a271ebe44f63f9de1a639392611722565b6117fc9150883d8a11610e8857610e7a81836136c1565b5f6116bf565b34610375575f3660031901126103755760206040517f6474967592d926b5523999da0bf30e820313af3409958039270230c54fbf0fbb8152f35b34610375575f3660031901126103755760206040517fec1f72bd3eb35c39de1d179a7ef3289a58efd94d33eb0e057409d13887e815cc8152f35b34610375575f3660031901126103755760206040517f4603c93892940d6a21d52bcd45d10362f0a941707bd9ea851a75a452142e57518152f35b34610375575f3660031901126103755760206040517f626930fd63cbdd31ba7266c8def829ada439499ecc5619e82549e07169101b868152f35b34610375575f3660031901126103755760206040517fadaeb7b480e4a96119a926cd6605280bb2be9e2d2321cb8fe402588771032e9b8152f35b50346103755760a03660031901126103755761ffff6024358181168103610375576044359180831683036103755760643560ff8116810361037557608435938285168503610375575f5460ff8160a01c1615611cf6576001600160a01b0380911690604051630216308760e31b8152883589820152602081602481865afa8015610e075782915f91611cd7575b501680611cb657507f000000000000000000000000000000000000000000000000000000000000000016331490811591611c43575b50611c2c575b61271080846119fb8488613773565b1611611bde576002908160ff851611611b90578160ff8516149081611b84575b50611b365786355f818152602092835260408082207f6474967592d926b5523999da0bf30e820313af3409958039270230c54fbf0fbb808452908552818320988816988990557f661b13c67d81b01c330faf03c583ea0c3a3ffe71c97334849c0f8f64952086d5808452828420878a1690557f883e9498641c0698de211288285b7969a8b76497cba0da44c5ed5f1d9cd3a52b80855283852060ff8a1690557f40c50951a8de7d0edf429f815a88e0b1125ff82c15242bfe586e4e03809f06c4808652948490208c8b1690559251998a52929a5f805160206138c48339815191529995989097909692959094908a908a90a384604051911681528787873592a360ff604051911681528585853592a3604051941684523592a3005b610c6e8760405191829163d647364f60e01b8352820160609060208152601060208201527f53706c697420627073203e20313030250000000000000000000000000000000060408201520190565b9050848716115f611a1b565b610c6e8860405191829163d647364f60e01b8352820160609060208152601860208201527f496e76616c6964207370696c6c6f76657220746172676574000000000000000060408201520190565b610c6e8760405191829163d647364f60e01b8352820160609060208152601660208201527f47756172616e746565732065786365656420313030250000000000000000000060408201520190565b604051634a0bfec160e01b81523381880152602490fd5b905060206040518092633688da7960e01b82528180611c7d338d80359084019092916001600160a01b036020916040840195845216910152565b03915afa908115610e07575f91611c97575b50155f6119e6565b611cb0915060203d602011610e0057610df281836136c1565b5f611c8f565b9150503303156119ec57604051634a0bfec160e01b81523381880152602490fd5b611cf0915060203d602011610e8857610e7a81836136c1565b5f6119b1565b610c6e8760405191829163d647364f60e01b8352820160609060208152601060208201526f149959da5cdd1c9e481b9bdd081cd95d60821b60408201520190565b34610375575f3660031901126103755760206040517f12b5c91437813c519d93f91cf20e25e6cd324914bb7390358d18da457dded5b68152f35b50346103755760209081600319360112610375573590815f526002815260405f207fc41b1e13941431fe76e2a271adc249a67c0fdc6f426d89c2ca49ce056e9632475f52815260405f205490825f526002815260405f207f5d3a004b39453e97c02735c1e062e8976ec5e44b296fdd37e639ecc3711db0fa5f52815260405f2054925f526002815260405f20907fadaeb7b480e4a96119a926cd6605280bb2be9e2d2321cb8fe402588771032e9b5f5252611e4760405f2054604051938493846040919493926060820195825260208201520152565b0390f35b34610375575f3660031901126103755760206040516001600160a01b037f0000000000000000000000000000000000000000000000000000000000000000168152f35b34610375575f3660031901126103755760206001600160a01b035f5416604051908152f35b50346103755760209081600319360112610375573590815f526002815260405f207f9554e486bd63d6fb626f0f984be796e1f1835c731c30c8a2762862b28f326d7f5f52815260405f205490825f526002815260405f207fffce6896f046cb01c9c06380682bb1dfd0aa60250caab13cbacf456e92e6f27d5f52815260405f2054925f526002815260405f20907f4f933f023b010a4bd2bf5fd7afc910de59473949ec8ca73485b0525ffa4c12d45f5252611e4760405f2054604051938493846040919493926060820195825260208201520152565b5034610375576020806003193601126103755760c0913590815f526002815260405f207fe5531c8ad39fc55e35fc114f9d52e71a35b94188eb694a232ae515b034e4fca65f52815260405f205491805f526002825260405f207f573243d7ea8f9f273e2bfef517366429acf64a49eab8904d3be1983503a5a51f5f52825260405f2054815f526002835260405f207fec1f72bd3eb35c39de1d179a7ef3289a58efd94d33eb0e057409d13887e815cc5f52835260405f2054825f526003845260405f207fc223fd96ca0738ce706226f502e5db69bfc1d1121c61f95f1dd3613ea8b964c15f52845260ff60405f20541691835f526002855260405f207f4603c93892940d6a21d52bcd45d10362f0a941707bd9ea851a75a452142e57515f52855260405f2054935f526002855260405f207fe9a36c32bd211264c9d1cb3540bff65b22c53f2f1a382784a040e6bd608439625f52855260405f205494604051968752860152604085015215156060840152608083015260a0820152f35b34610375575f36600319011261037557602060ff5f5460a01c166040519015158152f35b34610375575f3660031901126103755760206040517fc41b1e13941431fe76e2a271adc249a67c0fdc6f426d89c2ca49ce056e9632478152f35b3461037557612172366135f0565b905f52600260205260405f20905f52602052602060405f2054604051908152f35b50346103755760403660031901126103755780356121af6136ab565b916001600160a01b0392835f5416908133036126455760405191630216308760e31b835284848401526020928381602481855afa8015610e075787915f91612628575b5016610e125760408051633688da7960e01b81528581018781526001600160a01b0385166020820152909285928492839182910103915afa908115610e07575f9161260b575b50156125f25750825f526002908181528360405f207f9554e486bd63d6fb626f0f984be796e1f1835c731c30c8a2762862b28f326d7f90815f52835281838062093a80938460405f2055835f5287825260405f207fffce6896f046cb01c9c06380682bb1dfd0aa60250caab13cbacf456e92e6f27d90815f528352846203f480968760405f2055815f528a85528460405f20987f4f933f023b010a4bd2bf5fd7afc910de59473949ec8ca73485b0525ffa4c12d4998a5f5282526202a300958660405f20556040519384525f805160206138c48339815191529b8c809a8196a3604051908152a3604051908152a3845f5282825260405f207fc41b1e13941431fe76e2a271adc249a67c0fdc6f426d89c2ca49ce056e96324790815f5283525f6040812055855f5283835285828460405f20937f5d3a004b39453e97c02735c1e062e8976ec5e44b296fdd37e639ecc3711db0fa94855f5282525f6040812055835f5287825260405f20947fadaeb7b480e4a96119a926cd6605280bb2be9e2d2321cb8fe402588771032e9b95865f528352670de0b6b3a7640000918260405f20558585856040515f8152a38484846040515f8152a3604051908152a3845f528282528460405f20917f6474967592d926b5523999da0bf30e820313af3409958039270230c54fbf0fbb92835f5284526109c48060405f2055825f5285855260405f207f661b13c67d81b01c330faf03c583ea0c3a3ffe71c97334849c0f8f64952086d590815f5286528160405f2055835f5286865283838760405f20947f883e9498641c0698de211288285b7969a8b76497cba0da44c5ed5f1d9cd3a52b95865f52825260019a600160405f2055845f52825260405f20987f40c50951a8de7d0edf429f815a88e0b1125ff82c15242bfe586e4e03809f06c4998a5f5283525f6040812055848484604051858152a3604051908152a382828660405160018152a3836040515f8152a3604051928184019567ffffffffffffffff92858810848911176125df57876040525f8652865f5282815260405f20977f12b5c91437813c519d93f91cf20e25e6cd324914bb7390358d18da457dded5b698895f52825260405f209387519586116125cc5750612571858561372e565b925f52805f20915f5b8581106125b95789897f197a5ec42ea09b81bc0a4ef8002a104739b72c475b57c2c5ca044754741740a96125b48b60405191829182613606565b0390a3005b845182168482015593820193860161257a565b604190634e487b7160e01b5f525260245ffd5b604183634e487b7160e01b5f525260245ffd5b604051634a0bfec160e01b815290851681840152602490fd5b6126229150833d8511610e0057610df281836136c1565b5f612238565b61263f9150853d8711610e8857610e7a81836136c1565b5f6121f2565b604051634a0bfec160e01b81523381850152602490fd5b34610375575f3660031901126103755760206040517f06cc596de58fc8e94da210d10b0e7776dd84dbc7e3571513ac00c6f5c624cbe28152f35b34610375575f3660031901126103755760206040517fc223fd96ca0738ce706226f502e5db69bfc1d1121c61f95f1dd3613ea8b964c18152f35b5034610375576126df3661364a565b905f949294549260ff8460a01c16156110ea576001600160a01b0380941660405194630216308760e31b865286838701526020958681602481865afa8015610e075782915f916128b1575b50168061289f57507f000000000000000000000000000000000000000000000000000000000000000016331490811591612840575b5061035d57509082915b845f52600283528460405f20967f9554e486bd63d6fb626f0f984be796e1f1835c731c30c8a2762862b28f326d7f97885f5285528060405f2055815f52600285528460405f20937fffce6896f046cb01c9c06380682bb1dfd0aa60250caab13cbacf456e92e6f27d94855f5282528060405f2055835f526002825260405f20997f4f933f023b010a4bd2bf5fd7afc910de59473949ec8ca73485b0525ffa4c12d49a8b5f5283528660405f2055604051938452845f805160206138c4833981519152809a8196a3604051908152a3604051908152a3005b60408051633688da7960e01b8152848101898152336020820152909350879284929091839182910103915afa908115610e07575f91612882575b50155f61275f565b6128999150853d8711610e0057610df281836136c1565b5f61287a565b915050330361035d5750908291612769565b6128c89150883d8a11610e8857610e7a81836136c1565b5f61272a565b34610375575f3660031901126103755760206040517f9554e486bd63d6fb626f0f984be796e1f1835c731c30c8a2762862b28f326d7f8152f35b34610375575f3660031901126103755760206040517f661b13c67d81b01c330faf03c583ea0c3a3ffe71c97334849c0f8f64952086d58152f35b34610375575f3660031901126103755760206040517fffce6896f046cb01c9c06380682bb1dfd0aa60250caab13cbacf456e92e6f27d8152f35b50346103755761298b36613668565b9290915f5260205260405f20905f5260205260405f20908154811015610375576129bf6001600160a01b0391602093613682565b9190546040519260031b1c168152f35b503461037557602080600319360112610375576040913590815f5260028152825f207f19e09d40c8af1ff58f24a4102d80e62651145fbb6e4df3533b7667c9376515645f528152825f2054915f5260028152825f207f06cc596de58fc8e94da210d10b0e7776dd84dbc7e3571513ac00c6f5c624cbe25f52815260ff835f205416908351928352820152f35b34610375575f3660031901126103755760206040517fe9a36c32bd211264c9d1cb3540bff65b22c53f2f1a382784a040e6bd608439628152f35b34610375575f3660031901126103755760206040517f4f933f023b010a4bd2bf5fd7afc910de59473949ec8ca73485b0525ffa4c12d48152f35b503461037557606036600319011261037557803560248035926044359060ff8216809203610375575f549260ff8460a01c1615612d65576001600160a01b0380941660405194630216308760e31b8652868487015260209586818581865afa8015610e075782915f91612d48575b501680612d2857507f000000000000000000000000000000000000000000000000000000000000000016331490811591612cc9575b50611046575b8515612c605760018311612c1d5750508190835f526002825260405f207f19e09d40c8af1ff58f24a4102d80e62651145fbb6e4df3533b7667c93765156490815f5283528560405f2055845f52600283528460405f20967f06cc596de58fc8e94da210d10b0e7776dd84dbc7e3571513ac00c6f5c624cbe297885f5285528360405f20556040519081525f805160206138c4833981519152958691a3604051908152a3005b90601e606492856040519363d647364f60e01b85528401528201527f5072696f7269747920736368656d65206d7573742062652030206f72203100006044820152fd5b906022608492856040519363d647364f60e01b85528401528201527f4d617820636f686f727473206d7573742062652067726561746572207468616e60448201527f20300000000000000000000000000000000000000000000000000000000000006064820152fd5b60408051633688da7960e01b8152858101898152336020820152909350879284929091839182910103915afa908115610e07575f91612d0b575b50155f612b72565b612d229150853d8711610e0057610df281836136c1565b5f612d03565b915050330315612b78579060405190634a0bfec160e01b82523390820152fd5b612d5f9150883d8a11610e8857610e7a81836136c1565b5f612b3d565b610c6e8260405191829163d647364f60e01b8352820160609060208152601060208201526f149959da5cdd1c9e481b9bdd081cd95d60821b60408201520190565b503461037557612db536613668565b5f54919360a083901c60ff16156110ea576001600160a01b0380931660405193630216308760e31b855285838601526020948581602481865afa8015610e075782915f91612ee7575b501680612ec857507f000000000000000000000000000000000000000000000000000000000000000016331490811591612e69575b5061035d5750905f805160206138c4833981519152915b835f526002825260405f20855f5282528060405f2055604051908152a3005b60408051633688da7960e01b8152848101888152336020820152909350869284929091839182910103915afa908115610e07575f91612eab575b50155f612e33565b612ec29150843d8611610e0057610df281836136c1565b5f612ea3565b915050330361035d5750905f805160206138c483398151915291612e4a565b612efe9150873d8911610e8857610e7a81836136c1565b5f612dfe565b34610375575f3660031901126103755760206040517f883e9498641c0698de211288285b7969a8b76497cba0da44c5ed5f1d9cd3a52b8152f35b503461037557612f4d3661364a565b905f949294549260ff8460a01c16156110ea576001600160a01b0380941660405194630216308760e31b865286838701526020958681602481865afa8015610e075782915f9161311f575b50168061310d57507f0000000000000000000000000000000000000000000000000000000000000000163314908115916130ae575b5061035d57509082915b845f52600283528460405f20967fc41b1e13941431fe76e2a271adc249a67c0fdc6f426d89c2ca49ce056e96324797885f5285528060405f2055815f52600285528460405f20937f5d3a004b39453e97c02735c1e062e8976ec5e44b296fdd37e639ecc3711db0fa94855f5282528060405f2055835f526002825260405f20997fadaeb7b480e4a96119a926cd6605280bb2be9e2d2321cb8fe402588771032e9b9a8b5f5283528660405f2055604051938452845f805160206138c4833981519152809a8196a3604051908152a3604051908152a3005b60408051633688da7960e01b8152848101898152336020820152909350879284929091839182910103915afa908115610e07575f916130f0575b50155f612fcd565b6131079150853d8711610e0057610df281836136c1565b5f6130e8565b915050330361035d5750908291612fd7565b6131369150883d8a11610e8857610e7a81836136c1565b5f612f98565b50346103755760e036600319011261037557608435151560843503610375575f5460ff8160a01c1615612d65576001600160a01b0380911690604051630216308760e31b8152833584820152602081602481865afa8015610e075782915f91613516575b5016806134f457507f000000000000000000000000000000000000000000000000000000000000000016331490811591613482575b5061035d575b60243560443511610d715760243515610d235780355f8181526002602090815260408083207fe5531c8ad39fc55e35fc114f9d52e71a35b94188eb694a232ae515b034e4fca68452825280832060243590557f573243d7ea8f9f273e2bfef517366429acf64a49eab8904d3be1983503a5a51f835280832060443590557fec1f72bd3eb35c39de1d179a7ef3289a58efd94d33eb0e057409d13887e815cc835280832060643590557f4603c93892940d6a21d52bcd45d10362f0a941707bd9ea851a75a452142e5751835280832060a43590557fe9a36c32bd211264c9d1cb3540bff65b22c53f2f1a382784a040e6bd60843962835280832060c4359055928252600381528282207fc223fd96ca0738ce706226f502e5db69bfc1d1121c61f95f1dd3613ea8b964c18084529152919020805460ff191660ff608435151516179055907fe5531c8ad39fc55e35fc114f9d52e71a35b94188eb694a232ae515b034e4fca660405160243581525f805160206138c48339815191526020843592a37f573243d7ea8f9f273e2bfef517366429acf64a49eab8904d3be1983503a5a51f60405160443581525f805160206138c48339815191526020843592a37fec1f72bd3eb35c39de1d179a7ef3289a58efd94d33eb0e057409d13887e815cc60405160643581525f805160206138c48339815191526020843592a37f4603c93892940d6a21d52bcd45d10362f0a941707bd9ea851a75a452142e575160405160a43581525f805160206138c48339815191526020843592a37fe9a36c32bd211264c9d1cb3540bff65b22c53f2f1a382784a040e6bd6084396260405160c43581525f805160206138c48339815191526020843592a37f45b5b5bed5e87f2eeb359f84f9cf35336a6898226823a271ebe44f63f9de1a63602060405192608435151584523592a3005b905060206040518092633688da7960e01b825281806134bb3388358984019092916001600160a01b036020916040840195845216910152565b03915afa908115610e07575f916134d5575b50155f6131d5565b6134ee915060203d602011610e0057610df281836136c1565b5f6134cd565b9150503303156131db5760249060405190634a0bfec160e01b82523390820152fd5b61352f915060203d602011610e8857610e7a81836136c1565b5f6131a0565b503461037557613544366135f0565b905f5260209160205260405f20905f5260205260405f20906040519081602084549182815201935f5260205f20915f905b82821061359857611e478561358c818903826136c1565b60405191829182613606565b83546001600160a01b031686529485019460019384019390910190613575565b34610375575f36600319011261037557807f40c50951a8de7d0edf429f815a88e0b1125ff82c15242bfe586e4e03809f06c460209252f35b6040906003190112610375576004359060243590565b60209060206040818301928281528551809452019301915f5b82811061362d575050505090565b83516001600160a01b03168552938101939281019260010161361f565b60809060031901126103755760043590602435906044359060643590565b606090600319011261037557600435906024359060443590565b8054821015613697575f5260205f2001905f90565b634e487b7160e01b5f52603260045260245ffd5b602435906001600160a01b038216820361037557565b90601f8019910116810190811067ffffffffffffffff8211176136e357604052565b634e487b7160e01b5f52604160045260245ffd5b9081602091031261037557516001600160a01b03811681036103755790565b90816020910312610375575180151581036103755790565b906801000000000000000081116136e35781549181815582821061375157505050565b5f5260205f2091820191015b818110613768575050565b5f815560010161375d565b91909161ffff8080941691160191821161378957565b634e487b7160e01b5f52601160045260245ffd5b67ffffffffffffffff804216915f5260019160016020526040805f20915f938354945b8581106137d257505050505050505f90565b816137dd8287613682565b50541683101580613813575b6137f45786016137c0565b939250505063ffffffff935061380a9250613682565b505460801c1690565b508161381f8287613682565b5054851c168311156137e9565b60243567ffffffffffffffff811681036103755790565b60443567ffffffffffffffff811681036103755790565b60643563ffffffff811681036103755790565b6101c43561ffff811681036103755790565b6101e43561ffff811681036103755790565b6102243561ffff811681036103755790565b6102043560ff811681036103755790565b60a4358015158103610375579056fedb4fd3515d89f2079dd6417b84b3f74fd3ade20dae441a99c7b4631e34d24134a264697066735822122017053d98552a68ac63c8ba93b6604e7032fc9992b94e40d4dde5318840c9062364736f6c63430008180033","linkReferences":{}},"methodIdentifiers":{"BACKING_ASSETS()":"a5afc4c6","COHORT_PRIORITY_SCHEME()":"6128bc09","COOLDOWN_AFTER_FRAUD()":"3b873f13","DEBATE_WINDOW()":"4f72d5fd","EXECUTION_DELAY()":"37f135d7","FEE_ON_WITHDRAW()":"a93ed1ba","MAX_INVESTOR_COHORTS_ACTIVE()":"ebe093fd","MAX_PANELS_PER_EPOCH()":"ae364071","MAX_WEIGHT_PER_VERIFIER()":"ad4c0591","MIN_POSITIONS_BPS()":"4a86327b","MIN_SBTS()":"cc9a1612","MIN_SENIORITY()":"71e184fd","MIN_TREASURY_BPS()":"b043cd5f","PROPOSAL_THRESHOLD()":"a6c26603","SPILLOVER_SPLIT_BPS_TREASURY()":"0b9020bb","SPILLOVER_TARGET()":"1caf5c83","USE_VPT_WEIGHTING()":"611eb6ac","VERIFIER_MIN()":"e8732e57","VERIFIER_PANEL_SIZE()":"e79f923c","VOTE_WINDOW()":"469a78d2","addressArrayParams(uint256,bytes32,uint256)":"450b198a","boolParams(uint256,bytes32)":"223564ac","bootstrapConfigureFromRegistry(uint256,address,(uint256,uint256,uint256,bool,uint256,uint256,uint256,uint256,uint256,uint256,uint256,uint256,uint16,uint16,uint8,uint16))":"de4feae6","communityRegistry()":"a200ac86","currentFeeBps(uint256)":"cc2e775a","getAddressArray(uint256,bytes32)":"0bcb2f93","getBool(uint256,bytes32)":"cc30e90f","getCohortParams(uint256)":"40328eef","getEligibilityParams(uint256)":"a3a24792","getGovernanceParams(uint256)":"a1debd13","getRevenuePolicy(uint256)":"d32d0ade","getUint256(uint256,bytes32)":"6a062954","getVerifierParams(uint256)":"88a856b5","initializeDefaultParameters(uint256,address)":"612dca98","registrySet()":"768554ef","scheduleFeeChange(uint256,(uint64,uint64,uint32))":"d110f906","setAddressArray(uint256,bytes32,address[])":"d7856489","setBool(uint256,bytes32,bool)":"bf6f442b","setCohortParams(uint256,uint256,uint8)":"3795e7b2","setCommunityRegistry(address)":"f3ed3332","setEligibilityParams(uint256,uint256,uint256,uint256)":"1baffc85","setGovernanceParams(uint256,uint256,uint256,uint256)":"5da23e7f","setRevenuePolicy(uint256,uint16,uint16,uint8,uint16)":"a5d3e812","setUint256(uint256,bytes32,uint256)":"1d5a8759","setVerifierParams(uint256,uint256,uint256,uint256,bool,uint256,uint256)":"185974fd","systemAdmin()":"a239e33d","uintParams(uint256,bytes32)":"316c3fcb"},"id":21}