{"abi":[{"type":"constructor","inputs":[{"name":"manager","type":"address","internalType":"address"},{"name":"_valuableActionRegistry","type":"address","internalType":"address"},{"name":"_valuableActionSBT","type":"address","internalType":"address"},{"name":"_communityId","type":"uint256","internalType":"uint256"}],"stateMutability":"nonpayable"},{"type":"function","name":"applications","inputs":[{"name":"","type":"uint256","internalType":"uint256"}],"outputs":[{"name":"applicant","type":"address","internalType":"address"},{"name":"roleTypeId","type":"bytes32","internalType":"bytes32"},{"name":"evidence","type":"bytes","internalType":"bytes"},{"name":"status","type":"uint8","internalType":"uint8"},{"name":"positionTokenId","type":"uint256","internalType":"uint256"}],"stateMutability":"view"},{"type":"function","name":"applyForPosition","inputs":[{"name":"roleTypeId","type":"bytes32","internalType":"bytes32"},{"name":"evidence","type":"bytes","internalType":"bytes"}],"outputs":[{"name":"appId","type":"uint256","internalType":"uint256"}],"stateMutability":"nonpayable"},{"type":"function","name":"approveApplication","inputs":[{"name":"appId","type":"uint256","internalType":"uint256"},{"name":"metadata","type":"bytes","internalType":"bytes"}],"outputs":[{"name":"positionTokenId","type":"uint256","internalType":"uint256"}],"stateMutability":"nonpayable"},{"type":"function","name":"authority","inputs":[],"outputs":[{"name":"","type":"address","internalType":"address"}],"stateMutability":"view"},{"type":"function","name":"closePosition","inputs":[{"name":"positionTokenId","type":"uint256","internalType":"uint256"},{"name":"outcome","type":"uint8","internalType":"enum PositionManager.CloseOutcome"},{"name":"evidenceOrMetadata","type":"bytes","internalType":"bytes"}],"outputs":[{"name":"roleTokenId","type":"uint256","internalType":"uint256"}],"stateMutability":"nonpayable"},{"type":"function","name":"communityId","inputs":[],"outputs":[{"name":"","type":"uint256","internalType":"uint256"}],"stateMutability":"view"},{"type":"function","name":"definePositionType","inputs":[{"name":"roleTypeId","type":"bytes32","internalType":"bytes32"},{"name":"points","type":"uint32","internalType":"uint32"},{"name":"active","type":"bool","internalType":"bool"}],"outputs":[],"stateMutability":"nonpayable"},{"type":"function","name":"isConsumingScheduledOp","inputs":[],"outputs":[{"name":"","type":"bytes4","internalType":"bytes4"}],"stateMutability":"view"},{"type":"function","name":"nextAppId","inputs":[],"outputs":[{"name":"","type":"uint256","internalType":"uint256"}],"stateMutability":"view"},{"type":"function","name":"positionTypes","inputs":[{"name":"","type":"bytes32","internalType":"bytes32"}],"outputs":[{"name":"roleTypeId","type":"bytes32","internalType":"bytes32"},{"name":"points","type":"uint32","internalType":"uint32"},{"name":"active","type":"bool","internalType":"bool"}],"stateMutability":"view"},{"type":"function","name":"revenueRouter","inputs":[],"outputs":[{"name":"","type":"address","internalType":"contract IRevenueRouter"}],"stateMutability":"view"},{"type":"function","name":"setAuthority","inputs":[{"name":"newAuthority","type":"address","internalType":"address"}],"outputs":[],"stateMutability":"nonpayable"},{"type":"function","name":"setRevenueRouter","inputs":[{"name":"router","type":"address","internalType":"address"}],"outputs":[],"stateMutability":"nonpayable"},{"type":"function","name":"valuableActionRegistry","inputs":[],"outputs":[{"name":"","type":"address","internalType":"contract ValuableActionRegistry"}],"stateMutability":"view"},{"type":"function","name":"valuableActionSBT","inputs":[],"outputs":[{"name":"","type":"address","internalType":"contract IValuableActionSBT"}],"stateMutability":"view"},{"type":"event","name":"AuthorityUpdated","inputs":[{"name":"authority","type":"address","indexed":false,"internalType":"address"}],"anonymous":false},{"type":"event","name":"PositionApplied","inputs":[{"name":"appId","type":"uint256","indexed":true,"internalType":"uint256"},{"name":"applicant","type":"address","indexed":true,"internalType":"address"},{"name":"roleTypeId","type":"bytes32","indexed":true,"internalType":"bytes32"},{"name":"communityId","type":"uint256","indexed":false,"internalType":"uint256"}],"anonymous":false},{"type":"event","name":"PositionAssigned","inputs":[{"name":"appId","type":"uint256","indexed":true,"internalType":"uint256"},{"name":"applicant","type":"address","indexed":true,"internalType":"address"},{"name":"positionTokenId","type":"uint256","indexed":true,"internalType":"uint256"}],"anonymous":false},{"type":"event","name":"PositionClosed","inputs":[{"name":"positionTokenId","type":"uint256","indexed":true,"internalType":"uint256"},{"name":"holder","type":"address","indexed":true,"internalType":"address"},{"name":"outcome","type":"uint8","indexed":false,"internalType":"enum PositionManager.CloseOutcome"},{"name":"endedAt","type":"uint64","indexed":false,"internalType":"uint64"},{"name":"roleTokenId","type":"uint256","indexed":false,"internalType":"uint256"}],"anonymous":false},{"type":"event","name":"PositionTypeDefined","inputs":[{"name":"roleTypeId","type":"bytes32","indexed":true,"internalType":"bytes32"},{"name":"communityId","type":"uint256","indexed":true,"internalType":"uint256"},{"name":"points","type":"uint32","indexed":false,"internalType":"uint32"},{"name":"active","type":"bool","indexed":false,"internalType":"bool"}],"anonymous":false},{"type":"event","name":"RevenueRouterUpdated","inputs":[{"name":"router","type":"address","indexed":true,"internalType":"address"}],"anonymous":false},{"type":"error","name":"AccessManagedInvalidAuthority","inputs":[{"name":"authority","type":"address","internalType":"address"}]},{"type":"error","name":"AccessManagedRequiredDelay","inputs":[{"name":"caller","type":"address","internalType":"address"},{"name":"delay","type":"uint32","internalType":"uint32"}]},{"type":"error","name":"AccessManagedUnauthorized","inputs":[{"name":"caller","type":"address","internalType":"address"}]},{"type":"error","name":"InvalidInput","inputs":[{"name":"reason","type":"string","internalType":"string"}]},{"type":"error","name":"ZeroAddress","inputs":[]}],"bytecode":{"object":"0x60e034620001b457601f6200198438819003918201601f191683019291906001600160401b03841183851017620001b8578160809284926040968752833981010312620001b4576200005181620001cc565b906200006060208201620001cc565b91606062000070858401620001cc565b9201515f80546001600160a01b0319166001600160a01b0393841690811790915585518181529194917f2f658b440c35314f52658ea8a740e05b284cdc84dc9ae01e891f21b8933e7cad90602090a1600160045515620001a3578116918215620001a35716908115620001925782156200014d5760805260a05260c052516117a29081620001e28239608051818181610253015281816108ce0152818161093d01528181610aff0152611208015260a05181818160e5015281816107fc0152610893015260c051818181610dbb015281816110bf015261137e0152f35b835163d647364f60e01b815260206004820152601360248201527f496e76616c696420636f6d6d756e6974794964000000000000000000000000006044820152606490fd5b835163d92e233d60e01b8152600490fd5b845163d92e233d60e01b8152600490fd5b5f80fd5b634e487b7160e01b5f52604160045260245ffd5b51906001600160a01b0382168203620001b45756fe6080806040526004361015610012575f80fd5b5f905f35908160e01c91826306711c771461122c575050806310127811146111e9578063220183c414610f0c57806338226c2a14610eef57806361bd183714610ea65780637a9e5e4b14610dde5780637f50861a14610da45780638e9c9bd61461076f5780638fb36037146106fa578063b3b917d914610650578063bf7e214f1461062a578063dfefadff146104e1578063e7ad0d2b14610133578063e88558121461010c5763e8901184146100c6575f80fd5b3461010957806003193601126101095760206040516001600160a01b037f0000000000000000000000000000000000000000000000000000000000000000168152f35b80fd5b503461010957806003193601126101095760206001600160a01b0360015416604051908152f35b50346101095760403660031901126101095760043560243567ffffffffffffffff81116104dd576101689036906004016114d9565b6101759391933633611607565b8282526020926003845260408320946003860195600160ff88541603610498576001600160a01b039182825416801561045357600183015490818852600289526040882092604051906101c78261153f565b8a600186549687855201549560ff63ffffffff976040848701968a8316885201931c16151582521561040d5751156103c7578a9461024d92511698604051998a9586957f041848f90000000000000000000000000000000000000000000000000000000087526004870152602486015260448501526080606485015260848401916115e7565b038188867f0000000000000000000000000000000000000000000000000000000000000000165af19384156103bc578594610389575b508160015416801561034357803b1561033f578580916024604051809481937f9aaf5cfc0000000000000000000000000000000000000000000000000000000083528a60048401525af180156103345761031c575b5083949596600260ff198254161790558360048201555416907ffc79da6c5316f4c3a2841a4a8ee84045b0cda7f9c0b91deec048b7f26d4293cf6040519580a48152f35b610326869161155b565b610330575f6102d8565b8480fd5b6040513d88823e3d90fd5b8580fd5b60405163d647364f60e01b815260206004820152601560248201527f526576656e7565526f75746572206e6f742073657400000000000000000000006044820152606490fd5b9093508581813d83116103b5575b6103a1818361158b565b810103126103b15751925f610283565b5f80fd5b503d610397565b6040513d87823e3d90fd5b60405163d647364f60e01b815260206004820152601660248201527f506f736974696f6e207479706520696e616374697665000000000000000000006044820152606490fd5b60405163d647364f60e01b815260206004820152601260248201527f556e6b6e6f776e20726f6c6554797065496400000000000000000000000000006044820152606490fd5b6064886040519063d647364f60e01b82526004820152601560248201527f4170706c69636174696f6e206e6f7420666f756e6400000000000000000000006044820152fd5b6064866040519063d647364f60e01b82526004820152601760248201527f4170706c69636174696f6e206e6f742070656e64696e670000000000000000006044820152fd5b8280fd5b503461010957602090816003193601126101095760043581526003825260408120916001600160a01b0383541692600192600182015492600283016040518096849083549361052f85611507565b94858552866001821691825f146106085750506001146105cc575b505061055e9250979597949294038661158b565b600460ff6003830154169101549160405196879586528486015260a060408601528551938460a0870152815b8581106105b557505060c0809650848601015260608401526080830152601f80199101168101030190f35b80880182015189820160c00152889650810161058a565b85925086528186209086915b8583106105f057505061055e93508201015f8061054a565b8054838c018501528a945086939092019181016105d8565b925093505061055e94915060ff191682840152151560051b8201015f8061054a565b50346101095780600319360112610109576001600160a01b036020915416604051908152f35b5034610109576020366003190112610109576004356001600160a01b0381168091036106f6576106803633611607565b80156106cc578073ffffffffffffffffffffffffffffffffffffffff1960015416176001557f8b9386266f5c4341f0b77323f7a0d45dbb0c47f507400a667b3bc70d5b404f2d8280a280f35b60046040517fd92e233d000000000000000000000000000000000000000000000000000000008152fd5b5080fd5b5034610109578060031936011261010957805460a01c60ff1615610767575060207f8fb36037000000000000000000000000000000000000000000000000000000005b7fffffffff0000000000000000000000000000000000000000000000000000000060405191168152f35b60209061073d565b50346103b15760603660031901126103b157600360243510156103b15760443567ffffffffffffffff81116103b1576107ac9036906004016114d9565b6107b99291923633611607565b5f91604051917fb09afec1000000000000000000000000000000000000000000000000000000008352600435600484015261018080846024816001600160a01b037f0000000000000000000000000000000000000000000000000000000000000000165afa938415610bac575f94610c91575b505082516005811015610c7d57600303610c385767ffffffffffffffff61010084015116610bf357604051947f6352211e00000000000000000000000000000000000000000000000000000000865260043560048701526020866024816001600160a01b037f0000000000000000000000000000000000000000000000000000000000000000165afa958615610bac575f96610bb7575b506001600160a01b037f0000000000000000000000000000000000000000000000000000000000000000163b156103b1576040517f8045303d000000000000000000000000000000000000000000000000000000008152600435600482015260ff6024351660248201525f81604481836001600160a01b037f0000000000000000000000000000000000000000000000000000000000000000165af18015610bac57610b99575b506001600160a01b0360015416801561034357803b15610b95578380916024604051809481937f6b3be69600000000000000000000000000000000000000000000000000000000835260043560048401525af18015610b8a57908491610b76575b50505f9360243515610a4f575b50505060405191610a3b57506001600160a01b03602093602435835267ffffffffffffffff42168584015283604084015216907f57e8af24ea049e59bf81880335bac75ff31076cca72279241b5fec169c75db27606060043592a3604051908152f35b80634e487b7160e01b602492526021600452fd5b9092945060209193506060810151610af267ffffffffffffffff60e063ffffffff60a08601511694015116945f9660405196879586957f2f1ec91c0000000000000000000000000000000000000000000000000000000087526001600160a01b038d16600488015260248701526044860152606485015267ffffffffffffffff4216608485015260ff6024351660a485015260e060c485015260e48401916115e7565b0381866001600160a01b037f0000000000000000000000000000000000000000000000000000000000000000165af1908115610b6b578391610b39575b50915f80806109d8565b90506020813d602011610b63575b81610b546020938361158b565b810103126103b157515f610b2f565b3d9150610b47565b6040513d85823e3d90fd5b610b7f9061155b565b6104dd57825f6109cb565b6040513d86823e3d90fd5b8380fd5b610ba491935061155b565b5f915f61096a565b6040513d5f823e3d90fd5b9095506020813d602011610beb575b81610bd36020938361158b565b810103126103b157610be4906115d3565b945f6108c3565b3d9150610bc6565b606460405163d647364f60e01b815260206004820152601760248201527f506f736974696f6e20616c726561647920636c6f7365640000000000000000006044820152fd5b606460405163d647364f60e01b815260206004820152601460248201527f4e6f74206120706f736974696f6e20746f6b656e0000000000000000000000006044820152fd5b634e487b7160e01b5f52602160045260245ffd5b908092945081813d8311610d9d575b610caa818361158b565b810103126103b15760405191820182811067ffffffffffffffff821117610d8957604052805160058110156103b157825260208101516020830152604081015160408301526060810151606083015260808101516080830152610d0f60a082016115ad565b60a0830152610d2060c082016115ad565b60c0830152610d3160e082016115be565b60e0830152610100610d448183016115be565b90830152610120610d568183016115be565b90830152610140808201519060ff821682036103b157830152610d7d6101608092016115d3565b90820152915f8061082c565b634e487b7160e01b5f52604160045260245ffd5b503d610ca0565b346103b1575f3660031901126103b15760206040517f00000000000000000000000000000000000000000000000000000000000000008152f35b346103b15760203660031901126103b1576004356001600160a01b03808216918281036103b1575f549182163303610e90573b15610e5f57817f2f658b440c35314f52658ea8a740e05b284cdc84dc9ae01e891f21b8933e7cad9273ffffffffffffffffffffffffffffffffffffffff1960209316175f55604051908152a1005b602482604051907fc2f31e5e0000000000000000000000000000000000000000000000000000000082526004820152fd5b602460405162d1953b60e31b8152336004820152fd5b346103b15760203660031901126103b1576004355f526002602052606060405f2060ff6001825492015460405192835263ffffffff8116602084015260201c1615156040820152f35b346103b1575f3660031901126103b1576020600454604051908152f35b346103b15760403660031901126103b15767ffffffffffffffff6024358181116103b157610f3e9036906004016114d9565b6004355f52600260205260405f2060405190610f598261153f565b60ff6040600183549384865201549363ffffffff85166020820152019260201c16151582521561040d5751156103c757600454915f19938484146111d557600184016004556040519160a0830183811083821117610d895760405233835260208301936004358552828111610d895760405191610fe0601f8301601f19166020018461158b565b81835236828201116103b157815f92602092838601378301015260408301908152600160608401525f6080840152845f52600360205260405f20936001600160a01b0384511673ffffffffffffffffffffffffffffffffffffffff1986541617855551600185015551948551918211610d89576110606002850154611507565b95601f871161118d575b602096508690601f841160011461111d57926004949281926080955f93611112575b50508260011b9260031b1c19161760028501555b6003840160ff60608301511660ff1982541617905501519101556040517f0000000000000000000000000000000000000000000000000000000000000000815260043590827f560b49847a5e25da1625ab6b291ee6880786bbd1d6ac0225449ffdd8c056e476853393a4604051908152f35b01519150898061108c565b9190601f19841692600287015f52885f20935f5b818110611176575092859260049795926080976001961061115e575b50505050811b0160028501556110a0565b01519060f88460031b161c191690558880808061114d565b92948a600181928886015181550196019301611131565b600285015f5260205f20601f840160051c810197602085106111cb575b601f0160051c01965b8781106111c0575061106a565b5f81556001016111b3565b90975087906111aa565b634e487b7160e01b5f52601160045260245ffd5b346103b1575f3660031901126103b15760206040516001600160a01b037f0000000000000000000000000000000000000000000000000000000000000000168152f35b346103b15760603660031901126103b1576004359060249081359363ffffffff908186168096036103b157604435938415158095036103b1575f80546001600160a01b038116366004116103b157857fffffffff00000000000000000000000000000000000000000000000000000000955f9860408a8092819460209d8e8083019363b700961360e01b85528d339085015230604485015260649e8f9116908401528d83526112da8361156f565b818052525190875afa6114c8575b15611425575b505050505085156113e35786156113a157505060405161130d8161153f565b8481528281019186835260016040830192868452875f526002865260405f20905181550192511664ff00000000835492511515851b169164ffffffffff1916171790556040519384528301527f0205e7c9870a431e33251bbd6e0c2b7e939bb024031805d715a52da6047e2f0d60407f000000000000000000000000000000000000000000000000000000000000000093a3005b601584916040519263d647364f60e01b845260048401528201527f506f696e74732063616e6e6f74206265207a65726f00000000000000000000006044820152fd5b601284916040519263d647364f60e01b845260048401528201527f4d697373696e6720726f6c6554797065496400000000000000000000000000006044820152fd5b16156114b357600160a01b60ff60a01b19809316175f55803b156103b1575f6040518092634a63ebf760e11b82523360048301526040878301523660448301523683898401378288368401015281838982601f19601f36011681010301925af18015610bac576114a0575b50815416905587808085816112ee565b6114ab91925061155b565b5f9089611490565b8360405162d1953b60e31b8152336004820152fd5b50505f518851808a1c1502906112e8565b9181601f840112156103b15782359167ffffffffffffffff83116103b157602083818601950101116103b157565b90600182811c92168015611535575b602083101461152157565b634e487b7160e01b5f52602260045260245ffd5b91607f1691611516565b6060810190811067ffffffffffffffff821117610d8957604052565b67ffffffffffffffff8111610d8957604052565b60a0810190811067ffffffffffffffff821117610d8957604052565b90601f8019910116810190811067ffffffffffffffff821117610d8957604052565b519063ffffffff821682036103b157565b519067ffffffffffffffff821682036103b157565b51906001600160a01b03821682036103b157565b908060209392818452848401375f828201840152601f01601f1916010190565b5f915f54916001600160a01b0380841692806004116103b1575f928384916040958691825196602088019163b700961360e01b835216968760248201523060448201527fffffffff000000000000000000000000000000000000000000000000000000008335166064820152606481526116808161156f565b828052826020525190895afa611759575b156116a0575b50505050505050565b63ffffffff161561174357600160a01b60ff60a01b19809616175f55833b156103b1576064935f92838551968780958194634a63ebf760e11b835260048301528860248301528060448301528084848401378181018301849052601f01601f191681010301925af190811561173a5750611727575b5081541690555f808080808080611697565b61173291925061155b565b5f905f611715565b513d5f823e3d90fd5b50602491519062d1953b60e31b82526004820152fd5b50505f516020518060201c15029061169156fea26469706673582212200cb6a8d09c3bcd94c7ca70849a856f56056b7eeebff1c617fae3dd3d6346649a64736f6c63430008180033","linkReferences":{}},"methodIdentifiers":{"applications(uint256)":"dfefadff","applyForPosition(bytes32,bytes)":"220183c4","approveApplication(uint256,bytes)":"e7ad0d2b","authority()":"bf7e214f","closePosition(uint256,uint8,bytes)":"8e9c9bd6","communityId()":"7f50861a","definePositionType(bytes32,uint32,bool)":"06711c77","isConsumingScheduledOp()":"8fb36037","nextAppId()":"38226c2a","positionTypes(bytes32)":"61bd1837","revenueRouter()":"e8855812","setAuthority(address)":"7a9e5e4b","setRevenueRouter(address)":"b3b917d9","valuableActionRegistry()":"10127811","valuableActionSBT()":"e8901184"},"id":22}