{
  "_format": "hh-sol-artifact-1",
  "contractName": "ProjectFactory",
  "sourceName": "contracts/modules/ProjectFactory.sol",
  "abi": [
    {
      "inputs": [
        {
          "internalType": "uint256",
          "name": "_communityId",
          "type": "uint256"
        }
      ],
      "stateMutability": "nonpayable",
      "type": "constructor"
    },
    {
      "anonymous": false,
      "inputs": [
        {
          "indexed": true,
          "internalType": "uint256",
          "name": "id",
          "type": "uint256"
        },
        {
          "indexed": true,
          "internalType": "address",
          "name": "creator",
          "type": "address"
        },
        {
          "indexed": false,
          "internalType": "string",
          "name": "cid",
          "type": "string"
        },
        {
          "indexed": false,
          "internalType": "address",
          "name": "token1155",
          "type": "address"
        },
        {
          "indexed": false,
          "internalType": "uint256",
          "name": "communityId",
          "type": "uint256"
        }
      ],
      "name": "ProjectCreated",
      "type": "event"
    },
    {
      "inputs": [],
      "name": "communityId",
      "outputs": [
        {
          "internalType": "uint256",
          "name": "",
          "type": "uint256"
        }
      ],
      "stateMutability": "view",
      "type": "function"
    },
    {
      "inputs": [
        {
          "internalType": "string",
          "name": "cid",
          "type": "string"
        },
        {
          "internalType": "address",
          "name": "token1155",
          "type": "address"
        }
      ],
      "name": "create",
      "outputs": [
        {
          "internalType": "uint256",
          "name": "id",
          "type": "uint256"
        }
      ],
      "stateMutability": "nonpayable",
      "type": "function"
    },
    {
      "inputs": [],
      "name": "lastId",
      "outputs": [
        {
          "internalType": "uint256",
          "name": "",
          "type": "uint256"
        }
      ],
      "stateMutability": "view",
      "type": "function"
    },
    {
      "inputs": [
        {
          "internalType": "uint256",
          "name": "",
          "type": "uint256"
        }
      ],
      "name": "projects",
      "outputs": [
        {
          "internalType": "address",
          "name": "creator",
          "type": "address"
        },
        {
          "internalType": "string",
          "name": "cid",
          "type": "string"
        },
        {
          "internalType": "address",
          "name": "token1155",
          "type": "address"
        },
        {
          "internalType": "bool",
          "name": "active",
          "type": "bool"
        },
        {
          "internalType": "uint256",
          "name": "communityId",
          "type": "uint256"
        }
      ],
      "stateMutability": "view",
      "type": "function"
    }
  ],
  "bytecode": "0x60a0346100a757601f6106a238819003918201601f19168301916001600160401b038311848410176100ab578084926020946040528339810103126100a75751801561006e576080526040516105e290816100c082396080518181816101520152818161028101526103e80152f35b60405162461bcd60e51b8152602060048201526011602482015270696e76616c696420636f6d6d756e69747960781b6044820152606490fd5b5f80fd5b634e487b7160e01b5f52604160045260245ffdfe6080806040526004361015610012575f80fd5b5f3560e01c908163107046bd1461040b575080637f50861a146103d157806384b47b0f146100685763c1292cc314610048575f80fd5b34610064575f3660031901126100645760205f54604051908152f35b5f80fd5b346100645760403660031901126100645760043567ffffffffffffffff811161006457366023820112156100645767ffffffffffffffff81600401351161006457366024826004013583010111610064576024356001600160a01b0381168103610064575f54905f1982146103bd57600182015f556040519260a0840184811067ffffffffffffffff8211176103a9576040523384526040516101196020601f19601f85600401350116018261058a565b60048201358082526024830160208301375f6020836004013583010152602085015260018060a01b0382166040850152600160608501527f00000000000000000000000000000000000000000000000000000000000000006080850152600183015f52600160205260405f2060018060a01b038551166bffffffffffffffffffffffff60a01b825416178155602085015194855167ffffffffffffffff81116103a9576101c96001840154610552565b96601f8811610365575b602097508790601f83116001146102f7579180600394926080945f926102ec575b50505f1982861b1c1916600191821b17908501555b6002840160018060a01b0360408301511681549060ff60a01b6060850151151560a01b16916affffffffffffffffffffff60a81b1617179055015191015560405191606083528160040135606084015281600401356024830160808501375f608083600401358501015260018060a01b0316848301527f000000000000000000000000000000000000000000000000000000000000000060408301527ff23dc1a893fba10fe2e2ec006f6b9698dcf2af2b8cacf8a5f626c254a17b3e9c33926080816001870194601f8019916004013501168101030190a3600160405191018152f35b015190508a806101f4565b90600185015f52885f20915f5b601f198516811061034e5750926003949260019260809583601f19811610610337575b505050811b016001850155610209565b01515f1983881b60f8161c191690558a8080610327565b91928a600181928685015181550194019201610304565b600184015f5260205f20601f830160051c8101602084106103a2575b601f8a0160051c820181106103975750506101d3565b5f8155600101610381565b5080610381565b634e487b7160e01b5f52604160045260245ffd5b634e487b7160e01b5f52601160045260245ffd5b34610064575f3660031901126100645760206040517f00000000000000000000000000000000000000000000000000000000000000008152f35b346100645760209081600319360112610064576004355f526001916001815260405f2060018060a01b0380825416948460018401915f9083549361044e85610552565b94858552886001821691825f146105305750506001146104f4575b505061047c92509694939296038561058a565b6003600282015491015490604051958694855260a0848601528551938460a08701525f5b8581106104dd57505060c095509060ff915f8786880101528116604086015260a01c16151560608401526080830152601f80199101168101030190f35b80880182015189820160c0015288965081016104a0565b8792505f52815f20905f915b85831061051857505061047c93508201018880610469565b8054838b018501528994508893909201918101610500565b925093505061047c94915060ff191682840152151560051b8201018880610469565b90600182811c92168015610580575b602083101461056c57565b634e487b7160e01b5f52602260045260245ffd5b91607f1691610561565b90601f8019910116810190811067ffffffffffffffff8211176103a95760405256fea264697066735822122071c57bf5ca222f1e90f94f5b3d62e347e0e5b5207357073feab72ae950eabd1c64736f6c63430008180033",
  "linkReferences": {},
  "deployedLinkReferences": {}
}