{"abi":[{"type":"constructor","inputs":[{"name":"_communityRegistry","type":"address","internalType":"address"},{"name":"_valuableActionRegistry","type":"address","internalType":"address"},{"name":"_treasuryAdapter","type":"address","internalType":"address"}],"stateMutability":"nonpayable"},{"type":"function","name":"addBounty","inputs":[{"name":"requestId","type":"uint256","internalType":"uint256"},{"name":"token","type":"address","internalType":"address"},{"name":"amount","type":"uint256","internalType":"uint256"}],"outputs":[],"stateMutability":"nonpayable"},{"type":"function","name":"approvedWinner","inputs":[{"name":"","type":"uint256","internalType":"uint256"}],"outputs":[{"name":"","type":"address","internalType":"address"}],"stateMutability":"view"},{"type":"function","name":"comments","inputs":[{"name":"","type":"uint256","internalType":"uint256"}],"outputs":[{"name":"requestId","type":"uint256","internalType":"uint256"},{"name":"author","type":"address","internalType":"address"},{"name":"cid","type":"string","internalType":"string"},{"name":"parentCommentId","type":"uint256","internalType":"uint256"},{"name":"createdAt","type":"uint64","internalType":"uint64"},{"name":"isModerated","type":"bool","internalType":"bool"}],"stateMutability":"view"},{"type":"function","name":"communityRegistry","inputs":[],"outputs":[{"name":"","type":"address","internalType":"contract CommunityRegistry"}],"stateMutability":"view"},{"type":"function","name":"communityRequests","inputs":[{"name":"","type":"uint256","internalType":"uint256"},{"name":"","type":"uint256","internalType":"uint256"}],"outputs":[{"name":"","type":"uint256","internalType":"uint256"}],"stateMutability":"view"},{"type":"function","name":"completeEngagement","inputs":[{"name":"requestId","type":"uint256","internalType":"uint256"},{"name":"metadata","type":"bytes","internalType":"bytes"}],"outputs":[{"name":"engagementTokenId","type":"uint256","internalType":"uint256"}],"stateMutability":"nonpayable"},{"type":"function","name":"createRequest","inputs":[{"name":"communityId","type":"uint256","internalType":"uint256"},{"name":"title","type":"string","internalType":"string"},{"name":"cid","type":"string","internalType":"string"},{"name":"tags","type":"string[]","internalType":"string[]"}],"outputs":[{"name":"requestId","type":"uint256","internalType":"uint256"}],"stateMutability":"nonpayable"},{"type":"function","name":"getComment","inputs":[{"name":"commentId","type":"uint256","internalType":"uint256"}],"outputs":[{"name":"comment","type":"tuple","internalType":"struct RequestHub.Comment","components":[{"name":"requestId","type":"uint256","internalType":"uint256"},{"name":"author","type":"address","internalType":"address"},{"name":"cid","type":"string","internalType":"string"},{"name":"parentCommentId","type":"uint256","internalType":"uint256"},{"name":"createdAt","type":"uint64","internalType":"uint64"},{"name":"isModerated","type":"bool","internalType":"bool"}]}],"stateMutability":"view"},{"type":"function","name":"getCommunityRequests","inputs":[{"name":"communityId","type":"uint256","internalType":"uint256"}],"outputs":[{"name":"","type":"uint256[]","internalType":"uint256[]"}],"stateMutability":"view"},{"type":"function","name":"getRequest","inputs":[{"name":"requestId","type":"uint256","internalType":"uint256"}],"outputs":[{"name":"request","type":"tuple","internalType":"struct RequestHub.Request","components":[{"name":"communityId","type":"uint256","internalType":"uint256"},{"name":"author","type":"address","internalType":"address"},{"name":"title","type":"string","internalType":"string"},{"name":"cid","type":"string","internalType":"string"},{"name":"status","type":"uint8","internalType":"enum RequestHub.Status"},{"name":"createdAt","type":"uint64","internalType":"uint64"},{"name":"lastActivity","type":"uint64","internalType":"uint64"},{"name":"tags","type":"string[]","internalType":"string[]"},{"name":"commentCount","type":"uint256","internalType":"uint256"},{"name":"bountyToken","type":"address","internalType":"address"},{"name":"bountyAmount","type":"uint256","internalType":"uint256"},{"name":"linkedValuableAction","type":"uint256","internalType":"uint256"},{"name":"consumed","type":"bool","internalType":"bool"},{"name":"winner","type":"address","internalType":"address"}]}],"stateMutability":"view"},{"type":"function","name":"getRequestComments","inputs":[{"name":"requestId","type":"uint256","internalType":"uint256"}],"outputs":[{"name":"","type":"uint256[]","internalType":"uint256[]"}],"stateMutability":"view"},{"type":"function","name":"getRequestsByTag","inputs":[{"name":"communityId","type":"uint256","internalType":"uint256"},{"name":"tag","type":"string","internalType":"string"}],"outputs":[{"name":"requestIds","type":"uint256[]","internalType":"uint256[]"}],"stateMutability":"view"},{"type":"function","name":"linkValuableAction","inputs":[{"name":"requestId","type":"uint256","internalType":"uint256"},{"name":"valuableActionId","type":"uint256","internalType":"uint256"}],"outputs":[],"stateMutability":"nonpayable"},{"type":"function","name":"moderateComment","inputs":[{"name":"commentId","type":"uint256","internalType":"uint256"},{"name":"hide","type":"bool","internalType":"bool"}],"outputs":[],"stateMutability":"nonpayable"},{"type":"function","name":"nextCommentId","inputs":[],"outputs":[{"name":"","type":"uint256","internalType":"uint256"}],"stateMutability":"view"},{"type":"function","name":"nextRequestId","inputs":[],"outputs":[{"name":"","type":"uint256","internalType":"uint256"}],"stateMutability":"view"},{"type":"function","name":"postComment","inputs":[{"name":"requestId","type":"uint256","internalType":"uint256"},{"name":"parentCommentId","type":"uint256","internalType":"uint256"},{"name":"cid","type":"string","internalType":"string"}],"outputs":[{"name":"commentId","type":"uint256","internalType":"uint256"}],"stateMutability":"nonpayable"},{"type":"function","name":"requestComments","inputs":[{"name":"","type":"uint256","internalType":"uint256"},{"name":"","type":"uint256","internalType":"uint256"}],"outputs":[{"name":"","type":"uint256","internalType":"uint256"}],"stateMutability":"view"},{"type":"function","name":"requests","inputs":[{"name":"","type":"uint256","internalType":"uint256"}],"outputs":[{"name":"communityId","type":"uint256","internalType":"uint256"},{"name":"author","type":"address","internalType":"address"},{"name":"title","type":"string","internalType":"string"},{"name":"cid","type":"string","internalType":"string"},{"name":"status","type":"uint8","internalType":"enum RequestHub.Status"},{"name":"createdAt","type":"uint64","internalType":"uint64"},{"name":"lastActivity","type":"uint64","internalType":"uint64"},{"name":"commentCount","type":"uint256","internalType":"uint256"},{"name":"bountyToken","type":"address","internalType":"address"},{"name":"bountyAmount","type":"uint256","internalType":"uint256"},{"name":"linkedValuableAction","type":"uint256","internalType":"uint256"},{"name":"consumed","type":"bool","internalType":"bool"},{"name":"winner","type":"address","internalType":"address"}],"stateMutability":"view"},{"type":"function","name":"setApprovedWinner","inputs":[{"name":"requestId","type":"uint256","internalType":"uint256"},{"name":"winner","type":"address","internalType":"address"}],"outputs":[],"stateMutability":"nonpayable"},{"type":"function","name":"setRequestStatus","inputs":[{"name":"requestId","type":"uint256","internalType":"uint256"},{"name":"newStatus","type":"uint8","internalType":"enum RequestHub.Status"}],"outputs":[],"stateMutability":"nonpayable"},{"type":"function","name":"treasuryAdapter","inputs":[],"outputs":[{"name":"","type":"address","internalType":"contract ITreasuryAdapter"}],"stateMutability":"view"},{"type":"function","name":"userLastPostTime","inputs":[{"name":"","type":"uint256","internalType":"uint256"},{"name":"","type":"address","internalType":"address"}],"outputs":[{"name":"","type":"uint256","internalType":"uint256"}],"stateMutability":"view"},{"type":"function","name":"userRequestCount","inputs":[{"name":"","type":"uint256","internalType":"uint256"},{"name":"","type":"address","internalType":"address"}],"outputs":[{"name":"","type":"uint256","internalType":"uint256"}],"stateMutability":"view"},{"type":"function","name":"valuableActionRegistry","inputs":[],"outputs":[{"name":"","type":"address","internalType":"contract IValuableActionRegistry"}],"stateMutability":"view"},{"type":"event","name":"ApprovedWinnerSet","inputs":[{"name":"requestId","type":"uint256","indexed":true,"internalType":"uint256"},{"name":"winner","type":"address","indexed":true,"internalType":"address"},{"name":"setter","type":"address","indexed":true,"internalType":"address"}],"anonymous":false},{"type":"event","name":"BountyAdded","inputs":[{"name":"requestId","type":"uint256","indexed":true,"internalType":"uint256"},{"name":"token","type":"address","indexed":true,"internalType":"address"},{"name":"amount","type":"uint256","indexed":false,"internalType":"uint256"},{"name":"funder","type":"address","indexed":true,"internalType":"address"}],"anonymous":false},{"type":"event","name":"CommentModerated","inputs":[{"name":"requestId","type":"uint256","indexed":true,"internalType":"uint256"},{"name":"commentId","type":"uint256","indexed":true,"internalType":"uint256"},{"name":"moderator","type":"address","indexed":true,"internalType":"address"},{"name":"hidden","type":"bool","indexed":false,"internalType":"bool"}],"anonymous":false},{"type":"event","name":"CommentPosted","inputs":[{"name":"requestId","type":"uint256","indexed":true,"internalType":"uint256"},{"name":"commentId","type":"uint256","indexed":true,"internalType":"uint256"},{"name":"author","type":"address","indexed":true,"internalType":"address"},{"name":"cid","type":"string","indexed":false,"internalType":"string"},{"name":"parentCommentId","type":"uint256","indexed":false,"internalType":"uint256"}],"anonymous":false},{"type":"event","name":"OneShotEngagementCompleted","inputs":[{"name":"requestId","type":"uint256","indexed":true,"internalType":"uint256"},{"name":"winner","type":"address","indexed":true,"internalType":"address"},{"name":"bountyToken","type":"address","indexed":false,"internalType":"address"},{"name":"bountyAmount","type":"uint256","indexed":false,"internalType":"uint256"},{"name":"engagementTokenId","type":"uint256","indexed":false,"internalType":"uint256"}],"anonymous":false},{"type":"event","name":"RequestCreated","inputs":[{"name":"requestId","type":"uint256","indexed":true,"internalType":"uint256"},{"name":"communityId","type":"uint256","indexed":true,"internalType":"uint256"},{"name":"author","type":"address","indexed":true,"internalType":"address"},{"name":"title","type":"string","indexed":false,"internalType":"string"},{"name":"cid","type":"string","indexed":false,"internalType":"string"},{"name":"tags","type":"string[]","indexed":false,"internalType":"string[]"}],"anonymous":false},{"type":"event","name":"RequestStatusChanged","inputs":[{"name":"requestId","type":"uint256","indexed":true,"internalType":"uint256"},{"name":"newStatus","type":"uint8","indexed":true,"internalType":"enum RequestHub.Status"},{"name":"moderator","type":"address","indexed":true,"internalType":"address"}],"anonymous":false},{"type":"event","name":"ValuableActionLinking","inputs":[{"name":"requestId","type":"uint256","indexed":true,"internalType":"uint256"},{"name":"valuableActionId","type":"uint256","indexed":true,"internalType":"uint256"},{"name":"linker","type":"address","indexed":true,"internalType":"address"}],"anonymous":false},{"type":"error","name":"InvalidInput","inputs":[{"name":"reason","type":"string","internalType":"string"}]},{"type":"error","name":"InvalidValuableAction","inputs":[{"name":"valuableActionId","type":"uint256","internalType":"uint256"}]},{"type":"error","name":"NotAuthorized","inputs":[{"name":"caller","type":"address","internalType":"address"}]},{"type":"error","name":"ReentrancyGuardReentrantCall","inputs":[]},{"type":"error","name":"ZeroAddress","inputs":[]}],"bytecode":{"object":"0x60e0346200014357601f6200332838819003918201601f191683019291906001600160401b0384118385101762000147578160609284926040968752833981010312620001435762000051816200015b565b6200006c8362000064602085016200015b565b93016200015b565b9060017f9b779b17422d0df92223018b32b4d1fa46e071723d6817e2486d003becc55f005560015f556001805560018060a01b0380911692831562000132578116918215620001325716918215620001215760805260a05260c052516131b79081620001718239608051818181610a280152818161251d01528181612ac00152612dc1015260a051818181611a0a01528181611a7b01528181611b870152612261015260c05181818161014f0152611cb60152f35b835163d92e233d60e01b8152600490fd5b845163d92e233d60e01b8152600490fd5b5f80fd5b634e487b7160e01b5f52604160045260245ffd5b51906001600160a01b0382168203620001435756fe6080806040526004361015610012575f80fd5b5f905f3560e01c9081626ee86f14612490575080630473de27146123e35780630800e300146122855780631012781114612242578063113a80d3146121fd57806317392d17146121ca5780631aaafcec146119085780633c77e8bf146117785780634dc71cde1461166e5780636a84a985146116515780636c3f69e0146115e957806377d4b800146115a35780637d5830551461157157806381d12c58146114525780638ebb4c15146113ba578063956b2a22146112415780639876e5f414610ac45780639aa75dd514610a4c578063a200ac8614610a08578063c58343ef146106de578063ca83a82614610642578063d0bdacbe14610624578063ec83b4ac146105e4578063ed0c9c92146101765763f0f186fb14610130575f80fd5b3461017357806003193601126101735760206040516001600160a01b037f0000000000000000000000000000000000000000000000000000000000000000168152f35b80fd5b50346101735760603660031901126101735760443567ffffffffffffffff81116105e0576101a8903690600401612729565b60043583526002602052604083206001600160a01b036001820154161561059a5760ff6004820154166101da81612913565b60018114908115610586575b50610541576101f781543390613051565b81156104fb57602435610479575b6001549261021284612a43565b600155838552600360205260408520916004358355600183013373ffffffffffffffffffffffffffffffffffffffff1982541617905567ffffffffffffffff84116104655790602095859261026a60028601546127ef565b601f8111610429575b50819486601f81116001146103b1578392916102ae826103379361036c999a604098916103a6575b508160011b915f199060031b1c19161790565b60028201555b6024356003820155600467ffffffffffffffff421691018167ffffffffffffffff19825416179055600435845260058b526102f188868620612a7b565b60048301907fffffffffffffffffffffffffffffff0000000000000000ffffffffffffffffff70ffffffffffffffff00000000000000000083549260481b169116179055565b600681016103458154612a43565b90555481526007885220335f5286524260405f2055604051936040855260408501916129dd565b602435858401527f28511bc6c6cfc5218ae0e05cbff64ff36914a1092f843abd6a0e81e110ff6aac339380600435930390a4604051908152f35b90508801355f61029b565b5060028101835288832095835b601f198916811061040f5750604093929161036c9697610337928a601f198116106103f6575b5050600189811b0160028201556102b4565b8701355f1960038c901b60f8161c191690555f806103e4565b858201358855600190970196899650908a01908a016103be565b61045590600287018452898420601f890160051c8101918b8a1061045b575b601f0160051c0190612a65565b5f610273565b9091508190610448565b602486634e487b7160e01b81526041600452fd5b6024358452600360205260408420546004351461020557608460405163d647364f60e01b815260206004820152602260248201527f506172656e7420636f6d6d656e74206e6f7420696e207468697320726571756560448201527f73740000000000000000000000000000000000000000000000000000000000006064820152fd5b60405163d647364f60e01b815260206004820152601b60248201527f436f6e74656e74204349442063616e6e6f7420626520656d70747900000000006044820152606490fd5b606460405163d647364f60e01b815260206004820152602060248201527f52657175657374206973206e6f74206f70656e20666f7220636f6d6d656e74736044820152fd5b6002915061059381612913565b145f6101e6565b60405163d647364f60e01b815260206004820152601660248201527f5265717565737420646f6573206e6f74206578697374000000000000000000006044820152606490fd5b5080fd5b5034610173576105f3366126b7565b9190815260046020526040812090815483101561017357602061061684846127c6565b90546040519160031b1c8152f35b50346101735780600319360112610173576020600154604051908152f35b50346101735760403660031901126101735760043560243560038110156106da578183526002602052604083206001600160a01b036001820154161561059a5780610691600492543390612ab4565b0161069b82612913565b60ff1981541660ff83161790556106b181612913565b33917fed84828474f78e11e93760516d539ef1d87fe86a008202248ecff70fbb87fd208480a480f35b8280fd5b503461017357602036600319011261017357806101a0604051610700816128d4565b828152826020820152606060408201526060808201528260808201528260a08201528260c0820152606060e08201528261010082015282610120820152826101408201528261016082015282610180820152015260043581526002602052604081209060405191610770836128d4565b805483526001600160a01b0360018201541660208401526040516107a28161079b8160028601612827565b03826128f1565b60408401526040516107bb8161079b8160038601612827565b606084015267ffffffffffffffff600482015460ff81166107db81612913565b6080860152818160081c1660a086015260481c1660c08401526005810154610802816129b0565b9061081060405192836128f1565b808252602082016005840185526020852085915b8383106109e35787876001600160a01b03600a898960e086015260068101546101008601528260078201541661012086015260088101546101408601526009810154610160860152015460ff8116151561018085015260081c166101a08301526001600160a01b036020830151161561059a576040519060208252825160208301526001600160a01b0360208401511660408301526108ed6108d760408501516101c060608601526101e08501906126ee565b6060850151848203601f190160808601526126ee565b9060808401516108fc81612913565b60a084015267ffffffffffffffff60a08501511660c084015267ffffffffffffffff60c08501511660e084015260e084015191601f1984820301610100850152825190818152602081016020808460051b840101950193915b8383106109b6578680876001600160a01b036101a08c61010081015161012086015282610120820151166101408601526101408101516101608601526101608101516101808601526101808101511515828601520151166101c08301520390f35b90919293946020806109d4600193601f1986820301875289516126ee565b97019301930191939290610955565b6001602081926040516109fa8161079b8189612827565b815201920192019190610824565b503461017357806003193601126101735760206040516001600160a01b037f0000000000000000000000000000000000000000000000000000000000000000168152f35b5034610173576020806003193601126105e05760043582526004602052604082209160405180926020855492838152019483526020832092905b828210610aad57610aa985610a9d818903826128f1565b6040519182918261278b565b0390f35b835486529485019460019384019390910190610a86565b50346101735760803660031901126101735760243567ffffffffffffffff81116105e057610af6903690600401612729565b60443567ffffffffffffffff811161123d57610b16903690600401612729565b67ffffffffffffffff60643511611239573660236064350112156112395767ffffffffffffffff6064356004013511611239573660246064356004013560051b60643501011161123957610b6b600435612d84565b610b7733600435613051565b82156111f45780156104fb57845493610b8f85612a43565b86558486526002602052604086206004358155600181013373ffffffffffffffffffffffffffffffffffffffff1982541617905567ffffffffffffffff851161109257610bdf60028201546127ef565b601f81116111c1575b508685601f81116001146111585780610c14928a9161114d57508160011b915f199060031b1c19161790565b60028201555b67ffffffffffffffff831161109257610c3660038201546127ef565b601f811161111a575b508683601f81116001146110b15780610c6b928a916110a657508160011b915f199060031b1c19161790565b60038201555b6004810180547fffffffffffffffffffffffffffffff00000000000000000000000000000000001642600881901b68ffffffffffffffff00169190911760489190911b70ffffffffffffffff00000000000000000016179055680100000000000000006064356004013511611092576005810180546004606435013591829055908111611016575b5060050186526020862086906064356024015b606435600401358310610e795750505090610d8c610d9a939260043588526004602052610d3c8760408a20612a7b565b6004358852600660205260408820335f5260205260405f20610d5e8154612a43565b90556004358852600760205260408820335f526020524260405f2055604051956060875260608701916129dd565b9184830360208601526129dd565b81810360408301526064356004013581526020810160206064356004013560051b8301019160246064350191865b606435600401358810610e0b5760208733600435827f8640514b9ed59fbcf0717a5d5e67138789295ba04a59f1005628b7f3c28e3d9f8b8b038ca4604051908152f35b90919293601f1984820301835284356042196064353603018112156106da576064350167ffffffffffffffff6024820135116106da576024810135360360448201136106da576020610e6960019383604460248596013591016129dd565b9601930197019690929192610dc8565b606435360360421901813512156110125767ffffffffffffffff6024823560643501013511611012576064358135016024810135360360449091011361101257610ec382546127ef565b601f8111610fda575b5088601f6024833560643501013511600114610f3d576020600192610f1b84938d9060248435606435010135610f2a575b5060248335606435010135908160011b915f199060031b1c19161790565b85555b01920192019190610d0c565b604491508335606435010101355f610efd565b828a5260208a20908a5b60643584350160240135601f19168110610fba5750600192839260209260643583350160240135601f19811610610f90575b50508260248235606435010135811b018555610f1e565b60445f1960f86024863560643501013560031b161c19918435606435010101351690555f80610f79565b909160206001819260448688356064350101013581550193019101610f47565b828a526020808b2061100c9260643585350160240135601f810160051c8301931161045b57601f0160051c0190612a65565b5f610ecc565b8880fd5b60058201885260208820906064356004013582015b818301811061103b575050610cf9565b808a611049600193546127ef565b80611057575b50500161102b565b601f8111841461106e5750505f81555b8a5f61104f565b828252611089601f60208420920160051c8201858301612a65565b5f835555611067565b602487634e487b7160e01b81526041600452fd5b90508601355f61029b565b506003820188526020882090885b601f1986168110611102575084601f198116106110e9575b5050600183811b016003820155610c71565b8501355f19600386901b60f8161c191690555f806110d7565b9091602060018192858a0135815501930191016110bf565b6111479060038301895260208920601f860160051c8101916020871061045b57601f0160051c0190612a65565b5f610c3f565b90508401355f61029b565b506002820188526020882090885b601f19881681106111a9575086601f19811610611190575b5050600185811b016002820155610c1a565b8301355f19600388901b60f8161c191690555f8061117e565b90916020600181928588013581550193019101611166565b6111ee9060028301895260208920601f880160051c8101916020891061045b57601f0160051c0190612a65565b5f610be8565b606460405163d647364f60e01b815260206004820152601560248201527f5469746c652063616e6e6f7420626520656d70747900000000000000000000006044820152fd5b8480fd5b8380fd5b50346101735760403660031901126101735760043561125e612713565b8183526002602052604083206001600160a01b0391826001830154161561059a57829061128d83543390612ab4565b1691821561139057838552600860205260408520541661134a57600a015460ff16611304578183526008602052604083208173ffffffffffffffffffffffffffffffffffffffff1982541617905533917fe616175a572fb3c2bb47e9f230963adba80c8b254b1f70eaf8197ca103ea588f8480a480f35b60405163d647364f60e01b815260206004820152601860248201527f5265717565737420616c726561647920636f6e73756d656400000000000000006044820152606490fd5b60405163d647364f60e01b815260206004820152601760248201527f57696e6e657220616c726561647920617070726f7665640000000000000000006044820152606490fd5b60046040517fd92e233d000000000000000000000000000000000000000000000000000000008152fd5b503461017357602036600319011261017357604090600435815260036020522080546001600160a01b036001830154169160ff6040516114018161079b8160028701612827565b61142d60046003850154940154916040519687968752602087015260c0604087015260c08601906126ee565b92606085015267ffffffffffffffff8116608085015260401c16151560a08301520390f35b50346101735760203660031901126101735760409060043581526002602052208054906001600160a01b0390816001820154169160405161149a8161079b8160028701612827565b604051926114b6846114af8160038501612827565b03856128f1565b60048101549360ff85169467ffffffffffffffff600684015490866007860154169261151d60088701549561150f600a60098a0154990154996040519e8f9e8f906101a0928252602082015281604082015201906126ee565b8c810360608e0152906126ee565b9861152781612913565b60808b0152818160081c1660a08b015260481c1660c089015260e088015261010087015261012086015261014085015260ff8116151561016085015260081c166101808301520390f35b503461017357611580366126b7565b9190815260056020526040812090815483101561017357602061061684846127c6565b5034610173576040366003190112610173576001600160a01b0360406115c7612713565b92600435815260066020522091165f52602052602060405f2054604051908152f35b5034610173576020806003193601126105e05760043582526005602052604082209160405180926020855492838152019483526020832092905b82821061163a57610aa985610a9d818903826128f1565b835486529485019460019384019390910190611623565b503461017357806003193601126101735760209054604051908152f35b50346101735760603660031901126101735760043561168b612713565b604435918084526002602052604084206001600160a01b0392836001830154161561059a57831692831561139057841561173357828652600860205260408620541661134a5760ff600a820154166113045760088160078693018573ffffffffffffffffffffffffffffffffffffffff1982541617905501556040519283527f0a657846a18ce8adbe82da7e7291e42c40ef2b5b9e1245da745b255e0afe48c460203394a480f35b606460405163d647364f60e01b815260206004820152601e60248201527f426f756e747920616d6f756e74206d75737420626520706f73697469766500006044820152fd5b50346101735761178736612757565b9183919352602090600482526040812090604051808385829554938481520190845285842092845b878282106118f2575050506117c6925003836128f1565b6117d082516129fd565b9181805b82518110156118b0576117e78184612a2f565b5182526002865260408220600501805490835b82811061180d575b5050506001016117d4565b61079b61183061182383859d979d9c969c6127c6565b5060405192838092612827565b83815191012061183f8561294f565b61184c60405191826128f1565b85815284810190368e8801116118ac57868e8337878688830101525190201461187d576001019892989791976117fa565b50509550958061188f60019285612a2f565b516118a361189c87612a43565b9688612a2f565b52905f80611802565b8780fd5b5082846118bc826129fd565b925b8281106118d35760405180610aa9868261278b565b806118e060019284612a2f565b516118eb8287612a2f565b52016118be565b85548452600195860195889550930192016117af565b5034611d715761191736612757565b90929160027f9b779b17422d0df92223018b32b4d1fa46e071723d6817e2486d003becc55f0054146121a05760027f9b779b17422d0df92223018b32b4d1fa46e071723d6817e2486d003becc55f0055805f52600260205260405f20916001600160a01b036001840154161561059a57600983015494851561215b57825f52600860205260405f2054956001600160a01b0387161561211657600a8501549060ff8216611304576001600160a01b03881633036120ff576040517fe9ea801c0000000000000000000000000000000000000000000000000000000081528160048201526020816024816001600160a01b037f0000000000000000000000000000000000000000000000000000000000000000165afa908115611d66575f916120c5575b501561209457604051907f5cfdb86200000000000000000000000000000000000000000000000000000000825260048201525f816024816001600160a01b037f0000000000000000000000000000000000000000000000000000000000000000165afa8015611d66575f90611dce575b6060915001516004811015611dba57611d75576001907fffffffffffffffffffffff00000000000000000000000000000000000000000074ffffffffffffffffffffffffffffffffffffffff008960081b1691161717600a850155600884015480611c98575b506020908454611b7a60098701549260405195869485947fc254337100000000000000000000000000000000000000000000000000000000865260048601526001600160a01b038c1660248601528a6044860152606485015260a0608485015260a48401916129dd565b0381876001600160a01b037f0000000000000000000000000000000000000000000000000000000000000000165af1938415611c8c578094611c32575b50507f5484933aef1963ce01e45b11157d880787d4e0778c011ef0457b59591a8b605f60606001600160a01b03602096600882600788015416960154604051968752888701528660408701521693a360017f9b779b17422d0df92223018b32b4d1fa46e071723d6817e2486d003becc55f0055604051908152f35b909493506020853d602011611c84575b81611c4f602093836128f1565b810103126101735750925191927f5484933aef1963ce01e45b11157d880787d4e0778c011ef0457b59591a8b605f6060611bb7565b3d9150611c42565b604051903d90823e3d90fd5b6001600160a01b036007860154168015611390576001600160a01b037f00000000000000000000000000000000000000000000000000000000000000001691823b15611d715760645f928360405195869485937f5dc9daa6000000000000000000000000000000000000000000000000000000008552600485015260248401526001600160a01b038d1660448401525af18015611d665715611b105790945067ffffffffffffffff8111611d52576040525f936020611b10565b634e487b7160e01b5f52604160045260245ffd5b6040513d5f823e3d90fd5b5f80fd5b606460405163d647364f60e01b815260206004820152601560248201527f4e6f742061206f6e652d73686f7420616374696f6e00000000000000000000006044820152fd5b634e487b7160e01b5f52602160045260245ffd5b503d90815f823e611ddf82826128f1565b6020818381010312611d715780519067ffffffffffffffff8211611d715761030092838383018284010312611d715760405193848181011067ffffffffffffffff8287011117611d52578401604052611e3983830161292a565b8452611e4960208484010161292a565b6020850152611e5c60408484010161292a565b6040850152606083830101516004811015611d71576060850152608083830101516080850152611e9060a08484010161292a565b60a085015260c083830101516005811015611d715760c085015260e0838301015160e0850152610100611ec6818585010161292a565b90850152610120611eda818585010161292a565b90850152610140611eee818585010161292a565b90850152610160611f02818585010161292a565b90850152610180611f16818585010161292a565b908501526101a0611f2a818585010161292a565b908501526101c0611f3e818585010161292a565b908501526101e0611f52818585010161291d565b90850152610200611f66818585010161292a565b9085015261022080848401015190850152610240611f87818585010161293b565b9085015261026080848401015167ffffffffffffffff8111611d7157611fb490838501908686010161296b565b9085015261028080848401015167ffffffffffffffff8111611d7157611fe190838501908686010161296b565b908501526102a080848401015167ffffffffffffffff8111611d71578484010191808401601f84011215611d7157825161201a816129b0565b9361202860405195866128f1565b81855260208086019260051b8201019286018311611d7157602001905b82821061208457505050840152606092919061207b906102c061206b84830182016129c8565b908501526102e0920182016129c8565b90820152611aaa565b8151815260209182019101612045565b602490604051907ffa2879040000000000000000000000000000000000000000000000000000000082526004820152fd5b90506020813d6020116120f7575b816120e0602093836128f1565b81010312611d71576120f19061291d565b5f611a3a565b3d91506120d3565b6024604051634a0bfec160e01b8152336004820152fd5b606460405163d647364f60e01b815260206004820152601360248201527f57696e6e6572206e6f7420617070726f766564000000000000000000000000006044820152fd5b606460405163d647364f60e01b815260206004820152601960248201527f4e6f2076616c7561626c6520616374696f6e206c696e6b6564000000000000006044820152fd5b60046040517f3ee5aeb5000000000000000000000000000000000000000000000000000000008152fd5b34611d71576020366003190112611d71576004355f52600860205260206001600160a01b0360405f205416604051908152f35b34611d71576040366003190112611d7157612216612713565b6004355f5260076020526001600160a01b0360405f2091165f52602052602060405f2054604051908152f35b34611d71575f366003190112611d715760206040516001600160a01b037f0000000000000000000000000000000000000000000000000000000000000000168152f35b34611d7157602080600319360112611d71575f60a06040516122a6816128b8565b82815282848201526060604082015282606082015282608082015201526004355f526003815260405f20604051906122dd826128b8565b805482526001600160a01b038060018301541690848401918252604051906123138261230c8160028801612827565b03836128f1565b6040850191825260046003850154946060870195865201549267ffffffffffffffff926080870192848616845260ff60a089019660401c1615158652808351161561239d5761238392604051998a99818b5251908a0152511660408801525160c0606088015260e08701906126ee565b93516080860152511660a084015251151560c08301520390f35b60405163d647364f60e01b815260206004820152601660248201527f436f6d6d656e7420646f6573206e6f74206578697374000000000000000000006044820152606490fd5b34611d71576040366003190112611d715760043560243590811515809203611d7157805f52600360205260405f206001600160a01b036001820154161561239d576004815491825f52600260205261244060405f20543390612ab4565b01805468ff00000000000000008560401b169068ff000000000000000019161790556040519283527f7610748fb4b32b3bf67e03a1270ea7ba36cff542a153f919a77377dcf6fa1b3a60203394a4005b34611d715761249e366126b7565b815f5260206002815260405f20906001600160a01b0390816001840154168015612674578495965033036124fb575b50506009015533917f8d5fc0ed86ffd70cb0ea9e86297a06bb7bf437980295fa82a47e1cf7debfc0ab5f80a4005b8254604051633688da7960e01b815260048101919091523360248201529293507f000000000000000000000000000000000000000000000000000000000000000091909116918181604481865afa908115611d66575f9161263f575b5015918261256f575b50506120ff57819084806124cd565b90915060405163a217fddf60e01b81528281600481855afa8015611d665783915f9161260e575b50604051632474521560e21b815260048101919091523360248201529182908180604481015b03915afa918215611d66575f926125d8575b5050158480612560565b90809250813d8311612607575b6125ef81836128f1565b81010312611d71576126009061291d565b84806125ce565b503d6125e5565b82819392503d8311612638575b61262581836128f1565b81010312611d71575182906125bc612596565b503d61261b565b90508181813d831161266d575b61265681836128f1565b81010312611d71576126679061291d565b86612557565b503d61264c565b63d647364f60e01b875260206004880152601660248801527f5265717565737420646f6573206e6f74206578697374000000000000000000006044880152606487fd5b6040906003190112611d71576004359060243590565b5f5b8381106126de5750505f910152565b81810151838201526020016126cf565b90602091612707815180928185528580860191016126cd565b601f01601f1916010190565b602435906001600160a01b0382168203611d7157565b9181601f84011215611d715782359167ffffffffffffffff8311611d715760208381860195010111611d7157565b906040600319830112611d7157600435916024359067ffffffffffffffff8211611d715761278791600401612729565b9091565b60209060206040818301928281528551809452019301915f5b8281106127b2575050505090565b8351855293810193928101926001016127a4565b80548210156127db575f5260205f2001905f90565b634e487b7160e01b5f52603260045260245ffd5b90600182811c9216801561281d575b602083101461280957565b634e487b7160e01b5f52602260045260245ffd5b91607f16916127fe565b80545f9392612835826127ef565b918282526020936001916001811690815f14612899575060011461285b575b5050505050565b90939495505f92919252835f2092845f945b83861061288557505050500101905f80808080612854565b80548587018301529401938590820161286d565b60ff19168685015250505090151560051b010191505f80808080612854565b60c0810190811067ffffffffffffffff821117611d5257604052565b6101c0810190811067ffffffffffffffff821117611d5257604052565b90601f8019910116810190811067ffffffffffffffff821117611d5257604052565b60031115611dba57565b51908115158203611d7157565b519063ffffffff82168203611d7157565b51906001600160a01b0382168203611d7157565b67ffffffffffffffff8111611d5257601f01601f191660200190565b81601f82011215611d715780516129818161294f565b9261298f60405194856128f1565b81845260208284010111611d71576129ad91602080850191016126cd565b90565b67ffffffffffffffff8111611d525760051b60200190565b519067ffffffffffffffff82168203611d7157565b908060209392818452848401375f828201840152601f01601f1916010190565b90612a07826129b0565b612a1460405191826128f1565b8281528092612a25601f19916129b0565b0190602036910137565b80518210156127db5760209160051b010190565b5f198114612a515760010190565b634e487b7160e01b5f52601160045260245ffd5b818110612a70575050565b5f8155600101612a65565b805468010000000000000000811015611d5257612a9d916001820181556127c6565b819291549060031b91821b915f19901b1916179055565b6001600160a01b0391827f000000000000000000000000000000000000000000000000000000000000000016916040918251937f797669c900000000000000000000000000000000000000000000000000000000855260209160049683878981865afa968715612d4b575f97612d55575b508551907f1ca5b571000000000000000000000000000000000000000000000000000000008252858983015282169687602483015260448201528381606481865afa908115612d4b575f91612d16575b50159384612c98575b5083612ba6575b505050612b9157505050565b602493505191634a0bfec160e01b8352820152fd5b90919250835163a217fddf60e01b815283818881865afa908115612c8e57908492915f91612c5b575b508551632474521560e21b81528881019182526001600160a01b03909216602082015290928391829081906040015b03915afa918215612c51575f92612c1b575b5050155f8080612b85565b90809250813d8311612c4a575b612c3281836128f1565b81010312611d7157612c439061291d565b5f80612c10565b503d612c28565b83513d5f823e3d90fd5b83819492503d8311612c87575b612c7281836128f1565b81010312611d71579051839190612bfe612bcf565b503d612c68565b85513d5f823e3d90fd5b8551633688da7960e01b81528881019182526001600160a01b03831660208301529194508390829081906040010381855afa908115612c8e575f91612ce1575b5015925f612b7e565b90508281813d8311612d0f575b612cf881836128f1565b81010312611d7157612d099061291d565b5f612cd8565b503d612cee565b90508381813d8311612d44575b612d2d81836128f1565b81010312611d7157612d3e9061291d565b5f612b75565b503d612d23565b86513d5f823e3d90fd5b9096508381813d8311612d7d575b612d6d81836128f1565b81010312611d715751955f612b25565b503d612d63565b6040908151907f370603f800000000000000000000000000000000000000000000000000000000825260048201525f816024816001600160a01b037f0000000000000000000000000000000000000000000000000000000000000000165afa9081612e36575b50612e33576064905163d647364f60e01b815260206004820152601860248201527f436f6d6d756e69747920646f6573206e6f7420657869737400000000000000006044820152fd5b50565b3d805f833e612e4581836128f1565b8101906020908181840312611d7157805167ffffffffffffffff91828211611d71570191610280918284860312611d7157865192830183811082821117611d525787528351818111611d715785612e9d91860161296b565b835281840151818111611d715785612eb691860161296b565b8284015286840151818111611d715785612ed191860161296b565b87840152612ee16060850161291d565b606084015260808401516080840152612efc60a0850161293b565b60a0840152612f0d60c0850161293b565b60c0840152612f1e60e0850161293b565b60e0840152610100612f3181860161293b565b90840152610120612f4381860161293b565b90840152610140612f5581860161293b565b90840152610160612f6781860161293b565b90840152610180612f7981860161293b565b908401526101a0612f8b81860161293b565b908401526101c0612f9d81860161293b565b908401526101e0612faf81860161293b565b90840152610200612fc181860161293b565b90840152610220612fd381860161293b565b9084015261024080850151908401526102609384810151918211611d7157019380601f86011215611d71578451613009816129b0565b95613016895197886128f1565b818752838088019260051b820101928311611d71578301905b828210613042575050505001525f612dea565b8151815290830190830161302f565b90815f52602091600783526040916001600160a01b03835f20911690815f528452825f20549182156128545762015180804204818102918183041490151715612a515783101561311c575b50504203428111612a5157603c116130b2575050565b60849250519063d647364f60e01b82526004820152602160248201527f506f737420746f6f20736f6f6e2061667465722070726576696f757320706f7360448201527f74000000000000000000000000000000000000000000000000000000000000006064820152fd5b5f5260068452825f20905f528352600a825f2054101561313d575f8061309c565b60648383519063d647364f60e01b82526004820152601360248201527f52617465206c696d6974206578636565646564000000000000000000000000006044820152fdfea26469706673582212205d3c91753b3b6daf480eb4804ae629be08d17a86942a84329c8029117a39490c64736f6c63430008180033","linkReferences":{}},"methodIdentifiers":{"addBounty(uint256,address,uint256)":"4dc71cde","approvedWinner(uint256)":"17392d17","comments(uint256)":"8ebb4c15","communityRegistry()":"a200ac86","communityRequests(uint256,uint256)":"ec83b4ac","completeEngagement(uint256,bytes)":"1aaafcec","createRequest(uint256,string,string,string[])":"9876e5f4","getComment(uint256)":"0800e300","getCommunityRequests(uint256)":"9aa75dd5","getRequest(uint256)":"c58343ef","getRequestComments(uint256)":"6c3f69e0","getRequestsByTag(uint256,string)":"3c77e8bf","linkValuableAction(uint256,uint256)":"006ee86f","moderateComment(uint256,bool)":"0473de27","nextCommentId()":"d0bdacbe","nextRequestId()":"6a84a985","postComment(uint256,uint256,string)":"ed0c9c92","requestComments(uint256,uint256)":"7d583055","requests(uint256)":"81d12c58","setApprovedWinner(uint256,address)":"956b2a22","setRequestStatus(uint256,uint8)":"ca83a826","treasuryAdapter()":"f0f186fb","userLastPostTime(uint256,address)":"113a80d3","userRequestCount(uint256,address)":"77d4b800","valuableActionRegistry()":"10127811"},"id":7}