{"abi":[{"type":"constructor","inputs":[{"name":"_communityRegistry","type":"address","internalType":"address"}],"stateMutability":"nonpayable"},{"type":"function","name":"addBounty","inputs":[{"name":"requestId","type":"uint256","internalType":"uint256"},{"name":"amount","type":"uint256","internalType":"uint256"}],"outputs":[],"stateMutability":"nonpayable"},{"type":"function","name":"comments","inputs":[{"name":"","type":"uint256","internalType":"uint256"}],"outputs":[{"name":"requestId","type":"uint256","internalType":"uint256"},{"name":"author","type":"address","internalType":"address"},{"name":"cid","type":"string","internalType":"string"},{"name":"parentCommentId","type":"uint256","internalType":"uint256"},{"name":"createdAt","type":"uint64","internalType":"uint64"},{"name":"isModerated","type":"bool","internalType":"bool"}],"stateMutability":"view"},{"type":"function","name":"communityRegistry","inputs":[],"outputs":[{"name":"","type":"address","internalType":"contract CommunityRegistry"}],"stateMutability":"view"},{"type":"function","name":"communityRequests","inputs":[{"name":"","type":"uint256","internalType":"uint256"},{"name":"","type":"uint256","internalType":"uint256"}],"outputs":[{"name":"","type":"uint256","internalType":"uint256"}],"stateMutability":"view"},{"type":"function","name":"createRequest","inputs":[{"name":"communityId","type":"uint256","internalType":"uint256"},{"name":"title","type":"string","internalType":"string"},{"name":"cid","type":"string","internalType":"string"},{"name":"tags","type":"string[]","internalType":"string[]"}],"outputs":[{"name":"requestId","type":"uint256","internalType":"uint256"}],"stateMutability":"nonpayable"},{"type":"function","name":"getComment","inputs":[{"name":"commentId","type":"uint256","internalType":"uint256"}],"outputs":[{"name":"comment","type":"tuple","internalType":"struct RequestHub.Comment","components":[{"name":"requestId","type":"uint256","internalType":"uint256"},{"name":"author","type":"address","internalType":"address"},{"name":"cid","type":"string","internalType":"string"},{"name":"parentCommentId","type":"uint256","internalType":"uint256"},{"name":"createdAt","type":"uint64","internalType":"uint64"},{"name":"isModerated","type":"bool","internalType":"bool"}]}],"stateMutability":"view"},{"type":"function","name":"getCommunityRequests","inputs":[{"name":"communityId","type":"uint256","internalType":"uint256"}],"outputs":[{"name":"","type":"uint256[]","internalType":"uint256[]"}],"stateMutability":"view"},{"type":"function","name":"getRequest","inputs":[{"name":"requestId","type":"uint256","internalType":"uint256"}],"outputs":[{"name":"request","type":"tuple","internalType":"struct RequestHub.Request","components":[{"name":"communityId","type":"uint256","internalType":"uint256"},{"name":"author","type":"address","internalType":"address"},{"name":"title","type":"string","internalType":"string"},{"name":"cid","type":"string","internalType":"string"},{"name":"status","type":"uint8","internalType":"enum RequestHub.Status"},{"name":"createdAt","type":"uint64","internalType":"uint64"},{"name":"lastActivity","type":"uint64","internalType":"uint64"},{"name":"tags","type":"string[]","internalType":"string[]"},{"name":"commentCount","type":"uint256","internalType":"uint256"},{"name":"bountyAmount","type":"uint256","internalType":"uint256"},{"name":"linkedValuableAction","type":"uint256","internalType":"uint256"}]}],"stateMutability":"view"},{"type":"function","name":"getRequestComments","inputs":[{"name":"requestId","type":"uint256","internalType":"uint256"}],"outputs":[{"name":"","type":"uint256[]","internalType":"uint256[]"}],"stateMutability":"view"},{"type":"function","name":"getRequestsByTag","inputs":[{"name":"communityId","type":"uint256","internalType":"uint256"},{"name":"tag","type":"string","internalType":"string"}],"outputs":[{"name":"requestIds","type":"uint256[]","internalType":"uint256[]"}],"stateMutability":"view"},{"type":"function","name":"linkValuableAction","inputs":[{"name":"requestId","type":"uint256","internalType":"uint256"},{"name":"valuableActionId","type":"uint256","internalType":"uint256"}],"outputs":[],"stateMutability":"nonpayable"},{"type":"function","name":"moderateComment","inputs":[{"name":"commentId","type":"uint256","internalType":"uint256"},{"name":"hide","type":"bool","internalType":"bool"}],"outputs":[],"stateMutability":"nonpayable"},{"type":"function","name":"nextCommentId","inputs":[],"outputs":[{"name":"","type":"uint256","internalType":"uint256"}],"stateMutability":"view"},{"type":"function","name":"nextRequestId","inputs":[],"outputs":[{"name":"","type":"uint256","internalType":"uint256"}],"stateMutability":"view"},{"type":"function","name":"postComment","inputs":[{"name":"requestId","type":"uint256","internalType":"uint256"},{"name":"parentCommentId","type":"uint256","internalType":"uint256"},{"name":"cid","type":"string","internalType":"string"}],"outputs":[{"name":"commentId","type":"uint256","internalType":"uint256"}],"stateMutability":"nonpayable"},{"type":"function","name":"requestComments","inputs":[{"name":"","type":"uint256","internalType":"uint256"},{"name":"","type":"uint256","internalType":"uint256"}],"outputs":[{"name":"","type":"uint256","internalType":"uint256"}],"stateMutability":"view"},{"type":"function","name":"requests","inputs":[{"name":"","type":"uint256","internalType":"uint256"}],"outputs":[{"name":"communityId","type":"uint256","internalType":"uint256"},{"name":"author","type":"address","internalType":"address"},{"name":"title","type":"string","internalType":"string"},{"name":"cid","type":"string","internalType":"string"},{"name":"status","type":"uint8","internalType":"enum RequestHub.Status"},{"name":"createdAt","type":"uint64","internalType":"uint64"},{"name":"lastActivity","type":"uint64","internalType":"uint64"},{"name":"commentCount","type":"uint256","internalType":"uint256"},{"name":"bountyAmount","type":"uint256","internalType":"uint256"},{"name":"linkedValuableAction","type":"uint256","internalType":"uint256"}],"stateMutability":"view"},{"type":"function","name":"setRequestStatus","inputs":[{"name":"requestId","type":"uint256","internalType":"uint256"},{"name":"newStatus","type":"uint8","internalType":"enum RequestHub.Status"}],"outputs":[],"stateMutability":"nonpayable"},{"type":"function","name":"userLastPostTime","inputs":[{"name":"","type":"uint256","internalType":"uint256"},{"name":"","type":"address","internalType":"address"}],"outputs":[{"name":"","type":"uint256","internalType":"uint256"}],"stateMutability":"view"},{"type":"function","name":"userRequestCount","inputs":[{"name":"","type":"uint256","internalType":"uint256"},{"name":"","type":"address","internalType":"address"}],"outputs":[{"name":"","type":"uint256","internalType":"uint256"}],"stateMutability":"view"},{"type":"event","name":"BountyAdded","inputs":[{"name":"requestId","type":"uint256","indexed":true,"internalType":"uint256"},{"name":"amount","type":"uint256","indexed":false,"internalType":"uint256"},{"name":"funder","type":"address","indexed":true,"internalType":"address"}],"anonymous":false},{"type":"event","name":"CommentModerated","inputs":[{"name":"requestId","type":"uint256","indexed":true,"internalType":"uint256"},{"name":"commentId","type":"uint256","indexed":true,"internalType":"uint256"},{"name":"moderator","type":"address","indexed":true,"internalType":"address"},{"name":"hidden","type":"bool","indexed":false,"internalType":"bool"}],"anonymous":false},{"type":"event","name":"CommentPosted","inputs":[{"name":"requestId","type":"uint256","indexed":true,"internalType":"uint256"},{"name":"commentId","type":"uint256","indexed":true,"internalType":"uint256"},{"name":"author","type":"address","indexed":true,"internalType":"address"},{"name":"cid","type":"string","indexed":false,"internalType":"string"},{"name":"parentCommentId","type":"uint256","indexed":false,"internalType":"uint256"}],"anonymous":false},{"type":"event","name":"RequestCreated","inputs":[{"name":"requestId","type":"uint256","indexed":true,"internalType":"uint256"},{"name":"communityId","type":"uint256","indexed":true,"internalType":"uint256"},{"name":"author","type":"address","indexed":true,"internalType":"address"},{"name":"title","type":"string","indexed":false,"internalType":"string"},{"name":"cid","type":"string","indexed":false,"internalType":"string"},{"name":"tags","type":"string[]","indexed":false,"internalType":"string[]"}],"anonymous":false},{"type":"event","name":"RequestStatusChanged","inputs":[{"name":"requestId","type":"uint256","indexed":true,"internalType":"uint256"},{"name":"newStatus","type":"uint8","indexed":true,"internalType":"enum RequestHub.Status"},{"name":"moderator","type":"address","indexed":true,"internalType":"address"}],"anonymous":false},{"type":"event","name":"ValuableActionLinking","inputs":[{"name":"requestId","type":"uint256","indexed":true,"internalType":"uint256"},{"name":"valuableActionId","type":"uint256","indexed":true,"internalType":"uint256"},{"name":"linker","type":"address","indexed":true,"internalType":"address"}],"anonymous":false},{"type":"error","name":"InvalidInput","inputs":[{"name":"reason","type":"string","internalType":"string"}]},{"type":"error","name":"NotAuthorized","inputs":[{"name":"caller","type":"address","internalType":"address"}]},{"type":"error","name":"ZeroAddress","inputs":[]}],"bytecode":{"object":"0x60a0346100a357601f620025e438819003918201601f19168301916001600160401b038311848410176100a7578084926020946040528339810103126100a357516001600160a01b038116908190036100a35760015f55600180558015610091576080526040516125289081620000bc8239608051818181610926015281816118c701528181611dd801526121320152f35b60405163d92e233d60e01b8152600490fd5b5f80fd5b634e487b7160e01b5f52604160045260245ffdfe6080806040526004361015610012575f80fd5b5f3560e01c9081626ee86f1461183a575080630473de271461178d5780630800e3001461162f578063113a80d3146115f757806323792f401461152b5780633c77e8bf1461137c5780636a84a985146113605780636c3f69e0146112f857806377d4b800146112c05780637d5830551461129157806381d12c58146111a35780638ebb4c151461110c5780639876e5f4146109c25780639aa75dd51461094a578063a200ac8614610907578063c58343ef14610649578063ca83a826146105c5578063d0bdacbe146105a8578063ec83b4ac1461056b5763ed0c9c92146100f7575f80fd5b346105675760603660031901126105675760443567ffffffffffffffff811161056757610128903690600401611b05565b6004355f52600260205260405f20906001600160a01b03600183015416156105215760ff600483015416600381101561050d5760018114908115610502575b506104bd57610178825433906123c2565b8015610477576024356103f4575b6001549161019383611d42565b600155825f52600360205260405f206004358155600181013373ffffffffffffffffffffffffffffffffffffffff1982541617905567ffffffffffffffff83116103e0576020948392826101eb600288950154611b97565b601f81116103a4575b505f601f86116001146103305790610229866102eb96976102b3945f91610325575b508160011b915f199060031b1c19161790565b60028201555b6024356003820155600467ffffffffffffffff421691018167ffffffffffffffff198254161790556004355f526005895261026d8660405f20611d66565b60048301907fffffffffffffffffffffffffffffff0000000000000000ffffffffffffffffff70ffffffffffffffff00000000000000000083549260481b169116179055565b600681016102c18154611d42565b9055545f526007865260405f20335f5286524260405f205560405193604085526040850191611d9f565b602435858401527f28511bc6c6cfc5218ae0e05cbff64ff36914a1092f843abd6a0e81e110ff6aac339380600435930390a4604051908152f35b90508601355f610216565b9450600281015f52875f205f5b601f198816811061038a5750906102b3916102eb959688601f19811610610371575b5050600187811b01600282015561022f565b8501355f1960038a901b60f8161c191690555f8061035f565b84870135825595890195889550600190910190890161033d565b6103d090600283015f52895f20601f880160051c8101918b89106103d6575b601f0160051c0190611d50565b5f6101f4565b90915081906103c3565b634e487b7160e01b5f52604160045260245ffd5b6024355f52600360205260043560405f2054031561018657608460405163d647364f60e01b815260206004820152602260248201527f506172656e7420636f6d6d656e74206e6f7420696e207468697320726571756560448201527f73740000000000000000000000000000000000000000000000000000000000006064820152fd5b60405163d647364f60e01b815260206004820152601b60248201527f436f6e74656e74204349442063616e6e6f7420626520656d70747900000000006044820152606490fd5b606460405163d647364f60e01b815260206004820152602060248201527f52657175657374206973206e6f74206f70656e20666f7220636f6d6d656e74736044820152fd5b60029150145f610167565b634e487b7160e01b5f52602160045260245ffd5b60405163d647364f60e01b815260206004820152601660248201527f5265717565737420646f6573206e6f74206578697374000000000000000000006044820152606490fd5b5f80fd5b346105675761057936611a83565b905f52600460205260405f2080548210156105675760209161059a91611b6e565b90546040519160031b1c8152f35b34610567575f366003190112610567576020600154604051908152f35b3461056757604036600319011261056757600435602435600381101561056757815f52600260205260405f206001600160a01b03600182015416156105215780610613600492543390611dcc565b0160ff1981541660ff831617905533917fed84828474f78e11e93760516d539ef1d87fe86a008202248ecff70fbb87fd205f80a4005b34610567576020366003190112610567575f61014060405161066a81611c7c565b828152826020820152606060408201526060808201528260808201528260a08201528260c0820152606060e0820152826101008201528261012082015201526004355f52600260205260405f20604051906106c482611c7c565b805482526001600160a01b0360018201541660208301526040516106f6816106ef8160028601611bcf565b0382611c99565b604083015260405161070f816106ef8160038601611bcf565b60608301526004810154600360ff8216101561050d578060ff67ffffffffffffffff92166080850152818160081c1660a085015260481c1660c0830152600581015461075a81611cc8565b906107686040519283611c99565b80825260208201600584015f5260205f205f915b8383106108e257866008878760e08401526006810154610100840152600781015461012084015201546101408201526001600160a01b036020820151161561052157604051809160208252805160208301526001600160a01b0360208201511660408301526107fc60408201516101606060850152610180840190611aba565b90610819606082015192601f199384868303016080870152611aba565b9161082c608083015160a0860190611cbb565b67ffffffffffffffff60a08301511660c085015267ffffffffffffffff60c08301511660e085015260e0820151928185820301610100860152835190818152602081016020808460051b8401019601935f925b8484106108af578880896101408a6101008101516101208501526101208101518285015201516101608301520390f35b91939596819395985060206108cf82600194868495030188528b51611aba565b990194019401918897969593949161087f565b6001602081926040516108f9816106ef8189611bcf565b81520192019201919061077c565b34610567575f3660031901126105675760206040516001600160a01b037f0000000000000000000000000000000000000000000000000000000000000000168152f35b3461056757602080600319360112610567576004355f52600460205260405f20906040519081602084549182815201935f5260205f20915f905b8282106109ab576109a78561099b81890382611c99565b60405191829182611b33565b0390f35b835486529485019460019384019390910190610984565b346105675760803660031901126105675760243567ffffffffffffffff8111610567576109f3903690600401611b05565b9060443567ffffffffffffffff811161056757610a14903690600401611b05565b67ffffffffffffffff60643511610567573660236064350112156105675767ffffffffffffffff6064356004013511610567573660246064356004013560051b60643501011161056757610a696004356120f5565b610a75336004356123c2565b83156110c7578015610477575f5492610a8d84611d42565b5f55835f52600260205260405f206004358155600181013373ffffffffffffffffffffffffffffffffffffffff1982541617905567ffffffffffffffff86116103e057610add6002820154611b97565b601f8111611094575b505f86601f811160011461102b5780610b12925f9161102057508160011b915f199060031b1c19161790565b60028201555b67ffffffffffffffff83116103e057610b346003820154611b97565b601f8111610fed575b505f83601f8111600114610f845780610b69925f91610f7957508160011b915f199060031b1c19161790565b60038201555b6004810180547fffffffffffffffffffffffffffffff00000000000000000000000000000000001642600881901b68ffffffffffffffff00169190911760489190911b70ffffffffffffffff000000000000000000161790556801000000000000000060643560040135116103e0576005810180546004606435013591829055908111610eff575b506005015f90815260208120906064356024015b606435600401358210610d6a5750505090610c8b610c9993926004355f526004602052610c3b8660405f20611d66565b6004355f52600660205260405f20335f5260205260405f20610c5d8154611d42565b90556004355f52600760205260405f20335f526020524260405f205560405196606088526060880191611d9f565b918583036020870152611d9f565b828103604084015260643560048101358083526020808401959360059290921b82010191602401905f5b606435600401358110610d065760208633600435827f8640514b9ed59fbcf0717a5d5e67138789295ba04a59f1005628b7f3c28e3d9f8a8a038ba4604051908152f35b909192601f1983820301875283356042196064353603018112156105675760643501906044602483013592019167ffffffffffffffff811161056757803603831361056757610d5b6020928392600195611d9f565b95019701910195919095610cc3565b80356064353603604219018112156105675767ffffffffffffffff602482606435010135116105675760643581016024810135360360449091011361056757610db38454611b97565b601f8111610ec6575b505f90601f60248260643501013511600114610e2c57600192610e0a84936020935f91602482606435010135610e19575b50602490606435010135908160011b915f199060031b1c19161790565b86555b01930191019091610c0b565b6064358201016044013591506024610ded565b90845f5260205f20905f5b606435840160240135601f19168110610ea75750600193849360209391928592602492916064358301840135601f19811610610e80575b5050606435010135811b018655610e0d565b60445f1960f8868660643501013560031b161c199184606435010101351690558e80610e6e565b9091602060018192604486886064350101013581550193019101610e37565b5f858152602090819020610ef992606435850160240135601f810160051c830193116103d657601f0160051c0190611d50565b89610dbc565b600582015f5260205f20906064356004013582015b8183018110610f24575050610bf7565b80610f3160019254611b97565b80610f3e575b5001610f14565b601f81118314610f5357505f81555b8a610f37565b5f90828252610f70601f60208420920160051c8201858301611d50565b81835555610f4d565b905086013589610216565b50600382015f5260205f20905f5b601f1986168110610fd5575084601f19811610610fbc575b5050600183811b016003820155610b6f565b8501355f19600386901b60f8161c191690558680610faa565b9091602060018192858a013581550193019101610f92565b61101a90600383015f5260205f20601f860160051c810191602087106103d657601f0160051c0190611d50565b86610b3d565b905084013589610216565b50600282015f5260205f20905f5b601f198916811061107c575087601f19811610611063575b5050600186811b016002820155610b18565b8301355f19600389901b60f8161c191690558680611051565b90916020600181928588013581550193019101611039565b6110c190600283015f5260205f20601f890160051c81019160208a106103d657601f0160051c0190611d50565b86610ae6565b606460405163d647364f60e01b815260206004820152601560248201527f5469746c652063616e6e6f7420626520656d70747900000000000000000000006044820152fd5b34610567576020366003190112610567576004355f52600360205260405f2080546001600160a01b036001830154169160ff604051611152816106ef8160028701611bcf565b61117e60046003850154940154916040519687968752602087015260c0604087015260c0860190611aba565b92606085015267ffffffffffffffff8116608085015260401c16151560a08301520390f35b34610567576020366003190112610567576004355f52600260205260405f208054906001600160a01b03600182015416906040516111e8816106ef8160028601611bcf565b60405191611204836111fd8160038501611bcf565b0384611c99565b60048101549267ffffffffffffffff61125760068401549261124960086007870154960154966040519a8b9a610140918c5260208c01528060408c01528a0190611aba565b9088820360608a0152611aba565b946112686080880160ff8316611cbb565b818160081c1660a088015260481c1660c086015260e08501526101008401526101208301520390f35b346105675761129f36611a83565b905f52600560205260405f2080548210156105675760209161059a91611b6e565b34610567576112ce36611adf565b905f5260066020526001600160a01b0360405f2091165f52602052602060405f2054604051908152f35b3461056757602080600319360112610567576004355f52600560205260405f20906040519081602084549182815201935f5260205f20915f905b828210611349576109a78561099b81890382611c99565b835486529485019460019384019390910190611332565b34610567575f3660031901126105675760205f54604051908152f35b346105675760403660031901126105675760243567ffffffffffffffff8111610567576113ad903690600401611b05565b906004355f5260206004815260405f206040518082848294549384815201905f52845f20925f5b86828210611515575050506113eb92500382611c99565b6113f58151611ce0565b905f905f5b81518110156114d35761140d8183611d12565b515f526002855260405f2060055f91018054915b828110611434575b5050506001016113fa565b6106ef61145761144a83859c979c9b969b611b6e565b5060405192838092611bcf565b8381519101206114668b611d26565b6114736040519182611c99565b8b815284810190368d880111610567575f868e808a863783010152519020146114a457600101979297969196611421565b5050945094806114b660019284611d12565b516114ca6114c386611d42565b9587611d12565b52908880611429565b50506114de81611ce0565b915f5b8281106114f657604051806109a78682611b33565b8061150360019284611d12565b5161150e8287611d12565b52016114e1565b85548452600195860195879550930192016113d4565b346105675761153936611a83565b90805f52600260205260405f206001600160a01b03600182015416156105215782156115b25760070180549083820180921161159e57556040519182527f9c70de3290bcb14b06a8143cd7be646cbe2a15de52c66e5437a78692d268b56b60203393a3005b634e487b7160e01b5f52601160045260245ffd5b606460405163d647364f60e01b815260206004820152601e60248201527f426f756e747920616d6f756e74206d75737420626520706f73697469766500006044820152fd5b346105675761160536611adf565b905f5260076020526001600160a01b0360405f2091165f52602052602060405f2054604051908152f35b3461056757602080600319360112610567575f60a060405161165081611c60565b82815282848201526060604082015282606082015282608082015201526004355f526003815260405f206040519061168782611c60565b805482526001600160a01b038060018301541690848401918252604051906116bd826116b68160028801611bcf565b0383611c99565b6040850191825260046003850154946060870195865201549267ffffffffffffffff926080870192848616845260ff60a089019660401c161515865280835116156117475761172d92604051998a99818b5251908a0152511660408801525160c0606088015260e0870190611aba565b93516080860152511660a084015251151560c08301520390f35b60405163d647364f60e01b815260206004820152601660248201527f436f6d6d656e7420646f6573206e6f74206578697374000000000000000000006044820152606490fd5b34610567576040366003190112610567576004356024359081151580920361056757805f52600360205260405f206001600160a01b0360018201541615611747576004815491825f5260026020526117ea60405f20543390611dcc565b01805468ff00000000000000008560401b169068ff000000000000000019161790556040519283527f7610748fb4b32b3bf67e03a1270ea7ba36cff542a153f919a77377dcf6fa1b3a60203394a4005b346105675761184836611a83565b815f5260206002815260405f20906001600160a01b0390816001840154168015611a40578495965033036118a5575b50506008015533917f8d5fc0ed86ffd70cb0ea9e86297a06bb7bf437980295fa82a47e1cf7debfc0ab5f80a4005b8254604051633688da7960e01b815260048101919091523360248201529293507f000000000000000000000000000000000000000000000000000000000000000091909116918181604481865afa9081156119cf575f91611a0b575b50159182611930575b50506119195781908480611877565b6024604051634a0bfec160e01b8152336004820152fd5b90915060405163a217fddf60e01b81528281600481855afa80156119cf5783915f916119da575b50604051632474521560e21b815260048101919091523360248201529182908180604481015b03915afa9182156119cf575f92611999575b505015848061190a565b90809250813d83116119c8575b6119b08183611c99565b81010312610567576119c190611dbf565b848061198f565b503d6119a6565b6040513d5f823e3d90fd5b82819392503d8311611a04575b6119f18183611c99565b810103126105675751829061197d611957565b503d6119e7565b90508181813d8311611a39575b611a228183611c99565b8101031261056757611a3390611dbf565b86611901565b503d611a18565b63d647364f60e01b875260206004880152601660248801527f5265717565737420646f6573206e6f74206578697374000000000000000000006044880152606487fd5b6040906003190112610567576004359060243590565b5f5b838110611aaa5750505f910152565b8181015183820152602001611a9b565b90602091611ad381518092818552858086019101611a99565b601f01601f1916010190565b604090600319011261056757600435906024356001600160a01b03811681036105675790565b9181601f840112156105675782359167ffffffffffffffff8311610567576020838186019501011161056757565b60209060206040818301928281528551809452019301915f5b828110611b5a575050505090565b835185529381019392810192600101611b4c565b8054821015611b83575f5260205f2001905f90565b634e487b7160e01b5f52603260045260245ffd5b90600182811c92168015611bc5575b6020831014611bb157565b634e487b7160e01b5f52602260045260245ffd5b91607f1691611ba6565b80545f9392611bdd82611b97565b918282526020936001916001811690815f14611c415750600114611c03575b5050505050565b90939495505f92919252835f2092845f945b838610611c2d57505050500101905f80808080611bfc565b805485870183015294019385908201611c15565b60ff19168685015250505090151560051b010191505f80808080611bfc565b60c0810190811067ffffffffffffffff8211176103e057604052565b610160810190811067ffffffffffffffff8211176103e057604052565b90601f8019910116810190811067ffffffffffffffff8211176103e057604052565b90600382101561050d5752565b67ffffffffffffffff81116103e05760051b60200190565b90611cea82611cc8565b611cf76040519182611c99565b8281528092611d08601f1991611cc8565b0190602036910137565b8051821015611b835760209160051b010190565b67ffffffffffffffff81116103e057601f01601f191660200190565b5f19811461159e5760010190565b818110611d5b575050565b5f8155600101611d50565b8054680100000000000000008110156103e057611d8891600182018155611b6e565b819291549060031b91821b915f19901b1916179055565b908060209392818452848401375f828201840152601f01601f1916010190565b5190811515820361056757565b6001600160a01b0391827f000000000000000000000000000000000000000000000000000000000000000016916040918251937f797669c900000000000000000000000000000000000000000000000000000000855260209160049683878981865afa968715612063575f9761206d575b508551907f1ca5b571000000000000000000000000000000000000000000000000000000008252858983015282169687602483015260448201528381606481865afa908115612063575f9161202e575b50159384611fb0575b5083611ebe575b505050611ea957505050565b602493505191634a0bfec160e01b8352820152fd5b90919250835163a217fddf60e01b815283818881865afa908115611fa657908492915f91611f73575b508551632474521560e21b81528881019182526001600160a01b03909216602082015290928391829081906040015b03915afa918215611f69575f92611f33575b5050155f8080611e9d565b90809250813d8311611f62575b611f4a8183611c99565b8101031261056757611f5b90611dbf565b5f80611f28565b503d611f40565b83513d5f823e3d90fd5b83819492503d8311611f9f575b611f8a8183611c99565b81010312610567579051839190611f16611ee7565b503d611f80565b85513d5f823e3d90fd5b8551633688da7960e01b81528881019182526001600160a01b03831660208301529194508390829081906040010381855afa908115611fa6575f91611ff9575b5015925f611e96565b90508281813d8311612027575b6120108183611c99565b810103126105675761202190611dbf565b5f611ff0565b503d612006565b90508381813d831161205c575b6120458183611c99565b810103126105675761205690611dbf565b5f611e8d565b503d61203b565b86513d5f823e3d90fd5b9096508381813d8311612095575b6120858183611c99565b810103126105675751955f611e3d565b503d61207b565b81601f820112156105675780516120b281611d26565b926120c06040519485611c99565b81845260208284010111610567576120de9160208085019101611a99565b90565b51906001600160a01b038216820361056757565b6040908151907f370603f800000000000000000000000000000000000000000000000000000000825260048201525f816024816001600160a01b037f0000000000000000000000000000000000000000000000000000000000000000165afa90816121a7575b506121a4576064905163d647364f60e01b815260206004820152601860248201527f436f6d6d756e69747920646f6573206e6f7420657869737400000000000000006044820152fd5b50565b3d805f833e6121b68183611c99565b810190602090818184031261056757805167ffffffffffffffff91828211610567570191610280918284860312610567578651928301838110828211176103e05787528351818111610567578561220e91860161209c565b835281840151818111610567578561222791860161209c565b8284015286840151818111610567578561224291860161209c565b8784015261225260608501611dbf565b60608401526080840151608084015261226d60a085016120e1565b60a084015261227e60c085016120e1565b60c084015261228f60e085016120e1565b60e08401526101006122a28186016120e1565b908401526101206122b48186016120e1565b908401526101406122c68186016120e1565b908401526101606122d88186016120e1565b908401526101806122ea8186016120e1565b908401526101a06122fc8186016120e1565b908401526101c061230e8186016120e1565b908401526101e06123208186016120e1565b908401526102006123328186016120e1565b908401526102206123448186016120e1565b908401526102408085015190840152610260938481015191821161056757019380601f8601121561056757845161237a81611cc8565b9561238789519788611c99565b818752838088019260051b820101928311610567578301905b8282106123b3575050505001525f61215b565b815181529083019083016123a0565b90815f52602091600783526040916001600160a01b03835f20911690815f528452825f2054918215611bfc576201518080420481810291818304149015171561159e5783101561248d575b5050420342811161159e57603c11612423575050565b60849250519063d647364f60e01b82526004820152602160248201527f506f737420746f6f20736f6f6e2061667465722070726576696f757320706f7360448201527f74000000000000000000000000000000000000000000000000000000000000006064820152fd5b5f5260068452825f20905f528352600a825f205410156124ae575f8061240d565b60648383519063d647364f60e01b82526004820152601360248201527f52617465206c696d6974206578636565646564000000000000000000000000006044820152fdfea26469706673582212200e45ce29c694defdedafaf64b18d50c3160c462a89e584143136273bc83d490e64736f6c63430008180033","linkReferences":{}},"methodIdentifiers":{"addBounty(uint256,uint256)":"23792f40","comments(uint256)":"8ebb4c15","communityRegistry()":"a200ac86","communityRequests(uint256,uint256)":"ec83b4ac","createRequest(uint256,string,string,string[])":"9876e5f4","getComment(uint256)":"0800e300","getCommunityRequests(uint256)":"9aa75dd5","getRequest(uint256)":"c58343ef","getRequestComments(uint256)":"6c3f69e0","getRequestsByTag(uint256,string)":"3c77e8bf","linkValuableAction(uint256,uint256)":"006ee86f","moderateComment(uint256,bool)":"0473de27","nextCommentId()":"d0bdacbe","nextRequestId()":"6a84a985","postComment(uint256,uint256,string)":"ed0c9c92","requestComments(uint256,uint256)":"7d583055","requests(uint256)":"81d12c58","setRequestStatus(uint256,uint8)":"ca83a826","userLastPostTime(uint256,address)":"113a80d3","userRequestCount(uint256,address)":"77d4b800"},"id":16}