{"abi":[{"type":"constructor","inputs":[{"name":"_communityRegistry","type":"address","internalType":"address"},{"name":"_valuableActionRegistry","type":"address","internalType":"address"}],"stateMutability":"nonpayable"},{"type":"function","name":"addBounty","inputs":[{"name":"requestId","type":"uint256","internalType":"uint256"},{"name":"token","type":"address","internalType":"address"},{"name":"amount","type":"uint256","internalType":"uint256"}],"outputs":[],"stateMutability":"nonpayable"},{"type":"function","name":"approvedWinner","inputs":[{"name":"","type":"uint256","internalType":"uint256"}],"outputs":[{"name":"","type":"address","internalType":"address"}],"stateMutability":"view"},{"type":"function","name":"boundCommunityId","inputs":[],"outputs":[{"name":"","type":"uint256","internalType":"uint256"}],"stateMutability":"view"},{"type":"function","name":"comments","inputs":[{"name":"","type":"uint256","internalType":"uint256"}],"outputs":[{"name":"requestId","type":"uint256","internalType":"uint256"},{"name":"author","type":"address","internalType":"address"},{"name":"cid","type":"string","internalType":"string"},{"name":"parentCommentId","type":"uint256","internalType":"uint256"},{"name":"createdAt","type":"uint64","internalType":"uint64"},{"name":"isModerated","type":"bool","internalType":"bool"}],"stateMutability":"view"},{"type":"function","name":"communityBound","inputs":[],"outputs":[{"name":"","type":"bool","internalType":"bool"}],"stateMutability":"view"},{"type":"function","name":"communityRegistry","inputs":[],"outputs":[{"name":"","type":"address","internalType":"contract CommunityRegistry"}],"stateMutability":"view"},{"type":"function","name":"completeEngagement","inputs":[{"name":"requestId","type":"uint256","internalType":"uint256"},{"name":"metadata","type":"bytes","internalType":"bytes"}],"outputs":[{"name":"engagementTokenId","type":"uint256","internalType":"uint256"}],"stateMutability":"nonpayable"},{"type":"function","name":"createRequest","inputs":[{"name":"communityId","type":"uint256","internalType":"uint256"},{"name":"title","type":"string","internalType":"string"},{"name":"cid","type":"string","internalType":"string"},{"name":"tags","type":"string[]","internalType":"string[]"}],"outputs":[{"name":"requestId","type":"uint256","internalType":"uint256"}],"stateMutability":"nonpayable"},{"type":"function","name":"getComment","inputs":[{"name":"commentId","type":"uint256","internalType":"uint256"}],"outputs":[{"name":"comment","type":"tuple","internalType":"struct RequestHub.Comment","components":[{"name":"requestId","type":"uint256","internalType":"uint256"},{"name":"author","type":"address","internalType":"address"},{"name":"cid","type":"string","internalType":"string"},{"name":"parentCommentId","type":"uint256","internalType":"uint256"},{"name":"createdAt","type":"uint64","internalType":"uint64"},{"name":"isModerated","type":"bool","internalType":"bool"}]}],"stateMutability":"view"},{"type":"function","name":"getCommunityRequests","inputs":[{"name":"communityId","type":"uint256","internalType":"uint256"}],"outputs":[{"name":"","type":"uint256[]","internalType":"uint256[]"}],"stateMutability":"view"},{"type":"function","name":"getRequest","inputs":[{"name":"requestId","type":"uint256","internalType":"uint256"}],"outputs":[{"name":"request","type":"tuple","internalType":"struct RequestHub.Request","components":[{"name":"communityId","type":"uint256","internalType":"uint256"},{"name":"author","type":"address","internalType":"address"},{"name":"title","type":"string","internalType":"string"},{"name":"cid","type":"string","internalType":"string"},{"name":"status","type":"uint8","internalType":"enum RequestHub.Status"},{"name":"createdAt","type":"uint64","internalType":"uint64"},{"name":"lastActivity","type":"uint64","internalType":"uint64"},{"name":"tags","type":"string[]","internalType":"string[]"},{"name":"commentCount","type":"uint256","internalType":"uint256"},{"name":"bountyToken","type":"address","internalType":"address"},{"name":"bountyAmount","type":"uint256","internalType":"uint256"},{"name":"linkedValuableAction","type":"uint256","internalType":"uint256"},{"name":"consumed","type":"bool","internalType":"bool"},{"name":"winner","type":"address","internalType":"address"}]}],"stateMutability":"view"},{"type":"function","name":"getRequestComments","inputs":[{"name":"requestId","type":"uint256","internalType":"uint256"}],"outputs":[{"name":"","type":"uint256[]","internalType":"uint256[]"}],"stateMutability":"view"},{"type":"function","name":"getRequestsByTag","inputs":[{"name":"communityId","type":"uint256","internalType":"uint256"},{"name":"tag","type":"string","internalType":"string"}],"outputs":[{"name":"requestIds","type":"uint256[]","internalType":"uint256[]"}],"stateMutability":"view"},{"type":"function","name":"getRequestsByTag","inputs":[{"name":"tag","type":"string","internalType":"string"}],"outputs":[{"name":"requestIds","type":"uint256[]","internalType":"uint256[]"}],"stateMutability":"view"},{"type":"function","name":"linkValuableAction","inputs":[{"name":"requestId","type":"uint256","internalType":"uint256"},{"name":"valuableActionId","type":"uint256","internalType":"uint256"}],"outputs":[],"stateMutability":"nonpayable"},{"type":"function","name":"moderateComment","inputs":[{"name":"commentId","type":"uint256","internalType":"uint256"},{"name":"hide","type":"bool","internalType":"bool"}],"outputs":[],"stateMutability":"nonpayable"},{"type":"function","name":"nextCommentId","inputs":[],"outputs":[{"name":"","type":"uint256","internalType":"uint256"}],"stateMutability":"view"},{"type":"function","name":"nextRequestId","inputs":[],"outputs":[{"name":"","type":"uint256","internalType":"uint256"}],"stateMutability":"view"},{"type":"function","name":"postComment","inputs":[{"name":"requestId","type":"uint256","internalType":"uint256"},{"name":"parentCommentId","type":"uint256","internalType":"uint256"},{"name":"cid","type":"string","internalType":"string"}],"outputs":[{"name":"commentId","type":"uint256","internalType":"uint256"}],"stateMutability":"nonpayable"},{"type":"function","name":"requestComments","inputs":[{"name":"","type":"uint256","internalType":"uint256"},{"name":"","type":"uint256","internalType":"uint256"}],"outputs":[{"name":"","type":"uint256","internalType":"uint256"}],"stateMutability":"view"},{"type":"function","name":"requests","inputs":[{"name":"","type":"uint256","internalType":"uint256"}],"outputs":[{"name":"communityId","type":"uint256","internalType":"uint256"},{"name":"author","type":"address","internalType":"address"},{"name":"title","type":"string","internalType":"string"},{"name":"cid","type":"string","internalType":"string"},{"name":"status","type":"uint8","internalType":"enum RequestHub.Status"},{"name":"createdAt","type":"uint64","internalType":"uint64"},{"name":"lastActivity","type":"uint64","internalType":"uint64"},{"name":"commentCount","type":"uint256","internalType":"uint256"},{"name":"bountyToken","type":"address","internalType":"address"},{"name":"bountyAmount","type":"uint256","internalType":"uint256"},{"name":"linkedValuableAction","type":"uint256","internalType":"uint256"},{"name":"consumed","type":"bool","internalType":"bool"},{"name":"winner","type":"address","internalType":"address"}],"stateMutability":"view"},{"type":"function","name":"setApprovedWinner","inputs":[{"name":"requestId","type":"uint256","internalType":"uint256"},{"name":"winner","type":"address","internalType":"address"}],"outputs":[],"stateMutability":"nonpayable"},{"type":"function","name":"setRequestStatus","inputs":[{"name":"requestId","type":"uint256","internalType":"uint256"},{"name":"newStatus","type":"uint8","internalType":"enum RequestHub.Status"}],"outputs":[],"stateMutability":"nonpayable"},{"type":"function","name":"userLastPostTime","inputs":[{"name":"","type":"address","internalType":"address"}],"outputs":[{"name":"","type":"uint256","internalType":"uint256"}],"stateMutability":"view"},{"type":"function","name":"userRequestCount","inputs":[{"name":"","type":"address","internalType":"address"}],"outputs":[{"name":"","type":"uint256","internalType":"uint256"}],"stateMutability":"view"},{"type":"function","name":"valuableActionRegistry","inputs":[],"outputs":[{"name":"","type":"address","internalType":"contract IValuableActionRegistry"}],"stateMutability":"view"},{"type":"event","name":"ApprovedWinnerSet","inputs":[{"name":"requestId","type":"uint256","indexed":true,"internalType":"uint256"},{"name":"winner","type":"address","indexed":true,"internalType":"address"},{"name":"setter","type":"address","indexed":true,"internalType":"address"}],"anonymous":false},{"type":"event","name":"BountyAdded","inputs":[{"name":"requestId","type":"uint256","indexed":true,"internalType":"uint256"},{"name":"communityId","type":"uint256","indexed":true,"internalType":"uint256"},{"name":"token","type":"address","indexed":true,"internalType":"address"},{"name":"amount","type":"uint256","indexed":false,"internalType":"uint256"},{"name":"funder","type":"address","indexed":false,"internalType":"address"}],"anonymous":false},{"type":"event","name":"BountyReady","inputs":[{"name":"requestId","type":"uint256","indexed":true,"internalType":"uint256"},{"name":"communityId","type":"uint256","indexed":true,"internalType":"uint256"},{"name":"winner","type":"address","indexed":true,"internalType":"address"},{"name":"token","type":"address","indexed":false,"internalType":"address"},{"name":"amount","type":"uint256","indexed":false,"internalType":"uint256"}],"anonymous":false},{"type":"event","name":"CommentModerated","inputs":[{"name":"requestId","type":"uint256","indexed":true,"internalType":"uint256"},{"name":"commentId","type":"uint256","indexed":true,"internalType":"uint256"},{"name":"moderator","type":"address","indexed":true,"internalType":"address"},{"name":"hidden","type":"bool","indexed":false,"internalType":"bool"}],"anonymous":false},{"type":"event","name":"CommentPosted","inputs":[{"name":"requestId","type":"uint256","indexed":true,"internalType":"uint256"},{"name":"commentId","type":"uint256","indexed":true,"internalType":"uint256"},{"name":"author","type":"address","indexed":true,"internalType":"address"},{"name":"cid","type":"string","indexed":false,"internalType":"string"},{"name":"parentCommentId","type":"uint256","indexed":false,"internalType":"uint256"}],"anonymous":false},{"type":"event","name":"OneShotEngagementCompleted","inputs":[{"name":"requestId","type":"uint256","indexed":true,"internalType":"uint256"},{"name":"winner","type":"address","indexed":true,"internalType":"address"},{"name":"bountyToken","type":"address","indexed":false,"internalType":"address"},{"name":"bountyAmount","type":"uint256","indexed":false,"internalType":"uint256"},{"name":"engagementTokenId","type":"uint256","indexed":false,"internalType":"uint256"}],"anonymous":false},{"type":"event","name":"RequestCreated","inputs":[{"name":"requestId","type":"uint256","indexed":true,"internalType":"uint256"},{"name":"communityId","type":"uint256","indexed":true,"internalType":"uint256"},{"name":"author","type":"address","indexed":true,"internalType":"address"},{"name":"title","type":"string","indexed":false,"internalType":"string"},{"name":"cid","type":"string","indexed":false,"internalType":"string"},{"name":"tags","type":"string[]","indexed":false,"internalType":"string[]"}],"anonymous":false},{"type":"event","name":"RequestStatusChanged","inputs":[{"name":"requestId","type":"uint256","indexed":true,"internalType":"uint256"},{"name":"newStatus","type":"uint8","indexed":true,"internalType":"enum RequestHub.Status"},{"name":"moderator","type":"address","indexed":true,"internalType":"address"}],"anonymous":false},{"type":"event","name":"ValuableActionLinking","inputs":[{"name":"requestId","type":"uint256","indexed":true,"internalType":"uint256"},{"name":"valuableActionId","type":"uint256","indexed":true,"internalType":"uint256"},{"name":"linker","type":"address","indexed":true,"internalType":"address"}],"anonymous":false},{"type":"error","name":"InvalidInput","inputs":[{"name":"reason","type":"string","internalType":"string"}]},{"type":"error","name":"InvalidValuableAction","inputs":[{"name":"valuableActionId","type":"uint256","internalType":"uint256"}]},{"type":"error","name":"NotAuthorized","inputs":[{"name":"caller","type":"address","internalType":"address"}]},{"type":"error","name":"ReentrancyGuardReentrantCall","inputs":[]},{"type":"error","name":"SafeERC20FailedOperation","inputs":[{"name":"token","type":"address","internalType":"address"}]},{"type":"error","name":"ZeroAddress","inputs":[]}],"bytecode":{"object":"0x60c0346200010e57601f6200344938819003918201601f19168301916001600160401b03831184841017620001125780849260409485528339810103126200010e576200005a6020620000528362000126565b920162000126565b60017f9b779b17422d0df92223018b32b4d1fa46e071723d6817e2486d003becc55f008190555f81905580556001600160a01b0391821691908215620000fc5716908115620000fc5760805260a05260405161330d90816200013c8239608051818181610a12015281816116f801528181611a6f0152818161242b01528181612cca015261311c015260a051818181611b0c01528181611d7d0152611fea0152f35b60405163d92e233d60e01b8152600490fd5b5f80fd5b634e487b7160e01b5f52604160045260245ffd5b51906001600160a01b03821682036200010e5756fe6080806040526004361015610012575f80fd5b5f3560e01c9081626ee86f14611fab575080630473de2714611eff5780630800e30014611da15780631012781114611d5e57806317392d1714611d2b5780631aaafcec146119735780633c77e8bf14611959578063446693bc146119375780634dc71cde1461166b57806355883d8f1461164e5780636a84a985146116325780636c3f69e0146115ca5780637d5830551461158d57806381d12c581461146f5780638ebb4c15146113d8578063956b2a22146112615780639876e5f414610a8d5780639aa75dd514610a6e578063a1624bbc14610a36578063a200ac86146109f3578063c58343ef146106cf578063ca83a82614610639578063d0bdacbe1461061c578063eb78dff0146105cf578063ed0c9c92146101755763f94c04fc14610139575f80fd5b34610171576020366003190112610171576001600160a01b0361015a6125ff565b165f526008602052602060405f2054604051908152f35b5f80fd5b346101715760603660031901126101715760043567ffffffffffffffff602435604435828111610171576101ad90369060040161254c565b929093805f526020946004865260405f209460016001600160a01b0381880154161561058957600487019260ff8454166101e68161276a565b828114908115610575575b50610531576101ff336131b9565b82156104eb578661046d575b81549761021789612c50565b8355885f5260058a5260405f20968688558388013373ffffffffffffffffffffffffffffffffffffffff19825416179055600288018186116103aa5761025d815461262a565b8c601f8211610433575b5050855f8d601f83116001146103c9575081600494939261029c925f916103be575b508160011b915f199060031b1c19161790565b90555b8960038a0155421697018767ffffffffffffffff19825416179055855f5260078a5260405f2090815491680100000000000000008310156103aa578a987f28511bc6c6cfc5218ae0e05cbff64ff36914a1092f843abd6a0e81e110ff6aac976103158561036b9461039799600698018155612615565b81549060031b908d821b915f19901b1916179055907fffffffffffffffffffffffffffffff0000000000000000ffffffffffffffffff70ffffffffffffffff00000000000000000083549260481b169116179055565b016103768154612c50565b9055335f52600989524260405f205560405192604084526040840191612b3e565b94878201528033950390a4604051908152f35b634e487b7160e01b5f52604160045260245ffd5b90508701355f610289565b93929150601f19881690825f5288855f20925f965b8a8289106104195750506004965010610400575b50508587811b01905561029f565b8601355f1960038a901b60f8161c191690558d806103f2565b8a85013586559781019790940193928301928b92506103de565b61045c91835f52815f2090601f8a0160051c8201928a10610463575b601f0160051c0190612c5e565b8c8c610267565b909150819061044f565b865f52600589528460405f2054031561020b576084896040519063d647364f60e01b82526004820152602260248201527f506172656e7420636f6d6d656e74206e6f7420696e207468697320726571756560448201527f73740000000000000000000000000000000000000000000000000000000000006064820152fd5b60405163d647364f60e01b815260206004820152601b60248201527f436f6e74656e74204349442063616e6e6f7420626520656d70747900000000006044820152606490fd5b6064896040519063d647364f60e01b825280600483015260248201527f52657175657374206973206e6f74206f70656e20666f7220636f6d6d656e74736044820152fd5b600291506105828161276a565b148a6101f1565b60405163d647364f60e01b815260206004820152601660248201527f5265717565737420646f6573206e6f74206578697374000000000000000000006044820152606490fd5b346101715760203660031901126101715760043567ffffffffffffffff81116101715761060c61060661061892369060040161254c565b90612ca9565b604051918291826125ae565b0390f35b34610171575f366003190112610171576020600154604051908152f35b3461017157604036600319011261017157600435602435600381101561017157815f52600460205260405f206001600160a01b03600182015416156105895780610687600492543390612cbe565b016106918261276a565b60ff1981541660ff83161790556106a78161276a565b33917fed84828474f78e11e93760516d539ef1d87fe86a008202248ecff70fbb87fd205f80a4005b34610171576020366003190112610171575f6101a06040516106f08161270f565b828152826020820152606060408201526060808201528260808201528260a08201528260c0820152606060e0820152826101008201528261012082015282610140820152826101608201528261018082015201526004355f52600460205260405f206040519061075f8261270f565b805482526001600160a01b0360018201541660208301526040516107918161078a8160028601612662565b0382612748565b60408301526040516107aa8161078a8160038601612662565b606083015267ffffffffffffffff600482015460ff81166107ca8161276a565b6080850152818160081c1660a085015260481c1660c08301526005810180546107f28161281b565b916108006040519384612748565b81835260208301905f5260205f205f915b8383106109ce57866001600160a01b03600a888860e085015260068101546101008501528260078201541661012085015260088101546101408501526009810154610160850152015460ff8116151561018084015260081c166101a08201526001600160a01b03602082015116156105895760405160208152815160208201526001600160a01b0360208301511660408201526108d86108c260408401516101c060608501526101e0840190612527565b6060840151838203601f19016080850152612527565b60808301516108e68161276a565b60a083015267ffffffffffffffff60a08401511660c083015267ffffffffffffffff60c08401511660e083015260e083015190601f1983820301610100840152815180825260208201916020808360051b8301019401925f915b8383106109a1578680876001600160a01b036101a08c61010081015161012086015282610120820151166101408601526101408101516101608601526101608101516101808601526101808101511515828601520151166101c08301520390f35b90919293946020806109bf600193601f198682030187528951612527565b97019301930191939290610940565b6001602081926040516109e58161078a8189612662565b815201920192019190610811565b34610171575f3660031901126101715760206040516001600160a01b037f0000000000000000000000000000000000000000000000000000000000000000168152f35b34610171576020366003190112610171576001600160a01b03610a576125ff565b165f526009602052602060405f2054604051908152f35b346101715760203660031901126101715761061861060c600435612c74565b346101715760803660031901126101715760243567ffffffffffffffff811161017157610abe90369060040161254c565b9060443567ffffffffffffffff811161017157610adf90369060040161254c565b919067ffffffffffffffff60643511610171573660236064350112156101715767ffffffffffffffff6064356004013511610171573660246064356004013560051b60643501011161017157610b3660043561309e565b620151804204620151808042040204620151801462015180420415171561124d57335f526009602052620151808042040260405f20541061123d575b610b7b336131b9565b83156111f85782156104eb575f5492610b9384612c50565b5f55835f52600460205260405f206004358155600181013373ffffffffffffffffffffffffffffffffffffffff1982541617905567ffffffffffffffff86116103aa57610be3600282015461262a565b601f81116111c5575b505f86601f811160011461115c5780610c18925f9161115157508160011b915f199060031b1c19161790565b60028201555b67ffffffffffffffff82116103aa57610c3a600382015461262a565b601f811161111e575b505f82601f81116001146110b55780610c6f925f916110aa57508160011b915f199060031b1c19161790565b60038201555b6004810180547fffffffffffffffffffffffffffffff00000000000000000000000000000000001642600881901b68ffffffffffffffff00169190911760489190911b70ffffffffffffffff000000000000000000161790556801000000000000000060643560040135116103aa576005810180546004606435013591829055908111611030575b506005015f90815260208120906064356024015b606435600401358210610e9b57505050600654680100000000000000008110156103aa576001810180600655811015610e8757610db69385610da8927ff652222313e28459528d920b65115c16c04f3efc82aaedc97be59f3f377c0d3f0155335f52600860205260405f20610d868154612c50565b9055335f5260096020524260405f205560405196606088526060880191612b3e565b918583036020870152612b3e565b828103604084015260643560048101358083526020808401959360059290921b82010191602401905f5b606435600401358110610e235760208633600435827f8640514b9ed59fbcf0717a5d5e67138789295ba04a59f1005628b7f3c28e3d9f8a8a038ba4604051908152f35b909192601f1983820301875283356042196064353603018112156101715760643501906044602483013592019167ffffffffffffffff811161017157803603831361017157610e786020928392600195612b3e565b95019701910195919095610de0565b634e487b7160e01b5f52603260045260245ffd5b80356064353603604219018112156101715767ffffffffffffffff602482606435010135116101715760643581016024810135360360449091011361017157610ee4845461262a565b601f8111610ff7575b505f90601f60248260643501013511600114610f5d57600192610f3b84936020935f91602482606435010135610f4a575b50602490606435010135908160011b915f199060031b1c19161790565b86555b01930191019091610d11565b6064358201016044013591506024610f1e565b90845f5260205f20905f5b606435840160240135601f19168110610fd85750600193849360209391928592602492916064358301840135601f19811610610fb1575b5050606435010135811b018655610f3e565b60445f1960f8868660643501013560031b161c199184606435010101351690558e80610f9f565b9091602060018192604486886064350101013581550193019101610f68565b5f85815260209081902061102a92606435850160240135601f810160051c8301931161046357601f0160051c0190612c5e565b89610eed565b600582015f5260205f20906064356004013582015b8183018110611055575050610cfd565b806110626001925461262a565b8061106f575b5001611045565b601f8111831461108457505f81555b8a611068565b5f908282526110a1601f60208420920160051c8201858301612c5e565b8183555561107e565b905085013589610289565b50600382015f5260205f20905f5b601f1985168110611106575083601f198116106110ed575b5050600182811b016003820155610c75565b8401355f19600385901b60f8161c1916905586806110db565b909160206001819285890135815501930191016110c3565b61114b90600383015f5260205f20601f850160051c8101916020861061046357601f0160051c0190612c5e565b86610c43565b905086013589610289565b50600282015f5260205f20905f5b601f19891681106111ad575087601f19811610611194575b5050600186811b016002820155610c1e565b8501355f19600389901b60f8161c191690558680611182565b9091602060018192858a01358155019301910161116a565b6111f290600283015f5260205f20601f890160051c81019160208a1061046357601f0160051c0190612c5e565b86610bec565b606460405163d647364f60e01b815260206004820152601560248201527f5469746c652063616e6e6f7420626520656d70747900000000000000000000006044820152fd5b60086020525f6040812055610b72565b634e487b7160e01b5f52601160045260245ffd5b346101715760403660031901126101715760043561127d6125e9565b815f52600460205260405f206001600160a01b039182600183015416156105895782906112ac83543390612cbe565b169182156113ae57835f52600a60205260405f20541661136857600a015460ff1661132257815f52600a60205260405f208173ffffffffffffffffffffffffffffffffffffffff1982541617905533917fe616175a572fb3c2bb47e9f230963adba80c8b254b1f70eaf8197ca103ea588f5f80a4005b60405163d647364f60e01b815260206004820152601860248201527f5265717565737420616c726561647920636f6e73756d656400000000000000006044820152606490fd5b60405163d647364f60e01b815260206004820152601760248201527f57696e6e657220616c726561647920617070726f7665640000000000000000006044820152606490fd5b60046040517fd92e233d000000000000000000000000000000000000000000000000000000008152fd5b34610171576020366003190112610171576004355f52600560205260405f2080546001600160a01b036001830154169160ff60405161141e8161078a8160028701612662565b61144a60046003850154940154916040519687968752602087015260c0604087015260c0860190612527565b92606085015267ffffffffffffffff8116608085015260401c16151560a08301520390f35b34610171576020366003190112610171576004355f52600460205260405f208054906001600160a01b039081600182015416916040516114b68161078a8160028701612662565b604051926114d2846114cb8160038501612662565b0385612748565b60048101549360ff85169467ffffffffffffffff600684015490866007860154169261153960088701549561152b600a60098a0154990154996040519e8f9e8f906101a092825260208201528160408201520190612527565b8c810360608e015290612527565b986115438161276a565b60808b0152818160081c1660a08b015260481c1660c089015260e088015261010087015261012086015261014085015260ff8116151561016085015260081c166101808301520390f35b346101715761159b366124f0565b905f52600760205260405f208054821015610171576020916115bc91612615565b90546040519160031b1c8152f35b3461017157602080600319360112610171576004355f52600760205260405f20906040519081602084549182815201935f5260205f20915f905b82821061161b576106188561060c81890382612748565b835486529485019460019384019390910190611604565b34610171575f3660031901126101715760205f54604051908152f35b34610171575f366003190112610171576020600254604051908152f35b34610171576060366003190112610171576004356116876125e9565b9060443590805f52600460205260405f206001600160a01b039384600183015416156105895784169384156113ae5783156118f257825f52600a6020528060405f2054166113685760ff600a83015416611322578154604051906306e0c07f60e31b825260048201525f81602481857f0000000000000000000000000000000000000000000000000000000000000000165afa80156118e7576102e0915f916118c5575b500191818351161561187f576007810182815416878115159182611874575b505061182f57600882018054918288106117ea577f02dd80c249c8802f84c8f278c122fc7ba506ae258312f2199ef8058c13c1ecec956117d09561178f8a9586612bd5565b90816117d5575b5050815473ffffffffffffffffffffffffffffffffffffffff19168a17909155505554604080519586523360208701529094918291820190565b0390a4005b6117e2925116338c612ea6565b898080611796565b606460405163d647364f60e01b815260206004820152601660248201527f426f756e74792063616e6e6f74206465637265617365000000000000000000006044820152fd5b606460405163d647364f60e01b815260206004820152601560248201527f426f756e747920746f6b656e206d69736d6174636800000000000000000000006044820152fd5b14159050878961174a565b60405163d647364f60e01b815260206004820152601660248201527f5472656173757279207661756c74206e6f7420736574000000000000000000006044820152606490fd5b6118e191503d805f833e6118d98183612748565b810190612848565b8761172b565b6040513d5f823e3d90fd5b606460405163d647364f60e01b815260206004820152601e60248201527f426f756e747920616d6f756e74206d75737420626520706f73697469766500006044820152fd5b34610171575f36600319011261017157602060ff600354166040519015158152f35b346101715761061861060c61196d3661257a565b91612b90565b34610171576119813661257a565b917f9b779b17422d0df92223018b32b4d1fa46e071723d6817e2486d003becc55f00906002825414611d015760028255805f52600460205260405f20906001600160a01b03948560018401541615610589576009830154958615611cbc57825f52600a60205260405f205493818516948515611c7757600a820190815460ff811661132257873303611c60577fffffffffffffffffffffff00000000000000000000000000000000000000000074ffffffffffffffffffffffffffffffffffffffff0060019360081b16911617179055805497604051986306e0c07f60e31b8a5260048a01525f89602481867f0000000000000000000000000000000000000000000000000000000000000000165afa9889156118e7575f99611c44575b5060088201938454151580611c35575b61187f57602091611b066040519a8b9384937f713049400000000000000000000000000000000000000000000000000000000085528b60048601525f60248601526044850152608060648501526084840191612b3e565b03815f867f0000000000000000000000000000000000000000000000000000000000000000165af19687156118e7575f97611bf2575b50827f5484933aef1963ce01e45b11157d880787d4e0778c011ef0457b59591a8b605f9260076060938860209c60019b9a99985480611b98575b505050015416905460405191825289820152876040820152a355604051908152f35b611bb3908386860193886102e0818754169201511690612ea6565b887f931b9b36fdb92aa1c02e7f03b93e86db7244021807d9f0f75813f7f4a9e76ca76040878654945416895482519182526020820152a4878d80611b76565b91959493929796506020823d602011611c2d575b81611c1360209383612748565b810103126101715790519596939492939192906001611b3c565b3d9150611c06565b50836102e08b01511615611aaf565b611c599199503d805f833e6118d98183612748565b9789611a9f565b6024604051634a0bfec160e01b8152336004820152fd5b606460405163d647364f60e01b815260206004820152601360248201527f57696e6e6572206e6f7420617070726f766564000000000000000000000000006044820152fd5b606460405163d647364f60e01b815260206004820152601960248201527f4e6f2076616c7561626c6520616374696f6e206c696e6b6564000000000000006044820152fd5b60046040517f3ee5aeb5000000000000000000000000000000000000000000000000000000008152fd5b34610171576020366003190112610171576004355f52600a60205260206001600160a01b0360405f205416604051908152f35b34610171575f3660031901126101715760206040516001600160a01b037f0000000000000000000000000000000000000000000000000000000000000000168152f35b3461017157602080600319360112610171575f60a0604051611dc2816126f3565b82815282848201526060604082015282606082015282608082015201526004355f526005815260405f2060405190611df9826126f3565b805482526001600160a01b03806001830154169084840191825260405190611e2f82611e288160028801612662565b0383612748565b6040850191825260046003850154946060870195865201549267ffffffffffffffff926080870192848616845260ff60a089019660401c16151586528083511615611eb957611e9f92604051998a99818b5251908a0152511660408801525160c0606088015260e0870190612527565b93516080860152511660a084015251151560c08301520390f35b60405163d647364f60e01b815260206004820152601660248201527f436f6d6d656e7420646f6573206e6f74206578697374000000000000000000006044820152606490fd5b34610171576040366003190112610171576004356024359081151580920361017157805f52600560205260405f206001600160a01b0360018201541615611eb9576004815491825f5281602052611f5b60405f20543390612cbe565b01805468ff00000000000000008560401b169068ff000000000000000019161790556040519283527f7610748fb4b32b3bf67e03a1270ea7ba36cff542a153f919a77377dcf6fa1b3a60203394a4005b3461017157611fb9366124f0565b9091825f5260206004815260405f20916001600160a01b0390816001850154169081156124ad57503303612407575b7f000000000000000000000000000000000000000000000000000000000000000016604051907fe9ea801c00000000000000000000000000000000000000000000000000000000825284600483015260249183818481855afa9081156118e7575f916123d2575b50156123a2575f8291604051928380927f5cfdb8620000000000000000000000000000000000000000000000000000000082528960048301525afa80156118e7575f90612131575b606091500151600481101561211e576120da57505060098291015533917f8d5fc0ed86ffd70cb0ea9e86297a06bb7bf437980295fa82a47e1cf7debfc0ab5f80a4005b9060156064926040519263d647364f60e01b845260048401528201527f4e6f742061206f6e652d73686f7420616374696f6e00000000000000000000006044820152fd5b50634e487b7160e01b5f5260216004525ffd5b503d805f833e6121418183612748565b8101838282031261017157815167ffffffffffffffff92838211610171570190610300928383830312610171576040519384018481108282111761238f5760405261218b83612795565b8452612198868401612795565b868501526121a860408401612795565b604085015260608301516004811015610171576060850152608083015160808501526121d660a08401612795565b60a085015260c083015160058110156101715760c085015260e083015160e0850152610100612206818501612795565b90850152610120612218818501612795565b9085015261014061222a818501612795565b9085015261016061223c818501612795565b9085015261018061224e818501612795565b908501526101a0612260818501612795565b908501526101c0612272818501612795565b908501526101e0612284818501612788565b90850152610200612296818501612795565b9085015261022080840151908501526102406122b38185016127a6565b908501526102608084015182811161017157836122d19186016127d6565b908501526102808084015182811161017157836122ef9186016127d6565b908501526102a090818401519081116101715783019180601f8401121561017157825161231b8161281b565b936123296040519586612748565b818552888086019260051b8201019283116101715788809101915b83831061237f5750505050830152606091906102c0612364818301612833565b908301526123766102e0809201612833565b90820152612097565b8251815291810191899101612344565b85634e487b7160e01b5f5260416004525ffd5b5083604051907ffa2879040000000000000000000000000000000000000000000000000000000082526004820152fd5b90508381813d8311612400575b6123e98183612748565b81010312610171576123fa90612788565b8761204f565b503d6123df565b8254604051633688da7960e01b8152600481019190915233602482015282816044817f000000000000000000000000000000000000000000000000000000000000000086165afa9081156118e7575f91612478575b50611fe8576024604051634a0bfec160e01b8152336004820152fd5b90508281813d83116124a6575b61248f8183612748565b81010312610171576124a090612788565b8661245c565b503d612485565b63d647364f60e01b815260206004820152601660248201527f5265717565737420646f6573206e6f74206578697374000000000000000000006044820152606490fd5b6040906003190112610171576004359060243590565b5f5b8381106125175750505f910152565b8181015183820152602001612508565b9060209161254081518092818552858086019101612506565b601f01601f1916010190565b9181601f840112156101715782359167ffffffffffffffff8311610171576020838186019501011161017157565b90604060031983011261017157600435916024359067ffffffffffffffff8211610171576125aa9160040161254c565b9091565b60209060206040818301928281528551809452019301915f5b8281106125d5575050505090565b8351855293810193928101926001016125c7565b602435906001600160a01b038216820361017157565b600435906001600160a01b038216820361017157565b8054821015610e87575f5260205f2001905f90565b90600182811c92168015612658575b602083101461264457565b634e487b7160e01b5f52602260045260245ffd5b91607f1691612639565b80545f93926126708261262a565b918282526020936001916001811690815f146126d45750600114612696575b5050505050565b90939495505f92919252835f2092845f945b8386106126c057505050500101905f8080808061268f565b8054858701830152940193859082016126a8565b60ff19168685015250505090151560051b010191505f8080808061268f565b60c0810190811067ffffffffffffffff8211176103aa57604052565b6101c0810190811067ffffffffffffffff8211176103aa57604052565b6020810190811067ffffffffffffffff8211176103aa57604052565b90601f8019910116810190811067ffffffffffffffff8211176103aa57604052565b6003111561277457565b634e487b7160e01b5f52602160045260245ffd5b5190811515820361017157565b519063ffffffff8216820361017157565b51906001600160a01b038216820361017157565b67ffffffffffffffff81116103aa57601f01601f191660200190565b81601f820112156101715780516127ec816127ba565b926127fa6040519485612748565b81845260208284010111610171576128189160208085019101612506565b90565b67ffffffffffffffff81116103aa5760051b60200190565b519067ffffffffffffffff8216820361017157565b906020808383031261017157825167ffffffffffffffff9384821161017157019061042093848385031261017157604051948501858110828211176103aa576040528251818111610171578461289f9185016127d6565b85528183015181811161017157846128b89185016127d6565b82860152604083015181811161017157846128d49185016127d6565b60408601526128e560608401612788565b60608601526080830151608086015261290060a084016127a6565b60a086015261291160c084016127a6565b60c086015261292260e084016127a6565b60e08601526101006129358185016127a6565b908601526101206129478185016127a6565b908601526101406129598185016127a6565b9086015261016061296b8185016127a6565b9086015261018061297d8185016127a6565b908601526101a061298f8185016127a6565b908601526101c06129a18185016127a6565b908601526101e06129b38185016127a6565b908601526102006129c58185016127a6565b908601526102206129d78185016127a6565b908601526102406129e98185016127a6565b908601526102606129fb8185016127a6565b90860152610280612a0d8185016127a6565b908601526102a0612a1f8185016127a6565b908601526102c0612a318185016127a6565b908601526102e0612a438185016127a6565b90860152610300612a558185016127a6565b90860152610320612a678185016127a6565b90860152610340612a798185016127a6565b90860152610360612a8b8185016127a6565b90860152610380612a9d8185016127a6565b908601526103a0612aaf8185016127a6565b908601526103c0612ac18185016127a6565b908601526103e08084015190860152610400928381015191821161017157019280601f85011215610171578351612af78161281b565b94612b056040519687612748565b818652838087019260051b820101928311610171578301905b828210612b2f575050505082015290565b81518152908301908301612b1e565b908060209392818452848401375f828201840152601f01601f1916010190565b90612b688261281b565b612b756040519182612748565b8281528092612b86601f199161281b565b0190602036910137565b91909160ff6003541615908115612bc8575b50612bb05761281891612f71565b5050604051612bbe8161272c565b5f81525f36813790565b905060025414155f612ba2565b9190820391821161124d57565b6040519060065480835282602091602082019060065f527ff652222313e28459528d920b65115c16c04f3efc82aaedc97be59f3f377c0d3f935f905b828210612c3657505050612c3492500383612748565b565b855484526001958601958895509381019390910190612c1e565b5f19811461124d5760010190565b818110612c69575050565b5f8155600101612c5e565b60ff6003541615908115612c9c575b50612c9057612818612be2565b604051612bbe8161272c565b905060025414155f612c83565b9060ff6003541615612bb05761281891612f71565b6001600160a01b0390817f0000000000000000000000000000000000000000000000000000000000000000166040928351947f797669c90000000000000000000000000000000000000000000000000000000086526020918287600481875afa968715612e6d575f97612e77575b508551907f1ca5b57100000000000000000000000000000000000000000000000000000000825285600483015282169687602483015260448201528281606481875afa908115612e6d575f91612e38575b50159283612daa575b5050509050612d93575050565b602492505190634a0bfec160e01b82526004820152fd5b8551633688da7960e01b815260048101959095526001600160a01b03919091166024850152909291508290829060449082905afa918215612e2e575f92612df8575b505015805f8080612d86565b90809250813d8311612e27575b612e0f8183612748565b8101031261017157612e2090612788565b5f80612dec565b503d612e05565b83513d5f823e3d90fd5b90508281813d8311612e66575b612e4f8183612748565b8101031261017157612e6090612788565b5f612d7d565b503d612e45565b86513d5f823e3d90fd5b9096508281813d8311612e9f575b612e8f8183612748565b810103126101715751955f612d2c565b503d612e85565b9092604051937f23b872dd000000000000000000000000000000000000000000000000000000005f526001600160a01b0393848092166004521660245260445260205f60648180855af160015f5114811615612f3e575b836040525f60605215612f0f57505050565b602493507f5274afe7000000000000000000000000000000000000000000000000000000008352166004820152fd5b6001811516612f5457813b15153d151616612efd565b833d5f823e3d90fd5b8051821015610e875760209160051b010190565b919091612f7c612be2565b612f868151612b5e565b905f905f5b815181101561306157612f9e8183612f5d565b515f9081526004602090815260408083206005018054935b848110612fcb575b5050505050600101612f8b565b61078a612fe7612fdb8385612615565b50855192838092612662565b8481519101208c612ff7816127ba565b61300386519182612748565b8181528c8782019236910111610171575f8f808f918a928637830101525190201461303057600101612fb6565b50505050508061304260019284612f5d565b5161305661304f86612c50565b9587612f5d565b52905f808080612fbe565b50509150925061307081612b5e565b925f5b82811061307f57505050565b8061308c60019284612f5d565b516130978288612f5d565b5201613073565b60035460ff8116156130fa5750600254036130b557565b606460405163d647364f60e01b815260206004820152601260248201527f436f6d6d756e697479206d69736d6174636800000000000000000000000000006044820152fd5b6040516306e0c07f60e31b81528260048201525f816024816001600160a01b037f0000000000000000000000000000000000000000000000000000000000000000165afa908161319f575b5061318f57606460405163d647364f60e01b815260206004820152601860248201527f436f6d6d756e69747920646f6573206e6f7420657869737400000000000000006044820152fd5b60019160025560ff191617600355565b6131b2903d805f833e6118d98183612748565b505f613145565b6001600160a01b0316805f52600960205260405f20549081156132d3576201518080420481810291818304149015171561124d57821015613274575b50613202603c9142612bd5565b1061320957565b608460405163d647364f60e01b815260206004820152602160248201527f506f737420746f6f20736f6f6e2061667465722070726576696f757320706f7360448201527f74000000000000000000000000000000000000000000000000000000000000006064820152fd5b5f526008602052600a60405f2054101561328e575f6131f5565b606460405163d647364f60e01b815260206004820152601360248201527f52617465206c696d6974206578636565646564000000000000000000000000006044820152fd5b505056fea2646970667358221220be34cf2aaf88ec39f3defcb642f6ddd47bcd5bcde1f26227663a6e7e97b34b5e64736f6c63430008180033","linkReferences":{}},"methodIdentifiers":{"addBounty(uint256,address,uint256)":"4dc71cde","approvedWinner(uint256)":"17392d17","boundCommunityId()":"55883d8f","comments(uint256)":"8ebb4c15","communityBound()":"446693bc","communityRegistry()":"a200ac86","completeEngagement(uint256,bytes)":"1aaafcec","createRequest(uint256,string,string,string[])":"9876e5f4","getComment(uint256)":"0800e300","getCommunityRequests(uint256)":"9aa75dd5","getRequest(uint256)":"c58343ef","getRequestComments(uint256)":"6c3f69e0","getRequestsByTag(string)":"eb78dff0","getRequestsByTag(uint256,string)":"3c77e8bf","linkValuableAction(uint256,uint256)":"006ee86f","moderateComment(uint256,bool)":"0473de27","nextCommentId()":"d0bdacbe","nextRequestId()":"6a84a985","postComment(uint256,uint256,string)":"ed0c9c92","requestComments(uint256,uint256)":"7d583055","requests(uint256)":"81d12c58","setApprovedWinner(uint256,address)":"956b2a22","setRequestStatus(uint256,uint8)":"ca83a826","userLastPostTime(address)":"a1624bbc","userRequestCount(address)":"f94c04fc","valuableActionRegistry()":"10127811"},"id":24}