{"abi":[{"type":"constructor","inputs":[{"name":"_communityRegistry","type":"address","internalType":"address"},{"name":"_valuableActionRegistry","type":"address","internalType":"address"}],"stateMutability":"nonpayable"},{"type":"function","name":"addBounty","inputs":[{"name":"requestId","type":"uint256","internalType":"uint256"},{"name":"token","type":"address","internalType":"address"},{"name":"amount","type":"uint256","internalType":"uint256"}],"outputs":[],"stateMutability":"nonpayable"},{"type":"function","name":"approvedWinner","inputs":[{"name":"","type":"uint256","internalType":"uint256"}],"outputs":[{"name":"","type":"address","internalType":"address"}],"stateMutability":"view"},{"type":"function","name":"comments","inputs":[{"name":"","type":"uint256","internalType":"uint256"}],"outputs":[{"name":"requestId","type":"uint256","internalType":"uint256"},{"name":"author","type":"address","internalType":"address"},{"name":"cid","type":"string","internalType":"string"},{"name":"parentCommentId","type":"uint256","internalType":"uint256"},{"name":"createdAt","type":"uint64","internalType":"uint64"},{"name":"isModerated","type":"bool","internalType":"bool"}],"stateMutability":"view"},{"type":"function","name":"communityRegistry","inputs":[],"outputs":[{"name":"","type":"address","internalType":"contract CommunityRegistry"}],"stateMutability":"view"},{"type":"function","name":"communityRequests","inputs":[{"name":"","type":"uint256","internalType":"uint256"},{"name":"","type":"uint256","internalType":"uint256"}],"outputs":[{"name":"","type":"uint256","internalType":"uint256"}],"stateMutability":"view"},{"type":"function","name":"completeEngagement","inputs":[{"name":"requestId","type":"uint256","internalType":"uint256"},{"name":"metadata","type":"bytes","internalType":"bytes"}],"outputs":[{"name":"engagementTokenId","type":"uint256","internalType":"uint256"}],"stateMutability":"nonpayable"},{"type":"function","name":"createRequest","inputs":[{"name":"communityId","type":"uint256","internalType":"uint256"},{"name":"title","type":"string","internalType":"string"},{"name":"cid","type":"string","internalType":"string"},{"name":"tags","type":"string[]","internalType":"string[]"}],"outputs":[{"name":"requestId","type":"uint256","internalType":"uint256"}],"stateMutability":"nonpayable"},{"type":"function","name":"getComment","inputs":[{"name":"commentId","type":"uint256","internalType":"uint256"}],"outputs":[{"name":"comment","type":"tuple","internalType":"struct RequestHub.Comment","components":[{"name":"requestId","type":"uint256","internalType":"uint256"},{"name":"author","type":"address","internalType":"address"},{"name":"cid","type":"string","internalType":"string"},{"name":"parentCommentId","type":"uint256","internalType":"uint256"},{"name":"createdAt","type":"uint64","internalType":"uint64"},{"name":"isModerated","type":"bool","internalType":"bool"}]}],"stateMutability":"view"},{"type":"function","name":"getCommunityRequests","inputs":[{"name":"communityId","type":"uint256","internalType":"uint256"}],"outputs":[{"name":"","type":"uint256[]","internalType":"uint256[]"}],"stateMutability":"view"},{"type":"function","name":"getRequest","inputs":[{"name":"requestId","type":"uint256","internalType":"uint256"}],"outputs":[{"name":"request","type":"tuple","internalType":"struct RequestHub.Request","components":[{"name":"communityId","type":"uint256","internalType":"uint256"},{"name":"author","type":"address","internalType":"address"},{"name":"title","type":"string","internalType":"string"},{"name":"cid","type":"string","internalType":"string"},{"name":"status","type":"uint8","internalType":"enum RequestHub.Status"},{"name":"createdAt","type":"uint64","internalType":"uint64"},{"name":"lastActivity","type":"uint64","internalType":"uint64"},{"name":"tags","type":"string[]","internalType":"string[]"},{"name":"commentCount","type":"uint256","internalType":"uint256"},{"name":"bountyToken","type":"address","internalType":"address"},{"name":"bountyAmount","type":"uint256","internalType":"uint256"},{"name":"linkedValuableAction","type":"uint256","internalType":"uint256"},{"name":"consumed","type":"bool","internalType":"bool"},{"name":"winner","type":"address","internalType":"address"}]}],"stateMutability":"view"},{"type":"function","name":"getRequestComments","inputs":[{"name":"requestId","type":"uint256","internalType":"uint256"}],"outputs":[{"name":"","type":"uint256[]","internalType":"uint256[]"}],"stateMutability":"view"},{"type":"function","name":"getRequestsByTag","inputs":[{"name":"communityId","type":"uint256","internalType":"uint256"},{"name":"tag","type":"string","internalType":"string"}],"outputs":[{"name":"requestIds","type":"uint256[]","internalType":"uint256[]"}],"stateMutability":"view"},{"type":"function","name":"linkValuableAction","inputs":[{"name":"requestId","type":"uint256","internalType":"uint256"},{"name":"valuableActionId","type":"uint256","internalType":"uint256"}],"outputs":[],"stateMutability":"nonpayable"},{"type":"function","name":"moderateComment","inputs":[{"name":"commentId","type":"uint256","internalType":"uint256"},{"name":"hide","type":"bool","internalType":"bool"}],"outputs":[],"stateMutability":"nonpayable"},{"type":"function","name":"nextCommentId","inputs":[],"outputs":[{"name":"","type":"uint256","internalType":"uint256"}],"stateMutability":"view"},{"type":"function","name":"nextRequestId","inputs":[],"outputs":[{"name":"","type":"uint256","internalType":"uint256"}],"stateMutability":"view"},{"type":"function","name":"postComment","inputs":[{"name":"requestId","type":"uint256","internalType":"uint256"},{"name":"parentCommentId","type":"uint256","internalType":"uint256"},{"name":"cid","type":"string","internalType":"string"}],"outputs":[{"name":"commentId","type":"uint256","internalType":"uint256"}],"stateMutability":"nonpayable"},{"type":"function","name":"requestComments","inputs":[{"name":"","type":"uint256","internalType":"uint256"},{"name":"","type":"uint256","internalType":"uint256"}],"outputs":[{"name":"","type":"uint256","internalType":"uint256"}],"stateMutability":"view"},{"type":"function","name":"requests","inputs":[{"name":"","type":"uint256","internalType":"uint256"}],"outputs":[{"name":"communityId","type":"uint256","internalType":"uint256"},{"name":"author","type":"address","internalType":"address"},{"name":"title","type":"string","internalType":"string"},{"name":"cid","type":"string","internalType":"string"},{"name":"status","type":"uint8","internalType":"enum RequestHub.Status"},{"name":"createdAt","type":"uint64","internalType":"uint64"},{"name":"lastActivity","type":"uint64","internalType":"uint64"},{"name":"commentCount","type":"uint256","internalType":"uint256"},{"name":"bountyToken","type":"address","internalType":"address"},{"name":"bountyAmount","type":"uint256","internalType":"uint256"},{"name":"linkedValuableAction","type":"uint256","internalType":"uint256"},{"name":"consumed","type":"bool","internalType":"bool"},{"name":"winner","type":"address","internalType":"address"}],"stateMutability":"view"},{"type":"function","name":"setApprovedWinner","inputs":[{"name":"requestId","type":"uint256","internalType":"uint256"},{"name":"winner","type":"address","internalType":"address"}],"outputs":[],"stateMutability":"nonpayable"},{"type":"function","name":"setRequestStatus","inputs":[{"name":"requestId","type":"uint256","internalType":"uint256"},{"name":"newStatus","type":"uint8","internalType":"enum RequestHub.Status"}],"outputs":[],"stateMutability":"nonpayable"},{"type":"function","name":"userLastPostTime","inputs":[{"name":"","type":"uint256","internalType":"uint256"},{"name":"","type":"address","internalType":"address"}],"outputs":[{"name":"","type":"uint256","internalType":"uint256"}],"stateMutability":"view"},{"type":"function","name":"userRequestCount","inputs":[{"name":"","type":"uint256","internalType":"uint256"},{"name":"","type":"address","internalType":"address"}],"outputs":[{"name":"","type":"uint256","internalType":"uint256"}],"stateMutability":"view"},{"type":"function","name":"valuableActionRegistry","inputs":[],"outputs":[{"name":"","type":"address","internalType":"contract IValuableActionRegistry"}],"stateMutability":"view"},{"type":"event","name":"ApprovedWinnerSet","inputs":[{"name":"requestId","type":"uint256","indexed":true,"internalType":"uint256"},{"name":"winner","type":"address","indexed":true,"internalType":"address"},{"name":"setter","type":"address","indexed":true,"internalType":"address"}],"anonymous":false},{"type":"event","name":"BountyAdded","inputs":[{"name":"requestId","type":"uint256","indexed":true,"internalType":"uint256"},{"name":"communityId","type":"uint256","indexed":true,"internalType":"uint256"},{"name":"token","type":"address","indexed":true,"internalType":"address"},{"name":"amount","type":"uint256","indexed":false,"internalType":"uint256"},{"name":"funder","type":"address","indexed":false,"internalType":"address"}],"anonymous":false},{"type":"event","name":"BountyReady","inputs":[{"name":"requestId","type":"uint256","indexed":true,"internalType":"uint256"},{"name":"communityId","type":"uint256","indexed":true,"internalType":"uint256"},{"name":"winner","type":"address","indexed":true,"internalType":"address"},{"name":"token","type":"address","indexed":false,"internalType":"address"},{"name":"amount","type":"uint256","indexed":false,"internalType":"uint256"}],"anonymous":false},{"type":"event","name":"CommentModerated","inputs":[{"name":"requestId","type":"uint256","indexed":true,"internalType":"uint256"},{"name":"commentId","type":"uint256","indexed":true,"internalType":"uint256"},{"name":"moderator","type":"address","indexed":true,"internalType":"address"},{"name":"hidden","type":"bool","indexed":false,"internalType":"bool"}],"anonymous":false},{"type":"event","name":"CommentPosted","inputs":[{"name":"requestId","type":"uint256","indexed":true,"internalType":"uint256"},{"name":"commentId","type":"uint256","indexed":true,"internalType":"uint256"},{"name":"author","type":"address","indexed":true,"internalType":"address"},{"name":"cid","type":"string","indexed":false,"internalType":"string"},{"name":"parentCommentId","type":"uint256","indexed":false,"internalType":"uint256"}],"anonymous":false},{"type":"event","name":"OneShotEngagementCompleted","inputs":[{"name":"requestId","type":"uint256","indexed":true,"internalType":"uint256"},{"name":"winner","type":"address","indexed":true,"internalType":"address"},{"name":"bountyToken","type":"address","indexed":false,"internalType":"address"},{"name":"bountyAmount","type":"uint256","indexed":false,"internalType":"uint256"},{"name":"engagementTokenId","type":"uint256","indexed":false,"internalType":"uint256"}],"anonymous":false},{"type":"event","name":"RequestCreated","inputs":[{"name":"requestId","type":"uint256","indexed":true,"internalType":"uint256"},{"name":"communityId","type":"uint256","indexed":true,"internalType":"uint256"},{"name":"author","type":"address","indexed":true,"internalType":"address"},{"name":"title","type":"string","indexed":false,"internalType":"string"},{"name":"cid","type":"string","indexed":false,"internalType":"string"},{"name":"tags","type":"string[]","indexed":false,"internalType":"string[]"}],"anonymous":false},{"type":"event","name":"RequestStatusChanged","inputs":[{"name":"requestId","type":"uint256","indexed":true,"internalType":"uint256"},{"name":"newStatus","type":"uint8","indexed":true,"internalType":"enum RequestHub.Status"},{"name":"moderator","type":"address","indexed":true,"internalType":"address"}],"anonymous":false},{"type":"event","name":"ValuableActionLinking","inputs":[{"name":"requestId","type":"uint256","indexed":true,"internalType":"uint256"},{"name":"valuableActionId","type":"uint256","indexed":true,"internalType":"uint256"},{"name":"linker","type":"address","indexed":true,"internalType":"address"}],"anonymous":false},{"type":"error","name":"InvalidInput","inputs":[{"name":"reason","type":"string","internalType":"string"}]},{"type":"error","name":"InvalidValuableAction","inputs":[{"name":"valuableActionId","type":"uint256","internalType":"uint256"}]},{"type":"error","name":"NotAuthorized","inputs":[{"name":"caller","type":"address","internalType":"address"}]},{"type":"error","name":"ReentrancyGuardReentrantCall","inputs":[]},{"type":"error","name":"SafeERC20FailedOperation","inputs":[{"name":"token","type":"address","internalType":"address"}]},{"type":"error","name":"ZeroAddress","inputs":[]}],"bytecode":{"object":"0x60c0346200010e57601f6200326f38819003918201601f19168301916001600160401b03831184841017620001125780849260409485528339810103126200010e576200005a6020620000528362000126565b920162000126565b60017f9b779b17422d0df92223018b32b4d1fa46e071723d6817e2486d003becc55f008190555f81905580556001600160a01b0391821691908215620000fc5716908115620000fc5760805260a05260405161313390816200013c82396080518181816109bf015281816116c201528181611b880152818161258f01528181612c880152612f3d015260a051818181611c2a01528181611ee0015261214e0152f35b60405163d92e233d60e01b8152600490fd5b5f80fd5b634e487b7160e01b5f52604160045260245ffd5b51906001600160a01b03821682036200010e5756fe6080806040526004361015610012575f80fd5b5f3560e01c9081626ee86f1461210f575080630473de27146120625780630800e30014611f045780631012781114611ec1578063113a80d314611e7c57806317392d1714611e495780631aaafcec14611a8a5780633c77e8bf146119015780634dc71cde146116355780636a84a985146116195780636c3f69e0146115b157806377d4b8001461156c5780637d5830551461153d57806381d12c581461141f5780638ebb4c1514611388578063956b2a22146112115780639876e5f414610a5b5780639aa75dd5146109e3578063a200ac86146109a0578063c58343ef1461067c578063ca83a826146105e6578063d0bdacbe146105c9578063ec83b4ac1461058c5763ed0c9c9214610123575f80fd5b346105885760603660031901126105885760443567ffffffffffffffff8111610588576101549036906004016126c6565b6004355f52600260205260405f20906001600160a01b03600183015416156105425760ff600483015416610187816128b0565b6001811490811561052e575b506104e9576101a482543390612fcc565b80156104a357602435610420575b600154916101bf83612c12565b600155825f52600360205260405f206004358155600181013373ffffffffffffffffffffffffffffffffffffffff1982541617905567ffffffffffffffff831161040c5760209483928261021760028895015461278c565b601f81116103d0575b505f601f861160011461035c57906102558661031796976102df945f91610351575b508160011b915f199060031b1c19161790565b60028201555b6024356003820155600467ffffffffffffffff421691018167ffffffffffffffff198254161790556004355f52600589526102998660405f20612c43565b60048301907fffffffffffffffffffffffffffffff0000000000000000ffffffffffffffffff70ffffffffffffffff00000000000000000083549260481b169116179055565b600681016102ed8154612c12565b9055545f526007865260405f20335f5286524260405f205560405193604085526040850191612bac565b602435858401527f28511bc6c6cfc5218ae0e05cbff64ff36914a1092f843abd6a0e81e110ff6aac339380600435930390a4604051908152f35b90508601355f610242565b9450600281015f52875f205f5b601f19881681106103b65750906102df91610317959688601f1981161061039d575b5050600187811b01600282015561025b565b8501355f1960038a901b60f8161c191690555f8061038b565b848701358255958901958895506001909101908901610369565b6103fc90600283015f52895f20601f880160051c8101918b8910610402575b601f0160051c0190612c2d565b5f610220565b90915081906103ef565b634e487b7160e01b5f52604160045260245ffd5b6024355f52600360205260043560405f205403156101b257608460405163d647364f60e01b815260206004820152602260248201527f506172656e7420636f6d6d656e74206e6f7420696e207468697320726571756560448201527f73740000000000000000000000000000000000000000000000000000000000006064820152fd5b60405163d647364f60e01b815260206004820152601b60248201527f436f6e74656e74204349442063616e6e6f7420626520656d70747900000000006044820152606490fd5b606460405163d647364f60e01b815260206004820152602060248201527f52657175657374206973206e6f74206f70656e20666f7220636f6d6d656e74736044820152fd5b6002915061053b816128b0565b145f610193565b60405163d647364f60e01b815260206004820152601660248201527f5265717565737420646f6573206e6f74206578697374000000000000000000006044820152606490fd5b5f80fd5b346105885761059a36612654565b905f52600460205260405f208054821015610588576020916105bb91612763565b90546040519160031b1c8152f35b34610588575f366003190112610588576020600154604051908152f35b3461058857604036600319011261058857600435602435600381101561058857815f52600260205260405f206001600160a01b03600182015416156105425780610634600492543390612c7c565b0161063e826128b0565b60ff1981541660ff8316179055610654816128b0565b33917fed84828474f78e11e93760516d539ef1d87fe86a008202248ecff70fbb87fd205f80a4005b34610588576020366003190112610588575f6101a060405161069d81612871565b828152826020820152606060408201526060808201528260808201528260a08201528260c0820152606060e0820152826101008201528261012082015282610140820152826101608201528261018082015201526004355f52600260205260405f206040519061070c82612871565b805482526001600160a01b03600182015416602083015260405161073e8161073781600286016127c4565b038261288e565b60408301526040516107578161073781600386016127c4565b606083015267ffffffffffffffff600482015460ff8116610777816128b0565b6080850152818160081c1660a085015260481c1660c083015260058101805461079f81612961565b916107ad604051938461288e565b81835260208301905f5260205f205f915b83831061097b57866001600160a01b03600a888860e085015260068101546101008501528260078201541661012085015260088101546101408501526009810154610160850152015460ff8116151561018084015260081c166101a08201526001600160a01b03602082015116156105425760405160208152815160208201526001600160a01b03602083015116604082015261088561086f60408401516101c060608501526101e084019061268b565b6060840151838203601f1901608085015261268b565b6080830151610893816128b0565b60a083015267ffffffffffffffff60a08401511660c083015267ffffffffffffffff60c08401511660e083015260e083015190601f1983820301610100840152815180825260208201916020808360051b8301019401925f915b83831061094e578680876001600160a01b036101a08c61010081015161012086015282610120820151166101408601526101408101516101608601526101608101516101808601526101808101511515828601520151166101c08301520390f35b909192939460208061096c600193601f19868203018752895161268b565b970193019301919392906108ed565b6001602081926040516109928161073781896127c4565b8152019201920191906107be565b34610588575f3660031901126105885760206040516001600160a01b037f0000000000000000000000000000000000000000000000000000000000000000168152f35b3461058857602080600319360112610588576004355f52600460205260405f20906040519081602084549182815201935f5260205f20915f905b828210610a4457610a4085610a348189038261288e565b60405191829182612728565b0390f35b835486529485019460019384019390910190610a1d565b346105885760803660031901126105885760243567ffffffffffffffff811161058857610a8c9036906004016126c6565b9060443567ffffffffffffffff811161058857610aad9036906004016126c6565b919067ffffffffffffffff60643511610588573660236064350112156105885767ffffffffffffffff6064356004013511610588573660246064356004013560051b60643501011161058857610b04600435612f1b565b610b1033600435612fcc565b83156111cc5782156104a3575f5492610b2884612c12565b5f55835f52600260205260405f206004358155600181013373ffffffffffffffffffffffffffffffffffffffff1982541617905567ffffffffffffffff861161040c57610b78600282015461278c565b601f8111611199575b505f86601f81116001146111305780610bad925f9161112557508160011b915f199060031b1c19161790565b60028201555b67ffffffffffffffff821161040c57610bcf600382015461278c565b601f81116110f2575b505f82601f81116001146110895780610c04925f9161107e57508160011b915f199060031b1c19161790565b60038201555b6004810180547fffffffffffffffffffffffffffffff00000000000000000000000000000000001642600881901b68ffffffffffffffff00169190911760489190911b70ffffffffffffffff0000000000000000001617905568010000000000000000606435600401351161040c576005810180546004606435013591829055908111611004575b506005015f90815260208120906064356024015b606435600401358210610e6f575050506004355f526004602052610ccd8460405f20612c43565b6201518092834204908185810204851482151715610e5b57610d6b94610d5d926004355f52600760205260405f20335f526020520260405f205410610e3c575b6004355f52600660205260405f20335f5260205260405f20610d2f8154612c12565b90556004355f52600760205260405f20335f526020524260405f205560405196606088526060880191612bac565b918583036020870152612bac565b828103604084015260643560048101358083526020808401959360059290921b82010191602401905f5b606435600401358110610dd85760208633600435827f8640514b9ed59fbcf0717a5d5e67138789295ba04a59f1005628b7f3c28e3d9f8a8a038ba4604051908152f35b909192601f1983820301875283356042196064353603018112156105885760643501906044602483013592019167ffffffffffffffff811161058857803603831361058857610e2d6020928392600195612bac565b95019701910195919095610d95565b6004355f52600660205260405f20335f526020525f6040812055610d0d565b634e487b7160e01b5f52601160045260245ffd5b80356064353603604219018112156105885767ffffffffffffffff602482606435010135116105885760643581016024810135360360449091011361058857610eb8845461278c565b601f8111610fcb575b505f90601f60248260643501013511600114610f3157600192610f0f84936020935f91602482606435010135610f1e575b50602490606435010135908160011b915f199060031b1c19161790565b86555b01930191019091610ca6565b6064358201016044013591506024610ef2565b90845f5260205f20905f5b606435840160240135601f19168110610fac5750600193849360209391928592602492916064358301840135601f19811610610f85575b5050606435010135811b018655610f12565b60445f1960f8868660643501013560031b161c199184606435010101351690558e80610f73565b9091602060018192604486886064350101013581550193019101610f3c565b5f858152602090819020610ffe92606435850160240135601f810160051c8301931161040257601f0160051c0190612c2d565b89610ec1565b600582015f5260205f20906064356004013582015b8183018110611029575050610c92565b806110366001925461278c565b80611043575b5001611019565b601f8111831461105857505f81555b8a61103c565b5f90828252611075601f60208420920160051c8201858301612c2d565b81835555611052565b905085013589610242565b50600382015f5260205f20905f5b601f19851681106110da575083601f198116106110c1575b5050600182811b016003820155610c0a565b8401355f19600385901b60f8161c1916905586806110af565b90916020600181928589013581550193019101611097565b61111f90600383015f5260205f20601f850160051c8101916020861061040257601f0160051c0190612c2d565b86610bd8565b905086013589610242565b50600282015f5260205f20905f5b601f1989168110611181575087601f19811610611168575b5050600186811b016002820155610bb3565b8501355f19600389901b60f8161c191690558680611156565b9091602060018192858a01358155019301910161113e565b6111c690600283015f5260205f20601f890160051c81019160208a1061040257601f0160051c0190612c2d565b86610b81565b606460405163d647364f60e01b815260206004820152601560248201527f5469746c652063616e6e6f7420626520656d70747900000000000000000000006044820152fd5b346105885760403660031901126105885760043561122d6126b0565b815f52600260205260405f206001600160a01b0391826001830154161561054257829061125c83543390612c7c565b1691821561135e57835f52600860205260405f20541661131857600a015460ff166112d257815f52600860205260405f208173ffffffffffffffffffffffffffffffffffffffff1982541617905533917fe616175a572fb3c2bb47e9f230963adba80c8b254b1f70eaf8197ca103ea588f5f80a4005b60405163d647364f60e01b815260206004820152601860248201527f5265717565737420616c726561647920636f6e73756d656400000000000000006044820152606490fd5b60405163d647364f60e01b815260206004820152601760248201527f57696e6e657220616c726561647920617070726f7665640000000000000000006044820152606490fd5b60046040517fd92e233d000000000000000000000000000000000000000000000000000000008152fd5b34610588576020366003190112610588576004355f52600360205260405f2080546001600160a01b036001830154169160ff6040516113ce8161073781600287016127c4565b6113fa60046003850154940154916040519687968752602087015260c0604087015260c086019061268b565b92606085015267ffffffffffffffff8116608085015260401c16151560a08301520390f35b34610588576020366003190112610588576004355f52600260205260405f208054906001600160a01b039081600182015416916040516114668161073781600287016127c4565b604051926114828461147b81600385016127c4565b038561288e565b60048101549360ff85169467ffffffffffffffff60068401549086600786015416926114e96008870154956114db600a60098a0154990154996040519e8f9e8f906101a09282526020820152816040820152019061268b565b8c810360608e01529061268b565b986114f3816128b0565b60808b0152818160081c1660a08b015260481c1660c089015260e088015261010087015261012086015261014085015260ff8116151561016085015260081c166101808301520390f35b346105885761154b36612654565b905f52600560205260405f208054821015610588576020916105bb91612763565b34610588576040366003190112610588576115856126b0565b6004355f5260066020526001600160a01b0360405f2091165f52602052602060405f2054604051908152f35b3461058857602080600319360112610588576004355f52600560205260405f20906040519081602084549182815201935f5260205f20915f905b82821061160257610a4085610a348189038261288e565b8354865294850194600193840193909101906115eb565b34610588575f3660031901126105885760205f54604051908152f35b34610588576060366003190112610588576004356116516126b0565b9060443590805f52600260205260405f206001600160a01b0393846001830154161561054257841693841561135e5783156118bc57825f5260086020528060405f2054166113185760ff600a830154166112d2578154604051906306e0c07f60e31b825260048201525f81602481857f0000000000000000000000000000000000000000000000000000000000000000165afa80156118b1576101e0915f9161188f575b500191818351161561184957600781018281541687811515918261183e575b50506117f957600882018054918288106117b4577f02dd80c249c8802f84c8f278c122fc7ba506ae258312f2199ef8058c13c1ecec9561179a956117598a9586612c20565b908161179f575b5050815473ffffffffffffffffffffffffffffffffffffffff19168a17909155505554604080519586523360208701529094918291820190565b0390a4005b6117ac925116338c612e64565b898080611760565b606460405163d647364f60e01b815260206004820152601660248201527f426f756e74792063616e6e6f74206465637265617365000000000000000000006044820152fd5b606460405163d647364f60e01b815260206004820152601560248201527f426f756e747920746f6b656e206d69736d6174636800000000000000000000006044820152fd5b141590508789611714565b60405163d647364f60e01b815260206004820152601660248201527f5472656173757279207661756c74206e6f7420736574000000000000000000006044820152606490fd5b6118ab91503d805f833e6118a3818361288e565b81019061298e565b876116f5565b6040513d5f823e3d90fd5b606460405163d647364f60e01b815260206004820152601e60248201527f426f756e747920616d6f756e74206d75737420626520706f73697469766500006044820152fd5b346105885761190f366126f4565b915f5260206004815260405f206040518082848294549384815201905f52845f20925f5b86828210611a745750505061194a9250038261288e565b6119548151612bcc565b905f905f5b8151811015611a325761196c8183612bfe565b515f526002855260405f2060055f91018054915b828110611993575b505050600101611959565b6107376119b66119a983859c979c9b969b612763565b50604051928380926127c4565b8381519101206119c58b612900565b6119d2604051918261288e565b8b815284810190368d880111610588575f868e808a86378301015251902014611a0357600101979297969196611980565b505094509480611a1560019284612bfe565b51611a29611a2286612c12565b9587612bfe565b52908880611988565b5050611a3d81612bcc565b915f5b828110611a555760405180610a408682612728565b80611a6260019284612bfe565b51611a6d8287612bfe565b5201611a40565b8554845260019586019587955093019201611933565b3461058857611a98366126f4565b90917f9b779b17422d0df92223018b32b4d1fa46e071723d6817e2486d003becc55f00906002825414611e1f5760028255805f52600260205260405f20906001600160a01b03948560018401541615610542576009830154958615611dda57825f52600860205260405f205493818516948515611d9557600a820190815460ff81166112d257873303611d7e577fffffffffffffffffffffff00000000000000000000000000000000000000000074ffffffffffffffffffffffffffffffffffffffff0060019360081b16911617179055805492604051986306e0c07f60e31b8a528460048b01525f8a602481877f0000000000000000000000000000000000000000000000000000000000000000165afa998a156118b1575f9a611d62575b5060088301948554151580611d53575b61184957611c246020936040519b8c9485947fc254337100000000000000000000000000000000000000000000000000000000865260048601528b60248601525f6044860152606485015260a0608485015260a4840191612bac565b03815f867f0000000000000000000000000000000000000000000000000000000000000000165af19687156118b1575f97611d10575b50827f5484933aef1963ce01e45b11157d880787d4e0778c011ef0457b59591a8b605f9260076060938860209c60019b9a99985480611cb6575b505050015416905460405191825289820152876040820152a355604051908152f35b611cd1908386860193886101e0818754169201511690612e64565b887f931b9b36fdb92aa1c02e7f03b93e86db7244021807d9f0f75813f7f4a9e76ca76040878654945416895482519182526020820152a4878d80611c94565b91959493929796506020823d602011611d4b575b81611d316020938361288e565b810103126105885790519596939492939192906001611c5a565b3d9150611d24565b50846101e08c01511615611bc8565b611d77919a503d805f833e6118a3818361288e565b988a611bb8565b6024604051634a0bfec160e01b8152336004820152fd5b606460405163d647364f60e01b815260206004820152601360248201527f57696e6e6572206e6f7420617070726f766564000000000000000000000000006044820152fd5b606460405163d647364f60e01b815260206004820152601960248201527f4e6f2076616c7561626c6520616374696f6e206c696e6b6564000000000000006044820152fd5b60046040517f3ee5aeb5000000000000000000000000000000000000000000000000000000008152fd5b34610588576020366003190112610588576004355f52600860205260206001600160a01b0360405f205416604051908152f35b3461058857604036600319011261058857611e956126b0565b6004355f5260076020526001600160a01b0360405f2091165f52602052602060405f2054604051908152f35b34610588575f3660031901126105885760206040516001600160a01b037f0000000000000000000000000000000000000000000000000000000000000000168152f35b3461058857602080600319360112610588575f60a0604051611f2581612855565b82815282848201526060604082015282606082015282608082015201526004355f526003815260405f2060405190611f5c82612855565b805482526001600160a01b03806001830154169084840191825260405190611f9282611f8b81600288016127c4565b038361288e565b6040850191825260046003850154946060870195865201549267ffffffffffffffff926080870192848616845260ff60a089019660401c1615158652808351161561201c5761200292604051998a99818b5251908a0152511660408801525160c0606088015260e087019061268b565b93516080860152511660a084015251151560c08301520390f35b60405163d647364f60e01b815260206004820152601660248201527f436f6d6d656e7420646f6573206e6f74206578697374000000000000000000006044820152606490fd5b34610588576040366003190112610588576004356024359081151580920361058857805f52600360205260405f206001600160a01b036001820154161561201c576004815491825f5260026020526120bf60405f20543390612c7c565b01805468ff00000000000000008560401b169068ff000000000000000019161790556040519283527f7610748fb4b32b3bf67e03a1270ea7ba36cff542a153f919a77377dcf6fa1b3a60203394a4005b346105885761211d36612654565b9091825f5260206002815260405f20916001600160a01b0390816001850154169081156126115750330361256b575b7f000000000000000000000000000000000000000000000000000000000000000016604051907fe9ea801c00000000000000000000000000000000000000000000000000000000825284600483015260249183818481855afa9081156118b1575f91612536575b5015612506575f8291604051928380927f5cfdb8620000000000000000000000000000000000000000000000000000000082528960048301525afa80156118b1575f90612295575b60609150015160048110156122825761223e57505060098291015533917f8d5fc0ed86ffd70cb0ea9e86297a06bb7bf437980295fa82a47e1cf7debfc0ab5f80a4005b9060156064926040519263d647364f60e01b845260048401528201527f4e6f742061206f6e652d73686f7420616374696f6e00000000000000000000006044820152fd5b50634e487b7160e01b5f5260216004525ffd5b503d805f833e6122a5818361288e565b8101838282031261058857815167ffffffffffffffff9283821161058857019061030092838383031261058857604051938401848110828211176124f3576040526122ef836128db565b84526122fc8684016128db565b8685015261230c604084016128db565b6040850152606083015160048110156105885760608501526080830151608085015261233a60a084016128db565b60a085015260c083015160058110156105885760c085015260e083015160e085015261010061236a8185016128db565b9085015261012061237c8185016128db565b9085015261014061238e8185016128db565b908501526101606123a08185016128db565b908501526101806123b28185016128db565b908501526101a06123c48185016128db565b908501526101c06123d68185016128db565b908501526101e06123e88185016128ce565b908501526102006123fa8185016128db565b9085015261022080840151908501526102406124178185016128ec565b9085015261026080840151828111610588578361243591860161291c565b9085015261028080840151828111610588578361245391860161291c565b908501526102a090818401519081116105885783019180601f8401121561058857825161247f81612961565b9361248d604051958661288e565b818552888086019260051b8201019283116105885788809101915b8383106124e35750505050830152606091906102c06124c8818301612979565b908301526124da6102e0809201612979565b908201526121fb565b82518152918101918991016124a8565b85634e487b7160e01b5f5260416004525ffd5b5083604051907ffa2879040000000000000000000000000000000000000000000000000000000082526004820152fd5b90508381813d8311612564575b61254d818361288e565b810103126105885761255e906128ce565b876121b3565b503d612543565b8254604051633688da7960e01b8152600481019190915233602482015282816044817f000000000000000000000000000000000000000000000000000000000000000086165afa9081156118b1575f916125dc575b5061214c576024604051634a0bfec160e01b8152336004820152fd5b90508281813d831161260a575b6125f3818361288e565b8101031261058857612604906128ce565b866125c0565b503d6125e9565b63d647364f60e01b815260206004820152601660248201527f5265717565737420646f6573206e6f74206578697374000000000000000000006044820152606490fd5b6040906003190112610588576004359060243590565b5f5b83811061267b5750505f910152565b818101518382015260200161266c565b906020916126a48151809281855285808601910161266a565b601f01601f1916010190565b602435906001600160a01b038216820361058857565b9181601f840112156105885782359167ffffffffffffffff8311610588576020838186019501011161058857565b90604060031983011261058857600435916024359067ffffffffffffffff821161058857612724916004016126c6565b9091565b60209060206040818301928281528551809452019301915f5b82811061274f575050505090565b835185529381019392810192600101612741565b8054821015612778575f5260205f2001905f90565b634e487b7160e01b5f52603260045260245ffd5b90600182811c921680156127ba575b60208310146127a657565b634e487b7160e01b5f52602260045260245ffd5b91607f169161279b565b80545f93926127d28261278c565b918282526020936001916001811690815f1461283657506001146127f8575b5050505050565b90939495505f92919252835f2092845f945b83861061282257505050500101905f808080806127f1565b80548587018301529401938590820161280a565b60ff19168685015250505090151560051b010191505f808080806127f1565b60c0810190811067ffffffffffffffff82111761040c57604052565b6101c0810190811067ffffffffffffffff82111761040c57604052565b90601f8019910116810190811067ffffffffffffffff82111761040c57604052565b600311156128ba57565b634e487b7160e01b5f52602160045260245ffd5b5190811515820361058857565b519063ffffffff8216820361058857565b51906001600160a01b038216820361058857565b67ffffffffffffffff811161040c57601f01601f191660200190565b81601f8201121561058857805161293281612900565b92612940604051948561288e565b818452602082840101116105885761295e916020808501910161266a565b90565b67ffffffffffffffff811161040c5760051b60200190565b519067ffffffffffffffff8216820361058857565b906020808383031261058857825167ffffffffffffffff938482116105885701906102a0938483850312610588576040519485018581108282111761040c57604052825181811161058857846129e591850161291c565b85528183015181811161058857846129fe91850161291c565b8286015260408301518181116105885784612a1a91850161291c565b6040860152612a2b606084016128ce565b606086015260808301516080860152612a4660a084016128ec565b60a0860152612a5760c084016128ec565b60c0860152612a6860e084016128ec565b60e0860152610100612a7b8185016128ec565b90860152610120612a8d8185016128ec565b90860152610140612a9f8185016128ec565b90860152610160612ab18185016128ec565b90860152610180612ac38185016128ec565b908601526101a0612ad58185016128ec565b908601526101c0612ae78185016128ec565b908601526101e0612af98185016128ec565b90860152610200612b0b8185016128ec565b90860152610220612b1d8185016128ec565b90860152610240612b2f8185016128ec565b908601526102608084015190860152610280928381015191821161058857019280601f85011215610588578351612b6581612961565b94612b73604051968761288e565b818652838087019260051b820101928311610588578301905b828210612b9d575050505082015290565b81518152908301908301612b8c565b908060209392818452848401375f828201840152601f01601f1916010190565b90612bd682612961565b612be3604051918261288e565b8281528092612bf4601f1991612961565b0190602036910137565b80518210156127785760209160051b010190565b5f198114610e5b5760010190565b91908203918211610e5b57565b818110612c38575050565b5f8155600101612c2d565b80546801000000000000000081101561040c57612c6591600182018155612763565b819291549060031b91821b915f19901b1916179055565b6001600160a01b0390817f0000000000000000000000000000000000000000000000000000000000000000166040928351947f797669c90000000000000000000000000000000000000000000000000000000086526020918287600481875afa968715612e2b575f97612e35575b508551907f1ca5b57100000000000000000000000000000000000000000000000000000000825285600483015282169687602483015260448201528281606481875afa908115612e2b575f91612df6575b50159283612d68575b5050509050612d51575050565b602492505190634a0bfec160e01b82526004820152fd5b8551633688da7960e01b815260048101959095526001600160a01b03919091166024850152909291508290829060449082905afa918215612dec575f92612db6575b505015805f8080612d44565b90809250813d8311612de5575b612dcd818361288e565b8101031261058857612dde906128ce565b5f80612daa565b503d612dc3565b83513d5f823e3d90fd5b90508281813d8311612e24575b612e0d818361288e565b8101031261058857612e1e906128ce565b5f612d3b565b503d612e03565b86513d5f823e3d90fd5b9096508281813d8311612e5d575b612e4d818361288e565b810103126105885751955f612cea565b503d612e43565b9092604051937f23b872dd000000000000000000000000000000000000000000000000000000005f526001600160a01b0393848092166004521660245260445260205f60648180855af160015f5114811615612efc575b836040525f60605215612ecd57505050565b602493507f5274afe7000000000000000000000000000000000000000000000000000000008352166004820152fd5b6001811516612f1257813b15153d151616612ebb565b833d5f823e3d90fd5b604051906306e0c07f60e31b825260048201525f816024816001600160a01b037f0000000000000000000000000000000000000000000000000000000000000000165afa9081612fb2575b50612fb057606460405163d647364f60e01b815260206004820152601860248201527f436f6d6d756e69747920646f6573206e6f7420657869737400000000000000006044820152fd5b565b612fc5903d805f833e6118a3818361288e565b505f612f66565b90815f52602091600783526040916001600160a01b03835f20911690815f528452825f20549182156127f15762015180804204818102918183041490151715610e5b57831015613098575b5050613025603c9142612c20565b1061302e575050565b60849250519063d647364f60e01b82526004820152602160248201527f506f737420746f6f20736f6f6e2061667465722070726576696f757320706f7360448201527f74000000000000000000000000000000000000000000000000000000000000006064820152fd5b5f5260068452825f20905f528352600a825f205410156130b9575f80613017565b60648383519063d647364f60e01b82526004820152601360248201527f52617465206c696d6974206578636565646564000000000000000000000000006044820152fdfea2646970667358221220308a21551b7b3be803be3ad17bfc16307eaef703325c279a7b0a7cdac8f98d5864736f6c63430008180033","linkReferences":{}},"methodIdentifiers":{"addBounty(uint256,address,uint256)":"4dc71cde","approvedWinner(uint256)":"17392d17","comments(uint256)":"8ebb4c15","communityRegistry()":"a200ac86","communityRequests(uint256,uint256)":"ec83b4ac","completeEngagement(uint256,bytes)":"1aaafcec","createRequest(uint256,string,string,string[])":"9876e5f4","getComment(uint256)":"0800e300","getCommunityRequests(uint256)":"9aa75dd5","getRequest(uint256)":"c58343ef","getRequestComments(uint256)":"6c3f69e0","getRequestsByTag(uint256,string)":"3c77e8bf","linkValuableAction(uint256,uint256)":"006ee86f","moderateComment(uint256,bool)":"0473de27","nextCommentId()":"d0bdacbe","nextRequestId()":"6a84a985","postComment(uint256,uint256,string)":"ed0c9c92","requestComments(uint256,uint256)":"7d583055","requests(uint256)":"81d12c58","setApprovedWinner(uint256,address)":"956b2a22","setRequestStatus(uint256,uint8)":"ca83a826","userLastPostTime(uint256,address)":"113a80d3","userRequestCount(uint256,address)":"77d4b800","valuableActionRegistry()":"10127811"},"id":5}