{
  "_format": "hh-sol-artifact-1",
  "contractName": "RevenueRouter",
  "sourceName": "contracts/modules/RevenueRouter.sol",
  "abi": [
    {
      "inputs": [
        {
          "internalType": "address",
          "name": "manager",
          "type": "address"
        },
        {
          "internalType": "address",
          "name": "_paramController",
          "type": "address"
        },
        {
          "internalType": "address",
          "name": "_cohortRegistry",
          "type": "address"
        },
        {
          "internalType": "address",
          "name": "_sbt",
          "type": "address"
        },
        {
          "internalType": "uint256",
          "name": "_communityId",
          "type": "uint256"
        }
      ],
      "stateMutability": "nonpayable",
      "type": "constructor"
    },
    {
      "inputs": [
        {
          "internalType": "address",
          "name": "authority",
          "type": "address"
        }
      ],
      "name": "AccessManagedInvalidAuthority",
      "type": "error"
    },
    {
      "inputs": [
        {
          "internalType": "address",
          "name": "caller",
          "type": "address"
        },
        {
          "internalType": "uint32",
          "name": "delay",
          "type": "uint32"
        }
      ],
      "name": "AccessManagedRequiredDelay",
      "type": "error"
    },
    {
      "inputs": [
        {
          "internalType": "address",
          "name": "caller",
          "type": "address"
        }
      ],
      "name": "AccessManagedUnauthorized",
      "type": "error"
    },
    {
      "inputs": [
        {
          "internalType": "address",
          "name": "account",
          "type": "address"
        },
        {
          "internalType": "uint256",
          "name": "required",
          "type": "uint256"
        },
        {
          "internalType": "uint256",
          "name": "actual",
          "type": "uint256"
        }
      ],
      "name": "InsufficientBalance",
      "type": "error"
    },
    {
      "inputs": [
        {
          "internalType": "string",
          "name": "reason",
          "type": "string"
        }
      ],
      "name": "InvalidInput",
      "type": "error"
    },
    {
      "inputs": [
        {
          "internalType": "address",
          "name": "caller",
          "type": "address"
        }
      ],
      "name": "NotAuthorized",
      "type": "error"
    },
    {
      "inputs": [],
      "name": "ReentrancyGuardReentrantCall",
      "type": "error"
    },
    {
      "inputs": [
        {
          "internalType": "address",
          "name": "token",
          "type": "address"
        }
      ],
      "name": "SafeERC20FailedOperation",
      "type": "error"
    },
    {
      "inputs": [],
      "name": "ZeroAddress",
      "type": "error"
    },
    {
      "anonymous": false,
      "inputs": [
        {
          "indexed": false,
          "internalType": "address",
          "name": "authority",
          "type": "address"
        }
      ],
      "name": "AuthorityUpdated",
      "type": "event"
    },
    {
      "anonymous": false,
      "inputs": [
        {
          "indexed": false,
          "internalType": "address",
          "name": "oldRegistry",
          "type": "address"
        },
        {
          "indexed": false,
          "internalType": "address",
          "name": "newRegistry",
          "type": "address"
        }
      ],
      "name": "CohortRegistryUpdated",
      "type": "event"
    },
    {
      "anonymous": false,
      "inputs": [
        {
          "indexed": true,
          "internalType": "uint256",
          "name": "communityId",
          "type": "uint256"
        },
        {
          "indexed": true,
          "internalType": "address",
          "name": "token",
          "type": "address"
        },
        {
          "indexed": false,
          "internalType": "uint256",
          "name": "amount",
          "type": "uint256"
        }
      ],
      "name": "CohortsAllocated",
      "type": "event"
    },
    {
      "anonymous": false,
      "inputs": [
        {
          "indexed": true,
          "internalType": "uint256",
          "name": "communityId",
          "type": "uint256"
        },
        {
          "indexed": false,
          "internalType": "address",
          "name": "oldTreasury",
          "type": "address"
        },
        {
          "indexed": false,
          "internalType": "address",
          "name": "newTreasury",
          "type": "address"
        }
      ],
      "name": "CommunityTreasuryUpdated",
      "type": "event"
    },
    {
      "anonymous": false,
      "inputs": [
        {
          "indexed": false,
          "internalType": "address",
          "name": "oldController",
          "type": "address"
        },
        {
          "indexed": false,
          "internalType": "address",
          "name": "newController",
          "type": "address"
        }
      ],
      "name": "ParamControllerUpdated",
      "type": "event"
    },
    {
      "anonymous": false,
      "inputs": [
        {
          "indexed": true,
          "internalType": "uint256",
          "name": "tokenId",
          "type": "uint256"
        },
        {
          "indexed": true,
          "internalType": "uint256",
          "name": "communityId",
          "type": "uint256"
        },
        {
          "indexed": false,
          "internalType": "uint32",
          "name": "points",
          "type": "uint32"
        }
      ],
      "name": "PositionRegistered",
      "type": "event"
    },
    {
      "anonymous": false,
      "inputs": [
        {
          "indexed": true,
          "internalType": "uint256",
          "name": "tokenId",
          "type": "uint256"
        },
        {
          "indexed": true,
          "internalType": "uint256",
          "name": "communityId",
          "type": "uint256"
        },
        {
          "indexed": false,
          "internalType": "uint32",
          "name": "points",
          "type": "uint32"
        }
      ],
      "name": "PositionUnregistered",
      "type": "event"
    },
    {
      "anonymous": false,
      "inputs": [
        {
          "indexed": true,
          "internalType": "uint256",
          "name": "communityId",
          "type": "uint256"
        },
        {
          "indexed": true,
          "internalType": "address",
          "name": "token",
          "type": "address"
        },
        {
          "indexed": false,
          "internalType": "uint256",
          "name": "amount",
          "type": "uint256"
        },
        {
          "indexed": false,
          "internalType": "uint256",
          "name": "indexAfter",
          "type": "uint256"
        }
      ],
      "name": "PositionsAllocated",
      "type": "event"
    },
    {
      "anonymous": false,
      "inputs": [
        {
          "indexed": true,
          "internalType": "uint256",
          "name": "communityId",
          "type": "uint256"
        },
        {
          "indexed": true,
          "internalType": "address",
          "name": "token",
          "type": "address"
        },
        {
          "indexed": false,
          "internalType": "uint256",
          "name": "amount",
          "type": "uint256"
        }
      ],
      "name": "RevenueDistributed",
      "type": "event"
    },
    {
      "anonymous": false,
      "inputs": [
        {
          "indexed": true,
          "internalType": "uint256",
          "name": "communityId",
          "type": "uint256"
        },
        {
          "indexed": true,
          "internalType": "address",
          "name": "token",
          "type": "address"
        },
        {
          "indexed": false,
          "internalType": "uint256",
          "name": "amount",
          "type": "uint256"
        },
        {
          "indexed": false,
          "internalType": "uint8",
          "name": "target",
          "type": "uint8"
        }
      ],
      "name": "SpilloverAllocated",
      "type": "event"
    },
    {
      "anonymous": false,
      "inputs": [
        {
          "indexed": true,
          "internalType": "uint256",
          "name": "communityId",
          "type": "uint256"
        },
        {
          "indexed": true,
          "internalType": "address",
          "name": "token",
          "type": "address"
        },
        {
          "indexed": false,
          "internalType": "bool",
          "name": "supported",
          "type": "bool"
        }
      ],
      "name": "TokenSupportUpdated",
      "type": "event"
    },
    {
      "anonymous": false,
      "inputs": [
        {
          "indexed": true,
          "internalType": "uint256",
          "name": "communityId",
          "type": "uint256"
        },
        {
          "indexed": true,
          "internalType": "address",
          "name": "token",
          "type": "address"
        },
        {
          "indexed": false,
          "internalType": "uint256",
          "name": "amount",
          "type": "uint256"
        }
      ],
      "name": "TreasuryAllocated",
      "type": "event"
    },
    {
      "inputs": [],
      "name": "MAX_BPS",
      "outputs": [
        {
          "internalType": "uint256",
          "name": "",
          "type": "uint256"
        }
      ],
      "stateMutability": "view",
      "type": "function"
    },
    {
      "inputs": [
        {
          "internalType": "uint256",
          "name": "communityId_",
          "type": "uint256"
        }
      ],
      "name": "activePositionPoints",
      "outputs": [
        {
          "internalType": "uint256",
          "name": "",
          "type": "uint256"
        }
      ],
      "stateMutability": "view",
      "type": "function"
    },
    {
      "inputs": [],
      "name": "authority",
      "outputs": [
        {
          "internalType": "address",
          "name": "",
          "type": "address"
        }
      ],
      "stateMutability": "view",
      "type": "function"
    },
    {
      "inputs": [
        {
          "internalType": "uint256",
          "name": "tokenId",
          "type": "uint256"
        },
        {
          "internalType": "address",
          "name": "token",
          "type": "address"
        },
        {
          "internalType": "address",
          "name": "to",
          "type": "address"
        }
      ],
      "name": "claimInvestment",
      "outputs": [],
      "stateMutability": "nonpayable",
      "type": "function"
    },
    {
      "inputs": [
        {
          "internalType": "uint256",
          "name": "tokenId",
          "type": "uint256"
        },
        {
          "internalType": "address",
          "name": "token",
          "type": "address"
        },
        {
          "internalType": "address",
          "name": "to",
          "type": "address"
        }
      ],
      "name": "claimPosition",
      "outputs": [],
      "stateMutability": "nonpayable",
      "type": "function"
    },
    {
      "inputs": [
        {
          "internalType": "uint256",
          "name": "",
          "type": "uint256"
        },
        {
          "internalType": "address",
          "name": "",
          "type": "address"
        }
      ],
      "name": "cohortIndex",
      "outputs": [
        {
          "internalType": "uint256",
          "name": "",
          "type": "uint256"
        }
      ],
      "stateMutability": "view",
      "type": "function"
    },
    {
      "inputs": [
        {
          "internalType": "uint256",
          "name": "",
          "type": "uint256"
        },
        {
          "internalType": "address",
          "name": "",
          "type": "address"
        }
      ],
      "name": "cohortIndexPaid",
      "outputs": [
        {
          "internalType": "uint256",
          "name": "",
          "type": "uint256"
        }
      ],
      "stateMutability": "view",
      "type": "function"
    },
    {
      "inputs": [],
      "name": "cohortRegistry",
      "outputs": [
        {
          "internalType": "contract ICohortRegistry",
          "name": "",
          "type": "address"
        }
      ],
      "stateMutability": "view",
      "type": "function"
    },
    {
      "inputs": [],
      "name": "communityId",
      "outputs": [
        {
          "internalType": "uint256",
          "name": "",
          "type": "uint256"
        }
      ],
      "stateMutability": "view",
      "type": "function"
    },
    {
      "inputs": [
        {
          "internalType": "uint256",
          "name": "communityId_",
          "type": "uint256"
        }
      ],
      "name": "communityTreasuries",
      "outputs": [
        {
          "internalType": "address",
          "name": "",
          "type": "address"
        }
      ],
      "stateMutability": "view",
      "type": "function"
    },
    {
      "inputs": [
        {
          "internalType": "uint256",
          "name": "tokenId",
          "type": "uint256"
        },
        {
          "internalType": "address",
          "name": "token",
          "type": "address"
        }
      ],
      "name": "getClaimableInvestment",
      "outputs": [
        {
          "internalType": "uint256",
          "name": "",
          "type": "uint256"
        }
      ],
      "stateMutability": "view",
      "type": "function"
    },
    {
      "inputs": [
        {
          "internalType": "uint256",
          "name": "tokenId",
          "type": "uint256"
        },
        {
          "internalType": "address",
          "name": "token",
          "type": "address"
        }
      ],
      "name": "getClaimablePosition",
      "outputs": [
        {
          "internalType": "uint256",
          "name": "",
          "type": "uint256"
        }
      ],
      "stateMutability": "view",
      "type": "function"
    },
    {
      "inputs": [],
      "name": "isConsumingScheduledOp",
      "outputs": [
        {
          "internalType": "bytes4",
          "name": "",
          "type": "bytes4"
        }
      ],
      "stateMutability": "view",
      "type": "function"
    },
    {
      "inputs": [],
      "name": "paramController",
      "outputs": [
        {
          "internalType": "contract IParamController",
          "name": "",
          "type": "address"
        }
      ],
      "stateMutability": "view",
      "type": "function"
    },
    {
      "inputs": [
        {
          "internalType": "uint256",
          "name": "",
          "type": "uint256"
        }
      ],
      "name": "positionCommunity",
      "outputs": [
        {
          "internalType": "uint256",
          "name": "",
          "type": "uint256"
        }
      ],
      "stateMutability": "view",
      "type": "function"
    },
    {
      "inputs": [
        {
          "internalType": "uint256",
          "name": "",
          "type": "uint256"
        },
        {
          "internalType": "address",
          "name": "",
          "type": "address"
        }
      ],
      "name": "positionIndexPaid",
      "outputs": [
        {
          "internalType": "uint256",
          "name": "",
          "type": "uint256"
        }
      ],
      "stateMutability": "view",
      "type": "function"
    },
    {
      "inputs": [
        {
          "internalType": "uint256",
          "name": "",
          "type": "uint256"
        }
      ],
      "name": "positionPoints",
      "outputs": [
        {
          "internalType": "uint32",
          "name": "",
          "type": "uint32"
        }
      ],
      "stateMutability": "view",
      "type": "function"
    },
    {
      "inputs": [
        {
          "internalType": "uint256",
          "name": "",
          "type": "uint256"
        }
      ],
      "name": "positionRegistered",
      "outputs": [
        {
          "internalType": "bool",
          "name": "",
          "type": "bool"
        }
      ],
      "stateMutability": "view",
      "type": "function"
    },
    {
      "inputs": [
        {
          "internalType": "uint256",
          "name": "communityId_",
          "type": "uint256"
        },
        {
          "internalType": "address",
          "name": "token",
          "type": "address"
        }
      ],
      "name": "positionsIndex",
      "outputs": [
        {
          "internalType": "uint256",
          "name": "",
          "type": "uint256"
        }
      ],
      "stateMutability": "view",
      "type": "function"
    },
    {
      "inputs": [
        {
          "internalType": "uint256",
          "name": "tokenId",
          "type": "uint256"
        }
      ],
      "name": "registerPosition",
      "outputs": [],
      "stateMutability": "nonpayable",
      "type": "function"
    },
    {
      "inputs": [
        {
          "internalType": "uint256",
          "name": "communityId_",
          "type": "uint256"
        },
        {
          "internalType": "address",
          "name": "token",
          "type": "address"
        },
        {
          "internalType": "uint256",
          "name": "amount",
          "type": "uint256"
        }
      ],
      "name": "routeRevenue",
      "outputs": [],
      "stateMutability": "nonpayable",
      "type": "function"
    },
    {
      "inputs": [
        {
          "internalType": "address",
          "name": "newAuthority",
          "type": "address"
        }
      ],
      "name": "setAuthority",
      "outputs": [],
      "stateMutability": "nonpayable",
      "type": "function"
    },
    {
      "inputs": [
        {
          "internalType": "address",
          "name": "newRegistry",
          "type": "address"
        }
      ],
      "name": "setCohortRegistry",
      "outputs": [],
      "stateMutability": "nonpayable",
      "type": "function"
    },
    {
      "inputs": [
        {
          "internalType": "uint256",
          "name": "communityId_",
          "type": "uint256"
        },
        {
          "internalType": "address",
          "name": "treasury",
          "type": "address"
        }
      ],
      "name": "setCommunityTreasury",
      "outputs": [],
      "stateMutability": "nonpayable",
      "type": "function"
    },
    {
      "inputs": [
        {
          "internalType": "address",
          "name": "newController",
          "type": "address"
        }
      ],
      "name": "setParamController",
      "outputs": [],
      "stateMutability": "nonpayable",
      "type": "function"
    },
    {
      "inputs": [
        {
          "internalType": "uint256",
          "name": "communityId_",
          "type": "uint256"
        },
        {
          "internalType": "address",
          "name": "token",
          "type": "address"
        },
        {
          "internalType": "bool",
          "name": "supported",
          "type": "bool"
        }
      ],
      "name": "setSupportedToken",
      "outputs": [],
      "stateMutability": "nonpayable",
      "type": "function"
    },
    {
      "inputs": [
        {
          "internalType": "uint256",
          "name": "communityId_",
          "type": "uint256"
        },
        {
          "internalType": "address",
          "name": "token",
          "type": "address"
        }
      ],
      "name": "supportedTokens",
      "outputs": [
        {
          "internalType": "bool",
          "name": "",
          "type": "bool"
        }
      ],
      "stateMutability": "view",
      "type": "function"
    },
    {
      "inputs": [
        {
          "internalType": "uint256",
          "name": "communityId_",
          "type": "uint256"
        },
        {
          "internalType": "address",
          "name": "token",
          "type": "address"
        }
      ],
      "name": "treasuryAccrual",
      "outputs": [
        {
          "internalType": "uint256",
          "name": "",
          "type": "uint256"
        }
      ],
      "stateMutability": "view",
      "type": "function"
    },
    {
      "inputs": [
        {
          "internalType": "uint256",
          "name": "tokenId",
          "type": "uint256"
        }
      ],
      "name": "unregisterPosition",
      "outputs": [],
      "stateMutability": "nonpayable",
      "type": "function"
    },
    {
      "inputs": [],
      "name": "valuableActionSBT",
      "outputs": [
        {
          "internalType": "contract IValuableActionSBT",
          "name": "",
          "type": "address"
        }
      ],
      "stateMutability": "view",
      "type": "function"
    },
    {
      "inputs": [
        {
          "internalType": "uint256",
          "name": "communityId_",
          "type": "uint256"
        },
        {
          "internalType": "address",
          "name": "token",
          "type": "address"
        },
        {
          "internalType": "uint256",
          "name": "amount",
          "type": "uint256"
        },
        {
          "internalType": "address",
          "name": "to",
          "type": "address"
        }
      ],
      "name": "withdrawTreasury",
      "outputs": [],
      "stateMutability": "nonpayable",
      "type": "function"
    }
  ],
  "bytecode": "0x60a0346200020b57601f6200286738819003918201601f191683019291906001600160401b038411838510176200020f578160a092849260409687528339810103126200020b57620000518162000223565b6200005f6020830162000223565b906200006d84840162000223565b9260806200007e6060830162000223565b9101519360018060a01b038093168360018060a01b03199582875f5416175f557f2f658b440c35314f52658ea8a740e05b284cdc84dc9ae01e891f21b8933e7cad60208a51858152a16001805516908115908115620001ff575b8115620001f3575b8115620001e9575b50620001d85785156200019f5790839185600254161760025516836003541617600355169060045416176004556080525161262e90816200023982396080518181816105220152818161084d01528181610beb01528181610e3701528181610fc00152818161127d015281816113c1015281816114090152818161144901528181611479015281816114ae0152818161173101528181611b4d01528181611d540152818161247b015281816124ce015261253a0152f35b865163d647364f60e01b8152602060048201526011602482015270496e76616c696420636f6d6d756e69747960781b6044820152606490fd5b865163d92e233d60e01b8152600490fd5b9050155f620000e8565b848616159150620000e0565b838616159150620000d8565b5f80fd5b634e487b7160e01b5f52604160045260245ffd5b51906001600160a01b03821682036200020b5756fe6080604052600480361015610012575f80fd5b5f35908160e01c91826302ec6eda146111b357826315431c481461118257826325bd25171461115b5782632c4212c41461113d578263307fc1aa1461110d57826331f6e120146110e557826348b82132146110be57826352bbbe5d1461109f5782635af5347114610ed15750816360dec8df14610e8e578163666b004c14610dc55781636b3be69614610cb95781637a9e5e4b14610c0e5781637f50861a14610bd45781638d72d057146107a65781638fb3603714610763578163972cd92b1461073e578163991da746146107115781639aaf5cfc146104735781639c835ff71461044b578163a12f4eea14610408578163b3d31ea614610373578163b807a2e6146102ce578163bf7e214f146102a7578163c19eaa0814610264578163d0d1854d1461023c578163e5284d9a14610216578163e8901184146101f0578163ef2034db146101c2578163fd52e59514610194575063fd967f4714610174575f80fd5b34610190575f3660031901126101905760206040516127108152f35b5f80fd5b34610190576040366003190112610190576101ba6020916101b361133d565b9035611bf6565b604051908152f35b3461019057602036600319011261019057355f52600a602052602063ffffffff60405f205416604051908152f35b34610190575f36600319011261019057546040516001600160a01b039091168152602090f35b34610190576040366003190112610190576101ba60209161023561133d565b9035611af6565b34610190575f366003190112610190576002546040516001600160a01b039091168152602090f35b346101905760403660031901126101905761027d61133d565b90355f52600e60205260405f209060018060a01b03165f52602052602060405f2054604051908152f35b34610190575f366003190112610190575f546040516001600160a01b039091168152602090f35b34610190576020366003190112610190576102e7611353565b906102f23633611ed7565b6001600160a01b03908282169081156103645750600280546001600160a01b031981169092179055604080516001600160a01b0393909216831682529190921660208301527fd44eb4810c935bcbfd8980748b8dbaf20fb31e889bb5597ee95789a95aaab41f9190819081015b0390a1005b60405163d92e233d60e01b8152fd5b346101905760203660031901126101905761038c611353565b906103973633611ed7565b6001600160a01b03908282169081156103645750600380546001600160a01b031981169092179055604080516001600160a01b0393909216831682529190921660208301527fdbae28b74235568f542b9e7ffe53bbbd0ff2850ea2149aa66af600aab156e2e891908190810161035f565b346101905760403660031901126101905761042161133d565b90355f52600d60205260405f209060018060a01b03165f52602052602060405f2054604051908152f35b3461019057602036600319011261019057355f526009602052602060405f2054604051908152f35b34610190576020806003193601126101905781356104913633611ed7565b805f526008825260ff60405f2054166106d757825460405163b09afec160e01b815280850183905261018093918490829060249082906001600160a01b03165afa9384156106cc575f9461069d575b50508251600581101561068a576003036106475767ffffffffffffffff610100840151166106125760a083019263ffffffff9081855116156105df57820151937f00000000000000000000000000000000000000000000000000000000000000008095036105c257907ffdb09a95bf087442d5b49221e7d1390fd08d762ff2a5916eb61d7020af1c34079291845f526008835260405f20600160ff19825416179055600983528560405f205581815116600a845260405f209063ffffffff198254161790556105b482825116600b546118a5565b600b555116604051908152a3005b60405163d647364f60e01b8152806105db81890161166c565b0390fd5b60405163d647364f60e01b8152808701849052600b60248201526a5a65726f20706f696e747360a81b6044820152606490fd5b836064916040519163d647364f60e01b8352820152600e60248201526d141bdcda5d1a5bdb88195b99195960921b6044820152fd5b6105db8460405191829163d647364f60e01b835282016060906020815260126020820152712737ba103837b9b4ba34b7b7103a37b5b2b760711b60408201520190565b602185634e487b7160e01b5f525260245ffd5b6106bd929450803d106106c5575b6106b58183611530565b810190611586565b9184806104e0565b503d6106ab565b6040513d5f823e3d90fd5b60405163d647364f60e01b81528084018390526012602482015271105b1c9958591e481c9959da5cdd195c995960721b6044820152606490fd5b3461019057602036600319011261019057355f526008602052602060ff60405f2054166040519015158152f35b346101905761075d61074f36611369565b91610758611d2f565b6118b2565b60018055005b34610190575f366003190112610190575f5460a01c60ff161561079e576020638fb3603760e01b5b6040516001600160e01b03199091168152f35b60205f61078b565b34610190576060366003190112610190576107bf61133d565b6107c93633611ed7565b6107d1611d2f565b6107db8235611d52565b60443515610b98576001600160a01b038181165f9081526006602052604090205460ff1615610b5f57602491926108436040516323b872dd60e01b6020820152338582015230604482015260443560648201526064815261083b81611514565b83861661257e565b60808260025416917f00000000000000000000000000000000000000000000000000000000000000009485916040519485938492636996856f60e11b84528301525afa80156106cc57845f915f925f945f92610ab9575b5061094a61095f7f2ff16bd72e6515200e2c2ac219e490d69e5adf1b899e529f2b3610a58669a05e979561095060209896866109b7966109599891600260ff8c16149081610aac575b50610aa2575b61090d612710918261090261ffff809316604435611699565b049616604435611699565b049861092e6109278b6109228860443561139e565b61139e565b9a84612025565b61094561093e8d879b949b6120d1565b809d61139e565b6118a5565b92612414565b969190926118a5565b926118a5565b9280610a6e575b506109758461094585846118a5565b80604435115f14610a665761098c9060443561139e565b905b61099882826118a5565b868b165f52600788526109b060405f209182546118a5565b90556118a5565b604051908152867fef2dd4ee18c0649f4a8606eb0d72dcc366cce954ac0c7a656f14cfbe6d08e49486868b1693a38287165f52600c845260405f205460405191825284820152857f6ccbf89fab7bccd9c0abf98a4edf13a08e65d40a13912b9428b13632769cf21a6040858a1693a3604051908152847fe5b756663a202df024aea162bf4bb9b692ba31b1f18cb3075608a7a053a7799b8484891693a36040519460443586521693a360018055005b505f9061098e565b9081610a79916118a5565b90604051908152600187820152885f805160206125d98339815191526040888d1693a389610966565b61138891506108e9565b61ffff915016155f6108e3565b9450505050506080813d608011610b57575b81610ad860809383611530565b81010312610190577f2ff16bd72e6515200e2c2ac219e490d69e5adf1b899e529f2b3610a58669a05e91816109596109b761094a61095f610b1a602097611896565b946109508b610b2a8a8401611896565b610b426060610b3b60408701611578565b9501611896565b9890939897509550969850509597505061089a565b3d9150610acb565b60405163d647364f60e01b815260208185015260116024820152702ab739bab83837b93a32b2103a37b5b2b760791b6044820152606490fd5b6105db8260405191829163d647364f60e01b8352820160609060208152600b60208201526a16995c9bc8185b5bdd5b9d60aa1b60408201520190565b34610190575f3660031901126101905760206040517f00000000000000000000000000000000000000000000000000000000000000008152f35b3461019057602036600319011261019057610c27611353565b5f54916001600160a01b0391908284163303610ca257813b15610c8a577f2f658b440c35314f52658ea8a740e05b284cdc84dc9ae01e891f21b8933e7cad60208585851680916bffffffffffffffffffffffff60a01b16175f55604051908152a1005b602492604051926361798f2f60e11b84521690820152fd5b6024906040519062d1953b60e31b82523390820152fd5b34610190576020908160031936011261019057803590610cd93633611ed7565b815f526008835260ff60405f20541615610d8f5750805f52600982527f3e0c05e15c0af4f864ac4dbcdbabf57d69ce649b320f46199cba34bc27923af460405f205492600a815263ffffffff60405f2054166008825260405f2060ff198154169055600982525f6040812055600a825260405f2063ffffffff19815416905580151580610d83575b610d6f575b604051908152a3005b610d7b81600b5461139e565b600b55610d66565b5080600b541015610d61565b60405163d647364f60e01b8152908101839052600e60248201526d139bdd081c9959da5cdd195c995960921b6044820152606490fd5b3461019057604036600319011261019057610dde61133d565b610de83633611ed7565b610df28235611d52565b6001600160a01b0381811691908215610e7d57600580546001600160a01b03198116949094179055604080516001600160a01b039290941682168452911660208301527f0000000000000000000000000000000000000000000000000000000000000000917fb48dfa2309b313dbb4bb81400e29a24c49b64b915fc85657ab0233ede3f951209190a2005b60405163d92e233d60e01b81528490fd5b3461019057604036600319011261019057610ea761133d565b90355f52600f60205260405f209060018060a01b03165f52602052602060405f2054604051908152f35b3461019057606036600319011261019057610eea61133d565b9060443591821515809303610190575f80546001600160a01b03929190838116368811610190575f8060405f81519960209a8b81019163b700961360e01b835233602483015230604483015263ffffffff60e01b16606482015260648152610f5181611514565b828052828c525190865afa61108e575b15610fe3575b50505050610f758535611d52565b1692831561036457507f2cd0e2d9f28ea02c722dd6cf4d460b6c53daa27d12f26415f19c752e0b17790590835f526006815260405f2060ff1981541660ff85161790556040519283527f000000000000000000000000000000000000000000000000000000000000000092a3005b63ffffffff16156110785760ff60a01b19918216600160a01b175f55803b15610190575f6040518092634a63ebf760e11b8252338b830152604060248301523660448301523683606484013782606436840101528183606482601f19601f36011681010301925af180156106cc57611065575b50815416905585808080610f67565b6110709192506114ec565b5f9087611056565b60405162d1953b60e31b815233818a0152602490fd5b50505f51865180881c150290610f61565b346101905761075d6110b036611369565b916110b9611d2f565b6116ca565b5034610190576040366003190112610190576101ba6020916110de61133d565b90356114ac565b34610190575f366003190112610190576003546040516001600160a01b039091168152602090f35b50346101905760203660031901126101905761112b60209135611477565b6040516001600160a01b039091168152f35b5034610190576020366003190112610190576101ba60209135611447565b5034610190576040366003190112610190576101ba60209161117b61133d565b9035611407565b5034610190576040366003190112610190576111a96020916111a261133d565b90356113bf565b6040519015158152f35b5034610190576080366003190112610190576111cd61133d565b60443590606435906001600160a01b0390818316808403610190576111f0611d2f565b6111fa8635611d52565b1561132c578160055416801561131b5733036113045783156112c8571692835f52600760205260405f20548381106112a45750508161125291845f52600760205260405f2061124a83825461139e565b905584611d94565b6040519081527fef2dd4ee18c0649f4a8606eb0d72dcc366cce954ac0c7a656f14cfbe6d08e49460207f000000000000000000000000000000000000000000000000000000000000000092a360018055005b60649250836040519263db42144d60e01b8452309084015260248301526044820152fd5b6105db8560405191829163d647364f60e01b8352820160609060208152600b60208201526a16995c9bc8185b5bdd5b9d60aa1b60408201520190565b604051634a0bfec160e01b81523381870152602490fd5b60405163d92e233d60e01b81528690fd5b60405163d92e233d60e01b81528590fd5b602435906001600160a01b038216820361019057565b600435906001600160a01b038216820361019057565b606090600319011261019057600435906001600160a01b03906024358281168103610190579160443590811681036101905790565b919082039182116113ab57565b634e487b7160e01b5f52601160045260245ffd5b7f000000000000000000000000000000000000000000000000000000000000000003611402576001600160a01b03165f9081526006602052604090205460ff1690565b505f90565b7f000000000000000000000000000000000000000000000000000000000000000003611402576001600160a01b03165f9081526007602052604090205490565b7f00000000000000000000000000000000000000000000000000000000000000000361147357600b5490565b5f90565b7f000000000000000000000000000000000000000000000000000000000000000003611473576005546001600160a01b031690565b7f000000000000000000000000000000000000000000000000000000000000000003611402576001600160a01b03165f908152600c602052604090205490565b67ffffffffffffffff811161150057604052565b634e487b7160e01b5f52604160045260245ffd5b60a0810190811067ffffffffffffffff82111761150057604052565b90601f8019910116810190811067ffffffffffffffff82111761150057604052565b519063ffffffff8216820361019057565b519067ffffffffffffffff8216820361019057565b519060ff8216820361019057565b809161018092839103126101905760405191820182811067ffffffffffffffff8211176115005760405280516005811015610190578252602081015160208301526040810151604083015260608101516060830152608081015160808301526115f160a08201611552565b60a083015261160260c08201611552565b60c083015261161360e08201611563565b60e0830152610100611626818301611563565b90830152610120611638818301611563565b9083015261014061164a818301611578565b9083015261016090810151906001600160a01b03821682036101905782015290565b606090602081526012602082015271086dedadaeadcd2e8f240dad2e6dac2e8c6d60731b60408201520190565b818102929181159184041417156113ab57565b81156116b6570490565b634e487b7160e01b5f52601260045260245ffd5b6001600160a01b03929091838216156118845760049380855416906040918251809163b09afec160e01b825287898301528160246101809485935afa91821561187a575f9261185d575b50508051600581101561184a5760030361180957602096878201517f0000000000000000000000000000000000000000000000000000000000000000036117ef578261175f88611de4565b1633036117d8575060a063ffffffff91015116921694855f52600c8152670de0b6b3a76400006117af835f205494875f52600d8452845f20895f5284526117a9855f20548761139e565b90611699565b04945f52600d8152815f2090865f52525f205581156117d3576117d192611d94565b565b505050565b602490845190634a0bfec160e01b82523390820152fd5b835163d647364f60e01b81529081906105db90820161166c565b825163d647364f60e01b81526020818901818152601291810191909152712737ba103837b9b4ba34b7b7103a37b5b2b760711b604082015281906060010390fd5b602188634e487b7160e01b5f525260245ffd5b6118739250803d106106c5576106b58183611530565b5f80611714565b84513d5f823e3d90fd5b60405163d92e233d60e01b8152600490fd5b519061ffff8216820361019057565b919082018092116113ab57565b90916001600160a01b0380821615611884576004908082541691604091825180809563b09afec160e01b8252888583015261018092839160249889915afa918215611aec575f92611acf575b505080516005811015611abd578303611a8357608001518015611a4f578161192588611de4565b163303611a395781600354169284519586946374c4ef1760e11b86528983870152858260209788935afa968715611a2f575f97611a00575b5086156119c65750505f52600e8252825f20961695865f528152670de0b6b3a76400006119a4835f205494875f52600f8452845f20895f5284526117a9855f20548761139e565b04945f52600f8152815f2090865f52525f205581156117d3576117d192611d94565b855163d647364f60e01b815291820185905260149082015273139bc81a5b9d995cdd1b595b9d081dd95a59da1d60621b6044820152606490fd5b9096508481813d8311611a28575b611a188183611530565b810103126101905751955f61195d565b503d611a0e565b86513d5f823e3d90fd5b5050905190634a0bfec160e01b82523390820152fd5b835163d647364f60e01b8152602081850152600e818701526d135a5cdcda5b99c818dbda1bdc9d60921b6044820152606490fd5b835163d647364f60e01b8152602081850152601481870152732737ba1034b73b32b9ba36b2b73a103a37b5b2b760611b6044820152606490fd5b85602185634e487b7160e01b5f52525ffd5b611ae59250803d106106c5576106b58183611530565b5f806118fe565b85513d5f823e3d90fd5b9060018060a01b03908160045416604051809163b09afec160e01b82528560048301528160246101809485935afa9182156106cc575f92611bd9575b505080516005811015611bc557600303611bbd5760208101517f000000000000000000000000000000000000000000000000000000000000000003611bbd57670de0b6b3a764000093611bb99363ffffffff60a06117a9940151169316805f52600c60205260405f2054915f52600d60205260405f20905f5260205260405f20549061139e565b0490565b505050505f90565b634e487b7160e01b5f52602160045260245ffd5b611bef9250803d106106c5576106b58183611530565b5f80611b32565b60018060a01b03908160045416906040918251809163b09afec160e01b82528360048301528160246101809485935afa91821561187a575f92611d12575b505080516005811015611bc557600403611d0957608001519083600354169280519586946374c4ef1760e11b86528360048701528560246020998a935afa948515611cff575f95611cd0575b508415611cc557670de0b6b3a764000096611bb9966117a9955f52600e8252835f20921691825f528152825f2054935f52600f8152825f20915f52525f20549061139e565b505050505050505f90565b9094508681813d8311611cf8575b611ce88183611530565b810103126101905751935f611c80565b503d611cde565b82513d5f823e3d90fd5b50505050505f90565b611d289250803d106106c5576106b58183611530565b5f80611c34565b600260015414611d40576002600155565b604051633ee5aeb560e01b8152600490fd5b7f000000000000000000000000000000000000000000000000000000000000000003611d7a57565b60405163d647364f60e01b8152806105db6004820161166c565b60405163a9059cbb60e01b60208201526001600160a01b039092166024830152604480830193909352918152608081019167ffffffffffffffff831182841017611500576117d19260405261257e565b6004546040516331a9108f60e11b60208083019182526024808401959095529382526001600160a01b03939267ffffffffffffffff9291606083019186169084831184841017611500575f93849360405251915afa3d15611ece573d9182116115005760405191611e5e601f8201601f1916850184611530565b82523d5f8484013e5b158015611ec5575b611e8e5781818051810103126101905701519081168091036101905790565b60405163d647364f60e01b815260048101839052600e60248201526d1bdddb995c93d98819985a5b195960921b6044820152606490fd5b50805115611e6f565b60609150611e67565b5f8054909290916001600160a01b038084169260048110610190575f928384916040958691825196602088019163b700961360e01b8352169687602482015230604482015263ffffffff60e01b833516606482015260648152611f3981611514565b828052826020525190895afa612012575b15611f59575b50505050505050565b63ffffffff1615611ffc5760ff60a01b19948516600160a01b175f55833b15610190576064935f92838551968780958194634a63ebf760e11b835260048301528860248301528060448301528084848401378181018301849052601f01601f191681010301925af1908115611ff35750611fe0575b5081541690555f808080808080611f50565b611feb9192506114ec565b5f905f611fce565b513d5f823e3d90fd5b50602491519062d1953b60e31b82526004820152fd5b50505f516020518060201c150290611f4a565b600b54821561208857801561208157670de0b6b3a7640000830290670de0b6b3a763ffff19848304016113ab5761205b916116ac565b9060018060a01b03165f52600c60205261207a60405f209182546118a5565b9055905f90565b505f929050565b5050505f905f90565b67ffffffffffffffff81116115005760051b60200190565b80518210156120bd5760209160051b010190565b634e487b7160e01b5f52603260045260245ffd5b905f92811561240c576003805460408051631ea7eca760e01b81526001600160a01b0397939591949288169391926004925f838581895afa928315612402575f93612370575b508251998a15612361575f9861212c8c612091565b9b89519c61213a908e611530565b808d5261214690612091565b60209790601f1901368e8a01375f9a5b86518c10156122055789898c60248f6121708d918d6120a9565b519251948593849263ffea0cbd60e01b84528301525afa9081156121fb578f90918e925f916121c6575b5082826121b7926121b16121be96600198966120a9565b526120a9565b51906118a5565b9b019a612156565b925050508981813d83116121f4575b6121df8183611530565b8101031261019057518c908f906121be61219a565b503d6121d5565b8c513d5f823e3d90fd5b9c9195999850939a929950959094958b15612352575f995b89518b1015612344576122308b836120a9565b51908d8215612339576122576122468e8e6120a9565b5191612252858a611699565b6116ac565b92831561232d57670de0b6b3a76400008402670de0b6b3a763ffff198582040161231a5790612285916116ac565b905f52600e85528a5f208987165f5285526122a48b5f209182546118a5565b9055878754166122b48d8d6120a9565b51813b15610190575f9060448c838f51958694859363b16598a360e01b85528401528860248401525af180156123105791600193916122f893612301575b506118a5565b9a5b019961221d565b61230a906114ec565b5f6122f2565b8b513d5f823e3d90fd5b60118c634e487b7160e01b5f525260245ffd5b50509a600191506122fa565b509a600191506122fa565b9b5050505050505050505050565b505f9a50505050505050505050565b50509750505050505050505f90565b9092503d805f833e6123828183611530565b81019060209081818403126101905780519067ffffffffffffffff821161019057019180601f840112156101905782516123bb81612091565b936123c88b519586611530565b818552838086019260051b820101928311610190578301905b8282106123f35750505050915f612117565b815181529083019083016123e1565b87513d5f823e3d90fd5b925050505f90565b93919083156125715760ff168015612505576001146124b15761244c61271061244461ffff612452941686611699565b04809461139e565b84612025565b92909361245f85836118a5565b60408051918252600260208301526001600160a01b03909216917f0000000000000000000000000000000000000000000000000000000000000000915f805160206125d98339815191529190a3929190565b50604080518381526001602082015291936001600160a01b0316917f0000000000000000000000000000000000000000000000000000000000000000915f805160206125d983398151915291a3905f905f90565b5050826125168361251f9495612025565b8094919561139e565b604080519182525f60208301526001600160a01b03909216917f0000000000000000000000000000000000000000000000000000000000000000915f805160206125d98339815191529190a35f929190565b50509150505f905f905f90565b905f602091828151910182855af1156106cc575f513d6125cf57506001600160a01b0381163b155b6125ad5750565b604051635274afe760e01b81526001600160a01b039091166004820152602490fd5b600114156125a656fe3b56c0e24cd785258d86e7f3d24c12314547fc682f34181f4eb2e443236cf9dfa2646970667358221220ae8b66d4bb774fbd154e8bbd58d0046e78751d9a06b028e123e5532e4c9e17dd64736f6c63430008180033",
  "linkReferences": {},
  "deployedLinkReferences": {}
}