{"abi":[{"type":"constructor","inputs":[{"name":"manager","type":"address","internalType":"address"},{"name":"_paramController","type":"address","internalType":"address"},{"name":"_cohortRegistry","type":"address","internalType":"address"},{"name":"_sbt","type":"address","internalType":"address"},{"name":"_communityId","type":"uint256","internalType":"uint256"}],"stateMutability":"nonpayable"},{"type":"function","name":"MAX_BPS","inputs":[],"outputs":[{"name":"","type":"uint256","internalType":"uint256"}],"stateMutability":"view"},{"type":"function","name":"activePositionPoints","inputs":[],"outputs":[{"name":"","type":"uint256","internalType":"uint256"}],"stateMutability":"view"},{"type":"function","name":"authority","inputs":[],"outputs":[{"name":"","type":"address","internalType":"address"}],"stateMutability":"view"},{"type":"function","name":"claimInvestment","inputs":[{"name":"tokenId","type":"uint256","internalType":"uint256"},{"name":"token","type":"address","internalType":"address"},{"name":"to","type":"address","internalType":"address"}],"outputs":[],"stateMutability":"nonpayable"},{"type":"function","name":"claimPosition","inputs":[{"name":"tokenId","type":"uint256","internalType":"uint256"},{"name":"token","type":"address","internalType":"address"},{"name":"to","type":"address","internalType":"address"}],"outputs":[],"stateMutability":"nonpayable"},{"type":"function","name":"cohortIndex","inputs":[{"name":"","type":"uint256","internalType":"uint256"},{"name":"","type":"address","internalType":"address"}],"outputs":[{"name":"","type":"uint256","internalType":"uint256"}],"stateMutability":"view"},{"type":"function","name":"cohortIndexPaid","inputs":[{"name":"","type":"uint256","internalType":"uint256"},{"name":"","type":"address","internalType":"address"}],"outputs":[{"name":"","type":"uint256","internalType":"uint256"}],"stateMutability":"view"},{"type":"function","name":"cohortRegistry","inputs":[],"outputs":[{"name":"","type":"address","internalType":"contract ICohortRegistry"}],"stateMutability":"view"},{"type":"function","name":"communityId","inputs":[],"outputs":[{"name":"","type":"uint256","internalType":"uint256"}],"stateMutability":"view"},{"type":"function","name":"communityTreasuries","inputs":[],"outputs":[{"name":"","type":"address","internalType":"address"}],"stateMutability":"view"},{"type":"function","name":"getClaimableInvestment","inputs":[{"name":"tokenId","type":"uint256","internalType":"uint256"},{"name":"token","type":"address","internalType":"address"}],"outputs":[{"name":"","type":"uint256","internalType":"uint256"}],"stateMutability":"view"},{"type":"function","name":"getClaimablePosition","inputs":[{"name":"tokenId","type":"uint256","internalType":"uint256"},{"name":"token","type":"address","internalType":"address"}],"outputs":[{"name":"","type":"uint256","internalType":"uint256"}],"stateMutability":"view"},{"type":"function","name":"isConsumingScheduledOp","inputs":[],"outputs":[{"name":"","type":"bytes4","internalType":"bytes4"}],"stateMutability":"view"},{"type":"function","name":"paramController","inputs":[],"outputs":[{"name":"","type":"address","internalType":"contract IParamController"}],"stateMutability":"view"},{"type":"function","name":"positionIndexPaid","inputs":[{"name":"","type":"uint256","internalType":"uint256"},{"name":"","type":"address","internalType":"address"}],"outputs":[{"name":"","type":"uint256","internalType":"uint256"}],"stateMutability":"view"},{"type":"function","name":"positionPoints","inputs":[{"name":"","type":"uint256","internalType":"uint256"}],"outputs":[{"name":"","type":"uint32","internalType":"uint32"}],"stateMutability":"view"},{"type":"function","name":"positionRegistered","inputs":[{"name":"","type":"uint256","internalType":"uint256"}],"outputs":[{"name":"","type":"bool","internalType":"bool"}],"stateMutability":"view"},{"type":"function","name":"positionsIndex","inputs":[{"name":"token","type":"address","internalType":"address"}],"outputs":[{"name":"","type":"uint256","internalType":"uint256"}],"stateMutability":"view"},{"type":"function","name":"registerPosition","inputs":[{"name":"tokenId","type":"uint256","internalType":"uint256"}],"outputs":[],"stateMutability":"nonpayable"},{"type":"function","name":"routeRevenue","inputs":[{"name":"token","type":"address","internalType":"address"},{"name":"amount","type":"uint256","internalType":"uint256"}],"outputs":[],"stateMutability":"nonpayable"},{"type":"function","name":"setAuthority","inputs":[{"name":"newAuthority","type":"address","internalType":"address"}],"outputs":[],"stateMutability":"nonpayable"},{"type":"function","name":"setCohortRegistry","inputs":[{"name":"newRegistry","type":"address","internalType":"address"}],"outputs":[],"stateMutability":"nonpayable"},{"type":"function","name":"setCommunityTreasury","inputs":[{"name":"treasury","type":"address","internalType":"address"}],"outputs":[],"stateMutability":"nonpayable"},{"type":"function","name":"setParamController","inputs":[{"name":"newController","type":"address","internalType":"address"}],"outputs":[],"stateMutability":"nonpayable"},{"type":"function","name":"setSupportedToken","inputs":[{"name":"token","type":"address","internalType":"address"},{"name":"supported","type":"bool","internalType":"bool"}],"outputs":[],"stateMutability":"nonpayable"},{"type":"function","name":"supportedTokens","inputs":[{"name":"token","type":"address","internalType":"address"}],"outputs":[{"name":"","type":"bool","internalType":"bool"}],"stateMutability":"view"},{"type":"function","name":"treasuryAccrual","inputs":[{"name":"token","type":"address","internalType":"address"}],"outputs":[{"name":"","type":"uint256","internalType":"uint256"}],"stateMutability":"view"},{"type":"function","name":"unregisterPosition","inputs":[{"name":"tokenId","type":"uint256","internalType":"uint256"}],"outputs":[],"stateMutability":"nonpayable"},{"type":"function","name":"valuableActionSBT","inputs":[],"outputs":[{"name":"","type":"address","internalType":"contract IValuableActionSBT"}],"stateMutability":"view"},{"type":"function","name":"withdrawTreasury","inputs":[{"name":"token","type":"address","internalType":"address"},{"name":"amount","type":"uint256","internalType":"uint256"},{"name":"to","type":"address","internalType":"address"}],"outputs":[],"stateMutability":"nonpayable"},{"type":"event","name":"AuthorityUpdated","inputs":[{"name":"authority","type":"address","indexed":false,"internalType":"address"}],"anonymous":false},{"type":"event","name":"CohortRegistryUpdated","inputs":[{"name":"oldRegistry","type":"address","indexed":false,"internalType":"address"},{"name":"newRegistry","type":"address","indexed":false,"internalType":"address"}],"anonymous":false},{"type":"event","name":"CohortsAllocated","inputs":[{"name":"communityId","type":"uint256","indexed":true,"internalType":"uint256"},{"name":"token","type":"address","indexed":true,"internalType":"address"},{"name":"amount","type":"uint256","indexed":false,"internalType":"uint256"}],"anonymous":false},{"type":"event","name":"CommunityTreasuryUpdated","inputs":[{"name":"communityId","type":"uint256","indexed":true,"internalType":"uint256"},{"name":"oldTreasury","type":"address","indexed":false,"internalType":"address"},{"name":"newTreasury","type":"address","indexed":false,"internalType":"address"}],"anonymous":false},{"type":"event","name":"ParamControllerUpdated","inputs":[{"name":"oldController","type":"address","indexed":false,"internalType":"address"},{"name":"newController","type":"address","indexed":false,"internalType":"address"}],"anonymous":false},{"type":"event","name":"PositionRegistered","inputs":[{"name":"tokenId","type":"uint256","indexed":true,"internalType":"uint256"},{"name":"communityId","type":"uint256","indexed":true,"internalType":"uint256"},{"name":"points","type":"uint32","indexed":false,"internalType":"uint32"}],"anonymous":false},{"type":"event","name":"PositionUnregistered","inputs":[{"name":"tokenId","type":"uint256","indexed":true,"internalType":"uint256"},{"name":"communityId","type":"uint256","indexed":true,"internalType":"uint256"},{"name":"points","type":"uint32","indexed":false,"internalType":"uint32"}],"anonymous":false},{"type":"event","name":"PositionsAllocated","inputs":[{"name":"communityId","type":"uint256","indexed":true,"internalType":"uint256"},{"name":"token","type":"address","indexed":true,"internalType":"address"},{"name":"amount","type":"uint256","indexed":false,"internalType":"uint256"},{"name":"indexAfter","type":"uint256","indexed":false,"internalType":"uint256"}],"anonymous":false},{"type":"event","name":"RevenueDistributed","inputs":[{"name":"communityId","type":"uint256","indexed":true,"internalType":"uint256"},{"name":"token","type":"address","indexed":true,"internalType":"address"},{"name":"amount","type":"uint256","indexed":false,"internalType":"uint256"}],"anonymous":false},{"type":"event","name":"SpilloverAllocated","inputs":[{"name":"communityId","type":"uint256","indexed":true,"internalType":"uint256"},{"name":"token","type":"address","indexed":true,"internalType":"address"},{"name":"amount","type":"uint256","indexed":false,"internalType":"uint256"},{"name":"target","type":"uint8","indexed":false,"internalType":"uint8"}],"anonymous":false},{"type":"event","name":"TokenSupportUpdated","inputs":[{"name":"communityId","type":"uint256","indexed":true,"internalType":"uint256"},{"name":"token","type":"address","indexed":true,"internalType":"address"},{"name":"supported","type":"bool","indexed":false,"internalType":"bool"}],"anonymous":false},{"type":"event","name":"TreasuryAllocated","inputs":[{"name":"communityId","type":"uint256","indexed":true,"internalType":"uint256"},{"name":"token","type":"address","indexed":true,"internalType":"address"},{"name":"amount","type":"uint256","indexed":false,"internalType":"uint256"}],"anonymous":false},{"type":"error","name":"AccessManagedInvalidAuthority","inputs":[{"name":"authority","type":"address","internalType":"address"}]},{"type":"error","name":"AccessManagedRequiredDelay","inputs":[{"name":"caller","type":"address","internalType":"address"},{"name":"delay","type":"uint32","internalType":"uint32"}]},{"type":"error","name":"AccessManagedUnauthorized","inputs":[{"name":"caller","type":"address","internalType":"address"}]},{"type":"error","name":"InsufficientBalance","inputs":[{"name":"account","type":"address","internalType":"address"},{"name":"required","type":"uint256","internalType":"uint256"},{"name":"actual","type":"uint256","internalType":"uint256"}]},{"type":"error","name":"InvalidInput","inputs":[{"name":"reason","type":"string","internalType":"string"}]},{"type":"error","name":"NotAuthorized","inputs":[{"name":"caller","type":"address","internalType":"address"}]},{"type":"error","name":"ReentrancyGuardReentrantCall","inputs":[]},{"type":"error","name":"SafeERC20FailedOperation","inputs":[{"name":"token","type":"address","internalType":"address"}]},{"type":"error","name":"ZeroAddress","inputs":[]}],"bytecode":{"object":"0x60a0346200020857601f620028b938819003918201601f191683019291906001600160401b038411838510176200020c578160a092849260409687528339810103126200020857620000518162000220565b6200005f6020830162000220565b906200006d84840162000220565b9260806200007e6060830162000220565b9101519360018060a01b038093168360018060a01b03199582875f5416175f557f2f658b440c35314f52658ea8a740e05b284cdc84dc9ae01e891f21b8933e7cad60208a51858152a160017f9b779b17422d0df92223018b32b4d1fa46e071723d6817e2486d003becc55f005516908115908115620001fc575b8115620001f0575b8115620001e6575b50620001d55785156200019c5790839185600154161760015516836002541617600255169060035416176003556080525161268390816200023682396080518181816102c70152818161036d0152818161072f01528181610b2101528181610c2f01528181610dbf01528181610fc80152818161167601528181611ac60152818161238e015281816123f301526124710152f35b865163d647364f60e01b8152602060048201526011602482015270496e76616c696420636f6d6d756e69747960781b6044820152606490fd5b865163d92e233d60e01b8152600490fd5b9050155f62000108565b84861615915062000100565b838616159150620000f8565b5f80fd5b634e487b7160e01b5f52604160045260245ffd5b51906001600160a01b0382168203620002085756fe6080604052600480361015610012575f80fd5b5f3560e01c908163232f69a114610f0c57816331f6e12014610ee657816352bbbe5d14610ec757816360dec8df14610e8357816368c4ac2614610e465781636b3be69614610d1d5781637a9e5e4b14610c525781637f50861a14610c18578163862a672e14610a635781638fb36037146109f0578163972cd92b146109ab578163991da7461461097e5781639aaf5cfc14610682578163a12f4eea1461063e578163a7f37b2a14610619578163b3d31ea614610575578163b807a2e6146104cc578163bd2e474614610494578163bf7e214f1461046f578163c19eaa081461042b578163d0d1854d14610405578163d8c8fee6146103e8578163e5284d9a146103c2578163e74abe39146102f9578163e798646614610240578163e89011841461021a578163e92920d4146101e2578163ef2034db146101b4578163fd52e59514610186575063fd967f4714610166575f80fd5b34610182575f3660031901126101825760206040516127108152f35b5f80fd5b34610182576040366003190112610182576101ac6020916101a56113f3565b9035611b5b565b604051908152f35b3461018257602036600319011261018257355f526008602052602063ffffffff60405f205416604051908152f35b34610182576020366003190112610182576001600160a01b036102036113dd565b165f526006602052602060405f2054604051908152f35b34610182575f3660031901126101825760206001600160a01b0360035416604051908152f35b34610182576040366003190112610182576102596113dd565b60243590811515809203610182576001600160a01b039061027a3633611c9f565b169182156102ea5750815f52600560205260405f2060ff1981541660ff83161790556040519081527f2cd0e2d9f28ea02c722dd6cf4d460b6c53daa27d12f26415f19c752e0b17790560207f000000000000000000000000000000000000000000000000000000000000000092a3005b60405163d92e233d60e01b8152fd5b34610182576020366003190112610182576103126113dd565b61031c3633611c9f565b6001600160a01b03908181169182156103b257835473ffffffffffffffffffffffffffffffffffffffff19811693909317909355604080516001600160a01b039490931684168352921660208201527f0000000000000000000000000000000000000000000000000000000000000000917fb48dfa2309b313dbb4bb81400e29a24c49b64b915fc85657ab0233ede3f9512091a2005b8360405163d92e233d60e01b8152fd5b34610182576040366003190112610182576101ac6020916103e16113f3565b9035611a6e565b34610182575f366003190112610182576020600954604051908152f35b34610182575f3660031901126101825760206001600160a01b0360015416604051908152f35b34610182576040366003190112610182576104446113f3565b90355f52600c6020526001600160a01b0360405f2091165f52602052602060405f2054604051908152f35b34610182575f3660031901126101825760206001600160a01b035f5416604051908152f35b34610182576020366003190112610182576001600160a01b036104b56113dd565b165f52600a602052602060405f2054604051908152f35b34610182576020366003190112610182576104e56113dd565b906104f03633611c9f565b6001600160a01b03908183169081156102ea57506105707fd44eb4810c935bcbfd8980748b8dbaf20fb31e889bb5597ee95789a95aaab41f936001549273ffffffffffffffffffffffffffffffffffffffff1984161760015560405193849316839060209093929360408301946001600160a01b03809216845216910152565b0390a1005b346101825760203660031901126101825761058e6113dd565b906105993633611c9f565b6001600160a01b03908183169081156102ea57506105707fdbae28b74235568f542b9e7ffe53bbbd0ff2850ea2149aa66af600aab156e2e8936002549273ffffffffffffffffffffffffffffffffffffffff1984161760025560405193849316839060209093929360408301946001600160a01b03809216845216910152565b34610182575f366003190112610182576001600160a01b036020915416604051908152f35b34610182576040366003190112610182576106576113f3565b90355f52600b6020526001600160a01b0360405f2091165f52602052602060405f2054604051908152f35b34610182576020806003193601126101825781356106a03633611c9f565b805f526007825260ff60405f20541661093a576001600160a01b036003541691604051809363b09afec160e01b825283868301528160246101809687935afa93841561092f575f94610900575b5050825160058110156108ed5760030361089f5767ffffffffffffffff6101008401511661085b5760a083019263ffffffff90818551161561081757820151937f00000000000000000000000000000000000000000000000000000000000000008095036107c557907ffdb09a95bf087442d5b49221e7d1390fd08d762ff2a5916eb61d7020af1c34079291845f526007835260405f20600160ff19825416179055818151166008845260405f209063ffffffff198254161790556107b7828251166009546114f7565b6009555116604051908152a3005b6108138660405191829163d647364f60e01b8352820160609060208152601260208201527f436f6d6d756e697479206d69736d61746368000000000000000000000000000060408201520190565b0390fd5b606486846040519163d647364f60e01b8352820152600b60248201527f5a65726f20706f696e74730000000000000000000000000000000000000000006044820152fd5b836064916040519163d647364f60e01b8352820152600e60248201527f506f736974696f6e20656e6465640000000000000000000000000000000000006044820152fd5b6108138460405191829163d647364f60e01b8352820160609060208152601260208201527f4e6f7420706f736974696f6e20746f6b656e000000000000000000000000000060408201520190565b602185634e487b7160e01b5f525260245ffd5b610920929450803d10610928575b6109188183611466565b81019061152a565b9184806106ed565b503d61090e565b6040513d5f823e3d90fd5b606483836040519163d647364f60e01b8352820152601260248201527f416c7265616479207265676973746572656400000000000000000000000000006044820152fd5b3461018257602036600319011261018257355f526007602052602060ff60405f2054166040519015158152f35b34610182576109ca6109bc36611409565b916109c5611e73565b61180a565b60017f9b779b17422d0df92223018b32b4d1fa46e071723d6817e2486d003becc55f0055005b34610182575f366003190112610182575f5460a01c60ff1615610a5b5760207f8fb36037000000000000000000000000000000000000000000000000000000005b7fffffffff0000000000000000000000000000000000000000000000000000000060405191168152f35b60205f610a31565b3461018257606036600319011261018257610a7c6113dd565b60243590604435906001600160a01b039081831680840361018257610a9f611e73565b15610c0857818554168015610bf8573303610be1578315610ba5571692835f52600660205260405f2054838110610b6857505081610af691845f52600660205260405f20610aee8382546114ea565b9055846125bb565b6040519081527fef2dd4ee18c0649f4a8606eb0d72dcc366cce954ac0c7a656f14cfbe6d08e49460207f000000000000000000000000000000000000000000000000000000000000000092a360017f9b779b17422d0df92223018b32b4d1fa46e071723d6817e2486d003becc55f0055005b6064925083604051927fdb42144d000000000000000000000000000000000000000000000000000000008452309084015260248301526044820152fd5b6108138560405191829163d647364f60e01b8352820160609060208152600b60208201526a16995c9bc8185b5bdd5b9d60aa1b60408201520190565b604051634a0bfec160e01b81523381870152602490fd5b8560405163d92e233d60e01b8152fd5b8460405163d92e233d60e01b8152fd5b34610182575f3660031901126101825760206040517f00000000000000000000000000000000000000000000000000000000000000008152f35b3461018257602036600319011261018257610c6b6113dd565b905f54916001600160a01b03918284163303610d0657813b15610cd5577f2f658b440c35314f52658ea8a740e05b284cdc84dc9ae01e891f21b8933e7cad602073ffffffffffffffffffffffffffffffffffffffff198686861691829116175f55604051908152a1005b602492604051927fc2f31e5e0000000000000000000000000000000000000000000000000000000084521690820152fd5b6024906040519062d1953b60e31b82523390820152fd5b34610182576020908160031936011261018257803590610d3d3633611c9f565b815f526007835260ff60405f20541615610e025750805f52600882527f3e0c05e15c0af4f864ac4dbcdbabf57d69ce649b320f46199cba34bc27923af463ffffffff60405f205416926007815260405f2060ff1981541690556008815260405f2063ffffffff19815416905583151580610df6575b610de2575b6040519384527f000000000000000000000000000000000000000000000000000000000000000093a3005b610dee846009546114ea565b600955610db7565b50836009541015610db2565b606490836040519163d647364f60e01b8352820152600e60248201527f4e6f7420726567697374657265640000000000000000000000000000000000006044820152fd5b34610182576020366003190112610182576001600160a01b03610e676113dd565b165f526005602052602060ff60405f2054166040519015158152f35b3461018257604036600319011261018257610e9c6113f3565b90355f52600d6020526001600160a01b0360405f2091165f52602052602060405f2054604051908152f35b34610182576109ca610ed836611409565b91610ee1611e73565b611610565b34610182575f3660031901126101825760206001600160a01b0360025416604051908152f35b3461018257604036600319011261018257610f256113dd565b90610f303633611c9f565b610f38611e73565b602435156113a1576001600160a01b03908183165f52600560205260ff60405f2054161561135c576040517f23b872dd000000000000000000000000000000000000000000000000000000005f523382523060245260243560445260205f606481808789165af160015f511481161561133b575b816040525f6060521561132657509060249160808260015416917f000000000000000000000000000000000000000000000000000000000000000094859160405194859384927fd32d0ade0000000000000000000000000000000000000000000000000000000084528301525afa801561092f57845f915f925f945f92611280575b506110de6110f37f2ff16bd72e6515200e2c2ac219e490d69e5adf1b899e529f2b3610a58669a05e97956110e4602098968661114b966110ed9891600260ff8c16149081611273575b50611269575b6110a1612710918261109661ffff8093166024356114a5565b0496166024356114a5565b04986110c26110bb8b6110b6886024356114ea565b6114ea565b9a84611ecd565b6110d96110d28d879b949b611f7a565b809d6114ea565b6114f7565b92612306565b969190926114f7565b926114f7565b9280611222575b50611109846110d985846114f7565b80602435115f1461121a57611120906024356114ea565b905b61112c82826114f7565b868b165f526006885261114460405f209182546114f7565b90556114f7565b604051908152867fef2dd4ee18c0649f4a8606eb0d72dcc366cce954ac0c7a656f14cfbe6d08e49486868b1693a38287165f52600a845260405f205460405191825284820152857f6ccbf89fab7bccd9c0abf98a4edf13a08e65d40a13912b9428b13632769cf21a6040858a1693a3604051908152847fe5b756663a202df024aea162bf4bb9b692ba31b1f18cb3075608a7a053a7799b8484891693a36040519460243586521693a360017f9b779b17422d0df92223018b32b4d1fa46e071723d6817e2486d003becc55f0055005b505f90611122565b908161122d916114f7565b90604051908152600187820152887f3b56c0e24cd785258d86e7f3d24c12314547fc682f34181f4eb2e443236cf9df6040888d1693a3896110fa565b611388915061107d565b61ffff915016155f611077565b9450505050506080813d60801161131e575b8161129f60809383611466565b81010312610182577f2ff16bd72e6515200e2c2ac219e490d69e5adf1b899e529f2b3610a58669a05e91816110ed61114b6110de6110f36112e1602097611488565b946110e48b6112f18a8401611488565b611309606061130260408701611497565b9501611488565b9890939897509550969850509597505061102e565b3d9150611292565b91602493635274afe760e01b84521690820152fd5b6001811516611353578385163b15153d151616610fac565b503d5f823e3d90fd5b60649060206040519163d647364f60e01b8352820152601160248201527f556e737570706f7274656420746f6b656e0000000000000000000000000000006044820152fd5b6108139060405191829163d647364f60e01b8352820160609060208152600b60208201526a16995c9bc8185b5bdd5b9d60aa1b60408201520190565b600435906001600160a01b038216820361018257565b602435906001600160a01b038216820361018257565b606090600319011261018257600435906001600160a01b03906024358281168103610182579160443590811681036101825790565b67ffffffffffffffff811161145257604052565b634e487b7160e01b5f52604160045260245ffd5b90601f8019910116810190811067ffffffffffffffff82111761145257604052565b519061ffff8216820361018257565b519060ff8216820361018257565b818102929181159184041417156114b857565b634e487b7160e01b5f52601160045260245ffd5b81156114d6570490565b634e487b7160e01b5f52601260045260245ffd5b919082039182116114b857565b919082018092116114b857565b519063ffffffff8216820361018257565b519067ffffffffffffffff8216820361018257565b809161018092839103126101825760405191820182811067ffffffffffffffff82111761145257604052805160058110156101825782526020810151602083015260408101516040830152606081015160608301526080810151608083015261159560a08201611504565b60a08301526115a660c08201611504565b60c08301526115b760e08201611515565b60e08301526101006115ca818301611515565b908301526101206115dc818301611515565b908301526101406115ee818301611497565b9083015261016080910151906001600160a01b03821682036101825782015290565b90916001600160a01b0392838216156117f9578360035416936040908151809663b09afec160e01b8252866004830152816024610180998a935afa9687156117ef575f976117d0575b5050855160058110156117bc5760030361177757602095868101517f00000000000000000000000000000000000000000000000000000000000000000361173257816116a4876124a5565b16330361171c5760a063ffffffff91015116921694855f52600a8152670de0b6b3a76400006116f3835f205494875f52600b8452845f20895f5284526116ed855f2054876114ea565b906114a5565b04945f52600b8152815f2090865f52525f2055811561171757611715926125bb565b565b505050565b60248351634a0bfec160e01b8152336004820152fd5b825163d647364f60e01b815260206004820152601260248201527f436f6d6d756e697479206d69736d6174636800000000000000000000000000006044820152606490fd5b505163d647364f60e01b815260206004820152601260248201527f4e6f7420706f736974696f6e20746f6b656e00000000000000000000000000006044820152606490fd5b634e487b7160e01b5f52602160045260245ffd5b6117e7929750803d10610928576109188183611466565b945f80611659565b83513d5f823e3d90fd5b600460405163d92e233d60e01b8152fd5b90916001600160a01b03808216156117f957806003541660409081519263b09afec160e01b84528380600493888583015261018092839160249889915afa918215611a64575f92611a47575b505080516005811015611a355783036119f2576080015180156119af578161187d886124a5565b1633036119995781600254169284519586946374c4ef1760e11b86528983870152858260209788935afa96871561198f575f97611960575b50861561191e5750505f52600c8252825f20961695865f528152670de0b6b3a76400006118fc835f205494875f52600d8452845f20895f5284526116ed855f2054876114ea565b04945f52600d8152815f2090865f52525f2055811561171757611715926125bb565b9060146064928688519363d647364f60e01b85528401528201527f4e6f20696e766573746d656e74207765696768740000000000000000000000006044820152fd5b9096508481813d8311611988575b6119788183611466565b810103126101825751955f6118b5565b503d61196e565b86513d5f823e3d90fd5b5050905190634a0bfec160e01b82523390820152fd5b606483600e87602088519363d647364f60e01b85528401528201527f4d697373696e6720636f686f72740000000000000000000000000000000000006044820152fd5b606483601487602088519363d647364f60e01b85528401528201527f4e6f7420696e766573746d656e7420746f6b656e0000000000000000000000006044820152fd5b85602185634e487b7160e01b5f52525ffd5b611a5d9250803d10610928576109188183611466565b5f80611856565b85513d5f823e3d90fd5b906001600160a01b03908160035416604051809163b09afec160e01b82528560048301528160246101809485935afa91821561092f575f92611b3e575b5050805160058110156117bc57600303611b365760208101517f000000000000000000000000000000000000000000000000000000000000000003611b3657670de0b6b3a764000093611b329363ffffffff60a06116ed940151169316805f52600a60205260405f2054915f52600b60205260405f20905f5260205260405f2054906114ea565b0490565b505050505f90565b611b549250803d10610928576109188183611466565b5f80611aab565b6001600160a01b03908160035416906040918251809163b09afec160e01b82528360048301528160246101809485935afa918215611c95575f92611c78575b5050805160058110156117bc57600403611c6f57608001519083600254169280519586946374c4ef1760e11b86528360048701528560246020998a935afa948515611c65575f95611c36575b508415611c2b57670de0b6b3a764000096611b32966116ed955f52600c8252835f20921691825f528152825f2054935f52600d8152825f20915f52525f2054906114ea565b505050505050505f90565b9094508681813d8311611c5e575b611c4e8183611466565b810103126101825751935f611be6565b503d611c44565b82513d5f823e3d90fd5b50505050505f90565b611c8e9250803d10610928576109188183611466565b5f80611b9a565b84513d5f823e3d90fd5b5f915f54916001600160a01b03908184169280600411610182575f8060409485519060208201957fb700961300000000000000000000000000000000000000000000000000000000875216948560248301523060448301527fffffffff000000000000000000000000000000000000000000000000000000005f351660648301526064825260a082019082821067ffffffffffffffff8311176114525787925f928452828052826020525190895afa611e60575b15611d62575b50505050505050565b63ffffffff1615611e4a57740100000000000000000000000000000000000000007fffffffffffffffffffffff00ffffffffffffffffffffffffffffffffffffffff809616175f55833b15610182576064935f928385519687809581947f94c7d7ee00000000000000000000000000000000000000000000000000000000835260048301528860248301528060448301528084848401378181018301849052601f01601f191681010301925af1908115611e415750611e2e575b5081541690555f808080808080611d59565b611e3991925061143e565b5f905f611e1c565b513d5f823e3d90fd5b50602491519062d1953b60e31b82526004820152fd5b50505f516020518060201c150290611d53565b7f9b779b17422d0df92223018b32b4d1fa46e071723d6817e2486d003becc55f006002815414611ea35760029055565b60046040517f3ee5aeb5000000000000000000000000000000000000000000000000000000008152fd5b6009548215611f31578015611f2a57670de0b6b3a76400008302670de0b6b3a763ffff19848204016114b8576001600160a01b0391611f0b916114cc565b91165f52600a602052611f2360405f209182546114f7565b9055905f90565b505f929050565b5050505f905f90565b67ffffffffffffffff81116114525760051b60200190565b8051821015611f665760209160051b010190565b634e487b7160e01b5f52603260045260245ffd5b905f9281156122fe576001600160a01b03936002928560025416916040938451907f1ea7eca70000000000000000000000000000000000000000000000000000000082526004925f83600481895afa9283156122f4575f93612262575b508251998a15612253575f98611fec8c611f3a565b9b89519c611ffa908e611466565b808d5261200690611f3a565b60209790601f1901368e8a01375f9a5b86518c10156120de5789898c60248f6120308d918d611f52565b51925194859384927fffea0cbd0000000000000000000000000000000000000000000000000000000084528301525afa9081156120d4578f90918e925f9161209f575b5082826120909261208a6120979660019896611f52565b52611f52565b51906114f7565b9b019a612016565b925050508981813d83116120cd575b6120b88183611466565b8101031261018257518c908f90612097612073565b503d6120ae565b8c513d5f823e3d90fd5b9c9195999850939a929950959094958b15612244575f995b89518b1015612236576121098b83611f52565b51908d821561222b5761213061211f8e8e611f52565b519161212b858a6114a5565b6114cc565b92831561221f57670de0b6b3a76400008402670de0b6b3a763ffff198582040161220c579061215e916114cc565b905f52600c85528a5f208987165f52855261217d8b5f209182546114f7565b90558787541661218d8d8d611f52565b51813b15610182575f9060448c838f5195869485937fb16598a30000000000000000000000000000000000000000000000000000000085528401528860248401525af180156122025791600193916121ea936121f3575b506114f7565b9a5b01996120f6565b6121fc9061143e565b5f6121e4565b8b513d5f823e3d90fd5b60118c634e487b7160e01b5f525260245ffd5b50509a600191506121ec565b509a600191506121ec565b9b5050505050505050505050565b505f9a50505050505050505050565b50509750505050505050505f90565b9092503d805f833e6122748183611466565b81019060209081818403126101825780519067ffffffffffffffff821161018257019180601f840112156101825782516122ad81611f3a565b936122ba8b519586611466565b818552838086019260051b820101928311610182578301905b8282106122e55750505050915f611fd7565b815181529083019083016122d3565b87513d5f823e3d90fd5b925050505f90565b93919083156124985760ff16801561241b576001146123b45761233e61271061233661ffff6123449416866114a5565b0480946114ea565b84611ecd565b9290936001600160a01b0361235986846114f7565b916040519283526002602084015216907f3b56c0e24cd785258d86e7f3d24c12314547fc682f34181f4eb2e443236cf9df60407f000000000000000000000000000000000000000000000000000000000000000092a3929190565b50916001600160a01b03604051918383526001602084015216907f3b56c0e24cd785258d86e7f3d24c12314547fc682f34181f4eb2e443236cf9df60407f000000000000000000000000000000000000000000000000000000000000000092a3905f905f90565b5050826001600160a01b036124348461243d9596611ecd565b809591966114ea565b916040519283525f602084015216907f3b56c0e24cd785258d86e7f3d24c12314547fc682f34181f4eb2e443236cf9df60407f000000000000000000000000000000000000000000000000000000000000000092a35f929190565b50509150505f905f905f90565b6001600160a01b0390816003541690604051602092838201927f6352211e000000000000000000000000000000000000000000000000000000008452602483015260248252606082019067ffffffffffffffff9383831085841117611452575f93849360405251915afa3d156125b2573d9182116114525760405191612534601f8201601f1916850184611466565b82523d5f8484013e5b1580156125a9575b6125645781818051810103126101825701519081168091036101825790565b6064826040519063d647364f60e01b82526004820152600e60248201527f6f776e65724f66206661696c65640000000000000000000000000000000000006044820152fd5b50805115612545565b6060915061253d565b604051927fa9059cbb000000000000000000000000000000000000000000000000000000005f526001600160a01b0380931660045260245260205f60448180855af160015f511481161561262e575b836040521561261857505050565b60249350635274afe760e01b8352166004820152fd5b600181151661264457813b15153d15161661260a565b833d5f823e3d90fdfea26469706673582212202fb85602688885e6bf4ad4c72aa035198524a77460e62f15c9a83a40e31397c764736f6c63430008180033","linkReferences":{}},"methodIdentifiers":{"MAX_BPS()":"fd967f47","activePositionPoints()":"d8c8fee6","authority()":"bf7e214f","claimInvestment(uint256,address,address)":"972cd92b","claimPosition(uint256,address,address)":"52bbbe5d","cohortIndex(uint256,address)":"c19eaa08","cohortIndexPaid(uint256,address)":"60dec8df","cohortRegistry()":"31f6e120","communityId()":"7f50861a","communityTreasuries()":"a7f37b2a","getClaimableInvestment(uint256,address)":"fd52e595","getClaimablePosition(uint256,address)":"e5284d9a","isConsumingScheduledOp()":"8fb36037","paramController()":"d0d1854d","positionIndexPaid(uint256,address)":"a12f4eea","positionPoints(uint256)":"ef2034db","positionRegistered(uint256)":"991da746","positionsIndex(address)":"bd2e4746","registerPosition(uint256)":"9aaf5cfc","routeRevenue(address,uint256)":"232f69a1","setAuthority(address)":"7a9e5e4b","setCohortRegistry(address)":"b3d31ea6","setCommunityTreasury(address)":"e74abe39","setParamController(address)":"b807a2e6","setSupportedToken(address,bool)":"e7986466","supportedTokens(address)":"68c4ac26","treasuryAccrual(address)":"e92920d4","unregisterPosition(uint256)":"6b3be696","valuableActionSBT()":"e8901184","withdrawTreasury(address,uint256,address)":"862a672e"},"id":25}