{"abi":[{"type":"constructor","inputs":[{"name":"token","type":"address","internalType":"address"},{"name":"accessManager","type":"address","internalType":"address"},{"name":"baseDelaySeconds","type":"uint32","internalType":"uint32"}],"stateMutability":"nonpayable"},{"type":"receive","stateMutability":"payable"},{"type":"function","name":"BALLOT_TYPEHASH","inputs":[],"outputs":[{"name":"","type":"bytes32","internalType":"bytes32"}],"stateMutability":"view"},{"type":"function","name":"CLOCK_MODE","inputs":[],"outputs":[{"name":"","type":"string","internalType":"string"}],"stateMutability":"view"},{"type":"function","name":"COUNTING_MODE","inputs":[],"outputs":[{"name":"","type":"string","internalType":"string"}],"stateMutability":"pure"},{"type":"function","name":"EXTENDED_BALLOT_TYPEHASH","inputs":[],"outputs":[{"name":"","type":"bytes32","internalType":"bytes32"}],"stateMutability":"view"},{"type":"function","name":"accessManager","inputs":[],"outputs":[{"name":"","type":"address","internalType":"contract IAccessManager"}],"stateMutability":"view"},{"type":"function","name":"baseDelaySeconds","inputs":[],"outputs":[{"name":"","type":"uint32","internalType":"uint32"}],"stateMutability":"view"},{"type":"function","name":"cancel","inputs":[{"name":"targets","type":"address[]","internalType":"address[]"},{"name":"values","type":"uint256[]","internalType":"uint256[]"},{"name":"calldatas","type":"bytes[]","internalType":"bytes[]"},{"name":"descriptionHash","type":"bytes32","internalType":"bytes32"}],"outputs":[{"name":"","type":"uint256","internalType":"uint256"}],"stateMutability":"nonpayable"},{"type":"function","name":"castVote","inputs":[{"name":"proposalId","type":"uint256","internalType":"uint256"},{"name":"support","type":"uint8","internalType":"uint8"}],"outputs":[{"name":"","type":"uint256","internalType":"uint256"}],"stateMutability":"nonpayable"},{"type":"function","name":"castVoteBySig","inputs":[{"name":"proposalId","type":"uint256","internalType":"uint256"},{"name":"support","type":"uint8","internalType":"uint8"},{"name":"voter","type":"address","internalType":"address"},{"name":"signature","type":"bytes","internalType":"bytes"}],"outputs":[{"name":"","type":"uint256","internalType":"uint256"}],"stateMutability":"nonpayable"},{"type":"function","name":"castVoteMultiChoice","inputs":[{"name":"proposalId","type":"uint256","internalType":"uint256"},{"name":"weights","type":"uint256[]","internalType":"uint256[]"},{"name":"reason","type":"string","internalType":"string"}],"outputs":[],"stateMutability":"nonpayable"},{"type":"function","name":"castVoteWithReason","inputs":[{"name":"proposalId","type":"uint256","internalType":"uint256"},{"name":"support","type":"uint8","internalType":"uint8"},{"name":"reason","type":"string","internalType":"string"}],"outputs":[{"name":"","type":"uint256","internalType":"uint256"}],"stateMutability":"nonpayable"},{"type":"function","name":"castVoteWithReasonAndParams","inputs":[{"name":"proposalId","type":"uint256","internalType":"uint256"},{"name":"support","type":"uint8","internalType":"uint8"},{"name":"reason","type":"string","internalType":"string"},{"name":"params","type":"bytes","internalType":"bytes"}],"outputs":[{"name":"","type":"uint256","internalType":"uint256"}],"stateMutability":"nonpayable"},{"type":"function","name":"castVoteWithReasonAndParamsBySig","inputs":[{"name":"proposalId","type":"uint256","internalType":"uint256"},{"name":"support","type":"uint8","internalType":"uint8"},{"name":"voter","type":"address","internalType":"address"},{"name":"reason","type":"string","internalType":"string"},{"name":"params","type":"bytes","internalType":"bytes"},{"name":"signature","type":"bytes","internalType":"bytes"}],"outputs":[{"name":"","type":"uint256","internalType":"uint256"}],"stateMutability":"nonpayable"},{"type":"function","name":"clock","inputs":[],"outputs":[{"name":"","type":"uint48","internalType":"uint48"}],"stateMutability":"view"},{"type":"function","name":"eip712Domain","inputs":[],"outputs":[{"name":"fields","type":"bytes1","internalType":"bytes1"},{"name":"name","type":"string","internalType":"string"},{"name":"version","type":"string","internalType":"string"},{"name":"chainId","type":"uint256","internalType":"uint256"},{"name":"verifyingContract","type":"address","internalType":"address"},{"name":"salt","type":"bytes32","internalType":"bytes32"},{"name":"extensions","type":"uint256[]","internalType":"uint256[]"}],"stateMutability":"view"},{"type":"function","name":"execute","inputs":[{"name":"targets","type":"address[]","internalType":"address[]"},{"name":"values","type":"uint256[]","internalType":"uint256[]"},{"name":"calldatas","type":"bytes[]","internalType":"bytes[]"},{"name":"descriptionHash","type":"bytes32","internalType":"bytes32"}],"outputs":[{"name":"","type":"uint256","internalType":"uint256"}],"stateMutability":"payable"},{"type":"function","name":"getMultiChoiceTotals","inputs":[{"name":"proposalId","type":"uint256","internalType":"uint256"}],"outputs":[{"name":"","type":"uint256[]","internalType":"uint256[]"}],"stateMutability":"view"},{"type":"function","name":"getProposalId","inputs":[{"name":"targets","type":"address[]","internalType":"address[]"},{"name":"values","type":"uint256[]","internalType":"uint256[]"},{"name":"calldatas","type":"bytes[]","internalType":"bytes[]"},{"name":"descriptionHash","type":"bytes32","internalType":"bytes32"}],"outputs":[{"name":"","type":"uint256","internalType":"uint256"}],"stateMutability":"view"},{"type":"function","name":"getVoterMultiChoiceWeights","inputs":[{"name":"proposalId","type":"uint256","internalType":"uint256"},{"name":"voter","type":"address","internalType":"address"}],"outputs":[{"name":"","type":"uint256[]","internalType":"uint256[]"}],"stateMutability":"view"},{"type":"function","name":"getVotes","inputs":[{"name":"account","type":"address","internalType":"address"},{"name":"timepoint","type":"uint256","internalType":"uint256"}],"outputs":[{"name":"","type":"uint256","internalType":"uint256"}],"stateMutability":"view"},{"type":"function","name":"getVotesWithParams","inputs":[{"name":"account","type":"address","internalType":"address"},{"name":"timepoint","type":"uint256","internalType":"uint256"},{"name":"params","type":"bytes","internalType":"bytes"}],"outputs":[{"name":"","type":"uint256","internalType":"uint256"}],"stateMutability":"view"},{"type":"function","name":"hasVoted","inputs":[{"name":"proposalId","type":"uint256","internalType":"uint256"},{"name":"account","type":"address","internalType":"address"}],"outputs":[{"name":"","type":"bool","internalType":"bool"}],"stateMutability":"view"},{"type":"function","name":"hashProposal","inputs":[{"name":"targets","type":"address[]","internalType":"address[]"},{"name":"values","type":"uint256[]","internalType":"uint256[]"},{"name":"calldatas","type":"bytes[]","internalType":"bytes[]"},{"name":"descriptionHash","type":"bytes32","internalType":"bytes32"}],"outputs":[{"name":"","type":"uint256","internalType":"uint256"}],"stateMutability":"pure"},{"type":"function","name":"initCountingMulti","inputs":[{"name":"counter","type":"address","internalType":"address"}],"outputs":[],"stateMutability":"nonpayable"},{"type":"function","name":"isAccessManagerIgnored","inputs":[{"name":"target","type":"address","internalType":"address"},{"name":"selector","type":"bytes4","internalType":"bytes4"}],"outputs":[{"name":"","type":"bool","internalType":"bool"}],"stateMutability":"view"},{"type":"function","name":"isMultiChoice","inputs":[{"name":"proposalId","type":"uint256","internalType":"uint256"}],"outputs":[{"name":"","type":"bool","internalType":"bool"}],"stateMutability":"view"},{"type":"function","name":"multiCounter","inputs":[],"outputs":[{"name":"","type":"address","internalType":"address"}],"stateMutability":"view"},{"type":"function","name":"name","inputs":[],"outputs":[{"name":"","type":"string","internalType":"string"}],"stateMutability":"view"},{"type":"function","name":"nonces","inputs":[{"name":"owner","type":"address","internalType":"address"}],"outputs":[{"name":"","type":"uint256","internalType":"uint256"}],"stateMutability":"view"},{"type":"function","name":"numOptionsOf","inputs":[{"name":"proposalId","type":"uint256","internalType":"uint256"}],"outputs":[{"name":"","type":"uint8","internalType":"uint8"}],"stateMutability":"view"},{"type":"function","name":"onERC1155BatchReceived","inputs":[{"name":"","type":"address","internalType":"address"},{"name":"","type":"address","internalType":"address"},{"name":"","type":"uint256[]","internalType":"uint256[]"},{"name":"","type":"uint256[]","internalType":"uint256[]"},{"name":"","type":"bytes","internalType":"bytes"}],"outputs":[{"name":"","type":"bytes4","internalType":"bytes4"}],"stateMutability":"nonpayable"},{"type":"function","name":"onERC1155Received","inputs":[{"name":"","type":"address","internalType":"address"},{"name":"","type":"address","internalType":"address"},{"name":"","type":"uint256","internalType":"uint256"},{"name":"","type":"uint256","internalType":"uint256"},{"name":"","type":"bytes","internalType":"bytes"}],"outputs":[{"name":"","type":"bytes4","internalType":"bytes4"}],"stateMutability":"nonpayable"},{"type":"function","name":"onERC721Received","inputs":[{"name":"","type":"address","internalType":"address"},{"name":"","type":"address","internalType":"address"},{"name":"","type":"uint256","internalType":"uint256"},{"name":"","type":"bytes","internalType":"bytes"}],"outputs":[{"name":"","type":"bytes4","internalType":"bytes4"}],"stateMutability":"nonpayable"},{"type":"function","name":"proposalDeadline","inputs":[{"name":"proposalId","type":"uint256","internalType":"uint256"}],"outputs":[{"name":"","type":"uint256","internalType":"uint256"}],"stateMutability":"view"},{"type":"function","name":"proposalEta","inputs":[{"name":"proposalId","type":"uint256","internalType":"uint256"}],"outputs":[{"name":"","type":"uint256","internalType":"uint256"}],"stateMutability":"view"},{"type":"function","name":"proposalExecutionPlan","inputs":[{"name":"proposalId","type":"uint256","internalType":"uint256"}],"outputs":[{"name":"delay","type":"uint32","internalType":"uint32"},{"name":"indirect","type":"bool[]","internalType":"bool[]"},{"name":"withDelay","type":"bool[]","internalType":"bool[]"}],"stateMutability":"view"},{"type":"function","name":"proposalNeedsQueuing","inputs":[{"name":"proposalId","type":"uint256","internalType":"uint256"}],"outputs":[{"name":"","type":"bool","internalType":"bool"}],"stateMutability":"view"},{"type":"function","name":"proposalProposer","inputs":[{"name":"proposalId","type":"uint256","internalType":"uint256"}],"outputs":[{"name":"","type":"address","internalType":"address"}],"stateMutability":"view"},{"type":"function","name":"proposalSnapshot","inputs":[{"name":"proposalId","type":"uint256","internalType":"uint256"}],"outputs":[{"name":"","type":"uint256","internalType":"uint256"}],"stateMutability":"view"},{"type":"function","name":"proposalThreshold","inputs":[],"outputs":[{"name":"","type":"uint256","internalType":"uint256"}],"stateMutability":"view"},{"type":"function","name":"proposalVotes","inputs":[{"name":"proposalId","type":"uint256","internalType":"uint256"}],"outputs":[{"name":"againstVotes","type":"uint256","internalType":"uint256"},{"name":"forVotes","type":"uint256","internalType":"uint256"},{"name":"abstainVotes","type":"uint256","internalType":"uint256"}],"stateMutability":"view"},{"type":"function","name":"propose","inputs":[{"name":"targets","type":"address[]","internalType":"address[]"},{"name":"values","type":"uint256[]","internalType":"uint256[]"},{"name":"calldatas","type":"bytes[]","internalType":"bytes[]"},{"name":"description","type":"string","internalType":"string"}],"outputs":[{"name":"","type":"uint256","internalType":"uint256"}],"stateMutability":"nonpayable"},{"type":"function","name":"proposeMultiChoice","inputs":[{"name":"targets","type":"address[]","internalType":"address[]"},{"name":"values","type":"uint256[]","internalType":"uint256[]"},{"name":"calldatas","type":"bytes[]","internalType":"bytes[]"},{"name":"description","type":"string","internalType":"string"},{"name":"numOptions","type":"uint8","internalType":"uint8"}],"outputs":[{"name":"proposalId","type":"uint256","internalType":"uint256"}],"stateMutability":"nonpayable"},{"type":"function","name":"queue","inputs":[{"name":"targets","type":"address[]","internalType":"address[]"},{"name":"values","type":"uint256[]","internalType":"uint256[]"},{"name":"calldatas","type":"bytes[]","internalType":"bytes[]"},{"name":"descriptionHash","type":"bytes32","internalType":"bytes32"}],"outputs":[{"name":"","type":"uint256","internalType":"uint256"}],"stateMutability":"nonpayable"},{"type":"function","name":"quorum","inputs":[{"name":"blockNumber","type":"uint256","internalType":"uint256"}],"outputs":[{"name":"","type":"uint256","internalType":"uint256"}],"stateMutability":"view"},{"type":"function","name":"quorumDenominator","inputs":[],"outputs":[{"name":"","type":"uint256","internalType":"uint256"}],"stateMutability":"view"},{"type":"function","name":"quorumNumerator","inputs":[{"name":"timepoint","type":"uint256","internalType":"uint256"}],"outputs":[{"name":"","type":"uint256","internalType":"uint256"}],"stateMutability":"view"},{"type":"function","name":"quorumNumerator","inputs":[],"outputs":[{"name":"","type":"uint256","internalType":"uint256"}],"stateMutability":"view"},{"type":"function","name":"relay","inputs":[{"name":"target","type":"address","internalType":"address"},{"name":"value","type":"uint256","internalType":"uint256"},{"name":"data","type":"bytes","internalType":"bytes"}],"outputs":[],"stateMutability":"payable"},{"type":"function","name":"setAccessManagerIgnored","inputs":[{"name":"target","type":"address","internalType":"address"},{"name":"selectors","type":"bytes4[]","internalType":"bytes4[]"},{"name":"ignored","type":"bool","internalType":"bool"}],"outputs":[],"stateMutability":"nonpayable"},{"type":"function","name":"setBaseDelaySeconds","inputs":[{"name":"newBaseDelay","type":"uint32","internalType":"uint32"}],"outputs":[],"stateMutability":"nonpayable"},{"type":"function","name":"setCountingMulti","inputs":[{"name":"counter","type":"address","internalType":"address"}],"outputs":[],"stateMutability":"nonpayable"},{"type":"function","name":"setProposalThreshold","inputs":[{"name":"newProposalThreshold","type":"uint256","internalType":"uint256"}],"outputs":[],"stateMutability":"nonpayable"},{"type":"function","name":"setVotingDelay","inputs":[{"name":"newVotingDelay","type":"uint48","internalType":"uint48"}],"outputs":[],"stateMutability":"nonpayable"},{"type":"function","name":"setVotingPeriod","inputs":[{"name":"newVotingPeriod","type":"uint32","internalType":"uint32"}],"outputs":[],"stateMutability":"nonpayable"},{"type":"function","name":"state","inputs":[{"name":"proposalId","type":"uint256","internalType":"uint256"}],"outputs":[{"name":"","type":"uint8","internalType":"enum IGovernor.ProposalState"}],"stateMutability":"view"},{"type":"function","name":"supportsInterface","inputs":[{"name":"interfaceId","type":"bytes4","internalType":"bytes4"}],"outputs":[{"name":"","type":"bool","internalType":"bool"}],"stateMutability":"view"},{"type":"function","name":"token","inputs":[],"outputs":[{"name":"","type":"address","internalType":"contract IERC5805"}],"stateMutability":"view"},{"type":"function","name":"updateQuorumNumerator","inputs":[{"name":"newQuorumNumerator","type":"uint256","internalType":"uint256"}],"outputs":[],"stateMutability":"nonpayable"},{"type":"function","name":"version","inputs":[],"outputs":[{"name":"","type":"string","internalType":"string"}],"stateMutability":"view"},{"type":"function","name":"votingDelay","inputs":[],"outputs":[{"name":"","type":"uint256","internalType":"uint256"}],"stateMutability":"view"},{"type":"function","name":"votingPeriod","inputs":[],"outputs":[{"name":"","type":"uint256","internalType":"uint256"}],"stateMutability":"view"},{"type":"event","name":"AccessManagerIgnoredSet","inputs":[{"name":"target","type":"address","indexed":false,"internalType":"address"},{"name":"selector","type":"bytes4","indexed":false,"internalType":"bytes4"},{"name":"ignored","type":"bool","indexed":false,"internalType":"bool"}],"anonymous":false},{"type":"event","name":"BaseDelaySet","inputs":[{"name":"oldBaseDelaySeconds","type":"uint32","indexed":false,"internalType":"uint32"},{"name":"newBaseDelaySeconds","type":"uint32","indexed":false,"internalType":"uint32"}],"anonymous":false},{"type":"event","name":"EIP712DomainChanged","inputs":[],"anonymous":false},{"type":"event","name":"MultiChoiceProposalCreated","inputs":[{"name":"proposalId","type":"uint256","indexed":true,"internalType":"uint256"},{"name":"proposer","type":"address","indexed":true,"internalType":"address"},{"name":"numOptions","type":"uint8","indexed":false,"internalType":"uint8"},{"name":"description","type":"string","indexed":false,"internalType":"string"}],"anonymous":false},{"type":"event","name":"MultiChoiceVoteCast","inputs":[{"name":"proposalId","type":"uint256","indexed":true,"internalType":"uint256"},{"name":"voter","type":"address","indexed":true,"internalType":"address"},{"name":"weights","type":"uint256[]","indexed":false,"internalType":"uint256[]"},{"name":"totalWeight","type":"uint256","indexed":false,"internalType":"uint256"},{"name":"reason","type":"string","indexed":false,"internalType":"string"}],"anonymous":false},{"type":"event","name":"MultiCounterUpdated","inputs":[{"name":"oldCounter","type":"address","indexed":true,"internalType":"address"},{"name":"newCounter","type":"address","indexed":true,"internalType":"address"}],"anonymous":false},{"type":"event","name":"ProposalCanceled","inputs":[{"name":"proposalId","type":"uint256","indexed":false,"internalType":"uint256"}],"anonymous":false},{"type":"event","name":"ProposalCreated","inputs":[{"name":"proposalId","type":"uint256","indexed":false,"internalType":"uint256"},{"name":"proposer","type":"address","indexed":false,"internalType":"address"},{"name":"targets","type":"address[]","indexed":false,"internalType":"address[]"},{"name":"values","type":"uint256[]","indexed":false,"internalType":"uint256[]"},{"name":"signatures","type":"string[]","indexed":false,"internalType":"string[]"},{"name":"calldatas","type":"bytes[]","indexed":false,"internalType":"bytes[]"},{"name":"voteStart","type":"uint256","indexed":false,"internalType":"uint256"},{"name":"voteEnd","type":"uint256","indexed":false,"internalType":"uint256"},{"name":"description","type":"string","indexed":false,"internalType":"string"}],"anonymous":false},{"type":"event","name":"ProposalExecuted","inputs":[{"name":"proposalId","type":"uint256","indexed":false,"internalType":"uint256"}],"anonymous":false},{"type":"event","name":"ProposalQueued","inputs":[{"name":"proposalId","type":"uint256","indexed":false,"internalType":"uint256"},{"name":"etaSeconds","type":"uint256","indexed":false,"internalType":"uint256"}],"anonymous":false},{"type":"event","name":"ProposalThresholdSet","inputs":[{"name":"oldProposalThreshold","type":"uint256","indexed":false,"internalType":"uint256"},{"name":"newProposalThreshold","type":"uint256","indexed":false,"internalType":"uint256"}],"anonymous":false},{"type":"event","name":"QuorumNumeratorUpdated","inputs":[{"name":"oldQuorumNumerator","type":"uint256","indexed":false,"internalType":"uint256"},{"name":"newQuorumNumerator","type":"uint256","indexed":false,"internalType":"uint256"}],"anonymous":false},{"type":"event","name":"VoteCast","inputs":[{"name":"voter","type":"address","indexed":true,"internalType":"address"},{"name":"proposalId","type":"uint256","indexed":false,"internalType":"uint256"},{"name":"support","type":"uint8","indexed":false,"internalType":"uint8"},{"name":"weight","type":"uint256","indexed":false,"internalType":"uint256"},{"name":"reason","type":"string","indexed":false,"internalType":"string"}],"anonymous":false},{"type":"event","name":"VoteCastWithParams","inputs":[{"name":"voter","type":"address","indexed":true,"internalType":"address"},{"name":"proposalId","type":"uint256","indexed":false,"internalType":"uint256"},{"name":"support","type":"uint8","indexed":false,"internalType":"uint8"},{"name":"weight","type":"uint256","indexed":false,"internalType":"uint256"},{"name":"reason","type":"string","indexed":false,"internalType":"string"},{"name":"params","type":"bytes","indexed":false,"internalType":"bytes"}],"anonymous":false},{"type":"event","name":"VotingDelaySet","inputs":[{"name":"oldVotingDelay","type":"uint256","indexed":false,"internalType":"uint256"},{"name":"newVotingDelay","type":"uint256","indexed":false,"internalType":"uint256"}],"anonymous":false},{"type":"event","name":"VotingPeriodSet","inputs":[{"name":"oldVotingPeriod","type":"uint256","indexed":false,"internalType":"uint256"},{"name":"newVotingPeriod","type":"uint256","indexed":false,"internalType":"uint256"}],"anonymous":false},{"type":"error","name":"CheckpointUnorderedInsertion","inputs":[]},{"type":"error","name":"FailedCall","inputs":[]},{"type":"error","name":"GovernorAlreadyCastVote","inputs":[{"name":"voter","type":"address","internalType":"address"}]},{"type":"error","name":"GovernorAlreadyQueuedProposal","inputs":[{"name":"proposalId","type":"uint256","internalType":"uint256"}]},{"type":"error","name":"GovernorDisabledDeposit","inputs":[]},{"type":"error","name":"GovernorInsufficientProposerVotes","inputs":[{"name":"proposer","type":"address","internalType":"address"},{"name":"votes","type":"uint256","internalType":"uint256"},{"name":"threshold","type":"uint256","internalType":"uint256"}]},{"type":"error","name":"GovernorInvalidProposalLength","inputs":[{"name":"targets","type":"uint256","internalType":"uint256"},{"name":"calldatas","type":"uint256","internalType":"uint256"},{"name":"values","type":"uint256","internalType":"uint256"}]},{"type":"error","name":"GovernorInvalidQuorumFraction","inputs":[{"name":"quorumNumerator","type":"uint256","internalType":"uint256"},{"name":"quorumDenominator","type":"uint256","internalType":"uint256"}]},{"type":"error","name":"GovernorInvalidSignature","inputs":[{"name":"voter","type":"address","internalType":"address"}]},{"type":"error","name":"GovernorInvalidVoteParams","inputs":[]},{"type":"error","name":"GovernorInvalidVoteType","inputs":[]},{"type":"error","name":"GovernorInvalidVotingPeriod","inputs":[{"name":"votingPeriod","type":"uint256","internalType":"uint256"}]},{"type":"error","name":"GovernorLockedIgnore","inputs":[]},{"type":"error","name":"GovernorMismatchedNonce","inputs":[{"name":"proposalId","type":"uint256","internalType":"uint256"},{"name":"expectedNonce","type":"uint256","internalType":"uint256"},{"name":"actualNonce","type":"uint256","internalType":"uint256"}]},{"type":"error","name":"GovernorNonexistentProposal","inputs":[{"name":"proposalId","type":"uint256","internalType":"uint256"}]},{"type":"error","name":"GovernorNotQueuedProposal","inputs":[{"name":"proposalId","type":"uint256","internalType":"uint256"}]},{"type":"error","name":"GovernorOnlyExecutor","inputs":[{"name":"account","type":"address","internalType":"address"}]},{"type":"error","name":"GovernorQueueNotImplemented","inputs":[]},{"type":"error","name":"GovernorRestrictedProposer","inputs":[{"name":"proposer","type":"address","internalType":"address"}]},{"type":"error","name":"GovernorUnableToCancel","inputs":[{"name":"proposalId","type":"uint256","internalType":"uint256"},{"name":"account","type":"address","internalType":"address"}]},{"type":"error","name":"GovernorUnexpectedProposalState","inputs":[{"name":"proposalId","type":"uint256","internalType":"uint256"},{"name":"current","type":"uint8","internalType":"enum IGovernor.ProposalState"},{"name":"expectedStates","type":"bytes32","internalType":"bytes32"}]},{"type":"error","name":"GovernorUnmetDelay","inputs":[{"name":"proposalId","type":"uint256","internalType":"uint256"},{"name":"neededTimestamp","type":"uint256","internalType":"uint256"}]},{"type":"error","name":"InsufficientVotingPower","inputs":[{"name":"voter","type":"address","internalType":"address"},{"name":"required","type":"uint256","internalType":"uint256"},{"name":"actual","type":"uint256","internalType":"uint256"}]},{"type":"error","name":"InvalidAccountNonce","inputs":[{"name":"account","type":"address","internalType":"address"},{"name":"currentNonce","type":"uint256","internalType":"uint256"}]},{"type":"error","name":"InvalidOptionsCount","inputs":[{"name":"options","type":"uint8","internalType":"uint8"}]},{"type":"error","name":"InvalidShortString","inputs":[]},{"type":"error","name":"MultiChoiceNotEnabled","inputs":[{"name":"proposalId","type":"uint256","internalType":"uint256"}]},{"type":"error","name":"ProposalNotActive","inputs":[{"name":"proposalId","type":"uint256","internalType":"uint256"},{"name":"state","type":"uint8","internalType":"uint8"}]},{"type":"error","name":"SafeCastOverflowedUintDowncast","inputs":[{"name":"bits","type":"uint8","internalType":"uint8"},{"name":"value","type":"uint256","internalType":"uint256"}]},{"type":"error","name":"StringTooLong","inputs":[{"name":"str","type":"string","internalType":"string"}]}],"bytecode":{"object":"0x6101a060405234620000da5762000020620000196200017a565b9162000200565b604051615114908162000bc3823960805181614742015260a051816147f7015260c05181614713015260e05181614791015261010051816147b701526101205181611781015261014051816117ad015261016051818181611cae015281816123af01528181612561015281816125ec0152818161288401528181612bf601528181612fc2015281816136b60152613aae015261018051818181610ca60152818161262f01528181613569015281816138ee0152613bb80152f35b5f80fd5b634e487b7160e01b5f52604160045260245ffd5b604081019081106001600160401b038211176200010e57604052565b620000de565b60c081019081106001600160401b038211176200010e57604052565b601f909101601f19168101906001600160401b038211908210176200010e57604052565b604051906200016382620000f2565b565b51906001600160a01b0382168203620000da57565b62005d17906060823803928360405194859262000198828562000130565b833981010312620000da57620001ae8262000165565b906040620001bf6020850162000165565b9301519163ffffffff83168303620000da57929190565b60405190620001e582620000f2565b600d8252565b60405190620001fa82620000f2565b60018252565b6200016392916001600160a01b03918290620002e16200021f620001d6565b602081016c29b434b33a23b7bb32b93737b960991b815262000240620001eb565b906020820190603160f81b8252620002588462000714565b6101205262000267836200081a565b6101405283519020918260e05251902080610100524660a0526040519060208201927f8b73c3c69bb8fe3d512ecc4cf759cc79239f7b179b0ffacaa9a75d522b39400f8452604083015260608201524660808201523060a082015260a08152620002d18162000114565b5190206080523060c05262000456565b620002eb62000634565b620002f562000684565b620002ff620006dc565b16610160526200030e62000595565b16610180526200054c565b90600182811c9216801562000349575b60208310146200033557565b634e487b7160e01b5f52602260045260245ffd5b91607f169162000329565b601f811162000361575050565b60035f5260205f20906020601f840160051c830193106200039e575b601f0160051c01905b81811062000392575050565b5f815560010162000386565b90915081906200037d565b601f8111620003b6575050565b5f805260205f20906020601f840160051c83019310620003f2575b601f0160051c01905b818110620003e6575050565b5f8155600101620003da565b9091508190620003d1565b90601f82116200040b575050565b60019160015f5260205f20906020601f840160051c830193106200044b575b601f0160051c01905b8181106200044057505050565b5f8155820162000433565b90915081906200042a565b80519091906001600160401b0381116200010e5762000482816200047c60035462000319565b62000354565b602080601f8311600114620004c757508190620004b693945f92620004bb575b50508160011b915f199060031b1c19161790565b600355565b015190505f80620004a2565b60035f52601f198316949091907fc2575a0e9e593c00f959f8c92f12db2869c3395a3b0502d05e2516446f71f85b925f905b878210620005335750508360019596106200051a575b505050811b01600355565b01515f1960f88460031b161c191690555f80806200050f565b80600185968294968601518155019501930190620004f9565b600d547f65135e4d9e214a272631f85c3ab68685271bccecf1ad1336709c14e139b3328d604063ffffffff81519481851686521693846020820152a163ffffffff191617600d55565b600a5480620005e157505f8051602062005cf783398151915260405f5b620005c6620005c062000922565b62000abf565b505081516001600160d01b03909116815260046020820152a1565b5f199080828101116200062057600a5f52015f8051602062005cd783398151915201545f8051602062005cf78339815191529060409060301c620005b2565b634e487b7160e01b5f52601160045260245ffd5b6008546040519065ffffffffffff811682527fc565b045403dc03c2eea82b81a0465edad9e2e7fc4d97e11421c209da93d7a9360406201518093846020820152a165ffffffffffff191617600855565b680697800000000000006008547f7e3f7f0708a84de9203036abaa450dccc85ad5ff52f78c170f3edb55cf5e88286040805163ffffffff8460301c168152620697806020820152a163ffffffff60301b191617600855565b7fccb45da8d5717e6c4544694297c4ba5cf151d455c9bb0ed4fc7a38411bc05461604060075481519081525f6020820152a15f600755565b90815160208082105f1462000734575050906200073190620009d1565b90565b6001600160401b0382116200010e576200075a82620007545f5462000319565b620003a9565b602090601f831160011462000794575081906200078d93945f92620004bb5750508160011b915f199060031b1c19161790565b5f5560ff90565b5f8052601f198316949091907f290decd9548b62a8d60345a988386fc84ba6bc95484008f6362f93160ef3e563925f905b87821062000801575050836001959610620007e8575b505050811b015f5560ff90565b01515f1960f88460031b161c191690555f8080620007db565b80600185968294968601518155019501930190620007c5565b908151602090602081105f1462000839575050906200073190620009d1565b6001600160401b0381116200010e5760019162000862826200085c855462000319565b620003fd565b602090601f83116001146200089d57508190620008969394955f92620004bb5750508160011b915f199060031b1c19161790565b905560ff90565b60015f52601f198316959091907fb10e2d527612073b26eecdfd717e6a320cf44b4afac2b0732d9fcbe2b7fa0cf6925f905b8882106200090a5750508385969710620008f1575b505050811b01905560ff90565b01515f1960f88460031b161c191690555f8080620008e4565b808785968294968601518155019501930190620008cf565b610160516040516324776b7d60e21b815290602090829060049082906001600160a01b03165afa5f918162000964575b50620007315750620007314362000b8f565b9091506020813d602011620009a5575b81620009836020938362000130565b81010312620000da575165ffffffffffff81168103620000da57905f62000952565b3d915062000974565b602081519101519060208110620009c3575090565b5f199060200360031b1b1690565b601f815111620009ec57620009e681620009ae565b90511790565b6040519063305a27a960e01b82528160208060048301528251908160248401525f935b82851062000a32575050604492505f838284010152601f80199101168101030190fd5b848101820151868601604401529381019385935062000a0f565b5f198101919082116200062057565b600a54680100000000000000008110156200010e576001810180600a5581101562000aab57600a5f5260205f20019065ffffffffffff81511690602065ffffffffffff1991015160301b16179055565b634e487b7160e01b5f52603260045260245ffd5b600a54801562000b745762000ad862000aef9162000a4c565b600a5f525f8051602062005cd78339815191520190565b80549165ffffffffffff80821690841681811162000b62570362000b2d5750805465ffffffffffff1666040000000000001790555b60301c90600490565b62000b5c915062000b4f62000b4162000154565b65ffffffffffff9092168252565b6004602082015262000a5b565b62000b24565b604051632520601d60e01b8152600490fd5b5062000b889062000b4f62000b4162000154565b5f90600490565b65ffffffffffff9081811162000ba3571690565b604490604051906306dfcc6560e41b8252603060048301526024820152fdfe6080604052600436101561001a575b3615610018575f80fd5b005b5f3560e01c806301ffc9a7146103f457806302a251a3146103ef57806306f3f9e6146103ea57806306fdde03146103e55780630a2a550d146103e0578063143489d0146103db578063150b7a02146103d6578063160cbed7146103d1578063201e0030146103cc5780632656227d146103c75780632d63f693146103c25780632fe3e261146103bd57806336369547146103b85780633932abb1146103b35780633cb455f7146103ae5780633e4f49e6146103a957806343859632146103a4578063452115d61461039f5780634bf5d7e91461039a578063544ffc9c1461039557806354710b0f1461039057806354fd4d501461038b578063567813881461038657806357552fcb146103815780635b8d0e0d1461037c5780635f398a141461037757806360c4247f146103725780636152ec311461036d57806366db3eaf1461036857806379051887146103635780637b3c71d31461035e5780637d5e81e2146103595780637ecebe001461035457806382e493861461034f57806384b0196e1461034a5780638d7169c7146103455780638ff262e31461034057806391ddadf41461033b57806397c3d334146103365780639a802a6d14610331578063a7713a701461032c578063a8f8a66814610304578063a9a9529414610327578063ab58fb8e14610322578063b58131b01461031d578063bc197c8114610318578063c01f9e3714610313578063c041f2141461030e578063c28bc2fa14610309578063c59057e414610304578063cc3bac57146102ff578063dd4e2ba5146102fa578063deaaa7cc146102f5578063e540d01d146102f0578063e947708a146102eb578063eb9019d4146102e6578063ece40cc1146102e1578063f23a6e61146102dc578063f4bd34ca146102d7578063f8ce560a146102d2578063fc0c546a146102cd5763fdcb60680361000e57612610565b6125cd565b61252a565b6124b5565b612447565b6123f2565b612357565b6122c4565b612203565b6121c9565b61216c565b611fdf565b611d3c565b611f77565b611e9f565b611e81565b611ddf565b611dc2565b611d8d565b611d58565b611d11565b611c42565b611c27565b611bfd565b611ae1565b611876565b611769565b61172f565b6116f7565b61166e565b611618565b6115a6565b61156f565b611549565b61152b565b6114bb565b611436565b6113e5565b611397565b61131a565b6112ed565b6112a2565b611273565b6111bd565b61116b565b61113e565b6110e4565b6110bf565b61102f565b610f8f565b610f5a565b610e4d565b610e1a565b610baa565b610971565b6107c0565b610752565b610664565b61052a565b610504565b61040f565b6001600160e01b031981160361040b57565b5f80fd5b3461040b57602036600319011261040b5760206001600160e01b0319600435610437816103f9565b167fcdbdfcee0000000000000000000000000000000000000000000000000000000081149081156104d0575b81156104a6575b811561047c575b506040519015158152f35b7f01ffc9a7000000000000000000000000000000000000000000000000000000009150145f610471565b7f4e2312e0000000000000000000000000000000000000000000000000000000008114915061046a565b7f65455a860000000000000000000000000000000000000000000000000000000081149150610463565b5f91031261040b57565b3461040b575f36600319011261040b57602063ffffffff60085460301c16604051908152f35b3461040b57602036600319011261040b5760043561054661300e565b606481116105d2576001600160d01b0390816105606136f7565b16610569612bc0565b928083116105b3577f0553476bf02ef2726e8ce5ced78d63e26e602e4a2257b1f559418e24b46339979361059f91841690614540565b5050604080519182526020820192909252a1005b604483604051906306dfcc6560e41b825260d060048301526024820152fd5b604490604051907f243e5445000000000000000000000000000000000000000000000000000000008252600482015260646024820152fd5b5f5b83811061061b5750505f910152565b818101518382015260200161060c565b906020916106448151809281855285808601910161060a565b601f01601f1916010190565b90602061066192818152019061062b565b90565b3461040b575f36600319011261040b576040515f60035461068481612653565b8084529060209060019081811690811561071a57506001146106c1575b6106bd856106b1818703826108d3565b60405191829182610650565b0390f35b60035f90815293507fc2575a0e9e593c00f959f8c92f12db2869c3395a3b0502d05e2516446f71f85b5b838510610707575050505081016020016106b1826106bd6106a1565b80548686018401529382019381016106eb565b8695506106bd969350602092506106b194915060ff191682840152151560051b82010192936106a1565b63ffffffff81160361040b57565b3461040b57602036600319011261040b5760043561076f81610744565b61077761300e565b600d547f65135e4d9e214a272631f85c3ab68685271bccecf1ad1336709c14e139b3328d604063ffffffff81519481851686521693846020820152a163ffffffff191617600d55005b3461040b57602036600319011261040b576004355f52600460205260206001600160a01b0360405f205416604051908152f35b600435906001600160a01b038216820361040b57565b602435906001600160a01b038216820361040b57565b604435906001600160a01b038216820361040b57565b634e487b7160e01b5f52604160045260245ffd5b67ffffffffffffffff811161085d57604052565b610835565b6040810190811067ffffffffffffffff82111761085d57604052565b6020810190811067ffffffffffffffff82111761085d57604052565b60c0810190811067ffffffffffffffff82111761085d57604052565b610100810190811067ffffffffffffffff82111761085d57604052565b90601f8019910116810190811067ffffffffffffffff82111761085d57604052565b6040519061090282610862565b565b67ffffffffffffffff811161085d57601f01601f191660200190565b92919261092c82610904565b9161093a60405193846108d3565b82948184528183011161040b578281602093845f960137010152565b9080601f8301121561040b5781602061066193359101610920565b3461040b57608036600319011261040b5761098a6107f3565b50610993610809565b5060643567ffffffffffffffff811161040b576109b4903690600401610956565b5060206040517f150b7a02000000000000000000000000000000000000000000000000000000008152f35b67ffffffffffffffff811161085d5760051b60200190565b9080601f8301121561040b576020908235610a11816109df565b93610a1f60405195866108d3565b81855260208086019260051b82010192831161040b57602001905b828210610a48575050505090565b81356001600160a01b038116810361040b578152908301908301610a3a565b9080601f8301121561040b576020908235610a81816109df565b93610a8f60405195866108d3565b81855260208086019260051b82010192831161040b57602001905b828210610ab8575050505090565b81358152908301908301610aaa565b81601f8201121561040b57803591602091610ae1846109df565b93610aef60405195866108d3565b808552838086019160051b8301019280841161040b57848301915b848310610b1a5750505050505090565b823567ffffffffffffffff811161040b578691610b3c84848094890101610956565b815201920191610b0a565b608060031982011261040b5767ffffffffffffffff9160043583811161040b5782610b74916004016109f7565b9260243581811161040b5783610b8c91600401610a67565b9260443591821161040b57610ba391600401610ac7565b9060643590565b3461040b57610bc5610bbb36610b47565b9080949284612d96565b90610bcf82613066565b50610be2825f52600c60205260405f2090565b92610c0e610bef42613fd2565b8554610c089060101c63ffffffff165b63ffffffff1690565b90612c80565b915f5b8151811015610d215780610c268592886130d4565b509050610c38575b6001915001610c11565b610c52610c4582856127b9565b516001600160a01b031690565b610c5c82866127b9565b51906040918291610c99835196879384937ff801a69800000000000000000000000000000000000000000000000000000000855260048501613798565b03815f6001600160a01b037f0000000000000000000000000000000000000000000000000000000000000000165af18015610d1c57600193610ce5925f92610ced575b5050828961419b565b849150610c2e565b610d0c9250803d10610d15575b610d0481836108d3565b81019061377c565b90505f80610cdc565b503d610cfa565b61271b565b838565ffffffffffff821615610dbd577f9a2e42fd6722813d69113e7d0079d3d940171428df7373df9c7f7617cfda2892610daa83610d8b6106bd956001610d71875f52600460205260405f2090565b019065ffffffffffff1665ffffffffffff19825416179055565b6040805185815265ffffffffffff909216602083015290918291820190565b0390a16040519081529081906020820190565b60046040517f90884a46000000000000000000000000000000000000000000000000000000008152fd5b9081518082526020808093019301915f5b828110610e06575050505090565b835185529381019392810192600101610df8565b3461040b57602036600319011261040b576106bd610e39600435612726565b604051918291602083526020830190610de7565b610e65610e5936610b47565b81838596939495612d96565b91610e6f83613126565b936008851015610f55576030600160ff87161b1615610f285791610ef6918493610ef0610ea76106bd975f52600460205260405f2090565b7e010000000000000000000000000000000000000000000000000000000000007fff00ffffffffffffffffffffffffffffffffffffffffffffffffffffffffffff825416179055565b84613802565b6040518181527f712ae1383f79ac853f8d882153778e0260ef8f03b504e2866e0593e04d2b291f908060208101610daa565b606484610f4c87604051926331b75e4d60e01b845260048401526024830190611131565b60306044820152fd5b611113565b3461040b57602036600319011261040b576004355f526004602052602065ffffffffffff60405f205460a01c16604051908152f35b3461040b575f36600319011261040b5760206040517f3e83946653575f9a39005e1545185629e92736b7528ab20ca3816f315424a8118152f35b9081518082526020808093019301915f5b828110610fe8575050505090565b8351151585529381019392810192600101610fda565b916110219063ffffffff6106619593168452606060208501526060840190610fc9565b916040818403910152610fc9565b3461040b57602036600319011261040b576004355f52600c60205260405f20805461ffff81169161105f836127d2565b92611069816127d2565b915f5b82811061108d57604051806106bd868960108a901c63ffffffff1684610ffe565b8061109a600192846130d4565b506110a583886127b9565b90151590526110b482896127b9565b90151590520161106c565b3461040b575f36600319011261040b57602065ffffffffffff60085416604051908152f35b3461040b57602036600319011261040b576004355f52600e602052602060ff60405f2054161515604051908152f35b634e487b7160e01b5f52602160045260245ffd5b60081115610f5557565b906008821015610f555752565b3461040b57602036600319011261040b57602061115c600435613126565b6111696040518092611131565bf35b3461040b57604036600319011261040b57602060ff6111b161118b610809565b6004355f5260098452600360405f2001906001600160a01b03165f5260205260405f2090565b54166040519015158152f35b3461040b576111cb36610b47565b926111db84838584969596612d96565b6111e481613126565b6008811015610f55571580611255575b15611218576106bd61120886868686613b2c565b6040519081529081906020820190565b6040517f8fe5d8a90000000000000000000000000000000000000000000000000000000081526004810191909152336024820152604490fd5b0390fd5b50805f5260046020526001600160a01b0360405f20541633146111f4565b3461040b575f36600319011261040b576106bd61128e61284f565b60405191829160208352602083019061062b565b3461040b57602036600319011261040b576004355f52600960205260405f2080546106bd60026001840154930154604051938493846040919493926060820195825260208201520152565b3461040b57602036600319011261040b576004355f52600e602052602060ff60405f205416604051908152f35b3461040b575f36600319011261040b576106bd60405161133981610862565b600181527f3100000000000000000000000000000000000000000000000000000000000000602082015260405191829160208352602083019061062b565b6024359060ff8216820361040b57565b6084359060ff8216820361040b57565b3461040b57604036600319011261040b5760206113dd6113b5611377565b6040516113c18161087e565b5f8152604051916113d18361087e565b5f8352336004356132c6565b604051908152f35b3461040b575f36600319011261040b57602063ffffffff600d5416604051908152f35b9181601f8401121561040b5782359167ffffffffffffffff831161040b576020838186019501011161040b57565b3461040b5760c036600319011261040b5761144f611377565b61145761081f565b9067ffffffffffffffff9060643582811161040b5761147a903690600401611408565b60843584811161040b57611492903690600401610956565b9160a43594851161040b576106bd956114b2611208963690600401610956565b94600435612937565b3461040b57608036600319011261040b576114d4611377565b67ffffffffffffffff9060443582811161040b576114f6903690600401611408565b909160643593841161040b576115216113dd936115196020963690600401610956565b933691610920565b90336004356132c6565b3461040b57602036600319011261040b5760206113dd6004356133de565b3461040b575f36600319011261040b5760206001600160a01b03600f5416604051908152f35b3461040b57604036600319011261040b576106bd610e3961158e610809565b600435612a30565b65ffffffffffff81160361040b57565b3461040b57602036600319011261040b576004356115c381611596565b6115cb61300e565b6008547fc565b045403dc03c2eea82b81a0465edad9e2e7fc4d97e11421c209da93d7a93604065ffffffffffff81519481851686521693846020820152a165ffffffffffff191617600855005b3461040b57606036600319011261040b57611631611377565b60443567ffffffffffffffff811161040b5760209161166161165a6113dd933690600401611408565b3691610920565b604051916113d18361087e565b3461040b57608036600319011261040b5767ffffffffffffffff60043581811161040b576116a09036906004016109f7565b9060243581811161040b576116b9903690600401610a67565b9160443582811161040b576116d2903690600401610ac7565b60643592831161040b576106bd936116f1611208943690600401610956565b92613518565b3461040b57602036600319011261040b576001600160a01b036117186107f3565b165f526002602052602060405f2054604051908152f35b3461040b57604036600319011261040b57602061175f61174d6107f3565b6024359061175a826103f9565b612aa7565b6040519015158152f35b3461040b575f36600319011261040b576118176117a57f0000000000000000000000000000000000000000000000000000000000000000614239565b6106bd6117d17f000000000000000000000000000000000000000000000000000000000000000061434e565b6118256117dc61268b565b916040519586957f0f00000000000000000000000000000000000000000000000000000000000000875260e0602088015260e087019061062b565b90858203604087015261062b565b904660608501523060808501525f60a085015283820360c0850152610de7565b9181601f8401121561040b5782359167ffffffffffffffff831161040b576020808501948460051b01011161040b57565b3461040b57606036600319011261040b57600467ffffffffffffffff813560243582811161040b576118ab9036908501611845565b909260443590811161040b576118c49036908601611408565b6001600160a01b036118e1600f949394546001600160a01b031690565b168015611aac5760016118f386613126565b6118fc81611127565b03611a555761193c61193661192b61191c885f52600460205260405f2090565b5460a01c65ffffffffffff1690565b65ffffffffffff1690565b33612f86565b908115611a0e579060209187985f8861198a878a8a60409e9d9e519d8e998a9889977f2091150d00000000000000000000000000000000000000000000000000000000895233918901612b51565b03925af1928315610d1c577f0bec8dfbed3c930520729af2ad127776dc8d0bcfe366bf426e28ddca1a747589945f946119d7575b50906119d291604051948594339986612b93565b0390a3005b6119d2929194506119ff9060203d602011611a07575b6119f781836108d3565b810190612ae5565b9390916119be565b503d6119ed565b604080517f09e915af00000000000000000000000000000000000000000000000000000000815233818b01908152600160208201525f928101929092529081906060010390fd5b8487611251611a6383613126565b611a6c81611127565b6040519384937f14b469ec000000000000000000000000000000000000000000000000000000008552840190929160ff6020916040840195845216910152565b6040517f8dc3513500000000000000000000000000000000000000000000000000000000815280880186815281906020010390fd5b3461040b57608036600319011261040b57600435611afd611377565b90611b0661081f565b9160643567ffffffffffffffff811161040b57611bbd611b2d611bc1923690600401610956565b611bb7611b54876001600160a01b03165f52600260205260405f2080549060018201905590565b60405160208101917ff2aad550cf55f045cb27e9c559f9889fdfb6e6cdaa032301d6ea397784ae51d7835288604083015260ff881660608301526001600160a01b038a16608083015260a082015260a08152611baf8161089a565b519020613d87565b86613dd2565b1590565b611bdc5790611208916106bd93611bd6612804565b9261324b565b6040516394ab6c0760e01b81526001600160a01b0384166004820152602490fd5b3461040b575f36600319011261040b576020611c17612bc0565b65ffffffffffff60405191168152f35b3461040b575f36600319011261040b57602060405160648152f35b3461040b57606036600319011261040b57611c5b6107f3565b60443567ffffffffffffffff811161040b57604491611c806020923690600401610956565b506001600160a01b039283916040519485938492630748d63560e31b845216600483015260243560248301527f0000000000000000000000000000000000000000000000000000000000000000165afa8015610d1c576106bd915f91611cf2575b506040519081529081906020820190565b611d0b915060203d602011611a07576119f781836108d3565b5f611ce1565b3461040b575f36600319011261040b5760206001600160d01b03611d336136f7565b16604051908152f35b3461040b5760206113dd611d4f36610b47565b92919091612d96565b3461040b57602036600319011261040b576004355f52600c602052602063ffffffff60405f205460101c161515604051908152f35b3461040b57602036600319011261040b576004355f526004602052602065ffffffffffff600160405f20015416604051908152f35b3461040b575f36600319011261040b576020600754604051908152f35b3461040b5760a036600319011261040b57611df86107f3565b50611e01610809565b5067ffffffffffffffff60443581811161040b57611e23903690600401610a67565b5060643581811161040b57611e3c903690600401610a67565b5060843590811161040b57611e55903690600401610956565b506040517fbc197c81000000000000000000000000000000000000000000000000000000008152602090f35b3461040b57602036600319011261040b5760206113dd600435612c9f565b3461040b57602036600319011261040b57611eb86107f3565b611ec061300e565b600f546001600160a01b03808216611f195773ffffffffffffffffffffffffffffffffffffffff1992169182911617600f555f7f1462fe68e3738bf59facfeb29937768edcbb993311ae3011102bf10f570d256d8180a3005b60646040517f08c379a000000000000000000000000000000000000000000000000000000000815260206004820152601360248201527f416c726561647920696e697469616c697a6564000000000000000000000000006044820152fd5b606036600319011261040b57611f8b6107f3565b6044359067ffffffffffffffff821161040b575f8091611fb2610018943690600401611408565b90611fbb61300e565b81604051928392833781018481520391602435905af1611fd9612ccf565b9061373b565b3461040b57606036600319011261040b57611ff86107f3565b60243567ffffffffffffffff811161040b5761201a6004913690600401611845565b604493919335908115159485830361040b5761203794919461300e565b5f916001600160a01b0385169130831480981415935b87811061205657005b8060051b820135612066816103f9565b8980612139575b61211057907f420cf47a8bf6c3ac65f850426acfe52d2eabee4997fbff83a80265ee36222c0487600193875f52600b60205261210760406120d78b6120c685845f20906001600160e01b0319165f5260205260405f2090565b9060ff801983541691151516179055565b516001600160a01b038d1681526001600160e01b0319909216602083015291151560408201529081906060820190565b0390a10161204d565b836040517fe547fc11000000000000000000000000000000000000000000000000000000008152fd5b507fcc3bac57000000000000000000000000000000000000000000000000000000006001600160e01b031982161461206d565b3461040b575f36600319011261040b576106bd60405161218b81610862565b602081527f737570706f72743d627261766f2671756f72756d3d666f722c6162737461696e602082015260405191829160208352602083019061062b565b3461040b575f36600319011261040b5760206040517ff2aad550cf55f045cb27e9c559f9889fdfb6e6cdaa032301d6ea397784ae51d78152f35b3461040b57602036600319011261040b5760043561222081610744565b61222861300e565b63ffffffff808216918215612294577f7e3f7f0708a84de9203036abaa450dccc85ad5ff52f78c170f3edb55cf5e8828604069ffffffff00000000000093600854958251918760301c1682526020820152a160301b169069ffffffff0000000000001916176008555f80f35b60246040517ff1cfbf050000000000000000000000000000000000000000000000000000000081525f6004820152fd5b3461040b5760a036600319011261040b5767ffffffffffffffff60043581811161040b576122f69036906004016109f7565b9060243581811161040b5761230f903690600401610a67565b9160443582811161040b57612328903690600401610ac7565b9260643592831161040b576106bd93612348611208943690600401610956565b91612351611387565b93612e14565b3461040b57604036600319011261040b57604460206123746107f3565b5f6040516123818161087e565b526001600160a01b039283916040519485938492630748d63560e31b845216600483015260243560248301527f0000000000000000000000000000000000000000000000000000000000000000165afa8015610d1c576106bd915f91611cf257506040519081529081906020820190565b3461040b57602036600319011261040b5760043561240e61300e565b60075460408051918252602082018390527fccb45da8d5717e6c4544694297c4ba5cf151d455c9bb0ed4fc7a38411bc0546191a1600755005b3461040b5760a036600319011261040b576124606107f3565b50612469610809565b5060843567ffffffffffffffff811161040b5761248a903690600401610956565b5060206040517ff23a6e61000000000000000000000000000000000000000000000000000000008152f35b3461040b57602036600319011261040b576124ce6107f3565b6124d661300e565b600f54906001600160a01b03809116918273ffffffffffffffffffffffffffffffffffffffff19821617600f55167f1462fe68e3738bf59facfeb29937768edcbb993311ae3011102bf10f570d256d5f80a3005b3461040b57602036600319011261040b57600435604051632394e7a360e21b81528160048201526020816024816001600160a01b037f0000000000000000000000000000000000000000000000000000000000000000165afa8015610d1c576106bd92611208925f926125a8575b506125a2906133de565b9061442a565b6125a29192506125c69060203d602011611a07576119f781836108d3565b9190612598565b3461040b575f36600319011261040b5760206040516001600160a01b037f0000000000000000000000000000000000000000000000000000000000000000168152f35b3461040b575f36600319011261040b5760206040516001600160a01b037f0000000000000000000000000000000000000000000000000000000000000000168152f35b90600182811c92168015612681575b602083101461266d57565b634e487b7160e01b5f52602260045260245ffd5b91607f1691612662565b6040516126978161087e565b5f8152905f368137565b602090818184031261040b5780519067ffffffffffffffff821161040b57019180601f8401121561040b5782516126d7816109df565b936126e560405195866108d3565b818552838086019260051b82010192831161040b578301905b82821061270c575050505090565b815181529083019083016126fe565b6040513d5f823e3d90fd5b6001600160a01b03600f541690811561279b575f906024604051809481937f16c500cd00000000000000000000000000000000000000000000000000000000835260048301525afa908115610d1c575f9161277f575090565b61066191503d805f833e61279381836108d3565b8101906126a1565b505061066161268b565b634e487b7160e01b5f52603260045260245ffd5b80518210156127cd5760209160051b010190565b6127a5565b906127dc826109df565b6127e960405191826108d3565b82815280926127fa601f19916109df565b0190602036910137565b604051906128118261087e565b5f8252565b6040519061282382610862565b601d82527f6d6f64653d626c6f636b6e756d6265722666726f6d3d64656661756c740000006020830152565b6040517f4bf5d7e90000000000000000000000000000000000000000000000000000000081525f816004816001600160a01b037f0000000000000000000000000000000000000000000000000000000000000000165afa5f91816128bc575b506106615750610661612816565b9091503d805f833e6128ce81836108d3565b81019060208183031261040b5780519067ffffffffffffffff821161040b570181601f8201121561040b57805161290481610904565b9261291260405194856108d3565b8184526020828401011161040b57612930916020808501910161060a565b905f6128ae565b939092919695611bbd6129f4916129ee87878c8b612956368a8c610920565b6001600160a01b03612982846001600160a01b03165f52600260205260405f2080549060018201905590565b916020815191012092602081519101209360ff6040519660208801987f3e83946653575f9a39005e1545185629e92736b7528ab20ca3816f315424a8118a52604089015216606087015216608085015260a084015260c083015260e082015260e08152611baf816108b6565b8a613dd2565b612a0f57610661959691612a09913691610920565b926132c6565b6040516394ab6c0760e01b81526001600160a01b0388166004820152602490fd5b6001600160a01b03600f5416918215612a9c576040517f78bbd8fa00000000000000000000000000000000000000000000000000000000815260048101929092526001600160a01b03166024820152905f90829060449082905afa908115610d1c575f9161277f575090565b50505061066161268b565b612adc6001600160a01b0360ff9216805f52600b60205230149260405f20906001600160e01b0319165f5260205260405f2090565b54161515141590565b9081602091031261040b575190565b90918281527f07ffffffffffffffffffffffffffffffffffffffffffffffffffffffffffffff831161040b5760209260051b809284830137010190565b908060209392818452848401375f828201840152601f01601f1916010190565b959391926001600160a01b03612b85946106619997938952166020880152604087015260a0606087015260a0860191612af4565b926080818503910152612b31565b90612bad9061066196949593606084526060840191612af4565b9360208201526040818503910152612b31565b6040517f91ddadf40000000000000000000000000000000000000000000000000000000081526020816004816001600160a01b037f0000000000000000000000000000000000000000000000000000000000000000165afa5f9181612c2f575b50610661575061066143613fd2565b9091506020813d602011612c64575b81612c4b602093836108d3565b8101031261040b5751612c5d81611596565b905f612c20565b3d9150612c3e565b634e487b7160e01b5f52601160045260245ffd5b91909165ffffffffffff80809416911601918211612c9a57565b612c6c565b5f52600460205260405f2054612ccb65ffffffffffff918263ffffffff8260d01c169160a01c16612c80565b1690565b3d15612cf9573d90612ce082610904565b91612cee60405193846108d3565b82523d5f602084013e565b606090565b9081518082526020808093019301915f5b828110612d1d575050505090565b83516001600160a01b031685529381019392810192600101612d0f565b90808251908181526020809101926020808460051b8301019501935f915b848310612d685750505050505090565b9091929394958480612d86600193601f198682030187528a5161062b565b9801930193019194939290612d58565b9290612de292612df492604051948592612dd2612dbf602086019960808b5260a0870190612cfe565b601f199687878303016040880152610de7565b9085858303016060860152612d3a565b906080830152039081018352826108d3565b51902090565b60409060ff6106619493168152816020820152019061062b565b94939294600260ff851610612f5257918591612e2f93613518565b8093612e5683612e47845f52600e60205260405f2090565b9060ff1660ff19825416179055565b6001600160a01b03612e70600f546001600160a01b031690565b1680612eb0575b50612eab7f041a320bf2b59376f01527a8d696323df2cd25602e7e08118bd191b084276e2391604051918291339683612dfa565b0390a3565b809192503b1561040b576040517ff009f7090000000000000000000000000000000000000000000000000000000081526004810186905260ff84166024820152905f908290604490829084905af18015610d1c5785927f041a320bf2b59376f01527a8d696323df2cd25602e7e08118bd191b084276e2392612eab92612f39575b509150612e77565b80612f46612f4c92610849565b806104fa565b5f612f31565b6040517f8ed0c3c800000000000000000000000000000000000000000000000000000000815260ff85166004820152602490fd5b6020905f604051612f968161087e565b5260446001600160a01b0391826040519586948593630748d63560e31b855216600484015260248301527f0000000000000000000000000000000000000000000000000000000000000000165afa908115610d1c575f91612ff5575090565b610661915060203d602011611a07576119f781836108d3565b33300361301757565b60246040517f47096e47000000000000000000000000000000000000000000000000000000008152336004820152fd5b6040906130625f939594606083019683526020830190611131565b0152565b61306f81613126565b906008821015610f55576010600160ff84161b161561308c575090565b6130af606492604051926331b75e4d60e01b845260048401526024830190611131565b60106044820152fd5b91909160088310156127cd57601c908360031c019260021b1690565b6130f19160016007928260031c5f52016020521660405f206130b8565b919063ffffffff928391549060031b1c16906001821192835f1461311e57600119830116915b1515929190565b505f91613117565b613138815f52600460205260405f2090565b5460ff8160f01c166132445760f81c61323e5761316361192b61191c835f52600460205260405f2090565b801561320c5761317461192b612bc0565b809110156132065761318582612c9f565b106131905750600190565b61319c611bbd82613a6b565b80156131e3575b156131ae5750600390565b61192b60016131c86131d5935f52600460205260405f2090565b015465ffffffffffff1690565b6131de57600490565b600590565b50613201611bbd825f52600960205260405f20600181015490541090565b6131a3565b50505f90565b6040517f6ad0607500000000000000000000000000000000000000000000000000000000815260048101839052602490fd5b50600290565b5050600790565b9161066193916040519361325e8561087e565b5f85526132c6565b93909260ff6132929361066197958752166020860152604085015260a0606085015260a084019061062b565b91608081840391015261062b565b909260ff608093610661969584521660208301526040820152816060820152019061062b565b929091936132d384613126565b6008811015610f55576002600160ff83161b16156133b15750835f52600460205261332261331a61331461192b60405f2065ffffffffffff905460a01c1690565b85613688565b868587613e65565b9481869251155f1461337357506001600160a01b03927fb8e138887d0aa13bab447e82de9d5c1777041ecd21ca36ba824ff1e6c07ddda4949261336d926040519586951697856132a0565b0390a290565b6001600160a01b03937fe2babfbac5889a709b63bb7f598b324e08bc5a4fb9ec647fb3cbc9ec07eb8712959361336d93604051968796169886613266565b846133d5606492604051926331b75e4d60e01b845260048401526024830190611131565b60026044820152fd5b6133e6613f7d565b65ffffffffffff93909250908316811061340957506001600160d01b0391501690565b6134139150613fd2565b600a54905f90826005811161347f575b5061342e9350614999565b8061343857505f90565b612ccb61347861344f6001600160d01b03936136e9565b600a5f527fc65a7bb8d6351c1cf70c95a316cc6a92839c986682d98bc35f958f4883f9d2a80190565b5460301c90565b909261348a82614857565b8203918211612c9a5761342e94600a5f5280837fc65a7bb8d6351c1cf70c95a316cc6a92839c986682d98bc35f958f4883f9d2a8015416908516105f146134d45750915b5f613423565b9291506134e090613a50565b906134ce565b90602082519201516001600160e01b031990818116936004811061350957505050565b60040360031b82901b16169150565b92826135249285614004565b91613534600d5463ffffffff1690565b90613547845f52600c60205260405f2090565b9061356761355582516140d0565b835461ffff191661ffff909116178355565b7f00000000000000000000000000000000000000000000000000000000000000006001600160a01b0316955f5b82518110156136615760046135a982886127b9565b515110613659576135bd610c4582856127b9565b6135d06135ca83896127b9565b516134e6565b906135dd8282308d6140fe565b9281159283613649575b82613633575b5050613600575b50506001905b01613594565b61362b918397613616610bff936001968a6141e2565b63ffffffff8091169116818082119118021890565b94905f6135f4565b613642925090611bbd91612aa7565b5f806135ed565b63ffffffff8516151592506135e7565b6001906135fa565b5095505061066192509065ffffffff000082549160101b169065ffffffff00001916179055565b60209060446001600160a01b0391826040519586948593630748d63560e31b855216600484015260248301527f0000000000000000000000000000000000000000000000000000000000000000165afa908115610d1c575f91612ff5575090565b5f19810191908211612c9a57565b600a548061370457505f90565b805f19810111612c9a57600a5f527fc65a7bb8d6351c1cf70c95a316cc6a92839c986682d98bc35f958f4883f9d2a7015460301c90565b156137435790565b80511561375257602081519101fd5b60046040517fd6bda275000000000000000000000000000000000000000000000000000000008152fd5b919082604091031261040b576020825192015161066181610744565b916137c665ffffffffffff916001600160a01b0360409497969716855260606020860152606085019061062b565b9416910152565b9081602091031261040b575161066181610744565b6040906001600160a01b036106619493168152816020820152019061062b565b939291909360019261382c61382761192b60016131c8865f52600460205260405f2090565b613fd2565b9565ffffffffffff87164210613a1057849650613851835f52600c60205260405f2090565b5f975b613863575b5050505050509050565b8151881015613a0b5761387688826130d4565b9091156139c4576138e29061388b8b896127b9565b51613899610c458d886127b9565b936138a48d896127b9565b5191604092835180927f1cff79cd00000000000000000000000000000000000000000000000000000000825281806020998a9560049c8d84016137e2565b03916001600160a01b037f0000000000000000000000000000000000000000000000000000000000000000165af1948515610d1c575f95613995575b505080613982575b61393b5750505050858097985b019796613854565b517f18ee8bef00000000000000000000000000000000000000000000000000000000815292830187815263ffffffff91821660208201529116604082015281906060010390fd5b5063ffffffff8083169084161415613926565b6139b5929550803d106139bd575b6139ad81836108d3565b8101906137cd565b925f8061391e565b503d6139a3565b50508588613a055f806139dc610c45869d9e896127b9565b6139e6858c6127b9565b51906139f2868b6127b9565b5191602083519301915af1611fd9612ccf565b50613933565b613859565b6040517ffe589f3f0000000000000000000000000000000000000000000000000000000081526004810184905265ffffffffffff88166024820152604490fd5b9060018201809211612c9a57565b91908201809211612c9a57565b5f52600960205260405f20600460205265ffffffffffff60405f205460a01c16604051632394e7a360e21b81528160048201526020816024816001600160a01b037f0000000000000000000000000000000000000000000000000000000000000000165afa8015610d1c57613aff92613aee925f926125a857506125a2906133de565b916002600182015491015490613a5e565b101590565b60609161066194936001600160a01b038092168352166020820152816040820152019061062b565b919283613b399284614628565b91600191613b5a61382761192b60016131c8885f52600460205260405f2090565b9165ffffffffffff613b74865f52600c60205260405f2090565b9316613b82575b5050505090565b5f92845b613b91575b50613b7b565b8251841015613d825783613ba68695836130d4565b9150613bb6575b50840193613b86565b7f00000000000000000000000000000000000000000000000000000000000000006001600160a01b0316955090613c3b613bf3610c4583886127b9565b96613bfe83876127b9565b5160408051917fabd9bd2a0000000000000000000000000000000000000000000000000000000083528280602096879360049e8f30908501613b04565b0381865afa918215610d1c57613c8c9285915f91613d65575b508b835194859283927f4136a33c00000000000000000000000000000000000000000000000000000000845283019190602083019252565b0381865afa928315610d1c578b9a8b978b9588955f91613d48575b5063ffffffff809116911614613cc4575b50505093505050613bad565b5f613cd6610c458896613d17986127b9565b91613ce1898d6127b9565b519451968795869485937fd6bb62c600000000000000000000000000000000000000000000000000000000855230908501613b04565b03925af1613d2a575b8281808993613cb8565b81613d4092903d106139bd576139ad81836108d3565b505f80613d20565b613d5f9150883d8a116139bd576139ad81836108d3565b5f613ca7565b613d7c9150823d8411611a07576119f781836108d3565b5f613c54565b613b8b565b604290613d92614709565b90604051917f19010000000000000000000000000000000000000000000000000000000000008352600283015260228201522090565b60041115610f5557565b9091813b613e0d57613de4919261481d565b50613dee81613dc8565b159182613dfa57505090565b6001600160a01b03918216911614919050565b6020918160645f9351604051927f1626ba7e000000000000000000000000000000000000000000000000000000009788855260048501526040602485015286820190604485015e01915afa905f5114601f3d11161690565b613e7a909291925f52600960205260405f2090565b9160038301613ea4613e9d8383906001600160a01b03165f5260205260405f2090565b5460ff1690565b613f4357613ec960ff9392613ed692906001600160a01b03165f5260205260405f2090565b805460ff19166001179055565b1680613eed5750613ee8828254613a5e565b905590565b60018103613f045750600101613ee8828254613a5e565b600203613f1957600201613ee8828254613a5e565b60046040517f06b337c2000000000000000000000000000000000000000000000000000000008152fd5b6040517f71c6af490000000000000000000000000000000000000000000000000000000081526001600160a01b0383166004820152602490fd5b600a5480613f8e57505f905f905f90565b805f19810111612c9a57600a5f527fc65a7bb8d6351c1cf70c95a316cc6a92839c986682d98bc35f958f4883f9d2a7015460019165ffffffffffff82169160301c90565b65ffffffffffff90818111613fe5571690565b604490604051906306dfcc6560e41b8252603060048301526024820152fd5b91939290936140138233614a12565b156140a057600754948561402f575b6106619495503393614baa565b65ffffffffffff5f1981614041612bc0565b160190808211612c9a57614056911633612f86565b8681106140635750614022565b60649087604051917fc242ee1600000000000000000000000000000000000000000000000000000000835233600484015260248301526044820152fd5b60246040517fd9b39557000000000000000000000000000000000000000000000000000000008152336004820152fd5b61ffff908181116140df571690565b604490604051906306dfcc6560e41b8252601060048301526024820152fd5b93915f946001600160e01b03195f956040519460208601947fb70096130000000000000000000000000000000000000000000000000000000086526001600160a01b0380921660248801521660448601521660648401526064835260a083019183831067ffffffffffffffff84111761085d576040935f9385528380528360205251915afa61418957565b9150505f51906020518060201c150290565b90600263ffffffff8094160191838311612c9a578160016007926141cc9460031c5f52016020521660405f206130b8565b90928084549260031b9316831b921b1916179055565b9161420e91905f901561422a5750604060075f9260016002965b8260031c8652016020521691206130b8565b63ffffffff9291928084549260031b9316831b921b1916179055565b906007604091600180966141fc565b60ff811461428f5760ff811690601f8211614265576040519161425b83610862565b8252602082015290565b60046040517fb3512b0c000000000000000000000000000000000000000000000000000000008152fd5b506040515f815f54916142a183612653565b8083529260209060019081811690811561432a57506001146142cc575b5050610661925003826108d3565b9150925f80527f290decd9548b62a8d60345a988386fc84ba6bc95484008f6362f93160ef3e563935f925b82841061431257506106619450505081016020015f806142be565b855487850183015294850194869450928101926142f7565b9150506020925061066194915060ff191682840152151560051b8201015f806142be565b60ff81146143705760ff811690601f8211614265576040519161425b83610862565b506040515f8160019160015461438581612653565b808452936020916001811690811561432a57506001146143ad575050610661925003826108d3565b91509260015f527fb10e2d527612073b26eecdfd717e6a320cf44b4afac2b0732d9fcbe2b7fa0cf6935f925b8284106143f457506106619450505081016020015f806142be565b855487850183015294850194869450928101926143d9565b8115614416570490565b634e487b7160e01b5f52601260045260245ffd5b5f1982820982820291828083109203918083039214614497578160641115614485577f5c28f5c28f5c28f5c28f5c28f5c28f5c28f5c28f5c28f5c28f5c28f5c28f5c29936064910990828211900360fe1b910360021c170290565b634e487b715f5260116020526024601cfd5b5050606491500490565b600a54906801000000000000000082101561085d576001820180600a558210156127cd576001600160d01b03602061090293600a5f527fc65a7bb8d6351c1cf70c95a316cc6a92839c986682d98bc35f958f4883f9d2a8019261452165ffffffffffff825116859065ffffffffffff1665ffffffffffff19825416179055565b0151825465ffffffffffff16911660301b65ffffffffffff1916179055565b600a5491929180156145ff5761344f614558916136e9565b9081549165ffffffffffff908184169183168083116145d55786920361459d5761459692509065ffffffffffff82549181199060301b169116179055565b60301c9190565b50506145d0906145bc6145ae6108f5565b65ffffffffffff9092168252565b6001600160d01b03851660208201526144a1565b614596565b60046040517f2520601d000000000000000000000000000000000000000000000000000000008152fd5b506146239061460f6145ae6108f5565b6001600160d01b03841660208201526144a1565b5f9190565b90614634939291612d96565b61463d81613126565b6008811015610f5557603b600160ff83161b16156146dc5750614668815f52600460205260405f2090565b7f01000000000000000000000000000000000000000000000000000000000000007effffffffffffffffffffffffffffffffffffffffffffffffffffffffffffff8254161790557f789cf55be980739dad1d0699b93b58e806b51c9d96619bfa8fe0a28abaa7b30c6020604051838152a190565b90614700606492604051926331b75e4d60e01b845260048401526024830190611131565b603b6044820152fd5b6001600160a01b037f0000000000000000000000000000000000000000000000000000000000000000163014806147f4575b15614764577f000000000000000000000000000000000000000000000000000000000000000090565b60405160208101907f8b73c3c69bb8fe3d512ecc4cf759cc79239f7b179b0ffacaa9a75d522b39400f82527f000000000000000000000000000000000000000000000000000000000000000060408201527f000000000000000000000000000000000000000000000000000000000000000060608201524660808201523060a082015260a08152612df48161089a565b507f0000000000000000000000000000000000000000000000000000000000000000461461473b565b815191906041830361484d576148469250602082015190606060408401519301515f1a90614dd8565b9192909190565b50505f9160029190565b600181111561066157600181700100000000000000000000000000000000811015614982575b61492a61492061491661490c6149026148f861493697600488680100000000000000006149319a1015614975575b640100000000811015614968575b6201000081101561495b575b61010081101561494f575b6010811015614943575b101561493b575b60030260011c6148f1818b61440c565b0160011c90565b6148f1818a61440c565b6148f1818961440c565b6148f1818861440c565b6148f1818761440c565b6148f1818661440c565b809361440c565b821190565b900390565b60011b6148e1565b811c9160021b916148da565b60081c91811b916148d0565b60101c9160081b916148c5565b60201c9160101b916148b9565b60401c9160201b916148ab565b50680100000000000000009050608082901c61487d565b905b8281106149a757505090565b90918082169080831860011c8201809211612c9a57600a5f5265ffffffffffff80837fc65a7bb8d6351c1cf70c95a316cc6a92839c986682d98bc35f958f4883f9d2a8015416908516105f14614a005750915b9061499b565b929150614a0c90613a50565b906149fa565b90805160348110614a8a577f2370726f706f7365723d000000000000000000000000000000000000000000007fffffffffffffffffffff0000000000000000000000000000000000000000000060131983850101511603614a8a57614a7c91602919820190614e86565b9015918215613dfa57505090565b505050600190565b90614a9c826109df565b614aa960405191826108d3565b8281528092614aba601f19916109df565b01905f5b828110614aca57505050565b806060602080938501015201614abe565b9592614b1090614b1e939b9a98999695926101209089526001600160a01b0360209d168d8a01528060408a0152880190612cfe565b908682036060880152610de7565b9784890360808601528251808a52818a019180808360051b8d01019501925f905b838210614b7c57505050505061066196975090614b639184820360a0860152612d3a565b9360c083015260e082015261010081840391015261062b565b90919293958380614b9b8f93600194601f199082030186528a5161062b565b98019201920190939291614b3f565b919493909294614bc286516020880120828686612d96565b958351855190818114801590614dcd575b8015614dc5575b614d8357505065ffffffffffff9485614bfe61191c8a5f52600460205260405f2090565b16614d5c577f7d84a6263ae0d98d3329bd7b46bb4e8d6f98cd35a7adb45c274c8b7fd5ebd5e095614d579363ffffffff614c47614c39612bc0565b600854948086169116613a5e565b9260301c16614d35614c618c5f52600460205260405f2090565b805473ffffffffffffffffffffffffffffffffffffffff19166001600160a01b038a16178155614cde614c9386613fd2565b82547fffffffffffff000000000000ffffffffffffffffffffffffffffffffffffffff1660a09190911b79ffffffffffff000000000000000000000000000000000000000016178255565b614ce783614f2d565b7fffff00000000ffffffffffffffffffffffffffffffffffffffffffffffffffff7dffffffff000000000000000000000000000000000000000000000000000083549260d01b169116179055565b614d49614d428951614a92565b9184613a5e565b936040519889988d8a614adb565b0390a1565b87614d6681613126565b906112516040519283926331b75e4d60e01b845260048401613047565b83516040517f447b05d0000000000000000000000000000000000000000000000000000000008152600481019290925260248201526044810191909152606490fd5b508015614bda565b508351811415614bd3565b91907f7fffffffffffffffffffffffffffffff5d576e7357a4501ddfe92f46681b20a08411614e4f579160209360809260ff5f9560405194855216868401526040830152606082015282805260015afa15610d1c575f516001600160a01b03811615614e4557905f905f90565b505f906001905f90565b5050505f9160039190565b908160011b9180830460021490151715612c9a57565b908160041b9180830460101490151715612c9a57565b805183118015614f24575b614ee557614e9e82613a50565b831180614eee575b614eb1901515614e5a565b60280180602811612c9a57828403848111612c9a5703614ee55791614edf916001600160a01b039493614f5d565b90921690565b5050505f905f90565b50808201602001517fffff0000000000000000000000000000000000000000000000000000000000001661060f60f31b14614ea6565b50828211614e91565b63ffffffff90818111614f3e571690565b604490604051906306dfcc6560e41b8252602060048301526024820152fd5b929092614f6984613a50565b831180615005575b614f83614f8a91949293941515614e5a565b5f95613a5e565b915b818310614f9c5750505060019190565b9092919360ff614fd9614fd4602088860101517fff000000000000000000000000000000000000000000000000000000000000001690565b61506c565b1690600f8211614ffa5790614fef600192614e70565b019401919290614f8c565b505f94508493505050565b50614f8a614f8361060f60f31b7fffff000000000000000000000000000000000000000000000000000000000000615062602089870101517fffff0000000000000000000000000000000000000000000000000000000000001690565b1614915050614f71565b60f81c602f8111806150d4575b1561508857602f190160ff1690565b60608111806150ca575b156150a1576056190160ff1690565b60408111806150c0575b156150ba576036190160ff1690565b5060ff90565b50604781106150ab565b5060678110615092565b50603a811061507956fea2646970667358221220c747134c58f9eb5854990840e86b5f5bbe220639f8cd9f5d9af52f10c9cc355064736f6c63430008180033c65a7bb8d6351c1cf70c95a316cc6a92839c986682d98bc35f958f4883f9d2a80553476bf02ef2726e8ce5ced78d63e26e602e4a2257b1f559418e24b4633997","linkReferences":{}},"methodIdentifiers":{"BALLOT_TYPEHASH()":"deaaa7cc","CLOCK_MODE()":"4bf5d7e9","COUNTING_MODE()":"dd4e2ba5","EXTENDED_BALLOT_TYPEHASH()":"2fe3e261","accessManager()":"fdcb6068","baseDelaySeconds()":"57552fcb","cancel(address[],uint256[],bytes[],bytes32)":"452115d6","castVote(uint256,uint8)":"56781388","castVoteBySig(uint256,uint8,address,bytes)":"8ff262e3","castVoteMultiChoice(uint256,uint256[],string)":"8d7169c7","castVoteWithReason(uint256,uint8,string)":"7b3c71d3","castVoteWithReasonAndParams(uint256,uint8,string,bytes)":"5f398a14","castVoteWithReasonAndParamsBySig(uint256,uint8,address,string,bytes,bytes)":"5b8d0e0d","clock()":"91ddadf4","eip712Domain()":"84b0196e","execute(address[],uint256[],bytes[],bytes32)":"2656227d","getMultiChoiceTotals(uint256)":"201e0030","getProposalId(address[],uint256[],bytes[],bytes32)":"a8f8a668","getVoterMultiChoiceWeights(uint256,address)":"66db3eaf","getVotes(address,uint256)":"eb9019d4","getVotesWithParams(address,uint256,bytes)":"9a802a6d","hasVoted(uint256,address)":"43859632","hashProposal(address[],uint256[],bytes[],bytes32)":"c59057e4","initCountingMulti(address)":"c041f214","isAccessManagerIgnored(address,bytes4)":"82e49386","isMultiChoice(uint256)":"3cb455f7","multiCounter()":"6152ec31","name()":"06fdde03","nonces(address)":"7ecebe00","numOptionsOf(uint256)":"54710b0f","onERC1155BatchReceived(address,address,uint256[],uint256[],bytes)":"bc197c81","onERC1155Received(address,address,uint256,uint256,bytes)":"f23a6e61","onERC721Received(address,address,uint256,bytes)":"150b7a02","proposalDeadline(uint256)":"c01f9e37","proposalEta(uint256)":"ab58fb8e","proposalExecutionPlan(uint256)":"36369547","proposalNeedsQueuing(uint256)":"a9a95294","proposalProposer(uint256)":"143489d0","proposalSnapshot(uint256)":"2d63f693","proposalThreshold()":"b58131b0","proposalVotes(uint256)":"544ffc9c","propose(address[],uint256[],bytes[],string)":"7d5e81e2","proposeMultiChoice(address[],uint256[],bytes[],string,uint8)":"e947708a","queue(address[],uint256[],bytes[],bytes32)":"160cbed7","quorum(uint256)":"f8ce560a","quorumDenominator()":"97c3d334","quorumNumerator()":"a7713a70","quorumNumerator(uint256)":"60c4247f","relay(address,uint256,bytes)":"c28bc2fa","setAccessManagerIgnored(address,bytes4[],bool)":"cc3bac57","setBaseDelaySeconds(uint32)":"0a2a550d","setCountingMulti(address)":"f4bd34ca","setProposalThreshold(uint256)":"ece40cc1","setVotingDelay(uint48)":"79051887","setVotingPeriod(uint32)":"e540d01d","state(uint256)":"3e4f49e6","supportsInterface(bytes4)":"01ffc9a7","token()":"fc0c546a","updateQuorumNumerator(uint256)":"06f3f9e6","version()":"54fd4d50","votingDelay()":"3932abb1","votingPeriod()":"02a251a3"},"id":0}