{"abi":[{"type":"constructor","inputs":[{"name":"minDelay","type":"uint256","internalType":"uint256"},{"name":"proposers","type":"address[]","internalType":"address[]"},{"name":"executors","type":"address[]","internalType":"address[]"},{"name":"admin","type":"address","internalType":"address"}],"stateMutability":"nonpayable"},{"type":"receive","stateMutability":"payable"},{"type":"function","name":"CANCELLER_ROLE","inputs":[],"outputs":[{"name":"","type":"bytes32","internalType":"bytes32"}],"stateMutability":"view"},{"type":"function","name":"DEFAULT_ADMIN_ROLE","inputs":[],"outputs":[{"name":"","type":"bytes32","internalType":"bytes32"}],"stateMutability":"view"},{"type":"function","name":"EXECUTOR_ROLE","inputs":[],"outputs":[{"name":"","type":"bytes32","internalType":"bytes32"}],"stateMutability":"view"},{"type":"function","name":"PROPOSER_ROLE","inputs":[],"outputs":[{"name":"","type":"bytes32","internalType":"bytes32"}],"stateMutability":"view"},{"type":"function","name":"cancel","inputs":[{"name":"id","type":"bytes32","internalType":"bytes32"}],"outputs":[],"stateMutability":"nonpayable"},{"type":"function","name":"execute","inputs":[{"name":"target","type":"address","internalType":"address"},{"name":"value","type":"uint256","internalType":"uint256"},{"name":"payload","type":"bytes","internalType":"bytes"},{"name":"predecessor","type":"bytes32","internalType":"bytes32"},{"name":"salt","type":"bytes32","internalType":"bytes32"}],"outputs":[],"stateMutability":"payable"},{"type":"function","name":"executeBatch","inputs":[{"name":"targets","type":"address[]","internalType":"address[]"},{"name":"values","type":"uint256[]","internalType":"uint256[]"},{"name":"payloads","type":"bytes[]","internalType":"bytes[]"},{"name":"predecessor","type":"bytes32","internalType":"bytes32"},{"name":"salt","type":"bytes32","internalType":"bytes32"}],"outputs":[],"stateMutability":"payable"},{"type":"function","name":"getMinDelay","inputs":[],"outputs":[{"name":"","type":"uint256","internalType":"uint256"}],"stateMutability":"view"},{"type":"function","name":"getOperationState","inputs":[{"name":"id","type":"bytes32","internalType":"bytes32"}],"outputs":[{"name":"","type":"uint8","internalType":"enum TimelockController.OperationState"}],"stateMutability":"view"},{"type":"function","name":"getRoleAdmin","inputs":[{"name":"role","type":"bytes32","internalType":"bytes32"}],"outputs":[{"name":"","type":"bytes32","internalType":"bytes32"}],"stateMutability":"view"},{"type":"function","name":"getTimestamp","inputs":[{"name":"id","type":"bytes32","internalType":"bytes32"}],"outputs":[{"name":"","type":"uint256","internalType":"uint256"}],"stateMutability":"view"},{"type":"function","name":"grantRole","inputs":[{"name":"role","type":"bytes32","internalType":"bytes32"},{"name":"account","type":"address","internalType":"address"}],"outputs":[],"stateMutability":"nonpayable"},{"type":"function","name":"hasRole","inputs":[{"name":"role","type":"bytes32","internalType":"bytes32"},{"name":"account","type":"address","internalType":"address"}],"outputs":[{"name":"","type":"bool","internalType":"bool"}],"stateMutability":"view"},{"type":"function","name":"hashOperation","inputs":[{"name":"target","type":"address","internalType":"address"},{"name":"value","type":"uint256","internalType":"uint256"},{"name":"data","type":"bytes","internalType":"bytes"},{"name":"predecessor","type":"bytes32","internalType":"bytes32"},{"name":"salt","type":"bytes32","internalType":"bytes32"}],"outputs":[{"name":"","type":"bytes32","internalType":"bytes32"}],"stateMutability":"pure"},{"type":"function","name":"hashOperationBatch","inputs":[{"name":"targets","type":"address[]","internalType":"address[]"},{"name":"values","type":"uint256[]","internalType":"uint256[]"},{"name":"payloads","type":"bytes[]","internalType":"bytes[]"},{"name":"predecessor","type":"bytes32","internalType":"bytes32"},{"name":"salt","type":"bytes32","internalType":"bytes32"}],"outputs":[{"name":"","type":"bytes32","internalType":"bytes32"}],"stateMutability":"pure"},{"type":"function","name":"isOperation","inputs":[{"name":"id","type":"bytes32","internalType":"bytes32"}],"outputs":[{"name":"","type":"bool","internalType":"bool"}],"stateMutability":"view"},{"type":"function","name":"isOperationDone","inputs":[{"name":"id","type":"bytes32","internalType":"bytes32"}],"outputs":[{"name":"","type":"bool","internalType":"bool"}],"stateMutability":"view"},{"type":"function","name":"isOperationPending","inputs":[{"name":"id","type":"bytes32","internalType":"bytes32"}],"outputs":[{"name":"","type":"bool","internalType":"bool"}],"stateMutability":"view"},{"type":"function","name":"isOperationReady","inputs":[{"name":"id","type":"bytes32","internalType":"bytes32"}],"outputs":[{"name":"","type":"bool","internalType":"bool"}],"stateMutability":"view"},{"type":"function","name":"onERC1155BatchReceived","inputs":[{"name":"","type":"address","internalType":"address"},{"name":"","type":"address","internalType":"address"},{"name":"","type":"uint256[]","internalType":"uint256[]"},{"name":"","type":"uint256[]","internalType":"uint256[]"},{"name":"","type":"bytes","internalType":"bytes"}],"outputs":[{"name":"","type":"bytes4","internalType":"bytes4"}],"stateMutability":"nonpayable"},{"type":"function","name":"onERC1155Received","inputs":[{"name":"","type":"address","internalType":"address"},{"name":"","type":"address","internalType":"address"},{"name":"","type":"uint256","internalType":"uint256"},{"name":"","type":"uint256","internalType":"uint256"},{"name":"","type":"bytes","internalType":"bytes"}],"outputs":[{"name":"","type":"bytes4","internalType":"bytes4"}],"stateMutability":"nonpayable"},{"type":"function","name":"onERC721Received","inputs":[{"name":"","type":"address","internalType":"address"},{"name":"","type":"address","internalType":"address"},{"name":"","type":"uint256","internalType":"uint256"},{"name":"","type":"bytes","internalType":"bytes"}],"outputs":[{"name":"","type":"bytes4","internalType":"bytes4"}],"stateMutability":"nonpayable"},{"type":"function","name":"renounceRole","inputs":[{"name":"role","type":"bytes32","internalType":"bytes32"},{"name":"callerConfirmation","type":"address","internalType":"address"}],"outputs":[],"stateMutability":"nonpayable"},{"type":"function","name":"revokeRole","inputs":[{"name":"role","type":"bytes32","internalType":"bytes32"},{"name":"account","type":"address","internalType":"address"}],"outputs":[],"stateMutability":"nonpayable"},{"type":"function","name":"schedule","inputs":[{"name":"target","type":"address","internalType":"address"},{"name":"value","type":"uint256","internalType":"uint256"},{"name":"data","type":"bytes","internalType":"bytes"},{"name":"predecessor","type":"bytes32","internalType":"bytes32"},{"name":"salt","type":"bytes32","internalType":"bytes32"},{"name":"delay","type":"uint256","internalType":"uint256"}],"outputs":[],"stateMutability":"nonpayable"},{"type":"function","name":"scheduleBatch","inputs":[{"name":"targets","type":"address[]","internalType":"address[]"},{"name":"values","type":"uint256[]","internalType":"uint256[]"},{"name":"payloads","type":"bytes[]","internalType":"bytes[]"},{"name":"predecessor","type":"bytes32","internalType":"bytes32"},{"name":"salt","type":"bytes32","internalType":"bytes32"},{"name":"delay","type":"uint256","internalType":"uint256"}],"outputs":[],"stateMutability":"nonpayable"},{"type":"function","name":"supportsInterface","inputs":[{"name":"interfaceId","type":"bytes4","internalType":"bytes4"}],"outputs":[{"name":"","type":"bool","internalType":"bool"}],"stateMutability":"view"},{"type":"function","name":"updateDelay","inputs":[{"name":"newDelay","type":"uint256","internalType":"uint256"}],"outputs":[],"stateMutability":"nonpayable"},{"type":"event","name":"CallExecuted","inputs":[{"name":"id","type":"bytes32","indexed":true,"internalType":"bytes32"},{"name":"index","type":"uint256","indexed":true,"internalType":"uint256"},{"name":"target","type":"address","indexed":false,"internalType":"address"},{"name":"value","type":"uint256","indexed":false,"internalType":"uint256"},{"name":"data","type":"bytes","indexed":false,"internalType":"bytes"}],"anonymous":false},{"type":"event","name":"CallSalt","inputs":[{"name":"id","type":"bytes32","indexed":true,"internalType":"bytes32"},{"name":"salt","type":"bytes32","indexed":false,"internalType":"bytes32"}],"anonymous":false},{"type":"event","name":"CallScheduled","inputs":[{"name":"id","type":"bytes32","indexed":true,"internalType":"bytes32"},{"name":"index","type":"uint256","indexed":true,"internalType":"uint256"},{"name":"target","type":"address","indexed":false,"internalType":"address"},{"name":"value","type":"uint256","indexed":false,"internalType":"uint256"},{"name":"data","type":"bytes","indexed":false,"internalType":"bytes"},{"name":"predecessor","type":"bytes32","indexed":false,"internalType":"bytes32"},{"name":"delay","type":"uint256","indexed":false,"internalType":"uint256"}],"anonymous":false},{"type":"event","name":"Cancelled","inputs":[{"name":"id","type":"bytes32","indexed":true,"internalType":"bytes32"}],"anonymous":false},{"type":"event","name":"MinDelayChange","inputs":[{"name":"oldDuration","type":"uint256","indexed":false,"internalType":"uint256"},{"name":"newDuration","type":"uint256","indexed":false,"internalType":"uint256"}],"anonymous":false},{"type":"event","name":"RoleAdminChanged","inputs":[{"name":"role","type":"bytes32","indexed":true,"internalType":"bytes32"},{"name":"previousAdminRole","type":"bytes32","indexed":true,"internalType":"bytes32"},{"name":"newAdminRole","type":"bytes32","indexed":true,"internalType":"bytes32"}],"anonymous":false},{"type":"event","name":"RoleGranted","inputs":[{"name":"role","type":"bytes32","indexed":true,"internalType":"bytes32"},{"name":"account","type":"address","indexed":true,"internalType":"address"},{"name":"sender","type":"address","indexed":true,"internalType":"address"}],"anonymous":false},{"type":"event","name":"RoleRevoked","inputs":[{"name":"role","type":"bytes32","indexed":true,"internalType":"bytes32"},{"name":"account","type":"address","indexed":true,"internalType":"address"},{"name":"sender","type":"address","indexed":true,"internalType":"address"}],"anonymous":false},{"type":"error","name":"AccessControlBadConfirmation","inputs":[]},{"type":"error","name":"AccessControlUnauthorizedAccount","inputs":[{"name":"account","type":"address","internalType":"address"},{"name":"neededRole","type":"bytes32","internalType":"bytes32"}]},{"type":"error","name":"FailedCall","inputs":[]},{"type":"error","name":"TimelockInsufficientDelay","inputs":[{"name":"delay","type":"uint256","internalType":"uint256"},{"name":"minDelay","type":"uint256","internalType":"uint256"}]},{"type":"error","name":"TimelockInvalidOperationLength","inputs":[{"name":"targets","type":"uint256","internalType":"uint256"},{"name":"payloads","type":"uint256","internalType":"uint256"},{"name":"values","type":"uint256","internalType":"uint256"}]},{"type":"error","name":"TimelockUnauthorizedCaller","inputs":[{"name":"caller","type":"address","internalType":"address"}]},{"type":"error","name":"TimelockUnexecutedPredecessor","inputs":[{"name":"predecessorId","type":"bytes32","internalType":"bytes32"}]},{"type":"error","name":"TimelockUnexpectedOperationState","inputs":[{"name":"operationId","type":"bytes32","internalType":"bytes32"},{"name":"expectedStates","type":"bytes32","internalType":"bytes32"}]}],"bytecode":{"object":"0x608060405234620001725762001b36803803806200001d8162000176565b9283398101906080818303126200017257805160208201516001600160401b039081811162000172578462000054918501620001c5565b9360408401519182116200017257620000766060916200007e938601620001c5565b9301620001b0565b906200008a3062000261565b506001600160a01b03918083166200015f575b505f5b8451811015620000e85780620000c684620000be6001948962000238565b5116620002d1565b50620000e084620000d8838962000238565b511662000371565b5001620000a0565b5092505f5b82518110156200011b578062000113836200010b6001948762000238565b51166200040b565b5001620000ed565b7f11c24f4ead16507c69ac467fbd5e4eed5fb5c699626d2cc6d66421df253886d5604085806002558151905f82526020820152a16040516116509081620004a68239f35b6200016a9062000261565b505f6200009d565b5f80fd5b6040519190601f01601f191682016001600160401b038111838210176200019c57604052565b634e487b7160e01b5f52604160045260245ffd5b51906001600160a01b03821682036200017257565b81601f8201121562000172578051916020916001600160401b0384116200019c578360051b908380620001fa81850162000176565b80978152019282010192831162000172578301905b8282106200021e575050505090565b8380916200022c84620001b0565b8152019101906200020f565b80518210156200024d5760209160051b010190565b634e487b7160e01b5f52603260045260245ffd5b6001600160a01b03165f8181525f8051602062001b16833981519152602052604090205460ff16620002cc575f8181525f8051602062001b1683398151915260205260408120805460ff191660011790553391905f8051602062001af68339815191528180a4600190565b505f90565b6001600160a01b03165f8181527f3412d5605ac6cd444957cedb533e5dacad6378b4bc819ebe3652188a665066d560205260409020547fb09aa5aeb3702cfd50b6b62bc4532604938f21248a27a1d5ca736082b6819cc1919060ff166200036b57815f525f60205260405f20815f5260205260405f20600160ff1982541617905533915f8051602062001af68339815191525f80a4600190565b50505f90565b6001600160a01b03165f8181527fc3ad33e20b0c56a223ad5104fff154aa010f8715b9c981fd38fdc60a4d1a52fb60205260409020547ffd643c72710c63c0180259aba6b2d05451e3591a24e58b62239378085726f783919060ff166200036b57815f525f60205260405f20815f5260205260405f20600160ff1982541617905533915f8051602062001af68339815191525f80a4600190565b6001600160a01b03165f8181527fdae2aa361dfd1ca020a396615627d436107c35eff9fe7738a3512819782d706960205260409020547fd8aa0f3194971a2a116679f7c2090f6939c8d4e01a2a8d7e41d55e5351469e63919060ff166200036b57815f525f60205260405f20815f5260205260405f20600160ff1982541617905533915f8051602062001af68339815191525f80a460019056fe60406080815260048036101561001e575b5050361561001c575f80fd5b005b5f3560e01c90816301d5062a14610c0057816301ffc9a714610b2b57816307bd026514610af1578163134008d314610a3557816313bc9f2014610a17578163150b7a02146109ab578163248a9ca3146109825781632ab0f529146109645781632f2ff15d1461093c57816331d507501461091e57816336568abe146108c1578163584b153e1461089a57816364d62353146108185781637958004c146107d65781638065657f146107b55781638f2a0bb0146106155781638f61f4f5146105db57816391d1485414610597578163a217fddf1461057d578163b08e51c014610543578163b1c5f42714610518578163bc197c811461047b578163c4d252f5146103af578163d45c443514610388578163d547741f1461034d578163e38335e5146101eb578163f23a6e611461017f575063f27a0c921461015e5780610010565b3461017b575f36600319011261017b576020906002549051908152f35b5f80fd5b823461017b5760a036600319011261017b57610199610cac565b506101a2610cc2565b5060843567ffffffffffffffff811161017b576020926101c491369101610da7565b50517ff23a6e61000000000000000000000000000000000000000000000000000000008152f35b90506101f636610e1e565b9098949591939296977fd8aa0f3194971a2a116679f7c2090f6939c8d4e01a2a8d7e41d55e5351469e635f525f602052855f205f805260205260ff865f2054161561033f575b838314801590610335575b6102f1575061025f610266918a868a878b888f6110f4565b98896113f9565b5f5b8181106102785761001c896114cb565b80808a7fc2617efa69bab66782fa219543714338489c4e9e178271560a91b82c3f612b588a8a6102e86102d08f988c6102c9828e6102c38f60019f6102be91859161107a565b61109e565b9761107a565b35956110b2565b906102dd82828787611478565b8d5194859485610f40565b0390a301610268565b85517fffb032110000000000000000000000000000000000000000000000000000000081529081019283526020830185905260408301849052918291506060010390fd5b5084831415610247565b61034833611368565b61023c565b823461017b578060031936011261017b5761001c91356103836001610370610cc2565b93835f525f6020525f20015433906113cc565b611566565b823461017b57602036600319011261017b57602091355f5260018252805f20549051908152f35b823461017b57602036600319011261017b578135917ffd643c72710c63c0180259aba6b2d05451e3591a24e58b62239378085726f783805f525f602052825f20335f5260205260ff835f20541615610460575061040b83610fc3565b1561044457505f9082825260016020528120557fbaa1eb22f2a492ba1a5fea61b8df4d27c6c8b5f3971e63bb58fa14ff72eedb705f80a2005b826044925191635ead8eb560e01b835282015260066024820152fd5b604492519163e2517d3f60e01b835233908301526024820152fd5b823461017b5760a036600319011261017b57610495610cac565b5061049e610cc2565b5067ffffffffffffffff60443581811161017b576104bf9036908501610e80565b5060643581811161017b576104d79036908501610e80565b5060843590811161017b576020926104f191369101610da7565b50517fbc197c81000000000000000000000000000000000000000000000000000000008152f35b823461017b5760209061053c61052d36610e1e565b969590959491949392936110f4565b9051908152f35b823461017b575f36600319011261017b57602090517ffd643c72710c63c0180259aba6b2d05451e3591a24e58b62239378085726f7838152f35b823461017b575f36600319011261017b57602090515f8152f35b823461017b578060031936011261017b576020916105b3610cc2565b90355f525f83526001600160a01b03825f2091165f52825260ff815f20541690519015158152f35b823461017b575f36600319011261017b57602090517fb09aa5aeb3702cfd50b6b62bc4532604938f21248a27a1d5ca736082b6819cc18152f35b823461017b5760c036600319011261017b5767ffffffffffffffff90823582811161017b576106479036908501610ded565b9360243584811161017b5761065f9036908301610ded565b9460443590811161017b576106779036908401610ded565b60649391933590608435978960a43594610690336112e6565b8282148015906107ab575b610768575089848489858a6106b0968e6110f4565b996106bb858c61124b565b8a5f5b8a8382106106fc578c8092506106d057005b7f20fda5fd27a1ea7bf5b9567f143ac5470bb059374a27e8f67cb44f946f6d03879160209151908152a2005b6001927f4cf4410cc57040e44862ef0f45f3dd5a5e02db8eb8add648d4b0e236f1d07dca8b8b61075d8f8c88978f92898f8f8f61074b916107456102be8680946107529961107a565b9a61107a565b35986110b2565b915196879687610f07565b0390a3018b906106be565b89517fffb0321100000000000000000000000000000000000000000000000000000000815290810191825260208201849052604082018390529081906060010390fd5b508382141561069b565b823461017b5760209061053c6107ca36610d06565b94939093929192611024565b823461017b57602036600319011261017b576107f28235610fec565b9051908281101561080557602092508152f35b602183634e487b7160e01b5f525260245ffd5b823461017b57602036600319011261017b5781359130330361086b57507f11c24f4ead16507c69ac467fbd5e4eed5fb5c699626d2cc6d66421df253886d5906002548151908152836020820152a1600255005b60249151907fe2850c590000000000000000000000000000000000000000000000000000000082523390820152fd5b823461017b57602036600319011261017b576108b860209235610fc3565b90519015158152f35b823461017b578060031936011261017b576108da610cc2565b90336001600160a01b038316036108f6575061001c9135611566565b9050517f6697b232000000000000000000000000000000000000000000000000000000008152fd5b823461017b57602036600319011261017b576108b860209235610fac565b823461017b578060031936011261017b5761001c913561095f6001610370610cc2565b6114e9565b823461017b57602036600319011261017b576108b860209235610f94565b823461017b57602036600319011261017b57602091355f525f82526001815f2001549051908152f35b823461017b57608036600319011261017b576109c5610cac565b506109ce610cc2565b5060643567ffffffffffffffff811161017b576020926109f091369101610da7565b50517f150b7a02000000000000000000000000000000000000000000000000000000008152f35b823461017b57602036600319011261017b576108b860209235610f68565b61001c610ac55f610adb7fc2617efa69bab66782fa219543714338489c4e9e178271560a91b82c3f612b58610abc88610a6d36610d06565b7fd8aa0f3194971a2a116679f7c2090f6939c8d4e01a2a8d7e41d55e5351469e638b9a9697939598929a528a602052828b208b805260205260ff838c20541615610ae3575b8985858a8a611024565b998a98896113f9565b610ad183838888611478565b5194859485610f40565b0390a36114cb565b610aec33611368565b610ab2565b823461017b575f36600319011261017b57602090517fd8aa0f3194971a2a116679f7c2090f6939c8d4e01a2a8d7e41d55e5351469e638152f35b90503461017b57602036600319011261017b57357fffffffff00000000000000000000000000000000000000000000000000000000811680910361017b576020917f4e2312e0000000000000000000000000000000000000000000000000000000008214918215610ba0575b50519015158152f35b9091507f7965db0b000000000000000000000000000000000000000000000000000000008114908115610bd6575b50905f610b97565b7f01ffc9a7000000000000000000000000000000000000000000000000000000009150145f610bce565b823461017b5760c036600319011261017b57610c1a610cac565b90602435926044359367ffffffffffffffff851161017b57610c615f927f4cf4410cc57040e44862ef0f45f3dd5a5e02db8eb8add648d4b0e236f1d07dca96369101610cd8565b95909160643595610ca26084359760a43590610c7c336112e6565b610c8a8a828d8a8989611024565b9a8b97610c97848a61124b565b8a5196879687610f07565b0390a3816106d057005b600435906001600160a01b038216820361017b57565b602435906001600160a01b038216820361017b57565b9181601f8401121561017b5782359167ffffffffffffffff831161017b576020838186019501011161017b57565b60a060031982011261017b576004356001600160a01b038116810361017b5791602435916044359067ffffffffffffffff821161017b57610d4991600401610cd8565b90916064359060843590565b90601f8019910116810190811067ffffffffffffffff821117610d7757604052565b634e487b7160e01b5f52604160045260245ffd5b67ffffffffffffffff8111610d7757601f01601f191660200190565b81601f8201121561017b57803590610dbe82610d8b565b92610dcc6040519485610d55565b8284526020838301011161017b57815f926020809301838601378301015290565b9181601f8401121561017b5782359167ffffffffffffffff831161017b576020808501948460051b01011161017b57565b9060a060031983011261017b5767ffffffffffffffff60043581811161017b5783610e4b91600401610ded565b9390939260243583811161017b5782610e6691600401610ded565b9390939260443591821161017b57610d4991600401610ded565b81601f8201121561017b5780359160209167ffffffffffffffff8411610d77578360051b9060405194610eb585840187610d55565b8552838086019282010192831161017b578301905b828210610ed8575050505090565b81358152908301908301610eca565b908060209392818452848401375f828201840152601f01601f1916010190565b929093610f36926001600160a01b0360809699989799168552602085015260a0604085015260a0840191610ee7565b9460608201520152565b610f6594926001600160a01b0360609316825260208201528160408201520191610ee7565b90565b610f7190610fec565b6004811015610f805760021490565b634e487b7160e01b5f52602160045260245ffd5b610f9d90610fec565b6004811015610f805760031490565b610fb590610fec565b6004811015610f8057151590565b610fcc90610fec565b6004811015610f805760018114908115610fe4575090565b600291501490565b5f52600160205260405f205480155f1461100557505f90565b600181036110135750600390565b42101561101f57600190565b600290565b9461105b611074949592936040519687956001600160a01b03602088019a168a52604087015260a0606087015260c0860191610ee7565b91608084015260a083015203601f198101835282610d55565b51902090565b919081101561108a5760051b0190565b634e487b7160e01b5f52603260045260245ffd5b356001600160a01b038116810361017b5790565b919081101561108a5760051b81013590601e198136030182121561017b57019081359167ffffffffffffffff831161017b57602001823603811361017b579190565b969294909695919560405196602091828901998060c08b0160a08d525260e08a0191905f5b81811061122257505050601f1997888a83030160408b01528082527f07ffffffffffffffffffffffffffffffffffffffffffffffffffffffffffffff811161017b579089969495939897929160051b80928a830137019380888601878703606089015252604085019460408260051b82010195835f925b8484106111b8575050505050506110749550608084015260a083015203908101835282610d55565b9193969850919398999496603f198282030184528935601e198436030181121561017b57830186810191903567ffffffffffffffff811161017b57803603831361017b5761120b88928392600195610ee7565b9b0194019401918b98969394919a9997959a611190565b9091928335906001600160a01b03821680920361017b5790815285019285019190600101611119565b9061125582610fac565b6112c757600254808210611290575042019081421161127c575f52600160205260405f2055565b634e487b7160e01b5f52601160045260245ffd5b60449250604051917f5433660900000000000000000000000000000000000000000000000000000000835260048301526024820152fd5b60448260405190635ead8eb560e01b8252600482015260016024820152fd5b6001600160a01b03165f8181527f3412d5605ac6cd444957cedb533e5dacad6378b4bc819ebe3652188a665066d560205260409020547fb09aa5aeb3702cfd50b6b62bc4532604938f21248a27a1d5ca736082b6819cc19060ff161561134a575050565b604492506040519163e2517d3f60e01b835260048301526024820152fd5b6001600160a01b03165f8181527fdae2aa361dfd1ca020a396615627d436107c35eff9fe7738a3512819782d706960205260409020547fd8aa0f3194971a2a116679f7c2090f6939c8d4e01a2a8d7e41d55e5351469e639060ff161561134a575050565b805f525f6020526001600160a01b0360405f20921691825f5260205260ff60405f2054161561134a575050565b61140281610f68565b15611459575080151580611449575b6114185750565b602490604051907f90a9a6180000000000000000000000000000000000000000000000000000000082526004820152fd5b5061145381610f94565b15611411565b60449060405190635ead8eb560e01b8252600482015260046024820152fd5b6114c0935f93928493826040519384928337810185815203925af13d156114c3573d906114a482610d8b565b916114b26040519384610d55565b82523d5f602084013e6115d9565b50565b6060906115d9565b6114d481610f68565b15611459575f526001602052600160405f2055565b90815f525f6020526001600160a01b0360405f20911690815f5260205260ff60405f205416155f1461156057815f525f60205260405f20815f5260205260405f20600160ff1982541617905533917f2f8788117e7eff1d82e926ec794901d17c78024a50270940304540a733656f0d5f80a4600190565b50505f90565b90815f525f6020526001600160a01b0360405f20911690815f5260205260ff60405f2054165f1461156057815f525f60205260405f20815f5260205260405f2060ff19815416905533917ff6391f5c32d9c69d2a47ea670b442974b53935d1edc7fd64eb21e047a839171b5f80a4600190565b156115e15790565b8051156115f057602081519101fd5b60046040517fd6bda275000000000000000000000000000000000000000000000000000000008152fdfea264697066735822122094e755166e051fda937907d9c39ad8c3e8f61530abcbda1897ae053ccf3c21c764736f6c634300081800332f8788117e7eff1d82e926ec794901d17c78024a50270940304540a733656f0dad3228b676f7d3cd4284a5443f17f1962b36e491b30a40b2405849e597ba5fb5","linkReferences":{}},"methodIdentifiers":{"CANCELLER_ROLE()":"b08e51c0","DEFAULT_ADMIN_ROLE()":"a217fddf","EXECUTOR_ROLE()":"07bd0265","PROPOSER_ROLE()":"8f61f4f5","cancel(bytes32)":"c4d252f5","execute(address,uint256,bytes,bytes32,bytes32)":"134008d3","executeBatch(address[],uint256[],bytes[],bytes32,bytes32)":"e38335e5","getMinDelay()":"f27a0c92","getOperationState(bytes32)":"7958004c","getRoleAdmin(bytes32)":"248a9ca3","getTimestamp(bytes32)":"d45c4435","grantRole(bytes32,address)":"2f2ff15d","hasRole(bytes32,address)":"91d14854","hashOperation(address,uint256,bytes,bytes32,bytes32)":"8065657f","hashOperationBatch(address[],uint256[],bytes[],bytes32,bytes32)":"b1c5f427","isOperation(bytes32)":"31d50750","isOperationDone(bytes32)":"2ab0f529","isOperationPending(bytes32)":"584b153e","isOperationReady(bytes32)":"13bc9f20","onERC1155BatchReceived(address,address,uint256[],uint256[],bytes)":"bc197c81","onERC1155Received(address,address,uint256,uint256,bytes)":"f23a6e61","onERC721Received(address,address,uint256,bytes)":"150b7a02","renounceRole(bytes32,address)":"36568abe","revokeRole(bytes32,address)":"d547741f","schedule(address,uint256,bytes,bytes32,bytes32,uint256)":"01d5062a","scheduleBatch(address[],uint256[],bytes[],bytes32,bytes32,uint256)":"8f2a0bb0","supportsInterface(bytes4)":"01ffc9a7","updateDelay(uint256)":"64d62353"},"id":4}