{"abi":[{"type":"constructor","inputs":[{"name":"manager","type":"address","internalType":"address"},{"name":"_communityRegistry","type":"address","internalType":"address"},{"name":"_communityId","type":"uint256","internalType":"uint256"}],"stateMutability":"nonpayable"},{"type":"function","name":"REASON_ADAPTER_NOT_ALLOWED","inputs":[],"outputs":[{"name":"","type":"bytes32","internalType":"bytes32"}],"stateMutability":"view"},{"type":"function","name":"REASON_AMOUNT_EXCEEDS_CAP","inputs":[],"outputs":[{"name":"","type":"bytes32","internalType":"bytes32"}],"stateMutability":"view"},{"type":"function","name":"REASON_CAP_NOT_SET","inputs":[],"outputs":[{"name":"","type":"bytes32","internalType":"bytes32"}],"stateMutability":"view"},{"type":"function","name":"REASON_DEST_NOT_ALLOWED","inputs":[],"outputs":[{"name":"","type":"bytes32","internalType":"bytes32"}],"stateMutability":"view"},{"type":"function","name":"REASON_OK","inputs":[],"outputs":[{"name":"","type":"bytes32","internalType":"bytes32"}],"stateMutability":"view"},{"type":"function","name":"REASON_TOKEN_NOT_ALLOWED","inputs":[],"outputs":[{"name":"","type":"bytes32","internalType":"bytes32"}],"stateMutability":"view"},{"type":"function","name":"REASON_TREASURY_NOT_SET","inputs":[],"outputs":[{"name":"","type":"bytes32","internalType":"bytes32"}],"stateMutability":"view"},{"type":"function","name":"authority","inputs":[],"outputs":[{"name":"","type":"address","internalType":"address"}],"stateMutability":"view"},{"type":"function","name":"buildERC20TransferTx","inputs":[{"name":"token","type":"address","internalType":"address"},{"name":"to","type":"address","internalType":"address"},{"name":"amount","type":"uint256","internalType":"uint256"}],"outputs":[{"name":"target","type":"address","internalType":"address"},{"name":"value","type":"uint256","internalType":"uint256"},{"name":"data","type":"bytes","internalType":"bytes"}],"stateMutability":"view"},{"type":"function","name":"buildSetRequestBountyTx","inputs":[{"name":"requestHub","type":"address","internalType":"address"},{"name":"requestId","type":"uint256","internalType":"uint256"},{"name":"token","type":"address","internalType":"address"},{"name":"amount","type":"uint256","internalType":"uint256"}],"outputs":[{"name":"target","type":"address","internalType":"address"},{"name":"value","type":"uint256","internalType":"uint256"},{"name":"data","type":"bytes","internalType":"bytes"}],"stateMutability":"view"},{"type":"function","name":"buildVaultDepositTx","inputs":[{"name":"adapter","type":"address","internalType":"address"},{"name":"token","type":"address","internalType":"address"},{"name":"amount","type":"uint256","internalType":"uint256"},{"name":"params","type":"bytes","internalType":"bytes"}],"outputs":[{"name":"target","type":"address","internalType":"address"},{"name":"value","type":"uint256","internalType":"uint256"},{"name":"data","type":"bytes","internalType":"bytes"}],"stateMutability":"view"},{"type":"function","name":"buildVaultWithdrawTx","inputs":[{"name":"adapter","type":"address","internalType":"address"},{"name":"token","type":"address","internalType":"address"},{"name":"amount","type":"uint256","internalType":"uint256"},{"name":"to","type":"address","internalType":"address"},{"name":"params","type":"bytes","internalType":"bytes"}],"outputs":[{"name":"target","type":"address","internalType":"address"},{"name":"value","type":"uint256","internalType":"uint256"},{"name":"data","type":"bytes","internalType":"bytes"}],"stateMutability":"view"},{"type":"function","name":"capBps","inputs":[{"name":"token","type":"address","internalType":"address"}],"outputs":[{"name":"","type":"uint16","internalType":"uint16"}],"stateMutability":"view"},{"type":"function","name":"communityId","inputs":[],"outputs":[{"name":"","type":"uint256","internalType":"uint256"}],"stateMutability":"view"},{"type":"function","name":"communityRegistry","inputs":[],"outputs":[{"name":"","type":"address","internalType":"contract CommunityRegistry"}],"stateMutability":"view"},{"type":"function","name":"destinationAllowed","inputs":[{"name":"destination","type":"address","internalType":"address"}],"outputs":[{"name":"","type":"bool","internalType":"bool"}],"stateMutability":"view"},{"type":"function","name":"isConsumingScheduledOp","inputs":[],"outputs":[{"name":"","type":"bytes4","internalType":"bytes4"}],"stateMutability":"view"},{"type":"function","name":"maxSpendPerTx","inputs":[{"name":"token","type":"address","internalType":"address"}],"outputs":[{"name":"","type":"uint256","internalType":"uint256"}],"stateMutability":"view"},{"type":"function","name":"setAuthority","inputs":[{"name":"newAuthority","type":"address","internalType":"address"}],"outputs":[],"stateMutability":"nonpayable"},{"type":"function","name":"setCapBps","inputs":[{"name":"token","type":"address","internalType":"address"},{"name":"capBpsValue","type":"uint16","internalType":"uint16"}],"outputs":[],"stateMutability":"nonpayable"},{"type":"function","name":"setDestinationAllowed","inputs":[{"name":"target","type":"address","internalType":"address"},{"name":"allowed","type":"bool","internalType":"bool"}],"outputs":[],"stateMutability":"nonpayable"},{"type":"function","name":"setTokenAllowed","inputs":[{"name":"token","type":"address","internalType":"address"},{"name":"allowed","type":"bool","internalType":"bool"}],"outputs":[],"stateMutability":"nonpayable"},{"type":"function","name":"setVaultAdapterAllowed","inputs":[{"name":"adapter","type":"address","internalType":"address"},{"name":"allowed","type":"bool","internalType":"bool"}],"outputs":[],"stateMutability":"nonpayable"},{"type":"function","name":"tokenAllowed","inputs":[{"name":"token","type":"address","internalType":"address"}],"outputs":[{"name":"","type":"bool","internalType":"bool"}],"stateMutability":"view"},{"type":"function","name":"validateSpend","inputs":[{"name":"token","type":"address","internalType":"address"},{"name":"to","type":"address","internalType":"address"},{"name":"amount","type":"uint256","internalType":"uint256"}],"outputs":[{"name":"ok","type":"bool","internalType":"bool"},{"name":"reason","type":"bytes32","internalType":"bytes32"}],"stateMutability":"view"},{"type":"function","name":"vaultAdapterAllowed","inputs":[{"name":"adapter","type":"address","internalType":"address"}],"outputs":[{"name":"","type":"bool","internalType":"bool"}],"stateMutability":"view"},{"type":"event","name":"AuthorityUpdated","inputs":[{"name":"authority","type":"address","indexed":false,"internalType":"address"}],"anonymous":false},{"type":"event","name":"PolicyUpdated","inputs":[{"name":"communityId","type":"uint256","indexed":true,"internalType":"uint256"},{"name":"kind","type":"bytes32","indexed":true,"internalType":"bytes32"},{"name":"target","type":"address","indexed":true,"internalType":"address"},{"name":"value","type":"uint256","indexed":false,"internalType":"uint256"}],"anonymous":false},{"type":"event","name":"TxBuilt","inputs":[{"name":"communityId","type":"uint256","indexed":true,"internalType":"uint256"},{"name":"txKind","type":"bytes32","indexed":true,"internalType":"bytes32"},{"name":"target","type":"address","indexed":true,"internalType":"address"},{"name":"value","type":"uint256","indexed":false,"internalType":"uint256"},{"name":"dataHash","type":"bytes32","indexed":false,"internalType":"bytes32"}],"anonymous":false},{"type":"error","name":"AccessManagedInvalidAuthority","inputs":[{"name":"authority","type":"address","internalType":"address"}]},{"type":"error","name":"AccessManagedRequiredDelay","inputs":[{"name":"caller","type":"address","internalType":"address"},{"name":"delay","type":"uint32","internalType":"uint32"}]},{"type":"error","name":"AccessManagedUnauthorized","inputs":[{"name":"caller","type":"address","internalType":"address"}]},{"type":"error","name":"InvalidInput","inputs":[{"name":"reason","type":"string","internalType":"string"}]},{"type":"error","name":"TxValidationFailed","inputs":[{"name":"reason","type":"bytes32","internalType":"bytes32"}]},{"type":"error","name":"ZeroAddress","inputs":[]}],"bytecode":{"object":"0x60c0346200017457601f620017ba38819003918201601f191683019291906001600160401b0384118385101762000178578160609284926040968752833981010312620001745762000051816200018c565b8262000060602084016200018c565b9201515f80546001600160a01b0319166001600160a01b0393841690811790915584518181529193917f2f658b440c35314f52658ea8a740e05b284cdc84dc9ae01e891f21b8933e7cad90602090a1156200016357168015620001525781156200010d5760a052608052516116189081620001a282396080518181816101e0015281816104a6015281816106cd01528181610a3501526111ba015260a05181818161060001526111e90152f35b825163d647364f60e01b815260206004820152601b60248201527f436f6d6d756e6974792049442063616e6e6f74206265207a65726f00000000006044820152606490fd5b825163d92e233d60e01b8152600490fd5b835163d92e233d60e01b8152600490fd5b5f80fd5b634e487b7160e01b5f52604160045260245ffd5b51906001600160a01b0382168203620001745756fe60406080815260049081361015610014575f80fd5b5f358060e01c9081630683025014610d19578163098e434614610be4578163141461c514610b2457816315f690121461093357508063292a37c6146109145780633b21702e146108d85780634bf99fa0146108ab57806355219d5a1461086f5780635c1d2d1b146108005780637130b509146107c65780637a9e5e4b146106f05780637f50861a146106b65780638fb360371461065157806395e4f60a14610624578063a200ac86146105e1578063a9b876b5146105bb578063bf7e214f14610595578063c44530b51461055c578063c7ce026614610534578063cb39331f146103f7578063dbb11c2a146103cb578063e141435914610391578063e2ead2de14610355578063ee2422811461024c578063ef400e161461021e5763f31420951461013d575f80fd5b3461021a576001600160a01b0361015336610ec5565b919061015f3633611495565b1692831561020c5750907f444553540000000000000000000000000000000000000000000000000000000091835f5260026020526101ab81835f209060ff801983541691151516179055565b156102035760ff6001915b51911681527fda53ada77d79198c4b4e8bab3c356e840d0ec7191dd87d827b881a370a9d38ac60207f000000000000000000000000000000000000000000000000000000000000000092a4005b60ff5f916101b6565b825163d92e233d60e01b8152fd5b5f80fd5b503461021a575f36600319011261021a5760209051701513d2d15397d393d517d0531313d5d151607a1b8152f35b503461021a5760a036600319011261021a57610266610dd6565b9061026f610dec565b604435606435906001600160a01b03958683169081840361021a576084359067ffffffffffffffff821161021a576102c06102ae859336908401610e97565b9590966102ba8b61143f565b88610f7a565b901561033f57505092859492610323926103319561033b98519a8b967f9003afee000000000000000000000000000000000000000000000000000000006020890152166024870152604486015260648501526080608485015260a4840191610f5a565b03601f198101865285610f38565b5192839283610e37565b0390f35b6024925087519163fa3f871760e01b8352820152fd5b503461021a57602036600319011261021a576020906001600160a01b0361037a610dd6565b165f526002825260ff815f20541690519015158152f35b503461021a575f36600319011261021a57602090517f414d4f554e545f455843454544535f43415000000000000000000000000000008152f35b503461021a57602036600319011261021a576020906103f06103eb610dd6565b611083565b9051908152f35b50903461021a578160031936011261021a57610411610dd6565b6024359061ffff821680920361021a576001600160a01b03906104343633611495565b169182156105265761271082116104c9579282937f4341505f42505300000000000000000000000000000000000000000000000000935f52602052805f208261ffff19825416179055519081527fda53ada77d79198c4b4e8bab3c356e840d0ec7191dd87d827b881a370a9d38ac60207f000000000000000000000000000000000000000000000000000000000000000092a4005b60649060208551917fd647364f000000000000000000000000000000000000000000000000000000008352820152600c60248201527f63617020746f6f206869676800000000000000000000000000000000000000006044820152fd5b835163d92e233d60e01b8152fd5b503461021a575f36600319011261021a57602090516a10d05417d393d517d4d15560aa1b8152f35b503461021a57602036600319011261021a576020916001600160a01b03610581610dd6565b165f52825261ffff815f2054169051908152f35b503461021a575f36600319011261021a576020906001600160a01b035f54169051908152f35b503461021a576105d36105cd36610e02565b91610f7a565b825191151582526020820152f35b503461021a575f36600319011261021a57602090516001600160a01b037f0000000000000000000000000000000000000000000000000000000000000000168152f35b503461021a575f36600319011261021a57602090516f1514915054d5549657d393d517d4d15560821b8152f35b503461021a575f36600319011261021a5760209060ff5f5460a01c165f146106a6576001600160e01b03197f8fb3603700000000000000000000000000000000000000000000000000000000915b5191168152f35b6001600160e01b03195f9161069f565b503461021a575f36600319011261021a57602090517f00000000000000000000000000000000000000000000000000000000000000008152f35b503461021a57602036600319011261021a5761070a610dd6565b915f54906001600160a01b039081831633036107b057843b1561077e577f2f658b440c35314f52658ea8a740e05b284cdc84dc9ae01e891f21b8933e7cad60207fffffffffffffffffffffffff00000000000000000000000000000000000000008686868a1692839116175f5551908152a1005b91506024939251927fc2f31e5e0000000000000000000000000000000000000000000000000000000084521690820152fd5b60249084519062d1953b60e31b82523390820152fd5b503461021a575f36600319011261021a57602090517f414441505445525f4e4f545f414c4c4f574544000000000000000000000000008152f35b503461021a576001600160a01b0361081736610ec5565b91906108233633611495565b1692831561020c5750907f414441505445520000000000000000000000000000000000000000000000000091835f5260036020526101ab81835f209060ff801983541691151516179055565b503461021a57602036600319011261021a576020906001600160a01b03610894610dd6565b165f526001825260ff815f20541690519015158152f35b503461021a575f36600319011261021a57602090516f111154d517d393d517d0531313d5d15160821b8152f35b503461021a57602036600319011261021a576020906001600160a01b036108fd610dd6565b165f526003825260ff815f20541690519015158152f35b503461021a575f36600319011261021a5760209051614f4b60f01b8152f35b90503461021a5761094336610ec5565b905f905f54916001600160a01b039283811636891161021a575f80895f81519a60209b6001600160e01b03198d82019263b700961360e01b84523360248401523060448401521660648201526064815261099c81610f1c565b828052828d525190865afa610b13575b15610a61575b505050501693841561052657507f544f4b454e00000000000000000000000000000000000000000000000000000092917fda53ada77d79198c4b4e8bab3c356e840d0ec7191dd87d827b881a370a9d38ac91855f5260018252610a2381855f209060ff801983541691151516179055565b15610a585760ff6001935b51931683527f000000000000000000000000000000000000000000000000000000000000000092a4005b60ff5f93610a2e565b63ffffffff1615610afe57600160a01b60ff60a01b19809316175f55803b1561021a575f88518092634a63ebf760e11b8252338c8301528a60248301523660448301523683606484013782606436840101528183606482601f19601f36011681010301925af18015610af457610ae1575b5081541690555f8080806109b2565b610aec919250610ef4565b5f905f610ad2565b88513d5f823e3d90fd5b875162d1953b60e31b815233818b0152602490fd5b50505f51875180891c1502906109ac565b82843461021a57608036600319011261021a57610b3f610dd6565b90610b48610dec565b9060443560643567ffffffffffffffff811161021a57610b6b9036908401610e97565b919092610b778661143f565b610b82828787610f7a565b901561033f5787517f49bdc2b80000000000000000000000000000000000000000000000000000000060208201526001600160a01b038716602482015260448101849052606060648201528761033b8a61033184610323608482018b8d610f5a565b50503461021a57608036600319011261021a57610bff610dd6565b90604435926001600160a01b0380851680950361021a57845f52600160205260ff835f20541615610cef578084165f52600260205260ff835f20541615610cc657610c48611189565b1615610c9e57508061033b9151937f4dc71cde0000000000000000000000000000000000000000000000000000000060208601526024356024860152604485015260643560648501526064845261033184610f1c565b6f1514915054d5549657d393d517d4d15560821b602492519163fa3f871760e01b8352820152fd5b506f111154d517d393d517d0531313d5d15160821b602492519163fa3f871760e01b8352820152fd5b50701513d2d15397d393d517d0531313d5d151607a1b602492519163fa3f871760e01b8352820152fd5b50503461021a57610d2936610e02565b610d37818385969495610f7a565b9015610dc057506001600160a01b038251937fa9059cbb000000000000000000000000000000000000000000000000000000006020860152166024840152604483015260448252608082019382851067ffffffffffffffff861117610dad5750839052610da881607f199385610e37565b030190f35b604190634e487b7160e01b5f525260245ffd5b8560249184519163fa3f871760e01b8352820152fd5b600435906001600160a01b038216820361021a57565b602435906001600160a01b038216820361021a57565b606090600319011261021a576001600160a01b0390600435828116810361021a5791602435908116810361021a579060443590565b906001600160a01b03909392931681526020925f6020830152606060408301528051908160608401525f5b828110610e8357505060809293505f838284010152601f8019910116010190565b818101860151848201608001528501610e62565b9181601f8401121561021a5782359167ffffffffffffffff831161021a576020838186019501011161021a57565b604090600319011261021a576004356001600160a01b038116810361021a5790602435801515810361021a5790565b67ffffffffffffffff8111610f0857604052565b634e487b7160e01b5f52604160045260245ffd5b60a0810190811067ffffffffffffffff821117610f0857604052565b90601f8019910116810190811067ffffffffffffffff821117610f0857604052565b908060209392818452848401375f828201840152601f01601f1916010190565b906001600160a01b0380610f8c611189565b16156110665780831691825f52600160205260ff60405f2054161561104757165f52600260205260ff60405f2054161561102b575f52600460205261ffff60405f2054161561101557610fde90611083565b10610fef57600190614f4b60f01b90565b5f907f414d4f554e545f455843454544535f434150000000000000000000000000000090565b50505f906a10d05417d393d517d4d15560aa1b90565b5050505f906f111154d517d393d517d0531313d5d15160821b90565b50505050505f90701513d2d15397d393d517d0531313d5d151607a1b90565b505050505f906f1514915054d5549657d393d517d4d15560821b90565b61108b611189565b906001600160a01b0380911690815f52600460205261ffff60405f20541692168015801561116d575b611166576020906024604051809481937f70a0823100000000000000000000000000000000000000000000000000000000835260048301525afa90811561115b575f91611129575b5081810291818304149015171561111557612710900490565b634e487b7160e01b5f52601160045260245ffd5b90506020813d602011611153575b8161114460209383610f38565b8101031261021a57515f6110fc565b3d9150611137565b6040513d5f823e3d90fd5b5050505f90565b5082156110b4565b51906001600160a01b038216820361021a57565b6001600160a01b03604080517ff830e3480000000000000000000000000000000000000000000000000000000081527f000000000000000000000000000000000000000000000000000000000000000060048201526103408082602481877f0000000000000000000000000000000000000000000000000000000000000000165afa918215611435575f92611226575b5050610240915001511690565b9080925081813d831161142e575b61123e8183610f38565b8101031261021a5782519182019282841067ffffffffffffffff851117610f085761024093815261126e82611175565b835261127c60208301611175565b602084015261128c818301611175565b9083015261129c60608201611175565b60608301526112ad60808201611175565b60808301526112be60a08201611175565b60a08301526112cf60c08201611175565b60c08301526112e060e08201611175565b60e08301526101006112f3818301611175565b90830152610120611305818301611175565b90830152610140611317818301611175565b90830152610160611329818301611175565b9083015261018061133b818301611175565b908301526101a061134d818301611175565b908301526101c061135f818301611175565b908301526101e0611371818301611175565b90830152610200611383818301611175565b90830152610220611395818301611175565b90830152826113a5818301611175565b908301526102606113b7818301611175565b908301526102806113c9818301611175565b908301526102a06113db818301611175565b908301526102c06113ed818301611175565b908301526102e06113ff818301611175565b90830152610300611411818301611175565b90830152611423610320809201611175565b908201525f80611219565b503d611234565b83513d5f823e3d90fd5b6001600160a01b03165f52600360205260ff60405f2054161561145e57565b602460405163fa3f871760e01b81527f414441505445525f4e4f545f414c4c4f574544000000000000000000000000006004820152fd5b5f915f54916001600160a01b03808416928060041161021a575f928384916040958691825196602088019163b700961360e01b835216968760248201523060448201526001600160e01b03198335166064820152606481526114f681610f1c565b828052826020525190895afa6115cf575b15611516575b50505050505050565b63ffffffff16156115b957600160a01b60ff60a01b19809616175f55833b1561021a576064935f92838551968780958194634a63ebf760e11b835260048301528860248301528060448301528084848401378181018301849052601f01601f191681010301925af19081156115b0575061159d575b5081541690555f80808080808061150d565b6115a8919250610ef4565b5f905f61158b565b513d5f823e3d90fd5b50602491519062d1953b60e31b82526004820152fd5b50505f516020518060201c15029061150756fea2646970667358221220c7f247fdf9b9fe47a2efef8768322e328a4676c958e65eaea232454a688e5fc964736f6c63430008180033","linkReferences":{}},"methodIdentifiers":{"REASON_ADAPTER_NOT_ALLOWED()":"7130b509","REASON_AMOUNT_EXCEEDS_CAP()":"e1414359","REASON_CAP_NOT_SET()":"c7ce0266","REASON_DEST_NOT_ALLOWED()":"4bf99fa0","REASON_OK()":"292a37c6","REASON_TOKEN_NOT_ALLOWED()":"ef400e16","REASON_TREASURY_NOT_SET()":"95e4f60a","authority()":"bf7e214f","buildERC20TransferTx(address,address,uint256)":"06830250","buildSetRequestBountyTx(address,uint256,address,uint256)":"098e4346","buildVaultDepositTx(address,address,uint256,bytes)":"141461c5","buildVaultWithdrawTx(address,address,uint256,address,bytes)":"ee242281","capBps(address)":"c44530b5","communityId()":"7f50861a","communityRegistry()":"a200ac86","destinationAllowed(address)":"e2ead2de","isConsumingScheduledOp()":"8fb36037","maxSpendPerTx(address)":"dbb11c2a","setAuthority(address)":"7a9e5e4b","setCapBps(address,uint16)":"cb39331f","setDestinationAllowed(address,bool)":"f3142095","setTokenAllowed(address,bool)":"15f69012","setVaultAdapterAllowed(address,bool)":"5c1d2d1b","tokenAllowed(address)":"55219d5a","validateSpend(address,address,uint256)":"a9b876b5","vaultAdapterAllowed(address)":"3b21702e"},"id":26}