{
  "_format": "hh-sol-artifact-1",
  "contractName": "TreasuryAdapter",
  "sourceName": "contracts/modules/TreasuryAdapter.sol",
  "abi": [
    {
      "inputs": [
        {
          "internalType": "address",
          "name": "manager",
          "type": "address"
        },
        {
          "internalType": "address",
          "name": "_communityRegistry",
          "type": "address"
        },
        {
          "internalType": "uint256",
          "name": "_communityId",
          "type": "uint256"
        }
      ],
      "stateMutability": "nonpayable",
      "type": "constructor"
    },
    {
      "inputs": [
        {
          "internalType": "address",
          "name": "authority",
          "type": "address"
        }
      ],
      "name": "AccessManagedInvalidAuthority",
      "type": "error"
    },
    {
      "inputs": [
        {
          "internalType": "address",
          "name": "caller",
          "type": "address"
        },
        {
          "internalType": "uint32",
          "name": "delay",
          "type": "uint32"
        }
      ],
      "name": "AccessManagedRequiredDelay",
      "type": "error"
    },
    {
      "inputs": [
        {
          "internalType": "address",
          "name": "caller",
          "type": "address"
        }
      ],
      "name": "AccessManagedUnauthorized",
      "type": "error"
    },
    {
      "inputs": [
        {
          "internalType": "string",
          "name": "reason",
          "type": "string"
        }
      ],
      "name": "InvalidInput",
      "type": "error"
    },
    {
      "inputs": [
        {
          "internalType": "bytes32",
          "name": "reason",
          "type": "bytes32"
        }
      ],
      "name": "TxValidationFailed",
      "type": "error"
    },
    {
      "inputs": [],
      "name": "ZeroAddress",
      "type": "error"
    },
    {
      "anonymous": false,
      "inputs": [
        {
          "indexed": false,
          "internalType": "address",
          "name": "authority",
          "type": "address"
        }
      ],
      "name": "AuthorityUpdated",
      "type": "event"
    },
    {
      "anonymous": false,
      "inputs": [
        {
          "indexed": true,
          "internalType": "uint256",
          "name": "communityId",
          "type": "uint256"
        },
        {
          "indexed": true,
          "internalType": "bytes32",
          "name": "kind",
          "type": "bytes32"
        },
        {
          "indexed": true,
          "internalType": "address",
          "name": "target",
          "type": "address"
        },
        {
          "indexed": false,
          "internalType": "uint256",
          "name": "value",
          "type": "uint256"
        }
      ],
      "name": "PolicyUpdated",
      "type": "event"
    },
    {
      "anonymous": false,
      "inputs": [
        {
          "indexed": true,
          "internalType": "uint256",
          "name": "communityId",
          "type": "uint256"
        },
        {
          "indexed": true,
          "internalType": "bytes32",
          "name": "txKind",
          "type": "bytes32"
        },
        {
          "indexed": true,
          "internalType": "address",
          "name": "target",
          "type": "address"
        },
        {
          "indexed": false,
          "internalType": "uint256",
          "name": "value",
          "type": "uint256"
        },
        {
          "indexed": false,
          "internalType": "bytes32",
          "name": "dataHash",
          "type": "bytes32"
        }
      ],
      "name": "TxBuilt",
      "type": "event"
    },
    {
      "inputs": [],
      "name": "REASON_ADAPTER_NOT_ALLOWED",
      "outputs": [
        {
          "internalType": "bytes32",
          "name": "",
          "type": "bytes32"
        }
      ],
      "stateMutability": "view",
      "type": "function"
    },
    {
      "inputs": [],
      "name": "REASON_AMOUNT_EXCEEDS_CAP",
      "outputs": [
        {
          "internalType": "bytes32",
          "name": "",
          "type": "bytes32"
        }
      ],
      "stateMutability": "view",
      "type": "function"
    },
    {
      "inputs": [],
      "name": "REASON_CAP_NOT_SET",
      "outputs": [
        {
          "internalType": "bytes32",
          "name": "",
          "type": "bytes32"
        }
      ],
      "stateMutability": "view",
      "type": "function"
    },
    {
      "inputs": [],
      "name": "REASON_DEST_NOT_ALLOWED",
      "outputs": [
        {
          "internalType": "bytes32",
          "name": "",
          "type": "bytes32"
        }
      ],
      "stateMutability": "view",
      "type": "function"
    },
    {
      "inputs": [],
      "name": "REASON_OK",
      "outputs": [
        {
          "internalType": "bytes32",
          "name": "",
          "type": "bytes32"
        }
      ],
      "stateMutability": "view",
      "type": "function"
    },
    {
      "inputs": [],
      "name": "REASON_TOKEN_NOT_ALLOWED",
      "outputs": [
        {
          "internalType": "bytes32",
          "name": "",
          "type": "bytes32"
        }
      ],
      "stateMutability": "view",
      "type": "function"
    },
    {
      "inputs": [],
      "name": "REASON_TREASURY_NOT_SET",
      "outputs": [
        {
          "internalType": "bytes32",
          "name": "",
          "type": "bytes32"
        }
      ],
      "stateMutability": "view",
      "type": "function"
    },
    {
      "inputs": [],
      "name": "authority",
      "outputs": [
        {
          "internalType": "address",
          "name": "",
          "type": "address"
        }
      ],
      "stateMutability": "view",
      "type": "function"
    },
    {
      "inputs": [
        {
          "internalType": "address",
          "name": "token",
          "type": "address"
        },
        {
          "internalType": "address",
          "name": "to",
          "type": "address"
        },
        {
          "internalType": "uint256",
          "name": "amount",
          "type": "uint256"
        }
      ],
      "name": "buildERC20TransferTx",
      "outputs": [
        {
          "internalType": "address",
          "name": "target",
          "type": "address"
        },
        {
          "internalType": "uint256",
          "name": "value",
          "type": "uint256"
        },
        {
          "internalType": "bytes",
          "name": "data",
          "type": "bytes"
        }
      ],
      "stateMutability": "view",
      "type": "function"
    },
    {
      "inputs": [
        {
          "internalType": "address",
          "name": "requestHub",
          "type": "address"
        },
        {
          "internalType": "uint256",
          "name": "requestId",
          "type": "uint256"
        },
        {
          "internalType": "address",
          "name": "token",
          "type": "address"
        },
        {
          "internalType": "uint256",
          "name": "amount",
          "type": "uint256"
        }
      ],
      "name": "buildSetRequestBountyTx",
      "outputs": [
        {
          "internalType": "address",
          "name": "target",
          "type": "address"
        },
        {
          "internalType": "uint256",
          "name": "value",
          "type": "uint256"
        },
        {
          "internalType": "bytes",
          "name": "data",
          "type": "bytes"
        }
      ],
      "stateMutability": "view",
      "type": "function"
    },
    {
      "inputs": [
        {
          "internalType": "address",
          "name": "adapter",
          "type": "address"
        },
        {
          "internalType": "address",
          "name": "token",
          "type": "address"
        },
        {
          "internalType": "uint256",
          "name": "amount",
          "type": "uint256"
        },
        {
          "internalType": "bytes",
          "name": "params",
          "type": "bytes"
        }
      ],
      "name": "buildVaultDepositTx",
      "outputs": [
        {
          "internalType": "address",
          "name": "target",
          "type": "address"
        },
        {
          "internalType": "uint256",
          "name": "value",
          "type": "uint256"
        },
        {
          "internalType": "bytes",
          "name": "data",
          "type": "bytes"
        }
      ],
      "stateMutability": "view",
      "type": "function"
    },
    {
      "inputs": [
        {
          "internalType": "address",
          "name": "adapter",
          "type": "address"
        },
        {
          "internalType": "address",
          "name": "token",
          "type": "address"
        },
        {
          "internalType": "uint256",
          "name": "amount",
          "type": "uint256"
        },
        {
          "internalType": "address",
          "name": "to",
          "type": "address"
        },
        {
          "internalType": "bytes",
          "name": "params",
          "type": "bytes"
        }
      ],
      "name": "buildVaultWithdrawTx",
      "outputs": [
        {
          "internalType": "address",
          "name": "target",
          "type": "address"
        },
        {
          "internalType": "uint256",
          "name": "value",
          "type": "uint256"
        },
        {
          "internalType": "bytes",
          "name": "data",
          "type": "bytes"
        }
      ],
      "stateMutability": "view",
      "type": "function"
    },
    {
      "inputs": [
        {
          "internalType": "address",
          "name": "token",
          "type": "address"
        }
      ],
      "name": "capBps",
      "outputs": [
        {
          "internalType": "uint16",
          "name": "",
          "type": "uint16"
        }
      ],
      "stateMutability": "view",
      "type": "function"
    },
    {
      "inputs": [],
      "name": "communityId",
      "outputs": [
        {
          "internalType": "uint256",
          "name": "",
          "type": "uint256"
        }
      ],
      "stateMutability": "view",
      "type": "function"
    },
    {
      "inputs": [],
      "name": "communityRegistry",
      "outputs": [
        {
          "internalType": "contract CommunityRegistry",
          "name": "",
          "type": "address"
        }
      ],
      "stateMutability": "view",
      "type": "function"
    },
    {
      "inputs": [
        {
          "internalType": "address",
          "name": "destination",
          "type": "address"
        }
      ],
      "name": "destinationAllowed",
      "outputs": [
        {
          "internalType": "bool",
          "name": "",
          "type": "bool"
        }
      ],
      "stateMutability": "view",
      "type": "function"
    },
    {
      "inputs": [],
      "name": "isConsumingScheduledOp",
      "outputs": [
        {
          "internalType": "bytes4",
          "name": "",
          "type": "bytes4"
        }
      ],
      "stateMutability": "view",
      "type": "function"
    },
    {
      "inputs": [
        {
          "internalType": "address",
          "name": "token",
          "type": "address"
        }
      ],
      "name": "maxSpendPerTx",
      "outputs": [
        {
          "internalType": "uint256",
          "name": "",
          "type": "uint256"
        }
      ],
      "stateMutability": "view",
      "type": "function"
    },
    {
      "inputs": [
        {
          "internalType": "address",
          "name": "newAuthority",
          "type": "address"
        }
      ],
      "name": "setAuthority",
      "outputs": [],
      "stateMutability": "nonpayable",
      "type": "function"
    },
    {
      "inputs": [
        {
          "internalType": "address",
          "name": "token",
          "type": "address"
        },
        {
          "internalType": "uint16",
          "name": "capBpsValue",
          "type": "uint16"
        }
      ],
      "name": "setCapBps",
      "outputs": [],
      "stateMutability": "nonpayable",
      "type": "function"
    },
    {
      "inputs": [
        {
          "internalType": "address",
          "name": "target",
          "type": "address"
        },
        {
          "internalType": "bool",
          "name": "allowed",
          "type": "bool"
        }
      ],
      "name": "setDestinationAllowed",
      "outputs": [],
      "stateMutability": "nonpayable",
      "type": "function"
    },
    {
      "inputs": [
        {
          "internalType": "address",
          "name": "token",
          "type": "address"
        },
        {
          "internalType": "bool",
          "name": "allowed",
          "type": "bool"
        }
      ],
      "name": "setTokenAllowed",
      "outputs": [],
      "stateMutability": "nonpayable",
      "type": "function"
    },
    {
      "inputs": [
        {
          "internalType": "address",
          "name": "adapter",
          "type": "address"
        },
        {
          "internalType": "bool",
          "name": "allowed",
          "type": "bool"
        }
      ],
      "name": "setVaultAdapterAllowed",
      "outputs": [],
      "stateMutability": "nonpayable",
      "type": "function"
    },
    {
      "inputs": [
        {
          "internalType": "address",
          "name": "token",
          "type": "address"
        }
      ],
      "name": "tokenAllowed",
      "outputs": [
        {
          "internalType": "bool",
          "name": "",
          "type": "bool"
        }
      ],
      "stateMutability": "view",
      "type": "function"
    },
    {
      "inputs": [
        {
          "internalType": "address",
          "name": "token",
          "type": "address"
        },
        {
          "internalType": "address",
          "name": "to",
          "type": "address"
        },
        {
          "internalType": "uint256",
          "name": "amount",
          "type": "uint256"
        }
      ],
      "name": "validateSpend",
      "outputs": [
        {
          "internalType": "bool",
          "name": "ok",
          "type": "bool"
        },
        {
          "internalType": "bytes32",
          "name": "reason",
          "type": "bytes32"
        }
      ],
      "stateMutability": "view",
      "type": "function"
    },
    {
      "inputs": [
        {
          "internalType": "address",
          "name": "adapter",
          "type": "address"
        }
      ],
      "name": "vaultAdapterAllowed",
      "outputs": [
        {
          "internalType": "bool",
          "name": "",
          "type": "bool"
        }
      ],
      "stateMutability": "view",
      "type": "function"
    }
  ],
  "bytecode": "0x60c03461017157601f620015aa38819003918201601f191683019291906001600160401b038411838510176101755781606092849260409687528339810103126101715761004c81610189565b8261005960208401610189565b9201515f80546001600160a01b0319166001600160a01b0393841690811790915584518181529193917f2f658b440c35314f52658ea8a740e05b284cdc84dc9ae01e891f21b8933e7cad90602090a1156101605716801561014f57811561010a5760a0526080525161140c90816200019e82396080518181816101b20152818161042901528181610605015281816107df01528181610a0a0152611062015260a05181818161054e015261109a0152f35b825163d647364f60e01b815260206004820152601b60248201527f436f6d6d756e6974792049442063616e6e6f74206265207a65726f00000000006044820152606490fd5b825163d92e233d60e01b8152600490fd5b835163d92e233d60e01b8152600490fd5b5f80fd5b634e487b7160e01b5f52604160045260245ffd5b51906001600160a01b03821682036101715756fe60406080815260049081361015610014575f80fd5b5f358060e01c9081630683025014610c1a578163098e434614610af3578163141461c514610a3657816315f6901214610992578163292a37c6146109735781633b21702e146109375781634bf99fa01461090a57816355219d5a146108ce5781635c1d2d1b14610705575080637130b509146106d55780637a9e5e4b146106285780637f50861a146105ee5780638fb36037146105aa57806395e4f60a1461057d578063a200ac861461053a578063a9b876b514610514578063bf7e214f146104ed578063c44530b5146104b4578063c7ce02661461048c578063cb39331f146103a6578063dbb11c2a1461037a578063e14143591461034b578063e2ead2de1461030f578063ee2422811461021e578063ef400e16146101f05763f31420951461013d575f80fd5b346101ec5761014b36610dae565b906101563633611268565b6001600160a01b03169283156101de5750825f52600260205261018781835f209060ff801983541691151516179055565b156101d55760ff6001915b519116815263111154d560e21b905f805160206113b783398151915260207f000000000000000000000000000000000000000000000000000000000000000092a4005b60ff5f91610192565b825163d92e233d60e01b8152fd5b5f80fd5b50346101ec575f3660031901126101ec5751701513d2d15397d393d517d0531313d5d151607a1b8152602090f35b50346101ec5760a03660031901126101ec57610238610cc1565b90610241610cd7565b6001600160a01b03936064359060443590868316908184036101ec576084359067ffffffffffffffff82116101ec57610293610281859336908401610d80565b95909661028d8b611219565b88610e63565b90156102f9575050928594926102dd926102eb956102f598519a8b96634801d7f760e11b6020890152166024870152604486015260648501526080608485015260a4840191610e43565b03601f198101865285610e21565b5192839283610d22565b0390f35b875163fa3f871760e01b81529182015260249150fd5b50346101ec5760203660031901126101ec576020906001600160a01b03610334610cc1565b165f526002825260ff815f20541690519015158152f35b50346101ec575f3660031901126101ec5751710414d4f554e545f455843454544535f4341560741b8152602090f35b50346101ec5760203660031901126101ec5760209061039f61039a610cc1565b610f64565b9051908152f35b50346101ec57806003193601126101ec576103bf610cc1565b906024359161ffff83168093036101ec576103da3633611268565b6001600160a01b031692831561047e57612710831161044c57835f52602052805f208261ffff1982541617905551908152664341505f42505360c81b905f805160206113b783398151915260207f000000000000000000000000000000000000000000000000000000000000000092a4005b6020606492519163d647364f60e01b8352820152600c60248201526b0c6c2e040e8dede40d0d2ced60a31b6044820152fd5b905163d92e233d60e01b8152fd5b50346101ec575f3660031901126101ec57516a10d05417d393d517d4d15560aa1b8152602090f35b50346101ec5760203660031901126101ec576020916001600160a01b036104d9610cc1565b165f52825261ffff815f2054169051908152f35b50346101ec575f3660031901126101ec575f5490516001600160a01b039091168152602090f35b50346101ec5761052c61052636610ced565b91610e63565b825191151582526020820152f35b50346101ec575f3660031901126101ec57517f00000000000000000000000000000000000000000000000000000000000000006001600160a01b03168152602090f35b50346101ec575f3660031901126101ec57516f1514915054d5549657d393d517d4d15560821b8152602090f35b50346101ec575f3660031901126101ec5760209060ff5f5460a01c165f146105e757638fb3603760e01b905b516001600160e01b03199091168152f35b5f906105d6565b50346101ec575f3660031901126101ec57602090517f00000000000000000000000000000000000000000000000000000000000000008152f35b5090346101ec5760203660031901126101ec57610643610cc1565b5f54909290916001600160a01b039081841633036106bf57843b156106a7577f2f658b440c35314f52658ea8a740e05b284cdc84dc9ae01e891f21b8933e7cad6020858585891680926bffffffffffffffffffffffff60a01b16175f5551908152a1005b849160249351926361798f2f60e11b84521690820152fd5b60249083519062d1953b60e31b82523390820152fd5b50346101ec575f3660031901126101ec5751721051105415115497d393d517d0531313d5d151606a1b8152602090f35b919050346101ec5761071636610dae565b5f805491926001600160a01b03929091908381163689116101ec575f9788888a8093825160209d8e8083019363b700961360e01b855233602485015230604485015263ffffffff60e01b1660648401526064835261077383610e05565b818052525190865afa6108bd575b1561080b575b50505050169384156101de5750835f52600383526107b381835f209060ff801983541691151516179055565b156108025760ff6001915b51911681525f805160206113b78339815191526620a220a82a22a960c91b927f000000000000000000000000000000000000000000000000000000000000000092a4005b60ff5f916107be565b63ffffffff16156108a85760ff60a01b19918216600160a01b175f55803b156101ec575f87518092634a63ebf760e11b8252338c8301528960248301523660448301523683606484013782606436840101528183606482601f19601f36011681010301925af1801561089e5761088b575b5081541690555f808080610787565b610896919250610ddd565b5f905f61087c565b87513d5f823e3d90fd5b865162d1953b60e31b815233818b0152602490fd5b50505f518851808a1c150290610781565b82346101ec5760203660031901126101ec576020906001600160a01b036108f3610cc1565b165f526001825260ff815f20541690519015158152f35b82346101ec575f3660031901126101ec57516f111154d517d393d517d0531313d5d15160821b8152602090f35b82346101ec5760203660031901126101ec576020906001600160a01b0361095c610cc1565b165f526003825260ff815f20541690519015158152f35b82346101ec575f3660031901126101ec5751614f4b60f01b8152602090f35b5050346101ec576109a236610dae565b906109ad3633611268565b6001600160a01b03169283156101de5750825f5260016020526109de81835f209060ff801983541691151516179055565b15610a2d5760ff6001915b5191168152642a27a5a2a760d91b905f805160206113b783398151915260207f000000000000000000000000000000000000000000000000000000000000000092a4005b60ff5f916109e9565b5050346101ec5760803660031901126101ec57610a51610cc1565b90610a5a610cd7565b6044359360643567ffffffffffffffff81116101ec57610a7d9036908301610d80565b9091610a8886611219565b610a93878786610e63565b9015610add575050916102dd6102eb9285946102f59651988994630937b85760e31b602087015260018060a01b031660248601526044850152606060648501526084840191610e43565b855163fa3f871760e01b81529182015260249150fd5b5050346101ec5760803660031901126101ec57610b0e610cc1565b906044359260018060a01b038085168095036101ec57845f52600160205260ff835f20541615610bec578084165f52600260205260ff835f20541615610bbf57610b56611052565b1615610b935750806102f59151936326e38e6f60e11b6020860152602435602486015260448501526064356064850152606484526102eb84610e05565b905163fa3f871760e01b81526f1514915054d5549657d393d517d4d15560821b91810191909152602490fd5b50905163fa3f871760e01b81526f111154d517d393d517d0531313d5d15160821b91810191909152602490fd5b50905163fa3f871760e01b8152701513d2d15397d393d517d0531313d5d151607a1b91810191909152602490fd5b5050346101ec57610c2a36610ced565b610c38818385969495610e63565b9015610cab5750815163a9059cbb60e01b60208201526001600160a01b0390931660248401526044808401919091528252608082019367ffffffffffffffff851183861017610c985750839052610c9381607f199385610d22565b030190f35b604190634e487b7160e01b5f525260245ffd5b8560249184519163fa3f871760e01b8352820152fd5b600435906001600160a01b03821682036101ec57565b602435906001600160a01b03821682036101ec57565b60609060031901126101ec576001600160a01b039060043582811681036101ec579160243590811681036101ec579060443590565b9092919260018060a01b031681526020925f6020830152606060408301528051908160608401525f5b828110610d6c57505060809293505f838284010152601f8019910116010190565b818101860151848201608001528501610d4b565b9181601f840112156101ec5782359167ffffffffffffffff83116101ec57602083818601950101116101ec57565b60409060031901126101ec576004356001600160a01b03811681036101ec579060243580151581036101ec5790565b67ffffffffffffffff8111610df157604052565b634e487b7160e01b5f52604160045260245ffd5b60a0810190811067ffffffffffffffff821117610df157604052565b90601f8019910116810190811067ffffffffffffffff821117610df157604052565b908060209392818452848401375f828201840152601f01601f1916010190565b906001600160a01b0380610e75611052565b1615610f465780831691825f52600160205260ff60405f20541615610f2657165f52600260205260ff60405f20541615610f09575f52600460205261ffff60405f20541615610ef357610ec790610f64565b10610ed857600190614f4b60f01b90565b5f90710414d4f554e545f455843454544535f4341560741b90565b505f916a10d05417d393d517d4d15560aa1b9150565b505f926f111154d517d393d517d0531313d5d15160821b92509050565b505f94701513d2d15397d393d517d0531313d5d151607a1b945092505050565b505f936f1514915054d5549657d393d517d4d15560821b9350915050565b610f6c611052565b6001600160a01b039182165f8181526004602052604090205461ffff169290911680158015611036575b61102f576020906024604051809481936370a0823160e01b835260048301525afa908115611024575f91610ff2575b50818102918183041490151715610fde57612710900490565b634e487b7160e01b5f52601160045260245ffd5b90506020813d60201161101c575b8161100d60209383610e21565b810103126101ec57515f610fc5565b3d9150611000565b6040513d5f823e3d90fd5b5050505f90565b508215610f96565b51906001600160a01b03821682036101ec57565b60408051631f061c6960e31b81527f000000000000000000000000000000000000000000000000000000000000000060048201526001600160a01b0391906101c080826024817f000000000000000000000000000000000000000000000000000000000000000088165afa91821561120f575f926110d8575b5050610140915001511690565b9080925081813d8311611208575b6110f08183610e21565b810103126101ec5782519182019282841067ffffffffffffffff851117610df1576101409381526111208261103e565b835261112e6020830161103e565b602084015261113e81830161103e565b9083015261114e6060820161103e565b606083015261115f6080820161103e565b608083015261117060a0820161103e565b60a083015261118160c0820161103e565b60c083015261119260e0820161103e565b60e08301526101006111a581830161103e565b908301526101206111b781830161103e565b90830152826111c781830161103e565b908301526101606111d981830161103e565b908301526101806111eb81830161103e565b908301526111fd6101a080920161103e565b908201525f806110cb565b503d6110e6565b83513d5f823e3d90fd5b6001600160a01b03165f9081526003602052604090205460ff161561123a57565b60405163fa3f871760e01b8152721051105415115497d393d517d0531313d5d151606a1b6004820152602490fd5b5f8054909290916001600160a01b0380841692600481106101ec575f928384916040958691825196602088019163b700961360e01b8352169687602482015230604482015263ffffffff60e01b8335166064820152606481526112ca81610e05565b828052826020525190895afa6113a3575b156112ea575b50505050505050565b63ffffffff161561138d5760ff60a01b19948516600160a01b175f55833b156101ec576064935f92838551968780958194634a63ebf760e11b835260048301528860248301528060448301528084848401378181018301849052601f01601f191681010301925af19081156113845750611371575b5081541690555f8080808080806112e1565b61137c919250610ddd565b5f905f61135f565b513d5f823e3d90fd5b50602491519062d1953b60e31b82526004820152fd5b50505f516020518060201c1502906112db56feda53ada77d79198c4b4e8bab3c356e840d0ec7191dd87d827b881a370a9d38aca264697066735822122001c6fd4c6bb935162fe938bd803edcc6ff7443e0caa58546b316baf3ae746f5e64736f6c63430008180033",
  "linkReferences": {},
  "deployedLinkReferences": {}
}