{"abi":[{"type":"constructor","inputs":[{"name":"manager","type":"address","internalType":"address"},{"name":"_communityRegistry","type":"address","internalType":"address"},{"name":"initialModerator","type":"address","internalType":"address"},{"name":"_communityId","type":"uint256","internalType":"uint256"}],"stateMutability":"nonpayable"},{"type":"function","name":"activateFromGovernance","inputs":[{"name":"valuableActionId","type":"uint256","internalType":"uint256"},{"name":"proposalRef","type":"bytes32","internalType":"bytes32"}],"outputs":[],"stateMutability":"nonpayable"},{"type":"function","name":"addFounder","inputs":[{"name":"founder","type":"address","internalType":"address"}],"outputs":[],"stateMutability":"nonpayable"},{"type":"function","name":"authority","inputs":[],"outputs":[{"name":"","type":"address","internalType":"address"}],"stateMutability":"view"},{"type":"function","name":"closePositionToken","inputs":[{"name":"positionTokenId","type":"uint256","internalType":"uint256"},{"name":"outcome","type":"uint8","internalType":"uint8"}],"outputs":[],"stateMutability":"nonpayable"},{"type":"function","name":"communityByActionId","inputs":[{"name":"valuableActionId","type":"uint256","internalType":"uint256"}],"outputs":[{"name":"","type":"uint256","internalType":"uint256"}],"stateMutability":"view"},{"type":"function","name":"communityId","inputs":[],"outputs":[{"name":"","type":"uint256","internalType":"uint256"}],"stateMutability":"view"},{"type":"function","name":"communityNarrowingEnabled","inputs":[],"outputs":[{"name":"","type":"bool","internalType":"bool"}],"stateMutability":"view"},{"type":"function","name":"communityRegistry","inputs":[],"outputs":[{"name":"","type":"address","internalType":"contract CommunityRegistry"}],"stateMutability":"view"},{"type":"function","name":"deactivate","inputs":[{"name":"id","type":"uint256","internalType":"uint256"}],"outputs":[],"stateMutability":"nonpayable"},{"type":"function","name":"founderWhitelist","inputs":[{"name":"founder","type":"address","internalType":"address"}],"outputs":[{"name":"","type":"bool","internalType":"bool"}],"stateMutability":"view"},{"type":"function","name":"getActiveValuableActions","inputs":[],"outputs":[{"name":"ids","type":"uint256[]","internalType":"uint256[]"}],"stateMutability":"view"},{"type":"function","name":"getCommunityFounders","inputs":[],"outputs":[{"name":"founders","type":"address[]","internalType":"address[]"}],"stateMutability":"view"},{"type":"function","name":"getValuableAction","inputs":[{"name":"id","type":"uint256","internalType":"uint256"}],"outputs":[{"name":"action","type":"tuple","internalType":"struct Types.ValuableAction","components":[{"name":"membershipTokenReward","type":"uint32","internalType":"uint32"},{"name":"communityTokenReward","type":"uint32","internalType":"uint32"},{"name":"investorSBTReward","type":"uint32","internalType":"uint32"},{"name":"category","type":"uint8","internalType":"enum Types.ActionCategory"},{"name":"roleTypeId","type":"bytes32","internalType":"bytes32"},{"name":"positionPoints","type":"uint32","internalType":"uint32"},{"name":"verifierPolicy","type":"uint8","internalType":"enum Types.VerifierPolicy"},{"name":"metadataSchemaId","type":"bytes32","internalType":"bytes32"},{"name":"jurorsMin","type":"uint32","internalType":"uint32"},{"name":"panelSize","type":"uint32","internalType":"uint32"},{"name":"verifyWindow","type":"uint32","internalType":"uint32"},{"name":"verifierRewardWeight","type":"uint32","internalType":"uint32"},{"name":"slashVerifierBps","type":"uint32","internalType":"uint32"},{"name":"cooldownPeriod","type":"uint32","internalType":"uint32"},{"name":"maxConcurrent","type":"uint32","internalType":"uint32"},{"name":"revocable","type":"bool","internalType":"bool"},{"name":"evidenceTypes","type":"uint32","internalType":"uint32"},{"name":"proposalThreshold","type":"uint256","internalType":"uint256"},{"name":"proposer","type":"address","internalType":"address"},{"name":"evidenceSpecCID","type":"string","internalType":"string"},{"name":"titleTemplate","type":"string","internalType":"string"},{"name":"automationRules","type":"bytes32[]","internalType":"bytes32[]"},{"name":"activationDelay","type":"uint64","internalType":"uint64"},{"name":"deprecationWarning","type":"uint64","internalType":"uint64"}]}],"stateMutability":"view"},{"type":"function","name":"isActive","inputs":[{"name":"","type":"uint256","internalType":"uint256"}],"outputs":[{"name":"","type":"bool","internalType":"bool"}],"stateMutability":"view"},{"type":"function","name":"isCommunityIssuanceModule","inputs":[{"name":"module","type":"address","internalType":"address"}],"outputs":[{"name":"","type":"bool","internalType":"bool"}],"stateMutability":"view"},{"type":"function","name":"isConsumingScheduledOp","inputs":[],"outputs":[{"name":"","type":"bytes4","internalType":"bytes4"}],"stateMutability":"view"},{"type":"function","name":"isIssuanceModule","inputs":[{"name":"","type":"address","internalType":"address"}],"outputs":[{"name":"","type":"bool","internalType":"bool"}],"stateMutability":"view"},{"type":"function","name":"isModerator","inputs":[{"name":"","type":"address","internalType":"address"}],"outputs":[{"name":"","type":"bool","internalType":"bool"}],"stateMutability":"view"},{"type":"function","name":"isValuableActionActive","inputs":[{"name":"id","type":"uint256","internalType":"uint256"}],"outputs":[{"name":"","type":"bool","internalType":"bool"}],"stateMutability":"view"},{"type":"function","name":"issuancePaused","inputs":[],"outputs":[{"name":"","type":"bool","internalType":"bool"}],"stateMutability":"view"},{"type":"function","name":"issueEngagement","inputs":[{"name":"to","type":"address","internalType":"address"},{"name":"subtype","type":"uint8","internalType":"enum Types.EngagementSubtype"},{"name":"actionTypeId","type":"bytes32","internalType":"bytes32"},{"name":"metadata","type":"bytes","internalType":"bytes"}],"outputs":[{"name":"tokenId","type":"uint256","internalType":"uint256"}],"stateMutability":"nonpayable"},{"type":"function","name":"issueInvestment","inputs":[{"name":"to","type":"address","internalType":"address"},{"name":"cohortId","type":"uint256","internalType":"uint256"},{"name":"weight","type":"uint32","internalType":"uint32"},{"name":"metadata","type":"bytes","internalType":"bytes"}],"outputs":[{"name":"tokenId","type":"uint256","internalType":"uint256"}],"stateMutability":"nonpayable"},{"type":"function","name":"issuePosition","inputs":[{"name":"to","type":"address","internalType":"address"},{"name":"positionTypeId","type":"bytes32","internalType":"bytes32"},{"name":"points","type":"uint32","internalType":"uint32"},{"name":"metadata","type":"bytes","internalType":"bytes"}],"outputs":[{"name":"tokenId","type":"uint256","internalType":"uint256"}],"stateMutability":"nonpayable"},{"type":"function","name":"issueRoleFromPosition","inputs":[{"name":"to","type":"address","internalType":"address"},{"name":"roleTypeId","type":"bytes32","internalType":"bytes32"},{"name":"points","type":"uint32","internalType":"uint32"},{"name":"issuedAt","type":"uint64","internalType":"uint64"},{"name":"endedAt","type":"uint64","internalType":"uint64"},{"name":"closeOutcome","type":"uint8","internalType":"uint8"},{"name":"metadata","type":"bytes","internalType":"bytes"}],"outputs":[{"name":"tokenId","type":"uint256","internalType":"uint256"}],"stateMutability":"nonpayable"},{"type":"function","name":"lastId","inputs":[],"outputs":[{"name":"","type":"uint256","internalType":"uint256"}],"stateMutability":"view"},{"type":"function","name":"pendingValuableActions","inputs":[{"name":"","type":"uint256","internalType":"uint256"}],"outputs":[{"name":"","type":"bytes32","internalType":"bytes32"}],"stateMutability":"view"},{"type":"function","name":"proposalRefUsed","inputs":[{"name":"","type":"bytes32","internalType":"bytes32"}],"outputs":[{"name":"","type":"bool","internalType":"bool"}],"stateMutability":"view"},{"type":"function","name":"proposeValuableAction","inputs":[{"name":"params","type":"tuple","internalType":"struct Types.ValuableAction","components":[{"name":"membershipTokenReward","type":"uint32","internalType":"uint32"},{"name":"communityTokenReward","type":"uint32","internalType":"uint32"},{"name":"investorSBTReward","type":"uint32","internalType":"uint32"},{"name":"category","type":"uint8","internalType":"enum Types.ActionCategory"},{"name":"roleTypeId","type":"bytes32","internalType":"bytes32"},{"name":"positionPoints","type":"uint32","internalType":"uint32"},{"name":"verifierPolicy","type":"uint8","internalType":"enum Types.VerifierPolicy"},{"name":"metadataSchemaId","type":"bytes32","internalType":"bytes32"},{"name":"jurorsMin","type":"uint32","internalType":"uint32"},{"name":"panelSize","type":"uint32","internalType":"uint32"},{"name":"verifyWindow","type":"uint32","internalType":"uint32"},{"name":"verifierRewardWeight","type":"uint32","internalType":"uint32"},{"name":"slashVerifierBps","type":"uint32","internalType":"uint32"},{"name":"cooldownPeriod","type":"uint32","internalType":"uint32"},{"name":"maxConcurrent","type":"uint32","internalType":"uint32"},{"name":"revocable","type":"bool","internalType":"bool"},{"name":"evidenceTypes","type":"uint32","internalType":"uint32"},{"name":"proposalThreshold","type":"uint256","internalType":"uint256"},{"name":"proposer","type":"address","internalType":"address"},{"name":"evidenceSpecCID","type":"string","internalType":"string"},{"name":"titleTemplate","type":"string","internalType":"string"},{"name":"automationRules","type":"bytes32[]","internalType":"bytes32[]"},{"name":"activationDelay","type":"uint64","internalType":"uint64"},{"name":"deprecationWarning","type":"uint64","internalType":"uint64"}]},{"name":"proposalRef","type":"bytes32","internalType":"bytes32"}],"outputs":[{"name":"valuableActionId","type":"uint256","internalType":"uint256"}],"stateMutability":"payable"},{"type":"function","name":"setAuthority","inputs":[{"name":"newAuthority","type":"address","internalType":"address"}],"outputs":[],"stateMutability":"nonpayable"},{"type":"function","name":"setCommunityIssuanceModule","inputs":[{"name":"module","type":"address","internalType":"address"},{"name":"allowed","type":"bool","internalType":"bool"}],"outputs":[],"stateMutability":"nonpayable"},{"type":"function","name":"setCommunityNarrowing","inputs":[{"name":"enabled","type":"bool","internalType":"bool"}],"outputs":[],"stateMutability":"nonpayable"},{"type":"function","name":"setIssuanceModule","inputs":[{"name":"module","type":"address","internalType":"address"},{"name":"allowed","type":"bool","internalType":"bool"}],"outputs":[],"stateMutability":"nonpayable"},{"type":"function","name":"setIssuancePaused","inputs":[{"name":"paused","type":"bool","internalType":"bool"}],"outputs":[],"stateMutability":"nonpayable"},{"type":"function","name":"setModerator","inputs":[{"name":"who","type":"address","internalType":"address"},{"name":"status","type":"bool","internalType":"bool"}],"outputs":[],"stateMutability":"nonpayable"},{"type":"function","name":"setValuableActionSBT","inputs":[{"name":"sbt","type":"address","internalType":"address"}],"outputs":[],"stateMutability":"nonpayable"},{"type":"function","name":"update","inputs":[{"name":"id","type":"uint256","internalType":"uint256"},{"name":"params","type":"tuple","internalType":"struct Types.ValuableAction","components":[{"name":"membershipTokenReward","type":"uint32","internalType":"uint32"},{"name":"communityTokenReward","type":"uint32","internalType":"uint32"},{"name":"investorSBTReward","type":"uint32","internalType":"uint32"},{"name":"category","type":"uint8","internalType":"enum Types.ActionCategory"},{"name":"roleTypeId","type":"bytes32","internalType":"bytes32"},{"name":"positionPoints","type":"uint32","internalType":"uint32"},{"name":"verifierPolicy","type":"uint8","internalType":"enum Types.VerifierPolicy"},{"name":"metadataSchemaId","type":"bytes32","internalType":"bytes32"},{"name":"jurorsMin","type":"uint32","internalType":"uint32"},{"name":"panelSize","type":"uint32","internalType":"uint32"},{"name":"verifyWindow","type":"uint32","internalType":"uint32"},{"name":"verifierRewardWeight","type":"uint32","internalType":"uint32"},{"name":"slashVerifierBps","type":"uint32","internalType":"uint32"},{"name":"cooldownPeriod","type":"uint32","internalType":"uint32"},{"name":"maxConcurrent","type":"uint32","internalType":"uint32"},{"name":"revocable","type":"bool","internalType":"bool"},{"name":"evidenceTypes","type":"uint32","internalType":"uint32"},{"name":"proposalThreshold","type":"uint256","internalType":"uint256"},{"name":"proposer","type":"address","internalType":"address"},{"name":"evidenceSpecCID","type":"string","internalType":"string"},{"name":"titleTemplate","type":"string","internalType":"string"},{"name":"automationRules","type":"bytes32[]","internalType":"bytes32[]"},{"name":"activationDelay","type":"uint64","internalType":"uint64"},{"name":"deprecationWarning","type":"uint64","internalType":"uint64"}]}],"outputs":[],"stateMutability":"nonpayable"},{"type":"function","name":"valuableActionSBT","inputs":[],"outputs":[{"name":"","type":"address","internalType":"address"}],"stateMutability":"view"},{"type":"function","name":"valuableActionsById","inputs":[{"name":"","type":"uint256","internalType":"uint256"}],"outputs":[{"name":"membershipTokenReward","type":"uint32","internalType":"uint32"},{"name":"communityTokenReward","type":"uint32","internalType":"uint32"},{"name":"investorSBTReward","type":"uint32","internalType":"uint32"},{"name":"category","type":"uint8","internalType":"enum Types.ActionCategory"},{"name":"roleTypeId","type":"bytes32","internalType":"bytes32"},{"name":"positionPoints","type":"uint32","internalType":"uint32"},{"name":"verifierPolicy","type":"uint8","internalType":"enum Types.VerifierPolicy"},{"name":"metadataSchemaId","type":"bytes32","internalType":"bytes32"},{"name":"jurorsMin","type":"uint32","internalType":"uint32"},{"name":"panelSize","type":"uint32","internalType":"uint32"},{"name":"verifyWindow","type":"uint32","internalType":"uint32"},{"name":"verifierRewardWeight","type":"uint32","internalType":"uint32"},{"name":"slashVerifierBps","type":"uint32","internalType":"uint32"},{"name":"cooldownPeriod","type":"uint32","internalType":"uint32"},{"name":"maxConcurrent","type":"uint32","internalType":"uint32"},{"name":"revocable","type":"bool","internalType":"bool"},{"name":"evidenceTypes","type":"uint32","internalType":"uint32"},{"name":"proposalThreshold","type":"uint256","internalType":"uint256"},{"name":"proposer","type":"address","internalType":"address"},{"name":"evidenceSpecCID","type":"string","internalType":"string"},{"name":"titleTemplate","type":"string","internalType":"string"},{"name":"activationDelay","type":"uint64","internalType":"uint64"},{"name":"deprecationWarning","type":"uint64","internalType":"uint64"}],"stateMutability":"view"},{"type":"event","name":"AuthorityUpdated","inputs":[{"name":"authority","type":"address","indexed":false,"internalType":"address"}],"anonymous":false},{"type":"event","name":"EngagementIssued","inputs":[{"name":"to","type":"address","indexed":true,"internalType":"address"},{"name":"tokenId","type":"uint256","indexed":true,"internalType":"uint256"},{"name":"subtype","type":"uint8","indexed":false,"internalType":"enum Types.EngagementSubtype"},{"name":"actionTypeId","type":"bytes32","indexed":true,"internalType":"bytes32"}],"anonymous":false},{"type":"event","name":"InvestmentIssued","inputs":[{"name":"to","type":"address","indexed":true,"internalType":"address"},{"name":"tokenId","type":"uint256","indexed":true,"internalType":"uint256"},{"name":"cohortId","type":"uint256","indexed":true,"internalType":"uint256"},{"name":"weight","type":"uint32","indexed":false,"internalType":"uint32"}],"anonymous":false},{"type":"event","name":"ModeratorUpdated","inputs":[{"name":"account","type":"address","indexed":true,"internalType":"address"},{"name":"isModerator","type":"bool","indexed":false,"internalType":"bool"},{"name":"updater","type":"address","indexed":true,"internalType":"address"}],"anonymous":false},{"type":"event","name":"PositionIssued","inputs":[{"name":"to","type":"address","indexed":true,"internalType":"address"},{"name":"tokenId","type":"uint256","indexed":true,"internalType":"uint256"},{"name":"positionTypeId","type":"bytes32","indexed":true,"internalType":"bytes32"},{"name":"points","type":"uint32","indexed":false,"internalType":"uint32"}],"anonymous":false},{"type":"event","name":"RoleIssued","inputs":[{"name":"to","type":"address","indexed":true,"internalType":"address"},{"name":"tokenId","type":"uint256","indexed":true,"internalType":"uint256"},{"name":"roleTypeId","type":"bytes32","indexed":true,"internalType":"bytes32"},{"name":"points","type":"uint32","indexed":false,"internalType":"uint32"},{"name":"issuedAt","type":"uint64","indexed":false,"internalType":"uint64"},{"name":"endedAt","type":"uint64","indexed":false,"internalType":"uint64"},{"name":"closeOutcome","type":"uint8","indexed":false,"internalType":"uint8"}],"anonymous":false},{"type":"event","name":"ValuableActionActivated","inputs":[{"name":"id","type":"uint256","indexed":true,"internalType":"uint256"},{"name":"proposalId","type":"uint256","indexed":true,"internalType":"uint256"}],"anonymous":false},{"type":"event","name":"ValuableActionCreated","inputs":[{"name":"id","type":"uint256","indexed":true,"internalType":"uint256"},{"name":"valuableAction","type":"tuple","indexed":false,"internalType":"struct Types.ValuableAction","components":[{"name":"membershipTokenReward","type":"uint32","internalType":"uint32"},{"name":"communityTokenReward","type":"uint32","internalType":"uint32"},{"name":"investorSBTReward","type":"uint32","internalType":"uint32"},{"name":"category","type":"uint8","internalType":"enum Types.ActionCategory"},{"name":"roleTypeId","type":"bytes32","internalType":"bytes32"},{"name":"positionPoints","type":"uint32","internalType":"uint32"},{"name":"verifierPolicy","type":"uint8","internalType":"enum Types.VerifierPolicy"},{"name":"metadataSchemaId","type":"bytes32","internalType":"bytes32"},{"name":"jurorsMin","type":"uint32","internalType":"uint32"},{"name":"panelSize","type":"uint32","internalType":"uint32"},{"name":"verifyWindow","type":"uint32","internalType":"uint32"},{"name":"verifierRewardWeight","type":"uint32","internalType":"uint32"},{"name":"slashVerifierBps","type":"uint32","internalType":"uint32"},{"name":"cooldownPeriod","type":"uint32","internalType":"uint32"},{"name":"maxConcurrent","type":"uint32","internalType":"uint32"},{"name":"revocable","type":"bool","internalType":"bool"},{"name":"evidenceTypes","type":"uint32","internalType":"uint32"},{"name":"proposalThreshold","type":"uint256","internalType":"uint256"},{"name":"proposer","type":"address","internalType":"address"},{"name":"evidenceSpecCID","type":"string","internalType":"string"},{"name":"titleTemplate","type":"string","internalType":"string"},{"name":"automationRules","type":"bytes32[]","internalType":"bytes32[]"},{"name":"activationDelay","type":"uint64","internalType":"uint64"},{"name":"deprecationWarning","type":"uint64","internalType":"uint64"}]},{"name":"creator","type":"address","indexed":true,"internalType":"address"}],"anonymous":false},{"type":"event","name":"ValuableActionDeactivated","inputs":[{"name":"id","type":"uint256","indexed":true,"internalType":"uint256"},{"name":"deactivator","type":"address","indexed":true,"internalType":"address"}],"anonymous":false},{"type":"event","name":"ValuableActionUpdated","inputs":[{"name":"id","type":"uint256","indexed":true,"internalType":"uint256"},{"name":"valuableAction","type":"tuple","indexed":false,"internalType":"struct Types.ValuableAction","components":[{"name":"membershipTokenReward","type":"uint32","internalType":"uint32"},{"name":"communityTokenReward","type":"uint32","internalType":"uint32"},{"name":"investorSBTReward","type":"uint32","internalType":"uint32"},{"name":"category","type":"uint8","internalType":"enum Types.ActionCategory"},{"name":"roleTypeId","type":"bytes32","internalType":"bytes32"},{"name":"positionPoints","type":"uint32","internalType":"uint32"},{"name":"verifierPolicy","type":"uint8","internalType":"enum Types.VerifierPolicy"},{"name":"metadataSchemaId","type":"bytes32","internalType":"bytes32"},{"name":"jurorsMin","type":"uint32","internalType":"uint32"},{"name":"panelSize","type":"uint32","internalType":"uint32"},{"name":"verifyWindow","type":"uint32","internalType":"uint32"},{"name":"verifierRewardWeight","type":"uint32","internalType":"uint32"},{"name":"slashVerifierBps","type":"uint32","internalType":"uint32"},{"name":"cooldownPeriod","type":"uint32","internalType":"uint32"},{"name":"maxConcurrent","type":"uint32","internalType":"uint32"},{"name":"revocable","type":"bool","internalType":"bool"},{"name":"evidenceTypes","type":"uint32","internalType":"uint32"},{"name":"proposalThreshold","type":"uint256","internalType":"uint256"},{"name":"proposer","type":"address","internalType":"address"},{"name":"evidenceSpecCID","type":"string","internalType":"string"},{"name":"titleTemplate","type":"string","internalType":"string"},{"name":"automationRules","type":"bytes32[]","internalType":"bytes32[]"},{"name":"activationDelay","type":"uint64","internalType":"uint64"},{"name":"deprecationWarning","type":"uint64","internalType":"uint64"}]},{"name":"updater","type":"address","indexed":true,"internalType":"address"}],"anonymous":false},{"type":"error","name":"AccessManagedInvalidAuthority","inputs":[{"name":"authority","type":"address","internalType":"address"}]},{"type":"error","name":"AccessManagedRequiredDelay","inputs":[{"name":"caller","type":"address","internalType":"address"},{"name":"delay","type":"uint32","internalType":"uint32"}]},{"type":"error","name":"AccessManagedUnauthorized","inputs":[{"name":"caller","type":"address","internalType":"address"}]},{"type":"error","name":"InvalidInput","inputs":[{"name":"reason","type":"string","internalType":"string"}]},{"type":"error","name":"InvalidValuableAction","inputs":[{"name":"valuableActionId","type":"uint256","internalType":"uint256"}]},{"type":"error","name":"ZeroAddress","inputs":[]}],"bytecode":{"object":"0x60c034620001ca57601f62003ed938819003918201601f191683019291906001600160401b03841183851017620001ce578160809284926040968752833981010312620001ca576200005181620001e2565b6200005f60208301620001e2565b9060606200006f858501620001e2565b9301515f80546001600160a01b0319166001600160a01b0393841690811790915585518181529193917f2f658b440c35314f52658ea8a740e05b284cdc84dc9ae01e891f21b8933e7cad90602090a115620001b9578116928315620001b95716918215620001a8578115620001635760a052608052805f526003602052815f20600160ff19825416179055815190600182527f6e0f223019887734edb3e629fad26bad6ceeb5108f25ae46e5c762fe264517c160203393a351613ce19081620001f8823960805181818161056b015281816111f90152818161146b0152611749015260a05181818161059b01526112600152f35b835163d647364f60e01b815260206004820152601360248201527f496e76616c696420636f6d6d756e6974794964000000000000000000000000006044820152606490fd5b835163d92e233d60e01b8152600490fd5b845163d92e233d60e01b8152600490fd5b5f80fd5b634e487b7160e01b5f52604160045260245ffd5b51906001600160a01b0382168203620001ca5756fe60806040526004361015610011575f80fd5b5f803560e01c8063041848f914612fbf5780630c5940fd14612df557806314f1d4f114612d9957806322061c2314612d5c5780632262fd9d14612d325780632f1ec91c14612a855780633bc87c9c1461294d5780633ee2b01d146128c1578063408a6802146127e05780634104c3be146125d45780635cfdb8621461210c5780635d672bb8146120cf5780636da7a0ba14611a37578063713049401461186d5780637a9e5e4b146117a35780637d0df1be1461176c5780637f50861a146117325780638045303d146113b357806382afd23b146113845780638fb360371461130f578063916b9bef14611284578063a200ac8614611240578063a2e7b04c146111cf578063a90e069e14611192578063bf7e214f1461116c578063c1292cc31461114e578063c691af9214611128578063c6ffb6cb146110ea578063ca497d49146110c7578063e08d5b8a14611067578063e610e6dd14610501578063e8901184146104d7578063e9ea801c1461047e578063ef4ec04714610396578063fa6f393614610359578063fa889b2314610293578063ff012a43146101ed5763ff3a41ab146101bc575f80fd5b346101ea5760203660031901126101ea5760ff60406020926004358152600684522054166040519015158152f35b80fd5b50346101ea5760203660031901126101ea576102076131cb565b610211363361379c565b6001600160a01b03811615610269577fffffffffffffffffffff0000000000000000000000000000000000000000ffff75ffffffffffffffffffffffffffffffffffffffff00006009549260101b1691161760095580f35b60046040517fd92e233d000000000000000000000000000000000000000000000000000000008152fd5b50346101ea57806003193601126101ea576040518091600b549081835260208093018092600b83527f0175b7a638427703f0dbe7bb9bbf987a2551717b34e79f33b5b1008d1fa01db990835b81811061033c57505050846102f59103856132b8565b60405193838594850191818652518092526040850193925b82811061031c57505050500390f35b83516001600160a01b03168552869550938101939281019260010161030d565b82546001600160a01b0316845292860192600192830192016102df565b50346101ea5760203660031901126101ea5760ff60406020926001600160a01b036103826131cb565b168152600384522054166040519015158152f35b50346101ea5760203660031901126101ea576001600160a01b036103b86131cb565b6103c2363361379c565b16801561026957808252600a60205260408220805460ff8116156103e4578380f35b60ff19166001179055600b546801000000000000000081101561046a576001810180600b55811015610456577f0175b7a638427703f0dbe7bb9bbf987a2551717b34e79f33b5b1008d1fa01db9019073ffffffffffffffffffffffffffffffffffffffff198254161790555f80808380f35b602483634e487b7160e01b81526032600452fd5b602483634e487b7160e01b81526041600452fd5b50346101ea5760203660031901126101ea576020906004359081151591826104ca575b826104b3575b50506040519015158152f35b815260048352604090205460ff1690505f806104a7565b60015481111592506104a1565b50346101ea57806003193601126101ea5760206001600160a01b0360095460101c16604051908152f35b506003196040368201126110635767ffffffffffffffff60043511611063576103008091600435360301126110635761053a363361379c565b6001600160a01b03906040517ff830e3480000000000000000000000000000000000000000000000000000000081527f00000000000000000000000000000000000000000000000000000000000000006004820152610340908181602481877f0000000000000000000000000000000000000000000000000000000000000000165afa928315611058578593610e35575b50505081606082015116158015610e27575b610de257610100015181163003610d9d5760243515610d57576024358252600660205260ff604083205416610d125761061a60043560040161395f565b610625600154613424565b90816001558183526002602052604083209063ffffffff8061064b60043560040161345e565b1663ffffffff19908185541617845561068d61066b60246004350161345e565b855467ffffffff00000000191660209190911b67ffffffff0000000016178555565b6106c861069e60446004350161345e565b85546bffffffff0000000000000000191660409190911b6bffffffff000000000000000016178555565b606460043501356004811015610d0e5760ff60601b85549160601b169060ff60601b19161784556084600435013560018501558161070a60a46004350161345e565b1660028501549060c460043501356005811015610d0a578061073164ff0000000092613389565b60201b169164ffffffffff19161717600285015560e46004350135600385015560048401826107656101046004350161345e565b16828254161781556107a161077f6101246004350161345e565b825467ffffffff00000000191660209190911b67ffffffff0000000016178255565b6107dd6107b36101446004350161345e565b82546bffffffff0000000000000000191660409190911b6bffffffff000000000000000016178255565b6107ec6101646004350161345e565b815473ffffffff000000000000000000000000000000006108126101846004350161345e565b60801b1663ffffffff60a01b61082d6101a46004350161345e565b60a01b169063ffffffff60c01b6108496101c46004350161345e565b60c01b16926101e46004350135801515809103610d06576fffffffff00000000000000000000000060ff60e01b7fffffff0000000000000000000000000000000000ffffffffffffffffffffffff9260e01b169660601b1691161717171717905560058401916108be6102046004350161345e565b16908254161790556102246004350135600683015560078201906102446004350135908116809103610b625773ffffffffffffffffffffffffffffffffffffffff1982541617905561091b6102646004350160043560040161346f565b9067ffffffffffffffff8211610c2c57819061093a6008850154613233565b601f8111610cb6575b508590601f8311600114610c4b578692610c40575b50508160011b915f199060031b1c19161760088201555b6109846102846004350160043560040161346f565b9067ffffffffffffffff8211610c2c5781906109a36009850154613233565b601f8111610bdc575b508590601f8311600114610b71578692610b66575b50508160011b915f199060031b1c19161760098201555b600a81016004356102a481013590360360221901811215610b6257600435019060048201359167ffffffffffffffff8311610b5e576024018260051b36038113610b5e57680100000000000000008311610b4a578154838355808410610b24575b5090855260208520855b838110610b1057602086604089600b890167ffffffffffffffff610a6c6102c4600435016134a2565b168154906fffffffffffffffffffffffffffffffff196fffffffffffffffff0000000000000000610aa26102e4600435016134a2565b871b16921617179055828152600584526024358282205560243581526006845220600160ff19825416179055604051817f0215c6902787bce369520b2032915a714819e29cd4230ff91ab746ae8752947d339280610b05600435600401826134e9565b0390a3604051908152f35b600190602084359401938184015501610a43565b828752836020882091820191015b818110610b3f5750610a39565b5f8155600101610b32565b602486634e487b7160e01b81526041600452fd5b8580fd5b8480fd5b013590505f806109c1565b60098501875260208720879450915b601f1984168510610bc4576001945083601f19811610610bab575b505050811b0160098201556109d8565b01355f19600384901b60f8161c191690555f8080610b9b565b81810135835560209485019460019093019201610b80565b90915060098401865260208620601f840160051c810160208510610c25575b90849392915b601f830160051c82018110610c175750506109ac565b5f8155859450600101610c01565b5080610bfb565b602485634e487b7160e01b81526041600452fd5b013590505f80610958565b60088501875260208720879450915b601f1984168510610c9e576001945083601f19811610610c85575b505050811b01600882015561096f565b01355f19600384901b60f8161c191690555f8080610c75565b81810135835560209485019460019093019201610c5a565b90915060088401865260208620601f840160051c810160208510610cff575b90849392915b601f830160051c82018110610cf1575050610943565b5f8155859450600101610cdb565b5080610cd5565b8c80fd5b8880fd5b8680fd5b606460405163d647364f60e01b815260206004820152601960248201527f50726f706f73616c2072656620616c72656164792075736564000000000000006044820152fd5b60405163d647364f60e01b815260206004820152601460248201527f4d697373696e672070726f706f73616c207265660000000000000000000000006044820152606490fd5b606460405163d647364f60e01b815260206004820152601160248201527f5265676973747279206d69736d617463680000000000000000000000000000006044820152fd5b606460405163d647364f60e01b815260206004820152601860248201527f436f6d6d756e697479206e6f7420636f6e6669677572656400000000000000006044820152fd5b5081604082015116156105dd565b909180935082813d8311611051575b610e4e81836132b8565b81010312610b625760405192830183811067ffffffffffffffff82111761103d57604052610e7b82613788565b8352610e8960208301613788565b6020840152610e9a60408301613788565b6040840152610eab60608301613788565b6060840152610ebc60808301613788565b6080840152610ecd60a08301613788565b60a0840152610ede60c08301613788565b60c0840152610eef60e08301613788565b60e0840152610100610f02818401613788565b90840152610120610f14818401613788565b90840152610140610f26818401613788565b90840152610160610f38818401613788565b90840152610180610f4a818401613788565b908401526101a0610f5c818401613788565b908401526101c0610f6e818401613788565b908401526101e0610f80818401613788565b90840152610200610f92818401613788565b90840152610220610fa4818401613788565b90840152610240610fb6818401613788565b90840152610260610fc8818401613788565b90840152610280610fda818401613788565b908401526102a0610fec818401613788565b908401526102c0610ffe818401613788565b908401526102e0611010818401613788565b9084015261101f818301613788565b90830152611031610320809201613788565b908201525f80806105cb565b634e487b7160e01b5f52604160045260245ffd5b503d610e44565b6040513d87823e3d90fd5b5080fd5b50346101ea5760403660031901126101ea576110816131cb565b6001600160a01b036110916133d1565b9161109c363361379c565b16908115610269576110c49183526008602052604083209060ff801983541691151516179055565b80f35b50346101ea57806003193601126101ea57602060ff600954166040519015158152f35b50346101ea5760203660031901126101ea576111046133e0565b61110e363361379c565b61ff0060095491151560081b169061ff0019161760095580f35b50346101ea57806003193601126101ea57602060ff60095460081c166040519015158152f35b50346101ea57806003193601126101ea576020600154604051908152f35b50346101ea57806003193601126101ea576001600160a01b036020915416604051908152f35b50346101ea5760203660031901126101ea5760ff60406020926001600160a01b036111bb6131cb565b168152600784522054166040519015158152f35b50346101ea5760203660031901126101ea5760043580151580611234575b1561121c5760206040517f00000000000000000000000000000000000000000000000000000000000000008152f35b60249060405190633e8a1e4160e21b82526004820152fd5b506001548111156111ed565b50346101ea57806003193601126101ea5760206040516001600160a01b037f0000000000000000000000000000000000000000000000000000000000000000168152f35b50346101ea5760203660031901126101ea576004356112a3363361379c565b80151580611303575b1561121c57808252600460205260ff6040832054161561121c57808252600460205260408220805460ff1916905533907f6a695f3885825e54664b734cb3f92b352642b7a4d913d39f61ce3904eaed7c058380a380f35b506001548111156112ac565b50346101ea57806003193601126101ea57805460a01c60ff161561137c575060207f8fb36037000000000000000000000000000000000000000000000000000000005b7fffffffff0000000000000000000000000000000000000000000000000000000060405191168152f35b602090611352565b50346101ea5760203660031901126101ea5760ff60406020926004358152600484522054166040519015158152f35b50346115095760403660031901126115095760043560249081359160ff8316809303611509576113e3363361379c565b60095460ff8160081c166116ec5760101c6001600160a01b03168015610269576040517fb09afec100000000000000000000000000000000000000000000000000000000815283600482015261018080828581865afa9182156114fe575f926115dc575b50506003815161145681613389565b61145f81613389565b036115975760208101517f00000000000000000000000000000000000000000000000000000000000000000361155257610100015167ffffffffffffffff1661150d57803b15611509575f928360449260405196879586947f8045303d00000000000000000000000000000000000000000000000000000000865260048601528401525af180156114fe576114f2575080f35b6114fc9150613288565b005b6040513d5f823e3d90fd5b5f80fd5b60648260176040519163d647364f60e01b8352602060048401528201527f506f736974696f6e20616c726561647920636c6f7365640000000000000000006044820152fd5b60648360126040519163d647364f60e01b8352602060048401528201527f436f6d6d756e697479206d69736d6174636800000000000000000000000000006044820152fd5b60648360146040519163d647364f60e01b8352602060048401528201527f4e6f74206120706f736974696f6e20746f6b656e0000000000000000000000006044820152fd5b9080925081813d83116116e5575b6115f481836132b8565b810103126115095760405191820182811067ffffffffffffffff8211176116d257604052805160058110156115095782526020810151602083015260408101516040830152606081015160608301526080810151608083015261165960a08201613762565b60a083015261166a60c08201613762565b60c083015261167b60e08201613773565b60e083015261010061168e818301613773565b908301526101206116a0818301613773565b90830152610140808201519060ff82168203611509578301526116c7610160809201613788565b908201525f80611447565b84634e487b7160e01b5f5260416004525ffd5b503d6115ea565b60405163d647364f60e01b815260206004820152600f60248201527f49737375616e63652070617573656400000000000000000000000000000000006044820152606490fd5b34611509575f3660031901126115095760206040517f00000000000000000000000000000000000000000000000000000000000000008152f35b34611509576020366003190112611509576117856133e0565b61178f363361379c565b60ff80196009541691151516176009555f80f35b34611509576020366003190112611509576117bc6131cb565b5f54906001600160a01b0390818316330361185757803b15611825577f2f658b440c35314f52658ea8a740e05b284cdc84dc9ae01e891f21b8933e7cad9260209273ffffffffffffffffffffffffffffffffffffffff19921691829116175f55604051908152a1005b602491604051917fc2f31e5e000000000000000000000000000000000000000000000000000000008352166004820152fd5b602460405162d1953b60e31b8152336004820152fd5b34611509576080366003190112611509576118866131cb565b60243560038110156115095760443560643567ffffffffffffffff8111611509576118b5903690600401613205565b90936118c1363361379c565b60095460ff8160081c166116ec576001600160a01b03809160101c1691821561026957169182156102695783156119f25760405180927f56ea547f00000000000000000000000000000000000000000000000000000000825284600483015261192d6024830188613755565b85604483015260806064830152815f8161194f60209b8c976084840191613404565b03925af19384156114fe5785915f9561199f575b508492917f01f44671cf0417f4d6b97178acbc6099efd02021ba154faf174f81a738331e88916119966040518092613755565ba4604051908152f35b9450919084813d81116119eb575b6119b781836132b8565b81010312611509579251929084907f01f44671cf0417f4d6b97178acbc6099efd02021ba154faf174f81a738331e88611963565b503d6119ad565b606460405163d647364f60e01b815260206004820152601460248201527f4d697373696e6720616374696f6e5479706549640000000000000000000000006044820152fd5b346115095760031960403682011261150957600435602491823567ffffffffffffffff918282116115095781600401946103008336039283011261150957611a7f363361379c565b841515806120c3575b156120ad57845f526020906004825260ff60405f2054161561209757611aad8761395f565b855f526002825260405f209263ffffffff9283611ac98a61345e565b1663ffffffff199081875416178655611b08611ae685890161345e565b875467ffffffff00000000191660209190911b67ffffffff0000000016178755565b611b41611b176044890161345e565b87546bffffffff0000000000000000191660409190911b6bffffffff000000000000000016178755565b606487013560048110156115095760ff60601b87549160601b169060ff60601b1916178655600194608488013586880155600287019181611b8460a48b0161345e565b1692805460c48b013594600595868110156115095780611ba964ff0000000092613389565b881b169164ffffffffff19161717905560e489013560038901556004880182611bd56101048c0161345e565b1682825416178155611bed61077f6101248c0161345e565b611bfd6107b36101448c0161345e565b611c0a6101648b0161345e565b8a825473ffffffff00000000000000000000000000000000611c2f610184840161345e565b60801b1663ffffffff60a01b611c486101a4850161345e565b60a01b16916101e463ffffffff60c01b611c656101c4870161345e565b60c01b16940135801515809103611509576fffffffff00000000000000000000000060ff60e01b7fffffff0000000000000000000000000000000000ffffffffffffffffffffffff9260e01b169660601b1691161717171717905582880191611cd16102048b0161345e565b16908254161790556102248701356006870155600786016102448801356001600160a01b0381168091036115095773ffffffffffffffffffffffffffffffffffffffff1982541617905560088601611d2d61026489018c61346f565b8a81939293116120845780611d428354613233565b93601f94858111612038575b505f90858311600114611fd9575f92611fce575b50505f19600383901b1c191690881b1790555b6009870190611d886102848a018d61346f565b91908b8311611fbb57908291611d9e8554613233565b828111611f6d575b505f918311600114611f0e575f92611f03575b50505f19600383901b1c191690871b1790555b600a8601926102a48801359060221901811215611509578701936004850135948986116115095781869101921b3603821361150957680100000000000000008511611ef157508254848455808510611eca575b50915f52805f20905f5b848110611eb957505050505050600b0191611e476102c483016134a2565b166fffffffffffffffffffffffffffffffff196fffffffffffffffff0000000000000000611e7a6102e4865495016134a2565b60401b169216171790557f493172a5da918afdb4e470aad2ba421ac5dd8393bcd81aff0c9ccc69f619099660405180611eb43395826134e9565b0390a3005b833583820155928101928501611e29565b835f528585845f2092830192015b828110611ee6575050611e1f565b5f8155018690611ed8565b634e487b7160e01b5f5260416004525ffd5b013590508d80611db9565b899350601f19831691855f52875f20925f5b89828210611f575750508411611f3e575b505050811b019055611dcc565b01355f19600384901b60f8161c191690558d8080611f31565b8385013586558d97909501949283019201611f20565b90919250845f52865f2083808601881c820192898710611fb2575b9186958d9295949301891c01915b828110611fa4575050611da6565b5f81558695508c9101611f96565b92508192611f88565b87634e487b7160e01b5f5260416004525ffd5b013590508e80611d62565b8a9350601f19831691855f52885f20925f5b8a8282106120225750508411612009575b505050811b019055611d75565b01355f19600384901b60f8161c191690558e8080611ffc565b8385013586558e97909501949283019201611feb565b909150835f52865f2085808501881c82019289861061207b575b918c918695949301891c01915b82811061206d575050611d4e565b5f81558594508c910161205f565b92508192612052565b86634e487b7160e01b5f5260416004525ffd5b8560405190633e8a1e4160e21b82526004820152fd5b8460405190633e8a1e4160e21b82526004820152fd5b50600154851115611a88565b34611509576020366003190112611509576001600160a01b036120f06131cb565b165f52600a602052602060ff60405f2054166040519015158152f35b34611509576020366003190112611509575f6102e060405161212d8161326b565b8281528260208201528260408201528260608201528260808201528260a08201528260c08201528260e08201528261010082015282610120820152826101408201528261016082015282610180820152826101a0820152826101c0820152826101e08201528261020082015282610220820152826102408201526060610260820152606061028082015260606102a0820152826102c082015201526004351515806125c6575b156125ad576004355f52600260205260405f20604051906121f38261326b565b805463ffffffff8116835263ffffffff8160201c16602084015263ffffffff8160401c166040840152600460ff8260601c1610156125995760ff9060601c1660608301526001810154608083015260ff600282015463ffffffff811660a0850152612262828260201c16613389565b60201c1660c0830152600381015460e083015260ff600482015463ffffffff811661010085015263ffffffff8160201c1661012085015263ffffffff8160401c1661014085015263ffffffff8160601c1661016085015263ffffffff8160801c1661018085015263ffffffff8160a01c166101a085015263ffffffff8160c01c166101c085015260e01c1615156101e083015263ffffffff60058201541661020083015260068101546102208301526001600160a01b03600782015416610240830152612331600882016132da565b610260830152612343600982016132da565b610280830152604051806020600a840154918281520190600a84015f5260205f20905f5b818110612583578667ffffffffffffffff600b8888612388818a03826132b8565b6102a085015201548181166102c084015260401c166102e08201526040516020815263ffffffff825116602082015263ffffffff602083015116604082015263ffffffff60408301511660608201526123e96060830151608083019061337c565b608082015160a082015263ffffffff60a08301511660c082015260c082015161241181613389565b60e082015260e082015161010082015263ffffffff6101008301511661012082015263ffffffff6101208301511661014082015263ffffffff6101408301511661016082015263ffffffff6101608301511661018082015263ffffffff610180830151166101a082015263ffffffff6101a0830151166101c082015263ffffffff6101c0830151166101e08201526101e0820151151561020082015263ffffffff610200830151166102208201526102208201516102408201526001600160a01b03610240830151166102608201526102608201516124ff6103009182610280850152610320840190613393565b9061251e61028085015192601f199384868303016102a0870152613393565b6102a085015192848203016102c0850152602080845192838152019301905f5b81811061256d5750505067ffffffffffffffff6102e085826102c0879801511682870152015116908301520390f35b825185526020948501949092019160010161253e565b8254845260209093019260019283019201612367565b634e487b7160e01b5f52602160045260245ffd5b6024604051633e8a1e4160e21b81526004356004820152fd5b5060015460043511156121d3565b34611509576080366003190112611509576125ed6131cb565b6024356125f86131e1565b9060643567ffffffffffffffff811161150957612619903690600401613205565b929093612626363361379c565b60095460ff8160081c166116ec576001600160a01b03809160101c16918215610269571691821561026957831561279b5763ffffffff169384156127565760405180927f874f414500000000000000000000000000000000000000000000000000000000825284600483015285602483015286604483015260806064830152815f816126ba60209b8c976084840191613404565b03925af19384156114fe5785915f95612703575b508492917f7b8043c22ce41e0e1794bd92378dbf37e79f87ac6b347b584e6ef04ee52296ff91604051908152a4604051908152f35b9450919084813d811161274f575b61271b81836132b8565b81010312611509579251929084907f7b8043c22ce41e0e1794bd92378dbf37e79f87ac6b347b584e6ef04ee52296ff6126ce565b503d612711565b606460405163d647364f60e01b815260206004820152601560248201527f5765696768742063616e6e6f74206265207a65726f00000000000000000000006044820152fd5b606460405163d647364f60e01b815260206004820152601060248201527f4d697373696e6720636f686f72744964000000000000000000000000000000006044820152fd5b3461150957604036600319011261150957602435600435612801363361379c565b801515806128b5575b1561121c578115610d5757805f5260056020528160405f20540361287057805f52600460205260405f20600160ff1982541617905560056020525f60408120557f7ffae721983994812770c99f4f10d1cfc94bc4b5d28b08e6ce84a796fefaa3a75f80a3005b606460405163d647364f60e01b815260206004820152601560248201527f50726f706f73616c20726566206d69736d6174636800000000000000000000006044820152fd5b5060015481111561280a565b34611509576040366003190112611509576128da6131cb565b6001600160a01b036128ea6133d1565b916128f5363361379c565b16801561026957805f52600360205261291d8260405f209060ff801983541691151516179055565b60405191151582527f6e0f223019887734edb3e629fad26bad6ceeb5108f25ae46e5c762fe264517c160203393a3005b34611509575f366003190112611509575f600190600154915b82811115612a4d575061299161297b82613446565b9161298960405193846132b8565b808352613446565b6020928383019291601f19013684375f60015b828111156129ef575050509060405192839281840190828552518091526040840192915f5b8281106129d857505050500390f35b8351855286955093810193928101926001016129c9565b805f526004865260ff60405f205416612a11575b612a0c90613424565b6129a4565b90612a1b81613424565b918451821015612a39578087612a0c9360051b870101529050612a03565b634e487b7160e01b5f52603260045260245ffd5b805f52600460205260ff60405f205416612a70575b612a6b90613424565b612966565b90612a7d612a6b91613424565b919050612a62565b346115095760e036600319011261150957612a9e6131cb565b602435612aa96131e1565b906064359267ffffffffffffffff9081851680950361150957608435918083168093036115095760a4359060ff82168092036115095760c43590811161150957612af7903690600401613205565b939096612b04363361379c565b60095460ff8160081c166116ec576001600160a01b03809160101c169485156102695716948515610269578615612ced578115612ca857818310612c635763ffffffff976040519889917fac701fb800000000000000000000000000000000000000000000000000000000835288600484015289602484015216958660448301528360648301528460848301528560a483015260e060c4830152815f81612bb360209e8f9760e4840191613404565b03925af19687156114fe575f97612c0c575b50927fe445780dcbd2ad8cc945215ffea2169bd0e452d2f0add6782ce444797b2ee9cb926080928896956040519384528a84015260408301526060820152a4604051908152f35b91965093928782813d8311612c5c575b612c2681836132b8565b810103126115095790519592939092907fe445780dcbd2ad8cc945215ffea2169bd0e452d2f0add6782ce444797b2ee9cb612bc5565b503d612c1c565b606460405163d647364f60e01b815260206004820152601760248201527f656e6465644174206265666f72652069737375656441740000000000000000006044820152fd5b606460405163d647364f60e01b815260206004820152601060248201527f4d697373696e67206973737565644174000000000000000000000000000000006044820152fd5b606460405163d647364f60e01b815260206004820152601260248201527f4d697373696e6720726f6c6554797065496400000000000000000000000000006044820152fd5b34611509576020366003190112611509576004355f526005602052602060405f2054604051908152f35b34611509576020366003190112611509576001600160a01b03612d7d6131cb565b165f526008602052602060ff60405f2054166040519015158152f35b3461150957604036600319011261150957612db26131cb565b6001600160a01b03612dc26133d1565b91612dcd363361379c565b16908115610269576114fc915f52600760205260405f209060ff801983541691151516179055565b34611509576020366003190112611509576004355f52600260205260405f20805460018201549160028101549060038101546004820154600583015463ffffffff1660068401549060078501546001600160a01b03169260088601612e59906132da565b94612e66600988016132da565b96600b0154976040519a8a63ffffffff8d9c168c528060201c63ffffffff1660208d01528060401c63ffffffff1660408d015260608c019060601c60ff1690612eae9161337c565b60808b015263ffffffff811660a08b01528060201c60ff16612ecf90613389565b60201c60ff1660c08a015260e089015263ffffffff81166101008901528060201c63ffffffff166101208901528060401c63ffffffff166101408901528060601c63ffffffff166101608901528060801c63ffffffff166101808901528060a01c63ffffffff166101a08901528060c01c63ffffffff166101c089015260e01c60ff1615156101e088015261020087015261022086015261024085015261026084016102e090526102e08401612f8491613393565b838103610280850152612f9691613393565b9067ffffffffffffffff81166102a084015260401c67ffffffffffffffff166102c08301520390f35b3461150957608036600319011261150957612fd86131cb565b602435612fe36131e1565b9060643567ffffffffffffffff811161150957613004903690600401613205565b929093613011363361379c565b60095460ff8160081c166116ec576001600160a01b03809160101c1691821561026957169182156102695783156131865763ffffffff169384156131415760405180927f6a4bff2300000000000000000000000000000000000000000000000000000000825284600483015285602483015286604483015260806064830152815f816130a560209b8c976084840191613404565b03925af19384156114fe5785915f956130ee575b508492917f554dfed9e991f9e5ac3172a909c508958a35fc35bb05650bd8952f2a5db6c6e091604051908152a4604051908152f35b9450919084813d811161313a575b61310681836132b8565b81010312611509579251929084907f554dfed9e991f9e5ac3172a909c508958a35fc35bb05650bd8952f2a5db6c6e06130b9565b503d6130fc565b606460405163d647364f60e01b815260206004820152601560248201527f506f696e74732063616e6e6f74206265207a65726f00000000000000000000006044820152fd5b606460405163d647364f60e01b815260206004820152601660248201527f4d697373696e6720706f736974696f6e547970654964000000000000000000006044820152fd5b600435906001600160a01b038216820361150957565b6044359063ffffffff8216820361150957565b359063ffffffff8216820361150957565b9181601f840112156115095782359167ffffffffffffffff8311611509576020838186019501011161150957565b90600182811c92168015613261575b602083101461324d57565b634e487b7160e01b5f52602260045260245ffd5b91607f1691613242565b610300810190811067ffffffffffffffff82111761103d57604052565b67ffffffffffffffff811161103d57604052565b60a0810190811067ffffffffffffffff82111761103d57604052565b90601f8019910116810190811067ffffffffffffffff82111761103d57604052565b9060405191825f82546132ec81613233565b908184526020946001916001811690815f1461335a575060011461331c575b50505061331a925003836132b8565b565b5f90815285812095935091905b81831061334257505061331a93508201015f808061330b565b85548884018501529485019487945091830191613329565b9250505061331a94925060ff191682840152151560051b8201015f808061330b565b9060048210156125995752565b6005111561259957565b91908251928382525f5b8481106133bd575050825f602080949584010152601f8019910116010190565b60208183018101518483018201520161339d565b60243590811515820361150957565b60043590811515820361150957565b359067ffffffffffffffff8216820361150957565b908060209392818452848401375f828201840152601f01601f1916010190565b5f1981146134325760010190565b634e487b7160e01b5f52601160045260245ffd5b67ffffffffffffffff811161103d5760051b60200190565b3563ffffffff811681036115095790565b903590601e1981360301821215611509570180359067ffffffffffffffff82116115095760200191813603831361150957565b3567ffffffffffffffff811681036115095790565b9035601e198236030181121561150957016020813591019167ffffffffffffffff821161150957813603831361150957565b60209182825263ffffffff806134fe836131f4565b16848401528061350f8584016131f4565b16604084015280613522604084016131f4565b166060840152606082013560048110156115095761354490608085019061337c565b608082013560a08401528061355b60a084016131f4565b1660c084015260c082013560058110156115095761357881613389565b60e084015261360b6135fa6135e96135d86135c76135b66135a561010060e08a0135818c015289016131f4565b876101209116818b015288016131f4565b866101409116818a015287016131f4565b8561016091168189015286016131f4565b8461018091168188015285016131f4565b836101a091168187015284016131f4565b826101c091168186015283016131f4565b816101e09116818501528201358015158091036115095761363590610200908186015283016131f4565b906102209116818401526102409082013581840152810135916001600160a01b038316809303611509576136766136b79361026090818401528301836134b7565b9261369e61369561030093610280968588880152610320870191613404565b948201826134b7565b959094601f19966102a096888784030188880152613404565b93810135601e19823603018112156115095781019486863596019167ffffffffffffffff92838811611509578760051b978836038213611509577f07ffffffffffffffffffffffffffffffffffffffffffffffffffffffffffffff906102c094888a030185890152808952116115095761374c928861373b928b8a013782016133ef565b90836102e0921682870152016133ef565b16910152010190565b9060038210156125995752565b519063ffffffff8216820361150957565b519067ffffffffffffffff8216820361150957565b51906001600160a01b038216820361150957565b5f915f54916001600160a01b038084169280600411611509575f92838491604095869182519660208801917fb700961300000000000000000000000000000000000000000000000000000000835216968760248201523060448201527fffffffff0000000000000000000000000000000000000000000000000000000083351660648201526064815261382e8161329c565b828052826020525190895afa61394c575b1561384e575b50505050505050565b63ffffffff161561393657740100000000000000000000000000000000000000007fffffffffffffffffffffff00ffffffffffffffffffffffffffffffffffffffff809616175f55833b15611509576064935f928385519687809581947f94c7d7ee00000000000000000000000000000000000000000000000000000000835260048301528860248301528060448301528084848401378181018301849052601f01601f191681010301925af190811561392d575061391a575b5081541690555f808080808080613845565b613925919250613288565b5f905f613908565b513d5f823e3d90fd5b50602491519062d1953b60e31b82526004820152fd5b50505f516020518060201c15029061383f565b63ffffffff908161396f8261345e565b1615613c40576101008101826139848261345e565b1615613bfb576101208201908361399a8361345e565b1615613bb657836139b46139ae829361345e565b9361345e565b16911611613b4b57816139ca610140830161345e565b1615613b0657612710826139e1610180840161345e565b1611613ac1576139f561026082018261346f565b905015613a56576101a0613a09910161345e565b1615613a1157565b606460405163d647364f60e01b815260206004820152601e60248201527f436f6f6c646f776e20706572696f642063616e6e6f74206265207a65726f00006044820152fd5b608460405163d647364f60e01b815260206004820152602160248201527f45766964656e63652073706563204349442063616e6e6f7420626520656d707460448201527f79000000000000000000000000000000000000000000000000000000000000006064820152fd5b606460405163d647364f60e01b815260206004820152601d60248201527f536c61736820726174652063616e6e6f742065786365656420313030250000006044820152fd5b606460405163d647364f60e01b815260206004820152601c60248201527f5665726966792077696e646f772063616e6e6f74206265207a65726f000000006044820152fd5b608460405163d647364f60e01b815260206004820152602760248201527f4d696e696d756d206a75726f72732063616e6e6f74206578636565642070616e60448201527f656c2073697a65000000000000000000000000000000000000000000000000006064820152fd5b606460405163d647364f60e01b815260206004820152601960248201527f50616e656c2073697a652063616e6e6f74206265207a65726f000000000000006044820152fd5b606460405163d647364f60e01b815260206004820152601d60248201527f4d696e696d756d206a75726f72732063616e6e6f74206265207a65726f0000006044820152fd5b608460405163d647364f60e01b815260206004820152602560248201527f4d656d62657273686970546f6b656e207265776172642063616e6e6f7420626560448201527f207a65726f0000000000000000000000000000000000000000000000000000006064820152fdfea26469706673582212207ecfb2cd14a9032e46988be6925a4da6c75ace3daa14fe6cab70f19edb1c85c664736f6c63430008180033","linkReferences":{}},"methodIdentifiers":{"activateFromGovernance(uint256,bytes32)":"408a6802","addFounder(address)":"ef4ec047","authority()":"bf7e214f","closePositionToken(uint256,uint8)":"8045303d","communityByActionId(uint256)":"a2e7b04c","communityId()":"7f50861a","communityNarrowingEnabled()":"ca497d49","communityRegistry()":"a200ac86","deactivate(uint256)":"916b9bef","founderWhitelist(address)":"5d672bb8","getActiveValuableActions()":"3bc87c9c","getCommunityFounders()":"fa889b23","getValuableAction(uint256)":"5cfdb862","isActive(uint256)":"82afd23b","isCommunityIssuanceModule(address)":"22061c23","isConsumingScheduledOp()":"8fb36037","isIssuanceModule(address)":"a90e069e","isModerator(address)":"fa6f3936","isValuableActionActive(uint256)":"e9ea801c","issuancePaused()":"c691af92","issueEngagement(address,uint8,bytes32,bytes)":"71304940","issueInvestment(address,uint256,uint32,bytes)":"4104c3be","issuePosition(address,bytes32,uint32,bytes)":"041848f9","issueRoleFromPosition(address,bytes32,uint32,uint64,uint64,uint8,bytes)":"2f1ec91c","lastId()":"c1292cc3","pendingValuableActions(uint256)":"2262fd9d","proposalRefUsed(bytes32)":"ff3a41ab","proposeValuableAction((uint32,uint32,uint32,uint8,bytes32,uint32,uint8,bytes32,uint32,uint32,uint32,uint32,uint32,uint32,uint32,bool,uint32,uint256,address,string,string,bytes32[],uint64,uint64),bytes32)":"e610e6dd","setAuthority(address)":"7a9e5e4b","setCommunityIssuanceModule(address,bool)":"e08d5b8a","setCommunityNarrowing(bool)":"7d0df1be","setIssuanceModule(address,bool)":"14f1d4f1","setIssuancePaused(bool)":"c6ffb6cb","setModerator(address,bool)":"3ee2b01d","setValuableActionSBT(address)":"ff012a43","update(uint256,(uint32,uint32,uint32,uint8,bytes32,uint32,uint8,bytes32,uint32,uint32,uint32,uint32,uint32,uint32,uint32,bool,uint32,uint256,address,string,string,bytes32[],uint64,uint64))":"6da7a0ba","valuableActionSBT()":"e8901184","valuableActionsById(uint256)":"0c5940fd"},"id":27}