{"abi":[{"type":"constructor","inputs":[{"name":"_governance","type":"address","internalType":"address"}],"stateMutability":"nonpayable"},{"type":"function","name":"activateFromGovernance","inputs":[{"name":"valuableActionId","type":"uint256","internalType":"uint256"},{"name":"approvedProposalId","type":"uint256","internalType":"uint256"}],"outputs":[],"stateMutability":"nonpayable"},{"type":"function","name":"addFounder","inputs":[{"name":"founder","type":"address","internalType":"address"},{"name":"communityId","type":"uint256","internalType":"uint256"}],"outputs":[],"stateMutability":"nonpayable"},{"type":"function","name":"communityFounders","inputs":[{"name":"","type":"uint256","internalType":"uint256"},{"name":"","type":"uint256","internalType":"uint256"}],"outputs":[{"name":"","type":"address","internalType":"address"}],"stateMutability":"view"},{"type":"function","name":"deactivate","inputs":[{"name":"id","type":"uint256","internalType":"uint256"}],"outputs":[],"stateMutability":"nonpayable"},{"type":"function","name":"founderWhitelist","inputs":[{"name":"","type":"address","internalType":"address"},{"name":"","type":"uint256","internalType":"uint256"}],"outputs":[{"name":"","type":"bool","internalType":"bool"}],"stateMutability":"view"},{"type":"function","name":"getActiveValuableActions","inputs":[],"outputs":[{"name":"ids","type":"uint256[]","internalType":"uint256[]"}],"stateMutability":"view"},{"type":"function","name":"getCommunityFounders","inputs":[{"name":"communityId","type":"uint256","internalType":"uint256"}],"outputs":[{"name":"founders","type":"address[]","internalType":"address[]"}],"stateMutability":"view"},{"type":"function","name":"getValuableAction","inputs":[{"name":"id","type":"uint256","internalType":"uint256"}],"outputs":[{"name":"action","type":"tuple","internalType":"struct Types.ValuableAction","components":[{"name":"membershipTokenReward","type":"uint32","internalType":"uint32"},{"name":"communityTokenReward","type":"uint32","internalType":"uint32"},{"name":"investorSBTReward","type":"uint32","internalType":"uint32"},{"name":"jurorsMin","type":"uint32","internalType":"uint32"},{"name":"panelSize","type":"uint32","internalType":"uint32"},{"name":"verifyWindow","type":"uint32","internalType":"uint32"},{"name":"verifierRewardWeight","type":"uint32","internalType":"uint32"},{"name":"slashVerifierBps","type":"uint32","internalType":"uint32"},{"name":"cooldownPeriod","type":"uint32","internalType":"uint32"},{"name":"maxConcurrent","type":"uint32","internalType":"uint32"},{"name":"revocable","type":"bool","internalType":"bool"},{"name":"evidenceTypes","type":"uint32","internalType":"uint32"},{"name":"proposalThreshold","type":"uint256","internalType":"uint256"},{"name":"proposer","type":"address","internalType":"address"},{"name":"requiresGovernanceApproval","type":"bool","internalType":"bool"},{"name":"evidenceSpecCID","type":"string","internalType":"string"},{"name":"titleTemplate","type":"string","internalType":"string"},{"name":"automationRules","type":"bytes32[]","internalType":"bytes32[]"},{"name":"activationDelay","type":"uint64","internalType":"uint64"},{"name":"deprecationWarning","type":"uint64","internalType":"uint64"},{"name":"founderVerified","type":"bool","internalType":"bool"}]}],"stateMutability":"view"},{"type":"function","name":"governance","inputs":[],"outputs":[{"name":"","type":"address","internalType":"address"}],"stateMutability":"view"},{"type":"function","name":"isActive","inputs":[{"name":"","type":"uint256","internalType":"uint256"}],"outputs":[{"name":"","type":"bool","internalType":"bool"}],"stateMutability":"view"},{"type":"function","name":"isModerator","inputs":[{"name":"","type":"address","internalType":"address"}],"outputs":[{"name":"","type":"bool","internalType":"bool"}],"stateMutability":"view"},{"type":"function","name":"isValuableActionActive","inputs":[{"name":"id","type":"uint256","internalType":"uint256"}],"outputs":[{"name":"","type":"bool","internalType":"bool"}],"stateMutability":"view"},{"type":"function","name":"lastId","inputs":[],"outputs":[{"name":"","type":"uint256","internalType":"uint256"}],"stateMutability":"view"},{"type":"function","name":"pendingValuableActions","inputs":[{"name":"","type":"uint256","internalType":"uint256"}],"outputs":[{"name":"","type":"uint256","internalType":"uint256"}],"stateMutability":"view"},{"type":"function","name":"proposeValuableAction","inputs":[{"name":"communityId","type":"uint256","internalType":"uint256"},{"name":"params","type":"tuple","internalType":"struct Types.ValuableAction","components":[{"name":"membershipTokenReward","type":"uint32","internalType":"uint32"},{"name":"communityTokenReward","type":"uint32","internalType":"uint32"},{"name":"investorSBTReward","type":"uint32","internalType":"uint32"},{"name":"jurorsMin","type":"uint32","internalType":"uint32"},{"name":"panelSize","type":"uint32","internalType":"uint32"},{"name":"verifyWindow","type":"uint32","internalType":"uint32"},{"name":"verifierRewardWeight","type":"uint32","internalType":"uint32"},{"name":"slashVerifierBps","type":"uint32","internalType":"uint32"},{"name":"cooldownPeriod","type":"uint32","internalType":"uint32"},{"name":"maxConcurrent","type":"uint32","internalType":"uint32"},{"name":"revocable","type":"bool","internalType":"bool"},{"name":"evidenceTypes","type":"uint32","internalType":"uint32"},{"name":"proposalThreshold","type":"uint256","internalType":"uint256"},{"name":"proposer","type":"address","internalType":"address"},{"name":"requiresGovernanceApproval","type":"bool","internalType":"bool"},{"name":"evidenceSpecCID","type":"string","internalType":"string"},{"name":"titleTemplate","type":"string","internalType":"string"},{"name":"automationRules","type":"bytes32[]","internalType":"bytes32[]"},{"name":"activationDelay","type":"uint64","internalType":"uint64"},{"name":"deprecationWarning","type":"uint64","internalType":"uint64"},{"name":"founderVerified","type":"bool","internalType":"bool"}]},{"name":"ipfsDescription","type":"string","internalType":"string"}],"outputs":[{"name":"valuableActionId","type":"uint256","internalType":"uint256"}],"stateMutability":"payable"},{"type":"function","name":"setModerator","inputs":[{"name":"who","type":"address","internalType":"address"},{"name":"status","type":"bool","internalType":"bool"}],"outputs":[],"stateMutability":"nonpayable"},{"type":"function","name":"update","inputs":[{"name":"id","type":"uint256","internalType":"uint256"},{"name":"params","type":"tuple","internalType":"struct Types.ValuableAction","components":[{"name":"membershipTokenReward","type":"uint32","internalType":"uint32"},{"name":"communityTokenReward","type":"uint32","internalType":"uint32"},{"name":"investorSBTReward","type":"uint32","internalType":"uint32"},{"name":"jurorsMin","type":"uint32","internalType":"uint32"},{"name":"panelSize","type":"uint32","internalType":"uint32"},{"name":"verifyWindow","type":"uint32","internalType":"uint32"},{"name":"verifierRewardWeight","type":"uint32","internalType":"uint32"},{"name":"slashVerifierBps","type":"uint32","internalType":"uint32"},{"name":"cooldownPeriod","type":"uint32","internalType":"uint32"},{"name":"maxConcurrent","type":"uint32","internalType":"uint32"},{"name":"revocable","type":"bool","internalType":"bool"},{"name":"evidenceTypes","type":"uint32","internalType":"uint32"},{"name":"proposalThreshold","type":"uint256","internalType":"uint256"},{"name":"proposer","type":"address","internalType":"address"},{"name":"requiresGovernanceApproval","type":"bool","internalType":"bool"},{"name":"evidenceSpecCID","type":"string","internalType":"string"},{"name":"titleTemplate","type":"string","internalType":"string"},{"name":"automationRules","type":"bytes32[]","internalType":"bytes32[]"},{"name":"activationDelay","type":"uint64","internalType":"uint64"},{"name":"deprecationWarning","type":"uint64","internalType":"uint64"},{"name":"founderVerified","type":"bool","internalType":"bool"}]}],"outputs":[],"stateMutability":"nonpayable"},{"type":"function","name":"updateGovernance","inputs":[{"name":"newGovernance","type":"address","internalType":"address"}],"outputs":[],"stateMutability":"nonpayable"},{"type":"function","name":"valuableActionsById","inputs":[{"name":"","type":"uint256","internalType":"uint256"}],"outputs":[{"name":"membershipTokenReward","type":"uint32","internalType":"uint32"},{"name":"communityTokenReward","type":"uint32","internalType":"uint32"},{"name":"investorSBTReward","type":"uint32","internalType":"uint32"},{"name":"jurorsMin","type":"uint32","internalType":"uint32"},{"name":"panelSize","type":"uint32","internalType":"uint32"},{"name":"verifyWindow","type":"uint32","internalType":"uint32"},{"name":"verifierRewardWeight","type":"uint32","internalType":"uint32"},{"name":"slashVerifierBps","type":"uint32","internalType":"uint32"},{"name":"cooldownPeriod","type":"uint32","internalType":"uint32"},{"name":"maxConcurrent","type":"uint32","internalType":"uint32"},{"name":"revocable","type":"bool","internalType":"bool"},{"name":"evidenceTypes","type":"uint32","internalType":"uint32"},{"name":"proposalThreshold","type":"uint256","internalType":"uint256"},{"name":"proposer","type":"address","internalType":"address"},{"name":"requiresGovernanceApproval","type":"bool","internalType":"bool"},{"name":"evidenceSpecCID","type":"string","internalType":"string"},{"name":"titleTemplate","type":"string","internalType":"string"},{"name":"activationDelay","type":"uint64","internalType":"uint64"},{"name":"deprecationWarning","type":"uint64","internalType":"uint64"},{"name":"founderVerified","type":"bool","internalType":"bool"}],"stateMutability":"view"},{"type":"event","name":"ModeratorUpdated","inputs":[{"name":"account","type":"address","indexed":true,"internalType":"address"},{"name":"isModerator","type":"bool","indexed":false,"internalType":"bool"},{"name":"updater","type":"address","indexed":true,"internalType":"address"}],"anonymous":false},{"type":"event","name":"ValuableActionActivated","inputs":[{"name":"id","type":"uint256","indexed":true,"internalType":"uint256"},{"name":"proposalId","type":"uint256","indexed":true,"internalType":"uint256"}],"anonymous":false},{"type":"event","name":"ValuableActionCreated","inputs":[{"name":"id","type":"uint256","indexed":true,"internalType":"uint256"},{"name":"valuableAction","type":"tuple","indexed":false,"internalType":"struct Types.ValuableAction","components":[{"name":"membershipTokenReward","type":"uint32","internalType":"uint32"},{"name":"communityTokenReward","type":"uint32","internalType":"uint32"},{"name":"investorSBTReward","type":"uint32","internalType":"uint32"},{"name":"jurorsMin","type":"uint32","internalType":"uint32"},{"name":"panelSize","type":"uint32","internalType":"uint32"},{"name":"verifyWindow","type":"uint32","internalType":"uint32"},{"name":"verifierRewardWeight","type":"uint32","internalType":"uint32"},{"name":"slashVerifierBps","type":"uint32","internalType":"uint32"},{"name":"cooldownPeriod","type":"uint32","internalType":"uint32"},{"name":"maxConcurrent","type":"uint32","internalType":"uint32"},{"name":"revocable","type":"bool","internalType":"bool"},{"name":"evidenceTypes","type":"uint32","internalType":"uint32"},{"name":"proposalThreshold","type":"uint256","internalType":"uint256"},{"name":"proposer","type":"address","internalType":"address"},{"name":"requiresGovernanceApproval","type":"bool","internalType":"bool"},{"name":"evidenceSpecCID","type":"string","internalType":"string"},{"name":"titleTemplate","type":"string","internalType":"string"},{"name":"automationRules","type":"bytes32[]","internalType":"bytes32[]"},{"name":"activationDelay","type":"uint64","internalType":"uint64"},{"name":"deprecationWarning","type":"uint64","internalType":"uint64"},{"name":"founderVerified","type":"bool","internalType":"bool"}]},{"name":"creator","type":"address","indexed":true,"internalType":"address"}],"anonymous":false},{"type":"event","name":"ValuableActionDeactivated","inputs":[{"name":"id","type":"uint256","indexed":true,"internalType":"uint256"},{"name":"deactivator","type":"address","indexed":true,"internalType":"address"}],"anonymous":false},{"type":"event","name":"ValuableActionUpdated","inputs":[{"name":"id","type":"uint256","indexed":true,"internalType":"uint256"},{"name":"valuableAction","type":"tuple","indexed":false,"internalType":"struct Types.ValuableAction","components":[{"name":"membershipTokenReward","type":"uint32","internalType":"uint32"},{"name":"communityTokenReward","type":"uint32","internalType":"uint32"},{"name":"investorSBTReward","type":"uint32","internalType":"uint32"},{"name":"jurorsMin","type":"uint32","internalType":"uint32"},{"name":"panelSize","type":"uint32","internalType":"uint32"},{"name":"verifyWindow","type":"uint32","internalType":"uint32"},{"name":"verifierRewardWeight","type":"uint32","internalType":"uint32"},{"name":"slashVerifierBps","type":"uint32","internalType":"uint32"},{"name":"cooldownPeriod","type":"uint32","internalType":"uint32"},{"name":"maxConcurrent","type":"uint32","internalType":"uint32"},{"name":"revocable","type":"bool","internalType":"bool"},{"name":"evidenceTypes","type":"uint32","internalType":"uint32"},{"name":"proposalThreshold","type":"uint256","internalType":"uint256"},{"name":"proposer","type":"address","internalType":"address"},{"name":"requiresGovernanceApproval","type":"bool","internalType":"bool"},{"name":"evidenceSpecCID","type":"string","internalType":"string"},{"name":"titleTemplate","type":"string","internalType":"string"},{"name":"automationRules","type":"bytes32[]","internalType":"bytes32[]"},{"name":"activationDelay","type":"uint64","internalType":"uint64"},{"name":"deprecationWarning","type":"uint64","internalType":"uint64"},{"name":"founderVerified","type":"bool","internalType":"bool"}]},{"name":"updater","type":"address","indexed":true,"internalType":"address"}],"anonymous":false},{"type":"error","name":"InvalidInput","inputs":[{"name":"reason","type":"string","internalType":"string"}]},{"type":"error","name":"InvalidValuableAction","inputs":[{"name":"valuableActionId","type":"uint256","internalType":"uint256"}]},{"type":"error","name":"NotAuthorized","inputs":[{"name":"caller","type":"address","internalType":"address"}]},{"type":"error","name":"ZeroAddress","inputs":[]}],"bytecode":{"object":"0x6080346100d057601f620027ca38819003918201601f19168301916001600160401b038311848410176100d4578084926020946040528339810103126100d057516001600160a01b038116908190036100d05780156100be578060018060a01b03196005541617600555805f52600260205260405f20600160ff1982541617905560405190600182527f6e0f223019887734edb3e629fad26bad6ceeb5108f25ae46e5c762fe264517c160203393a36040516126e19081620000e98239f35b60405163d92e233d60e01b8152600490fd5b5f80fd5b634e487b7160e01b5f52604160045260245ffdfe60806040526004361015610011575f80fd5b5f3560e01c80630c5940fd14611ab75780632262fd9d14611a8d5780633bc87c9c146119575780633ee2b01d146118ce5780635aa6e675146118a85780635cfdb8621461149a578063752710d114610cb957806382afd23b14610c8a5780638fa906b214610bce578063916b9bef14610b3b578063a5d029b814610487578063a8db7912146103d5578063b1f376ce146102e3578063b25612631461022a578063bcca4854146101e2578063c1292cc3146101c6578063e148bb481461017d578063e9ea801c1461012b5763fa6f3936146100ea575f80fd5b34610127576020366003190112610127576001600160a01b0361010b611d67565b165f526002602052602060ff60405f2054166040519015158152f35b5f80fd5b346101275760203660031901126101275760043580151580610172575b8061015b575b6020906040519015158152f35b505f526003602052602060ff60405f20541661014e565b505f54811115610148565b34610127576040366003190112610127576001600160a01b0361019e611d67565b165f52600660205260405f206024355f52602052602060ff60405f2054166040519015158152f35b34610127575f3660031901126101275760205f54604051908152f35b34610127576101f036611d9e565b905f52600760205260405f209081548110156101275761021a6001600160a01b0391602093611db4565b9190546040519260031b1c168152f35b3461012757602036600319011261012757610243611d67565b600554906001600160a01b039081831633036102b35716908115610289577fffffffffffffffffffffffff00000000000000000000000000000000000000001617600555005b60046040517fd92e233d000000000000000000000000000000000000000000000000000000008152fd5b60246040517f4a0bfec1000000000000000000000000000000000000000000000000000000008152336004820152fd5b34610127576102f136611d9e565b906001600160a01b036005541633036102b357801515806103ca575b156103b257805f5260046020528160405f20540361036d57805f52600360205260405f20600160ff1982541617905560046020525f60408120557f7ffae721983994812770c99f4f10d1cfc94bc4b5d28b08e6ce84a796fefaa3a75f80a3005b606460405163d647364f60e01b815260206004820152601460248201527f50726f706f73616c204944206d69736d617463680000000000000000000000006044820152fd5b60249060405190633e8a1e4160e21b82526004820152fd5b505f5481111561030d565b3461012757602080600319360112610127576004355f526007815260405f20604051908183825491828152019081925f52845f20905f5b8682821061046a57868661042282880383611c65565b60405192839281840190828552518091526040840192915f5b82811061044a57505050500390f35b83516001600160a01b03168552869550938101939281019260010161043b565b83546001600160a01b03168552909301926001928301920161040c565b34610127576003196040368201126101275767ffffffffffffffff60243511610127576102a0906024353603011261012757335f52600260205260ff60405f205416156102b357600435151580610b2e575b15610b15576004355f52600360205260ff60405f20541615610b1557610503602435600401612363565b6004355f52600160205260405f2063ffffffff80610525602435600401611e03565b1663ffffffff1990818454161783556105666105446024803501611e03565b845467ffffffff00000000191660209190911b67ffffffff0000000016178455565b610574604460243501611e03565b83546fffffffff000000000000000000000000610595606460243501611e03565b60601b1663ffffffff60a01b6105af608460243501611e03565b73ffffffff000000000000000000000000000000006105d260a460243501611e03565b9363ffffffff60c01b6105e960c460243501611e03565b60c01b169567ffffffffffffffff6bffffffff00000000000000007fffffffff0000000000000000000000000000000000000000000000000000000061063360e460243501611e03565b60e01b169960401b16911617179160801b16179160a01b161717178355600183019161066461010460243501611e03565b16908254161781556106a061067e61012460243501611e03565b825467ffffffff00000000191660209190911b67ffffffff0000000016178255565b6106af61014460243501611e14565b1515815468ff00000000000000006cffffffff0000000000000000006106da61016460243501611e03565b60481b169260401b16906cffffffffff000000000000000019161717905561018460243501356002820155600381016101a460243501356001600160a01b0381168091036101275781549074ffffffffffffffffffffffffffffffffffffffffff1960ff60a01b6107506101c460243501611e14565b151560a01b1692161717905560048101906107766101e460243501602435600401611e21565b91909267ffffffffffffffff83116109a2576107928154611c10565b92601f93848111610ad3575b505f848211600114610a705781929394955f92610a65575b50508160011b915f199060031b1c19161790555b600581016107e361020460243501602435600401611e21565b909367ffffffffffffffff82116109a2576107fe8354611c10565b818111610a23575b505f9082116001146109c157819293945f926109b6575b50508160011b915f199060031b1c19161790555b600681016024356102248101359036036022190181121561012757602435019060048201359167ffffffffffffffff8311610127576024018260051b36038113610127576801000000000000000083116109a257815483835580841061097c575b50905f5260205f205f5b838110610968576007850167ffffffffffffffff6108bf61024460243501611e54565b168154906fffffffffffffffff00000000000000006108e361026460243501611e54565b60401b169070ffffffffffffffffffffffffffffffffff1970ff0000000000000000000000000000000061091c61028460243501611e14565b151560801b169316171717905560405133907f6f34faa99490601fc5ca6e2198f8dd8e2bcc5768d5795d9722835a75e4f98d03600435918061096360243560040182612136565b0390a3005b60019060208435940193818401550161089c565b825f528360205f2091820191015b8181106109975750610892565b5f815560010161098a565b634e487b7160e01b5f52604160045260245ffd5b01359050848061081d565b601f19821694835f5260205f20915f5b878110610a0b5750836001959697106109f2575b505050811b019055610831565b01355f19600384901b60f8161c191690558480806109e5565b909260206001819286860135815501940191016109d1565b835f5260205f208280850160051c82019260208610610a5c575b0160051c01905b818110610a515750610806565b5f8155600101610a44565b92508192610a3d565b0135905085806107b6565b601f19821695835f5260205f20915f5b888110610abb57508360019596979810610aa2575b505050811b0190556107ca565b01355f19600384901b60f8161c19169055858080610a95565b90926020600181928686013581550194019101610a80565b825f5260205f208580840160051c82019260208510610b0c575b0160051c01905b818110610b01575061079e565b5f8155600101610af4565b92508192610aed565b6024604051633e8a1e4160e21b81526004356004820152fd5b505f5460043511156104d9565b3461012757602036600319011261012757600435335f52600260205260ff60405f205416156102b35780151580610bc3575b156103b257805f52600360205260ff60405f205416156103b257805f52600360205260405f2060ff19815416905533907f6a695f3885825e54664b734cb3f92b352642b7a4d913d39f61ce3904eaed7c055f80a3005b505f54811115610b6d565b3461012757604036600319011261012757610be7611d67565b6024356001600160a01b0391826005541633036102b357821690811561028957815f52600660205260405f20815f5260205260ff60405f20541615610c2857005b815f52600660205260405f20905f5260205260405f20600160ff19825416179055600760205260405f208054680100000000000000008110156109a257610c7491600182018155611db4565b909283549160031b92831b921b19161790555f80f35b34610127576020366003190112610127576004355f526003602052602060ff60405f2054166040519015158152f35b6003196060368201126101275767ffffffffffffffff60243511610127576102a090602435360301126101275767ffffffffffffffff60443511610127573660236044350112156101275767ffffffffffffffff6044356004013511610127573660246044356004013560443501011161012757610d3b602435600401612363565b610d455f54611dc9565b805f55805f52600160205260405f2063ffffffff80610d68602435600401611e03565b1663ffffffff199081845416178355610d876105446024803501611e03565b610d95604460243501611e03565b83546fffffffff000000000000000000000000610db6606460243501611e03565b60601b1663ffffffff60a01b610dd0608460243501611e03565b73ffffffff00000000000000000000000000000000610df360a460243501611e03565b9363ffffffff60c01b610e0a60c460243501611e03565b60c01b169567ffffffffffffffff6bffffffff00000000000000007fffffffff00000000000000000000000000000000000000000000000000000000610e5460e460243501611e03565b60e01b169960401b16911617179160801b16179160a01b1617171783556001830191610e8561010460243501611e03565b1690825416178155610e9f61067e61012460243501611e03565b610eae61014460243501611e14565b1515815468ff00000000000000006cffffffff000000000000000000610ed961016460243501611e03565b60481b169260401b16906cffffffffff000000000000000019161717905561018460243501356002820155600381016101a460243501356001600160a01b0381168091036101275781549074ffffffffffffffffffffffffffffffffffffffffff1960ff60a01b610f4f6101c460243501611e14565b151560a01b16921617179055610f706101e460243501602435600401611e21565b9067ffffffffffffffff82116109a2578190610f8f6004850154611c10565b601f811161144a575b505f90601f83116001146113dd575f926113d2575b50508160011b915f199060031b1c19161760048201555b610fd961020460243501602435600401611e21565b9067ffffffffffffffff82116109a2578190610ff86005850154611c10565b601f8111611382575b505f90601f8311600114611315575f9261130a575b50508160011b915f199060031b1c19161760058201555b60243561022481013590360360221901811215610127576024350167ffffffffffffffff60048201351161012757600481013560051b3603602482011361012757680100000000000000006004820135116109a2576006820180546004830135918290559081116112dc575b5060248101600683015f5260205f205f5b600484013581106112c857856111456007870167ffffffffffffffff6110d561024460243501611e54565b169080546fffffffffffffffff00000000000000006110f961026460243501611e54565b60401b16610284602435019370ffffffffffffffffffffffffffffffffff1970ff0000000000000000000000000000000061113387611e14565b151560801b1693161717179055611e14565b156111fd57335f52600660205260405f206004355f5260205260ff60405f205416156102b35760209061117d36602435600401611ee5565b505f8181526003835260408120805460ff19166001179055817f7ffae721983994812770c99f4f10d1cfc94bc4b5d28b08e6ce84a796fefaa3a78280a35b604051817f8747e32b8bc4c91de396b6e17d71be13b8998064ef0231f0ee3679c8e09ea6203392806111f260243560040182612136565b0390a3604051908152f35b60209061120f6101c460243501611e14565b156112775761122336602435600401611ee5565b5060405182810190828252604435600401356024604435016040830137611263606082604435600401358101426040820152036040810184520182611c65565b519020815f526004835260405f20556111bb565b61128636602435600401611ee5565b505f8181526003835260408120805460ff19166001179055817f7ffae721983994812770c99f4f10d1cfc94bc4b5d28b08e6ce84a796fefaa3a78280a36111bb565b8235818301556020909201916001016110aa565b600683015f5260205f2090600483013582015b81830181106112ff575050611099565b5f81556001016112ef565b013590508480611016565b909250600584015f5260205f20905f935b601f198416851061136a576001945083601f19811610611351575b505050811b01600582015561102d565b01355f19600384901b60f8161c19169055848080611341565b81810135835560209485019460019093019201611326565b909150600584015f5260205f20601f840160051c8101602085106113cb575b90849392915b601f830160051c820181106113bd575050611001565b5f81558594506001016113a7565b50806113a1565b013590508480610fad565b909250600484015f5260205f20905f935b601f1984168510611432576001945083601f19811610611419575b505050811b016004820155610fc4565b01355f19600384901b60f8161c19169055848080611409565b818101358355602094850194600190930192016113ee565b909150600484015f5260205f20601f840160051c810160208510611493575b90849392915b601f830160051c82018110611485575050610f98565b5f815585945060010161146f565b5080611469565b34610127576020366003190112610127575f6102806040516114bb81611c48565b8281528260208201528260408201528260608201528260808201528260a08201528260c08201528260e08201528261010082015282610120820152826101408201528261016082015282610180820152826101a0820152826101c082015260606101e0820152606061020082015260606102208201528261024082015282610260820152015260043515158061189b575b15610b15576004355f52600160205260405f206040519061156c82611c48565b805463ffffffff8116835263ffffffff8160201c16602084015263ffffffff8160401c16604084015263ffffffff8160601c16606084015263ffffffff8160801c16608084015263ffffffff8160a01c1660a084015263ffffffff8160c01c1660c084015260e01c60e083015263ffffffff6001820154818116610100850152818160201c1661012085015260ff8160401c16151561014085015260481c16610160830152600281015461018083015260ff60038201546001600160a01b0381166101a085015260a01c1615156101c083015261164b60048201611c87565b6101e083015261165d60058201611c87565b6102008301526040518060206006840154918281520190600684015f5260205f20905f5b818110611885578660ff6007888861169b818a0382611c65565b610220850152015467ffffffffffffffff811661024084015267ffffffffffffffff8160401c1661026084015260801c1615156102808201526040516020815263ffffffff825116602082015263ffffffff602083015116604082015263ffffffff604083015116606082015263ffffffff606083015116608082015263ffffffff60808301511660a082015263ffffffff60a08301511660c082015263ffffffff60c08301511660e082015263ffffffff60e08301511661010082015263ffffffff6101008301511661012082015263ffffffff61012083015116610140820152610140820151151561016082015263ffffffff610160830151166101808201526101808201516101a08201526001600160a01b036101a0830151166101c08201526101c082015115156101e08201526101e08201516117eb6102a091826102008501526102c0840190611d29565b9061180a61020085015192601f19938486830301610220870152611d29565b6102208501519284820301610240850152602080845192838152019301905f5b81811061186f575050506102808467ffffffffffffffff610240869701511661026086015267ffffffffffffffff610260820151168286015201511515908301520390f35b825185526020948501949092019160010161182a565b8254845260209093019260019283019201611681565b505f54600435111561154c565b34610127575f3660031901126101275760206001600160a01b0360055416604051908152f35b34610127576040366003190112610127576118e7611d67565b60243590811515809203610127576001600160a01b0390816005541633036102b35716801561028957805f52600260205260405f2060ff1981541660ff84161790556040519182527f6e0f223019887734edb3e629fad26bad6ceeb5108f25ae46e5c762fe264517c160203393a3005b34610127575f366003190112610127575f80549060015b82811115611a55575061199961198382611deb565b916119916040519384611c65565b808352611deb565b6020928383019291601f19013684375f60015b828111156119f7575050509060405192839281840190828552518091526040840192915f5b8281106119e057505050500390f35b8351855286955093810193928101926001016119d1565b805f526003865260ff60405f205416611a19575b611a1490611dc9565b6119ac565b90611a2381611dc9565b918451821015611a41578087611a149360051b870101529050611a0b565b634e487b7160e01b5f52603260045260245ffd5b805f52600360205260ff60405f205416611a78575b611a7390611dc9565b61196e565b90611a85611a7391611dc9565b919050611a6a565b34610127576020366003190112610127576004355f526004602052602060405f2054604051908152f35b34610127576020366003190112610127576004355f52600160205260405f20805463ffffffff9160ff600182015492611beb600284015493611bdc600382015493611b0460048401611c87565b90866007611b1460058701611c87565b9501549667ffffffffffffffff996040519c8d9c8d60e0610280978481168352848160201c166020840152848160401c166040840152848160601c166060840152848160801c166080840152848160a01c1660a0840152848160c01c1660c0840152811c9101528d6101008383169101528d610120838360201c169101528d610140868360401c16151591015260481c166101608d01526101808c01526001600160a01b0381166101a08c015260a01c1615156101c08a0152806101e08a0152880190611d29565b90868203610200880152611d29565b928082166102208601528160401c1661024085015260801c1615156102608301520390f35b90600182811c92168015611c3e575b6020831014611c2a57565b634e487b7160e01b5f52602260045260245ffd5b91607f1691611c1f565b6102a0810190811067ffffffffffffffff8211176109a257604052565b90601f8019910116810190811067ffffffffffffffff8211176109a257604052565b9060405191825f8254611c9981611c10565b908184526020946001916001811690815f14611d075750600114611cc9575b505050611cc792500383611c65565b565b5f90815285812095935091905b818310611cef575050611cc793508201015f8080611cb8565b85548884018501529485019487945091830191611cd6565b92505050611cc794925060ff191682840152151560051b8201015f8080611cb8565b91908251928382525f5b848110611d53575050825f602080949584010152601f8019910116010190565b602081830181015184830182015201611d33565b600435906001600160a01b038216820361012757565b35906001600160a01b038216820361012757565b3590811515820361012757565b6040906003190112610127576004359060243590565b8054821015611a41575f5260205f2001905f90565b5f198114611dd75760010190565b634e487b7160e01b5f52601160045260245ffd5b67ffffffffffffffff81116109a25760051b60200190565b3563ffffffff811681036101275790565b3580151581036101275790565b903590601e1981360301821215610127570180359067ffffffffffffffff82116101275760200191813603831361012757565b3567ffffffffffffffff811681036101275790565b359063ffffffff8216820361012757565b81601f820112156101275780359067ffffffffffffffff82116109a25760405192611eaf601f8401601f191660200185611c65565b8284526020838301011161012757815f926020809301838601378301015290565b359067ffffffffffffffff8216820361012757565b9190916102a0818403126101275760405190611f0082611c48565b8193611f0b82611e69565b83526020611f1a818401611e69565b81850152611f2a60408401611e69565b6040850152611f3b60608401611e69565b6060850152611f4c60808401611e69565b6080850152611f5d60a08401611e69565b60a0850152611f6e60c08401611e69565b60c0850152611f7f60e08401611e69565b60e0850152610100611f92818501611e69565b90850152610120611fa4818501611e69565b90850152610140611fb6818501611d91565b90850152610160611fc8818501611e69565b9085015261018080840135908501526101a0611fe5818501611d7d565b908501526101c0611ff7818501611d91565b9085015267ffffffffffffffff906101e084810135838111610127578461201f918701611e7a565b9086015261020080850135838111610127578461203d918701611e7a565b9086015261022091828501359081116101275784019280601f8501121561012757833561206981611deb565b946120776040519687611c65565b818652838087019260051b820101928311610127578301905b8282106120d557505050508301526102406120ac818301611ed0565b908301526102606120be818301611ed0565b908301526120d0610280809201611d91565b910152565b81358152908301908301612090565b9035601e198236030181121561012757016020813591019167ffffffffffffffff821161012757813603831361012757565b908060209392818452848401375f828201840152601f01601f1916010190565b6020808252916122b19161227061225e61224663ffffffff8061215887611e69565b168886015280612169898801611e69565b1660408601528061217c60408801611e69565b1660608601528061218f60608801611e69565b166080860152806121a260808801611e69565b1660a0860152806121b560a08801611e69565b1660c0860152806121c860c08801611e69565b1660e086015261222a6122196122086121f76121e660e08b01611e69565b856101009116818b01528a01611e69565b846101209116818a01528901611e69565b836101409116818901528801611d91565b610160901515818801528701611e69565b906101809116818601526101a090860135818601528501611d7d565b6001600160a01b036101c09116818501528401611d91565b6101e0901515818401528301836120e4565b9261229861228f6102a0936102009685888801526102c0870191612116565b948201826120e4565b959094601f199661022096888784030188880152612116565b93810135601e19823603018112156101275781019486863596019167ffffffffffffffff91828811610127578760051b978836038513610127577f07ffffffffffffffffffffffffffffffffffffffffffffffffffffffffffffff9061024092888a03018389015280895211610127576123386123499189612359968c8b01378301611ed0565b836102609116818801528201611ed0565b9161028092168286015201611d91565b1515910152010190565b63ffffffff908161237382611e03565b161561264057606081018261238782611e03565b16156125fb5760808201908361239c83611e03565b16156125b657836123b66123b08293611e03565b93611e03565b1691161161254b57816123cb60a08301611e03565b161561250657612710826123e160e08401611e03565b16116124c1576123f56101e0820182611e21565b905015612456576101006124099101611e03565b161561241157565b606460405163d647364f60e01b815260206004820152601e60248201527f436f6f6c646f776e20706572696f642063616e6e6f74206265207a65726f00006044820152fd5b608460405163d647364f60e01b815260206004820152602160248201527f45766964656e63652073706563204349442063616e6e6f7420626520656d707460448201527f79000000000000000000000000000000000000000000000000000000000000006064820152fd5b606460405163d647364f60e01b815260206004820152601d60248201527f536c61736820726174652063616e6e6f742065786365656420313030250000006044820152fd5b606460405163d647364f60e01b815260206004820152601c60248201527f5665726966792077696e646f772063616e6e6f74206265207a65726f000000006044820152fd5b608460405163d647364f60e01b815260206004820152602760248201527f4d696e696d756d206a75726f72732063616e6e6f74206578636565642070616e60448201527f656c2073697a65000000000000000000000000000000000000000000000000006064820152fd5b606460405163d647364f60e01b815260206004820152601960248201527f50616e656c2073697a652063616e6e6f74206265207a65726f000000000000006044820152fd5b606460405163d647364f60e01b815260206004820152601d60248201527f4d696e696d756d206a75726f72732063616e6e6f74206265207a65726f0000006044820152fd5b608460405163d647364f60e01b815260206004820152602560248201527f4d656d62657273686970546f6b656e207265776172642063616e6e6f7420626560448201527f207a65726f0000000000000000000000000000000000000000000000000000006064820152fdfea2646970667358221220a706dc4d622b90f70971047373661f37485fe024d5204b0e789b8311552e072764736f6c63430008180033","linkReferences":{}},"methodIdentifiers":{"activateFromGovernance(uint256,uint256)":"b1f376ce","addFounder(address,uint256)":"8fa906b2","communityFounders(uint256,uint256)":"bcca4854","deactivate(uint256)":"916b9bef","founderWhitelist(address,uint256)":"e148bb48","getActiveValuableActions()":"3bc87c9c","getCommunityFounders(uint256)":"a8db7912","getValuableAction(uint256)":"5cfdb862","governance()":"5aa6e675","isActive(uint256)":"82afd23b","isModerator(address)":"fa6f3936","isValuableActionActive(uint256)":"e9ea801c","lastId()":"c1292cc3","pendingValuableActions(uint256)":"2262fd9d","proposeValuableAction(uint256,(uint32,uint32,uint32,uint32,uint32,uint32,uint32,uint32,uint32,uint32,bool,uint32,uint256,address,bool,string,string,bytes32[],uint64,uint64,bool),string)":"752710d1","setModerator(address,bool)":"3ee2b01d","update(uint256,(uint32,uint32,uint32,uint32,uint32,uint32,uint32,uint32,uint32,uint32,bool,uint32,uint256,address,bool,string,string,bytes32[],uint64,uint64,bool))":"a5d029b8","updateGovernance(address)":"b2561263","valuableActionsById(uint256)":"0c5940fd"},"id":20}