{"abi":[{"type":"constructor","inputs":[{"name":"manager","type":"address","internalType":"address"},{"name":"_communityRegistry","type":"address","internalType":"address"},{"name":"initialModerator","type":"address","internalType":"address"},{"name":"_communityId","type":"uint256","internalType":"uint256"}],"stateMutability":"nonpayable"},{"type":"function","name":"activateFromGovernance","inputs":[{"name":"valuableActionId","type":"uint256","internalType":"uint256"},{"name":"proposalRef","type":"bytes32","internalType":"bytes32"}],"outputs":[],"stateMutability":"nonpayable"},{"type":"function","name":"addFounder","inputs":[{"name":"founder","type":"address","internalType":"address"}],"outputs":[],"stateMutability":"nonpayable"},{"type":"function","name":"authority","inputs":[],"outputs":[{"name":"","type":"address","internalType":"address"}],"stateMutability":"view"},{"type":"function","name":"closePositionToken","inputs":[{"name":"positionTokenId","type":"uint256","internalType":"uint256"},{"name":"outcome","type":"uint8","internalType":"uint8"}],"outputs":[],"stateMutability":"nonpayable"},{"type":"function","name":"communityByActionId","inputs":[{"name":"valuableActionId","type":"uint256","internalType":"uint256"}],"outputs":[{"name":"","type":"uint256","internalType":"uint256"}],"stateMutability":"view"},{"type":"function","name":"communityId","inputs":[],"outputs":[{"name":"","type":"uint256","internalType":"uint256"}],"stateMutability":"view"},{"type":"function","name":"communityNarrowingEnabled","inputs":[{"name":"","type":"uint256","internalType":"uint256"}],"outputs":[{"name":"","type":"bool","internalType":"bool"}],"stateMutability":"view"},{"type":"function","name":"communityRegistry","inputs":[],"outputs":[{"name":"","type":"address","internalType":"contract CommunityRegistry"}],"stateMutability":"view"},{"type":"function","name":"deactivate","inputs":[{"name":"id","type":"uint256","internalType":"uint256"}],"outputs":[],"stateMutability":"nonpayable"},{"type":"function","name":"founderWhitelist","inputs":[{"name":"founder","type":"address","internalType":"address"},{"name":"","type":"uint256","internalType":"uint256"}],"outputs":[{"name":"","type":"bool","internalType":"bool"}],"stateMutability":"view"},{"type":"function","name":"getActiveValuableActions","inputs":[],"outputs":[{"name":"ids","type":"uint256[]","internalType":"uint256[]"}],"stateMutability":"view"},{"type":"function","name":"getCommunityFounders","inputs":[{"name":"communityId_","type":"uint256","internalType":"uint256"}],"outputs":[{"name":"founders","type":"address[]","internalType":"address[]"}],"stateMutability":"view"},{"type":"function","name":"getValuableAction","inputs":[{"name":"id","type":"uint256","internalType":"uint256"}],"outputs":[{"name":"action","type":"tuple","internalType":"struct Types.ValuableAction","components":[{"name":"membershipTokenReward","type":"uint32","internalType":"uint32"},{"name":"communityTokenReward","type":"uint32","internalType":"uint32"},{"name":"investorSBTReward","type":"uint32","internalType":"uint32"},{"name":"category","type":"uint8","internalType":"enum Types.ActionCategory"},{"name":"roleTypeId","type":"bytes32","internalType":"bytes32"},{"name":"positionPoints","type":"uint32","internalType":"uint32"},{"name":"verifierPolicy","type":"uint8","internalType":"enum Types.VerifierPolicy"},{"name":"metadataSchemaId","type":"bytes32","internalType":"bytes32"},{"name":"jurorsMin","type":"uint32","internalType":"uint32"},{"name":"panelSize","type":"uint32","internalType":"uint32"},{"name":"verifyWindow","type":"uint32","internalType":"uint32"},{"name":"verifierRewardWeight","type":"uint32","internalType":"uint32"},{"name":"slashVerifierBps","type":"uint32","internalType":"uint32"},{"name":"cooldownPeriod","type":"uint32","internalType":"uint32"},{"name":"maxConcurrent","type":"uint32","internalType":"uint32"},{"name":"revocable","type":"bool","internalType":"bool"},{"name":"evidenceTypes","type":"uint32","internalType":"uint32"},{"name":"proposalThreshold","type":"uint256","internalType":"uint256"},{"name":"proposer","type":"address","internalType":"address"},{"name":"evidenceSpecCID","type":"string","internalType":"string"},{"name":"titleTemplate","type":"string","internalType":"string"},{"name":"automationRules","type":"bytes32[]","internalType":"bytes32[]"},{"name":"activationDelay","type":"uint64","internalType":"uint64"},{"name":"deprecationWarning","type":"uint64","internalType":"uint64"}]}],"stateMutability":"view"},{"type":"function","name":"isActive","inputs":[{"name":"","type":"uint256","internalType":"uint256"}],"outputs":[{"name":"","type":"bool","internalType":"bool"}],"stateMutability":"view"},{"type":"function","name":"isCommunityIssuanceModule","inputs":[{"name":"","type":"uint256","internalType":"uint256"},{"name":"module","type":"address","internalType":"address"}],"outputs":[{"name":"","type":"bool","internalType":"bool"}],"stateMutability":"view"},{"type":"function","name":"isConsumingScheduledOp","inputs":[],"outputs":[{"name":"","type":"bytes4","internalType":"bytes4"}],"stateMutability":"view"},{"type":"function","name":"isIssuanceModule","inputs":[{"name":"","type":"address","internalType":"address"}],"outputs":[{"name":"","type":"bool","internalType":"bool"}],"stateMutability":"view"},{"type":"function","name":"isModerator","inputs":[{"name":"","type":"address","internalType":"address"}],"outputs":[{"name":"","type":"bool","internalType":"bool"}],"stateMutability":"view"},{"type":"function","name":"isValuableActionActive","inputs":[{"name":"id","type":"uint256","internalType":"uint256"}],"outputs":[{"name":"","type":"bool","internalType":"bool"}],"stateMutability":"view"},{"type":"function","name":"issuancePaused","inputs":[],"outputs":[{"name":"","type":"bool","internalType":"bool"}],"stateMutability":"view"},{"type":"function","name":"issueEngagement","inputs":[{"name":"to","type":"address","internalType":"address"},{"name":"subtype","type":"uint8","internalType":"enum Types.EngagementSubtype"},{"name":"actionTypeId","type":"bytes32","internalType":"bytes32"},{"name":"metadata","type":"bytes","internalType":"bytes"}],"outputs":[{"name":"tokenId","type":"uint256","internalType":"uint256"}],"stateMutability":"nonpayable"},{"type":"function","name":"issueInvestment","inputs":[{"name":"to","type":"address","internalType":"address"},{"name":"cohortId","type":"uint256","internalType":"uint256"},{"name":"weight","type":"uint32","internalType":"uint32"},{"name":"metadata","type":"bytes","internalType":"bytes"}],"outputs":[{"name":"tokenId","type":"uint256","internalType":"uint256"}],"stateMutability":"nonpayable"},{"type":"function","name":"issuePosition","inputs":[{"name":"to","type":"address","internalType":"address"},{"name":"positionTypeId","type":"bytes32","internalType":"bytes32"},{"name":"points","type":"uint32","internalType":"uint32"},{"name":"metadata","type":"bytes","internalType":"bytes"}],"outputs":[{"name":"tokenId","type":"uint256","internalType":"uint256"}],"stateMutability":"nonpayable"},{"type":"function","name":"issueRoleFromPosition","inputs":[{"name":"to","type":"address","internalType":"address"},{"name":"roleTypeId","type":"bytes32","internalType":"bytes32"},{"name":"points","type":"uint32","internalType":"uint32"},{"name":"issuedAt","type":"uint64","internalType":"uint64"},{"name":"endedAt","type":"uint64","internalType":"uint64"},{"name":"closeOutcome","type":"uint8","internalType":"uint8"},{"name":"metadata","type":"bytes","internalType":"bytes"}],"outputs":[{"name":"tokenId","type":"uint256","internalType":"uint256"}],"stateMutability":"nonpayable"},{"type":"function","name":"lastId","inputs":[],"outputs":[{"name":"","type":"uint256","internalType":"uint256"}],"stateMutability":"view"},{"type":"function","name":"pendingValuableActions","inputs":[{"name":"","type":"uint256","internalType":"uint256"}],"outputs":[{"name":"","type":"bytes32","internalType":"bytes32"}],"stateMutability":"view"},{"type":"function","name":"proposalRefUsed","inputs":[{"name":"","type":"bytes32","internalType":"bytes32"}],"outputs":[{"name":"","type":"bool","internalType":"bool"}],"stateMutability":"view"},{"type":"function","name":"proposeValuableAction","inputs":[{"name":"params","type":"tuple","internalType":"struct Types.ValuableAction","components":[{"name":"membershipTokenReward","type":"uint32","internalType":"uint32"},{"name":"communityTokenReward","type":"uint32","internalType":"uint32"},{"name":"investorSBTReward","type":"uint32","internalType":"uint32"},{"name":"category","type":"uint8","internalType":"enum Types.ActionCategory"},{"name":"roleTypeId","type":"bytes32","internalType":"bytes32"},{"name":"positionPoints","type":"uint32","internalType":"uint32"},{"name":"verifierPolicy","type":"uint8","internalType":"enum Types.VerifierPolicy"},{"name":"metadataSchemaId","type":"bytes32","internalType":"bytes32"},{"name":"jurorsMin","type":"uint32","internalType":"uint32"},{"name":"panelSize","type":"uint32","internalType":"uint32"},{"name":"verifyWindow","type":"uint32","internalType":"uint32"},{"name":"verifierRewardWeight","type":"uint32","internalType":"uint32"},{"name":"slashVerifierBps","type":"uint32","internalType":"uint32"},{"name":"cooldownPeriod","type":"uint32","internalType":"uint32"},{"name":"maxConcurrent","type":"uint32","internalType":"uint32"},{"name":"revocable","type":"bool","internalType":"bool"},{"name":"evidenceTypes","type":"uint32","internalType":"uint32"},{"name":"proposalThreshold","type":"uint256","internalType":"uint256"},{"name":"proposer","type":"address","internalType":"address"},{"name":"evidenceSpecCID","type":"string","internalType":"string"},{"name":"titleTemplate","type":"string","internalType":"string"},{"name":"automationRules","type":"bytes32[]","internalType":"bytes32[]"},{"name":"activationDelay","type":"uint64","internalType":"uint64"},{"name":"deprecationWarning","type":"uint64","internalType":"uint64"}]},{"name":"proposalRef","type":"bytes32","internalType":"bytes32"}],"outputs":[{"name":"valuableActionId","type":"uint256","internalType":"uint256"}],"stateMutability":"payable"},{"type":"function","name":"setAuthority","inputs":[{"name":"newAuthority","type":"address","internalType":"address"}],"outputs":[],"stateMutability":"nonpayable"},{"type":"function","name":"setCommunityIssuanceModule","inputs":[{"name":"module","type":"address","internalType":"address"},{"name":"allowed","type":"bool","internalType":"bool"}],"outputs":[],"stateMutability":"nonpayable"},{"type":"function","name":"setCommunityNarrowing","inputs":[{"name":"enabled","type":"bool","internalType":"bool"}],"outputs":[],"stateMutability":"nonpayable"},{"type":"function","name":"setIssuanceModule","inputs":[{"name":"module","type":"address","internalType":"address"},{"name":"allowed","type":"bool","internalType":"bool"}],"outputs":[],"stateMutability":"nonpayable"},{"type":"function","name":"setIssuancePaused","inputs":[{"name":"paused","type":"bool","internalType":"bool"}],"outputs":[],"stateMutability":"nonpayable"},{"type":"function","name":"setModerator","inputs":[{"name":"who","type":"address","internalType":"address"},{"name":"status","type":"bool","internalType":"bool"}],"outputs":[],"stateMutability":"nonpayable"},{"type":"function","name":"setValuableActionSBT","inputs":[{"name":"sbt","type":"address","internalType":"address"}],"outputs":[],"stateMutability":"nonpayable"},{"type":"function","name":"update","inputs":[{"name":"id","type":"uint256","internalType":"uint256"},{"name":"params","type":"tuple","internalType":"struct Types.ValuableAction","components":[{"name":"membershipTokenReward","type":"uint32","internalType":"uint32"},{"name":"communityTokenReward","type":"uint32","internalType":"uint32"},{"name":"investorSBTReward","type":"uint32","internalType":"uint32"},{"name":"category","type":"uint8","internalType":"enum Types.ActionCategory"},{"name":"roleTypeId","type":"bytes32","internalType":"bytes32"},{"name":"positionPoints","type":"uint32","internalType":"uint32"},{"name":"verifierPolicy","type":"uint8","internalType":"enum Types.VerifierPolicy"},{"name":"metadataSchemaId","type":"bytes32","internalType":"bytes32"},{"name":"jurorsMin","type":"uint32","internalType":"uint32"},{"name":"panelSize","type":"uint32","internalType":"uint32"},{"name":"verifyWindow","type":"uint32","internalType":"uint32"},{"name":"verifierRewardWeight","type":"uint32","internalType":"uint32"},{"name":"slashVerifierBps","type":"uint32","internalType":"uint32"},{"name":"cooldownPeriod","type":"uint32","internalType":"uint32"},{"name":"maxConcurrent","type":"uint32","internalType":"uint32"},{"name":"revocable","type":"bool","internalType":"bool"},{"name":"evidenceTypes","type":"uint32","internalType":"uint32"},{"name":"proposalThreshold","type":"uint256","internalType":"uint256"},{"name":"proposer","type":"address","internalType":"address"},{"name":"evidenceSpecCID","type":"string","internalType":"string"},{"name":"titleTemplate","type":"string","internalType":"string"},{"name":"automationRules","type":"bytes32[]","internalType":"bytes32[]"},{"name":"activationDelay","type":"uint64","internalType":"uint64"},{"name":"deprecationWarning","type":"uint64","internalType":"uint64"}]}],"outputs":[],"stateMutability":"nonpayable"},{"type":"function","name":"valuableActionSBT","inputs":[],"outputs":[{"name":"","type":"address","internalType":"address"}],"stateMutability":"view"},{"type":"function","name":"valuableActionsById","inputs":[{"name":"","type":"uint256","internalType":"uint256"}],"outputs":[{"name":"membershipTokenReward","type":"uint32","internalType":"uint32"},{"name":"communityTokenReward","type":"uint32","internalType":"uint32"},{"name":"investorSBTReward","type":"uint32","internalType":"uint32"},{"name":"category","type":"uint8","internalType":"enum Types.ActionCategory"},{"name":"roleTypeId","type":"bytes32","internalType":"bytes32"},{"name":"positionPoints","type":"uint32","internalType":"uint32"},{"name":"verifierPolicy","type":"uint8","internalType":"enum Types.VerifierPolicy"},{"name":"metadataSchemaId","type":"bytes32","internalType":"bytes32"},{"name":"jurorsMin","type":"uint32","internalType":"uint32"},{"name":"panelSize","type":"uint32","internalType":"uint32"},{"name":"verifyWindow","type":"uint32","internalType":"uint32"},{"name":"verifierRewardWeight","type":"uint32","internalType":"uint32"},{"name":"slashVerifierBps","type":"uint32","internalType":"uint32"},{"name":"cooldownPeriod","type":"uint32","internalType":"uint32"},{"name":"maxConcurrent","type":"uint32","internalType":"uint32"},{"name":"revocable","type":"bool","internalType":"bool"},{"name":"evidenceTypes","type":"uint32","internalType":"uint32"},{"name":"proposalThreshold","type":"uint256","internalType":"uint256"},{"name":"proposer","type":"address","internalType":"address"},{"name":"evidenceSpecCID","type":"string","internalType":"string"},{"name":"titleTemplate","type":"string","internalType":"string"},{"name":"activationDelay","type":"uint64","internalType":"uint64"},{"name":"deprecationWarning","type":"uint64","internalType":"uint64"}],"stateMutability":"view"},{"type":"event","name":"AuthorityUpdated","inputs":[{"name":"authority","type":"address","indexed":false,"internalType":"address"}],"anonymous":false},{"type":"event","name":"EngagementIssued","inputs":[{"name":"to","type":"address","indexed":true,"internalType":"address"},{"name":"tokenId","type":"uint256","indexed":true,"internalType":"uint256"},{"name":"subtype","type":"uint8","indexed":false,"internalType":"enum Types.EngagementSubtype"},{"name":"actionTypeId","type":"bytes32","indexed":true,"internalType":"bytes32"}],"anonymous":false},{"type":"event","name":"InvestmentIssued","inputs":[{"name":"to","type":"address","indexed":true,"internalType":"address"},{"name":"tokenId","type":"uint256","indexed":true,"internalType":"uint256"},{"name":"cohortId","type":"uint256","indexed":true,"internalType":"uint256"},{"name":"weight","type":"uint32","indexed":false,"internalType":"uint32"}],"anonymous":false},{"type":"event","name":"ModeratorUpdated","inputs":[{"name":"account","type":"address","indexed":true,"internalType":"address"},{"name":"isModerator","type":"bool","indexed":false,"internalType":"bool"},{"name":"updater","type":"address","indexed":true,"internalType":"address"}],"anonymous":false},{"type":"event","name":"PositionIssued","inputs":[{"name":"to","type":"address","indexed":true,"internalType":"address"},{"name":"tokenId","type":"uint256","indexed":true,"internalType":"uint256"},{"name":"positionTypeId","type":"bytes32","indexed":true,"internalType":"bytes32"},{"name":"points","type":"uint32","indexed":false,"internalType":"uint32"}],"anonymous":false},{"type":"event","name":"RoleIssued","inputs":[{"name":"to","type":"address","indexed":true,"internalType":"address"},{"name":"tokenId","type":"uint256","indexed":true,"internalType":"uint256"},{"name":"roleTypeId","type":"bytes32","indexed":true,"internalType":"bytes32"},{"name":"points","type":"uint32","indexed":false,"internalType":"uint32"},{"name":"issuedAt","type":"uint64","indexed":false,"internalType":"uint64"},{"name":"endedAt","type":"uint64","indexed":false,"internalType":"uint64"},{"name":"closeOutcome","type":"uint8","indexed":false,"internalType":"uint8"}],"anonymous":false},{"type":"event","name":"ValuableActionActivated","inputs":[{"name":"id","type":"uint256","indexed":true,"internalType":"uint256"},{"name":"proposalId","type":"uint256","indexed":true,"internalType":"uint256"}],"anonymous":false},{"type":"event","name":"ValuableActionCreated","inputs":[{"name":"id","type":"uint256","indexed":true,"internalType":"uint256"},{"name":"valuableAction","type":"tuple","indexed":false,"internalType":"struct Types.ValuableAction","components":[{"name":"membershipTokenReward","type":"uint32","internalType":"uint32"},{"name":"communityTokenReward","type":"uint32","internalType":"uint32"},{"name":"investorSBTReward","type":"uint32","internalType":"uint32"},{"name":"category","type":"uint8","internalType":"enum Types.ActionCategory"},{"name":"roleTypeId","type":"bytes32","internalType":"bytes32"},{"name":"positionPoints","type":"uint32","internalType":"uint32"},{"name":"verifierPolicy","type":"uint8","internalType":"enum Types.VerifierPolicy"},{"name":"metadataSchemaId","type":"bytes32","internalType":"bytes32"},{"name":"jurorsMin","type":"uint32","internalType":"uint32"},{"name":"panelSize","type":"uint32","internalType":"uint32"},{"name":"verifyWindow","type":"uint32","internalType":"uint32"},{"name":"verifierRewardWeight","type":"uint32","internalType":"uint32"},{"name":"slashVerifierBps","type":"uint32","internalType":"uint32"},{"name":"cooldownPeriod","type":"uint32","internalType":"uint32"},{"name":"maxConcurrent","type":"uint32","internalType":"uint32"},{"name":"revocable","type":"bool","internalType":"bool"},{"name":"evidenceTypes","type":"uint32","internalType":"uint32"},{"name":"proposalThreshold","type":"uint256","internalType":"uint256"},{"name":"proposer","type":"address","internalType":"address"},{"name":"evidenceSpecCID","type":"string","internalType":"string"},{"name":"titleTemplate","type":"string","internalType":"string"},{"name":"automationRules","type":"bytes32[]","internalType":"bytes32[]"},{"name":"activationDelay","type":"uint64","internalType":"uint64"},{"name":"deprecationWarning","type":"uint64","internalType":"uint64"}]},{"name":"creator","type":"address","indexed":true,"internalType":"address"}],"anonymous":false},{"type":"event","name":"ValuableActionDeactivated","inputs":[{"name":"id","type":"uint256","indexed":true,"internalType":"uint256"},{"name":"deactivator","type":"address","indexed":true,"internalType":"address"}],"anonymous":false},{"type":"event","name":"ValuableActionUpdated","inputs":[{"name":"id","type":"uint256","indexed":true,"internalType":"uint256"},{"name":"valuableAction","type":"tuple","indexed":false,"internalType":"struct Types.ValuableAction","components":[{"name":"membershipTokenReward","type":"uint32","internalType":"uint32"},{"name":"communityTokenReward","type":"uint32","internalType":"uint32"},{"name":"investorSBTReward","type":"uint32","internalType":"uint32"},{"name":"category","type":"uint8","internalType":"enum Types.ActionCategory"},{"name":"roleTypeId","type":"bytes32","internalType":"bytes32"},{"name":"positionPoints","type":"uint32","internalType":"uint32"},{"name":"verifierPolicy","type":"uint8","internalType":"enum Types.VerifierPolicy"},{"name":"metadataSchemaId","type":"bytes32","internalType":"bytes32"},{"name":"jurorsMin","type":"uint32","internalType":"uint32"},{"name":"panelSize","type":"uint32","internalType":"uint32"},{"name":"verifyWindow","type":"uint32","internalType":"uint32"},{"name":"verifierRewardWeight","type":"uint32","internalType":"uint32"},{"name":"slashVerifierBps","type":"uint32","internalType":"uint32"},{"name":"cooldownPeriod","type":"uint32","internalType":"uint32"},{"name":"maxConcurrent","type":"uint32","internalType":"uint32"},{"name":"revocable","type":"bool","internalType":"bool"},{"name":"evidenceTypes","type":"uint32","internalType":"uint32"},{"name":"proposalThreshold","type":"uint256","internalType":"uint256"},{"name":"proposer","type":"address","internalType":"address"},{"name":"evidenceSpecCID","type":"string","internalType":"string"},{"name":"titleTemplate","type":"string","internalType":"string"},{"name":"automationRules","type":"bytes32[]","internalType":"bytes32[]"},{"name":"activationDelay","type":"uint64","internalType":"uint64"},{"name":"deprecationWarning","type":"uint64","internalType":"uint64"}]},{"name":"updater","type":"address","indexed":true,"internalType":"address"}],"anonymous":false},{"type":"error","name":"AccessManagedInvalidAuthority","inputs":[{"name":"authority","type":"address","internalType":"address"}]},{"type":"error","name":"AccessManagedRequiredDelay","inputs":[{"name":"caller","type":"address","internalType":"address"},{"name":"delay","type":"uint32","internalType":"uint32"}]},{"type":"error","name":"AccessManagedUnauthorized","inputs":[{"name":"caller","type":"address","internalType":"address"}]},{"type":"error","name":"InvalidInput","inputs":[{"name":"reason","type":"string","internalType":"string"}]},{"type":"error","name":"InvalidValuableAction","inputs":[{"name":"valuableActionId","type":"uint256","internalType":"uint256"}]},{"type":"error","name":"ZeroAddress","inputs":[]}],"bytecode":{"object":"0x60c034620001ca57601f62003df638819003918201601f191683019291906001600160401b03841183851017620001ce578160809284926040968752833981010312620001ca576200005181620001e2565b6200005f60208301620001e2565b9060606200006f858501620001e2565b9301515f80546001600160a01b0319166001600160a01b0393841690811790915585518181529193917f2f658b440c35314f52658ea8a740e05b284cdc84dc9ae01e891f21b8933e7cad90602090a115620001b9578116928315620001b95716918215620001a8578115620001635760a052608052805f526003602052815f20600160ff19825416179055815190600182527f6e0f223019887734edb3e629fad26bad6ceeb5108f25ae46e5c762fe264517c160203393a351613bfe9081620001f882396080518181816104a301528181611137015281816113cd01526116ab015260a0518181816104d2015261119e0152f35b835163d647364f60e01b815260206004820152601360248201527f496e76616c696420636f6d6d756e6974794964000000000000000000000000006044820152606490fd5b835163d92e233d60e01b8152600490fd5b845163d92e233d60e01b8152600490fd5b5f80fd5b634e487b7160e01b5f52604160045260245ffd5b51906001600160a01b0382168203620001ca5756fe60806040526004361015610011575f80fd5b5f803560e01c8063041848f914612ee75780630c5940fd14612d1d57806314f1d4f114612cc15780632262fd9d14612c975780632f1ec91c146129ea5780633bc87c9c146128b25780633ee2b01d14612826578063408a6802146127455780634104c3be1461253957806347573c2b146124f95780635cfdb862146120315780636da7a0ba1461199957806371304940146117cf5780637a9e5e4b146117055780637d0df1be146116ce5780637f50861a146116945780638045303d1461131557806382afd23b146112e65780638fb3603714611271578063916b9bef146111e65780639de1e191146111c2578063a200ac861461117e578063a2e7b04c1461110d578063a8db791214611048578063a90e069e1461100b578063bf7e214f14610fe5578063c1292cc314610fc7578063c691af9214610fa1578063c6ffb6cb14610f63578063e08d5b8a14610f03578063e148bb4814610ec6578063e610e6dd1461043b578063e890118414610411578063e9ea801c146103b8578063ef4ec047146102d0578063fa6f393614610293578063ff012a43146101ed5763ff3a41ab146101bc575f80fd5b346101ea5760203660031901126101ea5760ff60406020926004358152600684522054166040519015158152f35b80fd5b50346101ea5760203660031901126101ea576102076130f3565b61021136336136a8565b6001600160a01b03811615610269577fffffffffffffffffffff0000000000000000000000000000000000000000ffff75ffffffffffffffffffffffffffffffffffffffff00006009549260101b1691161760095580f35b60046040517fd92e233d000000000000000000000000000000000000000000000000000000008152fd5b50346101ea5760203660031901126101ea5760ff60406020926001600160a01b036102bc6130f3565b168152600384522054166040519015158152f35b50346101ea5760203660031901126101ea576001600160a01b036102f26130f3565b6102fc36336136a8565b16801561026957808252600a60205260408220805460ff81161561031e578380f35b60ff19166001179055600b54680100000000000000008110156103a4576001810180600b55811015610390577f0175b7a638427703f0dbe7bb9bbf987a2551717b34e79f33b5b1008d1fa01db9019073ffffffffffffffffffffffffffffffffffffffff198254161790555f80808380f35b602483634e487b7160e01b81526032600452fd5b602483634e487b7160e01b81526041600452fd5b50346101ea5760203660031901126101ea57602090600435908115159182610404575b826103ed575b50506040519015158152f35b815260048352604090205460ff1690505f806103e1565b60015481111592506103db565b50346101ea57806003193601126101ea5760206001600160a01b0360095460101c16604051908152f35b50600319604036820112610ec25767ffffffffffffffff60043511610ec25761030090600435360301126101ea5761047336336136a8565b6001600160a01b036040517ff830e3480000000000000000000000000000000000000000000000000000000081527f000000000000000000000000000000000000000000000000000000000000000060048201526101c08082602481867f0000000000000000000000000000000000000000000000000000000000000000165afa918215610eb7578492610d67575b505081602082015116158015610d5c575b610d175760a0015181163003610cd25760243515610c8c576024358252600660205260ff604083205416610c475761054f60043560040161387c565b61055a600154613330565b90816001558183526002602052604083209063ffffffff8061058060043560040161336a565b1663ffffffff1990818554161784556105c26105a060246004350161336a565b855467ffffffff00000000191660209190911b67ffffffff0000000016178555565b6105fd6105d360446004350161336a565b85546bffffffff0000000000000000191660409190911b6bffffffff000000000000000016178555565b606460043501356004811015610c435760ff60601b85549160601b169060ff60601b19161784556084600435013560018501558161063f60a46004350161336a565b1660028501549060c460043501356005811015610c3f578061066664ff0000000092613295565b60201b169164ffffffffff19161717600285015560e460043501356003850155600484018261069a6101046004350161336a565b16828254161781556106d66106b46101246004350161336a565b825467ffffffff00000000191660209190911b67ffffffff0000000016178255565b6107126106e86101446004350161336a565b82546bffffffff0000000000000000191660409190911b6bffffffff000000000000000016178255565b6107216101646004350161336a565b815473ffffffff000000000000000000000000000000006107476101846004350161336a565b60801b1663ffffffff60a01b6107626101a46004350161336a565b60a01b169063ffffffff60c01b61077e6101c46004350161336a565b60c01b16926101e46004350135801515809103610c3b576fffffffff00000000000000000000000060ff60e01b7fffffff0000000000000000000000000000000000ffffffffffffffffffffffff9260e01b169660601b1691161717171717905560058401916107f36102046004350161336a565b16908254161790556102246004350135600683015560078201906102446004350135908116809103610a975773ffffffffffffffffffffffffffffffffffffffff198254161790556108506102646004350160043560040161337b565b9067ffffffffffffffff8211610b6157819061086f600885015461315b565b601f8111610beb575b508590601f8311600114610b80578692610b75575b50508160011b915f199060031b1c19161760088201555b6108b96102846004350160043560040161337b565b9067ffffffffffffffff8211610b615781906108d8600985015461315b565b601f8111610b11575b508590601f8311600114610aa6578692610a9b575b50508160011b915f199060031b1c19161760098201555b600a81016004356102a481013590360360221901811215610a9757600435019060048201359167ffffffffffffffff8311610a93576024018260051b36038113610a9357680100000000000000008311610a7f578154838355808410610a59575b5090855260208520855b838110610a4557602086604089600b890167ffffffffffffffff6109a16102c4600435016133ae565b168154906fffffffffffffffffffffffffffffffff196fffffffffffffffff00000000000000006109d76102e4600435016133ae565b871b16921617179055828152600584526024358282205560243581526006845220600160ff19825416179055604051817f0215c6902787bce369520b2032915a714819e29cd4230ff91ab746ae8752947d339280610a3a600435600401826133f5565b0390a3604051908152f35b600190602084359401938184015501610978565b828752836020882091820191015b818110610a74575061096e565b5f8155600101610a67565b602486634e487b7160e01b81526041600452fd5b8580fd5b8480fd5b013590505f806108f6565b60098501875260208720879450915b601f1984168510610af9576001945083601f19811610610ae0575b505050811b01600982015561090d565b01355f19600384901b60f8161c191690555f8080610ad0565b81810135835560209485019460019093019201610ab5565b90915060098401865260208620601f840160051c810160208510610b5a575b90849392915b601f830160051c82018110610b4c5750506108e1565b5f8155859450600101610b36565b5080610b30565b602485634e487b7160e01b81526041600452fd5b013590505f8061088d565b60088501875260208720879450915b601f1984168510610bd3576001945083601f19811610610bba575b505050811b0160088201556108a4565b01355f19600384901b60f8161c191690555f8080610baa565b81810135835560209485019460019093019201610b8f565b90915060088401865260208620601f840160051c810160208510610c34575b90849392915b601f830160051c82018110610c26575050610878565b5f8155859450600101610c10565b5080610c0a565b8c80fd5b8880fd5b8680fd5b606460405163d647364f60e01b815260206004820152601960248201527f50726f706f73616c2072656620616c72656164792075736564000000000000006044820152fd5b60405163d647364f60e01b815260206004820152601460248201527f4d697373696e672070726f706f73616c207265660000000000000000000000006044820152606490fd5b606460405163d647364f60e01b815260206004820152601160248201527f5265676973747279206d69736d617463680000000000000000000000000000006044820152fd5b606460405163d647364f60e01b815260206004820152601860248201527f436f6d6d756e697479206e6f7420636f6e6669677572656400000000000000006044820152fd5b508181511615610513565b9080925081813d8311610eb0575b610d7f81836131c4565b81010312610eac5760405191820182811067ffffffffffffffff821117610e9857604052610dac81613694565b8252610dba60208201613694565b6020830152610dcb60408201613694565b6040830152610ddc60608201613694565b6060830152610ded60808201613694565b6080830152610dfe60a08201613694565b60a0830152610e0f60c08201613694565b60c0830152610e2060e08201613694565b60e0830152610100610e33818301613694565b90830152610120610e45818301613694565b90830152610140610e57818301613694565b90830152610160610e69818301613694565b90830152610180610e7b818301613694565b90830152610e8d6101a0809201613694565b908201525f80610502565b634e487b7160e01b5f52604160045260245ffd5b8380fd5b503d610d75565b6040513d86823e3d90fd5b5080fd5b50346101ea5760403660031901126101ea5760ff60406020926001600160a01b03610eef6130f3565b168152600a84522054166040519015158152f35b50346101ea5760403660031901126101ea57610f1d6130f3565b6001600160a01b03610f2d6132dd565b91610f3836336136a8565b1690811561026957610f609183526008602052604083209060ff801983541691151516179055565b80f35b50346101ea5760203660031901126101ea57610f7d6132ec565b610f8736336136a8565b61ff0060095491151560081b169061ff0019161760095580f35b50346101ea57806003193601126101ea57602060ff60095460081c166040519015158152f35b50346101ea57806003193601126101ea576020600154604051908152f35b50346101ea57806003193601126101ea576001600160a01b036020915416604051908152f35b50346101ea5760203660031901126101ea5760ff60406020926001600160a01b036110346130f3565b168152600784522054166040519015158152f35b50346101ea57602080600319360112610ec257604051809282600b5492838152018092600b83527f0175b7a638427703f0dbe7bb9bbf987a2551717b34e79f33b5b1008d1fa01db990835b8181106110f057505050846110a99103856131c4565b60405193838594850191818652518092526040850193925b8281106110d057505050500390f35b83516001600160a01b0316855286955093810193928101926001016110c1565b82546001600160a01b031684529286019260019283019201611093565b50346101ea5760203660031901126101ea5760043580151580611172575b1561115a5760206040517f00000000000000000000000000000000000000000000000000000000000000008152f35b60249060405190633e8a1e4160e21b82526004820152fd5b5060015481111561112b565b50346101ea57806003193601126101ea5760206040516001600160a01b037f0000000000000000000000000000000000000000000000000000000000000000168152f35b50346101ea5760203660031901126101ea57602060ff600954166040519015158152f35b50346101ea5760203660031901126101ea5760043561120536336136a8565b80151580611265575b1561115a57808252600460205260ff6040832054161561115a57808252600460205260408220805460ff1916905533907f6a695f3885825e54664b734cb3f92b352642b7a4d913d39f61ce3904eaed7c058380a380f35b5060015481111561120e565b50346101ea57806003193601126101ea57805460a01c60ff16156112de575060207f8fb36037000000000000000000000000000000000000000000000000000000005b7fffffffff0000000000000000000000000000000000000000000000000000000060405191168152f35b6020906112b4565b50346101ea5760203660031901126101ea5760ff60406020926004358152600484522054166040519015158152f35b503461146b57604036600319011261146b5760043560249081359160ff831680930361146b5761134536336136a8565b60095460ff8160081c1661164e5760101c6001600160a01b03168015610269576040517fb09afec100000000000000000000000000000000000000000000000000000000815283600482015261018080828581865afa918215611460575f9261153e575b5050600381516113b881613295565b6113c181613295565b036114f95760208101517f0000000000000000000000000000000000000000000000000000000000000000036114b457610100015167ffffffffffffffff1661146f57803b1561146b575f928360449260405196879586947f8045303d00000000000000000000000000000000000000000000000000000000865260048601528401525af1801561146057611454575080f35b61145e91506131b0565b005b6040513d5f823e3d90fd5b5f80fd5b60648260176040519163d647364f60e01b8352602060048401528201527f506f736974696f6e20616c726561647920636c6f7365640000000000000000006044820152fd5b60648360126040519163d647364f60e01b8352602060048401528201527f436f6d6d756e697479206d69736d6174636800000000000000000000000000006044820152fd5b60648360146040519163d647364f60e01b8352602060048401528201527f4e6f74206120706f736974696f6e20746f6b656e0000000000000000000000006044820152fd5b9080925081813d8311611647575b61155681836131c4565b8101031261146b5760405191820182811067ffffffffffffffff821117611634576040528051600581101561146b578252602081015160208301526040810151604083015260608101516060830152608081015160808301526115bb60a0820161366e565b60a08301526115cc60c0820161366e565b60c08301526115dd60e0820161367f565b60e08301526101006115f081830161367f565b9083015261012061160281830161367f565b90830152610140808201519060ff8216820361146b57830152611629610160809201613694565b908201525f806113a9565b84634e487b7160e01b5f5260416004525ffd5b503d61154c565b60405163d647364f60e01b815260206004820152600f60248201527f49737375616e63652070617573656400000000000000000000000000000000006044820152606490fd5b3461146b575f36600319011261146b5760206040517f00000000000000000000000000000000000000000000000000000000000000008152f35b3461146b57602036600319011261146b576116e76132ec565b6116f136336136a8565b60ff80196009541691151516176009555f80f35b3461146b57602036600319011261146b5761171e6130f3565b5f54906001600160a01b039081831633036117b957803b15611787577f2f658b440c35314f52658ea8a740e05b284cdc84dc9ae01e891f21b8933e7cad9260209273ffffffffffffffffffffffffffffffffffffffff19921691829116175f55604051908152a1005b602491604051917fc2f31e5e000000000000000000000000000000000000000000000000000000008352166004820152fd5b602460405162d1953b60e31b8152336004820152fd5b3461146b57608036600319011261146b576117e86130f3565b602435600381101561146b5760443560643567ffffffffffffffff811161146b5761181790369060040161312d565b909361182336336136a8565b60095460ff8160081c1661164e576001600160a01b03809160101c1691821561026957169182156102695783156119545760405180927f56ea547f00000000000000000000000000000000000000000000000000000000825284600483015261188f6024830188613661565b85604483015260806064830152815f816118b160209b8c976084840191613310565b03925af19384156114605785915f95611901575b508492917f01f44671cf0417f4d6b97178acbc6099efd02021ba154faf174f81a738331e88916118f86040518092613661565ba4604051908152f35b9450919084813d811161194d575b61191981836131c4565b8101031261146b579251929084907f01f44671cf0417f4d6b97178acbc6099efd02021ba154faf174f81a738331e886118c5565b503d61190f565b606460405163d647364f60e01b815260206004820152601460248201527f4d697373696e6720616374696f6e5479706549640000000000000000000000006044820152fd5b3461146b5760031960403682011261146b57600435602491823567ffffffffffffffff9182821161146b5781600401946103008336039283011261146b576119e136336136a8565b84151580612025575b1561200f57845f526020906004825260ff60405f20541615611ff957611a0f8761387c565b855f526002825260405f209263ffffffff9283611a2b8a61336a565b1663ffffffff199081875416178655611a6a611a4885890161336a565b875467ffffffff00000000191660209190911b67ffffffff0000000016178755565b611aa3611a796044890161336a565b87546bffffffff0000000000000000191660409190911b6bffffffff000000000000000016178755565b6064870135600481101561146b5760ff60601b87549160601b169060ff60601b1916178655600194608488013586880155600287019181611ae660a48b0161336a565b1692805460c48b0135946005958681101561146b5780611b0b64ff0000000092613295565b881b169164ffffffffff19161717905560e489013560038901556004880182611b376101048c0161336a565b1682825416178155611b4f6106b46101248c0161336a565b611b5f6106e86101448c0161336a565b611b6c6101648b0161336a565b8a825473ffffffff00000000000000000000000000000000611b91610184840161336a565b60801b1663ffffffff60a01b611baa6101a4850161336a565b60a01b16916101e463ffffffff60c01b611bc76101c4870161336a565b60c01b1694013580151580910361146b576fffffffff00000000000000000000000060ff60e01b7fffffff0000000000000000000000000000000000ffffffffffffffffffffffff9260e01b169660601b1691161717171717905582880191611c336102048b0161336a565b16908254161790556102248701356006870155600786016102448801356001600160a01b03811680910361146b5773ffffffffffffffffffffffffffffffffffffffff1982541617905560088601611c8f61026489018c61337b565b8a8193929311611fe65780611ca4835461315b565b93601f94858111611f9a575b505f90858311600114611f3b575f92611f30575b50505f19600383901b1c191690881b1790555b6009870190611cea6102848a018d61337b565b91908b8311611f1d57908291611d00855461315b565b828111611ecf575b505f918311600114611e70575f92611e65575b50505f19600383901b1c191690871b1790555b600a8601926102a4880135906022190181121561146b5787019360048501359489861161146b5781869101921b3603821361146b57680100000000000000008511611e5357508254848455808510611e2c575b50915f52805f20905f5b848110611e1b57505050505050600b0191611da96102c483016133ae565b166fffffffffffffffffffffffffffffffff196fffffffffffffffff0000000000000000611ddc6102e4865495016133ae565b60401b169216171790557f493172a5da918afdb4e470aad2ba421ac5dd8393bcd81aff0c9ccc69f619099660405180611e163395826133f5565b0390a3005b833583820155928101928501611d8b565b835f528585845f2092830192015b828110611e48575050611d81565b5f8155018690611e3a565b634e487b7160e01b5f5260416004525ffd5b013590508d80611d1b565b899350601f19831691855f52875f20925f5b89828210611eb95750508411611ea0575b505050811b019055611d2e565b01355f19600384901b60f8161c191690558d8080611e93565b8385013586558d97909501949283019201611e82565b90919250845f52865f2083808601881c820192898710611f14575b9186958d9295949301891c01915b828110611f06575050611d08565b5f81558695508c9101611ef8565b92508192611eea565b87634e487b7160e01b5f5260416004525ffd5b013590508e80611cc4565b8a9350601f19831691855f52885f20925f5b8a828210611f845750508411611f6b575b505050811b019055611cd7565b01355f19600384901b60f8161c191690558e8080611f5e565b8385013586558e97909501949283019201611f4d565b909150835f52865f2085808501881c820192898610611fdd575b918c918695949301891c01915b828110611fcf575050611cb0565b5f81558594508c9101611fc1565b92508192611fb4565b86634e487b7160e01b5f5260416004525ffd5b8560405190633e8a1e4160e21b82526004820152fd5b8460405190633e8a1e4160e21b82526004820152fd5b506001548511156119ea565b3461146b57602036600319011261146b575f6102e060405161205281613193565b8281528260208201528260408201528260608201528260808201528260a08201528260c08201528260e08201528261010082015282610120820152826101408201528261016082015282610180820152826101a0820152826101c0820152826101e08201528261020082015282610220820152826102408201526060610260820152606061028082015260606102a0820152826102c082015201526004351515806124eb575b156124d2576004355f52600260205260405f206040519061211882613193565b805463ffffffff8116835263ffffffff8160201c16602084015263ffffffff8160401c166040840152600460ff8260601c1610156124be5760ff9060601c1660608301526001810154608083015260ff600282015463ffffffff811660a0850152612187828260201c16613295565b60201c1660c0830152600381015460e083015260ff600482015463ffffffff811661010085015263ffffffff8160201c1661012085015263ffffffff8160401c1661014085015263ffffffff8160601c1661016085015263ffffffff8160801c1661018085015263ffffffff8160a01c166101a085015263ffffffff8160c01c166101c085015260e01c1615156101e083015263ffffffff60058201541661020083015260068101546102208301526001600160a01b03600782015416610240830152612256600882016131e6565b610260830152612268600982016131e6565b610280830152604051806020600a840154918281520190600a84015f5260205f20905f5b8181106124a8578667ffffffffffffffff600b88886122ad818a03826131c4565b6102a085015201548181166102c084015260401c166102e08201526040516020815263ffffffff825116602082015263ffffffff602083015116604082015263ffffffff604083015116606082015261230e60608301516080830190613288565b608082015160a082015263ffffffff60a08301511660c082015260c082015161233681613295565b60e082015260e082015161010082015263ffffffff6101008301511661012082015263ffffffff6101208301511661014082015263ffffffff6101408301511661016082015263ffffffff6101608301511661018082015263ffffffff610180830151166101a082015263ffffffff6101a0830151166101c082015263ffffffff6101c0830151166101e08201526101e0820151151561020082015263ffffffff610200830151166102208201526102208201516102408201526001600160a01b0361024083015116610260820152610260820151612424610300918261028085015261032084019061329f565b9061244361028085015192601f199384868303016102a087015261329f565b6102a085015192848203016102c0850152602080845192838152019301905f5b8181106124925750505067ffffffffffffffff6102e085826102c0879801511682870152015116908301520390f35b8251855260209485019490920191600101612463565b825484526020909301926001928301920161228c565b634e487b7160e01b5f52602160045260245ffd5b6024604051633e8a1e4160e21b81526004356004820152fd5b5060015460043511156120f8565b3461146b57604036600319011261146b576024356001600160a01b03811680910361146b575f526008602052602060ff60405f2054166040519015158152f35b3461146b57608036600319011261146b576125526130f3565b60243561255d613109565b9060643567ffffffffffffffff811161146b5761257e90369060040161312d565b92909361258b36336136a8565b60095460ff8160081c1661164e576001600160a01b03809160101c1691821561026957169182156102695783156127005763ffffffff169384156126bb5760405180927f874f414500000000000000000000000000000000000000000000000000000000825284600483015285602483015286604483015260806064830152815f8161261f60209b8c976084840191613310565b03925af19384156114605785915f95612668575b508492917f7b8043c22ce41e0e1794bd92378dbf37e79f87ac6b347b584e6ef04ee52296ff91604051908152a4604051908152f35b9450919084813d81116126b4575b61268081836131c4565b8101031261146b579251929084907f7b8043c22ce41e0e1794bd92378dbf37e79f87ac6b347b584e6ef04ee52296ff612633565b503d612676565b606460405163d647364f60e01b815260206004820152601560248201527f5765696768742063616e6e6f74206265207a65726f00000000000000000000006044820152fd5b606460405163d647364f60e01b815260206004820152601060248201527f4d697373696e6720636f686f72744964000000000000000000000000000000006044820152fd5b3461146b57604036600319011261146b5760243560043561276636336136a8565b8015158061281a575b1561115a578115610c8c57805f5260056020528160405f2054036127d557805f52600460205260405f20600160ff1982541617905560056020525f60408120557f7ffae721983994812770c99f4f10d1cfc94bc4b5d28b08e6ce84a796fefaa3a75f80a3005b606460405163d647364f60e01b815260206004820152601560248201527f50726f706f73616c20726566206d69736d6174636800000000000000000000006044820152fd5b5060015481111561276f565b3461146b57604036600319011261146b5761283f6130f3565b6001600160a01b0361284f6132dd565b9161285a36336136a8565b16801561026957805f5260036020526128828260405f209060ff801983541691151516179055565b60405191151582527f6e0f223019887734edb3e629fad26bad6ceeb5108f25ae46e5c762fe264517c160203393a3005b3461146b575f36600319011261146b575f600190600154915b828111156129b257506128f66128e082613352565b916128ee60405193846131c4565b808352613352565b6020928383019291601f19013684375f60015b82811115612954575050509060405192839281840190828552518091526040840192915f5b82811061293d57505050500390f35b83518552869550938101939281019260010161292e565b805f526004865260ff60405f205416612976575b61297190613330565b612909565b9061298081613330565b91845182101561299e5780876129719360051b870101529050612968565b634e487b7160e01b5f52603260045260245ffd5b805f52600460205260ff60405f2054166129d5575b6129d090613330565b6128cb565b906129e26129d091613330565b9190506129c7565b3461146b5760e036600319011261146b57612a036130f3565b602435612a0e613109565b906064359267ffffffffffffffff9081851680950361146b576084359180831680930361146b5760a4359060ff821680920361146b5760c43590811161146b57612a5c90369060040161312d565b939096612a6936336136a8565b60095460ff8160081c1661164e576001600160a01b03809160101c169485156102695716948515610269578615612c52578115612c0d57818310612bc85763ffffffff976040519889917fac701fb800000000000000000000000000000000000000000000000000000000835288600484015289602484015216958660448301528360648301528460848301528560a483015260e060c4830152815f81612b1860209e8f9760e4840191613310565b03925af1968715611460575f97612b71575b50927fe445780dcbd2ad8cc945215ffea2169bd0e452d2f0add6782ce444797b2ee9cb926080928896956040519384528a84015260408301526060820152a4604051908152f35b91965093928782813d8311612bc1575b612b8b81836131c4565b8101031261146b5790519592939092907fe445780dcbd2ad8cc945215ffea2169bd0e452d2f0add6782ce444797b2ee9cb612b2a565b503d612b81565b606460405163d647364f60e01b815260206004820152601760248201527f656e6465644174206265666f72652069737375656441740000000000000000006044820152fd5b606460405163d647364f60e01b815260206004820152601060248201527f4d697373696e67206973737565644174000000000000000000000000000000006044820152fd5b606460405163d647364f60e01b815260206004820152601260248201527f4d697373696e6720726f6c6554797065496400000000000000000000000000006044820152fd5b3461146b57602036600319011261146b576004355f526005602052602060405f2054604051908152f35b3461146b57604036600319011261146b57612cda6130f3565b6001600160a01b03612cea6132dd565b91612cf536336136a8565b169081156102695761145e915f52600760205260405f209060ff801983541691151516179055565b3461146b57602036600319011261146b576004355f52600260205260405f20805460018201549160028101549060038101546004820154600583015463ffffffff1660068401549060078501546001600160a01b03169260088601612d81906131e6565b94612d8e600988016131e6565b96600b0154976040519a8a63ffffffff8d9c168c528060201c63ffffffff1660208d01528060401c63ffffffff1660408d015260608c019060601c60ff1690612dd691613288565b60808b015263ffffffff811660a08b01528060201c60ff16612df790613295565b60201c60ff1660c08a015260e089015263ffffffff81166101008901528060201c63ffffffff166101208901528060401c63ffffffff166101408901528060601c63ffffffff166101608901528060801c63ffffffff166101808901528060a01c63ffffffff166101a08901528060c01c63ffffffff166101c089015260e01c60ff1615156101e088015261020087015261022086015261024085015261026084016102e090526102e08401612eac9161329f565b838103610280850152612ebe9161329f565b9067ffffffffffffffff81166102a084015260401c67ffffffffffffffff166102c08301520390f35b3461146b57608036600319011261146b57612f006130f3565b602435612f0b613109565b9060643567ffffffffffffffff811161146b57612f2c90369060040161312d565b929093612f3936336136a8565b60095460ff8160081c1661164e576001600160a01b03809160101c1691821561026957169182156102695783156130ae5763ffffffff169384156130695760405180927f6a4bff2300000000000000000000000000000000000000000000000000000000825284600483015285602483015286604483015260806064830152815f81612fcd60209b8c976084840191613310565b03925af19384156114605785915f95613016575b508492917f554dfed9e991f9e5ac3172a909c508958a35fc35bb05650bd8952f2a5db6c6e091604051908152a4604051908152f35b9450919084813d8111613062575b61302e81836131c4565b8101031261146b579251929084907f554dfed9e991f9e5ac3172a909c508958a35fc35bb05650bd8952f2a5db6c6e0612fe1565b503d613024565b606460405163d647364f60e01b815260206004820152601560248201527f506f696e74732063616e6e6f74206265207a65726f00000000000000000000006044820152fd5b606460405163d647364f60e01b815260206004820152601660248201527f4d697373696e6720706f736974696f6e547970654964000000000000000000006044820152fd5b600435906001600160a01b038216820361146b57565b6044359063ffffffff8216820361146b57565b359063ffffffff8216820361146b57565b9181601f8401121561146b5782359167ffffffffffffffff831161146b576020838186019501011161146b57565b90600182811c92168015613189575b602083101461317557565b634e487b7160e01b5f52602260045260245ffd5b91607f169161316a565b610300810190811067ffffffffffffffff821117610e9857604052565b67ffffffffffffffff8111610e9857604052565b90601f8019910116810190811067ffffffffffffffff821117610e9857604052565b9060405191825f82546131f88161315b565b908184526020946001916001811690815f146132665750600114613228575b505050613226925003836131c4565b565b5f90815285812095935091905b81831061324e57505061322693508201015f8080613217565b85548884018501529485019487945091830191613235565b9250505061322694925060ff191682840152151560051b8201015f8080613217565b9060048210156124be5752565b600511156124be57565b91908251928382525f5b8481106132c9575050825f602080949584010152601f8019910116010190565b6020818301810151848301820152016132a9565b60243590811515820361146b57565b60043590811515820361146b57565b359067ffffffffffffffff8216820361146b57565b908060209392818452848401375f828201840152601f01601f1916010190565b5f19811461333e5760010190565b634e487b7160e01b5f52601160045260245ffd5b67ffffffffffffffff8111610e985760051b60200190565b3563ffffffff8116810361146b5790565b903590601e198136030182121561146b570180359067ffffffffffffffff821161146b5760200191813603831361146b57565b3567ffffffffffffffff8116810361146b5790565b9035601e198236030181121561146b57016020813591019167ffffffffffffffff821161146b57813603831361146b57565b60209182825263ffffffff8061340a8361311c565b16848401528061341b85840161311c565b1660408401528061342e6040840161311c565b1660608401526060820135600481101561146b57613450906080850190613288565b608082013560a08401528061346760a0840161311c565b1660c084015260c0820135600581101561146b5761348481613295565b60e08401526135176135066134f56134e46134d36134c26134b161010060e08a0135818c0152890161311c565b876101209116818b0152880161311c565b866101409116818a0152870161311c565b85610160911681890152860161311c565b84610180911681880152850161311c565b836101a0911681870152840161311c565b826101c0911681860152830161311c565b816101e091168185015282013580151580910361146b57613541906102009081860152830161311c565b906102209116818401526102409082013581840152810135916001600160a01b03831680930361146b576135826135c39361026090818401528301836133c3565b926135aa6135a161030093610280968588880152610320870191613310565b948201826133c3565b959094601f19966102a096888784030188880152613310565b93810135601e198236030181121561146b5781019486863596019167ffffffffffffffff9283881161146b578760051b97883603821361146b577f07ffffffffffffffffffffffffffffffffffffffffffffffffffffffffffffff906102c094888a0301858901528089521161146b576136589288613647928b8a013782016132fb565b90836102e0921682870152016132fb565b16910152010190565b9060038210156124be5752565b519063ffffffff8216820361146b57565b519067ffffffffffffffff8216820361146b57565b51906001600160a01b038216820361146b57565b5f915f54916001600160a01b0390818416928060041161146b575f8060409485519060208201957fb700961300000000000000000000000000000000000000000000000000000000875216948560248301523060448301527fffffffff000000000000000000000000000000000000000000000000000000005f351660648301526064825260a082019082821067ffffffffffffffff831117610e985787925f928452828052826020525190895afa613869575b1561376b575b50505050505050565b63ffffffff161561385357740100000000000000000000000000000000000000007fffffffffffffffffffffff00ffffffffffffffffffffffffffffffffffffffff809616175f55833b1561146b576064935f928385519687809581947f94c7d7ee00000000000000000000000000000000000000000000000000000000835260048301528860248301528060448301528084848401378181018301849052601f01601f191681010301925af190811561384a5750613837575b5081541690555f808080808080613762565b6138429192506131b0565b5f905f613825565b513d5f823e3d90fd5b50602491519062d1953b60e31b82526004820152fd5b50505f516020518060201c15029061375c565b63ffffffff908161388c8261336a565b1615613b5d576101008101826138a18261336a565b1615613b1857610120820190836138b78361336a565b1615613ad357836138d16138cb829361336a565b9361336a565b16911611613a6857816138e7610140830161336a565b1615613a2357612710826138fe610180840161336a565b16116139de5761391261026082018261337b565b905015613973576101a0613926910161336a565b161561392e57565b606460405163d647364f60e01b815260206004820152601e60248201527f436f6f6c646f776e20706572696f642063616e6e6f74206265207a65726f00006044820152fd5b608460405163d647364f60e01b815260206004820152602160248201527f45766964656e63652073706563204349442063616e6e6f7420626520656d707460448201527f79000000000000000000000000000000000000000000000000000000000000006064820152fd5b606460405163d647364f60e01b815260206004820152601d60248201527f536c61736820726174652063616e6e6f742065786365656420313030250000006044820152fd5b606460405163d647364f60e01b815260206004820152601c60248201527f5665726966792077696e646f772063616e6e6f74206265207a65726f000000006044820152fd5b608460405163d647364f60e01b815260206004820152602760248201527f4d696e696d756d206a75726f72732063616e6e6f74206578636565642070616e60448201527f656c2073697a65000000000000000000000000000000000000000000000000006064820152fd5b606460405163d647364f60e01b815260206004820152601960248201527f50616e656c2073697a652063616e6e6f74206265207a65726f000000000000006044820152fd5b606460405163d647364f60e01b815260206004820152601d60248201527f4d696e696d756d206a75726f72732063616e6e6f74206265207a65726f0000006044820152fd5b608460405163d647364f60e01b815260206004820152602560248201527f4d656d62657273686970546f6b656e207265776172642063616e6e6f7420626560448201527f207a65726f0000000000000000000000000000000000000000000000000000006064820152fdfea264697066735822122096bc3ca3c0963547034c5228fda9bb68bc8703af3eac2e5052ddf2fd1631ae2164736f6c63430008180033","linkReferences":{}},"methodIdentifiers":{"activateFromGovernance(uint256,bytes32)":"408a6802","addFounder(address)":"ef4ec047","authority()":"bf7e214f","closePositionToken(uint256,uint8)":"8045303d","communityByActionId(uint256)":"a2e7b04c","communityId()":"7f50861a","communityNarrowingEnabled(uint256)":"9de1e191","communityRegistry()":"a200ac86","deactivate(uint256)":"916b9bef","founderWhitelist(address,uint256)":"e148bb48","getActiveValuableActions()":"3bc87c9c","getCommunityFounders(uint256)":"a8db7912","getValuableAction(uint256)":"5cfdb862","isActive(uint256)":"82afd23b","isCommunityIssuanceModule(uint256,address)":"47573c2b","isConsumingScheduledOp()":"8fb36037","isIssuanceModule(address)":"a90e069e","isModerator(address)":"fa6f3936","isValuableActionActive(uint256)":"e9ea801c","issuancePaused()":"c691af92","issueEngagement(address,uint8,bytes32,bytes)":"71304940","issueInvestment(address,uint256,uint32,bytes)":"4104c3be","issuePosition(address,bytes32,uint32,bytes)":"041848f9","issueRoleFromPosition(address,bytes32,uint32,uint64,uint64,uint8,bytes)":"2f1ec91c","lastId()":"c1292cc3","pendingValuableActions(uint256)":"2262fd9d","proposalRefUsed(bytes32)":"ff3a41ab","proposeValuableAction((uint32,uint32,uint32,uint8,bytes32,uint32,uint8,bytes32,uint32,uint32,uint32,uint32,uint32,uint32,uint32,bool,uint32,uint256,address,string,string,bytes32[],uint64,uint64),bytes32)":"e610e6dd","setAuthority(address)":"7a9e5e4b","setCommunityIssuanceModule(address,bool)":"e08d5b8a","setCommunityNarrowing(bool)":"7d0df1be","setIssuanceModule(address,bool)":"14f1d4f1","setIssuancePaused(bool)":"c6ffb6cb","setModerator(address,bool)":"3ee2b01d","setValuableActionSBT(address)":"ff012a43","update(uint256,(uint32,uint32,uint32,uint8,bytes32,uint32,uint8,bytes32,uint32,uint32,uint32,uint32,uint32,uint32,uint32,bool,uint32,uint256,address,string,string,bytes32[],uint64,uint64))":"6da7a0ba","valuableActionSBT()":"e8901184","valuableActionsById(uint256)":"0c5940fd"},"id":26}