{"abi":[{"type":"constructor","inputs":[{"name":"manager","type":"address","internalType":"address"},{"name":"_verifierElection","type":"address","internalType":"address"},{"name":"_paramController","type":"address","internalType":"address"}],"stateMutability":"nonpayable"},{"type":"function","name":"MAX_WEIGHT_PER_VERIFIER","inputs":[],"outputs":[{"name":"","type":"bytes32","internalType":"bytes32"}],"stateMutability":"view"},{"type":"function","name":"USE_VPT_WEIGHTING","inputs":[],"outputs":[{"name":"","type":"bytes32","internalType":"bytes32"}],"stateMutability":"view"},{"type":"function","name":"VERIFIER_MIN","inputs":[],"outputs":[{"name":"","type":"bytes32","internalType":"bytes32"}],"stateMutability":"view"},{"type":"function","name":"VERIFIER_PANEL_SIZE","inputs":[],"outputs":[{"name":"","type":"bytes32","internalType":"bytes32"}],"stateMutability":"view"},{"type":"function","name":"authority","inputs":[],"outputs":[{"name":"","type":"address","internalType":"address"}],"stateMutability":"view"},{"type":"function","name":"getEligibleVerifierCount","inputs":[{"name":"communityId","type":"uint256","internalType":"uint256"}],"outputs":[{"name":"","type":"uint256","internalType":"uint256"}],"stateMutability":"view"},{"type":"function","name":"getJurorSelection","inputs":[{"name":"engagementId","type":"uint256","internalType":"uint256"}],"outputs":[{"name":"selection","type":"tuple","internalType":"struct VerifierManager.JurorSelection","components":[{"name":"selectedJurors","type":"address[]","internalType":"address[]"},{"name":"selectedPowers","type":"uint256[]","internalType":"uint256[]"},{"name":"seed","type":"uint256","internalType":"uint256"},{"name":"selectedAt","type":"uint64","internalType":"uint64"},{"name":"completed","type":"bool","internalType":"bool"}]}],"stateMutability":"view"},{"type":"function","name":"getSelectedJurors","inputs":[{"name":"engagementId","type":"uint256","internalType":"uint256"}],"outputs":[{"name":"jurors","type":"address[]","internalType":"address[]"},{"name":"powers","type":"uint256[]","internalType":"uint256[]"}],"stateMutability":"view"},{"type":"function","name":"getVerifierPower","inputs":[{"name":"verifier","type":"address","internalType":"address"},{"name":"communityId","type":"uint256","internalType":"uint256"}],"outputs":[{"name":"power","type":"uint256","internalType":"uint256"}],"stateMutability":"view"},{"type":"function","name":"hasVerifierPower","inputs":[{"name":"verifier","type":"address","internalType":"address"},{"name":"communityId","type":"uint256","internalType":"uint256"}],"outputs":[{"name":"","type":"bool","internalType":"bool"}],"stateMutability":"view"},{"type":"function","name":"isConsumingScheduledOp","inputs":[],"outputs":[{"name":"","type":"bytes4","internalType":"bytes4"}],"stateMutability":"view"},{"type":"function","name":"paramController","inputs":[],"outputs":[{"name":"","type":"address","internalType":"contract IParamController"}],"stateMutability":"view"},{"type":"function","name":"reportFraud","inputs":[{"name":"engagementId","type":"uint256","internalType":"uint256"},{"name":"communityId","type":"uint256","internalType":"uint256"},{"name":"offenders","type":"address[]","internalType":"address[]"},{"name":"evidenceCID","type":"string","internalType":"string"}],"outputs":[],"stateMutability":"nonpayable"},{"type":"function","name":"selectJurors","inputs":[{"name":"engagementId","type":"uint256","internalType":"uint256"},{"name":"communityId","type":"uint256","internalType":"uint256"},{"name":"panelSize","type":"uint256","internalType":"uint256"},{"name":"seed","type":"uint256","internalType":"uint256"},{"name":"useWeighting","type":"bool","internalType":"bool"}],"outputs":[{"name":"selectedJurors","type":"address[]","internalType":"address[]"}],"stateMutability":"nonpayable"},{"type":"function","name":"selections","inputs":[{"name":"","type":"uint256","internalType":"uint256"}],"outputs":[{"name":"seed","type":"uint256","internalType":"uint256"},{"name":"selectedAt","type":"uint64","internalType":"uint64"},{"name":"completed","type":"bool","internalType":"bool"}],"stateMutability":"view"},{"type":"function","name":"setAuthority","inputs":[{"name":"newAuthority","type":"address","internalType":"address"}],"outputs":[],"stateMutability":"nonpayable"},{"type":"function","name":"verifierElection","inputs":[],"outputs":[{"name":"","type":"address","internalType":"contract IVerifierElection"}],"stateMutability":"view"},{"type":"event","name":"AuthorityUpdated","inputs":[{"name":"authority","type":"address","indexed":false,"internalType":"address"}],"anonymous":false},{"type":"event","name":"FraudReported","inputs":[{"name":"engagementId","type":"uint256","indexed":true,"internalType":"uint256"},{"name":"communityId","type":"uint256","indexed":true,"internalType":"uint256"},{"name":"offenders","type":"address[]","indexed":false,"internalType":"address[]"},{"name":"evidenceCID","type":"string","indexed":false,"internalType":"string"}],"anonymous":false},{"type":"event","name":"JurorsSelected","inputs":[{"name":"engagementId","type":"uint256","indexed":true,"internalType":"uint256"},{"name":"communityId","type":"uint256","indexed":true,"internalType":"uint256"},{"name":"jurors","type":"address[]","indexed":false,"internalType":"address[]"},{"name":"powers","type":"uint256[]","indexed":false,"internalType":"uint256[]"},{"name":"seed","type":"uint256","indexed":false,"internalType":"uint256"},{"name":"weighted","type":"bool","indexed":false,"internalType":"bool"}],"anonymous":false},{"type":"error","name":"AccessManagedInvalidAuthority","inputs":[{"name":"authority","type":"address","internalType":"address"}]},{"type":"error","name":"AccessManagedRequiredDelay","inputs":[{"name":"caller","type":"address","internalType":"address"},{"name":"delay","type":"uint32","internalType":"uint32"}]},{"type":"error","name":"AccessManagedUnauthorized","inputs":[{"name":"caller","type":"address","internalType":"address"}]},{"type":"error","name":"InsufficientVerifiers","inputs":[{"name":"available","type":"uint256","internalType":"uint256"},{"name":"required","type":"uint256","internalType":"uint256"}]},{"type":"error","name":"InvalidInput","inputs":[{"name":"reason","type":"string","internalType":"string"}]},{"type":"error","name":"ZeroAddress","inputs":[]}],"bytecode":{"object":"0x60c0346200015157601f62001bca38819003918201601f191683019291906001600160401b03841183851017620001555781606092849260409687528339810103126200015157620000518162000169565b6200006c83620000646020850162000169565b930162000169565b5f80546001600160a01b0319166001600160a01b0393841690811790915584518181529193917f2f658b440c35314f52658ea8a740e05b284cdc84dc9ae01e891f21b8933e7cad90602090a115620001405781169182156200014057169081156200012f5760805260a05251611a4b90816200017f82396080518181816103fa015281816104a80152818161091f01528181610ad00152611431015260a05181818161016e01528181610b2001528181610bd90152818161107d01526112840152f35b825163d92e233d60e01b8152600490fd5b835163d92e233d60e01b8152600490fd5b5f80fd5b634e487b7160e01b5f52604160045260245ffd5b51906001600160a01b0382168203620001515756fe6080806040526004361015610012575f80fd5b5f3560e01c90816332d6aaa0146114de57508063611eb6ac146114a457806363082b5b14611407578063705ac2f014610a615780637a9e5e4b1461098c57806385199020146108a95780638fb36037146108365780639f0e661a14610506578063ad4c0591146104cc578063b996d44e14610489578063bf7e214f14610464578063cc2d2631146103c5578063d02b3fba146102ec578063d04127bc14610192578063d0d1854d1461014f578063e79f923c146101155763e8732e57146100d7575f80fd5b34610111575f3660031901126101115760206040517f573243d7ea8f9f273e2bfef517366429acf64a49eab8904d3be1983503a5a51f8152f35b5f80fd5b34610111575f3660031901126101115760206040517fe5531c8ad39fc55e35fc114f9d52e71a35b94188eb694a232ae515b034e4fca68152f35b34610111575f3660031901126101115760206040516001600160a01b037f0000000000000000000000000000000000000000000000000000000000000000168152f35b3461011157602080600319360112610111575f60806040516101b3816115b1565b6060815260608482015282604082015282606082015201526004355f52600180825260405f206040516101e5816115b1565b6101ee8261177e565b81526001820160405190818682549182815201915f52865f20905f5b8181106102d957505050816102209103826115e9565b84820190815260036002840154936040840194855201549167ffffffffffffffff916060820196838516885260ff608084019560401c16151585526040519681885260c0880193519360a0838a015284518091528260e08a019501925f5b8281106102bd5750505050508596916102a39151601f1988830301604089015261157e565b935160608601525116608084015251151560a08301520390f35b84516001600160a01b031687529581019593810193830161027e565b825484529288019291870191870161020a565b3461011157602080600319360112610111576004355f52600180825260405f2060405190610319826115b1565b6103228161177e565b82526001810160405180948683549283815201925f52865f20915f5b8181106103b2576103a1886103ae8b8a60ff60038c61035f878e03886115e9565b868585015260028101546040850152015467ffffffffffffffff8116606084015260401c16151560808201525192604051948594604086526040860190611542565b918483039085015261157e565b0390f35b835485529388019392820192820161033e565b346101115760203660031901126101115760405163d2251cbf60e01b815260043560048201525f816024816001600160a01b037f0000000000000000000000000000000000000000000000000000000000000000165afa8015610459576020915f91610436575b5051604051908152f35b61045291503d805f833e61044a81836115e9565b810190611659565b508261042c565b6040513d5f823e3d90fd5b34610111575f3660031901126101115760206001600160a01b035f5416604051908152f35b34610111575f3660031901126101115760206040516001600160a01b037f0000000000000000000000000000000000000000000000000000000000000000168152f35b34610111575f3660031901126101115760206040517f4603c93892940d6a21d52bcd45d10362f0a941707bd9ea851a75a452142e57518152f35b3461011157608036600319011261011157604467ffffffffffffffff9081604435116101115736602360443501121561011157816044356004013511610111576005903660246044356004013560051b604435010111610111576064928060643511610111573660236064350112156101115760643560040135116101115736602460643560040135606435010111610111576105a336336117eb565b60443560040135156107f1576004355f52600160205260ff600360405f20015460401c16156107ac576004355f5260016020526105e260405f2061177e565b925f935b604435600401358510156106e2575f935f5b82518110156106d857604435600401358710156106c457602487831b6044350101356001600160a01b038082168092036101115761063683866117d7565b511614610645576001016105f8565b5093509360015b1561065a57600101936105e6565b6084837f6f72000000000000000000000000000000000000000000000000000000000000847f4f6666656e64657220776173206e6f742073656c6563746564206173206a75726040519363d647364f60e01b85526020600486015260226024860152840152820152fd5b634e487b7160e01b5f52603260045260245ffd5b509394909461064c565b6040516040810160408252604435600401359052606081016024604435015f5b60443560040135811061078357505081810360208301526064356004013581526064356004013560246064350160208301375f602060643560040135830101527f65351422d3e5886b416a6c0314a3a1ddac4a0bc3aea8ff00c760336685c705ea6024359260208160043594601f19601f60643560040135011601030190a3005b90918235906001600160a01b038216809203610111576020816001938293520193019101610702565b606460405163d647364f60e01b815260206004820152602060248201527f4e6f206a7572792073656c656374696f6e20666f7220656e676167656d656e746044820152fd5b606460405163d647364f60e01b815260206004820152601560248201527f4e6f206f6666656e646572732070726f766964656400000000000000000000006044820152fd5b34610111575f366003190112610111575f5460a01c60ff16156108a15760207f8fb36037000000000000000000000000000000000000000000000000000000005b7fffffffff0000000000000000000000000000000000000000000000000000000060405191168152f35b60205f610877565b346101115760403660031901126101115761091360606108c761152c565b604051809381927fc03acb43000000000000000000000000000000000000000000000000000000008352602435600484019092916001600160a01b036020916040840195845216910152565b03816001600160a01b037f0000000000000000000000000000000000000000000000000000000000000000165afa8015610459576020915f9161095a575b50604051908152f35b61097c915060603d606011610985575b61097481836115e9565b810190611618565b50905082610951565b503d61096a565b34610111576020366003190112610111576109a561152c565b5f54906001600160a01b03908183163303610a4b57803b15610a19577f2f658b440c35314f52658ea8a740e05b284cdc84dc9ae01e891f21b8933e7cad926020927fffffffffffffffffffffffff0000000000000000000000000000000000000000921691829116175f55604051908152a1005b602491604051917fc2f31e5e000000000000000000000000000000000000000000000000000000008352166004820152fd5b602460405162d1953b60e31b8152336004820152fd5b346101115760a036600319011261011157608435801515810361011157610a8836336117eb565b604435156113c2576004355f52600160205260ff600360405f20015460401c166113575760405163d2251cbf60e01b815260243560048201525f816024816001600160a01b037f0000000000000000000000000000000000000000000000000000000000000000165afa918215610459575f915f93611339575b5081511561131c57815180604435116112fe57506001600160a01b037f000000000000000000000000000000000000000000000000000000000000000016611220575b435f19810111610fe8576040516064356020820152600435604082015260243560608201524460808201525f1943014060a08201523060c08201523360e082015260e081528061010081011067ffffffffffffffff61010083011117610ea25761010081016040526020815191012090805f146110f557610bc76044356119b8565b93610bd36044356119b8565b925f19927f00000000000000000000000000000000000000000000000000000000000000006001600160a01b0316611019575b610c1086516119b8565b965f95865b8851881015610c9757610c6660019188610c2f8b8a6117d7565b511115610c815788610c418b8e6117d7565b52898c610c4e82826117d7565b5115610c6e575b90610c5f916117d7565b5190611a08565b970196610c15565b8491610c79916117d7565b52898c610c55565b8b610c418b610c90818c6117d7565b51926117d7565b9491965094509690959196825190610cae82611641565b91610cbc60405193846115e9565b808352610ccb601f1991611641565b013660208401375f935b6044358510610ed35750505050505090915b60405193610cf4856115b1565b838552826020860152604085015267ffffffffffffffff42166060850152600160808501526004355f52600160205260405f2093805180519067ffffffffffffffff8211610ea257680100000000000000008211610ea257602090610d5e838954818b558a61174d565b01865f5260205f205f5b838110610eb6575050505060208101519485519567ffffffffffffffff8711610ea257680100000000000000008711610ea25760018201805488825560209291610db3918a9161174d565b0195600182015f5260205f20965f5b828110610e8e575050506103ae955060039060408301516002820155019067ffffffffffffffff60608201511668ff000000000000000060808454930151151560401b169168ffffffffffffffffff191617179055610e3d6040519260808452610e2f6080850186611542565b90848203602086015261157e565b906064356040840152151560608301527f3aeb57dea3a3b20f91e2722eac7740c82d7c550752c910888797c03c02233bd26024359280600435930390a3604051918291602083526020830190611542565b60019060208351930192818b015501610dc2565b634e487b7160e01b5f52604160045260245ffd5b60019060206001600160a01b038551169401938184015501610d68565b9092949691939598610f388860405160208101908482528a6040820152606080820152600860808201527f776569676874656400000000000000000000000000000000000000000000000060a082015260a08152610f30816115cd565b5190206119ea565b905f90815b845183101561100557610f5083896117d7565b51610ffc57610f6390610c5f848b6117d7565b91828410610f76576001905b0191610f3d565b909b9896939794999250610fcd91506001600160a01b03610f97828a6117d7565b5116610fa3888c6117d7565b52610fae81876117d7565b51610fb9888b6117d7565b526001610fc682866117d7565b52846117d7565b518103908111610fe857600190945b01939492909192610cd5565b634e487b7160e01b5f52601160045260245ffd5b91600190610f6f565b509a97905060019150979491959297610fdc565b6040517f6a06295400000000000000000000000000000000000000000000000000000000815260243560048201527f4603c93892940d6a21d52bcd45d10362f0a941707bd9ea851a75a452142e575160248201526020816044816001600160a01b037f0000000000000000000000000000000000000000000000000000000000000000165afa5f91816110c1575b506110b3575b50610c06565b80156110ad579350876110ad565b9091506020813d6020116110ed575b816110dd602093836115e9565b81010312610111575190896110a7565b3d91506110d0565b6111006044356119b8565b61110b6044356119b8565b61111585516119b8565b955f5b865181101561113657808061112f6001938b6117d7565b5201611118565b50919395949092948151915f925b60443584106111595750505050509091610ce7565b6111ae8160405160208101908c8252876040820152606080820152600760808201527f756e69666f726d0000000000000000000000000000000000000000000000000060a082015260a08152610f30816115cd565b906111e26111bc83866117d7565b516001600160a01b036111cf82876117d7565b51166111db888c6117d7565b52876117d7565b516111ed86896117d7565b525f19810191818311610fe85761120f61120784876117d7565b5191866117d7565b5215610fe857600190930192611144565b6040517fcc30e90f00000000000000000000000000000000000000000000000000000000815260243560048201527fc223fd96ca0738ce706226f502e5db69bfc1d1121c61f95f1dd3613ea8b964c160248201526020816044816001600160a01b037f0000000000000000000000000000000000000000000000000000000000000000165afa5f91816112c2575b506112ba575b50610b45565b9050836112b4565b9091506020813d6020116112f6575b816112de602093836115e9565b81010312610111576112ef9061160b565b90856112ae565b3d91506112d1565b6044906040519062d73f6360e21b8252600482015281356024820152fd5b604460405162d73f6360e21b81525f600482015281356024820152fd5b90925061135091503d805f833e61044a81836115e9565b9183610b02565b608460405163d647364f60e01b815260206004820152602660248201527f4a75726f727320616c72656164792073656c656374656420666f7220656e676160448201527f67656d656e7400000000000000000000000000000000000000000000000000006064820152fd5b606460405163d647364f60e01b815260206004820152601960248201527f50616e656c2073697a652063616e6e6f74206265207a65726f000000000000006044820152fd5b346101115760403660031901126101115761142560606108c761152c565b03816001600160a01b037f0000000000000000000000000000000000000000000000000000000000000000165afa908115610459576020915f915f91611481575b5081611478575b506040519015158152f35b9050158261146d565b905061149c915060603d6060116109855761097481836115e9565b905083611466565b34610111575f3660031901126101115760206040517fc223fd96ca0738ce706226f502e5db69bfc1d1121c61f95f1dd3613ea8b964c18152f35b34610111576020366003190112610111576060906004355f52600160205260ff60405f206003600282015491015490835267ffffffffffffffff8116602084015260401c1615156040820152f35b600435906001600160a01b038216820361011157565b9081518082526020808093019301915f5b828110611561575050505090565b83516001600160a01b031685529381019392810192600101611553565b9081518082526020808093019301915f5b82811061159d575050505090565b83518552938101939281019260010161158f565b60a0810190811067ffffffffffffffff821117610ea257604052565b60c0810190811067ffffffffffffffff821117610ea257604052565b90601f8019910116810190811067ffffffffffffffff821117610ea257604052565b5190811515820361011157565b908160609103126101115761162c8161160b565b9161163e60406020840151930161160b565b90565b67ffffffffffffffff8111610ea25760051b60200190565b919060408382031261011157825167ffffffffffffffff908181116101115784019082601f8301121561011157815160209261169482611641565b916116a260405193846115e9565b808352848084019160051b83010191868311610111578501905b82821061172e57505050948281015191821161011157019180601f840112156101115782516116ea81611641565b936116f860405195866115e9565b818552838086019260051b820101928311610111578301905b82821061171f575050505090565b81518152908301908301611711565b81516001600160a01b03811681036101115781529085019085016116bc565b91909182821061175c57505050565b5f5260205f2091820191015b818110611773575050565b5f8155600101611768565b90604051918281549182825260209260208301915f5260205f20935f905b8282106117b4575050506117b2925003836115e9565b565b85546001600160a01b03168452600195860195889550938101939091019061179c565b80518210156106c45760209160051b010190565b5f915f54916001600160a01b038084169280600411610111575f92838491604095869182519660208801917fb700961300000000000000000000000000000000000000000000000000000000835216968760248201523060448201527fffffffff0000000000000000000000000000000000000000000000000000000083351660648201526064815261187d816115b1565b828052826020525190895afa6119a5575b1561189d575b50505050505050565b63ffffffff161561198f57740100000000000000000000000000000000000000007fffffffffffffffffffffff00ffffffffffffffffffffffffffffffffffffffff809616175f55833b15610111576064935f928385519687809581947f94c7d7ee00000000000000000000000000000000000000000000000000000000835260048301528860248301528060448301528084848401378181018301849052601f01601f191681010301925af1801561198557611968575b505081541690555f808080808080611894565b9091925067ffffffffffffffff8211610ea257525f905f80611955565b50513d5f823e3d90fd5b50602491519062d1953b60e31b82526004820152fd5b50505f516020518060201c15029061188e565b906119c282611641565b6119cf60405191826115e9565b82815280926119e0601f1991611641565b0190602036910137565b81156119f4570690565b634e487b7160e01b5f52601260045260245ffd5b91908201809211610fe85756fea264697066735822122079524e24f12d02dd5f48f9fee5c8274b87e691daa18fbf1ebeef5c611ec4fe9b64736f6c63430008180033","linkReferences":{}},"methodIdentifiers":{"MAX_WEIGHT_PER_VERIFIER()":"ad4c0591","USE_VPT_WEIGHTING()":"611eb6ac","VERIFIER_MIN()":"e8732e57","VERIFIER_PANEL_SIZE()":"e79f923c","authority()":"bf7e214f","getEligibleVerifierCount(uint256)":"cc2d2631","getJurorSelection(uint256)":"d04127bc","getSelectedJurors(uint256)":"d02b3fba","getVerifierPower(address,uint256)":"85199020","hasVerifierPower(address,uint256)":"63082b5b","isConsumingScheduledOp()":"8fb36037","paramController()":"d0d1854d","reportFraud(uint256,uint256,address[],string)":"9f0e661a","selectJurors(uint256,uint256,uint256,uint256,bool)":"705ac2f0","selections(uint256)":"32d6aaa0","setAuthority(address)":"7a9e5e4b","verifierElection()":"b996d44e"},"id":9}