{"abi":[{"type":"constructor","inputs":[{"name":"manager","type":"address","internalType":"address"},{"name":"_vpt","type":"address","internalType":"address"},{"name":"_communityId","type":"uint256","internalType":"uint256"}],"stateMutability":"nonpayable"},{"type":"function","name":"adjustVerifierPower","inputs":[{"name":"verifier","type":"address","internalType":"address"},{"name":"newPower","type":"uint256","internalType":"uint256"},{"name":"reasonCID","type":"string","internalType":"string"}],"outputs":[],"stateMutability":"nonpayable"},{"type":"function","name":"authority","inputs":[],"outputs":[{"name":"","type":"address","internalType":"address"}],"stateMutability":"view"},{"type":"function","name":"banVerifiers","inputs":[{"name":"offenders","type":"address[]","internalType":"address[]"},{"name":"reasonCID","type":"string","internalType":"string"}],"outputs":[],"stateMutability":"nonpayable"},{"type":"function","name":"bannedTimestamp","inputs":[{"name":"verifier","type":"address","internalType":"address"}],"outputs":[{"name":"","type":"uint64","internalType":"uint64"}],"stateMutability":"view"},{"type":"function","name":"bannedVerifiers","inputs":[{"name":"verifier","type":"address","internalType":"address"}],"outputs":[{"name":"","type":"bool","internalType":"bool"}],"stateMutability":"view"},{"type":"function","name":"communityId","inputs":[],"outputs":[{"name":"","type":"uint256","internalType":"uint256"}],"stateMutability":"view"},{"type":"function","name":"getBanInfo","inputs":[{"name":"verifier","type":"address","internalType":"address"}],"outputs":[{"name":"isBanned","type":"bool","internalType":"bool"},{"name":"bannedAt","type":"uint64","internalType":"uint64"}],"stateMutability":"view"},{"type":"function","name":"getCommunityStats","inputs":[],"outputs":[{"name":"totalVerifiers","type":"uint256","internalType":"uint256"},{"name":"activeVerifiers","type":"uint256","internalType":"uint256"},{"name":"totalPower","type":"uint256","internalType":"uint256"},{"name":"averagePower","type":"uint256","internalType":"uint256"}],"stateMutability":"view"},{"type":"function","name":"getEligibleVerifiers","inputs":[],"outputs":[{"name":"eligibleVerifiers","type":"address[]","internalType":"address[]"},{"name":"eligiblePowers","type":"uint256[]","internalType":"uint256[]"}],"stateMutability":"view"},{"type":"function","name":"getVerifierSet","inputs":[],"outputs":[{"name":"verifiers","type":"address[]","internalType":"address[]"},{"name":"powers","type":"uint256[]","internalType":"uint256[]"},{"name":"totalPower","type":"uint256","internalType":"uint256"},{"name":"lastUpdated","type":"uint64","internalType":"uint64"},{"name":"lastReasonCID","type":"string","internalType":"string"}],"stateMutability":"view"},{"type":"function","name":"getVerifierStatus","inputs":[{"name":"verifier","type":"address","internalType":"address"}],"outputs":[{"name":"isVerifier","type":"bool","internalType":"bool"},{"name":"power","type":"uint256","internalType":"uint256"},{"name":"isBanned","type":"bool","internalType":"bool"}],"stateMutability":"view"},{"type":"function","name":"isConsumingScheduledOp","inputs":[],"outputs":[{"name":"","type":"bytes4","internalType":"bytes4"}],"stateMutability":"view"},{"type":"function","name":"setAuthority","inputs":[{"name":"newAuthority","type":"address","internalType":"address"}],"outputs":[],"stateMutability":"nonpayable"},{"type":"function","name":"setVerifierSet","inputs":[{"name":"addrs","type":"address[]","internalType":"address[]"},{"name":"weights","type":"uint256[]","internalType":"uint256[]"},{"name":"reasonCID","type":"string","internalType":"string"}],"outputs":[],"stateMutability":"nonpayable"},{"type":"function","name":"unbanVerifier","inputs":[{"name":"verifier","type":"address","internalType":"address"},{"name":"reasonCID","type":"string","internalType":"string"}],"outputs":[],"stateMutability":"nonpayable"},{"type":"function","name":"vpt","inputs":[],"outputs":[{"name":"","type":"address","internalType":"contract IVPT1155"}],"stateMutability":"view"},{"type":"event","name":"AuthorityUpdated","inputs":[{"name":"authority","type":"address","indexed":false,"internalType":"address"}],"anonymous":false},{"type":"event","name":"VerifierPowerAdjusted","inputs":[{"name":"communityId","type":"uint256","indexed":true,"internalType":"uint256"},{"name":"verifier","type":"address","indexed":true,"internalType":"address"},{"name":"oldPower","type":"uint256","indexed":false,"internalType":"uint256"},{"name":"newPower","type":"uint256","indexed":false,"internalType":"uint256"},{"name":"reasonCID","type":"string","indexed":false,"internalType":"string"}],"anonymous":false},{"type":"event","name":"VerifierSetUpdated","inputs":[{"name":"communityId","type":"uint256","indexed":true,"internalType":"uint256"},{"name":"verifierCount","type":"uint256","indexed":false,"internalType":"uint256"},{"name":"totalPower","type":"uint256","indexed":false,"internalType":"uint256"},{"name":"reasonCID","type":"string","indexed":false,"internalType":"string"}],"anonymous":false},{"type":"event","name":"VerifierUnbanned","inputs":[{"name":"communityId","type":"uint256","indexed":true,"internalType":"uint256"},{"name":"verifier","type":"address","indexed":false,"internalType":"address"},{"name":"reasonCID","type":"string","indexed":false,"internalType":"string"}],"anonymous":false},{"type":"event","name":"VerifiersBanned","inputs":[{"name":"communityId","type":"uint256","indexed":true,"internalType":"uint256"},{"name":"offenders","type":"address[]","indexed":false,"internalType":"address[]"},{"name":"reasonCID","type":"string","indexed":false,"internalType":"string"}],"anonymous":false},{"type":"error","name":"AccessManagedInvalidAuthority","inputs":[{"name":"authority","type":"address","internalType":"address"}]},{"type":"error","name":"AccessManagedRequiredDelay","inputs":[{"name":"caller","type":"address","internalType":"address"},{"name":"delay","type":"uint32","internalType":"uint32"}]},{"type":"error","name":"AccessManagedUnauthorized","inputs":[{"name":"caller","type":"address","internalType":"address"}]},{"type":"error","name":"InvalidInput","inputs":[{"name":"reason","type":"string","internalType":"string"}]},{"type":"error","name":"ZeroAddress","inputs":[]}],"bytecode":{"object":"0x60c034620001ea57601f6200220038819003918201601f191683019291906001600160401b03841183851017620001ee578160609284926040968752833981010312620001ea57620000518162000202565b82620000606020840162000202565b9201515f80546001600160a01b0319166001600160a01b0393841690811790915584518181529193917f2f658b440c35314f52658ea8a740e05b284cdc84dc9ae01e891f21b8933e7cad90602090a115620001d957168015620001c8578115620001835760805260a05251611fe8908162000218823960805181818160eb015281816101da015281816104c80152818161079a01528181610aa801528181610cdc0152818161125e015281816112b50152818161130b0152818161170b01528181611773015281816117c90152818161187b01526118d1015260a0518181816101ae015281816104eb015281816107c0015281816109d201528181610a7901528181610bbc01528181610cff015281816112250152818161149601526116cf0152f35b825163d647364f60e01b815260206004820152601360248201527f496e76616c696420636f6d6d756e6974794964000000000000000000000000006044820152606490fd5b825163d92e233d60e01b8152600490fd5b835163d92e233d60e01b8152600490fd5b5f80fd5b634e487b7160e01b5f52604160045260245ffd5b51906001600160a01b0382168203620001ea5756fe6080806040526004361015610012575f80fd5b5f3560e01c908163072bd19a14611a7557508063126d612e1461112a578063195ff08414610f7d57806342f7e56814610f3b5780637a9bec9214610cb45780637a9e5e4b14610bdf5780637f50861a14610ba55780638fb3603714610b325780639804a3b214610a41578063b7cecec714610904578063bf7e214f146108df578063c075e3dd14610772578063d4a7a2f314610452578063e9759d9c14610150578063ed578de4146101135763ed943481146100cc575f80fd5b3461010f575f36600319011261010f5760206040516001600160a01b037f0000000000000000000000000000000000000000000000000000000000000000168152f35b5f80fd5b3461010f57602036600319011261010f576001600160a01b03610134611ac7565b165f526006602052602060ff60405f2054166040519015158152f35b3461010f57604036600319011261010f5767ffffffffffffffff60043581811161010f57610182903690600401611add565b9060243583811161010f5761019b903690600401611b0e565b906101a63633611dde565b831561040d577f0000000000000000000000000000000000000000000000000000000000000000946001600160a01b0394907f000000000000000000000000000000000000000000000000000000000000000086169042165f5b8381106102895750505060405194816040870160408852526060860194915f5b81811061026357887f7a5c46a850a892260a12a6d54adf91bf3c458fa719e05a435af5932c80203b5c898061025e8b8b8b8483036020860152611c3a565b0390a2005b9091929586359084821680920361010f5790815260209081019601929190600101610220565b61029f61029a82868a9b979b611bab565b611bcf565b9084821680156103e3575f818152600660209081526040808320805460ff191660011790556007825291829020805467ffffffffffffffff1916871790559051627eeac760e11b81526001600160a01b0385166004820152602481018d90529381856044818a5afa9485156103a9575f956103b4575b508461032c575b5050506001915001969296610200565b863b1561010f5788945f916103568c604051988994859463057d5c3760e21b865260048601611c5a565b0381838a5af19384156103a95760019461039a575b50815f5260029182825260405f20546103876003918254611c19565b90555f52525f60408120558a808061031c565b6103a390611be3565b8c61036b565b6040513d5f823e3d90fd5b9094508181813d83116103dc575b6103cc8183611bf7565b8101031261010f5751938d610315565b503d6103c2565b60046040517fd92e233d000000000000000000000000000000000000000000000000000000008152fd5b606460405163d647364f60e01b815260206004820152601560248201527f4e6f206f6666656e646572732070726f766964656400000000000000000000006044820152fd5b3461010f57606036600319011261010f5761046b611ac7565b67ffffffffffffffff9060243560443583811161010f57610490903690600401611b0e565b91909361049d3633611dde565b6001600160a01b03928385169586156103e357865f526020946006865260ff60405f20541661071e577f000000000000000000000000000000000000000000000000000000000000000016907f000000000000000000000000000000000000000000000000000000000000000096604051627eeac760e11b815287818061053e8c8660048401602090939291936001600160a01b0360408201951681520152565b0381875afa9081156103a9575f916106f1575b5080871115610627576105649087611c19565b90833b1561010f5784935f92838593610593604051998a96879586946334ff261960e21b865260048601611c5a565b03925af180156103a9577fc931036f784b1751c1e1702f511fc2d7b4db435d2c80f56fecf870ff56311f419661061394600292610618575b505b895f525260405f209385855495556105f0866105eb87600354611c19565b611c82565b600355421667ffffffffffffffff19600454161760045560405194859485611d6a565b0390a3005b61062190611be3565b8a6105cb565b808794939410610663575b505050906106139160027fc931036f784b1751c1e1702f511fc2d7b4db435d2c80f56fecf870ff56311f41966105cd565b8661067091949394611c19565b90833b1561010f5784935f9283859361069f604051998a968795869463057d5c3760e21b865260048601611c5a565b03925af180156103a9577fc931036f784b1751c1e1702f511fc2d7b4db435d2c80f56fecf870ff56311f4196610613946002926106e2575b509682939450610632565b6106eb90611be3565b8a6106d7565b90508781813d8311610717575b6107088183611bf7565b8101031261010f57518a610551565b503d6106fe565b6084866040519063d647364f60e01b82526004820152602660248201527f43616e6e6f742061646a75737420706f776572206f662062616e6e65642076656044820152653934b334b2b960d11b6064820152fd5b3461010f575f36600319011261010f575f61078b611c8f565b80516003546001600160a01b037f000000000000000000000000000000000000000000000000000000000000000081169492937f0000000000000000000000000000000000000000000000000000000000000000925f5b82518110156108935784846107f78386611d08565b511660405190627eeac760e11b8252818061082f602095869460048401602090939291936001600160a01b0360408201951681520152565b03818d5afa9182156103a9575f92610865575b5050610851575b6001016107e2565b9461085d600191611dd0565b959050610849565b90809250813d831161088c575b61087c8183611bf7565b8101031261010f57518980610842565b503d610872565b5085858015806108d4576108c057828160809404915b604051938452602084015260408301526060820152f35b634e487b7160e01b5f52601260045260245ffd5b506080925f916108a9565b3461010f575f36600319011261010f5760206001600160a01b035f5416604051908152f35b3461010f57604036600319011261010f5761091d611ac7565b6024359067ffffffffffffffff821161010f576109466001600160a01b03923690600401611b0e565b9290916109533633611dde565b169081156103e357815f52600660205260ff60405f205416156109fc57817f9ab0355f00114652298fd50dffb575596a8e23893c65f72b7b73ba12db130ed2925f52600660205260405f2060ff198154169055600760205260405f2067ffffffffffffffff19815416905561025e6040519283928352604060208401527f0000000000000000000000000000000000000000000000000000000000000000956040840191611c3a565b606460405163d647364f60e01b815260206004820152601360248201527f5665726966696572206e6f742062616e6e6564000000000000000000000000006044820152fd5b3461010f5760208060031936011261010f57610a5b611ac7565b604051627eeac760e11b81526001600160a01b0382811660048301527f000000000000000000000000000000000000000000000000000000000000000060248301529092919082846044817f000000000000000000000000000000000000000000000000000000000000000085165afa9182156103a9575f92610b02575b60609450165f526006825260ff60405f2054169060405192811515845283015215156040820152f35b91508284813d8311610b2b575b610b198183611bf7565b8101031261010f576060935191610ad9565b503d610b0f565b3461010f575f36600319011261010f575f5460a01c60ff1615610b9d5760207f8fb36037000000000000000000000000000000000000000000000000000000005b7fffffffff0000000000000000000000000000000000000000000000000000000060405191168152f35b60205f610b73565b3461010f575f36600319011261010f5760206040517f00000000000000000000000000000000000000000000000000000000000000008152f35b3461010f57602036600319011261010f57610bf8611ac7565b5f54906001600160a01b03908183163303610c9e57803b15610c6c577f2f658b440c35314f52658ea8a740e05b284cdc84dc9ae01e891f21b8933e7cad926020927fffffffffffffffffffffffff0000000000000000000000000000000000000000921691829116175f55604051908152a1005b602491604051917fc2f31e5e000000000000000000000000000000000000000000000000000000008352166004820152fd5b602460405162d1953b60e31b8152336004820152fd5b3461010f575f36600319011261010f57610ccc611c8f565b5f905f916001600160a01b0392837f000000000000000000000000000000000000000000000000000000000000000016937f0000000000000000000000000000000000000000000000000000000000000000915b8451811015610de45781610d348287611d08565b51604051627eeac760e11b815291166001600160a01b0381166004830152602482018590529060209081816044818c5afa9081156103a9575f91610db7575b5015159182610da0575b5050610d8c575b600101610d20565b92610d98600191611dd0565b939050610d84565b600692505f525260ff60405f205416158780610d7d565b90508181813d8311610ddd575b610dce8183611bf7565b8101031261010f575189610d73565b503d610dc4565b50909391610df181611d86565b92610dff6040519485611bf7565b818452610e20610e0e83611d86565b60209390601f19013687860137611d9e565b935f935f5b8751811015610f0d57610e7082610e3c838b611d08565b5116868b60405180948192627eeac760e11b83528560048401602090939291936001600160a01b0360408201951681520152565b0381895afa9182156103a9575f92610ede575b5081151580610ec8575b610e9c575b5050600101610e25565b96610ec09160019398610eaf8388611d08565b52610eba828b611d08565b52611dd0565b95908a610e92565b50805f526006875260ff60405f20541615610e8d565b9091508681813d8311610f06575b610ef68183611bf7565b8101031261010f5751908b610e83565b503d610eec565b610f2a83610f37878a604051948594604086526040860190611b3c565b9184830390850152611b78565b0390f35b3461010f57602036600319011261010f576001600160a01b03610f5c611ac7565b165f526007602052602067ffffffffffffffff60405f205416604051908152f35b3461010f575f36600319011261010f57610f95611c8f565b610f9f8151611d9e565b5f5b8251811015610fde57806001600160a01b03610fbf60019386611d08565b51165f52600260205260405f2054610fd78285611d08565b5201610fa1565b5060035467ffffffffffffffff60045416604051905f93826005549561100387611d32565b808352602097600190896001821691825f146111085750506001146110ad575b50509161103c61105d9261105099979695940385611bf7565b60405197889660a0885260a0880190611b3c565b9086820388880152611b78565b92604085015260608401528282036080840152805190818352845f5b83811061109657505f91508284010152601f801991011601030190f35b828101820151858201830152879550869101611079565b9088925060055f527f036b6384b5eca791c62761152d0c79bb0604c104a5fb6f4eb0703f3154bb3db0915f925b8284106110f0575050508201018161103c611023565b8054848a018601528895508a949093019281016110da565b60ff19168682015292151560051b8501909201925083915061103c9050611023565b3461010f57606036600319011261010f5760043567ffffffffffffffff811161010f5761115b903690600401611add565b60243567ffffffffffffffff811161010f5761117b903690600401611add565b9260443567ffffffffffffffff811161010f5761119c903690600401611b0e565b946111a73633611dde565b808503611a305784156119eb57925f935f915b868310611643575050506111cc611c8f565b5f5b81518110156113b4576001600160a01b036111e98284611d08565b5116905f805b888110611385575b5015611208575b60019150016111ce565b604051627eeac760e11b81526001600160a01b03831660048201527f0000000000000000000000000000000000000000000000000000000000000000602482015291602083806044810103816001600160a01b037f0000000000000000000000000000000000000000000000000000000000000000165afa9283156103a9575f93611351575b50826112ab575b600192505f5260026020525f60408120556111fe565b6001600160a01b037f0000000000000000000000000000000000000000000000000000000000000000163b1561010f575f858a946112fe604051968793849363057d5c3760e21b85528760048601611c5a565b0381836001600160a01b037f0000000000000000000000000000000000000000000000000000000000000000165af19283156103a957600193611342575b50611295565b61134b90611be3565b8961133c565b9092506020813d60201161137d575b8161136d60209383611bf7565b8101031261010f5751918961128e565b3d9150611360565b836001600160a01b0361139c61029a848d8c611bab565b16146113aa576001016111ef565b50506001896111f7565b505091909367ffffffffffffffff84116115bf576801000000000000000084116115bf57600194855485875580861061160d575b50855f52855f5b8681106115d3575050508160035567ffffffffffffffff421667ffffffffffffffff19600454161760045567ffffffffffffffff81116115bf5760056114358154611d32565b601f8111611569575b505f95601f83116001146114c75790828061025e94937fe6acd31c7f670f67235646825aa4ad1e7ce947d1286f97227f92d17b79cb346998995f936114bc575b501b905f198460031b1c19161790555b6040519384937f00000000000000000000000000000000000000000000000000000000000000009785611d6a565b88013592508a61147e565b601f198316825f527f036b6384b5eca791c62761152d0c79bb0604c104a5fb6f4eb0703f3154bb3db0905f5b8181106115535750907fe6acd31c7f670f67235646825aa4ad1e7ce947d1286f97227f92d17b79cb346997988561025e969594931061153a575b505082811b01905561148e565b8701355f19600386901b60f8161c19169055888061152d565b878a013583556020998a019992840192016114f3565b6115af90825f527f036b6384b5eca791c62761152d0c79bb0604c104a5fb6f4eb0703f3154bb3db0601f8501841c810191602086106115b5575b601f01841c0190611d1c565b8661143e565b90915081906115a3565b634e487b7160e01b5f52604160045260245ffd5b60206115de84611bcf565b930192817fb10e2d527612073b26eecdfd717e6a320cf44b4afac2b0732d9fcbe2b7fa0cf601550186906113ef565b61163d90867fb10e2d527612073b26eecdfd717e6a320cf44b4afac2b0732d9fcbe2b7fa0cf69182019101611d1c565b866113e8565b9091946001600160a01b0361165c61029a888a89611bab565b16156103e35761166d868484611bab565b35156119a6576001600160a01b0361168961029a888a89611bab565b165f52600660205260ff60405f205416611952576116ff9060206116b161029a898b8a611bab565b604051627eeac760e11b81526001600160a01b0390911660048201527f0000000000000000000000000000000000000000000000000000000000000000602482015292839081906044820190565b03816001600160a01b037f0000000000000000000000000000000000000000000000000000000000000000165afa9182156103a9575f9261191e575b50611747878585611bab565b35828111156118415761176861176161029a8a8c8b611bab565b9382611c19565b926001600160a01b037f0000000000000000000000000000000000000000000000000000000000000000163b1561010f5786935f916117bc8d60405197889485946334ff261960e21b865260048601611c5a565b0381836001600160a01b037f0000000000000000000000000000000000000000000000000000000000000000165af19182156103a95760019361182993611832575b505b6001600160a01b0361181661029a8b8d8c611bab565b165f5260026020528160405f2055611c82565b950191906111ba565b61183b90611be3565b8b6117fe565b91808310611857575b5060019161182991611800565b916118708161186a61029a8b8d8c611bab565b94611c19565b926001600160a01b037f0000000000000000000000000000000000000000000000000000000000000000163b1561010f5786935f916118c48d604051978894859463057d5c3760e21b865260048601611c5a565b0381836001600160a01b037f0000000000000000000000000000000000000000000000000000000000000000165af19182156103a9576001936118299361190f575b5091509161184a565b61191890611be3565b8b611906565b9091506020813d60201161194a575b8161193a60209383611bf7565b8101031261010f5751908961173b565b3d915061192d565b608460405163d647364f60e01b815260206004820152602660248201527f43616e6e6f742061737369676e20706f77657220746f2062616e6e65642076656044820152653934b334b2b960d11b6064820152fd5b606460405163d647364f60e01b815260206004820152601660248201527f5a65726f20706f776572206e6f7420616c6c6f776564000000000000000000006044820152fd5b606460405163d647364f60e01b815260206004820152601260248201527f456d7074792076657269666965722073657400000000000000000000000000006044820152fd5b606460405163d647364f60e01b815260206004820152601560248201527f4172726179206c656e677468206d69736d6174636800000000000000000000006044820152fd5b3461010f57602036600319011261010f576040906001600160a01b03611a99611ac7565b165f52600660205260ff825f205416600760205267ffffffffffffffff835f20541690151582526020820152f35b600435906001600160a01b038216820361010f57565b9181601f8401121561010f5782359167ffffffffffffffff831161010f576020808501948460051b01011161010f57565b9181601f8401121561010f5782359167ffffffffffffffff831161010f576020838186019501011161010f57565b9081518082526020808093019301915f5b828110611b5b575050505090565b83516001600160a01b031685529381019392810192600101611b4d565b9081518082526020808093019301915f5b828110611b97575050505090565b835185529381019392810192600101611b89565b9190811015611bbb5760051b0190565b634e487b7160e01b5f52603260045260245ffd5b356001600160a01b038116810361010f5790565b67ffffffffffffffff81116115bf57604052565b90601f8019910116810190811067ffffffffffffffff8211176115bf57604052565b91908203918211611c2657565b634e487b7160e01b5f52601160045260245ffd5b908060209392818452848401375f828201840152601f01601f1916010190565b611c7f94926001600160a01b0360609316825260208201528160408201520191611c3a565b90565b91908201809211611c2657565b60405190816001805490818352602090602084019260015f527fb10e2d527612073b26eecdfd717e6a320cf44b4afac2b0732d9fcbe2b7fa0cf6925f905b828210611ce757505050505090611ce5910383611bf7565b565b84546001600160a01b03168652889650948501949383019390830190611ccd565b8051821015611bbb5760209160051b010190565b818110611d27575050565b5f8155600101611d1c565b90600182811c92168015611d60575b6020831014611d4c57565b634e487b7160e01b5f52602260045260245ffd5b91607f1691611d41565b611c7f9492606092825260208201528160408201520191611c3a565b67ffffffffffffffff81116115bf5760051b60200190565b90611da882611d86565b611db56040519182611bf7565b8281528092611dc6601f1991611d86565b0190602036910137565b5f198114611c265760010190565b5f915f54916001600160a01b0390818416928060041161010f575f8060409485519060208201957fb700961300000000000000000000000000000000000000000000000000000000875216948560248301523060448301527fffffffff000000000000000000000000000000000000000000000000000000005f351660648301526064825260a082019082821067ffffffffffffffff8311176115bf5787925f928452828052826020525190895afa611f9f575b15611ea1575b50505050505050565b63ffffffff1615611f8957740100000000000000000000000000000000000000007fffffffffffffffffffffff00ffffffffffffffffffffffffffffffffffffffff809616175f55833b1561010f576064935f928385519687809581947f94c7d7ee00000000000000000000000000000000000000000000000000000000835260048301528860248301528060448301528084848401378181018301849052601f01601f191681010301925af1908115611f805750611f6d575b5081541690555f808080808080611e98565b611f78919250611be3565b5f905f611f5b565b513d5f823e3d90fd5b50602491519062d1953b60e31b82526004820152fd5b50505f516020518060201c150290611e9256fea264697066735822122090ca730eecbb8a9de30eb0858a0b5c5e9a7f07f7865c2bb4454bbeb17728f3b464736f6c63430008180033","linkReferences":{}},"methodIdentifiers":{"adjustVerifierPower(address,uint256,string)":"d4a7a2f3","authority()":"bf7e214f","banVerifiers(address[],string)":"e9759d9c","bannedTimestamp(address)":"42f7e568","bannedVerifiers(address)":"ed578de4","communityId()":"7f50861a","getBanInfo(address)":"072bd19a","getCommunityStats()":"c075e3dd","getEligibleVerifiers()":"7a9bec92","getVerifierSet()":"195ff084","getVerifierStatus(address)":"9804a3b2","isConsumingScheduledOp()":"8fb36037","setAuthority(address)":"7a9e5e4b","setVerifierSet(address[],uint256[],string)":"126d612e","unbanVerifier(address,string)":"b7cecec7","vpt()":"ed943481"},"id":29}