{"abi":[{"type":"function","name":"deployLayer","inputs":[{"name":"communityId","type":"uint256","internalType":"uint256"},{"name":"accessManager","type":"address","internalType":"address"},{"name":"communityRegistry","type":"address","internalType":"address"},{"name":"timelock","type":"address","internalType":"address"},{"name":"paramController","type":"address","internalType":"address"},{"name":"membershipToken","type":"address","internalType":"address"},{"name":"vptMetadataURI","type":"string","internalType":"string"},{"name":"verifierPowerTokenCreationCode","type":"bytes","internalType":"bytes"},{"name":"verifierElectionCreationCode","type":"bytes","internalType":"bytes"},{"name":"verifierManagerCreationCode","type":"bytes","internalType":"bytes"},{"name":"valuableActionRegistryCreationCode","type":"bytes","internalType":"bytes"},{"name":"valuableActionSBTCreationCode","type":"bytes","internalType":"bytes"},{"name":"engagementsCreationCode","type":"bytes","internalType":"bytes"},{"name":"positionManagerCreationCode","type":"bytes","internalType":"bytes"},{"name":"credentialManagerCreationCode","type":"bytes","internalType":"bytes"}],"outputs":[{"name":"deployment","type":"tuple","internalType":"struct VerificationLayerFactory.Deployment","components":[{"name":"verifierPowerToken","type":"address","internalType":"address"},{"name":"verifierElection","type":"address","internalType":"address"},{"name":"verifierManager","type":"address","internalType":"address"},{"name":"valuableActionRegistry","type":"address","internalType":"address"},{"name":"valuableActionSBT","type":"address","internalType":"address"},{"name":"engagements","type":"address","internalType":"address"},{"name":"positionManager","type":"address","internalType":"address"},{"name":"credentialManager","type":"address","internalType":"address"}]}],"stateMutability":"nonpayable"},{"type":"function","name":"lastDeploymentByCaller","inputs":[{"name":"","type":"address","internalType":"address"}],"outputs":[{"name":"verifierPowerToken","type":"address","internalType":"address"},{"name":"verifierElection","type":"address","internalType":"address"},{"name":"verifierManager","type":"address","internalType":"address"},{"name":"valuableActionRegistry","type":"address","internalType":"address"},{"name":"valuableActionSBT","type":"address","internalType":"address"},{"name":"engagements","type":"address","internalType":"address"},{"name":"positionManager","type":"address","internalType":"address"},{"name":"credentialManager","type":"address","internalType":"address"}],"stateMutability":"view"},{"type":"event","name":"VerificationLayerDeployed","inputs":[{"name":"caller","type":"address","indexed":true,"internalType":"address"},{"name":"communityId","type":"uint256","indexed":true,"internalType":"uint256"},{"name":"verifierPowerToken","type":"address","indexed":false,"internalType":"address"},{"name":"verifierElection","type":"address","indexed":false,"internalType":"address"},{"name":"verifierManager","type":"address","indexed":false,"internalType":"address"},{"name":"valuableActionRegistry","type":"address","indexed":false,"internalType":"address"},{"name":"valuableActionSBT","type":"address","indexed":false,"internalType":"address"},{"name":"engagements","type":"address","indexed":false,"internalType":"address"},{"name":"positionManager","type":"address","indexed":false,"internalType":"address"},{"name":"credentialManager","type":"address","indexed":false,"internalType":"address"}],"anonymous":false},{"type":"error","name":"InvalidInput","inputs":[{"name":"reason","type":"string","internalType":"string"}]},{"type":"error","name":"ZeroAddress","inputs":[]}],"bytecode":{"object":"0x6080806040523461001657610a73908161001b8239f35b5f80fdfe60806040526004361015610011575f80fd5b5f3560e01c806337af18d9146100ee576364996a771461002f575f80fd5b346100ea5760203660031901126100ea576004356001600160a01b03908181168091036100ea575f908152602081815260409182902080546001820154600283015460038401546004850154600586015460068701546007909701548951968b166001600160a01b039081168852958b1686169887019890985292891684169785019790975287168216606084015294861681166080830152938516841660a0820152908416831660c082015292161660e082015261010090f35b5f80fd5b346100ea576101e03660031901126100ea576001600160a01b0360243516602435036100ea576001600160a01b0360443516604435036100ea576001600160a01b0360643516606435036100ea576001600160a01b0360843516608435036100ea5760a4356001600160a01b03811681036100ea5760c43567ffffffffffffffff81116100ea576101839036906004016108ea565b60e43567ffffffffffffffff81116100ea576101a39036906004016108ea565b9190936101043567ffffffffffffffff81116100ea576101c79036906004016108ea565b9190946101243567ffffffffffffffff81116100ea576101eb9036906004016108ea565b906101443567ffffffffffffffff81116100ea5761020d9036906004016108ea565b92909167ffffffffffffffff61016435116100ea5761023236610164356004016108ea565b9390946101843567ffffffffffffffff81116100ea576102569036906004016108ea565b9c90996101a43567ffffffffffffffff81116100ea5761027a9036906004016108ea565b9f90996101c43567ffffffffffffffff81116100ea5761029e9036906004016108ea565b909f909e906101806040525f608081905260a081905260c081905260e081905261010081905261012081905261014081905261016052600435156108a5576001600160a01b03602435161561087b576001600160a01b03604435161561087b576001600160a01b03606435161561087b576001600160a01b03608435161561087b576001600160a01b038e161561087b576001600160a01b039361038960a061038e95856040519687928a60243516602085015260606040850152816080850152848401375f8382840101526004356060830152601f80199101168101036080810186520184610918565b61093a565b169182608052604051926001600160a01b03602435166020850152604084015260043560608401526060835282608081011067ffffffffffffffff60808501111761084e576001600160a01b039661049696610389896103fd8761044e97610440976080859b0160405261093a565b1660a0818152604080516001600160a01b036024358116602083015293841691810191909152608435929092166060830152600435608083015290948591820190565b03601f198101855284610918565b1660c052604080516001600160a01b03602435811660208301526044358116928201929092526064359190911660608201526004356080820152916103898360a08101610440565b16606060800152604051916001600160a01b0360243516602084015260043560408401526040835282606081011067ffffffffffffffff60608501111761084e57606083016040526001600160a01b039283926104f29261093a565b1692836080800152816060608001511693826040608001511660405195846024351660208801526040870152606086015260808501521660a083015260043560c083015260c082528160e081011067ffffffffffffffff60e08401111761084e576001600160a01b0396876105768461061699839760e06105c6980160405261093a565b166101205260e05161010051604080516001600160a01b03602435811660208301529388168416918101919091529086169190911660608201526004356080820152916103898360a08101610440565b166101405260e05161010051604080516001600160a01b03602435811660208301529388168416918101919091529086169190911660608201526004356080820152916103898360a08101610440565b1660e060800152335f525f60205260405f206001600160a01b03608051167fd481fb7ff4ecc8bd9d14b40bfbc75fb58b10c682dffde10afd684c0c367868e87fffffffffffffffffffffffff000000000000000000000000000000000000000092828482541617815560018101936001600160a01b03602060800151169485828254161790556107aa60028301916001600160a01b036040608001511692838282541617905560038401936001600160a01b0360606080015116948583825416179055600481016001600160a01b0360808001511690818482541617905560058201906001600160a01b0360a06080015116918285825416179055600760068401936001600160a01b0360c06080015116948587825416179055016001600160a01b0360e0608001511680958254161790556040519687966004359b339b8996919560e0968894966020939b9a969b61010087019c6001600160a01b03809a81998298838098818098168452169101521660408d01521660608b01521660808901521660a08701521660c085015216910152565b0390a36101006040516001600160a01b036080511681526001600160a01b036020608001511660208201526001600160a01b036040608001511660408201526001600160a01b036060608001511660608201526001600160a01b0360808001511660808201526001600160a01b0360a0608001511660a08201526001600160a01b0360c0608001511660c08201526001600160a01b0360e0608001511660e0820152f35b7f4e487b71000000000000000000000000000000000000000000000000000000005f52604160045260245ffd5b60046040517fd92e233d000000000000000000000000000000000000000000000000000000008152fd5b606460405163d647364f60e01b815260206004820152601460248201527f636f6d6d756e69747949642072657175697265640000000000000000000000006044820152fd5b9181601f840112156100ea5782359167ffffffffffffffff83116100ea57602083818601950101116100ea57565b90601f8019910116810190811067ffffffffffffffff82111761084e57604052565b9060405192839160209481869283830196873781015f838201528351905f945b828610610a2157506109789450015f83820152038084520182610918565b8051156109dc5751905ff0906001600160a01b03821615610997575090565b6064906040519063d647364f60e01b82526004820152600d60248201527f637265617465206661696c6564000000000000000000000000000000000000006044820152fd5b6064836040519063d647364f60e01b82526004820152600f60248201527f656d70747920696e697420636f646500000000000000000000000000000000006044820152fd5b925092909381818401015182828601015201928692859261095a56fea2646970667358221220946691afb28bbc2e8633ec790a5e5231f388b10861b03994002f13ec481cf0d564736f6c63430008180033","linkReferences":{}},"methodIdentifiers":{"deployLayer(uint256,address,address,address,address,address,string,bytes,bytes,bytes,bytes,bytes,bytes,bytes,bytes)":"37af18d9","lastDeploymentByCaller(address)":"64996a77"},"id":35}